{
	"contracts/NFTSwap.sol": {
		"NFTSwap": {
			"abi": [
				{
					"anonymous": false,
					"inputs": [
						{
							"indexed": true,
							"internalType": "address",
							"name": "seller",
							"type": "address"
						},
						{
							"indexed": true,
							"internalType": "address",
							"name": "nftAddr",
							"type": "address"
						},
						{
							"indexed": true,
							"internalType": "uint256",
							"name": "tokenId",
							"type": "uint256"
						},
						{
							"indexed": false,
							"internalType": "uint256",
							"name": "price",
							"type": "uint256"
						}
					],
					"name": "List",
					"type": "event"
				},
				{
					"anonymous": false,
					"inputs": [
						{
							"indexed": true,
							"internalType": "string",
							"name": "content",
							"type": "string"
						},
						{
							"indexed": false,
							"internalType": "address",
							"name": "to",
							"type": "address"
						}
					],
					"name": "Log",
					"type": "event"
				},
				{
					"anonymous": false,
					"inputs": [
						{
							"indexed": true,
							"internalType": "address",
							"name": "buyer",
							"type": "address"
						},
						{
							"indexed": true,
							"internalType": "address",
							"name": "nftAddr",
							"type": "address"
						},
						{
							"indexed": true,
							"internalType": "uint256",
							"name": "tokenId",
							"type": "uint256"
						},
						{
							"indexed": false,
							"internalType": "uint256",
							"name": "price",
							"type": "uint256"
						}
					],
					"name": "Purchase",
					"type": "event"
				},
				{
					"anonymous": false,
					"inputs": [
						{
							"indexed": true,
							"internalType": "address",
							"name": "seller",
							"type": "address"
						},
						{
							"indexed": true,
							"internalType": "address",
							"name": "nftAddr",
							"type": "address"
						},
						{
							"indexed": true,
							"internalType": "uint256",
							"name": "tokenId",
							"type": "uint256"
						}
					],
					"name": "Revoke",
					"type": "event"
				},
				{
					"anonymous": false,
					"inputs": [
						{
							"indexed": true,
							"internalType": "address",
							"name": "seller",
							"type": "address"
						},
						{
							"indexed": true,
							"internalType": "address",
							"name": "nftAddr",
							"type": "address"
						},
						{
							"indexed": true,
							"internalType": "uint256",
							"name": "tokenId",
							"type": "uint256"
						},
						{
							"indexed": false,
							"internalType": "uint256",
							"name": "newPric",
							"type": "uint256"
						}
					],
					"name": "Update",
					"type": "event"
				},
				{
					"stateMutability": "payable",
					"type": "fallback"
				},
				{
					"inputs": [
						{
							"internalType": "address",
							"name": "_nft",
							"type": "address"
						},
						{
							"internalType": "uint256",
							"name": "tokenId",
							"type": "uint256"
						},
						{
							"internalType": "uint256",
							"name": "price",
							"type": "uint256"
						}
					],
					"name": "list",
					"outputs": [],
					"stateMutability": "nonpayable",
					"type": "function"
				},
				{
					"inputs": [
						{
							"internalType": "address",
							"name": "",
							"type": "address"
						},
						{
							"internalType": "uint256",
							"name": "",
							"type": "uint256"
						}
					],
					"name": "nftList",
					"outputs": [
						{
							"internalType": "address",
							"name": "owner",
							"type": "address"
						},
						{
							"internalType": "uint256",
							"name": "price",
							"type": "uint256"
						}
					],
					"stateMutability": "view",
					"type": "function"
				},
				{
					"inputs": [
						{
							"internalType": "address",
							"name": "operator",
							"type": "address"
						},
						{
							"internalType": "address",
							"name": "from",
							"type": "address"
						},
						{
							"internalType": "uint256",
							"name": "tokenId",
							"type": "uint256"
						},
						{
							"internalType": "bytes",
							"name": "data",
							"type": "bytes"
						}
					],
					"name": "onERC721Received",
					"outputs": [
						{
							"internalType": "bytes4",
							"name": "",
							"type": "bytes4"
						}
					],
					"stateMutability": "pure",
					"type": "function"
				},
				{
					"inputs": [
						{
							"internalType": "address",
							"name": "_nft",
							"type": "address"
						},
						{
							"internalType": "uint256",
							"name": "tokenId",
							"type": "uint256"
						}
					],
					"name": "purchase",
					"outputs": [],
					"stateMutability": "payable",
					"type": "function"
				},
				{
					"inputs": [
						{
							"internalType": "address",
							"name": "_nft",
							"type": "address"
						},
						{
							"internalType": "uint256",
							"name": "tokenId",
							"type": "uint256"
						}
					],
					"name": "revoke",
					"outputs": [],
					"stateMutability": "nonpayable",
					"type": "function"
				},
				{
					"inputs": [
						{
							"internalType": "address",
							"name": "_nft",
							"type": "address"
						},
						{
							"internalType": "uint256",
							"name": "tokenId",
							"type": "uint256"
						},
						{
							"internalType": "uint256",
							"name": "price",
							"type": "uint256"
						}
					],
					"name": "update",
					"outputs": [],
					"stateMutability": "nonpayable",
					"type": "function"
				},
				{
					"stateMutability": "payable",
					"type": "receive"
				}
			],
			"devdoc": {
				"kind": "dev",
				"methods": {},
				"version": 1
			},
			"evm": {
				"assembly": "    /* \"contracts/NFTSwap.sol\":1581:6522  contract NFTSwap is IERC721Receiver {... */\n  mstore(0x40, 0x80)\n  callvalue\n  dup1\n  iszero\n  tag_1\n  jumpi\n  0x00\n  dup1\n  revert\ntag_1:\n  pop\n  dataSize(sub_0)\n  dup1\n  dataOffset(sub_0)\n  0x00\n  codecopy\n  0x00\n  return\nstop\n\nsub_0: assembly {\n        /* \"contracts/NFTSwap.sol\":1581:6522  contract NFTSwap is IERC721Receiver {... */\n      mstore(0x40, 0x80)\n      jumpi(tag_1, lt(calldatasize, 0x04))\n      shr(0xe0, calldataload(0x00))\n      dup1\n      0x150b7a02\n      eq\n      tag_3\n      jumpi\n      dup1\n      0x8de93222\n      eq\n      tag_4\n      jumpi\n      dup1\n      0xba5f4fb2\n      eq\n      tag_5\n      jumpi\n      dup1\n      0xd09b6d43\n      eq\n      tag_6\n      jumpi\n      dup1\n      0xdda342bb\n      eq\n      tag_7\n      jumpi\n      dup1\n      0xeac449d9\n      eq\n      tag_8\n      jumpi\n      jump(tag_2)\n    tag_1:\n      jumpi(tag_2, calldatasize)\n      stop\n    tag_2:\n      stop\n        /* \"contracts/NFTSwap.sol\":6276:6519  function onERC721Received(... */\n    tag_3:\n      callvalue\n      dup1\n      iszero\n      tag_13\n      jumpi\n      0x00\n      dup1\n      revert\n    tag_13:\n      pop\n      tag_14\n      0x04\n      dup1\n      calldatasize\n      sub\n      dup2\n      add\n      swap1\n      tag_15\n      swap2\n      swap1\n      tag_16\n      jump\t// in\n    tag_15:\n      tag_17\n      jump\t// in\n    tag_14:\n      mload(0x40)\n      tag_18\n      swap2\n      swap1\n      tag_19\n      jump\t// in\n    tag_18:\n      mload(0x40)\n      dup1\n      swap2\n      sub\n      swap1\n      return\n        /* \"contracts/NFTSwap.sol\":4523:6133  function purchase(address _nft, uint256 tokenId) payable public {... */\n    tag_4:\n      tag_20\n      0x04\n      dup1\n      calldatasize\n      sub\n      dup2\n      add\n      swap1\n      tag_21\n      swap2\n      swap1\n      tag_22\n      jump\t// in\n    tag_21:\n      tag_23\n      jump\t// in\n    tag_20:\n      stop\n        /* \"contracts/NFTSwap.sol\":2347:2409  mapping (address => mapping (uint256 => Order)) public nftList */\n    tag_5:\n      callvalue\n      dup1\n      iszero\n      tag_24\n      jumpi\n      0x00\n      dup1\n      revert\n    tag_24:\n      pop\n      tag_25\n      0x04\n      dup1\n      calldatasize\n      sub\n      dup2\n      add\n      swap1\n      tag_26\n      swap2\n      swap1\n      tag_22\n      jump\t// in\n    tag_26:\n      tag_27\n      jump\t// in\n    tag_25:\n      mload(0x40)\n      tag_28\n      swap3\n      swap2\n      swap1\n      tag_29\n      jump\t// in\n    tag_28:\n      mload(0x40)\n      dup1\n      swap2\n      sub\n      swap1\n      return\n        /* \"contracts/NFTSwap.sol\":3937:4500  function update(address _nft, uint256 tokenId, uint price) public {... */\n    tag_6:\n      callvalue\n      dup1\n      iszero\n      tag_30\n      jumpi\n      0x00\n      dup1\n      revert\n    tag_30:\n      pop\n      tag_31\n      0x04\n      dup1\n      calldatasize\n      sub\n      dup2\n      add\n      swap1\n      tag_32\n      swap2\n      swap1\n      tag_33\n      jump\t// in\n    tag_32:\n      tag_34\n      jump\t// in\n    tag_31:\n      stop\n        /* \"contracts/NFTSwap.sol\":2433:3190  function list(address _nft, uint256 tokenId, uint price) public {... */\n    tag_7:\n      callvalue\n      dup1\n      iszero\n      tag_35\n      jumpi\n      0x00\n      dup1\n      revert\n    tag_35:\n      pop\n      tag_36\n      0x04\n      dup1\n      calldatasize\n      sub\n      dup2\n      add\n      swap1\n      tag_37\n      swap2\n      swap1\n      tag_33\n      jump\t// in\n    tag_37:\n      tag_38\n      jump\t// in\n    tag_36:\n      stop\n        /* \"contracts/NFTSwap.sol\":3213:3908  function revoke(address _nft, uint256 tokenId) public {... */\n    tag_8:\n      callvalue\n      dup1\n      iszero\n      tag_39\n      jumpi\n      0x00\n      dup1\n      revert\n    tag_39:\n      pop\n      tag_40\n      0x04\n      dup1\n      calldatasize\n      sub\n      dup2\n      add\n      swap1\n      tag_41\n      swap2\n      swap1\n      tag_22\n      jump\t// in\n    tag_41:\n      tag_42\n      jump\t// in\n    tag_40:\n      stop\n        /* \"contracts/NFTSwap.sol\":6276:6519  function onERC721Received(... */\n    tag_17:\n        /* \"contracts/NFTSwap.sol\":6444:6450  bytes4 */\n      0x00\n        /* \"contracts/NFTSwap.sol\":6470:6511  IERC721Receiver.onERC721Received.selector */\n      shl(0xe0, 0x150b7a02)\n        /* \"contracts/NFTSwap.sol\":6463:6511  return IERC721Receiver.onERC721Received.selector */\n      swap1\n      pop\n        /* \"contracts/NFTSwap.sol\":6276:6519  function onERC721Received(... */\n      swap6\n      swap5\n      pop\n      pop\n      pop\n      pop\n      pop\n      jump\t// out\n        /* \"contracts/NFTSwap.sol\":4523:6133  function purchase(address _nft, uint256 tokenId) payable public {... */\n    tag_23:\n        /* \"contracts/NFTSwap.sol\":4648:4659  IERC721 nft */\n      0x00\n        /* \"contracts/NFTSwap.sol\":4670:4674  _nft */\n      dup3\n        /* \"contracts/NFTSwap.sol\":4648:4675  IERC721 nft = IERC721(_nft) */\n      swap1\n      pop\n        /* \"contracts/NFTSwap.sol\":4726:4730  this */\n      address\n        /* \"contracts/NFTSwap.sol\":4694:4731  nft.ownerOf(tokenId) == address(this) */\n      0xffffffffffffffffffffffffffffffffffffffff\n      and\n        /* \"contracts/NFTSwap.sol\":4694:4697  nft */\n      dup2\n        /* \"contracts/NFTSwap.sol\":4694:4705  nft.ownerOf */\n      0xffffffffffffffffffffffffffffffffffffffff\n      and\n      0x6352211e\n        /* \"contracts/NFTSwap.sol\":4706:4713  tokenId */\n      dup5\n        /* \"contracts/NFTSwap.sol\":4694:4714  nft.ownerOf(tokenId) */\n      mload(0x40)\n      dup3\n      0xffffffff\n      and\n      0xe0\n      shl\n      dup2\n      mstore\n      0x04\n      add\n      tag_45\n      swap2\n      swap1\n      tag_46\n      jump\t// in\n    tag_45:\n      0x20\n      mload(0x40)\n      dup1\n      dup4\n      sub\n      dup2\n      dup7\n      gas\n      staticcall\n      iszero\n      dup1\n      iszero\n      tag_48\n      jumpi\n      returndatasize\n      0x00\n      dup1\n      returndatacopy\n      revert(0x00, returndatasize)\n    tag_48:\n      pop\n      pop\n      pop\n      pop\n      mload(0x40)\n      returndatasize\n      not(0x1f)\n      0x1f\n      dup3\n      add\n      and\n      dup3\n      add\n      dup1\n      0x40\n      mstore\n      pop\n      dup2\n      add\n      swap1\n      tag_49\n      swap2\n      swap1\n      tag_50\n      jump\t// in\n    tag_49:\n        /* \"contracts/NFTSwap.sol\":4694:4731  nft.ownerOf(tokenId) == address(this) */\n      0xffffffffffffffffffffffffffffffffffffffff\n      and\n      eq\n        /* \"contracts/NFTSwap.sol\":4686:4761  require(nft.ownerOf(tokenId) == address(this), \"The tokenId is not listed\") */\n      tag_51\n      jumpi\n      mload(0x40)\n      0x08c379a000000000000000000000000000000000000000000000000000000000\n      dup2\n      mstore\n      0x04\n      add\n      tag_52\n      swap1\n      tag_53\n      jump\t// in\n    tag_52:\n      mload(0x40)\n      dup1\n      swap2\n      sub\n      swap1\n      revert\n    tag_51:\n        /* \"contracts/NFTSwap.sol\":4799:4818  Order storage order */\n      0x00\n        /* \"contracts/NFTSwap.sol\":4821:4828  nftList */\n      dup1\n        /* \"contracts/NFTSwap.sol\":4821:4834  nftList[_nft] */\n      0x00\n        /* \"contracts/NFTSwap.sol\":4829:4833  _nft */\n      dup6\n        /* \"contracts/NFTSwap.sol\":4821:4834  nftList[_nft] */\n      0xffffffffffffffffffffffffffffffffffffffff\n      and\n      0xffffffffffffffffffffffffffffffffffffffff\n      and\n      dup2\n      mstore\n      0x20\n      add\n      swap1\n      dup2\n      mstore\n      0x20\n      add\n      0x00\n      keccak256\n        /* \"contracts/NFTSwap.sol\":4821:4843  nftList[_nft][tokenId] */\n      0x00\n        /* \"contracts/NFTSwap.sol\":4835:4842  tokenId */\n      dup5\n        /* \"contracts/NFTSwap.sol\":4821:4843  nftList[_nft][tokenId] */\n      dup2\n      mstore\n      0x20\n      add\n      swap1\n      dup2\n      mstore\n      0x20\n      add\n      0x00\n      keccak256\n        /* \"contracts/NFTSwap.sol\":4799:4843  Order storage order = nftList[_nft][tokenId] */\n      swap1\n      pop\n        /* \"contracts/NFTSwap.sol\":4904:4913  msg.value */\n      callvalue\n        /* \"contracts/NFTSwap.sol\":4889:4894  order */\n      dup2\n        /* \"contracts/NFTSwap.sol\":4889:4900  order.price */\n      0x01\n      add\n      sload\n        /* \"contracts/NFTSwap.sol\":4889:4913  order.price <= msg.value */\n      gt\n      iszero\n        /* \"contracts/NFTSwap.sol\":4881:4962  require(order.price <= msg.value, \"Your price is less than the price of tokenId\") */\n      tag_54\n      jumpi\n      mload(0x40)\n      0x08c379a000000000000000000000000000000000000000000000000000000000\n      dup2\n      mstore\n      0x04\n      add\n      tag_55\n      swap1\n      tag_56\n      jump\t// in\n    tag_55:\n      mload(0x40)\n      dup1\n      swap2\n      sub\n      swap1\n      revert\n    tag_54:\n        /* \"contracts/NFTSwap.sol\":5003:5006  nft */\n      dup2\n        /* \"contracts/NFTSwap.sol\":5003:5023  nft.safeTransferFrom */\n      0xffffffffffffffffffffffffffffffffffffffff\n      and\n      0x42842e0e\n        /* \"contracts/NFTSwap.sol\":5032:5036  this */\n      address\n        /* \"contracts/NFTSwap.sol\":5039:5049  msg.sender */\n      caller\n        /* \"contracts/NFTSwap.sol\":5051:5058  tokenId */\n      dup7\n        /* \"contracts/NFTSwap.sol\":5003:5059  nft.safeTransferFrom(address(this), msg.sender, tokenId) */\n      mload(0x40)\n      dup5\n      0xffffffff\n      and\n      0xe0\n      shl\n      dup2\n      mstore\n      0x04\n      add\n      tag_57\n      swap4\n      swap3\n      swap2\n      swap1\n      tag_58\n      jump\t// in\n    tag_57:\n      0x00\n      mload(0x40)\n      dup1\n      dup4\n      sub\n      dup2\n      0x00\n      dup8\n      dup1\n      extcodesize\n      iszero\n      dup1\n      iszero\n      tag_59\n      jumpi\n      0x00\n      dup1\n      revert\n    tag_59:\n      pop\n      gas\n      call\n      iszero\n      dup1\n      iszero\n      tag_61\n      jumpi\n      returndatasize\n      0x00\n      dup1\n      returndatacopy\n      revert(0x00, returndatasize)\n    tag_61:\n      pop\n      pop\n      pop\n      pop\n        /* \"contracts/NFTSwap.sol\":5549:5601  Log(\"Start to transfer to order.owner\", order.owner) */\n      mload(0x40)\n      tag_62\n      swap1\n      tag_63\n      jump\t// in\n    tag_62:\n      mload(0x40)\n      dup1\n      swap2\n      sub\n      swap1\n      keccak256\n      0x1dfffa052d4a63bd70f14b863e128979d1c59e3589a0a3beb2633a120047042d\n        /* \"contracts/NFTSwap.sol\":5589:5594  order */\n      dup3\n        /* \"contracts/NFTSwap.sol\":5589:5600  order.owner */\n      0x00\n      add\n      0x00\n      swap1\n      sload\n      swap1\n      0x0100\n      exp\n      swap1\n      div\n      0xffffffffffffffffffffffffffffffffffffffff\n      and\n        /* \"contracts/NFTSwap.sol\":5549:5601  Log(\"Start to transfer to order.owner\", order.owner) */\n      mload(0x40)\n      tag_64\n      swap2\n      swap1\n      tag_65\n      jump\t// in\n    tag_64:\n      mload(0x40)\n      dup1\n      swap2\n      sub\n      swap1\n      log2\n        /* \"contracts/NFTSwap.sol\":5620:5625  order */\n      dup1\n        /* \"contracts/NFTSwap.sol\":5620:5631  order.owner */\n      0x00\n      add\n      0x00\n      swap1\n      sload\n      swap1\n      0x0100\n      exp\n      swap1\n      div\n      0xffffffffffffffffffffffffffffffffffffffff\n      and\n        /* \"contracts/NFTSwap.sol\":5612:5641  payable(order.owner).transfer */\n      0xffffffffffffffffffffffffffffffffffffffff\n      and\n        /* \"contracts/NFTSwap.sol\":5612:5654  payable(order.owner).transfer(order.price) */\n      0x08fc\n        /* \"contracts/NFTSwap.sol\":5642:5647  order */\n      dup3\n        /* \"contracts/NFTSwap.sol\":5642:5653  order.price */\n      0x01\n      add\n      sload\n        /* \"contracts/NFTSwap.sol\":5612:5654  payable(order.owner).transfer(order.price) */\n      swap1\n      dup2\n      iszero\n      mul\n      swap1\n      mload(0x40)\n      0x00\n      mload(0x40)\n      dup1\n      dup4\n      sub\n      dup2\n      dup6\n      dup9\n      dup9\n      call\n      swap4\n      pop\n      pop\n      pop\n      pop\n      iszero\n      dup1\n      iszero\n      tag_67\n      jumpi\n      returndatasize\n      0x00\n      dup1\n      returndatacopy\n      revert(0x00, returndatasize)\n    tag_67:\n      pop\n        /* \"contracts/NFTSwap.sol\":5670:5720  Log(\"End to transfer to order.owner\", order.owner) */\n      mload(0x40)\n      tag_68\n      swap1\n      tag_69\n      jump\t// in\n    tag_68:\n      mload(0x40)\n      dup1\n      swap2\n      sub\n      swap1\n      keccak256\n      0x1dfffa052d4a63bd70f14b863e128979d1c59e3589a0a3beb2633a120047042d\n        /* \"contracts/NFTSwap.sol\":5708:5713  order */\n      dup3\n        /* \"contracts/NFTSwap.sol\":5708:5719  order.owner */\n      0x00\n      add\n      0x00\n      swap1\n      sload\n      swap1\n      0x0100\n      exp\n      swap1\n      div\n      0xffffffffffffffffffffffffffffffffffffffff\n      and\n        /* \"contracts/NFTSwap.sol\":5670:5720  Log(\"End to transfer to order.owner\", order.owner) */\n      mload(0x40)\n      tag_70\n      swap2\n      swap1\n      tag_65\n      jump\t// in\n    tag_70:\n      mload(0x40)\n      dup1\n      swap2\n      sub\n      swap1\n      log2\n        /* \"contracts/NFTSwap.sol\":5763:5764  0 */\n      0x00\n        /* \"contracts/NFTSwap.sol\":5751:5760  msg.value */\n      callvalue\n        /* \"contracts/NFTSwap.sol\":5737:5742  order */\n      dup3\n        /* \"contracts/NFTSwap.sol\":5737:5748  order.price */\n      0x01\n      add\n      sload\n        /* \"contracts/NFTSwap.sol\":5737:5760  order.price - msg.value */\n      tag_71\n      swap2\n      swap1\n      tag_72\n      jump\t// in\n    tag_71:\n        /* \"contracts/NFTSwap.sol\":5737:5764  order.price - msg.value < 0 */\n      lt\n        /* \"contracts/NFTSwap.sol\":5733:5984  if (order.price - msg.value < 0) {... */\n      iszero\n      tag_73\n      jumpi\n        /* \"contracts/NFTSwap.sol\":5786:5836  Log(\"Start to transfer to msg.sender\", msg.sender) */\n      mload(0x40)\n      tag_74\n      swap1\n      tag_75\n      jump\t// in\n    tag_74:\n      mload(0x40)\n      dup1\n      swap2\n      sub\n      swap1\n      keccak256\n      0x1dfffa052d4a63bd70f14b863e128979d1c59e3589a0a3beb2633a120047042d\n        /* \"contracts/NFTSwap.sol\":5825:5835  msg.sender */\n      caller\n        /* \"contracts/NFTSwap.sol\":5786:5836  Log(\"Start to transfer to msg.sender\", msg.sender) */\n      mload(0x40)\n      tag_76\n      swap2\n      swap1\n      tag_65\n      jump\t// in\n    tag_76:\n      mload(0x40)\n      dup1\n      swap2\n      sub\n      swap1\n      log2\n        /* \"contracts/NFTSwap.sol\":5859:5869  msg.sender */\n      caller\n        /* \"contracts/NFTSwap.sol\":5851:5879  payable(msg.sender).transfer */\n      0xffffffffffffffffffffffffffffffffffffffff\n      and\n        /* \"contracts/NFTSwap.sol\":5851:5904  payable(msg.sender).transfer(msg.value - order.price) */\n      0x08fc\n        /* \"contracts/NFTSwap.sol\":5892:5897  order */\n      dup3\n        /* \"contracts/NFTSwap.sol\":5892:5903  order.price */\n      0x01\n      add\n      sload\n        /* \"contracts/NFTSwap.sol\":5880:5889  msg.value */\n      callvalue\n        /* \"contracts/NFTSwap.sol\":5880:5903  msg.value - order.price */\n      tag_77\n      swap2\n      swap1\n      tag_72\n      jump\t// in\n    tag_77:\n        /* \"contracts/NFTSwap.sol\":5851:5904  payable(msg.sender).transfer(msg.value - order.price) */\n      swap1\n      dup2\n      iszero\n      mul\n      swap1\n      mload(0x40)\n      0x00\n      mload(0x40)\n      dup1\n      dup4\n      sub\n      dup2\n      dup6\n      dup9\n      dup9\n      call\n      swap4\n      pop\n      pop\n      pop\n      pop\n      iszero\n      dup1\n      iszero\n      tag_79\n      jumpi\n      returndatasize\n      0x00\n      dup1\n      returndatacopy\n      revert(0x00, returndatasize)\n    tag_79:\n      pop\n        /* \"contracts/NFTSwap.sol\":5924:5972  Log(\"End to transfer to msg.sender\", msg.sender) */\n      mload(0x40)\n      tag_80\n      swap1\n      tag_81\n      jump\t// in\n    tag_80:\n      mload(0x40)\n      dup1\n      swap2\n      sub\n      swap1\n      keccak256\n      0x1dfffa052d4a63bd70f14b863e128979d1c59e3589a0a3beb2633a120047042d\n        /* \"contracts/NFTSwap.sol\":5961:5971  msg.sender */\n      caller\n        /* \"contracts/NFTSwap.sol\":5924:5972  Log(\"End to transfer to msg.sender\", msg.sender) */\n      mload(0x40)\n      tag_82\n      swap2\n      swap1\n      tag_65\n      jump\t// in\n    tag_82:\n      mload(0x40)\n      dup1\n      swap2\n      sub\n      swap1\n      log2\n        /* \"contracts/NFTSwap.sol\":5733:5984  if (order.price - msg.value < 0) {... */\n    tag_73:\n        /* \"contracts/NFTSwap.sol\":6037:6044  nftList */\n      0x00\n        /* \"contracts/NFTSwap.sol\":6037:6050  nftList[_nft] */\n      dup1\n        /* \"contracts/NFTSwap.sol\":6045:6049  _nft */\n      dup6\n        /* \"contracts/NFTSwap.sol\":6037:6050  nftList[_nft] */\n      0xffffffffffffffffffffffffffffffffffffffff\n      and\n      0xffffffffffffffffffffffffffffffffffffffff\n      and\n      dup2\n      mstore\n      0x20\n      add\n      swap1\n      dup2\n      mstore\n      0x20\n      add\n      0x00\n      keccak256\n        /* \"contracts/NFTSwap.sol\":6037:6059  nftList[_nft][tokenId] */\n      0x00\n        /* \"contracts/NFTSwap.sol\":6051:6058  tokenId */\n      dup5\n        /* \"contracts/NFTSwap.sol\":6037:6059  nftList[_nft][tokenId] */\n      dup2\n      mstore\n      0x20\n      add\n      swap1\n      dup2\n      mstore\n      0x20\n      add\n      0x00\n      keccak256\n      0x00\n        /* \"contracts/NFTSwap.sol\":6030:6059  delete nftList[_nft][tokenId] */\n      dup1\n      dup3\n      add\n      exp(0x0100, 0x00)\n      dup2\n      sload\n      swap1\n      0xffffffffffffffffffffffffffffffffffffffff\n      mul\n      not\n      and\n      swap1\n      sstore\n      0x01\n      dup3\n      add\n      0x00\n      swap1\n      sstore\n      pop\n      pop\n        /* \"contracts/NFTSwap.sol\":6104:6111  tokenId */\n      dup3\n        /* \"contracts/NFTSwap.sol\":6098:6102  _nft */\n      dup5\n        /* \"contracts/NFTSwap.sol\":6077:6125  Purchase(msg.sender, _nft, tokenId, order.price) */\n      0xffffffffffffffffffffffffffffffffffffffff\n      and\n        /* \"contracts/NFTSwap.sol\":6086:6096  msg.sender */\n      caller\n        /* \"contracts/NFTSwap.sol\":6077:6125  Purchase(msg.sender, _nft, tokenId, order.price) */\n      0xffffffffffffffffffffffffffffffffffffffff\n      and\n      0x46661dab58311a6838247afecbee792192b4f27fc8b3e7168c66bc55ec2e404e\n        /* \"contracts/NFTSwap.sol\":6113:6118  order */\n      dup5\n        /* \"contracts/NFTSwap.sol\":6113:6124  order.price */\n      0x01\n      add\n      sload\n        /* \"contracts/NFTSwap.sol\":6077:6125  Purchase(msg.sender, _nft, tokenId, order.price) */\n      mload(0x40)\n      tag_83\n      swap2\n      swap1\n      tag_46\n      jump\t// in\n    tag_83:\n      mload(0x40)\n      dup1\n      swap2\n      sub\n      swap1\n      log4\n        /* \"contracts/NFTSwap.sol\":4587:6133  {... */\n      pop\n      pop\n        /* \"contracts/NFTSwap.sol\":4523:6133  function purchase(address _nft, uint256 tokenId) payable public {... */\n      pop\n      pop\n      jump\t// out\n        /* \"contracts/NFTSwap.sol\":2347:2409  mapping (address => mapping (uint256 => Order)) public nftList */\n    tag_27:\n      mstore(0x20, 0x00)\n      dup2\n      0x00\n      mstore\n      mstore(0x20, keccak256(0x00, 0x40))\n      dup1\n      0x00\n      mstore\n      keccak256(0x00, 0x40)\n      0x00\n      swap2\n      pop\n      swap2\n      pop\n      pop\n      dup1\n      0x00\n      add\n      0x00\n      swap1\n      sload\n      swap1\n      0x0100\n      exp\n      swap1\n      div\n      0xffffffffffffffffffffffffffffffffffffffff\n      and\n      swap1\n      dup1\n      0x01\n      add\n      sload\n      swap1\n      pop\n      dup3\n      jump\t// out\n        /* \"contracts/NFTSwap.sol\":3937:4500  function update(address _nft, uint256 tokenId, uint price) public {... */\n    tag_34:\n        /* \"contracts/NFTSwap.sol\":4014:4033  Order storage order */\n      0x00\n        /* \"contracts/NFTSwap.sol\":4036:4043  nftList */\n      dup1\n        /* \"contracts/NFTSwap.sol\":4036:4049  nftList[_nft] */\n      0x00\n        /* \"contracts/NFTSwap.sol\":4044:4048  _nft */\n      dup6\n        /* \"contracts/NFTSwap.sol\":4036:4049  nftList[_nft] */\n      0xffffffffffffffffffffffffffffffffffffffff\n      and\n      0xffffffffffffffffffffffffffffffffffffffff\n      and\n      dup2\n      mstore\n      0x20\n      add\n      swap1\n      dup2\n      mstore\n      0x20\n      add\n      0x00\n      keccak256\n        /* \"contracts/NFTSwap.sol\":4036:4058  nftList[_nft][tokenId] */\n      0x00\n        /* \"contracts/NFTSwap.sol\":4050:4057  tokenId */\n      dup5\n        /* \"contracts/NFTSwap.sol\":4036:4058  nftList[_nft][tokenId] */\n      dup2\n      mstore\n      0x20\n      add\n      swap1\n      dup2\n      mstore\n      0x20\n      add\n      0x00\n      keccak256\n        /* \"contracts/NFTSwap.sol\":4014:4058  Order storage order = nftList[_nft][tokenId] */\n      swap1\n      pop\n        /* \"contracts/NFTSwap.sol\":4141:4146  order */\n      dup1\n        /* \"contracts/NFTSwap.sol\":4141:4152  order.owner */\n      0x00\n      add\n      0x00\n      swap1\n      sload\n      swap1\n      0x0100\n      exp\n      swap1\n      div\n      0xffffffffffffffffffffffffffffffffffffffff\n      and\n        /* \"contracts/NFTSwap.sol\":4127:4152  msg.sender == order.owner */\n      0xffffffffffffffffffffffffffffffffffffffff\n      and\n        /* \"contracts/NFTSwap.sol\":4127:4137  msg.sender */\n      caller\n        /* \"contracts/NFTSwap.sol\":4127:4152  msg.sender == order.owner */\n      0xffffffffffffffffffffffffffffffffffffffff\n      and\n      eq\n        /* \"contracts/NFTSwap.sol\":4119:4170  require(msg.sender == order.owner, \"Invalid owner\") */\n      tag_85\n      jumpi\n      mload(0x40)\n      0x08c379a000000000000000000000000000000000000000000000000000000000\n      dup2\n      mstore\n      0x04\n      add\n      tag_86\n      swap1\n      tag_87\n      jump\t// in\n    tag_86:\n      mload(0x40)\n      dup1\n      swap2\n      sub\n      swap1\n      revert\n    tag_85:\n        /* \"contracts/NFTSwap.sol\":4226:4237  IERC721 nft */\n      0x00\n        /* \"contracts/NFTSwap.sol\":4248:4252  _nft */\n      dup5\n        /* \"contracts/NFTSwap.sol\":4226:4253  IERC721 nft = IERC721(_nft) */\n      swap1\n      pop\n        /* \"contracts/NFTSwap.sol\":4304:4308  this */\n      address\n        /* \"contracts/NFTSwap.sol\":4272:4309  nft.ownerOf(tokenId) == address(this) */\n      0xffffffffffffffffffffffffffffffffffffffff\n      and\n        /* \"contracts/NFTSwap.sol\":4272:4275  nft */\n      dup2\n        /* \"contracts/NFTSwap.sol\":4272:4283  nft.ownerOf */\n      0xffffffffffffffffffffffffffffffffffffffff\n      and\n      0x6352211e\n        /* \"contracts/NFTSwap.sol\":4284:4291  tokenId */\n      dup7\n        /* \"contracts/NFTSwap.sol\":4272:4292  nft.ownerOf(tokenId) */\n      mload(0x40)\n      dup3\n      0xffffffff\n      and\n      0xe0\n      shl\n      dup2\n      mstore\n      0x04\n      add\n      tag_88\n      swap2\n      swap1\n      tag_46\n      jump\t// in\n    tag_88:\n      0x20\n      mload(0x40)\n      dup1\n      dup4\n      sub\n      dup2\n      dup7\n      gas\n      staticcall\n      iszero\n      dup1\n      iszero\n      tag_90\n      jumpi\n      returndatasize\n      0x00\n      dup1\n      returndatacopy\n      revert(0x00, returndatasize)\n    tag_90:\n      pop\n      pop\n      pop\n      pop\n      mload(0x40)\n      returndatasize\n      not(0x1f)\n      0x1f\n      dup3\n      add\n      and\n      dup3\n      add\n      dup1\n      0x40\n      mstore\n      pop\n      dup2\n      add\n      swap1\n      tag_91\n      swap2\n      swap1\n      tag_50\n      jump\t// in\n    tag_91:\n        /* \"contracts/NFTSwap.sol\":4272:4309  nft.ownerOf(tokenId) == address(this) */\n      0xffffffffffffffffffffffffffffffffffffffff\n      and\n      eq\n        /* \"contracts/NFTSwap.sol\":4264:4338  require(nft.ownerOf(tokenId) == address(this), \"The tokeId is not listed\") */\n      tag_92\n      jumpi\n      mload(0x40)\n      0x08c379a000000000000000000000000000000000000000000000000000000000\n      dup2\n      mstore\n      0x04\n      add\n      tag_93\n      swap1\n      tag_94\n      jump\t// in\n    tag_93:\n      mload(0x40)\n      dup1\n      swap2\n      sub\n      swap1\n      revert\n    tag_92:\n        /* \"contracts/NFTSwap.sol\":4407:4408  0 */\n      0x00\n        /* \"contracts/NFTSwap.sol\":4399:4404  price */\n      dup4\n        /* \"contracts/NFTSwap.sol\":4399:4408  price > 0 */\n      gt\n        /* \"contracts/NFTSwap.sol\":4391:4460  require(price > 0, \"The price of tokenId is must be set to non zero\") */\n      tag_95\n      jumpi\n      mload(0x40)\n      0x08c379a000000000000000000000000000000000000000000000000000000000\n      dup2\n      mstore\n      0x04\n      add\n      tag_96\n      swap1\n      tag_97\n      jump\t// in\n    tag_96:\n      mload(0x40)\n      dup1\n      swap2\n      sub\n      swap1\n      revert\n    tag_95:\n        /* \"contracts/NFTSwap.sol\":4487:4492  price */\n      dup3\n        /* \"contracts/NFTSwap.sol\":4473:4478  order */\n      dup3\n        /* \"contracts/NFTSwap.sol\":4473:4484  order.price */\n      0x01\n      add\n        /* \"contracts/NFTSwap.sol\":4473:4492  order.price = price */\n      dup2\n      swap1\n      sstore\n      pop\n        /* \"contracts/NFTSwap.sol\":4003:4500  {... */\n      pop\n      pop\n        /* \"contracts/NFTSwap.sol\":3937:4500  function update(address _nft, uint256 tokenId, uint price) public {... */\n      pop\n      pop\n      pop\n      jump\t// out\n        /* \"contracts/NFTSwap.sol\":2433:3190  function list(address _nft, uint256 tokenId, uint price) public {... */\n    tag_38:\n        /* \"contracts/NFTSwap.sol\":2508:2519  IERC721 nft */\n      0x00\n        /* \"contracts/NFTSwap.sol\":2530:2534  _nft */\n      dup4\n        /* \"contracts/NFTSwap.sol\":2508:2535  IERC721 nft = IERC721(_nft) */\n      swap1\n      pop\n        /* \"contracts/NFTSwap.sol\":2658:2662  this */\n      address\n        /* \"contracts/NFTSwap.sol\":2622:2663  nft.getApproved(tokenId) == address(this) */\n      0xffffffffffffffffffffffffffffffffffffffff\n      and\n        /* \"contracts/NFTSwap.sol\":2622:2625  nft */\n      dup2\n        /* \"contracts/NFTSwap.sol\":2622:2637  nft.getApproved */\n      0xffffffffffffffffffffffffffffffffffffffff\n      and\n      0x081812fc\n        /* \"contracts/NFTSwap.sol\":2638:2645  tokenId */\n      dup6\n        /* \"contracts/NFTSwap.sol\":2622:2646  nft.getApproved(tokenId) */\n      mload(0x40)\n      dup3\n      0xffffffff\n      and\n      0xe0\n      shl\n      dup2\n      mstore\n      0x04\n      add\n      tag_99\n      swap2\n      swap1\n      tag_46\n      jump\t// in\n    tag_99:\n      0x20\n      mload(0x40)\n      dup1\n      dup4\n      sub\n      dup2\n      dup7\n      gas\n      staticcall\n      iszero\n      dup1\n      iszero\n      tag_101\n      jumpi\n      returndatasize\n      0x00\n      dup1\n      returndatacopy\n      revert(0x00, returndatasize)\n    tag_101:\n      pop\n      pop\n      pop\n      pop\n      mload(0x40)\n      returndatasize\n      not(0x1f)\n      0x1f\n      dup3\n      add\n      and\n      dup3\n      add\n      dup1\n      0x40\n      mstore\n      pop\n      dup2\n      add\n      swap1\n      tag_102\n      swap2\n      swap1\n      tag_50\n      jump\t// in\n    tag_102:\n        /* \"contracts/NFTSwap.sol\":2622:2663  nft.getApproved(tokenId) == address(this) */\n      0xffffffffffffffffffffffffffffffffffffffff\n      and\n      eq\n        /* \"contracts/NFTSwap.sol\":2614:2681  require(nft.getApproved(tokenId) == address(this), \"Need approved\") */\n      tag_103\n      jumpi\n      mload(0x40)\n      0x08c379a000000000000000000000000000000000000000000000000000000000\n      dup2\n      mstore\n      0x04\n      add\n      tag_104\n      swap1\n      tag_105\n      jump\t// in\n    tag_104:\n      mload(0x40)\n      dup1\n      swap2\n      sub\n      swap1\n      revert\n    tag_103:\n        /* \"contracts/NFTSwap.sol\":2748:2749  0 */\n      0x00\n        /* \"contracts/NFTSwap.sol\":2740:2745  price */\n      dup3\n        /* \"contracts/NFTSwap.sol\":2740:2749  price > 0 */\n      gt\n        /* \"contracts/NFTSwap.sol\":2732:2798  require(price > 0, \"The price of tokenId must be set to non zero\") */\n      tag_106\n      jumpi\n      mload(0x40)\n      0x08c379a000000000000000000000000000000000000000000000000000000000\n      dup2\n      mstore\n      0x04\n      add\n      tag_107\n      swap1\n      tag_108\n      jump\t// in\n    tag_107:\n      mload(0x40)\n      dup1\n      swap2\n      sub\n      swap1\n      revert\n    tag_106:\n        /* \"contracts/NFTSwap.sol\":2902:2921  Order storage order */\n      0x00\n        /* \"contracts/NFTSwap.sol\":2924:2931  nftList */\n      dup1\n        /* \"contracts/NFTSwap.sol\":2924:2937  nftList[_nft] */\n      0x00\n        /* \"contracts/NFTSwap.sol\":2932:2936  _nft */\n      dup7\n        /* \"contracts/NFTSwap.sol\":2924:2937  nftList[_nft] */\n      0xffffffffffffffffffffffffffffffffffffffff\n      and\n      0xffffffffffffffffffffffffffffffffffffffff\n      and\n      dup2\n      mstore\n      0x20\n      add\n      swap1\n      dup2\n      mstore\n      0x20\n      add\n      0x00\n      keccak256\n        /* \"contracts/NFTSwap.sol\":2924:2946  nftList[_nft][tokenId] */\n      0x00\n        /* \"contracts/NFTSwap.sol\":2938:2945  tokenId */\n      dup6\n        /* \"contracts/NFTSwap.sol\":2924:2946  nftList[_nft][tokenId] */\n      dup2\n      mstore\n      0x20\n      add\n      swap1\n      dup2\n      mstore\n      0x20\n      add\n      0x00\n      keccak256\n        /* \"contracts/NFTSwap.sol\":2902:2946  Order storage order = nftList[_nft][tokenId] */\n      swap1\n      pop\n        /* \"contracts/NFTSwap.sol\":3008:3018  msg.sender */\n      caller\n        /* \"contracts/NFTSwap.sol\":2994:2999  order */\n      dup2\n        /* \"contracts/NFTSwap.sol\":2994:3005  order.owner */\n      0x00\n      add\n      0x00\n        /* \"contracts/NFTSwap.sol\":2994:3018  order.owner = msg.sender */\n      0x0100\n      exp\n      dup2\n      sload\n      dup2\n      0xffffffffffffffffffffffffffffffffffffffff\n      mul\n      not\n      and\n      swap1\n      dup4\n      0xffffffffffffffffffffffffffffffffffffffff\n      and\n      mul\n      or\n      swap1\n      sstore\n      pop\n        /* \"contracts/NFTSwap.sol\":3043:3048  price */\n      dup3\n        /* \"contracts/NFTSwap.sol\":3029:3034  order */\n      dup2\n        /* \"contracts/NFTSwap.sol\":3029:3040  order.price */\n      0x01\n      add\n        /* \"contracts/NFTSwap.sol\":3029:3048  order.price = price */\n      dup2\n      swap1\n      sstore\n      pop\n        /* \"contracts/NFTSwap.sol\":3061:3064  nft */\n      dup2\n        /* \"contracts/NFTSwap.sol\":3061:3081  nft.safeTransferFrom */\n      0xffffffffffffffffffffffffffffffffffffffff\n      and\n      0x42842e0e\n        /* \"contracts/NFTSwap.sol\":3082:3092  msg.sender */\n      caller\n        /* \"contracts/NFTSwap.sol\":3102:3106  this */\n      address\n        /* \"contracts/NFTSwap.sol\":3109:3116  tokenId */\n      dup8\n        /* \"contracts/NFTSwap.sol\":3061:3117  nft.safeTransferFrom(msg.sender, address(this), tokenId) */\n      mload(0x40)\n      dup5\n      0xffffffff\n      and\n      0xe0\n      shl\n      dup2\n      mstore\n      0x04\n      add\n      tag_109\n      swap4\n      swap3\n      swap2\n      swap1\n      tag_58\n      jump\t// in\n    tag_109:\n      0x00\n      mload(0x40)\n      dup1\n      dup4\n      sub\n      dup2\n      0x00\n      dup8\n      dup1\n      extcodesize\n      iszero\n      dup1\n      iszero\n      tag_110\n      jumpi\n      0x00\n      dup1\n      revert\n    tag_110:\n      pop\n      gas\n      call\n      iszero\n      dup1\n      iszero\n      tag_112\n      jumpi\n      returndatasize\n      0x00\n      dup1\n      returndatacopy\n      revert(0x00, returndatasize)\n    tag_112:\n      pop\n      pop\n      pop\n      pop\n        /* \"contracts/NFTSwap.sol\":3167:3174  tokenId */\n      dup4\n        /* \"contracts/NFTSwap.sol\":3160:3164  this */\n      address\n        /* \"contracts/NFTSwap.sol\":3135:3182  List(msg.sender, address(this), tokenId, price) */\n      0xffffffffffffffffffffffffffffffffffffffff\n      and\n        /* \"contracts/NFTSwap.sol\":3140:3150  msg.sender */\n      caller\n        /* \"contracts/NFTSwap.sol\":3135:3182  List(msg.sender, address(this), tokenId, price) */\n      0xffffffffffffffffffffffffffffffffffffffff\n      and\n      0xedbdf022944a3291f4b30148903a84720506f48e10478ec5812e5caf30e1fab0\n        /* \"contracts/NFTSwap.sol\":3176:3181  price */\n      dup7\n        /* \"contracts/NFTSwap.sol\":3135:3182  List(msg.sender, address(this), tokenId, price) */\n      mload(0x40)\n      tag_113\n      swap2\n      swap1\n      tag_46\n      jump\t// in\n    tag_113:\n      mload(0x40)\n      dup1\n      swap2\n      sub\n      swap1\n      log4\n        /* \"contracts/NFTSwap.sol\":2497:3190  {... */\n      pop\n      pop\n        /* \"contracts/NFTSwap.sol\":2433:3190  function list(address _nft, uint256 tokenId, uint price) public {... */\n      pop\n      pop\n      pop\n      jump\t// out\n        /* \"contracts/NFTSwap.sol\":3213:3908  function revoke(address _nft, uint256 tokenId) public {... */\n    tag_42:\n        /* \"contracts/NFTSwap.sol\":3278:3297  Order storage order */\n      0x00\n        /* \"contracts/NFTSwap.sol\":3300:3307  nftList */\n      dup1\n        /* \"contracts/NFTSwap.sol\":3300:3313  nftList[_nft] */\n      0x00\n        /* \"contracts/NFTSwap.sol\":3308:3312  _nft */\n      dup5\n        /* \"contracts/NFTSwap.sol\":3300:3313  nftList[_nft] */\n      0xffffffffffffffffffffffffffffffffffffffff\n      and\n      0xffffffffffffffffffffffffffffffffffffffff\n      and\n      dup2\n      mstore\n      0x20\n      add\n      swap1\n      dup2\n      mstore\n      0x20\n      add\n      0x00\n      keccak256\n        /* \"contracts/NFTSwap.sol\":3300:3322  nftList[_nft][tokenId] */\n      0x00\n        /* \"contracts/NFTSwap.sol\":3314:3321  tokenId */\n      dup4\n        /* \"contracts/NFTSwap.sol\":3300:3322  nftList[_nft][tokenId] */\n      dup2\n      mstore\n      0x20\n      add\n      swap1\n      dup2\n      mstore\n      0x20\n      add\n      0x00\n      keccak256\n        /* \"contracts/NFTSwap.sol\":3278:3322  Order storage order = nftList[_nft][tokenId] */\n      swap1\n      pop\n        /* \"contracts/NFTSwap.sol\":3407:3417  msg.sender */\n      caller\n        /* \"contracts/NFTSwap.sol\":3392:3417  order.owner == msg.sender */\n      0xffffffffffffffffffffffffffffffffffffffff\n      and\n        /* \"contracts/NFTSwap.sol\":3392:3397  order */\n      dup2\n        /* \"contracts/NFTSwap.sol\":3392:3403  order.owner */\n      0x00\n      add\n      0x00\n      swap1\n      sload\n      swap1\n      0x0100\n      exp\n      swap1\n      div\n      0xffffffffffffffffffffffffffffffffffffffff\n      and\n        /* \"contracts/NFTSwap.sol\":3392:3417  order.owner == msg.sender */\n      0xffffffffffffffffffffffffffffffffffffffff\n      and\n      eq\n        /* \"contracts/NFTSwap.sol\":3384:3431  require(order.owner == msg.sender, \"Not owner\") */\n      tag_115\n      jumpi\n      mload(0x40)\n      0x08c379a000000000000000000000000000000000000000000000000000000000\n      dup2\n      mstore\n      0x04\n      add\n      tag_116\n      swap1\n      tag_117\n      jump\t// in\n    tag_116:\n      mload(0x40)\n      dup1\n      swap2\n      sub\n      swap1\n      revert\n    tag_115:\n        /* \"contracts/NFTSwap.sol\":3444:3455  IERC721 nft */\n      0x00\n        /* \"contracts/NFTSwap.sol\":3466:3470  _nft */\n      dup4\n        /* \"contracts/NFTSwap.sol\":3444:3471  IERC721 nft = IERC721(_nft) */\n      swap1\n      pop\n        /* \"contracts/NFTSwap.sol\":3623:3627  this */\n      address\n        /* \"contracts/NFTSwap.sol\":3591:3628  nft.ownerOf(tokenId) == address(this) */\n      0xffffffffffffffffffffffffffffffffffffffff\n      and\n        /* \"contracts/NFTSwap.sol\":3591:3594  nft */\n      dup2\n        /* \"contracts/NFTSwap.sol\":3591:3602  nft.ownerOf */\n      0xffffffffffffffffffffffffffffffffffffffff\n      and\n      0x6352211e\n        /* \"contracts/NFTSwap.sol\":3603:3610  tokenId */\n      dup6\n        /* \"contracts/NFTSwap.sol\":3591:3611  nft.ownerOf(tokenId) */\n      mload(0x40)\n      dup3\n      0xffffffff\n      and\n      0xe0\n      shl\n      dup2\n      mstore\n      0x04\n      add\n      tag_118\n      swap2\n      swap1\n      tag_46\n      jump\t// in\n    tag_118:\n      0x20\n      mload(0x40)\n      dup1\n      dup4\n      sub\n      dup2\n      dup7\n      gas\n      staticcall\n      iszero\n      dup1\n      iszero\n      tag_120\n      jumpi\n      returndatasize\n      0x00\n      dup1\n      returndatacopy\n      revert(0x00, returndatasize)\n    tag_120:\n      pop\n      pop\n      pop\n      pop\n      mload(0x40)\n      returndatasize\n      not(0x1f)\n      0x1f\n      dup3\n      add\n      and\n      dup3\n      add\n      dup1\n      0x40\n      mstore\n      pop\n      dup2\n      add\n      swap1\n      tag_121\n      swap2\n      swap1\n      tag_50\n      jump\t// in\n    tag_121:\n        /* \"contracts/NFTSwap.sol\":3591:3628  nft.ownerOf(tokenId) == address(this) */\n      0xffffffffffffffffffffffffffffffffffffffff\n      and\n      eq\n        /* \"contracts/NFTSwap.sol\":3583:3646  require(nft.ownerOf(tokenId) == address(this), \"Invalid order\") */\n      tag_122\n      jumpi\n      mload(0x40)\n      0x08c379a000000000000000000000000000000000000000000000000000000000\n      dup2\n      mstore\n      0x04\n      add\n      tag_123\n      swap1\n      tag_124\n      jump\t// in\n    tag_123:\n      mload(0x40)\n      dup1\n      swap2\n      sub\n      swap1\n      revert\n    tag_122:\n        /* \"contracts/NFTSwap.sol\":3714:3717  nft */\n      dup1\n        /* \"contracts/NFTSwap.sol\":3714:3734  nft.safeTransferFrom */\n      0xffffffffffffffffffffffffffffffffffffffff\n      and\n      0x42842e0e\n        /* \"contracts/NFTSwap.sol\":3743:3747  this */\n      address\n        /* \"contracts/NFTSwap.sol\":3750:3760  msg.sender */\n      caller\n        /* \"contracts/NFTSwap.sol\":3762:3769  tokenId */\n      dup7\n        /* \"contracts/NFTSwap.sol\":3714:3770  nft.safeTransferFrom(address(this), msg.sender, tokenId) */\n      mload(0x40)\n      dup5\n      0xffffffff\n      and\n      0xe0\n      shl\n      dup2\n      mstore\n      0x04\n      add\n      tag_125\n      swap4\n      swap3\n      swap2\n      swap1\n      tag_58\n      jump\t// in\n    tag_125:\n      0x00\n      mload(0x40)\n      dup1\n      dup4\n      sub\n      dup2\n      0x00\n      dup8\n      dup1\n      extcodesize\n      iszero\n      dup1\n      iszero\n      tag_126\n      jumpi\n      0x00\n      dup1\n      revert\n    tag_126:\n      pop\n      gas\n      call\n      iszero\n      dup1\n      iszero\n      tag_128\n      jumpi\n      returndatasize\n      0x00\n      dup1\n      returndatacopy\n      revert(0x00, returndatasize)\n    tag_128:\n      pop\n      pop\n      pop\n      pop\n        /* \"contracts/NFTSwap.sol\":3827:3834  nftList */\n      0x00\n        /* \"contracts/NFTSwap.sol\":3827:3840  nftList[_nft] */\n      dup1\n        /* \"contracts/NFTSwap.sol\":3835:3839  _nft */\n      dup6\n        /* \"contracts/NFTSwap.sol\":3827:3840  nftList[_nft] */\n      0xffffffffffffffffffffffffffffffffffffffff\n      and\n      0xffffffffffffffffffffffffffffffffffffffff\n      and\n      dup2\n      mstore\n      0x20\n      add\n      swap1\n      dup2\n      mstore\n      0x20\n      add\n      0x00\n      keccak256\n        /* \"contracts/NFTSwap.sol\":3827:3849  nftList[_nft][tokenId] */\n      0x00\n        /* \"contracts/NFTSwap.sol\":3841:3848  tokenId */\n      dup5\n        /* \"contracts/NFTSwap.sol\":3827:3849  nftList[_nft][tokenId] */\n      dup2\n      mstore\n      0x20\n      add\n      swap1\n      dup2\n      mstore\n      0x20\n      add\n      0x00\n      keccak256\n      0x00\n        /* \"contracts/NFTSwap.sol\":3820:3849  delete nftList[_nft][tokenId] */\n      dup1\n      dup3\n      add\n      exp(0x0100, 0x00)\n      dup2\n      sload\n      swap1\n      0xffffffffffffffffffffffffffffffffffffffff\n      mul\n      not\n      and\n      swap1\n      sstore\n      0x01\n      dup3\n      add\n      0x00\n      swap1\n      sstore\n      pop\n      pop\n        /* \"contracts/NFTSwap.sol\":3892:3899  tokenId */\n      dup3\n        /* \"contracts/NFTSwap.sol\":3886:3890  _nft */\n      dup5\n        /* \"contracts/NFTSwap.sol\":3867:3900  Revoke(msg.sender, _nft, tokenId) */\n      0xffffffffffffffffffffffffffffffffffffffff\n      and\n        /* \"contracts/NFTSwap.sol\":3874:3884  msg.sender */\n      caller\n        /* \"contracts/NFTSwap.sol\":3867:3900  Revoke(msg.sender, _nft, tokenId) */\n      0xffffffffffffffffffffffffffffffffffffffff\n      and\n      0xb698e31a2abee5824d0d7bcfd2339aead7f9e9ae413fba50bf554ff3fa470b7b\n      mload(0x40)\n      mload(0x40)\n      dup1\n      swap2\n      sub\n      swap1\n      log4\n        /* \"contracts/NFTSwap.sol\":3267:3908  {... */\n      pop\n      pop\n        /* \"contracts/NFTSwap.sol\":3213:3908  function revoke(address _nft, uint256 tokenId) public {... */\n      pop\n      pop\n      jump\t// out\n        /* \"#utility.yul\":88:205   */\n    tag_130:\n        /* \"#utility.yul\":197:198   */\n      0x00\n        /* \"#utility.yul\":194:195   */\n      dup1\n        /* \"#utility.yul\":187:199   */\n      revert\n        /* \"#utility.yul\":211:328   */\n    tag_131:\n        /* \"#utility.yul\":320:321   */\n      0x00\n        /* \"#utility.yul\":317:318   */\n      dup1\n        /* \"#utility.yul\":310:322   */\n      revert\n        /* \"#utility.yul\":334:460   */\n    tag_132:\n        /* \"#utility.yul\":371:378   */\n      0x00\n        /* \"#utility.yul\":411:453   */\n      0xffffffffffffffffffffffffffffffffffffffff\n        /* \"#utility.yul\":404:409   */\n      dup3\n        /* \"#utility.yul\":400:454   */\n      and\n        /* \"#utility.yul\":389:454   */\n      swap1\n      pop\n        /* \"#utility.yul\":334:460   */\n      swap2\n      swap1\n      pop\n      jump\t// out\n        /* \"#utility.yul\":466:562   */\n    tag_133:\n        /* \"#utility.yul\":503:510   */\n      0x00\n        /* \"#utility.yul\":532:556   */\n      tag_183\n        /* \"#utility.yul\":550:555   */\n      dup3\n        /* \"#utility.yul\":532:556   */\n      tag_132\n      jump\t// in\n    tag_183:\n        /* \"#utility.yul\":521:556   */\n      swap1\n      pop\n        /* \"#utility.yul\":466:562   */\n      swap2\n      swap1\n      pop\n      jump\t// out\n        /* \"#utility.yul\":568:690   */\n    tag_134:\n        /* \"#utility.yul\":641:665   */\n      tag_185\n        /* \"#utility.yul\":659:664   */\n      dup2\n        /* \"#utility.yul\":641:665   */\n      tag_133\n      jump\t// in\n    tag_185:\n        /* \"#utility.yul\":634:639   */\n      dup2\n        /* \"#utility.yul\":631:666   */\n      eq\n        /* \"#utility.yul\":621:684   */\n      tag_186\n      jumpi\n        /* \"#utility.yul\":680:681   */\n      0x00\n        /* \"#utility.yul\":677:678   */\n      dup1\n        /* \"#utility.yul\":670:682   */\n      revert\n        /* \"#utility.yul\":621:684   */\n    tag_186:\n        /* \"#utility.yul\":568:690   */\n      pop\n      jump\t// out\n        /* \"#utility.yul\":696:835   */\n    tag_135:\n        /* \"#utility.yul\":742:747   */\n      0x00\n        /* \"#utility.yul\":780:786   */\n      dup2\n        /* \"#utility.yul\":767:787   */\n      calldataload\n        /* \"#utility.yul\":758:787   */\n      swap1\n      pop\n        /* \"#utility.yul\":796:829   */\n      tag_188\n        /* \"#utility.yul\":823:828   */\n      dup2\n        /* \"#utility.yul\":796:829   */\n      tag_134\n      jump\t// in\n    tag_188:\n        /* \"#utility.yul\":696:835   */\n      swap3\n      swap2\n      pop\n      pop\n      jump\t// out\n        /* \"#utility.yul\":841:918   */\n    tag_136:\n        /* \"#utility.yul\":878:885   */\n      0x00\n        /* \"#utility.yul\":907:912   */\n      dup2\n        /* \"#utility.yul\":896:912   */\n      swap1\n      pop\n        /* \"#utility.yul\":841:918   */\n      swap2\n      swap1\n      pop\n      jump\t// out\n        /* \"#utility.yul\":924:1046   */\n    tag_137:\n        /* \"#utility.yul\":997:1021   */\n      tag_191\n        /* \"#utility.yul\":1015:1020   */\n      dup2\n        /* \"#utility.yul\":997:1021   */\n      tag_136\n      jump\t// in\n    tag_191:\n        /* \"#utility.yul\":990:995   */\n      dup2\n        /* \"#utility.yul\":987:1022   */\n      eq\n        /* \"#utility.yul\":977:1040   */\n      tag_192\n      jumpi\n        /* \"#utility.yul\":1036:1037   */\n      0x00\n        /* \"#utility.yul\":1033:1034   */\n      dup1\n        /* \"#utility.yul\":1026:1038   */\n      revert\n        /* \"#utility.yul\":977:1040   */\n    tag_192:\n        /* \"#utility.yul\":924:1046   */\n      pop\n      jump\t// out\n        /* \"#utility.yul\":1052:1191   */\n    tag_138:\n        /* \"#utility.yul\":1098:1103   */\n      0x00\n        /* \"#utility.yul\":1136:1142   */\n      dup2\n        /* \"#utility.yul\":1123:1143   */\n      calldataload\n        /* \"#utility.yul\":1114:1143   */\n      swap1\n      pop\n        /* \"#utility.yul\":1152:1185   */\n      tag_194\n        /* \"#utility.yul\":1179:1184   */\n      dup2\n        /* \"#utility.yul\":1152:1185   */\n      tag_137\n      jump\t// in\n    tag_194:\n        /* \"#utility.yul\":1052:1191   */\n      swap3\n      swap2\n      pop\n      pop\n      jump\t// out\n        /* \"#utility.yul\":1197:1314   */\n    tag_139:\n        /* \"#utility.yul\":1306:1307   */\n      0x00\n        /* \"#utility.yul\":1303:1304   */\n      dup1\n        /* \"#utility.yul\":1296:1308   */\n      revert\n        /* \"#utility.yul\":1320:1437   */\n    tag_140:\n        /* \"#utility.yul\":1429:1430   */\n      0x00\n        /* \"#utility.yul\":1426:1427   */\n      dup1\n        /* \"#utility.yul\":1419:1431   */\n      revert\n        /* \"#utility.yul\":1443:1560   */\n    tag_141:\n        /* \"#utility.yul\":1552:1553   */\n      0x00\n        /* \"#utility.yul\":1549:1550   */\n      dup1\n        /* \"#utility.yul\":1542:1554   */\n      revert\n        /* \"#utility.yul\":1579:2131   */\n    tag_142:\n        /* \"#utility.yul\":1636:1644   */\n      0x00\n        /* \"#utility.yul\":1646:1652   */\n      dup1\n        /* \"#utility.yul\":1696:1699   */\n      dup4\n        /* \"#utility.yul\":1689:1693   */\n      0x1f\n        /* \"#utility.yul\":1681:1687   */\n      dup5\n        /* \"#utility.yul\":1677:1694   */\n      add\n        /* \"#utility.yul\":1673:1700   */\n      slt\n        /* \"#utility.yul\":1663:1785   */\n      tag_199\n      jumpi\n        /* \"#utility.yul\":1704:1783   */\n      tag_200\n      tag_139\n      jump\t// in\n    tag_200:\n        /* \"#utility.yul\":1663:1785   */\n    tag_199:\n        /* \"#utility.yul\":1817:1823   */\n      dup3\n        /* \"#utility.yul\":1804:1824   */\n      calldataload\n        /* \"#utility.yul\":1794:1824   */\n      swap1\n      pop\n        /* \"#utility.yul\":1847:1865   */\n      0xffffffffffffffff\n        /* \"#utility.yul\":1839:1845   */\n      dup2\n        /* \"#utility.yul\":1836:1866   */\n      gt\n        /* \"#utility.yul\":1833:1950   */\n      iszero\n      tag_201\n      jumpi\n        /* \"#utility.yul\":1869:1948   */\n      tag_202\n      tag_140\n      jump\t// in\n    tag_202:\n        /* \"#utility.yul\":1833:1950   */\n    tag_201:\n        /* \"#utility.yul\":1983:1987   */\n      0x20\n        /* \"#utility.yul\":1975:1981   */\n      dup4\n        /* \"#utility.yul\":1971:1988   */\n      add\n        /* \"#utility.yul\":1959:1988   */\n      swap2\n      pop\n        /* \"#utility.yul\":2037:2040   */\n      dup4\n        /* \"#utility.yul\":2029:2033   */\n      0x01\n        /* \"#utility.yul\":2021:2027   */\n      dup3\n        /* \"#utility.yul\":2017:2034   */\n      mul\n        /* \"#utility.yul\":2007:2015   */\n      dup4\n        /* \"#utility.yul\":2003:2035   */\n      add\n        /* \"#utility.yul\":2000:2041   */\n      gt\n        /* \"#utility.yul\":1997:2125   */\n      iszero\n      tag_203\n      jumpi\n        /* \"#utility.yul\":2044:2123   */\n      tag_204\n      tag_141\n      jump\t// in\n    tag_204:\n        /* \"#utility.yul\":1997:2125   */\n    tag_203:\n        /* \"#utility.yul\":1579:2131   */\n      swap3\n      pop\n      swap3\n      swap1\n      pop\n      jump\t// out\n        /* \"#utility.yul\":2137:3100   */\n    tag_16:\n        /* \"#utility.yul\":2234:2240   */\n      0x00\n        /* \"#utility.yul\":2242:2248   */\n      dup1\n        /* \"#utility.yul\":2250:2256   */\n      0x00\n        /* \"#utility.yul\":2258:2264   */\n      dup1\n        /* \"#utility.yul\":2266:2272   */\n      0x00\n        /* \"#utility.yul\":2315:2318   */\n      0x80\n        /* \"#utility.yul\":2303:2312   */\n      dup7\n        /* \"#utility.yul\":2294:2301   */\n      dup9\n        /* \"#utility.yul\":2290:2313   */\n      sub\n        /* \"#utility.yul\":2286:2319   */\n      slt\n        /* \"#utility.yul\":2283:2403   */\n      iszero\n      tag_206\n      jumpi\n        /* \"#utility.yul\":2322:2401   */\n      tag_207\n      tag_130\n      jump\t// in\n    tag_207:\n        /* \"#utility.yul\":2283:2403   */\n    tag_206:\n        /* \"#utility.yul\":2442:2443   */\n      0x00\n        /* \"#utility.yul\":2467:2520   */\n      tag_208\n        /* \"#utility.yul\":2512:2519   */\n      dup9\n        /* \"#utility.yul\":2503:2509   */\n      dup3\n        /* \"#utility.yul\":2492:2501   */\n      dup10\n        /* \"#utility.yul\":2488:2510   */\n      add\n        /* \"#utility.yul\":2467:2520   */\n      tag_135\n      jump\t// in\n    tag_208:\n        /* \"#utility.yul\":2457:2520   */\n      swap6\n      pop\n        /* \"#utility.yul\":2413:2530   */\n      pop\n        /* \"#utility.yul\":2569:2571   */\n      0x20\n        /* \"#utility.yul\":2595:2648   */\n      tag_209\n        /* \"#utility.yul\":2640:2647   */\n      dup9\n        /* \"#utility.yul\":2631:2637   */\n      dup3\n        /* \"#utility.yul\":2620:2629   */\n      dup10\n        /* \"#utility.yul\":2616:2638   */\n      add\n        /* \"#utility.yul\":2595:2648   */\n      tag_135\n      jump\t// in\n    tag_209:\n        /* \"#utility.yul\":2585:2648   */\n      swap5\n      pop\n        /* \"#utility.yul\":2540:2658   */\n      pop\n        /* \"#utility.yul\":2697:2699   */\n      0x40\n        /* \"#utility.yul\":2723:2776   */\n      tag_210\n        /* \"#utility.yul\":2768:2775   */\n      dup9\n        /* \"#utility.yul\":2759:2765   */\n      dup3\n        /* \"#utility.yul\":2748:2757   */\n      dup10\n        /* \"#utility.yul\":2744:2766   */\n      add\n        /* \"#utility.yul\":2723:2776   */\n      tag_138\n      jump\t// in\n    tag_210:\n        /* \"#utility.yul\":2713:2776   */\n      swap4\n      pop\n        /* \"#utility.yul\":2668:2786   */\n      pop\n        /* \"#utility.yul\":2853:2855   */\n      0x60\n        /* \"#utility.yul\":2842:2851   */\n      dup7\n        /* \"#utility.yul\":2838:2856   */\n      add\n        /* \"#utility.yul\":2825:2857   */\n      calldataload\n        /* \"#utility.yul\":2884:2902   */\n      0xffffffffffffffff\n        /* \"#utility.yul\":2876:2882   */\n      dup2\n        /* \"#utility.yul\":2873:2903   */\n      gt\n        /* \"#utility.yul\":2870:2987   */\n      iszero\n      tag_211\n      jumpi\n        /* \"#utility.yul\":2906:2985   */\n      tag_212\n      tag_131\n      jump\t// in\n    tag_212:\n        /* \"#utility.yul\":2870:2987   */\n    tag_211:\n        /* \"#utility.yul\":3019:3083   */\n      tag_213\n        /* \"#utility.yul\":3075:3082   */\n      dup9\n        /* \"#utility.yul\":3066:3072   */\n      dup3\n        /* \"#utility.yul\":3055:3064   */\n      dup10\n        /* \"#utility.yul\":3051:3073   */\n      add\n        /* \"#utility.yul\":3019:3083   */\n      tag_142\n      jump\t// in\n    tag_213:\n        /* \"#utility.yul\":3001:3083   */\n      swap3\n      pop\n      swap3\n      pop\n        /* \"#utility.yul\":2796:3093   */\n      pop\n        /* \"#utility.yul\":2137:3100   */\n      swap3\n      swap6\n      pop\n      swap3\n      swap6\n      swap1\n      swap4\n      pop\n      jump\t// out\n        /* \"#utility.yul\":3106:3255   */\n    tag_143:\n        /* \"#utility.yul\":3142:3149   */\n      0x00\n        /* \"#utility.yul\":3182:3248   */\n      0xffffffff00000000000000000000000000000000000000000000000000000000\n        /* \"#utility.yul\":3175:3180   */\n      dup3\n        /* \"#utility.yul\":3171:3249   */\n      and\n        /* \"#utility.yul\":3160:3249   */\n      swap1\n      pop\n        /* \"#utility.yul\":3106:3255   */\n      swap2\n      swap1\n      pop\n      jump\t// out\n        /* \"#utility.yul\":3261:3376   */\n    tag_144:\n        /* \"#utility.yul\":3346:3369   */\n      tag_216\n        /* \"#utility.yul\":3363:3368   */\n      dup2\n        /* \"#utility.yul\":3346:3369   */\n      tag_143\n      jump\t// in\n    tag_216:\n        /* \"#utility.yul\":3341:3344   */\n      dup3\n        /* \"#utility.yul\":3334:3370   */\n      mstore\n        /* \"#utility.yul\":3261:3376   */\n      pop\n      pop\n      jump\t// out\n        /* \"#utility.yul\":3382:3600   */\n    tag_19:\n        /* \"#utility.yul\":3473:3477   */\n      0x00\n        /* \"#utility.yul\":3511:3513   */\n      0x20\n        /* \"#utility.yul\":3500:3509   */\n      dup3\n        /* \"#utility.yul\":3496:3514   */\n      add\n        /* \"#utility.yul\":3488:3514   */\n      swap1\n      pop\n        /* \"#utility.yul\":3524:3593   */\n      tag_218\n        /* \"#utility.yul\":3590:3591   */\n      0x00\n        /* \"#utility.yul\":3579:3588   */\n      dup4\n        /* \"#utility.yul\":3575:3592   */\n      add\n        /* \"#utility.yul\":3566:3572   */\n      dup5\n        /* \"#utility.yul\":3524:3593   */\n      tag_144\n      jump\t// in\n    tag_218:\n        /* \"#utility.yul\":3382:3600   */\n      swap3\n      swap2\n      pop\n      pop\n      jump\t// out\n        /* \"#utility.yul\":3606:4080   */\n    tag_22:\n        /* \"#utility.yul\":3674:3680   */\n      0x00\n        /* \"#utility.yul\":3682:3688   */\n      dup1\n        /* \"#utility.yul\":3731:3733   */\n      0x40\n        /* \"#utility.yul\":3719:3728   */\n      dup4\n        /* \"#utility.yul\":3710:3717   */\n      dup6\n        /* \"#utility.yul\":3706:3729   */\n      sub\n        /* \"#utility.yul\":3702:3734   */\n      slt\n        /* \"#utility.yul\":3699:3818   */\n      iszero\n      tag_220\n      jumpi\n        /* \"#utility.yul\":3737:3816   */\n      tag_221\n      tag_130\n      jump\t// in\n    tag_221:\n        /* \"#utility.yul\":3699:3818   */\n    tag_220:\n        /* \"#utility.yul\":3857:3858   */\n      0x00\n        /* \"#utility.yul\":3882:3935   */\n      tag_222\n        /* \"#utility.yul\":3927:3934   */\n      dup6\n        /* \"#utility.yul\":3918:3924   */\n      dup3\n        /* \"#utility.yul\":3907:3916   */\n      dup7\n        /* \"#utility.yul\":3903:3925   */\n      add\n        /* \"#utility.yul\":3882:3935   */\n      tag_135\n      jump\t// in\n    tag_222:\n        /* \"#utility.yul\":3872:3935   */\n      swap3\n      pop\n        /* \"#utility.yul\":3828:3945   */\n      pop\n        /* \"#utility.yul\":3984:3986   */\n      0x20\n        /* \"#utility.yul\":4010:4063   */\n      tag_223\n        /* \"#utility.yul\":4055:4062   */\n      dup6\n        /* \"#utility.yul\":4046:4052   */\n      dup3\n        /* \"#utility.yul\":4035:4044   */\n      dup7\n        /* \"#utility.yul\":4031:4053   */\n      add\n        /* \"#utility.yul\":4010:4063   */\n      tag_138\n      jump\t// in\n    tag_223:\n        /* \"#utility.yul\":4000:4063   */\n      swap2\n      pop\n        /* \"#utility.yul\":3955:4073   */\n      pop\n        /* \"#utility.yul\":3606:4080   */\n      swap3\n      pop\n      swap3\n      swap1\n      pop\n      jump\t// out\n        /* \"#utility.yul\":4086:4204   */\n    tag_145:\n        /* \"#utility.yul\":4173:4197   */\n      tag_225\n        /* \"#utility.yul\":4191:4196   */\n      dup2\n        /* \"#utility.yul\":4173:4197   */\n      tag_133\n      jump\t// in\n    tag_225:\n        /* \"#utility.yul\":4168:4171   */\n      dup3\n        /* \"#utility.yul\":4161:4198   */\n      mstore\n        /* \"#utility.yul\":4086:4204   */\n      pop\n      pop\n      jump\t// out\n        /* \"#utility.yul\":4210:4328   */\n    tag_146:\n        /* \"#utility.yul\":4297:4321   */\n      tag_227\n        /* \"#utility.yul\":4315:4320   */\n      dup2\n        /* \"#utility.yul\":4297:4321   */\n      tag_136\n      jump\t// in\n    tag_227:\n        /* \"#utility.yul\":4292:4295   */\n      dup3\n        /* \"#utility.yul\":4285:4322   */\n      mstore\n        /* \"#utility.yul\":4210:4328   */\n      pop\n      pop\n      jump\t// out\n        /* \"#utility.yul\":4334:4666   */\n    tag_29:\n        /* \"#utility.yul\":4455:4459   */\n      0x00\n        /* \"#utility.yul\":4493:4495   */\n      0x40\n        /* \"#utility.yul\":4482:4491   */\n      dup3\n        /* \"#utility.yul\":4478:4496   */\n      add\n        /* \"#utility.yul\":4470:4496   */\n      swap1\n      pop\n        /* \"#utility.yul\":4506:4577   */\n      tag_229\n        /* \"#utility.yul\":4574:4575   */\n      0x00\n        /* \"#utility.yul\":4563:4572   */\n      dup4\n        /* \"#utility.yul\":4559:4576   */\n      add\n        /* \"#utility.yul\":4550:4556   */\n      dup6\n        /* \"#utility.yul\":4506:4577   */\n      tag_145\n      jump\t// in\n    tag_229:\n        /* \"#utility.yul\":4587:4659   */\n      tag_230\n        /* \"#utility.yul\":4655:4657   */\n      0x20\n        /* \"#utility.yul\":4644:4653   */\n      dup4\n        /* \"#utility.yul\":4640:4658   */\n      add\n        /* \"#utility.yul\":4631:4637   */\n      dup5\n        /* \"#utility.yul\":4587:4659   */\n      tag_146\n      jump\t// in\n    tag_230:\n        /* \"#utility.yul\":4334:4666   */\n      swap4\n      swap3\n      pop\n      pop\n      pop\n      jump\t// out\n        /* \"#utility.yul\":4672:5291   */\n    tag_33:\n        /* \"#utility.yul\":4749:4755   */\n      0x00\n        /* \"#utility.yul\":4757:4763   */\n      dup1\n        /* \"#utility.yul\":4765:4771   */\n      0x00\n        /* \"#utility.yul\":4814:4816   */\n      0x60\n        /* \"#utility.yul\":4802:4811   */\n      dup5\n        /* \"#utility.yul\":4793:4800   */\n      dup7\n        /* \"#utility.yul\":4789:4812   */\n      sub\n        /* \"#utility.yul\":4785:4817   */\n      slt\n        /* \"#utility.yul\":4782:4901   */\n      iszero\n      tag_232\n      jumpi\n        /* \"#utility.yul\":4820:4899   */\n      tag_233\n      tag_130\n      jump\t// in\n    tag_233:\n        /* \"#utility.yul\":4782:4901   */\n    tag_232:\n        /* \"#utility.yul\":4940:4941   */\n      0x00\n        /* \"#utility.yul\":4965:5018   */\n      tag_234\n        /* \"#utility.yul\":5010:5017   */\n      dup7\n        /* \"#utility.yul\":5001:5007   */\n      dup3\n        /* \"#utility.yul\":4990:4999   */\n      dup8\n        /* \"#utility.yul\":4986:5008   */\n      add\n        /* \"#utility.yul\":4965:5018   */\n      tag_135\n      jump\t// in\n    tag_234:\n        /* \"#utility.yul\":4955:5018   */\n      swap4\n      pop\n        /* \"#utility.yul\":4911:5028   */\n      pop\n        /* \"#utility.yul\":5067:5069   */\n      0x20\n        /* \"#utility.yul\":5093:5146   */\n      tag_235\n        /* \"#utility.yul\":5138:5145   */\n      dup7\n        /* \"#utility.yul\":5129:5135   */\n      dup3\n        /* \"#utility.yul\":5118:5127   */\n      dup8\n        /* \"#utility.yul\":5114:5136   */\n      add\n        /* \"#utility.yul\":5093:5146   */\n      tag_138\n      jump\t// in\n    tag_235:\n        /* \"#utility.yul\":5083:5146   */\n      swap3\n      pop\n        /* \"#utility.yul\":5038:5156   */\n      pop\n        /* \"#utility.yul\":5195:5197   */\n      0x40\n        /* \"#utility.yul\":5221:5274   */\n      tag_236\n        /* \"#utility.yul\":5266:5273   */\n      dup7\n        /* \"#utility.yul\":5257:5263   */\n      dup3\n        /* \"#utility.yul\":5246:5255   */\n      dup8\n        /* \"#utility.yul\":5242:5264   */\n      add\n        /* \"#utility.yul\":5221:5274   */\n      tag_138\n      jump\t// in\n    tag_236:\n        /* \"#utility.yul\":5211:5274   */\n      swap2\n      pop\n        /* \"#utility.yul\":5166:5284   */\n      pop\n        /* \"#utility.yul\":4672:5291   */\n      swap3\n      pop\n      swap3\n      pop\n      swap3\n      jump\t// out\n        /* \"#utility.yul\":5297:5519   */\n    tag_46:\n        /* \"#utility.yul\":5390:5394   */\n      0x00\n        /* \"#utility.yul\":5428:5430   */\n      0x20\n        /* \"#utility.yul\":5417:5426   */\n      dup3\n        /* \"#utility.yul\":5413:5431   */\n      add\n        /* \"#utility.yul\":5405:5431   */\n      swap1\n      pop\n        /* \"#utility.yul\":5441:5512   */\n      tag_238\n        /* \"#utility.yul\":5509:5510   */\n      0x00\n        /* \"#utility.yul\":5498:5507   */\n      dup4\n        /* \"#utility.yul\":5494:5511   */\n      add\n        /* \"#utility.yul\":5485:5491   */\n      dup5\n        /* \"#utility.yul\":5441:5512   */\n      tag_146\n      jump\t// in\n    tag_238:\n        /* \"#utility.yul\":5297:5519   */\n      swap3\n      swap2\n      pop\n      pop\n      jump\t// out\n        /* \"#utility.yul\":5525:5668   */\n    tag_147:\n        /* \"#utility.yul\":5582:5587   */\n      0x00\n        /* \"#utility.yul\":5613:5619   */\n      dup2\n        /* \"#utility.yul\":5607:5620   */\n      mload\n        /* \"#utility.yul\":5598:5620   */\n      swap1\n      pop\n        /* \"#utility.yul\":5629:5662   */\n      tag_240\n        /* \"#utility.yul\":5656:5661   */\n      dup2\n        /* \"#utility.yul\":5629:5662   */\n      tag_134\n      jump\t// in\n    tag_240:\n        /* \"#utility.yul\":5525:5668   */\n      swap3\n      swap2\n      pop\n      pop\n      jump\t// out\n        /* \"#utility.yul\":5674:6025   */\n    tag_50:\n        /* \"#utility.yul\":5744:5750   */\n      0x00\n        /* \"#utility.yul\":5793:5795   */\n      0x20\n        /* \"#utility.yul\":5781:5790   */\n      dup3\n        /* \"#utility.yul\":5772:5779   */\n      dup5\n        /* \"#utility.yul\":5768:5791   */\n      sub\n        /* \"#utility.yul\":5764:5796   */\n      slt\n        /* \"#utility.yul\":5761:5880   */\n      iszero\n      tag_242\n      jumpi\n        /* \"#utility.yul\":5799:5878   */\n      tag_243\n      tag_130\n      jump\t// in\n    tag_243:\n        /* \"#utility.yul\":5761:5880   */\n    tag_242:\n        /* \"#utility.yul\":5919:5920   */\n      0x00\n        /* \"#utility.yul\":5944:6008   */\n      tag_244\n        /* \"#utility.yul\":6000:6007   */\n      dup5\n        /* \"#utility.yul\":5991:5997   */\n      dup3\n        /* \"#utility.yul\":5980:5989   */\n      dup6\n        /* \"#utility.yul\":5976:5998   */\n      add\n        /* \"#utility.yul\":5944:6008   */\n      tag_147\n      jump\t// in\n    tag_244:\n        /* \"#utility.yul\":5934:6008   */\n      swap2\n      pop\n        /* \"#utility.yul\":5890:6018   */\n      pop\n        /* \"#utility.yul\":5674:6025   */\n      swap3\n      swap2\n      pop\n      pop\n      jump\t// out\n        /* \"#utility.yul\":6031:6200   */\n    tag_148:\n        /* \"#utility.yul\":6115:6126   */\n      0x00\n        /* \"#utility.yul\":6149:6155   */\n      dup3\n        /* \"#utility.yul\":6144:6147   */\n      dup3\n        /* \"#utility.yul\":6137:6156   */\n      mstore\n        /* \"#utility.yul\":6189:6193   */\n      0x20\n        /* \"#utility.yul\":6184:6187   */\n      dup3\n        /* \"#utility.yul\":6180:6194   */\n      add\n        /* \"#utility.yul\":6165:6194   */\n      swap1\n      pop\n        /* \"#utility.yul\":6031:6200   */\n      swap3\n      swap2\n      pop\n      pop\n      jump\t// out\n        /* \"#utility.yul\":6206:6381   */\n    tag_149:\n        /* \"#utility.yul\":6346:6373   */\n      0x54686520746f6b656e4964206973206e6f74206c697374656400000000000000\n        /* \"#utility.yul\":6342:6343   */\n      0x00\n        /* \"#utility.yul\":6334:6340   */\n      dup3\n        /* \"#utility.yul\":6330:6344   */\n      add\n        /* \"#utility.yul\":6323:6374   */\n      mstore\n        /* \"#utility.yul\":6206:6381   */\n      pop\n      jump\t// out\n        /* \"#utility.yul\":6387:6753   */\n    tag_150:\n        /* \"#utility.yul\":6529:6532   */\n      0x00\n        /* \"#utility.yul\":6550:6617   */\n      tag_248\n        /* \"#utility.yul\":6614:6616   */\n      0x19\n        /* \"#utility.yul\":6609:6612   */\n      dup4\n        /* \"#utility.yul\":6550:6617   */\n      tag_148\n      jump\t// in\n    tag_248:\n        /* \"#utility.yul\":6543:6617   */\n      swap2\n      pop\n        /* \"#utility.yul\":6626:6719   */\n      tag_249\n        /* \"#utility.yul\":6715:6718   */\n      dup3\n        /* \"#utility.yul\":6626:6719   */\n      tag_149\n      jump\t// in\n    tag_249:\n        /* \"#utility.yul\":6744:6746   */\n      0x20\n        /* \"#utility.yul\":6739:6742   */\n      dup3\n        /* \"#utility.yul\":6735:6747   */\n      add\n        /* \"#utility.yul\":6728:6747   */\n      swap1\n      pop\n        /* \"#utility.yul\":6387:6753   */\n      swap2\n      swap1\n      pop\n      jump\t// out\n        /* \"#utility.yul\":6759:7178   */\n    tag_53:\n        /* \"#utility.yul\":6925:6929   */\n      0x00\n        /* \"#utility.yul\":6963:6965   */\n      0x20\n        /* \"#utility.yul\":6952:6961   */\n      dup3\n        /* \"#utility.yul\":6948:6966   */\n      add\n        /* \"#utility.yul\":6940:6966   */\n      swap1\n      pop\n        /* \"#utility.yul\":7012:7021   */\n      dup2\n        /* \"#utility.yul\":7006:7010   */\n      dup2\n        /* \"#utility.yul\":7002:7022   */\n      sub\n        /* \"#utility.yul\":6998:6999   */\n      0x00\n        /* \"#utility.yul\":6987:6996   */\n      dup4\n        /* \"#utility.yul\":6983:7000   */\n      add\n        /* \"#utility.yul\":6976:7023   */\n      mstore\n        /* \"#utility.yul\":7040:7171   */\n      tag_251\n        /* \"#utility.yul\":7166:7170   */\n      dup2\n        /* \"#utility.yul\":7040:7171   */\n      tag_150\n      jump\t// in\n    tag_251:\n        /* \"#utility.yul\":7032:7171   */\n      swap1\n      pop\n        /* \"#utility.yul\":6759:7178   */\n      swap2\n      swap1\n      pop\n      jump\t// out\n        /* \"#utility.yul\":7184:7415   */\n    tag_151:\n        /* \"#utility.yul\":7324:7358   */\n      0x596f7572207072696365206973206c657373207468616e207468652070726963\n        /* \"#utility.yul\":7320:7321   */\n      0x00\n        /* \"#utility.yul\":7312:7318   */\n      dup3\n        /* \"#utility.yul\":7308:7322   */\n      add\n        /* \"#utility.yul\":7301:7359   */\n      mstore\n        /* \"#utility.yul\":7393:7407   */\n      0x65206f6620746f6b656e49640000000000000000000000000000000000000000\n        /* \"#utility.yul\":7388:7390   */\n      0x20\n        /* \"#utility.yul\":7380:7386   */\n      dup3\n        /* \"#utility.yul\":7376:7391   */\n      add\n        /* \"#utility.yul\":7369:7408   */\n      mstore\n        /* \"#utility.yul\":7184:7415   */\n      pop\n      jump\t// out\n        /* \"#utility.yul\":7421:7787   */\n    tag_152:\n        /* \"#utility.yul\":7563:7566   */\n      0x00\n        /* \"#utility.yul\":7584:7651   */\n      tag_254\n        /* \"#utility.yul\":7648:7650   */\n      0x2c\n        /* \"#utility.yul\":7643:7646   */\n      dup4\n        /* \"#utility.yul\":7584:7651   */\n      tag_148\n      jump\t// in\n    tag_254:\n        /* \"#utility.yul\":7577:7651   */\n      swap2\n      pop\n        /* \"#utility.yul\":7660:7753   */\n      tag_255\n        /* \"#utility.yul\":7749:7752   */\n      dup3\n        /* \"#utility.yul\":7660:7753   */\n      tag_151\n      jump\t// in\n    tag_255:\n        /* \"#utility.yul\":7778:7780   */\n      0x40\n        /* \"#utility.yul\":7773:7776   */\n      dup3\n        /* \"#utility.yul\":7769:7781   */\n      add\n        /* \"#utility.yul\":7762:7781   */\n      swap1\n      pop\n        /* \"#utility.yul\":7421:7787   */\n      swap2\n      swap1\n      pop\n      jump\t// out\n        /* \"#utility.yul\":7793:8212   */\n    tag_56:\n        /* \"#utility.yul\":7959:7963   */\n      0x00\n        /* \"#utility.yul\":7997:7999   */\n      0x20\n        /* \"#utility.yul\":7986:7995   */\n      dup3\n        /* \"#utility.yul\":7982:8000   */\n      add\n        /* \"#utility.yul\":7974:8000   */\n      swap1\n      pop\n        /* \"#utility.yul\":8046:8055   */\n      dup2\n        /* \"#utility.yul\":8040:8044   */\n      dup2\n        /* \"#utility.yul\":8036:8056   */\n      sub\n        /* \"#utility.yul\":8032:8033   */\n      0x00\n        /* \"#utility.yul\":8021:8030   */\n      dup4\n        /* \"#utility.yul\":8017:8034   */\n      add\n        /* \"#utility.yul\":8010:8057   */\n      mstore\n        /* \"#utility.yul\":8074:8205   */\n      tag_257\n        /* \"#utility.yul\":8200:8204   */\n      dup2\n        /* \"#utility.yul\":8074:8205   */\n      tag_152\n      jump\t// in\n    tag_257:\n        /* \"#utility.yul\":8066:8205   */\n      swap1\n      pop\n        /* \"#utility.yul\":7793:8212   */\n      swap2\n      swap1\n      pop\n      jump\t// out\n        /* \"#utility.yul\":8218:8660   */\n    tag_58:\n        /* \"#utility.yul\":8367:8371   */\n      0x00\n        /* \"#utility.yul\":8405:8407   */\n      0x60\n        /* \"#utility.yul\":8394:8403   */\n      dup3\n        /* \"#utility.yul\":8390:8408   */\n      add\n        /* \"#utility.yul\":8382:8408   */\n      swap1\n      pop\n        /* \"#utility.yul\":8418:8489   */\n      tag_259\n        /* \"#utility.yul\":8486:8487   */\n      0x00\n        /* \"#utility.yul\":8475:8484   */\n      dup4\n        /* \"#utility.yul\":8471:8488   */\n      add\n        /* \"#utility.yul\":8462:8468   */\n      dup7\n        /* \"#utility.yul\":8418:8489   */\n      tag_145\n      jump\t// in\n    tag_259:\n        /* \"#utility.yul\":8499:8571   */\n      tag_260\n        /* \"#utility.yul\":8567:8569   */\n      0x20\n        /* \"#utility.yul\":8556:8565   */\n      dup4\n        /* \"#utility.yul\":8552:8570   */\n      add\n        /* \"#utility.yul\":8543:8549   */\n      dup6\n        /* \"#utility.yul\":8499:8571   */\n      tag_145\n      jump\t// in\n    tag_260:\n        /* \"#utility.yul\":8581:8653   */\n      tag_261\n        /* \"#utility.yul\":8649:8651   */\n      0x40\n        /* \"#utility.yul\":8638:8647   */\n      dup4\n        /* \"#utility.yul\":8634:8652   */\n      add\n        /* \"#utility.yul\":8625:8631   */\n      dup5\n        /* \"#utility.yul\":8581:8653   */\n      tag_146\n      jump\t// in\n    tag_261:\n        /* \"#utility.yul\":8218:8660   */\n      swap5\n      swap4\n      pop\n      pop\n      pop\n      pop\n      jump\t// out\n        /* \"#utility.yul\":8666:8814   */\n    tag_153:\n        /* \"#utility.yul\":8768:8779   */\n      0x00\n        /* \"#utility.yul\":8805:8808   */\n      dup2\n        /* \"#utility.yul\":8790:8808   */\n      swap1\n      pop\n        /* \"#utility.yul\":8666:8814   */\n      swap3\n      swap2\n      pop\n      pop\n      jump\t// out\n        /* \"#utility.yul\":8820:9002   */\n    tag_154:\n        /* \"#utility.yul\":8960:8994   */\n      0x537461727420746f207472616e7366657220746f206f726465722e6f776e6572\n        /* \"#utility.yul\":8956:8957   */\n      0x00\n        /* \"#utility.yul\":8948:8954   */\n      dup3\n        /* \"#utility.yul\":8944:8958   */\n      add\n        /* \"#utility.yul\":8937:8995   */\n      mstore\n        /* \"#utility.yul\":8820:9002   */\n      pop\n      jump\t// out\n        /* \"#utility.yul\":9008:9410   */\n    tag_155:\n        /* \"#utility.yul\":9168:9171   */\n      0x00\n        /* \"#utility.yul\":9189:9274   */\n      tag_265\n        /* \"#utility.yul\":9271:9273   */\n      0x20\n        /* \"#utility.yul\":9266:9269   */\n      dup4\n        /* \"#utility.yul\":9189:9274   */\n      tag_153\n      jump\t// in\n    tag_265:\n        /* \"#utility.yul\":9182:9274   */\n      swap2\n      pop\n        /* \"#utility.yul\":9283:9376   */\n      tag_266\n        /* \"#utility.yul\":9372:9375   */\n      dup3\n        /* \"#utility.yul\":9283:9376   */\n      tag_154\n      jump\t// in\n    tag_266:\n        /* \"#utility.yul\":9401:9403   */\n      0x20\n        /* \"#utility.yul\":9396:9399   */\n      dup3\n        /* \"#utility.yul\":9392:9404   */\n      add\n        /* \"#utility.yul\":9385:9404   */\n      swap1\n      pop\n        /* \"#utility.yul\":9008:9410   */\n      swap2\n      swap1\n      pop\n      jump\t// out\n        /* \"#utility.yul\":9416:9797   */\n    tag_63:\n        /* \"#utility.yul\":9601:9604   */\n      0x00\n        /* \"#utility.yul\":9623:9771   */\n      tag_268\n        /* \"#utility.yul\":9767:9770   */\n      dup3\n        /* \"#utility.yul\":9623:9771   */\n      tag_155\n      jump\t// in\n    tag_268:\n        /* \"#utility.yul\":9616:9771   */\n      swap2\n      pop\n        /* \"#utility.yul\":9788:9791   */\n      dup2\n        /* \"#utility.yul\":9781:9791   */\n      swap1\n      pop\n        /* \"#utility.yul\":9416:9797   */\n      swap2\n      swap1\n      pop\n      jump\t// out\n        /* \"#utility.yul\":9803:10025   */\n    tag_65:\n        /* \"#utility.yul\":9896:9900   */\n      0x00\n        /* \"#utility.yul\":9934:9936   */\n      0x20\n        /* \"#utility.yul\":9923:9932   */\n      dup3\n        /* \"#utility.yul\":9919:9937   */\n      add\n        /* \"#utility.yul\":9911:9937   */\n      swap1\n      pop\n        /* \"#utility.yul\":9947:10018   */\n      tag_270\n        /* \"#utility.yul\":10015:10016   */\n      0x00\n        /* \"#utility.yul\":10004:10013   */\n      dup4\n        /* \"#utility.yul\":10000:10017   */\n      add\n        /* \"#utility.yul\":9991:9997   */\n      dup5\n        /* \"#utility.yul\":9947:10018   */\n      tag_145\n      jump\t// in\n    tag_270:\n        /* \"#utility.yul\":9803:10025   */\n      swap3\n      swap2\n      pop\n      pop\n      jump\t// out\n        /* \"#utility.yul\":10031:10211   */\n    tag_156:\n        /* \"#utility.yul\":10171:10203   */\n      0x456e6420746f207472616e7366657220746f206f726465722e6f776e65720000\n        /* \"#utility.yul\":10167:10168   */\n      0x00\n        /* \"#utility.yul\":10159:10165   */\n      dup3\n        /* \"#utility.yul\":10155:10169   */\n      add\n        /* \"#utility.yul\":10148:10204   */\n      mstore\n        /* \"#utility.yul\":10031:10211   */\n      pop\n      jump\t// out\n        /* \"#utility.yul\":10217:10619   */\n    tag_157:\n        /* \"#utility.yul\":10377:10380   */\n      0x00\n        /* \"#utility.yul\":10398:10483   */\n      tag_273\n        /* \"#utility.yul\":10480:10482   */\n      0x1e\n        /* \"#utility.yul\":10475:10478   */\n      dup4\n        /* \"#utility.yul\":10398:10483   */\n      tag_153\n      jump\t// in\n    tag_273:\n        /* \"#utility.yul\":10391:10483   */\n      swap2\n      pop\n        /* \"#utility.yul\":10492:10585   */\n      tag_274\n        /* \"#utility.yul\":10581:10584   */\n      dup3\n        /* \"#utility.yul\":10492:10585   */\n      tag_156\n      jump\t// in\n    tag_274:\n        /* \"#utility.yul\":10610:10612   */\n      0x1e\n        /* \"#utility.yul\":10605:10608   */\n      dup3\n        /* \"#utility.yul\":10601:10613   */\n      add\n        /* \"#utility.yul\":10594:10613   */\n      swap1\n      pop\n        /* \"#utility.yul\":10217:10619   */\n      swap2\n      swap1\n      pop\n      jump\t// out\n        /* \"#utility.yul\":10625:11006   */\n    tag_69:\n        /* \"#utility.yul\":10810:10813   */\n      0x00\n        /* \"#utility.yul\":10832:10980   */\n      tag_276\n        /* \"#utility.yul\":10976:10979   */\n      dup3\n        /* \"#utility.yul\":10832:10980   */\n      tag_157\n      jump\t// in\n    tag_276:\n        /* \"#utility.yul\":10825:10980   */\n      swap2\n      pop\n        /* \"#utility.yul\":10997:11000   */\n      dup2\n        /* \"#utility.yul\":10990:11000   */\n      swap1\n      pop\n        /* \"#utility.yul\":10625:11006   */\n      swap2\n      swap1\n      pop\n      jump\t// out\n        /* \"#utility.yul\":11012:11192   */\n    tag_158:\n        /* \"#utility.yul\":11060:11137   */\n      0x4e487b7100000000000000000000000000000000000000000000000000000000\n        /* \"#utility.yul\":11057:11058   */\n      0x00\n        /* \"#utility.yul\":11050:11138   */\n      mstore\n        /* \"#utility.yul\":11157:11161   */\n      0x11\n        /* \"#utility.yul\":11154:11155   */\n      0x04\n        /* \"#utility.yul\":11147:11162   */\n      mstore\n        /* \"#utility.yul\":11181:11185   */\n      0x24\n        /* \"#utility.yul\":11178:11179   */\n      0x00\n        /* \"#utility.yul\":11171:11186   */\n      revert\n        /* \"#utility.yul\":11198:11392   */\n    tag_72:\n        /* \"#utility.yul\":11238:11242   */\n      0x00\n        /* \"#utility.yul\":11258:11278   */\n      tag_279\n        /* \"#utility.yul\":11276:11277   */\n      dup3\n        /* \"#utility.yul\":11258:11278   */\n      tag_136\n      jump\t// in\n    tag_279:\n        /* \"#utility.yul\":11253:11278   */\n      swap2\n      pop\n        /* \"#utility.yul\":11292:11312   */\n      tag_280\n        /* \"#utility.yul\":11310:11311   */\n      dup4\n        /* \"#utility.yul\":11292:11312   */\n      tag_136\n      jump\t// in\n    tag_280:\n        /* \"#utility.yul\":11287:11312   */\n      swap3\n      pop\n        /* \"#utility.yul\":11336:11337   */\n      dup3\n        /* \"#utility.yul\":11333:11334   */\n      dup3\n        /* \"#utility.yul\":11329:11338   */\n      sub\n        /* \"#utility.yul\":11321:11338   */\n      swap1\n      pop\n        /* \"#utility.yul\":11360:11361   */\n      dup2\n        /* \"#utility.yul\":11354:11358   */\n      dup2\n        /* \"#utility.yul\":11351:11362   */\n      gt\n        /* \"#utility.yul\":11348:11385   */\n      iszero\n      tag_281\n      jumpi\n        /* \"#utility.yul\":11365:11383   */\n      tag_282\n      tag_158\n      jump\t// in\n    tag_282:\n        /* \"#utility.yul\":11348:11385   */\n    tag_281:\n        /* \"#utility.yul\":11198:11392   */\n      swap3\n      swap2\n      pop\n      pop\n      jump\t// out\n        /* \"#utility.yul\":11398:11579   */\n    tag_159:\n        /* \"#utility.yul\":11538:11571   */\n      0x537461727420746f207472616e7366657220746f206d73672e73656e64657200\n        /* \"#utility.yul\":11534:11535   */\n      0x00\n        /* \"#utility.yul\":11526:11532   */\n      dup3\n        /* \"#utility.yul\":11522:11536   */\n      add\n        /* \"#utility.yul\":11515:11572   */\n      mstore\n        /* \"#utility.yul\":11398:11579   */\n      pop\n      jump\t// out\n        /* \"#utility.yul\":11585:11987   */\n    tag_160:\n        /* \"#utility.yul\":11745:11748   */\n      0x00\n        /* \"#utility.yul\":11766:11851   */\n      tag_285\n        /* \"#utility.yul\":11848:11850   */\n      0x1f\n        /* \"#utility.yul\":11843:11846   */\n      dup4\n        /* \"#utility.yul\":11766:11851   */\n      tag_153\n      jump\t// in\n    tag_285:\n        /* \"#utility.yul\":11759:11851   */\n      swap2\n      pop\n        /* \"#utility.yul\":11860:11953   */\n      tag_286\n        /* \"#utility.yul\":11949:11952   */\n      dup3\n        /* \"#utility.yul\":11860:11953   */\n      tag_159\n      jump\t// in\n    tag_286:\n        /* \"#utility.yul\":11978:11980   */\n      0x1f\n        /* \"#utility.yul\":11973:11976   */\n      dup3\n        /* \"#utility.yul\":11969:11981   */\n      add\n        /* \"#utility.yul\":11962:11981   */\n      swap1\n      pop\n        /* \"#utility.yul\":11585:11987   */\n      swap2\n      swap1\n      pop\n      jump\t// out\n        /* \"#utility.yul\":11993:12374   */\n    tag_75:\n        /* \"#utility.yul\":12178:12181   */\n      0x00\n        /* \"#utility.yul\":12200:12348   */\n      tag_288\n        /* \"#utility.yul\":12344:12347   */\n      dup3\n        /* \"#utility.yul\":12200:12348   */\n      tag_160\n      jump\t// in\n    tag_288:\n        /* \"#utility.yul\":12193:12348   */\n      swap2\n      pop\n        /* \"#utility.yul\":12365:12368   */\n      dup2\n        /* \"#utility.yul\":12358:12368   */\n      swap1\n      pop\n        /* \"#utility.yul\":11993:12374   */\n      swap2\n      swap1\n      pop\n      jump\t// out\n        /* \"#utility.yul\":12380:12559   */\n    tag_161:\n        /* \"#utility.yul\":12520:12551   */\n      0x456e6420746f207472616e7366657220746f206d73672e73656e646572000000\n        /* \"#utility.yul\":12516:12517   */\n      0x00\n        /* \"#utility.yul\":12508:12514   */\n      dup3\n        /* \"#utility.yul\":12504:12518   */\n      add\n        /* \"#utility.yul\":12497:12552   */\n      mstore\n        /* \"#utility.yul\":12380:12559   */\n      pop\n      jump\t// out\n        /* \"#utility.yul\":12565:12967   */\n    tag_162:\n        /* \"#utility.yul\":12725:12728   */\n      0x00\n        /* \"#utility.yul\":12746:12831   */\n      tag_291\n        /* \"#utility.yul\":12828:12830   */\n      0x1d\n        /* \"#utility.yul\":12823:12826   */\n      dup4\n        /* \"#utility.yul\":12746:12831   */\n      tag_153\n      jump\t// in\n    tag_291:\n        /* \"#utility.yul\":12739:12831   */\n      swap2\n      pop\n        /* \"#utility.yul\":12840:12933   */\n      tag_292\n        /* \"#utility.yul\":12929:12932   */\n      dup3\n        /* \"#utility.yul\":12840:12933   */\n      tag_161\n      jump\t// in\n    tag_292:\n        /* \"#utility.yul\":12958:12960   */\n      0x1d\n        /* \"#utility.yul\":12953:12956   */\n      dup3\n        /* \"#utility.yul\":12949:12961   */\n      add\n        /* \"#utility.yul\":12942:12961   */\n      swap1\n      pop\n        /* \"#utility.yul\":12565:12967   */\n      swap2\n      swap1\n      pop\n      jump\t// out\n        /* \"#utility.yul\":12973:13354   */\n    tag_81:\n        /* \"#utility.yul\":13158:13161   */\n      0x00\n        /* \"#utility.yul\":13180:13328   */\n      tag_294\n        /* \"#utility.yul\":13324:13327   */\n      dup3\n        /* \"#utility.yul\":13180:13328   */\n      tag_162\n      jump\t// in\n    tag_294:\n        /* \"#utility.yul\":13173:13328   */\n      swap2\n      pop\n        /* \"#utility.yul\":13345:13348   */\n      dup2\n        /* \"#utility.yul\":13338:13348   */\n      swap1\n      pop\n        /* \"#utility.yul\":12973:13354   */\n      swap2\n      swap1\n      pop\n      jump\t// out\n        /* \"#utility.yul\":13360:13523   */\n    tag_163:\n        /* \"#utility.yul\":13500:13515   */\n      0x496e76616c6964206f776e657200000000000000000000000000000000000000\n        /* \"#utility.yul\":13496:13497   */\n      0x00\n        /* \"#utility.yul\":13488:13494   */\n      dup3\n        /* \"#utility.yul\":13484:13498   */\n      add\n        /* \"#utility.yul\":13477:13516   */\n      mstore\n        /* \"#utility.yul\":13360:13523   */\n      pop\n      jump\t// out\n        /* \"#utility.yul\":13529:13895   */\n    tag_164:\n        /* \"#utility.yul\":13671:13674   */\n      0x00\n        /* \"#utility.yul\":13692:13759   */\n      tag_297\n        /* \"#utility.yul\":13756:13758   */\n      0x0d\n        /* \"#utility.yul\":13751:13754   */\n      dup4\n        /* \"#utility.yul\":13692:13759   */\n      tag_148\n      jump\t// in\n    tag_297:\n        /* \"#utility.yul\":13685:13759   */\n      swap2\n      pop\n        /* \"#utility.yul\":13768:13861   */\n      tag_298\n        /* \"#utility.yul\":13857:13860   */\n      dup3\n        /* \"#utility.yul\":13768:13861   */\n      tag_163\n      jump\t// in\n    tag_298:\n        /* \"#utility.yul\":13886:13888   */\n      0x20\n        /* \"#utility.yul\":13881:13884   */\n      dup3\n        /* \"#utility.yul\":13877:13889   */\n      add\n        /* \"#utility.yul\":13870:13889   */\n      swap1\n      pop\n        /* \"#utility.yul\":13529:13895   */\n      swap2\n      swap1\n      pop\n      jump\t// out\n        /* \"#utility.yul\":13901:14320   */\n    tag_87:\n        /* \"#utility.yul\":14067:14071   */\n      0x00\n        /* \"#utility.yul\":14105:14107   */\n      0x20\n        /* \"#utility.yul\":14094:14103   */\n      dup3\n        /* \"#utility.yul\":14090:14108   */\n      add\n        /* \"#utility.yul\":14082:14108   */\n      swap1\n      pop\n        /* \"#utility.yul\":14154:14163   */\n      dup2\n        /* \"#utility.yul\":14148:14152   */\n      dup2\n        /* \"#utility.yul\":14144:14164   */\n      sub\n        /* \"#utility.yul\":14140:14141   */\n      0x00\n        /* \"#utility.yul\":14129:14138   */\n      dup4\n        /* \"#utility.yul\":14125:14142   */\n      add\n        /* \"#utility.yul\":14118:14165   */\n      mstore\n        /* \"#utility.yul\":14182:14313   */\n      tag_300\n        /* \"#utility.yul\":14308:14312   */\n      dup2\n        /* \"#utility.yul\":14182:14313   */\n      tag_164\n      jump\t// in\n    tag_300:\n        /* \"#utility.yul\":14174:14313   */\n      swap1\n      pop\n        /* \"#utility.yul\":13901:14320   */\n      swap2\n      swap1\n      pop\n      jump\t// out\n        /* \"#utility.yul\":14326:14500   */\n    tag_165:\n        /* \"#utility.yul\":14466:14492   */\n      0x54686520746f6b654964206973206e6f74206c69737465640000000000000000\n        /* \"#utility.yul\":14462:14463   */\n      0x00\n        /* \"#utility.yul\":14454:14460   */\n      dup3\n        /* \"#utility.yul\":14450:14464   */\n      add\n        /* \"#utility.yul\":14443:14493   */\n      mstore\n        /* \"#utility.yul\":14326:14500   */\n      pop\n      jump\t// out\n        /* \"#utility.yul\":14506:14872   */\n    tag_166:\n        /* \"#utility.yul\":14648:14651   */\n      0x00\n        /* \"#utility.yul\":14669:14736   */\n      tag_303\n        /* \"#utility.yul\":14733:14735   */\n      0x18\n        /* \"#utility.yul\":14728:14731   */\n      dup4\n        /* \"#utility.yul\":14669:14736   */\n      tag_148\n      jump\t// in\n    tag_303:\n        /* \"#utility.yul\":14662:14736   */\n      swap2\n      pop\n        /* \"#utility.yul\":14745:14838   */\n      tag_304\n        /* \"#utility.yul\":14834:14837   */\n      dup3\n        /* \"#utility.yul\":14745:14838   */\n      tag_165\n      jump\t// in\n    tag_304:\n        /* \"#utility.yul\":14863:14865   */\n      0x20\n        /* \"#utility.yul\":14858:14861   */\n      dup3\n        /* \"#utility.yul\":14854:14866   */\n      add\n        /* \"#utility.yul\":14847:14866   */\n      swap1\n      pop\n        /* \"#utility.yul\":14506:14872   */\n      swap2\n      swap1\n      pop\n      jump\t// out\n        /* \"#utility.yul\":14878:15297   */\n    tag_94:\n        /* \"#utility.yul\":15044:15048   */\n      0x00\n        /* \"#utility.yul\":15082:15084   */\n      0x20\n        /* \"#utility.yul\":15071:15080   */\n      dup3\n        /* \"#utility.yul\":15067:15085   */\n      add\n        /* \"#utility.yul\":15059:15085   */\n      swap1\n      pop\n        /* \"#utility.yul\":15131:15140   */\n      dup2\n        /* \"#utility.yul\":15125:15129   */\n      dup2\n        /* \"#utility.yul\":15121:15141   */\n      sub\n        /* \"#utility.yul\":15117:15118   */\n      0x00\n        /* \"#utility.yul\":15106:15115   */\n      dup4\n        /* \"#utility.yul\":15102:15119   */\n      add\n        /* \"#utility.yul\":15095:15142   */\n      mstore\n        /* \"#utility.yul\":15159:15290   */\n      tag_306\n        /* \"#utility.yul\":15285:15289   */\n      dup2\n        /* \"#utility.yul\":15159:15290   */\n      tag_166\n      jump\t// in\n    tag_306:\n        /* \"#utility.yul\":15151:15290   */\n      swap1\n      pop\n        /* \"#utility.yul\":14878:15297   */\n      swap2\n      swap1\n      pop\n      jump\t// out\n        /* \"#utility.yul\":15303:15537   */\n    tag_167:\n        /* \"#utility.yul\":15443:15477   */\n      0x546865207072696365206f6620746f6b656e4964206973206d75737420626520\n        /* \"#utility.yul\":15439:15440   */\n      0x00\n        /* \"#utility.yul\":15431:15437   */\n      dup3\n        /* \"#utility.yul\":15427:15441   */\n      add\n        /* \"#utility.yul\":15420:15478   */\n      mstore\n        /* \"#utility.yul\":15512:15529   */\n      0x73657420746f206e6f6e207a65726f0000000000000000000000000000000000\n        /* \"#utility.yul\":15507:15509   */\n      0x20\n        /* \"#utility.yul\":15499:15505   */\n      dup3\n        /* \"#utility.yul\":15495:15510   */\n      add\n        /* \"#utility.yul\":15488:15530   */\n      mstore\n        /* \"#utility.yul\":15303:15537   */\n      pop\n      jump\t// out\n        /* \"#utility.yul\":15543:15909   */\n    tag_168:\n        /* \"#utility.yul\":15685:15688   */\n      0x00\n        /* \"#utility.yul\":15706:15773   */\n      tag_309\n        /* \"#utility.yul\":15770:15772   */\n      0x2f\n        /* \"#utility.yul\":15765:15768   */\n      dup4\n        /* \"#utility.yul\":15706:15773   */\n      tag_148\n      jump\t// in\n    tag_309:\n        /* \"#utility.yul\":15699:15773   */\n      swap2\n      pop\n        /* \"#utility.yul\":15782:15875   */\n      tag_310\n        /* \"#utility.yul\":15871:15874   */\n      dup3\n        /* \"#utility.yul\":15782:15875   */\n      tag_167\n      jump\t// in\n    tag_310:\n        /* \"#utility.yul\":15900:15902   */\n      0x40\n        /* \"#utility.yul\":15895:15898   */\n      dup3\n        /* \"#utility.yul\":15891:15903   */\n      add\n        /* \"#utility.yul\":15884:15903   */\n      swap1\n      pop\n        /* \"#utility.yul\":15543:15909   */\n      swap2\n      swap1\n      pop\n      jump\t// out\n        /* \"#utility.yul\":15915:16334   */\n    tag_97:\n        /* \"#utility.yul\":16081:16085   */\n      0x00\n        /* \"#utility.yul\":16119:16121   */\n      0x20\n        /* \"#utility.yul\":16108:16117   */\n      dup3\n        /* \"#utility.yul\":16104:16122   */\n      add\n        /* \"#utility.yul\":16096:16122   */\n      swap1\n      pop\n        /* \"#utility.yul\":16168:16177   */\n      dup2\n        /* \"#utility.yul\":16162:16166   */\n      dup2\n        /* \"#utility.yul\":16158:16178   */\n      sub\n        /* \"#utility.yul\":16154:16155   */\n      0x00\n        /* \"#utility.yul\":16143:16152   */\n      dup4\n        /* \"#utility.yul\":16139:16156   */\n      add\n        /* \"#utility.yul\":16132:16179   */\n      mstore\n        /* \"#utility.yul\":16196:16327   */\n      tag_312\n        /* \"#utility.yul\":16322:16326   */\n      dup2\n        /* \"#utility.yul\":16196:16327   */\n      tag_168\n      jump\t// in\n    tag_312:\n        /* \"#utility.yul\":16188:16327   */\n      swap1\n      pop\n        /* \"#utility.yul\":15915:16334   */\n      swap2\n      swap1\n      pop\n      jump\t// out\n        /* \"#utility.yul\":16340:16503   */\n    tag_169:\n        /* \"#utility.yul\":16480:16495   */\n      0x4e65656420617070726f76656400000000000000000000000000000000000000\n        /* \"#utility.yul\":16476:16477   */\n      0x00\n        /* \"#utility.yul\":16468:16474   */\n      dup3\n        /* \"#utility.yul\":16464:16478   */\n      add\n        /* \"#utility.yul\":16457:16496   */\n      mstore\n        /* \"#utility.yul\":16340:16503   */\n      pop\n      jump\t// out\n        /* \"#utility.yul\":16509:16875   */\n    tag_170:\n        /* \"#utility.yul\":16651:16654   */\n      0x00\n        /* \"#utility.yul\":16672:16739   */\n      tag_315\n        /* \"#utility.yul\":16736:16738   */\n      0x0d\n        /* \"#utility.yul\":16731:16734   */\n      dup4\n        /* \"#utility.yul\":16672:16739   */\n      tag_148\n      jump\t// in\n    tag_315:\n        /* \"#utility.yul\":16665:16739   */\n      swap2\n      pop\n        /* \"#utility.yul\":16748:16841   */\n      tag_316\n        /* \"#utility.yul\":16837:16840   */\n      dup3\n        /* \"#utility.yul\":16748:16841   */\n      tag_169\n      jump\t// in\n    tag_316:\n        /* \"#utility.yul\":16866:16868   */\n      0x20\n        /* \"#utility.yul\":16861:16864   */\n      dup3\n        /* \"#utility.yul\":16857:16869   */\n      add\n        /* \"#utility.yul\":16850:16869   */\n      swap1\n      pop\n        /* \"#utility.yul\":16509:16875   */\n      swap2\n      swap1\n      pop\n      jump\t// out\n        /* \"#utility.yul\":16881:17300   */\n    tag_105:\n        /* \"#utility.yul\":17047:17051   */\n      0x00\n        /* \"#utility.yul\":17085:17087   */\n      0x20\n        /* \"#utility.yul\":17074:17083   */\n      dup3\n        /* \"#utility.yul\":17070:17088   */\n      add\n        /* \"#utility.yul\":17062:17088   */\n      swap1\n      pop\n        /* \"#utility.yul\":17134:17143   */\n      dup2\n        /* \"#utility.yul\":17128:17132   */\n      dup2\n        /* \"#utility.yul\":17124:17144   */\n      sub\n        /* \"#utility.yul\":17120:17121   */\n      0x00\n        /* \"#utility.yul\":17109:17118   */\n      dup4\n        /* \"#utility.yul\":17105:17122   */\n      add\n        /* \"#utility.yul\":17098:17145   */\n      mstore\n        /* \"#utility.yul\":17162:17293   */\n      tag_318\n        /* \"#utility.yul\":17288:17292   */\n      dup2\n        /* \"#utility.yul\":17162:17293   */\n      tag_170\n      jump\t// in\n    tag_318:\n        /* \"#utility.yul\":17154:17293   */\n      swap1\n      pop\n        /* \"#utility.yul\":16881:17300   */\n      swap2\n      swap1\n      pop\n      jump\t// out\n        /* \"#utility.yul\":17306:17537   */\n    tag_171:\n        /* \"#utility.yul\":17446:17480   */\n      0x546865207072696365206f6620746f6b656e4964206d75737420626520736574\n        /* \"#utility.yul\":17442:17443   */\n      0x00\n        /* \"#utility.yul\":17434:17440   */\n      dup3\n        /* \"#utility.yul\":17430:17444   */\n      add\n        /* \"#utility.yul\":17423:17481   */\n      mstore\n        /* \"#utility.yul\":17515:17529   */\n      0x20746f206e6f6e207a65726f0000000000000000000000000000000000000000\n        /* \"#utility.yul\":17510:17512   */\n      0x20\n        /* \"#utility.yul\":17502:17508   */\n      dup3\n        /* \"#utility.yul\":17498:17513   */\n      add\n        /* \"#utility.yul\":17491:17530   */\n      mstore\n        /* \"#utility.yul\":17306:17537   */\n      pop\n      jump\t// out\n        /* \"#utility.yul\":17543:17909   */\n    tag_172:\n        /* \"#utility.yul\":17685:17688   */\n      0x00\n        /* \"#utility.yul\":17706:17773   */\n      tag_321\n        /* \"#utility.yul\":17770:17772   */\n      0x2c\n        /* \"#utility.yul\":17765:17768   */\n      dup4\n        /* \"#utility.yul\":17706:17773   */\n      tag_148\n      jump\t// in\n    tag_321:\n        /* \"#utility.yul\":17699:17773   */\n      swap2\n      pop\n        /* \"#utility.yul\":17782:17875   */\n      tag_322\n        /* \"#utility.yul\":17871:17874   */\n      dup3\n        /* \"#utility.yul\":17782:17875   */\n      tag_171\n      jump\t// in\n    tag_322:\n        /* \"#utility.yul\":17900:17902   */\n      0x40\n        /* \"#utility.yul\":17895:17898   */\n      dup3\n        /* \"#utility.yul\":17891:17903   */\n      add\n        /* \"#utility.yul\":17884:17903   */\n      swap1\n      pop\n        /* \"#utility.yul\":17543:17909   */\n      swap2\n      swap1\n      pop\n      jump\t// out\n        /* \"#utility.yul\":17915:18334   */\n    tag_108:\n        /* \"#utility.yul\":18081:18085   */\n      0x00\n        /* \"#utility.yul\":18119:18121   */\n      0x20\n        /* \"#utility.yul\":18108:18117   */\n      dup3\n        /* \"#utility.yul\":18104:18122   */\n      add\n        /* \"#utility.yul\":18096:18122   */\n      swap1\n      pop\n        /* \"#utility.yul\":18168:18177   */\n      dup2\n        /* \"#utility.yul\":18162:18166   */\n      dup2\n        /* \"#utility.yul\":18158:18178   */\n      sub\n        /* \"#utility.yul\":18154:18155   */\n      0x00\n        /* \"#utility.yul\":18143:18152   */\n      dup4\n        /* \"#utility.yul\":18139:18156   */\n      add\n        /* \"#utility.yul\":18132:18179   */\n      mstore\n        /* \"#utility.yul\":18196:18327   */\n      tag_324\n        /* \"#utility.yul\":18322:18326   */\n      dup2\n        /* \"#utility.yul\":18196:18327   */\n      tag_172\n      jump\t// in\n    tag_324:\n        /* \"#utility.yul\":18188:18327   */\n      swap1\n      pop\n        /* \"#utility.yul\":17915:18334   */\n      swap2\n      swap1\n      pop\n      jump\t// out\n        /* \"#utility.yul\":18340:18499   */\n    tag_173:\n        /* \"#utility.yul\":18480:18491   */\n      0x4e6f74206f776e65720000000000000000000000000000000000000000000000\n        /* \"#utility.yul\":18476:18477   */\n      0x00\n        /* \"#utility.yul\":18468:18474   */\n      dup3\n        /* \"#utility.yul\":18464:18478   */\n      add\n        /* \"#utility.yul\":18457:18492   */\n      mstore\n        /* \"#utility.yul\":18340:18499   */\n      pop\n      jump\t// out\n        /* \"#utility.yul\":18505:18870   */\n    tag_174:\n        /* \"#utility.yul\":18647:18650   */\n      0x00\n        /* \"#utility.yul\":18668:18734   */\n      tag_327\n        /* \"#utility.yul\":18732:18733   */\n      0x09\n        /* \"#utility.yul\":18727:18730   */\n      dup4\n        /* \"#utility.yul\":18668:18734   */\n      tag_148\n      jump\t// in\n    tag_327:\n        /* \"#utility.yul\":18661:18734   */\n      swap2\n      pop\n        /* \"#utility.yul\":18743:18836   */\n      tag_328\n        /* \"#utility.yul\":18832:18835   */\n      dup3\n        /* \"#utility.yul\":18743:18836   */\n      tag_173\n      jump\t// in\n    tag_328:\n        /* \"#utility.yul\":18861:18863   */\n      0x20\n        /* \"#utility.yul\":18856:18859   */\n      dup3\n        /* \"#utility.yul\":18852:18864   */\n      add\n        /* \"#utility.yul\":18845:18864   */\n      swap1\n      pop\n        /* \"#utility.yul\":18505:18870   */\n      swap2\n      swap1\n      pop\n      jump\t// out\n        /* \"#utility.yul\":18876:19295   */\n    tag_117:\n        /* \"#utility.yul\":19042:19046   */\n      0x00\n        /* \"#utility.yul\":19080:19082   */\n      0x20\n        /* \"#utility.yul\":19069:19078   */\n      dup3\n        /* \"#utility.yul\":19065:19083   */\n      add\n        /* \"#utility.yul\":19057:19083   */\n      swap1\n      pop\n        /* \"#utility.yul\":19129:19138   */\n      dup2\n        /* \"#utility.yul\":19123:19127   */\n      dup2\n        /* \"#utility.yul\":19119:19139   */\n      sub\n        /* \"#utility.yul\":19115:19116   */\n      0x00\n        /* \"#utility.yul\":19104:19113   */\n      dup4\n        /* \"#utility.yul\":19100:19117   */\n      add\n        /* \"#utility.yul\":19093:19140   */\n      mstore\n        /* \"#utility.yul\":19157:19288   */\n      tag_330\n        /* \"#utility.yul\":19283:19287   */\n      dup2\n        /* \"#utility.yul\":19157:19288   */\n      tag_174\n      jump\t// in\n    tag_330:\n        /* \"#utility.yul\":19149:19288   */\n      swap1\n      pop\n        /* \"#utility.yul\":18876:19295   */\n      swap2\n      swap1\n      pop\n      jump\t// out\n        /* \"#utility.yul\":19301:19464   */\n    tag_175:\n        /* \"#utility.yul\":19441:19456   */\n      0x496e76616c6964206f7264657200000000000000000000000000000000000000\n        /* \"#utility.yul\":19437:19438   */\n      0x00\n        /* \"#utility.yul\":19429:19435   */\n      dup3\n        /* \"#utility.yul\":19425:19439   */\n      add\n        /* \"#utility.yul\":19418:19457   */\n      mstore\n        /* \"#utility.yul\":19301:19464   */\n      pop\n      jump\t// out\n        /* \"#utility.yul\":19470:19836   */\n    tag_176:\n        /* \"#utility.yul\":19612:19615   */\n      0x00\n        /* \"#utility.yul\":19633:19700   */\n      tag_333\n        /* \"#utility.yul\":19697:19699   */\n      0x0d\n        /* \"#utility.yul\":19692:19695   */\n      dup4\n        /* \"#utility.yul\":19633:19700   */\n      tag_148\n      jump\t// in\n    tag_333:\n        /* \"#utility.yul\":19626:19700   */\n      swap2\n      pop\n        /* \"#utility.yul\":19709:19802   */\n      tag_334\n        /* \"#utility.yul\":19798:19801   */\n      dup3\n        /* \"#utility.yul\":19709:19802   */\n      tag_175\n      jump\t// in\n    tag_334:\n        /* \"#utility.yul\":19827:19829   */\n      0x20\n        /* \"#utility.yul\":19822:19825   */\n      dup3\n        /* \"#utility.yul\":19818:19830   */\n      add\n        /* \"#utility.yul\":19811:19830   */\n      swap1\n      pop\n        /* \"#utility.yul\":19470:19836   */\n      swap2\n      swap1\n      pop\n      jump\t// out\n        /* \"#utility.yul\":19842:20261   */\n    tag_124:\n        /* \"#utility.yul\":20008:20012   */\n      0x00\n        /* \"#utility.yul\":20046:20048   */\n      0x20\n        /* \"#utility.yul\":20035:20044   */\n      dup3\n        /* \"#utility.yul\":20031:20049   */\n      add\n        /* \"#utility.yul\":20023:20049   */\n      swap1\n      pop\n        /* \"#utility.yul\":20095:20104   */\n      dup2\n        /* \"#utility.yul\":20089:20093   */\n      dup2\n        /* \"#utility.yul\":20085:20105   */\n      sub\n        /* \"#utility.yul\":20081:20082   */\n      0x00\n        /* \"#utility.yul\":20070:20079   */\n      dup4\n        /* \"#utility.yul\":20066:20083   */\n      add\n        /* \"#utility.yul\":20059:20106   */\n      mstore\n        /* \"#utility.yul\":20123:20254   */\n      tag_336\n        /* \"#utility.yul\":20249:20253   */\n      dup2\n        /* \"#utility.yul\":20123:20254   */\n      tag_176\n      jump\t// in\n    tag_336:\n        /* \"#utility.yul\":20115:20254   */\n      swap1\n      pop\n        /* \"#utility.yul\":19842:20261   */\n      swap2\n      swap1\n      pop\n      jump\t// out\n\n    auxdata: 0xa2646970667358221220810c2be384615d8f4ae702c83cd81a8ccbdc9a2ded50f02014829269daf5b88a64736f6c634300081a0033\n}\n",
				"bytecode": {
					"linkReferences": {},
					"object": "6080604052348015600e575f80fd5b506118298061001c5f395ff3fe608060405260043610610058575f3560e01c8063150b7a02146100615780638de932221461009d578063ba5f4fb2146100b9578063d09b6d43146100f6578063dda342bb1461011e578063eac449d9146101465761005f565b3661005f57005b005b34801561006c575f80fd5b5061008760048036038101906100829190610f97565b61016e565b6040516100949190611055565b60405180910390f35b6100b760048036038101906100b2919061106e565b610182565b005b3480156100c4575f80fd5b506100df60048036038101906100da919061106e565b610699565b6040516100ed9291906110ca565b60405180910390f35b348015610101575f80fd5b5061011c600480360381019061011791906110f1565b6106e2565b005b348015610129575f80fd5b50610144600480360381019061013f91906110f1565b6108fb565b005b348015610151575f80fd5b5061016c6004803603810190610167919061106e565b610b95565b005b5f63150b7a0260e01b905095945050505050565b5f8290503073ffffffffffffffffffffffffffffffffffffffff168173ffffffffffffffffffffffffffffffffffffffff16636352211e846040518263ffffffff1660e01b81526004016101d69190611141565b602060405180830381865afa1580156101f1573d5f803e3d5ffd5b505050506040513d601f19601f82011682018060405250810190610215919061116e565b73ffffffffffffffffffffffffffffffffffffffff161461026b576040517f08c379a0000000000000000000000000000000000000000000000000000000008152600401610262906111f3565b60405180910390fd5b5f805f8573ffffffffffffffffffffffffffffffffffffffff1673ffffffffffffffffffffffffffffffffffffffff1681526020019081526020015f205f8481526020019081526020015f2090503481600101541115610300576040517f08c379a00000000000000000000000000000000000000000000000000000000081526004016102f790611281565b60405180910390fd5b8173ffffffffffffffffffffffffffffffffffffffff166342842e0e3033866040518463ffffffff1660e01b815260040161033d9392919061129f565b5f604051808303815f87803b158015610354575f80fd5b505af1158015610366573d5f803e3d5ffd5b5050505060405161037690611328565b60405180910390207f1dfffa052d4a63bd70f14b863e128979d1c59e3589a0a3beb2633a120047042d825f015f9054906101000a900473ffffffffffffffffffffffffffffffffffffffff166040516103cf919061133c565b60405180910390a2805f015f9054906101000a900473ffffffffffffffffffffffffffffffffffffffff1673ffffffffffffffffffffffffffffffffffffffff166108fc826001015490811502906040515f60405180830381858888f19350505050158015610440573d5f803e3d5ffd5b5060405161044d9061139f565b60405180910390207f1dfffa052d4a63bd70f14b863e128979d1c59e3589a0a3beb2633a120047042d825f015f9054906101000a900473ffffffffffffffffffffffffffffffffffffffff166040516104a6919061133c565b60405180910390a25f3482600101546104bf91906113e0565b10156105af576040516104d19061145d565b60405180910390207f1dfffa052d4a63bd70f14b863e128979d1c59e3589a0a3beb2633a120047042d33604051610508919061133c565b60405180910390a23373ffffffffffffffffffffffffffffffffffffffff166108fc82600101543461053a91906113e0565b90811502906040515f60405180830381858888f19350505050158015610562573d5f803e3d5ffd5b5060405161056f906114bb565b60405180910390207f1dfffa052d4a63bd70f14b863e128979d1c59e3589a0a3beb2633a120047042d336040516105a6919061133c565b60405180910390a25b5f808573ffffffffffffffffffffffffffffffffffffffff1673ffffffffffffffffffffffffffffffffffffffff1681526020019081526020015f205f8481526020019081526020015f205f8082015f6101000a81549073ffffffffffffffffffffffffffffffffffffffff0219169055600182015f90555050828473ffffffffffffffffffffffffffffffffffffffff163373ffffffffffffffffffffffffffffffffffffffff167f46661dab58311a6838247afecbee792192b4f27fc8b3e7168c66bc55ec2e404e846001015460405161068b9190611141565b60405180910390a450505050565b5f602052815f5260405f20602052805f5260405f205f9150915050805f015f9054906101000a900473ffffffffffffffffffffffffffffffffffffffff16908060010154905082565b5f805f8573ffffffffffffffffffffffffffffffffffffffff1673ffffffffffffffffffffffffffffffffffffffff1681526020019081526020015f205f8481526020019081526020015f209050805f015f9054906101000a900473ffffffffffffffffffffffffffffffffffffffff1673ffffffffffffffffffffffffffffffffffffffff163373ffffffffffffffffffffffffffffffffffffffff16146107c0576040517f08c379a00000000000000000000000000000000000000000000000000000000081526004016107b790611519565b60405180910390fd5b5f8490503073ffffffffffffffffffffffffffffffffffffffff168173ffffffffffffffffffffffffffffffffffffffff16636352211e866040518263ffffffff1660e01b81526004016108149190611141565b602060405180830381865afa15801561082f573d5f803e3d5ffd5b505050506040513d601f19601f82011682018060405250810190610853919061116e565b73ffffffffffffffffffffffffffffffffffffffff16146108a9576040517f08c379a00000000000000000000000000000000000000000000000000000000081526004016108a090611581565b60405180910390fd5b5f83116108eb576040517f08c379a00000000000000000000000000000000000000000000000000000000081526004016108e29061160f565b60405180910390fd5b8282600101819055505050505050565b5f8390503073ffffffffffffffffffffffffffffffffffffffff168173ffffffffffffffffffffffffffffffffffffffff1663081812fc856040518263ffffffff1660e01b815260040161094f9190611141565b602060405180830381865afa15801561096a573d5f803e3d5ffd5b505050506040513d601f19601f8201168201806040525081019061098e919061116e565b73ffffffffffffffffffffffffffffffffffffffff16146109e4576040517f08c379a00000000000000000000000000000000000000000000000000000000081526004016109db90611677565b60405180910390fd5b5f8211610a26576040517f08c379a0000000000000000000000000000000000000000000000000000000008152600401610a1d90611705565b60405180910390fd5b5f805f8673ffffffffffffffffffffffffffffffffffffffff1673ffffffffffffffffffffffffffffffffffffffff1681526020019081526020015f205f8581526020019081526020015f20905033815f015f6101000a81548173ffffffffffffffffffffffffffffffffffffffff021916908373ffffffffffffffffffffffffffffffffffffffff1602179055508281600101819055508173ffffffffffffffffffffffffffffffffffffffff166342842e0e3330876040518463ffffffff1660e01b8152600401610afb9392919061129f565b5f604051808303815f87803b158015610b12575f80fd5b505af1158015610b24573d5f803e3d5ffd5b50505050833073ffffffffffffffffffffffffffffffffffffffff163373ffffffffffffffffffffffffffffffffffffffff167fedbdf022944a3291f4b30148903a84720506f48e10478ec5812e5caf30e1fab086604051610b869190611141565b60405180910390a45050505050565b5f805f8473ffffffffffffffffffffffffffffffffffffffff1673ffffffffffffffffffffffffffffffffffffffff1681526020019081526020015f205f8381526020019081526020015f2090503373ffffffffffffffffffffffffffffffffffffffff16815f015f9054906101000a900473ffffffffffffffffffffffffffffffffffffffff1673ffffffffffffffffffffffffffffffffffffffff1614610c73576040517f08c379a0000000000000000000000000000000000000000000000000000000008152600401610c6a9061176d565b60405180910390fd5b5f8390503073ffffffffffffffffffffffffffffffffffffffff168173ffffffffffffffffffffffffffffffffffffffff16636352211e856040518263ffffffff1660e01b8152600401610cc79190611141565b602060405180830381865afa158015610ce2573d5f803e3d5ffd5b505050506040513d601f19601f82011682018060405250810190610d06919061116e565b73ffffffffffffffffffffffffffffffffffffffff1614610d5c576040517f08c379a0000000000000000000000000000000000000000000000000000000008152600401610d53906117d5565b60405180910390fd5b8073ffffffffffffffffffffffffffffffffffffffff166342842e0e3033866040518463ffffffff1660e01b8152600401610d999392919061129f565b5f604051808303815f87803b158015610db0575f80fd5b505af1158015610dc2573d5f803e3d5ffd5b505050505f808573ffffffffffffffffffffffffffffffffffffffff1673ffffffffffffffffffffffffffffffffffffffff1681526020019081526020015f205f8481526020019081526020015f205f8082015f6101000a81549073ffffffffffffffffffffffffffffffffffffffff0219169055600182015f90555050828473ffffffffffffffffffffffffffffffffffffffff163373ffffffffffffffffffffffffffffffffffffffff167fb698e31a2abee5824d0d7bcfd2339aead7f9e9ae413fba50bf554ff3fa470b7b60405160405180910390a450505050565b5f80fd5b5f80fd5b5f73ffffffffffffffffffffffffffffffffffffffff82169050919050565b5f610ed282610ea9565b9050919050565b610ee281610ec8565b8114610eec575f80fd5b50565b5f81359050610efd81610ed9565b92915050565b5f819050919050565b610f1581610f03565b8114610f1f575f80fd5b50565b5f81359050610f3081610f0c565b92915050565b5f80fd5b5f80fd5b5f80fd5b5f8083601f840112610f5757610f56610f36565b5b8235905067ffffffffffffffff811115610f7457610f73610f3a565b5b602083019150836001820283011115610f9057610f8f610f3e565b5b9250929050565b5f805f805f60808688031215610fb057610faf610ea1565b5b5f610fbd88828901610eef565b9550506020610fce88828901610eef565b9450506040610fdf88828901610f22565b935050606086013567ffffffffffffffff81111561100057610fff610ea5565b5b61100c88828901610f42565b92509250509295509295909350565b5f7fffffffff0000000000000000000000000000000000000000000000000000000082169050919050565b61104f8161101b565b82525050565b5f6020820190506110685f830184611046565b92915050565b5f806040838503121561108457611083610ea1565b5b5f61109185828601610eef565b92505060206110a285828601610f22565b9150509250929050565b6110b581610ec8565b82525050565b6110c481610f03565b82525050565b5f6040820190506110dd5f8301856110ac565b6110ea60208301846110bb565b9392505050565b5f805f6060848603121561110857611107610ea1565b5b5f61111586828701610eef565b935050602061112686828701610f22565b925050604061113786828701610f22565b9150509250925092565b5f6020820190506111545f8301846110bb565b92915050565b5f8151905061116881610ed9565b92915050565b5f6020828403121561118357611182610ea1565b5b5f6111908482850161115a565b91505092915050565b5f82825260208201905092915050565b7f54686520746f6b656e4964206973206e6f74206c6973746564000000000000005f82015250565b5f6111dd601983611199565b91506111e8826111a9565b602082019050919050565b5f6020820190508181035f83015261120a816111d1565b9050919050565b7f596f7572207072696365206973206c657373207468616e2074686520707269635f8201527f65206f6620746f6b656e49640000000000000000000000000000000000000000602082015250565b5f61126b602c83611199565b915061127682611211565b604082019050919050565b5f6020820190508181035f8301526112988161125f565b9050919050565b5f6060820190506112b25f8301866110ac565b6112bf60208301856110ac565b6112cc60408301846110bb565b949350505050565b5f81905092915050565b7f537461727420746f207472616e7366657220746f206f726465722e6f776e65725f82015250565b5f6113126020836112d4565b915061131d826112de565b602082019050919050565b5f61133282611306565b9150819050919050565b5f60208201905061134f5f8301846110ac565b92915050565b7f456e6420746f207472616e7366657220746f206f726465722e6f776e657200005f82015250565b5f611389601e836112d4565b915061139482611355565b601e82019050919050565b5f6113a98261137d565b9150819050919050565b7f4e487b71000000000000000000000000000000000000000000000000000000005f52601160045260245ffd5b5f6113ea82610f03565b91506113f583610f03565b925082820390508181111561140d5761140c6113b3565b5b92915050565b7f537461727420746f207472616e7366657220746f206d73672e73656e646572005f82015250565b5f611447601f836112d4565b915061145282611413565b601f82019050919050565b5f6114678261143b565b9150819050919050565b7f456e6420746f207472616e7366657220746f206d73672e73656e6465720000005f82015250565b5f6114a5601d836112d4565b91506114b082611471565b601d82019050919050565b5f6114c582611499565b9150819050919050565b7f496e76616c6964206f776e6572000000000000000000000000000000000000005f82015250565b5f611503600d83611199565b915061150e826114cf565b602082019050919050565b5f6020820190508181035f830152611530816114f7565b9050919050565b7f54686520746f6b654964206973206e6f74206c697374656400000000000000005f82015250565b5f61156b601883611199565b915061157682611537565b602082019050919050565b5f6020820190508181035f8301526115988161155f565b9050919050565b7f546865207072696365206f6620746f6b656e4964206973206d757374206265205f8201527f73657420746f206e6f6e207a65726f0000000000000000000000000000000000602082015250565b5f6115f9602f83611199565b91506116048261159f565b604082019050919050565b5f6020820190508181035f830152611626816115ed565b9050919050565b7f4e65656420617070726f766564000000000000000000000000000000000000005f82015250565b5f611661600d83611199565b915061166c8261162d565b602082019050919050565b5f6020820190508181035f83015261168e81611655565b9050919050565b7f546865207072696365206f6620746f6b656e4964206d757374206265207365745f8201527f20746f206e6f6e207a65726f0000000000000000000000000000000000000000602082015250565b5f6116ef602c83611199565b91506116fa82611695565b604082019050919050565b5f6020820190508181035f83015261171c816116e3565b9050919050565b7f4e6f74206f776e657200000000000000000000000000000000000000000000005f82015250565b5f611757600983611199565b915061176282611723565b602082019050919050565b5f6020820190508181035f8301526117848161174b565b9050919050565b7f496e76616c6964206f72646572000000000000000000000000000000000000005f82015250565b5f6117bf600d83611199565b91506117ca8261178b565b602082019050919050565b5f6020820190508181035f8301526117ec816117b3565b905091905056fea2646970667358221220810c2be384615d8f4ae702c83cd81a8ccbdc9a2ded50f02014829269daf5b88a64736f6c634300081a0033",
					"opcodes": "PUSH1 0x80 PUSH1 0x40 MSTORE CALLVALUE DUP1 ISZERO PUSH1 0xE JUMPI PUSH0 DUP1 REVERT JUMPDEST POP PUSH2 0x1829 DUP1 PUSH2 0x1C PUSH0 CODECOPY PUSH0 RETURN INVALID PUSH1 0x80 PUSH1 0x40 MSTORE PUSH1 0x4 CALLDATASIZE LT PUSH2 0x58 JUMPI PUSH0 CALLDATALOAD PUSH1 0xE0 SHR DUP1 PUSH4 0x150B7A02 EQ PUSH2 0x61 JUMPI DUP1 PUSH4 0x8DE93222 EQ PUSH2 0x9D JUMPI DUP1 PUSH4 0xBA5F4FB2 EQ PUSH2 0xB9 JUMPI DUP1 PUSH4 0xD09B6D43 EQ PUSH2 0xF6 JUMPI DUP1 PUSH4 0xDDA342BB EQ PUSH2 0x11E JUMPI DUP1 PUSH4 0xEAC449D9 EQ PUSH2 0x146 JUMPI PUSH2 0x5F JUMP JUMPDEST CALLDATASIZE PUSH2 0x5F JUMPI STOP JUMPDEST STOP JUMPDEST CALLVALUE DUP1 ISZERO PUSH2 0x6C JUMPI PUSH0 DUP1 REVERT JUMPDEST POP PUSH2 0x87 PUSH1 0x4 DUP1 CALLDATASIZE SUB DUP2 ADD SWAP1 PUSH2 0x82 SWAP2 SWAP1 PUSH2 0xF97 JUMP JUMPDEST PUSH2 0x16E JUMP JUMPDEST PUSH1 0x40 MLOAD PUSH2 0x94 SWAP2 SWAP1 PUSH2 0x1055 JUMP JUMPDEST PUSH1 0x40 MLOAD DUP1 SWAP2 SUB SWAP1 RETURN JUMPDEST PUSH2 0xB7 PUSH1 0x4 DUP1 CALLDATASIZE SUB DUP2 ADD SWAP1 PUSH2 0xB2 SWAP2 SWAP1 PUSH2 0x106E JUMP JUMPDEST PUSH2 0x182 JUMP JUMPDEST STOP JUMPDEST CALLVALUE DUP1 ISZERO PUSH2 0xC4 JUMPI PUSH0 DUP1 REVERT JUMPDEST POP PUSH2 0xDF PUSH1 0x4 DUP1 CALLDATASIZE SUB DUP2 ADD SWAP1 PUSH2 0xDA SWAP2 SWAP1 PUSH2 0x106E JUMP JUMPDEST PUSH2 0x699 JUMP JUMPDEST PUSH1 0x40 MLOAD PUSH2 0xED SWAP3 SWAP2 SWAP1 PUSH2 0x10CA JUMP JUMPDEST PUSH1 0x40 MLOAD DUP1 SWAP2 SUB SWAP1 RETURN JUMPDEST CALLVALUE DUP1 ISZERO PUSH2 0x101 JUMPI PUSH0 DUP1 REVERT JUMPDEST POP PUSH2 0x11C PUSH1 0x4 DUP1 CALLDATASIZE SUB DUP2 ADD SWAP1 PUSH2 0x117 SWAP2 SWAP1 PUSH2 0x10F1 JUMP JUMPDEST PUSH2 0x6E2 JUMP JUMPDEST STOP JUMPDEST CALLVALUE DUP1 ISZERO PUSH2 0x129 JUMPI PUSH0 DUP1 REVERT JUMPDEST POP PUSH2 0x144 PUSH1 0x4 DUP1 CALLDATASIZE SUB DUP2 ADD SWAP1 PUSH2 0x13F SWAP2 SWAP1 PUSH2 0x10F1 JUMP JUMPDEST PUSH2 0x8FB JUMP JUMPDEST STOP JUMPDEST CALLVALUE DUP1 ISZERO PUSH2 0x151 JUMPI PUSH0 DUP1 REVERT JUMPDEST POP PUSH2 0x16C PUSH1 0x4 DUP1 CALLDATASIZE SUB DUP2 ADD SWAP1 PUSH2 0x167 SWAP2 SWAP1 PUSH2 0x106E JUMP JUMPDEST PUSH2 0xB95 JUMP JUMPDEST STOP JUMPDEST PUSH0 PUSH4 0x150B7A02 PUSH1 0xE0 SHL SWAP1 POP SWAP6 SWAP5 POP POP POP POP POP JUMP JUMPDEST PUSH0 DUP3 SWAP1 POP ADDRESS PUSH20 0xFFFFFFFFFFFFFFFFFFFFFFFFFFFFFFFFFFFFFFFF AND DUP2 PUSH20 0xFFFFFFFFFFFFFFFFFFFFFFFFFFFFFFFFFFFFFFFF AND PUSH4 0x6352211E DUP5 PUSH1 0x40 MLOAD DUP3 PUSH4 0xFFFFFFFF AND PUSH1 0xE0 SHL DUP2 MSTORE PUSH1 0x4 ADD PUSH2 0x1D6 SWAP2 SWAP1 PUSH2 0x1141 JUMP JUMPDEST PUSH1 0x20 PUSH1 0x40 MLOAD DUP1 DUP4 SUB DUP2 DUP7 GAS STATICCALL ISZERO DUP1 ISZERO PUSH2 0x1F1 JUMPI RETURNDATASIZE PUSH0 DUP1 RETURNDATACOPY RETURNDATASIZE PUSH0 REVERT JUMPDEST POP POP POP POP PUSH1 0x40 MLOAD RETURNDATASIZE PUSH1 0x1F NOT PUSH1 0x1F DUP3 ADD AND DUP3 ADD DUP1 PUSH1 0x40 MSTORE POP DUP2 ADD SWAP1 PUSH2 0x215 SWAP2 SWAP1 PUSH2 0x116E JUMP JUMPDEST PUSH20 0xFFFFFFFFFFFFFFFFFFFFFFFFFFFFFFFFFFFFFFFF AND EQ PUSH2 0x26B JUMPI PUSH1 0x40 MLOAD PUSH32 0x8C379A000000000000000000000000000000000000000000000000000000000 DUP2 MSTORE PUSH1 0x4 ADD PUSH2 0x262 SWAP1 PUSH2 0x11F3 JUMP JUMPDEST PUSH1 0x40 MLOAD DUP1 SWAP2 SUB SWAP1 REVERT JUMPDEST PUSH0 DUP1 PUSH0 DUP6 PUSH20 0xFFFFFFFFFFFFFFFFFFFFFFFFFFFFFFFFFFFFFFFF AND PUSH20 0xFFFFFFFFFFFFFFFFFFFFFFFFFFFFFFFFFFFFFFFF AND DUP2 MSTORE PUSH1 0x20 ADD SWAP1 DUP2 MSTORE PUSH1 0x20 ADD PUSH0 KECCAK256 PUSH0 DUP5 DUP2 MSTORE PUSH1 0x20 ADD SWAP1 DUP2 MSTORE PUSH1 0x20 ADD PUSH0 KECCAK256 SWAP1 POP CALLVALUE DUP2 PUSH1 0x1 ADD SLOAD GT ISZERO PUSH2 0x300 JUMPI PUSH1 0x40 MLOAD PUSH32 0x8C379A000000000000000000000000000000000000000000000000000000000 DUP2 MSTORE PUSH1 0x4 ADD PUSH2 0x2F7 SWAP1 PUSH2 0x1281 JUMP JUMPDEST PUSH1 0x40 MLOAD DUP1 SWAP2 SUB SWAP1 REVERT JUMPDEST DUP2 PUSH20 0xFFFFFFFFFFFFFFFFFFFFFFFFFFFFFFFFFFFFFFFF AND PUSH4 0x42842E0E ADDRESS CALLER DUP7 PUSH1 0x40 MLOAD DUP5 PUSH4 0xFFFFFFFF AND PUSH1 0xE0 SHL DUP2 MSTORE PUSH1 0x4 ADD PUSH2 0x33D SWAP4 SWAP3 SWAP2 SWAP1 PUSH2 0x129F JUMP JUMPDEST PUSH0 PUSH1 0x40 MLOAD DUP1 DUP4 SUB DUP2 PUSH0 DUP8 DUP1 EXTCODESIZE ISZERO DUP1 ISZERO PUSH2 0x354 JUMPI PUSH0 DUP1 REVERT JUMPDEST POP GAS CALL ISZERO DUP1 ISZERO PUSH2 0x366 JUMPI RETURNDATASIZE PUSH0 DUP1 RETURNDATACOPY RETURNDATASIZE PUSH0 REVERT JUMPDEST POP POP POP POP PUSH1 0x40 MLOAD PUSH2 0x376 SWAP1 PUSH2 0x1328 JUMP JUMPDEST PUSH1 0x40 MLOAD DUP1 SWAP2 SUB SWAP1 KECCAK256 PUSH32 0x1DFFFA052D4A63BD70F14B863E128979D1C59E3589A0A3BEB2633A120047042D DUP3 PUSH0 ADD PUSH0 SWAP1 SLOAD SWAP1 PUSH2 0x100 EXP SWAP1 DIV PUSH20 0xFFFFFFFFFFFFFFFFFFFFFFFFFFFFFFFFFFFFFFFF AND PUSH1 0x40 MLOAD PUSH2 0x3CF SWAP2 SWAP1 PUSH2 0x133C JUMP JUMPDEST PUSH1 0x40 MLOAD DUP1 SWAP2 SUB SWAP1 LOG2 DUP1 PUSH0 ADD PUSH0 SWAP1 SLOAD SWAP1 PUSH2 0x100 EXP SWAP1 DIV PUSH20 0xFFFFFFFFFFFFFFFFFFFFFFFFFFFFFFFFFFFFFFFF AND PUSH20 0xFFFFFFFFFFFFFFFFFFFFFFFFFFFFFFFFFFFFFFFF AND PUSH2 0x8FC DUP3 PUSH1 0x1 ADD SLOAD SWAP1 DUP2 ISZERO MUL SWAP1 PUSH1 0x40 MLOAD PUSH0 PUSH1 0x40 MLOAD DUP1 DUP4 SUB DUP2 DUP6 DUP9 DUP9 CALL SWAP4 POP POP POP POP ISZERO DUP1 ISZERO PUSH2 0x440 JUMPI RETURNDATASIZE PUSH0 DUP1 RETURNDATACOPY RETURNDATASIZE PUSH0 REVERT JUMPDEST POP PUSH1 0x40 MLOAD PUSH2 0x44D SWAP1 PUSH2 0x139F JUMP JUMPDEST PUSH1 0x40 MLOAD DUP1 SWAP2 SUB SWAP1 KECCAK256 PUSH32 0x1DFFFA052D4A63BD70F14B863E128979D1C59E3589A0A3BEB2633A120047042D DUP3 PUSH0 ADD PUSH0 SWAP1 SLOAD SWAP1 PUSH2 0x100 EXP SWAP1 DIV PUSH20 0xFFFFFFFFFFFFFFFFFFFFFFFFFFFFFFFFFFFFFFFF AND PUSH1 0x40 MLOAD PUSH2 0x4A6 SWAP2 SWAP1 PUSH2 0x133C JUMP JUMPDEST PUSH1 0x40 MLOAD DUP1 SWAP2 SUB SWAP1 LOG2 PUSH0 CALLVALUE DUP3 PUSH1 0x1 ADD SLOAD PUSH2 0x4BF SWAP2 SWAP1 PUSH2 0x13E0 JUMP JUMPDEST LT ISZERO PUSH2 0x5AF JUMPI PUSH1 0x40 MLOAD PUSH2 0x4D1 SWAP1 PUSH2 0x145D JUMP JUMPDEST PUSH1 0x40 MLOAD DUP1 SWAP2 SUB SWAP1 KECCAK256 PUSH32 0x1DFFFA052D4A63BD70F14B863E128979D1C59E3589A0A3BEB2633A120047042D CALLER PUSH1 0x40 MLOAD PUSH2 0x508 SWAP2 SWAP1 PUSH2 0x133C JUMP JUMPDEST PUSH1 0x40 MLOAD DUP1 SWAP2 SUB SWAP1 LOG2 CALLER PUSH20 0xFFFFFFFFFFFFFFFFFFFFFFFFFFFFFFFFFFFFFFFF AND PUSH2 0x8FC DUP3 PUSH1 0x1 ADD SLOAD CALLVALUE PUSH2 0x53A SWAP2 SWAP1 PUSH2 0x13E0 JUMP JUMPDEST SWAP1 DUP2 ISZERO MUL SWAP1 PUSH1 0x40 MLOAD PUSH0 PUSH1 0x40 MLOAD DUP1 DUP4 SUB DUP2 DUP6 DUP9 DUP9 CALL SWAP4 POP POP POP POP ISZERO DUP1 ISZERO PUSH2 0x562 JUMPI RETURNDATASIZE PUSH0 DUP1 RETURNDATACOPY RETURNDATASIZE PUSH0 REVERT JUMPDEST POP PUSH1 0x40 MLOAD PUSH2 0x56F SWAP1 PUSH2 0x14BB JUMP JUMPDEST PUSH1 0x40 MLOAD DUP1 SWAP2 SUB SWAP1 KECCAK256 PUSH32 0x1DFFFA052D4A63BD70F14B863E128979D1C59E3589A0A3BEB2633A120047042D CALLER PUSH1 0x40 MLOAD PUSH2 0x5A6 SWAP2 SWAP1 PUSH2 0x133C JUMP JUMPDEST PUSH1 0x40 MLOAD DUP1 SWAP2 SUB SWAP1 LOG2 JUMPDEST PUSH0 DUP1 DUP6 PUSH20 0xFFFFFFFFFFFFFFFFFFFFFFFFFFFFFFFFFFFFFFFF AND PUSH20 0xFFFFFFFFFFFFFFFFFFFFFFFFFFFFFFFFFFFFFFFF AND DUP2 MSTORE PUSH1 0x20 ADD SWAP1 DUP2 MSTORE PUSH1 0x20 ADD PUSH0 KECCAK256 PUSH0 DUP5 DUP2 MSTORE PUSH1 0x20 ADD SWAP1 DUP2 MSTORE PUSH1 0x20 ADD PUSH0 KECCAK256 PUSH0 DUP1 DUP3 ADD PUSH0 PUSH2 0x100 EXP DUP2 SLOAD SWAP1 PUSH20 0xFFFFFFFFFFFFFFFFFFFFFFFFFFFFFFFFFFFFFFFF MUL NOT AND SWAP1 SSTORE PUSH1 0x1 DUP3 ADD PUSH0 SWAP1 SSTORE POP POP DUP3 DUP5 PUSH20 0xFFFFFFFFFFFFFFFFFFFFFFFFFFFFFFFFFFFFFFFF AND CALLER PUSH20 0xFFFFFFFFFFFFFFFFFFFFFFFFFFFFFFFFFFFFFFFF AND PUSH32 0x46661DAB58311A6838247AFECBEE792192B4F27FC8B3E7168C66BC55EC2E404E DUP5 PUSH1 0x1 ADD SLOAD PUSH1 0x40 MLOAD PUSH2 0x68B SWAP2 SWAP1 PUSH2 0x1141 JUMP JUMPDEST PUSH1 0x40 MLOAD DUP1 SWAP2 SUB SWAP1 LOG4 POP POP POP POP JUMP JUMPDEST PUSH0 PUSH1 0x20 MSTORE DUP2 PUSH0 MSTORE PUSH1 0x40 PUSH0 KECCAK256 PUSH1 0x20 MSTORE DUP1 PUSH0 MSTORE PUSH1 0x40 PUSH0 KECCAK256 PUSH0 SWAP2 POP SWAP2 POP POP DUP1 PUSH0 ADD PUSH0 SWAP1 SLOAD SWAP1 PUSH2 0x100 EXP SWAP1 DIV PUSH20 0xFFFFFFFFFFFFFFFFFFFFFFFFFFFFFFFFFFFFFFFF AND SWAP1 DUP1 PUSH1 0x1 ADD SLOAD SWAP1 POP DUP3 JUMP JUMPDEST PUSH0 DUP1 PUSH0 DUP6 PUSH20 0xFFFFFFFFFFFFFFFFFFFFFFFFFFFFFFFFFFFFFFFF AND PUSH20 0xFFFFFFFFFFFFFFFFFFFFFFFFFFFFFFFFFFFFFFFF AND DUP2 MSTORE PUSH1 0x20 ADD SWAP1 DUP2 MSTORE PUSH1 0x20 ADD PUSH0 KECCAK256 PUSH0 DUP5 DUP2 MSTORE PUSH1 0x20 ADD SWAP1 DUP2 MSTORE PUSH1 0x20 ADD PUSH0 KECCAK256 SWAP1 POP DUP1 PUSH0 ADD PUSH0 SWAP1 SLOAD SWAP1 PUSH2 0x100 EXP SWAP1 DIV PUSH20 0xFFFFFFFFFFFFFFFFFFFFFFFFFFFFFFFFFFFFFFFF AND PUSH20 0xFFFFFFFFFFFFFFFFFFFFFFFFFFFFFFFFFFFFFFFF AND CALLER PUSH20 0xFFFFFFFFFFFFFFFFFFFFFFFFFFFFFFFFFFFFFFFF AND EQ PUSH2 0x7C0 JUMPI PUSH1 0x40 MLOAD PUSH32 0x8C379A000000000000000000000000000000000000000000000000000000000 DUP2 MSTORE PUSH1 0x4 ADD PUSH2 0x7B7 SWAP1 PUSH2 0x1519 JUMP JUMPDEST PUSH1 0x40 MLOAD DUP1 SWAP2 SUB SWAP1 REVERT JUMPDEST PUSH0 DUP5 SWAP1 POP ADDRESS PUSH20 0xFFFFFFFFFFFFFFFFFFFFFFFFFFFFFFFFFFFFFFFF AND DUP2 PUSH20 0xFFFFFFFFFFFFFFFFFFFFFFFFFFFFFFFFFFFFFFFF AND PUSH4 0x6352211E DUP7 PUSH1 0x40 MLOAD DUP3 PUSH4 0xFFFFFFFF AND PUSH1 0xE0 SHL DUP2 MSTORE PUSH1 0x4 ADD PUSH2 0x814 SWAP2 SWAP1 PUSH2 0x1141 JUMP JUMPDEST PUSH1 0x20 PUSH1 0x40 MLOAD DUP1 DUP4 SUB DUP2 DUP7 GAS STATICCALL ISZERO DUP1 ISZERO PUSH2 0x82F JUMPI RETURNDATASIZE PUSH0 DUP1 RETURNDATACOPY RETURNDATASIZE PUSH0 REVERT JUMPDEST POP POP POP POP PUSH1 0x40 MLOAD RETURNDATASIZE PUSH1 0x1F NOT PUSH1 0x1F DUP3 ADD AND DUP3 ADD DUP1 PUSH1 0x40 MSTORE POP DUP2 ADD SWAP1 PUSH2 0x853 SWAP2 SWAP1 PUSH2 0x116E JUMP JUMPDEST PUSH20 0xFFFFFFFFFFFFFFFFFFFFFFFFFFFFFFFFFFFFFFFF AND EQ PUSH2 0x8A9 JUMPI PUSH1 0x40 MLOAD PUSH32 0x8C379A000000000000000000000000000000000000000000000000000000000 DUP2 MSTORE PUSH1 0x4 ADD PUSH2 0x8A0 SWAP1 PUSH2 0x1581 JUMP JUMPDEST PUSH1 0x40 MLOAD DUP1 SWAP2 SUB SWAP1 REVERT JUMPDEST PUSH0 DUP4 GT PUSH2 0x8EB JUMPI PUSH1 0x40 MLOAD PUSH32 0x8C379A000000000000000000000000000000000000000000000000000000000 DUP2 MSTORE PUSH1 0x4 ADD PUSH2 0x8E2 SWAP1 PUSH2 0x160F JUMP JUMPDEST PUSH1 0x40 MLOAD DUP1 SWAP2 SUB SWAP1 REVERT JUMPDEST DUP3 DUP3 PUSH1 0x1 ADD DUP2 SWAP1 SSTORE POP POP POP POP POP POP JUMP JUMPDEST PUSH0 DUP4 SWAP1 POP ADDRESS PUSH20 0xFFFFFFFFFFFFFFFFFFFFFFFFFFFFFFFFFFFFFFFF AND DUP2 PUSH20 0xFFFFFFFFFFFFFFFFFFFFFFFFFFFFFFFFFFFFFFFF AND PUSH4 0x81812FC DUP6 PUSH1 0x40 MLOAD DUP3 PUSH4 0xFFFFFFFF AND PUSH1 0xE0 SHL DUP2 MSTORE PUSH1 0x4 ADD PUSH2 0x94F SWAP2 SWAP1 PUSH2 0x1141 JUMP JUMPDEST PUSH1 0x20 PUSH1 0x40 MLOAD DUP1 DUP4 SUB DUP2 DUP7 GAS STATICCALL ISZERO DUP1 ISZERO PUSH2 0x96A JUMPI RETURNDATASIZE PUSH0 DUP1 RETURNDATACOPY RETURNDATASIZE PUSH0 REVERT JUMPDEST POP POP POP POP PUSH1 0x40 MLOAD RETURNDATASIZE PUSH1 0x1F NOT PUSH1 0x1F DUP3 ADD AND DUP3 ADD DUP1 PUSH1 0x40 MSTORE POP DUP2 ADD SWAP1 PUSH2 0x98E SWAP2 SWAP1 PUSH2 0x116E JUMP JUMPDEST PUSH20 0xFFFFFFFFFFFFFFFFFFFFFFFFFFFFFFFFFFFFFFFF AND EQ PUSH2 0x9E4 JUMPI PUSH1 0x40 MLOAD PUSH32 0x8C379A000000000000000000000000000000000000000000000000000000000 DUP2 MSTORE PUSH1 0x4 ADD PUSH2 0x9DB SWAP1 PUSH2 0x1677 JUMP JUMPDEST PUSH1 0x40 MLOAD DUP1 SWAP2 SUB SWAP1 REVERT JUMPDEST PUSH0 DUP3 GT PUSH2 0xA26 JUMPI PUSH1 0x40 MLOAD PUSH32 0x8C379A000000000000000000000000000000000000000000000000000000000 DUP2 MSTORE PUSH1 0x4 ADD PUSH2 0xA1D SWAP1 PUSH2 0x1705 JUMP JUMPDEST PUSH1 0x40 MLOAD DUP1 SWAP2 SUB SWAP1 REVERT JUMPDEST PUSH0 DUP1 PUSH0 DUP7 PUSH20 0xFFFFFFFFFFFFFFFFFFFFFFFFFFFFFFFFFFFFFFFF AND PUSH20 0xFFFFFFFFFFFFFFFFFFFFFFFFFFFFFFFFFFFFFFFF AND DUP2 MSTORE PUSH1 0x20 ADD SWAP1 DUP2 MSTORE PUSH1 0x20 ADD PUSH0 KECCAK256 PUSH0 DUP6 DUP2 MSTORE PUSH1 0x20 ADD SWAP1 DUP2 MSTORE PUSH1 0x20 ADD PUSH0 KECCAK256 SWAP1 POP CALLER DUP2 PUSH0 ADD PUSH0 PUSH2 0x100 EXP DUP2 SLOAD DUP2 PUSH20 0xFFFFFFFFFFFFFFFFFFFFFFFFFFFFFFFFFFFFFFFF MUL NOT AND SWAP1 DUP4 PUSH20 0xFFFFFFFFFFFFFFFFFFFFFFFFFFFFFFFFFFFFFFFF AND MUL OR SWAP1 SSTORE POP DUP3 DUP2 PUSH1 0x1 ADD DUP2 SWAP1 SSTORE POP DUP2 PUSH20 0xFFFFFFFFFFFFFFFFFFFFFFFFFFFFFFFFFFFFFFFF AND PUSH4 0x42842E0E CALLER ADDRESS DUP8 PUSH1 0x40 MLOAD DUP5 PUSH4 0xFFFFFFFF AND PUSH1 0xE0 SHL DUP2 MSTORE PUSH1 0x4 ADD PUSH2 0xAFB SWAP4 SWAP3 SWAP2 SWAP1 PUSH2 0x129F JUMP JUMPDEST PUSH0 PUSH1 0x40 MLOAD DUP1 DUP4 SUB DUP2 PUSH0 DUP8 DUP1 EXTCODESIZE ISZERO DUP1 ISZERO PUSH2 0xB12 JUMPI PUSH0 DUP1 REVERT JUMPDEST POP GAS CALL ISZERO DUP1 ISZERO PUSH2 0xB24 JUMPI RETURNDATASIZE PUSH0 DUP1 RETURNDATACOPY RETURNDATASIZE PUSH0 REVERT JUMPDEST POP POP POP POP DUP4 ADDRESS PUSH20 0xFFFFFFFFFFFFFFFFFFFFFFFFFFFFFFFFFFFFFFFF AND CALLER PUSH20 0xFFFFFFFFFFFFFFFFFFFFFFFFFFFFFFFFFFFFFFFF AND PUSH32 0xEDBDF022944A3291F4B30148903A84720506F48E10478EC5812E5CAF30E1FAB0 DUP7 PUSH1 0x40 MLOAD PUSH2 0xB86 SWAP2 SWAP1 PUSH2 0x1141 JUMP JUMPDEST PUSH1 0x40 MLOAD DUP1 SWAP2 SUB SWAP1 LOG4 POP POP POP POP POP JUMP JUMPDEST PUSH0 DUP1 PUSH0 DUP5 PUSH20 0xFFFFFFFFFFFFFFFFFFFFFFFFFFFFFFFFFFFFFFFF AND PUSH20 0xFFFFFFFFFFFFFFFFFFFFFFFFFFFFFFFFFFFFFFFF AND DUP2 MSTORE PUSH1 0x20 ADD SWAP1 DUP2 MSTORE PUSH1 0x20 ADD PUSH0 KECCAK256 PUSH0 DUP4 DUP2 MSTORE PUSH1 0x20 ADD SWAP1 DUP2 MSTORE PUSH1 0x20 ADD PUSH0 KECCAK256 SWAP1 POP CALLER PUSH20 0xFFFFFFFFFFFFFFFFFFFFFFFFFFFFFFFFFFFFFFFF AND DUP2 PUSH0 ADD PUSH0 SWAP1 SLOAD SWAP1 PUSH2 0x100 EXP SWAP1 DIV PUSH20 0xFFFFFFFFFFFFFFFFFFFFFFFFFFFFFFFFFFFFFFFF AND PUSH20 0xFFFFFFFFFFFFFFFFFFFFFFFFFFFFFFFFFFFFFFFF AND EQ PUSH2 0xC73 JUMPI PUSH1 0x40 MLOAD PUSH32 0x8C379A000000000000000000000000000000000000000000000000000000000 DUP2 MSTORE PUSH1 0x4 ADD PUSH2 0xC6A SWAP1 PUSH2 0x176D JUMP JUMPDEST PUSH1 0x40 MLOAD DUP1 SWAP2 SUB SWAP1 REVERT JUMPDEST PUSH0 DUP4 SWAP1 POP ADDRESS PUSH20 0xFFFFFFFFFFFFFFFFFFFFFFFFFFFFFFFFFFFFFFFF AND DUP2 PUSH20 0xFFFFFFFFFFFFFFFFFFFFFFFFFFFFFFFFFFFFFFFF AND PUSH4 0x6352211E DUP6 PUSH1 0x40 MLOAD DUP3 PUSH4 0xFFFFFFFF AND PUSH1 0xE0 SHL DUP2 MSTORE PUSH1 0x4 ADD PUSH2 0xCC7 SWAP2 SWAP1 PUSH2 0x1141 JUMP JUMPDEST PUSH1 0x20 PUSH1 0x40 MLOAD DUP1 DUP4 SUB DUP2 DUP7 GAS STATICCALL ISZERO DUP1 ISZERO PUSH2 0xCE2 JUMPI RETURNDATASIZE PUSH0 DUP1 RETURNDATACOPY RETURNDATASIZE PUSH0 REVERT JUMPDEST POP POP POP POP PUSH1 0x40 MLOAD RETURNDATASIZE PUSH1 0x1F NOT PUSH1 0x1F DUP3 ADD AND DUP3 ADD DUP1 PUSH1 0x40 MSTORE POP DUP2 ADD SWAP1 PUSH2 0xD06 SWAP2 SWAP1 PUSH2 0x116E JUMP JUMPDEST PUSH20 0xFFFFFFFFFFFFFFFFFFFFFFFFFFFFFFFFFFFFFFFF AND EQ PUSH2 0xD5C JUMPI PUSH1 0x40 MLOAD PUSH32 0x8C379A000000000000000000000000000000000000000000000000000000000 DUP2 MSTORE PUSH1 0x4 ADD PUSH2 0xD53 SWAP1 PUSH2 0x17D5 JUMP JUMPDEST PUSH1 0x40 MLOAD DUP1 SWAP2 SUB SWAP1 REVERT JUMPDEST DUP1 PUSH20 0xFFFFFFFFFFFFFFFFFFFFFFFFFFFFFFFFFFFFFFFF AND PUSH4 0x42842E0E ADDRESS CALLER DUP7 PUSH1 0x40 MLOAD DUP5 PUSH4 0xFFFFFFFF AND PUSH1 0xE0 SHL DUP2 MSTORE PUSH1 0x4 ADD PUSH2 0xD99 SWAP4 SWAP3 SWAP2 SWAP1 PUSH2 0x129F JUMP JUMPDEST PUSH0 PUSH1 0x40 MLOAD DUP1 DUP4 SUB DUP2 PUSH0 DUP8 DUP1 EXTCODESIZE ISZERO DUP1 ISZERO PUSH2 0xDB0 JUMPI PUSH0 DUP1 REVERT JUMPDEST POP GAS CALL ISZERO DUP1 ISZERO PUSH2 0xDC2 JUMPI RETURNDATASIZE PUSH0 DUP1 RETURNDATACOPY RETURNDATASIZE PUSH0 REVERT JUMPDEST POP POP POP POP PUSH0 DUP1 DUP6 PUSH20 0xFFFFFFFFFFFFFFFFFFFFFFFFFFFFFFFFFFFFFFFF AND PUSH20 0xFFFFFFFFFFFFFFFFFFFFFFFFFFFFFFFFFFFFFFFF AND DUP2 MSTORE PUSH1 0x20 ADD SWAP1 DUP2 MSTORE PUSH1 0x20 ADD PUSH0 KECCAK256 PUSH0 DUP5 DUP2 MSTORE PUSH1 0x20 ADD SWAP1 DUP2 MSTORE PUSH1 0x20 ADD PUSH0 KECCAK256 PUSH0 DUP1 DUP3 ADD PUSH0 PUSH2 0x100 EXP DUP2 SLOAD SWAP1 PUSH20 0xFFFFFFFFFFFFFFFFFFFFFFFFFFFFFFFFFFFFFFFF MUL NOT AND SWAP1 SSTORE PUSH1 0x1 DUP3 ADD PUSH0 SWAP1 SSTORE POP POP DUP3 DUP5 PUSH20 0xFFFFFFFFFFFFFFFFFFFFFFFFFFFFFFFFFFFFFFFF AND CALLER PUSH20 0xFFFFFFFFFFFFFFFFFFFFFFFFFFFFFFFFFFFFFFFF AND PUSH32 0xB698E31A2ABEE5824D0D7BCFD2339AEAD7F9E9AE413FBA50BF554FF3FA470B7B PUSH1 0x40 MLOAD PUSH1 0x40 MLOAD DUP1 SWAP2 SUB SWAP1 LOG4 POP POP POP POP JUMP JUMPDEST PUSH0 DUP1 REVERT JUMPDEST PUSH0 DUP1 REVERT JUMPDEST PUSH0 PUSH20 0xFFFFFFFFFFFFFFFFFFFFFFFFFFFFFFFFFFFFFFFF DUP3 AND SWAP1 POP SWAP2 SWAP1 POP JUMP JUMPDEST PUSH0 PUSH2 0xED2 DUP3 PUSH2 0xEA9 JUMP JUMPDEST SWAP1 POP SWAP2 SWAP1 POP JUMP JUMPDEST PUSH2 0xEE2 DUP2 PUSH2 0xEC8 JUMP JUMPDEST DUP2 EQ PUSH2 0xEEC JUMPI PUSH0 DUP1 REVERT JUMPDEST POP JUMP JUMPDEST PUSH0 DUP2 CALLDATALOAD SWAP1 POP PUSH2 0xEFD DUP2 PUSH2 0xED9 JUMP JUMPDEST SWAP3 SWAP2 POP POP JUMP JUMPDEST PUSH0 DUP2 SWAP1 POP SWAP2 SWAP1 POP JUMP JUMPDEST PUSH2 0xF15 DUP2 PUSH2 0xF03 JUMP JUMPDEST DUP2 EQ PUSH2 0xF1F JUMPI PUSH0 DUP1 REVERT JUMPDEST POP JUMP JUMPDEST PUSH0 DUP2 CALLDATALOAD SWAP1 POP PUSH2 0xF30 DUP2 PUSH2 0xF0C JUMP JUMPDEST SWAP3 SWAP2 POP POP JUMP JUMPDEST PUSH0 DUP1 REVERT JUMPDEST PUSH0 DUP1 REVERT JUMPDEST PUSH0 DUP1 REVERT JUMPDEST PUSH0 DUP1 DUP4 PUSH1 0x1F DUP5 ADD SLT PUSH2 0xF57 JUMPI PUSH2 0xF56 PUSH2 0xF36 JUMP JUMPDEST JUMPDEST DUP3 CALLDATALOAD SWAP1 POP PUSH8 0xFFFFFFFFFFFFFFFF DUP2 GT ISZERO PUSH2 0xF74 JUMPI PUSH2 0xF73 PUSH2 0xF3A JUMP JUMPDEST JUMPDEST PUSH1 0x20 DUP4 ADD SWAP2 POP DUP4 PUSH1 0x1 DUP3 MUL DUP4 ADD GT ISZERO PUSH2 0xF90 JUMPI PUSH2 0xF8F PUSH2 0xF3E JUMP JUMPDEST JUMPDEST SWAP3 POP SWAP3 SWAP1 POP JUMP JUMPDEST PUSH0 DUP1 PUSH0 DUP1 PUSH0 PUSH1 0x80 DUP7 DUP9 SUB SLT ISZERO PUSH2 0xFB0 JUMPI PUSH2 0xFAF PUSH2 0xEA1 JUMP JUMPDEST JUMPDEST PUSH0 PUSH2 0xFBD DUP9 DUP3 DUP10 ADD PUSH2 0xEEF JUMP JUMPDEST SWAP6 POP POP PUSH1 0x20 PUSH2 0xFCE DUP9 DUP3 DUP10 ADD PUSH2 0xEEF JUMP JUMPDEST SWAP5 POP POP PUSH1 0x40 PUSH2 0xFDF DUP9 DUP3 DUP10 ADD PUSH2 0xF22 JUMP JUMPDEST SWAP4 POP POP PUSH1 0x60 DUP7 ADD CALLDATALOAD PUSH8 0xFFFFFFFFFFFFFFFF DUP2 GT ISZERO PUSH2 0x1000 JUMPI PUSH2 0xFFF PUSH2 0xEA5 JUMP JUMPDEST JUMPDEST PUSH2 0x100C DUP9 DUP3 DUP10 ADD PUSH2 0xF42 JUMP JUMPDEST SWAP3 POP SWAP3 POP POP SWAP3 SWAP6 POP SWAP3 SWAP6 SWAP1 SWAP4 POP JUMP JUMPDEST PUSH0 PUSH32 0xFFFFFFFF00000000000000000000000000000000000000000000000000000000 DUP3 AND SWAP1 POP SWAP2 SWAP1 POP JUMP JUMPDEST PUSH2 0x104F DUP2 PUSH2 0x101B JUMP JUMPDEST DUP3 MSTORE POP POP JUMP JUMPDEST PUSH0 PUSH1 0x20 DUP3 ADD SWAP1 POP PUSH2 0x1068 PUSH0 DUP4 ADD DUP5 PUSH2 0x1046 JUMP JUMPDEST SWAP3 SWAP2 POP POP JUMP JUMPDEST PUSH0 DUP1 PUSH1 0x40 DUP4 DUP6 SUB SLT ISZERO PUSH2 0x1084 JUMPI PUSH2 0x1083 PUSH2 0xEA1 JUMP JUMPDEST JUMPDEST PUSH0 PUSH2 0x1091 DUP6 DUP3 DUP7 ADD PUSH2 0xEEF JUMP JUMPDEST SWAP3 POP POP PUSH1 0x20 PUSH2 0x10A2 DUP6 DUP3 DUP7 ADD PUSH2 0xF22 JUMP JUMPDEST SWAP2 POP POP SWAP3 POP SWAP3 SWAP1 POP JUMP JUMPDEST PUSH2 0x10B5 DUP2 PUSH2 0xEC8 JUMP JUMPDEST DUP3 MSTORE POP POP JUMP JUMPDEST PUSH2 0x10C4 DUP2 PUSH2 0xF03 JUMP JUMPDEST DUP3 MSTORE POP POP JUMP JUMPDEST PUSH0 PUSH1 0x40 DUP3 ADD SWAP1 POP PUSH2 0x10DD PUSH0 DUP4 ADD DUP6 PUSH2 0x10AC JUMP JUMPDEST PUSH2 0x10EA PUSH1 0x20 DUP4 ADD DUP5 PUSH2 0x10BB JUMP JUMPDEST SWAP4 SWAP3 POP POP POP JUMP JUMPDEST PUSH0 DUP1 PUSH0 PUSH1 0x60 DUP5 DUP7 SUB SLT ISZERO PUSH2 0x1108 JUMPI PUSH2 0x1107 PUSH2 0xEA1 JUMP JUMPDEST JUMPDEST PUSH0 PUSH2 0x1115 DUP7 DUP3 DUP8 ADD PUSH2 0xEEF JUMP JUMPDEST SWAP4 POP POP PUSH1 0x20 PUSH2 0x1126 DUP7 DUP3 DUP8 ADD PUSH2 0xF22 JUMP JUMPDEST SWAP3 POP POP PUSH1 0x40 PUSH2 0x1137 DUP7 DUP3 DUP8 ADD PUSH2 0xF22 JUMP JUMPDEST SWAP2 POP POP SWAP3 POP SWAP3 POP SWAP3 JUMP JUMPDEST PUSH0 PUSH1 0x20 DUP3 ADD SWAP1 POP PUSH2 0x1154 PUSH0 DUP4 ADD DUP5 PUSH2 0x10BB JUMP JUMPDEST SWAP3 SWAP2 POP POP JUMP JUMPDEST PUSH0 DUP2 MLOAD SWAP1 POP PUSH2 0x1168 DUP2 PUSH2 0xED9 JUMP JUMPDEST SWAP3 SWAP2 POP POP JUMP JUMPDEST PUSH0 PUSH1 0x20 DUP3 DUP5 SUB SLT ISZERO PUSH2 0x1183 JUMPI PUSH2 0x1182 PUSH2 0xEA1 JUMP JUMPDEST JUMPDEST PUSH0 PUSH2 0x1190 DUP5 DUP3 DUP6 ADD PUSH2 0x115A JUMP JUMPDEST SWAP2 POP POP SWAP3 SWAP2 POP POP JUMP JUMPDEST PUSH0 DUP3 DUP3 MSTORE PUSH1 0x20 DUP3 ADD SWAP1 POP SWAP3 SWAP2 POP POP JUMP JUMPDEST PUSH32 0x54686520746F6B656E4964206973206E6F74206C697374656400000000000000 PUSH0 DUP3 ADD MSTORE POP JUMP JUMPDEST PUSH0 PUSH2 0x11DD PUSH1 0x19 DUP4 PUSH2 0x1199 JUMP JUMPDEST SWAP2 POP PUSH2 0x11E8 DUP3 PUSH2 0x11A9 JUMP JUMPDEST PUSH1 0x20 DUP3 ADD SWAP1 POP SWAP2 SWAP1 POP JUMP JUMPDEST PUSH0 PUSH1 0x20 DUP3 ADD SWAP1 POP DUP2 DUP2 SUB PUSH0 DUP4 ADD MSTORE PUSH2 0x120A DUP2 PUSH2 0x11D1 JUMP JUMPDEST SWAP1 POP SWAP2 SWAP1 POP JUMP JUMPDEST PUSH32 0x596F7572207072696365206973206C657373207468616E207468652070726963 PUSH0 DUP3 ADD MSTORE PUSH32 0x65206F6620746F6B656E49640000000000000000000000000000000000000000 PUSH1 0x20 DUP3 ADD MSTORE POP JUMP JUMPDEST PUSH0 PUSH2 0x126B PUSH1 0x2C DUP4 PUSH2 0x1199 JUMP JUMPDEST SWAP2 POP PUSH2 0x1276 DUP3 PUSH2 0x1211 JUMP JUMPDEST PUSH1 0x40 DUP3 ADD SWAP1 POP SWAP2 SWAP1 POP JUMP JUMPDEST PUSH0 PUSH1 0x20 DUP3 ADD SWAP1 POP DUP2 DUP2 SUB PUSH0 DUP4 ADD MSTORE PUSH2 0x1298 DUP2 PUSH2 0x125F JUMP JUMPDEST SWAP1 POP SWAP2 SWAP1 POP JUMP JUMPDEST PUSH0 PUSH1 0x60 DUP3 ADD SWAP1 POP PUSH2 0x12B2 PUSH0 DUP4 ADD DUP7 PUSH2 0x10AC JUMP JUMPDEST PUSH2 0x12BF PUSH1 0x20 DUP4 ADD DUP6 PUSH2 0x10AC JUMP JUMPDEST PUSH2 0x12CC PUSH1 0x40 DUP4 ADD DUP5 PUSH2 0x10BB JUMP JUMPDEST SWAP5 SWAP4 POP POP POP POP JUMP JUMPDEST PUSH0 DUP2 SWAP1 POP SWAP3 SWAP2 POP POP JUMP JUMPDEST PUSH32 0x537461727420746F207472616E7366657220746F206F726465722E6F776E6572 PUSH0 DUP3 ADD MSTORE POP JUMP JUMPDEST PUSH0 PUSH2 0x1312 PUSH1 0x20 DUP4 PUSH2 0x12D4 JUMP JUMPDEST SWAP2 POP PUSH2 0x131D DUP3 PUSH2 0x12DE JUMP JUMPDEST PUSH1 0x20 DUP3 ADD SWAP1 POP SWAP2 SWAP1 POP JUMP JUMPDEST PUSH0 PUSH2 0x1332 DUP3 PUSH2 0x1306 JUMP JUMPDEST SWAP2 POP DUP2 SWAP1 POP SWAP2 SWAP1 POP JUMP JUMPDEST PUSH0 PUSH1 0x20 DUP3 ADD SWAP1 POP PUSH2 0x134F PUSH0 DUP4 ADD DUP5 PUSH2 0x10AC JUMP JUMPDEST SWAP3 SWAP2 POP POP JUMP JUMPDEST PUSH32 0x456E6420746F207472616E7366657220746F206F726465722E6F776E65720000 PUSH0 DUP3 ADD MSTORE POP JUMP JUMPDEST PUSH0 PUSH2 0x1389 PUSH1 0x1E DUP4 PUSH2 0x12D4 JUMP JUMPDEST SWAP2 POP PUSH2 0x1394 DUP3 PUSH2 0x1355 JUMP JUMPDEST PUSH1 0x1E DUP3 ADD SWAP1 POP SWAP2 SWAP1 POP JUMP JUMPDEST PUSH0 PUSH2 0x13A9 DUP3 PUSH2 0x137D JUMP JUMPDEST SWAP2 POP DUP2 SWAP1 POP SWAP2 SWAP1 POP JUMP JUMPDEST PUSH32 0x4E487B7100000000000000000000000000000000000000000000000000000000 PUSH0 MSTORE PUSH1 0x11 PUSH1 0x4 MSTORE PUSH1 0x24 PUSH0 REVERT JUMPDEST PUSH0 PUSH2 0x13EA DUP3 PUSH2 0xF03 JUMP JUMPDEST SWAP2 POP PUSH2 0x13F5 DUP4 PUSH2 0xF03 JUMP JUMPDEST SWAP3 POP DUP3 DUP3 SUB SWAP1 POP DUP2 DUP2 GT ISZERO PUSH2 0x140D JUMPI PUSH2 0x140C PUSH2 0x13B3 JUMP JUMPDEST JUMPDEST SWAP3 SWAP2 POP POP JUMP JUMPDEST PUSH32 0x537461727420746F207472616E7366657220746F206D73672E73656E64657200 PUSH0 DUP3 ADD MSTORE POP JUMP JUMPDEST PUSH0 PUSH2 0x1447 PUSH1 0x1F DUP4 PUSH2 0x12D4 JUMP JUMPDEST SWAP2 POP PUSH2 0x1452 DUP3 PUSH2 0x1413 JUMP JUMPDEST PUSH1 0x1F DUP3 ADD SWAP1 POP SWAP2 SWAP1 POP JUMP JUMPDEST PUSH0 PUSH2 0x1467 DUP3 PUSH2 0x143B JUMP JUMPDEST SWAP2 POP DUP2 SWAP1 POP SWAP2 SWAP1 POP JUMP JUMPDEST PUSH32 0x456E6420746F207472616E7366657220746F206D73672E73656E646572000000 PUSH0 DUP3 ADD MSTORE POP JUMP JUMPDEST PUSH0 PUSH2 0x14A5 PUSH1 0x1D DUP4 PUSH2 0x12D4 JUMP JUMPDEST SWAP2 POP PUSH2 0x14B0 DUP3 PUSH2 0x1471 JUMP JUMPDEST PUSH1 0x1D DUP3 ADD SWAP1 POP SWAP2 SWAP1 POP JUMP JUMPDEST PUSH0 PUSH2 0x14C5 DUP3 PUSH2 0x1499 JUMP JUMPDEST SWAP2 POP DUP2 SWAP1 POP SWAP2 SWAP1 POP JUMP JUMPDEST PUSH32 0x496E76616C6964206F776E657200000000000000000000000000000000000000 PUSH0 DUP3 ADD MSTORE POP JUMP JUMPDEST PUSH0 PUSH2 0x1503 PUSH1 0xD DUP4 PUSH2 0x1199 JUMP JUMPDEST SWAP2 POP PUSH2 0x150E DUP3 PUSH2 0x14CF JUMP JUMPDEST PUSH1 0x20 DUP3 ADD SWAP1 POP SWAP2 SWAP1 POP JUMP JUMPDEST PUSH0 PUSH1 0x20 DUP3 ADD SWAP1 POP DUP2 DUP2 SUB PUSH0 DUP4 ADD MSTORE PUSH2 0x1530 DUP2 PUSH2 0x14F7 JUMP JUMPDEST SWAP1 POP SWAP2 SWAP1 POP JUMP JUMPDEST PUSH32 0x54686520746F6B654964206973206E6F74206C69737465640000000000000000 PUSH0 DUP3 ADD MSTORE POP JUMP JUMPDEST PUSH0 PUSH2 0x156B PUSH1 0x18 DUP4 PUSH2 0x1199 JUMP JUMPDEST SWAP2 POP PUSH2 0x1576 DUP3 PUSH2 0x1537 JUMP JUMPDEST PUSH1 0x20 DUP3 ADD SWAP1 POP SWAP2 SWAP1 POP JUMP JUMPDEST PUSH0 PUSH1 0x20 DUP3 ADD SWAP1 POP DUP2 DUP2 SUB PUSH0 DUP4 ADD MSTORE PUSH2 0x1598 DUP2 PUSH2 0x155F JUMP JUMPDEST SWAP1 POP SWAP2 SWAP1 POP JUMP JUMPDEST PUSH32 0x546865207072696365206F6620746F6B656E4964206973206D75737420626520 PUSH0 DUP3 ADD MSTORE PUSH32 0x73657420746F206E6F6E207A65726F0000000000000000000000000000000000 PUSH1 0x20 DUP3 ADD MSTORE POP JUMP JUMPDEST PUSH0 PUSH2 0x15F9 PUSH1 0x2F DUP4 PUSH2 0x1199 JUMP JUMPDEST SWAP2 POP PUSH2 0x1604 DUP3 PUSH2 0x159F JUMP JUMPDEST PUSH1 0x40 DUP3 ADD SWAP1 POP SWAP2 SWAP1 POP JUMP JUMPDEST PUSH0 PUSH1 0x20 DUP3 ADD SWAP1 POP DUP2 DUP2 SUB PUSH0 DUP4 ADD MSTORE PUSH2 0x1626 DUP2 PUSH2 0x15ED JUMP JUMPDEST SWAP1 POP SWAP2 SWAP1 POP JUMP JUMPDEST PUSH32 0x4E65656420617070726F76656400000000000000000000000000000000000000 PUSH0 DUP3 ADD MSTORE POP JUMP JUMPDEST PUSH0 PUSH2 0x1661 PUSH1 0xD DUP4 PUSH2 0x1199 JUMP JUMPDEST SWAP2 POP PUSH2 0x166C DUP3 PUSH2 0x162D JUMP JUMPDEST PUSH1 0x20 DUP3 ADD SWAP1 POP SWAP2 SWAP1 POP JUMP JUMPDEST PUSH0 PUSH1 0x20 DUP3 ADD SWAP1 POP DUP2 DUP2 SUB PUSH0 DUP4 ADD MSTORE PUSH2 0x168E DUP2 PUSH2 0x1655 JUMP JUMPDEST SWAP1 POP SWAP2 SWAP1 POP JUMP JUMPDEST PUSH32 0x546865207072696365206F6620746F6B656E4964206D75737420626520736574 PUSH0 DUP3 ADD MSTORE PUSH32 0x20746F206E6F6E207A65726F0000000000000000000000000000000000000000 PUSH1 0x20 DUP3 ADD MSTORE POP JUMP JUMPDEST PUSH0 PUSH2 0x16EF PUSH1 0x2C DUP4 PUSH2 0x1199 JUMP JUMPDEST SWAP2 POP PUSH2 0x16FA DUP3 PUSH2 0x1695 JUMP JUMPDEST PUSH1 0x40 DUP3 ADD SWAP1 POP SWAP2 SWAP1 POP JUMP JUMPDEST PUSH0 PUSH1 0x20 DUP3 ADD SWAP1 POP DUP2 DUP2 SUB PUSH0 DUP4 ADD MSTORE PUSH2 0x171C DUP2 PUSH2 0x16E3 JUMP JUMPDEST SWAP1 POP SWAP2 SWAP1 POP JUMP JUMPDEST PUSH32 0x4E6F74206F776E65720000000000000000000000000000000000000000000000 PUSH0 DUP3 ADD MSTORE POP JUMP JUMPDEST PUSH0 PUSH2 0x1757 PUSH1 0x9 DUP4 PUSH2 0x1199 JUMP JUMPDEST SWAP2 POP PUSH2 0x1762 DUP3 PUSH2 0x1723 JUMP JUMPDEST PUSH1 0x20 DUP3 ADD SWAP1 POP SWAP2 SWAP1 POP JUMP JUMPDEST PUSH0 PUSH1 0x20 DUP3 ADD SWAP1 POP DUP2 DUP2 SUB PUSH0 DUP4 ADD MSTORE PUSH2 0x1784 DUP2 PUSH2 0x174B JUMP JUMPDEST SWAP1 POP SWAP2 SWAP1 POP JUMP JUMPDEST PUSH32 0x496E76616C6964206F7264657200000000000000000000000000000000000000 PUSH0 DUP3 ADD MSTORE POP JUMP JUMPDEST PUSH0 PUSH2 0x17BF PUSH1 0xD DUP4 PUSH2 0x1199 JUMP JUMPDEST SWAP2 POP PUSH2 0x17CA DUP3 PUSH2 0x178B JUMP JUMPDEST PUSH1 0x20 DUP3 ADD SWAP1 POP SWAP2 SWAP1 POP JUMP JUMPDEST PUSH0 PUSH1 0x20 DUP3 ADD SWAP1 POP DUP2 DUP2 SUB PUSH0 DUP4 ADD MSTORE PUSH2 0x17EC DUP2 PUSH2 0x17B3 JUMP JUMPDEST SWAP1 POP SWAP2 SWAP1 POP JUMP INVALID LOG2 PUSH5 0x6970667358 0x22 SLT KECCAK256 DUP2 0xC 0x2B 0xE3 DUP5 PUSH2 0x5D8F BLOBBASEFEE 0xE7 MUL 0xC8 EXTCODECOPY 0xD8 BYTE DUP13 0xCB 0xDC SWAP11 0x2D 0xED POP CREATE KECCAK256 EQ DUP3 SWAP3 PUSH10 0xDAF5B88A64736F6C6343 STOP ADDMOD BYTE STOP CALLER "
				},
				"gasEstimates": {
					"creation": {
						"codeDepositCost": "1237000",
						"executionCost": "1286",
						"totalCost": "1238286"
					},
					"external": {
						"": "194",
						"list(address,uint256,uint256)": "infinite",
						"nftList(address,uint256)": "infinite",
						"onERC721Received(address,address,uint256,bytes)": "infinite",
						"purchase(address,uint256)": "infinite",
						"revoke(address,uint256)": "infinite",
						"update(address,uint256,uint256)": "infinite"
					}
				},
				"methodIdentifiers": {
					"list(address,uint256,uint256)": "dda342bb",
					"nftList(address,uint256)": "ba5f4fb2",
					"onERC721Received(address,address,uint256,bytes)": "150b7a02",
					"purchase(address,uint256)": "8de93222",
					"revoke(address,uint256)": "eac449d9",
					"update(address,uint256,uint256)": "d09b6d43"
				}
			},
			"storageLayout": {
				"storage": [
					{
						"astId": 62,
						"contract": "contracts/NFTSwap.sol:NFTSwap",
						"label": "nftList",
						"offset": 0,
						"slot": "0",
						"type": "t_mapping(t_address,t_mapping(t_uint256,t_struct(Order)55_storage))"
					}
				],
				"types": {
					"t_address": {
						"encoding": "inplace",
						"label": "address",
						"numberOfBytes": "20"
					},
					"t_mapping(t_address,t_mapping(t_uint256,t_struct(Order)55_storage))": {
						"encoding": "mapping",
						"key": "t_address",
						"label": "mapping(address => mapping(uint256 => struct NFTSwap.Order))",
						"numberOfBytes": "32",
						"value": "t_mapping(t_uint256,t_struct(Order)55_storage)"
					},
					"t_mapping(t_uint256,t_struct(Order)55_storage)": {
						"encoding": "mapping",
						"key": "t_uint256",
						"label": "mapping(uint256 => struct NFTSwap.Order)",
						"numberOfBytes": "32",
						"value": "t_struct(Order)55_storage"
					},
					"t_struct(Order)55_storage": {
						"encoding": "inplace",
						"label": "struct NFTSwap.Order",
						"members": [
							{
								"astId": 52,
								"contract": "contracts/NFTSwap.sol:NFTSwap",
								"label": "owner",
								"offset": 0,
								"slot": "0",
								"type": "t_address"
							},
							{
								"astId": 54,
								"contract": "contracts/NFTSwap.sol:NFTSwap",
								"label": "price",
								"offset": 0,
								"slot": "1",
								"type": "t_uint256"
							}
						],
						"numberOfBytes": "64"
					},
					"t_uint256": {
						"encoding": "inplace",
						"label": "uint256",
						"numberOfBytes": "32"
					}
				}
			},
			"userdoc": {
				"kind": "user",
				"methods": {},
				"notice": "NFT交易所，因为要接收NFT，所以必须实现IERC721Receiver接口，流程： 卖家先在交易所上架NFT， 上架成功之后，卖家可以更改NFT的价格，也可以下架NFT 买家在卖家上架NFT之后，可以使用eth购买NFT ============== 1. 卖家在交易所上架NFT 需要提供NFT的地址，tokenId，上架的价格，价格必须上架为大于0才合理 但是有个前提，对应的tokenId应该授权给NFT交易所处理了， 之后卖家将NFT转移给NFT交易所，也就是进行transfer 2. 卖家在交易所下架NFT 需要提供NFT的地址，tokenId，通过这两个键获取Order结构体，同时获取tokenId的卖家地址， 之后通过NFT交易所将NFT交易回去卖家，并删除对应映射中的订单 3. 更新NFT的价格 根据提供的NFT地址以及tokenId，找到对应的Order结构体，然后更新一下对应price字段的值 4. 交易 传入NFT地址，以及tokenId， 然后比较买家(msg.sender)价格(msg.value)和NFT的价格，如果大于等于NFT的价格，交易成交， 通过safeTransferFrom函数将NFT转入买家地址， 通过NFT地址以及tokenId找出Order结构体，获取price，转入price给卖家， 同时，如果有多余的钱，那么会将多余的钱转会买家    ",
				"version": 1
			}
		}
	}
}