{
	"contracts/LibraryStudy.sol": {
		"LibraryStudy": {
			"abi": [
				{
					"inputs": [
						{
							"internalType": "uint256",
							"name": "_num",
							"type": "uint256"
						}
					],
					"name": "numToString",
					"outputs": [
						{
							"internalType": "string",
							"name": "",
							"type": "string"
						}
					],
					"stateMutability": "pure",
					"type": "function"
				}
			],
			"devdoc": {
				"kind": "dev",
				"methods": {},
				"version": 1
			},
			"evm": {
				"assembly": "    /* \"contracts/LibraryStudy.sol\":2203:2836  contract LibraryStudy {... */\n  mstore(0x40, 0x80)\n  callvalue\n  dup1\n  iszero\n  tag_1\n  jumpi\n  0x00\n  dup1\n  revert\ntag_1:\n  pop\n  dataSize(sub_0)\n  dup1\n  dataOffset(sub_0)\n  0x00\n  codecopy\n  0x00\n  return\nstop\n\nsub_0: assembly {\n        /* \"contracts/LibraryStudy.sol\":2203:2836  contract LibraryStudy {... */\n      mstore(0x40, 0x80)\n      callvalue\n      dup1\n      iszero\n      tag_1\n      jumpi\n      0x00\n      dup1\n      revert\n    tag_1:\n      pop\n      jumpi(tag_2, lt(calldatasize, 0x04))\n      shr(0xe0, calldataload(0x00))\n      dup1\n      0x05674427\n      eq\n      tag_3\n      jumpi\n    tag_2:\n      0x00\n      dup1\n      revert\n        /* \"contracts/LibraryStudy.sol\":2539:2833  function numToString(uint256 _num) public pure returns(string memory) {... */\n    tag_3:\n      tag_4\n      0x04\n      dup1\n      calldatasize\n      sub\n      dup2\n      add\n      swap1\n      tag_5\n      swap2\n      swap1\n      tag_6\n      jump\t// in\n    tag_5:\n      tag_7\n      jump\t// in\n    tag_4:\n      mload(0x40)\n      tag_8\n      swap2\n      swap1\n      tag_9\n      jump\t// in\n    tag_8:\n      mload(0x40)\n      dup1\n      swap2\n      sub\n      swap1\n      return\n    tag_7:\n        /* \"contracts/LibraryStudy.sol\":2594:2607  string memory */\n      0x60\n        /* \"contracts/LibraryStudy.sol\":2803:2825  Strings.toString(_num) */\n      tag_11\n        /* \"contracts/LibraryStudy.sol\":2820:2824  _num */\n      dup3\n        /* \"contracts/LibraryStudy.sol\":2803:2819  Strings.toString */\n      tag_12\n        /* \"contracts/LibraryStudy.sol\":2803:2825  Strings.toString(_num) */\n      jump\t// in\n    tag_11:\n        /* \"contracts/LibraryStudy.sol\":2796:2825  return Strings.toString(_num) */\n      swap1\n      pop\n        /* \"contracts/LibraryStudy.sol\":2539:2833  function numToString(uint256 _num) public pure returns(string memory) {... */\n      swap2\n      swap1\n      pop\n      jump\t// out\n        /* \"contracts/LibraryStudy.sol\":331:1165  function toString(uint256 value) internal pure returns(string memory) {... */\n    tag_12:\n        /* \"contracts/LibraryStudy.sol\":386:399  string memory */\n      0x60\n        /* \"contracts/LibraryStudy.sol\":466:467  0 */\n      0x00\n        /* \"contracts/LibraryStudy.sol\":457:462  value */\n      dup3\n        /* \"contracts/LibraryStudy.sol\":457:467  value == 0 */\n      sub\n        /* \"contracts/LibraryStudy.sol\":453:506  if (value == 0) {... */\n      tag_14\n      jumpi\n        /* \"contracts/LibraryStudy.sol\":484:494  return \"0\" */\n      mload(0x40)\n      dup1\n      0x40\n      add\n      0x40\n      mstore\n      dup1\n      0x01\n      dup2\n      mstore\n      0x20\n      add\n      0x3000000000000000000000000000000000000000000000000000000000000000\n      dup2\n      mstore\n      pop\n      swap1\n      pop\n      jump(tag_13)\n        /* \"contracts/LibraryStudy.sol\":453:506  if (value == 0) {... */\n    tag_14:\n        /* \"contracts/LibraryStudy.sol\":543:555  uint256 temp */\n      0x00\n        /* \"contracts/LibraryStudy.sol\":558:563  value */\n      dup3\n        /* \"contracts/LibraryStudy.sol\":543:563  uint256 temp = value */\n      swap1\n      pop\n        /* \"contracts/LibraryStudy.sol\":763:777  uint256 digits */\n      0x00\n        /* \"contracts/LibraryStudy.sol\":790:869  while (temp != 0) {... */\n    tag_15:\n        /* \"contracts/LibraryStudy.sol\":805:806  0 */\n      0x00\n        /* \"contracts/LibraryStudy.sol\":797:801  temp */\n      dup3\n        /* \"contracts/LibraryStudy.sol\":797:806  temp != 0 */\n      eq\n        /* \"contracts/LibraryStudy.sol\":790:869  while (temp != 0) {... */\n      tag_16\n      jumpi\n        /* \"contracts/LibraryStudy.sol\":823:832  digits ++ */\n      dup1\n      dup1\n      tag_17\n      swap1\n      tag_18\n      jump\t// in\n    tag_17:\n      swap2\n      pop\n      pop\n        /* \"contracts/LibraryStudy.sol\":855:857  10 */\n      0x0a\n        /* \"contracts/LibraryStudy.sol\":847:857  temp /= 10 */\n      dup3\n      tag_19\n      swap2\n      swap1\n      tag_20\n      jump\t// in\n    tag_19:\n      swap2\n      pop\n        /* \"contracts/LibraryStudy.sol\":790:869  while (temp != 0) {... */\n      jump(tag_15)\n    tag_16:\n        /* \"contracts/LibraryStudy.sol\":918:937  bytes memory buffer */\n      0x00\n        /* \"contracts/LibraryStudy.sol\":950:956  digits */\n      dup2\n        /* \"contracts/LibraryStudy.sol\":940:957  new bytes(digits) */\n      0xffffffffffffffff\n      dup2\n      gt\n      iszero\n      tag_21\n      jumpi\n      tag_22\n      tag_23\n      jump\t// in\n    tag_22:\n    tag_21:\n      mload(0x40)\n      swap1\n      dup1\n      dup3\n      mstore\n      dup1\n      0x1f\n      add\n      not(0x1f)\n      and\n      0x20\n      add\n      dup3\n      add\n      0x40\n      mstore\n      dup1\n      iszero\n      tag_24\n      jumpi\n      dup2\n      0x20\n      add\n      0x01\n      dup3\n      mul\n      dup1\n      calldatasize\n      dup4\n      calldatacopy\n      dup1\n      dup3\n      add\n      swap2\n      pop\n      pop\n      swap1\n      pop\n    tag_24:\n      pop\n        /* \"contracts/LibraryStudy.sol\":918:957  bytes memory buffer = new bytes(digits) */\n      swap1\n      pop\n        /* \"contracts/LibraryStudy.sol\":970:1124  while (value != 0) {... */\n    tag_25:\n        /* \"contracts/LibraryStudy.sol\":986:987  0 */\n      0x00\n        /* \"contracts/LibraryStudy.sol\":977:982  value */\n      dup6\n        /* \"contracts/LibraryStudy.sol\":977:987  value != 0 */\n      eq\n        /* \"contracts/LibraryStudy.sol\":970:1124  while (value != 0) {... */\n      tag_26\n      jumpi\n        /* \"contracts/LibraryStudy.sol\":1014:1015  1 */\n      0x01\n        /* \"contracts/LibraryStudy.sol\":1004:1015  digits -= 1 */\n      dup3\n      tag_27\n      swap2\n      swap1\n      tag_28\n      jump\t// in\n    tag_27:\n      swap2\n      pop\n        /* \"contracts/LibraryStudy.sol\":1081:1083  10 */\n      0x0a\n        /* \"contracts/LibraryStudy.sol\":1073:1078  value */\n      dup6\n        /* \"contracts/LibraryStudy.sol\":1073:1083  value % 10 */\n      tag_29\n      swap2\n      swap1\n      tag_30\n      jump\t// in\n    tag_29:\n        /* \"contracts/LibraryStudy.sol\":1060:1062  48 */\n      0x30\n        /* \"contracts/LibraryStudy.sol\":1060:1084  48 + uint256(value % 10) */\n      tag_31\n      swap2\n      swap1\n      tag_32\n      jump\t// in\n    tag_31:\n        /* \"contracts/LibraryStudy.sol\":1047:1086  bytes1(uint8(48 + uint256(value % 10))) */\n      0xf8\n      shl\n        /* \"contracts/LibraryStudy.sol\":1030:1036  buffer */\n      dup2\n        /* \"contracts/LibraryStudy.sol\":1037:1043  digits */\n      dup4\n        /* \"contracts/LibraryStudy.sol\":1030:1044  buffer[digits] */\n      dup2\n      mload\n      dup2\n      lt\n      tag_33\n      jumpi\n      tag_34\n      tag_35\n      jump\t// in\n    tag_34:\n    tag_33:\n      0x20\n      add\n      add\n        /* \"contracts/LibraryStudy.sol\":1030:1086  buffer[digits] = bytes1(uint8(48 + uint256(value % 10))) */\n      swap1\n      not(0xffffffffffffffffffffffffffffffffffffffffffffffffffffffffffffff)\n      and\n      swap1\n      dup2\n      0x00\n      byte\n      swap1\n      mstore8\n      pop\n        /* \"contracts/LibraryStudy.sol\":1110:1112  10 */\n      0x0a\n        /* \"contracts/LibraryStudy.sol\":1101:1112  value /= 10 */\n      dup6\n      tag_36\n      swap2\n      swap1\n      tag_20\n      jump\t// in\n    tag_36:\n      swap5\n      pop\n        /* \"contracts/LibraryStudy.sol\":970:1124  while (value != 0) {... */\n      jump(tag_25)\n    tag_26:\n        /* \"contracts/LibraryStudy.sol\":1150:1156  buffer */\n      dup1\n        /* \"contracts/LibraryStudy.sol\":1136:1157  return string(buffer) */\n      swap4\n      pop\n      pop\n      pop\n      pop\n        /* \"contracts/LibraryStudy.sol\":331:1165  function toString(uint256 value) internal pure returns(string memory) {... */\n    tag_13:\n      swap2\n      swap1\n      pop\n      jump\t// out\n        /* \"#utility.yul\":88:205   */\n    tag_38:\n        /* \"#utility.yul\":197:198   */\n      0x00\n        /* \"#utility.yul\":194:195   */\n      dup1\n        /* \"#utility.yul\":187:199   */\n      revert\n        /* \"#utility.yul\":334:411   */\n    tag_40:\n        /* \"#utility.yul\":371:378   */\n      0x00\n        /* \"#utility.yul\":400:405   */\n      dup2\n        /* \"#utility.yul\":389:405   */\n      swap1\n      pop\n        /* \"#utility.yul\":334:411   */\n      swap2\n      swap1\n      pop\n      jump\t// out\n        /* \"#utility.yul\":417:539   */\n    tag_41:\n        /* \"#utility.yul\":490:514   */\n      tag_56\n        /* \"#utility.yul\":508:513   */\n      dup2\n        /* \"#utility.yul\":490:514   */\n      tag_40\n      jump\t// in\n    tag_56:\n        /* \"#utility.yul\":483:488   */\n      dup2\n        /* \"#utility.yul\":480:515   */\n      eq\n        /* \"#utility.yul\":470:533   */\n      tag_57\n      jumpi\n        /* \"#utility.yul\":529:530   */\n      0x00\n        /* \"#utility.yul\":526:527   */\n      dup1\n        /* \"#utility.yul\":519:531   */\n      revert\n        /* \"#utility.yul\":470:533   */\n    tag_57:\n        /* \"#utility.yul\":417:539   */\n      pop\n      jump\t// out\n        /* \"#utility.yul\":545:684   */\n    tag_42:\n        /* \"#utility.yul\":591:596   */\n      0x00\n        /* \"#utility.yul\":629:635   */\n      dup2\n        /* \"#utility.yul\":616:636   */\n      calldataload\n        /* \"#utility.yul\":607:636   */\n      swap1\n      pop\n        /* \"#utility.yul\":645:678   */\n      tag_59\n        /* \"#utility.yul\":672:677   */\n      dup2\n        /* \"#utility.yul\":645:678   */\n      tag_41\n      jump\t// in\n    tag_59:\n        /* \"#utility.yul\":545:684   */\n      swap3\n      swap2\n      pop\n      pop\n      jump\t// out\n        /* \"#utility.yul\":690:1019   */\n    tag_6:\n        /* \"#utility.yul\":749:755   */\n      0x00\n        /* \"#utility.yul\":798:800   */\n      0x20\n        /* \"#utility.yul\":786:795   */\n      dup3\n        /* \"#utility.yul\":777:784   */\n      dup5\n        /* \"#utility.yul\":773:796   */\n      sub\n        /* \"#utility.yul\":769:801   */\n      slt\n        /* \"#utility.yul\":766:885   */\n      iszero\n      tag_61\n      jumpi\n        /* \"#utility.yul\":804:883   */\n      tag_62\n      tag_38\n      jump\t// in\n    tag_62:\n        /* \"#utility.yul\":766:885   */\n    tag_61:\n        /* \"#utility.yul\":924:925   */\n      0x00\n        /* \"#utility.yul\":949:1002   */\n      tag_63\n        /* \"#utility.yul\":994:1001   */\n      dup5\n        /* \"#utility.yul\":985:991   */\n      dup3\n        /* \"#utility.yul\":974:983   */\n      dup6\n        /* \"#utility.yul\":970:992   */\n      add\n        /* \"#utility.yul\":949:1002   */\n      tag_42\n      jump\t// in\n    tag_63:\n        /* \"#utility.yul\":939:1002   */\n      swap2\n      pop\n        /* \"#utility.yul\":895:1012   */\n      pop\n        /* \"#utility.yul\":690:1019   */\n      swap3\n      swap2\n      pop\n      pop\n      jump\t// out\n        /* \"#utility.yul\":1025:1124   */\n    tag_43:\n        /* \"#utility.yul\":1077:1083   */\n      0x00\n        /* \"#utility.yul\":1111:1116   */\n      dup2\n        /* \"#utility.yul\":1105:1117   */\n      mload\n        /* \"#utility.yul\":1095:1117   */\n      swap1\n      pop\n        /* \"#utility.yul\":1025:1124   */\n      swap2\n      swap1\n      pop\n      jump\t// out\n        /* \"#utility.yul\":1130:1299   */\n    tag_44:\n        /* \"#utility.yul\":1214:1225   */\n      0x00\n        /* \"#utility.yul\":1248:1254   */\n      dup3\n        /* \"#utility.yul\":1243:1246   */\n      dup3\n        /* \"#utility.yul\":1236:1255   */\n      mstore\n        /* \"#utility.yul\":1288:1292   */\n      0x20\n        /* \"#utility.yul\":1283:1286   */\n      dup3\n        /* \"#utility.yul\":1279:1293   */\n      add\n        /* \"#utility.yul\":1264:1293   */\n      swap1\n      pop\n        /* \"#utility.yul\":1130:1299   */\n      swap3\n      swap2\n      pop\n      pop\n      jump\t// out\n        /* \"#utility.yul\":1305:1444   */\n    tag_45:\n        /* \"#utility.yul\":1394:1400   */\n      dup3\n        /* \"#utility.yul\":1389:1392   */\n      dup2\n        /* \"#utility.yul\":1384:1387   */\n      dup4\n        /* \"#utility.yul\":1378:1401   */\n      mcopy\n        /* \"#utility.yul\":1435:1436   */\n      0x00\n        /* \"#utility.yul\":1426:1432   */\n      dup4\n        /* \"#utility.yul\":1421:1424   */\n      dup4\n        /* \"#utility.yul\":1417:1433   */\n      add\n        /* \"#utility.yul\":1410:1437   */\n      mstore\n        /* \"#utility.yul\":1305:1444   */\n      pop\n      pop\n      pop\n      jump\t// out\n        /* \"#utility.yul\":1450:1552   */\n    tag_46:\n        /* \"#utility.yul\":1491:1497   */\n      0x00\n        /* \"#utility.yul\":1542:1544   */\n      0x1f\n        /* \"#utility.yul\":1538:1545   */\n      not\n        /* \"#utility.yul\":1533:1535   */\n      0x1f\n        /* \"#utility.yul\":1526:1531   */\n      dup4\n        /* \"#utility.yul\":1522:1536   */\n      add\n        /* \"#utility.yul\":1518:1546   */\n      and\n        /* \"#utility.yul\":1508:1546   */\n      swap1\n      pop\n        /* \"#utility.yul\":1450:1552   */\n      swap2\n      swap1\n      pop\n      jump\t// out\n        /* \"#utility.yul\":1558:1935   */\n    tag_47:\n        /* \"#utility.yul\":1646:1649   */\n      0x00\n        /* \"#utility.yul\":1674:1713   */\n      tag_69\n        /* \"#utility.yul\":1707:1712   */\n      dup3\n        /* \"#utility.yul\":1674:1713   */\n      tag_43\n      jump\t// in\n    tag_69:\n        /* \"#utility.yul\":1729:1800   */\n      tag_70\n        /* \"#utility.yul\":1793:1799   */\n      dup2\n        /* \"#utility.yul\":1788:1791   */\n      dup6\n        /* \"#utility.yul\":1729:1800   */\n      tag_44\n      jump\t// in\n    tag_70:\n        /* \"#utility.yul\":1722:1800   */\n      swap4\n      pop\n        /* \"#utility.yul\":1809:1874   */\n      tag_71\n        /* \"#utility.yul\":1867:1873   */\n      dup2\n        /* \"#utility.yul\":1862:1865   */\n      dup6\n        /* \"#utility.yul\":1855:1859   */\n      0x20\n        /* \"#utility.yul\":1848:1853   */\n      dup7\n        /* \"#utility.yul\":1844:1860   */\n      add\n        /* \"#utility.yul\":1809:1874   */\n      tag_45\n      jump\t// in\n    tag_71:\n        /* \"#utility.yul\":1899:1928   */\n      tag_72\n        /* \"#utility.yul\":1921:1927   */\n      dup2\n        /* \"#utility.yul\":1899:1928   */\n      tag_46\n      jump\t// in\n    tag_72:\n        /* \"#utility.yul\":1894:1897   */\n      dup5\n        /* \"#utility.yul\":1890:1929   */\n      add\n        /* \"#utility.yul\":1883:1929   */\n      swap2\n      pop\n        /* \"#utility.yul\":1650:1935   */\n      pop\n        /* \"#utility.yul\":1558:1935   */\n      swap3\n      swap2\n      pop\n      pop\n      jump\t// out\n        /* \"#utility.yul\":1941:2254   */\n    tag_9:\n        /* \"#utility.yul\":2054:2058   */\n      0x00\n        /* \"#utility.yul\":2092:2094   */\n      0x20\n        /* \"#utility.yul\":2081:2090   */\n      dup3\n        /* \"#utility.yul\":2077:2095   */\n      add\n        /* \"#utility.yul\":2069:2095   */\n      swap1\n      pop\n        /* \"#utility.yul\":2141:2150   */\n      dup2\n        /* \"#utility.yul\":2135:2139   */\n      dup2\n        /* \"#utility.yul\":2131:2151   */\n      sub\n        /* \"#utility.yul\":2127:2128   */\n      0x00\n        /* \"#utility.yul\":2116:2125   */\n      dup4\n        /* \"#utility.yul\":2112:2129   */\n      add\n        /* \"#utility.yul\":2105:2152   */\n      mstore\n        /* \"#utility.yul\":2169:2247   */\n      tag_74\n        /* \"#utility.yul\":2242:2246   */\n      dup2\n        /* \"#utility.yul\":2233:2239   */\n      dup5\n        /* \"#utility.yul\":2169:2247   */\n      tag_47\n      jump\t// in\n    tag_74:\n        /* \"#utility.yul\":2161:2247   */\n      swap1\n      pop\n        /* \"#utility.yul\":1941:2254   */\n      swap3\n      swap2\n      pop\n      pop\n      jump\t// out\n        /* \"#utility.yul\":2260:2440   */\n    tag_48:\n        /* \"#utility.yul\":2308:2385   */\n      0x4e487b7100000000000000000000000000000000000000000000000000000000\n        /* \"#utility.yul\":2305:2306   */\n      0x00\n        /* \"#utility.yul\":2298:2386   */\n      mstore\n        /* \"#utility.yul\":2405:2409   */\n      0x11\n        /* \"#utility.yul\":2402:2403   */\n      0x04\n        /* \"#utility.yul\":2395:2410   */\n      mstore\n        /* \"#utility.yul\":2429:2433   */\n      0x24\n        /* \"#utility.yul\":2426:2427   */\n      0x00\n        /* \"#utility.yul\":2419:2434   */\n      revert\n        /* \"#utility.yul\":2446:2679   */\n    tag_18:\n        /* \"#utility.yul\":2485:2488   */\n      0x00\n        /* \"#utility.yul\":2508:2532   */\n      tag_77\n        /* \"#utility.yul\":2526:2531   */\n      dup3\n        /* \"#utility.yul\":2508:2532   */\n      tag_40\n      jump\t// in\n    tag_77:\n        /* \"#utility.yul\":2499:2532   */\n      swap2\n      pop\n        /* \"#utility.yul\":2554:2620   */\n      0xffffffffffffffffffffffffffffffffffffffffffffffffffffffffffffffff\n        /* \"#utility.yul\":2547:2552   */\n      dup3\n        /* \"#utility.yul\":2544:2621   */\n      sub\n        /* \"#utility.yul\":2541:2644   */\n      tag_78\n      jumpi\n        /* \"#utility.yul\":2624:2642   */\n      tag_79\n      tag_48\n      jump\t// in\n    tag_79:\n        /* \"#utility.yul\":2541:2644   */\n    tag_78:\n        /* \"#utility.yul\":2671:2672   */\n      0x01\n        /* \"#utility.yul\":2664:2669   */\n      dup3\n        /* \"#utility.yul\":2660:2673   */\n      add\n        /* \"#utility.yul\":2653:2673   */\n      swap1\n      pop\n        /* \"#utility.yul\":2446:2679   */\n      swap2\n      swap1\n      pop\n      jump\t// out\n        /* \"#utility.yul\":2685:2865   */\n    tag_49:\n        /* \"#utility.yul\":2733:2810   */\n      0x4e487b7100000000000000000000000000000000000000000000000000000000\n        /* \"#utility.yul\":2730:2731   */\n      0x00\n        /* \"#utility.yul\":2723:2811   */\n      mstore\n        /* \"#utility.yul\":2830:2834   */\n      0x12\n        /* \"#utility.yul\":2827:2828   */\n      0x04\n        /* \"#utility.yul\":2820:2835   */\n      mstore\n        /* \"#utility.yul\":2854:2858   */\n      0x24\n        /* \"#utility.yul\":2851:2852   */\n      0x00\n        /* \"#utility.yul\":2844:2859   */\n      revert\n        /* \"#utility.yul\":2871:3056   */\n    tag_20:\n        /* \"#utility.yul\":2911:2912   */\n      0x00\n        /* \"#utility.yul\":2928:2948   */\n      tag_82\n        /* \"#utility.yul\":2946:2947   */\n      dup3\n        /* \"#utility.yul\":2928:2948   */\n      tag_40\n      jump\t// in\n    tag_82:\n        /* \"#utility.yul\":2923:2948   */\n      swap2\n      pop\n        /* \"#utility.yul\":2962:2982   */\n      tag_83\n        /* \"#utility.yul\":2980:2981   */\n      dup4\n        /* \"#utility.yul\":2962:2982   */\n      tag_40\n      jump\t// in\n    tag_83:\n        /* \"#utility.yul\":2957:2982   */\n      swap3\n      pop\n        /* \"#utility.yul\":3001:3002   */\n      dup3\n        /* \"#utility.yul\":2991:3026   */\n      tag_84\n      jumpi\n        /* \"#utility.yul\":3006:3024   */\n      tag_85\n      tag_49\n      jump\t// in\n    tag_85:\n        /* \"#utility.yul\":2991:3026   */\n    tag_84:\n        /* \"#utility.yul\":3048:3049   */\n      dup3\n        /* \"#utility.yul\":3045:3046   */\n      dup3\n        /* \"#utility.yul\":3041:3050   */\n      div\n        /* \"#utility.yul\":3036:3050   */\n      swap1\n      pop\n        /* \"#utility.yul\":2871:3056   */\n      swap3\n      swap2\n      pop\n      pop\n      jump\t// out\n        /* \"#utility.yul\":3062:3242   */\n    tag_23:\n        /* \"#utility.yul\":3110:3187   */\n      0x4e487b7100000000000000000000000000000000000000000000000000000000\n        /* \"#utility.yul\":3107:3108   */\n      0x00\n        /* \"#utility.yul\":3100:3188   */\n      mstore\n        /* \"#utility.yul\":3207:3211   */\n      0x41\n        /* \"#utility.yul\":3204:3205   */\n      0x04\n        /* \"#utility.yul\":3197:3212   */\n      mstore\n        /* \"#utility.yul\":3231:3235   */\n      0x24\n        /* \"#utility.yul\":3228:3229   */\n      0x00\n        /* \"#utility.yul\":3221:3236   */\n      revert\n        /* \"#utility.yul\":3248:3442   */\n    tag_28:\n        /* \"#utility.yul\":3288:3292   */\n      0x00\n        /* \"#utility.yul\":3308:3328   */\n      tag_88\n        /* \"#utility.yul\":3326:3327   */\n      dup3\n        /* \"#utility.yul\":3308:3328   */\n      tag_40\n      jump\t// in\n    tag_88:\n        /* \"#utility.yul\":3303:3328   */\n      swap2\n      pop\n        /* \"#utility.yul\":3342:3362   */\n      tag_89\n        /* \"#utility.yul\":3360:3361   */\n      dup4\n        /* \"#utility.yul\":3342:3362   */\n      tag_40\n      jump\t// in\n    tag_89:\n        /* \"#utility.yul\":3337:3362   */\n      swap3\n      pop\n        /* \"#utility.yul\":3386:3387   */\n      dup3\n        /* \"#utility.yul\":3383:3384   */\n      dup3\n        /* \"#utility.yul\":3379:3388   */\n      sub\n        /* \"#utility.yul\":3371:3388   */\n      swap1\n      pop\n        /* \"#utility.yul\":3410:3411   */\n      dup2\n        /* \"#utility.yul\":3404:3408   */\n      dup2\n        /* \"#utility.yul\":3401:3412   */\n      gt\n        /* \"#utility.yul\":3398:3435   */\n      iszero\n      tag_90\n      jumpi\n        /* \"#utility.yul\":3415:3433   */\n      tag_91\n      tag_48\n      jump\t// in\n    tag_91:\n        /* \"#utility.yul\":3398:3435   */\n    tag_90:\n        /* \"#utility.yul\":3248:3442   */\n      swap3\n      swap2\n      pop\n      pop\n      jump\t// out\n        /* \"#utility.yul\":3448:3624   */\n    tag_30:\n        /* \"#utility.yul\":3480:3481   */\n      0x00\n        /* \"#utility.yul\":3497:3517   */\n      tag_93\n        /* \"#utility.yul\":3515:3516   */\n      dup3\n        /* \"#utility.yul\":3497:3517   */\n      tag_40\n      jump\t// in\n    tag_93:\n        /* \"#utility.yul\":3492:3517   */\n      swap2\n      pop\n        /* \"#utility.yul\":3531:3551   */\n      tag_94\n        /* \"#utility.yul\":3549:3550   */\n      dup4\n        /* \"#utility.yul\":3531:3551   */\n      tag_40\n      jump\t// in\n    tag_94:\n        /* \"#utility.yul\":3526:3551   */\n      swap3\n      pop\n        /* \"#utility.yul\":3570:3571   */\n      dup3\n        /* \"#utility.yul\":3560:3595   */\n      tag_95\n      jumpi\n        /* \"#utility.yul\":3575:3593   */\n      tag_96\n      tag_49\n      jump\t// in\n    tag_96:\n        /* \"#utility.yul\":3560:3595   */\n    tag_95:\n        /* \"#utility.yul\":3616:3617   */\n      dup3\n        /* \"#utility.yul\":3613:3614   */\n      dup3\n        /* \"#utility.yul\":3609:3618   */\n      mod\n        /* \"#utility.yul\":3604:3618   */\n      swap1\n      pop\n        /* \"#utility.yul\":3448:3624   */\n      swap3\n      swap2\n      pop\n      pop\n      jump\t// out\n        /* \"#utility.yul\":3630:3821   */\n    tag_32:\n        /* \"#utility.yul\":3670:3673   */\n      0x00\n        /* \"#utility.yul\":3689:3709   */\n      tag_98\n        /* \"#utility.yul\":3707:3708   */\n      dup3\n        /* \"#utility.yul\":3689:3709   */\n      tag_40\n      jump\t// in\n    tag_98:\n        /* \"#utility.yul\":3684:3709   */\n      swap2\n      pop\n        /* \"#utility.yul\":3723:3743   */\n      tag_99\n        /* \"#utility.yul\":3741:3742   */\n      dup4\n        /* \"#utility.yul\":3723:3743   */\n      tag_40\n      jump\t// in\n    tag_99:\n        /* \"#utility.yul\":3718:3743   */\n      swap3\n      pop\n        /* \"#utility.yul\":3766:3767   */\n      dup3\n        /* \"#utility.yul\":3763:3764   */\n      dup3\n        /* \"#utility.yul\":3759:3768   */\n      add\n        /* \"#utility.yul\":3752:3768   */\n      swap1\n      pop\n        /* \"#utility.yul\":3787:3790   */\n      dup1\n        /* \"#utility.yul\":3784:3785   */\n      dup3\n        /* \"#utility.yul\":3781:3791   */\n      gt\n        /* \"#utility.yul\":3778:3814   */\n      iszero\n      tag_100\n      jumpi\n        /* \"#utility.yul\":3794:3812   */\n      tag_101\n      tag_48\n      jump\t// in\n    tag_101:\n        /* \"#utility.yul\":3778:3814   */\n    tag_100:\n        /* \"#utility.yul\":3630:3821   */\n      swap3\n      swap2\n      pop\n      pop\n      jump\t// out\n        /* \"#utility.yul\":3827:4007   */\n    tag_35:\n        /* \"#utility.yul\":3875:3952   */\n      0x4e487b7100000000000000000000000000000000000000000000000000000000\n        /* \"#utility.yul\":3872:3873   */\n      0x00\n        /* \"#utility.yul\":3865:3953   */\n      mstore\n        /* \"#utility.yul\":3972:3976   */\n      0x32\n        /* \"#utility.yul\":3969:3970   */\n      0x04\n        /* \"#utility.yul\":3962:3977   */\n      mstore\n        /* \"#utility.yul\":3996:4000   */\n      0x24\n        /* \"#utility.yul\":3993:3994   */\n      0x00\n        /* \"#utility.yul\":3986:4001   */\n      revert\n\n    auxdata: 0xa2646970667358221220e041afc6886cb096d6ab03018585829c05e70eba85102bbeba9e57a15ead162d64736f6c634300081a0033\n}\n",
				"bytecode": {
					"linkReferences": {},
					"object": "6080604052348015600e575f80fd5b506104b18061001c5f395ff3fe608060405234801561000f575f80fd5b5060043610610029575f3560e01c8063056744271461002d575b5f80fd5b610047600480360381019061004291906101ff565b61005d565b604051610054919061029a565b60405180910390f35b60606100688261006f565b9050919050565b60605f82036100b5576040518060400160405280600181526020017f300000000000000000000000000000000000000000000000000000000000000081525090506101c3565b5f8290505f5b5f82146100e45780806100cd906102e7565b915050600a826100dd919061035b565b91506100bb565b5f8167ffffffffffffffff8111156100ff576100fe61038b565b5b6040519080825280601f01601f1916602001820160405280156101315781602001600182028036833780820191505090505b5090505b5f85146101bc5760018261014991906103b8565b9150600a8561015891906103eb565b6030610164919061041b565b60f81b81838151811061017a5761017961044e565b5b60200101907effffffffffffffffffffffffffffffffffffffffffffffffffffffffffffff191690815f1a905350600a856101b5919061035b565b9450610135565b8093505050505b919050565b5f80fd5b5f819050919050565b6101de816101cc565b81146101e8575f80fd5b50565b5f813590506101f9816101d5565b92915050565b5f60208284031215610214576102136101c8565b5b5f610221848285016101eb565b91505092915050565b5f81519050919050565b5f82825260208201905092915050565b8281835e5f83830152505050565b5f601f19601f8301169050919050565b5f61026c8261022a565b6102768185610234565b9350610286818560208601610244565b61028f81610252565b840191505092915050565b5f6020820190508181035f8301526102b28184610262565b905092915050565b7f4e487b71000000000000000000000000000000000000000000000000000000005f52601160045260245ffd5b5f6102f1826101cc565b91507fffffffffffffffffffffffffffffffffffffffffffffffffffffffffffffffff8203610323576103226102ba565b5b600182019050919050565b7f4e487b71000000000000000000000000000000000000000000000000000000005f52601260045260245ffd5b5f610365826101cc565b9150610370836101cc565b9250826103805761037f61032e565b5b828204905092915050565b7f4e487b71000000000000000000000000000000000000000000000000000000005f52604160045260245ffd5b5f6103c2826101cc565b91506103cd836101cc565b92508282039050818111156103e5576103e46102ba565b5b92915050565b5f6103f5826101cc565b9150610400836101cc565b9250826104105761040f61032e565b5b828206905092915050565b5f610425826101cc565b9150610430836101cc565b9250828201905080821115610448576104476102ba565b5b92915050565b7f4e487b71000000000000000000000000000000000000000000000000000000005f52603260045260245ffdfea2646970667358221220e041afc6886cb096d6ab03018585829c05e70eba85102bbeba9e57a15ead162d64736f6c634300081a0033",
					"opcodes": "PUSH1 0x80 PUSH1 0x40 MSTORE CALLVALUE DUP1 ISZERO PUSH1 0xE JUMPI PUSH0 DUP1 REVERT JUMPDEST POP PUSH2 0x4B1 DUP1 PUSH2 0x1C PUSH0 CODECOPY PUSH0 RETURN INVALID PUSH1 0x80 PUSH1 0x40 MSTORE CALLVALUE DUP1 ISZERO PUSH2 0xF JUMPI PUSH0 DUP1 REVERT JUMPDEST POP PUSH1 0x4 CALLDATASIZE LT PUSH2 0x29 JUMPI PUSH0 CALLDATALOAD PUSH1 0xE0 SHR DUP1 PUSH4 0x5674427 EQ PUSH2 0x2D JUMPI JUMPDEST PUSH0 DUP1 REVERT JUMPDEST PUSH2 0x47 PUSH1 0x4 DUP1 CALLDATASIZE SUB DUP2 ADD SWAP1 PUSH2 0x42 SWAP2 SWAP1 PUSH2 0x1FF JUMP JUMPDEST PUSH2 0x5D JUMP JUMPDEST PUSH1 0x40 MLOAD PUSH2 0x54 SWAP2 SWAP1 PUSH2 0x29A JUMP JUMPDEST PUSH1 0x40 MLOAD DUP1 SWAP2 SUB SWAP1 RETURN JUMPDEST PUSH1 0x60 PUSH2 0x68 DUP3 PUSH2 0x6F JUMP JUMPDEST SWAP1 POP SWAP2 SWAP1 POP JUMP JUMPDEST PUSH1 0x60 PUSH0 DUP3 SUB PUSH2 0xB5 JUMPI PUSH1 0x40 MLOAD DUP1 PUSH1 0x40 ADD PUSH1 0x40 MSTORE DUP1 PUSH1 0x1 DUP2 MSTORE PUSH1 0x20 ADD PUSH32 0x3000000000000000000000000000000000000000000000000000000000000000 DUP2 MSTORE POP SWAP1 POP PUSH2 0x1C3 JUMP JUMPDEST PUSH0 DUP3 SWAP1 POP PUSH0 JUMPDEST PUSH0 DUP3 EQ PUSH2 0xE4 JUMPI DUP1 DUP1 PUSH2 0xCD SWAP1 PUSH2 0x2E7 JUMP JUMPDEST SWAP2 POP POP PUSH1 0xA DUP3 PUSH2 0xDD SWAP2 SWAP1 PUSH2 0x35B JUMP JUMPDEST SWAP2 POP PUSH2 0xBB JUMP JUMPDEST PUSH0 DUP2 PUSH8 0xFFFFFFFFFFFFFFFF DUP2 GT ISZERO PUSH2 0xFF JUMPI PUSH2 0xFE PUSH2 0x38B JUMP JUMPDEST JUMPDEST PUSH1 0x40 MLOAD SWAP1 DUP1 DUP3 MSTORE DUP1 PUSH1 0x1F ADD PUSH1 0x1F NOT AND PUSH1 0x20 ADD DUP3 ADD PUSH1 0x40 MSTORE DUP1 ISZERO PUSH2 0x131 JUMPI DUP2 PUSH1 0x20 ADD PUSH1 0x1 DUP3 MUL DUP1 CALLDATASIZE DUP4 CALLDATACOPY DUP1 DUP3 ADD SWAP2 POP POP SWAP1 POP JUMPDEST POP SWAP1 POP JUMPDEST PUSH0 DUP6 EQ PUSH2 0x1BC JUMPI PUSH1 0x1 DUP3 PUSH2 0x149 SWAP2 SWAP1 PUSH2 0x3B8 JUMP JUMPDEST SWAP2 POP PUSH1 0xA DUP6 PUSH2 0x158 SWAP2 SWAP1 PUSH2 0x3EB JUMP JUMPDEST PUSH1 0x30 PUSH2 0x164 SWAP2 SWAP1 PUSH2 0x41B JUMP JUMPDEST PUSH1 0xF8 SHL DUP2 DUP4 DUP2 MLOAD DUP2 LT PUSH2 0x17A JUMPI PUSH2 0x179 PUSH2 0x44E JUMP JUMPDEST JUMPDEST PUSH1 0x20 ADD ADD SWAP1 PUSH31 0xFFFFFFFFFFFFFFFFFFFFFFFFFFFFFFFFFFFFFFFFFFFFFFFFFFFFFFFFFFFFFF NOT AND SWAP1 DUP2 PUSH0 BYTE SWAP1 MSTORE8 POP PUSH1 0xA DUP6 PUSH2 0x1B5 SWAP2 SWAP1 PUSH2 0x35B JUMP JUMPDEST SWAP5 POP PUSH2 0x135 JUMP JUMPDEST DUP1 SWAP4 POP POP POP POP JUMPDEST SWAP2 SWAP1 POP JUMP JUMPDEST PUSH0 DUP1 REVERT JUMPDEST PUSH0 DUP2 SWAP1 POP SWAP2 SWAP1 POP JUMP JUMPDEST PUSH2 0x1DE DUP2 PUSH2 0x1CC JUMP JUMPDEST DUP2 EQ PUSH2 0x1E8 JUMPI PUSH0 DUP1 REVERT JUMPDEST POP JUMP JUMPDEST PUSH0 DUP2 CALLDATALOAD SWAP1 POP PUSH2 0x1F9 DUP2 PUSH2 0x1D5 JUMP JUMPDEST SWAP3 SWAP2 POP POP JUMP JUMPDEST PUSH0 PUSH1 0x20 DUP3 DUP5 SUB SLT ISZERO PUSH2 0x214 JUMPI PUSH2 0x213 PUSH2 0x1C8 JUMP JUMPDEST JUMPDEST PUSH0 PUSH2 0x221 DUP5 DUP3 DUP6 ADD PUSH2 0x1EB JUMP JUMPDEST SWAP2 POP POP SWAP3 SWAP2 POP POP JUMP JUMPDEST PUSH0 DUP2 MLOAD SWAP1 POP SWAP2 SWAP1 POP JUMP JUMPDEST PUSH0 DUP3 DUP3 MSTORE PUSH1 0x20 DUP3 ADD SWAP1 POP SWAP3 SWAP2 POP POP JUMP JUMPDEST DUP3 DUP2 DUP4 MCOPY PUSH0 DUP4 DUP4 ADD MSTORE POP POP POP JUMP JUMPDEST PUSH0 PUSH1 0x1F NOT PUSH1 0x1F DUP4 ADD AND SWAP1 POP SWAP2 SWAP1 POP JUMP JUMPDEST PUSH0 PUSH2 0x26C DUP3 PUSH2 0x22A JUMP JUMPDEST PUSH2 0x276 DUP2 DUP6 PUSH2 0x234 JUMP JUMPDEST SWAP4 POP PUSH2 0x286 DUP2 DUP6 PUSH1 0x20 DUP7 ADD PUSH2 0x244 JUMP JUMPDEST PUSH2 0x28F DUP2 PUSH2 0x252 JUMP JUMPDEST DUP5 ADD SWAP2 POP POP SWAP3 SWAP2 POP POP JUMP JUMPDEST PUSH0 PUSH1 0x20 DUP3 ADD SWAP1 POP DUP2 DUP2 SUB PUSH0 DUP4 ADD MSTORE PUSH2 0x2B2 DUP2 DUP5 PUSH2 0x262 JUMP JUMPDEST SWAP1 POP SWAP3 SWAP2 POP POP JUMP JUMPDEST PUSH32 0x4E487B7100000000000000000000000000000000000000000000000000000000 PUSH0 MSTORE PUSH1 0x11 PUSH1 0x4 MSTORE PUSH1 0x24 PUSH0 REVERT JUMPDEST PUSH0 PUSH2 0x2F1 DUP3 PUSH2 0x1CC JUMP JUMPDEST SWAP2 POP PUSH32 0xFFFFFFFFFFFFFFFFFFFFFFFFFFFFFFFFFFFFFFFFFFFFFFFFFFFFFFFFFFFFFFFF DUP3 SUB PUSH2 0x323 JUMPI PUSH2 0x322 PUSH2 0x2BA JUMP JUMPDEST JUMPDEST PUSH1 0x1 DUP3 ADD SWAP1 POP SWAP2 SWAP1 POP JUMP JUMPDEST PUSH32 0x4E487B7100000000000000000000000000000000000000000000000000000000 PUSH0 MSTORE PUSH1 0x12 PUSH1 0x4 MSTORE PUSH1 0x24 PUSH0 REVERT JUMPDEST PUSH0 PUSH2 0x365 DUP3 PUSH2 0x1CC JUMP JUMPDEST SWAP2 POP PUSH2 0x370 DUP4 PUSH2 0x1CC JUMP JUMPDEST SWAP3 POP DUP3 PUSH2 0x380 JUMPI PUSH2 0x37F PUSH2 0x32E JUMP JUMPDEST JUMPDEST DUP3 DUP3 DIV SWAP1 POP SWAP3 SWAP2 POP POP JUMP JUMPDEST PUSH32 0x4E487B7100000000000000000000000000000000000000000000000000000000 PUSH0 MSTORE PUSH1 0x41 PUSH1 0x4 MSTORE PUSH1 0x24 PUSH0 REVERT JUMPDEST PUSH0 PUSH2 0x3C2 DUP3 PUSH2 0x1CC JUMP JUMPDEST SWAP2 POP PUSH2 0x3CD DUP4 PUSH2 0x1CC JUMP JUMPDEST SWAP3 POP DUP3 DUP3 SUB SWAP1 POP DUP2 DUP2 GT ISZERO PUSH2 0x3E5 JUMPI PUSH2 0x3E4 PUSH2 0x2BA JUMP JUMPDEST JUMPDEST SWAP3 SWAP2 POP POP JUMP JUMPDEST PUSH0 PUSH2 0x3F5 DUP3 PUSH2 0x1CC JUMP JUMPDEST SWAP2 POP PUSH2 0x400 DUP4 PUSH2 0x1CC JUMP JUMPDEST SWAP3 POP DUP3 PUSH2 0x410 JUMPI PUSH2 0x40F PUSH2 0x32E JUMP JUMPDEST JUMPDEST DUP3 DUP3 MOD SWAP1 POP SWAP3 SWAP2 POP POP JUMP JUMPDEST PUSH0 PUSH2 0x425 DUP3 PUSH2 0x1CC JUMP JUMPDEST SWAP2 POP PUSH2 0x430 DUP4 PUSH2 0x1CC JUMP JUMPDEST SWAP3 POP DUP3 DUP3 ADD SWAP1 POP DUP1 DUP3 GT ISZERO PUSH2 0x448 JUMPI PUSH2 0x447 PUSH2 0x2BA JUMP JUMPDEST JUMPDEST SWAP3 SWAP2 POP POP JUMP JUMPDEST PUSH32 0x4E487B7100000000000000000000000000000000000000000000000000000000 PUSH0 MSTORE PUSH1 0x32 PUSH1 0x4 MSTORE PUSH1 0x24 PUSH0 REVERT INVALID LOG2 PUSH5 0x6970667358 0x22 SLT KECCAK256 0xE0 COINBASE 0xAF 0xC6 DUP9 PUSH13 0xB096D6AB03018585829C05E70E 0xBA DUP6 LT 0x2B 0xBE 0xBA SWAP15 JUMPI LOG1 MCOPY 0xAD AND 0x2D PUSH5 0x736F6C6343 STOP ADDMOD BYTE STOP CALLER "
				},
				"gasEstimates": {
					"creation": {
						"codeDepositCost": "240200",
						"executionCost": "279",
						"totalCost": "240479"
					},
					"external": {
						"numToString(uint256)": "infinite"
					}
				},
				"methodIdentifiers": {
					"numToString(uint256)": "05674427"
				}
			},
			"storageLayout": {
				"storage": [],
				"types": null
			},
			"userdoc": {
				"kind": "user",
				"methods": {},
				"version": 1
			}
		}
	}
}