{
	"contracts/DutchAuction.sol": {
		"DutchAuction": {
			"abi": [
				{
					"inputs": [],
					"stateMutability": "nonpayable",
					"type": "constructor"
				},
				{
					"inputs": [
						{
							"internalType": "address",
							"name": "receiver",
							"type": "address"
						}
					],
					"name": "ERC721InvalidReceiver",
					"type": "error"
				},
				{
					"inputs": [
						{
							"internalType": "address",
							"name": "owner",
							"type": "address"
						}
					],
					"name": "OwnableInvalidOwner",
					"type": "error"
				},
				{
					"inputs": [
						{
							"internalType": "address",
							"name": "account",
							"type": "address"
						}
					],
					"name": "OwnableUnauthorizedAccount",
					"type": "error"
				},
				{
					"anonymous": false,
					"inputs": [
						{
							"indexed": true,
							"internalType": "address",
							"name": "owner",
							"type": "address"
						},
						{
							"indexed": true,
							"internalType": "address",
							"name": "approved",
							"type": "address"
						},
						{
							"indexed": true,
							"internalType": "uint256",
							"name": "tokenId",
							"type": "uint256"
						}
					],
					"name": "Approval",
					"type": "event"
				},
				{
					"anonymous": false,
					"inputs": [
						{
							"indexed": true,
							"internalType": "address",
							"name": "owner",
							"type": "address"
						},
						{
							"indexed": true,
							"internalType": "address",
							"name": "operator",
							"type": "address"
						},
						{
							"indexed": false,
							"internalType": "bool",
							"name": "approved",
							"type": "bool"
						}
					],
					"name": "ApprovalForAll",
					"type": "event"
				},
				{
					"anonymous": false,
					"inputs": [
						{
							"indexed": true,
							"internalType": "address",
							"name": "previousOwner",
							"type": "address"
						},
						{
							"indexed": true,
							"internalType": "address",
							"name": "newOwner",
							"type": "address"
						}
					],
					"name": "OwnershipTransferred",
					"type": "event"
				},
				{
					"anonymous": false,
					"inputs": [
						{
							"indexed": true,
							"internalType": "address",
							"name": "from",
							"type": "address"
						},
						{
							"indexed": true,
							"internalType": "address",
							"name": "to",
							"type": "address"
						},
						{
							"indexed": true,
							"internalType": "uint256",
							"name": "tokenId",
							"type": "uint256"
						}
					],
					"name": "Transfer",
					"type": "event"
				},
				{
					"inputs": [],
					"name": "AUCTION_DROP_PER_STEP",
					"outputs": [
						{
							"internalType": "uint256",
							"name": "",
							"type": "uint256"
						}
					],
					"stateMutability": "view",
					"type": "function"
				},
				{
					"inputs": [],
					"name": "AUCTION_DROP_TIME_INTERVAL",
					"outputs": [
						{
							"internalType": "uint256",
							"name": "",
							"type": "uint256"
						}
					],
					"stateMutability": "view",
					"type": "function"
				},
				{
					"inputs": [],
					"name": "AUCTION_END_PRICE",
					"outputs": [
						{
							"internalType": "uint256",
							"name": "",
							"type": "uint256"
						}
					],
					"stateMutability": "view",
					"type": "function"
				},
				{
					"inputs": [],
					"name": "AUCTION_START_PRICE",
					"outputs": [
						{
							"internalType": "uint256",
							"name": "",
							"type": "uint256"
						}
					],
					"stateMutability": "view",
					"type": "function"
				},
				{
					"inputs": [],
					"name": "AUCTION_TIME",
					"outputs": [
						{
							"internalType": "uint256",
							"name": "",
							"type": "uint256"
						}
					],
					"stateMutability": "view",
					"type": "function"
				},
				{
					"inputs": [],
					"name": "COLLECTION_SIZE",
					"outputs": [
						{
							"internalType": "uint256",
							"name": "",
							"type": "uint256"
						}
					],
					"stateMutability": "view",
					"type": "function"
				},
				{
					"inputs": [
						{
							"internalType": "address",
							"name": "to",
							"type": "address"
						},
						{
							"internalType": "uint256",
							"name": "tokenId",
							"type": "uint256"
						}
					],
					"name": "approve",
					"outputs": [],
					"stateMutability": "nonpayable",
					"type": "function"
				},
				{
					"inputs": [
						{
							"internalType": "uint256",
							"name": "quantity",
							"type": "uint256"
						}
					],
					"name": "auctionMint",
					"outputs": [],
					"stateMutability": "payable",
					"type": "function"
				},
				{
					"inputs": [],
					"name": "auctionStartTime",
					"outputs": [
						{
							"internalType": "uint256",
							"name": "",
							"type": "uint256"
						}
					],
					"stateMutability": "view",
					"type": "function"
				},
				{
					"inputs": [
						{
							"internalType": "address",
							"name": "owner",
							"type": "address"
						}
					],
					"name": "balanceOf",
					"outputs": [
						{
							"internalType": "uint256",
							"name": "",
							"type": "uint256"
						}
					],
					"stateMutability": "view",
					"type": "function"
				},
				{
					"inputs": [
						{
							"internalType": "uint256",
							"name": "tokenId",
							"type": "uint256"
						}
					],
					"name": "getApproved",
					"outputs": [
						{
							"internalType": "address",
							"name": "",
							"type": "address"
						}
					],
					"stateMutability": "view",
					"type": "function"
				},
				{
					"inputs": [],
					"name": "getAuctionPrice",
					"outputs": [
						{
							"internalType": "uint256",
							"name": "",
							"type": "uint256"
						}
					],
					"stateMutability": "view",
					"type": "function"
				},
				{
					"inputs": [
						{
							"internalType": "address",
							"name": "owner",
							"type": "address"
						},
						{
							"internalType": "address",
							"name": "operator",
							"type": "address"
						}
					],
					"name": "isApprovedForAll",
					"outputs": [
						{
							"internalType": "bool",
							"name": "",
							"type": "bool"
						}
					],
					"stateMutability": "view",
					"type": "function"
				},
				{
					"inputs": [],
					"name": "name",
					"outputs": [
						{
							"internalType": "string",
							"name": "",
							"type": "string"
						}
					],
					"stateMutability": "view",
					"type": "function"
				},
				{
					"inputs": [],
					"name": "owner",
					"outputs": [
						{
							"internalType": "address",
							"name": "",
							"type": "address"
						}
					],
					"stateMutability": "view",
					"type": "function"
				},
				{
					"inputs": [
						{
							"internalType": "uint256",
							"name": "tokenId",
							"type": "uint256"
						}
					],
					"name": "ownerOf",
					"outputs": [
						{
							"internalType": "address",
							"name": "owner",
							"type": "address"
						}
					],
					"stateMutability": "view",
					"type": "function"
				},
				{
					"inputs": [],
					"name": "renounceOwnership",
					"outputs": [],
					"stateMutability": "nonpayable",
					"type": "function"
				},
				{
					"inputs": [
						{
							"internalType": "address",
							"name": "from",
							"type": "address"
						},
						{
							"internalType": "address",
							"name": "to",
							"type": "address"
						},
						{
							"internalType": "uint256",
							"name": "tokenId",
							"type": "uint256"
						}
					],
					"name": "safeTransferFrom",
					"outputs": [],
					"stateMutability": "nonpayable",
					"type": "function"
				},
				{
					"inputs": [
						{
							"internalType": "address",
							"name": "from",
							"type": "address"
						},
						{
							"internalType": "address",
							"name": "to",
							"type": "address"
						},
						{
							"internalType": "uint256",
							"name": "tokenId",
							"type": "uint256"
						},
						{
							"internalType": "bytes",
							"name": "data",
							"type": "bytes"
						}
					],
					"name": "safeTransferFrom",
					"outputs": [],
					"stateMutability": "nonpayable",
					"type": "function"
				},
				{
					"inputs": [
						{
							"internalType": "address",
							"name": "operator",
							"type": "address"
						},
						{
							"internalType": "bool",
							"name": "approved",
							"type": "bool"
						}
					],
					"name": "setApprovalForAll",
					"outputs": [],
					"stateMutability": "nonpayable",
					"type": "function"
				},
				{
					"inputs": [
						{
							"internalType": "uint32",
							"name": "timestamp",
							"type": "uint32"
						}
					],
					"name": "setAuctionStartTime",
					"outputs": [],
					"stateMutability": "nonpayable",
					"type": "function"
				},
				{
					"inputs": [
						{
							"internalType": "bytes4",
							"name": "interfaceId",
							"type": "bytes4"
						}
					],
					"name": "supportsInterface",
					"outputs": [
						{
							"internalType": "bool",
							"name": "",
							"type": "bool"
						}
					],
					"stateMutability": "pure",
					"type": "function"
				},
				{
					"inputs": [],
					"name": "symbol",
					"outputs": [
						{
							"internalType": "string",
							"name": "",
							"type": "string"
						}
					],
					"stateMutability": "view",
					"type": "function"
				},
				{
					"inputs": [
						{
							"internalType": "uint256",
							"name": "tokenId",
							"type": "uint256"
						}
					],
					"name": "tokenURI",
					"outputs": [
						{
							"internalType": "string",
							"name": "",
							"type": "string"
						}
					],
					"stateMutability": "view",
					"type": "function"
				},
				{
					"inputs": [],
					"name": "totalSupply",
					"outputs": [
						{
							"internalType": "uint256",
							"name": "",
							"type": "uint256"
						}
					],
					"stateMutability": "view",
					"type": "function"
				},
				{
					"inputs": [
						{
							"internalType": "address",
							"name": "from",
							"type": "address"
						},
						{
							"internalType": "address",
							"name": "to",
							"type": "address"
						},
						{
							"internalType": "uint256",
							"name": "tokenId",
							"type": "uint256"
						}
					],
					"name": "transferFrom",
					"outputs": [],
					"stateMutability": "nonpayable",
					"type": "function"
				},
				{
					"inputs": [
						{
							"internalType": "address",
							"name": "newOwner",
							"type": "address"
						}
					],
					"name": "transferOwnership",
					"outputs": [],
					"stateMutability": "nonpayable",
					"type": "function"
				}
			],
			"devdoc": {
				"errors": {
					"OwnableInvalidOwner(address)": [
						{
							"details": "The owner is not a valid owner account. (eg. `address(0)`)"
						}
					],
					"OwnableUnauthorizedAccount(address)": [
						{
							"details": "The caller account is not authorized to perform an operation."
						}
					]
				},
				"kind": "dev",
				"methods": {
					"owner()": {
						"details": "Returns the address of the current owner."
					},
					"renounceOwnership()": {
						"details": "Leaves the contract without owner. It will not be possible to call `onlyOwner` functions. Can only be called by the current owner. NOTE: Renouncing ownership will leave the contract without an owner, thereby disabling any functionality that is only available to the owner."
					},
					"supportsInterface(bytes4)": {
						"details": "如果合约实现了查询的`interfaceId`，则返回true 规则详见：https://eips.ethereum.org/EIPS/eip-165#how-interfaces-are-identified[EIP section]"
					},
					"transferOwnership(address)": {
						"details": "Transfers ownership of the contract to a new account (`newOwner`). Can only be called by the current owner."
					}
				},
				"version": 1
			},
			"evm": {
				"assembly": "    /* \"contracts/DutchAuction.sol\":129:2903  contract DutchAuction is Ownable, ERC721 {... */\n  mstore(0x40, 0x80)\n    /* \"contracts/DutchAuction.sol\":1065:1272  constructor() Ownable(msg.sender) ERC721(\"KX Dutch Auction\", \"KX Dutch Auction\") {... */\n  callvalue\n  dup1\n  iszero\n  tag_1\n  jumpi\n  0x00\n  dup1\n  revert\ntag_1:\n  pop\n    /* \"contracts/ERC721.sol\":1455:1569  constructor(string memory name_, string memory symbol_) {... */\n  mload(0x40)\n  dup1\n  0x40\n  add\n  0x40\n  mstore\n  dup1\n  0x10\n  dup2\n  mstore\n  0x20\n  add\n  0x4b582044757463682041756374696f6e00000000000000000000000000000000\n  dup2\n  mstore\n  pop\n  mload(0x40)\n  dup1\n  0x40\n  add\n  0x40\n  mstore\n  dup1\n  0x10\n  dup2\n  mstore\n  0x20\n  add\n  0x4b582044757463682041756374696f6e00000000000000000000000000000000\n  dup2\n  mstore\n  pop\n    /* \"contracts/DutchAuction.sol\":1087:1097  msg.sender */\n  caller\n    /* \"contracts/abstractContract/Ownable.sol\":1275:1276  0 */\n  0x00\n    /* \"contracts/abstractContract/Ownable.sol\":1251:1277  initialOwner == address(0) */\n  0xffffffffffffffffffffffffffffffffffffffff\n  and\n    /* \"contracts/abstractContract/Ownable.sol\":1251:1263  initialOwner */\n  dup2\n    /* \"contracts/abstractContract/Ownable.sol\":1251:1277  initialOwner == address(0) */\n  0xffffffffffffffffffffffffffffffffffffffff\n  and\n  sub\n    /* \"contracts/abstractContract/Ownable.sol\":1247:1344  if (initialOwner == address(0)) {... */\n  tag_6\n  jumpi\n    /* \"contracts/abstractContract/Ownable.sol\":1329:1330  0 */\n  0x00\n    /* \"contracts/abstractContract/Ownable.sol\":1301:1332  OwnableInvalidOwner(address(0)) */\n  mload(0x40)\n  0x1e4fbdf700000000000000000000000000000000000000000000000000000000\n  dup2\n  mstore\n  0x04\n  add\n  tag_7\n  swap2\n  swap1\n  tag_8\n  jump\t// in\ntag_7:\n  mload(0x40)\n  dup1\n  swap2\n  sub\n  swap1\n  revert\n    /* \"contracts/abstractContract/Ownable.sol\":1247:1344  if (initialOwner == address(0)) {... */\ntag_6:\n    /* \"contracts/abstractContract/Ownable.sol\":1354:1386  _transferOwnership(initialOwner) */\n  tag_9\n    /* \"contracts/abstractContract/Ownable.sol\":1373:1385  initialOwner */\n  dup2\n    /* \"contracts/abstractContract/Ownable.sol\":1354:1372  _transferOwnership */\n  shl(0x20, tag_10)\n    /* \"contracts/abstractContract/Ownable.sol\":1354:1386  _transferOwnership(initialOwner) */\n  0x20\n  shr\n  jump\t// in\ntag_9:\n    /* \"contracts/abstractContract/Ownable.sol\":1202:1394  constructor(address initialOwner) {... */\n  pop\n    /* \"contracts/ERC721.sol\":1529:1534  name_ */\n  dup2\n    /* \"contracts/ERC721.sol\":1522:1526  name */\n  0x01\n    /* \"contracts/ERC721.sol\":1522:1534  name = name_ */\n  swap1\n  dup2\n  tag_12\n  swap2\n  swap1\n  tag_13\n  jump\t// in\ntag_12:\n  pop\n    /* \"contracts/ERC721.sol\":1554:1561  symbol_ */\n  dup1\n    /* \"contracts/ERC721.sol\":1545:1551  symbol */\n  0x02\n    /* \"contracts/ERC721.sol\":1545:1561  symbol = symbol_ */\n  swap1\n  dup2\n  tag_14\n  swap2\n  swap1\n  tag_13\n  jump\t// in\ntag_14:\n  pop\n    /* \"contracts/ERC721.sol\":1455:1569  constructor(string memory name_, string memory symbol_) {... */\n  pop\n  pop\n    /* \"contracts/DutchAuction.sol\":1249:1264  block.timestamp */\n  timestamp\n    /* \"contracts/DutchAuction.sol\":1230:1246  auctionStartTime */\n  0x07\n    /* \"contracts/DutchAuction.sol\":1230:1264  auctionStartTime = block.timestamp */\n  dup2\n  swap1\n  sstore\n  pop\n    /* \"contracts/DutchAuction.sol\":129:2903  contract DutchAuction is Ownable, ERC721 {... */\n  jump(tag_16)\n    /* \"contracts/abstractContract/Ownable.sol\":2942:3133  function _transferOwnership(address newOwner) internal virtual {... */\ntag_10:\n    /* \"contracts/abstractContract/Ownable.sol\":3016:3032  address oldOwner */\n  0x00\n    /* \"contracts/abstractContract/Ownable.sol\":3035:3041  _owner */\n  dup1\n  0x00\n  swap1\n  sload\n  swap1\n  0x0100\n  exp\n  swap1\n  div\n  0xffffffffffffffffffffffffffffffffffffffff\n  and\n    /* \"contracts/abstractContract/Ownable.sol\":3016:3041  address oldOwner = _owner */\n  swap1\n  pop\n    /* \"contracts/abstractContract/Ownable.sol\":3061:3069  newOwner */\n  dup2\n    /* \"contracts/abstractContract/Ownable.sol\":3052:3058  _owner */\n  0x00\n  dup1\n    /* \"contracts/abstractContract/Ownable.sol\":3052:3069  _owner = newOwner */\n  0x0100\n  exp\n  dup2\n  sload\n  dup2\n  0xffffffffffffffffffffffffffffffffffffffff\n  mul\n  not\n  and\n  swap1\n  dup4\n  0xffffffffffffffffffffffffffffffffffffffff\n  and\n  mul\n  or\n  swap1\n  sstore\n  pop\n    /* \"contracts/abstractContract/Ownable.sol\":3116:3124  newOwner */\n  dup2\n    /* \"contracts/abstractContract/Ownable.sol\":3085:3125  OwnershipTransferred(oldOwner, newOwner) */\n  0xffffffffffffffffffffffffffffffffffffffff\n  and\n    /* \"contracts/abstractContract/Ownable.sol\":3106:3114  oldOwner */\n  dup2\n    /* \"contracts/abstractContract/Ownable.sol\":3085:3125  OwnershipTransferred(oldOwner, newOwner) */\n  0xffffffffffffffffffffffffffffffffffffffff\n  and\n  0x8be0079c531659141344cd1fd0a4f28419497f9722a3daafe3b4186f6b6457e0\n  mload(0x40)\n  mload(0x40)\n  dup1\n  swap2\n  sub\n  swap1\n  log3\n    /* \"contracts/abstractContract/Ownable.sol\":3005:3133  {... */\n  pop\n    /* \"contracts/abstractContract/Ownable.sol\":2942:3133  function _transferOwnership(address newOwner) internal virtual {... */\n  pop\n  jump\t// out\n    /* \"#utility.yul\":7:133   */\ntag_18:\n    /* \"#utility.yul\":44:51   */\n  0x00\n    /* \"#utility.yul\":84:126   */\n  0xffffffffffffffffffffffffffffffffffffffff\n    /* \"#utility.yul\":77:82   */\n  dup3\n    /* \"#utility.yul\":73:127   */\n  and\n    /* \"#utility.yul\":62:127   */\n  swap1\n  pop\n    /* \"#utility.yul\":7:133   */\n  swap2\n  swap1\n  pop\n  jump\t// out\n    /* \"#utility.yul\":139:235   */\ntag_19:\n    /* \"#utility.yul\":176:183   */\n  0x00\n    /* \"#utility.yul\":205:229   */\n  tag_44\n    /* \"#utility.yul\":223:228   */\n  dup3\n    /* \"#utility.yul\":205:229   */\n  tag_18\n  jump\t// in\ntag_44:\n    /* \"#utility.yul\":194:229   */\n  swap1\n  pop\n    /* \"#utility.yul\":139:235   */\n  swap2\n  swap1\n  pop\n  jump\t// out\n    /* \"#utility.yul\":241:359   */\ntag_20:\n    /* \"#utility.yul\":328:352   */\n  tag_46\n    /* \"#utility.yul\":346:351   */\n  dup2\n    /* \"#utility.yul\":328:352   */\n  tag_19\n  jump\t// in\ntag_46:\n    /* \"#utility.yul\":323:326   */\n  dup3\n    /* \"#utility.yul\":316:353   */\n  mstore\n    /* \"#utility.yul\":241:359   */\n  pop\n  pop\n  jump\t// out\n    /* \"#utility.yul\":365:587   */\ntag_8:\n    /* \"#utility.yul\":458:462   */\n  0x00\n    /* \"#utility.yul\":496:498   */\n  0x20\n    /* \"#utility.yul\":485:494   */\n  dup3\n    /* \"#utility.yul\":481:499   */\n  add\n    /* \"#utility.yul\":473:499   */\n  swap1\n  pop\n    /* \"#utility.yul\":509:580   */\n  tag_48\n    /* \"#utility.yul\":577:578   */\n  0x00\n    /* \"#utility.yul\":566:575   */\n  dup4\n    /* \"#utility.yul\":562:579   */\n  add\n    /* \"#utility.yul\":553:559   */\n  dup5\n    /* \"#utility.yul\":509:580   */\n  tag_20\n  jump\t// in\ntag_48:\n    /* \"#utility.yul\":365:587   */\n  swap3\n  swap2\n  pop\n  pop\n  jump\t// out\n    /* \"#utility.yul\":593:692   */\ntag_21:\n    /* \"#utility.yul\":645:651   */\n  0x00\n    /* \"#utility.yul\":679:684   */\n  dup2\n    /* \"#utility.yul\":673:685   */\n  mload\n    /* \"#utility.yul\":663:685   */\n  swap1\n  pop\n    /* \"#utility.yul\":593:692   */\n  swap2\n  swap1\n  pop\n  jump\t// out\n    /* \"#utility.yul\":698:878   */\ntag_22:\n    /* \"#utility.yul\":746:823   */\n  0x4e487b7100000000000000000000000000000000000000000000000000000000\n    /* \"#utility.yul\":743:744   */\n  0x00\n    /* \"#utility.yul\":736:824   */\n  mstore\n    /* \"#utility.yul\":843:847   */\n  0x41\n    /* \"#utility.yul\":840:841   */\n  0x04\n    /* \"#utility.yul\":833:848   */\n  mstore\n    /* \"#utility.yul\":867:871   */\n  0x24\n    /* \"#utility.yul\":864:865   */\n  0x00\n    /* \"#utility.yul\":857:872   */\n  revert\n    /* \"#utility.yul\":884:1064   */\ntag_23:\n    /* \"#utility.yul\":932:1009   */\n  0x4e487b7100000000000000000000000000000000000000000000000000000000\n    /* \"#utility.yul\":929:930   */\n  0x00\n    /* \"#utility.yul\":922:1010   */\n  mstore\n    /* \"#utility.yul\":1029:1033   */\n  0x22\n    /* \"#utility.yul\":1026:1027   */\n  0x04\n    /* \"#utility.yul\":1019:1034   */\n  mstore\n    /* \"#utility.yul\":1053:1057   */\n  0x24\n    /* \"#utility.yul\":1050:1051   */\n  0x00\n    /* \"#utility.yul\":1043:1058   */\n  revert\n    /* \"#utility.yul\":1070:1390   */\ntag_24:\n    /* \"#utility.yul\":1114:1120   */\n  0x00\n    /* \"#utility.yul\":1151:1152   */\n  0x02\n    /* \"#utility.yul\":1145:1149   */\n  dup3\n    /* \"#utility.yul\":1141:1153   */\n  div\n    /* \"#utility.yul\":1131:1153   */\n  swap1\n  pop\n    /* \"#utility.yul\":1198:1199   */\n  0x01\n    /* \"#utility.yul\":1192:1196   */\n  dup3\n    /* \"#utility.yul\":1188:1200   */\n  and\n    /* \"#utility.yul\":1219:1237   */\n  dup1\n    /* \"#utility.yul\":1209:1290   */\n  tag_53\n  jumpi\n    /* \"#utility.yul\":1275:1279   */\n  0x7f\n    /* \"#utility.yul\":1267:1273   */\n  dup3\n    /* \"#utility.yul\":1263:1280   */\n  and\n    /* \"#utility.yul\":1253:1280   */\n  swap2\n  pop\n    /* \"#utility.yul\":1209:1290   */\ntag_53:\n    /* \"#utility.yul\":1337:1339   */\n  0x20\n    /* \"#utility.yul\":1329:1335   */\n  dup3\n    /* \"#utility.yul\":1326:1340   */\n  lt\n    /* \"#utility.yul\":1306:1324   */\n  dup2\n    /* \"#utility.yul\":1303:1341   */\n  sub\n    /* \"#utility.yul\":1300:1384   */\n  tag_54\n  jumpi\n    /* \"#utility.yul\":1356:1374   */\n  tag_55\n  tag_23\n  jump\t// in\ntag_55:\n    /* \"#utility.yul\":1300:1384   */\ntag_54:\n    /* \"#utility.yul\":1121:1390   */\n  pop\n    /* \"#utility.yul\":1070:1390   */\n  swap2\n  swap1\n  pop\n  jump\t// out\n    /* \"#utility.yul\":1396:1537   */\ntag_25:\n    /* \"#utility.yul\":1445:1449   */\n  0x00\n    /* \"#utility.yul\":1468:1471   */\n  dup2\n    /* \"#utility.yul\":1460:1471   */\n  swap1\n  pop\n    /* \"#utility.yul\":1491:1494   */\n  dup2\n    /* \"#utility.yul\":1488:1489   */\n  0x00\n    /* \"#utility.yul\":1481:1495   */\n  mstore\n    /* \"#utility.yul\":1525:1529   */\n  0x20\n    /* \"#utility.yul\":1522:1523   */\n  0x00\n    /* \"#utility.yul\":1512:1530   */\n  keccak256\n    /* \"#utility.yul\":1504:1530   */\n  swap1\n  pop\n    /* \"#utility.yul\":1396:1537   */\n  swap2\n  swap1\n  pop\n  jump\t// out\n    /* \"#utility.yul\":1543:1636   */\ntag_26:\n    /* \"#utility.yul\":1580:1586   */\n  0x00\n    /* \"#utility.yul\":1627:1629   */\n  0x20\n    /* \"#utility.yul\":1622:1624   */\n  0x1f\n    /* \"#utility.yul\":1615:1620   */\n  dup4\n    /* \"#utility.yul\":1611:1625   */\n  add\n    /* \"#utility.yul\":1607:1630   */\n  div\n    /* \"#utility.yul\":1597:1630   */\n  swap1\n  pop\n    /* \"#utility.yul\":1543:1636   */\n  swap2\n  swap1\n  pop\n  jump\t// out\n    /* \"#utility.yul\":1642:1749   */\ntag_27:\n    /* \"#utility.yul\":1686:1694   */\n  0x00\n    /* \"#utility.yul\":1736:1741   */\n  dup3\n    /* \"#utility.yul\":1730:1734   */\n  dup3\n    /* \"#utility.yul\":1726:1742   */\n  shl\n    /* \"#utility.yul\":1705:1742   */\n  swap1\n  pop\n    /* \"#utility.yul\":1642:1749   */\n  swap3\n  swap2\n  pop\n  pop\n  jump\t// out\n    /* \"#utility.yul\":1755:2148   */\ntag_28:\n    /* \"#utility.yul\":1824:1830   */\n  0x00\n    /* \"#utility.yul\":1874:1875   */\n  0x08\n    /* \"#utility.yul\":1862:1872   */\n  dup4\n    /* \"#utility.yul\":1858:1876   */\n  mul\n    /* \"#utility.yul\":1897:1994   */\n  tag_60\n    /* \"#utility.yul\":1927:1993   */\n  0xffffffffffffffffffffffffffffffffffffffffffffffffffffffffffffffff\n    /* \"#utility.yul\":1916:1925   */\n  dup3\n    /* \"#utility.yul\":1897:1994   */\n  tag_27\n  jump\t// in\ntag_60:\n    /* \"#utility.yul\":2015:2054   */\n  tag_61\n    /* \"#utility.yul\":2045:2053   */\n  dup7\n    /* \"#utility.yul\":2034:2043   */\n  dup4\n    /* \"#utility.yul\":2015:2054   */\n  tag_27\n  jump\t// in\ntag_61:\n    /* \"#utility.yul\":2003:2054   */\n  swap6\n  pop\n    /* \"#utility.yul\":2087:2091   */\n  dup1\n    /* \"#utility.yul\":2083:2092   */\n  not\n    /* \"#utility.yul\":2076:2081   */\n  dup5\n    /* \"#utility.yul\":2072:2093   */\n  and\n    /* \"#utility.yul\":2063:2093   */\n  swap4\n  pop\n    /* \"#utility.yul\":2136:2140   */\n  dup1\n    /* \"#utility.yul\":2126:2134   */\n  dup7\n    /* \"#utility.yul\":2122:2141   */\n  and\n    /* \"#utility.yul\":2115:2120   */\n  dup5\n    /* \"#utility.yul\":2112:2142   */\n  or\n    /* \"#utility.yul\":2102:2142   */\n  swap3\n  pop\n    /* \"#utility.yul\":1831:2148   */\n  pop\n  pop\n    /* \"#utility.yul\":1755:2148   */\n  swap4\n  swap3\n  pop\n  pop\n  pop\n  jump\t// out\n    /* \"#utility.yul\":2154:2231   */\ntag_29:\n    /* \"#utility.yul\":2191:2198   */\n  0x00\n    /* \"#utility.yul\":2220:2225   */\n  dup2\n    /* \"#utility.yul\":2209:2225   */\n  swap1\n  pop\n    /* \"#utility.yul\":2154:2231   */\n  swap2\n  swap1\n  pop\n  jump\t// out\n    /* \"#utility.yul\":2237:2297   */\ntag_30:\n    /* \"#utility.yul\":2265:2268   */\n  0x00\n    /* \"#utility.yul\":2286:2291   */\n  dup2\n    /* \"#utility.yul\":2279:2291   */\n  swap1\n  pop\n    /* \"#utility.yul\":2237:2297   */\n  swap2\n  swap1\n  pop\n  jump\t// out\n    /* \"#utility.yul\":2303:2445   */\ntag_31:\n    /* \"#utility.yul\":2353:2362   */\n  0x00\n    /* \"#utility.yul\":2386:2439   */\n  tag_65\n    /* \"#utility.yul\":2404:2438   */\n  tag_66\n    /* \"#utility.yul\":2413:2437   */\n  tag_67\n    /* \"#utility.yul\":2431:2436   */\n  dup5\n    /* \"#utility.yul\":2413:2437   */\n  tag_29\n  jump\t// in\ntag_67:\n    /* \"#utility.yul\":2404:2438   */\n  tag_30\n  jump\t// in\ntag_66:\n    /* \"#utility.yul\":2386:2439   */\n  tag_29\n  jump\t// in\ntag_65:\n    /* \"#utility.yul\":2373:2439   */\n  swap1\n  pop\n    /* \"#utility.yul\":2303:2445   */\n  swap2\n  swap1\n  pop\n  jump\t// out\n    /* \"#utility.yul\":2451:2526   */\ntag_32:\n    /* \"#utility.yul\":2494:2497   */\n  0x00\n    /* \"#utility.yul\":2515:2520   */\n  dup2\n    /* \"#utility.yul\":2508:2520   */\n  swap1\n  pop\n    /* \"#utility.yul\":2451:2526   */\n  swap2\n  swap1\n  pop\n  jump\t// out\n    /* \"#utility.yul\":2532:2801   */\ntag_33:\n    /* \"#utility.yul\":2642:2681   */\n  tag_70\n    /* \"#utility.yul\":2673:2680   */\n  dup4\n    /* \"#utility.yul\":2642:2681   */\n  tag_31\n  jump\t// in\ntag_70:\n    /* \"#utility.yul\":2703:2794   */\n  tag_71\n    /* \"#utility.yul\":2752:2793   */\n  tag_72\n    /* \"#utility.yul\":2776:2792   */\n  dup3\n    /* \"#utility.yul\":2752:2793   */\n  tag_32\n  jump\t// in\ntag_72:\n    /* \"#utility.yul\":2744:2750   */\n  dup5\n    /* \"#utility.yul\":2737:2741   */\n  dup5\n    /* \"#utility.yul\":2731:2742   */\n  sload\n    /* \"#utility.yul\":2703:2794   */\n  tag_28\n  jump\t// in\ntag_71:\n    /* \"#utility.yul\":2697:2701   */\n  dup3\n    /* \"#utility.yul\":2690:2795   */\n  sstore\n    /* \"#utility.yul\":2608:2801   */\n  pop\n    /* \"#utility.yul\":2532:2801   */\n  pop\n  pop\n  pop\n  jump\t// out\n    /* \"#utility.yul\":2807:2880   */\ntag_34:\n    /* \"#utility.yul\":2852:2855   */\n  0x00\n    /* \"#utility.yul\":2807:2880   */\n  swap1\n  jump\t// out\n    /* \"#utility.yul\":2886:3075   */\ntag_35:\n    /* \"#utility.yul\":2963:2995   */\n  tag_75\n  tag_34\n  jump\t// in\ntag_75:\n    /* \"#utility.yul\":3004:3069   */\n  tag_76\n    /* \"#utility.yul\":3062:3068   */\n  dup2\n    /* \"#utility.yul\":3054:3060   */\n  dup5\n    /* \"#utility.yul\":3048:3052   */\n  dup5\n    /* \"#utility.yul\":3004:3069   */\n  tag_33\n  jump\t// in\ntag_76:\n    /* \"#utility.yul\":2939:3075   */\n  pop\n    /* \"#utility.yul\":2886:3075   */\n  pop\n  pop\n  jump\t// out\n    /* \"#utility.yul\":3081:3267   */\ntag_36:\n    /* \"#utility.yul\":3141:3261   */\ntag_78:\n    /* \"#utility.yul\":3158:3161   */\n  dup2\n    /* \"#utility.yul\":3151:3156   */\n  dup2\n    /* \"#utility.yul\":3148:3162   */\n  lt\n    /* \"#utility.yul\":3141:3261   */\n  iszero\n  tag_80\n  jumpi\n    /* \"#utility.yul\":3212:3251   */\n  tag_81\n    /* \"#utility.yul\":3249:3250   */\n  0x00\n    /* \"#utility.yul\":3242:3247   */\n  dup3\n    /* \"#utility.yul\":3212:3251   */\n  tag_35\n  jump\t// in\ntag_81:\n    /* \"#utility.yul\":3185:3186   */\n  0x01\n    /* \"#utility.yul\":3178:3183   */\n  dup2\n    /* \"#utility.yul\":3174:3187   */\n  add\n    /* \"#utility.yul\":3165:3187   */\n  swap1\n  pop\n    /* \"#utility.yul\":3141:3261   */\n  jump(tag_78)\ntag_80:\n    /* \"#utility.yul\":3081:3267   */\n  pop\n  pop\n  jump\t// out\n    /* \"#utility.yul\":3273:3816   */\ntag_37:\n    /* \"#utility.yul\":3374:3376   */\n  0x1f\n    /* \"#utility.yul\":3369:3372   */\n  dup3\n    /* \"#utility.yul\":3366:3377   */\n  gt\n    /* \"#utility.yul\":3363:3809   */\n  iszero\n  tag_83\n  jumpi\n    /* \"#utility.yul\":3408:3446   */\n  tag_84\n    /* \"#utility.yul\":3440:3445   */\n  dup2\n    /* \"#utility.yul\":3408:3446   */\n  tag_25\n  jump\t// in\ntag_84:\n    /* \"#utility.yul\":3492:3521   */\n  tag_85\n    /* \"#utility.yul\":3510:3520   */\n  dup5\n    /* \"#utility.yul\":3492:3521   */\n  tag_26\n  jump\t// in\ntag_85:\n    /* \"#utility.yul\":3482:3490   */\n  dup2\n    /* \"#utility.yul\":3478:3522   */\n  add\n    /* \"#utility.yul\":3675:3677   */\n  0x20\n    /* \"#utility.yul\":3663:3673   */\n  dup6\n    /* \"#utility.yul\":3660:3678   */\n  lt\n    /* \"#utility.yul\":3657:3706   */\n  iszero\n  tag_86\n  jumpi\n    /* \"#utility.yul\":3696:3704   */\n  dup2\n    /* \"#utility.yul\":3681:3704   */\n  swap1\n  pop\n    /* \"#utility.yul\":3657:3706   */\ntag_86:\n    /* \"#utility.yul\":3719:3799   */\n  tag_87\n    /* \"#utility.yul\":3775:3797   */\n  tag_88\n    /* \"#utility.yul\":3793:3796   */\n  dup6\n    /* \"#utility.yul\":3775:3797   */\n  tag_26\n  jump\t// in\ntag_88:\n    /* \"#utility.yul\":3765:3773   */\n  dup4\n    /* \"#utility.yul\":3761:3798   */\n  add\n    /* \"#utility.yul\":3748:3759   */\n  dup3\n    /* \"#utility.yul\":3719:3799   */\n  tag_36\n  jump\t// in\ntag_87:\n    /* \"#utility.yul\":3378:3809   */\n  pop\n  pop\n    /* \"#utility.yul\":3363:3809   */\ntag_83:\n    /* \"#utility.yul\":3273:3816   */\n  pop\n  pop\n  pop\n  jump\t// out\n    /* \"#utility.yul\":3822:3939   */\ntag_38:\n    /* \"#utility.yul\":3876:3884   */\n  0x00\n    /* \"#utility.yul\":3926:3931   */\n  dup3\n    /* \"#utility.yul\":3920:3924   */\n  dup3\n    /* \"#utility.yul\":3916:3932   */\n  shr\n    /* \"#utility.yul\":3895:3932   */\n  swap1\n  pop\n    /* \"#utility.yul\":3822:3939   */\n  swap3\n  swap2\n  pop\n  pop\n  jump\t// out\n    /* \"#utility.yul\":3945:4114   */\ntag_39:\n    /* \"#utility.yul\":3989:3995   */\n  0x00\n    /* \"#utility.yul\":4022:4073   */\n  tag_91\n    /* \"#utility.yul\":4070:4071   */\n  0x00\n    /* \"#utility.yul\":4066:4072   */\n  not\n    /* \"#utility.yul\":4058:4063   */\n  dup5\n    /* \"#utility.yul\":4055:4056   */\n  0x08\n    /* \"#utility.yul\":4051:4064   */\n  mul\n    /* \"#utility.yul\":4022:4073   */\n  tag_38\n  jump\t// in\ntag_91:\n    /* \"#utility.yul\":4018:4074   */\n  not\n    /* \"#utility.yul\":4103:4107   */\n  dup1\n    /* \"#utility.yul\":4097:4101   */\n  dup4\n    /* \"#utility.yul\":4093:4108   */\n  and\n    /* \"#utility.yul\":4083:4108   */\n  swap2\n  pop\n    /* \"#utility.yul\":3996:4114   */\n  pop\n    /* \"#utility.yul\":3945:4114   */\n  swap3\n  swap2\n  pop\n  pop\n  jump\t// out\n    /* \"#utility.yul\":4119:4414   */\ntag_40:\n    /* \"#utility.yul\":4195:4199   */\n  0x00\n    /* \"#utility.yul\":4341:4370   */\n  tag_93\n    /* \"#utility.yul\":4366:4369   */\n  dup4\n    /* \"#utility.yul\":4360:4364   */\n  dup4\n    /* \"#utility.yul\":4341:4370   */\n  tag_39\n  jump\t// in\ntag_93:\n    /* \"#utility.yul\":4333:4370   */\n  swap2\n  pop\n    /* \"#utility.yul\":4403:4406   */\n  dup3\n    /* \"#utility.yul\":4400:4401   */\n  0x02\n    /* \"#utility.yul\":4396:4407   */\n  mul\n    /* \"#utility.yul\":4390:4394   */\n  dup3\n    /* \"#utility.yul\":4387:4408   */\n  or\n    /* \"#utility.yul\":4379:4408   */\n  swap1\n  pop\n    /* \"#utility.yul\":4119:4414   */\n  swap3\n  swap2\n  pop\n  pop\n  jump\t// out\n    /* \"#utility.yul\":4419:5814   */\ntag_13:\n    /* \"#utility.yul\":4536:4573   */\n  tag_95\n    /* \"#utility.yul\":4569:4572   */\n  dup3\n    /* \"#utility.yul\":4536:4573   */\n  tag_21\n  jump\t// in\ntag_95:\n    /* \"#utility.yul\":4638:4656   */\n  0xffffffffffffffff\n    /* \"#utility.yul\":4630:4636   */\n  dup2\n    /* \"#utility.yul\":4627:4657   */\n  gt\n    /* \"#utility.yul\":4624:4680   */\n  iszero\n  tag_96\n  jumpi\n    /* \"#utility.yul\":4660:4678   */\n  tag_97\n  tag_22\n  jump\t// in\ntag_97:\n    /* \"#utility.yul\":4624:4680   */\ntag_96:\n    /* \"#utility.yul\":4704:4742   */\n  tag_98\n    /* \"#utility.yul\":4736:4740   */\n  dup3\n    /* \"#utility.yul\":4730:4741   */\n  sload\n    /* \"#utility.yul\":4704:4742   */\n  tag_24\n  jump\t// in\ntag_98:\n    /* \"#utility.yul\":4789:4856   */\n  tag_99\n    /* \"#utility.yul\":4849:4855   */\n  dup3\n    /* \"#utility.yul\":4841:4847   */\n  dup3\n    /* \"#utility.yul\":4835:4839   */\n  dup6\n    /* \"#utility.yul\":4789:4856   */\n  tag_37\n  jump\t// in\ntag_99:\n    /* \"#utility.yul\":4883:4884   */\n  0x00\n    /* \"#utility.yul\":4907:4911   */\n  0x20\n    /* \"#utility.yul\":4894:4911   */\n  swap1\n  pop\n    /* \"#utility.yul\":4939:4941   */\n  0x1f\n    /* \"#utility.yul\":4931:4937   */\n  dup4\n    /* \"#utility.yul\":4928:4942   */\n  gt\n    /* \"#utility.yul\":4956:4957   */\n  0x01\n    /* \"#utility.yul\":4951:5569   */\n  dup2\n  eq\n  tag_101\n  jumpi\n    /* \"#utility.yul\":5613:5614   */\n  0x00\n    /* \"#utility.yul\":5630:5636   */\n  dup5\n    /* \"#utility.yul\":5627:5704   */\n  iszero\n  tag_102\n  jumpi\n    /* \"#utility.yul\":5679:5688   */\n  dup3\n    /* \"#utility.yul\":5674:5677   */\n  dup8\n    /* \"#utility.yul\":5670:5689   */\n  add\n    /* \"#utility.yul\":5664:5690   */\n  mload\n    /* \"#utility.yul\":5655:5690   */\n  swap1\n  pop\n    /* \"#utility.yul\":5627:5704   */\ntag_102:\n    /* \"#utility.yul\":5730:5797   */\n  tag_103\n    /* \"#utility.yul\":5790:5796   */\n  dup6\n    /* \"#utility.yul\":5783:5788   */\n  dup3\n    /* \"#utility.yul\":5730:5797   */\n  tag_40\n  jump\t// in\ntag_103:\n    /* \"#utility.yul\":5724:5728   */\n  dup7\n    /* \"#utility.yul\":5717:5798   */\n  sstore\n    /* \"#utility.yul\":5586:5808   */\n  pop\n    /* \"#utility.yul\":4921:5808   */\n  jump(tag_100)\n    /* \"#utility.yul\":4951:5569   */\ntag_101:\n    /* \"#utility.yul\":5003:5007   */\n  0x1f\n    /* \"#utility.yul\":4999:5008   */\n  not\n    /* \"#utility.yul\":4991:4997   */\n  dup5\n    /* \"#utility.yul\":4987:5009   */\n  and\n    /* \"#utility.yul\":5037:5074   */\n  tag_104\n    /* \"#utility.yul\":5069:5073   */\n  dup7\n    /* \"#utility.yul\":5037:5074   */\n  tag_25\n  jump\t// in\ntag_104:\n    /* \"#utility.yul\":5096:5097   */\n  0x00\n    /* \"#utility.yul\":5110:5318   */\ntag_105:\n    /* \"#utility.yul\":5124:5131   */\n  dup3\n    /* \"#utility.yul\":5121:5122   */\n  dup2\n    /* \"#utility.yul\":5118:5132   */\n  lt\n    /* \"#utility.yul\":5110:5318   */\n  iszero\n  tag_107\n  jumpi\n    /* \"#utility.yul\":5203:5212   */\n  dup5\n    /* \"#utility.yul\":5198:5201   */\n  dup10\n    /* \"#utility.yul\":5194:5213   */\n  add\n    /* \"#utility.yul\":5188:5214   */\n  mload\n    /* \"#utility.yul\":5180:5186   */\n  dup3\n    /* \"#utility.yul\":5173:5215   */\n  sstore\n    /* \"#utility.yul\":5254:5255   */\n  0x01\n    /* \"#utility.yul\":5246:5252   */\n  dup3\n    /* \"#utility.yul\":5242:5256   */\n  add\n    /* \"#utility.yul\":5232:5256   */\n  swap2\n  pop\n    /* \"#utility.yul\":5301:5303   */\n  0x20\n    /* \"#utility.yul\":5290:5299   */\n  dup6\n    /* \"#utility.yul\":5286:5304   */\n  add\n    /* \"#utility.yul\":5273:5304   */\n  swap5\n  pop\n    /* \"#utility.yul\":5147:5151   */\n  0x20\n    /* \"#utility.yul\":5144:5145   */\n  dup2\n    /* \"#utility.yul\":5140:5152   */\n  add\n    /* \"#utility.yul\":5135:5152   */\n  swap1\n  pop\n    /* \"#utility.yul\":5110:5318   */\n  jump(tag_105)\ntag_107:\n    /* \"#utility.yul\":5346:5352   */\n  dup7\n    /* \"#utility.yul\":5337:5344   */\n  dup4\n    /* \"#utility.yul\":5334:5353   */\n  lt\n    /* \"#utility.yul\":5331:5510   */\n  iszero\n  tag_108\n  jumpi\n    /* \"#utility.yul\":5404:5413   */\n  dup5\n    /* \"#utility.yul\":5399:5402   */\n  dup10\n    /* \"#utility.yul\":5395:5414   */\n  add\n    /* \"#utility.yul\":5389:5415   */\n  mload\n    /* \"#utility.yul\":5447:5495   */\n  tag_109\n    /* \"#utility.yul\":5489:5493   */\n  0x1f\n    /* \"#utility.yul\":5481:5487   */\n  dup10\n    /* \"#utility.yul\":5477:5494   */\n  and\n    /* \"#utility.yul\":5466:5475   */\n  dup3\n    /* \"#utility.yul\":5447:5495   */\n  tag_39\n  jump\t// in\ntag_109:\n    /* \"#utility.yul\":5439:5445   */\n  dup4\n    /* \"#utility.yul\":5432:5496   */\n  sstore\n    /* \"#utility.yul\":5354:5510   */\n  pop\n    /* \"#utility.yul\":5331:5510   */\ntag_108:\n    /* \"#utility.yul\":5556:5557   */\n  0x01\n    /* \"#utility.yul\":5552:5553   */\n  0x02\n    /* \"#utility.yul\":5544:5550   */\n  dup9\n    /* \"#utility.yul\":5540:5554   */\n  mul\n    /* \"#utility.yul\":5536:5558   */\n  add\n    /* \"#utility.yul\":5530:5534   */\n  dup9\n    /* \"#utility.yul\":5523:5559   */\n  sstore\n    /* \"#utility.yul\":4958:5569   */\n  pop\n  pop\n  pop\n    /* \"#utility.yul\":4921:5808   */\ntag_100:\n  pop\n    /* \"#utility.yul\":4511:5814   */\n  pop\n  pop\n  pop\n    /* \"#utility.yul\":4419:5814   */\n  pop\n  pop\n  jump\t// out\n    /* \"contracts/DutchAuction.sol\":129:2903  contract DutchAuction is Ownable, ERC721 {... */\ntag_16:\n  dataSize(sub_0)\n  dup1\n  dataOffset(sub_0)\n  0x00\n  codecopy\n  0x00\n  return\nstop\n\nsub_0: assembly {\n        /* \"contracts/DutchAuction.sol\":129:2903  contract DutchAuction is Ownable, ERC721 {... */\n      mstore(0x40, 0x80)\n      jumpi(tag_1, lt(calldatasize, 0x04))\n      shr(0xe0, calldataload(0x00))\n      dup1\n      0x70a08231\n      gt\n      tag_29\n      jumpi\n      dup1\n      0xc87b56dd\n      gt\n      tag_30\n      jumpi\n      dup1\n      0xe592301a\n      gt\n      tag_31\n      jumpi\n      dup1\n      0xe592301a\n      eq\n      tag_25\n      jumpi\n      dup1\n      0xe985e9c5\n      eq\n      tag_26\n      jumpi\n      dup1\n      0xeb54f9ec\n      eq\n      tag_27\n      jumpi\n      dup1\n      0xf2fde38b\n      eq\n      tag_28\n      jumpi\n      jump(tag_1)\n    tag_31:\n      dup1\n      0xc87b56dd\n      eq\n      tag_22\n      jumpi\n      dup1\n      0xcaf8a6d1\n      eq\n      tag_23\n      jumpi\n      dup1\n      0xd8258d95\n      eq\n      tag_24\n      jumpi\n      jump(tag_1)\n    tag_30:\n      dup1\n      0x8da5cb5b\n      gt\n      tag_32\n      jumpi\n      dup1\n      0x8da5cb5b\n      eq\n      tag_18\n      jumpi\n      dup1\n      0x95d89b41\n      eq\n      tag_19\n      jumpi\n      dup1\n      0xa22cb465\n      eq\n      tag_20\n      jumpi\n      dup1\n      0xb88d4fde\n      eq\n      tag_21\n      jumpi\n      jump(tag_1)\n    tag_32:\n      dup1\n      0x70a08231\n      eq\n      tag_15\n      jumpi\n      dup1\n      0x715018a6\n      eq\n      tag_16\n      jumpi\n      dup1\n      0x7a1c4a56\n      eq\n      tag_17\n      jumpi\n      jump(tag_1)\n    tag_29:\n      dup1\n      0x23b872dd\n      gt\n      tag_33\n      jumpi\n      dup1\n      0x4bd25c6f\n      gt\n      tag_34\n      jumpi\n      dup1\n      0x4bd25c6f\n      eq\n      tag_11\n      jumpi\n      dup1\n      0x4d3554c3\n      eq\n      tag_12\n      jumpi\n      dup1\n      0x59f369fe\n      eq\n      tag_13\n      jumpi\n      dup1\n      0x6352211e\n      eq\n      tag_14\n      jumpi\n      jump(tag_1)\n    tag_34:\n      dup1\n      0x23b872dd\n      eq\n      tag_8\n      jumpi\n      dup1\n      0x4047f289\n      eq\n      tag_9\n      jumpi\n      dup1\n      0x42842e0e\n      eq\n      tag_10\n      jumpi\n      jump(tag_1)\n    tag_33:\n      dup1\n      0x01ffc9a7\n      eq\n      tag_2\n      jumpi\n      dup1\n      0x0697346f\n      eq\n      tag_3\n      jumpi\n      dup1\n      0x06fdde03\n      eq\n      tag_4\n      jumpi\n      dup1\n      0x081812fc\n      eq\n      tag_5\n      jumpi\n      dup1\n      0x095ea7b3\n      eq\n      tag_6\n      jumpi\n      dup1\n      0x18160ddd\n      eq\n      tag_7\n      jumpi\n    tag_1:\n      0x00\n      dup1\n      revert\n        /* \"contracts/ERC721.sol\":1645:1891  function supportsInterface(bytes4 interfaceId) external pure override returns(bool) {... */\n    tag_2:\n      callvalue\n      dup1\n      iszero\n      tag_35\n      jumpi\n      0x00\n      dup1\n      revert\n    tag_35:\n      pop\n      tag_36\n      0x04\n      dup1\n      calldatasize\n      sub\n      dup2\n      add\n      swap1\n      tag_37\n      swap2\n      swap1\n      tag_38\n      jump\t// in\n    tag_37:\n      tag_39\n      jump\t// in\n    tag_36:\n      mload(0x40)\n      tag_40\n      swap2\n      swap1\n      tag_41\n      jump\t// in\n    tag_40:\n      mload(0x40)\n      dup1\n      swap2\n      sub\n      swap1\n      return\n        /* \"contracts/DutchAuction.sol\":2787:2900  function setAuctionStartTime(uint32 timestamp) external onlyOwner {... */\n    tag_3:\n      callvalue\n      dup1\n      iszero\n      tag_42\n      jumpi\n      0x00\n      dup1\n      revert\n    tag_42:\n      pop\n      tag_43\n      0x04\n      dup1\n      calldatasize\n      sub\n      dup2\n      add\n      swap1\n      tag_44\n      swap2\n      swap1\n      tag_45\n      jump\t// in\n    tag_44:\n      tag_46\n      jump\t// in\n    tag_43:\n      stop\n        /* \"contracts/ERC721.sol\":614:632  string public name */\n    tag_4:\n      callvalue\n      dup1\n      iszero\n      tag_47\n      jumpi\n      0x00\n      dup1\n      revert\n    tag_47:\n      pop\n      tag_48\n      tag_49\n      jump\t// in\n    tag_48:\n      mload(0x40)\n      tag_50\n      swap2\n      swap1\n      tag_51\n      jump\t// in\n    tag_50:\n      mload(0x40)\n      dup1\n      swap2\n      sub\n      swap1\n      return\n        /* \"contracts/ERC721.sol\":2919:3186  function getApproved(uint tokenId) external view override returns(address) {... */\n    tag_5:\n      callvalue\n      dup1\n      iszero\n      tag_52\n      jumpi\n      0x00\n      dup1\n      revert\n    tag_52:\n      pop\n      tag_53\n      0x04\n      dup1\n      calldatasize\n      sub\n      dup2\n      add\n      swap1\n      tag_54\n      swap2\n      swap1\n      tag_55\n      jump\t// in\n    tag_54:\n      tag_56\n      jump\t// in\n    tag_53:\n      mload(0x40)\n      tag_57\n      swap2\n      swap1\n      tag_58\n      jump\t// in\n    tag_57:\n      mload(0x40)\n      dup1\n      swap2\n      sub\n      swap1\n      return\n        /* \"contracts/ERC721.sol\":3215:4110  function approve(address to, uint tokenId) external override {... */\n    tag_6:\n      callvalue\n      dup1\n      iszero\n      tag_59\n      jumpi\n      0x00\n      dup1\n      revert\n    tag_59:\n      pop\n      tag_60\n      0x04\n      dup1\n      calldatasize\n      sub\n      dup2\n      add\n      swap1\n      tag_61\n      swap2\n      swap1\n      tag_62\n      jump\t// in\n    tag_61:\n      tag_63\n      jump\t// in\n    tag_60:\n      stop\n        /* \"contracts/DutchAuction.sol\":1311:1414  function totalSupply() public view virtual returns(uint256) {... */\n    tag_7:\n      callvalue\n      dup1\n      iszero\n      tag_64\n      jumpi\n      0x00\n      dup1\n      revert\n    tag_64:\n      pop\n      tag_65\n      tag_66\n      jump\t// in\n    tag_65:\n      mload(0x40)\n      tag_67\n      swap2\n      swap1\n      tag_68\n      jump\t// in\n    tag_67:\n      mload(0x40)\n      dup1\n      swap2\n      sub\n      swap1\n      return\n        /* \"contracts/ERC721.sol\":4696:5046  function transferFrom(address from, address to, uint tokenId) external override {... */\n    tag_8:\n      callvalue\n      dup1\n      iszero\n      tag_69\n      jumpi\n      0x00\n      dup1\n      revert\n    tag_69:\n      pop\n      tag_70\n      0x04\n      dup1\n      calldatasize\n      sub\n      dup2\n      add\n      swap1\n      tag_71\n      swap2\n      swap1\n      tag_72\n      jump\t// in\n    tag_71:\n      tag_73\n      jump\t// in\n    tag_70:\n      stop\n        /* \"contracts/DutchAuction.sol\":545:607  uint256 public constant AUCTION_DROP_TIME_INTERVAL = 1 minutes */\n    tag_9:\n      callvalue\n      dup1\n      iszero\n      tag_74\n      jumpi\n      0x00\n      dup1\n      revert\n    tag_74:\n      pop\n      tag_75\n      tag_76\n      jump\t// in\n    tag_75:\n      mload(0x40)\n      tag_77\n      swap2\n      swap1\n      tag_68\n      jump\t// in\n    tag_77:\n      mload(0x40)\n      dup1\n      swap2\n      sub\n      swap1\n      return\n        /* \"contracts/ERC721.sol\":6234:6376  function safeTransferFrom(address from, address to, uint tokenId) external override {... */\n    tag_10:\n      callvalue\n      dup1\n      iszero\n      tag_78\n      jumpi\n      0x00\n      dup1\n      revert\n    tag_78:\n      pop\n      tag_79\n      0x04\n      dup1\n      calldatasize\n      sub\n      dup2\n      add\n      swap1\n      tag_80\n      swap2\n      swap1\n      tag_72\n      jump\t// in\n    tag_80:\n      tag_81\n      jump\t// in\n    tag_79:\n      stop\n        /* \"contracts/DutchAuction.sol\":2230:2710  function getAuctionPrice() public view returns(uint256) {... */\n    tag_11:\n      callvalue\n      dup1\n      iszero\n      tag_82\n      jumpi\n      0x00\n      dup1\n      revert\n    tag_82:\n      pop\n      tag_83\n      tag_84\n      jump\t// in\n    tag_83:\n      mload(0x40)\n      tag_85\n      swap2\n      swap1\n      tag_68\n      jump\t// in\n    tag_85:\n      mload(0x40)\n      dup1\n      swap2\n      sub\n      swap1\n      return\n        /* \"contracts/DutchAuction.sol\":1606:2195  function auctionMint(uint256 quantity) external payable {... */\n    tag_12:\n      tag_86\n      0x04\n      dup1\n      calldatasize\n      sub\n      dup2\n      add\n      swap1\n      tag_87\n      swap2\n      swap1\n      tag_55\n      jump\t// in\n    tag_87:\n      tag_88\n      jump\t// in\n    tag_86:\n      stop\n        /* \"contracts/DutchAuction.sol\":719:854  uint256 public constant AUCTION_DROP_PER_STEP = (AUCTION_START_PRICE - AUCTION_END_PRICE) / (AUCTION_TIME / AUCTION_DROP_TIME_INTERVAL) */\n    tag_13:\n      callvalue\n      dup1\n      iszero\n      tag_89\n      jumpi\n      0x00\n      dup1\n      revert\n    tag_89:\n      pop\n      tag_90\n      tag_91\n      jump\t// in\n    tag_90:\n      mload(0x40)\n      tag_92\n      swap2\n      swap1\n      tag_68\n      jump\t// in\n    tag_92:\n      mload(0x40)\n      dup1\n      swap2\n      sub\n      swap1\n      return\n        /* \"contracts/ERC721.sol\":2152:2375  function ownerOf(uint256 tokenId) external view override returns(address owner) {... */\n    tag_14:\n      callvalue\n      dup1\n      iszero\n      tag_93\n      jumpi\n      0x00\n      dup1\n      revert\n    tag_93:\n      pop\n      tag_94\n      0x04\n      dup1\n      calldatasize\n      sub\n      dup2\n      add\n      swap1\n      tag_95\n      swap2\n      swap1\n      tag_55\n      jump\t// in\n    tag_95:\n      tag_96\n      jump\t// in\n    tag_94:\n      mload(0x40)\n      tag_97\n      swap2\n      swap1\n      tag_58\n      jump\t// in\n    tag_97:\n      mload(0x40)\n      dup1\n      swap2\n      sub\n      swap1\n      return\n        /* \"contracts/ERC721.sol\":1920:2111  function balanceOf(address owner) external view override returns(uint256) {... */\n    tag_15:\n      callvalue\n      dup1\n      iszero\n      tag_98\n      jumpi\n      0x00\n      dup1\n      revert\n    tag_98:\n      pop\n      tag_99\n      0x04\n      dup1\n      calldatasize\n      sub\n      dup2\n      add\n      swap1\n      tag_100\n      swap2\n      swap1\n      tag_101\n      jump\t// in\n    tag_100:\n      tag_102\n      jump\t// in\n    tag_99:\n      mload(0x40)\n      tag_103\n      swap2\n      swap1\n      tag_68\n      jump\t// in\n    tag_103:\n      mload(0x40)\n      dup1\n      swap2\n      sub\n      swap1\n      return\n        /* \"contracts/abstractContract/Ownable.sol\":2304:2407  function renounceOwnership() public virtual onlyOwner {... */\n    tag_16:\n      callvalue\n      dup1\n      iszero\n      tag_104\n      jumpi\n      0x00\n      dup1\n      revert\n    tag_104:\n      pop\n      tag_105\n      tag_106\n      jump\t// in\n    tag_105:\n      stop\n        /* \"contracts/DutchAuction.sol\":270:323  uint256 public constant AUCTION_START_PRICE = 1 ether */\n    tag_17:\n      callvalue\n      dup1\n      iszero\n      tag_107\n      jumpi\n      0x00\n      dup1\n      revert\n    tag_107:\n      pop\n      tag_108\n      tag_109\n      jump\t// in\n    tag_108:\n      mload(0x40)\n      tag_110\n      swap2\n      swap1\n      tag_68\n      jump\t// in\n    tag_110:\n      mload(0x40)\n      dup1\n      swap2\n      sub\n      swap1\n      return\n        /* \"contracts/abstractContract/Ownable.sol\":1633:1720  function owner() public view virtual returns (address) {... */\n    tag_18:\n      callvalue\n      dup1\n      iszero\n      tag_111\n      jumpi\n      0x00\n      dup1\n      revert\n    tag_111:\n      pop\n      tag_112\n      tag_113\n      jump\t// in\n    tag_112:\n      mload(0x40)\n      tag_114\n      swap2\n      swap1\n      tag_58\n      jump\t// in\n    tag_114:\n      mload(0x40)\n      dup1\n      swap2\n      sub\n      swap1\n      return\n        /* \"contracts/ERC721.sol\":656:676  string public symbol */\n    tag_19:\n      callvalue\n      dup1\n      iszero\n      tag_115\n      jumpi\n      0x00\n      dup1\n      revert\n    tag_115:\n      pop\n      tag_116\n      tag_117\n      jump\t// in\n    tag_116:\n      mload(0x40)\n      tag_118\n      swap2\n      swap1\n      tag_51\n      jump\t// in\n    tag_118:\n      mload(0x40)\n      dup1\n      swap2\n      sub\n      swap1\n      return\n        /* \"contracts/ERC721.sol\":2658:2864  function setApprovalForAll(address operator, bool approved) external override {... */\n    tag_20:\n      callvalue\n      dup1\n      iszero\n      tag_119\n      jumpi\n      0x00\n      dup1\n      revert\n    tag_119:\n      pop\n      tag_120\n      0x04\n      dup1\n      calldatasize\n      sub\n      dup2\n      add\n      swap1\n      tag_121\n      swap2\n      swap1\n      tag_122\n      jump\t// in\n    tag_121:\n      tag_123\n      jump\t// in\n    tag_120:\n      stop\n        /* \"contracts/ERC721.sol\":5876:6205  function safeTransferFrom(address from, address to, uint tokenId, bytes memory data) public override {... */\n    tag_21:\n      callvalue\n      dup1\n      iszero\n      tag_124\n      jumpi\n      0x00\n      dup1\n      revert\n    tag_124:\n      pop\n      tag_125\n      0x04\n      dup1\n      calldatasize\n      sub\n      dup2\n      add\n      swap1\n      tag_126\n      swap2\n      swap1\n      tag_127\n      jump\t// in\n    tag_126:\n      tag_128\n      jump\t// in\n    tag_125:\n      stop\n        /* \"contracts/ERC721.sol\":8572:8888  function tokenURI(uint256 tokenId) public view virtual override returns (string memory) {... */\n    tag_22:\n      callvalue\n      dup1\n      iszero\n      tag_129\n      jumpi\n      0x00\n      dup1\n      revert\n    tag_129:\n      pop\n      tag_130\n      0x04\n      dup1\n      calldatasize\n      sub\n      dup2\n      add\n      swap1\n      tag_131\n      swap2\n      swap1\n      tag_55\n      jump\t// in\n    tag_131:\n      tag_132\n      jump\t// in\n    tag_130:\n      mload(0x40)\n      tag_133\n      swap2\n      swap1\n      tag_51\n      jump\t// in\n    tag_133:\n      mload(0x40)\n      dup1\n      swap2\n      sub\n      swap1\n      return\n        /* \"contracts/DutchAuction.sol\":350:403  uint256 public constant AUCTION_END_PRICE = 0.1 ether */\n    tag_23:\n      callvalue\n      dup1\n      iszero\n      tag_134\n      jumpi\n      0x00\n      dup1\n      revert\n    tag_134:\n      pop\n      tag_135\n      tag_136\n      jump\t// in\n    tag_135:\n      mload(0x40)\n      tag_137\n      swap2\n      swap1\n      tag_68\n      jump\t// in\n    tag_137:\n      mload(0x40)\n      dup1\n      swap2\n      sub\n      swap1\n      return\n        /* \"contracts/DutchAuction.sol\":196:243  uint256 public constant COLLECTION_SIZE = 10000 */\n    tag_24:\n      callvalue\n      dup1\n      iszero\n      tag_138\n      jumpi\n      0x00\n      dup1\n      revert\n    tag_138:\n      pop\n      tag_139\n      tag_140\n      jump\t// in\n    tag_139:\n      mload(0x40)\n      tag_141\n      swap2\n      swap1\n      tag_68\n      jump\t// in\n    tag_141:\n      mload(0x40)\n      dup1\n      swap2\n      sub\n      swap1\n      return\n        /* \"contracts/DutchAuction.sol\":433:482  uint256 public constant AUCTION_TIME = 10 minutes */\n    tag_25:\n      callvalue\n      dup1\n      iszero\n      tag_142\n      jumpi\n      0x00\n      dup1\n      revert\n    tag_142:\n      pop\n      tag_143\n      tag_144\n      jump\t// in\n    tag_143:\n      mload(0x40)\n      tag_145\n      swap2\n      swap1\n      tag_68\n      jump\t// in\n    tag_145:\n      mload(0x40)\n      dup1\n      swap2\n      sub\n      swap1\n      return\n        /* \"contracts/ERC721.sol\":2434:2591  function isApprovedForAll(address owner, address operator) external view override returns(bool) {... */\n    tag_26:\n      callvalue\n      dup1\n      iszero\n      tag_146\n      jumpi\n      0x00\n      dup1\n      revert\n    tag_146:\n      pop\n      tag_147\n      0x04\n      dup1\n      calldatasize\n      sub\n      dup2\n      add\n      swap1\n      tag_148\n      swap2\n      swap1\n      tag_149\n      jump\t// in\n    tag_148:\n      tag_150\n      jump\t// in\n    tag_147:\n      mload(0x40)\n      tag_151\n      swap2\n      swap1\n      tag_41\n      jump\t// in\n    tag_151:\n      mload(0x40)\n      dup1\n      swap2\n      sub\n      swap1\n      return\n        /* \"contracts/DutchAuction.sol\":893:924  uint256 public auctionStartTime */\n    tag_27:\n      callvalue\n      dup1\n      iszero\n      tag_152\n      jumpi\n      0x00\n      dup1\n      revert\n    tag_152:\n      pop\n      tag_153\n      tag_154\n      jump\t// in\n    tag_153:\n      mload(0x40)\n      tag_155\n      swap2\n      swap1\n      tag_68\n      jump\t// in\n    tag_155:\n      mload(0x40)\n      dup1\n      swap2\n      sub\n      swap1\n      return\n        /* \"contracts/abstractContract/Ownable.sol\":2562:2782  function transferOwnership(address newOwner) public virtual onlyOwner {... */\n    tag_28:\n      callvalue\n      dup1\n      iszero\n      tag_156\n      jumpi\n      0x00\n      dup1\n      revert\n    tag_156:\n      pop\n      tag_157\n      0x04\n      dup1\n      calldatasize\n      sub\n      dup2\n      add\n      swap1\n      tag_158\n      swap2\n      swap1\n      tag_101\n      jump\t// in\n    tag_158:\n      tag_159\n      jump\t// in\n    tag_157:\n      stop\n        /* \"contracts/ERC721.sol\":1645:1891  function supportsInterface(bytes4 interfaceId) external pure override returns(bool) {... */\n    tag_39:\n        /* \"contracts/ERC721.sol\":1723:1727  bool */\n      0x00\n        /* \"contracts/ERC721.sol\":1762:1787  type(IERC721).interfaceId */\n      0x80ac58cd00000000000000000000000000000000000000000000000000000000\n        /* \"contracts/ERC721.sol\":1747:1787  interfaceId == type(IERC721).interfaceId */\n      not(0xffffffffffffffffffffffffffffffffffffffffffffffffffffffff)\n      and\n        /* \"contracts/ERC721.sol\":1747:1758  interfaceId */\n      dup3\n        /* \"contracts/ERC721.sol\":1747:1787  interfaceId == type(IERC721).interfaceId */\n      not(0xffffffffffffffffffffffffffffffffffffffffffffffffffffffff)\n      and\n      eq\n        /* \"contracts/ERC721.sol\":1747:1831  interfaceId == type(IERC721).interfaceId || interfaceId == type(IERC165).interfaceId */\n      dup1\n      tag_161\n      jumpi\n      pop\n        /* \"contracts/ERC721.sol\":1806:1831  type(IERC165).interfaceId */\n      0x01ffc9a700000000000000000000000000000000000000000000000000000000\n        /* \"contracts/ERC721.sol\":1791:1831  interfaceId == type(IERC165).interfaceId */\n      not(0xffffffffffffffffffffffffffffffffffffffffffffffffffffffff)\n      and\n        /* \"contracts/ERC721.sol\":1791:1802  interfaceId */\n      dup3\n        /* \"contracts/ERC721.sol\":1791:1831  interfaceId == type(IERC165).interfaceId */\n      not(0xffffffffffffffffffffffffffffffffffffffffffffffffffffffff)\n      and\n      eq\n        /* \"contracts/ERC721.sol\":1747:1831  interfaceId == type(IERC721).interfaceId || interfaceId == type(IERC165).interfaceId */\n    tag_161:\n        /* \"contracts/ERC721.sol\":1747:1883  interfaceId == type(IERC721).interfaceId || interfaceId == type(IERC165).interfaceId || interfaceId == type(IERC721Metadata).interfaceId */\n      dup1\n      tag_162\n      jumpi\n      pop\n        /* \"contracts/ERC721.sol\":1850:1883  type(IERC721Metadata).interfaceId */\n      0x5b5e139f00000000000000000000000000000000000000000000000000000000\n        /* \"contracts/ERC721.sol\":1835:1883  interfaceId == type(IERC721Metadata).interfaceId */\n      not(0xffffffffffffffffffffffffffffffffffffffffffffffffffffffff)\n      and\n        /* \"contracts/ERC721.sol\":1835:1846  interfaceId */\n      dup3\n        /* \"contracts/ERC721.sol\":1835:1883  interfaceId == type(IERC721Metadata).interfaceId */\n      not(0xffffffffffffffffffffffffffffffffffffffffffffffffffffffff)\n      and\n      eq\n        /* \"contracts/ERC721.sol\":1747:1883  interfaceId == type(IERC721).interfaceId || interfaceId == type(IERC165).interfaceId || interfaceId == type(IERC721Metadata).interfaceId */\n    tag_162:\n        /* \"contracts/ERC721.sol\":1740:1883  return interfaceId == type(IERC721).interfaceId || interfaceId == type(IERC165).interfaceId || interfaceId == type(IERC721Metadata).interfaceId */\n      swap1\n      pop\n        /* \"contracts/ERC721.sol\":1645:1891  function supportsInterface(bytes4 interfaceId) external pure override returns(bool) {... */\n      swap2\n      swap1\n      pop\n      jump\t// out\n        /* \"contracts/DutchAuction.sol\":2787:2900  function setAuctionStartTime(uint32 timestamp) external onlyOwner {... */\n    tag_46:\n        /* \"contracts/abstractContract/Ownable.sol\":1519:1532  _checkOwner() */\n      tag_164\n        /* \"contracts/abstractContract/Ownable.sol\":1519:1530  _checkOwner */\n      tag_165\n        /* \"contracts/abstractContract/Ownable.sol\":1519:1532  _checkOwner() */\n      jump\t// in\n    tag_164:\n        /* \"contracts/DutchAuction.sol\":2883:2892  timestamp */\n      dup1\n        /* \"contracts/DutchAuction.sol\":2864:2892  auctionStartTime = timestamp */\n      0xffffffff\n      and\n        /* \"contracts/DutchAuction.sol\":2864:2880  auctionStartTime */\n      0x07\n        /* \"contracts/DutchAuction.sol\":2864:2892  auctionStartTime = timestamp */\n      dup2\n      swap1\n      sstore\n      pop\n        /* \"contracts/DutchAuction.sol\":2787:2900  function setAuctionStartTime(uint32 timestamp) external onlyOwner {... */\n      pop\n      jump\t// out\n        /* \"contracts/ERC721.sol\":614:632  string public name */\n    tag_49:\n      0x01\n      dup1\n      sload\n      tag_167\n      swap1\n      tag_168\n      jump\t// in\n    tag_167:\n      dup1\n      0x1f\n      add\n      0x20\n      dup1\n      swap2\n      div\n      mul\n      0x20\n      add\n      mload(0x40)\n      swap1\n      dup2\n      add\n      0x40\n      mstore\n      dup1\n      swap3\n      swap2\n      swap1\n      dup2\n      dup2\n      mstore\n      0x20\n      add\n      dup3\n      dup1\n      sload\n      tag_169\n      swap1\n      tag_168\n      jump\t// in\n    tag_169:\n      dup1\n      iszero\n      tag_170\n      jumpi\n      dup1\n      0x1f\n      lt\n      tag_171\n      jumpi\n      0x0100\n      dup1\n      dup4\n      sload\n      div\n      mul\n      dup4\n      mstore\n      swap2\n      0x20\n      add\n      swap2\n      jump(tag_170)\n    tag_171:\n      dup3\n      add\n      swap2\n      swap1\n      0x00\n      mstore\n      keccak256(0x00, 0x20)\n      swap1\n    tag_172:\n      dup2\n      sload\n      dup2\n      mstore\n      swap1\n      0x01\n      add\n      swap1\n      0x20\n      add\n      dup1\n      dup4\n      gt\n      tag_172\n      jumpi\n      dup3\n      swap1\n      sub\n      0x1f\n      and\n      dup3\n      add\n      swap2\n    tag_170:\n      pop\n      pop\n      pop\n      pop\n      pop\n      dup2\n      jump\t// out\n        /* \"contracts/ERC721.sol\":2919:3186  function getApproved(uint tokenId) external view override returns(address) {... */\n    tag_56:\n        /* \"contracts/ERC721.sol\":2985:2992  address */\n      0x00\n        /* \"contracts/ERC721.sol\":3104:3105  0 */\n      dup1\n        /* \"contracts/ERC721.sol\":3076:3106  _owners[tokenId] != address(0) */\n      0xffffffffffffffffffffffffffffffffffffffff\n      and\n        /* \"contracts/ERC721.sol\":3076:3083  _owners */\n      0x03\n        /* \"contracts/ERC721.sol\":3076:3092  _owners[tokenId] */\n      0x00\n        /* \"contracts/ERC721.sol\":3084:3091  tokenId */\n      dup5\n        /* \"contracts/ERC721.sol\":3076:3092  _owners[tokenId] */\n      dup2\n      mstore\n      0x20\n      add\n      swap1\n      dup2\n      mstore\n      0x20\n      add\n      0x00\n      keccak256\n      0x00\n      swap1\n      sload\n      swap1\n      0x0100\n      exp\n      swap1\n      div\n      0xffffffffffffffffffffffffffffffffffffffff\n      and\n        /* \"contracts/ERC721.sol\":3076:3106  _owners[tokenId] != address(0) */\n      0xffffffffffffffffffffffffffffffffffffffff\n      and\n      sub\n        /* \"contracts/ERC721.sol\":3068:3134  require(_owners[tokenId] != address(0), \"token does not exist!!!\") */\n      tag_174\n      jumpi\n      mload(0x40)\n      0x08c379a000000000000000000000000000000000000000000000000000000000\n      dup2\n      mstore\n      0x04\n      add\n      tag_175\n      swap1\n      tag_176\n      jump\t// in\n    tag_175:\n      mload(0x40)\n      dup1\n      swap2\n      sub\n      swap1\n      revert\n    tag_174:\n        /* \"contracts/ERC721.sol\":3152:3169  _tokenIdApprovals */\n      0x05\n        /* \"contracts/ERC721.sol\":3152:3178  _tokenIdApprovals[tokenId] */\n      0x00\n        /* \"contracts/ERC721.sol\":3170:3177  tokenId */\n      dup4\n        /* \"contracts/ERC721.sol\":3152:3178  _tokenIdApprovals[tokenId] */\n      dup2\n      mstore\n      0x20\n      add\n      swap1\n      dup2\n      mstore\n      0x20\n      add\n      0x00\n      keccak256\n      0x00\n      swap1\n      sload\n      swap1\n      0x0100\n      exp\n      swap1\n      div\n      0xffffffffffffffffffffffffffffffffffffffff\n      and\n        /* \"contracts/ERC721.sol\":3145:3178  return _tokenIdApprovals[tokenId] */\n      swap1\n      pop\n        /* \"contracts/ERC721.sol\":2919:3186  function getApproved(uint tokenId) external view override returns(address) {... */\n      swap2\n      swap1\n      pop\n      jump\t// out\n        /* \"contracts/ERC721.sol\":3215:4110  function approve(address to, uint tokenId) external override {... */\n    tag_63:\n        /* \"contracts/ERC721.sol\":3848:3861  address owner */\n      0x00\n        /* \"contracts/ERC721.sol\":3864:3871  _owners */\n      0x03\n        /* \"contracts/ERC721.sol\":3864:3880  _owners[tokenId] */\n      0x00\n        /* \"contracts/ERC721.sol\":3872:3879  tokenId */\n      dup4\n        /* \"contracts/ERC721.sol\":3864:3880  _owners[tokenId] */\n      dup2\n      mstore\n      0x20\n      add\n      swap1\n      dup2\n      mstore\n      0x20\n      add\n      0x00\n      keccak256\n      0x00\n      swap1\n      sload\n      swap1\n      0x0100\n      exp\n      swap1\n      div\n      0xffffffffffffffffffffffffffffffffffffffff\n      and\n        /* \"contracts/ERC721.sol\":3848:3880  address owner = _owners[tokenId] */\n      swap1\n      pop\n        /* \"contracts/ERC721.sol\":3974:3984  msg.sender */\n      caller\n        /* \"contracts/ERC721.sol\":3965:3984  owner == msg.sender */\n      0xffffffffffffffffffffffffffffffffffffffff\n      and\n        /* \"contracts/ERC721.sol\":3965:3970  owner */\n      dup2\n        /* \"contracts/ERC721.sol\":3965:3984  owner == msg.sender */\n      0xffffffffffffffffffffffffffffffffffffffff\n      and\n      eq\n        /* \"contracts/ERC721.sol\":3965:4025  owner == msg.sender || _operatorApprovals[owner][msg.sender] */\n      dup1\n      tag_178\n      jumpi\n      pop\n        /* \"contracts/ERC721.sol\":3988:4006  _operatorApprovals */\n      0x06\n        /* \"contracts/ERC721.sol\":3988:4013  _operatorApprovals[owner] */\n      0x00\n        /* \"contracts/ERC721.sol\":4007:4012  owner */\n      dup3\n        /* \"contracts/ERC721.sol\":3988:4013  _operatorApprovals[owner] */\n      0xffffffffffffffffffffffffffffffffffffffff\n      and\n      0xffffffffffffffffffffffffffffffffffffffff\n      and\n      dup2\n      mstore\n      0x20\n      add\n      swap1\n      dup2\n      mstore\n      0x20\n      add\n      0x00\n      keccak256\n        /* \"contracts/ERC721.sol\":3988:4025  _operatorApprovals[owner][msg.sender] */\n      0x00\n        /* \"contracts/ERC721.sol\":4014:4024  msg.sender */\n      caller\n        /* \"contracts/ERC721.sol\":3988:4025  _operatorApprovals[owner][msg.sender] */\n      0xffffffffffffffffffffffffffffffffffffffff\n      and\n      0xffffffffffffffffffffffffffffffffffffffff\n      and\n      dup2\n      mstore\n      0x20\n      add\n      swap1\n      dup2\n      mstore\n      0x20\n      add\n      0x00\n      keccak256\n      0x00\n      swap1\n      sload\n      swap1\n      0x0100\n      exp\n      swap1\n      div\n      0xff\n      and\n        /* \"contracts/ERC721.sol\":3965:4025  owner == msg.sender || _operatorApprovals[owner][msg.sender] */\n    tag_178:\n        /* \"contracts/ERC721.sol\":3957:4061  require(owner == msg.sender || _operatorApprovals[owner][msg.sender], \"invalid call function 'approve'\") */\n      tag_179\n      jumpi\n      mload(0x40)\n      0x08c379a000000000000000000000000000000000000000000000000000000000\n      dup2\n      mstore\n      0x04\n      add\n      tag_180\n      swap1\n      tag_181\n      jump\t// in\n    tag_180:\n      mload(0x40)\n      dup1\n      swap2\n      sub\n      swap1\n      revert\n    tag_179:\n        /* \"contracts/ERC721.sol\":4074:4102  _approve(owner, to, tokenId) */\n      tag_182\n        /* \"contracts/ERC721.sol\":4083:4088  owner */\n      dup2\n        /* \"contracts/ERC721.sol\":4090:4092  to */\n      dup5\n        /* \"contracts/ERC721.sol\":4094:4101  tokenId */\n      dup5\n        /* \"contracts/ERC721.sol\":4074:4082  _approve */\n      tag_183\n        /* \"contracts/ERC721.sol\":4074:4102  _approve(owner, to, tokenId) */\n      jump\t// in\n    tag_182:\n        /* \"contracts/ERC721.sol\":3276:4110  {... */\n      pop\n        /* \"contracts/ERC721.sol\":3215:4110  function approve(address to, uint tokenId) external override {... */\n      pop\n      pop\n      jump\t// out\n        /* \"contracts/DutchAuction.sol\":1311:1414  function totalSupply() public view virtual returns(uint256) {... */\n    tag_66:\n        /* \"contracts/DutchAuction.sol\":1362:1369  uint256 */\n      0x00\n        /* \"contracts/DutchAuction.sol\":1389:1399  _allTokens */\n      0x09\n        /* \"contracts/DutchAuction.sol\":1389:1406  _allTokens.length */\n      dup1\n      sload\n      swap1\n      pop\n        /* \"contracts/DutchAuction.sol\":1382:1406  return _allTokens.length */\n      swap1\n      pop\n        /* \"contracts/DutchAuction.sol\":1311:1414  function totalSupply() public view virtual returns(uint256) {... */\n      swap1\n      jump\t// out\n        /* \"contracts/ERC721.sol\":4696:5046  function transferFrom(address from, address to, uint tokenId) external override {... */\n    tag_73:\n        /* \"contracts/ERC721.sol\":4842:4855  address owner */\n      0x00\n        /* \"contracts/ERC721.sol\":4858:4865  _owners */\n      0x03\n        /* \"contracts/ERC721.sol\":4858:4874  _owners[tokenId] */\n      0x00\n        /* \"contracts/ERC721.sol\":4866:4873  tokenId */\n      dup4\n        /* \"contracts/ERC721.sol\":4858:4874  _owners[tokenId] */\n      dup2\n      mstore\n      0x20\n      add\n      swap1\n      dup2\n      mstore\n      0x20\n      add\n      0x00\n      keccak256\n      0x00\n      swap1\n      sload\n      swap1\n      0x0100\n      exp\n      swap1\n      div\n      0xffffffffffffffffffffffffffffffffffffffff\n      and\n        /* \"contracts/ERC721.sol\":4842:4874  address owner = _owners[tokenId] */\n      swap1\n      pop\n        /* \"contracts/ERC721.sol\":4893:4939  _isApprovedOrOwner(owner, msg.sender, tokenId) */\n      tag_186\n        /* \"contracts/ERC721.sol\":4912:4917  owner */\n      dup2\n        /* \"contracts/ERC721.sol\":4919:4929  msg.sender */\n      caller\n        /* \"contracts/ERC721.sol\":4931:4938  tokenId */\n      dup5\n        /* \"contracts/ERC721.sol\":4893:4911  _isApprovedOrOwner */\n      tag_187\n        /* \"contracts/ERC721.sol\":4893:4939  _isApprovedOrOwner(owner, msg.sender, tokenId) */\n      jump\t// in\n    tag_186:\n        /* \"contracts/ERC721.sol\":4885:4965  require(_isApprovedOrOwner(owner, msg.sender, tokenId), \"not owner or approved\") */\n      tag_188\n      jumpi\n      mload(0x40)\n      0x08c379a000000000000000000000000000000000000000000000000000000000\n      dup2\n      mstore\n      0x04\n      add\n      tag_189\n      swap1\n      tag_190\n      jump\t// in\n    tag_189:\n      mload(0x40)\n      dup1\n      swap2\n      sub\n      swap1\n      revert\n    tag_188:\n        /* \"contracts/ERC721.sol\":5003:5038  _transfer(owner, from, to, tokenId) */\n      tag_191\n        /* \"contracts/ERC721.sol\":5013:5018  owner */\n      dup2\n        /* \"contracts/ERC721.sol\":5020:5024  from */\n      dup6\n        /* \"contracts/ERC721.sol\":5026:5028  to */\n      dup6\n        /* \"contracts/ERC721.sol\":5030:5037  tokenId */\n      dup6\n        /* \"contracts/ERC721.sol\":5003:5012  _transfer */\n      tag_192\n        /* \"contracts/ERC721.sol\":5003:5038  _transfer(owner, from, to, tokenId) */\n      jump\t// in\n    tag_191:\n        /* \"contracts/ERC721.sol\":4776:5046  {... */\n      pop\n        /* \"contracts/ERC721.sol\":4696:5046  function transferFrom(address from, address to, uint tokenId) external override {... */\n      pop\n      pop\n      pop\n      jump\t// out\n        /* \"contracts/DutchAuction.sol\":545:607  uint256 public constant AUCTION_DROP_TIME_INTERVAL = 1 minutes */\n    tag_76:\n        /* \"contracts/DutchAuction.sol\":598:607  1 minutes */\n      0x3c\n        /* \"contracts/DutchAuction.sol\":545:607  uint256 public constant AUCTION_DROP_TIME_INTERVAL = 1 minutes */\n      dup2\n      jump\t// out\n        /* \"contracts/ERC721.sol\":6234:6376  function safeTransferFrom(address from, address to, uint tokenId) external override {... */\n    tag_81:\n        /* \"contracts/ERC721.sol\":6329:6368  safeTransferFrom(from, to, tokenId, \"\") */\n      tag_194\n        /* \"contracts/ERC721.sol\":6346:6350  from */\n      dup4\n        /* \"contracts/ERC721.sol\":6352:6354  to */\n      dup4\n        /* \"contracts/ERC721.sol\":6356:6363  tokenId */\n      dup4\n        /* \"contracts/ERC721.sol\":6329:6368  safeTransferFrom(from, to, tokenId, \"\") */\n      mload(0x40)\n      dup1\n      0x20\n      add\n      0x40\n      mstore\n      dup1\n      0x00\n      dup2\n      mstore\n      pop\n        /* \"contracts/ERC721.sol\":6329:6345  safeTransferFrom */\n      tag_128\n        /* \"contracts/ERC721.sol\":6329:6368  safeTransferFrom(from, to, tokenId, \"\") */\n      jump\t// in\n    tag_194:\n        /* \"contracts/ERC721.sol\":6234:6376  function safeTransferFrom(address from, address to, uint tokenId) external override {... */\n      pop\n      pop\n      pop\n      jump\t// out\n        /* \"contracts/DutchAuction.sol\":2230:2710  function getAuctionPrice() public view returns(uint256) {... */\n    tag_84:\n        /* \"contracts/DutchAuction.sol\":2277:2284  uint256 */\n      0x00\n        /* \"contracts/DutchAuction.sol\":2230:2710  function getAuctionPrice() public view returns(uint256) {... */\n      swap1\n      jump\t// out\n        /* \"contracts/DutchAuction.sol\":1606:2195  function auctionMint(uint256 quantity) external payable {... */\n    tag_88:\n        /* \"contracts/DutchAuction.sol\":1789:1814  uint256 _auctionStartTime */\n      0x00\n        /* \"contracts/DutchAuction.sol\":1817:1833  auctionStartTime */\n      sload(0x07)\n        /* \"contracts/DutchAuction.sol\":1789:1833  uint256 _auctionStartTime = auctionStartTime */\n      swap1\n      pop\n        /* \"contracts/DutchAuction.sol\":1662:2195  {... */\n      pop\n        /* \"contracts/DutchAuction.sol\":1606:2195  function auctionMint(uint256 quantity) external payable {... */\n      pop\n      jump\t// out\n        /* \"contracts/DutchAuction.sol\":719:854  uint256 public constant AUCTION_DROP_PER_STEP = (AUCTION_START_PRICE - AUCTION_END_PRICE) / (AUCTION_TIME / AUCTION_DROP_TIME_INTERVAL) */\n    tag_91:\n        /* \"contracts/DutchAuction.sol\":598:607  1 minutes */\n      0x3c\n        /* \"contracts/DutchAuction.sol\":472:482  10 minutes */\n      0x0258\n        /* \"contracts/DutchAuction.sol\":812:853  AUCTION_TIME / AUCTION_DROP_TIME_INTERVAL */\n      tag_197\n      swap2\n      swap1\n      tag_198\n      jump\t// in\n    tag_197:\n        /* \"contracts/DutchAuction.sol\":394:403  0.1 ether */\n      0x016345785d8a0000\n        /* \"contracts/DutchAuction.sol\":316:323  1 ether */\n      0x0de0b6b3a7640000\n        /* \"contracts/DutchAuction.sol\":768:807  AUCTION_START_PRICE - AUCTION_END_PRICE */\n      tag_199\n      swap2\n      swap1\n      tag_200\n      jump\t// in\n    tag_199:\n        /* \"contracts/DutchAuction.sol\":767:854  (AUCTION_START_PRICE - AUCTION_END_PRICE) / (AUCTION_TIME / AUCTION_DROP_TIME_INTERVAL) */\n      tag_201\n      swap2\n      swap1\n      tag_198\n      jump\t// in\n    tag_201:\n        /* \"contracts/DutchAuction.sol\":719:854  uint256 public constant AUCTION_DROP_PER_STEP = (AUCTION_START_PRICE - AUCTION_END_PRICE) / (AUCTION_TIME / AUCTION_DROP_TIME_INTERVAL) */\n      dup2\n      jump\t// out\n        /* \"contracts/ERC721.sol\":2152:2375  function ownerOf(uint256 tokenId) external view override returns(address owner) {... */\n    tag_96:\n        /* \"contracts/ERC721.sol\":2217:2230  address owner */\n      0x00\n        /* \"contracts/ERC721.sol\":2251:2258  _owners */\n      0x03\n        /* \"contracts/ERC721.sol\":2251:2267  _owners[tokenId] */\n      0x00\n        /* \"contracts/ERC721.sol\":2259:2266  tokenId */\n      dup4\n        /* \"contracts/ERC721.sol\":2251:2267  _owners[tokenId] */\n      dup2\n      mstore\n      0x20\n      add\n      swap1\n      dup2\n      mstore\n      0x20\n      add\n      0x00\n      keccak256\n      0x00\n      swap1\n      sload\n      swap1\n      0x0100\n      exp\n      swap1\n      div\n      0xffffffffffffffffffffffffffffffffffffffff\n      and\n        /* \"contracts/ERC721.sol\":2243:2267  owner = _owners[tokenId] */\n      swap1\n      pop\n        /* \"contracts/ERC721.sol\":2342:2343  0 */\n      0x00\n        /* \"contracts/ERC721.sol\":2325:2344  owner != address(0) */\n      0xffffffffffffffffffffffffffffffffffffffff\n      and\n        /* \"contracts/ERC721.sol\":2325:2330  owner */\n      dup2\n        /* \"contracts/ERC721.sol\":2325:2344  owner != address(0) */\n      0xffffffffffffffffffffffffffffffffffffffff\n      and\n      sub\n        /* \"contracts/ERC721.sol\":2317:2367  require(owner != address(0), \"token is not exist\") */\n      tag_203\n      jumpi\n      mload(0x40)\n      0x08c379a000000000000000000000000000000000000000000000000000000000\n      dup2\n      mstore\n      0x04\n      add\n      tag_204\n      swap1\n      tag_205\n      jump\t// in\n    tag_204:\n      mload(0x40)\n      dup1\n      swap2\n      sub\n      swap1\n      revert\n    tag_203:\n        /* \"contracts/ERC721.sol\":2152:2375  function ownerOf(uint256 tokenId) external view override returns(address owner) {... */\n      swap2\n      swap1\n      pop\n      jump\t// out\n        /* \"contracts/ERC721.sol\":1920:2111  function balanceOf(address owner) external view override returns(uint256) {... */\n    tag_102:\n        /* \"contracts/ERC721.sol\":1985:1992  uint256 */\n      0x00\n        /* \"contracts/ERC721.sol\":2030:2031  0 */\n      dup1\n        /* \"contracts/ERC721.sol\":2013:2032  owner != address(0) */\n      0xffffffffffffffffffffffffffffffffffffffff\n      and\n        /* \"contracts/ERC721.sol\":2013:2018  owner */\n      dup3\n        /* \"contracts/ERC721.sol\":2013:2032  owner != address(0) */\n      0xffffffffffffffffffffffffffffffffffffffff\n      and\n      sub\n        /* \"contracts/ERC721.sol\":2005:2069  require(owner != address(0), \"owner == ZeroAddress, is invalid\") */\n      tag_207\n      jumpi\n      mload(0x40)\n      0x08c379a000000000000000000000000000000000000000000000000000000000\n      dup2\n      mstore\n      0x04\n      add\n      tag_208\n      swap1\n      tag_209\n      jump\t// in\n    tag_208:\n      mload(0x40)\n      dup1\n      swap2\n      sub\n      swap1\n      revert\n    tag_207:\n        /* \"contracts/ERC721.sol\":2087:2096  _balances */\n      0x04\n        /* \"contracts/ERC721.sol\":2087:2103  _balances[owner] */\n      0x00\n        /* \"contracts/ERC721.sol\":2097:2102  owner */\n      dup4\n        /* \"contracts/ERC721.sol\":2087:2103  _balances[owner] */\n      0xffffffffffffffffffffffffffffffffffffffff\n      and\n      0xffffffffffffffffffffffffffffffffffffffff\n      and\n      dup2\n      mstore\n      0x20\n      add\n      swap1\n      dup2\n      mstore\n      0x20\n      add\n      0x00\n      keccak256\n      sload\n        /* \"contracts/ERC721.sol\":2080:2103  return _balances[owner] */\n      swap1\n      pop\n        /* \"contracts/ERC721.sol\":1920:2111  function balanceOf(address owner) external view override returns(uint256) {... */\n      swap2\n      swap1\n      pop\n      jump\t// out\n        /* \"contracts/abstractContract/Ownable.sol\":2304:2407  function renounceOwnership() public virtual onlyOwner {... */\n    tag_106:\n        /* \"contracts/abstractContract/Ownable.sol\":1519:1532  _checkOwner() */\n      tag_211\n        /* \"contracts/abstractContract/Ownable.sol\":1519:1530  _checkOwner */\n      tag_165\n        /* \"contracts/abstractContract/Ownable.sol\":1519:1532  _checkOwner() */\n      jump\t// in\n    tag_211:\n        /* \"contracts/abstractContract/Ownable.sol\":2369:2399  _transferOwnership(address(0)) */\n      tag_213\n        /* \"contracts/abstractContract/Ownable.sol\":2396:2397  0 */\n      0x00\n        /* \"contracts/abstractContract/Ownable.sol\":2369:2387  _transferOwnership */\n      tag_214\n        /* \"contracts/abstractContract/Ownable.sol\":2369:2399  _transferOwnership(address(0)) */\n      jump\t// in\n    tag_213:\n        /* \"contracts/abstractContract/Ownable.sol\":2304:2407  function renounceOwnership() public virtual onlyOwner {... */\n      jump\t// out\n        /* \"contracts/DutchAuction.sol\":270:323  uint256 public constant AUCTION_START_PRICE = 1 ether */\n    tag_109:\n        /* \"contracts/DutchAuction.sol\":316:323  1 ether */\n      0x0de0b6b3a7640000\n        /* \"contracts/DutchAuction.sol\":270:323  uint256 public constant AUCTION_START_PRICE = 1 ether */\n      dup2\n      jump\t// out\n        /* \"contracts/abstractContract/Ownable.sol\":1633:1720  function owner() public view virtual returns (address) {... */\n    tag_113:\n        /* \"contracts/abstractContract/Ownable.sol\":1679:1686  address */\n      0x00\n        /* \"contracts/abstractContract/Ownable.sol\":1706:1712  _owner */\n      dup1\n      0x00\n      swap1\n      sload\n      swap1\n      0x0100\n      exp\n      swap1\n      div\n      0xffffffffffffffffffffffffffffffffffffffff\n      and\n        /* \"contracts/abstractContract/Ownable.sol\":1699:1712  return _owner */\n      swap1\n      pop\n        /* \"contracts/abstractContract/Ownable.sol\":1633:1720  function owner() public view virtual returns (address) {... */\n      swap1\n      jump\t// out\n        /* \"contracts/ERC721.sol\":656:676  string public symbol */\n    tag_117:\n      0x02\n      dup1\n      sload\n      tag_216\n      swap1\n      tag_168\n      jump\t// in\n    tag_216:\n      dup1\n      0x1f\n      add\n      0x20\n      dup1\n      swap2\n      div\n      mul\n      0x20\n      add\n      mload(0x40)\n      swap1\n      dup2\n      add\n      0x40\n      mstore\n      dup1\n      swap3\n      swap2\n      swap1\n      dup2\n      dup2\n      mstore\n      0x20\n      add\n      dup3\n      dup1\n      sload\n      tag_217\n      swap1\n      tag_168\n      jump\t// in\n    tag_217:\n      dup1\n      iszero\n      tag_218\n      jumpi\n      dup1\n      0x1f\n      lt\n      tag_219\n      jumpi\n      0x0100\n      dup1\n      dup4\n      sload\n      div\n      mul\n      dup4\n      mstore\n      swap2\n      0x20\n      add\n      swap2\n      jump(tag_218)\n    tag_219:\n      dup3\n      add\n      swap2\n      swap1\n      0x00\n      mstore\n      keccak256(0x00, 0x20)\n      swap1\n    tag_220:\n      dup2\n      sload\n      dup2\n      mstore\n      swap1\n      0x01\n      add\n      swap1\n      0x20\n      add\n      dup1\n      dup4\n      gt\n      tag_220\n      jumpi\n      dup3\n      swap1\n      sub\n      0x1f\n      and\n      dup3\n      add\n      swap2\n    tag_218:\n      pop\n      pop\n      pop\n      pop\n      pop\n      dup2\n      jump\t// out\n        /* \"contracts/ERC721.sol\":2658:2864  function setApprovalForAll(address operator, bool approved) external override {... */\n    tag_123:\n        /* \"contracts/ERC721.sol\":2788:2792  true */\n      0x01\n        /* \"contracts/ERC721.sol\":2747:2765  _operatorApprovals */\n      0x06\n        /* \"contracts/ERC721.sol\":2747:2777  _operatorApprovals[msg.sender] */\n      0x00\n        /* \"contracts/ERC721.sol\":2766:2776  msg.sender */\n      caller\n        /* \"contracts/ERC721.sol\":2747:2777  _operatorApprovals[msg.sender] */\n      0xffffffffffffffffffffffffffffffffffffffff\n      and\n      0xffffffffffffffffffffffffffffffffffffffff\n      and\n      dup2\n      mstore\n      0x20\n      add\n      swap1\n      dup2\n      mstore\n      0x20\n      add\n      0x00\n      keccak256\n        /* \"contracts/ERC721.sol\":2747:2787  _operatorApprovals[msg.sender][operator] */\n      0x00\n        /* \"contracts/ERC721.sol\":2778:2786  operator */\n      dup5\n        /* \"contracts/ERC721.sol\":2747:2787  _operatorApprovals[msg.sender][operator] */\n      0xffffffffffffffffffffffffffffffffffffffff\n      and\n      0xffffffffffffffffffffffffffffffffffffffff\n      and\n      dup2\n      mstore\n      0x20\n      add\n      swap1\n      dup2\n      mstore\n      0x20\n      add\n      0x00\n      keccak256\n      0x00\n        /* \"contracts/ERC721.sol\":2747:2792  _operatorApprovals[msg.sender][operator]=true */\n      0x0100\n      exp\n      dup2\n      sload\n      dup2\n      0xff\n      mul\n      not\n      and\n      swap1\n      dup4\n      iszero\n      iszero\n      mul\n      or\n      swap1\n      sstore\n      pop\n        /* \"contracts/ERC721.sol\":2837:2845  operator */\n      dup2\n        /* \"contracts/ERC721.sol\":2810:2856  ApprovalForAll(msg.sender, operator, approved) */\n      0xffffffffffffffffffffffffffffffffffffffff\n      and\n        /* \"contracts/ERC721.sol\":2825:2835  msg.sender */\n      caller\n        /* \"contracts/ERC721.sol\":2810:2856  ApprovalForAll(msg.sender, operator, approved) */\n      0xffffffffffffffffffffffffffffffffffffffff\n      and\n      0x17307eab39ab6107e8899845ad3d59bd9653f200f220920489ca2b5937696c31\n        /* \"contracts/ERC721.sol\":2847:2855  approved */\n      dup4\n        /* \"contracts/ERC721.sol\":2810:2856  ApprovalForAll(msg.sender, operator, approved) */\n      mload(0x40)\n      tag_222\n      swap2\n      swap1\n      tag_41\n      jump\t// in\n    tag_222:\n      mload(0x40)\n      dup1\n      swap2\n      sub\n      swap1\n      log3\n        /* \"contracts/ERC721.sol\":2658:2864  function setApprovalForAll(address operator, bool approved) external override {... */\n      pop\n      pop\n      jump\t// out\n        /* \"contracts/ERC721.sol\":5876:6205  function safeTransferFrom(address from, address to, uint tokenId, bytes memory data) public override {... */\n    tag_128:\n        /* \"contracts/ERC721.sol\":6012:6025  address owner */\n      0x00\n        /* \"contracts/ERC721.sol\":6028:6035  _owners */\n      0x03\n        /* \"contracts/ERC721.sol\":6028:6044  _owners[tokenId] */\n      0x00\n        /* \"contracts/ERC721.sol\":6036:6043  tokenId */\n      dup5\n        /* \"contracts/ERC721.sol\":6028:6044  _owners[tokenId] */\n      dup2\n      mstore\n      0x20\n      add\n      swap1\n      dup2\n      mstore\n      0x20\n      add\n      0x00\n      keccak256\n      0x00\n      swap1\n      sload\n      swap1\n      0x0100\n      exp\n      swap1\n      div\n      0xffffffffffffffffffffffffffffffffffffffff\n      and\n        /* \"contracts/ERC721.sol\":6012:6044  address owner = _owners[tokenId] */\n      swap1\n      pop\n        /* \"contracts/ERC721.sol\":6063:6109  _isApprovedOrOwner(owner, msg.sender, tokenId) */\n      tag_224\n        /* \"contracts/ERC721.sol\":6082:6087  owner */\n      dup2\n        /* \"contracts/ERC721.sol\":6089:6099  msg.sender */\n      caller\n        /* \"contracts/ERC721.sol\":6101:6108  tokenId */\n      dup6\n        /* \"contracts/ERC721.sol\":6063:6081  _isApprovedOrOwner */\n      tag_187\n        /* \"contracts/ERC721.sol\":6063:6109  _isApprovedOrOwner(owner, msg.sender, tokenId) */\n      jump\t// in\n    tag_224:\n        /* \"contracts/ERC721.sol\":6055:6135  require(_isApprovedOrOwner(owner, msg.sender, tokenId), \"not owner or approved\") */\n      tag_225\n      jumpi\n      mload(0x40)\n      0x08c379a000000000000000000000000000000000000000000000000000000000\n      dup2\n      mstore\n      0x04\n      add\n      tag_226\n      swap1\n      tag_190\n      jump\t// in\n    tag_226:\n      mload(0x40)\n      dup1\n      swap2\n      sub\n      swap1\n      revert\n    tag_225:\n        /* \"contracts/ERC721.sol\":6148:6197  _safeTransferFrom(owner, from, to, tokenId, data) */\n      tag_227\n        /* \"contracts/ERC721.sol\":6166:6171  owner */\n      dup2\n        /* \"contracts/ERC721.sol\":6173:6177  from */\n      dup7\n        /* \"contracts/ERC721.sol\":6179:6181  to */\n      dup7\n        /* \"contracts/ERC721.sol\":6183:6190  tokenId */\n      dup7\n        /* \"contracts/ERC721.sol\":6192:6196  data */\n      dup7\n        /* \"contracts/ERC721.sol\":6148:6165  _safeTransferFrom */\n      tag_228\n        /* \"contracts/ERC721.sol\":6148:6197  _safeTransferFrom(owner, from, to, tokenId, data) */\n      jump\t// in\n    tag_227:\n        /* \"contracts/ERC721.sol\":5977:6205  {... */\n      pop\n        /* \"contracts/ERC721.sol\":5876:6205  function safeTransferFrom(address from, address to, uint tokenId, bytes memory data) public override {... */\n      pop\n      pop\n      pop\n      pop\n      jump\t// out\n        /* \"contracts/ERC721.sol\":8572:8888  function tokenURI(uint256 tokenId) public view virtual override returns (string memory) {... */\n    tag_132:\n        /* \"contracts/ERC721.sol\":8645:8658  string memory */\n      0x60\n        /* \"contracts/ERC721.sol\":8707:8708  0 */\n      0x00\n        /* \"contracts/ERC721.sol\":8679:8709  _owners[tokenId] != address(0) */\n      0xffffffffffffffffffffffffffffffffffffffff\n      and\n        /* \"contracts/ERC721.sol\":8679:8686  _owners */\n      0x03\n        /* \"contracts/ERC721.sol\":8679:8695  _owners[tokenId] */\n      0x00\n        /* \"contracts/ERC721.sol\":8687:8694  tokenId */\n      dup5\n        /* \"contracts/ERC721.sol\":8679:8695  _owners[tokenId] */\n      dup2\n      mstore\n      0x20\n      add\n      swap1\n      dup2\n      mstore\n      0x20\n      add\n      0x00\n      keccak256\n      0x00\n      swap1\n      sload\n      swap1\n      0x0100\n      exp\n      swap1\n      div\n      0xffffffffffffffffffffffffffffffffffffffff\n      and\n        /* \"contracts/ERC721.sol\":8679:8709  _owners[tokenId] != address(0) */\n      0xffffffffffffffffffffffffffffffffffffffff\n      and\n      sub\n        /* \"contracts/ERC721.sol\":8671:8729  require(_owners[tokenId] != address(0), \"Token Not Exist\") */\n      tag_230\n      jumpi\n      mload(0x40)\n      0x08c379a000000000000000000000000000000000000000000000000000000000\n      dup2\n      mstore\n      0x04\n      add\n      tag_231\n      swap1\n      tag_232\n      jump\t// in\n    tag_231:\n      mload(0x40)\n      dup1\n      swap2\n      sub\n      swap1\n      revert\n    tag_230:\n        /* \"contracts/ERC721.sol\":8742:8763  string memory baseURI */\n      0x00\n        /* \"contracts/ERC721.sol\":8766:8776  _baseURI() */\n      tag_233\n        /* \"contracts/ERC721.sol\":8766:8774  _baseURI */\n      tag_234\n        /* \"contracts/ERC721.sol\":8766:8776  _baseURI() */\n      jump\t// in\n    tag_233:\n        /* \"contracts/ERC721.sol\":8742:8776  string memory baseURI = _baseURI() */\n      swap1\n      pop\n        /* \"contracts/ERC721.sol\":8818:8819  0 */\n      0x00\n        /* \"contracts/ERC721.sol\":8800:8807  baseURI */\n      dup2\n        /* \"contracts/ERC721.sol\":8794:8815  bytes(baseURI).length */\n      mload\n        /* \"contracts/ERC721.sol\":8794:8819  bytes(baseURI).length > 0 */\n      gt\n        /* \"contracts/ERC721.sol\":8794:8880  bytes(baseURI).length > 0 ? string(abi.encodePacked(baseURI, tokenId.toString())) : \"\" */\n      tag_235\n      jumpi\n      mload(0x40)\n      dup1\n      0x20\n      add\n      0x40\n      mstore\n      dup1\n      0x00\n      dup2\n      mstore\n      pop\n      jump(tag_236)\n    tag_235:\n        /* \"contracts/ERC721.sol\":8846:8853  baseURI */\n      dup1\n        /* \"contracts/ERC721.sol\":8855:8873  tokenId.toString() */\n      tag_237\n        /* \"contracts/ERC721.sol\":8855:8862  tokenId */\n      dup5\n        /* \"contracts/ERC721.sol\":8855:8871  tokenId.toString */\n      tag_238\n        /* \"contracts/ERC721.sol\":8855:8873  tokenId.toString() */\n      jump\t// in\n    tag_237:\n        /* \"contracts/ERC721.sol\":8829:8874  abi.encodePacked(baseURI, tokenId.toString()) */\n      add(0x20, mload(0x40))\n      tag_239\n      swap3\n      swap2\n      swap1\n      tag_240\n      jump\t// in\n    tag_239:\n      mload(0x40)\n      0x20\n      dup2\n      dup4\n      sub\n      sub\n      dup2\n      mstore\n      swap1\n      0x40\n      mstore\n        /* \"contracts/ERC721.sol\":8794:8880  bytes(baseURI).length > 0 ? string(abi.encodePacked(baseURI, tokenId.toString())) : \"\" */\n    tag_236:\n        /* \"contracts/ERC721.sol\":8787:8880  return bytes(baseURI).length > 0 ? string(abi.encodePacked(baseURI, tokenId.toString())) : \"\" */\n      swap2\n      pop\n      pop\n        /* \"contracts/ERC721.sol\":8572:8888  function tokenURI(uint256 tokenId) public view virtual override returns (string memory) {... */\n      swap2\n      swap1\n      pop\n      jump\t// out\n        /* \"contracts/DutchAuction.sol\":350:403  uint256 public constant AUCTION_END_PRICE = 0.1 ether */\n    tag_136:\n        /* \"contracts/DutchAuction.sol\":394:403  0.1 ether */\n      0x016345785d8a0000\n        /* \"contracts/DutchAuction.sol\":350:403  uint256 public constant AUCTION_END_PRICE = 0.1 ether */\n      dup2\n      jump\t// out\n        /* \"contracts/DutchAuction.sol\":196:243  uint256 public constant COLLECTION_SIZE = 10000 */\n    tag_140:\n        /* \"contracts/DutchAuction.sol\":238:243  10000 */\n      0x2710\n        /* \"contracts/DutchAuction.sol\":196:243  uint256 public constant COLLECTION_SIZE = 10000 */\n      dup2\n      jump\t// out\n        /* \"contracts/DutchAuction.sol\":433:482  uint256 public constant AUCTION_TIME = 10 minutes */\n    tag_144:\n        /* \"contracts/DutchAuction.sol\":472:482  10 minutes */\n      0x0258\n        /* \"contracts/DutchAuction.sol\":433:482  uint256 public constant AUCTION_TIME = 10 minutes */\n      dup2\n      jump\t// out\n        /* \"contracts/ERC721.sol\":2434:2591  function isApprovedForAll(address owner, address operator) external view override returns(bool) {... */\n    tag_150:\n        /* \"contracts/ERC721.sol\":2524:2528  bool */\n      0x00\n        /* \"contracts/ERC721.sol\":2548:2566  _operatorApprovals */\n      0x06\n        /* \"contracts/ERC721.sol\":2548:2573  _operatorApprovals[owner] */\n      0x00\n        /* \"contracts/ERC721.sol\":2567:2572  owner */\n      dup5\n        /* \"contracts/ERC721.sol\":2548:2573  _operatorApprovals[owner] */\n      0xffffffffffffffffffffffffffffffffffffffff\n      and\n      0xffffffffffffffffffffffffffffffffffffffff\n      and\n      dup2\n      mstore\n      0x20\n      add\n      swap1\n      dup2\n      mstore\n      0x20\n      add\n      0x00\n      keccak256\n        /* \"contracts/ERC721.sol\":2548:2583  _operatorApprovals[owner][operator] */\n      0x00\n        /* \"contracts/ERC721.sol\":2574:2582  operator */\n      dup4\n        /* \"contracts/ERC721.sol\":2548:2583  _operatorApprovals[owner][operator] */\n      0xffffffffffffffffffffffffffffffffffffffff\n      and\n      0xffffffffffffffffffffffffffffffffffffffff\n      and\n      dup2\n      mstore\n      0x20\n      add\n      swap1\n      dup2\n      mstore\n      0x20\n      add\n      0x00\n      keccak256\n      0x00\n      swap1\n      sload\n      swap1\n      0x0100\n      exp\n      swap1\n      div\n      0xff\n      and\n        /* \"contracts/ERC721.sol\":2541:2583  return _operatorApprovals[owner][operator] */\n      swap1\n      pop\n        /* \"contracts/ERC721.sol\":2434:2591  function isApprovedForAll(address owner, address operator) external view override returns(bool) {... */\n      swap3\n      swap2\n      pop\n      pop\n      jump\t// out\n        /* \"contracts/DutchAuction.sol\":893:924  uint256 public auctionStartTime */\n    tag_154:\n      sload(0x07)\n      dup2\n      jump\t// out\n        /* \"contracts/abstractContract/Ownable.sol\":2562:2782  function transferOwnership(address newOwner) public virtual onlyOwner {... */\n    tag_159:\n        /* \"contracts/abstractContract/Ownable.sol\":1519:1532  _checkOwner() */\n      tag_243\n        /* \"contracts/abstractContract/Ownable.sol\":1519:1530  _checkOwner */\n      tag_165\n        /* \"contracts/abstractContract/Ownable.sol\":1519:1532  _checkOwner() */\n      jump\t// in\n    tag_243:\n        /* \"contracts/abstractContract/Ownable.sol\":2667:2668  0 */\n      0x00\n        /* \"contracts/abstractContract/Ownable.sol\":2647:2669  newOwner == address(0) */\n      0xffffffffffffffffffffffffffffffffffffffff\n      and\n        /* \"contracts/abstractContract/Ownable.sol\":2647:2655  newOwner */\n      dup2\n        /* \"contracts/abstractContract/Ownable.sol\":2647:2669  newOwner == address(0) */\n      0xffffffffffffffffffffffffffffffffffffffff\n      and\n      sub\n        /* \"contracts/abstractContract/Ownable.sol\":2643:2736  if (newOwner == address(0)) {... */\n      tag_245\n      jumpi\n        /* \"contracts/abstractContract/Ownable.sol\":2721:2722  0 */\n      0x00\n        /* \"contracts/abstractContract/Ownable.sol\":2693:2724  OwnableInvalidOwner(address(0)) */\n      mload(0x40)\n      0x1e4fbdf700000000000000000000000000000000000000000000000000000000\n      dup2\n      mstore\n      0x04\n      add\n      tag_246\n      swap2\n      swap1\n      tag_58\n      jump\t// in\n    tag_246:\n      mload(0x40)\n      dup1\n      swap2\n      sub\n      swap1\n      revert\n        /* \"contracts/abstractContract/Ownable.sol\":2643:2736  if (newOwner == address(0)) {... */\n    tag_245:\n        /* \"contracts/abstractContract/Ownable.sol\":2746:2774  _transferOwnership(newOwner) */\n      tag_247\n        /* \"contracts/abstractContract/Ownable.sol\":2765:2773  newOwner */\n      dup2\n        /* \"contracts/abstractContract/Ownable.sol\":2746:2764  _transferOwnership */\n      tag_214\n        /* \"contracts/abstractContract/Ownable.sol\":2746:2774  _transferOwnership(newOwner) */\n      jump\t// in\n    tag_247:\n        /* \"contracts/abstractContract/Ownable.sol\":2562:2782  function transferOwnership(address newOwner) public virtual onlyOwner {... */\n      pop\n      jump\t// out\n        /* \"contracts/abstractContract/Ownable.sol\":1798:1960  function _checkOwner() internal view virtual {... */\n    tag_165:\n        /* \"contracts/abstractContract/Ownable.sol\":1869:1879  msg.sender */\n      caller\n        /* \"contracts/abstractContract/Ownable.sol\":1858:1879  owner() != msg.sender */\n      0xffffffffffffffffffffffffffffffffffffffff\n      and\n        /* \"contracts/abstractContract/Ownable.sol\":1858:1865  owner() */\n      tag_249\n        /* \"contracts/abstractContract/Ownable.sol\":1858:1863  owner */\n      tag_113\n        /* \"contracts/abstractContract/Ownable.sol\":1858:1865  owner() */\n      jump\t// in\n    tag_249:\n        /* \"contracts/abstractContract/Ownable.sol\":1858:1879  owner() != msg.sender */\n      0xffffffffffffffffffffffffffffffffffffffff\n      and\n      eq\n        /* \"contracts/abstractContract/Ownable.sol\":1854:1953  if (owner() != msg.sender) {... */\n      tag_250\n      jumpi\n        /* \"contracts/abstractContract/Ownable.sol\":1930:1940  msg.sender */\n      caller\n        /* \"contracts/abstractContract/Ownable.sol\":1903:1941  OwnableUnauthorizedAccount(msg.sender) */\n      mload(0x40)\n      0x118cdaa700000000000000000000000000000000000000000000000000000000\n      dup2\n      mstore\n      0x04\n      add\n      tag_251\n      swap2\n      swap1\n      tag_58\n      jump\t// in\n    tag_251:\n      mload(0x40)\n      dup1\n      swap2\n      sub\n      swap1\n      revert\n        /* \"contracts/abstractContract/Ownable.sol\":1854:1953  if (owner() != msg.sender) {... */\n    tag_250:\n        /* \"contracts/abstractContract/Ownable.sol\":1798:1960  function _checkOwner() internal view virtual {... */\n      jump\t// out\n        /* \"contracts/ERC721.sol\":4139:4331  function _approve(address owner, address to, uint tokenId) private {... */\n    tag_183:\n        /* \"contracts/ERC721.sol\":4244:4246  to */\n      dup2\n        /* \"contracts/ERC721.sol\":4217:4234  _tokenIdApprovals */\n      0x05\n        /* \"contracts/ERC721.sol\":4217:4243  _tokenIdApprovals[tokenId] */\n      0x00\n        /* \"contracts/ERC721.sol\":4235:4242  tokenId */\n      dup4\n        /* \"contracts/ERC721.sol\":4217:4243  _tokenIdApprovals[tokenId] */\n      dup2\n      mstore\n      0x20\n      add\n      swap1\n      dup2\n      mstore\n      0x20\n      add\n      0x00\n      keccak256\n      0x00\n        /* \"contracts/ERC721.sol\":4217:4246  _tokenIdApprovals[tokenId]=to */\n      0x0100\n      exp\n      dup2\n      sload\n      dup2\n      0xffffffffffffffffffffffffffffffffffffffff\n      mul\n      not\n      and\n      swap1\n      dup4\n      0xffffffffffffffffffffffffffffffffffffffff\n      and\n      mul\n      or\n      swap1\n      sstore\n      pop\n        /* \"contracts/ERC721.sol\":4315:4322  tokenId */\n      dup1\n        /* \"contracts/ERC721.sol\":4311:4313  to */\n      dup3\n        /* \"contracts/ERC721.sol\":4295:4323  Approval(owner, to, tokenId) */\n      0xffffffffffffffffffffffffffffffffffffffff\n      and\n        /* \"contracts/ERC721.sol\":4304:4309  owner */\n      dup5\n        /* \"contracts/ERC721.sol\":4295:4323  Approval(owner, to, tokenId) */\n      0xffffffffffffffffffffffffffffffffffffffff\n      and\n      0x8c5be1e5ebec7d5bd14f71427d1e84f3dd0314c0f7b2291e5b200ac8c7c3b925\n      mload(0x40)\n      mload(0x40)\n      dup1\n      swap2\n      sub\n      swap1\n      log4\n        /* \"contracts/ERC721.sol\":4139:4331  function _approve(address owner, address to, uint tokenId) private {... */\n      pop\n      pop\n      pop\n      jump\t// out\n        /* \"contracts/ERC721.sol\":4451:4673  function _isApprovedOrOwner(address owner, address spender, uint tokenId) private view returns(bool) {... */\n    tag_187:\n        /* \"contracts/ERC721.sol\":4546:4550  bool */\n      0x00\n        /* \"contracts/ERC721.sol\":4579:4586  spender */\n      dup3\n        /* \"contracts/ERC721.sol\":4570:4586  owner == spender */\n      0xffffffffffffffffffffffffffffffffffffffff\n      and\n        /* \"contracts/ERC721.sol\":4570:4575  owner */\n      dup5\n        /* \"contracts/ERC721.sol\":4570:4586  owner == spender */\n      0xffffffffffffffffffffffffffffffffffffffff\n      and\n      eq\n        /* \"contracts/ERC721.sol\":4570:4624  owner == spender || _operatorApprovals[owner][spender] */\n      dup1\n      tag_254\n      jumpi\n      pop\n        /* \"contracts/ERC721.sol\":4590:4608  _operatorApprovals */\n      0x06\n        /* \"contracts/ERC721.sol\":4590:4615  _operatorApprovals[owner] */\n      0x00\n        /* \"contracts/ERC721.sol\":4609:4614  owner */\n      dup6\n        /* \"contracts/ERC721.sol\":4590:4615  _operatorApprovals[owner] */\n      0xffffffffffffffffffffffffffffffffffffffff\n      and\n      0xffffffffffffffffffffffffffffffffffffffff\n      and\n      dup2\n      mstore\n      0x20\n      add\n      swap1\n      dup2\n      mstore\n      0x20\n      add\n      0x00\n      keccak256\n        /* \"contracts/ERC721.sol\":4590:4624  _operatorApprovals[owner][spender] */\n      0x00\n        /* \"contracts/ERC721.sol\":4616:4623  spender */\n      dup5\n        /* \"contracts/ERC721.sol\":4590:4624  _operatorApprovals[owner][spender] */\n      0xffffffffffffffffffffffffffffffffffffffff\n      and\n      0xffffffffffffffffffffffffffffffffffffffff\n      and\n      dup2\n      mstore\n      0x20\n      add\n      swap1\n      dup2\n      mstore\n      0x20\n      add\n      0x00\n      keccak256\n      0x00\n      swap1\n      sload\n      swap1\n      0x0100\n      exp\n      swap1\n      div\n      0xff\n      and\n        /* \"contracts/ERC721.sol\":4570:4624  owner == spender || _operatorApprovals[owner][spender] */\n    tag_254:\n        /* \"contracts/ERC721.sol\":4570:4665  owner == spender || _operatorApprovals[owner][spender] || _tokenIdApprovals[tokenId] == spender */\n      dup1\n      tag_255\n      jumpi\n      pop\n        /* \"contracts/ERC721.sol\":4658:4665  spender */\n      dup3\n        /* \"contracts/ERC721.sol\":4628:4665  _tokenIdApprovals[tokenId] == spender */\n      0xffffffffffffffffffffffffffffffffffffffff\n      and\n        /* \"contracts/ERC721.sol\":4628:4645  _tokenIdApprovals */\n      0x05\n        /* \"contracts/ERC721.sol\":4628:4654  _tokenIdApprovals[tokenId] */\n      0x00\n        /* \"contracts/ERC721.sol\":4646:4653  tokenId */\n      dup5\n        /* \"contracts/ERC721.sol\":4628:4654  _tokenIdApprovals[tokenId] */\n      dup2\n      mstore\n      0x20\n      add\n      swap1\n      dup2\n      mstore\n      0x20\n      add\n      0x00\n      keccak256\n      0x00\n      swap1\n      sload\n      swap1\n      0x0100\n      exp\n      swap1\n      div\n      0xffffffffffffffffffffffffffffffffffffffff\n      and\n        /* \"contracts/ERC721.sol\":4628:4665  _tokenIdApprovals[tokenId] == spender */\n      0xffffffffffffffffffffffffffffffffffffffff\n      and\n      eq\n        /* \"contracts/ERC721.sol\":4570:4665  owner == spender || _operatorApprovals[owner][spender] || _tokenIdApprovals[tokenId] == spender */\n    tag_255:\n        /* \"contracts/ERC721.sol\":4563:4665  return owner == spender || _operatorApprovals[owner][spender] || _tokenIdApprovals[tokenId] == spender */\n      swap1\n      pop\n        /* \"contracts/ERC721.sol\":4451:4673  function _isApprovedOrOwner(address owner, address spender, uint tokenId) private view returns(bool) {... */\n      swap4\n      swap3\n      pop\n      pop\n      pop\n      jump\t// out\n        /* \"contracts/ERC721.sol\":5054:5568  function _transfer(address owner, address from, address to, uint tokenId) private {... */\n    tag_192:\n        /* \"contracts/ERC721.sol\":5163:5168  owner */\n      dup4\n        /* \"contracts/ERC721.sol\":5155:5168  from == owner */\n      0xffffffffffffffffffffffffffffffffffffffff\n      and\n        /* \"contracts/ERC721.sol\":5155:5159  from */\n      dup4\n        /* \"contracts/ERC721.sol\":5155:5168  from == owner */\n      0xffffffffffffffffffffffffffffffffffffffff\n      and\n      eq\n        /* \"contracts/ERC721.sol\":5155:5188  from == owner && to != address(0) */\n      dup1\n      iszero\n      tag_257\n      jumpi\n      pop\n        /* \"contracts/ERC721.sol\":5186:5187  0 */\n      0x00\n        /* \"contracts/ERC721.sol\":5172:5188  to != address(0) */\n      0xffffffffffffffffffffffffffffffffffffffff\n      and\n        /* \"contracts/ERC721.sol\":5172:5174  to */\n      dup3\n        /* \"contracts/ERC721.sol\":5172:5188  to != address(0) */\n      0xffffffffffffffffffffffffffffffffffffffff\n      and\n      eq\n      iszero\n        /* \"contracts/ERC721.sol\":5155:5188  from == owner && to != address(0) */\n    tag_257:\n        /* \"contracts/ERC721.sol\":5147:5202  require(from == owner && to != address(0), \"not owner\") */\n      tag_258\n      jumpi\n      mload(0x40)\n      0x08c379a000000000000000000000000000000000000000000000000000000000\n      dup2\n      mstore\n      0x04\n      add\n      tag_259\n      swap1\n      tag_260\n      jump\t// in\n    tag_259:\n      mload(0x40)\n      dup1\n      swap2\n      sub\n      swap1\n      revert\n    tag_258:\n        /* \"contracts/ERC721.sol\":5282:5283  1 */\n      0x01\n        /* \"contracts/ERC721.sol\":5263:5272  _balances */\n      0x04\n        /* \"contracts/ERC721.sol\":5263:5278  _balances[from] */\n      0x00\n        /* \"contracts/ERC721.sol\":5273:5277  from */\n      dup6\n        /* \"contracts/ERC721.sol\":5263:5278  _balances[from] */\n      0xffffffffffffffffffffffffffffffffffffffff\n      and\n      0xffffffffffffffffffffffffffffffffffffffff\n      and\n      dup2\n      mstore\n      0x20\n      add\n      swap1\n      dup2\n      mstore\n      0x20\n      add\n      0x00\n      keccak256\n      0x00\n        /* \"contracts/ERC721.sol\":5263:5283  _balances[from] -= 1 */\n      dup3\n      dup3\n      sload\n      tag_261\n      swap2\n      swap1\n      tag_200\n      jump\t// in\n    tag_261:\n      swap3\n      pop\n      pop\n      dup2\n      swap1\n      sstore\n      pop\n        /* \"contracts/ERC721.sol\":5361:5362  1 */\n      0x01\n        /* \"contracts/ERC721.sol\":5344:5353  _balances */\n      0x04\n        /* \"contracts/ERC721.sol\":5344:5357  _balances[to] */\n      0x00\n        /* \"contracts/ERC721.sol\":5354:5356  to */\n      dup5\n        /* \"contracts/ERC721.sol\":5344:5357  _balances[to] */\n      0xffffffffffffffffffffffffffffffffffffffff\n      and\n      0xffffffffffffffffffffffffffffffffffffffff\n      and\n      dup2\n      mstore\n      0x20\n      add\n      swap1\n      dup2\n      mstore\n      0x20\n      add\n      0x00\n      keccak256\n      0x00\n        /* \"contracts/ERC721.sol\":5344:5362  _balances[to] += 1 */\n      dup3\n      dup3\n      sload\n      tag_262\n      swap2\n      swap1\n      tag_263\n      jump\t// in\n    tag_262:\n      swap3\n      pop\n      pop\n      dup2\n      swap1\n      sstore\n      pop\n        /* \"contracts/ERC721.sol\":5432:5434  to */\n      dup2\n        /* \"contracts/ERC721.sol\":5413:5420  _owners */\n      0x03\n        /* \"contracts/ERC721.sol\":5413:5429  _owners[tokenId] */\n      0x00\n        /* \"contracts/ERC721.sol\":5421:5428  tokenId */\n      dup4\n        /* \"contracts/ERC721.sol\":5413:5429  _owners[tokenId] */\n      dup2\n      mstore\n      0x20\n      add\n      swap1\n      dup2\n      mstore\n      0x20\n      add\n      0x00\n      keccak256\n      0x00\n        /* \"contracts/ERC721.sol\":5413:5434  _owners[tokenId] = to */\n      0x0100\n      exp\n      dup2\n      sload\n      dup2\n      0xffffffffffffffffffffffffffffffffffffffff\n      mul\n      not\n      and\n      swap1\n      dup4\n      0xffffffffffffffffffffffffffffffffffffffff\n      and\n      mul\n      or\n      swap1\n      sstore\n      pop\n        /* \"contracts/ERC721.sol\":5527:5560  _approve(to, address(0), tokenId) */\n      tag_264\n        /* \"contracts/ERC721.sol\":5536:5538  to */\n      dup3\n        /* \"contracts/ERC721.sol\":5548:5549  0 */\n      0x00\n        /* \"contracts/ERC721.sol\":5552:5559  tokenId */\n      dup4\n        /* \"contracts/ERC721.sol\":5527:5535  _approve */\n      tag_183\n        /* \"contracts/ERC721.sol\":5527:5560  _approve(to, address(0), tokenId) */\n      jump\t// in\n    tag_264:\n        /* \"contracts/ERC721.sol\":5054:5568  function _transfer(address owner, address from, address to, uint tokenId) private {... */\n      pop\n      pop\n      pop\n      pop\n      jump\t// out\n        /* \"contracts/abstractContract/Ownable.sol\":2942:3133  function _transferOwnership(address newOwner) internal virtual {... */\n    tag_214:\n        /* \"contracts/abstractContract/Ownable.sol\":3016:3032  address oldOwner */\n      0x00\n        /* \"contracts/abstractContract/Ownable.sol\":3035:3041  _owner */\n      dup1\n      0x00\n      swap1\n      sload\n      swap1\n      0x0100\n      exp\n      swap1\n      div\n      0xffffffffffffffffffffffffffffffffffffffff\n      and\n        /* \"contracts/abstractContract/Ownable.sol\":3016:3041  address oldOwner = _owner */\n      swap1\n      pop\n        /* \"contracts/abstractContract/Ownable.sol\":3061:3069  newOwner */\n      dup2\n        /* \"contracts/abstractContract/Ownable.sol\":3052:3058  _owner */\n      0x00\n      dup1\n        /* \"contracts/abstractContract/Ownable.sol\":3052:3069  _owner = newOwner */\n      0x0100\n      exp\n      dup2\n      sload\n      dup2\n      0xffffffffffffffffffffffffffffffffffffffff\n      mul\n      not\n      and\n      swap1\n      dup4\n      0xffffffffffffffffffffffffffffffffffffffff\n      and\n      mul\n      or\n      swap1\n      sstore\n      pop\n        /* \"contracts/abstractContract/Ownable.sol\":3116:3124  newOwner */\n      dup2\n        /* \"contracts/abstractContract/Ownable.sol\":3085:3125  OwnershipTransferred(oldOwner, newOwner) */\n      0xffffffffffffffffffffffffffffffffffffffff\n      and\n        /* \"contracts/abstractContract/Ownable.sol\":3106:3114  oldOwner */\n      dup2\n        /* \"contracts/abstractContract/Ownable.sol\":3085:3125  OwnershipTransferred(oldOwner, newOwner) */\n      0xffffffffffffffffffffffffffffffffffffffff\n      and\n      0x8be0079c531659141344cd1fd0a4f28419497f9722a3daafe3b4186f6b6457e0\n      mload(0x40)\n      mload(0x40)\n      dup1\n      swap2\n      sub\n      swap1\n      log3\n        /* \"contracts/abstractContract/Ownable.sol\":3005:3133  {... */\n      pop\n        /* \"contracts/abstractContract/Ownable.sol\":2942:3133  function _transferOwnership(address newOwner) internal virtual {... */\n      pop\n      jump\t// out\n        /* \"contracts/ERC721.sol\":5618:5841  function _safeTransferFrom(address owner, address from, address to, uint tokenId, bytes memory _data) private {... */\n    tag_228:\n        /* \"contracts/ERC721.sol\":5739:5774  _transfer(owner, from, to, tokenId) */\n      tag_267\n        /* \"contracts/ERC721.sol\":5749:5754  owner */\n      dup6\n        /* \"contracts/ERC721.sol\":5756:5760  from */\n      dup6\n        /* \"contracts/ERC721.sol\":5762:5764  to */\n      dup6\n        /* \"contracts/ERC721.sol\":5766:5773  tokenId */\n      dup6\n        /* \"contracts/ERC721.sol\":5739:5748  _transfer */\n      tag_192\n        /* \"contracts/ERC721.sol\":5739:5774  _transfer(owner, from, to, tokenId) */\n      jump\t// in\n    tag_267:\n        /* \"contracts/ERC721.sol\":5785:5833  _checkOnERC721Received(from, to, tokenId, _data) */\n      tag_268\n        /* \"contracts/ERC721.sol\":5808:5812  from */\n      dup5\n        /* \"contracts/ERC721.sol\":5814:5816  to */\n      dup5\n        /* \"contracts/ERC721.sol\":5818:5825  tokenId */\n      dup5\n        /* \"contracts/ERC721.sol\":5827:5832  _data */\n      dup5\n        /* \"contracts/ERC721.sol\":5785:5807  _checkOnERC721Received */\n      tag_269\n        /* \"contracts/ERC721.sol\":5785:5833  _checkOnERC721Received(from, to, tokenId, _data) */\n      jump\t// in\n    tag_268:\n        /* \"contracts/ERC721.sol\":5618:5841  function _safeTransferFrom(address owner, address from, address to, uint tokenId, bytes memory _data) private {... */\n      pop\n      pop\n      pop\n      pop\n      pop\n      jump\t// out\n        /* \"contracts/ERC721.sol\":9106:9200  function _baseURI() internal view virtual returns (string memory) {... */\n    tag_234:\n        /* \"contracts/ERC721.sol\":9157:9170  string memory */\n      0x60\n        /* \"contracts/ERC721.sol\":9183:9192  return \"\" */\n      mload(0x40)\n      dup1\n      0x20\n      add\n      0x40\n      mstore\n      dup1\n      0x00\n      dup2\n      mstore\n      pop\n      swap1\n      pop\n        /* \"contracts/ERC721.sol\":9106:9200  function _baseURI() internal view virtual returns (string memory) {... */\n      swap1\n      jump\t// out\n        /* \"contracts/library/String.sol\":408:1131  function toString(uint256 value) internal pure returns (string memory) {... */\n    tag_238:\n        /* \"contracts/library/String.sol\":464:477  string memory */\n      0x60\n        /* \"contracts/library/String.sol\":694:695  0 */\n      0x00\n        /* \"contracts/library/String.sol\":685:690  value */\n      dup3\n        /* \"contracts/library/String.sol\":685:695  value == 0 */\n      sub\n        /* \"contracts/library/String.sol\":681:734  if (value == 0) {... */\n      tag_272\n      jumpi\n        /* \"contracts/library/String.sol\":712:722  return \"0\" */\n      mload(0x40)\n      dup1\n      0x40\n      add\n      0x40\n      mstore\n      dup1\n      0x01\n      dup2\n      mstore\n      0x20\n      add\n      0x3000000000000000000000000000000000000000000000000000000000000000\n      dup2\n      mstore\n      pop\n      swap1\n      pop\n      jump(tag_271)\n        /* \"contracts/library/String.sol\":681:734  if (value == 0) {... */\n    tag_272:\n        /* \"contracts/library/String.sol\":744:756  uint256 temp */\n      0x00\n        /* \"contracts/library/String.sol\":759:764  value */\n      dup3\n        /* \"contracts/library/String.sol\":744:764  uint256 temp = value */\n      swap1\n      pop\n        /* \"contracts/library/String.sol\":775:789  uint256 digits */\n      0x00\n        /* \"contracts/library/String.sol\":800:878  while (temp != 0) {... */\n    tag_273:\n        /* \"contracts/library/String.sol\":815:816  0 */\n      0x00\n        /* \"contracts/library/String.sol\":807:811  temp */\n      dup3\n        /* \"contracts/library/String.sol\":807:816  temp != 0 */\n      eq\n        /* \"contracts/library/String.sol\":800:878  while (temp != 0) {... */\n      tag_274\n      jumpi\n        /* \"contracts/library/String.sol\":833:841  digits++ */\n      dup1\n      dup1\n      tag_275\n      swap1\n      tag_276\n      jump\t// in\n    tag_275:\n      swap2\n      pop\n      pop\n        /* \"contracts/library/String.sol\":864:866  10 */\n      0x0a\n        /* \"contracts/library/String.sol\":856:866  temp /= 10 */\n      dup3\n      tag_277\n      swap2\n      swap1\n      tag_198\n      jump\t// in\n    tag_277:\n      swap2\n      pop\n        /* \"contracts/library/String.sol\":800:878  while (temp != 0) {... */\n      jump(tag_273)\n    tag_274:\n        /* \"contracts/library/String.sol\":888:907  bytes memory buffer */\n      0x00\n        /* \"contracts/library/String.sol\":920:926  digits */\n      dup2\n        /* \"contracts/library/String.sol\":910:927  new bytes(digits) */\n      0xffffffffffffffff\n      dup2\n      gt\n      iszero\n      tag_278\n      jumpi\n      tag_279\n      tag_280\n      jump\t// in\n    tag_279:\n    tag_278:\n      mload(0x40)\n      swap1\n      dup1\n      dup3\n      mstore\n      dup1\n      0x1f\n      add\n      not(0x1f)\n      and\n      0x20\n      add\n      dup3\n      add\n      0x40\n      mstore\n      dup1\n      iszero\n      tag_281\n      jumpi\n      dup2\n      0x20\n      add\n      0x01\n      dup3\n      mul\n      dup1\n      calldatasize\n      dup4\n      calldatacopy\n      dup1\n      dup3\n      add\n      swap2\n      pop\n      pop\n      swap1\n      pop\n    tag_281:\n      pop\n        /* \"contracts/library/String.sol\":888:927  bytes memory buffer = new bytes(digits) */\n      swap1\n      pop\n        /* \"contracts/library/String.sol\":938:1092  while (value != 0) {... */\n    tag_282:\n        /* \"contracts/library/String.sol\":954:955  0 */\n      0x00\n        /* \"contracts/library/String.sol\":945:950  value */\n      dup6\n        /* \"contracts/library/String.sol\":945:955  value != 0 */\n      eq\n        /* \"contracts/library/String.sol\":938:1092  while (value != 0) {... */\n      tag_283\n      jumpi\n        /* \"contracts/library/String.sol\":982:983  1 */\n      0x01\n        /* \"contracts/library/String.sol\":972:983  digits -= 1 */\n      dup3\n      tag_284\n      swap2\n      swap1\n      tag_200\n      jump\t// in\n    tag_284:\n      swap2\n      pop\n        /* \"contracts/library/String.sol\":1049:1051  10 */\n      0x0a\n        /* \"contracts/library/String.sol\":1041:1046  value */\n      dup6\n        /* \"contracts/library/String.sol\":1041:1051  value % 10 */\n      tag_285\n      swap2\n      swap1\n      tag_286\n      jump\t// in\n    tag_285:\n        /* \"contracts/library/String.sol\":1028:1030  48 */\n      0x30\n        /* \"contracts/library/String.sol\":1028:1052  48 + uint256(value % 10) */\n      tag_287\n      swap2\n      swap1\n      tag_263\n      jump\t// in\n    tag_287:\n        /* \"contracts/library/String.sol\":1015:1054  bytes1(uint8(48 + uint256(value % 10))) */\n      0xf8\n      shl\n        /* \"contracts/library/String.sol\":998:1004  buffer */\n      dup2\n        /* \"contracts/library/String.sol\":1005:1011  digits */\n      dup4\n        /* \"contracts/library/String.sol\":998:1012  buffer[digits] */\n      dup2\n      mload\n      dup2\n      lt\n      tag_288\n      jumpi\n      tag_289\n      tag_290\n      jump\t// in\n    tag_289:\n    tag_288:\n      0x20\n      add\n      add\n        /* \"contracts/library/String.sol\":998:1054  buffer[digits] = bytes1(uint8(48 + uint256(value % 10))) */\n      swap1\n      not(0xffffffffffffffffffffffffffffffffffffffffffffffffffffffffffffff)\n      and\n      swap1\n      dup2\n      0x00\n      byte\n      swap1\n      mstore8\n      pop\n        /* \"contracts/library/String.sol\":1078:1080  10 */\n      0x0a\n        /* \"contracts/library/String.sol\":1069:1080  value /= 10 */\n      dup6\n      tag_291\n      swap2\n      swap1\n      tag_198\n      jump\t// in\n    tag_291:\n      swap5\n      pop\n        /* \"contracts/library/String.sol\":938:1092  while (value != 0) {... */\n      jump(tag_282)\n    tag_283:\n        /* \"contracts/library/String.sol\":1116:1122  buffer */\n      dup1\n        /* \"contracts/library/String.sol\":1102:1123  return string(buffer) */\n      swap4\n      pop\n      pop\n      pop\n      pop\n        /* \"contracts/library/String.sol\":408:1131  function toString(uint256 value) internal pure returns (string memory) {... */\n    tag_271:\n      swap2\n      swap1\n      pop\n      jump\t// out\n        /* \"contracts/ERC721.sol\":7691:8479  function _checkOnERC721Received(address from, address to, uint256 tokenId, bytes memory data) private {... */\n    tag_269:\n        /* \"contracts/ERC721.sol\":7825:7826  0 */\n      0x00\n        /* \"contracts/ERC721.sol\":7808:7810  to */\n      dup4\n        /* \"contracts/ERC721.sol\":7808:7822  to.code.length */\n      0xffffffffffffffffffffffffffffffffffffffff\n      and\n      extcodesize\n        /* \"contracts/ERC721.sol\":7808:7826  to.code.length > 0 */\n      gt\n        /* \"contracts/ERC721.sol\":7804:8472  if (to.code.length > 0) {... */\n      iszero\n      tag_293\n      jumpi\n        /* \"contracts/ERC721.sol\":7863:7865  to */\n      dup3\n        /* \"contracts/ERC721.sol\":7847:7883  IERC721Receiver(to).onERC721Received */\n      0xffffffffffffffffffffffffffffffffffffffff\n      and\n      0x150b7a02\n        /* \"contracts/ERC721.sol\":7884:7894  msg.sender */\n      caller\n        /* \"contracts/ERC721.sol\":7896:7900  from */\n      dup7\n        /* \"contracts/ERC721.sol\":7902:7909  tokenId */\n      dup6\n        /* \"contracts/ERC721.sol\":7911:7915  data */\n      dup6\n        /* \"contracts/ERC721.sol\":7847:7916  IERC721Receiver(to).onERC721Received(msg.sender, from, tokenId, data) */\n      mload(0x40)\n      dup6\n      0xffffffff\n      and\n      0xe0\n      shl\n      dup2\n      mstore\n      0x04\n      add\n      tag_294\n      swap5\n      swap4\n      swap3\n      swap2\n      swap1\n      tag_295\n      jump\t// in\n    tag_294:\n      0x20\n      mload(0x40)\n      dup1\n      dup4\n      sub\n      dup2\n      0x00\n      dup8\n      gas\n      call\n      swap3\n      pop\n      pop\n      pop\n      dup1\n      iszero\n      tag_296\n      jumpi\n      pop\n      mload(0x40)\n      returndatasize\n      not(0x1f)\n      0x1f\n      dup3\n      add\n      and\n      dup3\n      add\n      dup1\n      0x40\n      mstore\n      pop\n      dup2\n      add\n      swap1\n      tag_297\n      swap2\n      swap1\n      tag_298\n      jump\t// in\n    tag_297:\n      0x01\n    tag_296:\n        /* \"contracts/ERC721.sol\":7843:8461  try IERC721Receiver(to).onERC721Received(msg.sender, from, tokenId, data) returns(bytes4 retval) {... */\n      tag_299\n      jumpi\n      returndatasize\n      dup1\n      0x00\n      dup2\n      eq\n      tag_304\n      jumpi\n      mload(0x40)\n      swap2\n      pop\n      and(add(returndatasize, 0x3f), not(0x1f))\n      dup3\n      add\n      0x40\n      mstore\n      returndatasize\n      dup3\n      mstore\n      returndatasize\n      0x00\n      0x20\n      dup5\n      add\n      returndatacopy\n      jump(tag_303)\n    tag_304:\n      0x60\n      swap2\n      pop\n    tag_303:\n      pop\n        /* \"contracts/ERC721.sol\":8223:8224  0 */\n      0x00\n        /* \"contracts/ERC721.sol\":8206:8212  reason */\n      dup2\n        /* \"contracts/ERC721.sol\":8206:8219  reason.length */\n      mload\n        /* \"contracts/ERC721.sol\":8206:8224  reason.length == 0 */\n      sub\n        /* \"contracts/ERC721.sol\":8202:8446  if (reason.length == 0) {... */\n      tag_305\n      jumpi\n        /* \"contracts/ERC721.sol\":8278:8280  to */\n      dup4\n        /* \"contracts/ERC721.sol\":8256:8281  ERC721InvalidReceiver(to) */\n      mload(0x40)\n      0x64a0ae9200000000000000000000000000000000000000000000000000000000\n      dup2\n      mstore\n      0x04\n      add\n      tag_306\n      swap2\n      swap1\n      tag_58\n      jump\t// in\n    tag_306:\n      mload(0x40)\n      dup1\n      swap2\n      sub\n      swap1\n      revert\n        /* \"contracts/ERC721.sol\":8202:8446  if (reason.length == 0) {... */\n    tag_305:\n        /* \"contracts/ERC721.sol\":8396:8402  reason */\n      dup1\n        /* \"contracts/ERC721.sol\":8390:8403  mload(reason) */\n      mload\n        /* \"contracts/ERC721.sol\":8381:8387  reason */\n      dup2\n        /* \"contracts/ERC721.sol\":8377:8379  32 */\n      0x20\n        /* \"contracts/ERC721.sol\":8373:8388  add(32, reason) */\n      add\n        /* \"contracts/ERC721.sol\":8366:8404  revert(add(32, reason), mload(reason)) */\n      revert\n        /* \"contracts/ERC721.sol\":7843:8461  try IERC721Receiver(to).onERC721Received(msg.sender, from, tokenId, data) returns(bytes4 retval) {... */\n    tag_299:\n        /* \"contracts/ERC721.sol\":8021:8062  IERC721Receiver.onERC721Received.selector */\n      shl(0xe0, 0x150b7a02)\n        /* \"contracts/ERC721.sol\":8011:8062  retval != IERC721Receiver.onERC721Received.selector */\n      not(0xffffffffffffffffffffffffffffffffffffffffffffffffffffffff)\n      and\n        /* \"contracts/ERC721.sol\":8011:8017  retval */\n      dup2\n        /* \"contracts/ERC721.sol\":8011:8062  retval != IERC721Receiver.onERC721Received.selector */\n      not(0xffffffffffffffffffffffffffffffffffffffffffffffffffffffff)\n      and\n      eq\n        /* \"contracts/ERC721.sol\":8007:8139  if (retval != IERC721Receiver.onERC721Received.selector) {... */\n      tag_309\n      jumpi\n        /* \"contracts/ERC721.sol\":8116:8118  to */\n      dup4\n        /* \"contracts/ERC721.sol\":8094:8119  ERC721InvalidReceiver(to) */\n      mload(0x40)\n      0x64a0ae9200000000000000000000000000000000000000000000000000000000\n      dup2\n      mstore\n      0x04\n      add\n      tag_310\n      swap2\n      swap1\n      tag_58\n      jump\t// in\n    tag_310:\n      mload(0x40)\n      dup1\n      swap2\n      sub\n      swap1\n      revert\n        /* \"contracts/ERC721.sol\":8007:8139  if (retval != IERC721Receiver.onERC721Received.selector) {... */\n    tag_309:\n        /* \"contracts/ERC721.sol\":7917:8154  returns(bytes4 retval) {... */\n      pop\n        /* \"contracts/ERC721.sol\":7804:8472  if (to.code.length > 0) {... */\n    tag_293:\n        /* \"contracts/ERC721.sol\":7691:8479  function _checkOnERC721Received(address from, address to, uint256 tokenId, bytes memory data) private {... */\n      pop\n      pop\n      pop\n      pop\n      jump\t// out\n        /* \"#utility.yul\":7:82   */\n    tag_311:\n        /* \"#utility.yul\":40:46   */\n      0x00\n        /* \"#utility.yul\":73:75   */\n      0x40\n        /* \"#utility.yul\":67:76   */\n      mload\n        /* \"#utility.yul\":57:76   */\n      swap1\n      pop\n        /* \"#utility.yul\":7:82   */\n      swap1\n      jump\t// out\n        /* \"#utility.yul\":88:205   */\n    tag_312:\n        /* \"#utility.yul\":197:198   */\n      0x00\n        /* \"#utility.yul\":194:195   */\n      dup1\n        /* \"#utility.yul\":187:199   */\n      revert\n        /* \"#utility.yul\":211:328   */\n    tag_313:\n        /* \"#utility.yul\":320:321   */\n      0x00\n        /* \"#utility.yul\":317:318   */\n      dup1\n        /* \"#utility.yul\":310:322   */\n      revert\n        /* \"#utility.yul\":334:483   */\n    tag_314:\n        /* \"#utility.yul\":370:377   */\n      0x00\n        /* \"#utility.yul\":410:476   */\n      0xffffffff00000000000000000000000000000000000000000000000000000000\n        /* \"#utility.yul\":403:408   */\n      dup3\n        /* \"#utility.yul\":399:477   */\n      and\n        /* \"#utility.yul\":388:477   */\n      swap1\n      pop\n        /* \"#utility.yul\":334:483   */\n      swap2\n      swap1\n      pop\n      jump\t// out\n        /* \"#utility.yul\":489:609   */\n    tag_315:\n        /* \"#utility.yul\":561:584   */\n      tag_375\n        /* \"#utility.yul\":578:583   */\n      dup2\n        /* \"#utility.yul\":561:584   */\n      tag_314\n      jump\t// in\n    tag_375:\n        /* \"#utility.yul\":554:559   */\n      dup2\n        /* \"#utility.yul\":551:585   */\n      eq\n        /* \"#utility.yul\":541:603   */\n      tag_376\n      jumpi\n        /* \"#utility.yul\":599:600   */\n      0x00\n        /* \"#utility.yul\":596:597   */\n      dup1\n        /* \"#utility.yul\":589:601   */\n      revert\n        /* \"#utility.yul\":541:603   */\n    tag_376:\n        /* \"#utility.yul\":489:609   */\n      pop\n      jump\t// out\n        /* \"#utility.yul\":615:752   */\n    tag_316:\n        /* \"#utility.yul\":660:665   */\n      0x00\n        /* \"#utility.yul\":698:704   */\n      dup2\n        /* \"#utility.yul\":685:705   */\n      calldataload\n        /* \"#utility.yul\":676:705   */\n      swap1\n      pop\n        /* \"#utility.yul\":714:746   */\n      tag_378\n        /* \"#utility.yul\":740:745   */\n      dup2\n        /* \"#utility.yul\":714:746   */\n      tag_315\n      jump\t// in\n    tag_378:\n        /* \"#utility.yul\":615:752   */\n      swap3\n      swap2\n      pop\n      pop\n      jump\t// out\n        /* \"#utility.yul\":758:1085   */\n    tag_38:\n        /* \"#utility.yul\":816:822   */\n      0x00\n        /* \"#utility.yul\":865:867   */\n      0x20\n        /* \"#utility.yul\":853:862   */\n      dup3\n        /* \"#utility.yul\":844:851   */\n      dup5\n        /* \"#utility.yul\":840:863   */\n      sub\n        /* \"#utility.yul\":836:868   */\n      slt\n        /* \"#utility.yul\":833:952   */\n      iszero\n      tag_380\n      jumpi\n        /* \"#utility.yul\":871:950   */\n      tag_381\n      tag_312\n      jump\t// in\n    tag_381:\n        /* \"#utility.yul\":833:952   */\n    tag_380:\n        /* \"#utility.yul\":991:992   */\n      0x00\n        /* \"#utility.yul\":1016:1068   */\n      tag_382\n        /* \"#utility.yul\":1060:1067   */\n      dup5\n        /* \"#utility.yul\":1051:1057   */\n      dup3\n        /* \"#utility.yul\":1040:1049   */\n      dup6\n        /* \"#utility.yul\":1036:1058   */\n      add\n        /* \"#utility.yul\":1016:1068   */\n      tag_316\n      jump\t// in\n    tag_382:\n        /* \"#utility.yul\":1006:1068   */\n      swap2\n      pop\n        /* \"#utility.yul\":962:1078   */\n      pop\n        /* \"#utility.yul\":758:1085   */\n      swap3\n      swap2\n      pop\n      pop\n      jump\t// out\n        /* \"#utility.yul\":1091:1181   */\n    tag_317:\n        /* \"#utility.yul\":1125:1132   */\n      0x00\n        /* \"#utility.yul\":1168:1173   */\n      dup2\n        /* \"#utility.yul\":1161:1174   */\n      iszero\n        /* \"#utility.yul\":1154:1175   */\n      iszero\n        /* \"#utility.yul\":1143:1175   */\n      swap1\n      pop\n        /* \"#utility.yul\":1091:1181   */\n      swap2\n      swap1\n      pop\n      jump\t// out\n        /* \"#utility.yul\":1187:1296   */\n    tag_318:\n        /* \"#utility.yul\":1268:1289   */\n      tag_385\n        /* \"#utility.yul\":1283:1288   */\n      dup2\n        /* \"#utility.yul\":1268:1289   */\n      tag_317\n      jump\t// in\n    tag_385:\n        /* \"#utility.yul\":1263:1266   */\n      dup3\n        /* \"#utility.yul\":1256:1290   */\n      mstore\n        /* \"#utility.yul\":1187:1296   */\n      pop\n      pop\n      jump\t// out\n        /* \"#utility.yul\":1302:1512   */\n    tag_41:\n        /* \"#utility.yul\":1389:1393   */\n      0x00\n        /* \"#utility.yul\":1427:1429   */\n      0x20\n        /* \"#utility.yul\":1416:1425   */\n      dup3\n        /* \"#utility.yul\":1412:1430   */\n      add\n        /* \"#utility.yul\":1404:1430   */\n      swap1\n      pop\n        /* \"#utility.yul\":1440:1505   */\n      tag_387\n        /* \"#utility.yul\":1502:1503   */\n      0x00\n        /* \"#utility.yul\":1491:1500   */\n      dup4\n        /* \"#utility.yul\":1487:1504   */\n      add\n        /* \"#utility.yul\":1478:1484   */\n      dup5\n        /* \"#utility.yul\":1440:1505   */\n      tag_318\n      jump\t// in\n    tag_387:\n        /* \"#utility.yul\":1302:1512   */\n      swap3\n      swap2\n      pop\n      pop\n      jump\t// out\n        /* \"#utility.yul\":1518:1611   */\n    tag_319:\n        /* \"#utility.yul\":1554:1561   */\n      0x00\n        /* \"#utility.yul\":1594:1604   */\n      0xffffffff\n        /* \"#utility.yul\":1587:1592   */\n      dup3\n        /* \"#utility.yul\":1583:1605   */\n      and\n        /* \"#utility.yul\":1572:1605   */\n      swap1\n      pop\n        /* \"#utility.yul\":1518:1611   */\n      swap2\n      swap1\n      pop\n      jump\t// out\n        /* \"#utility.yul\":1617:1737   */\n    tag_320:\n        /* \"#utility.yul\":1689:1712   */\n      tag_390\n        /* \"#utility.yul\":1706:1711   */\n      dup2\n        /* \"#utility.yul\":1689:1712   */\n      tag_319\n      jump\t// in\n    tag_390:\n        /* \"#utility.yul\":1682:1687   */\n      dup2\n        /* \"#utility.yul\":1679:1713   */\n      eq\n        /* \"#utility.yul\":1669:1731   */\n      tag_391\n      jumpi\n        /* \"#utility.yul\":1727:1728   */\n      0x00\n        /* \"#utility.yul\":1724:1725   */\n      dup1\n        /* \"#utility.yul\":1717:1729   */\n      revert\n        /* \"#utility.yul\":1669:1731   */\n    tag_391:\n        /* \"#utility.yul\":1617:1737   */\n      pop\n      jump\t// out\n        /* \"#utility.yul\":1743:1880   */\n    tag_321:\n        /* \"#utility.yul\":1788:1793   */\n      0x00\n        /* \"#utility.yul\":1826:1832   */\n      dup2\n        /* \"#utility.yul\":1813:1833   */\n      calldataload\n        /* \"#utility.yul\":1804:1833   */\n      swap1\n      pop\n        /* \"#utility.yul\":1842:1874   */\n      tag_393\n        /* \"#utility.yul\":1868:1873   */\n      dup2\n        /* \"#utility.yul\":1842:1874   */\n      tag_320\n      jump\t// in\n    tag_393:\n        /* \"#utility.yul\":1743:1880   */\n      swap3\n      swap2\n      pop\n      pop\n      jump\t// out\n        /* \"#utility.yul\":1886:2213   */\n    tag_45:\n        /* \"#utility.yul\":1944:1950   */\n      0x00\n        /* \"#utility.yul\":1993:1995   */\n      0x20\n        /* \"#utility.yul\":1981:1990   */\n      dup3\n        /* \"#utility.yul\":1972:1979   */\n      dup5\n        /* \"#utility.yul\":1968:1991   */\n      sub\n        /* \"#utility.yul\":1964:1996   */\n      slt\n        /* \"#utility.yul\":1961:2080   */\n      iszero\n      tag_395\n      jumpi\n        /* \"#utility.yul\":1999:2078   */\n      tag_396\n      tag_312\n      jump\t// in\n    tag_396:\n        /* \"#utility.yul\":1961:2080   */\n    tag_395:\n        /* \"#utility.yul\":2119:2120   */\n      0x00\n        /* \"#utility.yul\":2144:2196   */\n      tag_397\n        /* \"#utility.yul\":2188:2195   */\n      dup5\n        /* \"#utility.yul\":2179:2185   */\n      dup3\n        /* \"#utility.yul\":2168:2177   */\n      dup6\n        /* \"#utility.yul\":2164:2186   */\n      add\n        /* \"#utility.yul\":2144:2196   */\n      tag_321\n      jump\t// in\n    tag_397:\n        /* \"#utility.yul\":2134:2196   */\n      swap2\n      pop\n        /* \"#utility.yul\":2090:2206   */\n      pop\n        /* \"#utility.yul\":1886:2213   */\n      swap3\n      swap2\n      pop\n      pop\n      jump\t// out\n        /* \"#utility.yul\":2219:2318   */\n    tag_322:\n        /* \"#utility.yul\":2271:2277   */\n      0x00\n        /* \"#utility.yul\":2305:2310   */\n      dup2\n        /* \"#utility.yul\":2299:2311   */\n      mload\n        /* \"#utility.yul\":2289:2311   */\n      swap1\n      pop\n        /* \"#utility.yul\":2219:2318   */\n      swap2\n      swap1\n      pop\n      jump\t// out\n        /* \"#utility.yul\":2324:2493   */\n    tag_323:\n        /* \"#utility.yul\":2408:2419   */\n      0x00\n        /* \"#utility.yul\":2442:2448   */\n      dup3\n        /* \"#utility.yul\":2437:2440   */\n      dup3\n        /* \"#utility.yul\":2430:2449   */\n      mstore\n        /* \"#utility.yul\":2482:2486   */\n      0x20\n        /* \"#utility.yul\":2477:2480   */\n      dup3\n        /* \"#utility.yul\":2473:2487   */\n      add\n        /* \"#utility.yul\":2458:2487   */\n      swap1\n      pop\n        /* \"#utility.yul\":2324:2493   */\n      swap3\n      swap2\n      pop\n      pop\n      jump\t// out\n        /* \"#utility.yul\":2499:2638   */\n    tag_324:\n        /* \"#utility.yul\":2588:2594   */\n      dup3\n        /* \"#utility.yul\":2583:2586   */\n      dup2\n        /* \"#utility.yul\":2578:2581   */\n      dup4\n        /* \"#utility.yul\":2572:2595   */\n      mcopy\n        /* \"#utility.yul\":2629:2630   */\n      0x00\n        /* \"#utility.yul\":2620:2626   */\n      dup4\n        /* \"#utility.yul\":2615:2618   */\n      dup4\n        /* \"#utility.yul\":2611:2627   */\n      add\n        /* \"#utility.yul\":2604:2631   */\n      mstore\n        /* \"#utility.yul\":2499:2638   */\n      pop\n      pop\n      pop\n      jump\t// out\n        /* \"#utility.yul\":2644:2746   */\n    tag_325:\n        /* \"#utility.yul\":2685:2691   */\n      0x00\n        /* \"#utility.yul\":2736:2738   */\n      0x1f\n        /* \"#utility.yul\":2732:2739   */\n      not\n        /* \"#utility.yul\":2727:2729   */\n      0x1f\n        /* \"#utility.yul\":2720:2725   */\n      dup4\n        /* \"#utility.yul\":2716:2730   */\n      add\n        /* \"#utility.yul\":2712:2740   */\n      and\n        /* \"#utility.yul\":2702:2740   */\n      swap1\n      pop\n        /* \"#utility.yul\":2644:2746   */\n      swap2\n      swap1\n      pop\n      jump\t// out\n        /* \"#utility.yul\":2752:3129   */\n    tag_326:\n        /* \"#utility.yul\":2840:2843   */\n      0x00\n        /* \"#utility.yul\":2868:2907   */\n      tag_403\n        /* \"#utility.yul\":2901:2906   */\n      dup3\n        /* \"#utility.yul\":2868:2907   */\n      tag_322\n      jump\t// in\n    tag_403:\n        /* \"#utility.yul\":2923:2994   */\n      tag_404\n        /* \"#utility.yul\":2987:2993   */\n      dup2\n        /* \"#utility.yul\":2982:2985   */\n      dup6\n        /* \"#utility.yul\":2923:2994   */\n      tag_323\n      jump\t// in\n    tag_404:\n        /* \"#utility.yul\":2916:2994   */\n      swap4\n      pop\n        /* \"#utility.yul\":3003:3068   */\n      tag_405\n        /* \"#utility.yul\":3061:3067   */\n      dup2\n        /* \"#utility.yul\":3056:3059   */\n      dup6\n        /* \"#utility.yul\":3049:3053   */\n      0x20\n        /* \"#utility.yul\":3042:3047   */\n      dup7\n        /* \"#utility.yul\":3038:3054   */\n      add\n        /* \"#utility.yul\":3003:3068   */\n      tag_324\n      jump\t// in\n    tag_405:\n        /* \"#utility.yul\":3093:3122   */\n      tag_406\n        /* \"#utility.yul\":3115:3121   */\n      dup2\n        /* \"#utility.yul\":3093:3122   */\n      tag_325\n      jump\t// in\n    tag_406:\n        /* \"#utility.yul\":3088:3091   */\n      dup5\n        /* \"#utility.yul\":3084:3123   */\n      add\n        /* \"#utility.yul\":3077:3123   */\n      swap2\n      pop\n        /* \"#utility.yul\":2844:3129   */\n      pop\n        /* \"#utility.yul\":2752:3129   */\n      swap3\n      swap2\n      pop\n      pop\n      jump\t// out\n        /* \"#utility.yul\":3135:3448   */\n    tag_51:\n        /* \"#utility.yul\":3248:3252   */\n      0x00\n        /* \"#utility.yul\":3286:3288   */\n      0x20\n        /* \"#utility.yul\":3275:3284   */\n      dup3\n        /* \"#utility.yul\":3271:3289   */\n      add\n        /* \"#utility.yul\":3263:3289   */\n      swap1\n      pop\n        /* \"#utility.yul\":3335:3344   */\n      dup2\n        /* \"#utility.yul\":3329:3333   */\n      dup2\n        /* \"#utility.yul\":3325:3345   */\n      sub\n        /* \"#utility.yul\":3321:3322   */\n      0x00\n        /* \"#utility.yul\":3310:3319   */\n      dup4\n        /* \"#utility.yul\":3306:3323   */\n      add\n        /* \"#utility.yul\":3299:3346   */\n      mstore\n        /* \"#utility.yul\":3363:3441   */\n      tag_408\n        /* \"#utility.yul\":3436:3440   */\n      dup2\n        /* \"#utility.yul\":3427:3433   */\n      dup5\n        /* \"#utility.yul\":3363:3441   */\n      tag_326\n      jump\t// in\n    tag_408:\n        /* \"#utility.yul\":3355:3441   */\n      swap1\n      pop\n        /* \"#utility.yul\":3135:3448   */\n      swap3\n      swap2\n      pop\n      pop\n      jump\t// out\n        /* \"#utility.yul\":3454:3531   */\n    tag_327:\n        /* \"#utility.yul\":3491:3498   */\n      0x00\n        /* \"#utility.yul\":3520:3525   */\n      dup2\n        /* \"#utility.yul\":3509:3525   */\n      swap1\n      pop\n        /* \"#utility.yul\":3454:3531   */\n      swap2\n      swap1\n      pop\n      jump\t// out\n        /* \"#utility.yul\":3537:3659   */\n    tag_328:\n        /* \"#utility.yul\":3610:3634   */\n      tag_411\n        /* \"#utility.yul\":3628:3633   */\n      dup2\n        /* \"#utility.yul\":3610:3634   */\n      tag_327\n      jump\t// in\n    tag_411:\n        /* \"#utility.yul\":3603:3608   */\n      dup2\n        /* \"#utility.yul\":3600:3635   */\n      eq\n        /* \"#utility.yul\":3590:3653   */\n      tag_412\n      jumpi\n        /* \"#utility.yul\":3649:3650   */\n      0x00\n        /* \"#utility.yul\":3646:3647   */\n      dup1\n        /* \"#utility.yul\":3639:3651   */\n      revert\n        /* \"#utility.yul\":3590:3653   */\n    tag_412:\n        /* \"#utility.yul\":3537:3659   */\n      pop\n      jump\t// out\n        /* \"#utility.yul\":3665:3804   */\n    tag_329:\n        /* \"#utility.yul\":3711:3716   */\n      0x00\n        /* \"#utility.yul\":3749:3755   */\n      dup2\n        /* \"#utility.yul\":3736:3756   */\n      calldataload\n        /* \"#utility.yul\":3727:3756   */\n      swap1\n      pop\n        /* \"#utility.yul\":3765:3798   */\n      tag_414\n        /* \"#utility.yul\":3792:3797   */\n      dup2\n        /* \"#utility.yul\":3765:3798   */\n      tag_328\n      jump\t// in\n    tag_414:\n        /* \"#utility.yul\":3665:3804   */\n      swap3\n      swap2\n      pop\n      pop\n      jump\t// out\n        /* \"#utility.yul\":3810:4139   */\n    tag_55:\n        /* \"#utility.yul\":3869:3875   */\n      0x00\n        /* \"#utility.yul\":3918:3920   */\n      0x20\n        /* \"#utility.yul\":3906:3915   */\n      dup3\n        /* \"#utility.yul\":3897:3904   */\n      dup5\n        /* \"#utility.yul\":3893:3916   */\n      sub\n        /* \"#utility.yul\":3889:3921   */\n      slt\n        /* \"#utility.yul\":3886:4005   */\n      iszero\n      tag_416\n      jumpi\n        /* \"#utility.yul\":3924:4003   */\n      tag_417\n      tag_312\n      jump\t// in\n    tag_417:\n        /* \"#utility.yul\":3886:4005   */\n    tag_416:\n        /* \"#utility.yul\":4044:4045   */\n      0x00\n        /* \"#utility.yul\":4069:4122   */\n      tag_418\n        /* \"#utility.yul\":4114:4121   */\n      dup5\n        /* \"#utility.yul\":4105:4111   */\n      dup3\n        /* \"#utility.yul\":4094:4103   */\n      dup6\n        /* \"#utility.yul\":4090:4112   */\n      add\n        /* \"#utility.yul\":4069:4122   */\n      tag_329\n      jump\t// in\n    tag_418:\n        /* \"#utility.yul\":4059:4122   */\n      swap2\n      pop\n        /* \"#utility.yul\":4015:4132   */\n      pop\n        /* \"#utility.yul\":3810:4139   */\n      swap3\n      swap2\n      pop\n      pop\n      jump\t// out\n        /* \"#utility.yul\":4145:4271   */\n    tag_330:\n        /* \"#utility.yul\":4182:4189   */\n      0x00\n        /* \"#utility.yul\":4222:4264   */\n      0xffffffffffffffffffffffffffffffffffffffff\n        /* \"#utility.yul\":4215:4220   */\n      dup3\n        /* \"#utility.yul\":4211:4265   */\n      and\n        /* \"#utility.yul\":4200:4265   */\n      swap1\n      pop\n        /* \"#utility.yul\":4145:4271   */\n      swap2\n      swap1\n      pop\n      jump\t// out\n        /* \"#utility.yul\":4277:4373   */\n    tag_331:\n        /* \"#utility.yul\":4314:4321   */\n      0x00\n        /* \"#utility.yul\":4343:4367   */\n      tag_421\n        /* \"#utility.yul\":4361:4366   */\n      dup3\n        /* \"#utility.yul\":4343:4367   */\n      tag_330\n      jump\t// in\n    tag_421:\n        /* \"#utility.yul\":4332:4367   */\n      swap1\n      pop\n        /* \"#utility.yul\":4277:4373   */\n      swap2\n      swap1\n      pop\n      jump\t// out\n        /* \"#utility.yul\":4379:4497   */\n    tag_332:\n        /* \"#utility.yul\":4466:4490   */\n      tag_423\n        /* \"#utility.yul\":4484:4489   */\n      dup2\n        /* \"#utility.yul\":4466:4490   */\n      tag_331\n      jump\t// in\n    tag_423:\n        /* \"#utility.yul\":4461:4464   */\n      dup3\n        /* \"#utility.yul\":4454:4491   */\n      mstore\n        /* \"#utility.yul\":4379:4497   */\n      pop\n      pop\n      jump\t// out\n        /* \"#utility.yul\":4503:4725   */\n    tag_58:\n        /* \"#utility.yul\":4596:4600   */\n      0x00\n        /* \"#utility.yul\":4634:4636   */\n      0x20\n        /* \"#utility.yul\":4623:4632   */\n      dup3\n        /* \"#utility.yul\":4619:4637   */\n      add\n        /* \"#utility.yul\":4611:4637   */\n      swap1\n      pop\n        /* \"#utility.yul\":4647:4718   */\n      tag_425\n        /* \"#utility.yul\":4715:4716   */\n      0x00\n        /* \"#utility.yul\":4704:4713   */\n      dup4\n        /* \"#utility.yul\":4700:4717   */\n      add\n        /* \"#utility.yul\":4691:4697   */\n      dup5\n        /* \"#utility.yul\":4647:4718   */\n      tag_332\n      jump\t// in\n    tag_425:\n        /* \"#utility.yul\":4503:4725   */\n      swap3\n      swap2\n      pop\n      pop\n      jump\t// out\n        /* \"#utility.yul\":4731:4853   */\n    tag_333:\n        /* \"#utility.yul\":4804:4828   */\n      tag_427\n        /* \"#utility.yul\":4822:4827   */\n      dup2\n        /* \"#utility.yul\":4804:4828   */\n      tag_331\n      jump\t// in\n    tag_427:\n        /* \"#utility.yul\":4797:4802   */\n      dup2\n        /* \"#utility.yul\":4794:4829   */\n      eq\n        /* \"#utility.yul\":4784:4847   */\n      tag_428\n      jumpi\n        /* \"#utility.yul\":4843:4844   */\n      0x00\n        /* \"#utility.yul\":4840:4841   */\n      dup1\n        /* \"#utility.yul\":4833:4845   */\n      revert\n        /* \"#utility.yul\":4784:4847   */\n    tag_428:\n        /* \"#utility.yul\":4731:4853   */\n      pop\n      jump\t// out\n        /* \"#utility.yul\":4859:4998   */\n    tag_334:\n        /* \"#utility.yul\":4905:4910   */\n      0x00\n        /* \"#utility.yul\":4943:4949   */\n      dup2\n        /* \"#utility.yul\":4930:4950   */\n      calldataload\n        /* \"#utility.yul\":4921:4950   */\n      swap1\n      pop\n        /* \"#utility.yul\":4959:4992   */\n      tag_430\n        /* \"#utility.yul\":4986:4991   */\n      dup2\n        /* \"#utility.yul\":4959:4992   */\n      tag_333\n      jump\t// in\n    tag_430:\n        /* \"#utility.yul\":4859:4998   */\n      swap3\n      swap2\n      pop\n      pop\n      jump\t// out\n        /* \"#utility.yul\":5004:5478   */\n    tag_62:\n        /* \"#utility.yul\":5072:5078   */\n      0x00\n        /* \"#utility.yul\":5080:5086   */\n      dup1\n        /* \"#utility.yul\":5129:5131   */\n      0x40\n        /* \"#utility.yul\":5117:5126   */\n      dup4\n        /* \"#utility.yul\":5108:5115   */\n      dup6\n        /* \"#utility.yul\":5104:5127   */\n      sub\n        /* \"#utility.yul\":5100:5132   */\n      slt\n        /* \"#utility.yul\":5097:5216   */\n      iszero\n      tag_432\n      jumpi\n        /* \"#utility.yul\":5135:5214   */\n      tag_433\n      tag_312\n      jump\t// in\n    tag_433:\n        /* \"#utility.yul\":5097:5216   */\n    tag_432:\n        /* \"#utility.yul\":5255:5256   */\n      0x00\n        /* \"#utility.yul\":5280:5333   */\n      tag_434\n        /* \"#utility.yul\":5325:5332   */\n      dup6\n        /* \"#utility.yul\":5316:5322   */\n      dup3\n        /* \"#utility.yul\":5305:5314   */\n      dup7\n        /* \"#utility.yul\":5301:5323   */\n      add\n        /* \"#utility.yul\":5280:5333   */\n      tag_334\n      jump\t// in\n    tag_434:\n        /* \"#utility.yul\":5270:5333   */\n      swap3\n      pop\n        /* \"#utility.yul\":5226:5343   */\n      pop\n        /* \"#utility.yul\":5382:5384   */\n      0x20\n        /* \"#utility.yul\":5408:5461   */\n      tag_435\n        /* \"#utility.yul\":5453:5460   */\n      dup6\n        /* \"#utility.yul\":5444:5450   */\n      dup3\n        /* \"#utility.yul\":5433:5442   */\n      dup7\n        /* \"#utility.yul\":5429:5451   */\n      add\n        /* \"#utility.yul\":5408:5461   */\n      tag_329\n      jump\t// in\n    tag_435:\n        /* \"#utility.yul\":5398:5461   */\n      swap2\n      pop\n        /* \"#utility.yul\":5353:5471   */\n      pop\n        /* \"#utility.yul\":5004:5478   */\n      swap3\n      pop\n      swap3\n      swap1\n      pop\n      jump\t// out\n        /* \"#utility.yul\":5484:5602   */\n    tag_335:\n        /* \"#utility.yul\":5571:5595   */\n      tag_437\n        /* \"#utility.yul\":5589:5594   */\n      dup2\n        /* \"#utility.yul\":5571:5595   */\n      tag_327\n      jump\t// in\n    tag_437:\n        /* \"#utility.yul\":5566:5569   */\n      dup3\n        /* \"#utility.yul\":5559:5596   */\n      mstore\n        /* \"#utility.yul\":5484:5602   */\n      pop\n      pop\n      jump\t// out\n        /* \"#utility.yul\":5608:5830   */\n    tag_68:\n        /* \"#utility.yul\":5701:5705   */\n      0x00\n        /* \"#utility.yul\":5739:5741   */\n      0x20\n        /* \"#utility.yul\":5728:5737   */\n      dup3\n        /* \"#utility.yul\":5724:5742   */\n      add\n        /* \"#utility.yul\":5716:5742   */\n      swap1\n      pop\n        /* \"#utility.yul\":5752:5823   */\n      tag_439\n        /* \"#utility.yul\":5820:5821   */\n      0x00\n        /* \"#utility.yul\":5809:5818   */\n      dup4\n        /* \"#utility.yul\":5805:5822   */\n      add\n        /* \"#utility.yul\":5796:5802   */\n      dup5\n        /* \"#utility.yul\":5752:5823   */\n      tag_335\n      jump\t// in\n    tag_439:\n        /* \"#utility.yul\":5608:5830   */\n      swap3\n      swap2\n      pop\n      pop\n      jump\t// out\n        /* \"#utility.yul\":5836:6455   */\n    tag_72:\n        /* \"#utility.yul\":5913:5919   */\n      0x00\n        /* \"#utility.yul\":5921:5927   */\n      dup1\n        /* \"#utility.yul\":5929:5935   */\n      0x00\n        /* \"#utility.yul\":5978:5980   */\n      0x60\n        /* \"#utility.yul\":5966:5975   */\n      dup5\n        /* \"#utility.yul\":5957:5964   */\n      dup7\n        /* \"#utility.yul\":5953:5976   */\n      sub\n        /* \"#utility.yul\":5949:5981   */\n      slt\n        /* \"#utility.yul\":5946:6065   */\n      iszero\n      tag_441\n      jumpi\n        /* \"#utility.yul\":5984:6063   */\n      tag_442\n      tag_312\n      jump\t// in\n    tag_442:\n        /* \"#utility.yul\":5946:6065   */\n    tag_441:\n        /* \"#utility.yul\":6104:6105   */\n      0x00\n        /* \"#utility.yul\":6129:6182   */\n      tag_443\n        /* \"#utility.yul\":6174:6181   */\n      dup7\n        /* \"#utility.yul\":6165:6171   */\n      dup3\n        /* \"#utility.yul\":6154:6163   */\n      dup8\n        /* \"#utility.yul\":6150:6172   */\n      add\n        /* \"#utility.yul\":6129:6182   */\n      tag_334\n      jump\t// in\n    tag_443:\n        /* \"#utility.yul\":6119:6182   */\n      swap4\n      pop\n        /* \"#utility.yul\":6075:6192   */\n      pop\n        /* \"#utility.yul\":6231:6233   */\n      0x20\n        /* \"#utility.yul\":6257:6310   */\n      tag_444\n        /* \"#utility.yul\":6302:6309   */\n      dup7\n        /* \"#utility.yul\":6293:6299   */\n      dup3\n        /* \"#utility.yul\":6282:6291   */\n      dup8\n        /* \"#utility.yul\":6278:6300   */\n      add\n        /* \"#utility.yul\":6257:6310   */\n      tag_334\n      jump\t// in\n    tag_444:\n        /* \"#utility.yul\":6247:6310   */\n      swap3\n      pop\n        /* \"#utility.yul\":6202:6320   */\n      pop\n        /* \"#utility.yul\":6359:6361   */\n      0x40\n        /* \"#utility.yul\":6385:6438   */\n      tag_445\n        /* \"#utility.yul\":6430:6437   */\n      dup7\n        /* \"#utility.yul\":6421:6427   */\n      dup3\n        /* \"#utility.yul\":6410:6419   */\n      dup8\n        /* \"#utility.yul\":6406:6428   */\n      add\n        /* \"#utility.yul\":6385:6438   */\n      tag_329\n      jump\t// in\n    tag_445:\n        /* \"#utility.yul\":6375:6438   */\n      swap2\n      pop\n        /* \"#utility.yul\":6330:6448   */\n      pop\n        /* \"#utility.yul\":5836:6455   */\n      swap3\n      pop\n      swap3\n      pop\n      swap3\n      jump\t// out\n        /* \"#utility.yul\":6461:6790   */\n    tag_101:\n        /* \"#utility.yul\":6520:6526   */\n      0x00\n        /* \"#utility.yul\":6569:6571   */\n      0x20\n        /* \"#utility.yul\":6557:6566   */\n      dup3\n        /* \"#utility.yul\":6548:6555   */\n      dup5\n        /* \"#utility.yul\":6544:6567   */\n      sub\n        /* \"#utility.yul\":6540:6572   */\n      slt\n        /* \"#utility.yul\":6537:6656   */\n      iszero\n      tag_447\n      jumpi\n        /* \"#utility.yul\":6575:6654   */\n      tag_448\n      tag_312\n      jump\t// in\n    tag_448:\n        /* \"#utility.yul\":6537:6656   */\n    tag_447:\n        /* \"#utility.yul\":6695:6696   */\n      0x00\n        /* \"#utility.yul\":6720:6773   */\n      tag_449\n        /* \"#utility.yul\":6765:6772   */\n      dup5\n        /* \"#utility.yul\":6756:6762   */\n      dup3\n        /* \"#utility.yul\":6745:6754   */\n      dup6\n        /* \"#utility.yul\":6741:6763   */\n      add\n        /* \"#utility.yul\":6720:6773   */\n      tag_334\n      jump\t// in\n    tag_449:\n        /* \"#utility.yul\":6710:6773   */\n      swap2\n      pop\n        /* \"#utility.yul\":6666:6783   */\n      pop\n        /* \"#utility.yul\":6461:6790   */\n      swap3\n      swap2\n      pop\n      pop\n      jump\t// out\n        /* \"#utility.yul\":6796:6912   */\n    tag_336:\n        /* \"#utility.yul\":6866:6887   */\n      tag_451\n        /* \"#utility.yul\":6881:6886   */\n      dup2\n        /* \"#utility.yul\":6866:6887   */\n      tag_317\n      jump\t// in\n    tag_451:\n        /* \"#utility.yul\":6859:6864   */\n      dup2\n        /* \"#utility.yul\":6856:6888   */\n      eq\n        /* \"#utility.yul\":6846:6906   */\n      tag_452\n      jumpi\n        /* \"#utility.yul\":6902:6903   */\n      0x00\n        /* \"#utility.yul\":6899:6900   */\n      dup1\n        /* \"#utility.yul\":6892:6904   */\n      revert\n        /* \"#utility.yul\":6846:6906   */\n    tag_452:\n        /* \"#utility.yul\":6796:6912   */\n      pop\n      jump\t// out\n        /* \"#utility.yul\":6918:7051   */\n    tag_337:\n        /* \"#utility.yul\":6961:6966   */\n      0x00\n        /* \"#utility.yul\":6999:7005   */\n      dup2\n        /* \"#utility.yul\":6986:7006   */\n      calldataload\n        /* \"#utility.yul\":6977:7006   */\n      swap1\n      pop\n        /* \"#utility.yul\":7015:7045   */\n      tag_454\n        /* \"#utility.yul\":7039:7044   */\n      dup2\n        /* \"#utility.yul\":7015:7045   */\n      tag_336\n      jump\t// in\n    tag_454:\n        /* \"#utility.yul\":6918:7051   */\n      swap3\n      swap2\n      pop\n      pop\n      jump\t// out\n        /* \"#utility.yul\":7057:7525   */\n    tag_122:\n        /* \"#utility.yul\":7122:7128   */\n      0x00\n        /* \"#utility.yul\":7130:7136   */\n      dup1\n        /* \"#utility.yul\":7179:7181   */\n      0x40\n        /* \"#utility.yul\":7167:7176   */\n      dup4\n        /* \"#utility.yul\":7158:7165   */\n      dup6\n        /* \"#utility.yul\":7154:7177   */\n      sub\n        /* \"#utility.yul\":7150:7182   */\n      slt\n        /* \"#utility.yul\":7147:7266   */\n      iszero\n      tag_456\n      jumpi\n        /* \"#utility.yul\":7185:7264   */\n      tag_457\n      tag_312\n      jump\t// in\n    tag_457:\n        /* \"#utility.yul\":7147:7266   */\n    tag_456:\n        /* \"#utility.yul\":7305:7306   */\n      0x00\n        /* \"#utility.yul\":7330:7383   */\n      tag_458\n        /* \"#utility.yul\":7375:7382   */\n      dup6\n        /* \"#utility.yul\":7366:7372   */\n      dup3\n        /* \"#utility.yul\":7355:7364   */\n      dup7\n        /* \"#utility.yul\":7351:7373   */\n      add\n        /* \"#utility.yul\":7330:7383   */\n      tag_334\n      jump\t// in\n    tag_458:\n        /* \"#utility.yul\":7320:7383   */\n      swap3\n      pop\n        /* \"#utility.yul\":7276:7393   */\n      pop\n        /* \"#utility.yul\":7432:7434   */\n      0x20\n        /* \"#utility.yul\":7458:7508   */\n      tag_459\n        /* \"#utility.yul\":7500:7507   */\n      dup6\n        /* \"#utility.yul\":7491:7497   */\n      dup3\n        /* \"#utility.yul\":7480:7489   */\n      dup7\n        /* \"#utility.yul\":7476:7498   */\n      add\n        /* \"#utility.yul\":7458:7508   */\n      tag_337\n      jump\t// in\n    tag_459:\n        /* \"#utility.yul\":7448:7508   */\n      swap2\n      pop\n        /* \"#utility.yul\":7403:7518   */\n      pop\n        /* \"#utility.yul\":7057:7525   */\n      swap3\n      pop\n      swap3\n      swap1\n      pop\n      jump\t// out\n        /* \"#utility.yul\":7531:7648   */\n    tag_338:\n        /* \"#utility.yul\":7640:7641   */\n      0x00\n        /* \"#utility.yul\":7637:7638   */\n      dup1\n        /* \"#utility.yul\":7630:7642   */\n      revert\n        /* \"#utility.yul\":7654:7771   */\n    tag_339:\n        /* \"#utility.yul\":7763:7764   */\n      0x00\n        /* \"#utility.yul\":7760:7761   */\n      dup1\n        /* \"#utility.yul\":7753:7765   */\n      revert\n        /* \"#utility.yul\":7777:7957   */\n    tag_280:\n        /* \"#utility.yul\":7825:7902   */\n      0x4e487b7100000000000000000000000000000000000000000000000000000000\n        /* \"#utility.yul\":7822:7823   */\n      0x00\n        /* \"#utility.yul\":7815:7903   */\n      mstore\n        /* \"#utility.yul\":7922:7926   */\n      0x41\n        /* \"#utility.yul\":7919:7920   */\n      0x04\n        /* \"#utility.yul\":7912:7927   */\n      mstore\n        /* \"#utility.yul\":7946:7950   */\n      0x24\n        /* \"#utility.yul\":7943:7944   */\n      0x00\n        /* \"#utility.yul\":7936:7951   */\n      revert\n        /* \"#utility.yul\":7963:8244   */\n    tag_340:\n        /* \"#utility.yul\":8046:8073   */\n      tag_464\n        /* \"#utility.yul\":8068:8072   */\n      dup3\n        /* \"#utility.yul\":8046:8073   */\n      tag_325\n      jump\t// in\n    tag_464:\n        /* \"#utility.yul\":8038:8044   */\n      dup2\n        /* \"#utility.yul\":8034:8074   */\n      add\n        /* \"#utility.yul\":8176:8182   */\n      dup2\n        /* \"#utility.yul\":8164:8174   */\n      dup2\n        /* \"#utility.yul\":8161:8183   */\n      lt\n        /* \"#utility.yul\":8140:8158   */\n      0xffffffffffffffff\n        /* \"#utility.yul\":8128:8138   */\n      dup3\n        /* \"#utility.yul\":8125:8159   */\n      gt\n        /* \"#utility.yul\":8122:8184   */\n      or\n        /* \"#utility.yul\":8119:8207   */\n      iszero\n      tag_465\n      jumpi\n        /* \"#utility.yul\":8187:8205   */\n      tag_466\n      tag_280\n      jump\t// in\n    tag_466:\n        /* \"#utility.yul\":8119:8207   */\n    tag_465:\n        /* \"#utility.yul\":8227:8237   */\n      dup1\n        /* \"#utility.yul\":8223:8225   */\n      0x40\n        /* \"#utility.yul\":8216:8238   */\n      mstore\n        /* \"#utility.yul\":8006:8244   */\n      pop\n        /* \"#utility.yul\":7963:8244   */\n      pop\n      pop\n      jump\t// out\n        /* \"#utility.yul\":8250:8379   */\n    tag_341:\n        /* \"#utility.yul\":8284:8290   */\n      0x00\n        /* \"#utility.yul\":8311:8331   */\n      tag_468\n      tag_311\n      jump\t// in\n    tag_468:\n        /* \"#utility.yul\":8301:8331   */\n      swap1\n      pop\n        /* \"#utility.yul\":8340:8373   */\n      tag_469\n        /* \"#utility.yul\":8368:8372   */\n      dup3\n        /* \"#utility.yul\":8360:8366   */\n      dup3\n        /* \"#utility.yul\":8340:8373   */\n      tag_340\n      jump\t// in\n    tag_469:\n        /* \"#utility.yul\":8250:8379   */\n      swap2\n      swap1\n      pop\n      jump\t// out\n        /* \"#utility.yul\":8385:8692   */\n    tag_342:\n        /* \"#utility.yul\":8446:8450   */\n      0x00\n        /* \"#utility.yul\":8536:8554   */\n      0xffffffffffffffff\n        /* \"#utility.yul\":8528:8534   */\n      dup3\n        /* \"#utility.yul\":8525:8555   */\n      gt\n        /* \"#utility.yul\":8522:8578   */\n      iszero\n      tag_471\n      jumpi\n        /* \"#utility.yul\":8558:8576   */\n      tag_472\n      tag_280\n      jump\t// in\n    tag_472:\n        /* \"#utility.yul\":8522:8578   */\n    tag_471:\n        /* \"#utility.yul\":8596:8625   */\n      tag_473\n        /* \"#utility.yul\":8618:8624   */\n      dup3\n        /* \"#utility.yul\":8596:8625   */\n      tag_325\n      jump\t// in\n    tag_473:\n        /* \"#utility.yul\":8588:8625   */\n      swap1\n      pop\n        /* \"#utility.yul\":8680:8684   */\n      0x20\n        /* \"#utility.yul\":8674:8678   */\n      dup2\n        /* \"#utility.yul\":8670:8685   */\n      add\n        /* \"#utility.yul\":8662:8685   */\n      swap1\n      pop\n        /* \"#utility.yul\":8385:8692   */\n      swap2\n      swap1\n      pop\n      jump\t// out\n        /* \"#utility.yul\":8698:8846   */\n    tag_343:\n        /* \"#utility.yul\":8796:8802   */\n      dup3\n        /* \"#utility.yul\":8791:8794   */\n      dup2\n        /* \"#utility.yul\":8786:8789   */\n      dup4\n        /* \"#utility.yul\":8773:8803   */\n      calldatacopy\n        /* \"#utility.yul\":8837:8838   */\n      0x00\n        /* \"#utility.yul\":8828:8834   */\n      dup4\n        /* \"#utility.yul\":8823:8826   */\n      dup4\n        /* \"#utility.yul\":8819:8835   */\n      add\n        /* \"#utility.yul\":8812:8839   */\n      mstore\n        /* \"#utility.yul\":8698:8846   */\n      pop\n      pop\n      pop\n      jump\t// out\n        /* \"#utility.yul\":8852:9275   */\n    tag_344:\n        /* \"#utility.yul\":8929:8934   */\n      0x00\n        /* \"#utility.yul\":8954:9019   */\n      tag_476\n        /* \"#utility.yul\":8970:9018   */\n      tag_477\n        /* \"#utility.yul\":9011:9017   */\n      dup5\n        /* \"#utility.yul\":8970:9018   */\n      tag_342\n      jump\t// in\n    tag_477:\n        /* \"#utility.yul\":8954:9019   */\n      tag_341\n      jump\t// in\n    tag_476:\n        /* \"#utility.yul\":8945:9019   */\n      swap1\n      pop\n        /* \"#utility.yul\":9042:9048   */\n      dup3\n        /* \"#utility.yul\":9035:9040   */\n      dup2\n        /* \"#utility.yul\":9028:9049   */\n      mstore\n        /* \"#utility.yul\":9080:9084   */\n      0x20\n        /* \"#utility.yul\":9073:9078   */\n      dup2\n        /* \"#utility.yul\":9069:9085   */\n      add\n        /* \"#utility.yul\":9118:9121   */\n      dup5\n        /* \"#utility.yul\":9109:9115   */\n      dup5\n        /* \"#utility.yul\":9104:9107   */\n      dup5\n        /* \"#utility.yul\":9100:9116   */\n      add\n        /* \"#utility.yul\":9097:9122   */\n      gt\n        /* \"#utility.yul\":9094:9206   */\n      iszero\n      tag_478\n      jumpi\n        /* \"#utility.yul\":9125:9204   */\n      tag_479\n      tag_339\n      jump\t// in\n    tag_479:\n        /* \"#utility.yul\":9094:9206   */\n    tag_478:\n        /* \"#utility.yul\":9215:9269   */\n      tag_480\n        /* \"#utility.yul\":9262:9268   */\n      dup5\n        /* \"#utility.yul\":9257:9260   */\n      dup3\n        /* \"#utility.yul\":9252:9255   */\n      dup6\n        /* \"#utility.yul\":9215:9269   */\n      tag_343\n      jump\t// in\n    tag_480:\n        /* \"#utility.yul\":8935:9275   */\n      pop\n        /* \"#utility.yul\":8852:9275   */\n      swap4\n      swap3\n      pop\n      pop\n      pop\n      jump\t// out\n        /* \"#utility.yul\":9294:9632   */\n    tag_345:\n        /* \"#utility.yul\":9349:9354   */\n      0x00\n        /* \"#utility.yul\":9398:9401   */\n      dup3\n        /* \"#utility.yul\":9391:9395   */\n      0x1f\n        /* \"#utility.yul\":9383:9389   */\n      dup4\n        /* \"#utility.yul\":9379:9396   */\n      add\n        /* \"#utility.yul\":9375:9402   */\n      slt\n        /* \"#utility.yul\":9365:9487   */\n      tag_482\n      jumpi\n        /* \"#utility.yul\":9406:9485   */\n      tag_483\n      tag_338\n      jump\t// in\n    tag_483:\n        /* \"#utility.yul\":9365:9487   */\n    tag_482:\n        /* \"#utility.yul\":9523:9529   */\n      dup2\n        /* \"#utility.yul\":9510:9530   */\n      calldataload\n        /* \"#utility.yul\":9548:9626   */\n      tag_484\n        /* \"#utility.yul\":9622:9625   */\n      dup5\n        /* \"#utility.yul\":9614:9620   */\n      dup3\n        /* \"#utility.yul\":9607:9611   */\n      0x20\n        /* \"#utility.yul\":9599:9605   */\n      dup7\n        /* \"#utility.yul\":9595:9612   */\n      add\n        /* \"#utility.yul\":9548:9626   */\n      tag_344\n      jump\t// in\n    tag_484:\n        /* \"#utility.yul\":9539:9626   */\n      swap2\n      pop\n        /* \"#utility.yul\":9355:9632   */\n      pop\n        /* \"#utility.yul\":9294:9632   */\n      swap3\n      swap2\n      pop\n      pop\n      jump\t// out\n        /* \"#utility.yul\":9638:10581   */\n    tag_127:\n        /* \"#utility.yul\":9733:9739   */\n      0x00\n        /* \"#utility.yul\":9741:9747   */\n      dup1\n        /* \"#utility.yul\":9749:9755   */\n      0x00\n        /* \"#utility.yul\":9757:9763   */\n      dup1\n        /* \"#utility.yul\":9806:9809   */\n      0x80\n        /* \"#utility.yul\":9794:9803   */\n      dup6\n        /* \"#utility.yul\":9785:9792   */\n      dup8\n        /* \"#utility.yul\":9781:9804   */\n      sub\n        /* \"#utility.yul\":9777:9810   */\n      slt\n        /* \"#utility.yul\":9774:9894   */\n      iszero\n      tag_486\n      jumpi\n        /* \"#utility.yul\":9813:9892   */\n      tag_487\n      tag_312\n      jump\t// in\n    tag_487:\n        /* \"#utility.yul\":9774:9894   */\n    tag_486:\n        /* \"#utility.yul\":9933:9934   */\n      0x00\n        /* \"#utility.yul\":9958:10011   */\n      tag_488\n        /* \"#utility.yul\":10003:10010   */\n      dup8\n        /* \"#utility.yul\":9994:10000   */\n      dup3\n        /* \"#utility.yul\":9983:9992   */\n      dup9\n        /* \"#utility.yul\":9979:10001   */\n      add\n        /* \"#utility.yul\":9958:10011   */\n      tag_334\n      jump\t// in\n    tag_488:\n        /* \"#utility.yul\":9948:10011   */\n      swap5\n      pop\n        /* \"#utility.yul\":9904:10021   */\n      pop\n        /* \"#utility.yul\":10060:10062   */\n      0x20\n        /* \"#utility.yul\":10086:10139   */\n      tag_489\n        /* \"#utility.yul\":10131:10138   */\n      dup8\n        /* \"#utility.yul\":10122:10128   */\n      dup3\n        /* \"#utility.yul\":10111:10120   */\n      dup9\n        /* \"#utility.yul\":10107:10129   */\n      add\n        /* \"#utility.yul\":10086:10139   */\n      tag_334\n      jump\t// in\n    tag_489:\n        /* \"#utility.yul\":10076:10139   */\n      swap4\n      pop\n        /* \"#utility.yul\":10031:10149   */\n      pop\n        /* \"#utility.yul\":10188:10190   */\n      0x40\n        /* \"#utility.yul\":10214:10267   */\n      tag_490\n        /* \"#utility.yul\":10259:10266   */\n      dup8\n        /* \"#utility.yul\":10250:10256   */\n      dup3\n        /* \"#utility.yul\":10239:10248   */\n      dup9\n        /* \"#utility.yul\":10235:10257   */\n      add\n        /* \"#utility.yul\":10214:10267   */\n      tag_329\n      jump\t// in\n    tag_490:\n        /* \"#utility.yul\":10204:10267   */\n      swap3\n      pop\n        /* \"#utility.yul\":10159:10277   */\n      pop\n        /* \"#utility.yul\":10344:10346   */\n      0x60\n        /* \"#utility.yul\":10333:10342   */\n      dup6\n        /* \"#utility.yul\":10329:10347   */\n      add\n        /* \"#utility.yul\":10316:10348   */\n      calldataload\n        /* \"#utility.yul\":10375:10393   */\n      0xffffffffffffffff\n        /* \"#utility.yul\":10367:10373   */\n      dup2\n        /* \"#utility.yul\":10364:10394   */\n      gt\n        /* \"#utility.yul\":10361:10478   */\n      iszero\n      tag_491\n      jumpi\n        /* \"#utility.yul\":10397:10476   */\n      tag_492\n      tag_313\n      jump\t// in\n    tag_492:\n        /* \"#utility.yul\":10361:10478   */\n    tag_491:\n        /* \"#utility.yul\":10502:10564   */\n      tag_493\n        /* \"#utility.yul\":10556:10563   */\n      dup8\n        /* \"#utility.yul\":10547:10553   */\n      dup3\n        /* \"#utility.yul\":10536:10545   */\n      dup9\n        /* \"#utility.yul\":10532:10554   */\n      add\n        /* \"#utility.yul\":10502:10564   */\n      tag_345\n      jump\t// in\n    tag_493:\n        /* \"#utility.yul\":10492:10564   */\n      swap2\n      pop\n        /* \"#utility.yul\":10287:10574   */\n      pop\n        /* \"#utility.yul\":9638:10581   */\n      swap3\n      swap6\n      swap2\n      swap5\n      pop\n      swap3\n      pop\n      jump\t// out\n        /* \"#utility.yul\":10587:11061   */\n    tag_149:\n        /* \"#utility.yul\":10655:10661   */\n      0x00\n        /* \"#utility.yul\":10663:10669   */\n      dup1\n        /* \"#utility.yul\":10712:10714   */\n      0x40\n        /* \"#utility.yul\":10700:10709   */\n      dup4\n        /* \"#utility.yul\":10691:10698   */\n      dup6\n        /* \"#utility.yul\":10687:10710   */\n      sub\n        /* \"#utility.yul\":10683:10715   */\n      slt\n        /* \"#utility.yul\":10680:10799   */\n      iszero\n      tag_495\n      jumpi\n        /* \"#utility.yul\":10718:10797   */\n      tag_496\n      tag_312\n      jump\t// in\n    tag_496:\n        /* \"#utility.yul\":10680:10799   */\n    tag_495:\n        /* \"#utility.yul\":10838:10839   */\n      0x00\n        /* \"#utility.yul\":10863:10916   */\n      tag_497\n        /* \"#utility.yul\":10908:10915   */\n      dup6\n        /* \"#utility.yul\":10899:10905   */\n      dup3\n        /* \"#utility.yul\":10888:10897   */\n      dup7\n        /* \"#utility.yul\":10884:10906   */\n      add\n        /* \"#utility.yul\":10863:10916   */\n      tag_334\n      jump\t// in\n    tag_497:\n        /* \"#utility.yul\":10853:10916   */\n      swap3\n      pop\n        /* \"#utility.yul\":10809:10926   */\n      pop\n        /* \"#utility.yul\":10965:10967   */\n      0x20\n        /* \"#utility.yul\":10991:11044   */\n      tag_498\n        /* \"#utility.yul\":11036:11043   */\n      dup6\n        /* \"#utility.yul\":11027:11033   */\n      dup3\n        /* \"#utility.yul\":11016:11025   */\n      dup7\n        /* \"#utility.yul\":11012:11034   */\n      add\n        /* \"#utility.yul\":10991:11044   */\n      tag_334\n      jump\t// in\n    tag_498:\n        /* \"#utility.yul\":10981:11044   */\n      swap2\n      pop\n        /* \"#utility.yul\":10936:11054   */\n      pop\n        /* \"#utility.yul\":10587:11061   */\n      swap3\n      pop\n      swap3\n      swap1\n      pop\n      jump\t// out\n        /* \"#utility.yul\":11067:11247   */\n    tag_346:\n        /* \"#utility.yul\":11115:11192   */\n      0x4e487b7100000000000000000000000000000000000000000000000000000000\n        /* \"#utility.yul\":11112:11113   */\n      0x00\n        /* \"#utility.yul\":11105:11193   */\n      mstore\n        /* \"#utility.yul\":11212:11216   */\n      0x22\n        /* \"#utility.yul\":11209:11210   */\n      0x04\n        /* \"#utility.yul\":11202:11217   */\n      mstore\n        /* \"#utility.yul\":11236:11240   */\n      0x24\n        /* \"#utility.yul\":11233:11234   */\n      0x00\n        /* \"#utility.yul\":11226:11241   */\n      revert\n        /* \"#utility.yul\":11253:11573   */\n    tag_168:\n        /* \"#utility.yul\":11297:11303   */\n      0x00\n        /* \"#utility.yul\":11334:11335   */\n      0x02\n        /* \"#utility.yul\":11328:11332   */\n      dup3\n        /* \"#utility.yul\":11324:11336   */\n      div\n        /* \"#utility.yul\":11314:11336   */\n      swap1\n      pop\n        /* \"#utility.yul\":11381:11382   */\n      0x01\n        /* \"#utility.yul\":11375:11379   */\n      dup3\n        /* \"#utility.yul\":11371:11383   */\n      and\n        /* \"#utility.yul\":11402:11420   */\n      dup1\n        /* \"#utility.yul\":11392:11473   */\n      tag_501\n      jumpi\n        /* \"#utility.yul\":11458:11462   */\n      0x7f\n        /* \"#utility.yul\":11450:11456   */\n      dup3\n        /* \"#utility.yul\":11446:11463   */\n      and\n        /* \"#utility.yul\":11436:11463   */\n      swap2\n      pop\n        /* \"#utility.yul\":11392:11473   */\n    tag_501:\n        /* \"#utility.yul\":11520:11522   */\n      0x20\n        /* \"#utility.yul\":11512:11518   */\n      dup3\n        /* \"#utility.yul\":11509:11523   */\n      lt\n        /* \"#utility.yul\":11489:11507   */\n      dup2\n        /* \"#utility.yul\":11486:11524   */\n      sub\n        /* \"#utility.yul\":11483:11567   */\n      tag_502\n      jumpi\n        /* \"#utility.yul\":11539:11557   */\n      tag_503\n      tag_346\n      jump\t// in\n    tag_503:\n        /* \"#utility.yul\":11483:11567   */\n    tag_502:\n        /* \"#utility.yul\":11304:11573   */\n      pop\n        /* \"#utility.yul\":11253:11573   */\n      swap2\n      swap1\n      pop\n      jump\t// out\n        /* \"#utility.yul\":11579:11752   */\n    tag_347:\n        /* \"#utility.yul\":11719:11744   */\n      0x746f6b656e20646f6573206e6f74206578697374212121000000000000000000\n        /* \"#utility.yul\":11715:11716   */\n      0x00\n        /* \"#utility.yul\":11707:11713   */\n      dup3\n        /* \"#utility.yul\":11703:11717   */\n      add\n        /* \"#utility.yul\":11696:11745   */\n      mstore\n        /* \"#utility.yul\":11579:11752   */\n      pop\n      jump\t// out\n        /* \"#utility.yul\":11758:12124   */\n    tag_348:\n        /* \"#utility.yul\":11900:11903   */\n      0x00\n        /* \"#utility.yul\":11921:11988   */\n      tag_506\n        /* \"#utility.yul\":11985:11987   */\n      0x17\n        /* \"#utility.yul\":11980:11983   */\n      dup4\n        /* \"#utility.yul\":11921:11988   */\n      tag_323\n      jump\t// in\n    tag_506:\n        /* \"#utility.yul\":11914:11988   */\n      swap2\n      pop\n        /* \"#utility.yul\":11997:12090   */\n      tag_507\n        /* \"#utility.yul\":12086:12089   */\n      dup3\n        /* \"#utility.yul\":11997:12090   */\n      tag_347\n      jump\t// in\n    tag_507:\n        /* \"#utility.yul\":12115:12117   */\n      0x20\n        /* \"#utility.yul\":12110:12113   */\n      dup3\n        /* \"#utility.yul\":12106:12118   */\n      add\n        /* \"#utility.yul\":12099:12118   */\n      swap1\n      pop\n        /* \"#utility.yul\":11758:12124   */\n      swap2\n      swap1\n      pop\n      jump\t// out\n        /* \"#utility.yul\":12130:12549   */\n    tag_176:\n        /* \"#utility.yul\":12296:12300   */\n      0x00\n        /* \"#utility.yul\":12334:12336   */\n      0x20\n        /* \"#utility.yul\":12323:12332   */\n      dup3\n        /* \"#utility.yul\":12319:12337   */\n      add\n        /* \"#utility.yul\":12311:12337   */\n      swap1\n      pop\n        /* \"#utility.yul\":12383:12392   */\n      dup2\n        /* \"#utility.yul\":12377:12381   */\n      dup2\n        /* \"#utility.yul\":12373:12393   */\n      sub\n        /* \"#utility.yul\":12369:12370   */\n      0x00\n        /* \"#utility.yul\":12358:12367   */\n      dup4\n        /* \"#utility.yul\":12354:12371   */\n      add\n        /* \"#utility.yul\":12347:12394   */\n      mstore\n        /* \"#utility.yul\":12411:12542   */\n      tag_509\n        /* \"#utility.yul\":12537:12541   */\n      dup2\n        /* \"#utility.yul\":12411:12542   */\n      tag_348\n      jump\t// in\n    tag_509:\n        /* \"#utility.yul\":12403:12542   */\n      swap1\n      pop\n        /* \"#utility.yul\":12130:12549   */\n      swap2\n      swap1\n      pop\n      jump\t// out\n        /* \"#utility.yul\":12555:12736   */\n    tag_349:\n        /* \"#utility.yul\":12695:12728   */\n      0x696e76616c69642063616c6c2066756e6374696f6e2027617070726f76652700\n        /* \"#utility.yul\":12691:12692   */\n      0x00\n        /* \"#utility.yul\":12683:12689   */\n      dup3\n        /* \"#utility.yul\":12679:12693   */\n      add\n        /* \"#utility.yul\":12672:12729   */\n      mstore\n        /* \"#utility.yul\":12555:12736   */\n      pop\n      jump\t// out\n        /* \"#utility.yul\":12742:13108   */\n    tag_350:\n        /* \"#utility.yul\":12884:12887   */\n      0x00\n        /* \"#utility.yul\":12905:12972   */\n      tag_512\n        /* \"#utility.yul\":12969:12971   */\n      0x1f\n        /* \"#utility.yul\":12964:12967   */\n      dup4\n        /* \"#utility.yul\":12905:12972   */\n      tag_323\n      jump\t// in\n    tag_512:\n        /* \"#utility.yul\":12898:12972   */\n      swap2\n      pop\n        /* \"#utility.yul\":12981:13074   */\n      tag_513\n        /* \"#utility.yul\":13070:13073   */\n      dup3\n        /* \"#utility.yul\":12981:13074   */\n      tag_349\n      jump\t// in\n    tag_513:\n        /* \"#utility.yul\":13099:13101   */\n      0x20\n        /* \"#utility.yul\":13094:13097   */\n      dup3\n        /* \"#utility.yul\":13090:13102   */\n      add\n        /* \"#utility.yul\":13083:13102   */\n      swap1\n      pop\n        /* \"#utility.yul\":12742:13108   */\n      swap2\n      swap1\n      pop\n      jump\t// out\n        /* \"#utility.yul\":13114:13533   */\n    tag_181:\n        /* \"#utility.yul\":13280:13284   */\n      0x00\n        /* \"#utility.yul\":13318:13320   */\n      0x20\n        /* \"#utility.yul\":13307:13316   */\n      dup3\n        /* \"#utility.yul\":13303:13321   */\n      add\n        /* \"#utility.yul\":13295:13321   */\n      swap1\n      pop\n        /* \"#utility.yul\":13367:13376   */\n      dup2\n        /* \"#utility.yul\":13361:13365   */\n      dup2\n        /* \"#utility.yul\":13357:13377   */\n      sub\n        /* \"#utility.yul\":13353:13354   */\n      0x00\n        /* \"#utility.yul\":13342:13351   */\n      dup4\n        /* \"#utility.yul\":13338:13355   */\n      add\n        /* \"#utility.yul\":13331:13378   */\n      mstore\n        /* \"#utility.yul\":13395:13526   */\n      tag_515\n        /* \"#utility.yul\":13521:13525   */\n      dup2\n        /* \"#utility.yul\":13395:13526   */\n      tag_350\n      jump\t// in\n    tag_515:\n        /* \"#utility.yul\":13387:13526   */\n      swap1\n      pop\n        /* \"#utility.yul\":13114:13533   */\n      swap2\n      swap1\n      pop\n      jump\t// out\n        /* \"#utility.yul\":13539:13710   */\n    tag_351:\n        /* \"#utility.yul\":13679:13702   */\n      0x6e6f74206f776e6572206f7220617070726f7665640000000000000000000000\n        /* \"#utility.yul\":13675:13676   */\n      0x00\n        /* \"#utility.yul\":13667:13673   */\n      dup3\n        /* \"#utility.yul\":13663:13677   */\n      add\n        /* \"#utility.yul\":13656:13703   */\n      mstore\n        /* \"#utility.yul\":13539:13710   */\n      pop\n      jump\t// out\n        /* \"#utility.yul\":13716:14082   */\n    tag_352:\n        /* \"#utility.yul\":13858:13861   */\n      0x00\n        /* \"#utility.yul\":13879:13946   */\n      tag_518\n        /* \"#utility.yul\":13943:13945   */\n      0x15\n        /* \"#utility.yul\":13938:13941   */\n      dup4\n        /* \"#utility.yul\":13879:13946   */\n      tag_323\n      jump\t// in\n    tag_518:\n        /* \"#utility.yul\":13872:13946   */\n      swap2\n      pop\n        /* \"#utility.yul\":13955:14048   */\n      tag_519\n        /* \"#utility.yul\":14044:14047   */\n      dup3\n        /* \"#utility.yul\":13955:14048   */\n      tag_351\n      jump\t// in\n    tag_519:\n        /* \"#utility.yul\":14073:14075   */\n      0x20\n        /* \"#utility.yul\":14068:14071   */\n      dup3\n        /* \"#utility.yul\":14064:14076   */\n      add\n        /* \"#utility.yul\":14057:14076   */\n      swap1\n      pop\n        /* \"#utility.yul\":13716:14082   */\n      swap2\n      swap1\n      pop\n      jump\t// out\n        /* \"#utility.yul\":14088:14507   */\n    tag_190:\n        /* \"#utility.yul\":14254:14258   */\n      0x00\n        /* \"#utility.yul\":14292:14294   */\n      0x20\n        /* \"#utility.yul\":14281:14290   */\n      dup3\n        /* \"#utility.yul\":14277:14295   */\n      add\n        /* \"#utility.yul\":14269:14295   */\n      swap1\n      pop\n        /* \"#utility.yul\":14341:14350   */\n      dup2\n        /* \"#utility.yul\":14335:14339   */\n      dup2\n        /* \"#utility.yul\":14331:14351   */\n      sub\n        /* \"#utility.yul\":14327:14328   */\n      0x00\n        /* \"#utility.yul\":14316:14325   */\n      dup4\n        /* \"#utility.yul\":14312:14329   */\n      add\n        /* \"#utility.yul\":14305:14352   */\n      mstore\n        /* \"#utility.yul\":14369:14500   */\n      tag_521\n        /* \"#utility.yul\":14495:14499   */\n      dup2\n        /* \"#utility.yul\":14369:14500   */\n      tag_352\n      jump\t// in\n    tag_521:\n        /* \"#utility.yul\":14361:14500   */\n      swap1\n      pop\n        /* \"#utility.yul\":14088:14507   */\n      swap2\n      swap1\n      pop\n      jump\t// out\n        /* \"#utility.yul\":14513:14693   */\n    tag_353:\n        /* \"#utility.yul\":14561:14638   */\n      0x4e487b7100000000000000000000000000000000000000000000000000000000\n        /* \"#utility.yul\":14558:14559   */\n      0x00\n        /* \"#utility.yul\":14551:14639   */\n      mstore\n        /* \"#utility.yul\":14658:14662   */\n      0x12\n        /* \"#utility.yul\":14655:14656   */\n      0x04\n        /* \"#utility.yul\":14648:14663   */\n      mstore\n        /* \"#utility.yul\":14682:14686   */\n      0x24\n        /* \"#utility.yul\":14679:14680   */\n      0x00\n        /* \"#utility.yul\":14672:14687   */\n      revert\n        /* \"#utility.yul\":14699:14879   */\n    tag_354:\n        /* \"#utility.yul\":14747:14824   */\n      0x4e487b7100000000000000000000000000000000000000000000000000000000\n        /* \"#utility.yul\":14744:14745   */\n      0x00\n        /* \"#utility.yul\":14737:14825   */\n      mstore\n        /* \"#utility.yul\":14844:14848   */\n      0x11\n        /* \"#utility.yul\":14841:14842   */\n      0x04\n        /* \"#utility.yul\":14834:14849   */\n      mstore\n        /* \"#utility.yul\":14868:14872   */\n      0x24\n        /* \"#utility.yul\":14865:14866   */\n      0x00\n        /* \"#utility.yul\":14858:14873   */\n      revert\n        /* \"#utility.yul\":14885:15070   */\n    tag_198:\n        /* \"#utility.yul\":14925:14926   */\n      0x00\n        /* \"#utility.yul\":14942:14962   */\n      tag_525\n        /* \"#utility.yul\":14960:14961   */\n      dup3\n        /* \"#utility.yul\":14942:14962   */\n      tag_327\n      jump\t// in\n    tag_525:\n        /* \"#utility.yul\":14937:14962   */\n      swap2\n      pop\n        /* \"#utility.yul\":14976:14996   */\n      tag_526\n        /* \"#utility.yul\":14994:14995   */\n      dup4\n        /* \"#utility.yul\":14976:14996   */\n      tag_327\n      jump\t// in\n    tag_526:\n        /* \"#utility.yul\":14971:14996   */\n      swap3\n      pop\n        /* \"#utility.yul\":15015:15016   */\n      dup3\n        /* \"#utility.yul\":15005:15040   */\n      tag_527\n      jumpi\n        /* \"#utility.yul\":15020:15038   */\n      tag_528\n      tag_353\n      jump\t// in\n    tag_528:\n        /* \"#utility.yul\":15005:15040   */\n    tag_527:\n        /* \"#utility.yul\":15062:15063   */\n      dup3\n        /* \"#utility.yul\":15059:15060   */\n      dup3\n        /* \"#utility.yul\":15055:15064   */\n      div\n        /* \"#utility.yul\":15050:15064   */\n      swap1\n      pop\n        /* \"#utility.yul\":14885:15070   */\n      swap3\n      swap2\n      pop\n      pop\n      jump\t// out\n        /* \"#utility.yul\":15076:15270   */\n    tag_200:\n        /* \"#utility.yul\":15116:15120   */\n      0x00\n        /* \"#utility.yul\":15136:15156   */\n      tag_530\n        /* \"#utility.yul\":15154:15155   */\n      dup3\n        /* \"#utility.yul\":15136:15156   */\n      tag_327\n      jump\t// in\n    tag_530:\n        /* \"#utility.yul\":15131:15156   */\n      swap2\n      pop\n        /* \"#utility.yul\":15170:15190   */\n      tag_531\n        /* \"#utility.yul\":15188:15189   */\n      dup4\n        /* \"#utility.yul\":15170:15190   */\n      tag_327\n      jump\t// in\n    tag_531:\n        /* \"#utility.yul\":15165:15190   */\n      swap3\n      pop\n        /* \"#utility.yul\":15214:15215   */\n      dup3\n        /* \"#utility.yul\":15211:15212   */\n      dup3\n        /* \"#utility.yul\":15207:15216   */\n      sub\n        /* \"#utility.yul\":15199:15216   */\n      swap1\n      pop\n        /* \"#utility.yul\":15238:15239   */\n      dup2\n        /* \"#utility.yul\":15232:15236   */\n      dup2\n        /* \"#utility.yul\":15229:15240   */\n      gt\n        /* \"#utility.yul\":15226:15263   */\n      iszero\n      tag_532\n      jumpi\n        /* \"#utility.yul\":15243:15261   */\n      tag_533\n      tag_354\n      jump\t// in\n    tag_533:\n        /* \"#utility.yul\":15226:15263   */\n    tag_532:\n        /* \"#utility.yul\":15076:15270   */\n      swap3\n      swap2\n      pop\n      pop\n      jump\t// out\n        /* \"#utility.yul\":15276:15444   */\n    tag_355:\n        /* \"#utility.yul\":15416:15436   */\n      0x746f6b656e206973206e6f742065786973740000000000000000000000000000\n        /* \"#utility.yul\":15412:15413   */\n      0x00\n        /* \"#utility.yul\":15404:15410   */\n      dup3\n        /* \"#utility.yul\":15400:15414   */\n      add\n        /* \"#utility.yul\":15393:15437   */\n      mstore\n        /* \"#utility.yul\":15276:15444   */\n      pop\n      jump\t// out\n        /* \"#utility.yul\":15450:15816   */\n    tag_356:\n        /* \"#utility.yul\":15592:15595   */\n      0x00\n        /* \"#utility.yul\":15613:15680   */\n      tag_536\n        /* \"#utility.yul\":15677:15679   */\n      0x12\n        /* \"#utility.yul\":15672:15675   */\n      dup4\n        /* \"#utility.yul\":15613:15680   */\n      tag_323\n      jump\t// in\n    tag_536:\n        /* \"#utility.yul\":15606:15680   */\n      swap2\n      pop\n        /* \"#utility.yul\":15689:15782   */\n      tag_537\n        /* \"#utility.yul\":15778:15781   */\n      dup3\n        /* \"#utility.yul\":15689:15782   */\n      tag_355\n      jump\t// in\n    tag_537:\n        /* \"#utility.yul\":15807:15809   */\n      0x20\n        /* \"#utility.yul\":15802:15805   */\n      dup3\n        /* \"#utility.yul\":15798:15810   */\n      add\n        /* \"#utility.yul\":15791:15810   */\n      swap1\n      pop\n        /* \"#utility.yul\":15450:15816   */\n      swap2\n      swap1\n      pop\n      jump\t// out\n        /* \"#utility.yul\":15822:16241   */\n    tag_205:\n        /* \"#utility.yul\":15988:15992   */\n      0x00\n        /* \"#utility.yul\":16026:16028   */\n      0x20\n        /* \"#utility.yul\":16015:16024   */\n      dup3\n        /* \"#utility.yul\":16011:16029   */\n      add\n        /* \"#utility.yul\":16003:16029   */\n      swap1\n      pop\n        /* \"#utility.yul\":16075:16084   */\n      dup2\n        /* \"#utility.yul\":16069:16073   */\n      dup2\n        /* \"#utility.yul\":16065:16085   */\n      sub\n        /* \"#utility.yul\":16061:16062   */\n      0x00\n        /* \"#utility.yul\":16050:16059   */\n      dup4\n        /* \"#utility.yul\":16046:16063   */\n      add\n        /* \"#utility.yul\":16039:16086   */\n      mstore\n        /* \"#utility.yul\":16103:16234   */\n      tag_539\n        /* \"#utility.yul\":16229:16233   */\n      dup2\n        /* \"#utility.yul\":16103:16234   */\n      tag_356\n      jump\t// in\n    tag_539:\n        /* \"#utility.yul\":16095:16234   */\n      swap1\n      pop\n        /* \"#utility.yul\":15822:16241   */\n      swap2\n      swap1\n      pop\n      jump\t// out\n        /* \"#utility.yul\":16247:16429   */\n    tag_357:\n        /* \"#utility.yul\":16387:16421   */\n      0x6f776e6572203d3d205a65726f416464726573732c20697320696e76616c6964\n        /* \"#utility.yul\":16383:16384   */\n      0x00\n        /* \"#utility.yul\":16375:16381   */\n      dup3\n        /* \"#utility.yul\":16371:16385   */\n      add\n        /* \"#utility.yul\":16364:16422   */\n      mstore\n        /* \"#utility.yul\":16247:16429   */\n      pop\n      jump\t// out\n        /* \"#utility.yul\":16435:16801   */\n    tag_358:\n        /* \"#utility.yul\":16577:16580   */\n      0x00\n        /* \"#utility.yul\":16598:16665   */\n      tag_542\n        /* \"#utility.yul\":16662:16664   */\n      0x20\n        /* \"#utility.yul\":16657:16660   */\n      dup4\n        /* \"#utility.yul\":16598:16665   */\n      tag_323\n      jump\t// in\n    tag_542:\n        /* \"#utility.yul\":16591:16665   */\n      swap2\n      pop\n        /* \"#utility.yul\":16674:16767   */\n      tag_543\n        /* \"#utility.yul\":16763:16766   */\n      dup3\n        /* \"#utility.yul\":16674:16767   */\n      tag_357\n      jump\t// in\n    tag_543:\n        /* \"#utility.yul\":16792:16794   */\n      0x20\n        /* \"#utility.yul\":16787:16790   */\n      dup3\n        /* \"#utility.yul\":16783:16795   */\n      add\n        /* \"#utility.yul\":16776:16795   */\n      swap1\n      pop\n        /* \"#utility.yul\":16435:16801   */\n      swap2\n      swap1\n      pop\n      jump\t// out\n        /* \"#utility.yul\":16807:17226   */\n    tag_209:\n        /* \"#utility.yul\":16973:16977   */\n      0x00\n        /* \"#utility.yul\":17011:17013   */\n      0x20\n        /* \"#utility.yul\":17000:17009   */\n      dup3\n        /* \"#utility.yul\":16996:17014   */\n      add\n        /* \"#utility.yul\":16988:17014   */\n      swap1\n      pop\n        /* \"#utility.yul\":17060:17069   */\n      dup2\n        /* \"#utility.yul\":17054:17058   */\n      dup2\n        /* \"#utility.yul\":17050:17070   */\n      sub\n        /* \"#utility.yul\":17046:17047   */\n      0x00\n        /* \"#utility.yul\":17035:17044   */\n      dup4\n        /* \"#utility.yul\":17031:17048   */\n      add\n        /* \"#utility.yul\":17024:17071   */\n      mstore\n        /* \"#utility.yul\":17088:17219   */\n      tag_545\n        /* \"#utility.yul\":17214:17218   */\n      dup2\n        /* \"#utility.yul\":17088:17219   */\n      tag_358\n      jump\t// in\n    tag_545:\n        /* \"#utility.yul\":17080:17219   */\n      swap1\n      pop\n        /* \"#utility.yul\":16807:17226   */\n      swap2\n      swap1\n      pop\n      jump\t// out\n        /* \"#utility.yul\":17232:17397   */\n    tag_359:\n        /* \"#utility.yul\":17372:17389   */\n      0x546f6b656e204e6f742045786973740000000000000000000000000000000000\n        /* \"#utility.yul\":17368:17369   */\n      0x00\n        /* \"#utility.yul\":17360:17366   */\n      dup3\n        /* \"#utility.yul\":17356:17370   */\n      add\n        /* \"#utility.yul\":17349:17390   */\n      mstore\n        /* \"#utility.yul\":17232:17397   */\n      pop\n      jump\t// out\n        /* \"#utility.yul\":17403:17769   */\n    tag_360:\n        /* \"#utility.yul\":17545:17548   */\n      0x00\n        /* \"#utility.yul\":17566:17633   */\n      tag_548\n        /* \"#utility.yul\":17630:17632   */\n      0x0f\n        /* \"#utility.yul\":17625:17628   */\n      dup4\n        /* \"#utility.yul\":17566:17633   */\n      tag_323\n      jump\t// in\n    tag_548:\n        /* \"#utility.yul\":17559:17633   */\n      swap2\n      pop\n        /* \"#utility.yul\":17642:17735   */\n      tag_549\n        /* \"#utility.yul\":17731:17734   */\n      dup3\n        /* \"#utility.yul\":17642:17735   */\n      tag_359\n      jump\t// in\n    tag_549:\n        /* \"#utility.yul\":17760:17762   */\n      0x20\n        /* \"#utility.yul\":17755:17758   */\n      dup3\n        /* \"#utility.yul\":17751:17763   */\n      add\n        /* \"#utility.yul\":17744:17763   */\n      swap1\n      pop\n        /* \"#utility.yul\":17403:17769   */\n      swap2\n      swap1\n      pop\n      jump\t// out\n        /* \"#utility.yul\":17775:18194   */\n    tag_232:\n        /* \"#utility.yul\":17941:17945   */\n      0x00\n        /* \"#utility.yul\":17979:17981   */\n      0x20\n        /* \"#utility.yul\":17968:17977   */\n      dup3\n        /* \"#utility.yul\":17964:17982   */\n      add\n        /* \"#utility.yul\":17956:17982   */\n      swap1\n      pop\n        /* \"#utility.yul\":18028:18037   */\n      dup2\n        /* \"#utility.yul\":18022:18026   */\n      dup2\n        /* \"#utility.yul\":18018:18038   */\n      sub\n        /* \"#utility.yul\":18014:18015   */\n      0x00\n        /* \"#utility.yul\":18003:18012   */\n      dup4\n        /* \"#utility.yul\":17999:18016   */\n      add\n        /* \"#utility.yul\":17992:18039   */\n      mstore\n        /* \"#utility.yul\":18056:18187   */\n      tag_551\n        /* \"#utility.yul\":18182:18186   */\n      dup2\n        /* \"#utility.yul\":18056:18187   */\n      tag_360\n      jump\t// in\n    tag_551:\n        /* \"#utility.yul\":18048:18187   */\n      swap1\n      pop\n        /* \"#utility.yul\":17775:18194   */\n      swap2\n      swap1\n      pop\n      jump\t// out\n        /* \"#utility.yul\":18200:18348   */\n    tag_361:\n        /* \"#utility.yul\":18302:18313   */\n      0x00\n        /* \"#utility.yul\":18339:18342   */\n      dup2\n        /* \"#utility.yul\":18324:18342   */\n      swap1\n      pop\n        /* \"#utility.yul\":18200:18348   */\n      swap3\n      swap2\n      pop\n      pop\n      jump\t// out\n        /* \"#utility.yul\":18354:18744   */\n    tag_362:\n        /* \"#utility.yul\":18460:18463   */\n      0x00\n        /* \"#utility.yul\":18488:18527   */\n      tag_554\n        /* \"#utility.yul\":18521:18526   */\n      dup3\n        /* \"#utility.yul\":18488:18527   */\n      tag_322\n      jump\t// in\n    tag_554:\n        /* \"#utility.yul\":18543:18632   */\n      tag_555\n        /* \"#utility.yul\":18625:18631   */\n      dup2\n        /* \"#utility.yul\":18620:18623   */\n      dup6\n        /* \"#utility.yul\":18543:18632   */\n      tag_361\n      jump\t// in\n    tag_555:\n        /* \"#utility.yul\":18536:18632   */\n      swap4\n      pop\n        /* \"#utility.yul\":18641:18706   */\n      tag_556\n        /* \"#utility.yul\":18699:18705   */\n      dup2\n        /* \"#utility.yul\":18694:18697   */\n      dup6\n        /* \"#utility.yul\":18687:18691   */\n      0x20\n        /* \"#utility.yul\":18680:18685   */\n      dup7\n        /* \"#utility.yul\":18676:18692   */\n      add\n        /* \"#utility.yul\":18641:18706   */\n      tag_324\n      jump\t// in\n    tag_556:\n        /* \"#utility.yul\":18731:18737   */\n      dup1\n        /* \"#utility.yul\":18726:18729   */\n      dup5\n        /* \"#utility.yul\":18722:18738   */\n      add\n        /* \"#utility.yul\":18715:18738   */\n      swap2\n      pop\n        /* \"#utility.yul\":18464:18744   */\n      pop\n        /* \"#utility.yul\":18354:18744   */\n      swap3\n      swap2\n      pop\n      pop\n      jump\t// out\n        /* \"#utility.yul\":18750:19185   */\n    tag_240:\n        /* \"#utility.yul\":18930:18933   */\n      0x00\n        /* \"#utility.yul\":18952:19047   */\n      tag_558\n        /* \"#utility.yul\":19043:19046   */\n      dup3\n        /* \"#utility.yul\":19034:19040   */\n      dup6\n        /* \"#utility.yul\":18952:19047   */\n      tag_362\n      jump\t// in\n    tag_558:\n        /* \"#utility.yul\":18945:19047   */\n      swap2\n      pop\n        /* \"#utility.yul\":19064:19159   */\n      tag_559\n        /* \"#utility.yul\":19155:19158   */\n      dup3\n        /* \"#utility.yul\":19146:19152   */\n      dup5\n        /* \"#utility.yul\":19064:19159   */\n      tag_362\n      jump\t// in\n    tag_559:\n        /* \"#utility.yul\":19057:19159   */\n      swap2\n      pop\n        /* \"#utility.yul\":19176:19179   */\n      dup2\n        /* \"#utility.yul\":19169:19179   */\n      swap1\n      pop\n        /* \"#utility.yul\":18750:19185   */\n      swap4\n      swap3\n      pop\n      pop\n      pop\n      jump\t// out\n        /* \"#utility.yul\":19191:19350   */\n    tag_363:\n        /* \"#utility.yul\":19331:19342   */\n      0x6e6f74206f776e65720000000000000000000000000000000000000000000000\n        /* \"#utility.yul\":19327:19328   */\n      0x00\n        /* \"#utility.yul\":19319:19325   */\n      dup3\n        /* \"#utility.yul\":19315:19329   */\n      add\n        /* \"#utility.yul\":19308:19343   */\n      mstore\n        /* \"#utility.yul\":19191:19350   */\n      pop\n      jump\t// out\n        /* \"#utility.yul\":19356:19721   */\n    tag_364:\n        /* \"#utility.yul\":19498:19501   */\n      0x00\n        /* \"#utility.yul\":19519:19585   */\n      tag_562\n        /* \"#utility.yul\":19583:19584   */\n      0x09\n        /* \"#utility.yul\":19578:19581   */\n      dup4\n        /* \"#utility.yul\":19519:19585   */\n      tag_323\n      jump\t// in\n    tag_562:\n        /* \"#utility.yul\":19512:19585   */\n      swap2\n      pop\n        /* \"#utility.yul\":19594:19687   */\n      tag_563\n        /* \"#utility.yul\":19683:19686   */\n      dup3\n        /* \"#utility.yul\":19594:19687   */\n      tag_363\n      jump\t// in\n    tag_563:\n        /* \"#utility.yul\":19712:19714   */\n      0x20\n        /* \"#utility.yul\":19707:19710   */\n      dup3\n        /* \"#utility.yul\":19703:19715   */\n      add\n        /* \"#utility.yul\":19696:19715   */\n      swap1\n      pop\n        /* \"#utility.yul\":19356:19721   */\n      swap2\n      swap1\n      pop\n      jump\t// out\n        /* \"#utility.yul\":19727:20146   */\n    tag_260:\n        /* \"#utility.yul\":19893:19897   */\n      0x00\n        /* \"#utility.yul\":19931:19933   */\n      0x20\n        /* \"#utility.yul\":19920:19929   */\n      dup3\n        /* \"#utility.yul\":19916:19934   */\n      add\n        /* \"#utility.yul\":19908:19934   */\n      swap1\n      pop\n        /* \"#utility.yul\":19980:19989   */\n      dup2\n        /* \"#utility.yul\":19974:19978   */\n      dup2\n        /* \"#utility.yul\":19970:19990   */\n      sub\n        /* \"#utility.yul\":19966:19967   */\n      0x00\n        /* \"#utility.yul\":19955:19964   */\n      dup4\n        /* \"#utility.yul\":19951:19968   */\n      add\n        /* \"#utility.yul\":19944:19991   */\n      mstore\n        /* \"#utility.yul\":20008:20139   */\n      tag_565\n        /* \"#utility.yul\":20134:20138   */\n      dup2\n        /* \"#utility.yul\":20008:20139   */\n      tag_364\n      jump\t// in\n    tag_565:\n        /* \"#utility.yul\":20000:20139   */\n      swap1\n      pop\n        /* \"#utility.yul\":19727:20146   */\n      swap2\n      swap1\n      pop\n      jump\t// out\n        /* \"#utility.yul\":20152:20343   */\n    tag_263:\n        /* \"#utility.yul\":20192:20195   */\n      0x00\n        /* \"#utility.yul\":20211:20231   */\n      tag_567\n        /* \"#utility.yul\":20229:20230   */\n      dup3\n        /* \"#utility.yul\":20211:20231   */\n      tag_327\n      jump\t// in\n    tag_567:\n        /* \"#utility.yul\":20206:20231   */\n      swap2\n      pop\n        /* \"#utility.yul\":20245:20265   */\n      tag_568\n        /* \"#utility.yul\":20263:20264   */\n      dup4\n        /* \"#utility.yul\":20245:20265   */\n      tag_327\n      jump\t// in\n    tag_568:\n        /* \"#utility.yul\":20240:20265   */\n      swap3\n      pop\n        /* \"#utility.yul\":20288:20289   */\n      dup3\n        /* \"#utility.yul\":20285:20286   */\n      dup3\n        /* \"#utility.yul\":20281:20290   */\n      add\n        /* \"#utility.yul\":20274:20290   */\n      swap1\n      pop\n        /* \"#utility.yul\":20309:20312   */\n      dup1\n        /* \"#utility.yul\":20306:20307   */\n      dup3\n        /* \"#utility.yul\":20303:20313   */\n      gt\n        /* \"#utility.yul\":20300:20336   */\n      iszero\n      tag_569\n      jumpi\n        /* \"#utility.yul\":20316:20334   */\n      tag_570\n      tag_354\n      jump\t// in\n    tag_570:\n        /* \"#utility.yul\":20300:20336   */\n    tag_569:\n        /* \"#utility.yul\":20152:20343   */\n      swap3\n      swap2\n      pop\n      pop\n      jump\t// out\n        /* \"#utility.yul\":20349:20582   */\n    tag_276:\n        /* \"#utility.yul\":20388:20391   */\n      0x00\n        /* \"#utility.yul\":20411:20435   */\n      tag_572\n        /* \"#utility.yul\":20429:20434   */\n      dup3\n        /* \"#utility.yul\":20411:20435   */\n      tag_327\n      jump\t// in\n    tag_572:\n        /* \"#utility.yul\":20402:20435   */\n      swap2\n      pop\n        /* \"#utility.yul\":20457:20523   */\n      0xffffffffffffffffffffffffffffffffffffffffffffffffffffffffffffffff\n        /* \"#utility.yul\":20450:20455   */\n      dup3\n        /* \"#utility.yul\":20447:20524   */\n      sub\n        /* \"#utility.yul\":20444:20547   */\n      tag_573\n      jumpi\n        /* \"#utility.yul\":20527:20545   */\n      tag_574\n      tag_354\n      jump\t// in\n    tag_574:\n        /* \"#utility.yul\":20444:20547   */\n    tag_573:\n        /* \"#utility.yul\":20574:20575   */\n      0x01\n        /* \"#utility.yul\":20567:20572   */\n      dup3\n        /* \"#utility.yul\":20563:20576   */\n      add\n        /* \"#utility.yul\":20556:20576   */\n      swap1\n      pop\n        /* \"#utility.yul\":20349:20582   */\n      swap2\n      swap1\n      pop\n      jump\t// out\n        /* \"#utility.yul\":20588:20764   */\n    tag_286:\n        /* \"#utility.yul\":20620:20621   */\n      0x00\n        /* \"#utility.yul\":20637:20657   */\n      tag_576\n        /* \"#utility.yul\":20655:20656   */\n      dup3\n        /* \"#utility.yul\":20637:20657   */\n      tag_327\n      jump\t// in\n    tag_576:\n        /* \"#utility.yul\":20632:20657   */\n      swap2\n      pop\n        /* \"#utility.yul\":20671:20691   */\n      tag_577\n        /* \"#utility.yul\":20689:20690   */\n      dup4\n        /* \"#utility.yul\":20671:20691   */\n      tag_327\n      jump\t// in\n    tag_577:\n        /* \"#utility.yul\":20666:20691   */\n      swap3\n      pop\n        /* \"#utility.yul\":20710:20711   */\n      dup3\n        /* \"#utility.yul\":20700:20735   */\n      tag_578\n      jumpi\n        /* \"#utility.yul\":20715:20733   */\n      tag_579\n      tag_353\n      jump\t// in\n    tag_579:\n        /* \"#utility.yul\":20700:20735   */\n    tag_578:\n        /* \"#utility.yul\":20756:20757   */\n      dup3\n        /* \"#utility.yul\":20753:20754   */\n      dup3\n        /* \"#utility.yul\":20749:20758   */\n      mod\n        /* \"#utility.yul\":20744:20758   */\n      swap1\n      pop\n        /* \"#utility.yul\":20588:20764   */\n      swap3\n      swap2\n      pop\n      pop\n      jump\t// out\n        /* \"#utility.yul\":20770:20950   */\n    tag_290:\n        /* \"#utility.yul\":20818:20895   */\n      0x4e487b7100000000000000000000000000000000000000000000000000000000\n        /* \"#utility.yul\":20815:20816   */\n      0x00\n        /* \"#utility.yul\":20808:20896   */\n      mstore\n        /* \"#utility.yul\":20915:20919   */\n      0x32\n        /* \"#utility.yul\":20912:20913   */\n      0x04\n        /* \"#utility.yul\":20905:20920   */\n      mstore\n        /* \"#utility.yul\":20939:20943   */\n      0x24\n        /* \"#utility.yul\":20936:20937   */\n      0x00\n        /* \"#utility.yul\":20929:20944   */\n      revert\n        /* \"#utility.yul\":20956:21054   */\n    tag_365:\n        /* \"#utility.yul\":21007:21013   */\n      0x00\n        /* \"#utility.yul\":21041:21046   */\n      dup2\n        /* \"#utility.yul\":21035:21047   */\n      mload\n        /* \"#utility.yul\":21025:21047   */\n      swap1\n      pop\n        /* \"#utility.yul\":20956:21054   */\n      swap2\n      swap1\n      pop\n      jump\t// out\n        /* \"#utility.yul\":21060:21228   */\n    tag_366:\n        /* \"#utility.yul\":21143:21154   */\n      0x00\n        /* \"#utility.yul\":21177:21183   */\n      dup3\n        /* \"#utility.yul\":21172:21175   */\n      dup3\n        /* \"#utility.yul\":21165:21184   */\n      mstore\n        /* \"#utility.yul\":21217:21221   */\n      0x20\n        /* \"#utility.yul\":21212:21215   */\n      dup3\n        /* \"#utility.yul\":21208:21222   */\n      add\n        /* \"#utility.yul\":21193:21222   */\n      swap1\n      pop\n        /* \"#utility.yul\":21060:21228   */\n      swap3\n      swap2\n      pop\n      pop\n      jump\t// out\n        /* \"#utility.yul\":21234:21607   */\n    tag_367:\n        /* \"#utility.yul\":21320:21323   */\n      0x00\n        /* \"#utility.yul\":21348:21386   */\n      tag_584\n        /* \"#utility.yul\":21380:21385   */\n      dup3\n        /* \"#utility.yul\":21348:21386   */\n      tag_365\n      jump\t// in\n    tag_584:\n        /* \"#utility.yul\":21402:21472   */\n      tag_585\n        /* \"#utility.yul\":21465:21471   */\n      dup2\n        /* \"#utility.yul\":21460:21463   */\n      dup6\n        /* \"#utility.yul\":21402:21472   */\n      tag_366\n      jump\t// in\n    tag_585:\n        /* \"#utility.yul\":21395:21472   */\n      swap4\n      pop\n        /* \"#utility.yul\":21481:21546   */\n      tag_586\n        /* \"#utility.yul\":21539:21545   */\n      dup2\n        /* \"#utility.yul\":21534:21537   */\n      dup6\n        /* \"#utility.yul\":21527:21531   */\n      0x20\n        /* \"#utility.yul\":21520:21525   */\n      dup7\n        /* \"#utility.yul\":21516:21532   */\n      add\n        /* \"#utility.yul\":21481:21546   */\n      tag_324\n      jump\t// in\n    tag_586:\n        /* \"#utility.yul\":21571:21600   */\n      tag_587\n        /* \"#utility.yul\":21593:21599   */\n      dup2\n        /* \"#utility.yul\":21571:21600   */\n      tag_325\n      jump\t// in\n    tag_587:\n        /* \"#utility.yul\":21566:21569   */\n      dup5\n        /* \"#utility.yul\":21562:21601   */\n      add\n        /* \"#utility.yul\":21555:21601   */\n      swap2\n      pop\n        /* \"#utility.yul\":21324:21607   */\n      pop\n        /* \"#utility.yul\":21234:21607   */\n      swap3\n      swap2\n      pop\n      pop\n      jump\t// out\n        /* \"#utility.yul\":21613:22253   */\n    tag_295:\n        /* \"#utility.yul\":21808:21812   */\n      0x00\n        /* \"#utility.yul\":21846:21849   */\n      0x80\n        /* \"#utility.yul\":21835:21844   */\n      dup3\n        /* \"#utility.yul\":21831:21850   */\n      add\n        /* \"#utility.yul\":21823:21850   */\n      swap1\n      pop\n        /* \"#utility.yul\":21860:21931   */\n      tag_589\n        /* \"#utility.yul\":21928:21929   */\n      0x00\n        /* \"#utility.yul\":21917:21926   */\n      dup4\n        /* \"#utility.yul\":21913:21930   */\n      add\n        /* \"#utility.yul\":21904:21910   */\n      dup8\n        /* \"#utility.yul\":21860:21931   */\n      tag_332\n      jump\t// in\n    tag_589:\n        /* \"#utility.yul\":21941:22013   */\n      tag_590\n        /* \"#utility.yul\":22009:22011   */\n      0x20\n        /* \"#utility.yul\":21998:22007   */\n      dup4\n        /* \"#utility.yul\":21994:22012   */\n      add\n        /* \"#utility.yul\":21985:21991   */\n      dup7\n        /* \"#utility.yul\":21941:22013   */\n      tag_332\n      jump\t// in\n    tag_590:\n        /* \"#utility.yul\":22023:22095   */\n      tag_591\n        /* \"#utility.yul\":22091:22093   */\n      0x40\n        /* \"#utility.yul\":22080:22089   */\n      dup4\n        /* \"#utility.yul\":22076:22094   */\n      add\n        /* \"#utility.yul\":22067:22073   */\n      dup6\n        /* \"#utility.yul\":22023:22095   */\n      tag_335\n      jump\t// in\n    tag_591:\n        /* \"#utility.yul\":22142:22151   */\n      dup2\n        /* \"#utility.yul\":22136:22140   */\n      dup2\n        /* \"#utility.yul\":22132:22152   */\n      sub\n        /* \"#utility.yul\":22127:22129   */\n      0x60\n        /* \"#utility.yul\":22116:22125   */\n      dup4\n        /* \"#utility.yul\":22112:22130   */\n      add\n        /* \"#utility.yul\":22105:22153   */\n      mstore\n        /* \"#utility.yul\":22170:22246   */\n      tag_592\n        /* \"#utility.yul\":22241:22245   */\n      dup2\n        /* \"#utility.yul\":22232:22238   */\n      dup5\n        /* \"#utility.yul\":22170:22246   */\n      tag_367\n      jump\t// in\n    tag_592:\n        /* \"#utility.yul\":22162:22246   */\n      swap1\n      pop\n        /* \"#utility.yul\":21613:22253   */\n      swap6\n      swap5\n      pop\n      pop\n      pop\n      pop\n      pop\n      jump\t// out\n        /* \"#utility.yul\":22259:22400   */\n    tag_368:\n        /* \"#utility.yul\":22315:22320   */\n      0x00\n        /* \"#utility.yul\":22346:22352   */\n      dup2\n        /* \"#utility.yul\":22340:22353   */\n      mload\n        /* \"#utility.yul\":22331:22353   */\n      swap1\n      pop\n        /* \"#utility.yul\":22362:22394   */\n      tag_594\n        /* \"#utility.yul\":22388:22393   */\n      dup2\n        /* \"#utility.yul\":22362:22394   */\n      tag_315\n      jump\t// in\n    tag_594:\n        /* \"#utility.yul\":22259:22400   */\n      swap3\n      swap2\n      pop\n      pop\n      jump\t// out\n        /* \"#utility.yul\":22406:22755   */\n    tag_298:\n        /* \"#utility.yul\":22475:22481   */\n      0x00\n        /* \"#utility.yul\":22524:22526   */\n      0x20\n        /* \"#utility.yul\":22512:22521   */\n      dup3\n        /* \"#utility.yul\":22503:22510   */\n      dup5\n        /* \"#utility.yul\":22499:22522   */\n      sub\n        /* \"#utility.yul\":22495:22527   */\n      slt\n        /* \"#utility.yul\":22492:22611   */\n      iszero\n      tag_596\n      jumpi\n        /* \"#utility.yul\":22530:22609   */\n      tag_597\n      tag_312\n      jump\t// in\n    tag_597:\n        /* \"#utility.yul\":22492:22611   */\n    tag_596:\n        /* \"#utility.yul\":22650:22651   */\n      0x00\n        /* \"#utility.yul\":22675:22738   */\n      tag_598\n        /* \"#utility.yul\":22730:22737   */\n      dup5\n        /* \"#utility.yul\":22721:22727   */\n      dup3\n        /* \"#utility.yul\":22710:22719   */\n      dup6\n        /* \"#utility.yul\":22706:22728   */\n      add\n        /* \"#utility.yul\":22675:22738   */\n      tag_368\n      jump\t// in\n    tag_598:\n        /* \"#utility.yul\":22665:22738   */\n      swap2\n      pop\n        /* \"#utility.yul\":22621:22748   */\n      pop\n        /* \"#utility.yul\":22406:22755   */\n      swap3\n      swap2\n      pop\n      pop\n      jump\t// out\n\n    auxdata: 0xa2646970667358221220e0c0bce1ca2990841855167e7f0c18685bd62e548dad2e34a3d00150fc07734b64736f6c634300081a0033\n}\n",
				"bytecode": {
					"linkReferences": {},
					"object": "608060405234801561000f575f80fd5b506040518060400160405280601081526020017f4b582044757463682041756374696f6e000000000000000000000000000000008152506040518060400160405280601081526020017f4b582044757463682041756374696f6e00000000000000000000000000000000815250335f73ffffffffffffffffffffffffffffffffffffffff168173ffffffffffffffffffffffffffffffffffffffff16036100ed575f6040517f1e4fbdf70000000000000000000000000000000000000000000000000000000081526004016100e4919061022b565b60405180910390fd5b6100fc8161012b60201b60201c565b50816001908161010c919061047e565b50806002908161011c919061047e565b5050504260078190555061054d565b5f805f9054906101000a900473ffffffffffffffffffffffffffffffffffffffff169050815f806101000a81548173ffffffffffffffffffffffffffffffffffffffff021916908373ffffffffffffffffffffffffffffffffffffffff1602179055508173ffffffffffffffffffffffffffffffffffffffff168173ffffffffffffffffffffffffffffffffffffffff167f8be0079c531659141344cd1fd0a4f28419497f9722a3daafe3b4186f6b6457e060405160405180910390a35050565b5f73ffffffffffffffffffffffffffffffffffffffff82169050919050565b5f610215826101ec565b9050919050565b6102258161020b565b82525050565b5f60208201905061023e5f83018461021c565b92915050565b5f81519050919050565b7f4e487b71000000000000000000000000000000000000000000000000000000005f52604160045260245ffd5b7f4e487b71000000000000000000000000000000000000000000000000000000005f52602260045260245ffd5b5f60028204905060018216806102bf57607f821691505b6020821081036102d2576102d161027b565b5b50919050565b5f819050815f5260205f209050919050565b5f6020601f8301049050919050565b5f82821b905092915050565b5f600883026103347fffffffffffffffffffffffffffffffffffffffffffffffffffffffffffffffff826102f9565b61033e86836102f9565b95508019841693508086168417925050509392505050565b5f819050919050565b5f819050919050565b5f61038261037d61037884610356565b61035f565b610356565b9050919050565b5f819050919050565b61039b83610368565b6103af6103a782610389565b848454610305565b825550505050565b5f90565b6103c36103b7565b6103ce818484610392565b505050565b5b818110156103f1576103e65f826103bb565b6001810190506103d4565b5050565b601f82111561043657610407816102d8565b610410846102ea565b8101602085101561041f578190505b61043361042b856102ea565b8301826103d3565b50505b505050565b5f82821c905092915050565b5f6104565f198460080261043b565b1980831691505092915050565b5f61046e8383610447565b9150826002028217905092915050565b61048782610244565b67ffffffffffffffff8111156104a05761049f61024e565b5b6104aa82546102a8565b6104b58282856103f5565b5f60209050601f8311600181146104e6575f84156104d4578287015190505b6104de8582610463565b865550610545565b601f1984166104f4866102d8565b5f5b8281101561051b578489015182556001820191506020850194506020810190506104f6565b868310156105385784890151610534601f891682610447565b8355505b6001600288020188555050505b505050505050565b6125208061055a5f395ff3fe60806040526004361061019b575f3560e01c806370a08231116100eb578063c87b56dd11610089578063e592301a11610063578063e592301a14610591578063e985e9c5146105bb578063eb54f9ec146105f7578063f2fde38b146106215761019b565b8063c87b56dd14610501578063caf8a6d11461053d578063d8258d95146105675761019b565b80638da5cb5b116100c55780638da5cb5b1461045d57806395d89b4114610487578063a22cb465146104b1578063b88d4fde146104d95761019b565b806370a08231146103e1578063715018a61461041d5780637a1c4a56146104335761019b565b806323b872dd116101585780634bd25c6f116101325780634bd25c6f146103355780634d3554c31461035f57806359f369fe1461037b5780636352211e146103a55761019b565b806323b872dd146102bb5780634047f289146102e357806342842e0e1461030d5761019b565b806301ffc9a71461019f5780630697346f146101db57806306fdde0314610203578063081812fc1461022d578063095ea7b31461026957806318160ddd14610291575b5f80fd5b3480156101aa575f80fd5b506101c560048036038101906101c09190611984565b610649565b6040516101d291906119c9565b60405180910390f35b3480156101e6575f80fd5b5061020160048036038101906101fc9190611a1b565b610782565b005b34801561020e575f80fd5b5061021761079a565b6040516102249190611ab6565b60405180910390f35b348015610238575f80fd5b50610253600480360381019061024e9190611b09565b610826565b6040516102609190611b73565b60405180910390f35b348015610274575f80fd5b5061028f600480360381019061028a9190611bb6565b6108fd565b005b34801561029c575f80fd5b506102a5610a3b565b6040516102b29190611c03565b60405180910390f35b3480156102c6575f80fd5b506102e160048036038101906102dc9190611c1c565b610a47565b005b3480156102ee575f80fd5b506102f7610ad7565b6040516103049190611c03565b60405180910390f35b348015610318575f80fd5b50610333600480360381019061032e9190611c1c565b610adc565b005b348015610340575f80fd5b50610349610afb565b6040516103569190611c03565b60405180910390f35b61037960048036038101906103749190611b09565b610aff565b005b348015610386575f80fd5b5061038f610b09565b60405161039c9190611c03565b60405180910390f35b3480156103b0575f80fd5b506103cb60048036038101906103c69190611b09565b610b41565b6040516103d89190611b73565b60405180910390f35b3480156103ec575f80fd5b5061040760048036038101906104029190611c6c565b610be8565b6040516104149190611c03565b60405180910390f35b348015610428575f80fd5b50610431610c9c565b005b34801561043e575f80fd5b50610447610caf565b6040516104549190611c03565b60405180910390f35b348015610468575f80fd5b50610471610cbb565b60405161047e9190611b73565b60405180910390f35b348015610492575f80fd5b5061049b610ce2565b6040516104a89190611ab6565b60405180910390f35b3480156104bc575f80fd5b506104d760048036038101906104d29190611cc1565b610d6e565b005b3480156104e4575f80fd5b506104ff60048036038101906104fa9190611e2b565b610e67565b005b34801561050c575f80fd5b5061052760048036038101906105229190611b09565b610ef9565b6040516105349190611ab6565b60405180910390f35b348015610548575f80fd5b50610551610ff3565b60405161055e9190611c03565b60405180910390f35b348015610572575f80fd5b5061057b610fff565b6040516105889190611c03565b60405180910390f35b34801561059c575f80fd5b506105a5611005565b6040516105b29190611c03565b60405180910390f35b3480156105c6575f80fd5b506105e160048036038101906105dc9190611eab565b61100b565b6040516105ee91906119c9565b60405180910390f35b348015610602575f80fd5b5061060b611099565b6040516106189190611c03565b60405180910390f35b34801561062c575f80fd5b5061064760048036038101906106429190611c6c565b61109f565b005b5f7f80ac58cd000000000000000000000000000000000000000000000000000000007bffffffffffffffffffffffffffffffffffffffffffffffffffffffff1916827bffffffffffffffffffffffffffffffffffffffffffffffffffffffff1916148061071357507f01ffc9a7000000000000000000000000000000000000000000000000000000007bffffffffffffffffffffffffffffffffffffffffffffffffffffffff1916827bffffffffffffffffffffffffffffffffffffffffffffffffffffffff1916145b8061077b57507f5b5e139f000000000000000000000000000000000000000000000000000000007bffffffffffffffffffffffffffffffffffffffffffffffffffffffff1916827bffffffffffffffffffffffffffffffffffffffffffffffffffffffff1916145b9050919050565b61078a611123565b8063ffffffff1660078190555050565b600180546107a790611f16565b80601f01602080910402602001604051908101604052809291908181526020018280546107d390611f16565b801561081e5780601f106107f55761010080835404028352916020019161081e565b820191905f5260205f20905b81548152906001019060200180831161080157829003601f168201915b505050505081565b5f8073ffffffffffffffffffffffffffffffffffffffff1660035f8481526020019081526020015f205f9054906101000a900473ffffffffffffffffffffffffffffffffffffffff1673ffffffffffffffffffffffffffffffffffffffff16036108c5576040517f08c379a00000000000000000000000000000000000000000000000000000000081526004016108bc90611f90565b60405180910390fd5b60055f8381526020019081526020015f205f9054906101000a900473ffffffffffffffffffffffffffffffffffffffff169050919050565b5f60035f8381526020019081526020015f205f9054906101000a900473ffffffffffffffffffffffffffffffffffffffff1690503373ffffffffffffffffffffffffffffffffffffffff168173ffffffffffffffffffffffffffffffffffffffff1614806109ec575060065f8273ffffffffffffffffffffffffffffffffffffffff1673ffffffffffffffffffffffffffffffffffffffff1681526020019081526020015f205f3373ffffffffffffffffffffffffffffffffffffffff1673ffffffffffffffffffffffffffffffffffffffff1681526020019081526020015f205f9054906101000a900460ff165b610a2b576040517f08c379a0000000000000000000000000000000000000000000000000000000008152600401610a2290611ff8565b60405180910390fd5b610a3681848461119c565b505050565b5f600980549050905090565b5f60035f8381526020019081526020015f205f9054906101000a900473ffffffffffffffffffffffffffffffffffffffff169050610a8681338461124b565b610ac5576040517f08c379a0000000000000000000000000000000000000000000000000000000008152600401610abc90612060565b60405180910390fd5b610ad181858585611376565b50505050565b603c81565b610af683838360405180602001604052805f815250610e67565b505050565b5f90565b5f60075490505050565b603c610258610b1891906120d8565b67016345785d8a0000670de0b6b3a7640000610b349190612108565b610b3e91906120d8565b81565b5f60035f8381526020019081526020015f205f9054906101000a900473ffffffffffffffffffffffffffffffffffffffff1690505f73ffffffffffffffffffffffffffffffffffffffff168173ffffffffffffffffffffffffffffffffffffffff1603610be3576040517f08c379a0000000000000000000000000000000000000000000000000000000008152600401610bda90612185565b60405180910390fd5b919050565b5f8073ffffffffffffffffffffffffffffffffffffffff168273ffffffffffffffffffffffffffffffffffffffff1603610c57576040517f08c379a0000000000000000000000000000000000000000000000000000000008152600401610c4e906121ed565b60405180910390fd5b60045f8373ffffffffffffffffffffffffffffffffffffffff1673ffffffffffffffffffffffffffffffffffffffff1681526020019081526020015f20549050919050565b610ca4611123565b610cad5f611524565b565b670de0b6b3a764000081565b5f805f9054906101000a900473ffffffffffffffffffffffffffffffffffffffff16905090565b60028054610cef90611f16565b80601f0160208091040260200160405190810160405280929190818152602001828054610d1b90611f16565b8015610d665780601f10610d3d57610100808354040283529160200191610d66565b820191905f5260205f20905b815481529060010190602001808311610d4957829003601f168201915b505050505081565b600160065f3373ffffffffffffffffffffffffffffffffffffffff1673ffffffffffffffffffffffffffffffffffffffff1681526020019081526020015f205f8473ffffffffffffffffffffffffffffffffffffffff1673ffffffffffffffffffffffffffffffffffffffff1681526020019081526020015f205f6101000a81548160ff0219169083151502179055508173ffffffffffffffffffffffffffffffffffffffff163373ffffffffffffffffffffffffffffffffffffffff167f17307eab39ab6107e8899845ad3d59bd9653f200f220920489ca2b5937696c3183604051610e5b91906119c9565b60405180910390a35050565b5f60035f8481526020019081526020015f205f9054906101000a900473ffffffffffffffffffffffffffffffffffffffff169050610ea681338561124b565b610ee5576040517f08c379a0000000000000000000000000000000000000000000000000000000008152600401610edc90612060565b60405180910390fd5b610ef281868686866115e5565b5050505050565b60605f73ffffffffffffffffffffffffffffffffffffffff1660035f8481526020019081526020015f205f9054906101000a900473ffffffffffffffffffffffffffffffffffffffff1673ffffffffffffffffffffffffffffffffffffffff1603610f99576040517f08c379a0000000000000000000000000000000000000000000000000000000008152600401610f9090612255565b60405180910390fd5b5f610fa2611604565b90505f815111610fc05760405180602001604052805f815250610feb565b80610fca8461161a565b604051602001610fdb9291906122ad565b6040516020818303038152906040525b915050919050565b67016345785d8a000081565b61271081565b61025881565b5f60065f8473ffffffffffffffffffffffffffffffffffffffff1673ffffffffffffffffffffffffffffffffffffffff1681526020019081526020015f205f8373ffffffffffffffffffffffffffffffffffffffff1673ffffffffffffffffffffffffffffffffffffffff1681526020019081526020015f205f9054906101000a900460ff16905092915050565b60075481565b6110a7611123565b5f73ffffffffffffffffffffffffffffffffffffffff168173ffffffffffffffffffffffffffffffffffffffff1603611117575f6040517f1e4fbdf700000000000000000000000000000000000000000000000000000000815260040161110e9190611b73565b60405180910390fd5b61112081611524565b50565b3373ffffffffffffffffffffffffffffffffffffffff16611142610cbb565b73ffffffffffffffffffffffffffffffffffffffff161461119a57336040517f118cdaa70000000000000000000000000000000000000000000000000000000081526004016111919190611b73565b60405180910390fd5b565b8160055f8381526020019081526020015f205f6101000a81548173ffffffffffffffffffffffffffffffffffffffff021916908373ffffffffffffffffffffffffffffffffffffffff160217905550808273ffffffffffffffffffffffffffffffffffffffff168473ffffffffffffffffffffffffffffffffffffffff167f8c5be1e5ebec7d5bd14f71427d1e84f3dd0314c0f7b2291e5b200ac8c7c3b92560405160405180910390a4505050565b5f8273ffffffffffffffffffffffffffffffffffffffff168473ffffffffffffffffffffffffffffffffffffffff161480611307575060065f8573ffffffffffffffffffffffffffffffffffffffff1673ffffffffffffffffffffffffffffffffffffffff1681526020019081526020015f205f8473ffffffffffffffffffffffffffffffffffffffff1673ffffffffffffffffffffffffffffffffffffffff1681526020019081526020015f205f9054906101000a900460ff165b8061136d57508273ffffffffffffffffffffffffffffffffffffffff1660055f8481526020019081526020015f205f9054906101000a900473ffffffffffffffffffffffffffffffffffffffff1673ffffffffffffffffffffffffffffffffffffffff16145b90509392505050565b8373ffffffffffffffffffffffffffffffffffffffff168373ffffffffffffffffffffffffffffffffffffffff161480156113dd57505f73ffffffffffffffffffffffffffffffffffffffff168273ffffffffffffffffffffffffffffffffffffffff1614155b61141c576040517f08c379a00000000000000000000000000000000000000000000000000000000081526004016114139061231a565b60405180910390fd5b600160045f8573ffffffffffffffffffffffffffffffffffffffff1673ffffffffffffffffffffffffffffffffffffffff1681526020019081526020015f205f8282546114699190612108565b92505081905550600160045f8473ffffffffffffffffffffffffffffffffffffffff1673ffffffffffffffffffffffffffffffffffffffff1681526020019081526020015f205f8282546114bd9190612338565b925050819055508160035f8381526020019081526020015f205f6101000a81548173ffffffffffffffffffffffffffffffffffffffff021916908373ffffffffffffffffffffffffffffffffffffffff16021790555061151e825f8361119c565b50505050565b5f805f9054906101000a900473ffffffffffffffffffffffffffffffffffffffff169050815f806101000a81548173ffffffffffffffffffffffffffffffffffffffff021916908373ffffffffffffffffffffffffffffffffffffffff1602179055508173ffffffffffffffffffffffffffffffffffffffff168173ffffffffffffffffffffffffffffffffffffffff167f8be0079c531659141344cd1fd0a4f28419497f9722a3daafe3b4186f6b6457e060405160405180910390a35050565b6115f185858585611376565b6115fd84848484611773565b5050505050565b606060405180602001604052805f815250905090565b60605f8203611660576040518060400160405280600181526020017f3000000000000000000000000000000000000000000000000000000000000000815250905061176e565b5f8290505f5b5f821461168f5780806116789061236b565b915050600a8261168891906120d8565b9150611666565b5f8167ffffffffffffffff8111156116aa576116a9611d07565b5b6040519080825280601f01601f1916602001820160405280156116dc5781602001600182028036833780820191505090505b5090505b5f8514611767576001826116f49190612108565b9150600a8561170391906123b2565b603061170f9190612338565b60f81b818381518110611725576117246123e2565b5b60200101907effffffffffffffffffffffffffffffffffffffffffffffffffffffffffffff191690815f1a905350600a8561176091906120d8565b94506116e0565b8093505050505b919050565b5f8373ffffffffffffffffffffffffffffffffffffffff163b1115611918578273ffffffffffffffffffffffffffffffffffffffff1663150b7a02338685856040518563ffffffff1660e01b81526004016117d19493929190612461565b6020604051808303815f875af192505050801561180c57506040513d601f19601f8201168201806040525081019061180991906124bf565b60015b61188d573d805f811461183a576040519150601f19603f3d011682016040523d82523d5f602084013e61183f565b606091505b505f81510361188557836040517f64a0ae9200000000000000000000000000000000000000000000000000000000815260040161187c9190611b73565b60405180910390fd5b805181602001fd5b63150b7a0260e01b7bffffffffffffffffffffffffffffffffffffffffffffffffffffffff1916817bffffffffffffffffffffffffffffffffffffffffffffffffffffffff19161461191657836040517f64a0ae9200000000000000000000000000000000000000000000000000000000815260040161190d9190611b73565b60405180910390fd5b505b50505050565b5f604051905090565b5f80fd5b5f80fd5b5f7fffffffff0000000000000000000000000000000000000000000000000000000082169050919050565b6119638161192f565b811461196d575f80fd5b50565b5f8135905061197e8161195a565b92915050565b5f6020828403121561199957611998611927565b5b5f6119a684828501611970565b91505092915050565b5f8115159050919050565b6119c3816119af565b82525050565b5f6020820190506119dc5f8301846119ba565b92915050565b5f63ffffffff82169050919050565b6119fa816119e2565b8114611a04575f80fd5b50565b5f81359050611a15816119f1565b92915050565b5f60208284031215611a3057611a2f611927565b5b5f611a3d84828501611a07565b91505092915050565b5f81519050919050565b5f82825260208201905092915050565b8281835e5f83830152505050565b5f601f19601f8301169050919050565b5f611a8882611a46565b611a928185611a50565b9350611aa2818560208601611a60565b611aab81611a6e565b840191505092915050565b5f6020820190508181035f830152611ace8184611a7e565b905092915050565b5f819050919050565b611ae881611ad6565b8114611af2575f80fd5b50565b5f81359050611b0381611adf565b92915050565b5f60208284031215611b1e57611b1d611927565b5b5f611b2b84828501611af5565b91505092915050565b5f73ffffffffffffffffffffffffffffffffffffffff82169050919050565b5f611b5d82611b34565b9050919050565b611b6d81611b53565b82525050565b5f602082019050611b865f830184611b64565b92915050565b611b9581611b53565b8114611b9f575f80fd5b50565b5f81359050611bb081611b8c565b92915050565b5f8060408385031215611bcc57611bcb611927565b5b5f611bd985828601611ba2565b9250506020611bea85828601611af5565b9150509250929050565b611bfd81611ad6565b82525050565b5f602082019050611c165f830184611bf4565b92915050565b5f805f60608486031215611c3357611c32611927565b5b5f611c4086828701611ba2565b9350506020611c5186828701611ba2565b9250506040611c6286828701611af5565b9150509250925092565b5f60208284031215611c8157611c80611927565b5b5f611c8e84828501611ba2565b91505092915050565b611ca0816119af565b8114611caa575f80fd5b50565b5f81359050611cbb81611c97565b92915050565b5f8060408385031215611cd757611cd6611927565b5b5f611ce485828601611ba2565b9250506020611cf585828601611cad565b9150509250929050565b5f80fd5b5f80fd5b7f4e487b71000000000000000000000000000000000000000000000000000000005f52604160045260245ffd5b611d3d82611a6e565b810181811067ffffffffffffffff82111715611d5c57611d5b611d07565b5b80604052505050565b5f611d6e61191e565b9050611d7a8282611d34565b919050565b5f67ffffffffffffffff821115611d9957611d98611d07565b5b611da282611a6e565b9050602081019050919050565b828183375f83830152505050565b5f611dcf611dca84611d7f565b611d65565b905082815260208101848484011115611deb57611dea611d03565b5b611df6848285611daf565b509392505050565b5f82601f830112611e1257611e11611cff565b5b8135611e22848260208601611dbd565b91505092915050565b5f805f8060808587031215611e4357611e42611927565b5b5f611e5087828801611ba2565b9450506020611e6187828801611ba2565b9350506040611e7287828801611af5565b925050606085013567ffffffffffffffff811115611e9357611e9261192b565b5b611e9f87828801611dfe565b91505092959194509250565b5f8060408385031215611ec157611ec0611927565b5b5f611ece85828601611ba2565b9250506020611edf85828601611ba2565b9150509250929050565b7f4e487b71000000000000000000000000000000000000000000000000000000005f52602260045260245ffd5b5f6002820490506001821680611f2d57607f821691505b602082108103611f4057611f3f611ee9565b5b50919050565b7f746f6b656e20646f6573206e6f742065786973742121210000000000000000005f82015250565b5f611f7a601783611a50565b9150611f8582611f46565b602082019050919050565b5f6020820190508181035f830152611fa781611f6e565b9050919050565b7f696e76616c69642063616c6c2066756e6374696f6e2027617070726f766527005f82015250565b5f611fe2601f83611a50565b9150611fed82611fae565b602082019050919050565b5f6020820190508181035f83015261200f81611fd6565b9050919050565b7f6e6f74206f776e6572206f7220617070726f76656400000000000000000000005f82015250565b5f61204a601583611a50565b915061205582612016565b602082019050919050565b5f6020820190508181035f8301526120778161203e565b9050919050565b7f4e487b71000000000000000000000000000000000000000000000000000000005f52601260045260245ffd5b7f4e487b71000000000000000000000000000000000000000000000000000000005f52601160045260245ffd5b5f6120e282611ad6565b91506120ed83611ad6565b9250826120fd576120fc61207e565b5b828204905092915050565b5f61211282611ad6565b915061211d83611ad6565b9250828203905081811115612135576121346120ab565b5b92915050565b7f746f6b656e206973206e6f7420657869737400000000000000000000000000005f82015250565b5f61216f601283611a50565b915061217a8261213b565b602082019050919050565b5f6020820190508181035f83015261219c81612163565b9050919050565b7f6f776e6572203d3d205a65726f416464726573732c20697320696e76616c69645f82015250565b5f6121d7602083611a50565b91506121e2826121a3565b602082019050919050565b5f6020820190508181035f830152612204816121cb565b9050919050565b7f546f6b656e204e6f7420457869737400000000000000000000000000000000005f82015250565b5f61223f600f83611a50565b915061224a8261220b565b602082019050919050565b5f6020820190508181035f83015261226c81612233565b9050919050565b5f81905092915050565b5f61228782611a46565b6122918185612273565b93506122a1818560208601611a60565b80840191505092915050565b5f6122b8828561227d565b91506122c4828461227d565b91508190509392505050565b7f6e6f74206f776e657200000000000000000000000000000000000000000000005f82015250565b5f612304600983611a50565b915061230f826122d0565b602082019050919050565b5f6020820190508181035f830152612331816122f8565b9050919050565b5f61234282611ad6565b915061234d83611ad6565b9250828201905080821115612365576123646120ab565b5b92915050565b5f61237582611ad6565b91507fffffffffffffffffffffffffffffffffffffffffffffffffffffffffffffffff82036123a7576123a66120ab565b5b600182019050919050565b5f6123bc82611ad6565b91506123c783611ad6565b9250826123d7576123d661207e565b5b828206905092915050565b7f4e487b71000000000000000000000000000000000000000000000000000000005f52603260045260245ffd5b5f81519050919050565b5f82825260208201905092915050565b5f6124338261240f565b61243d8185612419565b935061244d818560208601611a60565b61245681611a6e565b840191505092915050565b5f6080820190506124745f830187611b64565b6124816020830186611b64565b61248e6040830185611bf4565b81810360608301526124a08184612429565b905095945050505050565b5f815190506124b98161195a565b92915050565b5f602082840312156124d4576124d3611927565b5b5f6124e1848285016124ab565b9150509291505056fea2646970667358221220e0c0bce1ca2990841855167e7f0c18685bd62e548dad2e34a3d00150fc07734b64736f6c634300081a0033",
					"opcodes": "PUSH1 0x80 PUSH1 0x40 MSTORE CALLVALUE DUP1 ISZERO PUSH2 0xF JUMPI PUSH0 DUP1 REVERT JUMPDEST POP PUSH1 0x40 MLOAD DUP1 PUSH1 0x40 ADD PUSH1 0x40 MSTORE DUP1 PUSH1 0x10 DUP2 MSTORE PUSH1 0x20 ADD PUSH32 0x4B582044757463682041756374696F6E00000000000000000000000000000000 DUP2 MSTORE POP PUSH1 0x40 MLOAD DUP1 PUSH1 0x40 ADD PUSH1 0x40 MSTORE DUP1 PUSH1 0x10 DUP2 MSTORE PUSH1 0x20 ADD PUSH32 0x4B582044757463682041756374696F6E00000000000000000000000000000000 DUP2 MSTORE POP CALLER PUSH0 PUSH20 0xFFFFFFFFFFFFFFFFFFFFFFFFFFFFFFFFFFFFFFFF AND DUP2 PUSH20 0xFFFFFFFFFFFFFFFFFFFFFFFFFFFFFFFFFFFFFFFF AND SUB PUSH2 0xED JUMPI PUSH0 PUSH1 0x40 MLOAD PUSH32 0x1E4FBDF700000000000000000000000000000000000000000000000000000000 DUP2 MSTORE PUSH1 0x4 ADD PUSH2 0xE4 SWAP2 SWAP1 PUSH2 0x22B JUMP JUMPDEST PUSH1 0x40 MLOAD DUP1 SWAP2 SUB SWAP1 REVERT JUMPDEST PUSH2 0xFC DUP2 PUSH2 0x12B PUSH1 0x20 SHL PUSH1 0x20 SHR JUMP JUMPDEST POP DUP2 PUSH1 0x1 SWAP1 DUP2 PUSH2 0x10C SWAP2 SWAP1 PUSH2 0x47E JUMP JUMPDEST POP DUP1 PUSH1 0x2 SWAP1 DUP2 PUSH2 0x11C SWAP2 SWAP1 PUSH2 0x47E JUMP JUMPDEST POP POP POP TIMESTAMP PUSH1 0x7 DUP2 SWAP1 SSTORE POP PUSH2 0x54D JUMP JUMPDEST PUSH0 DUP1 PUSH0 SWAP1 SLOAD SWAP1 PUSH2 0x100 EXP SWAP1 DIV PUSH20 0xFFFFFFFFFFFFFFFFFFFFFFFFFFFFFFFFFFFFFFFF AND SWAP1 POP DUP2 PUSH0 DUP1 PUSH2 0x100 EXP DUP2 SLOAD DUP2 PUSH20 0xFFFFFFFFFFFFFFFFFFFFFFFFFFFFFFFFFFFFFFFF MUL NOT AND SWAP1 DUP4 PUSH20 0xFFFFFFFFFFFFFFFFFFFFFFFFFFFFFFFFFFFFFFFF AND MUL OR SWAP1 SSTORE POP DUP2 PUSH20 0xFFFFFFFFFFFFFFFFFFFFFFFFFFFFFFFFFFFFFFFF AND DUP2 PUSH20 0xFFFFFFFFFFFFFFFFFFFFFFFFFFFFFFFFFFFFFFFF AND PUSH32 0x8BE0079C531659141344CD1FD0A4F28419497F9722A3DAAFE3B4186F6B6457E0 PUSH1 0x40 MLOAD PUSH1 0x40 MLOAD DUP1 SWAP2 SUB SWAP1 LOG3 POP POP JUMP JUMPDEST PUSH0 PUSH20 0xFFFFFFFFFFFFFFFFFFFFFFFFFFFFFFFFFFFFFFFF DUP3 AND SWAP1 POP SWAP2 SWAP1 POP JUMP JUMPDEST PUSH0 PUSH2 0x215 DUP3 PUSH2 0x1EC JUMP JUMPDEST SWAP1 POP SWAP2 SWAP1 POP JUMP JUMPDEST PUSH2 0x225 DUP2 PUSH2 0x20B JUMP JUMPDEST DUP3 MSTORE POP POP JUMP JUMPDEST PUSH0 PUSH1 0x20 DUP3 ADD SWAP1 POP PUSH2 0x23E PUSH0 DUP4 ADD DUP5 PUSH2 0x21C JUMP JUMPDEST SWAP3 SWAP2 POP POP JUMP JUMPDEST PUSH0 DUP2 MLOAD SWAP1 POP SWAP2 SWAP1 POP JUMP JUMPDEST PUSH32 0x4E487B7100000000000000000000000000000000000000000000000000000000 PUSH0 MSTORE PUSH1 0x41 PUSH1 0x4 MSTORE PUSH1 0x24 PUSH0 REVERT JUMPDEST PUSH32 0x4E487B7100000000000000000000000000000000000000000000000000000000 PUSH0 MSTORE PUSH1 0x22 PUSH1 0x4 MSTORE PUSH1 0x24 PUSH0 REVERT JUMPDEST PUSH0 PUSH1 0x2 DUP3 DIV SWAP1 POP PUSH1 0x1 DUP3 AND DUP1 PUSH2 0x2BF JUMPI PUSH1 0x7F DUP3 AND SWAP2 POP JUMPDEST PUSH1 0x20 DUP3 LT DUP2 SUB PUSH2 0x2D2 JUMPI PUSH2 0x2D1 PUSH2 0x27B JUMP JUMPDEST JUMPDEST POP SWAP2 SWAP1 POP JUMP JUMPDEST PUSH0 DUP2 SWAP1 POP DUP2 PUSH0 MSTORE PUSH1 0x20 PUSH0 KECCAK256 SWAP1 POP SWAP2 SWAP1 POP JUMP JUMPDEST PUSH0 PUSH1 0x20 PUSH1 0x1F DUP4 ADD DIV SWAP1 POP SWAP2 SWAP1 POP JUMP JUMPDEST PUSH0 DUP3 DUP3 SHL SWAP1 POP SWAP3 SWAP2 POP POP JUMP JUMPDEST PUSH0 PUSH1 0x8 DUP4 MUL PUSH2 0x334 PUSH32 0xFFFFFFFFFFFFFFFFFFFFFFFFFFFFFFFFFFFFFFFFFFFFFFFFFFFFFFFFFFFFFFFF DUP3 PUSH2 0x2F9 JUMP JUMPDEST PUSH2 0x33E DUP7 DUP4 PUSH2 0x2F9 JUMP JUMPDEST SWAP6 POP DUP1 NOT DUP5 AND SWAP4 POP DUP1 DUP7 AND DUP5 OR SWAP3 POP POP POP SWAP4 SWAP3 POP POP POP JUMP JUMPDEST PUSH0 DUP2 SWAP1 POP SWAP2 SWAP1 POP JUMP JUMPDEST PUSH0 DUP2 SWAP1 POP SWAP2 SWAP1 POP JUMP JUMPDEST PUSH0 PUSH2 0x382 PUSH2 0x37D PUSH2 0x378 DUP5 PUSH2 0x356 JUMP JUMPDEST PUSH2 0x35F JUMP JUMPDEST PUSH2 0x356 JUMP JUMPDEST SWAP1 POP SWAP2 SWAP1 POP JUMP JUMPDEST PUSH0 DUP2 SWAP1 POP SWAP2 SWAP1 POP JUMP JUMPDEST PUSH2 0x39B DUP4 PUSH2 0x368 JUMP JUMPDEST PUSH2 0x3AF PUSH2 0x3A7 DUP3 PUSH2 0x389 JUMP JUMPDEST DUP5 DUP5 SLOAD PUSH2 0x305 JUMP JUMPDEST DUP3 SSTORE POP POP POP POP JUMP JUMPDEST PUSH0 SWAP1 JUMP JUMPDEST PUSH2 0x3C3 PUSH2 0x3B7 JUMP JUMPDEST PUSH2 0x3CE DUP2 DUP5 DUP5 PUSH2 0x392 JUMP JUMPDEST POP POP POP JUMP JUMPDEST JUMPDEST DUP2 DUP2 LT ISZERO PUSH2 0x3F1 JUMPI PUSH2 0x3E6 PUSH0 DUP3 PUSH2 0x3BB JUMP JUMPDEST PUSH1 0x1 DUP2 ADD SWAP1 POP PUSH2 0x3D4 JUMP JUMPDEST POP POP JUMP JUMPDEST PUSH1 0x1F DUP3 GT ISZERO PUSH2 0x436 JUMPI PUSH2 0x407 DUP2 PUSH2 0x2D8 JUMP JUMPDEST PUSH2 0x410 DUP5 PUSH2 0x2EA JUMP JUMPDEST DUP2 ADD PUSH1 0x20 DUP6 LT ISZERO PUSH2 0x41F JUMPI DUP2 SWAP1 POP JUMPDEST PUSH2 0x433 PUSH2 0x42B DUP6 PUSH2 0x2EA JUMP JUMPDEST DUP4 ADD DUP3 PUSH2 0x3D3 JUMP JUMPDEST POP POP JUMPDEST POP POP POP JUMP JUMPDEST PUSH0 DUP3 DUP3 SHR SWAP1 POP SWAP3 SWAP2 POP POP JUMP JUMPDEST PUSH0 PUSH2 0x456 PUSH0 NOT DUP5 PUSH1 0x8 MUL PUSH2 0x43B JUMP JUMPDEST NOT DUP1 DUP4 AND SWAP2 POP POP SWAP3 SWAP2 POP POP JUMP JUMPDEST PUSH0 PUSH2 0x46E DUP4 DUP4 PUSH2 0x447 JUMP JUMPDEST SWAP2 POP DUP3 PUSH1 0x2 MUL DUP3 OR SWAP1 POP SWAP3 SWAP2 POP POP JUMP JUMPDEST PUSH2 0x487 DUP3 PUSH2 0x244 JUMP JUMPDEST PUSH8 0xFFFFFFFFFFFFFFFF DUP2 GT ISZERO PUSH2 0x4A0 JUMPI PUSH2 0x49F PUSH2 0x24E JUMP JUMPDEST JUMPDEST PUSH2 0x4AA DUP3 SLOAD PUSH2 0x2A8 JUMP JUMPDEST PUSH2 0x4B5 DUP3 DUP3 DUP6 PUSH2 0x3F5 JUMP JUMPDEST PUSH0 PUSH1 0x20 SWAP1 POP PUSH1 0x1F DUP4 GT PUSH1 0x1 DUP2 EQ PUSH2 0x4E6 JUMPI PUSH0 DUP5 ISZERO PUSH2 0x4D4 JUMPI DUP3 DUP8 ADD MLOAD SWAP1 POP JUMPDEST PUSH2 0x4DE DUP6 DUP3 PUSH2 0x463 JUMP JUMPDEST DUP7 SSTORE POP PUSH2 0x545 JUMP JUMPDEST PUSH1 0x1F NOT DUP5 AND PUSH2 0x4F4 DUP7 PUSH2 0x2D8 JUMP JUMPDEST PUSH0 JUMPDEST DUP3 DUP2 LT ISZERO PUSH2 0x51B JUMPI DUP5 DUP10 ADD MLOAD DUP3 SSTORE PUSH1 0x1 DUP3 ADD SWAP2 POP PUSH1 0x20 DUP6 ADD SWAP5 POP PUSH1 0x20 DUP2 ADD SWAP1 POP PUSH2 0x4F6 JUMP JUMPDEST DUP7 DUP4 LT ISZERO PUSH2 0x538 JUMPI DUP5 DUP10 ADD MLOAD PUSH2 0x534 PUSH1 0x1F DUP10 AND DUP3 PUSH2 0x447 JUMP JUMPDEST DUP4 SSTORE POP JUMPDEST PUSH1 0x1 PUSH1 0x2 DUP9 MUL ADD DUP9 SSTORE POP POP POP JUMPDEST POP POP POP POP POP POP JUMP JUMPDEST PUSH2 0x2520 DUP1 PUSH2 0x55A PUSH0 CODECOPY PUSH0 RETURN INVALID PUSH1 0x80 PUSH1 0x40 MSTORE PUSH1 0x4 CALLDATASIZE LT PUSH2 0x19B JUMPI PUSH0 CALLDATALOAD PUSH1 0xE0 SHR DUP1 PUSH4 0x70A08231 GT PUSH2 0xEB JUMPI DUP1 PUSH4 0xC87B56DD GT PUSH2 0x89 JUMPI DUP1 PUSH4 0xE592301A GT PUSH2 0x63 JUMPI DUP1 PUSH4 0xE592301A EQ PUSH2 0x591 JUMPI DUP1 PUSH4 0xE985E9C5 EQ PUSH2 0x5BB JUMPI DUP1 PUSH4 0xEB54F9EC EQ PUSH2 0x5F7 JUMPI DUP1 PUSH4 0xF2FDE38B EQ PUSH2 0x621 JUMPI PUSH2 0x19B JUMP JUMPDEST DUP1 PUSH4 0xC87B56DD EQ PUSH2 0x501 JUMPI DUP1 PUSH4 0xCAF8A6D1 EQ PUSH2 0x53D JUMPI DUP1 PUSH4 0xD8258D95 EQ PUSH2 0x567 JUMPI PUSH2 0x19B JUMP JUMPDEST DUP1 PUSH4 0x8DA5CB5B GT PUSH2 0xC5 JUMPI DUP1 PUSH4 0x8DA5CB5B EQ PUSH2 0x45D JUMPI DUP1 PUSH4 0x95D89B41 EQ PUSH2 0x487 JUMPI DUP1 PUSH4 0xA22CB465 EQ PUSH2 0x4B1 JUMPI DUP1 PUSH4 0xB88D4FDE EQ PUSH2 0x4D9 JUMPI PUSH2 0x19B JUMP JUMPDEST DUP1 PUSH4 0x70A08231 EQ PUSH2 0x3E1 JUMPI DUP1 PUSH4 0x715018A6 EQ PUSH2 0x41D JUMPI DUP1 PUSH4 0x7A1C4A56 EQ PUSH2 0x433 JUMPI PUSH2 0x19B JUMP JUMPDEST DUP1 PUSH4 0x23B872DD GT PUSH2 0x158 JUMPI DUP1 PUSH4 0x4BD25C6F GT PUSH2 0x132 JUMPI DUP1 PUSH4 0x4BD25C6F EQ PUSH2 0x335 JUMPI DUP1 PUSH4 0x4D3554C3 EQ PUSH2 0x35F JUMPI DUP1 PUSH4 0x59F369FE EQ PUSH2 0x37B JUMPI DUP1 PUSH4 0x6352211E EQ PUSH2 0x3A5 JUMPI PUSH2 0x19B JUMP JUMPDEST DUP1 PUSH4 0x23B872DD EQ PUSH2 0x2BB JUMPI DUP1 PUSH4 0x4047F289 EQ PUSH2 0x2E3 JUMPI DUP1 PUSH4 0x42842E0E EQ PUSH2 0x30D JUMPI PUSH2 0x19B JUMP JUMPDEST DUP1 PUSH4 0x1FFC9A7 EQ PUSH2 0x19F JUMPI DUP1 PUSH4 0x697346F EQ PUSH2 0x1DB JUMPI DUP1 PUSH4 0x6FDDE03 EQ PUSH2 0x203 JUMPI DUP1 PUSH4 0x81812FC EQ PUSH2 0x22D JUMPI DUP1 PUSH4 0x95EA7B3 EQ PUSH2 0x269 JUMPI DUP1 PUSH4 0x18160DDD EQ PUSH2 0x291 JUMPI JUMPDEST PUSH0 DUP1 REVERT JUMPDEST CALLVALUE DUP1 ISZERO PUSH2 0x1AA JUMPI PUSH0 DUP1 REVERT JUMPDEST POP PUSH2 0x1C5 PUSH1 0x4 DUP1 CALLDATASIZE SUB DUP2 ADD SWAP1 PUSH2 0x1C0 SWAP2 SWAP1 PUSH2 0x1984 JUMP JUMPDEST PUSH2 0x649 JUMP JUMPDEST PUSH1 0x40 MLOAD PUSH2 0x1D2 SWAP2 SWAP1 PUSH2 0x19C9 JUMP JUMPDEST PUSH1 0x40 MLOAD DUP1 SWAP2 SUB SWAP1 RETURN JUMPDEST CALLVALUE DUP1 ISZERO PUSH2 0x1E6 JUMPI PUSH0 DUP1 REVERT JUMPDEST POP PUSH2 0x201 PUSH1 0x4 DUP1 CALLDATASIZE SUB DUP2 ADD SWAP1 PUSH2 0x1FC SWAP2 SWAP1 PUSH2 0x1A1B JUMP JUMPDEST PUSH2 0x782 JUMP JUMPDEST STOP JUMPDEST CALLVALUE DUP1 ISZERO PUSH2 0x20E JUMPI PUSH0 DUP1 REVERT JUMPDEST POP PUSH2 0x217 PUSH2 0x79A JUMP JUMPDEST PUSH1 0x40 MLOAD PUSH2 0x224 SWAP2 SWAP1 PUSH2 0x1AB6 JUMP JUMPDEST PUSH1 0x40 MLOAD DUP1 SWAP2 SUB SWAP1 RETURN JUMPDEST CALLVALUE DUP1 ISZERO PUSH2 0x238 JUMPI PUSH0 DUP1 REVERT JUMPDEST POP PUSH2 0x253 PUSH1 0x4 DUP1 CALLDATASIZE SUB DUP2 ADD SWAP1 PUSH2 0x24E SWAP2 SWAP1 PUSH2 0x1B09 JUMP JUMPDEST PUSH2 0x826 JUMP JUMPDEST PUSH1 0x40 MLOAD PUSH2 0x260 SWAP2 SWAP1 PUSH2 0x1B73 JUMP JUMPDEST PUSH1 0x40 MLOAD DUP1 SWAP2 SUB SWAP1 RETURN JUMPDEST CALLVALUE DUP1 ISZERO PUSH2 0x274 JUMPI PUSH0 DUP1 REVERT JUMPDEST POP PUSH2 0x28F PUSH1 0x4 DUP1 CALLDATASIZE SUB DUP2 ADD SWAP1 PUSH2 0x28A SWAP2 SWAP1 PUSH2 0x1BB6 JUMP JUMPDEST PUSH2 0x8FD JUMP JUMPDEST STOP JUMPDEST CALLVALUE DUP1 ISZERO PUSH2 0x29C JUMPI PUSH0 DUP1 REVERT JUMPDEST POP PUSH2 0x2A5 PUSH2 0xA3B JUMP JUMPDEST PUSH1 0x40 MLOAD PUSH2 0x2B2 SWAP2 SWAP1 PUSH2 0x1C03 JUMP JUMPDEST PUSH1 0x40 MLOAD DUP1 SWAP2 SUB SWAP1 RETURN JUMPDEST CALLVALUE DUP1 ISZERO PUSH2 0x2C6 JUMPI PUSH0 DUP1 REVERT JUMPDEST POP PUSH2 0x2E1 PUSH1 0x4 DUP1 CALLDATASIZE SUB DUP2 ADD SWAP1 PUSH2 0x2DC SWAP2 SWAP1 PUSH2 0x1C1C JUMP JUMPDEST PUSH2 0xA47 JUMP JUMPDEST STOP JUMPDEST CALLVALUE DUP1 ISZERO PUSH2 0x2EE JUMPI PUSH0 DUP1 REVERT JUMPDEST POP PUSH2 0x2F7 PUSH2 0xAD7 JUMP JUMPDEST PUSH1 0x40 MLOAD PUSH2 0x304 SWAP2 SWAP1 PUSH2 0x1C03 JUMP JUMPDEST PUSH1 0x40 MLOAD DUP1 SWAP2 SUB SWAP1 RETURN JUMPDEST CALLVALUE DUP1 ISZERO PUSH2 0x318 JUMPI PUSH0 DUP1 REVERT JUMPDEST POP PUSH2 0x333 PUSH1 0x4 DUP1 CALLDATASIZE SUB DUP2 ADD SWAP1 PUSH2 0x32E SWAP2 SWAP1 PUSH2 0x1C1C JUMP JUMPDEST PUSH2 0xADC JUMP JUMPDEST STOP JUMPDEST CALLVALUE DUP1 ISZERO PUSH2 0x340 JUMPI PUSH0 DUP1 REVERT JUMPDEST POP PUSH2 0x349 PUSH2 0xAFB JUMP JUMPDEST PUSH1 0x40 MLOAD PUSH2 0x356 SWAP2 SWAP1 PUSH2 0x1C03 JUMP JUMPDEST PUSH1 0x40 MLOAD DUP1 SWAP2 SUB SWAP1 RETURN JUMPDEST PUSH2 0x379 PUSH1 0x4 DUP1 CALLDATASIZE SUB DUP2 ADD SWAP1 PUSH2 0x374 SWAP2 SWAP1 PUSH2 0x1B09 JUMP JUMPDEST PUSH2 0xAFF JUMP JUMPDEST STOP JUMPDEST CALLVALUE DUP1 ISZERO PUSH2 0x386 JUMPI PUSH0 DUP1 REVERT JUMPDEST POP PUSH2 0x38F PUSH2 0xB09 JUMP JUMPDEST PUSH1 0x40 MLOAD PUSH2 0x39C SWAP2 SWAP1 PUSH2 0x1C03 JUMP JUMPDEST PUSH1 0x40 MLOAD DUP1 SWAP2 SUB SWAP1 RETURN JUMPDEST CALLVALUE DUP1 ISZERO PUSH2 0x3B0 JUMPI PUSH0 DUP1 REVERT JUMPDEST POP PUSH2 0x3CB PUSH1 0x4 DUP1 CALLDATASIZE SUB DUP2 ADD SWAP1 PUSH2 0x3C6 SWAP2 SWAP1 PUSH2 0x1B09 JUMP JUMPDEST PUSH2 0xB41 JUMP JUMPDEST PUSH1 0x40 MLOAD PUSH2 0x3D8 SWAP2 SWAP1 PUSH2 0x1B73 JUMP JUMPDEST PUSH1 0x40 MLOAD DUP1 SWAP2 SUB SWAP1 RETURN JUMPDEST CALLVALUE DUP1 ISZERO PUSH2 0x3EC JUMPI PUSH0 DUP1 REVERT JUMPDEST POP PUSH2 0x407 PUSH1 0x4 DUP1 CALLDATASIZE SUB DUP2 ADD SWAP1 PUSH2 0x402 SWAP2 SWAP1 PUSH2 0x1C6C JUMP JUMPDEST PUSH2 0xBE8 JUMP JUMPDEST PUSH1 0x40 MLOAD PUSH2 0x414 SWAP2 SWAP1 PUSH2 0x1C03 JUMP JUMPDEST PUSH1 0x40 MLOAD DUP1 SWAP2 SUB SWAP1 RETURN JUMPDEST CALLVALUE DUP1 ISZERO PUSH2 0x428 JUMPI PUSH0 DUP1 REVERT JUMPDEST POP PUSH2 0x431 PUSH2 0xC9C JUMP JUMPDEST STOP JUMPDEST CALLVALUE DUP1 ISZERO PUSH2 0x43E JUMPI PUSH0 DUP1 REVERT JUMPDEST POP PUSH2 0x447 PUSH2 0xCAF JUMP JUMPDEST PUSH1 0x40 MLOAD PUSH2 0x454 SWAP2 SWAP1 PUSH2 0x1C03 JUMP JUMPDEST PUSH1 0x40 MLOAD DUP1 SWAP2 SUB SWAP1 RETURN JUMPDEST CALLVALUE DUP1 ISZERO PUSH2 0x468 JUMPI PUSH0 DUP1 REVERT JUMPDEST POP PUSH2 0x471 PUSH2 0xCBB JUMP JUMPDEST PUSH1 0x40 MLOAD PUSH2 0x47E SWAP2 SWAP1 PUSH2 0x1B73 JUMP JUMPDEST PUSH1 0x40 MLOAD DUP1 SWAP2 SUB SWAP1 RETURN JUMPDEST CALLVALUE DUP1 ISZERO PUSH2 0x492 JUMPI PUSH0 DUP1 REVERT JUMPDEST POP PUSH2 0x49B PUSH2 0xCE2 JUMP JUMPDEST PUSH1 0x40 MLOAD PUSH2 0x4A8 SWAP2 SWAP1 PUSH2 0x1AB6 JUMP JUMPDEST PUSH1 0x40 MLOAD DUP1 SWAP2 SUB SWAP1 RETURN JUMPDEST CALLVALUE DUP1 ISZERO PUSH2 0x4BC JUMPI PUSH0 DUP1 REVERT JUMPDEST POP PUSH2 0x4D7 PUSH1 0x4 DUP1 CALLDATASIZE SUB DUP2 ADD SWAP1 PUSH2 0x4D2 SWAP2 SWAP1 PUSH2 0x1CC1 JUMP JUMPDEST PUSH2 0xD6E JUMP JUMPDEST STOP JUMPDEST CALLVALUE DUP1 ISZERO PUSH2 0x4E4 JUMPI PUSH0 DUP1 REVERT JUMPDEST POP PUSH2 0x4FF PUSH1 0x4 DUP1 CALLDATASIZE SUB DUP2 ADD SWAP1 PUSH2 0x4FA SWAP2 SWAP1 PUSH2 0x1E2B JUMP JUMPDEST PUSH2 0xE67 JUMP JUMPDEST STOP JUMPDEST CALLVALUE DUP1 ISZERO PUSH2 0x50C JUMPI PUSH0 DUP1 REVERT JUMPDEST POP PUSH2 0x527 PUSH1 0x4 DUP1 CALLDATASIZE SUB DUP2 ADD SWAP1 PUSH2 0x522 SWAP2 SWAP1 PUSH2 0x1B09 JUMP JUMPDEST PUSH2 0xEF9 JUMP JUMPDEST PUSH1 0x40 MLOAD PUSH2 0x534 SWAP2 SWAP1 PUSH2 0x1AB6 JUMP JUMPDEST PUSH1 0x40 MLOAD DUP1 SWAP2 SUB SWAP1 RETURN JUMPDEST CALLVALUE DUP1 ISZERO PUSH2 0x548 JUMPI PUSH0 DUP1 REVERT JUMPDEST POP PUSH2 0x551 PUSH2 0xFF3 JUMP JUMPDEST PUSH1 0x40 MLOAD PUSH2 0x55E SWAP2 SWAP1 PUSH2 0x1C03 JUMP JUMPDEST PUSH1 0x40 MLOAD DUP1 SWAP2 SUB SWAP1 RETURN JUMPDEST CALLVALUE DUP1 ISZERO PUSH2 0x572 JUMPI PUSH0 DUP1 REVERT JUMPDEST POP PUSH2 0x57B PUSH2 0xFFF JUMP JUMPDEST PUSH1 0x40 MLOAD PUSH2 0x588 SWAP2 SWAP1 PUSH2 0x1C03 JUMP JUMPDEST PUSH1 0x40 MLOAD DUP1 SWAP2 SUB SWAP1 RETURN JUMPDEST CALLVALUE DUP1 ISZERO PUSH2 0x59C JUMPI PUSH0 DUP1 REVERT JUMPDEST POP PUSH2 0x5A5 PUSH2 0x1005 JUMP JUMPDEST PUSH1 0x40 MLOAD PUSH2 0x5B2 SWAP2 SWAP1 PUSH2 0x1C03 JUMP JUMPDEST PUSH1 0x40 MLOAD DUP1 SWAP2 SUB SWAP1 RETURN JUMPDEST CALLVALUE DUP1 ISZERO PUSH2 0x5C6 JUMPI PUSH0 DUP1 REVERT JUMPDEST POP PUSH2 0x5E1 PUSH1 0x4 DUP1 CALLDATASIZE SUB DUP2 ADD SWAP1 PUSH2 0x5DC SWAP2 SWAP1 PUSH2 0x1EAB JUMP JUMPDEST PUSH2 0x100B JUMP JUMPDEST PUSH1 0x40 MLOAD PUSH2 0x5EE SWAP2 SWAP1 PUSH2 0x19C9 JUMP JUMPDEST PUSH1 0x40 MLOAD DUP1 SWAP2 SUB SWAP1 RETURN JUMPDEST CALLVALUE DUP1 ISZERO PUSH2 0x602 JUMPI PUSH0 DUP1 REVERT JUMPDEST POP PUSH2 0x60B PUSH2 0x1099 JUMP JUMPDEST PUSH1 0x40 MLOAD PUSH2 0x618 SWAP2 SWAP1 PUSH2 0x1C03 JUMP JUMPDEST PUSH1 0x40 MLOAD DUP1 SWAP2 SUB SWAP1 RETURN JUMPDEST CALLVALUE DUP1 ISZERO PUSH2 0x62C JUMPI PUSH0 DUP1 REVERT JUMPDEST POP PUSH2 0x647 PUSH1 0x4 DUP1 CALLDATASIZE SUB DUP2 ADD SWAP1 PUSH2 0x642 SWAP2 SWAP1 PUSH2 0x1C6C JUMP JUMPDEST PUSH2 0x109F JUMP JUMPDEST STOP JUMPDEST PUSH0 PUSH32 0x80AC58CD00000000000000000000000000000000000000000000000000000000 PUSH28 0xFFFFFFFFFFFFFFFFFFFFFFFFFFFFFFFFFFFFFFFFFFFFFFFFFFFFFFFF NOT AND DUP3 PUSH28 0xFFFFFFFFFFFFFFFFFFFFFFFFFFFFFFFFFFFFFFFFFFFFFFFFFFFFFFFF NOT AND EQ DUP1 PUSH2 0x713 JUMPI POP PUSH32 0x1FFC9A700000000000000000000000000000000000000000000000000000000 PUSH28 0xFFFFFFFFFFFFFFFFFFFFFFFFFFFFFFFFFFFFFFFFFFFFFFFFFFFFFFFF NOT AND DUP3 PUSH28 0xFFFFFFFFFFFFFFFFFFFFFFFFFFFFFFFFFFFFFFFFFFFFFFFFFFFFFFFF NOT AND EQ JUMPDEST DUP1 PUSH2 0x77B JUMPI POP PUSH32 0x5B5E139F00000000000000000000000000000000000000000000000000000000 PUSH28 0xFFFFFFFFFFFFFFFFFFFFFFFFFFFFFFFFFFFFFFFFFFFFFFFFFFFFFFFF NOT AND DUP3 PUSH28 0xFFFFFFFFFFFFFFFFFFFFFFFFFFFFFFFFFFFFFFFFFFFFFFFFFFFFFFFF NOT AND EQ JUMPDEST SWAP1 POP SWAP2 SWAP1 POP JUMP JUMPDEST PUSH2 0x78A PUSH2 0x1123 JUMP JUMPDEST DUP1 PUSH4 0xFFFFFFFF AND PUSH1 0x7 DUP2 SWAP1 SSTORE POP POP JUMP JUMPDEST PUSH1 0x1 DUP1 SLOAD PUSH2 0x7A7 SWAP1 PUSH2 0x1F16 JUMP JUMPDEST DUP1 PUSH1 0x1F ADD PUSH1 0x20 DUP1 SWAP2 DIV MUL PUSH1 0x20 ADD PUSH1 0x40 MLOAD SWAP1 DUP2 ADD PUSH1 0x40 MSTORE DUP1 SWAP3 SWAP2 SWAP1 DUP2 DUP2 MSTORE PUSH1 0x20 ADD DUP3 DUP1 SLOAD PUSH2 0x7D3 SWAP1 PUSH2 0x1F16 JUMP JUMPDEST DUP1 ISZERO PUSH2 0x81E JUMPI DUP1 PUSH1 0x1F LT PUSH2 0x7F5 JUMPI PUSH2 0x100 DUP1 DUP4 SLOAD DIV MUL DUP4 MSTORE SWAP2 PUSH1 0x20 ADD SWAP2 PUSH2 0x81E JUMP JUMPDEST DUP3 ADD SWAP2 SWAP1 PUSH0 MSTORE PUSH1 0x20 PUSH0 KECCAK256 SWAP1 JUMPDEST DUP2 SLOAD DUP2 MSTORE SWAP1 PUSH1 0x1 ADD SWAP1 PUSH1 0x20 ADD DUP1 DUP4 GT PUSH2 0x801 JUMPI DUP3 SWAP1 SUB PUSH1 0x1F AND DUP3 ADD SWAP2 JUMPDEST POP POP POP POP POP DUP2 JUMP JUMPDEST PUSH0 DUP1 PUSH20 0xFFFFFFFFFFFFFFFFFFFFFFFFFFFFFFFFFFFFFFFF AND PUSH1 0x3 PUSH0 DUP5 DUP2 MSTORE PUSH1 0x20 ADD SWAP1 DUP2 MSTORE PUSH1 0x20 ADD PUSH0 KECCAK256 PUSH0 SWAP1 SLOAD SWAP1 PUSH2 0x100 EXP SWAP1 DIV PUSH20 0xFFFFFFFFFFFFFFFFFFFFFFFFFFFFFFFFFFFFFFFF AND PUSH20 0xFFFFFFFFFFFFFFFFFFFFFFFFFFFFFFFFFFFFFFFF AND SUB PUSH2 0x8C5 JUMPI PUSH1 0x40 MLOAD PUSH32 0x8C379A000000000000000000000000000000000000000000000000000000000 DUP2 MSTORE PUSH1 0x4 ADD PUSH2 0x8BC SWAP1 PUSH2 0x1F90 JUMP JUMPDEST PUSH1 0x40 MLOAD DUP1 SWAP2 SUB SWAP1 REVERT JUMPDEST PUSH1 0x5 PUSH0 DUP4 DUP2 MSTORE PUSH1 0x20 ADD SWAP1 DUP2 MSTORE PUSH1 0x20 ADD PUSH0 KECCAK256 PUSH0 SWAP1 SLOAD SWAP1 PUSH2 0x100 EXP SWAP1 DIV PUSH20 0xFFFFFFFFFFFFFFFFFFFFFFFFFFFFFFFFFFFFFFFF AND SWAP1 POP SWAP2 SWAP1 POP JUMP JUMPDEST PUSH0 PUSH1 0x3 PUSH0 DUP4 DUP2 MSTORE PUSH1 0x20 ADD SWAP1 DUP2 MSTORE PUSH1 0x20 ADD PUSH0 KECCAK256 PUSH0 SWAP1 SLOAD SWAP1 PUSH2 0x100 EXP SWAP1 DIV PUSH20 0xFFFFFFFFFFFFFFFFFFFFFFFFFFFFFFFFFFFFFFFF AND SWAP1 POP CALLER PUSH20 0xFFFFFFFFFFFFFFFFFFFFFFFFFFFFFFFFFFFFFFFF AND DUP2 PUSH20 0xFFFFFFFFFFFFFFFFFFFFFFFFFFFFFFFFFFFFFFFF AND EQ DUP1 PUSH2 0x9EC JUMPI POP PUSH1 0x6 PUSH0 DUP3 PUSH20 0xFFFFFFFFFFFFFFFFFFFFFFFFFFFFFFFFFFFFFFFF AND PUSH20 0xFFFFFFFFFFFFFFFFFFFFFFFFFFFFFFFFFFFFFFFF AND DUP2 MSTORE PUSH1 0x20 ADD SWAP1 DUP2 MSTORE PUSH1 0x20 ADD PUSH0 KECCAK256 PUSH0 CALLER PUSH20 0xFFFFFFFFFFFFFFFFFFFFFFFFFFFFFFFFFFFFFFFF AND PUSH20 0xFFFFFFFFFFFFFFFFFFFFFFFFFFFFFFFFFFFFFFFF AND DUP2 MSTORE PUSH1 0x20 ADD SWAP1 DUP2 MSTORE PUSH1 0x20 ADD PUSH0 KECCAK256 PUSH0 SWAP1 SLOAD SWAP1 PUSH2 0x100 EXP SWAP1 DIV PUSH1 0xFF AND JUMPDEST PUSH2 0xA2B JUMPI PUSH1 0x40 MLOAD PUSH32 0x8C379A000000000000000000000000000000000000000000000000000000000 DUP2 MSTORE PUSH1 0x4 ADD PUSH2 0xA22 SWAP1 PUSH2 0x1FF8 JUMP JUMPDEST PUSH1 0x40 MLOAD DUP1 SWAP2 SUB SWAP1 REVERT JUMPDEST PUSH2 0xA36 DUP2 DUP5 DUP5 PUSH2 0x119C JUMP JUMPDEST POP POP POP JUMP JUMPDEST PUSH0 PUSH1 0x9 DUP1 SLOAD SWAP1 POP SWAP1 POP SWAP1 JUMP JUMPDEST PUSH0 PUSH1 0x3 PUSH0 DUP4 DUP2 MSTORE PUSH1 0x20 ADD SWAP1 DUP2 MSTORE PUSH1 0x20 ADD PUSH0 KECCAK256 PUSH0 SWAP1 SLOAD SWAP1 PUSH2 0x100 EXP SWAP1 DIV PUSH20 0xFFFFFFFFFFFFFFFFFFFFFFFFFFFFFFFFFFFFFFFF AND SWAP1 POP PUSH2 0xA86 DUP2 CALLER DUP5 PUSH2 0x124B JUMP JUMPDEST PUSH2 0xAC5 JUMPI PUSH1 0x40 MLOAD PUSH32 0x8C379A000000000000000000000000000000000000000000000000000000000 DUP2 MSTORE PUSH1 0x4 ADD PUSH2 0xABC SWAP1 PUSH2 0x2060 JUMP JUMPDEST PUSH1 0x40 MLOAD DUP1 SWAP2 SUB SWAP1 REVERT JUMPDEST PUSH2 0xAD1 DUP2 DUP6 DUP6 DUP6 PUSH2 0x1376 JUMP JUMPDEST POP POP POP POP JUMP JUMPDEST PUSH1 0x3C DUP2 JUMP JUMPDEST PUSH2 0xAF6 DUP4 DUP4 DUP4 PUSH1 0x40 MLOAD DUP1 PUSH1 0x20 ADD PUSH1 0x40 MSTORE DUP1 PUSH0 DUP2 MSTORE POP PUSH2 0xE67 JUMP JUMPDEST POP POP POP JUMP JUMPDEST PUSH0 SWAP1 JUMP JUMPDEST PUSH0 PUSH1 0x7 SLOAD SWAP1 POP POP POP JUMP JUMPDEST PUSH1 0x3C PUSH2 0x258 PUSH2 0xB18 SWAP2 SWAP1 PUSH2 0x20D8 JUMP JUMPDEST PUSH8 0x16345785D8A0000 PUSH8 0xDE0B6B3A7640000 PUSH2 0xB34 SWAP2 SWAP1 PUSH2 0x2108 JUMP JUMPDEST PUSH2 0xB3E SWAP2 SWAP1 PUSH2 0x20D8 JUMP JUMPDEST DUP2 JUMP JUMPDEST PUSH0 PUSH1 0x3 PUSH0 DUP4 DUP2 MSTORE PUSH1 0x20 ADD SWAP1 DUP2 MSTORE PUSH1 0x20 ADD PUSH0 KECCAK256 PUSH0 SWAP1 SLOAD SWAP1 PUSH2 0x100 EXP SWAP1 DIV PUSH20 0xFFFFFFFFFFFFFFFFFFFFFFFFFFFFFFFFFFFFFFFF AND SWAP1 POP PUSH0 PUSH20 0xFFFFFFFFFFFFFFFFFFFFFFFFFFFFFFFFFFFFFFFF AND DUP2 PUSH20 0xFFFFFFFFFFFFFFFFFFFFFFFFFFFFFFFFFFFFFFFF AND SUB PUSH2 0xBE3 JUMPI PUSH1 0x40 MLOAD PUSH32 0x8C379A000000000000000000000000000000000000000000000000000000000 DUP2 MSTORE PUSH1 0x4 ADD PUSH2 0xBDA SWAP1 PUSH2 0x2185 JUMP JUMPDEST PUSH1 0x40 MLOAD DUP1 SWAP2 SUB SWAP1 REVERT JUMPDEST SWAP2 SWAP1 POP JUMP JUMPDEST PUSH0 DUP1 PUSH20 0xFFFFFFFFFFFFFFFFFFFFFFFFFFFFFFFFFFFFFFFF AND DUP3 PUSH20 0xFFFFFFFFFFFFFFFFFFFFFFFFFFFFFFFFFFFFFFFF AND SUB PUSH2 0xC57 JUMPI PUSH1 0x40 MLOAD PUSH32 0x8C379A000000000000000000000000000000000000000000000000000000000 DUP2 MSTORE PUSH1 0x4 ADD PUSH2 0xC4E SWAP1 PUSH2 0x21ED JUMP JUMPDEST PUSH1 0x40 MLOAD DUP1 SWAP2 SUB SWAP1 REVERT JUMPDEST PUSH1 0x4 PUSH0 DUP4 PUSH20 0xFFFFFFFFFFFFFFFFFFFFFFFFFFFFFFFFFFFFFFFF AND PUSH20 0xFFFFFFFFFFFFFFFFFFFFFFFFFFFFFFFFFFFFFFFF AND DUP2 MSTORE PUSH1 0x20 ADD SWAP1 DUP2 MSTORE PUSH1 0x20 ADD PUSH0 KECCAK256 SLOAD SWAP1 POP SWAP2 SWAP1 POP JUMP JUMPDEST PUSH2 0xCA4 PUSH2 0x1123 JUMP JUMPDEST PUSH2 0xCAD PUSH0 PUSH2 0x1524 JUMP JUMPDEST JUMP JUMPDEST PUSH8 0xDE0B6B3A7640000 DUP2 JUMP JUMPDEST PUSH0 DUP1 PUSH0 SWAP1 SLOAD SWAP1 PUSH2 0x100 EXP SWAP1 DIV PUSH20 0xFFFFFFFFFFFFFFFFFFFFFFFFFFFFFFFFFFFFFFFF AND SWAP1 POP SWAP1 JUMP JUMPDEST PUSH1 0x2 DUP1 SLOAD PUSH2 0xCEF SWAP1 PUSH2 0x1F16 JUMP JUMPDEST DUP1 PUSH1 0x1F ADD PUSH1 0x20 DUP1 SWAP2 DIV MUL PUSH1 0x20 ADD PUSH1 0x40 MLOAD SWAP1 DUP2 ADD PUSH1 0x40 MSTORE DUP1 SWAP3 SWAP2 SWAP1 DUP2 DUP2 MSTORE PUSH1 0x20 ADD DUP3 DUP1 SLOAD PUSH2 0xD1B SWAP1 PUSH2 0x1F16 JUMP JUMPDEST DUP1 ISZERO PUSH2 0xD66 JUMPI DUP1 PUSH1 0x1F LT PUSH2 0xD3D JUMPI PUSH2 0x100 DUP1 DUP4 SLOAD DIV MUL DUP4 MSTORE SWAP2 PUSH1 0x20 ADD SWAP2 PUSH2 0xD66 JUMP JUMPDEST DUP3 ADD SWAP2 SWAP1 PUSH0 MSTORE PUSH1 0x20 PUSH0 KECCAK256 SWAP1 JUMPDEST DUP2 SLOAD DUP2 MSTORE SWAP1 PUSH1 0x1 ADD SWAP1 PUSH1 0x20 ADD DUP1 DUP4 GT PUSH2 0xD49 JUMPI DUP3 SWAP1 SUB PUSH1 0x1F AND DUP3 ADD SWAP2 JUMPDEST POP POP POP POP POP DUP2 JUMP JUMPDEST PUSH1 0x1 PUSH1 0x6 PUSH0 CALLER PUSH20 0xFFFFFFFFFFFFFFFFFFFFFFFFFFFFFFFFFFFFFFFF AND PUSH20 0xFFFFFFFFFFFFFFFFFFFFFFFFFFFFFFFFFFFFFFFF AND DUP2 MSTORE PUSH1 0x20 ADD SWAP1 DUP2 MSTORE PUSH1 0x20 ADD PUSH0 KECCAK256 PUSH0 DUP5 PUSH20 0xFFFFFFFFFFFFFFFFFFFFFFFFFFFFFFFFFFFFFFFF AND PUSH20 0xFFFFFFFFFFFFFFFFFFFFFFFFFFFFFFFFFFFFFFFF AND DUP2 MSTORE PUSH1 0x20 ADD SWAP1 DUP2 MSTORE PUSH1 0x20 ADD PUSH0 KECCAK256 PUSH0 PUSH2 0x100 EXP DUP2 SLOAD DUP2 PUSH1 0xFF MUL NOT AND SWAP1 DUP4 ISZERO ISZERO MUL OR SWAP1 SSTORE POP DUP2 PUSH20 0xFFFFFFFFFFFFFFFFFFFFFFFFFFFFFFFFFFFFFFFF AND CALLER PUSH20 0xFFFFFFFFFFFFFFFFFFFFFFFFFFFFFFFFFFFFFFFF AND PUSH32 0x17307EAB39AB6107E8899845AD3D59BD9653F200F220920489CA2B5937696C31 DUP4 PUSH1 0x40 MLOAD PUSH2 0xE5B SWAP2 SWAP1 PUSH2 0x19C9 JUMP JUMPDEST PUSH1 0x40 MLOAD DUP1 SWAP2 SUB SWAP1 LOG3 POP POP JUMP JUMPDEST PUSH0 PUSH1 0x3 PUSH0 DUP5 DUP2 MSTORE PUSH1 0x20 ADD SWAP1 DUP2 MSTORE PUSH1 0x20 ADD PUSH0 KECCAK256 PUSH0 SWAP1 SLOAD SWAP1 PUSH2 0x100 EXP SWAP1 DIV PUSH20 0xFFFFFFFFFFFFFFFFFFFFFFFFFFFFFFFFFFFFFFFF AND SWAP1 POP PUSH2 0xEA6 DUP2 CALLER DUP6 PUSH2 0x124B JUMP JUMPDEST PUSH2 0xEE5 JUMPI PUSH1 0x40 MLOAD PUSH32 0x8C379A000000000000000000000000000000000000000000000000000000000 DUP2 MSTORE PUSH1 0x4 ADD PUSH2 0xEDC SWAP1 PUSH2 0x2060 JUMP JUMPDEST PUSH1 0x40 MLOAD DUP1 SWAP2 SUB SWAP1 REVERT JUMPDEST PUSH2 0xEF2 DUP2 DUP7 DUP7 DUP7 DUP7 PUSH2 0x15E5 JUMP JUMPDEST POP POP POP POP POP JUMP JUMPDEST PUSH1 0x60 PUSH0 PUSH20 0xFFFFFFFFFFFFFFFFFFFFFFFFFFFFFFFFFFFFFFFF AND PUSH1 0x3 PUSH0 DUP5 DUP2 MSTORE PUSH1 0x20 ADD SWAP1 DUP2 MSTORE PUSH1 0x20 ADD PUSH0 KECCAK256 PUSH0 SWAP1 SLOAD SWAP1 PUSH2 0x100 EXP SWAP1 DIV PUSH20 0xFFFFFFFFFFFFFFFFFFFFFFFFFFFFFFFFFFFFFFFF AND PUSH20 0xFFFFFFFFFFFFFFFFFFFFFFFFFFFFFFFFFFFFFFFF AND SUB PUSH2 0xF99 JUMPI PUSH1 0x40 MLOAD PUSH32 0x8C379A000000000000000000000000000000000000000000000000000000000 DUP2 MSTORE PUSH1 0x4 ADD PUSH2 0xF90 SWAP1 PUSH2 0x2255 JUMP JUMPDEST PUSH1 0x40 MLOAD DUP1 SWAP2 SUB SWAP1 REVERT JUMPDEST PUSH0 PUSH2 0xFA2 PUSH2 0x1604 JUMP JUMPDEST SWAP1 POP PUSH0 DUP2 MLOAD GT PUSH2 0xFC0 JUMPI PUSH1 0x40 MLOAD DUP1 PUSH1 0x20 ADD PUSH1 0x40 MSTORE DUP1 PUSH0 DUP2 MSTORE POP PUSH2 0xFEB JUMP JUMPDEST DUP1 PUSH2 0xFCA DUP5 PUSH2 0x161A JUMP JUMPDEST PUSH1 0x40 MLOAD PUSH1 0x20 ADD PUSH2 0xFDB SWAP3 SWAP2 SWAP1 PUSH2 0x22AD JUMP JUMPDEST PUSH1 0x40 MLOAD PUSH1 0x20 DUP2 DUP4 SUB SUB DUP2 MSTORE SWAP1 PUSH1 0x40 MSTORE JUMPDEST SWAP2 POP POP SWAP2 SWAP1 POP JUMP JUMPDEST PUSH8 0x16345785D8A0000 DUP2 JUMP JUMPDEST PUSH2 0x2710 DUP2 JUMP JUMPDEST PUSH2 0x258 DUP2 JUMP JUMPDEST PUSH0 PUSH1 0x6 PUSH0 DUP5 PUSH20 0xFFFFFFFFFFFFFFFFFFFFFFFFFFFFFFFFFFFFFFFF AND PUSH20 0xFFFFFFFFFFFFFFFFFFFFFFFFFFFFFFFFFFFFFFFF AND DUP2 MSTORE PUSH1 0x20 ADD SWAP1 DUP2 MSTORE PUSH1 0x20 ADD PUSH0 KECCAK256 PUSH0 DUP4 PUSH20 0xFFFFFFFFFFFFFFFFFFFFFFFFFFFFFFFFFFFFFFFF AND PUSH20 0xFFFFFFFFFFFFFFFFFFFFFFFFFFFFFFFFFFFFFFFF AND DUP2 MSTORE PUSH1 0x20 ADD SWAP1 DUP2 MSTORE PUSH1 0x20 ADD PUSH0 KECCAK256 PUSH0 SWAP1 SLOAD SWAP1 PUSH2 0x100 EXP SWAP1 DIV PUSH1 0xFF AND SWAP1 POP SWAP3 SWAP2 POP POP JUMP JUMPDEST PUSH1 0x7 SLOAD DUP2 JUMP JUMPDEST PUSH2 0x10A7 PUSH2 0x1123 JUMP JUMPDEST PUSH0 PUSH20 0xFFFFFFFFFFFFFFFFFFFFFFFFFFFFFFFFFFFFFFFF AND DUP2 PUSH20 0xFFFFFFFFFFFFFFFFFFFFFFFFFFFFFFFFFFFFFFFF AND SUB PUSH2 0x1117 JUMPI PUSH0 PUSH1 0x40 MLOAD PUSH32 0x1E4FBDF700000000000000000000000000000000000000000000000000000000 DUP2 MSTORE PUSH1 0x4 ADD PUSH2 0x110E SWAP2 SWAP1 PUSH2 0x1B73 JUMP JUMPDEST PUSH1 0x40 MLOAD DUP1 SWAP2 SUB SWAP1 REVERT JUMPDEST PUSH2 0x1120 DUP2 PUSH2 0x1524 JUMP JUMPDEST POP JUMP JUMPDEST CALLER PUSH20 0xFFFFFFFFFFFFFFFFFFFFFFFFFFFFFFFFFFFFFFFF AND PUSH2 0x1142 PUSH2 0xCBB JUMP JUMPDEST PUSH20 0xFFFFFFFFFFFFFFFFFFFFFFFFFFFFFFFFFFFFFFFF AND EQ PUSH2 0x119A JUMPI CALLER PUSH1 0x40 MLOAD PUSH32 0x118CDAA700000000000000000000000000000000000000000000000000000000 DUP2 MSTORE PUSH1 0x4 ADD PUSH2 0x1191 SWAP2 SWAP1 PUSH2 0x1B73 JUMP JUMPDEST PUSH1 0x40 MLOAD DUP1 SWAP2 SUB SWAP1 REVERT JUMPDEST JUMP JUMPDEST DUP2 PUSH1 0x5 PUSH0 DUP4 DUP2 MSTORE PUSH1 0x20 ADD SWAP1 DUP2 MSTORE PUSH1 0x20 ADD PUSH0 KECCAK256 PUSH0 PUSH2 0x100 EXP DUP2 SLOAD DUP2 PUSH20 0xFFFFFFFFFFFFFFFFFFFFFFFFFFFFFFFFFFFFFFFF MUL NOT AND SWAP1 DUP4 PUSH20 0xFFFFFFFFFFFFFFFFFFFFFFFFFFFFFFFFFFFFFFFF AND MUL OR SWAP1 SSTORE POP DUP1 DUP3 PUSH20 0xFFFFFFFFFFFFFFFFFFFFFFFFFFFFFFFFFFFFFFFF AND DUP5 PUSH20 0xFFFFFFFFFFFFFFFFFFFFFFFFFFFFFFFFFFFFFFFF AND PUSH32 0x8C5BE1E5EBEC7D5BD14F71427D1E84F3DD0314C0F7B2291E5B200AC8C7C3B925 PUSH1 0x40 MLOAD PUSH1 0x40 MLOAD DUP1 SWAP2 SUB SWAP1 LOG4 POP POP POP JUMP JUMPDEST PUSH0 DUP3 PUSH20 0xFFFFFFFFFFFFFFFFFFFFFFFFFFFFFFFFFFFFFFFF AND DUP5 PUSH20 0xFFFFFFFFFFFFFFFFFFFFFFFFFFFFFFFFFFFFFFFF AND EQ DUP1 PUSH2 0x1307 JUMPI POP PUSH1 0x6 PUSH0 DUP6 PUSH20 0xFFFFFFFFFFFFFFFFFFFFFFFFFFFFFFFFFFFFFFFF AND PUSH20 0xFFFFFFFFFFFFFFFFFFFFFFFFFFFFFFFFFFFFFFFF AND DUP2 MSTORE PUSH1 0x20 ADD SWAP1 DUP2 MSTORE PUSH1 0x20 ADD PUSH0 KECCAK256 PUSH0 DUP5 PUSH20 0xFFFFFFFFFFFFFFFFFFFFFFFFFFFFFFFFFFFFFFFF AND PUSH20 0xFFFFFFFFFFFFFFFFFFFFFFFFFFFFFFFFFFFFFFFF AND DUP2 MSTORE PUSH1 0x20 ADD SWAP1 DUP2 MSTORE PUSH1 0x20 ADD PUSH0 KECCAK256 PUSH0 SWAP1 SLOAD SWAP1 PUSH2 0x100 EXP SWAP1 DIV PUSH1 0xFF AND JUMPDEST DUP1 PUSH2 0x136D JUMPI POP DUP3 PUSH20 0xFFFFFFFFFFFFFFFFFFFFFFFFFFFFFFFFFFFFFFFF AND PUSH1 0x5 PUSH0 DUP5 DUP2 MSTORE PUSH1 0x20 ADD SWAP1 DUP2 MSTORE PUSH1 0x20 ADD PUSH0 KECCAK256 PUSH0 SWAP1 SLOAD SWAP1 PUSH2 0x100 EXP SWAP1 DIV PUSH20 0xFFFFFFFFFFFFFFFFFFFFFFFFFFFFFFFFFFFFFFFF AND PUSH20 0xFFFFFFFFFFFFFFFFFFFFFFFFFFFFFFFFFFFFFFFF AND EQ JUMPDEST SWAP1 POP SWAP4 SWAP3 POP POP POP JUMP JUMPDEST DUP4 PUSH20 0xFFFFFFFFFFFFFFFFFFFFFFFFFFFFFFFFFFFFFFFF AND DUP4 PUSH20 0xFFFFFFFFFFFFFFFFFFFFFFFFFFFFFFFFFFFFFFFF AND EQ DUP1 ISZERO PUSH2 0x13DD JUMPI POP PUSH0 PUSH20 0xFFFFFFFFFFFFFFFFFFFFFFFFFFFFFFFFFFFFFFFF AND DUP3 PUSH20 0xFFFFFFFFFFFFFFFFFFFFFFFFFFFFFFFFFFFFFFFF AND EQ ISZERO JUMPDEST PUSH2 0x141C JUMPI PUSH1 0x40 MLOAD PUSH32 0x8C379A000000000000000000000000000000000000000000000000000000000 DUP2 MSTORE PUSH1 0x4 ADD PUSH2 0x1413 SWAP1 PUSH2 0x231A JUMP JUMPDEST PUSH1 0x40 MLOAD DUP1 SWAP2 SUB SWAP1 REVERT JUMPDEST PUSH1 0x1 PUSH1 0x4 PUSH0 DUP6 PUSH20 0xFFFFFFFFFFFFFFFFFFFFFFFFFFFFFFFFFFFFFFFF AND PUSH20 0xFFFFFFFFFFFFFFFFFFFFFFFFFFFFFFFFFFFFFFFF AND DUP2 MSTORE PUSH1 0x20 ADD SWAP1 DUP2 MSTORE PUSH1 0x20 ADD PUSH0 KECCAK256 PUSH0 DUP3 DUP3 SLOAD PUSH2 0x1469 SWAP2 SWAP1 PUSH2 0x2108 JUMP JUMPDEST SWAP3 POP POP DUP2 SWAP1 SSTORE POP PUSH1 0x1 PUSH1 0x4 PUSH0 DUP5 PUSH20 0xFFFFFFFFFFFFFFFFFFFFFFFFFFFFFFFFFFFFFFFF AND PUSH20 0xFFFFFFFFFFFFFFFFFFFFFFFFFFFFFFFFFFFFFFFF AND DUP2 MSTORE PUSH1 0x20 ADD SWAP1 DUP2 MSTORE PUSH1 0x20 ADD PUSH0 KECCAK256 PUSH0 DUP3 DUP3 SLOAD PUSH2 0x14BD SWAP2 SWAP1 PUSH2 0x2338 JUMP JUMPDEST SWAP3 POP POP DUP2 SWAP1 SSTORE POP DUP2 PUSH1 0x3 PUSH0 DUP4 DUP2 MSTORE PUSH1 0x20 ADD SWAP1 DUP2 MSTORE PUSH1 0x20 ADD PUSH0 KECCAK256 PUSH0 PUSH2 0x100 EXP DUP2 SLOAD DUP2 PUSH20 0xFFFFFFFFFFFFFFFFFFFFFFFFFFFFFFFFFFFFFFFF MUL NOT AND SWAP1 DUP4 PUSH20 0xFFFFFFFFFFFFFFFFFFFFFFFFFFFFFFFFFFFFFFFF AND MUL OR SWAP1 SSTORE POP PUSH2 0x151E DUP3 PUSH0 DUP4 PUSH2 0x119C JUMP JUMPDEST POP POP POP POP JUMP JUMPDEST PUSH0 DUP1 PUSH0 SWAP1 SLOAD SWAP1 PUSH2 0x100 EXP SWAP1 DIV PUSH20 0xFFFFFFFFFFFFFFFFFFFFFFFFFFFFFFFFFFFFFFFF AND SWAP1 POP DUP2 PUSH0 DUP1 PUSH2 0x100 EXP DUP2 SLOAD DUP2 PUSH20 0xFFFFFFFFFFFFFFFFFFFFFFFFFFFFFFFFFFFFFFFF MUL NOT AND SWAP1 DUP4 PUSH20 0xFFFFFFFFFFFFFFFFFFFFFFFFFFFFFFFFFFFFFFFF AND MUL OR SWAP1 SSTORE POP DUP2 PUSH20 0xFFFFFFFFFFFFFFFFFFFFFFFFFFFFFFFFFFFFFFFF AND DUP2 PUSH20 0xFFFFFFFFFFFFFFFFFFFFFFFFFFFFFFFFFFFFFFFF AND PUSH32 0x8BE0079C531659141344CD1FD0A4F28419497F9722A3DAAFE3B4186F6B6457E0 PUSH1 0x40 MLOAD PUSH1 0x40 MLOAD DUP1 SWAP2 SUB SWAP1 LOG3 POP POP JUMP JUMPDEST PUSH2 0x15F1 DUP6 DUP6 DUP6 DUP6 PUSH2 0x1376 JUMP JUMPDEST PUSH2 0x15FD DUP5 DUP5 DUP5 DUP5 PUSH2 0x1773 JUMP JUMPDEST POP POP POP POP POP JUMP JUMPDEST PUSH1 0x60 PUSH1 0x40 MLOAD DUP1 PUSH1 0x20 ADD PUSH1 0x40 MSTORE DUP1 PUSH0 DUP2 MSTORE POP SWAP1 POP SWAP1 JUMP JUMPDEST PUSH1 0x60 PUSH0 DUP3 SUB PUSH2 0x1660 JUMPI PUSH1 0x40 MLOAD DUP1 PUSH1 0x40 ADD PUSH1 0x40 MSTORE DUP1 PUSH1 0x1 DUP2 MSTORE PUSH1 0x20 ADD PUSH32 0x3000000000000000000000000000000000000000000000000000000000000000 DUP2 MSTORE POP SWAP1 POP PUSH2 0x176E JUMP JUMPDEST PUSH0 DUP3 SWAP1 POP PUSH0 JUMPDEST PUSH0 DUP3 EQ PUSH2 0x168F JUMPI DUP1 DUP1 PUSH2 0x1678 SWAP1 PUSH2 0x236B JUMP JUMPDEST SWAP2 POP POP PUSH1 0xA DUP3 PUSH2 0x1688 SWAP2 SWAP1 PUSH2 0x20D8 JUMP JUMPDEST SWAP2 POP PUSH2 0x1666 JUMP JUMPDEST PUSH0 DUP2 PUSH8 0xFFFFFFFFFFFFFFFF DUP2 GT ISZERO PUSH2 0x16AA JUMPI PUSH2 0x16A9 PUSH2 0x1D07 JUMP JUMPDEST JUMPDEST PUSH1 0x40 MLOAD SWAP1 DUP1 DUP3 MSTORE DUP1 PUSH1 0x1F ADD PUSH1 0x1F NOT AND PUSH1 0x20 ADD DUP3 ADD PUSH1 0x40 MSTORE DUP1 ISZERO PUSH2 0x16DC JUMPI DUP2 PUSH1 0x20 ADD PUSH1 0x1 DUP3 MUL DUP1 CALLDATASIZE DUP4 CALLDATACOPY DUP1 DUP3 ADD SWAP2 POP POP SWAP1 POP JUMPDEST POP SWAP1 POP JUMPDEST PUSH0 DUP6 EQ PUSH2 0x1767 JUMPI PUSH1 0x1 DUP3 PUSH2 0x16F4 SWAP2 SWAP1 PUSH2 0x2108 JUMP JUMPDEST SWAP2 POP PUSH1 0xA DUP6 PUSH2 0x1703 SWAP2 SWAP1 PUSH2 0x23B2 JUMP JUMPDEST PUSH1 0x30 PUSH2 0x170F SWAP2 SWAP1 PUSH2 0x2338 JUMP JUMPDEST PUSH1 0xF8 SHL DUP2 DUP4 DUP2 MLOAD DUP2 LT PUSH2 0x1725 JUMPI PUSH2 0x1724 PUSH2 0x23E2 JUMP JUMPDEST JUMPDEST PUSH1 0x20 ADD ADD SWAP1 PUSH31 0xFFFFFFFFFFFFFFFFFFFFFFFFFFFFFFFFFFFFFFFFFFFFFFFFFFFFFFFFFFFFFF NOT AND SWAP1 DUP2 PUSH0 BYTE SWAP1 MSTORE8 POP PUSH1 0xA DUP6 PUSH2 0x1760 SWAP2 SWAP1 PUSH2 0x20D8 JUMP JUMPDEST SWAP5 POP PUSH2 0x16E0 JUMP JUMPDEST DUP1 SWAP4 POP POP POP POP JUMPDEST SWAP2 SWAP1 POP JUMP JUMPDEST PUSH0 DUP4 PUSH20 0xFFFFFFFFFFFFFFFFFFFFFFFFFFFFFFFFFFFFFFFF AND EXTCODESIZE GT ISZERO PUSH2 0x1918 JUMPI DUP3 PUSH20 0xFFFFFFFFFFFFFFFFFFFFFFFFFFFFFFFFFFFFFFFF AND PUSH4 0x150B7A02 CALLER DUP7 DUP6 DUP6 PUSH1 0x40 MLOAD DUP6 PUSH4 0xFFFFFFFF AND PUSH1 0xE0 SHL DUP2 MSTORE PUSH1 0x4 ADD PUSH2 0x17D1 SWAP5 SWAP4 SWAP3 SWAP2 SWAP1 PUSH2 0x2461 JUMP JUMPDEST PUSH1 0x20 PUSH1 0x40 MLOAD DUP1 DUP4 SUB DUP2 PUSH0 DUP8 GAS CALL SWAP3 POP POP POP DUP1 ISZERO PUSH2 0x180C JUMPI POP PUSH1 0x40 MLOAD RETURNDATASIZE PUSH1 0x1F NOT PUSH1 0x1F DUP3 ADD AND DUP3 ADD DUP1 PUSH1 0x40 MSTORE POP DUP2 ADD SWAP1 PUSH2 0x1809 SWAP2 SWAP1 PUSH2 0x24BF JUMP JUMPDEST PUSH1 0x1 JUMPDEST PUSH2 0x188D JUMPI RETURNDATASIZE DUP1 PUSH0 DUP2 EQ PUSH2 0x183A JUMPI PUSH1 0x40 MLOAD SWAP2 POP PUSH1 0x1F NOT PUSH1 0x3F RETURNDATASIZE ADD AND DUP3 ADD PUSH1 0x40 MSTORE RETURNDATASIZE DUP3 MSTORE RETURNDATASIZE PUSH0 PUSH1 0x20 DUP5 ADD RETURNDATACOPY PUSH2 0x183F JUMP JUMPDEST PUSH1 0x60 SWAP2 POP JUMPDEST POP PUSH0 DUP2 MLOAD SUB PUSH2 0x1885 JUMPI DUP4 PUSH1 0x40 MLOAD PUSH32 0x64A0AE9200000000000000000000000000000000000000000000000000000000 DUP2 MSTORE PUSH1 0x4 ADD PUSH2 0x187C SWAP2 SWAP1 PUSH2 0x1B73 JUMP JUMPDEST PUSH1 0x40 MLOAD DUP1 SWAP2 SUB SWAP1 REVERT JUMPDEST DUP1 MLOAD DUP2 PUSH1 0x20 ADD REVERT JUMPDEST PUSH4 0x150B7A02 PUSH1 0xE0 SHL PUSH28 0xFFFFFFFFFFFFFFFFFFFFFFFFFFFFFFFFFFFFFFFFFFFFFFFFFFFFFFFF NOT AND DUP2 PUSH28 0xFFFFFFFFFFFFFFFFFFFFFFFFFFFFFFFFFFFFFFFFFFFFFFFFFFFFFFFF NOT AND EQ PUSH2 0x1916 JUMPI DUP4 PUSH1 0x40 MLOAD PUSH32 0x64A0AE9200000000000000000000000000000000000000000000000000000000 DUP2 MSTORE PUSH1 0x4 ADD PUSH2 0x190D SWAP2 SWAP1 PUSH2 0x1B73 JUMP JUMPDEST PUSH1 0x40 MLOAD DUP1 SWAP2 SUB SWAP1 REVERT JUMPDEST POP JUMPDEST POP POP POP POP JUMP JUMPDEST PUSH0 PUSH1 0x40 MLOAD SWAP1 POP SWAP1 JUMP JUMPDEST PUSH0 DUP1 REVERT JUMPDEST PUSH0 DUP1 REVERT JUMPDEST PUSH0 PUSH32 0xFFFFFFFF00000000000000000000000000000000000000000000000000000000 DUP3 AND SWAP1 POP SWAP2 SWAP1 POP JUMP JUMPDEST PUSH2 0x1963 DUP2 PUSH2 0x192F JUMP JUMPDEST DUP2 EQ PUSH2 0x196D JUMPI PUSH0 DUP1 REVERT JUMPDEST POP JUMP JUMPDEST PUSH0 DUP2 CALLDATALOAD SWAP1 POP PUSH2 0x197E DUP2 PUSH2 0x195A JUMP JUMPDEST SWAP3 SWAP2 POP POP JUMP JUMPDEST PUSH0 PUSH1 0x20 DUP3 DUP5 SUB SLT ISZERO PUSH2 0x1999 JUMPI PUSH2 0x1998 PUSH2 0x1927 JUMP JUMPDEST JUMPDEST PUSH0 PUSH2 0x19A6 DUP5 DUP3 DUP6 ADD PUSH2 0x1970 JUMP JUMPDEST SWAP2 POP POP SWAP3 SWAP2 POP POP JUMP JUMPDEST PUSH0 DUP2 ISZERO ISZERO SWAP1 POP SWAP2 SWAP1 POP JUMP JUMPDEST PUSH2 0x19C3 DUP2 PUSH2 0x19AF JUMP JUMPDEST DUP3 MSTORE POP POP JUMP JUMPDEST PUSH0 PUSH1 0x20 DUP3 ADD SWAP1 POP PUSH2 0x19DC PUSH0 DUP4 ADD DUP5 PUSH2 0x19BA JUMP JUMPDEST SWAP3 SWAP2 POP POP JUMP JUMPDEST PUSH0 PUSH4 0xFFFFFFFF DUP3 AND SWAP1 POP SWAP2 SWAP1 POP JUMP JUMPDEST PUSH2 0x19FA DUP2 PUSH2 0x19E2 JUMP JUMPDEST DUP2 EQ PUSH2 0x1A04 JUMPI PUSH0 DUP1 REVERT JUMPDEST POP JUMP JUMPDEST PUSH0 DUP2 CALLDATALOAD SWAP1 POP PUSH2 0x1A15 DUP2 PUSH2 0x19F1 JUMP JUMPDEST SWAP3 SWAP2 POP POP JUMP JUMPDEST PUSH0 PUSH1 0x20 DUP3 DUP5 SUB SLT ISZERO PUSH2 0x1A30 JUMPI PUSH2 0x1A2F PUSH2 0x1927 JUMP JUMPDEST JUMPDEST PUSH0 PUSH2 0x1A3D DUP5 DUP3 DUP6 ADD PUSH2 0x1A07 JUMP JUMPDEST SWAP2 POP POP SWAP3 SWAP2 POP POP JUMP JUMPDEST PUSH0 DUP2 MLOAD SWAP1 POP SWAP2 SWAP1 POP JUMP JUMPDEST PUSH0 DUP3 DUP3 MSTORE PUSH1 0x20 DUP3 ADD SWAP1 POP SWAP3 SWAP2 POP POP JUMP JUMPDEST DUP3 DUP2 DUP4 MCOPY PUSH0 DUP4 DUP4 ADD MSTORE POP POP POP JUMP JUMPDEST PUSH0 PUSH1 0x1F NOT PUSH1 0x1F DUP4 ADD AND SWAP1 POP SWAP2 SWAP1 POP JUMP JUMPDEST PUSH0 PUSH2 0x1A88 DUP3 PUSH2 0x1A46 JUMP JUMPDEST PUSH2 0x1A92 DUP2 DUP6 PUSH2 0x1A50 JUMP JUMPDEST SWAP4 POP PUSH2 0x1AA2 DUP2 DUP6 PUSH1 0x20 DUP7 ADD PUSH2 0x1A60 JUMP JUMPDEST PUSH2 0x1AAB DUP2 PUSH2 0x1A6E JUMP JUMPDEST DUP5 ADD SWAP2 POP POP SWAP3 SWAP2 POP POP JUMP JUMPDEST PUSH0 PUSH1 0x20 DUP3 ADD SWAP1 POP DUP2 DUP2 SUB PUSH0 DUP4 ADD MSTORE PUSH2 0x1ACE DUP2 DUP5 PUSH2 0x1A7E JUMP JUMPDEST SWAP1 POP SWAP3 SWAP2 POP POP JUMP JUMPDEST PUSH0 DUP2 SWAP1 POP SWAP2 SWAP1 POP JUMP JUMPDEST PUSH2 0x1AE8 DUP2 PUSH2 0x1AD6 JUMP JUMPDEST DUP2 EQ PUSH2 0x1AF2 JUMPI PUSH0 DUP1 REVERT JUMPDEST POP JUMP JUMPDEST PUSH0 DUP2 CALLDATALOAD SWAP1 POP PUSH2 0x1B03 DUP2 PUSH2 0x1ADF JUMP JUMPDEST SWAP3 SWAP2 POP POP JUMP JUMPDEST PUSH0 PUSH1 0x20 DUP3 DUP5 SUB SLT ISZERO PUSH2 0x1B1E JUMPI PUSH2 0x1B1D PUSH2 0x1927 JUMP JUMPDEST JUMPDEST PUSH0 PUSH2 0x1B2B DUP5 DUP3 DUP6 ADD PUSH2 0x1AF5 JUMP JUMPDEST SWAP2 POP POP SWAP3 SWAP2 POP POP JUMP JUMPDEST PUSH0 PUSH20 0xFFFFFFFFFFFFFFFFFFFFFFFFFFFFFFFFFFFFFFFF DUP3 AND SWAP1 POP SWAP2 SWAP1 POP JUMP JUMPDEST PUSH0 PUSH2 0x1B5D DUP3 PUSH2 0x1B34 JUMP JUMPDEST SWAP1 POP SWAP2 SWAP1 POP JUMP JUMPDEST PUSH2 0x1B6D DUP2 PUSH2 0x1B53 JUMP JUMPDEST DUP3 MSTORE POP POP JUMP JUMPDEST PUSH0 PUSH1 0x20 DUP3 ADD SWAP1 POP PUSH2 0x1B86 PUSH0 DUP4 ADD DUP5 PUSH2 0x1B64 JUMP JUMPDEST SWAP3 SWAP2 POP POP JUMP JUMPDEST PUSH2 0x1B95 DUP2 PUSH2 0x1B53 JUMP JUMPDEST DUP2 EQ PUSH2 0x1B9F JUMPI PUSH0 DUP1 REVERT JUMPDEST POP JUMP JUMPDEST PUSH0 DUP2 CALLDATALOAD SWAP1 POP PUSH2 0x1BB0 DUP2 PUSH2 0x1B8C JUMP JUMPDEST SWAP3 SWAP2 POP POP JUMP JUMPDEST PUSH0 DUP1 PUSH1 0x40 DUP4 DUP6 SUB SLT ISZERO PUSH2 0x1BCC JUMPI PUSH2 0x1BCB PUSH2 0x1927 JUMP JUMPDEST JUMPDEST PUSH0 PUSH2 0x1BD9 DUP6 DUP3 DUP7 ADD PUSH2 0x1BA2 JUMP JUMPDEST SWAP3 POP POP PUSH1 0x20 PUSH2 0x1BEA DUP6 DUP3 DUP7 ADD PUSH2 0x1AF5 JUMP JUMPDEST SWAP2 POP POP SWAP3 POP SWAP3 SWAP1 POP JUMP JUMPDEST PUSH2 0x1BFD DUP2 PUSH2 0x1AD6 JUMP JUMPDEST DUP3 MSTORE POP POP JUMP JUMPDEST PUSH0 PUSH1 0x20 DUP3 ADD SWAP1 POP PUSH2 0x1C16 PUSH0 DUP4 ADD DUP5 PUSH2 0x1BF4 JUMP JUMPDEST SWAP3 SWAP2 POP POP JUMP JUMPDEST PUSH0 DUP1 PUSH0 PUSH1 0x60 DUP5 DUP7 SUB SLT ISZERO PUSH2 0x1C33 JUMPI PUSH2 0x1C32 PUSH2 0x1927 JUMP JUMPDEST JUMPDEST PUSH0 PUSH2 0x1C40 DUP7 DUP3 DUP8 ADD PUSH2 0x1BA2 JUMP JUMPDEST SWAP4 POP POP PUSH1 0x20 PUSH2 0x1C51 DUP7 DUP3 DUP8 ADD PUSH2 0x1BA2 JUMP JUMPDEST SWAP3 POP POP PUSH1 0x40 PUSH2 0x1C62 DUP7 DUP3 DUP8 ADD PUSH2 0x1AF5 JUMP JUMPDEST SWAP2 POP POP SWAP3 POP SWAP3 POP SWAP3 JUMP JUMPDEST PUSH0 PUSH1 0x20 DUP3 DUP5 SUB SLT ISZERO PUSH2 0x1C81 JUMPI PUSH2 0x1C80 PUSH2 0x1927 JUMP JUMPDEST JUMPDEST PUSH0 PUSH2 0x1C8E DUP5 DUP3 DUP6 ADD PUSH2 0x1BA2 JUMP JUMPDEST SWAP2 POP POP SWAP3 SWAP2 POP POP JUMP JUMPDEST PUSH2 0x1CA0 DUP2 PUSH2 0x19AF JUMP JUMPDEST DUP2 EQ PUSH2 0x1CAA JUMPI PUSH0 DUP1 REVERT JUMPDEST POP JUMP JUMPDEST PUSH0 DUP2 CALLDATALOAD SWAP1 POP PUSH2 0x1CBB DUP2 PUSH2 0x1C97 JUMP JUMPDEST SWAP3 SWAP2 POP POP JUMP JUMPDEST PUSH0 DUP1 PUSH1 0x40 DUP4 DUP6 SUB SLT ISZERO PUSH2 0x1CD7 JUMPI PUSH2 0x1CD6 PUSH2 0x1927 JUMP JUMPDEST JUMPDEST PUSH0 PUSH2 0x1CE4 DUP6 DUP3 DUP7 ADD PUSH2 0x1BA2 JUMP JUMPDEST SWAP3 POP POP PUSH1 0x20 PUSH2 0x1CF5 DUP6 DUP3 DUP7 ADD PUSH2 0x1CAD JUMP JUMPDEST SWAP2 POP POP SWAP3 POP SWAP3 SWAP1 POP JUMP JUMPDEST PUSH0 DUP1 REVERT JUMPDEST PUSH0 DUP1 REVERT JUMPDEST PUSH32 0x4E487B7100000000000000000000000000000000000000000000000000000000 PUSH0 MSTORE PUSH1 0x41 PUSH1 0x4 MSTORE PUSH1 0x24 PUSH0 REVERT JUMPDEST PUSH2 0x1D3D DUP3 PUSH2 0x1A6E JUMP JUMPDEST DUP2 ADD DUP2 DUP2 LT PUSH8 0xFFFFFFFFFFFFFFFF DUP3 GT OR ISZERO PUSH2 0x1D5C JUMPI PUSH2 0x1D5B PUSH2 0x1D07 JUMP JUMPDEST JUMPDEST DUP1 PUSH1 0x40 MSTORE POP POP POP JUMP JUMPDEST PUSH0 PUSH2 0x1D6E PUSH2 0x191E JUMP JUMPDEST SWAP1 POP PUSH2 0x1D7A DUP3 DUP3 PUSH2 0x1D34 JUMP JUMPDEST SWAP2 SWAP1 POP JUMP JUMPDEST PUSH0 PUSH8 0xFFFFFFFFFFFFFFFF DUP3 GT ISZERO PUSH2 0x1D99 JUMPI PUSH2 0x1D98 PUSH2 0x1D07 JUMP JUMPDEST JUMPDEST PUSH2 0x1DA2 DUP3 PUSH2 0x1A6E JUMP JUMPDEST SWAP1 POP PUSH1 0x20 DUP2 ADD SWAP1 POP SWAP2 SWAP1 POP JUMP JUMPDEST DUP3 DUP2 DUP4 CALLDATACOPY PUSH0 DUP4 DUP4 ADD MSTORE POP POP POP JUMP JUMPDEST PUSH0 PUSH2 0x1DCF PUSH2 0x1DCA DUP5 PUSH2 0x1D7F JUMP JUMPDEST PUSH2 0x1D65 JUMP JUMPDEST SWAP1 POP DUP3 DUP2 MSTORE PUSH1 0x20 DUP2 ADD DUP5 DUP5 DUP5 ADD GT ISZERO PUSH2 0x1DEB JUMPI PUSH2 0x1DEA PUSH2 0x1D03 JUMP JUMPDEST JUMPDEST PUSH2 0x1DF6 DUP5 DUP3 DUP6 PUSH2 0x1DAF JUMP JUMPDEST POP SWAP4 SWAP3 POP POP POP JUMP JUMPDEST PUSH0 DUP3 PUSH1 0x1F DUP4 ADD SLT PUSH2 0x1E12 JUMPI PUSH2 0x1E11 PUSH2 0x1CFF JUMP JUMPDEST JUMPDEST DUP2 CALLDATALOAD PUSH2 0x1E22 DUP5 DUP3 PUSH1 0x20 DUP7 ADD PUSH2 0x1DBD JUMP JUMPDEST SWAP2 POP POP SWAP3 SWAP2 POP POP JUMP JUMPDEST PUSH0 DUP1 PUSH0 DUP1 PUSH1 0x80 DUP6 DUP8 SUB SLT ISZERO PUSH2 0x1E43 JUMPI PUSH2 0x1E42 PUSH2 0x1927 JUMP JUMPDEST JUMPDEST PUSH0 PUSH2 0x1E50 DUP8 DUP3 DUP9 ADD PUSH2 0x1BA2 JUMP JUMPDEST SWAP5 POP POP PUSH1 0x20 PUSH2 0x1E61 DUP8 DUP3 DUP9 ADD PUSH2 0x1BA2 JUMP JUMPDEST SWAP4 POP POP PUSH1 0x40 PUSH2 0x1E72 DUP8 DUP3 DUP9 ADD PUSH2 0x1AF5 JUMP JUMPDEST SWAP3 POP POP PUSH1 0x60 DUP6 ADD CALLDATALOAD PUSH8 0xFFFFFFFFFFFFFFFF DUP2 GT ISZERO PUSH2 0x1E93 JUMPI PUSH2 0x1E92 PUSH2 0x192B JUMP JUMPDEST JUMPDEST PUSH2 0x1E9F DUP8 DUP3 DUP9 ADD PUSH2 0x1DFE JUMP JUMPDEST SWAP2 POP POP SWAP3 SWAP6 SWAP2 SWAP5 POP SWAP3 POP JUMP JUMPDEST PUSH0 DUP1 PUSH1 0x40 DUP4 DUP6 SUB SLT ISZERO PUSH2 0x1EC1 JUMPI PUSH2 0x1EC0 PUSH2 0x1927 JUMP JUMPDEST JUMPDEST PUSH0 PUSH2 0x1ECE DUP6 DUP3 DUP7 ADD PUSH2 0x1BA2 JUMP JUMPDEST SWAP3 POP POP PUSH1 0x20 PUSH2 0x1EDF DUP6 DUP3 DUP7 ADD PUSH2 0x1BA2 JUMP JUMPDEST SWAP2 POP POP SWAP3 POP SWAP3 SWAP1 POP JUMP JUMPDEST PUSH32 0x4E487B7100000000000000000000000000000000000000000000000000000000 PUSH0 MSTORE PUSH1 0x22 PUSH1 0x4 MSTORE PUSH1 0x24 PUSH0 REVERT JUMPDEST PUSH0 PUSH1 0x2 DUP3 DIV SWAP1 POP PUSH1 0x1 DUP3 AND DUP1 PUSH2 0x1F2D JUMPI PUSH1 0x7F DUP3 AND SWAP2 POP JUMPDEST PUSH1 0x20 DUP3 LT DUP2 SUB PUSH2 0x1F40 JUMPI PUSH2 0x1F3F PUSH2 0x1EE9 JUMP JUMPDEST JUMPDEST POP SWAP2 SWAP1 POP JUMP JUMPDEST PUSH32 0x746F6B656E20646F6573206E6F74206578697374212121000000000000000000 PUSH0 DUP3 ADD MSTORE POP JUMP JUMPDEST PUSH0 PUSH2 0x1F7A PUSH1 0x17 DUP4 PUSH2 0x1A50 JUMP JUMPDEST SWAP2 POP PUSH2 0x1F85 DUP3 PUSH2 0x1F46 JUMP JUMPDEST PUSH1 0x20 DUP3 ADD SWAP1 POP SWAP2 SWAP1 POP JUMP JUMPDEST PUSH0 PUSH1 0x20 DUP3 ADD SWAP1 POP DUP2 DUP2 SUB PUSH0 DUP4 ADD MSTORE PUSH2 0x1FA7 DUP2 PUSH2 0x1F6E JUMP JUMPDEST SWAP1 POP SWAP2 SWAP1 POP JUMP JUMPDEST PUSH32 0x696E76616C69642063616C6C2066756E6374696F6E2027617070726F76652700 PUSH0 DUP3 ADD MSTORE POP JUMP JUMPDEST PUSH0 PUSH2 0x1FE2 PUSH1 0x1F DUP4 PUSH2 0x1A50 JUMP JUMPDEST SWAP2 POP PUSH2 0x1FED DUP3 PUSH2 0x1FAE JUMP JUMPDEST PUSH1 0x20 DUP3 ADD SWAP1 POP SWAP2 SWAP1 POP JUMP JUMPDEST PUSH0 PUSH1 0x20 DUP3 ADD SWAP1 POP DUP2 DUP2 SUB PUSH0 DUP4 ADD MSTORE PUSH2 0x200F DUP2 PUSH2 0x1FD6 JUMP JUMPDEST SWAP1 POP SWAP2 SWAP1 POP JUMP JUMPDEST PUSH32 0x6E6F74206F776E6572206F7220617070726F7665640000000000000000000000 PUSH0 DUP3 ADD MSTORE POP JUMP JUMPDEST PUSH0 PUSH2 0x204A PUSH1 0x15 DUP4 PUSH2 0x1A50 JUMP JUMPDEST SWAP2 POP PUSH2 0x2055 DUP3 PUSH2 0x2016 JUMP JUMPDEST PUSH1 0x20 DUP3 ADD SWAP1 POP SWAP2 SWAP1 POP JUMP JUMPDEST PUSH0 PUSH1 0x20 DUP3 ADD SWAP1 POP DUP2 DUP2 SUB PUSH0 DUP4 ADD MSTORE PUSH2 0x2077 DUP2 PUSH2 0x203E JUMP JUMPDEST SWAP1 POP SWAP2 SWAP1 POP JUMP JUMPDEST PUSH32 0x4E487B7100000000000000000000000000000000000000000000000000000000 PUSH0 MSTORE PUSH1 0x12 PUSH1 0x4 MSTORE PUSH1 0x24 PUSH0 REVERT JUMPDEST PUSH32 0x4E487B7100000000000000000000000000000000000000000000000000000000 PUSH0 MSTORE PUSH1 0x11 PUSH1 0x4 MSTORE PUSH1 0x24 PUSH0 REVERT JUMPDEST PUSH0 PUSH2 0x20E2 DUP3 PUSH2 0x1AD6 JUMP JUMPDEST SWAP2 POP PUSH2 0x20ED DUP4 PUSH2 0x1AD6 JUMP JUMPDEST SWAP3 POP DUP3 PUSH2 0x20FD JUMPI PUSH2 0x20FC PUSH2 0x207E JUMP JUMPDEST JUMPDEST DUP3 DUP3 DIV SWAP1 POP SWAP3 SWAP2 POP POP JUMP JUMPDEST PUSH0 PUSH2 0x2112 DUP3 PUSH2 0x1AD6 JUMP JUMPDEST SWAP2 POP PUSH2 0x211D DUP4 PUSH2 0x1AD6 JUMP JUMPDEST SWAP3 POP DUP3 DUP3 SUB SWAP1 POP DUP2 DUP2 GT ISZERO PUSH2 0x2135 JUMPI PUSH2 0x2134 PUSH2 0x20AB JUMP JUMPDEST JUMPDEST SWAP3 SWAP2 POP POP JUMP JUMPDEST PUSH32 0x746F6B656E206973206E6F742065786973740000000000000000000000000000 PUSH0 DUP3 ADD MSTORE POP JUMP JUMPDEST PUSH0 PUSH2 0x216F PUSH1 0x12 DUP4 PUSH2 0x1A50 JUMP JUMPDEST SWAP2 POP PUSH2 0x217A DUP3 PUSH2 0x213B JUMP JUMPDEST PUSH1 0x20 DUP3 ADD SWAP1 POP SWAP2 SWAP1 POP JUMP JUMPDEST PUSH0 PUSH1 0x20 DUP3 ADD SWAP1 POP DUP2 DUP2 SUB PUSH0 DUP4 ADD MSTORE PUSH2 0x219C DUP2 PUSH2 0x2163 JUMP JUMPDEST SWAP1 POP SWAP2 SWAP1 POP JUMP JUMPDEST PUSH32 0x6F776E6572203D3D205A65726F416464726573732C20697320696E76616C6964 PUSH0 DUP3 ADD MSTORE POP JUMP JUMPDEST PUSH0 PUSH2 0x21D7 PUSH1 0x20 DUP4 PUSH2 0x1A50 JUMP JUMPDEST SWAP2 POP PUSH2 0x21E2 DUP3 PUSH2 0x21A3 JUMP JUMPDEST PUSH1 0x20 DUP3 ADD SWAP1 POP SWAP2 SWAP1 POP JUMP JUMPDEST PUSH0 PUSH1 0x20 DUP3 ADD SWAP1 POP DUP2 DUP2 SUB PUSH0 DUP4 ADD MSTORE PUSH2 0x2204 DUP2 PUSH2 0x21CB JUMP JUMPDEST SWAP1 POP SWAP2 SWAP1 POP JUMP JUMPDEST PUSH32 0x546F6B656E204E6F742045786973740000000000000000000000000000000000 PUSH0 DUP3 ADD MSTORE POP JUMP JUMPDEST PUSH0 PUSH2 0x223F PUSH1 0xF DUP4 PUSH2 0x1A50 JUMP JUMPDEST SWAP2 POP PUSH2 0x224A DUP3 PUSH2 0x220B JUMP JUMPDEST PUSH1 0x20 DUP3 ADD SWAP1 POP SWAP2 SWAP1 POP JUMP JUMPDEST PUSH0 PUSH1 0x20 DUP3 ADD SWAP1 POP DUP2 DUP2 SUB PUSH0 DUP4 ADD MSTORE PUSH2 0x226C DUP2 PUSH2 0x2233 JUMP JUMPDEST SWAP1 POP SWAP2 SWAP1 POP JUMP JUMPDEST PUSH0 DUP2 SWAP1 POP SWAP3 SWAP2 POP POP JUMP JUMPDEST PUSH0 PUSH2 0x2287 DUP3 PUSH2 0x1A46 JUMP JUMPDEST PUSH2 0x2291 DUP2 DUP6 PUSH2 0x2273 JUMP JUMPDEST SWAP4 POP PUSH2 0x22A1 DUP2 DUP6 PUSH1 0x20 DUP7 ADD PUSH2 0x1A60 JUMP JUMPDEST DUP1 DUP5 ADD SWAP2 POP POP SWAP3 SWAP2 POP POP JUMP JUMPDEST PUSH0 PUSH2 0x22B8 DUP3 DUP6 PUSH2 0x227D JUMP JUMPDEST SWAP2 POP PUSH2 0x22C4 DUP3 DUP5 PUSH2 0x227D JUMP JUMPDEST SWAP2 POP DUP2 SWAP1 POP SWAP4 SWAP3 POP POP POP JUMP JUMPDEST PUSH32 0x6E6F74206F776E65720000000000000000000000000000000000000000000000 PUSH0 DUP3 ADD MSTORE POP JUMP JUMPDEST PUSH0 PUSH2 0x2304 PUSH1 0x9 DUP4 PUSH2 0x1A50 JUMP JUMPDEST SWAP2 POP PUSH2 0x230F DUP3 PUSH2 0x22D0 JUMP JUMPDEST PUSH1 0x20 DUP3 ADD SWAP1 POP SWAP2 SWAP1 POP JUMP JUMPDEST PUSH0 PUSH1 0x20 DUP3 ADD SWAP1 POP DUP2 DUP2 SUB PUSH0 DUP4 ADD MSTORE PUSH2 0x2331 DUP2 PUSH2 0x22F8 JUMP JUMPDEST SWAP1 POP SWAP2 SWAP1 POP JUMP JUMPDEST PUSH0 PUSH2 0x2342 DUP3 PUSH2 0x1AD6 JUMP JUMPDEST SWAP2 POP PUSH2 0x234D DUP4 PUSH2 0x1AD6 JUMP JUMPDEST SWAP3 POP DUP3 DUP3 ADD SWAP1 POP DUP1 DUP3 GT ISZERO PUSH2 0x2365 JUMPI PUSH2 0x2364 PUSH2 0x20AB JUMP JUMPDEST JUMPDEST SWAP3 SWAP2 POP POP JUMP JUMPDEST PUSH0 PUSH2 0x2375 DUP3 PUSH2 0x1AD6 JUMP JUMPDEST SWAP2 POP PUSH32 0xFFFFFFFFFFFFFFFFFFFFFFFFFFFFFFFFFFFFFFFFFFFFFFFFFFFFFFFFFFFFFFFF DUP3 SUB PUSH2 0x23A7 JUMPI PUSH2 0x23A6 PUSH2 0x20AB JUMP JUMPDEST JUMPDEST PUSH1 0x1 DUP3 ADD SWAP1 POP SWAP2 SWAP1 POP JUMP JUMPDEST PUSH0 PUSH2 0x23BC DUP3 PUSH2 0x1AD6 JUMP JUMPDEST SWAP2 POP PUSH2 0x23C7 DUP4 PUSH2 0x1AD6 JUMP JUMPDEST SWAP3 POP DUP3 PUSH2 0x23D7 JUMPI PUSH2 0x23D6 PUSH2 0x207E JUMP JUMPDEST JUMPDEST DUP3 DUP3 MOD SWAP1 POP SWAP3 SWAP2 POP POP JUMP JUMPDEST PUSH32 0x4E487B7100000000000000000000000000000000000000000000000000000000 PUSH0 MSTORE PUSH1 0x32 PUSH1 0x4 MSTORE PUSH1 0x24 PUSH0 REVERT JUMPDEST PUSH0 DUP2 MLOAD SWAP1 POP SWAP2 SWAP1 POP JUMP JUMPDEST PUSH0 DUP3 DUP3 MSTORE PUSH1 0x20 DUP3 ADD SWAP1 POP SWAP3 SWAP2 POP POP JUMP JUMPDEST PUSH0 PUSH2 0x2433 DUP3 PUSH2 0x240F JUMP JUMPDEST PUSH2 0x243D DUP2 DUP6 PUSH2 0x2419 JUMP JUMPDEST SWAP4 POP PUSH2 0x244D DUP2 DUP6 PUSH1 0x20 DUP7 ADD PUSH2 0x1A60 JUMP JUMPDEST PUSH2 0x2456 DUP2 PUSH2 0x1A6E JUMP JUMPDEST DUP5 ADD SWAP2 POP POP SWAP3 SWAP2 POP POP JUMP JUMPDEST PUSH0 PUSH1 0x80 DUP3 ADD SWAP1 POP PUSH2 0x2474 PUSH0 DUP4 ADD DUP8 PUSH2 0x1B64 JUMP JUMPDEST PUSH2 0x2481 PUSH1 0x20 DUP4 ADD DUP7 PUSH2 0x1B64 JUMP JUMPDEST PUSH2 0x248E PUSH1 0x40 DUP4 ADD DUP6 PUSH2 0x1BF4 JUMP JUMPDEST DUP2 DUP2 SUB PUSH1 0x60 DUP4 ADD MSTORE PUSH2 0x24A0 DUP2 DUP5 PUSH2 0x2429 JUMP JUMPDEST SWAP1 POP SWAP6 SWAP5 POP POP POP POP POP JUMP JUMPDEST PUSH0 DUP2 MLOAD SWAP1 POP PUSH2 0x24B9 DUP2 PUSH2 0x195A JUMP JUMPDEST SWAP3 SWAP2 POP POP JUMP JUMPDEST PUSH0 PUSH1 0x20 DUP3 DUP5 SUB SLT ISZERO PUSH2 0x24D4 JUMPI PUSH2 0x24D3 PUSH2 0x1927 JUMP JUMPDEST JUMPDEST PUSH0 PUSH2 0x24E1 DUP5 DUP3 DUP6 ADD PUSH2 0x24AB JUMP JUMPDEST SWAP2 POP POP SWAP3 SWAP2 POP POP JUMP INVALID LOG2 PUSH5 0x6970667358 0x22 SLT KECCAK256 0xE0 0xC0 0xBC 0xE1 0xCA 0x29 SWAP1 DUP5 XOR SSTORE AND PUSH31 0x7F0C18685BD62E548DAD2E34A3D00150FC07734B64736F6C634300081A0033 "
				},
				"gasEstimates": {
					"creation": {
						"codeDepositCost": "1900800",
						"executionCost": "infinite",
						"totalCost": "infinite"
					},
					"external": {
						"AUCTION_DROP_PER_STEP()": "infinite",
						"AUCTION_DROP_TIME_INTERVAL()": "393",
						"AUCTION_END_PRICE()": "392",
						"AUCTION_START_PRICE()": "415",
						"AUCTION_TIME()": "369",
						"COLLECTION_SIZE()": "414",
						"approve(address,uint256)": "31625",
						"auctionMint(uint256)": "2556",
						"auctionStartTime()": "2513",
						"balanceOf(address)": "2910",
						"getApproved(uint256)": "5188",
						"getAuctionPrice()": "369",
						"isApprovedForAll(address,address)": "infinite",
						"name()": "infinite",
						"owner()": "2560",
						"ownerOf(uint256)": "3049",
						"renounceOwnership()": "30424",
						"safeTransferFrom(address,address,uint256)": "infinite",
						"safeTransferFrom(address,address,uint256,bytes)": "infinite",
						"setApprovalForAll(address,bool)": "infinite",
						"setAuctionStartTime(uint32)": "24800",
						"supportsInterface(bytes4)": "745",
						"symbol()": "infinite",
						"tokenURI(uint256)": "infinite",
						"totalSupply()": "2574",
						"transferFrom(address,address,uint256)": "infinite",
						"transferOwnership(address)": "infinite"
					},
					"internal": {
						"_addTokenToAllTokensEnumeration(uint256)": "infinite"
					}
				},
				"methodIdentifiers": {
					"AUCTION_DROP_PER_STEP()": "59f369fe",
					"AUCTION_DROP_TIME_INTERVAL()": "4047f289",
					"AUCTION_END_PRICE()": "caf8a6d1",
					"AUCTION_START_PRICE()": "7a1c4a56",
					"AUCTION_TIME()": "e592301a",
					"COLLECTION_SIZE()": "d8258d95",
					"approve(address,uint256)": "095ea7b3",
					"auctionMint(uint256)": "4d3554c3",
					"auctionStartTime()": "eb54f9ec",
					"balanceOf(address)": "70a08231",
					"getApproved(uint256)": "081812fc",
					"getAuctionPrice()": "4bd25c6f",
					"isApprovedForAll(address,address)": "e985e9c5",
					"name()": "06fdde03",
					"owner()": "8da5cb5b",
					"ownerOf(uint256)": "6352211e",
					"renounceOwnership()": "715018a6",
					"safeTransferFrom(address,address,uint256)": "42842e0e",
					"safeTransferFrom(address,address,uint256,bytes)": "b88d4fde",
					"setApprovalForAll(address,bool)": "a22cb465",
					"setAuctionStartTime(uint32)": "0697346f",
					"supportsInterface(bytes4)": "01ffc9a7",
					"symbol()": "95d89b41",
					"tokenURI(uint256)": "c87b56dd",
					"totalSupply()": "18160ddd",
					"transferFrom(address,address,uint256)": "23b872dd",
					"transferOwnership(address)": "f2fde38b"
				}
			},
			"storageLayout": {
				"storage": [
					{
						"astId": 798,
						"contract": "contracts/DutchAuction.sol:DutchAuction",
						"label": "_owner",
						"offset": 0,
						"slot": "0",
						"type": "t_address"
					},
					{
						"astId": 124,
						"contract": "contracts/DutchAuction.sol:DutchAuction",
						"label": "name",
						"offset": 0,
						"slot": "1",
						"type": "t_string_storage"
					},
					{
						"astId": 126,
						"contract": "contracts/DutchAuction.sol:DutchAuction",
						"label": "symbol",
						"offset": 0,
						"slot": "2",
						"type": "t_string_storage"
					},
					{
						"astId": 130,
						"contract": "contracts/DutchAuction.sol:DutchAuction",
						"label": "_owners",
						"offset": 0,
						"slot": "3",
						"type": "t_mapping(t_uint256,t_address)"
					},
					{
						"astId": 134,
						"contract": "contracts/DutchAuction.sol:DutchAuction",
						"label": "_balances",
						"offset": 0,
						"slot": "4",
						"type": "t_mapping(t_address,t_uint256)"
					},
					{
						"astId": 138,
						"contract": "contracts/DutchAuction.sol:DutchAuction",
						"label": "_tokenIdApprovals",
						"offset": 0,
						"slot": "5",
						"type": "t_mapping(t_uint256,t_address)"
					},
					{
						"astId": 144,
						"contract": "contracts/DutchAuction.sol:DutchAuction",
						"label": "_operatorApprovals",
						"offset": 0,
						"slot": "6",
						"type": "t_mapping(t_address,t_mapping(t_address,t_bool))"
					},
					{
						"astId": 35,
						"contract": "contracts/DutchAuction.sol:DutchAuction",
						"label": "auctionStartTime",
						"offset": 0,
						"slot": "7",
						"type": "t_uint256"
					},
					{
						"astId": 37,
						"contract": "contracts/DutchAuction.sol:DutchAuction",
						"label": "_baseTokenURI",
						"offset": 0,
						"slot": "8",
						"type": "t_string_storage"
					},
					{
						"astId": 40,
						"contract": "contracts/DutchAuction.sol:DutchAuction",
						"label": "_allTokens",
						"offset": 0,
						"slot": "9",
						"type": "t_array(t_uint256)dyn_storage"
					}
				],
				"types": {
					"t_address": {
						"encoding": "inplace",
						"label": "address",
						"numberOfBytes": "20"
					},
					"t_array(t_uint256)dyn_storage": {
						"base": "t_uint256",
						"encoding": "dynamic_array",
						"label": "uint256[]",
						"numberOfBytes": "32"
					},
					"t_bool": {
						"encoding": "inplace",
						"label": "bool",
						"numberOfBytes": "1"
					},
					"t_mapping(t_address,t_bool)": {
						"encoding": "mapping",
						"key": "t_address",
						"label": "mapping(address => bool)",
						"numberOfBytes": "32",
						"value": "t_bool"
					},
					"t_mapping(t_address,t_mapping(t_address,t_bool))": {
						"encoding": "mapping",
						"key": "t_address",
						"label": "mapping(address => mapping(address => bool))",
						"numberOfBytes": "32",
						"value": "t_mapping(t_address,t_bool)"
					},
					"t_mapping(t_address,t_uint256)": {
						"encoding": "mapping",
						"key": "t_address",
						"label": "mapping(address => uint256)",
						"numberOfBytes": "32",
						"value": "t_uint256"
					},
					"t_mapping(t_uint256,t_address)": {
						"encoding": "mapping",
						"key": "t_uint256",
						"label": "mapping(uint256 => address)",
						"numberOfBytes": "32",
						"value": "t_address"
					},
					"t_string_storage": {
						"encoding": "bytes",
						"label": "string",
						"numberOfBytes": "32"
					},
					"t_uint256": {
						"encoding": "inplace",
						"label": "uint256",
						"numberOfBytes": "32"
					}
				}
			},
			"userdoc": {
				"kind": "user",
				"methods": {
					"tokenURI(uint256)": {
						"notice": "实现IERC721Metadata的tokenURI函数，查询metadata。"
					}
				},
				"version": 1
			}
		}
	}
}