{
	"contracts/PaymentSplit.sol": {
		"PaymentSolit": {
			"abi": [
				{
					"inputs": [
						{
							"internalType": "address[]",
							"name": "_payees",
							"type": "address[]"
						},
						{
							"internalType": "uint256[]",
							"name": "_shares",
							"type": "uint256[]"
						}
					],
					"stateMutability": "payable",
					"type": "constructor"
				},
				{
					"anonymous": false,
					"inputs": [
						{
							"indexed": false,
							"internalType": "address",
							"name": "account",
							"type": "address"
						},
						{
							"indexed": false,
							"internalType": "uint256",
							"name": "shares",
							"type": "uint256"
						}
					],
					"name": "PayeeAdded",
					"type": "event"
				},
				{
					"anonymous": false,
					"inputs": [
						{
							"indexed": false,
							"internalType": "address",
							"name": "from",
							"type": "address"
						},
						{
							"indexed": false,
							"internalType": "uint256",
							"name": "amount",
							"type": "uint256"
						}
					],
					"name": "PaymentReceived",
					"type": "event"
				},
				{
					"anonymous": false,
					"inputs": [
						{
							"indexed": false,
							"internalType": "address",
							"name": "to",
							"type": "address"
						},
						{
							"indexed": false,
							"internalType": "uint256",
							"name": "amount",
							"type": "uint256"
						}
					],
					"name": "PaymentReleased",
					"type": "event"
				},
				{
					"stateMutability": "payable",
					"type": "fallback"
				},
				{
					"inputs": [
						{
							"internalType": "uint256",
							"name": "",
							"type": "uint256"
						}
					],
					"name": "payees",
					"outputs": [
						{
							"internalType": "address",
							"name": "",
							"type": "address"
						}
					],
					"stateMutability": "view",
					"type": "function"
				},
				{
					"inputs": [
						{
							"internalType": "address",
							"name": "account",
							"type": "address"
						}
					],
					"name": "releasable",
					"outputs": [
						{
							"internalType": "uint256",
							"name": "",
							"type": "uint256"
						}
					],
					"stateMutability": "view",
					"type": "function"
				},
				{
					"inputs": [
						{
							"internalType": "address payable",
							"name": "account",
							"type": "address"
						}
					],
					"name": "release",
					"outputs": [],
					"stateMutability": "nonpayable",
					"type": "function"
				},
				{
					"inputs": [
						{
							"internalType": "address",
							"name": "",
							"type": "address"
						}
					],
					"name": "released",
					"outputs": [
						{
							"internalType": "uint256",
							"name": "",
							"type": "uint256"
						}
					],
					"stateMutability": "view",
					"type": "function"
				},
				{
					"inputs": [
						{
							"internalType": "address",
							"name": "",
							"type": "address"
						}
					],
					"name": "shares",
					"outputs": [
						{
							"internalType": "uint256",
							"name": "",
							"type": "uint256"
						}
					],
					"stateMutability": "view",
					"type": "function"
				},
				{
					"inputs": [],
					"name": "totalReleased",
					"outputs": [
						{
							"internalType": "uint256",
							"name": "",
							"type": "uint256"
						}
					],
					"stateMutability": "view",
					"type": "function"
				},
				{
					"inputs": [],
					"name": "totalShares",
					"outputs": [
						{
							"internalType": "uint256",
							"name": "",
							"type": "uint256"
						}
					],
					"stateMutability": "view",
					"type": "function"
				},
				{
					"stateMutability": "payable",
					"type": "receive"
				}
			],
			"devdoc": {
				"kind": "dev",
				"methods": {},
				"version": 1
			},
			"evm": {
				"assembly": "    /* \"contracts/PaymentSplit.sol\":525:3775  contract PaymentSolit {... */\n  mstore(0x40, 0x80)\n    /* \"contracts/PaymentSplit.sol\":1246:1774  constructor(address[] memory _payees, uint256[] memory _shares) payable {... */\n  mload(0x40)\n  sub(codesize, bytecodeSize)\n  dup1\n  bytecodeSize\n  dup4\n  codecopy\n  dup2\n  dup2\n  add\n  0x40\n  mstore\n  dup2\n  add\n  swap1\n  tag_1\n  swap2\n  swap1\n  tag_2\n  jump\t// in\ntag_1:\n    /* \"contracts/PaymentSplit.sol\":1470:1477  _shares */\n  dup1\n    /* \"contracts/PaymentSplit.sol\":1470:1484  _shares.length */\n  mload\n    /* \"contracts/PaymentSplit.sol\":1452:1459  _payees */\n  dup3\n    /* \"contracts/PaymentSplit.sol\":1452:1466  _payees.length */\n  mload\n    /* \"contracts/PaymentSplit.sol\":1452:1484  _payees.length == _shares.length */\n  eq\n    /* \"contracts/PaymentSplit.sol\":1444:1536  require(_payees.length == _shares.length, \"The length of payees_ and shares_ is not equal.\") */\n  tag_5\n  jumpi\n  mload(0x40)\n  0x08c379a000000000000000000000000000000000000000000000000000000000\n  dup2\n  mstore\n  0x04\n  add\n  tag_6\n  swap1\n  tag_7\n  jump\t// in\ntag_6:\n  mload(0x40)\n  dup1\n  swap2\n  sub\n  swap1\n  revert\ntag_5:\n    /* \"contracts/PaymentSplit.sol\":1606:1607  0 */\n  0x00\n    /* \"contracts/PaymentSplit.sol\":1589:1596  _payees */\n  dup3\n    /* \"contracts/PaymentSplit.sol\":1589:1603  _payees.length */\n  mload\n    /* \"contracts/PaymentSplit.sol\":1589:1607  _payees.length > 0 */\n  gt\n    /* \"contracts/PaymentSplit.sol\":1581:1621  require(_payees.length > 0, \"no payees\") */\n  tag_8\n  jumpi\n  mload(0x40)\n  0x08c379a000000000000000000000000000000000000000000000000000000000\n  dup2\n  mstore\n  0x04\n  add\n  tag_9\n  swap1\n  tag_10\n  jump\t// in\ntag_9:\n  mload(0x40)\n  dup1\n  swap2\n  sub\n  swap1\n  revert\ntag_8:\n    /* \"contracts/PaymentSplit.sol\":1667:1676  uint256 i */\n  0x00\n    /* \"contracts/PaymentSplit.sol\":1662:1767  for (uint256 i = 0; i < _payees.length; i++) {... */\ntag_11:\n    /* \"contracts/PaymentSplit.sol\":1686:1693  _payees */\n  dup3\n    /* \"contracts/PaymentSplit.sol\":1686:1700  _payees.length */\n  mload\n    /* \"contracts/PaymentSplit.sol\":1682:1683  i */\n  dup2\n    /* \"contracts/PaymentSplit.sol\":1682:1700  i < _payees.length */\n  lt\n    /* \"contracts/PaymentSplit.sol\":1662:1767  for (uint256 i = 0; i < _payees.length; i++) {... */\n  iszero\n  tag_12\n  jumpi\n    /* \"contracts/PaymentSplit.sol\":1722:1755  _addPayee(_payees[i], _shares[i]) */\n  tag_14\n    /* \"contracts/PaymentSplit.sol\":1732:1739  _payees */\n  dup4\n    /* \"contracts/PaymentSplit.sol\":1740:1741  i */\n  dup3\n    /* \"contracts/PaymentSplit.sol\":1732:1742  _payees[i] */\n  dup2\n  mload\n  dup2\n  lt\n  tag_15\n  jumpi\n  tag_16\n  tag_17\n  jump\t// in\ntag_16:\ntag_15:\n  0x20\n  mul\n  0x20\n  add\n  add\n  mload\n    /* \"contracts/PaymentSplit.sol\":1744:1751  _shares */\n  dup4\n    /* \"contracts/PaymentSplit.sol\":1752:1753  i */\n  dup4\n    /* \"contracts/PaymentSplit.sol\":1744:1754  _shares[i] */\n  dup2\n  mload\n  dup2\n  lt\n  tag_18\n  jumpi\n  tag_19\n  tag_17\n  jump\t// in\ntag_19:\ntag_18:\n  0x20\n  mul\n  0x20\n  add\n  add\n  mload\n    /* \"contracts/PaymentSplit.sol\":1722:1731  _addPayee */\n  shl(0x20, tag_20)\n    /* \"contracts/PaymentSplit.sol\":1722:1755  _addPayee(_payees[i], _shares[i]) */\n  0x20\n  shr\n  jump\t// in\ntag_14:\n    /* \"contracts/PaymentSplit.sol\":1702:1705  i++ */\n  dup1\n  dup1\n  0x01\n  add\n  swap2\n  pop\n  pop\n    /* \"contracts/PaymentSplit.sol\":1662:1767  for (uint256 i = 0; i < _payees.length; i++) {... */\n  jump(tag_11)\ntag_12:\n  pop\n    /* \"contracts/PaymentSplit.sol\":1246:1774  constructor(address[] memory _payees, uint256[] memory _shares) payable {... */\n  pop\n  pop\n    /* \"contracts/PaymentSplit.sol\":525:3775  contract PaymentSolit {... */\n  jump(tag_21)\n    /* \"contracts/PaymentSplit.sol\":3137:3772  function _addPayee(address account, uint256 accountShare) private {... */\ntag_20:\n    /* \"contracts/PaymentSplit.sol\":3308:3309  0 */\n  0x00\n    /* \"contracts/PaymentSplit.sol\":3289:3310  account != address(0) */\n  0xffffffffffffffffffffffffffffffffffffffff\n  and\n    /* \"contracts/PaymentSplit.sol\":3289:3296  account */\n  dup3\n    /* \"contracts/PaymentSplit.sol\":3289:3310  account != address(0) */\n  0xffffffffffffffffffffffffffffffffffffffff\n  and\n  sub\n    /* \"contracts/PaymentSplit.sol\":3281:3349  require(account != address(0), \"The account can't be zero address.\") */\n  tag_23\n  jumpi\n  mload(0x40)\n  0x08c379a000000000000000000000000000000000000000000000000000000000\n  dup2\n  mstore\n  0x04\n  add\n  tag_24\n  swap1\n  tag_25\n  jump\t// in\ntag_24:\n  mload(0x40)\n  dup1\n  swap2\n  sub\n  swap1\n  revert\ntag_23:\n    /* \"contracts/PaymentSplit.sol\":3383:3384  0 */\n  0x00\n    /* \"contracts/PaymentSplit.sol\":3368:3380  accountShare */\n  dup2\n    /* \"contracts/PaymentSplit.sol\":3368:3384  accountShare > 0 */\n  gt\n    /* \"contracts/PaymentSplit.sol\":3360:3431  require(accountShare > 0, \"The accountShare must be greater than zero\") */\n  tag_26\n  jumpi\n  mload(0x40)\n  0x08c379a000000000000000000000000000000000000000000000000000000000\n  dup2\n  mstore\n  0x04\n  add\n  tag_27\n  swap1\n  tag_28\n  jump\t// in\ntag_27:\n  mload(0x40)\n  dup1\n  swap2\n  sub\n  swap1\n  revert\ntag_26:\n    /* \"contracts/PaymentSplit.sol\":3469:3470  0 */\n  0x00\n    /* \"contracts/PaymentSplit.sol\":3450:3456  shares */\n  0x02\n    /* \"contracts/PaymentSplit.sol\":3450:3465  shares[account] */\n  0x00\n    /* \"contracts/PaymentSplit.sol\":3457:3464  account */\n  dup5\n    /* \"contracts/PaymentSplit.sol\":3450:3465  shares[account] */\n  0xffffffffffffffffffffffffffffffffffffffff\n  and\n  0xffffffffffffffffffffffffffffffffffffffff\n  and\n  dup2\n  mstore\n  0x20\n  add\n  swap1\n  dup2\n  mstore\n  0x20\n  add\n  0x00\n  keccak256\n  sload\n    /* \"contracts/PaymentSplit.sol\":3450:3470  shares[account] == 0 */\n  eq\n    /* \"contracts/PaymentSplit.sol\":3442:3505  require(shares[account] == 0, \"The account can't be duplicate\") */\n  tag_29\n  jumpi\n  mload(0x40)\n  0x08c379a000000000000000000000000000000000000000000000000000000000\n  dup2\n  mstore\n  0x04\n  add\n  tag_30\n  swap1\n  tag_31\n  jump\t// in\ntag_30:\n  mload(0x40)\n  dup1\n  swap2\n  sub\n  swap1\n  revert\ntag_29:\n    /* \"contracts/PaymentSplit.sol\":3549:3555  payees */\n  0x04\n    /* \"contracts/PaymentSplit.sol\":3561:3568  account */\n  dup3\n    /* \"contracts/PaymentSplit.sol\":3549:3569  payees.push(account) */\n  swap1\n  dup1\n  0x01\n  dup2\n  sload\n  add\n  dup1\n  dup3\n  sstore\n  dup1\n  swap2\n  pop\n  pop\n  0x01\n  swap1\n  sub\n  swap1\n  0x00\n  mstore\n  keccak256(0x00, 0x20)\n  add\n  0x00\n  swap1\n  swap2\n  swap1\n  swap2\n  swap1\n  swap2\n  0x0100\n  exp\n  dup2\n  sload\n  dup2\n  0xffffffffffffffffffffffffffffffffffffffff\n  mul\n  not\n  and\n  swap1\n  dup4\n  0xffffffffffffffffffffffffffffffffffffffff\n  and\n  mul\n  or\n  swap1\n  sstore\n  pop\n    /* \"contracts/PaymentSplit.sol\":3641:3653  accountShare */\n  dup1\n    /* \"contracts/PaymentSplit.sol\":3623:3629  shares */\n  0x02\n    /* \"contracts/PaymentSplit.sol\":3623:3638  shares[account] */\n  0x00\n    /* \"contracts/PaymentSplit.sol\":3630:3637  account */\n  dup5\n    /* \"contracts/PaymentSplit.sol\":3623:3638  shares[account] */\n  0xffffffffffffffffffffffffffffffffffffffff\n  and\n  0xffffffffffffffffffffffffffffffffffffffff\n  and\n  dup2\n  mstore\n  0x20\n  add\n  swap1\n  dup2\n  mstore\n  0x20\n  add\n  0x00\n  keccak256\n    /* \"contracts/PaymentSplit.sol\":3623:3653  shares[account] = accountShare */\n  dup2\n  swap1\n  sstore\n  pop\n    /* \"contracts/PaymentSplit.sol\":3701:3713  accountShare */\n  dup1\n    /* \"contracts/PaymentSplit.sol\":3686:3697  totalShares */\n  0x00\n  dup1\n    /* \"contracts/PaymentSplit.sol\":3686:3713  totalShares += accountShare */\n  dup3\n  dup3\n  sload\n  tag_33\n  swap2\n  swap1\n  tag_34\n  jump\t// in\ntag_33:\n  swap3\n  pop\n  pop\n  dup2\n  swap1\n  sstore\n  pop\n    /* \"contracts/PaymentSplit.sol\":3731:3764  PayeeAdded(account, accountShare) */\n  0x40c340f65e17194d14ddddb073d3c9f888e3cb52b5aae0c6c7706b4fbc905fac\n    /* \"contracts/PaymentSplit.sol\":3742:3749  account */\n  dup3\n    /* \"contracts/PaymentSplit.sol\":3751:3763  accountShare */\n  dup3\n    /* \"contracts/PaymentSplit.sol\":3731:3764  PayeeAdded(account, accountShare) */\n  mload(0x40)\n  tag_35\n  swap3\n  swap2\n  swap1\n  tag_36\n  jump\t// in\ntag_35:\n  mload(0x40)\n  dup1\n  swap2\n  sub\n  swap1\n  log1\n    /* \"contracts/PaymentSplit.sol\":3137:3772  function _addPayee(address account, uint256 accountShare) private {... */\n  pop\n  pop\n  jump\t// out\n    /* \"#utility.yul\":7:82   */\ntag_37:\n    /* \"#utility.yul\":40:46   */\n  0x00\n    /* \"#utility.yul\":73:75   */\n  0x40\n    /* \"#utility.yul\":67:76   */\n  mload\n    /* \"#utility.yul\":57:76   */\n  swap1\n  pop\n    /* \"#utility.yul\":7:82   */\n  swap1\n  jump\t// out\n    /* \"#utility.yul\":88:205   */\ntag_38:\n    /* \"#utility.yul\":197:198   */\n  0x00\n    /* \"#utility.yul\":194:195   */\n  dup1\n    /* \"#utility.yul\":187:199   */\n  revert\n    /* \"#utility.yul\":211:328   */\ntag_39:\n    /* \"#utility.yul\":320:321   */\n  0x00\n    /* \"#utility.yul\":317:318   */\n  dup1\n    /* \"#utility.yul\":310:322   */\n  revert\n    /* \"#utility.yul\":334:451   */\ntag_40:\n    /* \"#utility.yul\":443:444   */\n  0x00\n    /* \"#utility.yul\":440:441   */\n  dup1\n    /* \"#utility.yul\":433:445   */\n  revert\n    /* \"#utility.yul\":457:559   */\ntag_41:\n    /* \"#utility.yul\":498:504   */\n  0x00\n    /* \"#utility.yul\":549:551   */\n  0x1f\n    /* \"#utility.yul\":545:552   */\n  not\n    /* \"#utility.yul\":540:542   */\n  0x1f\n    /* \"#utility.yul\":533:538   */\n  dup4\n    /* \"#utility.yul\":529:543   */\n  add\n    /* \"#utility.yul\":525:553   */\n  and\n    /* \"#utility.yul\":515:553   */\n  swap1\n  pop\n    /* \"#utility.yul\":457:559   */\n  swap2\n  swap1\n  pop\n  jump\t// out\n    /* \"#utility.yul\":565:745   */\ntag_42:\n    /* \"#utility.yul\":613:690   */\n  0x4e487b7100000000000000000000000000000000000000000000000000000000\n    /* \"#utility.yul\":610:611   */\n  0x00\n    /* \"#utility.yul\":603:691   */\n  mstore\n    /* \"#utility.yul\":710:714   */\n  0x41\n    /* \"#utility.yul\":707:708   */\n  0x04\n    /* \"#utility.yul\":700:715   */\n  mstore\n    /* \"#utility.yul\":734:738   */\n  0x24\n    /* \"#utility.yul\":731:732   */\n  0x00\n    /* \"#utility.yul\":724:739   */\n  revert\n    /* \"#utility.yul\":751:1032   */\ntag_43:\n    /* \"#utility.yul\":834:861   */\n  tag_81\n    /* \"#utility.yul\":856:860   */\n  dup3\n    /* \"#utility.yul\":834:861   */\n  tag_41\n  jump\t// in\ntag_81:\n    /* \"#utility.yul\":826:832   */\n  dup2\n    /* \"#utility.yul\":822:862   */\n  add\n    /* \"#utility.yul\":964:970   */\n  dup2\n    /* \"#utility.yul\":952:962   */\n  dup2\n    /* \"#utility.yul\":949:971   */\n  lt\n    /* \"#utility.yul\":928:946   */\n  0xffffffffffffffff\n    /* \"#utility.yul\":916:926   */\n  dup3\n    /* \"#utility.yul\":913:947   */\n  gt\n    /* \"#utility.yul\":910:972   */\n  or\n    /* \"#utility.yul\":907:995   */\n  iszero\n  tag_82\n  jumpi\n    /* \"#utility.yul\":975:993   */\n  tag_83\n  tag_42\n  jump\t// in\ntag_83:\n    /* \"#utility.yul\":907:995   */\ntag_82:\n    /* \"#utility.yul\":1015:1025   */\n  dup1\n    /* \"#utility.yul\":1011:1013   */\n  0x40\n    /* \"#utility.yul\":1004:1026   */\n  mstore\n    /* \"#utility.yul\":794:1032   */\n  pop\n    /* \"#utility.yul\":751:1032   */\n  pop\n  pop\n  jump\t// out\n    /* \"#utility.yul\":1038:1167   */\ntag_44:\n    /* \"#utility.yul\":1072:1078   */\n  0x00\n    /* \"#utility.yul\":1099:1119   */\n  tag_85\n  tag_37\n  jump\t// in\ntag_85:\n    /* \"#utility.yul\":1089:1119   */\n  swap1\n  pop\n    /* \"#utility.yul\":1128:1161   */\n  tag_86\n    /* \"#utility.yul\":1156:1160   */\n  dup3\n    /* \"#utility.yul\":1148:1154   */\n  dup3\n    /* \"#utility.yul\":1128:1161   */\n  tag_43\n  jump\t// in\ntag_86:\n    /* \"#utility.yul\":1038:1167   */\n  swap2\n  swap1\n  pop\n  jump\t// out\n    /* \"#utility.yul\":1173:1484   */\ntag_45:\n    /* \"#utility.yul\":1250:1254   */\n  0x00\n    /* \"#utility.yul\":1340:1358   */\n  0xffffffffffffffff\n    /* \"#utility.yul\":1332:1338   */\n  dup3\n    /* \"#utility.yul\":1329:1359   */\n  gt\n    /* \"#utility.yul\":1326:1382   */\n  iszero\n  tag_88\n  jumpi\n    /* \"#utility.yul\":1362:1380   */\n  tag_89\n  tag_42\n  jump\t// in\ntag_89:\n    /* \"#utility.yul\":1326:1382   */\ntag_88:\n    /* \"#utility.yul\":1412:1416   */\n  0x20\n    /* \"#utility.yul\":1404:1410   */\n  dup3\n    /* \"#utility.yul\":1400:1417   */\n  mul\n    /* \"#utility.yul\":1392:1417   */\n  swap1\n  pop\n    /* \"#utility.yul\":1472:1476   */\n  0x20\n    /* \"#utility.yul\":1466:1470   */\n  dup2\n    /* \"#utility.yul\":1462:1477   */\n  add\n    /* \"#utility.yul\":1454:1477   */\n  swap1\n  pop\n    /* \"#utility.yul\":1173:1484   */\n  swap2\n  swap1\n  pop\n  jump\t// out\n    /* \"#utility.yul\":1490:1607   */\ntag_46:\n    /* \"#utility.yul\":1599:1600   */\n  0x00\n    /* \"#utility.yul\":1596:1597   */\n  dup1\n    /* \"#utility.yul\":1589:1601   */\n  revert\n    /* \"#utility.yul\":1613:1739   */\ntag_47:\n    /* \"#utility.yul\":1650:1657   */\n  0x00\n    /* \"#utility.yul\":1690:1732   */\n  0xffffffffffffffffffffffffffffffffffffffff\n    /* \"#utility.yul\":1683:1688   */\n  dup3\n    /* \"#utility.yul\":1679:1733   */\n  and\n    /* \"#utility.yul\":1668:1733   */\n  swap1\n  pop\n    /* \"#utility.yul\":1613:1739   */\n  swap2\n  swap1\n  pop\n  jump\t// out\n    /* \"#utility.yul\":1745:1841   */\ntag_48:\n    /* \"#utility.yul\":1782:1789   */\n  0x00\n    /* \"#utility.yul\":1811:1835   */\n  tag_93\n    /* \"#utility.yul\":1829:1834   */\n  dup3\n    /* \"#utility.yul\":1811:1835   */\n  tag_47\n  jump\t// in\ntag_93:\n    /* \"#utility.yul\":1800:1835   */\n  swap1\n  pop\n    /* \"#utility.yul\":1745:1841   */\n  swap2\n  swap1\n  pop\n  jump\t// out\n    /* \"#utility.yul\":1847:1969   */\ntag_49:\n    /* \"#utility.yul\":1920:1944   */\n  tag_95\n    /* \"#utility.yul\":1938:1943   */\n  dup2\n    /* \"#utility.yul\":1920:1944   */\n  tag_48\n  jump\t// in\ntag_95:\n    /* \"#utility.yul\":1913:1918   */\n  dup2\n    /* \"#utility.yul\":1910:1945   */\n  eq\n    /* \"#utility.yul\":1900:1963   */\n  tag_96\n  jumpi\n    /* \"#utility.yul\":1959:1960   */\n  0x00\n    /* \"#utility.yul\":1956:1957   */\n  dup1\n    /* \"#utility.yul\":1949:1961   */\n  revert\n    /* \"#utility.yul\":1900:1963   */\ntag_96:\n    /* \"#utility.yul\":1847:1969   */\n  pop\n  jump\t// out\n    /* \"#utility.yul\":1975:2118   */\ntag_50:\n    /* \"#utility.yul\":2032:2037   */\n  0x00\n    /* \"#utility.yul\":2063:2069   */\n  dup2\n    /* \"#utility.yul\":2057:2070   */\n  mload\n    /* \"#utility.yul\":2048:2070   */\n  swap1\n  pop\n    /* \"#utility.yul\":2079:2112   */\n  tag_98\n    /* \"#utility.yul\":2106:2111   */\n  dup2\n    /* \"#utility.yul\":2079:2112   */\n  tag_49\n  jump\t// in\ntag_98:\n    /* \"#utility.yul\":1975:2118   */\n  swap3\n  swap2\n  pop\n  pop\n  jump\t// out\n    /* \"#utility.yul\":2141:2873   */\ntag_51:\n    /* \"#utility.yul\":2248:2253   */\n  0x00\n    /* \"#utility.yul\":2273:2354   */\n  tag_100\n    /* \"#utility.yul\":2289:2353   */\n  tag_101\n    /* \"#utility.yul\":2346:2352   */\n  dup5\n    /* \"#utility.yul\":2289:2353   */\n  tag_45\n  jump\t// in\ntag_101:\n    /* \"#utility.yul\":2273:2354   */\n  tag_44\n  jump\t// in\ntag_100:\n    /* \"#utility.yul\":2264:2354   */\n  swap1\n  pop\n    /* \"#utility.yul\":2374:2379   */\n  dup1\n    /* \"#utility.yul\":2403:2409   */\n  dup4\n    /* \"#utility.yul\":2396:2401   */\n  dup3\n    /* \"#utility.yul\":2389:2410   */\n  mstore\n    /* \"#utility.yul\":2437:2441   */\n  0x20\n    /* \"#utility.yul\":2430:2435   */\n  dup3\n    /* \"#utility.yul\":2426:2442   */\n  add\n    /* \"#utility.yul\":2419:2442   */\n  swap1\n  pop\n    /* \"#utility.yul\":2490:2494   */\n  0x20\n    /* \"#utility.yul\":2482:2488   */\n  dup5\n    /* \"#utility.yul\":2478:2495   */\n  mul\n    /* \"#utility.yul\":2470:2476   */\n  dup4\n    /* \"#utility.yul\":2466:2496   */\n  add\n    /* \"#utility.yul\":2519:2522   */\n  dup6\n    /* \"#utility.yul\":2511:2517   */\n  dup2\n    /* \"#utility.yul\":2508:2523   */\n  gt\n    /* \"#utility.yul\":2505:2627   */\n  iszero\n  tag_102\n  jumpi\n    /* \"#utility.yul\":2538:2617   */\n  tag_103\n  tag_46\n  jump\t// in\ntag_103:\n    /* \"#utility.yul\":2505:2627   */\ntag_102:\n    /* \"#utility.yul\":2653:2659   */\n  dup4\n    /* \"#utility.yul\":2636:2867   */\ntag_104:\n    /* \"#utility.yul\":2670:2676   */\n  dup2\n    /* \"#utility.yul\":2665:2668   */\n  dup2\n    /* \"#utility.yul\":2662:2677   */\n  lt\n    /* \"#utility.yul\":2636:2867   */\n  iszero\n  tag_106\n  jumpi\n    /* \"#utility.yul\":2745:2748   */\n  dup1\n    /* \"#utility.yul\":2774:2822   */\n  tag_107\n    /* \"#utility.yul\":2818:2821   */\n  dup9\n    /* \"#utility.yul\":2806:2816   */\n  dup3\n    /* \"#utility.yul\":2774:2822   */\n  tag_50\n  jump\t// in\ntag_107:\n    /* \"#utility.yul\":2769:2772   */\n  dup5\n    /* \"#utility.yul\":2762:2823   */\n  mstore\n    /* \"#utility.yul\":2852:2856   */\n  0x20\n    /* \"#utility.yul\":2847:2850   */\n  dup5\n    /* \"#utility.yul\":2843:2857   */\n  add\n    /* \"#utility.yul\":2836:2857   */\n  swap4\n  pop\n    /* \"#utility.yul\":2712:2867   */\n  pop\n    /* \"#utility.yul\":2696:2700   */\n  0x20\n    /* \"#utility.yul\":2691:2694   */\n  dup2\n    /* \"#utility.yul\":2687:2701   */\n  add\n    /* \"#utility.yul\":2680:2701   */\n  swap1\n  pop\n    /* \"#utility.yul\":2636:2867   */\n  jump(tag_104)\ntag_106:\n    /* \"#utility.yul\":2640:2661   */\n  pop\n    /* \"#utility.yul\":2254:2873   */\n  pop\n  pop\n    /* \"#utility.yul\":2141:2873   */\n  swap4\n  swap3\n  pop\n  pop\n  pop\n  jump\t// out\n    /* \"#utility.yul\":2896:3281   */\ntag_52:\n    /* \"#utility.yul\":2978:2983   */\n  0x00\n    /* \"#utility.yul\":3027:3030   */\n  dup3\n    /* \"#utility.yul\":3020:3024   */\n  0x1f\n    /* \"#utility.yul\":3012:3018   */\n  dup4\n    /* \"#utility.yul\":3008:3025   */\n  add\n    /* \"#utility.yul\":3004:3031   */\n  slt\n    /* \"#utility.yul\":2994:3116   */\n  tag_109\n  jumpi\n    /* \"#utility.yul\":3035:3114   */\n  tag_110\n  tag_40\n  jump\t// in\ntag_110:\n    /* \"#utility.yul\":2994:3116   */\ntag_109:\n    /* \"#utility.yul\":3145:3151   */\n  dup2\n    /* \"#utility.yul\":3139:3152   */\n  mload\n    /* \"#utility.yul\":3170:3275   */\n  tag_111\n    /* \"#utility.yul\":3271:3274   */\n  dup5\n    /* \"#utility.yul\":3263:3269   */\n  dup3\n    /* \"#utility.yul\":3256:3260   */\n  0x20\n    /* \"#utility.yul\":3248:3254   */\n  dup7\n    /* \"#utility.yul\":3244:3261   */\n  add\n    /* \"#utility.yul\":3170:3275   */\n  tag_51\n  jump\t// in\ntag_111:\n    /* \"#utility.yul\":3161:3275   */\n  swap2\n  pop\n    /* \"#utility.yul\":2984:3281   */\n  pop\n    /* \"#utility.yul\":2896:3281   */\n  swap3\n  swap2\n  pop\n  pop\n  jump\t// out\n    /* \"#utility.yul\":3287:3598   */\ntag_53:\n    /* \"#utility.yul\":3364:3368   */\n  0x00\n    /* \"#utility.yul\":3454:3472   */\n  0xffffffffffffffff\n    /* \"#utility.yul\":3446:3452   */\n  dup3\n    /* \"#utility.yul\":3443:3473   */\n  gt\n    /* \"#utility.yul\":3440:3496   */\n  iszero\n  tag_113\n  jumpi\n    /* \"#utility.yul\":3476:3494   */\n  tag_114\n  tag_42\n  jump\t// in\ntag_114:\n    /* \"#utility.yul\":3440:3496   */\ntag_113:\n    /* \"#utility.yul\":3526:3530   */\n  0x20\n    /* \"#utility.yul\":3518:3524   */\n  dup3\n    /* \"#utility.yul\":3514:3531   */\n  mul\n    /* \"#utility.yul\":3506:3531   */\n  swap1\n  pop\n    /* \"#utility.yul\":3586:3590   */\n  0x20\n    /* \"#utility.yul\":3580:3584   */\n  dup2\n    /* \"#utility.yul\":3576:3591   */\n  add\n    /* \"#utility.yul\":3568:3591   */\n  swap1\n  pop\n    /* \"#utility.yul\":3287:3598   */\n  swap2\n  swap1\n  pop\n  jump\t// out\n    /* \"#utility.yul\":3604:3681   */\ntag_54:\n    /* \"#utility.yul\":3641:3648   */\n  0x00\n    /* \"#utility.yul\":3670:3675   */\n  dup2\n    /* \"#utility.yul\":3659:3675   */\n  swap1\n  pop\n    /* \"#utility.yul\":3604:3681   */\n  swap2\n  swap1\n  pop\n  jump\t// out\n    /* \"#utility.yul\":3687:3809   */\ntag_55:\n    /* \"#utility.yul\":3760:3784   */\n  tag_117\n    /* \"#utility.yul\":3778:3783   */\n  dup2\n    /* \"#utility.yul\":3760:3784   */\n  tag_54\n  jump\t// in\ntag_117:\n    /* \"#utility.yul\":3753:3758   */\n  dup2\n    /* \"#utility.yul\":3750:3785   */\n  eq\n    /* \"#utility.yul\":3740:3803   */\n  tag_118\n  jumpi\n    /* \"#utility.yul\":3799:3800   */\n  0x00\n    /* \"#utility.yul\":3796:3797   */\n  dup1\n    /* \"#utility.yul\":3789:3801   */\n  revert\n    /* \"#utility.yul\":3740:3803   */\ntag_118:\n    /* \"#utility.yul\":3687:3809   */\n  pop\n  jump\t// out\n    /* \"#utility.yul\":3815:3958   */\ntag_56:\n    /* \"#utility.yul\":3872:3877   */\n  0x00\n    /* \"#utility.yul\":3903:3909   */\n  dup2\n    /* \"#utility.yul\":3897:3910   */\n  mload\n    /* \"#utility.yul\":3888:3910   */\n  swap1\n  pop\n    /* \"#utility.yul\":3919:3952   */\n  tag_120\n    /* \"#utility.yul\":3946:3951   */\n  dup2\n    /* \"#utility.yul\":3919:3952   */\n  tag_55\n  jump\t// in\ntag_120:\n    /* \"#utility.yul\":3815:3958   */\n  swap3\n  swap2\n  pop\n  pop\n  jump\t// out\n    /* \"#utility.yul\":3981:4713   */\ntag_57:\n    /* \"#utility.yul\":4088:4093   */\n  0x00\n    /* \"#utility.yul\":4113:4194   */\n  tag_122\n    /* \"#utility.yul\":4129:4193   */\n  tag_123\n    /* \"#utility.yul\":4186:4192   */\n  dup5\n    /* \"#utility.yul\":4129:4193   */\n  tag_53\n  jump\t// in\ntag_123:\n    /* \"#utility.yul\":4113:4194   */\n  tag_44\n  jump\t// in\ntag_122:\n    /* \"#utility.yul\":4104:4194   */\n  swap1\n  pop\n    /* \"#utility.yul\":4214:4219   */\n  dup1\n    /* \"#utility.yul\":4243:4249   */\n  dup4\n    /* \"#utility.yul\":4236:4241   */\n  dup3\n    /* \"#utility.yul\":4229:4250   */\n  mstore\n    /* \"#utility.yul\":4277:4281   */\n  0x20\n    /* \"#utility.yul\":4270:4275   */\n  dup3\n    /* \"#utility.yul\":4266:4282   */\n  add\n    /* \"#utility.yul\":4259:4282   */\n  swap1\n  pop\n    /* \"#utility.yul\":4330:4334   */\n  0x20\n    /* \"#utility.yul\":4322:4328   */\n  dup5\n    /* \"#utility.yul\":4318:4335   */\n  mul\n    /* \"#utility.yul\":4310:4316   */\n  dup4\n    /* \"#utility.yul\":4306:4336   */\n  add\n    /* \"#utility.yul\":4359:4362   */\n  dup6\n    /* \"#utility.yul\":4351:4357   */\n  dup2\n    /* \"#utility.yul\":4348:4363   */\n  gt\n    /* \"#utility.yul\":4345:4467   */\n  iszero\n  tag_124\n  jumpi\n    /* \"#utility.yul\":4378:4457   */\n  tag_125\n  tag_46\n  jump\t// in\ntag_125:\n    /* \"#utility.yul\":4345:4467   */\ntag_124:\n    /* \"#utility.yul\":4493:4499   */\n  dup4\n    /* \"#utility.yul\":4476:4707   */\ntag_126:\n    /* \"#utility.yul\":4510:4516   */\n  dup2\n    /* \"#utility.yul\":4505:4508   */\n  dup2\n    /* \"#utility.yul\":4502:4517   */\n  lt\n    /* \"#utility.yul\":4476:4707   */\n  iszero\n  tag_128\n  jumpi\n    /* \"#utility.yul\":4585:4588   */\n  dup1\n    /* \"#utility.yul\":4614:4662   */\n  tag_129\n    /* \"#utility.yul\":4658:4661   */\n  dup9\n    /* \"#utility.yul\":4646:4656   */\n  dup3\n    /* \"#utility.yul\":4614:4662   */\n  tag_56\n  jump\t// in\ntag_129:\n    /* \"#utility.yul\":4609:4612   */\n  dup5\n    /* \"#utility.yul\":4602:4663   */\n  mstore\n    /* \"#utility.yul\":4692:4696   */\n  0x20\n    /* \"#utility.yul\":4687:4690   */\n  dup5\n    /* \"#utility.yul\":4683:4697   */\n  add\n    /* \"#utility.yul\":4676:4697   */\n  swap4\n  pop\n    /* \"#utility.yul\":4552:4707   */\n  pop\n    /* \"#utility.yul\":4536:4540   */\n  0x20\n    /* \"#utility.yul\":4531:4534   */\n  dup2\n    /* \"#utility.yul\":4527:4541   */\n  add\n    /* \"#utility.yul\":4520:4541   */\n  swap1\n  pop\n    /* \"#utility.yul\":4476:4707   */\n  jump(tag_126)\ntag_128:\n    /* \"#utility.yul\":4480:4501   */\n  pop\n    /* \"#utility.yul\":4094:4713   */\n  pop\n  pop\n    /* \"#utility.yul\":3981:4713   */\n  swap4\n  swap3\n  pop\n  pop\n  pop\n  jump\t// out\n    /* \"#utility.yul\":4736:5121   */\ntag_58:\n    /* \"#utility.yul\":4818:4823   */\n  0x00\n    /* \"#utility.yul\":4867:4870   */\n  dup3\n    /* \"#utility.yul\":4860:4864   */\n  0x1f\n    /* \"#utility.yul\":4852:4858   */\n  dup4\n    /* \"#utility.yul\":4848:4865   */\n  add\n    /* \"#utility.yul\":4844:4871   */\n  slt\n    /* \"#utility.yul\":4834:4956   */\n  tag_131\n  jumpi\n    /* \"#utility.yul\":4875:4954   */\n  tag_132\n  tag_40\n  jump\t// in\ntag_132:\n    /* \"#utility.yul\":4834:4956   */\ntag_131:\n    /* \"#utility.yul\":4985:4991   */\n  dup2\n    /* \"#utility.yul\":4979:4992   */\n  mload\n    /* \"#utility.yul\":5010:5115   */\n  tag_133\n    /* \"#utility.yul\":5111:5114   */\n  dup5\n    /* \"#utility.yul\":5103:5109   */\n  dup3\n    /* \"#utility.yul\":5096:5100   */\n  0x20\n    /* \"#utility.yul\":5088:5094   */\n  dup7\n    /* \"#utility.yul\":5084:5101   */\n  add\n    /* \"#utility.yul\":5010:5115   */\n  tag_57\n  jump\t// in\ntag_133:\n    /* \"#utility.yul\":5001:5115   */\n  swap2\n  pop\n    /* \"#utility.yul\":4824:5121   */\n  pop\n    /* \"#utility.yul\":4736:5121   */\n  swap3\n  swap2\n  pop\n  pop\n  jump\t// out\n    /* \"#utility.yul\":5127:6040   */\ntag_2:\n    /* \"#utility.yul\":5256:5262   */\n  0x00\n    /* \"#utility.yul\":5264:5270   */\n  dup1\n    /* \"#utility.yul\":5313:5315   */\n  0x40\n    /* \"#utility.yul\":5301:5310   */\n  dup4\n    /* \"#utility.yul\":5292:5299   */\n  dup6\n    /* \"#utility.yul\":5288:5311   */\n  sub\n    /* \"#utility.yul\":5284:5316   */\n  slt\n    /* \"#utility.yul\":5281:5400   */\n  iszero\n  tag_135\n  jumpi\n    /* \"#utility.yul\":5319:5398   */\n  tag_136\n  tag_38\n  jump\t// in\ntag_136:\n    /* \"#utility.yul\":5281:5400   */\ntag_135:\n    /* \"#utility.yul\":5460:5461   */\n  0x00\n    /* \"#utility.yul\":5449:5458   */\n  dup4\n    /* \"#utility.yul\":5445:5462   */\n  add\n    /* \"#utility.yul\":5439:5463   */\n  mload\n    /* \"#utility.yul\":5490:5508   */\n  0xffffffffffffffff\n    /* \"#utility.yul\":5482:5488   */\n  dup2\n    /* \"#utility.yul\":5479:5509   */\n  gt\n    /* \"#utility.yul\":5476:5593   */\n  iszero\n  tag_137\n  jumpi\n    /* \"#utility.yul\":5512:5591   */\n  tag_138\n  tag_39\n  jump\t// in\ntag_138:\n    /* \"#utility.yul\":5476:5593   */\ntag_137:\n    /* \"#utility.yul\":5617:5706   */\n  tag_139\n    /* \"#utility.yul\":5698:5705   */\n  dup6\n    /* \"#utility.yul\":5689:5695   */\n  dup3\n    /* \"#utility.yul\":5678:5687   */\n  dup7\n    /* \"#utility.yul\":5674:5696   */\n  add\n    /* \"#utility.yul\":5617:5706   */\n  tag_52\n  jump\t// in\ntag_139:\n    /* \"#utility.yul\":5607:5706   */\n  swap3\n  pop\n    /* \"#utility.yul\":5410:5716   */\n  pop\n    /* \"#utility.yul\":5776:5778   */\n  0x20\n    /* \"#utility.yul\":5765:5774   */\n  dup4\n    /* \"#utility.yul\":5761:5779   */\n  add\n    /* \"#utility.yul\":5755:5780   */\n  mload\n    /* \"#utility.yul\":5807:5825   */\n  0xffffffffffffffff\n    /* \"#utility.yul\":5799:5805   */\n  dup2\n    /* \"#utility.yul\":5796:5826   */\n  gt\n    /* \"#utility.yul\":5793:5910   */\n  iszero\n  tag_140\n  jumpi\n    /* \"#utility.yul\":5829:5908   */\n  tag_141\n  tag_39\n  jump\t// in\ntag_141:\n    /* \"#utility.yul\":5793:5910   */\ntag_140:\n    /* \"#utility.yul\":5934:6023   */\n  tag_142\n    /* \"#utility.yul\":6015:6022   */\n  dup6\n    /* \"#utility.yul\":6006:6012   */\n  dup3\n    /* \"#utility.yul\":5995:6004   */\n  dup7\n    /* \"#utility.yul\":5991:6013   */\n  add\n    /* \"#utility.yul\":5934:6023   */\n  tag_58\n  jump\t// in\ntag_142:\n    /* \"#utility.yul\":5924:6023   */\n  swap2\n  pop\n    /* \"#utility.yul\":5726:6033   */\n  pop\n    /* \"#utility.yul\":5127:6040   */\n  swap3\n  pop\n  swap3\n  swap1\n  pop\n  jump\t// out\n    /* \"#utility.yul\":6046:6215   */\ntag_59:\n    /* \"#utility.yul\":6130:6141   */\n  0x00\n    /* \"#utility.yul\":6164:6170   */\n  dup3\n    /* \"#utility.yul\":6159:6162   */\n  dup3\n    /* \"#utility.yul\":6152:6171   */\n  mstore\n    /* \"#utility.yul\":6204:6208   */\n  0x20\n    /* \"#utility.yul\":6199:6202   */\n  dup3\n    /* \"#utility.yul\":6195:6209   */\n  add\n    /* \"#utility.yul\":6180:6209   */\n  swap1\n  pop\n    /* \"#utility.yul\":6046:6215   */\n  swap3\n  swap2\n  pop\n  pop\n  jump\t// out\n    /* \"#utility.yul\":6221:6455   */\ntag_60:\n    /* \"#utility.yul\":6361:6395   */\n  0x546865206c656e677468206f66207061796565735f20616e6420736861726573\n    /* \"#utility.yul\":6357:6358   */\n  0x00\n    /* \"#utility.yul\":6349:6355   */\n  dup3\n    /* \"#utility.yul\":6345:6359   */\n  add\n    /* \"#utility.yul\":6338:6396   */\n  mstore\n    /* \"#utility.yul\":6430:6447   */\n  0x5f206973206e6f7420657175616c2e0000000000000000000000000000000000\n    /* \"#utility.yul\":6425:6427   */\n  0x20\n    /* \"#utility.yul\":6417:6423   */\n  dup3\n    /* \"#utility.yul\":6413:6428   */\n  add\n    /* \"#utility.yul\":6406:6448   */\n  mstore\n    /* \"#utility.yul\":6221:6455   */\n  pop\n  jump\t// out\n    /* \"#utility.yul\":6461:6827   */\ntag_61:\n    /* \"#utility.yul\":6603:6606   */\n  0x00\n    /* \"#utility.yul\":6624:6691   */\n  tag_146\n    /* \"#utility.yul\":6688:6690   */\n  0x2f\n    /* \"#utility.yul\":6683:6686   */\n  dup4\n    /* \"#utility.yul\":6624:6691   */\n  tag_59\n  jump\t// in\ntag_146:\n    /* \"#utility.yul\":6617:6691   */\n  swap2\n  pop\n    /* \"#utility.yul\":6700:6793   */\n  tag_147\n    /* \"#utility.yul\":6789:6792   */\n  dup3\n    /* \"#utility.yul\":6700:6793   */\n  tag_60\n  jump\t// in\ntag_147:\n    /* \"#utility.yul\":6818:6820   */\n  0x40\n    /* \"#utility.yul\":6813:6816   */\n  dup3\n    /* \"#utility.yul\":6809:6821   */\n  add\n    /* \"#utility.yul\":6802:6821   */\n  swap1\n  pop\n    /* \"#utility.yul\":6461:6827   */\n  swap2\n  swap1\n  pop\n  jump\t// out\n    /* \"#utility.yul\":6833:7252   */\ntag_7:\n    /* \"#utility.yul\":6999:7003   */\n  0x00\n    /* \"#utility.yul\":7037:7039   */\n  0x20\n    /* \"#utility.yul\":7026:7035   */\n  dup3\n    /* \"#utility.yul\":7022:7040   */\n  add\n    /* \"#utility.yul\":7014:7040   */\n  swap1\n  pop\n    /* \"#utility.yul\":7086:7095   */\n  dup2\n    /* \"#utility.yul\":7080:7084   */\n  dup2\n    /* \"#utility.yul\":7076:7096   */\n  sub\n    /* \"#utility.yul\":7072:7073   */\n  0x00\n    /* \"#utility.yul\":7061:7070   */\n  dup4\n    /* \"#utility.yul\":7057:7074   */\n  add\n    /* \"#utility.yul\":7050:7097   */\n  mstore\n    /* \"#utility.yul\":7114:7245   */\n  tag_149\n    /* \"#utility.yul\":7240:7244   */\n  dup2\n    /* \"#utility.yul\":7114:7245   */\n  tag_61\n  jump\t// in\ntag_149:\n    /* \"#utility.yul\":7106:7245   */\n  swap1\n  pop\n    /* \"#utility.yul\":6833:7252   */\n  swap2\n  swap1\n  pop\n  jump\t// out\n    /* \"#utility.yul\":7258:7417   */\ntag_62:\n    /* \"#utility.yul\":7398:7409   */\n  0x6e6f207061796565730000000000000000000000000000000000000000000000\n    /* \"#utility.yul\":7394:7395   */\n  0x00\n    /* \"#utility.yul\":7386:7392   */\n  dup3\n    /* \"#utility.yul\":7382:7396   */\n  add\n    /* \"#utility.yul\":7375:7410   */\n  mstore\n    /* \"#utility.yul\":7258:7417   */\n  pop\n  jump\t// out\n    /* \"#utility.yul\":7423:7788   */\ntag_63:\n    /* \"#utility.yul\":7565:7568   */\n  0x00\n    /* \"#utility.yul\":7586:7652   */\n  tag_152\n    /* \"#utility.yul\":7650:7651   */\n  0x09\n    /* \"#utility.yul\":7645:7648   */\n  dup4\n    /* \"#utility.yul\":7586:7652   */\n  tag_59\n  jump\t// in\ntag_152:\n    /* \"#utility.yul\":7579:7652   */\n  swap2\n  pop\n    /* \"#utility.yul\":7661:7754   */\n  tag_153\n    /* \"#utility.yul\":7750:7753   */\n  dup3\n    /* \"#utility.yul\":7661:7754   */\n  tag_62\n  jump\t// in\ntag_153:\n    /* \"#utility.yul\":7779:7781   */\n  0x20\n    /* \"#utility.yul\":7774:7777   */\n  dup3\n    /* \"#utility.yul\":7770:7782   */\n  add\n    /* \"#utility.yul\":7763:7782   */\n  swap1\n  pop\n    /* \"#utility.yul\":7423:7788   */\n  swap2\n  swap1\n  pop\n  jump\t// out\n    /* \"#utility.yul\":7794:8213   */\ntag_10:\n    /* \"#utility.yul\":7960:7964   */\n  0x00\n    /* \"#utility.yul\":7998:8000   */\n  0x20\n    /* \"#utility.yul\":7987:7996   */\n  dup3\n    /* \"#utility.yul\":7983:8001   */\n  add\n    /* \"#utility.yul\":7975:8001   */\n  swap1\n  pop\n    /* \"#utility.yul\":8047:8056   */\n  dup2\n    /* \"#utility.yul\":8041:8045   */\n  dup2\n    /* \"#utility.yul\":8037:8057   */\n  sub\n    /* \"#utility.yul\":8033:8034   */\n  0x00\n    /* \"#utility.yul\":8022:8031   */\n  dup4\n    /* \"#utility.yul\":8018:8035   */\n  add\n    /* \"#utility.yul\":8011:8058   */\n  mstore\n    /* \"#utility.yul\":8075:8206   */\n  tag_155\n    /* \"#utility.yul\":8201:8205   */\n  dup2\n    /* \"#utility.yul\":8075:8206   */\n  tag_63\n  jump\t// in\ntag_155:\n    /* \"#utility.yul\":8067:8206   */\n  swap1\n  pop\n    /* \"#utility.yul\":7794:8213   */\n  swap2\n  swap1\n  pop\n  jump\t// out\n    /* \"#utility.yul\":8219:8399   */\ntag_17:\n    /* \"#utility.yul\":8267:8344   */\n  0x4e487b7100000000000000000000000000000000000000000000000000000000\n    /* \"#utility.yul\":8264:8265   */\n  0x00\n    /* \"#utility.yul\":8257:8345   */\n  mstore\n    /* \"#utility.yul\":8364:8368   */\n  0x32\n    /* \"#utility.yul\":8361:8362   */\n  0x04\n    /* \"#utility.yul\":8354:8369   */\n  mstore\n    /* \"#utility.yul\":8388:8392   */\n  0x24\n    /* \"#utility.yul\":8385:8386   */\n  0x00\n    /* \"#utility.yul\":8378:8393   */\n  revert\n    /* \"#utility.yul\":8405:8626   */\ntag_64:\n    /* \"#utility.yul\":8545:8579   */\n  0x546865206163636f756e742063616e2774206265207a65726f20616464726573\n    /* \"#utility.yul\":8541:8542   */\n  0x00\n    /* \"#utility.yul\":8533:8539   */\n  dup3\n    /* \"#utility.yul\":8529:8543   */\n  add\n    /* \"#utility.yul\":8522:8580   */\n  mstore\n    /* \"#utility.yul\":8614:8618   */\n  0x732e000000000000000000000000000000000000000000000000000000000000\n    /* \"#utility.yul\":8609:8611   */\n  0x20\n    /* \"#utility.yul\":8601:8607   */\n  dup3\n    /* \"#utility.yul\":8597:8612   */\n  add\n    /* \"#utility.yul\":8590:8619   */\n  mstore\n    /* \"#utility.yul\":8405:8626   */\n  pop\n  jump\t// out\n    /* \"#utility.yul\":8632:8998   */\ntag_65:\n    /* \"#utility.yul\":8774:8777   */\n  0x00\n    /* \"#utility.yul\":8795:8862   */\n  tag_159\n    /* \"#utility.yul\":8859:8861   */\n  0x22\n    /* \"#utility.yul\":8854:8857   */\n  dup4\n    /* \"#utility.yul\":8795:8862   */\n  tag_59\n  jump\t// in\ntag_159:\n    /* \"#utility.yul\":8788:8862   */\n  swap2\n  pop\n    /* \"#utility.yul\":8871:8964   */\n  tag_160\n    /* \"#utility.yul\":8960:8963   */\n  dup3\n    /* \"#utility.yul\":8871:8964   */\n  tag_64\n  jump\t// in\ntag_160:\n    /* \"#utility.yul\":8989:8991   */\n  0x40\n    /* \"#utility.yul\":8984:8987   */\n  dup3\n    /* \"#utility.yul\":8980:8992   */\n  add\n    /* \"#utility.yul\":8973:8992   */\n  swap1\n  pop\n    /* \"#utility.yul\":8632:8998   */\n  swap2\n  swap1\n  pop\n  jump\t// out\n    /* \"#utility.yul\":9004:9423   */\ntag_25:\n    /* \"#utility.yul\":9170:9174   */\n  0x00\n    /* \"#utility.yul\":9208:9210   */\n  0x20\n    /* \"#utility.yul\":9197:9206   */\n  dup3\n    /* \"#utility.yul\":9193:9211   */\n  add\n    /* \"#utility.yul\":9185:9211   */\n  swap1\n  pop\n    /* \"#utility.yul\":9257:9266   */\n  dup2\n    /* \"#utility.yul\":9251:9255   */\n  dup2\n    /* \"#utility.yul\":9247:9267   */\n  sub\n    /* \"#utility.yul\":9243:9244   */\n  0x00\n    /* \"#utility.yul\":9232:9241   */\n  dup4\n    /* \"#utility.yul\":9228:9245   */\n  add\n    /* \"#utility.yul\":9221:9268   */\n  mstore\n    /* \"#utility.yul\":9285:9416   */\n  tag_162\n    /* \"#utility.yul\":9411:9415   */\n  dup2\n    /* \"#utility.yul\":9285:9416   */\n  tag_65\n  jump\t// in\ntag_162:\n    /* \"#utility.yul\":9277:9416   */\n  swap1\n  pop\n    /* \"#utility.yul\":9004:9423   */\n  swap2\n  swap1\n  pop\n  jump\t// out\n    /* \"#utility.yul\":9429:9658   */\ntag_66:\n    /* \"#utility.yul\":9569:9603   */\n  0x546865206163636f756e745368617265206d7573742062652067726561746572\n    /* \"#utility.yul\":9565:9566   */\n  0x00\n    /* \"#utility.yul\":9557:9563   */\n  dup3\n    /* \"#utility.yul\":9553:9567   */\n  add\n    /* \"#utility.yul\":9546:9604   */\n  mstore\n    /* \"#utility.yul\":9638:9650   */\n  0x207468616e207a65726f00000000000000000000000000000000000000000000\n    /* \"#utility.yul\":9633:9635   */\n  0x20\n    /* \"#utility.yul\":9625:9631   */\n  dup3\n    /* \"#utility.yul\":9621:9636   */\n  add\n    /* \"#utility.yul\":9614:9651   */\n  mstore\n    /* \"#utility.yul\":9429:9658   */\n  pop\n  jump\t// out\n    /* \"#utility.yul\":9664:10030   */\ntag_67:\n    /* \"#utility.yul\":9806:9809   */\n  0x00\n    /* \"#utility.yul\":9827:9894   */\n  tag_165\n    /* \"#utility.yul\":9891:9893   */\n  0x2a\n    /* \"#utility.yul\":9886:9889   */\n  dup4\n    /* \"#utility.yul\":9827:9894   */\n  tag_59\n  jump\t// in\ntag_165:\n    /* \"#utility.yul\":9820:9894   */\n  swap2\n  pop\n    /* \"#utility.yul\":9903:9996   */\n  tag_166\n    /* \"#utility.yul\":9992:9995   */\n  dup3\n    /* \"#utility.yul\":9903:9996   */\n  tag_66\n  jump\t// in\ntag_166:\n    /* \"#utility.yul\":10021:10023   */\n  0x40\n    /* \"#utility.yul\":10016:10019   */\n  dup3\n    /* \"#utility.yul\":10012:10024   */\n  add\n    /* \"#utility.yul\":10005:10024   */\n  swap1\n  pop\n    /* \"#utility.yul\":9664:10030   */\n  swap2\n  swap1\n  pop\n  jump\t// out\n    /* \"#utility.yul\":10036:10455   */\ntag_28:\n    /* \"#utility.yul\":10202:10206   */\n  0x00\n    /* \"#utility.yul\":10240:10242   */\n  0x20\n    /* \"#utility.yul\":10229:10238   */\n  dup3\n    /* \"#utility.yul\":10225:10243   */\n  add\n    /* \"#utility.yul\":10217:10243   */\n  swap1\n  pop\n    /* \"#utility.yul\":10289:10298   */\n  dup2\n    /* \"#utility.yul\":10283:10287   */\n  dup2\n    /* \"#utility.yul\":10279:10299   */\n  sub\n    /* \"#utility.yul\":10275:10276   */\n  0x00\n    /* \"#utility.yul\":10264:10273   */\n  dup4\n    /* \"#utility.yul\":10260:10277   */\n  add\n    /* \"#utility.yul\":10253:10300   */\n  mstore\n    /* \"#utility.yul\":10317:10448   */\n  tag_168\n    /* \"#utility.yul\":10443:10447   */\n  dup2\n    /* \"#utility.yul\":10317:10448   */\n  tag_67\n  jump\t// in\ntag_168:\n    /* \"#utility.yul\":10309:10448   */\n  swap1\n  pop\n    /* \"#utility.yul\":10036:10455   */\n  swap2\n  swap1\n  pop\n  jump\t// out\n    /* \"#utility.yul\":10461:10641   */\ntag_68:\n    /* \"#utility.yul\":10601:10633   */\n  0x546865206163636f756e742063616e2774206265206475706c69636174650000\n    /* \"#utility.yul\":10597:10598   */\n  0x00\n    /* \"#utility.yul\":10589:10595   */\n  dup3\n    /* \"#utility.yul\":10585:10599   */\n  add\n    /* \"#utility.yul\":10578:10634   */\n  mstore\n    /* \"#utility.yul\":10461:10641   */\n  pop\n  jump\t// out\n    /* \"#utility.yul\":10647:11013   */\ntag_69:\n    /* \"#utility.yul\":10789:10792   */\n  0x00\n    /* \"#utility.yul\":10810:10877   */\n  tag_171\n    /* \"#utility.yul\":10874:10876   */\n  0x1e\n    /* \"#utility.yul\":10869:10872   */\n  dup4\n    /* \"#utility.yul\":10810:10877   */\n  tag_59\n  jump\t// in\ntag_171:\n    /* \"#utility.yul\":10803:10877   */\n  swap2\n  pop\n    /* \"#utility.yul\":10886:10979   */\n  tag_172\n    /* \"#utility.yul\":10975:10978   */\n  dup3\n    /* \"#utility.yul\":10886:10979   */\n  tag_68\n  jump\t// in\ntag_172:\n    /* \"#utility.yul\":11004:11006   */\n  0x20\n    /* \"#utility.yul\":10999:11002   */\n  dup3\n    /* \"#utility.yul\":10995:11007   */\n  add\n    /* \"#utility.yul\":10988:11007   */\n  swap1\n  pop\n    /* \"#utility.yul\":10647:11013   */\n  swap2\n  swap1\n  pop\n  jump\t// out\n    /* \"#utility.yul\":11019:11438   */\ntag_31:\n    /* \"#utility.yul\":11185:11189   */\n  0x00\n    /* \"#utility.yul\":11223:11225   */\n  0x20\n    /* \"#utility.yul\":11212:11221   */\n  dup3\n    /* \"#utility.yul\":11208:11226   */\n  add\n    /* \"#utility.yul\":11200:11226   */\n  swap1\n  pop\n    /* \"#utility.yul\":11272:11281   */\n  dup2\n    /* \"#utility.yul\":11266:11270   */\n  dup2\n    /* \"#utility.yul\":11262:11282   */\n  sub\n    /* \"#utility.yul\":11258:11259   */\n  0x00\n    /* \"#utility.yul\":11247:11256   */\n  dup4\n    /* \"#utility.yul\":11243:11260   */\n  add\n    /* \"#utility.yul\":11236:11283   */\n  mstore\n    /* \"#utility.yul\":11300:11431   */\n  tag_174\n    /* \"#utility.yul\":11426:11430   */\n  dup2\n    /* \"#utility.yul\":11300:11431   */\n  tag_69\n  jump\t// in\ntag_174:\n    /* \"#utility.yul\":11292:11431   */\n  swap1\n  pop\n    /* \"#utility.yul\":11019:11438   */\n  swap2\n  swap1\n  pop\n  jump\t// out\n    /* \"#utility.yul\":11444:11624   */\ntag_70:\n    /* \"#utility.yul\":11492:11569   */\n  0x4e487b7100000000000000000000000000000000000000000000000000000000\n    /* \"#utility.yul\":11489:11490   */\n  0x00\n    /* \"#utility.yul\":11482:11570   */\n  mstore\n    /* \"#utility.yul\":11589:11593   */\n  0x11\n    /* \"#utility.yul\":11586:11587   */\n  0x04\n    /* \"#utility.yul\":11579:11594   */\n  mstore\n    /* \"#utility.yul\":11613:11617   */\n  0x24\n    /* \"#utility.yul\":11610:11611   */\n  0x00\n    /* \"#utility.yul\":11603:11618   */\n  revert\n    /* \"#utility.yul\":11630:11821   */\ntag_34:\n    /* \"#utility.yul\":11670:11673   */\n  0x00\n    /* \"#utility.yul\":11689:11709   */\n  tag_177\n    /* \"#utility.yul\":11707:11708   */\n  dup3\n    /* \"#utility.yul\":11689:11709   */\n  tag_54\n  jump\t// in\ntag_177:\n    /* \"#utility.yul\":11684:11709   */\n  swap2\n  pop\n    /* \"#utility.yul\":11723:11743   */\n  tag_178\n    /* \"#utility.yul\":11741:11742   */\n  dup4\n    /* \"#utility.yul\":11723:11743   */\n  tag_54\n  jump\t// in\ntag_178:\n    /* \"#utility.yul\":11718:11743   */\n  swap3\n  pop\n    /* \"#utility.yul\":11766:11767   */\n  dup3\n    /* \"#utility.yul\":11763:11764   */\n  dup3\n    /* \"#utility.yul\":11759:11768   */\n  add\n    /* \"#utility.yul\":11752:11768   */\n  swap1\n  pop\n    /* \"#utility.yul\":11787:11790   */\n  dup1\n    /* \"#utility.yul\":11784:11785   */\n  dup3\n    /* \"#utility.yul\":11781:11791   */\n  gt\n    /* \"#utility.yul\":11778:11814   */\n  iszero\n  tag_179\n  jumpi\n    /* \"#utility.yul\":11794:11812   */\n  tag_180\n  tag_70\n  jump\t// in\ntag_180:\n    /* \"#utility.yul\":11778:11814   */\ntag_179:\n    /* \"#utility.yul\":11630:11821   */\n  swap3\n  swap2\n  pop\n  pop\n  jump\t// out\n    /* \"#utility.yul\":11827:11945   */\ntag_71:\n    /* \"#utility.yul\":11914:11938   */\n  tag_182\n    /* \"#utility.yul\":11932:11937   */\n  dup2\n    /* \"#utility.yul\":11914:11938   */\n  tag_48\n  jump\t// in\ntag_182:\n    /* \"#utility.yul\":11909:11912   */\n  dup3\n    /* \"#utility.yul\":11902:11939   */\n  mstore\n    /* \"#utility.yul\":11827:11945   */\n  pop\n  pop\n  jump\t// out\n    /* \"#utility.yul\":11951:12069   */\ntag_72:\n    /* \"#utility.yul\":12038:12062   */\n  tag_184\n    /* \"#utility.yul\":12056:12061   */\n  dup2\n    /* \"#utility.yul\":12038:12062   */\n  tag_54\n  jump\t// in\ntag_184:\n    /* \"#utility.yul\":12033:12036   */\n  dup3\n    /* \"#utility.yul\":12026:12063   */\n  mstore\n    /* \"#utility.yul\":11951:12069   */\n  pop\n  pop\n  jump\t// out\n    /* \"#utility.yul\":12075:12407   */\ntag_36:\n    /* \"#utility.yul\":12196:12200   */\n  0x00\n    /* \"#utility.yul\":12234:12236   */\n  0x40\n    /* \"#utility.yul\":12223:12232   */\n  dup3\n    /* \"#utility.yul\":12219:12237   */\n  add\n    /* \"#utility.yul\":12211:12237   */\n  swap1\n  pop\n    /* \"#utility.yul\":12247:12318   */\n  tag_186\n    /* \"#utility.yul\":12315:12316   */\n  0x00\n    /* \"#utility.yul\":12304:12313   */\n  dup4\n    /* \"#utility.yul\":12300:12317   */\n  add\n    /* \"#utility.yul\":12291:12297   */\n  dup6\n    /* \"#utility.yul\":12247:12318   */\n  tag_71\n  jump\t// in\ntag_186:\n    /* \"#utility.yul\":12328:12400   */\n  tag_187\n    /* \"#utility.yul\":12396:12398   */\n  0x20\n    /* \"#utility.yul\":12385:12394   */\n  dup4\n    /* \"#utility.yul\":12381:12399   */\n  add\n    /* \"#utility.yul\":12372:12378   */\n  dup5\n    /* \"#utility.yul\":12328:12400   */\n  tag_72\n  jump\t// in\ntag_187:\n    /* \"#utility.yul\":12075:12407   */\n  swap4\n  swap3\n  pop\n  pop\n  pop\n  jump\t// out\n    /* \"contracts/PaymentSplit.sol\":525:3775  contract PaymentSolit {... */\ntag_21:\n  dataSize(sub_0)\n  dup1\n  dataOffset(sub_0)\n  0x00\n  codecopy\n  0x00\n  return\nstop\n\nsub_0: assembly {\n        /* \"contracts/PaymentSplit.sol\":525:3775  contract PaymentSolit {... */\n      mstore(0x40, 0x80)\n      jumpi(tag_1, lt(calldatasize, 0x04))\n      shr(0xe0, calldataload(0x00))\n      dup1\n      0x9852595c\n      gt\n      tag_10\n      jumpi\n      dup1\n      0x9852595c\n      eq\n      tag_6\n      jumpi\n      dup1\n      0xa3f8eace\n      eq\n      tag_7\n      jumpi\n      dup1\n      0xce7c2ac2\n      eq\n      tag_8\n      jumpi\n      dup1\n      0xe33b7de3\n      eq\n      tag_9\n      jumpi\n      jump(tag_2)\n    tag_10:\n      dup1\n      0x19165587\n      eq\n      tag_3\n      jumpi\n      dup1\n      0x3a98ef39\n      eq\n      tag_4\n      jumpi\n      dup1\n      0x63037b0c\n      eq\n      tag_5\n      jumpi\n      jump(tag_2)\n    tag_1:\n      jumpi(tag_2, calldatasize)\n        /* \"contracts/PaymentSplit.sol\":1873:1911  PaymentReceived(msg.sender, msg.value) */\n      0x6ef95f06320e7a25a04a175ca677b7052bdd97131872c2192525a629f51be770\n        /* \"contracts/PaymentSplit.sol\":1889:1899  msg.sender */\n      caller\n        /* \"contracts/PaymentSplit.sol\":1901:1910  msg.value */\n      callvalue\n        /* \"contracts/PaymentSplit.sol\":1873:1911  PaymentReceived(msg.sender, msg.value) */\n      mload(0x40)\n      tag_13\n      swap3\n      swap2\n      swap1\n      tag_14\n      jump\t// in\n    tag_13:\n      mload(0x40)\n      dup1\n      swap2\n      sub\n      swap1\n      log1\n        /* \"contracts/PaymentSplit.sol\":525:3775  contract PaymentSolit {... */\n      stop\n    tag_2:\n        /* \"contracts/PaymentSplit.sol\":1971:2009  PaymentReceived(msg.sender, msg.value) */\n      0x6ef95f06320e7a25a04a175ca677b7052bdd97131872c2192525a629f51be770\n        /* \"contracts/PaymentSplit.sol\":1987:1997  msg.sender */\n      caller\n        /* \"contracts/PaymentSplit.sol\":1999:2008  msg.value */\n      callvalue\n        /* \"contracts/PaymentSplit.sol\":1971:2009  PaymentReceived(msg.sender, msg.value) */\n      mload(0x40)\n      tag_17\n      swap3\n      swap2\n      swap1\n      tag_14\n      jump\t// in\n    tag_17:\n      mload(0x40)\n      dup1\n      swap2\n      sub\n      swap1\n      log1\n        /* \"contracts/PaymentSplit.sol\":525:3775  contract PaymentSolit {... */\n      stop\n        /* \"contracts/PaymentSplit.sol\":2049:2775  function release(address payable account) public virtual {... */\n    tag_3:\n      callvalue\n      dup1\n      iszero\n      tag_18\n      jumpi\n      0x00\n      dup1\n      revert\n    tag_18:\n      pop\n      tag_19\n      0x04\n      dup1\n      calldatasize\n      sub\n      dup2\n      add\n      swap1\n      tag_20\n      swap2\n      swap1\n      tag_21\n      jump\t// in\n    tag_20:\n      tag_22\n      jump\t// in\n    tag_19:\n      stop\n        /* \"contracts/PaymentSplit.sol\":834:860  uint256 public totalShares */\n    tag_4:\n      callvalue\n      dup1\n      iszero\n      tag_23\n      jumpi\n      0x00\n      dup1\n      revert\n    tag_23:\n      pop\n      tag_24\n      tag_25\n      jump\t// in\n    tag_24:\n      mload(0x40)\n      tag_26\n      swap2\n      swap1\n      tag_27\n      jump\t// in\n    tag_26:\n      mload(0x40)\n      dup1\n      swap2\n      sub\n      swap1\n      return\n        /* \"contracts/PaymentSplit.sol\":1151:1174  address[] public payees */\n    tag_5:\n      callvalue\n      dup1\n      iszero\n      tag_28\n      jumpi\n      0x00\n      dup1\n      revert\n    tag_28:\n      pop\n      tag_29\n      0x04\n      dup1\n      calldatasize\n      sub\n      dup2\n      add\n      swap1\n      tag_30\n      swap2\n      swap1\n      tag_31\n      jump\t// in\n    tag_30:\n      tag_32\n      jump\t// in\n    tag_29:\n      mload(0x40)\n      tag_33\n      swap2\n      swap1\n      tag_34\n      jump\t// in\n    tag_33:\n      mload(0x40)\n      dup1\n      swap2\n      sub\n      swap1\n      return\n        /* \"contracts/PaymentSplit.sol\":1064:1108  mapping (address => uint256) public released */\n    tag_6:\n      callvalue\n      dup1\n      iszero\n      tag_35\n      jumpi\n      0x00\n      dup1\n      revert\n    tag_35:\n      pop\n      tag_36\n      0x04\n      dup1\n      calldatasize\n      sub\n      dup2\n      add\n      swap1\n      tag_37\n      swap2\n      swap1\n      tag_38\n      jump\t// in\n    tag_37:\n      tag_39\n      jump\t// in\n    tag_36:\n      mload(0x40)\n      tag_40\n      swap2\n      swap1\n      tag_27\n      jump\t// in\n    tag_40:\n      mload(0x40)\n      dup1\n      swap2\n      sub\n      swap1\n      return\n        /* \"contracts/PaymentSplit.sol\":2783:3087  function releasable(address account) public view returns(uint256) {... */\n    tag_7:\n      callvalue\n      dup1\n      iszero\n      tag_41\n      jumpi\n      0x00\n      dup1\n      revert\n    tag_41:\n      pop\n      tag_42\n      0x04\n      dup1\n      calldatasize\n      sub\n      dup2\n      add\n      swap1\n      tag_43\n      swap2\n      swap1\n      tag_38\n      jump\t// in\n    tag_43:\n      tag_44\n      jump\t// in\n    tag_42:\n      mload(0x40)\n      tag_45\n      swap2\n      swap1\n      tag_27\n      jump\t// in\n    tag_45:\n      mload(0x40)\n      dup1\n      swap2\n      sub\n      swap1\n      return\n        /* \"contracts/PaymentSplit.sol\":973:1015  mapping (address => uint256) public shares */\n    tag_8:\n      callvalue\n      dup1\n      iszero\n      tag_46\n      jumpi\n      0x00\n      dup1\n      revert\n    tag_46:\n      pop\n      tag_47\n      0x04\n      dup1\n      calldatasize\n      sub\n      dup2\n      add\n      swap1\n      tag_48\n      swap2\n      swap1\n      tag_38\n      jump\t// in\n    tag_48:\n      tag_49\n      jump\t// in\n    tag_47:\n      mload(0x40)\n      tag_50\n      swap2\n      swap1\n      tag_27\n      jump\t// in\n    tag_50:\n      mload(0x40)\n      dup1\n      swap2\n      sub\n      swap1\n      return\n        /* \"contracts/PaymentSplit.sol\":885:913  uint256 public totalReleased */\n    tag_9:\n      callvalue\n      dup1\n      iszero\n      tag_51\n      jumpi\n      0x00\n      dup1\n      revert\n    tag_51:\n      pop\n      tag_52\n      tag_53\n      jump\t// in\n    tag_52:\n      mload(0x40)\n      tag_54\n      swap2\n      swap1\n      tag_27\n      jump\t// in\n    tag_54:\n      mload(0x40)\n      dup1\n      swap2\n      sub\n      swap1\n      return\n        /* \"contracts/PaymentSplit.sol\":2049:2775  function release(address payable account) public virtual {... */\n    tag_22:\n        /* \"contracts/PaymentSplit.sol\":2177:2178  0 */\n      0x00\n        /* \"contracts/PaymentSplit.sol\":2159:2165  shares */\n      0x02\n        /* \"contracts/PaymentSplit.sol\":2159:2174  shares[account] */\n      0x00\n        /* \"contracts/PaymentSplit.sol\":2166:2173  account */\n      dup4\n        /* \"contracts/PaymentSplit.sol\":2159:2174  shares[account] */\n      0xffffffffffffffffffffffffffffffffffffffff\n      and\n      0xffffffffffffffffffffffffffffffffffffffff\n      and\n      dup2\n      mstore\n      0x20\n      add\n      swap1\n      dup2\n      mstore\n      0x20\n      add\n      0x00\n      keccak256\n      sload\n        /* \"contracts/PaymentSplit.sol\":2159:2178  shares[account] > 0 */\n      gt\n        /* \"contracts/PaymentSplit.sol\":2151:2213  require(shares[account] > 0, \"The account has not pay shares\") */\n      tag_56\n      jumpi\n      mload(0x40)\n      0x08c379a000000000000000000000000000000000000000000000000000000000\n      dup2\n      mstore\n      0x04\n      add\n      tag_57\n      swap1\n      tag_58\n      jump\t// in\n    tag_57:\n      mload(0x40)\n      dup1\n      swap2\n      sub\n      swap1\n      revert\n    tag_56:\n        /* \"contracts/PaymentSplit.sol\":2251:2265  uint256 amount */\n      0x00\n        /* \"contracts/PaymentSplit.sol\":2268:2287  releasable(account) */\n      tag_59\n        /* \"contracts/PaymentSplit.sol\":2279:2286  account */\n      dup3\n        /* \"contracts/PaymentSplit.sol\":2268:2278  releasable */\n      tag_44\n        /* \"contracts/PaymentSplit.sol\":2268:2287  releasable(account) */\n      jump\t// in\n    tag_59:\n        /* \"contracts/PaymentSplit.sol\":2251:2287  uint256 amount = releasable(account) */\n      swap1\n      pop\n        /* \"contracts/PaymentSplit.sol\":2349:2350  0 */\n      0x00\n        /* \"contracts/PaymentSplit.sol\":2340:2346  amount */\n      dup2\n        /* \"contracts/PaymentSplit.sol\":2340:2350  amount > 0 */\n      gt\n        /* \"contracts/PaymentSplit.sol\":2332:2381  require(amount > 0, \"Insufficient account limit\") */\n      tag_60\n      jumpi\n      mload(0x40)\n      0x08c379a000000000000000000000000000000000000000000000000000000000\n      dup2\n      mstore\n      0x04\n      add\n      tag_61\n      swap1\n      tag_62\n      jump\t// in\n    tag_61:\n      mload(0x40)\n      dup1\n      swap2\n      sub\n      swap1\n      revert\n    tag_60:\n        /* \"contracts/PaymentSplit.sol\":2458:2464  amount */\n      dup1\n        /* \"contracts/PaymentSplit.sol\":2437:2445  released */\n      0x03\n        /* \"contracts/PaymentSplit.sol\":2437:2454  released[account] */\n      0x00\n        /* \"contracts/PaymentSplit.sol\":2446:2453  account */\n      dup5\n        /* \"contracts/PaymentSplit.sol\":2437:2454  released[account] */\n      0xffffffffffffffffffffffffffffffffffffffff\n      and\n      0xffffffffffffffffffffffffffffffffffffffff\n      and\n      dup2\n      mstore\n      0x20\n      add\n      swap1\n      dup2\n      mstore\n      0x20\n      add\n      0x00\n      keccak256\n      0x00\n        /* \"contracts/PaymentSplit.sol\":2437:2464  released[account] += amount */\n      dup3\n      dup3\n      sload\n      tag_63\n      swap2\n      swap1\n      tag_64\n      jump\t// in\n    tag_63:\n      swap3\n      pop\n      pop\n      dup2\n      swap1\n      sstore\n      pop\n        /* \"contracts/PaymentSplit.sol\":2492:2498  amount */\n      dup1\n        /* \"contracts/PaymentSplit.sol\":2475:2488  totalReleased */\n      0x01\n      0x00\n        /* \"contracts/PaymentSplit.sol\":2475:2498  totalReleased += amount */\n      dup3\n      dup3\n      sload\n      tag_65\n      swap2\n      swap1\n      tag_64\n      jump\t// in\n    tag_65:\n      swap3\n      pop\n      pop\n      dup2\n      swap1\n      sstore\n      pop\n        /* \"contracts/PaymentSplit.sol\":2537:2549  bool success */\n      0x00\n        /* \"contracts/PaymentSplit.sol\":2554:2561  account */\n      dup3\n        /* \"contracts/PaymentSplit.sol\":2554:2566  account.call */\n      0xffffffffffffffffffffffffffffffffffffffff\n      and\n        /* \"contracts/PaymentSplit.sol\":2574:2580  amount */\n      dup3\n        /* \"contracts/PaymentSplit.sol\":2554:2585  account.call{value: amount}(\"\") */\n      mload(0x40)\n      tag_66\n      swap1\n      tag_67\n      jump\t// in\n    tag_66:\n      0x00\n      mload(0x40)\n      dup1\n      dup4\n      sub\n      dup2\n      dup6\n      dup8\n      gas\n      call\n      swap3\n      pop\n      pop\n      pop\n      returndatasize\n      dup1\n      0x00\n      dup2\n      eq\n      tag_70\n      jumpi\n      mload(0x40)\n      swap2\n      pop\n      and(add(returndatasize, 0x3f), not(0x1f))\n      dup3\n      add\n      0x40\n      mstore\n      returndatasize\n      dup3\n      mstore\n      returndatasize\n      0x00\n      0x20\n      dup5\n      add\n      returndatacopy\n      jump(tag_69)\n    tag_70:\n      0x60\n      swap2\n      pop\n    tag_69:\n      pop\n        /* \"contracts/PaymentSplit.sol\":2536:2585  (bool success,) = account.call{value: amount}(\"\") */\n      pop\n      swap1\n      pop\n        /* \"contracts/PaymentSplit.sol\":2627:2634  success */\n      dup1\n        /* \"contracts/PaymentSplit.sol\":2623:2758  if (success) {... */\n      iszero\n      tag_71\n      jumpi\n        /* \"contracts/PaymentSplit.sol\":2656:2688  PaymentReleased(account, amount) */\n      0xdf20fd1e76bc69d672e4814fafb2c449bba3a5369d8359adf9e05e6fde87b056\n        /* \"contracts/PaymentSplit.sol\":2672:2679  account */\n      dup4\n        /* \"contracts/PaymentSplit.sol\":2681:2687  amount */\n      dup4\n        /* \"contracts/PaymentSplit.sol\":2656:2688  PaymentReleased(account, amount) */\n      mload(0x40)\n      tag_72\n      swap3\n      swap2\n      swap1\n      tag_73\n      jump\t// in\n    tag_72:\n      mload(0x40)\n      dup1\n      swap2\n      sub\n      swap1\n      log1\n        /* \"contracts/PaymentSplit.sol\":2623:2758  if (success) {... */\n      jump(tag_74)\n    tag_71:\n        /* \"contracts/PaymentSplit.sol\":2721:2746  revert(\"Transfer failed\") */\n      mload(0x40)\n      0x08c379a000000000000000000000000000000000000000000000000000000000\n      dup2\n      mstore\n      0x04\n      add\n      tag_75\n      swap1\n      tag_76\n      jump\t// in\n    tag_75:\n      mload(0x40)\n      dup1\n      swap2\n      sub\n      swap1\n      revert\n        /* \"contracts/PaymentSplit.sol\":2623:2758  if (success) {... */\n    tag_74:\n        /* \"contracts/PaymentSplit.sol\":2106:2775  {... */\n      pop\n      pop\n        /* \"contracts/PaymentSplit.sol\":2049:2775  function release(address payable account) public virtual {... */\n      pop\n      jump\t// out\n        /* \"contracts/PaymentSplit.sol\":834:860  uint256 public totalShares */\n    tag_25:\n      sload(0x00)\n      dup2\n      jump\t// out\n        /* \"contracts/PaymentSplit.sol\":1151:1174  address[] public payees */\n    tag_32:\n      0x04\n      dup2\n      dup2\n      sload\n      dup2\n      lt\n      tag_77\n      jumpi\n      0x00\n      dup1\n      revert\n    tag_77:\n      swap1\n      0x00\n      mstore\n      keccak256(0x00, 0x20)\n      add\n      0x00\n      swap2\n      pop\n      sload\n      swap1\n      0x0100\n      exp\n      swap1\n      div\n      0xffffffffffffffffffffffffffffffffffffffff\n      and\n      dup2\n      jump\t// out\n        /* \"contracts/PaymentSplit.sol\":1064:1108  mapping (address => uint256) public released */\n    tag_39:\n      mstore(0x20, 0x03)\n      dup1\n      0x00\n      mstore\n      keccak256(0x00, 0x40)\n      0x00\n      swap2\n      pop\n      swap1\n      pop\n      sload\n      dup2\n      jump\t// out\n        /* \"contracts/PaymentSplit.sol\":2783:3087  function releasable(address account) public view returns(uint256) {... */\n    tag_44:\n        /* \"contracts/PaymentSplit.sol\":2840:2847  uint256 */\n      0x00\n        /* \"contracts/PaymentSplit.sol\":2894:2915  uint256 totalReceived */\n      dup1\n        /* \"contracts/PaymentSplit.sol\":2942:2955  totalReleased */\n      sload(0x01)\n        /* \"contracts/PaymentSplit.sol\":2918:2939  address(this).balance */\n      selfbalance\n        /* \"contracts/PaymentSplit.sol\":2918:2955  address(this).balance + totalReleased */\n      tag_80\n      swap2\n      swap1\n      tag_64\n      jump\t// in\n    tag_80:\n        /* \"contracts/PaymentSplit.sol\":2894:2955  uint256 totalReceived = address(this).balance + totalReleased */\n      swap1\n      pop\n        /* \"contracts/PaymentSplit.sol\":3062:3070  released */\n      0x03\n        /* \"contracts/PaymentSplit.sol\":3062:3079  released[account] */\n      0x00\n        /* \"contracts/PaymentSplit.sol\":3071:3078  account */\n      dup5\n        /* \"contracts/PaymentSplit.sol\":3062:3079  released[account] */\n      0xffffffffffffffffffffffffffffffffffffffff\n      and\n      0xffffffffffffffffffffffffffffffffffffffff\n      and\n      dup2\n      mstore\n      0x20\n      add\n      swap1\n      dup2\n      mstore\n      0x20\n      add\n      0x00\n      keccak256\n      sload\n        /* \"contracts/PaymentSplit.sol\":3048:3059  totalShares */\n      sload(0x00)\n        /* \"contracts/PaymentSplit.sol\":3029:3035  shares */\n      0x02\n        /* \"contracts/PaymentSplit.sol\":3029:3044  shares[account] */\n      0x00\n        /* \"contracts/PaymentSplit.sol\":3036:3043  account */\n      dup7\n        /* \"contracts/PaymentSplit.sol\":3029:3044  shares[account] */\n      0xffffffffffffffffffffffffffffffffffffffff\n      and\n      0xffffffffffffffffffffffffffffffffffffffff\n      and\n      dup2\n      mstore\n      0x20\n      add\n      swap1\n      dup2\n      mstore\n      0x20\n      add\n      0x00\n      keccak256\n      sload\n        /* \"contracts/PaymentSplit.sol\":3013:3026  totalReceived */\n      dup4\n        /* \"contracts/PaymentSplit.sol\":3013:3044  totalReceived * shares[account] */\n      tag_81\n      swap2\n      swap1\n      tag_82\n      jump\t// in\n    tag_81:\n        /* \"contracts/PaymentSplit.sol\":3012:3059  (totalReceived * shares[account]) / totalShares */\n      tag_83\n      swap2\n      swap1\n      tag_84\n      jump\t// in\n    tag_83:\n        /* \"contracts/PaymentSplit.sol\":3012:3079  (totalReceived * shares[account]) / totalShares - released[account] */\n      tag_85\n      swap2\n      swap1\n      tag_86\n      jump\t// in\n    tag_85:\n        /* \"contracts/PaymentSplit.sol\":3005:3079  return (totalReceived * shares[account]) / totalShares - released[account] */\n      swap2\n      pop\n      pop\n        /* \"contracts/PaymentSplit.sol\":2783:3087  function releasable(address account) public view returns(uint256) {... */\n      swap2\n      swap1\n      pop\n      jump\t// out\n        /* \"contracts/PaymentSplit.sol\":973:1015  mapping (address => uint256) public shares */\n    tag_49:\n      mstore(0x20, 0x02)\n      dup1\n      0x00\n      mstore\n      keccak256(0x00, 0x40)\n      0x00\n      swap2\n      pop\n      swap1\n      pop\n      sload\n      dup2\n      jump\t// out\n        /* \"contracts/PaymentSplit.sol\":885:913  uint256 public totalReleased */\n    tag_53:\n      sload(0x01)\n      dup2\n      jump\t// out\n        /* \"#utility.yul\":7:133   */\n    tag_87:\n        /* \"#utility.yul\":44:51   */\n      0x00\n        /* \"#utility.yul\":84:126   */\n      0xffffffffffffffffffffffffffffffffffffffff\n        /* \"#utility.yul\":77:82   */\n      dup3\n        /* \"#utility.yul\":73:127   */\n      and\n        /* \"#utility.yul\":62:127   */\n      swap1\n      pop\n        /* \"#utility.yul\":7:133   */\n      swap2\n      swap1\n      pop\n      jump\t// out\n        /* \"#utility.yul\":139:235   */\n    tag_88:\n        /* \"#utility.yul\":176:183   */\n      0x00\n        /* \"#utility.yul\":205:229   */\n      tag_122\n        /* \"#utility.yul\":223:228   */\n      dup3\n        /* \"#utility.yul\":205:229   */\n      tag_87\n      jump\t// in\n    tag_122:\n        /* \"#utility.yul\":194:229   */\n      swap1\n      pop\n        /* \"#utility.yul\":139:235   */\n      swap2\n      swap1\n      pop\n      jump\t// out\n        /* \"#utility.yul\":241:359   */\n    tag_89:\n        /* \"#utility.yul\":328:352   */\n      tag_124\n        /* \"#utility.yul\":346:351   */\n      dup2\n        /* \"#utility.yul\":328:352   */\n      tag_88\n      jump\t// in\n    tag_124:\n        /* \"#utility.yul\":323:326   */\n      dup3\n        /* \"#utility.yul\":316:353   */\n      mstore\n        /* \"#utility.yul\":241:359   */\n      pop\n      pop\n      jump\t// out\n        /* \"#utility.yul\":365:442   */\n    tag_90:\n        /* \"#utility.yul\":402:409   */\n      0x00\n        /* \"#utility.yul\":431:436   */\n      dup2\n        /* \"#utility.yul\":420:436   */\n      swap1\n      pop\n        /* \"#utility.yul\":365:442   */\n      swap2\n      swap1\n      pop\n      jump\t// out\n        /* \"#utility.yul\":448:566   */\n    tag_91:\n        /* \"#utility.yul\":535:559   */\n      tag_127\n        /* \"#utility.yul\":553:558   */\n      dup2\n        /* \"#utility.yul\":535:559   */\n      tag_90\n      jump\t// in\n    tag_127:\n        /* \"#utility.yul\":530:533   */\n      dup3\n        /* \"#utility.yul\":523:560   */\n      mstore\n        /* \"#utility.yul\":448:566   */\n      pop\n      pop\n      jump\t// out\n        /* \"#utility.yul\":572:904   */\n    tag_14:\n        /* \"#utility.yul\":693:697   */\n      0x00\n        /* \"#utility.yul\":731:733   */\n      0x40\n        /* \"#utility.yul\":720:729   */\n      dup3\n        /* \"#utility.yul\":716:734   */\n      add\n        /* \"#utility.yul\":708:734   */\n      swap1\n      pop\n        /* \"#utility.yul\":744:815   */\n      tag_129\n        /* \"#utility.yul\":812:813   */\n      0x00\n        /* \"#utility.yul\":801:810   */\n      dup4\n        /* \"#utility.yul\":797:814   */\n      add\n        /* \"#utility.yul\":788:794   */\n      dup6\n        /* \"#utility.yul\":744:815   */\n      tag_89\n      jump\t// in\n    tag_129:\n        /* \"#utility.yul\":825:897   */\n      tag_130\n        /* \"#utility.yul\":893:895   */\n      0x20\n        /* \"#utility.yul\":882:891   */\n      dup4\n        /* \"#utility.yul\":878:896   */\n      add\n        /* \"#utility.yul\":869:875   */\n      dup5\n        /* \"#utility.yul\":825:897   */\n      tag_91\n      jump\t// in\n    tag_130:\n        /* \"#utility.yul\":572:904   */\n      swap4\n      swap3\n      pop\n      pop\n      pop\n      jump\t// out\n        /* \"#utility.yul\":991:1108   */\n    tag_93:\n        /* \"#utility.yul\":1100:1101   */\n      0x00\n        /* \"#utility.yul\":1097:1098   */\n      dup1\n        /* \"#utility.yul\":1090:1102   */\n      revert\n        /* \"#utility.yul\":1237:1341   */\n    tag_95:\n        /* \"#utility.yul\":1282:1289   */\n      0x00\n        /* \"#utility.yul\":1311:1335   */\n      tag_135\n        /* \"#utility.yul\":1329:1334   */\n      dup3\n        /* \"#utility.yul\":1311:1335   */\n      tag_87\n      jump\t// in\n    tag_135:\n        /* \"#utility.yul\":1300:1335   */\n      swap1\n      pop\n        /* \"#utility.yul\":1237:1341   */\n      swap2\n      swap1\n      pop\n      jump\t// out\n        /* \"#utility.yul\":1347:1485   */\n    tag_96:\n        /* \"#utility.yul\":1428:1460   */\n      tag_137\n        /* \"#utility.yul\":1454:1459   */\n      dup2\n        /* \"#utility.yul\":1428:1460   */\n      tag_95\n      jump\t// in\n    tag_137:\n        /* \"#utility.yul\":1421:1426   */\n      dup2\n        /* \"#utility.yul\":1418:1461   */\n      eq\n        /* \"#utility.yul\":1408:1479   */\n      tag_138\n      jumpi\n        /* \"#utility.yul\":1475:1476   */\n      0x00\n        /* \"#utility.yul\":1472:1473   */\n      dup1\n        /* \"#utility.yul\":1465:1477   */\n      revert\n        /* \"#utility.yul\":1408:1479   */\n    tag_138:\n        /* \"#utility.yul\":1347:1485   */\n      pop\n      jump\t// out\n        /* \"#utility.yul\":1491:1646   */\n    tag_97:\n        /* \"#utility.yul\":1545:1550   */\n      0x00\n        /* \"#utility.yul\":1583:1589   */\n      dup2\n        /* \"#utility.yul\":1570:1590   */\n      calldataload\n        /* \"#utility.yul\":1561:1590   */\n      swap1\n      pop\n        /* \"#utility.yul\":1599:1640   */\n      tag_140\n        /* \"#utility.yul\":1634:1639   */\n      dup2\n        /* \"#utility.yul\":1599:1640   */\n      tag_96\n      jump\t// in\n    tag_140:\n        /* \"#utility.yul\":1491:1646   */\n      swap3\n      swap2\n      pop\n      pop\n      jump\t// out\n        /* \"#utility.yul\":1652:1997   */\n    tag_21:\n        /* \"#utility.yul\":1719:1725   */\n      0x00\n        /* \"#utility.yul\":1768:1770   */\n      0x20\n        /* \"#utility.yul\":1756:1765   */\n      dup3\n        /* \"#utility.yul\":1747:1754   */\n      dup5\n        /* \"#utility.yul\":1743:1766   */\n      sub\n        /* \"#utility.yul\":1739:1771   */\n      slt\n        /* \"#utility.yul\":1736:1855   */\n      iszero\n      tag_142\n      jumpi\n        /* \"#utility.yul\":1774:1853   */\n      tag_143\n      tag_93\n      jump\t// in\n    tag_143:\n        /* \"#utility.yul\":1736:1855   */\n    tag_142:\n        /* \"#utility.yul\":1894:1895   */\n      0x00\n        /* \"#utility.yul\":1919:1980   */\n      tag_144\n        /* \"#utility.yul\":1972:1979   */\n      dup5\n        /* \"#utility.yul\":1963:1969   */\n      dup3\n        /* \"#utility.yul\":1952:1961   */\n      dup6\n        /* \"#utility.yul\":1948:1970   */\n      add\n        /* \"#utility.yul\":1919:1980   */\n      tag_97\n      jump\t// in\n    tag_144:\n        /* \"#utility.yul\":1909:1980   */\n      swap2\n      pop\n        /* \"#utility.yul\":1865:1990   */\n      pop\n        /* \"#utility.yul\":1652:1997   */\n      swap3\n      swap2\n      pop\n      pop\n      jump\t// out\n        /* \"#utility.yul\":2003:2225   */\n    tag_27:\n        /* \"#utility.yul\":2096:2100   */\n      0x00\n        /* \"#utility.yul\":2134:2136   */\n      0x20\n        /* \"#utility.yul\":2123:2132   */\n      dup3\n        /* \"#utility.yul\":2119:2137   */\n      add\n        /* \"#utility.yul\":2111:2137   */\n      swap1\n      pop\n        /* \"#utility.yul\":2147:2218   */\n      tag_146\n        /* \"#utility.yul\":2215:2216   */\n      0x00\n        /* \"#utility.yul\":2204:2213   */\n      dup4\n        /* \"#utility.yul\":2200:2217   */\n      add\n        /* \"#utility.yul\":2191:2197   */\n      dup5\n        /* \"#utility.yul\":2147:2218   */\n      tag_91\n      jump\t// in\n    tag_146:\n        /* \"#utility.yul\":2003:2225   */\n      swap3\n      swap2\n      pop\n      pop\n      jump\t// out\n        /* \"#utility.yul\":2231:2353   */\n    tag_98:\n        /* \"#utility.yul\":2304:2328   */\n      tag_148\n        /* \"#utility.yul\":2322:2327   */\n      dup2\n        /* \"#utility.yul\":2304:2328   */\n      tag_90\n      jump\t// in\n    tag_148:\n        /* \"#utility.yul\":2297:2302   */\n      dup2\n        /* \"#utility.yul\":2294:2329   */\n      eq\n        /* \"#utility.yul\":2284:2347   */\n      tag_149\n      jumpi\n        /* \"#utility.yul\":2343:2344   */\n      0x00\n        /* \"#utility.yul\":2340:2341   */\n      dup1\n        /* \"#utility.yul\":2333:2345   */\n      revert\n        /* \"#utility.yul\":2284:2347   */\n    tag_149:\n        /* \"#utility.yul\":2231:2353   */\n      pop\n      jump\t// out\n        /* \"#utility.yul\":2359:2498   */\n    tag_99:\n        /* \"#utility.yul\":2405:2410   */\n      0x00\n        /* \"#utility.yul\":2443:2449   */\n      dup2\n        /* \"#utility.yul\":2430:2450   */\n      calldataload\n        /* \"#utility.yul\":2421:2450   */\n      swap1\n      pop\n        /* \"#utility.yul\":2459:2492   */\n      tag_151\n        /* \"#utility.yul\":2486:2491   */\n      dup2\n        /* \"#utility.yul\":2459:2492   */\n      tag_98\n      jump\t// in\n    tag_151:\n        /* \"#utility.yul\":2359:2498   */\n      swap3\n      swap2\n      pop\n      pop\n      jump\t// out\n        /* \"#utility.yul\":2504:2833   */\n    tag_31:\n        /* \"#utility.yul\":2563:2569   */\n      0x00\n        /* \"#utility.yul\":2612:2614   */\n      0x20\n        /* \"#utility.yul\":2600:2609   */\n      dup3\n        /* \"#utility.yul\":2591:2598   */\n      dup5\n        /* \"#utility.yul\":2587:2610   */\n      sub\n        /* \"#utility.yul\":2583:2615   */\n      slt\n        /* \"#utility.yul\":2580:2699   */\n      iszero\n      tag_153\n      jumpi\n        /* \"#utility.yul\":2618:2697   */\n      tag_154\n      tag_93\n      jump\t// in\n    tag_154:\n        /* \"#utility.yul\":2580:2699   */\n    tag_153:\n        /* \"#utility.yul\":2738:2739   */\n      0x00\n        /* \"#utility.yul\":2763:2816   */\n      tag_155\n        /* \"#utility.yul\":2808:2815   */\n      dup5\n        /* \"#utility.yul\":2799:2805   */\n      dup3\n        /* \"#utility.yul\":2788:2797   */\n      dup6\n        /* \"#utility.yul\":2784:2806   */\n      add\n        /* \"#utility.yul\":2763:2816   */\n      tag_99\n      jump\t// in\n    tag_155:\n        /* \"#utility.yul\":2753:2816   */\n      swap2\n      pop\n        /* \"#utility.yul\":2709:2826   */\n      pop\n        /* \"#utility.yul\":2504:2833   */\n      swap3\n      swap2\n      pop\n      pop\n      jump\t// out\n        /* \"#utility.yul\":2839:3061   */\n    tag_34:\n        /* \"#utility.yul\":2932:2936   */\n      0x00\n        /* \"#utility.yul\":2970:2972   */\n      0x20\n        /* \"#utility.yul\":2959:2968   */\n      dup3\n        /* \"#utility.yul\":2955:2973   */\n      add\n        /* \"#utility.yul\":2947:2973   */\n      swap1\n      pop\n        /* \"#utility.yul\":2983:3054   */\n      tag_157\n        /* \"#utility.yul\":3051:3052   */\n      0x00\n        /* \"#utility.yul\":3040:3049   */\n      dup4\n        /* \"#utility.yul\":3036:3053   */\n      add\n        /* \"#utility.yul\":3027:3033   */\n      dup5\n        /* \"#utility.yul\":2983:3054   */\n      tag_89\n      jump\t// in\n    tag_157:\n        /* \"#utility.yul\":2839:3061   */\n      swap3\n      swap2\n      pop\n      pop\n      jump\t// out\n        /* \"#utility.yul\":3067:3189   */\n    tag_100:\n        /* \"#utility.yul\":3140:3164   */\n      tag_159\n        /* \"#utility.yul\":3158:3163   */\n      dup2\n        /* \"#utility.yul\":3140:3164   */\n      tag_88\n      jump\t// in\n    tag_159:\n        /* \"#utility.yul\":3133:3138   */\n      dup2\n        /* \"#utility.yul\":3130:3165   */\n      eq\n        /* \"#utility.yul\":3120:3183   */\n      tag_160\n      jumpi\n        /* \"#utility.yul\":3179:3180   */\n      0x00\n        /* \"#utility.yul\":3176:3177   */\n      dup1\n        /* \"#utility.yul\":3169:3181   */\n      revert\n        /* \"#utility.yul\":3120:3183   */\n    tag_160:\n        /* \"#utility.yul\":3067:3189   */\n      pop\n      jump\t// out\n        /* \"#utility.yul\":3195:3334   */\n    tag_101:\n        /* \"#utility.yul\":3241:3246   */\n      0x00\n        /* \"#utility.yul\":3279:3285   */\n      dup2\n        /* \"#utility.yul\":3266:3286   */\n      calldataload\n        /* \"#utility.yul\":3257:3286   */\n      swap1\n      pop\n        /* \"#utility.yul\":3295:3328   */\n      tag_162\n        /* \"#utility.yul\":3322:3327   */\n      dup2\n        /* \"#utility.yul\":3295:3328   */\n      tag_100\n      jump\t// in\n    tag_162:\n        /* \"#utility.yul\":3195:3334   */\n      swap3\n      swap2\n      pop\n      pop\n      jump\t// out\n        /* \"#utility.yul\":3340:3669   */\n    tag_38:\n        /* \"#utility.yul\":3399:3405   */\n      0x00\n        /* \"#utility.yul\":3448:3450   */\n      0x20\n        /* \"#utility.yul\":3436:3445   */\n      dup3\n        /* \"#utility.yul\":3427:3434   */\n      dup5\n        /* \"#utility.yul\":3423:3446   */\n      sub\n        /* \"#utility.yul\":3419:3451   */\n      slt\n        /* \"#utility.yul\":3416:3535   */\n      iszero\n      tag_164\n      jumpi\n        /* \"#utility.yul\":3454:3533   */\n      tag_165\n      tag_93\n      jump\t// in\n    tag_165:\n        /* \"#utility.yul\":3416:3535   */\n    tag_164:\n        /* \"#utility.yul\":3574:3575   */\n      0x00\n        /* \"#utility.yul\":3599:3652   */\n      tag_166\n        /* \"#utility.yul\":3644:3651   */\n      dup5\n        /* \"#utility.yul\":3635:3641   */\n      dup3\n        /* \"#utility.yul\":3624:3633   */\n      dup6\n        /* \"#utility.yul\":3620:3642   */\n      add\n        /* \"#utility.yul\":3599:3652   */\n      tag_101\n      jump\t// in\n    tag_166:\n        /* \"#utility.yul\":3589:3652   */\n      swap2\n      pop\n        /* \"#utility.yul\":3545:3662   */\n      pop\n        /* \"#utility.yul\":3340:3669   */\n      swap3\n      swap2\n      pop\n      pop\n      jump\t// out\n        /* \"#utility.yul\":3675:3844   */\n    tag_102:\n        /* \"#utility.yul\":3759:3770   */\n      0x00\n        /* \"#utility.yul\":3793:3799   */\n      dup3\n        /* \"#utility.yul\":3788:3791   */\n      dup3\n        /* \"#utility.yul\":3781:3800   */\n      mstore\n        /* \"#utility.yul\":3833:3837   */\n      0x20\n        /* \"#utility.yul\":3828:3831   */\n      dup3\n        /* \"#utility.yul\":3824:3838   */\n      add\n        /* \"#utility.yul\":3809:3838   */\n      swap1\n      pop\n        /* \"#utility.yul\":3675:3844   */\n      swap3\n      swap2\n      pop\n      pop\n      jump\t// out\n        /* \"#utility.yul\":3850:4030   */\n    tag_103:\n        /* \"#utility.yul\":3990:4022   */\n      0x546865206163636f756e7420686173206e6f7420706179207368617265730000\n        /* \"#utility.yul\":3986:3987   */\n      0x00\n        /* \"#utility.yul\":3978:3984   */\n      dup3\n        /* \"#utility.yul\":3974:3988   */\n      add\n        /* \"#utility.yul\":3967:4023   */\n      mstore\n        /* \"#utility.yul\":3850:4030   */\n      pop\n      jump\t// out\n        /* \"#utility.yul\":4036:4402   */\n    tag_104:\n        /* \"#utility.yul\":4178:4181   */\n      0x00\n        /* \"#utility.yul\":4199:4266   */\n      tag_170\n        /* \"#utility.yul\":4263:4265   */\n      0x1e\n        /* \"#utility.yul\":4258:4261   */\n      dup4\n        /* \"#utility.yul\":4199:4266   */\n      tag_102\n      jump\t// in\n    tag_170:\n        /* \"#utility.yul\":4192:4266   */\n      swap2\n      pop\n        /* \"#utility.yul\":4275:4368   */\n      tag_171\n        /* \"#utility.yul\":4364:4367   */\n      dup3\n        /* \"#utility.yul\":4275:4368   */\n      tag_103\n      jump\t// in\n    tag_171:\n        /* \"#utility.yul\":4393:4395   */\n      0x20\n        /* \"#utility.yul\":4388:4391   */\n      dup3\n        /* \"#utility.yul\":4384:4396   */\n      add\n        /* \"#utility.yul\":4377:4396   */\n      swap1\n      pop\n        /* \"#utility.yul\":4036:4402   */\n      swap2\n      swap1\n      pop\n      jump\t// out\n        /* \"#utility.yul\":4408:4827   */\n    tag_58:\n        /* \"#utility.yul\":4574:4578   */\n      0x00\n        /* \"#utility.yul\":4612:4614   */\n      0x20\n        /* \"#utility.yul\":4601:4610   */\n      dup3\n        /* \"#utility.yul\":4597:4615   */\n      add\n        /* \"#utility.yul\":4589:4615   */\n      swap1\n      pop\n        /* \"#utility.yul\":4661:4670   */\n      dup2\n        /* \"#utility.yul\":4655:4659   */\n      dup2\n        /* \"#utility.yul\":4651:4671   */\n      sub\n        /* \"#utility.yul\":4647:4648   */\n      0x00\n        /* \"#utility.yul\":4636:4645   */\n      dup4\n        /* \"#utility.yul\":4632:4649   */\n      add\n        /* \"#utility.yul\":4625:4672   */\n      mstore\n        /* \"#utility.yul\":4689:4820   */\n      tag_173\n        /* \"#utility.yul\":4815:4819   */\n      dup2\n        /* \"#utility.yul\":4689:4820   */\n      tag_104\n      jump\t// in\n    tag_173:\n        /* \"#utility.yul\":4681:4820   */\n      swap1\n      pop\n        /* \"#utility.yul\":4408:4827   */\n      swap2\n      swap1\n      pop\n      jump\t// out\n        /* \"#utility.yul\":4833:5009   */\n    tag_105:\n        /* \"#utility.yul\":4973:5001   */\n      0x496e73756666696369656e74206163636f756e74206c696d6974000000000000\n        /* \"#utility.yul\":4969:4970   */\n      0x00\n        /* \"#utility.yul\":4961:4967   */\n      dup3\n        /* \"#utility.yul\":4957:4971   */\n      add\n        /* \"#utility.yul\":4950:5002   */\n      mstore\n        /* \"#utility.yul\":4833:5009   */\n      pop\n      jump\t// out\n        /* \"#utility.yul\":5015:5381   */\n    tag_106:\n        /* \"#utility.yul\":5157:5160   */\n      0x00\n        /* \"#utility.yul\":5178:5245   */\n      tag_176\n        /* \"#utility.yul\":5242:5244   */\n      0x1a\n        /* \"#utility.yul\":5237:5240   */\n      dup4\n        /* \"#utility.yul\":5178:5245   */\n      tag_102\n      jump\t// in\n    tag_176:\n        /* \"#utility.yul\":5171:5245   */\n      swap2\n      pop\n        /* \"#utility.yul\":5254:5347   */\n      tag_177\n        /* \"#utility.yul\":5343:5346   */\n      dup3\n        /* \"#utility.yul\":5254:5347   */\n      tag_105\n      jump\t// in\n    tag_177:\n        /* \"#utility.yul\":5372:5374   */\n      0x20\n        /* \"#utility.yul\":5367:5370   */\n      dup3\n        /* \"#utility.yul\":5363:5375   */\n      add\n        /* \"#utility.yul\":5356:5375   */\n      swap1\n      pop\n        /* \"#utility.yul\":5015:5381   */\n      swap2\n      swap1\n      pop\n      jump\t// out\n        /* \"#utility.yul\":5387:5806   */\n    tag_62:\n        /* \"#utility.yul\":5553:5557   */\n      0x00\n        /* \"#utility.yul\":5591:5593   */\n      0x20\n        /* \"#utility.yul\":5580:5589   */\n      dup3\n        /* \"#utility.yul\":5576:5594   */\n      add\n        /* \"#utility.yul\":5568:5594   */\n      swap1\n      pop\n        /* \"#utility.yul\":5640:5649   */\n      dup2\n        /* \"#utility.yul\":5634:5638   */\n      dup2\n        /* \"#utility.yul\":5630:5650   */\n      sub\n        /* \"#utility.yul\":5626:5627   */\n      0x00\n        /* \"#utility.yul\":5615:5624   */\n      dup4\n        /* \"#utility.yul\":5611:5628   */\n      add\n        /* \"#utility.yul\":5604:5651   */\n      mstore\n        /* \"#utility.yul\":5668:5799   */\n      tag_179\n        /* \"#utility.yul\":5794:5798   */\n      dup2\n        /* \"#utility.yul\":5668:5799   */\n      tag_106\n      jump\t// in\n    tag_179:\n        /* \"#utility.yul\":5660:5799   */\n      swap1\n      pop\n        /* \"#utility.yul\":5387:5806   */\n      swap2\n      swap1\n      pop\n      jump\t// out\n        /* \"#utility.yul\":5812:5992   */\n    tag_107:\n        /* \"#utility.yul\":5860:5937   */\n      0x4e487b7100000000000000000000000000000000000000000000000000000000\n        /* \"#utility.yul\":5857:5858   */\n      0x00\n        /* \"#utility.yul\":5850:5938   */\n      mstore\n        /* \"#utility.yul\":5957:5961   */\n      0x11\n        /* \"#utility.yul\":5954:5955   */\n      0x04\n        /* \"#utility.yul\":5947:5962   */\n      mstore\n        /* \"#utility.yul\":5981:5985   */\n      0x24\n        /* \"#utility.yul\":5978:5979   */\n      0x00\n        /* \"#utility.yul\":5971:5986   */\n      revert\n        /* \"#utility.yul\":5998:6189   */\n    tag_64:\n        /* \"#utility.yul\":6038:6041   */\n      0x00\n        /* \"#utility.yul\":6057:6077   */\n      tag_182\n        /* \"#utility.yul\":6075:6076   */\n      dup3\n        /* \"#utility.yul\":6057:6077   */\n      tag_90\n      jump\t// in\n    tag_182:\n        /* \"#utility.yul\":6052:6077   */\n      swap2\n      pop\n        /* \"#utility.yul\":6091:6111   */\n      tag_183\n        /* \"#utility.yul\":6109:6110   */\n      dup4\n        /* \"#utility.yul\":6091:6111   */\n      tag_90\n      jump\t// in\n    tag_183:\n        /* \"#utility.yul\":6086:6111   */\n      swap3\n      pop\n        /* \"#utility.yul\":6134:6135   */\n      dup3\n        /* \"#utility.yul\":6131:6132   */\n      dup3\n        /* \"#utility.yul\":6127:6136   */\n      add\n        /* \"#utility.yul\":6120:6136   */\n      swap1\n      pop\n        /* \"#utility.yul\":6155:6158   */\n      dup1\n        /* \"#utility.yul\":6152:6153   */\n      dup3\n        /* \"#utility.yul\":6149:6159   */\n      gt\n        /* \"#utility.yul\":6146:6182   */\n      iszero\n      tag_184\n      jumpi\n        /* \"#utility.yul\":6162:6180   */\n      tag_185\n      tag_107\n      jump\t// in\n    tag_185:\n        /* \"#utility.yul\":6146:6182   */\n    tag_184:\n        /* \"#utility.yul\":5998:6189   */\n      swap3\n      swap2\n      pop\n      pop\n      jump\t// out\n        /* \"#utility.yul\":6195:6342   */\n    tag_108:\n        /* \"#utility.yul\":6296:6307   */\n      0x00\n        /* \"#utility.yul\":6333:6336   */\n      dup2\n        /* \"#utility.yul\":6318:6336   */\n      swap1\n      pop\n        /* \"#utility.yul\":6195:6342   */\n      swap3\n      swap2\n      pop\n      pop\n      jump\t// out\n        /* \"#utility.yul\":6348:6462   */\n    tag_109:\n      pop\n      jump\t// out\n        /* \"#utility.yul\":6468:6866   */\n    tag_110:\n        /* \"#utility.yul\":6627:6630   */\n      0x00\n        /* \"#utility.yul\":6648:6731   */\n      tag_189\n        /* \"#utility.yul\":6729:6730   */\n      0x00\n        /* \"#utility.yul\":6724:6727   */\n      dup4\n        /* \"#utility.yul\":6648:6731   */\n      tag_108\n      jump\t// in\n    tag_189:\n        /* \"#utility.yul\":6641:6731   */\n      swap2\n      pop\n        /* \"#utility.yul\":6740:6833   */\n      tag_190\n        /* \"#utility.yul\":6829:6832   */\n      dup3\n        /* \"#utility.yul\":6740:6833   */\n      tag_109\n      jump\t// in\n    tag_190:\n        /* \"#utility.yul\":6858:6859   */\n      0x00\n        /* \"#utility.yul\":6853:6856   */\n      dup3\n        /* \"#utility.yul\":6849:6860   */\n      add\n        /* \"#utility.yul\":6842:6860   */\n      swap1\n      pop\n        /* \"#utility.yul\":6468:6866   */\n      swap2\n      swap1\n      pop\n      jump\t// out\n        /* \"#utility.yul\":6872:7251   */\n    tag_67:\n        /* \"#utility.yul\":7056:7059   */\n      0x00\n        /* \"#utility.yul\":7078:7225   */\n      tag_192\n        /* \"#utility.yul\":7221:7224   */\n      dup3\n        /* \"#utility.yul\":7078:7225   */\n      tag_110\n      jump\t// in\n    tag_192:\n        /* \"#utility.yul\":7071:7225   */\n      swap2\n      pop\n        /* \"#utility.yul\":7242:7245   */\n      dup2\n        /* \"#utility.yul\":7235:7245   */\n      swap1\n      pop\n        /* \"#utility.yul\":6872:7251   */\n      swap2\n      swap1\n      pop\n      jump\t// out\n        /* \"#utility.yul\":7257:7317   */\n    tag_111:\n        /* \"#utility.yul\":7285:7288   */\n      0x00\n        /* \"#utility.yul\":7306:7311   */\n      dup2\n        /* \"#utility.yul\":7299:7311   */\n      swap1\n      pop\n        /* \"#utility.yul\":7257:7317   */\n      swap2\n      swap1\n      pop\n      jump\t// out\n        /* \"#utility.yul\":7323:7465   */\n    tag_112:\n        /* \"#utility.yul\":7373:7382   */\n      0x00\n        /* \"#utility.yul\":7406:7459   */\n      tag_195\n        /* \"#utility.yul\":7424:7458   */\n      tag_196\n        /* \"#utility.yul\":7433:7457   */\n      tag_197\n        /* \"#utility.yul\":7451:7456   */\n      dup5\n        /* \"#utility.yul\":7433:7457   */\n      tag_87\n      jump\t// in\n    tag_197:\n        /* \"#utility.yul\":7424:7458   */\n      tag_111\n      jump\t// in\n    tag_196:\n        /* \"#utility.yul\":7406:7459   */\n      tag_87\n      jump\t// in\n    tag_195:\n        /* \"#utility.yul\":7393:7459   */\n      swap1\n      pop\n        /* \"#utility.yul\":7323:7465   */\n      swap2\n      swap1\n      pop\n      jump\t// out\n        /* \"#utility.yul\":7471:7597   */\n    tag_113:\n        /* \"#utility.yul\":7521:7530   */\n      0x00\n        /* \"#utility.yul\":7554:7591   */\n      tag_199\n        /* \"#utility.yul\":7585:7590   */\n      dup3\n        /* \"#utility.yul\":7554:7591   */\n      tag_112\n      jump\t// in\n    tag_199:\n        /* \"#utility.yul\":7541:7591   */\n      swap1\n      pop\n        /* \"#utility.yul\":7471:7597   */\n      swap2\n      swap1\n      pop\n      jump\t// out\n        /* \"#utility.yul\":7603:7737   */\n    tag_114:\n        /* \"#utility.yul\":7661:7670   */\n      0x00\n        /* \"#utility.yul\":7694:7731   */\n      tag_201\n        /* \"#utility.yul\":7725:7730   */\n      dup3\n        /* \"#utility.yul\":7694:7731   */\n      tag_113\n      jump\t// in\n    tag_201:\n        /* \"#utility.yul\":7681:7731   */\n      swap1\n      pop\n        /* \"#utility.yul\":7603:7737   */\n      swap2\n      swap1\n      pop\n      jump\t// out\n        /* \"#utility.yul\":7743:7890   */\n    tag_115:\n        /* \"#utility.yul\":7838:7883   */\n      tag_203\n        /* \"#utility.yul\":7877:7882   */\n      dup2\n        /* \"#utility.yul\":7838:7883   */\n      tag_114\n      jump\t// in\n    tag_203:\n        /* \"#utility.yul\":7833:7836   */\n      dup3\n        /* \"#utility.yul\":7826:7884   */\n      mstore\n        /* \"#utility.yul\":7743:7890   */\n      pop\n      pop\n      jump\t// out\n        /* \"#utility.yul\":7896:8244   */\n    tag_73:\n        /* \"#utility.yul\":8025:8029   */\n      0x00\n        /* \"#utility.yul\":8063:8065   */\n      0x40\n        /* \"#utility.yul\":8052:8061   */\n      dup3\n        /* \"#utility.yul\":8048:8066   */\n      add\n        /* \"#utility.yul\":8040:8066   */\n      swap1\n      pop\n        /* \"#utility.yul\":8076:8155   */\n      tag_205\n        /* \"#utility.yul\":8152:8153   */\n      0x00\n        /* \"#utility.yul\":8141:8150   */\n      dup4\n        /* \"#utility.yul\":8137:8154   */\n      add\n        /* \"#utility.yul\":8128:8134   */\n      dup6\n        /* \"#utility.yul\":8076:8155   */\n      tag_115\n      jump\t// in\n    tag_205:\n        /* \"#utility.yul\":8165:8237   */\n      tag_206\n        /* \"#utility.yul\":8233:8235   */\n      0x20\n        /* \"#utility.yul\":8222:8231   */\n      dup4\n        /* \"#utility.yul\":8218:8236   */\n      add\n        /* \"#utility.yul\":8209:8215   */\n      dup5\n        /* \"#utility.yul\":8165:8237   */\n      tag_91\n      jump\t// in\n    tag_206:\n        /* \"#utility.yul\":7896:8244   */\n      swap4\n      swap3\n      pop\n      pop\n      pop\n      jump\t// out\n        /* \"#utility.yul\":8250:8415   */\n    tag_116:\n        /* \"#utility.yul\":8390:8407   */\n      0x5472616e73666572206661696c65640000000000000000000000000000000000\n        /* \"#utility.yul\":8386:8387   */\n      0x00\n        /* \"#utility.yul\":8378:8384   */\n      dup3\n        /* \"#utility.yul\":8374:8388   */\n      add\n        /* \"#utility.yul\":8367:8408   */\n      mstore\n        /* \"#utility.yul\":8250:8415   */\n      pop\n      jump\t// out\n        /* \"#utility.yul\":8421:8787   */\n    tag_117:\n        /* \"#utility.yul\":8563:8566   */\n      0x00\n        /* \"#utility.yul\":8584:8651   */\n      tag_209\n        /* \"#utility.yul\":8648:8650   */\n      0x0f\n        /* \"#utility.yul\":8643:8646   */\n      dup4\n        /* \"#utility.yul\":8584:8651   */\n      tag_102\n      jump\t// in\n    tag_209:\n        /* \"#utility.yul\":8577:8651   */\n      swap2\n      pop\n        /* \"#utility.yul\":8660:8753   */\n      tag_210\n        /* \"#utility.yul\":8749:8752   */\n      dup3\n        /* \"#utility.yul\":8660:8753   */\n      tag_116\n      jump\t// in\n    tag_210:\n        /* \"#utility.yul\":8778:8780   */\n      0x20\n        /* \"#utility.yul\":8773:8776   */\n      dup3\n        /* \"#utility.yul\":8769:8781   */\n      add\n        /* \"#utility.yul\":8762:8781   */\n      swap1\n      pop\n        /* \"#utility.yul\":8421:8787   */\n      swap2\n      swap1\n      pop\n      jump\t// out\n        /* \"#utility.yul\":8793:9212   */\n    tag_76:\n        /* \"#utility.yul\":8959:8963   */\n      0x00\n        /* \"#utility.yul\":8997:8999   */\n      0x20\n        /* \"#utility.yul\":8986:8995   */\n      dup3\n        /* \"#utility.yul\":8982:9000   */\n      add\n        /* \"#utility.yul\":8974:9000   */\n      swap1\n      pop\n        /* \"#utility.yul\":9046:9055   */\n      dup2\n        /* \"#utility.yul\":9040:9044   */\n      dup2\n        /* \"#utility.yul\":9036:9056   */\n      sub\n        /* \"#utility.yul\":9032:9033   */\n      0x00\n        /* \"#utility.yul\":9021:9030   */\n      dup4\n        /* \"#utility.yul\":9017:9034   */\n      add\n        /* \"#utility.yul\":9010:9057   */\n      mstore\n        /* \"#utility.yul\":9074:9205   */\n      tag_212\n        /* \"#utility.yul\":9200:9204   */\n      dup2\n        /* \"#utility.yul\":9074:9205   */\n      tag_117\n      jump\t// in\n    tag_212:\n        /* \"#utility.yul\":9066:9205   */\n      swap1\n      pop\n        /* \"#utility.yul\":8793:9212   */\n      swap2\n      swap1\n      pop\n      jump\t// out\n        /* \"#utility.yul\":9218:9628   */\n    tag_82:\n        /* \"#utility.yul\":9258:9265   */\n      0x00\n        /* \"#utility.yul\":9281:9301   */\n      tag_214\n        /* \"#utility.yul\":9299:9300   */\n      dup3\n        /* \"#utility.yul\":9281:9301   */\n      tag_90\n      jump\t// in\n    tag_214:\n        /* \"#utility.yul\":9276:9301   */\n      swap2\n      pop\n        /* \"#utility.yul\":9315:9335   */\n      tag_215\n        /* \"#utility.yul\":9333:9334   */\n      dup4\n        /* \"#utility.yul\":9315:9335   */\n      tag_90\n      jump\t// in\n    tag_215:\n        /* \"#utility.yul\":9310:9335   */\n      swap3\n      pop\n        /* \"#utility.yul\":9370:9371   */\n      dup3\n        /* \"#utility.yul\":9367:9368   */\n      dup3\n        /* \"#utility.yul\":9363:9372   */\n      mul\n        /* \"#utility.yul\":9392:9422   */\n      tag_216\n        /* \"#utility.yul\":9410:9421   */\n      dup2\n        /* \"#utility.yul\":9392:9422   */\n      tag_90\n      jump\t// in\n    tag_216:\n        /* \"#utility.yul\":9381:9422   */\n      swap2\n      pop\n        /* \"#utility.yul\":9571:9572   */\n      dup3\n        /* \"#utility.yul\":9562:9569   */\n      dup3\n        /* \"#utility.yul\":9558:9573   */\n      div\n        /* \"#utility.yul\":9555:9556   */\n      dup5\n        /* \"#utility.yul\":9552:9574   */\n      eq\n        /* \"#utility.yul\":9532:9533   */\n      dup4\n        /* \"#utility.yul\":9525:9534   */\n      iszero\n        /* \"#utility.yul\":9505:9588   */\n      or\n        /* \"#utility.yul\":9482:9621   */\n      tag_217\n      jumpi\n        /* \"#utility.yul\":9601:9619   */\n      tag_218\n      tag_107\n      jump\t// in\n    tag_218:\n        /* \"#utility.yul\":9482:9621   */\n    tag_217:\n        /* \"#utility.yul\":9266:9628   */\n      pop\n        /* \"#utility.yul\":9218:9628   */\n      swap3\n      swap2\n      pop\n      pop\n      jump\t// out\n        /* \"#utility.yul\":9634:9814   */\n    tag_118:\n        /* \"#utility.yul\":9682:9759   */\n      0x4e487b7100000000000000000000000000000000000000000000000000000000\n        /* \"#utility.yul\":9679:9680   */\n      0x00\n        /* \"#utility.yul\":9672:9760   */\n      mstore\n        /* \"#utility.yul\":9779:9783   */\n      0x12\n        /* \"#utility.yul\":9776:9777   */\n      0x04\n        /* \"#utility.yul\":9769:9784   */\n      mstore\n        /* \"#utility.yul\":9803:9807   */\n      0x24\n        /* \"#utility.yul\":9800:9801   */\n      0x00\n        /* \"#utility.yul\":9793:9808   */\n      revert\n        /* \"#utility.yul\":9820:10005   */\n    tag_84:\n        /* \"#utility.yul\":9860:9861   */\n      0x00\n        /* \"#utility.yul\":9877:9897   */\n      tag_221\n        /* \"#utility.yul\":9895:9896   */\n      dup3\n        /* \"#utility.yul\":9877:9897   */\n      tag_90\n      jump\t// in\n    tag_221:\n        /* \"#utility.yul\":9872:9897   */\n      swap2\n      pop\n        /* \"#utility.yul\":9911:9931   */\n      tag_222\n        /* \"#utility.yul\":9929:9930   */\n      dup4\n        /* \"#utility.yul\":9911:9931   */\n      tag_90\n      jump\t// in\n    tag_222:\n        /* \"#utility.yul\":9906:9931   */\n      swap3\n      pop\n        /* \"#utility.yul\":9950:9951   */\n      dup3\n        /* \"#utility.yul\":9940:9975   */\n      tag_223\n      jumpi\n        /* \"#utility.yul\":9955:9973   */\n      tag_224\n      tag_118\n      jump\t// in\n    tag_224:\n        /* \"#utility.yul\":9940:9975   */\n    tag_223:\n        /* \"#utility.yul\":9997:9998   */\n      dup3\n        /* \"#utility.yul\":9994:9995   */\n      dup3\n        /* \"#utility.yul\":9990:9999   */\n      div\n        /* \"#utility.yul\":9985:9999   */\n      swap1\n      pop\n        /* \"#utility.yul\":9820:10005   */\n      swap3\n      swap2\n      pop\n      pop\n      jump\t// out\n        /* \"#utility.yul\":10011:10205   */\n    tag_86:\n        /* \"#utility.yul\":10051:10055   */\n      0x00\n        /* \"#utility.yul\":10071:10091   */\n      tag_226\n        /* \"#utility.yul\":10089:10090   */\n      dup3\n        /* \"#utility.yul\":10071:10091   */\n      tag_90\n      jump\t// in\n    tag_226:\n        /* \"#utility.yul\":10066:10091   */\n      swap2\n      pop\n        /* \"#utility.yul\":10105:10125   */\n      tag_227\n        /* \"#utility.yul\":10123:10124   */\n      dup4\n        /* \"#utility.yul\":10105:10125   */\n      tag_90\n      jump\t// in\n    tag_227:\n        /* \"#utility.yul\":10100:10125   */\n      swap3\n      pop\n        /* \"#utility.yul\":10149:10150   */\n      dup3\n        /* \"#utility.yul\":10146:10147   */\n      dup3\n        /* \"#utility.yul\":10142:10151   */\n      sub\n        /* \"#utility.yul\":10134:10151   */\n      swap1\n      pop\n        /* \"#utility.yul\":10173:10174   */\n      dup2\n        /* \"#utility.yul\":10167:10171   */\n      dup2\n        /* \"#utility.yul\":10164:10175   */\n      gt\n        /* \"#utility.yul\":10161:10198   */\n      iszero\n      tag_228\n      jumpi\n        /* \"#utility.yul\":10178:10196   */\n      tag_229\n      tag_107\n      jump\t// in\n    tag_229:\n        /* \"#utility.yul\":10161:10198   */\n    tag_228:\n        /* \"#utility.yul\":10011:10205   */\n      swap3\n      swap2\n      pop\n      pop\n      jump\t// out\n\n    auxdata: 0xa2646970667358221220d2f03e0fd5882f32e728f0fc5c6b9c039fda1dd9be70a22f8da77b55e9e2163964736f6c634300081a0033\n}\n",
				"bytecode": {
					"linkReferences": {},
					"object": "608060405260405161149d38038061149d833981810160405281019061002591906105e3565b8051825114610069576040517f08c379a0000000000000000000000000000000000000000000000000000000008152600401610060906106d9565b60405180910390fd5b5f8251116100ac576040517f08c379a00000000000000000000000000000000000000000000000000000000081526004016100a390610741565b60405180910390fd5b5f5b8251811015610108576100fb8382815181106100cd576100cc61075f565b5b60200260200101518383815181106100e8576100e761075f565b5b602002602001015161011060201b60201c565b80806001019150506100ae565b5050506109b5565b5f73ffffffffffffffffffffffffffffffffffffffff168273ffffffffffffffffffffffffffffffffffffffff160361017e576040517f08c379a0000000000000000000000000000000000000000000000000000000008152600401610175906107fc565b60405180910390fd5b5f81116101c0576040517f08c379a00000000000000000000000000000000000000000000000000000000081526004016101b79061088a565b60405180910390fd5b5f60025f8473ffffffffffffffffffffffffffffffffffffffff1673ffffffffffffffffffffffffffffffffffffffff1681526020019081526020015f20541461023f576040517f08c379a0000000000000000000000000000000000000000000000000000000008152600401610236906108f2565b60405180910390fd5b600482908060018154018082558091505060019003905f5260205f20015f9091909190916101000a81548173ffffffffffffffffffffffffffffffffffffffff021916908373ffffffffffffffffffffffffffffffffffffffff1602179055508060025f8473ffffffffffffffffffffffffffffffffffffffff1673ffffffffffffffffffffffffffffffffffffffff1681526020019081526020015f2081905550805f808282546102f1919061093d565b925050819055507f40c340f65e17194d14ddddb073d3c9f888e3cb52b5aae0c6c7706b4fbc905fac828260405161032992919061098e565b60405180910390a15050565b5f604051905090565b5f80fd5b5f80fd5b5f80fd5b5f601f19601f8301169050919050565b7f4e487b71000000000000000000000000000000000000000000000000000000005f52604160045260245ffd5b6103908261034a565b810181811067ffffffffffffffff821117156103af576103ae61035a565b5b80604052505050565b5f6103c1610335565b90506103cd8282610387565b919050565b5f67ffffffffffffffff8211156103ec576103eb61035a565b5b602082029050602081019050919050565b5f80fd5b5f73ffffffffffffffffffffffffffffffffffffffff82169050919050565b5f61042a82610401565b9050919050565b61043a81610420565b8114610444575f80fd5b50565b5f8151905061045581610431565b92915050565b5f61046d610468846103d2565b6103b8565b905080838252602082019050602084028301858111156104905761048f6103fd565b5b835b818110156104b957806104a58882610447565b845260208401935050602081019050610492565b5050509392505050565b5f82601f8301126104d7576104d6610346565b5b81516104e784826020860161045b565b91505092915050565b5f67ffffffffffffffff82111561050a5761050961035a565b5b602082029050602081019050919050565b5f819050919050565b61052d8161051b565b8114610537575f80fd5b50565b5f8151905061054881610524565b92915050565b5f61056061055b846104f0565b6103b8565b90508083825260208201905060208402830185811115610583576105826103fd565b5b835b818110156105ac5780610598888261053a565b845260208401935050602081019050610585565b5050509392505050565b5f82601f8301126105ca576105c9610346565b5b81516105da84826020860161054e565b91505092915050565b5f80604083850312156105f9576105f861033e565b5b5f83015167ffffffffffffffff81111561061657610615610342565b5b610622858286016104c3565b925050602083015167ffffffffffffffff81111561064357610642610342565b5b61064f858286016105b6565b9150509250929050565b5f82825260208201905092915050565b7f546865206c656e677468206f66207061796565735f20616e64207368617265735f8201527f5f206973206e6f7420657175616c2e0000000000000000000000000000000000602082015250565b5f6106c3602f83610659565b91506106ce82610669565b604082019050919050565b5f6020820190508181035f8301526106f0816106b7565b9050919050565b7f6e6f2070617965657300000000000000000000000000000000000000000000005f82015250565b5f61072b600983610659565b9150610736826106f7565b602082019050919050565b5f6020820190508181035f8301526107588161071f565b9050919050565b7f4e487b71000000000000000000000000000000000000000000000000000000005f52603260045260245ffd5b7f546865206163636f756e742063616e2774206265207a65726f206164647265735f8201527f732e000000000000000000000000000000000000000000000000000000000000602082015250565b5f6107e6602283610659565b91506107f18261078c565b604082019050919050565b5f6020820190508181035f830152610813816107da565b9050919050565b7f546865206163636f756e745368617265206d75737420626520677265617465725f8201527f207468616e207a65726f00000000000000000000000000000000000000000000602082015250565b5f610874602a83610659565b915061087f8261081a565b604082019050919050565b5f6020820190508181035f8301526108a181610868565b9050919050565b7f546865206163636f756e742063616e2774206265206475706c696361746500005f82015250565b5f6108dc601e83610659565b91506108e7826108a8565b602082019050919050565b5f6020820190508181035f830152610909816108d0565b9050919050565b7f4e487b71000000000000000000000000000000000000000000000000000000005f52601160045260245ffd5b5f6109478261051b565b91506109528361051b565b925082820190508082111561096a57610969610910565b5b92915050565b61097981610420565b82525050565b6109888161051b565b82525050565b5f6040820190506109a15f830185610970565b6109ae602083018461097f565b9392505050565b610adb806109c25f395ff3fe608060405260043610610073575f3560e01c80639852595c1161004d5780639852595c1461017c578063a3f8eace146101b8578063ce7c2ac2146101f4578063e33b7de314610230576100b3565b806319165587146100ee5780633a98ef391461011657806363037b0c14610140576100b3565b366100b3577f6ef95f06320e7a25a04a175ca677b7052bdd97131872c2192525a629f51be77033346040516100a99291906105fc565b60405180910390a1005b7f6ef95f06320e7a25a04a175ca677b7052bdd97131872c2192525a629f51be77033346040516100e49291906105fc565b60405180910390a1005b3480156100f9575f80fd5b50610114600480360381019061010f9190610662565b61025a565b005b348015610121575f80fd5b5061012a61047e565b604051610137919061068d565b60405180910390f35b34801561014b575f80fd5b50610166600480360381019061016191906106d0565b610483565b60405161017391906106fb565b60405180910390f35b348015610187575f80fd5b506101a2600480360381019061019d919061073e565b6104be565b6040516101af919061068d565b60405180910390f35b3480156101c3575f80fd5b506101de60048036038101906101d9919061073e565b6104d3565b6040516101eb919061068d565b60405180910390f35b3480156101ff575f80fd5b5061021a6004803603810190610215919061073e565b61058a565b604051610227919061068d565b60405180910390f35b34801561023b575f80fd5b5061024461059f565b604051610251919061068d565b60405180910390f35b5f60025f8373ffffffffffffffffffffffffffffffffffffffff1673ffffffffffffffffffffffffffffffffffffffff1681526020019081526020015f2054116102d9576040517f08c379a00000000000000000000000000000000000000000000000000000000081526004016102d0906107c3565b60405180910390fd5b5f6102e3826104d3565b90505f8111610327576040517f08c379a000000000000000000000000000000000000000000000000000000000815260040161031e9061082b565b60405180910390fd5b8060035f8473ffffffffffffffffffffffffffffffffffffffff1673ffffffffffffffffffffffffffffffffffffffff1681526020019081526020015f205f8282546103739190610876565b925050819055508060015f82825461038b9190610876565b925050819055505f8273ffffffffffffffffffffffffffffffffffffffff16826040516103b7906108d6565b5f6040518083038185875af1925050503d805f81146103f1576040519150601f19603f3d011682016040523d82523d5f602084013e6103f6565b606091505b50509050801561043e577fdf20fd1e76bc69d672e4814fafb2c449bba3a5369d8359adf9e05e6fde87b0568383604051610431929190610945565b60405180910390a1610479565b6040517f08c379a0000000000000000000000000000000000000000000000000000000008152600401610470906109b6565b60405180910390fd5b505050565b5f5481565b60048181548110610492575f80fd5b905f5260205f20015f915054906101000a900473ffffffffffffffffffffffffffffffffffffffff1681565b6003602052805f5260405f205f915090505481565b5f80600154476104e39190610876565b905060035f8473ffffffffffffffffffffffffffffffffffffffff1673ffffffffffffffffffffffffffffffffffffffff1681526020019081526020015f20545f5460025f8673ffffffffffffffffffffffffffffffffffffffff1673ffffffffffffffffffffffffffffffffffffffff1681526020019081526020015f20548361056e91906109d4565b6105789190610a42565b6105829190610a72565b915050919050565b6002602052805f5260405f205f915090505481565b60015481565b5f73ffffffffffffffffffffffffffffffffffffffff82169050919050565b5f6105ce826105a5565b9050919050565b6105de816105c4565b82525050565b5f819050919050565b6105f6816105e4565b82525050565b5f60408201905061060f5f8301856105d5565b61061c60208301846105ed565b9392505050565b5f80fd5b5f610631826105a5565b9050919050565b61064181610627565b811461064b575f80fd5b50565b5f8135905061065c81610638565b92915050565b5f6020828403121561067757610676610623565b5b5f6106848482850161064e565b91505092915050565b5f6020820190506106a05f8301846105ed565b92915050565b6106af816105e4565b81146106b9575f80fd5b50565b5f813590506106ca816106a6565b92915050565b5f602082840312156106e5576106e4610623565b5b5f6106f2848285016106bc565b91505092915050565b5f60208201905061070e5f8301846105d5565b92915050565b61071d816105c4565b8114610727575f80fd5b50565b5f8135905061073881610714565b92915050565b5f6020828403121561075357610752610623565b5b5f6107608482850161072a565b91505092915050565b5f82825260208201905092915050565b7f546865206163636f756e7420686173206e6f74207061792073686172657300005f82015250565b5f6107ad601e83610769565b91506107b882610779565b602082019050919050565b5f6020820190508181035f8301526107da816107a1565b9050919050565b7f496e73756666696369656e74206163636f756e74206c696d69740000000000005f82015250565b5f610815601a83610769565b9150610820826107e1565b602082019050919050565b5f6020820190508181035f83015261084281610809565b9050919050565b7f4e487b71000000000000000000000000000000000000000000000000000000005f52601160045260245ffd5b5f610880826105e4565b915061088b836105e4565b92508282019050808211156108a3576108a2610849565b5b92915050565b5f81905092915050565b50565b5f6108c15f836108a9565b91506108cc826108b3565b5f82019050919050565b5f6108e0826108b6565b9150819050919050565b5f819050919050565b5f61090d610908610903846105a5565b6108ea565b6105a5565b9050919050565b5f61091e826108f3565b9050919050565b5f61092f82610914565b9050919050565b61093f81610925565b82525050565b5f6040820190506109585f830185610936565b61096560208301846105ed565b9392505050565b7f5472616e73666572206661696c656400000000000000000000000000000000005f82015250565b5f6109a0600f83610769565b91506109ab8261096c565b602082019050919050565b5f6020820190508181035f8301526109cd81610994565b9050919050565b5f6109de826105e4565b91506109e9836105e4565b92508282026109f7816105e4565b91508282048414831517610a0e57610a0d610849565b5b5092915050565b7f4e487b71000000000000000000000000000000000000000000000000000000005f52601260045260245ffd5b5f610a4c826105e4565b9150610a57836105e4565b925082610a6757610a66610a15565b5b828204905092915050565b5f610a7c826105e4565b9150610a87836105e4565b9250828203905081811115610a9f57610a9e610849565b5b9291505056fea2646970667358221220d2f03e0fd5882f32e728f0fc5c6b9c039fda1dd9be70a22f8da77b55e9e2163964736f6c634300081a0033",
					"opcodes": "PUSH1 0x80 PUSH1 0x40 MSTORE PUSH1 0x40 MLOAD PUSH2 0x149D CODESIZE SUB DUP1 PUSH2 0x149D DUP4 CODECOPY DUP2 DUP2 ADD PUSH1 0x40 MSTORE DUP2 ADD SWAP1 PUSH2 0x25 SWAP2 SWAP1 PUSH2 0x5E3 JUMP JUMPDEST DUP1 MLOAD DUP3 MLOAD EQ PUSH2 0x69 JUMPI PUSH1 0x40 MLOAD PUSH32 0x8C379A000000000000000000000000000000000000000000000000000000000 DUP2 MSTORE PUSH1 0x4 ADD PUSH2 0x60 SWAP1 PUSH2 0x6D9 JUMP JUMPDEST PUSH1 0x40 MLOAD DUP1 SWAP2 SUB SWAP1 REVERT JUMPDEST PUSH0 DUP3 MLOAD GT PUSH2 0xAC JUMPI PUSH1 0x40 MLOAD PUSH32 0x8C379A000000000000000000000000000000000000000000000000000000000 DUP2 MSTORE PUSH1 0x4 ADD PUSH2 0xA3 SWAP1 PUSH2 0x741 JUMP JUMPDEST PUSH1 0x40 MLOAD DUP1 SWAP2 SUB SWAP1 REVERT JUMPDEST PUSH0 JUMPDEST DUP3 MLOAD DUP2 LT ISZERO PUSH2 0x108 JUMPI PUSH2 0xFB DUP4 DUP3 DUP2 MLOAD DUP2 LT PUSH2 0xCD JUMPI PUSH2 0xCC PUSH2 0x75F JUMP JUMPDEST JUMPDEST PUSH1 0x20 MUL PUSH1 0x20 ADD ADD MLOAD DUP4 DUP4 DUP2 MLOAD DUP2 LT PUSH2 0xE8 JUMPI PUSH2 0xE7 PUSH2 0x75F JUMP JUMPDEST JUMPDEST PUSH1 0x20 MUL PUSH1 0x20 ADD ADD MLOAD PUSH2 0x110 PUSH1 0x20 SHL PUSH1 0x20 SHR JUMP JUMPDEST DUP1 DUP1 PUSH1 0x1 ADD SWAP2 POP POP PUSH2 0xAE JUMP JUMPDEST POP POP POP PUSH2 0x9B5 JUMP JUMPDEST PUSH0 PUSH20 0xFFFFFFFFFFFFFFFFFFFFFFFFFFFFFFFFFFFFFFFF AND DUP3 PUSH20 0xFFFFFFFFFFFFFFFFFFFFFFFFFFFFFFFFFFFFFFFF AND SUB PUSH2 0x17E JUMPI PUSH1 0x40 MLOAD PUSH32 0x8C379A000000000000000000000000000000000000000000000000000000000 DUP2 MSTORE PUSH1 0x4 ADD PUSH2 0x175 SWAP1 PUSH2 0x7FC JUMP JUMPDEST PUSH1 0x40 MLOAD DUP1 SWAP2 SUB SWAP1 REVERT JUMPDEST PUSH0 DUP2 GT PUSH2 0x1C0 JUMPI PUSH1 0x40 MLOAD PUSH32 0x8C379A000000000000000000000000000000000000000000000000000000000 DUP2 MSTORE PUSH1 0x4 ADD PUSH2 0x1B7 SWAP1 PUSH2 0x88A JUMP JUMPDEST PUSH1 0x40 MLOAD DUP1 SWAP2 SUB SWAP1 REVERT JUMPDEST PUSH0 PUSH1 0x2 PUSH0 DUP5 PUSH20 0xFFFFFFFFFFFFFFFFFFFFFFFFFFFFFFFFFFFFFFFF AND PUSH20 0xFFFFFFFFFFFFFFFFFFFFFFFFFFFFFFFFFFFFFFFF AND DUP2 MSTORE PUSH1 0x20 ADD SWAP1 DUP2 MSTORE PUSH1 0x20 ADD PUSH0 KECCAK256 SLOAD EQ PUSH2 0x23F JUMPI PUSH1 0x40 MLOAD PUSH32 0x8C379A000000000000000000000000000000000000000000000000000000000 DUP2 MSTORE PUSH1 0x4 ADD PUSH2 0x236 SWAP1 PUSH2 0x8F2 JUMP JUMPDEST PUSH1 0x40 MLOAD DUP1 SWAP2 SUB SWAP1 REVERT JUMPDEST PUSH1 0x4 DUP3 SWAP1 DUP1 PUSH1 0x1 DUP2 SLOAD ADD DUP1 DUP3 SSTORE DUP1 SWAP2 POP POP PUSH1 0x1 SWAP1 SUB SWAP1 PUSH0 MSTORE PUSH1 0x20 PUSH0 KECCAK256 ADD PUSH0 SWAP1 SWAP2 SWAP1 SWAP2 SWAP1 SWAP2 PUSH2 0x100 EXP DUP2 SLOAD DUP2 PUSH20 0xFFFFFFFFFFFFFFFFFFFFFFFFFFFFFFFFFFFFFFFF MUL NOT AND SWAP1 DUP4 PUSH20 0xFFFFFFFFFFFFFFFFFFFFFFFFFFFFFFFFFFFFFFFF AND MUL OR SWAP1 SSTORE POP DUP1 PUSH1 0x2 PUSH0 DUP5 PUSH20 0xFFFFFFFFFFFFFFFFFFFFFFFFFFFFFFFFFFFFFFFF AND PUSH20 0xFFFFFFFFFFFFFFFFFFFFFFFFFFFFFFFFFFFFFFFF AND DUP2 MSTORE PUSH1 0x20 ADD SWAP1 DUP2 MSTORE PUSH1 0x20 ADD PUSH0 KECCAK256 DUP2 SWAP1 SSTORE POP DUP1 PUSH0 DUP1 DUP3 DUP3 SLOAD PUSH2 0x2F1 SWAP2 SWAP1 PUSH2 0x93D JUMP JUMPDEST SWAP3 POP POP DUP2 SWAP1 SSTORE POP PUSH32 0x40C340F65E17194D14DDDDB073D3C9F888E3CB52B5AAE0C6C7706B4FBC905FAC DUP3 DUP3 PUSH1 0x40 MLOAD PUSH2 0x329 SWAP3 SWAP2 SWAP1 PUSH2 0x98E JUMP JUMPDEST PUSH1 0x40 MLOAD DUP1 SWAP2 SUB SWAP1 LOG1 POP POP JUMP JUMPDEST PUSH0 PUSH1 0x40 MLOAD SWAP1 POP SWAP1 JUMP JUMPDEST PUSH0 DUP1 REVERT JUMPDEST PUSH0 DUP1 REVERT JUMPDEST PUSH0 DUP1 REVERT JUMPDEST PUSH0 PUSH1 0x1F NOT PUSH1 0x1F DUP4 ADD AND SWAP1 POP SWAP2 SWAP1 POP JUMP JUMPDEST PUSH32 0x4E487B7100000000000000000000000000000000000000000000000000000000 PUSH0 MSTORE PUSH1 0x41 PUSH1 0x4 MSTORE PUSH1 0x24 PUSH0 REVERT JUMPDEST PUSH2 0x390 DUP3 PUSH2 0x34A JUMP JUMPDEST DUP2 ADD DUP2 DUP2 LT PUSH8 0xFFFFFFFFFFFFFFFF DUP3 GT OR ISZERO PUSH2 0x3AF JUMPI PUSH2 0x3AE PUSH2 0x35A JUMP JUMPDEST JUMPDEST DUP1 PUSH1 0x40 MSTORE POP POP POP JUMP JUMPDEST PUSH0 PUSH2 0x3C1 PUSH2 0x335 JUMP JUMPDEST SWAP1 POP PUSH2 0x3CD DUP3 DUP3 PUSH2 0x387 JUMP JUMPDEST SWAP2 SWAP1 POP JUMP JUMPDEST PUSH0 PUSH8 0xFFFFFFFFFFFFFFFF DUP3 GT ISZERO PUSH2 0x3EC JUMPI PUSH2 0x3EB PUSH2 0x35A JUMP JUMPDEST JUMPDEST PUSH1 0x20 DUP3 MUL SWAP1 POP PUSH1 0x20 DUP2 ADD SWAP1 POP SWAP2 SWAP1 POP JUMP JUMPDEST PUSH0 DUP1 REVERT JUMPDEST PUSH0 PUSH20 0xFFFFFFFFFFFFFFFFFFFFFFFFFFFFFFFFFFFFFFFF DUP3 AND SWAP1 POP SWAP2 SWAP1 POP JUMP JUMPDEST PUSH0 PUSH2 0x42A DUP3 PUSH2 0x401 JUMP JUMPDEST SWAP1 POP SWAP2 SWAP1 POP JUMP JUMPDEST PUSH2 0x43A DUP2 PUSH2 0x420 JUMP JUMPDEST DUP2 EQ PUSH2 0x444 JUMPI PUSH0 DUP1 REVERT JUMPDEST POP JUMP JUMPDEST PUSH0 DUP2 MLOAD SWAP1 POP PUSH2 0x455 DUP2 PUSH2 0x431 JUMP JUMPDEST SWAP3 SWAP2 POP POP JUMP JUMPDEST PUSH0 PUSH2 0x46D PUSH2 0x468 DUP5 PUSH2 0x3D2 JUMP JUMPDEST PUSH2 0x3B8 JUMP JUMPDEST SWAP1 POP DUP1 DUP4 DUP3 MSTORE PUSH1 0x20 DUP3 ADD SWAP1 POP PUSH1 0x20 DUP5 MUL DUP4 ADD DUP6 DUP2 GT ISZERO PUSH2 0x490 JUMPI PUSH2 0x48F PUSH2 0x3FD JUMP JUMPDEST JUMPDEST DUP4 JUMPDEST DUP2 DUP2 LT ISZERO PUSH2 0x4B9 JUMPI DUP1 PUSH2 0x4A5 DUP9 DUP3 PUSH2 0x447 JUMP JUMPDEST DUP5 MSTORE PUSH1 0x20 DUP5 ADD SWAP4 POP POP PUSH1 0x20 DUP2 ADD SWAP1 POP PUSH2 0x492 JUMP JUMPDEST POP POP POP SWAP4 SWAP3 POP POP POP JUMP JUMPDEST PUSH0 DUP3 PUSH1 0x1F DUP4 ADD SLT PUSH2 0x4D7 JUMPI PUSH2 0x4D6 PUSH2 0x346 JUMP JUMPDEST JUMPDEST DUP2 MLOAD PUSH2 0x4E7 DUP5 DUP3 PUSH1 0x20 DUP7 ADD PUSH2 0x45B JUMP JUMPDEST SWAP2 POP POP SWAP3 SWAP2 POP POP JUMP JUMPDEST PUSH0 PUSH8 0xFFFFFFFFFFFFFFFF DUP3 GT ISZERO PUSH2 0x50A JUMPI PUSH2 0x509 PUSH2 0x35A JUMP JUMPDEST JUMPDEST PUSH1 0x20 DUP3 MUL SWAP1 POP PUSH1 0x20 DUP2 ADD SWAP1 POP SWAP2 SWAP1 POP JUMP JUMPDEST PUSH0 DUP2 SWAP1 POP SWAP2 SWAP1 POP JUMP JUMPDEST PUSH2 0x52D DUP2 PUSH2 0x51B JUMP JUMPDEST DUP2 EQ PUSH2 0x537 JUMPI PUSH0 DUP1 REVERT JUMPDEST POP JUMP JUMPDEST PUSH0 DUP2 MLOAD SWAP1 POP PUSH2 0x548 DUP2 PUSH2 0x524 JUMP JUMPDEST SWAP3 SWAP2 POP POP JUMP JUMPDEST PUSH0 PUSH2 0x560 PUSH2 0x55B DUP5 PUSH2 0x4F0 JUMP JUMPDEST PUSH2 0x3B8 JUMP JUMPDEST SWAP1 POP DUP1 DUP4 DUP3 MSTORE PUSH1 0x20 DUP3 ADD SWAP1 POP PUSH1 0x20 DUP5 MUL DUP4 ADD DUP6 DUP2 GT ISZERO PUSH2 0x583 JUMPI PUSH2 0x582 PUSH2 0x3FD JUMP JUMPDEST JUMPDEST DUP4 JUMPDEST DUP2 DUP2 LT ISZERO PUSH2 0x5AC JUMPI DUP1 PUSH2 0x598 DUP9 DUP3 PUSH2 0x53A JUMP JUMPDEST DUP5 MSTORE PUSH1 0x20 DUP5 ADD SWAP4 POP POP PUSH1 0x20 DUP2 ADD SWAP1 POP PUSH2 0x585 JUMP JUMPDEST POP POP POP SWAP4 SWAP3 POP POP POP JUMP JUMPDEST PUSH0 DUP3 PUSH1 0x1F DUP4 ADD SLT PUSH2 0x5CA JUMPI PUSH2 0x5C9 PUSH2 0x346 JUMP JUMPDEST JUMPDEST DUP2 MLOAD PUSH2 0x5DA DUP5 DUP3 PUSH1 0x20 DUP7 ADD PUSH2 0x54E JUMP JUMPDEST SWAP2 POP POP SWAP3 SWAP2 POP POP JUMP JUMPDEST PUSH0 DUP1 PUSH1 0x40 DUP4 DUP6 SUB SLT ISZERO PUSH2 0x5F9 JUMPI PUSH2 0x5F8 PUSH2 0x33E JUMP JUMPDEST JUMPDEST PUSH0 DUP4 ADD MLOAD PUSH8 0xFFFFFFFFFFFFFFFF DUP2 GT ISZERO PUSH2 0x616 JUMPI PUSH2 0x615 PUSH2 0x342 JUMP JUMPDEST JUMPDEST PUSH2 0x622 DUP6 DUP3 DUP7 ADD PUSH2 0x4C3 JUMP JUMPDEST SWAP3 POP POP PUSH1 0x20 DUP4 ADD MLOAD PUSH8 0xFFFFFFFFFFFFFFFF DUP2 GT ISZERO PUSH2 0x643 JUMPI PUSH2 0x642 PUSH2 0x342 JUMP JUMPDEST JUMPDEST PUSH2 0x64F DUP6 DUP3 DUP7 ADD PUSH2 0x5B6 JUMP JUMPDEST SWAP2 POP POP SWAP3 POP SWAP3 SWAP1 POP JUMP JUMPDEST PUSH0 DUP3 DUP3 MSTORE PUSH1 0x20 DUP3 ADD SWAP1 POP SWAP3 SWAP2 POP POP JUMP JUMPDEST PUSH32 0x546865206C656E677468206F66207061796565735F20616E6420736861726573 PUSH0 DUP3 ADD MSTORE PUSH32 0x5F206973206E6F7420657175616C2E0000000000000000000000000000000000 PUSH1 0x20 DUP3 ADD MSTORE POP JUMP JUMPDEST PUSH0 PUSH2 0x6C3 PUSH1 0x2F DUP4 PUSH2 0x659 JUMP JUMPDEST SWAP2 POP PUSH2 0x6CE DUP3 PUSH2 0x669 JUMP JUMPDEST PUSH1 0x40 DUP3 ADD SWAP1 POP SWAP2 SWAP1 POP JUMP JUMPDEST PUSH0 PUSH1 0x20 DUP3 ADD SWAP1 POP DUP2 DUP2 SUB PUSH0 DUP4 ADD MSTORE PUSH2 0x6F0 DUP2 PUSH2 0x6B7 JUMP JUMPDEST SWAP1 POP SWAP2 SWAP1 POP JUMP JUMPDEST PUSH32 0x6E6F207061796565730000000000000000000000000000000000000000000000 PUSH0 DUP3 ADD MSTORE POP JUMP JUMPDEST PUSH0 PUSH2 0x72B PUSH1 0x9 DUP4 PUSH2 0x659 JUMP JUMPDEST SWAP2 POP PUSH2 0x736 DUP3 PUSH2 0x6F7 JUMP JUMPDEST PUSH1 0x20 DUP3 ADD SWAP1 POP SWAP2 SWAP1 POP JUMP JUMPDEST PUSH0 PUSH1 0x20 DUP3 ADD SWAP1 POP DUP2 DUP2 SUB PUSH0 DUP4 ADD MSTORE PUSH2 0x758 DUP2 PUSH2 0x71F JUMP JUMPDEST SWAP1 POP SWAP2 SWAP1 POP JUMP JUMPDEST PUSH32 0x4E487B7100000000000000000000000000000000000000000000000000000000 PUSH0 MSTORE PUSH1 0x32 PUSH1 0x4 MSTORE PUSH1 0x24 PUSH0 REVERT JUMPDEST PUSH32 0x546865206163636F756E742063616E2774206265207A65726F20616464726573 PUSH0 DUP3 ADD MSTORE PUSH32 0x732E000000000000000000000000000000000000000000000000000000000000 PUSH1 0x20 DUP3 ADD MSTORE POP JUMP JUMPDEST PUSH0 PUSH2 0x7E6 PUSH1 0x22 DUP4 PUSH2 0x659 JUMP JUMPDEST SWAP2 POP PUSH2 0x7F1 DUP3 PUSH2 0x78C JUMP JUMPDEST PUSH1 0x40 DUP3 ADD SWAP1 POP SWAP2 SWAP1 POP JUMP JUMPDEST PUSH0 PUSH1 0x20 DUP3 ADD SWAP1 POP DUP2 DUP2 SUB PUSH0 DUP4 ADD MSTORE PUSH2 0x813 DUP2 PUSH2 0x7DA JUMP JUMPDEST SWAP1 POP SWAP2 SWAP1 POP JUMP JUMPDEST PUSH32 0x546865206163636F756E745368617265206D7573742062652067726561746572 PUSH0 DUP3 ADD MSTORE PUSH32 0x207468616E207A65726F00000000000000000000000000000000000000000000 PUSH1 0x20 DUP3 ADD MSTORE POP JUMP JUMPDEST PUSH0 PUSH2 0x874 PUSH1 0x2A DUP4 PUSH2 0x659 JUMP JUMPDEST SWAP2 POP PUSH2 0x87F DUP3 PUSH2 0x81A JUMP JUMPDEST PUSH1 0x40 DUP3 ADD SWAP1 POP SWAP2 SWAP1 POP JUMP JUMPDEST PUSH0 PUSH1 0x20 DUP3 ADD SWAP1 POP DUP2 DUP2 SUB PUSH0 DUP4 ADD MSTORE PUSH2 0x8A1 DUP2 PUSH2 0x868 JUMP JUMPDEST SWAP1 POP SWAP2 SWAP1 POP JUMP JUMPDEST PUSH32 0x546865206163636F756E742063616E2774206265206475706C69636174650000 PUSH0 DUP3 ADD MSTORE POP JUMP JUMPDEST PUSH0 PUSH2 0x8DC PUSH1 0x1E DUP4 PUSH2 0x659 JUMP JUMPDEST SWAP2 POP PUSH2 0x8E7 DUP3 PUSH2 0x8A8 JUMP JUMPDEST PUSH1 0x20 DUP3 ADD SWAP1 POP SWAP2 SWAP1 POP JUMP JUMPDEST PUSH0 PUSH1 0x20 DUP3 ADD SWAP1 POP DUP2 DUP2 SUB PUSH0 DUP4 ADD MSTORE PUSH2 0x909 DUP2 PUSH2 0x8D0 JUMP JUMPDEST SWAP1 POP SWAP2 SWAP1 POP JUMP JUMPDEST PUSH32 0x4E487B7100000000000000000000000000000000000000000000000000000000 PUSH0 MSTORE PUSH1 0x11 PUSH1 0x4 MSTORE PUSH1 0x24 PUSH0 REVERT JUMPDEST PUSH0 PUSH2 0x947 DUP3 PUSH2 0x51B JUMP JUMPDEST SWAP2 POP PUSH2 0x952 DUP4 PUSH2 0x51B JUMP JUMPDEST SWAP3 POP DUP3 DUP3 ADD SWAP1 POP DUP1 DUP3 GT ISZERO PUSH2 0x96A JUMPI PUSH2 0x969 PUSH2 0x910 JUMP JUMPDEST JUMPDEST SWAP3 SWAP2 POP POP JUMP JUMPDEST PUSH2 0x979 DUP2 PUSH2 0x420 JUMP JUMPDEST DUP3 MSTORE POP POP JUMP JUMPDEST PUSH2 0x988 DUP2 PUSH2 0x51B JUMP JUMPDEST DUP3 MSTORE POP POP JUMP JUMPDEST PUSH0 PUSH1 0x40 DUP3 ADD SWAP1 POP PUSH2 0x9A1 PUSH0 DUP4 ADD DUP6 PUSH2 0x970 JUMP JUMPDEST PUSH2 0x9AE PUSH1 0x20 DUP4 ADD DUP5 PUSH2 0x97F JUMP JUMPDEST SWAP4 SWAP3 POP POP POP JUMP JUMPDEST PUSH2 0xADB DUP1 PUSH2 0x9C2 PUSH0 CODECOPY PUSH0 RETURN INVALID PUSH1 0x80 PUSH1 0x40 MSTORE PUSH1 0x4 CALLDATASIZE LT PUSH2 0x73 JUMPI PUSH0 CALLDATALOAD PUSH1 0xE0 SHR DUP1 PUSH4 0x9852595C GT PUSH2 0x4D JUMPI DUP1 PUSH4 0x9852595C EQ PUSH2 0x17C JUMPI DUP1 PUSH4 0xA3F8EACE EQ PUSH2 0x1B8 JUMPI DUP1 PUSH4 0xCE7C2AC2 EQ PUSH2 0x1F4 JUMPI DUP1 PUSH4 0xE33B7DE3 EQ PUSH2 0x230 JUMPI PUSH2 0xB3 JUMP JUMPDEST DUP1 PUSH4 0x19165587 EQ PUSH2 0xEE JUMPI DUP1 PUSH4 0x3A98EF39 EQ PUSH2 0x116 JUMPI DUP1 PUSH4 0x63037B0C EQ PUSH2 0x140 JUMPI PUSH2 0xB3 JUMP JUMPDEST CALLDATASIZE PUSH2 0xB3 JUMPI PUSH32 0x6EF95F06320E7A25A04A175CA677B7052BDD97131872C2192525A629F51BE770 CALLER CALLVALUE PUSH1 0x40 MLOAD PUSH2 0xA9 SWAP3 SWAP2 SWAP1 PUSH2 0x5FC JUMP JUMPDEST PUSH1 0x40 MLOAD DUP1 SWAP2 SUB SWAP1 LOG1 STOP JUMPDEST PUSH32 0x6EF95F06320E7A25A04A175CA677B7052BDD97131872C2192525A629F51BE770 CALLER CALLVALUE PUSH1 0x40 MLOAD PUSH2 0xE4 SWAP3 SWAP2 SWAP1 PUSH2 0x5FC JUMP JUMPDEST PUSH1 0x40 MLOAD DUP1 SWAP2 SUB SWAP1 LOG1 STOP JUMPDEST CALLVALUE DUP1 ISZERO PUSH2 0xF9 JUMPI PUSH0 DUP1 REVERT JUMPDEST POP PUSH2 0x114 PUSH1 0x4 DUP1 CALLDATASIZE SUB DUP2 ADD SWAP1 PUSH2 0x10F SWAP2 SWAP1 PUSH2 0x662 JUMP JUMPDEST PUSH2 0x25A JUMP JUMPDEST STOP JUMPDEST CALLVALUE DUP1 ISZERO PUSH2 0x121 JUMPI PUSH0 DUP1 REVERT JUMPDEST POP PUSH2 0x12A PUSH2 0x47E JUMP JUMPDEST PUSH1 0x40 MLOAD PUSH2 0x137 SWAP2 SWAP1 PUSH2 0x68D JUMP JUMPDEST PUSH1 0x40 MLOAD DUP1 SWAP2 SUB SWAP1 RETURN JUMPDEST CALLVALUE DUP1 ISZERO PUSH2 0x14B JUMPI PUSH0 DUP1 REVERT JUMPDEST POP PUSH2 0x166 PUSH1 0x4 DUP1 CALLDATASIZE SUB DUP2 ADD SWAP1 PUSH2 0x161 SWAP2 SWAP1 PUSH2 0x6D0 JUMP JUMPDEST PUSH2 0x483 JUMP JUMPDEST PUSH1 0x40 MLOAD PUSH2 0x173 SWAP2 SWAP1 PUSH2 0x6FB JUMP JUMPDEST PUSH1 0x40 MLOAD DUP1 SWAP2 SUB SWAP1 RETURN JUMPDEST CALLVALUE DUP1 ISZERO PUSH2 0x187 JUMPI PUSH0 DUP1 REVERT JUMPDEST POP PUSH2 0x1A2 PUSH1 0x4 DUP1 CALLDATASIZE SUB DUP2 ADD SWAP1 PUSH2 0x19D SWAP2 SWAP1 PUSH2 0x73E JUMP JUMPDEST PUSH2 0x4BE JUMP JUMPDEST PUSH1 0x40 MLOAD PUSH2 0x1AF SWAP2 SWAP1 PUSH2 0x68D JUMP JUMPDEST PUSH1 0x40 MLOAD DUP1 SWAP2 SUB SWAP1 RETURN JUMPDEST CALLVALUE DUP1 ISZERO PUSH2 0x1C3 JUMPI PUSH0 DUP1 REVERT JUMPDEST POP PUSH2 0x1DE PUSH1 0x4 DUP1 CALLDATASIZE SUB DUP2 ADD SWAP1 PUSH2 0x1D9 SWAP2 SWAP1 PUSH2 0x73E JUMP JUMPDEST PUSH2 0x4D3 JUMP JUMPDEST PUSH1 0x40 MLOAD PUSH2 0x1EB SWAP2 SWAP1 PUSH2 0x68D JUMP JUMPDEST PUSH1 0x40 MLOAD DUP1 SWAP2 SUB SWAP1 RETURN JUMPDEST CALLVALUE DUP1 ISZERO PUSH2 0x1FF JUMPI PUSH0 DUP1 REVERT JUMPDEST POP PUSH2 0x21A PUSH1 0x4 DUP1 CALLDATASIZE SUB DUP2 ADD SWAP1 PUSH2 0x215 SWAP2 SWAP1 PUSH2 0x73E JUMP JUMPDEST PUSH2 0x58A JUMP JUMPDEST PUSH1 0x40 MLOAD PUSH2 0x227 SWAP2 SWAP1 PUSH2 0x68D JUMP JUMPDEST PUSH1 0x40 MLOAD DUP1 SWAP2 SUB SWAP1 RETURN JUMPDEST CALLVALUE DUP1 ISZERO PUSH2 0x23B JUMPI PUSH0 DUP1 REVERT JUMPDEST POP PUSH2 0x244 PUSH2 0x59F JUMP JUMPDEST PUSH1 0x40 MLOAD PUSH2 0x251 SWAP2 SWAP1 PUSH2 0x68D JUMP JUMPDEST PUSH1 0x40 MLOAD DUP1 SWAP2 SUB SWAP1 RETURN JUMPDEST PUSH0 PUSH1 0x2 PUSH0 DUP4 PUSH20 0xFFFFFFFFFFFFFFFFFFFFFFFFFFFFFFFFFFFFFFFF AND PUSH20 0xFFFFFFFFFFFFFFFFFFFFFFFFFFFFFFFFFFFFFFFF AND DUP2 MSTORE PUSH1 0x20 ADD SWAP1 DUP2 MSTORE PUSH1 0x20 ADD PUSH0 KECCAK256 SLOAD GT PUSH2 0x2D9 JUMPI PUSH1 0x40 MLOAD PUSH32 0x8C379A000000000000000000000000000000000000000000000000000000000 DUP2 MSTORE PUSH1 0x4 ADD PUSH2 0x2D0 SWAP1 PUSH2 0x7C3 JUMP JUMPDEST PUSH1 0x40 MLOAD DUP1 SWAP2 SUB SWAP1 REVERT JUMPDEST PUSH0 PUSH2 0x2E3 DUP3 PUSH2 0x4D3 JUMP JUMPDEST SWAP1 POP PUSH0 DUP2 GT PUSH2 0x327 JUMPI PUSH1 0x40 MLOAD PUSH32 0x8C379A000000000000000000000000000000000000000000000000000000000 DUP2 MSTORE PUSH1 0x4 ADD PUSH2 0x31E SWAP1 PUSH2 0x82B JUMP JUMPDEST PUSH1 0x40 MLOAD DUP1 SWAP2 SUB SWAP1 REVERT JUMPDEST DUP1 PUSH1 0x3 PUSH0 DUP5 PUSH20 0xFFFFFFFFFFFFFFFFFFFFFFFFFFFFFFFFFFFFFFFF AND PUSH20 0xFFFFFFFFFFFFFFFFFFFFFFFFFFFFFFFFFFFFFFFF AND DUP2 MSTORE PUSH1 0x20 ADD SWAP1 DUP2 MSTORE PUSH1 0x20 ADD PUSH0 KECCAK256 PUSH0 DUP3 DUP3 SLOAD PUSH2 0x373 SWAP2 SWAP1 PUSH2 0x876 JUMP JUMPDEST SWAP3 POP POP DUP2 SWAP1 SSTORE POP DUP1 PUSH1 0x1 PUSH0 DUP3 DUP3 SLOAD PUSH2 0x38B SWAP2 SWAP1 PUSH2 0x876 JUMP JUMPDEST SWAP3 POP POP DUP2 SWAP1 SSTORE POP PUSH0 DUP3 PUSH20 0xFFFFFFFFFFFFFFFFFFFFFFFFFFFFFFFFFFFFFFFF AND DUP3 PUSH1 0x40 MLOAD PUSH2 0x3B7 SWAP1 PUSH2 0x8D6 JUMP JUMPDEST PUSH0 PUSH1 0x40 MLOAD DUP1 DUP4 SUB DUP2 DUP6 DUP8 GAS CALL SWAP3 POP POP POP RETURNDATASIZE DUP1 PUSH0 DUP2 EQ PUSH2 0x3F1 JUMPI PUSH1 0x40 MLOAD SWAP2 POP PUSH1 0x1F NOT PUSH1 0x3F RETURNDATASIZE ADD AND DUP3 ADD PUSH1 0x40 MSTORE RETURNDATASIZE DUP3 MSTORE RETURNDATASIZE PUSH0 PUSH1 0x20 DUP5 ADD RETURNDATACOPY PUSH2 0x3F6 JUMP JUMPDEST PUSH1 0x60 SWAP2 POP JUMPDEST POP POP SWAP1 POP DUP1 ISZERO PUSH2 0x43E JUMPI PUSH32 0xDF20FD1E76BC69D672E4814FAFB2C449BBA3A5369D8359ADF9E05E6FDE87B056 DUP4 DUP4 PUSH1 0x40 MLOAD PUSH2 0x431 SWAP3 SWAP2 SWAP1 PUSH2 0x945 JUMP JUMPDEST PUSH1 0x40 MLOAD DUP1 SWAP2 SUB SWAP1 LOG1 PUSH2 0x479 JUMP JUMPDEST PUSH1 0x40 MLOAD PUSH32 0x8C379A000000000000000000000000000000000000000000000000000000000 DUP2 MSTORE PUSH1 0x4 ADD PUSH2 0x470 SWAP1 PUSH2 0x9B6 JUMP JUMPDEST PUSH1 0x40 MLOAD DUP1 SWAP2 SUB SWAP1 REVERT JUMPDEST POP POP POP JUMP JUMPDEST PUSH0 SLOAD DUP2 JUMP JUMPDEST PUSH1 0x4 DUP2 DUP2 SLOAD DUP2 LT PUSH2 0x492 JUMPI PUSH0 DUP1 REVERT JUMPDEST SWAP1 PUSH0 MSTORE PUSH1 0x20 PUSH0 KECCAK256 ADD PUSH0 SWAP2 POP SLOAD SWAP1 PUSH2 0x100 EXP SWAP1 DIV PUSH20 0xFFFFFFFFFFFFFFFFFFFFFFFFFFFFFFFFFFFFFFFF AND DUP2 JUMP JUMPDEST PUSH1 0x3 PUSH1 0x20 MSTORE DUP1 PUSH0 MSTORE PUSH1 0x40 PUSH0 KECCAK256 PUSH0 SWAP2 POP SWAP1 POP SLOAD DUP2 JUMP JUMPDEST PUSH0 DUP1 PUSH1 0x1 SLOAD SELFBALANCE PUSH2 0x4E3 SWAP2 SWAP1 PUSH2 0x876 JUMP JUMPDEST SWAP1 POP PUSH1 0x3 PUSH0 DUP5 PUSH20 0xFFFFFFFFFFFFFFFFFFFFFFFFFFFFFFFFFFFFFFFF AND PUSH20 0xFFFFFFFFFFFFFFFFFFFFFFFFFFFFFFFFFFFFFFFF AND DUP2 MSTORE PUSH1 0x20 ADD SWAP1 DUP2 MSTORE PUSH1 0x20 ADD PUSH0 KECCAK256 SLOAD PUSH0 SLOAD PUSH1 0x2 PUSH0 DUP7 PUSH20 0xFFFFFFFFFFFFFFFFFFFFFFFFFFFFFFFFFFFFFFFF AND PUSH20 0xFFFFFFFFFFFFFFFFFFFFFFFFFFFFFFFFFFFFFFFF AND DUP2 MSTORE PUSH1 0x20 ADD SWAP1 DUP2 MSTORE PUSH1 0x20 ADD PUSH0 KECCAK256 SLOAD DUP4 PUSH2 0x56E SWAP2 SWAP1 PUSH2 0x9D4 JUMP JUMPDEST PUSH2 0x578 SWAP2 SWAP1 PUSH2 0xA42 JUMP JUMPDEST PUSH2 0x582 SWAP2 SWAP1 PUSH2 0xA72 JUMP JUMPDEST SWAP2 POP POP SWAP2 SWAP1 POP JUMP JUMPDEST PUSH1 0x2 PUSH1 0x20 MSTORE DUP1 PUSH0 MSTORE PUSH1 0x40 PUSH0 KECCAK256 PUSH0 SWAP2 POP SWAP1 POP SLOAD DUP2 JUMP JUMPDEST PUSH1 0x1 SLOAD DUP2 JUMP JUMPDEST PUSH0 PUSH20 0xFFFFFFFFFFFFFFFFFFFFFFFFFFFFFFFFFFFFFFFF DUP3 AND SWAP1 POP SWAP2 SWAP1 POP JUMP JUMPDEST PUSH0 PUSH2 0x5CE DUP3 PUSH2 0x5A5 JUMP JUMPDEST SWAP1 POP SWAP2 SWAP1 POP JUMP JUMPDEST PUSH2 0x5DE DUP2 PUSH2 0x5C4 JUMP JUMPDEST DUP3 MSTORE POP POP JUMP JUMPDEST PUSH0 DUP2 SWAP1 POP SWAP2 SWAP1 POP JUMP JUMPDEST PUSH2 0x5F6 DUP2 PUSH2 0x5E4 JUMP JUMPDEST DUP3 MSTORE POP POP JUMP JUMPDEST PUSH0 PUSH1 0x40 DUP3 ADD SWAP1 POP PUSH2 0x60F PUSH0 DUP4 ADD DUP6 PUSH2 0x5D5 JUMP JUMPDEST PUSH2 0x61C PUSH1 0x20 DUP4 ADD DUP5 PUSH2 0x5ED JUMP JUMPDEST SWAP4 SWAP3 POP POP POP JUMP JUMPDEST PUSH0 DUP1 REVERT JUMPDEST PUSH0 PUSH2 0x631 DUP3 PUSH2 0x5A5 JUMP JUMPDEST SWAP1 POP SWAP2 SWAP1 POP JUMP JUMPDEST PUSH2 0x641 DUP2 PUSH2 0x627 JUMP JUMPDEST DUP2 EQ PUSH2 0x64B JUMPI PUSH0 DUP1 REVERT JUMPDEST POP JUMP JUMPDEST PUSH0 DUP2 CALLDATALOAD SWAP1 POP PUSH2 0x65C DUP2 PUSH2 0x638 JUMP JUMPDEST SWAP3 SWAP2 POP POP JUMP JUMPDEST PUSH0 PUSH1 0x20 DUP3 DUP5 SUB SLT ISZERO PUSH2 0x677 JUMPI PUSH2 0x676 PUSH2 0x623 JUMP JUMPDEST JUMPDEST PUSH0 PUSH2 0x684 DUP5 DUP3 DUP6 ADD PUSH2 0x64E JUMP JUMPDEST SWAP2 POP POP SWAP3 SWAP2 POP POP JUMP JUMPDEST PUSH0 PUSH1 0x20 DUP3 ADD SWAP1 POP PUSH2 0x6A0 PUSH0 DUP4 ADD DUP5 PUSH2 0x5ED JUMP JUMPDEST SWAP3 SWAP2 POP POP JUMP JUMPDEST PUSH2 0x6AF DUP2 PUSH2 0x5E4 JUMP JUMPDEST DUP2 EQ PUSH2 0x6B9 JUMPI PUSH0 DUP1 REVERT JUMPDEST POP JUMP JUMPDEST PUSH0 DUP2 CALLDATALOAD SWAP1 POP PUSH2 0x6CA DUP2 PUSH2 0x6A6 JUMP JUMPDEST SWAP3 SWAP2 POP POP JUMP JUMPDEST PUSH0 PUSH1 0x20 DUP3 DUP5 SUB SLT ISZERO PUSH2 0x6E5 JUMPI PUSH2 0x6E4 PUSH2 0x623 JUMP JUMPDEST JUMPDEST PUSH0 PUSH2 0x6F2 DUP5 DUP3 DUP6 ADD PUSH2 0x6BC JUMP JUMPDEST SWAP2 POP POP SWAP3 SWAP2 POP POP JUMP JUMPDEST PUSH0 PUSH1 0x20 DUP3 ADD SWAP1 POP PUSH2 0x70E PUSH0 DUP4 ADD DUP5 PUSH2 0x5D5 JUMP JUMPDEST SWAP3 SWAP2 POP POP JUMP JUMPDEST PUSH2 0x71D DUP2 PUSH2 0x5C4 JUMP JUMPDEST DUP2 EQ PUSH2 0x727 JUMPI PUSH0 DUP1 REVERT JUMPDEST POP JUMP JUMPDEST PUSH0 DUP2 CALLDATALOAD SWAP1 POP PUSH2 0x738 DUP2 PUSH2 0x714 JUMP JUMPDEST SWAP3 SWAP2 POP POP JUMP JUMPDEST PUSH0 PUSH1 0x20 DUP3 DUP5 SUB SLT ISZERO PUSH2 0x753 JUMPI PUSH2 0x752 PUSH2 0x623 JUMP JUMPDEST JUMPDEST PUSH0 PUSH2 0x760 DUP5 DUP3 DUP6 ADD PUSH2 0x72A JUMP JUMPDEST SWAP2 POP POP SWAP3 SWAP2 POP POP JUMP JUMPDEST PUSH0 DUP3 DUP3 MSTORE PUSH1 0x20 DUP3 ADD SWAP1 POP SWAP3 SWAP2 POP POP JUMP JUMPDEST PUSH32 0x546865206163636F756E7420686173206E6F7420706179207368617265730000 PUSH0 DUP3 ADD MSTORE POP JUMP JUMPDEST PUSH0 PUSH2 0x7AD PUSH1 0x1E DUP4 PUSH2 0x769 JUMP JUMPDEST SWAP2 POP PUSH2 0x7B8 DUP3 PUSH2 0x779 JUMP JUMPDEST PUSH1 0x20 DUP3 ADD SWAP1 POP SWAP2 SWAP1 POP JUMP JUMPDEST PUSH0 PUSH1 0x20 DUP3 ADD SWAP1 POP DUP2 DUP2 SUB PUSH0 DUP4 ADD MSTORE PUSH2 0x7DA DUP2 PUSH2 0x7A1 JUMP JUMPDEST SWAP1 POP SWAP2 SWAP1 POP JUMP JUMPDEST PUSH32 0x496E73756666696369656E74206163636F756E74206C696D6974000000000000 PUSH0 DUP3 ADD MSTORE POP JUMP JUMPDEST PUSH0 PUSH2 0x815 PUSH1 0x1A DUP4 PUSH2 0x769 JUMP JUMPDEST SWAP2 POP PUSH2 0x820 DUP3 PUSH2 0x7E1 JUMP JUMPDEST PUSH1 0x20 DUP3 ADD SWAP1 POP SWAP2 SWAP1 POP JUMP JUMPDEST PUSH0 PUSH1 0x20 DUP3 ADD SWAP1 POP DUP2 DUP2 SUB PUSH0 DUP4 ADD MSTORE PUSH2 0x842 DUP2 PUSH2 0x809 JUMP JUMPDEST SWAP1 POP SWAP2 SWAP1 POP JUMP JUMPDEST PUSH32 0x4E487B7100000000000000000000000000000000000000000000000000000000 PUSH0 MSTORE PUSH1 0x11 PUSH1 0x4 MSTORE PUSH1 0x24 PUSH0 REVERT JUMPDEST PUSH0 PUSH2 0x880 DUP3 PUSH2 0x5E4 JUMP JUMPDEST SWAP2 POP PUSH2 0x88B DUP4 PUSH2 0x5E4 JUMP JUMPDEST SWAP3 POP DUP3 DUP3 ADD SWAP1 POP DUP1 DUP3 GT ISZERO PUSH2 0x8A3 JUMPI PUSH2 0x8A2 PUSH2 0x849 JUMP JUMPDEST JUMPDEST SWAP3 SWAP2 POP POP JUMP JUMPDEST PUSH0 DUP2 SWAP1 POP SWAP3 SWAP2 POP POP JUMP JUMPDEST POP JUMP JUMPDEST PUSH0 PUSH2 0x8C1 PUSH0 DUP4 PUSH2 0x8A9 JUMP JUMPDEST SWAP2 POP PUSH2 0x8CC DUP3 PUSH2 0x8B3 JUMP JUMPDEST PUSH0 DUP3 ADD SWAP1 POP SWAP2 SWAP1 POP JUMP JUMPDEST PUSH0 PUSH2 0x8E0 DUP3 PUSH2 0x8B6 JUMP JUMPDEST SWAP2 POP DUP2 SWAP1 POP SWAP2 SWAP1 POP JUMP JUMPDEST PUSH0 DUP2 SWAP1 POP SWAP2 SWAP1 POP JUMP JUMPDEST PUSH0 PUSH2 0x90D PUSH2 0x908 PUSH2 0x903 DUP5 PUSH2 0x5A5 JUMP JUMPDEST PUSH2 0x8EA JUMP JUMPDEST PUSH2 0x5A5 JUMP JUMPDEST SWAP1 POP SWAP2 SWAP1 POP JUMP JUMPDEST PUSH0 PUSH2 0x91E DUP3 PUSH2 0x8F3 JUMP JUMPDEST SWAP1 POP SWAP2 SWAP1 POP JUMP JUMPDEST PUSH0 PUSH2 0x92F DUP3 PUSH2 0x914 JUMP JUMPDEST SWAP1 POP SWAP2 SWAP1 POP JUMP JUMPDEST PUSH2 0x93F DUP2 PUSH2 0x925 JUMP JUMPDEST DUP3 MSTORE POP POP JUMP JUMPDEST PUSH0 PUSH1 0x40 DUP3 ADD SWAP1 POP PUSH2 0x958 PUSH0 DUP4 ADD DUP6 PUSH2 0x936 JUMP JUMPDEST PUSH2 0x965 PUSH1 0x20 DUP4 ADD DUP5 PUSH2 0x5ED JUMP JUMPDEST SWAP4 SWAP3 POP POP POP JUMP JUMPDEST PUSH32 0x5472616E73666572206661696C65640000000000000000000000000000000000 PUSH0 DUP3 ADD MSTORE POP JUMP JUMPDEST PUSH0 PUSH2 0x9A0 PUSH1 0xF DUP4 PUSH2 0x769 JUMP JUMPDEST SWAP2 POP PUSH2 0x9AB DUP3 PUSH2 0x96C JUMP JUMPDEST PUSH1 0x20 DUP3 ADD SWAP1 POP SWAP2 SWAP1 POP JUMP JUMPDEST PUSH0 PUSH1 0x20 DUP3 ADD SWAP1 POP DUP2 DUP2 SUB PUSH0 DUP4 ADD MSTORE PUSH2 0x9CD DUP2 PUSH2 0x994 JUMP JUMPDEST SWAP1 POP SWAP2 SWAP1 POP JUMP JUMPDEST PUSH0 PUSH2 0x9DE DUP3 PUSH2 0x5E4 JUMP JUMPDEST SWAP2 POP PUSH2 0x9E9 DUP4 PUSH2 0x5E4 JUMP JUMPDEST SWAP3 POP DUP3 DUP3 MUL PUSH2 0x9F7 DUP2 PUSH2 0x5E4 JUMP JUMPDEST SWAP2 POP DUP3 DUP3 DIV DUP5 EQ DUP4 ISZERO OR PUSH2 0xA0E JUMPI PUSH2 0xA0D PUSH2 0x849 JUMP JUMPDEST JUMPDEST POP SWAP3 SWAP2 POP POP JUMP JUMPDEST PUSH32 0x4E487B7100000000000000000000000000000000000000000000000000000000 PUSH0 MSTORE PUSH1 0x12 PUSH1 0x4 MSTORE PUSH1 0x24 PUSH0 REVERT JUMPDEST PUSH0 PUSH2 0xA4C DUP3 PUSH2 0x5E4 JUMP JUMPDEST SWAP2 POP PUSH2 0xA57 DUP4 PUSH2 0x5E4 JUMP JUMPDEST SWAP3 POP DUP3 PUSH2 0xA67 JUMPI PUSH2 0xA66 PUSH2 0xA15 JUMP JUMPDEST JUMPDEST DUP3 DUP3 DIV SWAP1 POP SWAP3 SWAP2 POP POP JUMP JUMPDEST PUSH0 PUSH2 0xA7C DUP3 PUSH2 0x5E4 JUMP JUMPDEST SWAP2 POP PUSH2 0xA87 DUP4 PUSH2 0x5E4 JUMP JUMPDEST SWAP3 POP DUP3 DUP3 SUB SWAP1 POP DUP2 DUP2 GT ISZERO PUSH2 0xA9F JUMPI PUSH2 0xA9E PUSH2 0x849 JUMP JUMPDEST JUMPDEST SWAP3 SWAP2 POP POP JUMP INVALID LOG2 PUSH5 0x6970667358 0x22 SLT KECCAK256 0xD2 CREATE RETURNDATACOPY 0xF 0xD5 DUP9 0x2F ORIGIN 0xE7 0x28 CREATE 0xFC TLOAD PUSH12 0x9C039FDA1DD9BE70A22F8DA7 PUSH28 0x55E9E2163964736F6C634300081A0033000000000000000000000000 "
				},
				"gasEstimates": {
					"creation": {
						"codeDepositCost": "555800",
						"executionCost": "infinite",
						"totalCost": "infinite"
					},
					"external": {
						"": "1743",
						"payees(uint256)": "4989",
						"releasable(address)": "infinite",
						"release(address)": "infinite",
						"released(address)": "2802",
						"shares(address)": "2846",
						"totalReleased()": "2491",
						"totalShares()": "2447"
					},
					"internal": {
						"_addPayee(address,uint256)": "infinite"
					}
				},
				"methodIdentifiers": {
					"payees(uint256)": "63037b0c",
					"releasable(address)": "a3f8eace",
					"release(address)": "19165587",
					"released(address)": "9852595c",
					"shares(address)": "ce7c2ac2",
					"totalReleased()": "e33b7de3",
					"totalShares()": "3a98ef39"
				}
			},
			"storageLayout": {
				"storage": [
					{
						"astId": 22,
						"contract": "contracts/PaymentSplit.sol:PaymentSolit",
						"label": "totalShares",
						"offset": 0,
						"slot": "0",
						"type": "t_uint256"
					},
					{
						"astId": 24,
						"contract": "contracts/PaymentSplit.sol:PaymentSolit",
						"label": "totalReleased",
						"offset": 0,
						"slot": "1",
						"type": "t_uint256"
					},
					{
						"astId": 28,
						"contract": "contracts/PaymentSplit.sol:PaymentSolit",
						"label": "shares",
						"offset": 0,
						"slot": "2",
						"type": "t_mapping(t_address,t_uint256)"
					},
					{
						"astId": 32,
						"contract": "contracts/PaymentSplit.sol:PaymentSolit",
						"label": "released",
						"offset": 0,
						"slot": "3",
						"type": "t_mapping(t_address,t_uint256)"
					},
					{
						"astId": 35,
						"contract": "contracts/PaymentSplit.sol:PaymentSolit",
						"label": "payees",
						"offset": 0,
						"slot": "4",
						"type": "t_array(t_address)dyn_storage"
					}
				],
				"types": {
					"t_address": {
						"encoding": "inplace",
						"label": "address",
						"numberOfBytes": "20"
					},
					"t_array(t_address)dyn_storage": {
						"base": "t_address",
						"encoding": "dynamic_array",
						"label": "address[]",
						"numberOfBytes": "32"
					},
					"t_mapping(t_address,t_uint256)": {
						"encoding": "mapping",
						"key": "t_address",
						"label": "mapping(address => uint256)",
						"numberOfBytes": "32",
						"value": "t_uint256"
					},
					"t_uint256": {
						"encoding": "inplace",
						"label": "uint256",
						"numberOfBytes": "32"
					}
				}
			},
			"userdoc": {
				"kind": "user",
				"methods": {},
				"notice": "分账合约： 1. 在创建合约时定好分账受益人payees和每人的份额shares。 2. 份额可以是相等，也可以是其他任意比例。 3. 在该合约收到的所有ETH中，每个受益人将能够提取与其分配的份额成比例的金额。 4. 分账合约遵循Pull Payment模式，付款不会自动转入账户，而是保存在此合约中。受益人通过调用release()函数触发实际转账。",
				"version": 1
			}
		}
	}
}