{
	"contracts/FunctionOutput.sol": {
		"FunctionOutput": {
			"abi": [
				{
					"inputs": [],
					"name": "readReturn",
					"outputs": [],
					"stateMutability": "pure",
					"type": "function"
				},
				{
					"inputs": [],
					"name": "returnMulitiple",
					"outputs": [
						{
							"internalType": "uint256",
							"name": "",
							"type": "uint256"
						},
						{
							"internalType": "bool",
							"name": "",
							"type": "bool"
						},
						{
							"internalType": "uint256[3]",
							"name": "",
							"type": "uint256[3]"
						}
					],
					"stateMutability": "pure",
					"type": "function"
				},
				{
					"inputs": [],
					"name": "returnNamed",
					"outputs": [
						{
							"internalType": "uint256",
							"name": "a",
							"type": "uint256"
						},
						{
							"internalType": "bool",
							"name": "b",
							"type": "bool"
						},
						{
							"internalType": "uint256[3]",
							"name": "c",
							"type": "uint256[3]"
						}
					],
					"stateMutability": "pure",
					"type": "function"
				},
				{
					"inputs": [],
					"name": "returnNamed2",
					"outputs": [
						{
							"internalType": "uint256",
							"name": "a",
							"type": "uint256"
						},
						{
							"internalType": "bool",
							"name": "b",
							"type": "bool"
						},
						{
							"internalType": "uint256[3]",
							"name": "c",
							"type": "uint256[3]"
						}
					],
					"stateMutability": "pure",
					"type": "function"
				}
			],
			"devdoc": {
				"kind": "dev",
				"methods": {},
				"version": 1
			},
			"evm": {
				"assembly": "    /* \"contracts/FunctionOutput.sol\":60:1792  contract FunctionOutput {... */\n  mstore(0x40, 0x80)\n  callvalue\n  dup1\n  iszero\n  tag_1\n  jumpi\n  0x00\n  dup1\n  revert\ntag_1:\n  pop\n  dataSize(sub_0)\n  dup1\n  dataOffset(sub_0)\n  0x00\n  codecopy\n  0x00\n  return\nstop\n\nsub_0: assembly {\n        /* \"contracts/FunctionOutput.sol\":60:1792  contract FunctionOutput {... */\n      mstore(0x40, 0x80)\n      callvalue\n      dup1\n      iszero\n      tag_1\n      jumpi\n      0x00\n      dup1\n      revert\n    tag_1:\n      pop\n      jumpi(tag_2, lt(calldatasize, 0x04))\n      shr(0xe0, calldataload(0x00))\n      dup1\n      0x3dece511\n      eq\n      tag_3\n      jumpi\n      dup1\n      0x6f590330\n      eq\n      tag_4\n      jumpi\n      dup1\n      0x8552dc08\n      eq\n      tag_5\n      jumpi\n      dup1\n      0xdc133b61\n      eq\n      tag_6\n      jumpi\n    tag_2:\n      0x00\n      dup1\n      revert\n        /* \"contracts/FunctionOutput.sol\":321:919  function returnNamed() public pure returns(uint256 a, bool b, uint256[3] memory c) {... */\n    tag_3:\n      tag_7\n      tag_8\n      jump\t// in\n    tag_7:\n      mload(0x40)\n      tag_9\n      swap4\n      swap3\n      swap2\n      swap1\n      tag_10\n      jump\t// in\n    tag_9:\n      mload(0x40)\n      dup1\n      swap2\n      sub\n      swap1\n      return\n        /* \"contracts/FunctionOutput.sol\":1537:1789  function readReturn() public pure {... */\n    tag_4:\n      tag_11\n      tag_12\n      jump\t// in\n    tag_11:\n      stop\n        /* \"contracts/FunctionOutput.sol\":927:1505  function returnNamed2() public pure returns(uint256 a, bool b, uint256[3] memory c) {... */\n    tag_5:\n      tag_13\n      tag_14\n      jump\t// in\n    tag_13:\n      mload(0x40)\n      tag_15\n      swap4\n      swap3\n      swap2\n      swap1\n      tag_10\n      jump\t// in\n    tag_15:\n      mload(0x40)\n      dup1\n      swap2\n      sub\n      swap1\n      return\n        /* \"contracts/FunctionOutput.sol\":91:313  function returnMulitiple() public pure returns(uint256, bool, uint256[3] memory) {... */\n    tag_6:\n      tag_16\n      tag_17\n      jump\t// in\n    tag_16:\n      mload(0x40)\n      tag_18\n      swap4\n      swap3\n      swap2\n      swap1\n      tag_10\n      jump\t// in\n    tag_18:\n      mload(0x40)\n      dup1\n      swap2\n      sub\n      swap1\n      return\n        /* \"contracts/FunctionOutput.sol\":321:919  function returnNamed() public pure returns(uint256 a, bool b, uint256[3] memory c) {... */\n    tag_8:\n        /* \"contracts/FunctionOutput.sol\":364:373  uint256 a */\n      0x00\n        /* \"contracts/FunctionOutput.sol\":375:381  bool b */\n      dup1\n        /* \"contracts/FunctionOutput.sol\":383:402  uint256[3] memory c */\n      tag_19\n      tag_20\n      jump\t// in\n    tag_19:\n        /* \"contracts/FunctionOutput.sol\":858:859  2 */\n      0x02\n        /* \"contracts/FunctionOutput.sol\":854:859  a = 2 */\n      swap3\n      pop\n        /* \"contracts/FunctionOutput.sol\":874:878  true */\n      0x01\n        /* \"contracts/FunctionOutput.sol\":870:878  b = true */\n      swap2\n      pop\n        /* \"contracts/FunctionOutput.sol\":889:911  c = [uint256(1), 2, 3] */\n      mload(0x40)\n      dup1\n      0x60\n      add\n      0x40\n      mstore\n      dup1\n        /* \"contracts/FunctionOutput.sol\":902:903  1 */\n      0x01\n        /* \"contracts/FunctionOutput.sol\":889:911  c = [uint256(1), 2, 3] */\n      dup2\n      mstore\n      0x20\n      add\n        /* \"contracts/FunctionOutput.sol\":906:907  2 */\n      0x02\n        /* \"contracts/FunctionOutput.sol\":889:911  c = [uint256(1), 2, 3] */\n      dup2\n      mstore\n      0x20\n      add\n        /* \"contracts/FunctionOutput.sol\":909:910  3 */\n      0x03\n        /* \"contracts/FunctionOutput.sol\":889:911  c = [uint256(1), 2, 3] */\n      dup2\n      mstore\n      pop\n      swap1\n      pop\n        /* \"contracts/FunctionOutput.sol\":321:919  function returnNamed() public pure returns(uint256 a, bool b, uint256[3] memory c) {... */\n      swap1\n      swap2\n      swap3\n      jump\t// out\n        /* \"contracts/FunctionOutput.sol\":1537:1789  function readReturn() public pure {... */\n    tag_12:\n        /* \"contracts/FunctionOutput.sol\":1582:1591  uint256 a */\n      0x00\n        /* \"contracts/FunctionOutput.sol\":1602:1608  bool b */\n      dup1\n        /* \"contracts/FunctionOutput.sol\":1619:1638  uint256[3] memory c */\n      tag_23\n      tag_20\n      jump\t// in\n    tag_23:\n        /* \"contracts/FunctionOutput.sol\":1697:1710  returnNamed() */\n      tag_24\n        /* \"contracts/FunctionOutput.sol\":1697:1708  returnNamed */\n      tag_8\n        /* \"contracts/FunctionOutput.sol\":1697:1710  returnNamed() */\n      jump\t// in\n    tag_24:\n        /* \"contracts/FunctionOutput.sol\":1685:1710  (a, b, c) = returnNamed() */\n      dup1\n      swap4\n      pop\n      dup2\n      swap5\n      pop\n      dup3\n      swap6\n      pop\n      pop\n      pop\n      pop\n        /* \"contracts/FunctionOutput.sol\":1768:1781  returnNamed() */\n      tag_25\n        /* \"contracts/FunctionOutput.sol\":1768:1779  returnNamed */\n      tag_8\n        /* \"contracts/FunctionOutput.sol\":1768:1781  returnNamed() */\n      jump\t// in\n    tag_25:\n        /* \"contracts/FunctionOutput.sol\":1757:1781  (, b, c) = returnNamed() */\n      swap1\n      swap2\n      pop\n      dup1\n      swap3\n      pop\n      dup2\n      swap4\n      pop\n      pop\n      pop\n        /* \"contracts/FunctionOutput.sol\":1571:1789  {... */\n      pop\n      pop\n      pop\n        /* \"contracts/FunctionOutput.sol\":1537:1789  function readReturn() public pure {... */\n      jump\t// out\n        /* \"contracts/FunctionOutput.sol\":927:1505  function returnNamed2() public pure returns(uint256 a, bool b, uint256[3] memory c) {... */\n    tag_14:\n        /* \"contracts/FunctionOutput.sol\":971:980  uint256 a */\n      0x00\n        /* \"contracts/FunctionOutput.sol\":982:988  bool b */\n      dup1\n        /* \"contracts/FunctionOutput.sol\":990:1009  uint256[3] memory c */\n      tag_26\n      tag_20\n      jump\t// in\n    tag_26:\n        /* \"contracts/FunctionOutput.sol\":1469:1470  1 */\n      0x01\n        /* \"contracts/FunctionOutput.sol\":1472:1476  true */\n      dup1\n        /* \"contracts/FunctionOutput.sol\":1461:1497  return (1, true, [uint256(1), 2, 3]) */\n      mload(0x40)\n      dup1\n      0x60\n      add\n      0x40\n      mstore\n      dup1\n        /* \"contracts/FunctionOutput.sol\":1487:1488  1 */\n      0x01\n        /* \"contracts/FunctionOutput.sol\":1461:1497  return (1, true, [uint256(1), 2, 3]) */\n      dup2\n      mstore\n      0x20\n      add\n        /* \"contracts/FunctionOutput.sol\":1491:1492  2 */\n      0x02\n        /* \"contracts/FunctionOutput.sol\":1461:1497  return (1, true, [uint256(1), 2, 3]) */\n      dup2\n      mstore\n      0x20\n      add\n        /* \"contracts/FunctionOutput.sol\":1494:1495  3 */\n      0x03\n        /* \"contracts/FunctionOutput.sol\":1461:1497  return (1, true, [uint256(1), 2, 3]) */\n      dup2\n      mstore\n      pop\n      swap3\n      pop\n      swap3\n      pop\n      swap3\n      pop\n        /* \"contracts/FunctionOutput.sol\":927:1505  function returnNamed2() public pure returns(uint256 a, bool b, uint256[3] memory c) {... */\n      swap1\n      swap2\n      swap3\n      jump\t// out\n        /* \"contracts/FunctionOutput.sol\":91:313  function returnMulitiple() public pure returns(uint256, bool, uint256[3] memory) {... */\n    tag_17:\n        /* \"contracts/FunctionOutput.sol\":138:145  uint256 */\n      0x00\n        /* \"contracts/FunctionOutput.sol\":147:151  bool */\n      dup1\n        /* \"contracts/FunctionOutput.sol\":153:170  uint256[3] memory */\n      tag_28\n      tag_20\n      jump\t// in\n    tag_28:\n        /* \"contracts/FunctionOutput.sol\":277:278  1 */\n      0x01\n        /* \"contracts/FunctionOutput.sol\":280:284  true */\n      dup1\n        /* \"contracts/FunctionOutput.sol\":269:305  return (1, true, [uint256(1), 2, 3]) */\n      mload(0x40)\n      dup1\n      0x60\n      add\n      0x40\n      mstore\n      dup1\n        /* \"contracts/FunctionOutput.sol\":295:296  1 */\n      0x01\n        /* \"contracts/FunctionOutput.sol\":269:305  return (1, true, [uint256(1), 2, 3]) */\n      dup2\n      mstore\n      0x20\n      add\n        /* \"contracts/FunctionOutput.sol\":299:300  2 */\n      0x02\n        /* \"contracts/FunctionOutput.sol\":269:305  return (1, true, [uint256(1), 2, 3]) */\n      dup2\n      mstore\n      0x20\n      add\n        /* \"contracts/FunctionOutput.sol\":302:303  3 */\n      0x03\n        /* \"contracts/FunctionOutput.sol\":269:305  return (1, true, [uint256(1), 2, 3]) */\n      dup2\n      mstore\n      pop\n      swap3\n      pop\n      swap3\n      pop\n      swap3\n      pop\n        /* \"contracts/FunctionOutput.sol\":91:313  function returnMulitiple() public pure returns(uint256, bool, uint256[3] memory) {... */\n      swap1\n      swap2\n      swap3\n      jump\t// out\n    tag_20:\n      mload(0x40)\n      dup1\n      0x60\n      add\n      0x40\n      mstore\n      dup1\n      0x03\n      swap1\n      0x20\n      dup3\n      mul\n      dup1\n      calldatasize\n      dup4\n      calldatacopy\n      dup1\n      dup3\n      add\n      swap2\n      pop\n      pop\n      swap1\n      pop\n      pop\n      swap1\n      jump\t// out\n        /* \"#utility.yul\":7:84   */\n    tag_30:\n        /* \"#utility.yul\":44:51   */\n      0x00\n        /* \"#utility.yul\":73:78   */\n      dup2\n        /* \"#utility.yul\":62:78   */\n      swap1\n      pop\n        /* \"#utility.yul\":7:84   */\n      swap2\n      swap1\n      pop\n      jump\t// out\n        /* \"#utility.yul\":90:208   */\n    tag_31:\n        /* \"#utility.yul\":177:201   */\n      tag_44\n        /* \"#utility.yul\":195:200   */\n      dup2\n        /* \"#utility.yul\":177:201   */\n      tag_30\n      jump\t// in\n    tag_44:\n        /* \"#utility.yul\":172:175   */\n      dup3\n        /* \"#utility.yul\":165:202   */\n      mstore\n        /* \"#utility.yul\":90:208   */\n      pop\n      pop\n      jump\t// out\n        /* \"#utility.yul\":214:304   */\n    tag_32:\n        /* \"#utility.yul\":248:255   */\n      0x00\n        /* \"#utility.yul\":291:296   */\n      dup2\n        /* \"#utility.yul\":284:297   */\n      iszero\n        /* \"#utility.yul\":277:298   */\n      iszero\n        /* \"#utility.yul\":266:298   */\n      swap1\n      pop\n        /* \"#utility.yul\":214:304   */\n      swap2\n      swap1\n      pop\n      jump\t// out\n        /* \"#utility.yul\":310:419   */\n    tag_33:\n        /* \"#utility.yul\":391:412   */\n      tag_47\n        /* \"#utility.yul\":406:411   */\n      dup2\n        /* \"#utility.yul\":391:412   */\n      tag_32\n      jump\t// in\n    tag_47:\n        /* \"#utility.yul\":386:389   */\n      dup3\n        /* \"#utility.yul\":379:413   */\n      mstore\n        /* \"#utility.yul\":310:419   */\n      pop\n      pop\n      jump\t// out\n        /* \"#utility.yul\":425:529   */\n    tag_34:\n        /* \"#utility.yul\":490:496   */\n      0x00\n        /* \"#utility.yul\":518:522   */\n      0x03\n        /* \"#utility.yul\":508:522   */\n      swap1\n      pop\n        /* \"#utility.yul\":425:529   */\n      swap2\n      swap1\n      pop\n      jump\t// out\n        /* \"#utility.yul\":535:678   */\n    tag_35:\n        /* \"#utility.yul\":632:643   */\n      0x00\n        /* \"#utility.yul\":669:672   */\n      dup2\n        /* \"#utility.yul\":654:672   */\n      swap1\n      pop\n        /* \"#utility.yul\":535:678   */\n      swap3\n      swap2\n      pop\n      pop\n      jump\t// out\n        /* \"#utility.yul\":684:782   */\n    tag_36:\n        /* \"#utility.yul\":749:753   */\n      0x00\n        /* \"#utility.yul\":772:775   */\n      dup2\n        /* \"#utility.yul\":764:775   */\n      swap1\n      pop\n        /* \"#utility.yul\":684:782   */\n      swap2\n      swap1\n      pop\n      jump\t// out\n        /* \"#utility.yul\":788:896   */\n    tag_37:\n        /* \"#utility.yul\":865:889   */\n      tag_52\n        /* \"#utility.yul\":883:888   */\n      dup2\n        /* \"#utility.yul\":865:889   */\n      tag_30\n      jump\t// in\n    tag_52:\n        /* \"#utility.yul\":860:863   */\n      dup3\n        /* \"#utility.yul\":853:890   */\n      mstore\n        /* \"#utility.yul\":788:896   */\n      pop\n      pop\n      jump\t// out\n        /* \"#utility.yul\":902:1081   */\n    tag_38:\n        /* \"#utility.yul\":971:981   */\n      0x00\n        /* \"#utility.yul\":992:1038   */\n      tag_54\n        /* \"#utility.yul\":1034:1037   */\n      dup4\n        /* \"#utility.yul\":1026:1032   */\n      dup4\n        /* \"#utility.yul\":992:1038   */\n      tag_37\n      jump\t// in\n    tag_54:\n        /* \"#utility.yul\":1070:1074   */\n      0x20\n        /* \"#utility.yul\":1065:1068   */\n      dup4\n        /* \"#utility.yul\":1061:1075   */\n      add\n        /* \"#utility.yul\":1047:1075   */\n      swap1\n      pop\n        /* \"#utility.yul\":902:1081   */\n      swap3\n      swap2\n      pop\n      pop\n      jump\t// out\n        /* \"#utility.yul\":1087:1198   */\n    tag_39:\n        /* \"#utility.yul\":1155:1159   */\n      0x00\n        /* \"#utility.yul\":1187:1191   */\n      0x20\n        /* \"#utility.yul\":1182:1185   */\n      dup3\n        /* \"#utility.yul\":1178:1192   */\n      add\n        /* \"#utility.yul\":1170:1192   */\n      swap1\n      pop\n        /* \"#utility.yul\":1087:1198   */\n      swap2\n      swap1\n      pop\n      jump\t// out\n        /* \"#utility.yul\":1236:1930   */\n    tag_40:\n        /* \"#utility.yul\":1372:1424   */\n      tag_57\n        /* \"#utility.yul\":1418:1423   */\n      dup2\n        /* \"#utility.yul\":1372:1424   */\n      tag_34\n      jump\t// in\n    tag_57:\n        /* \"#utility.yul\":1440:1524   */\n      tag_58\n        /* \"#utility.yul\":1517:1523   */\n      dup2\n        /* \"#utility.yul\":1512:1515   */\n      dup5\n        /* \"#utility.yul\":1440:1524   */\n      tag_35\n      jump\t// in\n    tag_58:\n        /* \"#utility.yul\":1433:1524   */\n      swap3\n      pop\n        /* \"#utility.yul\":1548:1602   */\n      tag_59\n        /* \"#utility.yul\":1596:1601   */\n      dup3\n        /* \"#utility.yul\":1548:1602   */\n      tag_36\n      jump\t// in\n    tag_59:\n        /* \"#utility.yul\":1625:1632   */\n      dup1\n        /* \"#utility.yul\":1656:1657   */\n      0x00\n        /* \"#utility.yul\":1641:1923   */\n    tag_60:\n        /* \"#utility.yul\":1666:1672   */\n      dup4\n        /* \"#utility.yul\":1663:1664   */\n      dup2\n        /* \"#utility.yul\":1660:1673   */\n      lt\n        /* \"#utility.yul\":1641:1923   */\n      iszero\n      tag_62\n      jumpi\n        /* \"#utility.yul\":1742:1748   */\n      dup2\n        /* \"#utility.yul\":1736:1749   */\n      mload\n        /* \"#utility.yul\":1769:1832   */\n      tag_63\n        /* \"#utility.yul\":1828:1831   */\n      dup8\n        /* \"#utility.yul\":1813:1826   */\n      dup3\n        /* \"#utility.yul\":1769:1832   */\n      tag_38\n      jump\t// in\n    tag_63:\n        /* \"#utility.yul\":1762:1832   */\n      swap7\n      pop\n        /* \"#utility.yul\":1855:1913   */\n      tag_64\n        /* \"#utility.yul\":1906:1912   */\n      dup4\n        /* \"#utility.yul\":1855:1913   */\n      tag_39\n      jump\t// in\n    tag_64:\n        /* \"#utility.yul\":1845:1913   */\n      swap3\n      pop\n        /* \"#utility.yul\":1701:1923   */\n      pop\n        /* \"#utility.yul\":1688:1689   */\n      0x01\n        /* \"#utility.yul\":1685:1686   */\n      dup2\n        /* \"#utility.yul\":1681:1690   */\n      add\n        /* \"#utility.yul\":1676:1690   */\n      swap1\n      pop\n        /* \"#utility.yul\":1641:1923   */\n      jump(tag_60)\n    tag_62:\n        /* \"#utility.yul\":1645:1659   */\n      pop\n        /* \"#utility.yul\":1348:1930   */\n      pop\n      pop\n      pop\n        /* \"#utility.yul\":1236:1930   */\n      pop\n      pop\n      jump\t// out\n        /* \"#utility.yul\":1936:2459   */\n    tag_10:\n        /* \"#utility.yul\":2125:2129   */\n      0x00\n        /* \"#utility.yul\":2163:2166   */\n      0xa0\n        /* \"#utility.yul\":2152:2161   */\n      dup3\n        /* \"#utility.yul\":2148:2167   */\n      add\n        /* \"#utility.yul\":2140:2167   */\n      swap1\n      pop\n        /* \"#utility.yul\":2177:2248   */\n      tag_66\n        /* \"#utility.yul\":2245:2246   */\n      0x00\n        /* \"#utility.yul\":2234:2243   */\n      dup4\n        /* \"#utility.yul\":2230:2247   */\n      add\n        /* \"#utility.yul\":2221:2227   */\n      dup7\n        /* \"#utility.yul\":2177:2248   */\n      tag_31\n      jump\t// in\n    tag_66:\n        /* \"#utility.yul\":2258:2324   */\n      tag_67\n        /* \"#utility.yul\":2320:2322   */\n      0x20\n        /* \"#utility.yul\":2309:2318   */\n      dup4\n        /* \"#utility.yul\":2305:2323   */\n      add\n        /* \"#utility.yul\":2296:2302   */\n      dup6\n        /* \"#utility.yul\":2258:2324   */\n      tag_33\n      jump\t// in\n    tag_67:\n        /* \"#utility.yul\":2334:2452   */\n      tag_68\n        /* \"#utility.yul\":2448:2450   */\n      0x40\n        /* \"#utility.yul\":2437:2446   */\n      dup4\n        /* \"#utility.yul\":2433:2451   */\n      add\n        /* \"#utility.yul\":2424:2430   */\n      dup5\n        /* \"#utility.yul\":2334:2452   */\n      tag_40\n      jump\t// in\n    tag_68:\n        /* \"#utility.yul\":1936:2459   */\n      swap5\n      swap4\n      pop\n      pop\n      pop\n      pop\n      jump\t// out\n\n    auxdata: 0xa26469706673582212208e3373301cb66f9ae659ab556cbe222e1b2d571bd29eced8661ccc32c935d39664736f6c634300081a0033\n}\n",
				"bytecode": {
					"linkReferences": {},
					"object": "6080604052348015600e575f80fd5b506102f58061001c5f395ff3fe608060405234801561000f575f80fd5b506004361061004a575f3560e01c80633dece5111461004e5780636f5903301461006e5780638552dc0814610078578063dc133b6114610098575b5f80fd5b6100566100b8565b6040516100659392919061028a565b60405180910390f35b6100766100ef565b005b610080610125565b60405161008f9392919061028a565b60405180910390f35b6100a061015b565b6040516100af9392919061028a565b60405180910390f35b5f806100c2610191565b60029250600191506040518060600160405280600181526020016002815260200160038152509050909192565b5f806100f9610191565b6101016100b8565b8093508194508295505050506101156100b8565b9091508092508193505050505050565b5f8061012f610191565b600180604051806060016040528060018152602001600281526020016003815250925092509250909192565b5f80610165610191565b600180604051806060016040528060018152602001600281526020016003815250925092509250909192565b6040518060600160405280600390602082028036833780820191505090505090565b5f819050919050565b6101c5816101b3565b82525050565b5f8115159050919050565b6101df816101cb565b82525050565b5f60039050919050565b5f81905092915050565b5f819050919050565b61020b816101b3565b82525050565b5f61021c8383610202565b60208301905092915050565b5f602082019050919050565b61023d816101e5565b61024781846101ef565b9250610252826101f9565b805f5b838110156102825781516102698782610211565b965061027483610228565b925050600181019050610255565b505050505050565b5f60a08201905061029d5f8301866101bc565b6102aa60208301856101d6565b6102b76040830184610234565b94935050505056fea26469706673582212208e3373301cb66f9ae659ab556cbe222e1b2d571bd29eced8661ccc32c935d39664736f6c634300081a0033",
					"opcodes": "PUSH1 0x80 PUSH1 0x40 MSTORE CALLVALUE DUP1 ISZERO PUSH1 0xE JUMPI PUSH0 DUP1 REVERT JUMPDEST POP PUSH2 0x2F5 DUP1 PUSH2 0x1C PUSH0 CODECOPY PUSH0 RETURN INVALID PUSH1 0x80 PUSH1 0x40 MSTORE CALLVALUE DUP1 ISZERO PUSH2 0xF JUMPI PUSH0 DUP1 REVERT JUMPDEST POP PUSH1 0x4 CALLDATASIZE LT PUSH2 0x4A JUMPI PUSH0 CALLDATALOAD PUSH1 0xE0 SHR DUP1 PUSH4 0x3DECE511 EQ PUSH2 0x4E JUMPI DUP1 PUSH4 0x6F590330 EQ PUSH2 0x6E JUMPI DUP1 PUSH4 0x8552DC08 EQ PUSH2 0x78 JUMPI DUP1 PUSH4 0xDC133B61 EQ PUSH2 0x98 JUMPI JUMPDEST PUSH0 DUP1 REVERT JUMPDEST PUSH2 0x56 PUSH2 0xB8 JUMP JUMPDEST PUSH1 0x40 MLOAD PUSH2 0x65 SWAP4 SWAP3 SWAP2 SWAP1 PUSH2 0x28A JUMP JUMPDEST PUSH1 0x40 MLOAD DUP1 SWAP2 SUB SWAP1 RETURN JUMPDEST PUSH2 0x76 PUSH2 0xEF JUMP JUMPDEST STOP JUMPDEST PUSH2 0x80 PUSH2 0x125 JUMP JUMPDEST PUSH1 0x40 MLOAD PUSH2 0x8F SWAP4 SWAP3 SWAP2 SWAP1 PUSH2 0x28A JUMP JUMPDEST PUSH1 0x40 MLOAD DUP1 SWAP2 SUB SWAP1 RETURN JUMPDEST PUSH2 0xA0 PUSH2 0x15B JUMP JUMPDEST PUSH1 0x40 MLOAD PUSH2 0xAF SWAP4 SWAP3 SWAP2 SWAP1 PUSH2 0x28A JUMP JUMPDEST PUSH1 0x40 MLOAD DUP1 SWAP2 SUB SWAP1 RETURN JUMPDEST PUSH0 DUP1 PUSH2 0xC2 PUSH2 0x191 JUMP JUMPDEST PUSH1 0x2 SWAP3 POP PUSH1 0x1 SWAP2 POP PUSH1 0x40 MLOAD DUP1 PUSH1 0x60 ADD PUSH1 0x40 MSTORE DUP1 PUSH1 0x1 DUP2 MSTORE PUSH1 0x20 ADD PUSH1 0x2 DUP2 MSTORE PUSH1 0x20 ADD PUSH1 0x3 DUP2 MSTORE POP SWAP1 POP SWAP1 SWAP2 SWAP3 JUMP JUMPDEST PUSH0 DUP1 PUSH2 0xF9 PUSH2 0x191 JUMP JUMPDEST PUSH2 0x101 PUSH2 0xB8 JUMP JUMPDEST DUP1 SWAP4 POP DUP2 SWAP5 POP DUP3 SWAP6 POP POP POP POP PUSH2 0x115 PUSH2 0xB8 JUMP JUMPDEST SWAP1 SWAP2 POP DUP1 SWAP3 POP DUP2 SWAP4 POP POP POP POP POP POP JUMP JUMPDEST PUSH0 DUP1 PUSH2 0x12F PUSH2 0x191 JUMP JUMPDEST PUSH1 0x1 DUP1 PUSH1 0x40 MLOAD DUP1 PUSH1 0x60 ADD PUSH1 0x40 MSTORE DUP1 PUSH1 0x1 DUP2 MSTORE PUSH1 0x20 ADD PUSH1 0x2 DUP2 MSTORE PUSH1 0x20 ADD PUSH1 0x3 DUP2 MSTORE POP SWAP3 POP SWAP3 POP SWAP3 POP SWAP1 SWAP2 SWAP3 JUMP JUMPDEST PUSH0 DUP1 PUSH2 0x165 PUSH2 0x191 JUMP JUMPDEST PUSH1 0x1 DUP1 PUSH1 0x40 MLOAD DUP1 PUSH1 0x60 ADD PUSH1 0x40 MSTORE DUP1 PUSH1 0x1 DUP2 MSTORE PUSH1 0x20 ADD PUSH1 0x2 DUP2 MSTORE PUSH1 0x20 ADD PUSH1 0x3 DUP2 MSTORE POP SWAP3 POP SWAP3 POP SWAP3 POP SWAP1 SWAP2 SWAP3 JUMP JUMPDEST PUSH1 0x40 MLOAD DUP1 PUSH1 0x60 ADD PUSH1 0x40 MSTORE DUP1 PUSH1 0x3 SWAP1 PUSH1 0x20 DUP3 MUL DUP1 CALLDATASIZE DUP4 CALLDATACOPY DUP1 DUP3 ADD SWAP2 POP POP SWAP1 POP POP SWAP1 JUMP JUMPDEST PUSH0 DUP2 SWAP1 POP SWAP2 SWAP1 POP JUMP JUMPDEST PUSH2 0x1C5 DUP2 PUSH2 0x1B3 JUMP JUMPDEST DUP3 MSTORE POP POP JUMP JUMPDEST PUSH0 DUP2 ISZERO ISZERO SWAP1 POP SWAP2 SWAP1 POP JUMP JUMPDEST PUSH2 0x1DF DUP2 PUSH2 0x1CB JUMP JUMPDEST DUP3 MSTORE POP POP JUMP JUMPDEST PUSH0 PUSH1 0x3 SWAP1 POP SWAP2 SWAP1 POP JUMP JUMPDEST PUSH0 DUP2 SWAP1 POP SWAP3 SWAP2 POP POP JUMP JUMPDEST PUSH0 DUP2 SWAP1 POP SWAP2 SWAP1 POP JUMP JUMPDEST PUSH2 0x20B DUP2 PUSH2 0x1B3 JUMP JUMPDEST DUP3 MSTORE POP POP JUMP JUMPDEST PUSH0 PUSH2 0x21C DUP4 DUP4 PUSH2 0x202 JUMP JUMPDEST PUSH1 0x20 DUP4 ADD SWAP1 POP SWAP3 SWAP2 POP POP JUMP JUMPDEST PUSH0 PUSH1 0x20 DUP3 ADD SWAP1 POP SWAP2 SWAP1 POP JUMP JUMPDEST PUSH2 0x23D DUP2 PUSH2 0x1E5 JUMP JUMPDEST PUSH2 0x247 DUP2 DUP5 PUSH2 0x1EF JUMP JUMPDEST SWAP3 POP PUSH2 0x252 DUP3 PUSH2 0x1F9 JUMP JUMPDEST DUP1 PUSH0 JUMPDEST DUP4 DUP2 LT ISZERO PUSH2 0x282 JUMPI DUP2 MLOAD PUSH2 0x269 DUP8 DUP3 PUSH2 0x211 JUMP JUMPDEST SWAP7 POP PUSH2 0x274 DUP4 PUSH2 0x228 JUMP JUMPDEST SWAP3 POP POP PUSH1 0x1 DUP2 ADD SWAP1 POP PUSH2 0x255 JUMP JUMPDEST POP POP POP POP POP POP JUMP JUMPDEST PUSH0 PUSH1 0xA0 DUP3 ADD SWAP1 POP PUSH2 0x29D PUSH0 DUP4 ADD DUP7 PUSH2 0x1BC JUMP JUMPDEST PUSH2 0x2AA PUSH1 0x20 DUP4 ADD DUP6 PUSH2 0x1D6 JUMP JUMPDEST PUSH2 0x2B7 PUSH1 0x40 DUP4 ADD DUP5 PUSH2 0x234 JUMP JUMPDEST SWAP5 SWAP4 POP POP POP POP JUMP INVALID LOG2 PUSH5 0x6970667358 0x22 SLT KECCAK256 DUP15 CALLER PUSH20 0x301CB66F9AE659AB556CBE222E1B2D571BD29ECE 0xD8 PUSH7 0x1CCC32C935D396 PUSH5 0x736F6C6343 STOP ADDMOD BYTE STOP CALLER "
				},
				"gasEstimates": {
					"creation": {
						"codeDepositCost": "151400",
						"executionCost": "194",
						"totalCost": "151594"
					},
					"external": {
						"readReturn()": "infinite",
						"returnMulitiple()": "infinite",
						"returnNamed()": "infinite",
						"returnNamed2()": "infinite"
					}
				},
				"methodIdentifiers": {
					"readReturn()": "6f590330",
					"returnMulitiple()": "dc133b61",
					"returnNamed()": "3dece511",
					"returnNamed2()": "8552dc08"
				}
			},
			"storageLayout": {
				"storage": [],
				"types": null
			},
			"userdoc": {
				"kind": "user",
				"methods": {},
				"version": 1
			}
		}
	}
}