{
	"contracts/ERC1155.sol": {
		"ERC1155": {
			"abi": [
				{
					"inputs": [
						{
							"internalType": "string",
							"name": "name_",
							"type": "string"
						},
						{
							"internalType": "string",
							"name": "symbol_",
							"type": "string"
						}
					],
					"stateMutability": "nonpayable",
					"type": "constructor"
				},
				{
					"anonymous": false,
					"inputs": [
						{
							"indexed": true,
							"internalType": "address",
							"name": "account",
							"type": "address"
						},
						{
							"indexed": true,
							"internalType": "address",
							"name": "operator",
							"type": "address"
						},
						{
							"indexed": false,
							"internalType": "bool",
							"name": "approved",
							"type": "bool"
						}
					],
					"name": "ApprovalForAll",
					"type": "event"
				},
				{
					"anonymous": false,
					"inputs": [
						{
							"indexed": true,
							"internalType": "address",
							"name": "operator",
							"type": "address"
						},
						{
							"indexed": true,
							"internalType": "address",
							"name": "from",
							"type": "address"
						},
						{
							"indexed": true,
							"internalType": "address",
							"name": "to",
							"type": "address"
						},
						{
							"indexed": false,
							"internalType": "uint256[]",
							"name": "ids",
							"type": "uint256[]"
						},
						{
							"indexed": false,
							"internalType": "uint256[]",
							"name": "values",
							"type": "uint256[]"
						}
					],
					"name": "TransferBatch",
					"type": "event"
				},
				{
					"anonymous": false,
					"inputs": [
						{
							"indexed": true,
							"internalType": "address",
							"name": "operator",
							"type": "address"
						},
						{
							"indexed": true,
							"internalType": "address",
							"name": "from",
							"type": "address"
						},
						{
							"indexed": true,
							"internalType": "address",
							"name": "to",
							"type": "address"
						},
						{
							"indexed": false,
							"internalType": "uint256",
							"name": "id",
							"type": "uint256"
						},
						{
							"indexed": false,
							"internalType": "uint256",
							"name": "value",
							"type": "uint256"
						}
					],
					"name": "TransferSingle",
					"type": "event"
				},
				{
					"anonymous": false,
					"inputs": [
						{
							"indexed": false,
							"internalType": "string",
							"name": "value",
							"type": "string"
						},
						{
							"indexed": true,
							"internalType": "uint256",
							"name": "id",
							"type": "uint256"
						}
					],
					"name": "URI",
					"type": "event"
				},
				{
					"inputs": [
						{
							"internalType": "address",
							"name": "account",
							"type": "address"
						},
						{
							"internalType": "uint256",
							"name": "id",
							"type": "uint256"
						}
					],
					"name": "balanceOf",
					"outputs": [
						{
							"internalType": "uint256",
							"name": "",
							"type": "uint256"
						}
					],
					"stateMutability": "view",
					"type": "function"
				},
				{
					"inputs": [
						{
							"internalType": "address[]",
							"name": "accounts",
							"type": "address[]"
						},
						{
							"internalType": "uint256[]",
							"name": "ids",
							"type": "uint256[]"
						}
					],
					"name": "balanceOfBatch",
					"outputs": [
						{
							"internalType": "uint256[]",
							"name": "",
							"type": "uint256[]"
						}
					],
					"stateMutability": "view",
					"type": "function"
				},
				{
					"inputs": [
						{
							"internalType": "address",
							"name": "account",
							"type": "address"
						},
						{
							"internalType": "address",
							"name": "operator",
							"type": "address"
						}
					],
					"name": "isApprovedForAll",
					"outputs": [
						{
							"internalType": "bool",
							"name": "",
							"type": "bool"
						}
					],
					"stateMutability": "view",
					"type": "function"
				},
				{
					"inputs": [],
					"name": "name",
					"outputs": [
						{
							"internalType": "string",
							"name": "",
							"type": "string"
						}
					],
					"stateMutability": "view",
					"type": "function"
				},
				{
					"inputs": [
						{
							"internalType": "address",
							"name": "from",
							"type": "address"
						},
						{
							"internalType": "address",
							"name": "to",
							"type": "address"
						},
						{
							"internalType": "uint256[]",
							"name": "ids",
							"type": "uint256[]"
						},
						{
							"internalType": "uint256[]",
							"name": "amounts",
							"type": "uint256[]"
						},
						{
							"internalType": "bytes",
							"name": "data",
							"type": "bytes"
						}
					],
					"name": "safeBatchTransferFrom",
					"outputs": [],
					"stateMutability": "nonpayable",
					"type": "function"
				},
				{
					"inputs": [
						{
							"internalType": "address",
							"name": "from",
							"type": "address"
						},
						{
							"internalType": "address",
							"name": "to",
							"type": "address"
						},
						{
							"internalType": "uint256",
							"name": "id",
							"type": "uint256"
						},
						{
							"internalType": "uint256",
							"name": "amount",
							"type": "uint256"
						},
						{
							"internalType": "bytes",
							"name": "data",
							"type": "bytes"
						}
					],
					"name": "safeTransferFrom",
					"outputs": [],
					"stateMutability": "nonpayable",
					"type": "function"
				},
				{
					"inputs": [
						{
							"internalType": "address",
							"name": "operator",
							"type": "address"
						},
						{
							"internalType": "bool",
							"name": "approved",
							"type": "bool"
						}
					],
					"name": "setApprovalForAll",
					"outputs": [],
					"stateMutability": "nonpayable",
					"type": "function"
				},
				{
					"inputs": [
						{
							"internalType": "bytes4",
							"name": "interfaceId",
							"type": "bytes4"
						}
					],
					"name": "supportsInterface",
					"outputs": [
						{
							"internalType": "bool",
							"name": "",
							"type": "bool"
						}
					],
					"stateMutability": "view",
					"type": "function"
				},
				{
					"inputs": [],
					"name": "symbol",
					"outputs": [
						{
							"internalType": "string",
							"name": "",
							"type": "string"
						}
					],
					"stateMutability": "view",
					"type": "function"
				},
				{
					"inputs": [
						{
							"internalType": "uint256",
							"name": "id",
							"type": "uint256"
						}
					],
					"name": "uri",
					"outputs": [
						{
							"internalType": "string",
							"name": "",
							"type": "string"
						}
					],
					"stateMutability": "view",
					"type": "function"
				}
			],
			"devdoc": {
				"events": {
					"ApprovalForAll(address,address,bool)": {
						"details": "批量授权事件 当`account`将所有代币授权给`operator`时释放"
					},
					"TransferBatch(address,address,address,uint256[],uint256[])": {
						"details": "多类代币转账事件 ids和values为转账的代币种类和数量数组"
					},
					"TransferSingle(address,address,address,uint256,uint256)": {
						"details": "单类代币转账事件 当`value`个`id`种类的代币被`operator`从`from`转账到`to`时释放."
					},
					"URI(string,uint256)": {
						"details": "当`id`种类的代币的URI发生变化时释放，`value`为新的URI"
					}
				},
				"kind": "dev",
				"methods": {
					"balanceOf(address,uint256)": {
						"details": "持仓查询，返回`account`拥有的`id`种类的代币的持仓量"
					},
					"balanceOfBatch(address[],uint256[])": {
						"details": "批量持仓查询，`accounts`和`ids`数组的长度要想等。"
					},
					"isApprovedForAll(address,address)": {
						"details": "批量授权查询，如果授权地址`operator`被`account`授权，则返回`true` 见 {setApprovalForAll}函数."
					},
					"safeBatchTransferFrom(address,address,uint256[],uint256[],bytes)": {
						"details": "批量安全转账 释放{TransferBatch}事件 要求： - `ids`和`amounts`长度相等 - 如果接收方是合约，需要实现`IERC1155Receiver`的`onERC1155BatchReceived`方法，并返回相应的值"
					},
					"safeTransferFrom(address,address,uint256,uint256,bytes)": {
						"details": "安全转账，将`amount`单位`id`种类的代币从`from`转账给`to`. 释放{TransferSingle}事件. 要求: - 如果调用者不是`from`地址而是授权地址，则需要得到`from`的授权 - `from`地址必须有足够的持仓 - 如果接收方是合约，需要实现`IERC1155Receiver`的`onERC1155Received`方法，并返回相应的值"
					},
					"setApprovalForAll(address,bool)": {
						"details": "批量授权，将调用者的代币授权给`operator`地址。 释放{ApprovalForAll}事件."
					},
					"supportsInterface(bytes4)": {
						"details": "如果合约实现了查询的`interfaceId`，则返回true 规则详见：https://eips.ethereum.org/EIPS/eip-165#how-interfaces-are-identified[EIP section]"
					},
					"uri(uint256)": {
						"details": "返回第`id`种类代币的URI"
					}
				},
				"version": 1
			},
			"evm": {
				"assembly": "    /* \"contracts/ERC1155.sol\":629:11786  contract ERC1155 is IERC165, IERC1155, IERC1155MetadataURI {... */\n  mstore(0x40, 0x80)\n    /* \"contracts/ERC1155.sol\":1089:1203  constructor(string memory name_, string memory symbol_) {... */\n  callvalue\n  dup1\n  iszero\n  tag_1\n  jumpi\n  0x00\n  dup1\n  revert\ntag_1:\n  pop\n  mload(0x40)\n  sub(codesize, bytecodeSize)\n  dup1\n  bytecodeSize\n  dup4\n  codecopy\n  dup2\n  dup2\n  add\n  0x40\n  mstore\n  dup2\n  add\n  swap1\n  tag_2\n  swap2\n  swap1\n  tag_3\n  jump\t// in\ntag_2:\n    /* \"contracts/ERC1155.sol\":1163:1168  name_ */\n  dup2\n    /* \"contracts/ERC1155.sol\":1156:1160  name */\n  0x00\n    /* \"contracts/ERC1155.sol\":1156:1168  name = name_ */\n  swap1\n  dup2\n  tag_6\n  swap2\n  swap1\n  tag_7\n  jump\t// in\ntag_6:\n  pop\n    /* \"contracts/ERC1155.sol\":1188:1195  symbol_ */\n  dup1\n    /* \"contracts/ERC1155.sol\":1179:1185  symbol */\n  0x01\n    /* \"contracts/ERC1155.sol\":1179:1195  symbol = symbol_ */\n  swap1\n  dup2\n  tag_8\n  swap2\n  swap1\n  tag_7\n  jump\t// in\ntag_8:\n  pop\n    /* \"contracts/ERC1155.sol\":1089:1203  constructor(string memory name_, string memory symbol_) {... */\n  pop\n  pop\n    /* \"contracts/ERC1155.sol\":629:11786  contract ERC1155 is IERC165, IERC1155, IERC1155MetadataURI {... */\n  jump(tag_9)\n    /* \"#utility.yul\":7:82   */\ntag_10:\n    /* \"#utility.yul\":40:46   */\n  0x00\n    /* \"#utility.yul\":73:75   */\n  0x40\n    /* \"#utility.yul\":67:76   */\n  mload\n    /* \"#utility.yul\":57:76   */\n  swap1\n  pop\n    /* \"#utility.yul\":7:82   */\n  swap1\n  jump\t// out\n    /* \"#utility.yul\":88:205   */\ntag_11:\n    /* \"#utility.yul\":197:198   */\n  0x00\n    /* \"#utility.yul\":194:195   */\n  dup1\n    /* \"#utility.yul\":187:199   */\n  revert\n    /* \"#utility.yul\":211:328   */\ntag_12:\n    /* \"#utility.yul\":320:321   */\n  0x00\n    /* \"#utility.yul\":317:318   */\n  dup1\n    /* \"#utility.yul\":310:322   */\n  revert\n    /* \"#utility.yul\":334:451   */\ntag_13:\n    /* \"#utility.yul\":443:444   */\n  0x00\n    /* \"#utility.yul\":440:441   */\n  dup1\n    /* \"#utility.yul\":433:445   */\n  revert\n    /* \"#utility.yul\":457:574   */\ntag_14:\n    /* \"#utility.yul\":566:567   */\n  0x00\n    /* \"#utility.yul\":563:564   */\n  dup1\n    /* \"#utility.yul\":556:568   */\n  revert\n    /* \"#utility.yul\":580:682   */\ntag_15:\n    /* \"#utility.yul\":621:627   */\n  0x00\n    /* \"#utility.yul\":672:674   */\n  0x1f\n    /* \"#utility.yul\":668:675   */\n  not\n    /* \"#utility.yul\":663:665   */\n  0x1f\n    /* \"#utility.yul\":656:661   */\n  dup4\n    /* \"#utility.yul\":652:666   */\n  add\n    /* \"#utility.yul\":648:676   */\n  and\n    /* \"#utility.yul\":638:676   */\n  swap1\n  pop\n    /* \"#utility.yul\":580:682   */\n  swap2\n  swap1\n  pop\n  jump\t// out\n    /* \"#utility.yul\":688:868   */\ntag_16:\n    /* \"#utility.yul\":736:813   */\n  0x4e487b7100000000000000000000000000000000000000000000000000000000\n    /* \"#utility.yul\":733:734   */\n  0x00\n    /* \"#utility.yul\":726:814   */\n  mstore\n    /* \"#utility.yul\":833:837   */\n  0x41\n    /* \"#utility.yul\":830:831   */\n  0x04\n    /* \"#utility.yul\":823:838   */\n  mstore\n    /* \"#utility.yul\":857:861   */\n  0x24\n    /* \"#utility.yul\":854:855   */\n  0x00\n    /* \"#utility.yul\":847:862   */\n  revert\n    /* \"#utility.yul\":874:1155   */\ntag_17:\n    /* \"#utility.yul\":957:984   */\n  tag_51\n    /* \"#utility.yul\":979:983   */\n  dup3\n    /* \"#utility.yul\":957:984   */\n  tag_15\n  jump\t// in\ntag_51:\n    /* \"#utility.yul\":949:955   */\n  dup2\n    /* \"#utility.yul\":945:985   */\n  add\n    /* \"#utility.yul\":1087:1093   */\n  dup2\n    /* \"#utility.yul\":1075:1085   */\n  dup2\n    /* \"#utility.yul\":1072:1094   */\n  lt\n    /* \"#utility.yul\":1051:1069   */\n  0xffffffffffffffff\n    /* \"#utility.yul\":1039:1049   */\n  dup3\n    /* \"#utility.yul\":1036:1070   */\n  gt\n    /* \"#utility.yul\":1033:1095   */\n  or\n    /* \"#utility.yul\":1030:1118   */\n  iszero\n  tag_52\n  jumpi\n    /* \"#utility.yul\":1098:1116   */\n  tag_53\n  tag_16\n  jump\t// in\ntag_53:\n    /* \"#utility.yul\":1030:1118   */\ntag_52:\n    /* \"#utility.yul\":1138:1148   */\n  dup1\n    /* \"#utility.yul\":1134:1136   */\n  0x40\n    /* \"#utility.yul\":1127:1149   */\n  mstore\n    /* \"#utility.yul\":917:1155   */\n  pop\n    /* \"#utility.yul\":874:1155   */\n  pop\n  pop\n  jump\t// out\n    /* \"#utility.yul\":1161:1290   */\ntag_18:\n    /* \"#utility.yul\":1195:1201   */\n  0x00\n    /* \"#utility.yul\":1222:1242   */\n  tag_55\n  tag_10\n  jump\t// in\ntag_55:\n    /* \"#utility.yul\":1212:1242   */\n  swap1\n  pop\n    /* \"#utility.yul\":1251:1284   */\n  tag_56\n    /* \"#utility.yul\":1279:1283   */\n  dup3\n    /* \"#utility.yul\":1271:1277   */\n  dup3\n    /* \"#utility.yul\":1251:1284   */\n  tag_17\n  jump\t// in\ntag_56:\n    /* \"#utility.yul\":1161:1290   */\n  swap2\n  swap1\n  pop\n  jump\t// out\n    /* \"#utility.yul\":1296:1604   */\ntag_19:\n    /* \"#utility.yul\":1358:1362   */\n  0x00\n    /* \"#utility.yul\":1448:1466   */\n  0xffffffffffffffff\n    /* \"#utility.yul\":1440:1446   */\n  dup3\n    /* \"#utility.yul\":1437:1467   */\n  gt\n    /* \"#utility.yul\":1434:1490   */\n  iszero\n  tag_58\n  jumpi\n    /* \"#utility.yul\":1470:1488   */\n  tag_59\n  tag_16\n  jump\t// in\ntag_59:\n    /* \"#utility.yul\":1434:1490   */\ntag_58:\n    /* \"#utility.yul\":1508:1537   */\n  tag_60\n    /* \"#utility.yul\":1530:1536   */\n  dup3\n    /* \"#utility.yul\":1508:1537   */\n  tag_15\n  jump\t// in\ntag_60:\n    /* \"#utility.yul\":1500:1537   */\n  swap1\n  pop\n    /* \"#utility.yul\":1592:1596   */\n  0x20\n    /* \"#utility.yul\":1586:1590   */\n  dup2\n    /* \"#utility.yul\":1582:1597   */\n  add\n    /* \"#utility.yul\":1574:1597   */\n  swap1\n  pop\n    /* \"#utility.yul\":1296:1604   */\n  swap2\n  swap1\n  pop\n  jump\t// out\n    /* \"#utility.yul\":1610:1749   */\ntag_20:\n    /* \"#utility.yul\":1699:1705   */\n  dup3\n    /* \"#utility.yul\":1694:1697   */\n  dup2\n    /* \"#utility.yul\":1689:1692   */\n  dup4\n    /* \"#utility.yul\":1683:1706   */\n  mcopy\n    /* \"#utility.yul\":1740:1741   */\n  0x00\n    /* \"#utility.yul\":1731:1737   */\n  dup4\n    /* \"#utility.yul\":1726:1729   */\n  dup4\n    /* \"#utility.yul\":1722:1738   */\n  add\n    /* \"#utility.yul\":1715:1742   */\n  mstore\n    /* \"#utility.yul\":1610:1749   */\n  pop\n  pop\n  pop\n  jump\t// out\n    /* \"#utility.yul\":1755:2189   */\ntag_21:\n    /* \"#utility.yul\":1844:1849   */\n  0x00\n    /* \"#utility.yul\":1869:1935   */\n  tag_63\n    /* \"#utility.yul\":1885:1934   */\n  tag_64\n    /* \"#utility.yul\":1927:1933   */\n  dup5\n    /* \"#utility.yul\":1885:1934   */\n  tag_19\n  jump\t// in\ntag_64:\n    /* \"#utility.yul\":1869:1935   */\n  tag_18\n  jump\t// in\ntag_63:\n    /* \"#utility.yul\":1860:1935   */\n  swap1\n  pop\n    /* \"#utility.yul\":1958:1964   */\n  dup3\n    /* \"#utility.yul\":1951:1956   */\n  dup2\n    /* \"#utility.yul\":1944:1965   */\n  mstore\n    /* \"#utility.yul\":1996:2000   */\n  0x20\n    /* \"#utility.yul\":1989:1994   */\n  dup2\n    /* \"#utility.yul\":1985:2001   */\n  add\n    /* \"#utility.yul\":2034:2037   */\n  dup5\n    /* \"#utility.yul\":2025:2031   */\n  dup5\n    /* \"#utility.yul\":2020:2023   */\n  dup5\n    /* \"#utility.yul\":2016:2032   */\n  add\n    /* \"#utility.yul\":2013:2038   */\n  gt\n    /* \"#utility.yul\":2010:2122   */\n  iszero\n  tag_65\n  jumpi\n    /* \"#utility.yul\":2041:2120   */\n  tag_66\n  tag_14\n  jump\t// in\ntag_66:\n    /* \"#utility.yul\":2010:2122   */\ntag_65:\n    /* \"#utility.yul\":2131:2183   */\n  tag_67\n    /* \"#utility.yul\":2176:2182   */\n  dup5\n    /* \"#utility.yul\":2171:2174   */\n  dup3\n    /* \"#utility.yul\":2166:2169   */\n  dup6\n    /* \"#utility.yul\":2131:2183   */\n  tag_20\n  jump\t// in\ntag_67:\n    /* \"#utility.yul\":1850:2189   */\n  pop\n    /* \"#utility.yul\":1755:2189   */\n  swap4\n  swap3\n  pop\n  pop\n  pop\n  jump\t// out\n    /* \"#utility.yul\":2209:2564   */\ntag_22:\n    /* \"#utility.yul\":2276:2281   */\n  0x00\n    /* \"#utility.yul\":2325:2328   */\n  dup3\n    /* \"#utility.yul\":2318:2322   */\n  0x1f\n    /* \"#utility.yul\":2310:2316   */\n  dup4\n    /* \"#utility.yul\":2306:2323   */\n  add\n    /* \"#utility.yul\":2302:2329   */\n  slt\n    /* \"#utility.yul\":2292:2414   */\n  tag_69\n  jumpi\n    /* \"#utility.yul\":2333:2412   */\n  tag_70\n  tag_13\n  jump\t// in\ntag_70:\n    /* \"#utility.yul\":2292:2414   */\ntag_69:\n    /* \"#utility.yul\":2443:2449   */\n  dup2\n    /* \"#utility.yul\":2437:2450   */\n  mload\n    /* \"#utility.yul\":2468:2558   */\n  tag_71\n    /* \"#utility.yul\":2554:2557   */\n  dup5\n    /* \"#utility.yul\":2546:2552   */\n  dup3\n    /* \"#utility.yul\":2539:2543   */\n  0x20\n    /* \"#utility.yul\":2531:2537   */\n  dup7\n    /* \"#utility.yul\":2527:2544   */\n  add\n    /* \"#utility.yul\":2468:2558   */\n  tag_21\n  jump\t// in\ntag_71:\n    /* \"#utility.yul\":2459:2558   */\n  swap2\n  pop\n    /* \"#utility.yul\":2282:2564   */\n  pop\n    /* \"#utility.yul\":2209:2564   */\n  swap3\n  swap2\n  pop\n  pop\n  jump\t// out\n    /* \"#utility.yul\":2570:3423   */\ntag_3:\n    /* \"#utility.yul\":2669:2675   */\n  0x00\n    /* \"#utility.yul\":2677:2683   */\n  dup1\n    /* \"#utility.yul\":2726:2728   */\n  0x40\n    /* \"#utility.yul\":2714:2723   */\n  dup4\n    /* \"#utility.yul\":2705:2712   */\n  dup6\n    /* \"#utility.yul\":2701:2724   */\n  sub\n    /* \"#utility.yul\":2697:2729   */\n  slt\n    /* \"#utility.yul\":2694:2813   */\n  iszero\n  tag_73\n  jumpi\n    /* \"#utility.yul\":2732:2811   */\n  tag_74\n  tag_11\n  jump\t// in\ntag_74:\n    /* \"#utility.yul\":2694:2813   */\ntag_73:\n    /* \"#utility.yul\":2873:2874   */\n  0x00\n    /* \"#utility.yul\":2862:2871   */\n  dup4\n    /* \"#utility.yul\":2858:2875   */\n  add\n    /* \"#utility.yul\":2852:2876   */\n  mload\n    /* \"#utility.yul\":2903:2921   */\n  0xffffffffffffffff\n    /* \"#utility.yul\":2895:2901   */\n  dup2\n    /* \"#utility.yul\":2892:2922   */\n  gt\n    /* \"#utility.yul\":2889:3006   */\n  iszero\n  tag_75\n  jumpi\n    /* \"#utility.yul\":2925:3004   */\n  tag_76\n  tag_12\n  jump\t// in\ntag_76:\n    /* \"#utility.yul\":2889:3006   */\ntag_75:\n    /* \"#utility.yul\":3030:3104   */\n  tag_77\n    /* \"#utility.yul\":3096:3103   */\n  dup6\n    /* \"#utility.yul\":3087:3093   */\n  dup3\n    /* \"#utility.yul\":3076:3085   */\n  dup7\n    /* \"#utility.yul\":3072:3094   */\n  add\n    /* \"#utility.yul\":3030:3104   */\n  tag_22\n  jump\t// in\ntag_77:\n    /* \"#utility.yul\":3020:3104   */\n  swap3\n  pop\n    /* \"#utility.yul\":2823:3114   */\n  pop\n    /* \"#utility.yul\":3174:3176   */\n  0x20\n    /* \"#utility.yul\":3163:3172   */\n  dup4\n    /* \"#utility.yul\":3159:3177   */\n  add\n    /* \"#utility.yul\":3153:3178   */\n  mload\n    /* \"#utility.yul\":3205:3223   */\n  0xffffffffffffffff\n    /* \"#utility.yul\":3197:3203   */\n  dup2\n    /* \"#utility.yul\":3194:3224   */\n  gt\n    /* \"#utility.yul\":3191:3308   */\n  iszero\n  tag_78\n  jumpi\n    /* \"#utility.yul\":3227:3306   */\n  tag_79\n  tag_12\n  jump\t// in\ntag_79:\n    /* \"#utility.yul\":3191:3308   */\ntag_78:\n    /* \"#utility.yul\":3332:3406   */\n  tag_80\n    /* \"#utility.yul\":3398:3405   */\n  dup6\n    /* \"#utility.yul\":3389:3395   */\n  dup3\n    /* \"#utility.yul\":3378:3387   */\n  dup7\n    /* \"#utility.yul\":3374:3396   */\n  add\n    /* \"#utility.yul\":3332:3406   */\n  tag_22\n  jump\t// in\ntag_80:\n    /* \"#utility.yul\":3322:3406   */\n  swap2\n  pop\n    /* \"#utility.yul\":3124:3416   */\n  pop\n    /* \"#utility.yul\":2570:3423   */\n  swap3\n  pop\n  swap3\n  swap1\n  pop\n  jump\t// out\n    /* \"#utility.yul\":3429:3528   */\ntag_23:\n    /* \"#utility.yul\":3481:3487   */\n  0x00\n    /* \"#utility.yul\":3515:3520   */\n  dup2\n    /* \"#utility.yul\":3509:3521   */\n  mload\n    /* \"#utility.yul\":3499:3521   */\n  swap1\n  pop\n    /* \"#utility.yul\":3429:3528   */\n  swap2\n  swap1\n  pop\n  jump\t// out\n    /* \"#utility.yul\":3534:3714   */\ntag_24:\n    /* \"#utility.yul\":3582:3659   */\n  0x4e487b7100000000000000000000000000000000000000000000000000000000\n    /* \"#utility.yul\":3579:3580   */\n  0x00\n    /* \"#utility.yul\":3572:3660   */\n  mstore\n    /* \"#utility.yul\":3679:3683   */\n  0x22\n    /* \"#utility.yul\":3676:3677   */\n  0x04\n    /* \"#utility.yul\":3669:3684   */\n  mstore\n    /* \"#utility.yul\":3703:3707   */\n  0x24\n    /* \"#utility.yul\":3700:3701   */\n  0x00\n    /* \"#utility.yul\":3693:3708   */\n  revert\n    /* \"#utility.yul\":3720:4040   */\ntag_25:\n    /* \"#utility.yul\":3764:3770   */\n  0x00\n    /* \"#utility.yul\":3801:3802   */\n  0x02\n    /* \"#utility.yul\":3795:3799   */\n  dup3\n    /* \"#utility.yul\":3791:3803   */\n  div\n    /* \"#utility.yul\":3781:3803   */\n  swap1\n  pop\n    /* \"#utility.yul\":3848:3849   */\n  0x01\n    /* \"#utility.yul\":3842:3846   */\n  dup3\n    /* \"#utility.yul\":3838:3850   */\n  and\n    /* \"#utility.yul\":3869:3887   */\n  dup1\n    /* \"#utility.yul\":3859:3940   */\n  tag_84\n  jumpi\n    /* \"#utility.yul\":3925:3929   */\n  0x7f\n    /* \"#utility.yul\":3917:3923   */\n  dup3\n    /* \"#utility.yul\":3913:3930   */\n  and\n    /* \"#utility.yul\":3903:3930   */\n  swap2\n  pop\n    /* \"#utility.yul\":3859:3940   */\ntag_84:\n    /* \"#utility.yul\":3987:3989   */\n  0x20\n    /* \"#utility.yul\":3979:3985   */\n  dup3\n    /* \"#utility.yul\":3976:3990   */\n  lt\n    /* \"#utility.yul\":3956:3974   */\n  dup2\n    /* \"#utility.yul\":3953:3991   */\n  sub\n    /* \"#utility.yul\":3950:4034   */\n  tag_85\n  jumpi\n    /* \"#utility.yul\":4006:4024   */\n  tag_86\n  tag_24\n  jump\t// in\ntag_86:\n    /* \"#utility.yul\":3950:4034   */\ntag_85:\n    /* \"#utility.yul\":3771:4040   */\n  pop\n    /* \"#utility.yul\":3720:4040   */\n  swap2\n  swap1\n  pop\n  jump\t// out\n    /* \"#utility.yul\":4046:4187   */\ntag_26:\n    /* \"#utility.yul\":4095:4099   */\n  0x00\n    /* \"#utility.yul\":4118:4121   */\n  dup2\n    /* \"#utility.yul\":4110:4121   */\n  swap1\n  pop\n    /* \"#utility.yul\":4141:4144   */\n  dup2\n    /* \"#utility.yul\":4138:4139   */\n  0x00\n    /* \"#utility.yul\":4131:4145   */\n  mstore\n    /* \"#utility.yul\":4175:4179   */\n  0x20\n    /* \"#utility.yul\":4172:4173   */\n  0x00\n    /* \"#utility.yul\":4162:4180   */\n  keccak256\n    /* \"#utility.yul\":4154:4180   */\n  swap1\n  pop\n    /* \"#utility.yul\":4046:4187   */\n  swap2\n  swap1\n  pop\n  jump\t// out\n    /* \"#utility.yul\":4193:4286   */\ntag_27:\n    /* \"#utility.yul\":4230:4236   */\n  0x00\n    /* \"#utility.yul\":4277:4279   */\n  0x20\n    /* \"#utility.yul\":4272:4274   */\n  0x1f\n    /* \"#utility.yul\":4265:4270   */\n  dup4\n    /* \"#utility.yul\":4261:4275   */\n  add\n    /* \"#utility.yul\":4257:4280   */\n  div\n    /* \"#utility.yul\":4247:4280   */\n  swap1\n  pop\n    /* \"#utility.yul\":4193:4286   */\n  swap2\n  swap1\n  pop\n  jump\t// out\n    /* \"#utility.yul\":4292:4399   */\ntag_28:\n    /* \"#utility.yul\":4336:4344   */\n  0x00\n    /* \"#utility.yul\":4386:4391   */\n  dup3\n    /* \"#utility.yul\":4380:4384   */\n  dup3\n    /* \"#utility.yul\":4376:4392   */\n  shl\n    /* \"#utility.yul\":4355:4392   */\n  swap1\n  pop\n    /* \"#utility.yul\":4292:4399   */\n  swap3\n  swap2\n  pop\n  pop\n  jump\t// out\n    /* \"#utility.yul\":4405:4798   */\ntag_29:\n    /* \"#utility.yul\":4474:4480   */\n  0x00\n    /* \"#utility.yul\":4524:4525   */\n  0x08\n    /* \"#utility.yul\":4512:4522   */\n  dup4\n    /* \"#utility.yul\":4508:4526   */\n  mul\n    /* \"#utility.yul\":4547:4644   */\n  tag_91\n    /* \"#utility.yul\":4577:4643   */\n  0xffffffffffffffffffffffffffffffffffffffffffffffffffffffffffffffff\n    /* \"#utility.yul\":4566:4575   */\n  dup3\n    /* \"#utility.yul\":4547:4644   */\n  tag_28\n  jump\t// in\ntag_91:\n    /* \"#utility.yul\":4665:4704   */\n  tag_92\n    /* \"#utility.yul\":4695:4703   */\n  dup7\n    /* \"#utility.yul\":4684:4693   */\n  dup4\n    /* \"#utility.yul\":4665:4704   */\n  tag_28\n  jump\t// in\ntag_92:\n    /* \"#utility.yul\":4653:4704   */\n  swap6\n  pop\n    /* \"#utility.yul\":4737:4741   */\n  dup1\n    /* \"#utility.yul\":4733:4742   */\n  not\n    /* \"#utility.yul\":4726:4731   */\n  dup5\n    /* \"#utility.yul\":4722:4743   */\n  and\n    /* \"#utility.yul\":4713:4743   */\n  swap4\n  pop\n    /* \"#utility.yul\":4786:4790   */\n  dup1\n    /* \"#utility.yul\":4776:4784   */\n  dup7\n    /* \"#utility.yul\":4772:4791   */\n  and\n    /* \"#utility.yul\":4765:4770   */\n  dup5\n    /* \"#utility.yul\":4762:4792   */\n  or\n    /* \"#utility.yul\":4752:4792   */\n  swap3\n  pop\n    /* \"#utility.yul\":4481:4798   */\n  pop\n  pop\n    /* \"#utility.yul\":4405:4798   */\n  swap4\n  swap3\n  pop\n  pop\n  pop\n  jump\t// out\n    /* \"#utility.yul\":4804:4881   */\ntag_30:\n    /* \"#utility.yul\":4841:4848   */\n  0x00\n    /* \"#utility.yul\":4870:4875   */\n  dup2\n    /* \"#utility.yul\":4859:4875   */\n  swap1\n  pop\n    /* \"#utility.yul\":4804:4881   */\n  swap2\n  swap1\n  pop\n  jump\t// out\n    /* \"#utility.yul\":4887:4947   */\ntag_31:\n    /* \"#utility.yul\":4915:4918   */\n  0x00\n    /* \"#utility.yul\":4936:4941   */\n  dup2\n    /* \"#utility.yul\":4929:4941   */\n  swap1\n  pop\n    /* \"#utility.yul\":4887:4947   */\n  swap2\n  swap1\n  pop\n  jump\t// out\n    /* \"#utility.yul\":4953:5095   */\ntag_32:\n    /* \"#utility.yul\":5003:5012   */\n  0x00\n    /* \"#utility.yul\":5036:5089   */\n  tag_96\n    /* \"#utility.yul\":5054:5088   */\n  tag_97\n    /* \"#utility.yul\":5063:5087   */\n  tag_98\n    /* \"#utility.yul\":5081:5086   */\n  dup5\n    /* \"#utility.yul\":5063:5087   */\n  tag_30\n  jump\t// in\ntag_98:\n    /* \"#utility.yul\":5054:5088   */\n  tag_31\n  jump\t// in\ntag_97:\n    /* \"#utility.yul\":5036:5089   */\n  tag_30\n  jump\t// in\ntag_96:\n    /* \"#utility.yul\":5023:5089   */\n  swap1\n  pop\n    /* \"#utility.yul\":4953:5095   */\n  swap2\n  swap1\n  pop\n  jump\t// out\n    /* \"#utility.yul\":5101:5176   */\ntag_33:\n    /* \"#utility.yul\":5144:5147   */\n  0x00\n    /* \"#utility.yul\":5165:5170   */\n  dup2\n    /* \"#utility.yul\":5158:5170   */\n  swap1\n  pop\n    /* \"#utility.yul\":5101:5176   */\n  swap2\n  swap1\n  pop\n  jump\t// out\n    /* \"#utility.yul\":5182:5451   */\ntag_34:\n    /* \"#utility.yul\":5292:5331   */\n  tag_101\n    /* \"#utility.yul\":5323:5330   */\n  dup4\n    /* \"#utility.yul\":5292:5331   */\n  tag_32\n  jump\t// in\ntag_101:\n    /* \"#utility.yul\":5353:5444   */\n  tag_102\n    /* \"#utility.yul\":5402:5443   */\n  tag_103\n    /* \"#utility.yul\":5426:5442   */\n  dup3\n    /* \"#utility.yul\":5402:5443   */\n  tag_33\n  jump\t// in\ntag_103:\n    /* \"#utility.yul\":5394:5400   */\n  dup5\n    /* \"#utility.yul\":5387:5391   */\n  dup5\n    /* \"#utility.yul\":5381:5392   */\n  sload\n    /* \"#utility.yul\":5353:5444   */\n  tag_29\n  jump\t// in\ntag_102:\n    /* \"#utility.yul\":5347:5351   */\n  dup3\n    /* \"#utility.yul\":5340:5445   */\n  sstore\n    /* \"#utility.yul\":5258:5451   */\n  pop\n    /* \"#utility.yul\":5182:5451   */\n  pop\n  pop\n  pop\n  jump\t// out\n    /* \"#utility.yul\":5457:5530   */\ntag_35:\n    /* \"#utility.yul\":5502:5505   */\n  0x00\n    /* \"#utility.yul\":5457:5530   */\n  swap1\n  jump\t// out\n    /* \"#utility.yul\":5536:5725   */\ntag_36:\n    /* \"#utility.yul\":5613:5645   */\n  tag_106\n  tag_35\n  jump\t// in\ntag_106:\n    /* \"#utility.yul\":5654:5719   */\n  tag_107\n    /* \"#utility.yul\":5712:5718   */\n  dup2\n    /* \"#utility.yul\":5704:5710   */\n  dup5\n    /* \"#utility.yul\":5698:5702   */\n  dup5\n    /* \"#utility.yul\":5654:5719   */\n  tag_34\n  jump\t// in\ntag_107:\n    /* \"#utility.yul\":5589:5725   */\n  pop\n    /* \"#utility.yul\":5536:5725   */\n  pop\n  pop\n  jump\t// out\n    /* \"#utility.yul\":5731:5917   */\ntag_37:\n    /* \"#utility.yul\":5791:5911   */\ntag_109:\n    /* \"#utility.yul\":5808:5811   */\n  dup2\n    /* \"#utility.yul\":5801:5806   */\n  dup2\n    /* \"#utility.yul\":5798:5812   */\n  lt\n    /* \"#utility.yul\":5791:5911   */\n  iszero\n  tag_111\n  jumpi\n    /* \"#utility.yul\":5862:5901   */\n  tag_112\n    /* \"#utility.yul\":5899:5900   */\n  0x00\n    /* \"#utility.yul\":5892:5897   */\n  dup3\n    /* \"#utility.yul\":5862:5901   */\n  tag_36\n  jump\t// in\ntag_112:\n    /* \"#utility.yul\":5835:5836   */\n  0x01\n    /* \"#utility.yul\":5828:5833   */\n  dup2\n    /* \"#utility.yul\":5824:5837   */\n  add\n    /* \"#utility.yul\":5815:5837   */\n  swap1\n  pop\n    /* \"#utility.yul\":5791:5911   */\n  jump(tag_109)\ntag_111:\n    /* \"#utility.yul\":5731:5917   */\n  pop\n  pop\n  jump\t// out\n    /* \"#utility.yul\":5923:6466   */\ntag_38:\n    /* \"#utility.yul\":6024:6026   */\n  0x1f\n    /* \"#utility.yul\":6019:6022   */\n  dup3\n    /* \"#utility.yul\":6016:6027   */\n  gt\n    /* \"#utility.yul\":6013:6459   */\n  iszero\n  tag_114\n  jumpi\n    /* \"#utility.yul\":6058:6096   */\n  tag_115\n    /* \"#utility.yul\":6090:6095   */\n  dup2\n    /* \"#utility.yul\":6058:6096   */\n  tag_26\n  jump\t// in\ntag_115:\n    /* \"#utility.yul\":6142:6171   */\n  tag_116\n    /* \"#utility.yul\":6160:6170   */\n  dup5\n    /* \"#utility.yul\":6142:6171   */\n  tag_27\n  jump\t// in\ntag_116:\n    /* \"#utility.yul\":6132:6140   */\n  dup2\n    /* \"#utility.yul\":6128:6172   */\n  add\n    /* \"#utility.yul\":6325:6327   */\n  0x20\n    /* \"#utility.yul\":6313:6323   */\n  dup6\n    /* \"#utility.yul\":6310:6328   */\n  lt\n    /* \"#utility.yul\":6307:6356   */\n  iszero\n  tag_117\n  jumpi\n    /* \"#utility.yul\":6346:6354   */\n  dup2\n    /* \"#utility.yul\":6331:6354   */\n  swap1\n  pop\n    /* \"#utility.yul\":6307:6356   */\ntag_117:\n    /* \"#utility.yul\":6369:6449   */\n  tag_118\n    /* \"#utility.yul\":6425:6447   */\n  tag_119\n    /* \"#utility.yul\":6443:6446   */\n  dup6\n    /* \"#utility.yul\":6425:6447   */\n  tag_27\n  jump\t// in\ntag_119:\n    /* \"#utility.yul\":6415:6423   */\n  dup4\n    /* \"#utility.yul\":6411:6448   */\n  add\n    /* \"#utility.yul\":6398:6409   */\n  dup3\n    /* \"#utility.yul\":6369:6449   */\n  tag_37\n  jump\t// in\ntag_118:\n    /* \"#utility.yul\":6028:6459   */\n  pop\n  pop\n    /* \"#utility.yul\":6013:6459   */\ntag_114:\n    /* \"#utility.yul\":5923:6466   */\n  pop\n  pop\n  pop\n  jump\t// out\n    /* \"#utility.yul\":6472:6589   */\ntag_39:\n    /* \"#utility.yul\":6526:6534   */\n  0x00\n    /* \"#utility.yul\":6576:6581   */\n  dup3\n    /* \"#utility.yul\":6570:6574   */\n  dup3\n    /* \"#utility.yul\":6566:6582   */\n  shr\n    /* \"#utility.yul\":6545:6582   */\n  swap1\n  pop\n    /* \"#utility.yul\":6472:6589   */\n  swap3\n  swap2\n  pop\n  pop\n  jump\t// out\n    /* \"#utility.yul\":6595:6764   */\ntag_40:\n    /* \"#utility.yul\":6639:6645   */\n  0x00\n    /* \"#utility.yul\":6672:6723   */\n  tag_122\n    /* \"#utility.yul\":6720:6721   */\n  0x00\n    /* \"#utility.yul\":6716:6722   */\n  not\n    /* \"#utility.yul\":6708:6713   */\n  dup5\n    /* \"#utility.yul\":6705:6706   */\n  0x08\n    /* \"#utility.yul\":6701:6714   */\n  mul\n    /* \"#utility.yul\":6672:6723   */\n  tag_39\n  jump\t// in\ntag_122:\n    /* \"#utility.yul\":6668:6724   */\n  not\n    /* \"#utility.yul\":6753:6757   */\n  dup1\n    /* \"#utility.yul\":6747:6751   */\n  dup4\n    /* \"#utility.yul\":6743:6758   */\n  and\n    /* \"#utility.yul\":6733:6758   */\n  swap2\n  pop\n    /* \"#utility.yul\":6646:6764   */\n  pop\n    /* \"#utility.yul\":6595:6764   */\n  swap3\n  swap2\n  pop\n  pop\n  jump\t// out\n    /* \"#utility.yul\":6769:7064   */\ntag_41:\n    /* \"#utility.yul\":6845:6849   */\n  0x00\n    /* \"#utility.yul\":6991:7020   */\n  tag_124\n    /* \"#utility.yul\":7016:7019   */\n  dup4\n    /* \"#utility.yul\":7010:7014   */\n  dup4\n    /* \"#utility.yul\":6991:7020   */\n  tag_40\n  jump\t// in\ntag_124:\n    /* \"#utility.yul\":6983:7020   */\n  swap2\n  pop\n    /* \"#utility.yul\":7053:7056   */\n  dup3\n    /* \"#utility.yul\":7050:7051   */\n  0x02\n    /* \"#utility.yul\":7046:7057   */\n  mul\n    /* \"#utility.yul\":7040:7044   */\n  dup3\n    /* \"#utility.yul\":7037:7058   */\n  or\n    /* \"#utility.yul\":7029:7058   */\n  swap1\n  pop\n    /* \"#utility.yul\":6769:7064   */\n  swap3\n  swap2\n  pop\n  pop\n  jump\t// out\n    /* \"#utility.yul\":7069:8464   */\ntag_7:\n    /* \"#utility.yul\":7186:7223   */\n  tag_126\n    /* \"#utility.yul\":7219:7222   */\n  dup3\n    /* \"#utility.yul\":7186:7223   */\n  tag_23\n  jump\t// in\ntag_126:\n    /* \"#utility.yul\":7288:7306   */\n  0xffffffffffffffff\n    /* \"#utility.yul\":7280:7286   */\n  dup2\n    /* \"#utility.yul\":7277:7307   */\n  gt\n    /* \"#utility.yul\":7274:7330   */\n  iszero\n  tag_127\n  jumpi\n    /* \"#utility.yul\":7310:7328   */\n  tag_128\n  tag_16\n  jump\t// in\ntag_128:\n    /* \"#utility.yul\":7274:7330   */\ntag_127:\n    /* \"#utility.yul\":7354:7392   */\n  tag_129\n    /* \"#utility.yul\":7386:7390   */\n  dup3\n    /* \"#utility.yul\":7380:7391   */\n  sload\n    /* \"#utility.yul\":7354:7392   */\n  tag_25\n  jump\t// in\ntag_129:\n    /* \"#utility.yul\":7439:7506   */\n  tag_130\n    /* \"#utility.yul\":7499:7505   */\n  dup3\n    /* \"#utility.yul\":7491:7497   */\n  dup3\n    /* \"#utility.yul\":7485:7489   */\n  dup6\n    /* \"#utility.yul\":7439:7506   */\n  tag_38\n  jump\t// in\ntag_130:\n    /* \"#utility.yul\":7533:7534   */\n  0x00\n    /* \"#utility.yul\":7557:7561   */\n  0x20\n    /* \"#utility.yul\":7544:7561   */\n  swap1\n  pop\n    /* \"#utility.yul\":7589:7591   */\n  0x1f\n    /* \"#utility.yul\":7581:7587   */\n  dup4\n    /* \"#utility.yul\":7578:7592   */\n  gt\n    /* \"#utility.yul\":7606:7607   */\n  0x01\n    /* \"#utility.yul\":7601:8219   */\n  dup2\n  eq\n  tag_132\n  jumpi\n    /* \"#utility.yul\":8263:8264   */\n  0x00\n    /* \"#utility.yul\":8280:8286   */\n  dup5\n    /* \"#utility.yul\":8277:8354   */\n  iszero\n  tag_133\n  jumpi\n    /* \"#utility.yul\":8329:8338   */\n  dup3\n    /* \"#utility.yul\":8324:8327   */\n  dup8\n    /* \"#utility.yul\":8320:8339   */\n  add\n    /* \"#utility.yul\":8314:8340   */\n  mload\n    /* \"#utility.yul\":8305:8340   */\n  swap1\n  pop\n    /* \"#utility.yul\":8277:8354   */\ntag_133:\n    /* \"#utility.yul\":8380:8447   */\n  tag_134\n    /* \"#utility.yul\":8440:8446   */\n  dup6\n    /* \"#utility.yul\":8433:8438   */\n  dup3\n    /* \"#utility.yul\":8380:8447   */\n  tag_41\n  jump\t// in\ntag_134:\n    /* \"#utility.yul\":8374:8378   */\n  dup7\n    /* \"#utility.yul\":8367:8448   */\n  sstore\n    /* \"#utility.yul\":8236:8458   */\n  pop\n    /* \"#utility.yul\":7571:8458   */\n  jump(tag_131)\n    /* \"#utility.yul\":7601:8219   */\ntag_132:\n    /* \"#utility.yul\":7653:7657   */\n  0x1f\n    /* \"#utility.yul\":7649:7658   */\n  not\n    /* \"#utility.yul\":7641:7647   */\n  dup5\n    /* \"#utility.yul\":7637:7659   */\n  and\n    /* \"#utility.yul\":7687:7724   */\n  tag_135\n    /* \"#utility.yul\":7719:7723   */\n  dup7\n    /* \"#utility.yul\":7687:7724   */\n  tag_26\n  jump\t// in\ntag_135:\n    /* \"#utility.yul\":7746:7747   */\n  0x00\n    /* \"#utility.yul\":7760:7968   */\ntag_136:\n    /* \"#utility.yul\":7774:7781   */\n  dup3\n    /* \"#utility.yul\":7771:7772   */\n  dup2\n    /* \"#utility.yul\":7768:7782   */\n  lt\n    /* \"#utility.yul\":7760:7968   */\n  iszero\n  tag_138\n  jumpi\n    /* \"#utility.yul\":7853:7862   */\n  dup5\n    /* \"#utility.yul\":7848:7851   */\n  dup10\n    /* \"#utility.yul\":7844:7863   */\n  add\n    /* \"#utility.yul\":7838:7864   */\n  mload\n    /* \"#utility.yul\":7830:7836   */\n  dup3\n    /* \"#utility.yul\":7823:7865   */\n  sstore\n    /* \"#utility.yul\":7904:7905   */\n  0x01\n    /* \"#utility.yul\":7896:7902   */\n  dup3\n    /* \"#utility.yul\":7892:7906   */\n  add\n    /* \"#utility.yul\":7882:7906   */\n  swap2\n  pop\n    /* \"#utility.yul\":7951:7953   */\n  0x20\n    /* \"#utility.yul\":7940:7949   */\n  dup6\n    /* \"#utility.yul\":7936:7954   */\n  add\n    /* \"#utility.yul\":7923:7954   */\n  swap5\n  pop\n    /* \"#utility.yul\":7797:7801   */\n  0x20\n    /* \"#utility.yul\":7794:7795   */\n  dup2\n    /* \"#utility.yul\":7790:7802   */\n  add\n    /* \"#utility.yul\":7785:7802   */\n  swap1\n  pop\n    /* \"#utility.yul\":7760:7968   */\n  jump(tag_136)\ntag_138:\n    /* \"#utility.yul\":7996:8002   */\n  dup7\n    /* \"#utility.yul\":7987:7994   */\n  dup4\n    /* \"#utility.yul\":7984:8003   */\n  lt\n    /* \"#utility.yul\":7981:8160   */\n  iszero\n  tag_139\n  jumpi\n    /* \"#utility.yul\":8054:8063   */\n  dup5\n    /* \"#utility.yul\":8049:8052   */\n  dup10\n    /* \"#utility.yul\":8045:8064   */\n  add\n    /* \"#utility.yul\":8039:8065   */\n  mload\n    /* \"#utility.yul\":8097:8145   */\n  tag_140\n    /* \"#utility.yul\":8139:8143   */\n  0x1f\n    /* \"#utility.yul\":8131:8137   */\n  dup10\n    /* \"#utility.yul\":8127:8144   */\n  and\n    /* \"#utility.yul\":8116:8125   */\n  dup3\n    /* \"#utility.yul\":8097:8145   */\n  tag_40\n  jump\t// in\ntag_140:\n    /* \"#utility.yul\":8089:8095   */\n  dup4\n    /* \"#utility.yul\":8082:8146   */\n  sstore\n    /* \"#utility.yul\":8004:8160   */\n  pop\n    /* \"#utility.yul\":7981:8160   */\ntag_139:\n    /* \"#utility.yul\":8206:8207   */\n  0x01\n    /* \"#utility.yul\":8202:8203   */\n  0x02\n    /* \"#utility.yul\":8194:8200   */\n  dup9\n    /* \"#utility.yul\":8190:8204   */\n  mul\n    /* \"#utility.yul\":8186:8208   */\n  add\n    /* \"#utility.yul\":8180:8184   */\n  dup9\n    /* \"#utility.yul\":8173:8209   */\n  sstore\n    /* \"#utility.yul\":7608:8219   */\n  pop\n  pop\n  pop\n    /* \"#utility.yul\":7571:8458   */\ntag_131:\n  pop\n    /* \"#utility.yul\":7161:8464   */\n  pop\n  pop\n  pop\n    /* \"#utility.yul\":7069:8464   */\n  pop\n  pop\n  jump\t// out\n    /* \"contracts/ERC1155.sol\":629:11786  contract ERC1155 is IERC165, IERC1155, IERC1155MetadataURI {... */\ntag_9:\n  dataSize(sub_0)\n  dup1\n  dataOffset(sub_0)\n  0x00\n  codecopy\n  0x00\n  return\nstop\n\nsub_0: assembly {\n        /* \"contracts/ERC1155.sol\":629:11786  contract ERC1155 is IERC165, IERC1155, IERC1155MetadataURI {... */\n      mstore(0x40, 0x80)\n      callvalue\n      dup1\n      iszero\n      tag_1\n      jumpi\n      0x00\n      dup1\n      revert\n    tag_1:\n      pop\n      jumpi(tag_2, lt(calldatasize, 0x04))\n      shr(0xe0, calldataload(0x00))\n      dup1\n      0x4e1273f4\n      gt\n      tag_13\n      jumpi\n      dup1\n      0x4e1273f4\n      eq\n      tag_8\n      jumpi\n      dup1\n      0x95d89b41\n      eq\n      tag_9\n      jumpi\n      dup1\n      0xa22cb465\n      eq\n      tag_10\n      jumpi\n      dup1\n      0xe985e9c5\n      eq\n      tag_11\n      jumpi\n      dup1\n      0xf242432a\n      eq\n      tag_12\n      jumpi\n      jump(tag_2)\n    tag_13:\n      dup1\n      0xfdd58e\n      eq\n      tag_3\n      jumpi\n      dup1\n      0x01ffc9a7\n      eq\n      tag_4\n      jumpi\n      dup1\n      0x06fdde03\n      eq\n      tag_5\n      jumpi\n      dup1\n      0x0e89341c\n      eq\n      tag_6\n      jumpi\n      dup1\n      0x2eb2c2d6\n      eq\n      tag_7\n      jumpi\n    tag_2:\n      0x00\n      dup1\n      revert\n        /* \"contracts/ERC1155.sol\":1568:1711  function balanceOf(address account, uint256 id) public view virtual override returns (uint256) {... */\n    tag_3:\n      tag_14\n      0x04\n      dup1\n      calldatasize\n      sub\n      dup2\n      add\n      swap1\n      tag_15\n      swap2\n      swap1\n      tag_16\n      jump\t// in\n    tag_15:\n      tag_17\n      jump\t// in\n    tag_14:\n      mload(0x40)\n      tag_18\n      swap2\n      swap1\n      tag_19\n      jump\t// in\n    tag_18:\n      mload(0x40)\n      dup1\n      swap2\n      sub\n      swap1\n      return\n        /* \"contracts/ERC1155.sol\":1247:1539  function supportsInterface(bytes4 interfaceId) public view virtual override returns (bool) {... */\n    tag_4:\n      tag_20\n      0x04\n      dup1\n      calldatasize\n      sub\n      dup2\n      add\n      swap1\n      tag_21\n      swap2\n      swap1\n      tag_22\n      jump\t// in\n    tag_21:\n      tag_23\n      jump\t// in\n    tag_20:\n      mload(0x40)\n      tag_24\n      swap2\n      swap1\n      tag_25\n      jump\t// in\n    tag_24:\n      mload(0x40)\n      dup1\n      swap2\n      sub\n      swap1\n      return\n        /* \"contracts/ERC1155.sol\":781:799  string public name */\n    tag_5:\n      tag_26\n      tag_27\n      jump\t// in\n    tag_26:\n      mload(0x40)\n      tag_28\n      swap2\n      swap1\n      tag_29\n      jump\t// in\n    tag_28:\n      mload(0x40)\n      dup1\n      swap2\n      sub\n      swap1\n      return\n        /* \"contracts/ERC1155.sol\":8772:9003  function uri(uint256 id) public view virtual override returns(string memory) {... */\n    tag_6:\n      tag_30\n      0x04\n      dup1\n      calldatasize\n      sub\n      dup2\n      add\n      swap1\n      tag_31\n      swap2\n      swap1\n      tag_32\n      jump\t// in\n    tag_31:\n      tag_33\n      jump\t// in\n    tag_30:\n      mload(0x40)\n      tag_34\n      swap2\n      swap1\n      tag_29\n      jump\t// in\n    tag_34:\n      mload(0x40)\n      dup1\n      swap2\n      sub\n      swap1\n      return\n        /* \"contracts/ERC1155.sol\":3860:4551  function safeBatchTransferFrom(... */\n    tag_7:\n      tag_35\n      0x04\n      dup1\n      calldatasize\n      sub\n      dup2\n      add\n      swap1\n      tag_36\n      swap2\n      swap1\n      tag_37\n      jump\t// in\n    tag_36:\n      tag_38\n      jump\t// in\n    tag_35:\n      stop\n        /* \"contracts/ERC1155.sol\":1746:2442  function balanceOfBatch(address[] calldata accounts, uint256[] calldata ids)... */\n    tag_8:\n      tag_39\n      0x04\n      dup1\n      calldatasize\n      sub\n      dup2\n      add\n      swap1\n      tag_40\n      swap2\n      swap1\n      tag_41\n      jump\t// in\n    tag_40:\n      tag_42\n      jump\t// in\n    tag_39:\n      mload(0x40)\n      tag_43\n      swap2\n      swap1\n      tag_44\n      jump\t// in\n    tag_43:\n      mload(0x40)\n      dup1\n      swap2\n      sub\n      swap1\n      return\n        /* \"contracts/ERC1155.sol\":826:846  string public symbol */\n    tag_9:\n      tag_45\n      tag_46\n      jump\t// in\n    tag_45:\n      mload(0x40)\n      tag_47\n      swap2\n      swap1\n      tag_29\n      jump\t// in\n    tag_47:\n      mload(0x40)\n      dup1\n      swap2\n      sub\n      swap1\n      return\n        /* \"contracts/ERC1155.sol\":2465:2756  function setApprovalForAll(address operator, bool approved) public virtual override {... */\n    tag_10:\n      tag_48\n      0x04\n      dup1\n      calldatasize\n      sub\n      dup2\n      add\n      swap1\n      tag_49\n      swap2\n      swap1\n      tag_50\n      jump\t// in\n    tag_49:\n      tag_51\n      jump\t// in\n    tag_48:\n      stop\n        /* \"contracts/ERC1155.sol\":2809:2977  function isApprovedForAll(address account, address operator) public view virtual override returns (bool) {... */\n    tag_11:\n      tag_52\n      0x04\n      dup1\n      calldatasize\n      sub\n      dup2\n      add\n      swap1\n      tag_53\n      swap2\n      swap1\n      tag_54\n      jump\t// in\n    tag_53:\n      tag_55\n      jump\t// in\n    tag_52:\n      mload(0x40)\n      tag_56\n      swap2\n      swap1\n      tag_25\n      jump\t// in\n    tag_56:\n      mload(0x40)\n      dup1\n      swap2\n      sub\n      swap1\n      return\n        /* \"contracts/ERC1155.sol\":3006:3831  function safeTransferFrom(... */\n    tag_12:\n      tag_57\n      0x04\n      dup1\n      calldatasize\n      sub\n      dup2\n      add\n      swap1\n      tag_58\n      swap2\n      swap1\n      tag_59\n      jump\t// in\n    tag_58:\n      tag_60\n      jump\t// in\n    tag_57:\n      stop\n        /* \"contracts/ERC1155.sol\":1568:1711  function balanceOf(address account, uint256 id) public view virtual override returns (uint256) {... */\n    tag_17:\n        /* \"contracts/ERC1155.sol\":1654:1661  uint256 */\n      0x00\n        /* \"contracts/ERC1155.sol\":1681:1690  _balances */\n      0x02\n        /* \"contracts/ERC1155.sol\":1681:1694  _balances[id] */\n      0x00\n        /* \"contracts/ERC1155.sol\":1691:1693  id */\n      dup4\n        /* \"contracts/ERC1155.sol\":1681:1694  _balances[id] */\n      dup2\n      mstore\n      0x20\n      add\n      swap1\n      dup2\n      mstore\n      0x20\n      add\n      0x00\n      keccak256\n        /* \"contracts/ERC1155.sol\":1681:1703  _balances[id][account] */\n      0x00\n        /* \"contracts/ERC1155.sol\":1695:1702  account */\n      dup5\n        /* \"contracts/ERC1155.sol\":1681:1703  _balances[id][account] */\n      0xffffffffffffffffffffffffffffffffffffffff\n      and\n      0xffffffffffffffffffffffffffffffffffffffff\n      and\n      dup2\n      mstore\n      0x20\n      add\n      swap1\n      dup2\n      mstore\n      0x20\n      add\n      0x00\n      keccak256\n      sload\n        /* \"contracts/ERC1155.sol\":1674:1703  return _balances[id][account] */\n      swap1\n      pop\n        /* \"contracts/ERC1155.sol\":1568:1711  function balanceOf(address account, uint256 id) public view virtual override returns (uint256) {... */\n      swap3\n      swap2\n      pop\n      pop\n      jump\t// out\n        /* \"contracts/ERC1155.sol\":1247:1539  function supportsInterface(bytes4 interfaceId) public view virtual override returns (bool) {... */\n    tag_23:\n        /* \"contracts/ERC1155.sol\":1332:1336  bool */\n      0x00\n        /* \"contracts/ERC1155.sol\":1371:1397  type(IERC1155).interfaceId */\n      0xd9b67a2600000000000000000000000000000000000000000000000000000000\n        /* \"contracts/ERC1155.sol\":1356:1397  interfaceId == type(IERC1155).interfaceId */\n      not(0xffffffffffffffffffffffffffffffffffffffffffffffffffffffff)\n      and\n        /* \"contracts/ERC1155.sol\":1356:1367  interfaceId */\n      dup3\n        /* \"contracts/ERC1155.sol\":1356:1397  interfaceId == type(IERC1155).interfaceId */\n      not(0xffffffffffffffffffffffffffffffffffffffffffffffffffffffff)\n      and\n      eq\n        /* \"contracts/ERC1155.sol\":1356:1470  interfaceId == type(IERC1155).interfaceId ||... */\n      dup1\n      tag_63\n      jumpi\n      pop\n        /* \"contracts/ERC1155.sol\":1433:1470  type(IERC1155MetadataURI).interfaceId */\n      0x0e89341c00000000000000000000000000000000000000000000000000000000\n        /* \"contracts/ERC1155.sol\":1418:1470  interfaceId == type(IERC1155MetadataURI).interfaceId */\n      not(0xffffffffffffffffffffffffffffffffffffffffffffffffffffffff)\n      and\n        /* \"contracts/ERC1155.sol\":1418:1429  interfaceId */\n      dup3\n        /* \"contracts/ERC1155.sol\":1418:1470  interfaceId == type(IERC1155MetadataURI).interfaceId */\n      not(0xffffffffffffffffffffffffffffffffffffffffffffffffffffffff)\n      and\n      eq\n        /* \"contracts/ERC1155.sol\":1356:1470  interfaceId == type(IERC1155).interfaceId ||... */\n    tag_63:\n        /* \"contracts/ERC1155.sol\":1356:1531  interfaceId == type(IERC1155).interfaceId ||... */\n      dup1\n      tag_64\n      jumpi\n      pop\n        /* \"contracts/ERC1155.sol\":1506:1531  type(IERC165).interfaceId */\n      0x01ffc9a700000000000000000000000000000000000000000000000000000000\n        /* \"contracts/ERC1155.sol\":1491:1531  interfaceId == type(IERC165).interfaceId */\n      not(0xffffffffffffffffffffffffffffffffffffffffffffffffffffffff)\n      and\n        /* \"contracts/ERC1155.sol\":1491:1502  interfaceId */\n      dup3\n        /* \"contracts/ERC1155.sol\":1491:1531  interfaceId == type(IERC165).interfaceId */\n      not(0xffffffffffffffffffffffffffffffffffffffffffffffffffffffff)\n      and\n      eq\n        /* \"contracts/ERC1155.sol\":1356:1531  interfaceId == type(IERC1155).interfaceId ||... */\n    tag_64:\n        /* \"contracts/ERC1155.sol\":1349:1531  return interfaceId == type(IERC1155).interfaceId ||... */\n      swap1\n      pop\n        /* \"contracts/ERC1155.sol\":1247:1539  function supportsInterface(bytes4 interfaceId) public view virtual override returns (bool) {... */\n      swap2\n      swap1\n      pop\n      jump\t// out\n        /* \"contracts/ERC1155.sol\":781:799  string public name */\n    tag_27:\n      0x00\n      dup1\n      sload\n      tag_65\n      swap1\n      tag_66\n      jump\t// in\n    tag_65:\n      dup1\n      0x1f\n      add\n      0x20\n      dup1\n      swap2\n      div\n      mul\n      0x20\n      add\n      mload(0x40)\n      swap1\n      dup2\n      add\n      0x40\n      mstore\n      dup1\n      swap3\n      swap2\n      swap1\n      dup2\n      dup2\n      mstore\n      0x20\n      add\n      dup3\n      dup1\n      sload\n      tag_67\n      swap1\n      tag_66\n      jump\t// in\n    tag_67:\n      dup1\n      iszero\n      tag_68\n      jumpi\n      dup1\n      0x1f\n      lt\n      tag_69\n      jumpi\n      0x0100\n      dup1\n      dup4\n      sload\n      div\n      mul\n      dup4\n      mstore\n      swap2\n      0x20\n      add\n      swap2\n      jump(tag_68)\n    tag_69:\n      dup3\n      add\n      swap2\n      swap1\n      0x00\n      mstore\n      keccak256(0x00, 0x20)\n      swap1\n    tag_70:\n      dup2\n      sload\n      dup2\n      mstore\n      swap1\n      0x01\n      add\n      swap1\n      0x20\n      add\n      dup1\n      dup4\n      gt\n      tag_70\n      jumpi\n      dup3\n      swap1\n      sub\n      0x1f\n      and\n      dup3\n      add\n      swap2\n    tag_68:\n      pop\n      pop\n      pop\n      pop\n      pop\n      dup2\n      jump\t// out\n        /* \"contracts/ERC1155.sol\":8772:9003  function uri(uint256 id) public view virtual override returns(string memory) {... */\n    tag_33:\n        /* \"contracts/ERC1155.sol\":8834:8847  string memory */\n      0x60\n        /* \"contracts/ERC1155.sol\":8860:8881  string memory baseURI */\n      0x00\n        /* \"contracts/ERC1155.sol\":8884:8894  _baseURI() */\n      tag_72\n        /* \"contracts/ERC1155.sol\":8884:8892  _baseURI */\n      tag_73\n        /* \"contracts/ERC1155.sol\":8884:8894  _baseURI() */\n      jump\t// in\n    tag_72:\n        /* \"contracts/ERC1155.sol\":8860:8894  string memory baseURI = _baseURI() */\n      swap1\n      pop\n        /* \"contracts/ERC1155.sol\":8938:8939  0 */\n      0x00\n        /* \"contracts/ERC1155.sol\":8920:8927  baseURI */\n      dup2\n        /* \"contracts/ERC1155.sol\":8914:8935  bytes(baseURI).length */\n      mload\n        /* \"contracts/ERC1155.sol\":8914:8939  bytes(baseURI).length > 0 */\n      gt\n        /* \"contracts/ERC1155.sol\":8914:8995  bytes(baseURI).length > 0 ? string(abi.encodePacked(baseURI, id.toString())) : \"\" */\n      tag_74\n      jumpi\n      mload(0x40)\n      dup1\n      0x20\n      add\n      0x40\n      mstore\n      dup1\n      0x00\n      dup2\n      mstore\n      pop\n      jump(tag_75)\n    tag_74:\n        /* \"contracts/ERC1155.sol\":8966:8973  baseURI */\n      dup1\n        /* \"contracts/ERC1155.sol\":8975:8988  id.toString() */\n      tag_76\n        /* \"contracts/ERC1155.sol\":8975:8977  id */\n      dup5\n        /* \"contracts/ERC1155.sol\":8975:8986  id.toString */\n      tag_77\n        /* \"contracts/ERC1155.sol\":8975:8988  id.toString() */\n      jump\t// in\n    tag_76:\n        /* \"contracts/ERC1155.sol\":8949:8989  abi.encodePacked(baseURI, id.toString()) */\n      add(0x20, mload(0x40))\n      tag_78\n      swap3\n      swap2\n      swap1\n      tag_79\n      jump\t// in\n    tag_78:\n      mload(0x40)\n      0x20\n      dup2\n      dup4\n      sub\n      sub\n      dup2\n      mstore\n      swap1\n      0x40\n      mstore\n        /* \"contracts/ERC1155.sol\":8914:8995  bytes(baseURI).length > 0 ? string(abi.encodePacked(baseURI, id.toString())) : \"\" */\n    tag_75:\n        /* \"contracts/ERC1155.sol\":8907:8995  return bytes(baseURI).length > 0 ? string(abi.encodePacked(baseURI, id.toString())) : \"\" */\n      swap2\n      pop\n      pop\n        /* \"contracts/ERC1155.sol\":8772:9003  function uri(uint256 id) public view virtual override returns(string memory) {... */\n      swap2\n      swap1\n      pop\n      jump\t// out\n        /* \"contracts/ERC1155.sol\":3860:4551  function safeBatchTransferFrom(... */\n    tag_38:\n        /* \"contracts/ERC1155.sol\":4141:4155  address sender */\n      0x00\n        /* \"contracts/ERC1155.sol\":4158:4168  msg.sender */\n      caller\n        /* \"contracts/ERC1155.sol\":4141:4168  address sender = msg.sender */\n      swap1\n      pop\n        /* \"contracts/ERC1155.sol\":4199:4203  from */\n      dup9\n        /* \"contracts/ERC1155.sol\":4189:4203  sender == from */\n      0xffffffffffffffffffffffffffffffffffffffff\n      and\n        /* \"contracts/ERC1155.sol\":4189:4195  sender */\n      dup2\n        /* \"contracts/ERC1155.sol\":4189:4203  sender == from */\n      0xffffffffffffffffffffffffffffffffffffffff\n      and\n      eq\n        /* \"contracts/ERC1155.sol\":4189:4237  sender == from || isApprovedForAll(sender, from) */\n      dup1\n      tag_81\n      jumpi\n      pop\n        /* \"contracts/ERC1155.sol\":4207:4237  isApprovedForAll(sender, from) */\n      tag_82\n        /* \"contracts/ERC1155.sol\":4224:4230  sender */\n      dup2\n        /* \"contracts/ERC1155.sol\":4232:4236  from */\n      dup11\n        /* \"contracts/ERC1155.sol\":4207:4223  isApprovedForAll */\n      tag_55\n        /* \"contracts/ERC1155.sol\":4207:4237  isApprovedForAll(sender, from) */\n      jump\t// in\n    tag_82:\n        /* \"contracts/ERC1155.sol\":4189:4237  sender == from || isApprovedForAll(sender, from) */\n    tag_81:\n        /* \"contracts/ERC1155.sol\":4181:4256  require(sender == from || isApprovedForAll(sender, from), \"Access denied.\") */\n      tag_83\n      jumpi\n      mload(0x40)\n      0x08c379a000000000000000000000000000000000000000000000000000000000\n      dup2\n      mstore\n      0x04\n      add\n      tag_84\n      swap1\n      tag_85\n      jump\t// in\n    tag_84:\n      mload(0x40)\n      dup1\n      swap2\n      sub\n      swap1\n      revert\n    tag_83:\n        /* \"contracts/ERC1155.sol\":4324:4325  0 */\n      0x00\n        /* \"contracts/ERC1155.sol\":4310:4326  to != address(0) */\n      0xffffffffffffffffffffffffffffffffffffffff\n      and\n        /* \"contracts/ERC1155.sol\":4310:4312  to */\n      dup9\n        /* \"contracts/ERC1155.sol\":4310:4326  to != address(0) */\n      0xffffffffffffffffffffffffffffffffffffffff\n      and\n      sub\n        /* \"contracts/ERC1155.sol\":4302:4357  require(to != address(0), \"`to` can't be zero address\") */\n      tag_86\n      jumpi\n      mload(0x40)\n      0x08c379a000000000000000000000000000000000000000000000000000000000\n      dup2\n      mstore\n      0x04\n      add\n      tag_87\n      swap1\n      tag_88\n      jump\t// in\n    tag_87:\n      mload(0x40)\n      dup1\n      swap2\n      sub\n      swap1\n      revert\n    tag_86:\n        /* \"contracts/ERC1155.sol\":4395:4426  _update(from, to, ids, amounts) */\n      tag_89\n        /* \"contracts/ERC1155.sol\":4403:4407  from */\n      dup10\n        /* \"contracts/ERC1155.sol\":4409:4411  to */\n      dup10\n        /* \"contracts/ERC1155.sol\":4413:4416  ids */\n      dup10\n      dup10\n        /* \"contracts/ERC1155.sol\":4395:4426  _update(from, to, ids, amounts) */\n      dup1\n      dup1\n      0x20\n      mul\n      0x20\n      add\n      mload(0x40)\n      swap1\n      dup2\n      add\n      0x40\n      mstore\n      dup1\n      swap4\n      swap3\n      swap2\n      swap1\n      dup2\n      dup2\n      mstore\n      0x20\n      add\n      dup4\n      dup4\n      0x20\n      mul\n      dup1\n      dup3\n      dup5\n      calldatacopy\n      0x00\n      dup2\n      dup5\n      add\n      mstore\n      not(0x1f)\n      0x1f\n      dup3\n      add\n      and\n      swap1\n      pop\n      dup1\n      dup4\n      add\n      swap3\n      pop\n      pop\n      pop\n      pop\n      pop\n      pop\n      pop\n        /* \"contracts/ERC1155.sol\":4418:4425  amounts */\n      dup9\n      dup9\n        /* \"contracts/ERC1155.sol\":4395:4426  _update(from, to, ids, amounts) */\n      dup1\n      dup1\n      0x20\n      mul\n      0x20\n      add\n      mload(0x40)\n      swap1\n      dup2\n      add\n      0x40\n      mstore\n      dup1\n      swap4\n      swap3\n      swap2\n      swap1\n      dup2\n      dup2\n      mstore\n      0x20\n      add\n      dup4\n      dup4\n      0x20\n      mul\n      dup1\n      dup3\n      dup5\n      calldatacopy\n      0x00\n      dup2\n      dup5\n      add\n      mstore\n      not(0x1f)\n      0x1f\n      dup3\n      add\n      and\n      swap1\n      pop\n      dup1\n      dup4\n      add\n      swap3\n      pop\n      pop\n      pop\n      pop\n      pop\n      pop\n      pop\n        /* \"contracts/ERC1155.sol\":4395:4402  _update */\n      tag_90\n        /* \"contracts/ERC1155.sol\":4395:4426  _update(from, to, ids, amounts) */\n      jump\t// in\n    tag_89:\n        /* \"contracts/ERC1155.sol\":4470:4543  _doSafeBatchTransferAcceptanceCheck(sender, from, to, ids, amounts, data) */\n      tag_91\n        /* \"contracts/ERC1155.sol\":4506:4512  sender */\n      dup2\n        /* \"contracts/ERC1155.sol\":4514:4518  from */\n      dup11\n        /* \"contracts/ERC1155.sol\":4520:4522  to */\n      dup11\n        /* \"contracts/ERC1155.sol\":4524:4527  ids */\n      dup11\n      dup11\n        /* \"contracts/ERC1155.sol\":4470:4543  _doSafeBatchTransferAcceptanceCheck(sender, from, to, ids, amounts, data) */\n      dup1\n      dup1\n      0x20\n      mul\n      0x20\n      add\n      mload(0x40)\n      swap1\n      dup2\n      add\n      0x40\n      mstore\n      dup1\n      swap4\n      swap3\n      swap2\n      swap1\n      dup2\n      dup2\n      mstore\n      0x20\n      add\n      dup4\n      dup4\n      0x20\n      mul\n      dup1\n      dup3\n      dup5\n      calldatacopy\n      0x00\n      dup2\n      dup5\n      add\n      mstore\n      not(0x1f)\n      0x1f\n      dup3\n      add\n      and\n      swap1\n      pop\n      dup1\n      dup4\n      add\n      swap3\n      pop\n      pop\n      pop\n      pop\n      pop\n      pop\n      pop\n        /* \"contracts/ERC1155.sol\":4529:4536  amounts */\n      dup10\n      dup10\n        /* \"contracts/ERC1155.sol\":4470:4543  _doSafeBatchTransferAcceptanceCheck(sender, from, to, ids, amounts, data) */\n      dup1\n      dup1\n      0x20\n      mul\n      0x20\n      add\n      mload(0x40)\n      swap1\n      dup2\n      add\n      0x40\n      mstore\n      dup1\n      swap4\n      swap3\n      swap2\n      swap1\n      dup2\n      dup2\n      mstore\n      0x20\n      add\n      dup4\n      dup4\n      0x20\n      mul\n      dup1\n      dup3\n      dup5\n      calldatacopy\n      0x00\n      dup2\n      dup5\n      add\n      mstore\n      not(0x1f)\n      0x1f\n      dup3\n      add\n      and\n      swap1\n      pop\n      dup1\n      dup4\n      add\n      swap3\n      pop\n      pop\n      pop\n      pop\n      pop\n      pop\n      pop\n        /* \"contracts/ERC1155.sol\":4538:4542  data */\n      dup9\n      dup9\n        /* \"contracts/ERC1155.sol\":4470:4543  _doSafeBatchTransferAcceptanceCheck(sender, from, to, ids, amounts, data) */\n      dup1\n      dup1\n      0x1f\n      add\n      0x20\n      dup1\n      swap2\n      div\n      mul\n      0x20\n      add\n      mload(0x40)\n      swap1\n      dup2\n      add\n      0x40\n      mstore\n      dup1\n      swap4\n      swap3\n      swap2\n      swap1\n      dup2\n      dup2\n      mstore\n      0x20\n      add\n      dup4\n      dup4\n      dup1\n      dup3\n      dup5\n      calldatacopy\n      0x00\n      dup2\n      dup5\n      add\n      mstore\n      not(0x1f)\n      0x1f\n      dup3\n      add\n      and\n      swap1\n      pop\n      dup1\n      dup4\n      add\n      swap3\n      pop\n      pop\n      pop\n      pop\n      pop\n      pop\n      pop\n        /* \"contracts/ERC1155.sol\":4470:4505  _doSafeBatchTransferAcceptanceCheck */\n      tag_92\n        /* \"contracts/ERC1155.sol\":4470:4543  _doSafeBatchTransferAcceptanceCheck(sender, from, to, ids, amounts, data) */\n      jump\t// in\n    tag_91:\n        /* \"contracts/ERC1155.sol\":4049:4551  {... */\n      pop\n        /* \"contracts/ERC1155.sol\":3860:4551  function safeBatchTransferFrom(... */\n      pop\n      pop\n      pop\n      pop\n      pop\n      pop\n      pop\n      pop\n      jump\t// out\n        /* \"contracts/ERC1155.sol\":1746:2442  function balanceOfBatch(address[] calldata accounts, uint256[] calldata ids)... */\n    tag_42:\n        /* \"contracts/ERC1155.sol\":1906:1922  uint256[] memory */\n      0x60\n        /* \"contracts/ERC1155.sol\":2030:2033  ids */\n      dup3\n      dup3\n        /* \"contracts/ERC1155.sol\":2030:2040  ids.length */\n      swap1\n      pop\n        /* \"contracts/ERC1155.sol\":2011:2019  accounts */\n      dup6\n      dup6\n        /* \"contracts/ERC1155.sol\":2011:2026  accounts.length */\n      swap1\n      pop\n        /* \"contracts/ERC1155.sol\":2011:2040  accounts.length == ids.length */\n      eq\n        /* \"contracts/ERC1155.sol\":2003:2099  require(accounts.length == ids.length, \"ERC1155, the length of accounts and ids is not equals.\") */\n      tag_94\n      jumpi\n      mload(0x40)\n      0x08c379a000000000000000000000000000000000000000000000000000000000\n      dup2\n      mstore\n      0x04\n      add\n      tag_95\n      swap1\n      tag_96\n      jump\t// in\n    tag_95:\n      mload(0x40)\n      dup1\n      swap2\n      sub\n      swap1\n      revert\n    tag_94:\n        /* \"contracts/ERC1155.sol\":2157:2187  uint256[] memory batchBalances */\n      0x00\n        /* \"contracts/ERC1155.sol\":2204:2212  accounts */\n      dup6\n      dup6\n        /* \"contracts/ERC1155.sol\":2204:2219  accounts.length */\n      swap1\n      pop\n        /* \"contracts/ERC1155.sol\":2190:2220  new uint256[](accounts.length) */\n      0xffffffffffffffff\n      dup2\n      gt\n      iszero\n      tag_97\n      jumpi\n      tag_98\n      tag_99\n      jump\t// in\n    tag_98:\n    tag_97:\n      mload(0x40)\n      swap1\n      dup1\n      dup3\n      mstore\n      dup1\n      0x20\n      mul\n      0x20\n      add\n      dup3\n      add\n      0x40\n      mstore\n      dup1\n      iszero\n      tag_100\n      jumpi\n      dup2\n      0x20\n      add\n      0x20\n      dup3\n      mul\n      dup1\n      calldatasize\n      dup4\n      calldatacopy\n      dup1\n      dup3\n      add\n      swap2\n      pop\n      pop\n      swap1\n      pop\n    tag_100:\n      pop\n        /* \"contracts/ERC1155.sol\":2157:2220  uint256[] memory batchBalances = new uint256[](accounts.length) */\n      swap1\n      pop\n        /* \"contracts/ERC1155.sol\":2276:2282  uint i */\n      0x00\n        /* \"contracts/ERC1155.sol\":2272:2398  for(uint i = 0; i < accounts.length; i++) {... */\n    tag_101:\n        /* \"contracts/ERC1155.sol\":2292:2300  accounts */\n      dup7\n      dup7\n        /* \"contracts/ERC1155.sol\":2292:2307  accounts.length */\n      swap1\n      pop\n        /* \"contracts/ERC1155.sol\":2288:2289  i */\n      dup2\n        /* \"contracts/ERC1155.sol\":2288:2307  i < accounts.length */\n      lt\n        /* \"contracts/ERC1155.sol\":2272:2398  for(uint i = 0; i < accounts.length; i++) {... */\n      iszero\n      tag_102\n      jumpi\n        /* \"contracts/ERC1155.sol\":2352:2382  balanceOf(accounts[i], ids[i]) */\n      tag_104\n        /* \"contracts/ERC1155.sol\":2362:2370  accounts */\n      dup8\n      dup8\n        /* \"contracts/ERC1155.sol\":2371:2372  i */\n      dup4\n        /* \"contracts/ERC1155.sol\":2362:2373  accounts[i] */\n      dup2\n      dup2\n      lt\n      tag_105\n      jumpi\n      tag_106\n      tag_107\n      jump\t// in\n    tag_106:\n    tag_105:\n      swap1\n      pop\n      0x20\n      mul\n      add\n      0x20\n      dup2\n      add\n      swap1\n      tag_108\n      swap2\n      swap1\n      tag_109\n      jump\t// in\n    tag_108:\n        /* \"contracts/ERC1155.sol\":2375:2378  ids */\n      dup7\n      dup7\n        /* \"contracts/ERC1155.sol\":2379:2380  i */\n      dup5\n        /* \"contracts/ERC1155.sol\":2375:2381  ids[i] */\n      dup2\n      dup2\n      lt\n      tag_110\n      jumpi\n      tag_111\n      tag_107\n      jump\t// in\n    tag_111:\n    tag_110:\n      swap1\n      pop\n      0x20\n      mul\n      add\n      calldataload\n        /* \"contracts/ERC1155.sol\":2352:2361  balanceOf */\n      tag_17\n        /* \"contracts/ERC1155.sol\":2352:2382  balanceOf(accounts[i], ids[i]) */\n      jump\t// in\n    tag_104:\n        /* \"contracts/ERC1155.sol\":2333:2346  batchBalances */\n      dup3\n        /* \"contracts/ERC1155.sol\":2347:2348  i */\n      dup3\n        /* \"contracts/ERC1155.sol\":2333:2349  batchBalances[i] */\n      dup2\n      mload\n      dup2\n      lt\n      tag_112\n      jumpi\n      tag_113\n      tag_107\n      jump\t// in\n    tag_113:\n    tag_112:\n      0x20\n      mul\n      0x20\n      add\n      add\n        /* \"contracts/ERC1155.sol\":2333:2382  batchBalances[i] = balanceOf(accounts[i], ids[i]) */\n      dup2\n      dup2\n      mstore\n      pop\n      pop\n        /* \"contracts/ERC1155.sol\":2309:2312  i++ */\n      dup1\n      dup1\n      0x01\n      add\n      swap2\n      pop\n      pop\n        /* \"contracts/ERC1155.sol\":2272:2398  for(uint i = 0; i < accounts.length; i++) {... */\n      jump(tag_101)\n    tag_102:\n      pop\n        /* \"contracts/ERC1155.sol\":2421:2434  batchBalances */\n      dup1\n        /* \"contracts/ERC1155.sol\":2414:2434  return batchBalances */\n      swap2\n      pop\n      pop\n        /* \"contracts/ERC1155.sol\":1746:2442  function balanceOfBatch(address[] calldata accounts, uint256[] calldata ids)... */\n      swap5\n      swap4\n      pop\n      pop\n      pop\n      pop\n      jump\t// out\n        /* \"contracts/ERC1155.sol\":826:846  string public symbol */\n    tag_46:\n      0x01\n      dup1\n      sload\n      tag_114\n      swap1\n      tag_66\n      jump\t// in\n    tag_114:\n      dup1\n      0x1f\n      add\n      0x20\n      dup1\n      swap2\n      div\n      mul\n      0x20\n      add\n      mload(0x40)\n      swap1\n      dup2\n      add\n      0x40\n      mstore\n      dup1\n      swap3\n      swap2\n      swap1\n      dup2\n      dup2\n      mstore\n      0x20\n      add\n      dup3\n      dup1\n      sload\n      tag_115\n      swap1\n      tag_66\n      jump\t// in\n    tag_115:\n      dup1\n      iszero\n      tag_116\n      jumpi\n      dup1\n      0x1f\n      lt\n      tag_117\n      jumpi\n      0x0100\n      dup1\n      dup4\n      sload\n      div\n      mul\n      dup4\n      mstore\n      swap2\n      0x20\n      add\n      swap2\n      jump(tag_116)\n    tag_117:\n      dup3\n      add\n      swap2\n      swap1\n      0x00\n      mstore\n      keccak256(0x00, 0x20)\n      swap1\n    tag_118:\n      dup2\n      sload\n      dup2\n      mstore\n      swap1\n      0x01\n      add\n      swap1\n      0x20\n      add\n      dup1\n      dup4\n      gt\n      tag_118\n      jumpi\n      dup3\n      swap1\n      sub\n      0x1f\n      and\n      dup3\n      add\n      swap2\n    tag_116:\n      pop\n      pop\n      pop\n      pop\n      pop\n      dup2\n      jump\t// out\n        /* \"contracts/ERC1155.sol\":2465:2756  function setApprovalForAll(address operator, bool approved) public virtual override {... */\n    tag_51:\n        /* \"contracts/ERC1155.sol\":2582:2590  operator */\n      dup2\n        /* \"contracts/ERC1155.sol\":2568:2590  msg.sender != operator */\n      0xffffffffffffffffffffffffffffffffffffffff\n      and\n        /* \"contracts/ERC1155.sol\":2568:2578  msg.sender */\n      caller\n        /* \"contracts/ERC1155.sol\":2568:2590  msg.sender != operator */\n      0xffffffffffffffffffffffffffffffffffffffff\n      and\n      sub\n        /* \"contracts/ERC1155.sol\":2560:2622  require(msg.sender != operator, \"Don't approval to yourself.\") */\n      tag_120\n      jumpi\n      mload(0x40)\n      0x08c379a000000000000000000000000000000000000000000000000000000000\n      dup2\n      mstore\n      0x04\n      add\n      tag_121\n      swap1\n      tag_122\n      jump\t// in\n    tag_121:\n      mload(0x40)\n      dup1\n      swap2\n      sub\n      swap1\n      revert\n    tag_120:\n        /* \"contracts/ERC1155.sol\":2676:2684  approved */\n      dup1\n        /* \"contracts/ERC1155.sol\":2633:2651  _operatorApprovals */\n      0x03\n        /* \"contracts/ERC1155.sol\":2633:2663  _operatorApprovals[msg.sender] */\n      0x00\n        /* \"contracts/ERC1155.sol\":2652:2662  msg.sender */\n      caller\n        /* \"contracts/ERC1155.sol\":2633:2663  _operatorApprovals[msg.sender] */\n      0xffffffffffffffffffffffffffffffffffffffff\n      and\n      0xffffffffffffffffffffffffffffffffffffffff\n      and\n      dup2\n      mstore\n      0x20\n      add\n      swap1\n      dup2\n      mstore\n      0x20\n      add\n      0x00\n      keccak256\n        /* \"contracts/ERC1155.sol\":2633:2673  _operatorApprovals[msg.sender][operator] */\n      0x00\n        /* \"contracts/ERC1155.sol\":2664:2672  operator */\n      dup5\n        /* \"contracts/ERC1155.sol\":2633:2673  _operatorApprovals[msg.sender][operator] */\n      0xffffffffffffffffffffffffffffffffffffffff\n      and\n      0xffffffffffffffffffffffffffffffffffffffff\n      and\n      dup2\n      mstore\n      0x20\n      add\n      swap1\n      dup2\n      mstore\n      0x20\n      add\n      0x00\n      keccak256\n      0x00\n        /* \"contracts/ERC1155.sol\":2633:2684  _operatorApprovals[msg.sender][operator] = approved */\n      0x0100\n      exp\n      dup2\n      sload\n      dup2\n      0xff\n      mul\n      not\n      and\n      swap1\n      dup4\n      iszero\n      iszero\n      mul\n      or\n      swap1\n      sstore\n      pop\n        /* \"contracts/ERC1155.sol\":2729:2737  operator */\n      dup2\n        /* \"contracts/ERC1155.sol\":2702:2748  ApprovalForAll(msg.sender, operator, approved) */\n      0xffffffffffffffffffffffffffffffffffffffff\n      and\n        /* \"contracts/ERC1155.sol\":2717:2727  msg.sender */\n      caller\n        /* \"contracts/ERC1155.sol\":2702:2748  ApprovalForAll(msg.sender, operator, approved) */\n      0xffffffffffffffffffffffffffffffffffffffff\n      and\n      0x17307eab39ab6107e8899845ad3d59bd9653f200f220920489ca2b5937696c31\n        /* \"contracts/ERC1155.sol\":2739:2747  approved */\n      dup4\n        /* \"contracts/ERC1155.sol\":2702:2748  ApprovalForAll(msg.sender, operator, approved) */\n      mload(0x40)\n      tag_123\n      swap2\n      swap1\n      tag_25\n      jump\t// in\n    tag_123:\n      mload(0x40)\n      dup1\n      swap2\n      sub\n      swap1\n      log3\n        /* \"contracts/ERC1155.sol\":2465:2756  function setApprovalForAll(address operator, bool approved) public virtual override {... */\n      pop\n      pop\n      jump\t// out\n        /* \"contracts/ERC1155.sol\":2809:2977  function isApprovedForAll(address account, address operator) public view virtual override returns (bool) {... */\n    tag_55:\n        /* \"contracts/ERC1155.sol\":2908:2912  bool */\n      0x00\n        /* \"contracts/ERC1155.sol\":2932:2950  _operatorApprovals */\n      0x03\n        /* \"contracts/ERC1155.sol\":2932:2959  _operatorApprovals[account] */\n      0x00\n        /* \"contracts/ERC1155.sol\":2951:2958  account */\n      dup5\n        /* \"contracts/ERC1155.sol\":2932:2959  _operatorApprovals[account] */\n      0xffffffffffffffffffffffffffffffffffffffff\n      and\n      0xffffffffffffffffffffffffffffffffffffffff\n      and\n      dup2\n      mstore\n      0x20\n      add\n      swap1\n      dup2\n      mstore\n      0x20\n      add\n      0x00\n      keccak256\n        /* \"contracts/ERC1155.sol\":2932:2969  _operatorApprovals[account][operator] */\n      0x00\n        /* \"contracts/ERC1155.sol\":2960:2968  operator */\n      dup4\n        /* \"contracts/ERC1155.sol\":2932:2969  _operatorApprovals[account][operator] */\n      0xffffffffffffffffffffffffffffffffffffffff\n      and\n      0xffffffffffffffffffffffffffffffffffffffff\n      and\n      dup2\n      mstore\n      0x20\n      add\n      swap1\n      dup2\n      mstore\n      0x20\n      add\n      0x00\n      keccak256\n      0x00\n      swap1\n      sload\n      swap1\n      0x0100\n      exp\n      swap1\n      div\n      0xff\n      and\n        /* \"contracts/ERC1155.sol\":2925:2969  return _operatorApprovals[account][operator] */\n      swap1\n      pop\n        /* \"contracts/ERC1155.sol\":2809:2977  function isApprovedForAll(address account, address operator) public view virtual override returns (bool) {... */\n      swap3\n      swap2\n      pop\n      pop\n      jump\t// out\n        /* \"contracts/ERC1155.sol\":3006:3831  function safeTransferFrom(... */\n    tag_60:\n        /* \"contracts/ERC1155.sol\":3258:3272  address sender */\n      0x00\n        /* \"contracts/ERC1155.sol\":3275:3285  msg.sender */\n      caller\n        /* \"contracts/ERC1155.sol\":3258:3285  address sender = msg.sender */\n      swap1\n      pop\n        /* \"contracts/ERC1155.sol\":3316:3320  from */\n      dup7\n        /* \"contracts/ERC1155.sol\":3306:3320  sender == from */\n      0xffffffffffffffffffffffffffffffffffffffff\n      and\n        /* \"contracts/ERC1155.sol\":3306:3312  sender */\n      dup2\n        /* \"contracts/ERC1155.sol\":3306:3320  sender == from */\n      0xffffffffffffffffffffffffffffffffffffffff\n      and\n      eq\n        /* \"contracts/ERC1155.sol\":3306:3354  sender == from || isApprovedForAll(sender, from) */\n      dup1\n      tag_126\n      jumpi\n      pop\n        /* \"contracts/ERC1155.sol\":3324:3354  isApprovedForAll(sender, from) */\n      tag_127\n        /* \"contracts/ERC1155.sol\":3341:3347  sender */\n      dup2\n        /* \"contracts/ERC1155.sol\":3349:3353  from */\n      dup9\n        /* \"contracts/ERC1155.sol\":3324:3340  isApprovedForAll */\n      tag_55\n        /* \"contracts/ERC1155.sol\":3324:3354  isApprovedForAll(sender, from) */\n      jump\t// in\n    tag_127:\n        /* \"contracts/ERC1155.sol\":3306:3354  sender == from || isApprovedForAll(sender, from) */\n    tag_126:\n        /* \"contracts/ERC1155.sol\":3298:3373  require(sender == from || isApprovedForAll(sender, from), \"Access denied.\") */\n      tag_128\n      jumpi\n      mload(0x40)\n      0x08c379a000000000000000000000000000000000000000000000000000000000\n      dup2\n      mstore\n      0x04\n      add\n      tag_129\n      swap1\n      tag_85\n      jump\t// in\n    tag_129:\n      mload(0x40)\n      dup1\n      swap2\n      sub\n      swap1\n      revert\n    tag_128:\n        /* \"contracts/ERC1155.sol\":3441:3442  0 */\n      0x00\n        /* \"contracts/ERC1155.sol\":3427:3443  to != address(0) */\n      0xffffffffffffffffffffffffffffffffffffffff\n      and\n        /* \"contracts/ERC1155.sol\":3427:3429  to */\n      dup7\n        /* \"contracts/ERC1155.sol\":3427:3443  to != address(0) */\n      0xffffffffffffffffffffffffffffffffffffffff\n      and\n      sub\n        /* \"contracts/ERC1155.sol\":3419:3474  require(to != address(0), \"`to` can't be zero address\") */\n      tag_130\n      jumpi\n      mload(0x40)\n      0x08c379a000000000000000000000000000000000000000000000000000000000\n      dup2\n      mstore\n      0x04\n      add\n      tag_131\n      swap1\n      tag_88\n      jump\t// in\n    tag_131:\n      mload(0x40)\n      dup1\n      swap2\n      sub\n      swap1\n      revert\n    tag_130:\n        /* \"contracts/ERC1155.sol\":3564:3584  uint256[] memory ids */\n      0x00\n        /* \"contracts/ERC1155.sol\":3586:3610  uint256[] memory amounts */\n      dup1\n        /* \"contracts/ERC1155.sol\":3614:3644  _asSingletonArrays(id, amount) */\n      tag_132\n        /* \"contracts/ERC1155.sol\":3633:3635  id */\n      dup8\n        /* \"contracts/ERC1155.sol\":3637:3643  amount */\n      dup8\n        /* \"contracts/ERC1155.sol\":3614:3632  _asSingletonArrays */\n      tag_133\n        /* \"contracts/ERC1155.sol\":3614:3644  _asSingletonArrays(id, amount) */\n      jump\t// in\n    tag_132:\n        /* \"contracts/ERC1155.sol\":3563:3644  (uint256[] memory ids, uint256[] memory amounts) = _asSingletonArrays(id, amount) */\n      swap2\n      pop\n      swap2\n      pop\n        /* \"contracts/ERC1155.sol\":3682:3713  _update(from, to, ids, amounts) */\n      tag_134\n        /* \"contracts/ERC1155.sol\":3690:3694  from */\n      dup10\n        /* \"contracts/ERC1155.sol\":3696:3698  to */\n      dup10\n        /* \"contracts/ERC1155.sol\":3700:3703  ids */\n      dup5\n        /* \"contracts/ERC1155.sol\":3705:3712  amounts */\n      dup5\n        /* \"contracts/ERC1155.sol\":3682:3689  _update */\n      tag_90\n        /* \"contracts/ERC1155.sol\":3682:3713  _update(from, to, ids, amounts) */\n      jump\t// in\n    tag_134:\n        /* \"contracts/ERC1155.sol\":3757:3823  _doSafeTransferAcceptanceCheck(sender, from, to, id, amount, data) */\n      tag_135\n        /* \"contracts/ERC1155.sol\":3788:3794  sender */\n      dup4\n        /* \"contracts/ERC1155.sol\":3796:3800  from */\n      dup11\n        /* \"contracts/ERC1155.sol\":3802:3804  to */\n      dup11\n        /* \"contracts/ERC1155.sol\":3806:3808  id */\n      dup11\n        /* \"contracts/ERC1155.sol\":3810:3816  amount */\n      dup11\n        /* \"contracts/ERC1155.sol\":3818:3822  data */\n      dup11\n      dup11\n        /* \"contracts/ERC1155.sol\":3757:3823  _doSafeTransferAcceptanceCheck(sender, from, to, id, amount, data) */\n      dup1\n      dup1\n      0x1f\n      add\n      0x20\n      dup1\n      swap2\n      div\n      mul\n      0x20\n      add\n      mload(0x40)\n      swap1\n      dup2\n      add\n      0x40\n      mstore\n      dup1\n      swap4\n      swap3\n      swap2\n      swap1\n      dup2\n      dup2\n      mstore\n      0x20\n      add\n      dup4\n      dup4\n      dup1\n      dup3\n      dup5\n      calldatacopy\n      0x00\n      dup2\n      dup5\n      add\n      mstore\n      not(0x1f)\n      0x1f\n      dup3\n      add\n      and\n      swap1\n      pop\n      dup1\n      dup4\n      add\n      swap3\n      pop\n      pop\n      pop\n      pop\n      pop\n      pop\n      pop\n        /* \"contracts/ERC1155.sol\":3757:3787  _doSafeTransferAcceptanceCheck */\n      tag_136\n        /* \"contracts/ERC1155.sol\":3757:3823  _doSafeTransferAcceptanceCheck(sender, from, to, id, amount, data) */\n      jump\t// in\n    tag_135:\n        /* \"contracts/ERC1155.sol\":3166:3831  {... */\n      pop\n      pop\n      pop\n        /* \"contracts/ERC1155.sol\":3006:3831  function safeTransferFrom(... */\n      pop\n      pop\n      pop\n      pop\n      pop\n      pop\n      jump\t// out\n        /* \"contracts/ERC1155.sol\":9015:9109  function _baseURI() internal view virtual returns (string memory) {... */\n    tag_73:\n        /* \"contracts/ERC1155.sol\":9066:9079  string memory */\n      0x60\n        /* \"contracts/ERC1155.sol\":9092:9101  return \"\" */\n      mload(0x40)\n      dup1\n      0x20\n      add\n      0x40\n      mstore\n      dup1\n      0x00\n      dup2\n      mstore\n      pop\n      swap1\n      pop\n        /* \"contracts/ERC1155.sol\":9015:9109  function _baseURI() internal view virtual returns (string memory) {... */\n      swap1\n      jump\t// out\n        /* \"contracts/library/String.sol\":408:1131  function toString(uint256 value) internal pure returns (string memory) {... */\n    tag_77:\n        /* \"contracts/library/String.sol\":464:477  string memory */\n      0x60\n        /* \"contracts/library/String.sol\":694:695  0 */\n      0x00\n        /* \"contracts/library/String.sol\":685:690  value */\n      dup3\n        /* \"contracts/library/String.sol\":685:695  value == 0 */\n      sub\n        /* \"contracts/library/String.sol\":681:734  if (value == 0) {... */\n      tag_139\n      jumpi\n        /* \"contracts/library/String.sol\":712:722  return \"0\" */\n      mload(0x40)\n      dup1\n      0x40\n      add\n      0x40\n      mstore\n      dup1\n      0x01\n      dup2\n      mstore\n      0x20\n      add\n      0x3000000000000000000000000000000000000000000000000000000000000000\n      dup2\n      mstore\n      pop\n      swap1\n      pop\n      jump(tag_138)\n        /* \"contracts/library/String.sol\":681:734  if (value == 0) {... */\n    tag_139:\n        /* \"contracts/library/String.sol\":744:756  uint256 temp */\n      0x00\n        /* \"contracts/library/String.sol\":759:764  value */\n      dup3\n        /* \"contracts/library/String.sol\":744:764  uint256 temp = value */\n      swap1\n      pop\n        /* \"contracts/library/String.sol\":775:789  uint256 digits */\n      0x00\n        /* \"contracts/library/String.sol\":800:878  while (temp != 0) {... */\n    tag_140:\n        /* \"contracts/library/String.sol\":815:816  0 */\n      0x00\n        /* \"contracts/library/String.sol\":807:811  temp */\n      dup3\n        /* \"contracts/library/String.sol\":807:816  temp != 0 */\n      eq\n        /* \"contracts/library/String.sol\":800:878  while (temp != 0) {... */\n      tag_141\n      jumpi\n        /* \"contracts/library/String.sol\":833:841  digits++ */\n      dup1\n      dup1\n      tag_142\n      swap1\n      tag_143\n      jump\t// in\n    tag_142:\n      swap2\n      pop\n      pop\n        /* \"contracts/library/String.sol\":864:866  10 */\n      0x0a\n        /* \"contracts/library/String.sol\":856:866  temp /= 10 */\n      dup3\n      tag_144\n      swap2\n      swap1\n      tag_145\n      jump\t// in\n    tag_144:\n      swap2\n      pop\n        /* \"contracts/library/String.sol\":800:878  while (temp != 0) {... */\n      jump(tag_140)\n    tag_141:\n        /* \"contracts/library/String.sol\":888:907  bytes memory buffer */\n      0x00\n        /* \"contracts/library/String.sol\":920:926  digits */\n      dup2\n        /* \"contracts/library/String.sol\":910:927  new bytes(digits) */\n      0xffffffffffffffff\n      dup2\n      gt\n      iszero\n      tag_146\n      jumpi\n      tag_147\n      tag_99\n      jump\t// in\n    tag_147:\n    tag_146:\n      mload(0x40)\n      swap1\n      dup1\n      dup3\n      mstore\n      dup1\n      0x1f\n      add\n      not(0x1f)\n      and\n      0x20\n      add\n      dup3\n      add\n      0x40\n      mstore\n      dup1\n      iszero\n      tag_148\n      jumpi\n      dup2\n      0x20\n      add\n      0x01\n      dup3\n      mul\n      dup1\n      calldatasize\n      dup4\n      calldatacopy\n      dup1\n      dup3\n      add\n      swap2\n      pop\n      pop\n      swap1\n      pop\n    tag_148:\n      pop\n        /* \"contracts/library/String.sol\":888:927  bytes memory buffer = new bytes(digits) */\n      swap1\n      pop\n        /* \"contracts/library/String.sol\":938:1092  while (value != 0) {... */\n    tag_149:\n        /* \"contracts/library/String.sol\":954:955  0 */\n      0x00\n        /* \"contracts/library/String.sol\":945:950  value */\n      dup6\n        /* \"contracts/library/String.sol\":945:955  value != 0 */\n      eq\n        /* \"contracts/library/String.sol\":938:1092  while (value != 0) {... */\n      tag_150\n      jumpi\n        /* \"contracts/library/String.sol\":982:983  1 */\n      0x01\n        /* \"contracts/library/String.sol\":972:983  digits -= 1 */\n      dup3\n      tag_151\n      swap2\n      swap1\n      tag_152\n      jump\t// in\n    tag_151:\n      swap2\n      pop\n        /* \"contracts/library/String.sol\":1049:1051  10 */\n      0x0a\n        /* \"contracts/library/String.sol\":1041:1046  value */\n      dup6\n        /* \"contracts/library/String.sol\":1041:1051  value % 10 */\n      tag_153\n      swap2\n      swap1\n      tag_154\n      jump\t// in\n    tag_153:\n        /* \"contracts/library/String.sol\":1028:1030  48 */\n      0x30\n        /* \"contracts/library/String.sol\":1028:1052  48 + uint256(value % 10) */\n      tag_155\n      swap2\n      swap1\n      tag_156\n      jump\t// in\n    tag_155:\n        /* \"contracts/library/String.sol\":1015:1054  bytes1(uint8(48 + uint256(value % 10))) */\n      0xf8\n      shl\n        /* \"contracts/library/String.sol\":998:1004  buffer */\n      dup2\n        /* \"contracts/library/String.sol\":1005:1011  digits */\n      dup4\n        /* \"contracts/library/String.sol\":998:1012  buffer[digits] */\n      dup2\n      mload\n      dup2\n      lt\n      tag_157\n      jumpi\n      tag_158\n      tag_107\n      jump\t// in\n    tag_158:\n    tag_157:\n      0x20\n      add\n      add\n        /* \"contracts/library/String.sol\":998:1054  buffer[digits] = bytes1(uint8(48 + uint256(value % 10))) */\n      swap1\n      not(0xffffffffffffffffffffffffffffffffffffffffffffffffffffffffffffff)\n      and\n      swap1\n      dup2\n      0x00\n      byte\n      swap1\n      mstore8\n      pop\n        /* \"contracts/library/String.sol\":1078:1080  10 */\n      0x0a\n        /* \"contracts/library/String.sol\":1069:1080  value /= 10 */\n      dup6\n      tag_159\n      swap2\n      swap1\n      tag_145\n      jump\t// in\n    tag_159:\n      swap5\n      pop\n        /* \"contracts/library/String.sol\":938:1092  while (value != 0) {... */\n      jump(tag_149)\n    tag_150:\n        /* \"contracts/library/String.sol\":1116:1122  buffer */\n      dup1\n        /* \"contracts/library/String.sol\":1102:1123  return string(buffer) */\n      swap4\n      pop\n      pop\n      pop\n      pop\n        /* \"contracts/library/String.sol\":408:1131  function toString(uint256 value) internal pure returns (string memory) {... */\n    tag_138:\n      swap2\n      swap1\n      pop\n      jump\t// out\n        /* \"contracts/ERC1155.sol\":4580:5615  function _update(address from, address to, uint256[] memory ids, uint256[] memory amounts) internal {... */\n    tag_90:\n        /* \"contracts/ERC1155.sol\":4757:4764  amounts */\n      dup1\n        /* \"contracts/ERC1155.sol\":4757:4771  amounts.length */\n      mload\n        /* \"contracts/ERC1155.sol\":4743:4746  ids */\n      dup3\n        /* \"contracts/ERC1155.sol\":4743:4753  ids.length */\n      mload\n        /* \"contracts/ERC1155.sol\":4743:4771  ids.length == amounts.length */\n      eq\n        /* \"contracts/ERC1155.sol\":4735:4819  require(ids.length == amounts.length, \"The length of ids and amounts is not equal.\") */\n      tag_161\n      jumpi\n      mload(0x40)\n      0x08c379a000000000000000000000000000000000000000000000000000000000\n      dup2\n      mstore\n      0x04\n      add\n      tag_162\n      swap1\n      tag_163\n      jump\t// in\n    tag_162:\n      mload(0x40)\n      dup1\n      swap2\n      sub\n      swap1\n      revert\n    tag_161:\n        /* \"contracts/ERC1155.sol\":4862:4871  uint256 i */\n      0x00\n        /* \"contracts/ERC1155.sol\":4857:5608  for (uint256 i=0; i < ids.length; i++) {... */\n    tag_164:\n        /* \"contracts/ERC1155.sol\":4879:4882  ids */\n      dup3\n        /* \"contracts/ERC1155.sol\":4879:4889  ids.length */\n      mload\n        /* \"contracts/ERC1155.sol\":4875:4876  i */\n      dup2\n        /* \"contracts/ERC1155.sol\":4875:4889  i < ids.length */\n      lt\n        /* \"contracts/ERC1155.sol\":4857:5608  for (uint256 i=0; i < ids.length; i++) {... */\n      iszero\n      tag_165\n      jumpi\n        /* \"contracts/ERC1155.sol\":4955:4965  uint256 id */\n      0x00\n        /* \"contracts/ERC1155.sol\":4968:4971  ids */\n      dup4\n        /* \"contracts/ERC1155.sol\":4972:4973  i */\n      dup3\n        /* \"contracts/ERC1155.sol\":4968:4974  ids[i] */\n      dup2\n      mload\n      dup2\n      lt\n      tag_167\n      jumpi\n      tag_168\n      tag_107\n      jump\t// in\n    tag_168:\n    tag_167:\n      0x20\n      mul\n      0x20\n      add\n      add\n      mload\n        /* \"contracts/ERC1155.sol\":4955:4974  uint256 id = ids[i] */\n      swap1\n      pop\n        /* \"contracts/ERC1155.sol\":4989:5003  uint256 amount */\n      0x00\n        /* \"contracts/ERC1155.sol\":5006:5013  amounts */\n      dup4\n        /* \"contracts/ERC1155.sol\":5014:5015  i */\n      dup4\n        /* \"contracts/ERC1155.sol\":5006:5016  amounts[i] */\n      dup2\n      mload\n      dup2\n      lt\n      tag_169\n      jumpi\n      tag_170\n      tag_107\n      jump\t// in\n    tag_170:\n    tag_169:\n      0x20\n      mul\n      0x20\n      add\n      add\n      mload\n        /* \"contracts/ERC1155.sol\":4989:5016  uint256 amount = amounts[i] */\n      swap1\n      pop\n        /* \"contracts/ERC1155.sol\":5113:5119  amount */\n      dup1\n        /* \"contracts/ERC1155.sol\":5091:5110  balanceOf(from, id) */\n      tag_171\n        /* \"contracts/ERC1155.sol\":5101:5105  from */\n      dup9\n        /* \"contracts/ERC1155.sol\":5107:5109  id */\n      dup5\n        /* \"contracts/ERC1155.sol\":5091:5100  balanceOf */\n      tag_17\n        /* \"contracts/ERC1155.sol\":5091:5110  balanceOf(from, id) */\n      jump\t// in\n    tag_171:\n        /* \"contracts/ERC1155.sol\":5091:5119  balanceOf(from, id) > amount */\n      gt\n        /* \"contracts/ERC1155.sol\":5083:5150  require(balanceOf(from, id) > amount, \"Insufficient token balance\") */\n      tag_172\n      jumpi\n      mload(0x40)\n      0x08c379a000000000000000000000000000000000000000000000000000000000\n      dup2\n      mstore\n      0x04\n      add\n      tag_173\n      swap1\n      tag_174\n      jump\t// in\n    tag_173:\n      mload(0x40)\n      dup1\n      swap2\n      sub\n      swap1\n      revert\n    tag_172:\n        /* \"contracts/ERC1155.sol\":5248:5254  amount */\n      dup1\n        /* \"contracts/ERC1155.sol\":5225:5234  _balances */\n      0x02\n        /* \"contracts/ERC1155.sol\":5225:5238  _balances[id] */\n      0x00\n        /* \"contracts/ERC1155.sol\":5235:5237  id */\n      dup5\n        /* \"contracts/ERC1155.sol\":5225:5238  _balances[id] */\n      dup2\n      mstore\n      0x20\n      add\n      swap1\n      dup2\n      mstore\n      0x20\n      add\n      0x00\n      keccak256\n        /* \"contracts/ERC1155.sol\":5225:5244  _balances[id][from] */\n      0x00\n        /* \"contracts/ERC1155.sol\":5239:5243  from */\n      dup10\n        /* \"contracts/ERC1155.sol\":5225:5244  _balances[id][from] */\n      0xffffffffffffffffffffffffffffffffffffffff\n      and\n      0xffffffffffffffffffffffffffffffffffffffff\n      and\n      dup2\n      mstore\n      0x20\n      add\n      swap1\n      dup2\n      mstore\n      0x20\n      add\n      0x00\n      keccak256\n      0x00\n        /* \"contracts/ERC1155.sol\":5225:5254  _balances[id][from] -= amount */\n      dup3\n      dup3\n      sload\n      sub\n      swap3\n      pop\n      pop\n      dup2\n      swap1\n      sstore\n      pop\n        /* \"contracts/ERC1155.sol\":5307:5313  amount */\n      dup1\n        /* \"contracts/ERC1155.sol\":5286:5295  _balances */\n      0x02\n        /* \"contracts/ERC1155.sol\":5286:5299  _balances[id] */\n      0x00\n        /* \"contracts/ERC1155.sol\":5296:5298  id */\n      dup5\n        /* \"contracts/ERC1155.sol\":5286:5299  _balances[id] */\n      dup2\n      mstore\n      0x20\n      add\n      swap1\n      dup2\n      mstore\n      0x20\n      add\n      0x00\n      keccak256\n        /* \"contracts/ERC1155.sol\":5286:5303  _balances[id][to] */\n      0x00\n        /* \"contracts/ERC1155.sol\":5300:5302  to */\n      dup9\n        /* \"contracts/ERC1155.sol\":5286:5303  _balances[id][to] */\n      0xffffffffffffffffffffffffffffffffffffffff\n      and\n      0xffffffffffffffffffffffffffffffffffffffff\n      and\n      dup2\n      mstore\n      0x20\n      add\n      swap1\n      dup2\n      mstore\n      0x20\n      add\n      0x00\n      keccak256\n      0x00\n        /* \"contracts/ERC1155.sol\":5286:5313  _balances[id][to] += amount */\n      dup3\n      dup3\n      sload\n      tag_175\n      swap2\n      swap1\n      tag_156\n      jump\t// in\n    tag_175:\n      swap3\n      pop\n      pop\n      dup2\n      swap1\n      sstore\n      pop\n        /* \"contracts/ERC1155.sol\":5359:5373  address sender */\n      0x00\n        /* \"contracts/ERC1155.sol\":5376:5386  msg.sender */\n      caller\n        /* \"contracts/ERC1155.sol\":5359:5386  address sender = msg.sender */\n      swap1\n      pop\n        /* \"contracts/ERC1155.sol\":5419:5420  1 */\n      0x01\n        /* \"contracts/ERC1155.sol\":5405:5408  ids */\n      dup7\n        /* \"contracts/ERC1155.sol\":5405:5415  ids.length */\n      mload\n        /* \"contracts/ERC1155.sol\":5405:5420  ids.length == 1 */\n      sub\n        /* \"contracts/ERC1155.sol\":5401:5597  if (ids.length == 1) {... */\n      tag_176\n      jumpi\n        /* \"contracts/ERC1155.sol\":5475:5477  to */\n      dup7\n        /* \"contracts/ERC1155.sol\":5446:5490  TransferSingle(sender, from, to, id, amount) */\n      0xffffffffffffffffffffffffffffffffffffffff\n      and\n        /* \"contracts/ERC1155.sol\":5469:5473  from */\n      dup9\n        /* \"contracts/ERC1155.sol\":5446:5490  TransferSingle(sender, from, to, id, amount) */\n      0xffffffffffffffffffffffffffffffffffffffff\n      and\n        /* \"contracts/ERC1155.sol\":5461:5467  sender */\n      dup3\n        /* \"contracts/ERC1155.sol\":5446:5490  TransferSingle(sender, from, to, id, amount) */\n      0xffffffffffffffffffffffffffffffffffffffff\n      and\n      0xc3d58168c5ae7397731d063d5bbf3d657854427343f4c083240f7aacaa2d0f62\n        /* \"contracts/ERC1155.sol\":5479:5481  id */\n      dup7\n        /* \"contracts/ERC1155.sol\":5483:5489  amount */\n      dup7\n        /* \"contracts/ERC1155.sol\":5446:5490  TransferSingle(sender, from, to, id, amount) */\n      mload(0x40)\n      tag_177\n      swap3\n      swap2\n      swap1\n      tag_178\n      jump\t// in\n    tag_177:\n      mload(0x40)\n      dup1\n      swap2\n      sub\n      swap1\n      log4\n        /* \"contracts/ERC1155.sol\":5401:5597  if (ids.length == 1) {... */\n      jump(tag_179)\n    tag_176:\n        /* \"contracts/ERC1155.sol\":5564:5566  to */\n      dup7\n        /* \"contracts/ERC1155.sol\":5536:5581  TransferBatch(sender, from, to, ids, amounts) */\n      0xffffffffffffffffffffffffffffffffffffffff\n      and\n        /* \"contracts/ERC1155.sol\":5558:5562  from */\n      dup9\n        /* \"contracts/ERC1155.sol\":5536:5581  TransferBatch(sender, from, to, ids, amounts) */\n      0xffffffffffffffffffffffffffffffffffffffff\n      and\n        /* \"contracts/ERC1155.sol\":5550:5556  sender */\n      dup3\n        /* \"contracts/ERC1155.sol\":5536:5581  TransferBatch(sender, from, to, ids, amounts) */\n      0xffffffffffffffffffffffffffffffffffffffff\n      and\n      0x4a39dc06d4c0dbc64b70af90fd698a233a518aa5d07e595d983b8c0526c8f7fb\n        /* \"contracts/ERC1155.sol\":5568:5571  ids */\n      dup10\n        /* \"contracts/ERC1155.sol\":5573:5580  amounts */\n      dup10\n        /* \"contracts/ERC1155.sol\":5536:5581  TransferBatch(sender, from, to, ids, amounts) */\n      mload(0x40)\n      tag_180\n      swap3\n      swap2\n      swap1\n      tag_181\n      jump\t// in\n    tag_180:\n      mload(0x40)\n      dup1\n      swap2\n      sub\n      swap1\n      log4\n        /* \"contracts/ERC1155.sol\":5401:5597  if (ids.length == 1) {... */\n    tag_179:\n        /* \"contracts/ERC1155.sol\":4896:5608  {... */\n      pop\n      pop\n      pop\n        /* \"contracts/ERC1155.sol\":4891:4894  i++ */\n      dup1\n      dup1\n      0x01\n      add\n      swap2\n      pop\n      pop\n        /* \"contracts/ERC1155.sol\":4857:5608  for (uint256 i=0; i < ids.length; i++) {... */\n      jump(tag_164)\n    tag_165:\n      pop\n        /* \"contracts/ERC1155.sol\":4580:5615  function _update(address from, address to, uint256[] memory ids, uint256[] memory amounts) internal {... */\n      pop\n      pop\n      pop\n      pop\n      jump\t// out\n        /* \"contracts/ERC1155.sol\":10012:10885  function _doSafeBatchTransferAcceptanceCheck(... */\n    tag_92:\n        /* \"contracts/ERC1155.sol\":10250:10265  to.isContract() */\n      tag_183\n        /* \"contracts/ERC1155.sol\":10250:10252  to */\n      dup5\n        /* \"contracts/ERC1155.sol\":10250:10263  to.isContract */\n      0xffffffffffffffffffffffffffffffffffffffff\n      and\n      tag_184\n        /* \"contracts/ERC1155.sol\":10250:10265  to.isContract() */\n      jump\t// in\n    tag_183:\n        /* \"contracts/ERC1155.sol\":10246:10874  if (to.isContract()) {... */\n      iszero\n      tag_185\n      jumpi\n        /* \"contracts/ERC1155.sol\":10307:10309  to */\n      dup4\n        /* \"contracts/ERC1155.sol\":10290:10333  IERC1155Receiver(to).onERC1155BatchReceived */\n      0xffffffffffffffffffffffffffffffffffffffff\n      and\n      0xbc197c81\n        /* \"contracts/ERC1155.sol\":10334:10342  operator */\n      dup8\n        /* \"contracts/ERC1155.sol\":10344:10348  from */\n      dup8\n        /* \"contracts/ERC1155.sol\":10350:10353  ids */\n      dup7\n        /* \"contracts/ERC1155.sol\":10355:10362  amounts */\n      dup7\n        /* \"contracts/ERC1155.sol\":10364:10368  data */\n      dup7\n        /* \"contracts/ERC1155.sol\":10290:10369  IERC1155Receiver(to).onERC1155BatchReceived(operator, from, ids, amounts, data) */\n      mload(0x40)\n      dup7\n      0xffffffff\n      and\n      0xe0\n      shl\n      dup2\n      mstore\n      0x04\n      add\n      tag_186\n      swap6\n      swap5\n      swap4\n      swap3\n      swap2\n      swap1\n      tag_187\n      jump\t// in\n    tag_186:\n      0x20\n      mload(0x40)\n      dup1\n      dup4\n      sub\n      dup2\n      0x00\n      dup8\n      gas\n      call\n      swap3\n      pop\n      pop\n      pop\n      dup1\n      iszero\n      tag_188\n      jumpi\n      pop\n      mload(0x40)\n      returndatasize\n      not(0x1f)\n      0x1f\n      dup3\n      add\n      and\n      dup3\n      add\n      dup1\n      0x40\n      mstore\n      pop\n      dup2\n      add\n      swap1\n      tag_189\n      swap2\n      swap1\n      tag_190\n      jump\t// in\n    tag_189:\n      0x01\n    tag_188:\n        /* \"contracts/ERC1155.sol\":10286:10859  try IERC1155Receiver(to).onERC1155BatchReceived(operator, from, ids, amounts, data) returns(bytes4 retval) {... */\n      tag_191\n      jumpi\n      tag_195\n      tag_196\n      jump\t// in\n    tag_195:\n      dup1\n      0x08c379a0\n      sub\n      tag_194\n      jumpi\n      pop\n      tag_197\n      tag_198\n      jump\t// in\n    tag_197:\n      dup1\n      tag_199\n      jumpi\n      pop\n      jump(tag_193)\n    tag_199:\n        /* \"contracts/ERC1155.sol\":10665:10671  reason */\n      dup1\n        /* \"contracts/ERC1155.sol\":10658:10672  revert(reason) */\n      mload(0x40)\n      0x08c379a000000000000000000000000000000000000000000000000000000000\n      dup2\n      mstore\n      0x04\n      add\n      tag_200\n      swap2\n      swap1\n      tag_29\n      jump\t// in\n    tag_200:\n      mload(0x40)\n      dup1\n      swap2\n      sub\n      swap1\n      revert\n        /* \"contracts/ERC1155.sol\":10286:10859  try IERC1155Receiver(to).onERC1155BatchReceived(operator, from, ids, amounts, data) returns(bytes4 retval) {... */\n    tag_194:\n      pop\n    tag_193:\n        /* \"contracts/ERC1155.sol\":10722:10839  revert(\"ERC1155: The transaction receiver has not implemented the IERC1155Receiver.onErc1155BatchReceived function.\") */\n      mload(0x40)\n      0x08c379a000000000000000000000000000000000000000000000000000000000\n      dup2\n      mstore\n      0x04\n      add\n      tag_201\n      swap1\n      tag_202\n      jump\t// in\n    tag_201:\n      mload(0x40)\n      dup1\n      swap2\n      sub\n      swap1\n      revert\n        /* \"contracts/ERC1155.sol\":10286:10859  try IERC1155Receiver(to).onERC1155BatchReceived(operator, from, ids, amounts, data) returns(bytes4 retval) {... */\n    tag_191:\n        /* \"contracts/ERC1155.sol\":10472:10478  retval */\n      dup1\n        /* \"contracts/ERC1155.sol\":10420:10478  IERC1155Receiver.onERC1155BatchReceived.selector != retval */\n      not(0xffffffffffffffffffffffffffffffffffffffffffffffffffffffff)\n      and\n        /* \"contracts/ERC1155.sol\":10420:10468  IERC1155Receiver.onERC1155BatchReceived.selector */\n      shl(0xe0, 0xbc197c81)\n        /* \"contracts/ERC1155.sol\":10420:10478  IERC1155Receiver.onERC1155BatchReceived.selector != retval */\n      not(0xffffffffffffffffffffffffffffffffffffffffffffffffffffffff)\n      and\n      eq\n        /* \"contracts/ERC1155.sol\":10416:10581  if (IERC1155Receiver.onERC1155BatchReceived.selector != retval) {... */\n      tag_204\n      jumpi\n        /* \"contracts/ERC1155.sol\":10507:10557  revert(\"ERC1155: ERC1155Receiver rejected tokens\") */\n      mload(0x40)\n      0x08c379a000000000000000000000000000000000000000000000000000000000\n      dup2\n      mstore\n      0x04\n      add\n      tag_205\n      swap1\n      tag_206\n      jump\t// in\n    tag_205:\n      mload(0x40)\n      dup1\n      swap2\n      sub\n      swap1\n      revert\n        /* \"contracts/ERC1155.sol\":10416:10581  if (IERC1155Receiver.onERC1155BatchReceived.selector != retval) {... */\n    tag_204:\n        /* \"contracts/ERC1155.sol\":10370:10600  returns(bytes4 retval) {... */\n      pop\n        /* \"contracts/ERC1155.sol\":10246:10874  if (to.isContract()) {... */\n    tag_185:\n        /* \"contracts/ERC1155.sol\":10012:10885  function _doSafeBatchTransferAcceptanceCheck(... */\n      pop\n      pop\n      pop\n      pop\n      pop\n      pop\n      jump\t// out\n        /* \"contracts/ERC1155.sol\":10929:11783  function _asSingletonArrays(uint256 id, uint256 amount) internal pure returns(uint256[] memory ids, uint256[] memory amounts) {... */\n    tag_133:\n        /* \"contracts/ERC1155.sol\":11007:11027  uint256[] memory ids */\n      0x60\n        /* \"contracts/ERC1155.sol\":11029:11053  uint256[] memory amounts */\n      dup1\n        /* \"contracts/ERC1155.sol\":11223:11227  0x40 */\n      0x40\n        /* \"contracts/ERC1155.sol\":11217:11228  mload(0x40) */\n      mload\n        /* \"contracts/ERC1155.sol\":11210:11228  ids := mload(0x40) */\n      swap2\n      pop\n        /* \"contracts/ERC1155.sol\":11418:11419  1 */\n      0x01\n        /* \"contracts/ERC1155.sol\":11413:11416  ids */\n      dup3\n        /* \"contracts/ERC1155.sol\":11406:11420  mstore(ids, 1) */\n      mstore\n        /* \"contracts/ERC1155.sol\":11549:11551  id */\n      dup4\n        /* \"contracts/ERC1155.sol\":11542:11546  0x20 */\n      0x20\n        /* \"contracts/ERC1155.sol\":11537:11540  ids */\n      dup4\n        /* \"contracts/ERC1155.sol\":11533:11547  add(ids, 0x20) */\n      add\n        /* \"contracts/ERC1155.sol\":11526:11552  mstore(add(ids, 0x20), id) */\n      mstore\n        /* \"contracts/ERC1155.sol\":11588:11592  0x40 */\n      0x40\n        /* \"contracts/ERC1155.sol\":11583:11586  ids */\n      dup3\n        /* \"contracts/ERC1155.sol\":11579:11593  add(ids, 0x40) */\n      add\n        /* \"contracts/ERC1155.sol\":11568:11593  amounts := add(ids, 0x40) */\n      swap1\n      pop\n        /* \"contracts/ERC1155.sol\":11623:11624  1 */\n      0x01\n        /* \"contracts/ERC1155.sol\":11614:11621  amounts */\n      dup2\n        /* \"contracts/ERC1155.sol\":11607:11625  mstore(amounts, 1) */\n      mstore\n        /* \"contracts/ERC1155.sol\":11666:11672  amount */\n      dup3\n        /* \"contracts/ERC1155.sol\":11659:11663  0x20 */\n      0x20\n        /* \"contracts/ERC1155.sol\":11650:11657  amounts */\n      dup3\n        /* \"contracts/ERC1155.sol\":11646:11664  add(amounts, 0x20) */\n      add\n        /* \"contracts/ERC1155.sol\":11639:11673  mstore(add(amounts, 0x20), amount) */\n      mstore\n        /* \"contracts/ERC1155.sol\":11759:11763  0x40 */\n      0x40\n        /* \"contracts/ERC1155.sol\":11750:11757  amounts */\n      dup2\n        /* \"contracts/ERC1155.sol\":11746:11764  add(amounts, 0x40) */\n      add\n        /* \"contracts/ERC1155.sol\":11740:11744  0x40 */\n      0x40\n        /* \"contracts/ERC1155.sol\":11733:11765  mstore(0x40, add(amounts, 0x40)) */\n      mstore\n        /* \"contracts/ERC1155.sol\":10929:11783  function _asSingletonArrays(uint256 id, uint256 amount) internal pure returns(uint256[] memory ids, uint256[] memory amounts) {... */\n      swap3\n      pop\n      swap3\n      swap1\n      pop\n      jump\t// out\n        /* \"contracts/ERC1155.sol\":9144:9977  function _doSafeTransferAcceptanceCheck(... */\n    tag_136:\n        /* \"contracts/ERC1155.sol\":9358:9373  to.isContract() */\n      tag_209\n        /* \"contracts/ERC1155.sol\":9358:9360  to */\n      dup5\n        /* \"contracts/ERC1155.sol\":9358:9371  to.isContract */\n      0xffffffffffffffffffffffffffffffffffffffff\n      and\n      tag_184\n        /* \"contracts/ERC1155.sol\":9358:9373  to.isContract() */\n      jump\t// in\n    tag_209:\n        /* \"contracts/ERC1155.sol\":9354:9966  if (to.isContract()) {... */\n      iszero\n      tag_210\n      jumpi\n        /* \"contracts/ERC1155.sol\":9415:9417  to */\n      dup4\n        /* \"contracts/ERC1155.sol\":9398:9436  IERC1155Receiver(to).onERC1155Received */\n      0xffffffffffffffffffffffffffffffffffffffff\n      and\n      0xf23a6e61\n        /* \"contracts/ERC1155.sol\":9437:9445  operator */\n      dup8\n        /* \"contracts/ERC1155.sol\":9447:9451  from */\n      dup8\n        /* \"contracts/ERC1155.sol\":9453:9455  id */\n      dup7\n        /* \"contracts/ERC1155.sol\":9457:9463  amount */\n      dup7\n        /* \"contracts/ERC1155.sol\":9465:9469  data */\n      dup7\n        /* \"contracts/ERC1155.sol\":9398:9470  IERC1155Receiver(to).onERC1155Received(operator, from, id, amount, data) */\n      mload(0x40)\n      dup7\n      0xffffffff\n      and\n      0xe0\n      shl\n      dup2\n      mstore\n      0x04\n      add\n      tag_211\n      swap6\n      swap5\n      swap4\n      swap3\n      swap2\n      swap1\n      tag_212\n      jump\t// in\n    tag_211:\n      0x20\n      mload(0x40)\n      dup1\n      dup4\n      sub\n      dup2\n      0x00\n      dup8\n      gas\n      call\n      swap3\n      pop\n      pop\n      pop\n      dup1\n      iszero\n      tag_213\n      jumpi\n      pop\n      mload(0x40)\n      returndatasize\n      not(0x1f)\n      0x1f\n      dup3\n      add\n      and\n      dup3\n      add\n      dup1\n      0x40\n      mstore\n      pop\n      dup2\n      add\n      swap1\n      tag_214\n      swap2\n      swap1\n      tag_190\n      jump\t// in\n    tag_214:\n      0x01\n    tag_213:\n        /* \"contracts/ERC1155.sol\":9394:9951  try IERC1155Receiver(to).onERC1155Received(operator, from, id, amount, data) returns (bytes4 retval) {... */\n      tag_215\n      jumpi\n      tag_219\n      tag_196\n      jump\t// in\n    tag_219:\n      dup1\n      0x08c379a0\n      sub\n      tag_218\n      jumpi\n      pop\n      tag_220\n      tag_198\n      jump\t// in\n    tag_220:\n      dup1\n      tag_221\n      jumpi\n      pop\n      jump(tag_217)\n    tag_221:\n        /* \"contracts/ERC1155.sol\":9762:9768  reason */\n      dup1\n        /* \"contracts/ERC1155.sol\":9755:9769  revert(reason) */\n      mload(0x40)\n      0x08c379a000000000000000000000000000000000000000000000000000000000\n      dup2\n      mstore\n      0x04\n      add\n      tag_222\n      swap2\n      swap1\n      tag_29\n      jump\t// in\n    tag_222:\n      mload(0x40)\n      dup1\n      swap2\n      sub\n      swap1\n      revert\n        /* \"contracts/ERC1155.sol\":9394:9951  try IERC1155Receiver(to).onERC1155Received(operator, from, id, amount, data) returns (bytes4 retval) {... */\n    tag_218:\n      pop\n    tag_217:\n        /* \"contracts/ERC1155.sol\":9819:9931  revert(\"ERC1155: The transaction receiver has not implemented the IERC1155Receiver.onErc1155Received function.\") */\n      mload(0x40)\n      0x08c379a000000000000000000000000000000000000000000000000000000000\n      dup2\n      mstore\n      0x04\n      add\n      tag_223\n      swap1\n      tag_224\n      jump\t// in\n    tag_223:\n      mload(0x40)\n      dup1\n      swap2\n      sub\n      swap1\n      revert\n        /* \"contracts/ERC1155.sol\":9394:9951  try IERC1155Receiver(to).onERC1155Received(operator, from, id, amount, data) returns (bytes4 retval) {... */\n    tag_215:\n        /* \"contracts/ERC1155.sol\":9532:9575  IERC1155Receiver.onERC1155Received.selector */\n      shl(0xe0, 0xf23a6e61)\n        /* \"contracts/ERC1155.sol\":9522:9575  retval != IERC1155Receiver.onERC1155Received.selector */\n      not(0xffffffffffffffffffffffffffffffffffffffffffffffffffffffff)\n      and\n        /* \"contracts/ERC1155.sol\":9522:9528  retval */\n      dup2\n        /* \"contracts/ERC1155.sol\":9522:9575  retval != IERC1155Receiver.onERC1155Received.selector */\n      not(0xffffffffffffffffffffffffffffffffffffffffffffffffffffffff)\n      and\n      eq\n        /* \"contracts/ERC1155.sol\":9518:9678  if (retval != IERC1155Receiver.onERC1155Received.selector) {... */\n      tag_226\n      jumpi\n        /* \"contracts/ERC1155.sol\":9604:9654  revert(\"ERC1155: ERC1155Receiver rejected tokens\") */\n      mload(0x40)\n      0x08c379a000000000000000000000000000000000000000000000000000000000\n      dup2\n      mstore\n      0x04\n      add\n      tag_227\n      swap1\n      tag_206\n      jump\t// in\n    tag_227:\n      mload(0x40)\n      dup1\n      swap2\n      sub\n      swap1\n      revert\n        /* \"contracts/ERC1155.sol\":9518:9678  if (retval != IERC1155Receiver.onERC1155Received.selector) {... */\n    tag_226:\n        /* \"contracts/ERC1155.sol\":9471:9697  returns (bytes4 retval) {... */\n      pop\n        /* \"contracts/ERC1155.sol\":9354:9966  if (to.isContract()) {... */\n    tag_210:\n        /* \"contracts/ERC1155.sol\":9144:9977  function _doSafeTransferAcceptanceCheck(... */\n      pop\n      pop\n      pop\n      pop\n      pop\n      pop\n      jump\t// out\n        /* \"contracts/library/Address.sol\":1195:1582  function isContract(address account) internal view returns (bool) {... */\n    tag_184:\n        /* \"contracts/library/Address.sol\":1255:1259  bool */\n      0x00\n        /* \"contracts/library/Address.sol\":1463:1475  uint256 size */\n      dup1\n        /* \"contracts/library/Address.sol\":1530:1537  account */\n      dup3\n        /* \"contracts/library/Address.sol\":1518:1538  extcodesize(account) */\n      extcodesize\n        /* \"contracts/library/Address.sol\":1510:1538  size := extcodesize(account) */\n      swap1\n      pop\n        /* \"contracts/library/Address.sol\":1573:1574  0 */\n      0x00\n        /* \"contracts/library/Address.sol\":1566:1570  size */\n      dup2\n        /* \"contracts/library/Address.sol\":1566:1574  size > 0 */\n      gt\n        /* \"contracts/library/Address.sol\":1559:1574  return size > 0 */\n      swap2\n      pop\n      pop\n        /* \"contracts/library/Address.sol\":1195:1582  function isContract(address account) internal view returns (bool) {... */\n      swap2\n      swap1\n      pop\n      jump\t// out\n        /* \"#utility.yul\":7:82   */\n    tag_229:\n        /* \"#utility.yul\":40:46   */\n      0x00\n        /* \"#utility.yul\":73:75   */\n      0x40\n        /* \"#utility.yul\":67:76   */\n      mload\n        /* \"#utility.yul\":57:76   */\n      swap1\n      pop\n        /* \"#utility.yul\":7:82   */\n      swap1\n      jump\t// out\n        /* \"#utility.yul\":88:205   */\n    tag_230:\n        /* \"#utility.yul\":197:198   */\n      0x00\n        /* \"#utility.yul\":194:195   */\n      dup1\n        /* \"#utility.yul\":187:199   */\n      revert\n        /* \"#utility.yul\":211:328   */\n    tag_231:\n        /* \"#utility.yul\":320:321   */\n      0x00\n        /* \"#utility.yul\":317:318   */\n      dup1\n        /* \"#utility.yul\":310:322   */\n      revert\n        /* \"#utility.yul\":334:460   */\n    tag_232:\n        /* \"#utility.yul\":371:378   */\n      0x00\n        /* \"#utility.yul\":411:453   */\n      0xffffffffffffffffffffffffffffffffffffffff\n        /* \"#utility.yul\":404:409   */\n      dup3\n        /* \"#utility.yul\":400:454   */\n      and\n        /* \"#utility.yul\":389:454   */\n      swap1\n      pop\n        /* \"#utility.yul\":334:460   */\n      swap2\n      swap1\n      pop\n      jump\t// out\n        /* \"#utility.yul\":466:562   */\n    tag_233:\n        /* \"#utility.yul\":503:510   */\n      0x00\n        /* \"#utility.yul\":532:556   */\n      tag_301\n        /* \"#utility.yul\":550:555   */\n      dup3\n        /* \"#utility.yul\":532:556   */\n      tag_232\n      jump\t// in\n    tag_301:\n        /* \"#utility.yul\":521:556   */\n      swap1\n      pop\n        /* \"#utility.yul\":466:562   */\n      swap2\n      swap1\n      pop\n      jump\t// out\n        /* \"#utility.yul\":568:690   */\n    tag_234:\n        /* \"#utility.yul\":641:665   */\n      tag_303\n        /* \"#utility.yul\":659:664   */\n      dup2\n        /* \"#utility.yul\":641:665   */\n      tag_233\n      jump\t// in\n    tag_303:\n        /* \"#utility.yul\":634:639   */\n      dup2\n        /* \"#utility.yul\":631:666   */\n      eq\n        /* \"#utility.yul\":621:684   */\n      tag_304\n      jumpi\n        /* \"#utility.yul\":680:681   */\n      0x00\n        /* \"#utility.yul\":677:678   */\n      dup1\n        /* \"#utility.yul\":670:682   */\n      revert\n        /* \"#utility.yul\":621:684   */\n    tag_304:\n        /* \"#utility.yul\":568:690   */\n      pop\n      jump\t// out\n        /* \"#utility.yul\":696:835   */\n    tag_235:\n        /* \"#utility.yul\":742:747   */\n      0x00\n        /* \"#utility.yul\":780:786   */\n      dup2\n        /* \"#utility.yul\":767:787   */\n      calldataload\n        /* \"#utility.yul\":758:787   */\n      swap1\n      pop\n        /* \"#utility.yul\":796:829   */\n      tag_306\n        /* \"#utility.yul\":823:828   */\n      dup2\n        /* \"#utility.yul\":796:829   */\n      tag_234\n      jump\t// in\n    tag_306:\n        /* \"#utility.yul\":696:835   */\n      swap3\n      swap2\n      pop\n      pop\n      jump\t// out\n        /* \"#utility.yul\":841:918   */\n    tag_236:\n        /* \"#utility.yul\":878:885   */\n      0x00\n        /* \"#utility.yul\":907:912   */\n      dup2\n        /* \"#utility.yul\":896:912   */\n      swap1\n      pop\n        /* \"#utility.yul\":841:918   */\n      swap2\n      swap1\n      pop\n      jump\t// out\n        /* \"#utility.yul\":924:1046   */\n    tag_237:\n        /* \"#utility.yul\":997:1021   */\n      tag_309\n        /* \"#utility.yul\":1015:1020   */\n      dup2\n        /* \"#utility.yul\":997:1021   */\n      tag_236\n      jump\t// in\n    tag_309:\n        /* \"#utility.yul\":990:995   */\n      dup2\n        /* \"#utility.yul\":987:1022   */\n      eq\n        /* \"#utility.yul\":977:1040   */\n      tag_310\n      jumpi\n        /* \"#utility.yul\":1036:1037   */\n      0x00\n        /* \"#utility.yul\":1033:1034   */\n      dup1\n        /* \"#utility.yul\":1026:1038   */\n      revert\n        /* \"#utility.yul\":977:1040   */\n    tag_310:\n        /* \"#utility.yul\":924:1046   */\n      pop\n      jump\t// out\n        /* \"#utility.yul\":1052:1191   */\n    tag_238:\n        /* \"#utility.yul\":1098:1103   */\n      0x00\n        /* \"#utility.yul\":1136:1142   */\n      dup2\n        /* \"#utility.yul\":1123:1143   */\n      calldataload\n        /* \"#utility.yul\":1114:1143   */\n      swap1\n      pop\n        /* \"#utility.yul\":1152:1185   */\n      tag_312\n        /* \"#utility.yul\":1179:1184   */\n      dup2\n        /* \"#utility.yul\":1152:1185   */\n      tag_237\n      jump\t// in\n    tag_312:\n        /* \"#utility.yul\":1052:1191   */\n      swap3\n      swap2\n      pop\n      pop\n      jump\t// out\n        /* \"#utility.yul\":1197:1671   */\n    tag_16:\n        /* \"#utility.yul\":1265:1271   */\n      0x00\n        /* \"#utility.yul\":1273:1279   */\n      dup1\n        /* \"#utility.yul\":1322:1324   */\n      0x40\n        /* \"#utility.yul\":1310:1319   */\n      dup4\n        /* \"#utility.yul\":1301:1308   */\n      dup6\n        /* \"#utility.yul\":1297:1320   */\n      sub\n        /* \"#utility.yul\":1293:1325   */\n      slt\n        /* \"#utility.yul\":1290:1409   */\n      iszero\n      tag_314\n      jumpi\n        /* \"#utility.yul\":1328:1407   */\n      tag_315\n      tag_230\n      jump\t// in\n    tag_315:\n        /* \"#utility.yul\":1290:1409   */\n    tag_314:\n        /* \"#utility.yul\":1448:1449   */\n      0x00\n        /* \"#utility.yul\":1473:1526   */\n      tag_316\n        /* \"#utility.yul\":1518:1525   */\n      dup6\n        /* \"#utility.yul\":1509:1515   */\n      dup3\n        /* \"#utility.yul\":1498:1507   */\n      dup7\n        /* \"#utility.yul\":1494:1516   */\n      add\n        /* \"#utility.yul\":1473:1526   */\n      tag_235\n      jump\t// in\n    tag_316:\n        /* \"#utility.yul\":1463:1526   */\n      swap3\n      pop\n        /* \"#utility.yul\":1419:1536   */\n      pop\n        /* \"#utility.yul\":1575:1577   */\n      0x20\n        /* \"#utility.yul\":1601:1654   */\n      tag_317\n        /* \"#utility.yul\":1646:1653   */\n      dup6\n        /* \"#utility.yul\":1637:1643   */\n      dup3\n        /* \"#utility.yul\":1626:1635   */\n      dup7\n        /* \"#utility.yul\":1622:1644   */\n      add\n        /* \"#utility.yul\":1601:1654   */\n      tag_238\n      jump\t// in\n    tag_317:\n        /* \"#utility.yul\":1591:1654   */\n      swap2\n      pop\n        /* \"#utility.yul\":1546:1664   */\n      pop\n        /* \"#utility.yul\":1197:1671   */\n      swap3\n      pop\n      swap3\n      swap1\n      pop\n      jump\t// out\n        /* \"#utility.yul\":1677:1795   */\n    tag_239:\n        /* \"#utility.yul\":1764:1788   */\n      tag_319\n        /* \"#utility.yul\":1782:1787   */\n      dup2\n        /* \"#utility.yul\":1764:1788   */\n      tag_236\n      jump\t// in\n    tag_319:\n        /* \"#utility.yul\":1759:1762   */\n      dup3\n        /* \"#utility.yul\":1752:1789   */\n      mstore\n        /* \"#utility.yul\":1677:1795   */\n      pop\n      pop\n      jump\t// out\n        /* \"#utility.yul\":1801:2023   */\n    tag_19:\n        /* \"#utility.yul\":1894:1898   */\n      0x00\n        /* \"#utility.yul\":1932:1934   */\n      0x20\n        /* \"#utility.yul\":1921:1930   */\n      dup3\n        /* \"#utility.yul\":1917:1935   */\n      add\n        /* \"#utility.yul\":1909:1935   */\n      swap1\n      pop\n        /* \"#utility.yul\":1945:2016   */\n      tag_321\n        /* \"#utility.yul\":2013:2014   */\n      0x00\n        /* \"#utility.yul\":2002:2011   */\n      dup4\n        /* \"#utility.yul\":1998:2015   */\n      add\n        /* \"#utility.yul\":1989:1995   */\n      dup5\n        /* \"#utility.yul\":1945:2016   */\n      tag_239\n      jump\t// in\n    tag_321:\n        /* \"#utility.yul\":1801:2023   */\n      swap3\n      swap2\n      pop\n      pop\n      jump\t// out\n        /* \"#utility.yul\":2029:2178   */\n    tag_240:\n        /* \"#utility.yul\":2065:2072   */\n      0x00\n        /* \"#utility.yul\":2105:2171   */\n      0xffffffff00000000000000000000000000000000000000000000000000000000\n        /* \"#utility.yul\":2098:2103   */\n      dup3\n        /* \"#utility.yul\":2094:2172   */\n      and\n        /* \"#utility.yul\":2083:2172   */\n      swap1\n      pop\n        /* \"#utility.yul\":2029:2178   */\n      swap2\n      swap1\n      pop\n      jump\t// out\n        /* \"#utility.yul\":2184:2304   */\n    tag_241:\n        /* \"#utility.yul\":2256:2279   */\n      tag_324\n        /* \"#utility.yul\":2273:2278   */\n      dup2\n        /* \"#utility.yul\":2256:2279   */\n      tag_240\n      jump\t// in\n    tag_324:\n        /* \"#utility.yul\":2249:2254   */\n      dup2\n        /* \"#utility.yul\":2246:2280   */\n      eq\n        /* \"#utility.yul\":2236:2298   */\n      tag_325\n      jumpi\n        /* \"#utility.yul\":2294:2295   */\n      0x00\n        /* \"#utility.yul\":2291:2292   */\n      dup1\n        /* \"#utility.yul\":2284:2296   */\n      revert\n        /* \"#utility.yul\":2236:2298   */\n    tag_325:\n        /* \"#utility.yul\":2184:2304   */\n      pop\n      jump\t// out\n        /* \"#utility.yul\":2310:2447   */\n    tag_242:\n        /* \"#utility.yul\":2355:2360   */\n      0x00\n        /* \"#utility.yul\":2393:2399   */\n      dup2\n        /* \"#utility.yul\":2380:2400   */\n      calldataload\n        /* \"#utility.yul\":2371:2400   */\n      swap1\n      pop\n        /* \"#utility.yul\":2409:2441   */\n      tag_327\n        /* \"#utility.yul\":2435:2440   */\n      dup2\n        /* \"#utility.yul\":2409:2441   */\n      tag_241\n      jump\t// in\n    tag_327:\n        /* \"#utility.yul\":2310:2447   */\n      swap3\n      swap2\n      pop\n      pop\n      jump\t// out\n        /* \"#utility.yul\":2453:2780   */\n    tag_22:\n        /* \"#utility.yul\":2511:2517   */\n      0x00\n        /* \"#utility.yul\":2560:2562   */\n      0x20\n        /* \"#utility.yul\":2548:2557   */\n      dup3\n        /* \"#utility.yul\":2539:2546   */\n      dup5\n        /* \"#utility.yul\":2535:2558   */\n      sub\n        /* \"#utility.yul\":2531:2563   */\n      slt\n        /* \"#utility.yul\":2528:2647   */\n      iszero\n      tag_329\n      jumpi\n        /* \"#utility.yul\":2566:2645   */\n      tag_330\n      tag_230\n      jump\t// in\n    tag_330:\n        /* \"#utility.yul\":2528:2647   */\n    tag_329:\n        /* \"#utility.yul\":2686:2687   */\n      0x00\n        /* \"#utility.yul\":2711:2763   */\n      tag_331\n        /* \"#utility.yul\":2755:2762   */\n      dup5\n        /* \"#utility.yul\":2746:2752   */\n      dup3\n        /* \"#utility.yul\":2735:2744   */\n      dup6\n        /* \"#utility.yul\":2731:2753   */\n      add\n        /* \"#utility.yul\":2711:2763   */\n      tag_242\n      jump\t// in\n    tag_331:\n        /* \"#utility.yul\":2701:2763   */\n      swap2\n      pop\n        /* \"#utility.yul\":2657:2773   */\n      pop\n        /* \"#utility.yul\":2453:2780   */\n      swap3\n      swap2\n      pop\n      pop\n      jump\t// out\n        /* \"#utility.yul\":2786:2876   */\n    tag_243:\n        /* \"#utility.yul\":2820:2827   */\n      0x00\n        /* \"#utility.yul\":2863:2868   */\n      dup2\n        /* \"#utility.yul\":2856:2869   */\n      iszero\n        /* \"#utility.yul\":2849:2870   */\n      iszero\n        /* \"#utility.yul\":2838:2870   */\n      swap1\n      pop\n        /* \"#utility.yul\":2786:2876   */\n      swap2\n      swap1\n      pop\n      jump\t// out\n        /* \"#utility.yul\":2882:2991   */\n    tag_244:\n        /* \"#utility.yul\":2963:2984   */\n      tag_334\n        /* \"#utility.yul\":2978:2983   */\n      dup2\n        /* \"#utility.yul\":2963:2984   */\n      tag_243\n      jump\t// in\n    tag_334:\n        /* \"#utility.yul\":2958:2961   */\n      dup3\n        /* \"#utility.yul\":2951:2985   */\n      mstore\n        /* \"#utility.yul\":2882:2991   */\n      pop\n      pop\n      jump\t// out\n        /* \"#utility.yul\":2997:3207   */\n    tag_25:\n        /* \"#utility.yul\":3084:3088   */\n      0x00\n        /* \"#utility.yul\":3122:3124   */\n      0x20\n        /* \"#utility.yul\":3111:3120   */\n      dup3\n        /* \"#utility.yul\":3107:3125   */\n      add\n        /* \"#utility.yul\":3099:3125   */\n      swap1\n      pop\n        /* \"#utility.yul\":3135:3200   */\n      tag_336\n        /* \"#utility.yul\":3197:3198   */\n      0x00\n        /* \"#utility.yul\":3186:3195   */\n      dup4\n        /* \"#utility.yul\":3182:3199   */\n      add\n        /* \"#utility.yul\":3173:3179   */\n      dup5\n        /* \"#utility.yul\":3135:3200   */\n      tag_244\n      jump\t// in\n    tag_336:\n        /* \"#utility.yul\":2997:3207   */\n      swap3\n      swap2\n      pop\n      pop\n      jump\t// out\n        /* \"#utility.yul\":3213:3312   */\n    tag_245:\n        /* \"#utility.yul\":3265:3271   */\n      0x00\n        /* \"#utility.yul\":3299:3304   */\n      dup2\n        /* \"#utility.yul\":3293:3305   */\n      mload\n        /* \"#utility.yul\":3283:3305   */\n      swap1\n      pop\n        /* \"#utility.yul\":3213:3312   */\n      swap2\n      swap1\n      pop\n      jump\t// out\n        /* \"#utility.yul\":3318:3487   */\n    tag_246:\n        /* \"#utility.yul\":3402:3413   */\n      0x00\n        /* \"#utility.yul\":3436:3442   */\n      dup3\n        /* \"#utility.yul\":3431:3434   */\n      dup3\n        /* \"#utility.yul\":3424:3443   */\n      mstore\n        /* \"#utility.yul\":3476:3480   */\n      0x20\n        /* \"#utility.yul\":3471:3474   */\n      dup3\n        /* \"#utility.yul\":3467:3481   */\n      add\n        /* \"#utility.yul\":3452:3481   */\n      swap1\n      pop\n        /* \"#utility.yul\":3318:3487   */\n      swap3\n      swap2\n      pop\n      pop\n      jump\t// out\n        /* \"#utility.yul\":3493:3632   */\n    tag_247:\n        /* \"#utility.yul\":3582:3588   */\n      dup3\n        /* \"#utility.yul\":3577:3580   */\n      dup2\n        /* \"#utility.yul\":3572:3575   */\n      dup4\n        /* \"#utility.yul\":3566:3589   */\n      mcopy\n        /* \"#utility.yul\":3623:3624   */\n      0x00\n        /* \"#utility.yul\":3614:3620   */\n      dup4\n        /* \"#utility.yul\":3609:3612   */\n      dup4\n        /* \"#utility.yul\":3605:3621   */\n      add\n        /* \"#utility.yul\":3598:3625   */\n      mstore\n        /* \"#utility.yul\":3493:3632   */\n      pop\n      pop\n      pop\n      jump\t// out\n        /* \"#utility.yul\":3638:3740   */\n    tag_248:\n        /* \"#utility.yul\":3679:3685   */\n      0x00\n        /* \"#utility.yul\":3730:3732   */\n      0x1f\n        /* \"#utility.yul\":3726:3733   */\n      not\n        /* \"#utility.yul\":3721:3723   */\n      0x1f\n        /* \"#utility.yul\":3714:3719   */\n      dup4\n        /* \"#utility.yul\":3710:3724   */\n      add\n        /* \"#utility.yul\":3706:3734   */\n      and\n        /* \"#utility.yul\":3696:3734   */\n      swap1\n      pop\n        /* \"#utility.yul\":3638:3740   */\n      swap2\n      swap1\n      pop\n      jump\t// out\n        /* \"#utility.yul\":3746:4123   */\n    tag_249:\n        /* \"#utility.yul\":3834:3837   */\n      0x00\n        /* \"#utility.yul\":3862:3901   */\n      tag_342\n        /* \"#utility.yul\":3895:3900   */\n      dup3\n        /* \"#utility.yul\":3862:3901   */\n      tag_245\n      jump\t// in\n    tag_342:\n        /* \"#utility.yul\":3917:3988   */\n      tag_343\n        /* \"#utility.yul\":3981:3987   */\n      dup2\n        /* \"#utility.yul\":3976:3979   */\n      dup6\n        /* \"#utility.yul\":3917:3988   */\n      tag_246\n      jump\t// in\n    tag_343:\n        /* \"#utility.yul\":3910:3988   */\n      swap4\n      pop\n        /* \"#utility.yul\":3997:4062   */\n      tag_344\n        /* \"#utility.yul\":4055:4061   */\n      dup2\n        /* \"#utility.yul\":4050:4053   */\n      dup6\n        /* \"#utility.yul\":4043:4047   */\n      0x20\n        /* \"#utility.yul\":4036:4041   */\n      dup7\n        /* \"#utility.yul\":4032:4048   */\n      add\n        /* \"#utility.yul\":3997:4062   */\n      tag_247\n      jump\t// in\n    tag_344:\n        /* \"#utility.yul\":4087:4116   */\n      tag_345\n        /* \"#utility.yul\":4109:4115   */\n      dup2\n        /* \"#utility.yul\":4087:4116   */\n      tag_248\n      jump\t// in\n    tag_345:\n        /* \"#utility.yul\":4082:4085   */\n      dup5\n        /* \"#utility.yul\":4078:4117   */\n      add\n        /* \"#utility.yul\":4071:4117   */\n      swap2\n      pop\n        /* \"#utility.yul\":3838:4123   */\n      pop\n        /* \"#utility.yul\":3746:4123   */\n      swap3\n      swap2\n      pop\n      pop\n      jump\t// out\n        /* \"#utility.yul\":4129:4442   */\n    tag_29:\n        /* \"#utility.yul\":4242:4246   */\n      0x00\n        /* \"#utility.yul\":4280:4282   */\n      0x20\n        /* \"#utility.yul\":4269:4278   */\n      dup3\n        /* \"#utility.yul\":4265:4283   */\n      add\n        /* \"#utility.yul\":4257:4283   */\n      swap1\n      pop\n        /* \"#utility.yul\":4329:4338   */\n      dup2\n        /* \"#utility.yul\":4323:4327   */\n      dup2\n        /* \"#utility.yul\":4319:4339   */\n      sub\n        /* \"#utility.yul\":4315:4316   */\n      0x00\n        /* \"#utility.yul\":4304:4313   */\n      dup4\n        /* \"#utility.yul\":4300:4317   */\n      add\n        /* \"#utility.yul\":4293:4340   */\n      mstore\n        /* \"#utility.yul\":4357:4435   */\n      tag_347\n        /* \"#utility.yul\":4430:4434   */\n      dup2\n        /* \"#utility.yul\":4421:4427   */\n      dup5\n        /* \"#utility.yul\":4357:4435   */\n      tag_249\n      jump\t// in\n    tag_347:\n        /* \"#utility.yul\":4349:4435   */\n      swap1\n      pop\n        /* \"#utility.yul\":4129:4442   */\n      swap3\n      swap2\n      pop\n      pop\n      jump\t// out\n        /* \"#utility.yul\":4448:4777   */\n    tag_32:\n        /* \"#utility.yul\":4507:4513   */\n      0x00\n        /* \"#utility.yul\":4556:4558   */\n      0x20\n        /* \"#utility.yul\":4544:4553   */\n      dup3\n        /* \"#utility.yul\":4535:4542   */\n      dup5\n        /* \"#utility.yul\":4531:4554   */\n      sub\n        /* \"#utility.yul\":4527:4559   */\n      slt\n        /* \"#utility.yul\":4524:4643   */\n      iszero\n      tag_349\n      jumpi\n        /* \"#utility.yul\":4562:4641   */\n      tag_350\n      tag_230\n      jump\t// in\n    tag_350:\n        /* \"#utility.yul\":4524:4643   */\n    tag_349:\n        /* \"#utility.yul\":4682:4683   */\n      0x00\n        /* \"#utility.yul\":4707:4760   */\n      tag_351\n        /* \"#utility.yul\":4752:4759   */\n      dup5\n        /* \"#utility.yul\":4743:4749   */\n      dup3\n        /* \"#utility.yul\":4732:4741   */\n      dup6\n        /* \"#utility.yul\":4728:4750   */\n      add\n        /* \"#utility.yul\":4707:4760   */\n      tag_238\n      jump\t// in\n    tag_351:\n        /* \"#utility.yul\":4697:4760   */\n      swap2\n      pop\n        /* \"#utility.yul\":4653:4770   */\n      pop\n        /* \"#utility.yul\":4448:4777   */\n      swap3\n      swap2\n      pop\n      pop\n      jump\t// out\n        /* \"#utility.yul\":4783:4900   */\n    tag_250:\n        /* \"#utility.yul\":4892:4893   */\n      0x00\n        /* \"#utility.yul\":4889:4890   */\n      dup1\n        /* \"#utility.yul\":4882:4894   */\n      revert\n        /* \"#utility.yul\":4906:5023   */\n    tag_251:\n        /* \"#utility.yul\":5015:5016   */\n      0x00\n        /* \"#utility.yul\":5012:5013   */\n      dup1\n        /* \"#utility.yul\":5005:5017   */\n      revert\n        /* \"#utility.yul\":5029:5146   */\n    tag_252:\n        /* \"#utility.yul\":5138:5139   */\n      0x00\n        /* \"#utility.yul\":5135:5136   */\n      dup1\n        /* \"#utility.yul\":5128:5140   */\n      revert\n        /* \"#utility.yul\":5169:5737   */\n    tag_253:\n        /* \"#utility.yul\":5242:5250   */\n      0x00\n        /* \"#utility.yul\":5252:5258   */\n      dup1\n        /* \"#utility.yul\":5302:5305   */\n      dup4\n        /* \"#utility.yul\":5295:5299   */\n      0x1f\n        /* \"#utility.yul\":5287:5293   */\n      dup5\n        /* \"#utility.yul\":5283:5300   */\n      add\n        /* \"#utility.yul\":5279:5306   */\n      slt\n        /* \"#utility.yul\":5269:5391   */\n      tag_356\n      jumpi\n        /* \"#utility.yul\":5310:5389   */\n      tag_357\n      tag_250\n      jump\t// in\n    tag_357:\n        /* \"#utility.yul\":5269:5391   */\n    tag_356:\n        /* \"#utility.yul\":5423:5429   */\n      dup3\n        /* \"#utility.yul\":5410:5430   */\n      calldataload\n        /* \"#utility.yul\":5400:5430   */\n      swap1\n      pop\n        /* \"#utility.yul\":5453:5471   */\n      0xffffffffffffffff\n        /* \"#utility.yul\":5445:5451   */\n      dup2\n        /* \"#utility.yul\":5442:5472   */\n      gt\n        /* \"#utility.yul\":5439:5556   */\n      iszero\n      tag_358\n      jumpi\n        /* \"#utility.yul\":5475:5554   */\n      tag_359\n      tag_251\n      jump\t// in\n    tag_359:\n        /* \"#utility.yul\":5439:5556   */\n    tag_358:\n        /* \"#utility.yul\":5589:5593   */\n      0x20\n        /* \"#utility.yul\":5581:5587   */\n      dup4\n        /* \"#utility.yul\":5577:5594   */\n      add\n        /* \"#utility.yul\":5565:5594   */\n      swap2\n      pop\n        /* \"#utility.yul\":5643:5646   */\n      dup4\n        /* \"#utility.yul\":5635:5639   */\n      0x20\n        /* \"#utility.yul\":5627:5633   */\n      dup3\n        /* \"#utility.yul\":5623:5640   */\n      mul\n        /* \"#utility.yul\":5613:5621   */\n      dup4\n        /* \"#utility.yul\":5609:5641   */\n      add\n        /* \"#utility.yul\":5606:5647   */\n      gt\n        /* \"#utility.yul\":5603:5731   */\n      iszero\n      tag_360\n      jumpi\n        /* \"#utility.yul\":5650:5729   */\n      tag_361\n      tag_252\n      jump\t// in\n    tag_361:\n        /* \"#utility.yul\":5603:5731   */\n    tag_360:\n        /* \"#utility.yul\":5169:5737   */\n      swap3\n      pop\n      swap3\n      swap1\n      pop\n      jump\t// out\n        /* \"#utility.yul\":5756:6308   */\n    tag_254:\n        /* \"#utility.yul\":5813:5821   */\n      0x00\n        /* \"#utility.yul\":5823:5829   */\n      dup1\n        /* \"#utility.yul\":5873:5876   */\n      dup4\n        /* \"#utility.yul\":5866:5870   */\n      0x1f\n        /* \"#utility.yul\":5858:5864   */\n      dup5\n        /* \"#utility.yul\":5854:5871   */\n      add\n        /* \"#utility.yul\":5850:5877   */\n      slt\n        /* \"#utility.yul\":5840:5962   */\n      tag_363\n      jumpi\n        /* \"#utility.yul\":5881:5960   */\n      tag_364\n      tag_250\n      jump\t// in\n    tag_364:\n        /* \"#utility.yul\":5840:5962   */\n    tag_363:\n        /* \"#utility.yul\":5994:6000   */\n      dup3\n        /* \"#utility.yul\":5981:6001   */\n      calldataload\n        /* \"#utility.yul\":5971:6001   */\n      swap1\n      pop\n        /* \"#utility.yul\":6024:6042   */\n      0xffffffffffffffff\n        /* \"#utility.yul\":6016:6022   */\n      dup2\n        /* \"#utility.yul\":6013:6043   */\n      gt\n        /* \"#utility.yul\":6010:6127   */\n      iszero\n      tag_365\n      jumpi\n        /* \"#utility.yul\":6046:6125   */\n      tag_366\n      tag_251\n      jump\t// in\n    tag_366:\n        /* \"#utility.yul\":6010:6127   */\n    tag_365:\n        /* \"#utility.yul\":6160:6164   */\n      0x20\n        /* \"#utility.yul\":6152:6158   */\n      dup4\n        /* \"#utility.yul\":6148:6165   */\n      add\n        /* \"#utility.yul\":6136:6165   */\n      swap2\n      pop\n        /* \"#utility.yul\":6214:6217   */\n      dup4\n        /* \"#utility.yul\":6206:6210   */\n      0x01\n        /* \"#utility.yul\":6198:6204   */\n      dup3\n        /* \"#utility.yul\":6194:6211   */\n      mul\n        /* \"#utility.yul\":6184:6192   */\n      dup4\n        /* \"#utility.yul\":6180:6212   */\n      add\n        /* \"#utility.yul\":6177:6218   */\n      gt\n        /* \"#utility.yul\":6174:6302   */\n      iszero\n      tag_367\n      jumpi\n        /* \"#utility.yul\":6221:6300   */\n      tag_368\n      tag_252\n      jump\t// in\n    tag_368:\n        /* \"#utility.yul\":6174:6302   */\n    tag_367:\n        /* \"#utility.yul\":5756:6308   */\n      swap3\n      pop\n      swap3\n      swap1\n      pop\n      jump\t// out\n        /* \"#utility.yul\":6314:7883   */\n    tag_37:\n        /* \"#utility.yul\":6474:6480   */\n      0x00\n        /* \"#utility.yul\":6482:6488   */\n      dup1\n        /* \"#utility.yul\":6490:6496   */\n      0x00\n        /* \"#utility.yul\":6498:6504   */\n      dup1\n        /* \"#utility.yul\":6506:6512   */\n      0x00\n        /* \"#utility.yul\":6514:6520   */\n      dup1\n        /* \"#utility.yul\":6522:6528   */\n      0x00\n        /* \"#utility.yul\":6530:6536   */\n      dup1\n        /* \"#utility.yul\":6579:6582   */\n      0xa0\n        /* \"#utility.yul\":6567:6576   */\n      dup10\n        /* \"#utility.yul\":6558:6565   */\n      dup12\n        /* \"#utility.yul\":6554:6577   */\n      sub\n        /* \"#utility.yul\":6550:6583   */\n      slt\n        /* \"#utility.yul\":6547:6667   */\n      iszero\n      tag_370\n      jumpi\n        /* \"#utility.yul\":6586:6665   */\n      tag_371\n      tag_230\n      jump\t// in\n    tag_371:\n        /* \"#utility.yul\":6547:6667   */\n    tag_370:\n        /* \"#utility.yul\":6706:6707   */\n      0x00\n        /* \"#utility.yul\":6731:6784   */\n      tag_372\n        /* \"#utility.yul\":6776:6783   */\n      dup12\n        /* \"#utility.yul\":6767:6773   */\n      dup3\n        /* \"#utility.yul\":6756:6765   */\n      dup13\n        /* \"#utility.yul\":6752:6774   */\n      add\n        /* \"#utility.yul\":6731:6784   */\n      tag_235\n      jump\t// in\n    tag_372:\n        /* \"#utility.yul\":6721:6784   */\n      swap9\n      pop\n        /* \"#utility.yul\":6677:6794   */\n      pop\n        /* \"#utility.yul\":6833:6835   */\n      0x20\n        /* \"#utility.yul\":6859:6912   */\n      tag_373\n        /* \"#utility.yul\":6904:6911   */\n      dup12\n        /* \"#utility.yul\":6895:6901   */\n      dup3\n        /* \"#utility.yul\":6884:6893   */\n      dup13\n        /* \"#utility.yul\":6880:6902   */\n      add\n        /* \"#utility.yul\":6859:6912   */\n      tag_235\n      jump\t// in\n    tag_373:\n        /* \"#utility.yul\":6849:6912   */\n      swap8\n      pop\n        /* \"#utility.yul\":6804:6922   */\n      pop\n        /* \"#utility.yul\":6989:6991   */\n      0x40\n        /* \"#utility.yul\":6978:6987   */\n      dup10\n        /* \"#utility.yul\":6974:6992   */\n      add\n        /* \"#utility.yul\":6961:6993   */\n      calldataload\n        /* \"#utility.yul\":7020:7038   */\n      0xffffffffffffffff\n        /* \"#utility.yul\":7012:7018   */\n      dup2\n        /* \"#utility.yul\":7009:7039   */\n      gt\n        /* \"#utility.yul\":7006:7123   */\n      iszero\n      tag_374\n      jumpi\n        /* \"#utility.yul\":7042:7121   */\n      tag_375\n      tag_231\n      jump\t// in\n    tag_375:\n        /* \"#utility.yul\":7006:7123   */\n    tag_374:\n        /* \"#utility.yul\":7155:7235   */\n      tag_376\n        /* \"#utility.yul\":7227:7234   */\n      dup12\n        /* \"#utility.yul\":7218:7224   */\n      dup3\n        /* \"#utility.yul\":7207:7216   */\n      dup13\n        /* \"#utility.yul\":7203:7225   */\n      add\n        /* \"#utility.yul\":7155:7235   */\n      tag_253\n      jump\t// in\n    tag_376:\n        /* \"#utility.yul\":7137:7235   */\n      swap7\n      pop\n      swap7\n      pop\n        /* \"#utility.yul\":6932:7245   */\n      pop\n        /* \"#utility.yul\":7312:7314   */\n      0x60\n        /* \"#utility.yul\":7301:7310   */\n      dup10\n        /* \"#utility.yul\":7297:7315   */\n      add\n        /* \"#utility.yul\":7284:7316   */\n      calldataload\n        /* \"#utility.yul\":7343:7361   */\n      0xffffffffffffffff\n        /* \"#utility.yul\":7335:7341   */\n      dup2\n        /* \"#utility.yul\":7332:7362   */\n      gt\n        /* \"#utility.yul\":7329:7446   */\n      iszero\n      tag_377\n      jumpi\n        /* \"#utility.yul\":7365:7444   */\n      tag_378\n      tag_231\n      jump\t// in\n    tag_378:\n        /* \"#utility.yul\":7329:7446   */\n    tag_377:\n        /* \"#utility.yul\":7478:7558   */\n      tag_379\n        /* \"#utility.yul\":7550:7557   */\n      dup12\n        /* \"#utility.yul\":7541:7547   */\n      dup3\n        /* \"#utility.yul\":7530:7539   */\n      dup13\n        /* \"#utility.yul\":7526:7548   */\n      add\n        /* \"#utility.yul\":7478:7558   */\n      tag_253\n      jump\t// in\n    tag_379:\n        /* \"#utility.yul\":7460:7558   */\n      swap5\n      pop\n      swap5\n      pop\n        /* \"#utility.yul\":7255:7568   */\n      pop\n        /* \"#utility.yul\":7635:7638   */\n      0x80\n        /* \"#utility.yul\":7624:7633   */\n      dup10\n        /* \"#utility.yul\":7620:7639   */\n      add\n        /* \"#utility.yul\":7607:7640   */\n      calldataload\n        /* \"#utility.yul\":7667:7685   */\n      0xffffffffffffffff\n        /* \"#utility.yul\":7659:7665   */\n      dup2\n        /* \"#utility.yul\":7656:7686   */\n      gt\n        /* \"#utility.yul\":7653:7770   */\n      iszero\n      tag_380\n      jumpi\n        /* \"#utility.yul\":7689:7768   */\n      tag_381\n      tag_231\n      jump\t// in\n    tag_381:\n        /* \"#utility.yul\":7653:7770   */\n    tag_380:\n        /* \"#utility.yul\":7802:7866   */\n      tag_382\n        /* \"#utility.yul\":7858:7865   */\n      dup12\n        /* \"#utility.yul\":7849:7855   */\n      dup3\n        /* \"#utility.yul\":7838:7847   */\n      dup13\n        /* \"#utility.yul\":7834:7856   */\n      add\n        /* \"#utility.yul\":7802:7866   */\n      tag_254\n      jump\t// in\n    tag_382:\n        /* \"#utility.yul\":7784:7866   */\n      swap3\n      pop\n      swap3\n      pop\n        /* \"#utility.yul\":7578:7876   */\n      pop\n        /* \"#utility.yul\":6314:7883   */\n      swap3\n      swap6\n      swap9\n      pop\n      swap3\n      swap6\n      swap9\n      swap1\n      swap4\n      swap7\n      pop\n      jump\t// out\n        /* \"#utility.yul\":7906:8474   */\n    tag_255:\n        /* \"#utility.yul\":7979:7987   */\n      0x00\n        /* \"#utility.yul\":7989:7995   */\n      dup1\n        /* \"#utility.yul\":8039:8042   */\n      dup4\n        /* \"#utility.yul\":8032:8036   */\n      0x1f\n        /* \"#utility.yul\":8024:8030   */\n      dup5\n        /* \"#utility.yul\":8020:8037   */\n      add\n        /* \"#utility.yul\":8016:8043   */\n      slt\n        /* \"#utility.yul\":8006:8128   */\n      tag_384\n      jumpi\n        /* \"#utility.yul\":8047:8126   */\n      tag_385\n      tag_250\n      jump\t// in\n    tag_385:\n        /* \"#utility.yul\":8006:8128   */\n    tag_384:\n        /* \"#utility.yul\":8160:8166   */\n      dup3\n        /* \"#utility.yul\":8147:8167   */\n      calldataload\n        /* \"#utility.yul\":8137:8167   */\n      swap1\n      pop\n        /* \"#utility.yul\":8190:8208   */\n      0xffffffffffffffff\n        /* \"#utility.yul\":8182:8188   */\n      dup2\n        /* \"#utility.yul\":8179:8209   */\n      gt\n        /* \"#utility.yul\":8176:8293   */\n      iszero\n      tag_386\n      jumpi\n        /* \"#utility.yul\":8212:8291   */\n      tag_387\n      tag_251\n      jump\t// in\n    tag_387:\n        /* \"#utility.yul\":8176:8293   */\n    tag_386:\n        /* \"#utility.yul\":8326:8330   */\n      0x20\n        /* \"#utility.yul\":8318:8324   */\n      dup4\n        /* \"#utility.yul\":8314:8331   */\n      add\n        /* \"#utility.yul\":8302:8331   */\n      swap2\n      pop\n        /* \"#utility.yul\":8380:8383   */\n      dup4\n        /* \"#utility.yul\":8372:8376   */\n      0x20\n        /* \"#utility.yul\":8364:8370   */\n      dup3\n        /* \"#utility.yul\":8360:8377   */\n      mul\n        /* \"#utility.yul\":8350:8358   */\n      dup4\n        /* \"#utility.yul\":8346:8378   */\n      add\n        /* \"#utility.yul\":8343:8384   */\n      gt\n        /* \"#utility.yul\":8340:8468   */\n      iszero\n      tag_388\n      jumpi\n        /* \"#utility.yul\":8387:8466   */\n      tag_389\n      tag_252\n      jump\t// in\n    tag_389:\n        /* \"#utility.yul\":8340:8468   */\n    tag_388:\n        /* \"#utility.yul\":7906:8474   */\n      swap3\n      pop\n      swap3\n      swap1\n      pop\n      jump\t// out\n        /* \"#utility.yul\":8480:9414   */\n    tag_41:\n        /* \"#utility.yul\":8602:8608   */\n      0x00\n        /* \"#utility.yul\":8610:8616   */\n      dup1\n        /* \"#utility.yul\":8618:8624   */\n      0x00\n        /* \"#utility.yul\":8626:8632   */\n      dup1\n        /* \"#utility.yul\":8675:8677   */\n      0x40\n        /* \"#utility.yul\":8663:8672   */\n      dup6\n        /* \"#utility.yul\":8654:8661   */\n      dup8\n        /* \"#utility.yul\":8650:8673   */\n      sub\n        /* \"#utility.yul\":8646:8678   */\n      slt\n        /* \"#utility.yul\":8643:8762   */\n      iszero\n      tag_391\n      jumpi\n        /* \"#utility.yul\":8681:8760   */\n      tag_392\n      tag_230\n      jump\t// in\n    tag_392:\n        /* \"#utility.yul\":8643:8762   */\n    tag_391:\n        /* \"#utility.yul\":8829:8830   */\n      0x00\n        /* \"#utility.yul\":8818:8827   */\n      dup6\n        /* \"#utility.yul\":8814:8831   */\n      add\n        /* \"#utility.yul\":8801:8832   */\n      calldataload\n        /* \"#utility.yul\":8859:8877   */\n      0xffffffffffffffff\n        /* \"#utility.yul\":8851:8857   */\n      dup2\n        /* \"#utility.yul\":8848:8878   */\n      gt\n        /* \"#utility.yul\":8845:8962   */\n      iszero\n      tag_393\n      jumpi\n        /* \"#utility.yul\":8881:8960   */\n      tag_394\n      tag_231\n      jump\t// in\n    tag_394:\n        /* \"#utility.yul\":8845:8962   */\n    tag_393:\n        /* \"#utility.yul\":8994:9074   */\n      tag_395\n        /* \"#utility.yul\":9066:9073   */\n      dup8\n        /* \"#utility.yul\":9057:9063   */\n      dup3\n        /* \"#utility.yul\":9046:9055   */\n      dup9\n        /* \"#utility.yul\":9042:9064   */\n      add\n        /* \"#utility.yul\":8994:9074   */\n      tag_255\n      jump\t// in\n    tag_395:\n        /* \"#utility.yul\":8976:9074   */\n      swap5\n      pop\n      swap5\n      pop\n        /* \"#utility.yul\":8772:9084   */\n      pop\n        /* \"#utility.yul\":9151:9153   */\n      0x20\n        /* \"#utility.yul\":9140:9149   */\n      dup6\n        /* \"#utility.yul\":9136:9154   */\n      add\n        /* \"#utility.yul\":9123:9155   */\n      calldataload\n        /* \"#utility.yul\":9182:9200   */\n      0xffffffffffffffff\n        /* \"#utility.yul\":9174:9180   */\n      dup2\n        /* \"#utility.yul\":9171:9201   */\n      gt\n        /* \"#utility.yul\":9168:9285   */\n      iszero\n      tag_396\n      jumpi\n        /* \"#utility.yul\":9204:9283   */\n      tag_397\n      tag_231\n      jump\t// in\n    tag_397:\n        /* \"#utility.yul\":9168:9285   */\n    tag_396:\n        /* \"#utility.yul\":9317:9397   */\n      tag_398\n        /* \"#utility.yul\":9389:9396   */\n      dup8\n        /* \"#utility.yul\":9380:9386   */\n      dup3\n        /* \"#utility.yul\":9369:9378   */\n      dup9\n        /* \"#utility.yul\":9365:9387   */\n      add\n        /* \"#utility.yul\":9317:9397   */\n      tag_253\n      jump\t// in\n    tag_398:\n        /* \"#utility.yul\":9299:9397   */\n      swap3\n      pop\n      swap3\n      pop\n        /* \"#utility.yul\":9094:9407   */\n      pop\n        /* \"#utility.yul\":8480:9414   */\n      swap3\n      swap6\n      swap2\n      swap5\n      pop\n      swap3\n      pop\n      jump\t// out\n        /* \"#utility.yul\":9420:9534   */\n    tag_256:\n        /* \"#utility.yul\":9487:9493   */\n      0x00\n        /* \"#utility.yul\":9521:9526   */\n      dup2\n        /* \"#utility.yul\":9515:9527   */\n      mload\n        /* \"#utility.yul\":9505:9527   */\n      swap1\n      pop\n        /* \"#utility.yul\":9420:9534   */\n      swap2\n      swap1\n      pop\n      jump\t// out\n        /* \"#utility.yul\":9540:9724   */\n    tag_257:\n        /* \"#utility.yul\":9639:9650   */\n      0x00\n        /* \"#utility.yul\":9673:9679   */\n      dup3\n        /* \"#utility.yul\":9668:9671   */\n      dup3\n        /* \"#utility.yul\":9661:9680   */\n      mstore\n        /* \"#utility.yul\":9713:9717   */\n      0x20\n        /* \"#utility.yul\":9708:9711   */\n      dup3\n        /* \"#utility.yul\":9704:9718   */\n      add\n        /* \"#utility.yul\":9689:9718   */\n      swap1\n      pop\n        /* \"#utility.yul\":9540:9724   */\n      swap3\n      swap2\n      pop\n      pop\n      jump\t// out\n        /* \"#utility.yul\":9730:9862   */\n    tag_258:\n        /* \"#utility.yul\":9797:9801   */\n      0x00\n        /* \"#utility.yul\":9820:9823   */\n      dup2\n        /* \"#utility.yul\":9812:9823   */\n      swap1\n      pop\n        /* \"#utility.yul\":9850:9854   */\n      0x20\n        /* \"#utility.yul\":9845:9848   */\n      dup3\n        /* \"#utility.yul\":9841:9855   */\n      add\n        /* \"#utility.yul\":9833:9855   */\n      swap1\n      pop\n        /* \"#utility.yul\":9730:9862   */\n      swap2\n      swap1\n      pop\n      jump\t// out\n        /* \"#utility.yul\":9868:9976   */\n    tag_259:\n        /* \"#utility.yul\":9945:9969   */\n      tag_403\n        /* \"#utility.yul\":9963:9968   */\n      dup2\n        /* \"#utility.yul\":9945:9969   */\n      tag_236\n      jump\t// in\n    tag_403:\n        /* \"#utility.yul\":9940:9943   */\n      dup3\n        /* \"#utility.yul\":9933:9970   */\n      mstore\n        /* \"#utility.yul\":9868:9976   */\n      pop\n      pop\n      jump\t// out\n        /* \"#utility.yul\":9982:10161   */\n    tag_260:\n        /* \"#utility.yul\":10051:10061   */\n      0x00\n        /* \"#utility.yul\":10072:10118   */\n      tag_405\n        /* \"#utility.yul\":10114:10117   */\n      dup4\n        /* \"#utility.yul\":10106:10112   */\n      dup4\n        /* \"#utility.yul\":10072:10118   */\n      tag_259\n      jump\t// in\n    tag_405:\n        /* \"#utility.yul\":10150:10154   */\n      0x20\n        /* \"#utility.yul\":10145:10148   */\n      dup4\n        /* \"#utility.yul\":10141:10155   */\n      add\n        /* \"#utility.yul\":10127:10155   */\n      swap1\n      pop\n        /* \"#utility.yul\":9982:10161   */\n      swap3\n      swap2\n      pop\n      pop\n      jump\t// out\n        /* \"#utility.yul\":10167:10280   */\n    tag_261:\n        /* \"#utility.yul\":10237:10241   */\n      0x00\n        /* \"#utility.yul\":10269:10273   */\n      0x20\n        /* \"#utility.yul\":10264:10267   */\n      dup3\n        /* \"#utility.yul\":10260:10274   */\n      add\n        /* \"#utility.yul\":10252:10274   */\n      swap1\n      pop\n        /* \"#utility.yul\":10167:10280   */\n      swap2\n      swap1\n      pop\n      jump\t// out\n        /* \"#utility.yul\":10316:11048   */\n    tag_262:\n        /* \"#utility.yul\":10435:10438   */\n      0x00\n        /* \"#utility.yul\":10464:10518   */\n      tag_408\n        /* \"#utility.yul\":10512:10517   */\n      dup3\n        /* \"#utility.yul\":10464:10518   */\n      tag_256\n      jump\t// in\n    tag_408:\n        /* \"#utility.yul\":10534:10620   */\n      tag_409\n        /* \"#utility.yul\":10613:10619   */\n      dup2\n        /* \"#utility.yul\":10608:10611   */\n      dup6\n        /* \"#utility.yul\":10534:10620   */\n      tag_257\n      jump\t// in\n    tag_409:\n        /* \"#utility.yul\":10527:10620   */\n      swap4\n      pop\n        /* \"#utility.yul\":10644:10700   */\n      tag_410\n        /* \"#utility.yul\":10694:10699   */\n      dup4\n        /* \"#utility.yul\":10644:10700   */\n      tag_258\n      jump\t// in\n    tag_410:\n        /* \"#utility.yul\":10723:10730   */\n      dup1\n        /* \"#utility.yul\":10754:10755   */\n      0x00\n        /* \"#utility.yul\":10739:11023   */\n    tag_411:\n        /* \"#utility.yul\":10764:10770   */\n      dup4\n        /* \"#utility.yul\":10761:10762   */\n      dup2\n        /* \"#utility.yul\":10758:10771   */\n      lt\n        /* \"#utility.yul\":10739:11023   */\n      iszero\n      tag_413\n      jumpi\n        /* \"#utility.yul\":10840:10846   */\n      dup2\n        /* \"#utility.yul\":10834:10847   */\n      mload\n        /* \"#utility.yul\":10867:10930   */\n      tag_414\n        /* \"#utility.yul\":10926:10929   */\n      dup9\n        /* \"#utility.yul\":10911:10924   */\n      dup3\n        /* \"#utility.yul\":10867:10930   */\n      tag_260\n      jump\t// in\n    tag_414:\n        /* \"#utility.yul\":10860:10930   */\n      swap8\n      pop\n        /* \"#utility.yul\":10953:11013   */\n      tag_415\n        /* \"#utility.yul\":11006:11012   */\n      dup4\n        /* \"#utility.yul\":10953:11013   */\n      tag_261\n      jump\t// in\n    tag_415:\n        /* \"#utility.yul\":10943:11013   */\n      swap3\n      pop\n        /* \"#utility.yul\":10799:11023   */\n      pop\n        /* \"#utility.yul\":10786:10787   */\n      0x01\n        /* \"#utility.yul\":10783:10784   */\n      dup2\n        /* \"#utility.yul\":10779:10788   */\n      add\n        /* \"#utility.yul\":10774:10788   */\n      swap1\n      pop\n        /* \"#utility.yul\":10739:11023   */\n      jump(tag_411)\n    tag_413:\n        /* \"#utility.yul\":10743:10757   */\n      pop\n        /* \"#utility.yul\":11039:11042   */\n      dup6\n        /* \"#utility.yul\":11032:11042   */\n      swap4\n      pop\n        /* \"#utility.yul\":10440:11048   */\n      pop\n      pop\n      pop\n        /* \"#utility.yul\":10316:11048   */\n      swap3\n      swap2\n      pop\n      pop\n      jump\t// out\n        /* \"#utility.yul\":11054:11427   */\n    tag_44:\n        /* \"#utility.yul\":11197:11201   */\n      0x00\n        /* \"#utility.yul\":11235:11237   */\n      0x20\n        /* \"#utility.yul\":11224:11233   */\n      dup3\n        /* \"#utility.yul\":11220:11238   */\n      add\n        /* \"#utility.yul\":11212:11238   */\n      swap1\n      pop\n        /* \"#utility.yul\":11284:11293   */\n      dup2\n        /* \"#utility.yul\":11278:11282   */\n      dup2\n        /* \"#utility.yul\":11274:11294   */\n      sub\n        /* \"#utility.yul\":11270:11271   */\n      0x00\n        /* \"#utility.yul\":11259:11268   */\n      dup4\n        /* \"#utility.yul\":11255:11272   */\n      add\n        /* \"#utility.yul\":11248:11295   */\n      mstore\n        /* \"#utility.yul\":11312:11420   */\n      tag_417\n        /* \"#utility.yul\":11415:11419   */\n      dup2\n        /* \"#utility.yul\":11406:11412   */\n      dup5\n        /* \"#utility.yul\":11312:11420   */\n      tag_262\n      jump\t// in\n    tag_417:\n        /* \"#utility.yul\":11304:11420   */\n      swap1\n      pop\n        /* \"#utility.yul\":11054:11427   */\n      swap3\n      swap2\n      pop\n      pop\n      jump\t// out\n        /* \"#utility.yul\":11433:11549   */\n    tag_263:\n        /* \"#utility.yul\":11503:11524   */\n      tag_419\n        /* \"#utility.yul\":11518:11523   */\n      dup2\n        /* \"#utility.yul\":11503:11524   */\n      tag_243\n      jump\t// in\n    tag_419:\n        /* \"#utility.yul\":11496:11501   */\n      dup2\n        /* \"#utility.yul\":11493:11525   */\n      eq\n        /* \"#utility.yul\":11483:11543   */\n      tag_420\n      jumpi\n        /* \"#utility.yul\":11539:11540   */\n      0x00\n        /* \"#utility.yul\":11536:11537   */\n      dup1\n        /* \"#utility.yul\":11529:11541   */\n      revert\n        /* \"#utility.yul\":11483:11543   */\n    tag_420:\n        /* \"#utility.yul\":11433:11549   */\n      pop\n      jump\t// out\n        /* \"#utility.yul\":11555:11688   */\n    tag_264:\n        /* \"#utility.yul\":11598:11603   */\n      0x00\n        /* \"#utility.yul\":11636:11642   */\n      dup2\n        /* \"#utility.yul\":11623:11643   */\n      calldataload\n        /* \"#utility.yul\":11614:11643   */\n      swap1\n      pop\n        /* \"#utility.yul\":11652:11682   */\n      tag_422\n        /* \"#utility.yul\":11676:11681   */\n      dup2\n        /* \"#utility.yul\":11652:11682   */\n      tag_263\n      jump\t// in\n    tag_422:\n        /* \"#utility.yul\":11555:11688   */\n      swap3\n      swap2\n      pop\n      pop\n      jump\t// out\n        /* \"#utility.yul\":11694:12162   */\n    tag_50:\n        /* \"#utility.yul\":11759:11765   */\n      0x00\n        /* \"#utility.yul\":11767:11773   */\n      dup1\n        /* \"#utility.yul\":11816:11818   */\n      0x40\n        /* \"#utility.yul\":11804:11813   */\n      dup4\n        /* \"#utility.yul\":11795:11802   */\n      dup6\n        /* \"#utility.yul\":11791:11814   */\n      sub\n        /* \"#utility.yul\":11787:11819   */\n      slt\n        /* \"#utility.yul\":11784:11903   */\n      iszero\n      tag_424\n      jumpi\n        /* \"#utility.yul\":11822:11901   */\n      tag_425\n      tag_230\n      jump\t// in\n    tag_425:\n        /* \"#utility.yul\":11784:11903   */\n    tag_424:\n        /* \"#utility.yul\":11942:11943   */\n      0x00\n        /* \"#utility.yul\":11967:12020   */\n      tag_426\n        /* \"#utility.yul\":12012:12019   */\n      dup6\n        /* \"#utility.yul\":12003:12009   */\n      dup3\n        /* \"#utility.yul\":11992:12001   */\n      dup7\n        /* \"#utility.yul\":11988:12010   */\n      add\n        /* \"#utility.yul\":11967:12020   */\n      tag_235\n      jump\t// in\n    tag_426:\n        /* \"#utility.yul\":11957:12020   */\n      swap3\n      pop\n        /* \"#utility.yul\":11913:12030   */\n      pop\n        /* \"#utility.yul\":12069:12071   */\n      0x20\n        /* \"#utility.yul\":12095:12145   */\n      tag_427\n        /* \"#utility.yul\":12137:12144   */\n      dup6\n        /* \"#utility.yul\":12128:12134   */\n      dup3\n        /* \"#utility.yul\":12117:12126   */\n      dup7\n        /* \"#utility.yul\":12113:12135   */\n      add\n        /* \"#utility.yul\":12095:12145   */\n      tag_264\n      jump\t// in\n    tag_427:\n        /* \"#utility.yul\":12085:12145   */\n      swap2\n      pop\n        /* \"#utility.yul\":12040:12155   */\n      pop\n        /* \"#utility.yul\":11694:12162   */\n      swap3\n      pop\n      swap3\n      swap1\n      pop\n      jump\t// out\n        /* \"#utility.yul\":12168:12642   */\n    tag_54:\n        /* \"#utility.yul\":12236:12242   */\n      0x00\n        /* \"#utility.yul\":12244:12250   */\n      dup1\n        /* \"#utility.yul\":12293:12295   */\n      0x40\n        /* \"#utility.yul\":12281:12290   */\n      dup4\n        /* \"#utility.yul\":12272:12279   */\n      dup6\n        /* \"#utility.yul\":12268:12291   */\n      sub\n        /* \"#utility.yul\":12264:12296   */\n      slt\n        /* \"#utility.yul\":12261:12380   */\n      iszero\n      tag_429\n      jumpi\n        /* \"#utility.yul\":12299:12378   */\n      tag_430\n      tag_230\n      jump\t// in\n    tag_430:\n        /* \"#utility.yul\":12261:12380   */\n    tag_429:\n        /* \"#utility.yul\":12419:12420   */\n      0x00\n        /* \"#utility.yul\":12444:12497   */\n      tag_431\n        /* \"#utility.yul\":12489:12496   */\n      dup6\n        /* \"#utility.yul\":12480:12486   */\n      dup3\n        /* \"#utility.yul\":12469:12478   */\n      dup7\n        /* \"#utility.yul\":12465:12487   */\n      add\n        /* \"#utility.yul\":12444:12497   */\n      tag_235\n      jump\t// in\n    tag_431:\n        /* \"#utility.yul\":12434:12497   */\n      swap3\n      pop\n        /* \"#utility.yul\":12390:12507   */\n      pop\n        /* \"#utility.yul\":12546:12548   */\n      0x20\n        /* \"#utility.yul\":12572:12625   */\n      tag_432\n        /* \"#utility.yul\":12617:12624   */\n      dup6\n        /* \"#utility.yul\":12608:12614   */\n      dup3\n        /* \"#utility.yul\":12597:12606   */\n      dup7\n        /* \"#utility.yul\":12593:12615   */\n      add\n        /* \"#utility.yul\":12572:12625   */\n      tag_235\n      jump\t// in\n    tag_432:\n        /* \"#utility.yul\":12562:12625   */\n      swap2\n      pop\n        /* \"#utility.yul\":12517:12635   */\n      pop\n        /* \"#utility.yul\":12168:12642   */\n      swap3\n      pop\n      swap3\n      swap1\n      pop\n      jump\t// out\n        /* \"#utility.yul\":12648:13757   */\n    tag_59:\n        /* \"#utility.yul\":12754:12760   */\n      0x00\n        /* \"#utility.yul\":12762:12768   */\n      dup1\n        /* \"#utility.yul\":12770:12776   */\n      0x00\n        /* \"#utility.yul\":12778:12784   */\n      dup1\n        /* \"#utility.yul\":12786:12792   */\n      0x00\n        /* \"#utility.yul\":12794:12800   */\n      dup1\n        /* \"#utility.yul\":12843:12846   */\n      0xa0\n        /* \"#utility.yul\":12831:12840   */\n      dup8\n        /* \"#utility.yul\":12822:12829   */\n      dup10\n        /* \"#utility.yul\":12818:12841   */\n      sub\n        /* \"#utility.yul\":12814:12847   */\n      slt\n        /* \"#utility.yul\":12811:12931   */\n      iszero\n      tag_434\n      jumpi\n        /* \"#utility.yul\":12850:12929   */\n      tag_435\n      tag_230\n      jump\t// in\n    tag_435:\n        /* \"#utility.yul\":12811:12931   */\n    tag_434:\n        /* \"#utility.yul\":12970:12971   */\n      0x00\n        /* \"#utility.yul\":12995:13048   */\n      tag_436\n        /* \"#utility.yul\":13040:13047   */\n      dup10\n        /* \"#utility.yul\":13031:13037   */\n      dup3\n        /* \"#utility.yul\":13020:13029   */\n      dup11\n        /* \"#utility.yul\":13016:13038   */\n      add\n        /* \"#utility.yul\":12995:13048   */\n      tag_235\n      jump\t// in\n    tag_436:\n        /* \"#utility.yul\":12985:13048   */\n      swap7\n      pop\n        /* \"#utility.yul\":12941:13058   */\n      pop\n        /* \"#utility.yul\":13097:13099   */\n      0x20\n        /* \"#utility.yul\":13123:13176   */\n      tag_437\n        /* \"#utility.yul\":13168:13175   */\n      dup10\n        /* \"#utility.yul\":13159:13165   */\n      dup3\n        /* \"#utility.yul\":13148:13157   */\n      dup11\n        /* \"#utility.yul\":13144:13166   */\n      add\n        /* \"#utility.yul\":13123:13176   */\n      tag_235\n      jump\t// in\n    tag_437:\n        /* \"#utility.yul\":13113:13176   */\n      swap6\n      pop\n        /* \"#utility.yul\":13068:13186   */\n      pop\n        /* \"#utility.yul\":13225:13227   */\n      0x40\n        /* \"#utility.yul\":13251:13304   */\n      tag_438\n        /* \"#utility.yul\":13296:13303   */\n      dup10\n        /* \"#utility.yul\":13287:13293   */\n      dup3\n        /* \"#utility.yul\":13276:13285   */\n      dup11\n        /* \"#utility.yul\":13272:13294   */\n      add\n        /* \"#utility.yul\":13251:13304   */\n      tag_238\n      jump\t// in\n    tag_438:\n        /* \"#utility.yul\":13241:13304   */\n      swap5\n      pop\n        /* \"#utility.yul\":13196:13314   */\n      pop\n        /* \"#utility.yul\":13353:13355   */\n      0x60\n        /* \"#utility.yul\":13379:13432   */\n      tag_439\n        /* \"#utility.yul\":13424:13431   */\n      dup10\n        /* \"#utility.yul\":13415:13421   */\n      dup3\n        /* \"#utility.yul\":13404:13413   */\n      dup11\n        /* \"#utility.yul\":13400:13422   */\n      add\n        /* \"#utility.yul\":13379:13432   */\n      tag_238\n      jump\t// in\n    tag_439:\n        /* \"#utility.yul\":13369:13432   */\n      swap4\n      pop\n        /* \"#utility.yul\":13324:13442   */\n      pop\n        /* \"#utility.yul\":13509:13512   */\n      0x80\n        /* \"#utility.yul\":13498:13507   */\n      dup8\n        /* \"#utility.yul\":13494:13513   */\n      add\n        /* \"#utility.yul\":13481:13514   */\n      calldataload\n        /* \"#utility.yul\":13541:13559   */\n      0xffffffffffffffff\n        /* \"#utility.yul\":13533:13539   */\n      dup2\n        /* \"#utility.yul\":13530:13560   */\n      gt\n        /* \"#utility.yul\":13527:13644   */\n      iszero\n      tag_440\n      jumpi\n        /* \"#utility.yul\":13563:13642   */\n      tag_441\n      tag_231\n      jump\t// in\n    tag_441:\n        /* \"#utility.yul\":13527:13644   */\n    tag_440:\n        /* \"#utility.yul\":13676:13740   */\n      tag_442\n        /* \"#utility.yul\":13732:13739   */\n      dup10\n        /* \"#utility.yul\":13723:13729   */\n      dup3\n        /* \"#utility.yul\":13712:13721   */\n      dup11\n        /* \"#utility.yul\":13708:13730   */\n      add\n        /* \"#utility.yul\":13676:13740   */\n      tag_254\n      jump\t// in\n    tag_442:\n        /* \"#utility.yul\":13658:13740   */\n      swap3\n      pop\n      swap3\n      pop\n        /* \"#utility.yul\":13452:13750   */\n      pop\n        /* \"#utility.yul\":12648:13757   */\n      swap3\n      swap6\n      pop\n      swap3\n      swap6\n      pop\n      swap3\n      swap6\n      jump\t// out\n        /* \"#utility.yul\":13763:13943   */\n    tag_265:\n        /* \"#utility.yul\":13811:13888   */\n      0x4e487b7100000000000000000000000000000000000000000000000000000000\n        /* \"#utility.yul\":13808:13809   */\n      0x00\n        /* \"#utility.yul\":13801:13889   */\n      mstore\n        /* \"#utility.yul\":13908:13912   */\n      0x22\n        /* \"#utility.yul\":13905:13906   */\n      0x04\n        /* \"#utility.yul\":13898:13913   */\n      mstore\n        /* \"#utility.yul\":13932:13936   */\n      0x24\n        /* \"#utility.yul\":13929:13930   */\n      0x00\n        /* \"#utility.yul\":13922:13937   */\n      revert\n        /* \"#utility.yul\":13949:14269   */\n    tag_66:\n        /* \"#utility.yul\":13993:13999   */\n      0x00\n        /* \"#utility.yul\":14030:14031   */\n      0x02\n        /* \"#utility.yul\":14024:14028   */\n      dup3\n        /* \"#utility.yul\":14020:14032   */\n      div\n        /* \"#utility.yul\":14010:14032   */\n      swap1\n      pop\n        /* \"#utility.yul\":14077:14078   */\n      0x01\n        /* \"#utility.yul\":14071:14075   */\n      dup3\n        /* \"#utility.yul\":14067:14079   */\n      and\n        /* \"#utility.yul\":14098:14116   */\n      dup1\n        /* \"#utility.yul\":14088:14169   */\n      tag_445\n      jumpi\n        /* \"#utility.yul\":14154:14158   */\n      0x7f\n        /* \"#utility.yul\":14146:14152   */\n      dup3\n        /* \"#utility.yul\":14142:14159   */\n      and\n        /* \"#utility.yul\":14132:14159   */\n      swap2\n      pop\n        /* \"#utility.yul\":14088:14169   */\n    tag_445:\n        /* \"#utility.yul\":14216:14218   */\n      0x20\n        /* \"#utility.yul\":14208:14214   */\n      dup3\n        /* \"#utility.yul\":14205:14219   */\n      lt\n        /* \"#utility.yul\":14185:14203   */\n      dup2\n        /* \"#utility.yul\":14182:14220   */\n      sub\n        /* \"#utility.yul\":14179:14263   */\n      tag_446\n      jumpi\n        /* \"#utility.yul\":14235:14253   */\n      tag_447\n      tag_265\n      jump\t// in\n    tag_447:\n        /* \"#utility.yul\":14179:14263   */\n    tag_446:\n        /* \"#utility.yul\":14000:14269   */\n      pop\n        /* \"#utility.yul\":13949:14269   */\n      swap2\n      swap1\n      pop\n      jump\t// out\n        /* \"#utility.yul\":14275:14423   */\n    tag_266:\n        /* \"#utility.yul\":14377:14388   */\n      0x00\n        /* \"#utility.yul\":14414:14417   */\n      dup2\n        /* \"#utility.yul\":14399:14417   */\n      swap1\n      pop\n        /* \"#utility.yul\":14275:14423   */\n      swap3\n      swap2\n      pop\n      pop\n      jump\t// out\n        /* \"#utility.yul\":14429:14819   */\n    tag_267:\n        /* \"#utility.yul\":14535:14538   */\n      0x00\n        /* \"#utility.yul\":14563:14602   */\n      tag_450\n        /* \"#utility.yul\":14596:14601   */\n      dup3\n        /* \"#utility.yul\":14563:14602   */\n      tag_245\n      jump\t// in\n    tag_450:\n        /* \"#utility.yul\":14618:14707   */\n      tag_451\n        /* \"#utility.yul\":14700:14706   */\n      dup2\n        /* \"#utility.yul\":14695:14698   */\n      dup6\n        /* \"#utility.yul\":14618:14707   */\n      tag_266\n      jump\t// in\n    tag_451:\n        /* \"#utility.yul\":14611:14707   */\n      swap4\n      pop\n        /* \"#utility.yul\":14716:14781   */\n      tag_452\n        /* \"#utility.yul\":14774:14780   */\n      dup2\n        /* \"#utility.yul\":14769:14772   */\n      dup6\n        /* \"#utility.yul\":14762:14766   */\n      0x20\n        /* \"#utility.yul\":14755:14760   */\n      dup7\n        /* \"#utility.yul\":14751:14767   */\n      add\n        /* \"#utility.yul\":14716:14781   */\n      tag_247\n      jump\t// in\n    tag_452:\n        /* \"#utility.yul\":14806:14812   */\n      dup1\n        /* \"#utility.yul\":14801:14804   */\n      dup5\n        /* \"#utility.yul\":14797:14813   */\n      add\n        /* \"#utility.yul\":14790:14813   */\n      swap2\n      pop\n        /* \"#utility.yul\":14539:14819   */\n      pop\n        /* \"#utility.yul\":14429:14819   */\n      swap3\n      swap2\n      pop\n      pop\n      jump\t// out\n        /* \"#utility.yul\":14825:15260   */\n    tag_79:\n        /* \"#utility.yul\":15005:15008   */\n      0x00\n        /* \"#utility.yul\":15027:15122   */\n      tag_454\n        /* \"#utility.yul\":15118:15121   */\n      dup3\n        /* \"#utility.yul\":15109:15115   */\n      dup6\n        /* \"#utility.yul\":15027:15122   */\n      tag_267\n      jump\t// in\n    tag_454:\n        /* \"#utility.yul\":15020:15122   */\n      swap2\n      pop\n        /* \"#utility.yul\":15139:15234   */\n      tag_455\n        /* \"#utility.yul\":15230:15233   */\n      dup3\n        /* \"#utility.yul\":15221:15227   */\n      dup5\n        /* \"#utility.yul\":15139:15234   */\n      tag_267\n      jump\t// in\n    tag_455:\n        /* \"#utility.yul\":15132:15234   */\n      swap2\n      pop\n        /* \"#utility.yul\":15251:15254   */\n      dup2\n        /* \"#utility.yul\":15244:15254   */\n      swap1\n      pop\n        /* \"#utility.yul\":14825:15260   */\n      swap4\n      swap3\n      pop\n      pop\n      pop\n      jump\t// out\n        /* \"#utility.yul\":15266:15430   */\n    tag_268:\n        /* \"#utility.yul\":15406:15422   */\n      0x4163636573732064656e6965642e000000000000000000000000000000000000\n        /* \"#utility.yul\":15402:15403   */\n      0x00\n        /* \"#utility.yul\":15394:15400   */\n      dup3\n        /* \"#utility.yul\":15390:15404   */\n      add\n        /* \"#utility.yul\":15383:15423   */\n      mstore\n        /* \"#utility.yul\":15266:15430   */\n      pop\n      jump\t// out\n        /* \"#utility.yul\":15436:15802   */\n    tag_269:\n        /* \"#utility.yul\":15578:15581   */\n      0x00\n        /* \"#utility.yul\":15599:15666   */\n      tag_458\n        /* \"#utility.yul\":15663:15665   */\n      0x0e\n        /* \"#utility.yul\":15658:15661   */\n      dup4\n        /* \"#utility.yul\":15599:15666   */\n      tag_246\n      jump\t// in\n    tag_458:\n        /* \"#utility.yul\":15592:15666   */\n      swap2\n      pop\n        /* \"#utility.yul\":15675:15768   */\n      tag_459\n        /* \"#utility.yul\":15764:15767   */\n      dup3\n        /* \"#utility.yul\":15675:15768   */\n      tag_268\n      jump\t// in\n    tag_459:\n        /* \"#utility.yul\":15793:15795   */\n      0x20\n        /* \"#utility.yul\":15788:15791   */\n      dup3\n        /* \"#utility.yul\":15784:15796   */\n      add\n        /* \"#utility.yul\":15777:15796   */\n      swap1\n      pop\n        /* \"#utility.yul\":15436:15802   */\n      swap2\n      swap1\n      pop\n      jump\t// out\n        /* \"#utility.yul\":15808:16227   */\n    tag_85:\n        /* \"#utility.yul\":15974:15978   */\n      0x00\n        /* \"#utility.yul\":16012:16014   */\n      0x20\n        /* \"#utility.yul\":16001:16010   */\n      dup3\n        /* \"#utility.yul\":15997:16015   */\n      add\n        /* \"#utility.yul\":15989:16015   */\n      swap1\n      pop\n        /* \"#utility.yul\":16061:16070   */\n      dup2\n        /* \"#utility.yul\":16055:16059   */\n      dup2\n        /* \"#utility.yul\":16051:16071   */\n      sub\n        /* \"#utility.yul\":16047:16048   */\n      0x00\n        /* \"#utility.yul\":16036:16045   */\n      dup4\n        /* \"#utility.yul\":16032:16049   */\n      add\n        /* \"#utility.yul\":16025:16072   */\n      mstore\n        /* \"#utility.yul\":16089:16220   */\n      tag_461\n        /* \"#utility.yul\":16215:16219   */\n      dup2\n        /* \"#utility.yul\":16089:16220   */\n      tag_269\n      jump\t// in\n    tag_461:\n        /* \"#utility.yul\":16081:16220   */\n      swap1\n      pop\n        /* \"#utility.yul\":15808:16227   */\n      swap2\n      swap1\n      pop\n      jump\t// out\n        /* \"#utility.yul\":16233:16409   */\n    tag_270:\n        /* \"#utility.yul\":16373:16401   */\n      0x60746f602063616e2774206265207a65726f2061646472657373000000000000\n        /* \"#utility.yul\":16369:16370   */\n      0x00\n        /* \"#utility.yul\":16361:16367   */\n      dup3\n        /* \"#utility.yul\":16357:16371   */\n      add\n        /* \"#utility.yul\":16350:16402   */\n      mstore\n        /* \"#utility.yul\":16233:16409   */\n      pop\n      jump\t// out\n        /* \"#utility.yul\":16415:16781   */\n    tag_271:\n        /* \"#utility.yul\":16557:16560   */\n      0x00\n        /* \"#utility.yul\":16578:16645   */\n      tag_464\n        /* \"#utility.yul\":16642:16644   */\n      0x1a\n        /* \"#utility.yul\":16637:16640   */\n      dup4\n        /* \"#utility.yul\":16578:16645   */\n      tag_246\n      jump\t// in\n    tag_464:\n        /* \"#utility.yul\":16571:16645   */\n      swap2\n      pop\n        /* \"#utility.yul\":16654:16747   */\n      tag_465\n        /* \"#utility.yul\":16743:16746   */\n      dup3\n        /* \"#utility.yul\":16654:16747   */\n      tag_270\n      jump\t// in\n    tag_465:\n        /* \"#utility.yul\":16772:16774   */\n      0x20\n        /* \"#utility.yul\":16767:16770   */\n      dup3\n        /* \"#utility.yul\":16763:16775   */\n      add\n        /* \"#utility.yul\":16756:16775   */\n      swap1\n      pop\n        /* \"#utility.yul\":16415:16781   */\n      swap2\n      swap1\n      pop\n      jump\t// out\n        /* \"#utility.yul\":16787:17206   */\n    tag_88:\n        /* \"#utility.yul\":16953:16957   */\n      0x00\n        /* \"#utility.yul\":16991:16993   */\n      0x20\n        /* \"#utility.yul\":16980:16989   */\n      dup3\n        /* \"#utility.yul\":16976:16994   */\n      add\n        /* \"#utility.yul\":16968:16994   */\n      swap1\n      pop\n        /* \"#utility.yul\":17040:17049   */\n      dup2\n        /* \"#utility.yul\":17034:17038   */\n      dup2\n        /* \"#utility.yul\":17030:17050   */\n      sub\n        /* \"#utility.yul\":17026:17027   */\n      0x00\n        /* \"#utility.yul\":17015:17024   */\n      dup4\n        /* \"#utility.yul\":17011:17028   */\n      add\n        /* \"#utility.yul\":17004:17051   */\n      mstore\n        /* \"#utility.yul\":17068:17199   */\n      tag_467\n        /* \"#utility.yul\":17194:17198   */\n      dup2\n        /* \"#utility.yul\":17068:17199   */\n      tag_271\n      jump\t// in\n    tag_467:\n        /* \"#utility.yul\":17060:17199   */\n      swap1\n      pop\n        /* \"#utility.yul\":16787:17206   */\n      swap2\n      swap1\n      pop\n      jump\t// out\n        /* \"#utility.yul\":17212:17453   */\n    tag_272:\n        /* \"#utility.yul\":17352:17386   */\n      0x455243313135352c20746865206c656e677468206f66206163636f756e747320\n        /* \"#utility.yul\":17348:17349   */\n      0x00\n        /* \"#utility.yul\":17340:17346   */\n      dup3\n        /* \"#utility.yul\":17336:17350   */\n      add\n        /* \"#utility.yul\":17329:17387   */\n      mstore\n        /* \"#utility.yul\":17421:17445   */\n      0x616e6420696473206973206e6f7420657175616c732e00000000000000000000\n        /* \"#utility.yul\":17416:17418   */\n      0x20\n        /* \"#utility.yul\":17408:17414   */\n      dup3\n        /* \"#utility.yul\":17404:17419   */\n      add\n        /* \"#utility.yul\":17397:17446   */\n      mstore\n        /* \"#utility.yul\":17212:17453   */\n      pop\n      jump\t// out\n        /* \"#utility.yul\":17459:17825   */\n    tag_273:\n        /* \"#utility.yul\":17601:17604   */\n      0x00\n        /* \"#utility.yul\":17622:17689   */\n      tag_470\n        /* \"#utility.yul\":17686:17688   */\n      0x36\n        /* \"#utility.yul\":17681:17684   */\n      dup4\n        /* \"#utility.yul\":17622:17689   */\n      tag_246\n      jump\t// in\n    tag_470:\n        /* \"#utility.yul\":17615:17689   */\n      swap2\n      pop\n        /* \"#utility.yul\":17698:17791   */\n      tag_471\n        /* \"#utility.yul\":17787:17790   */\n      dup3\n        /* \"#utility.yul\":17698:17791   */\n      tag_272\n      jump\t// in\n    tag_471:\n        /* \"#utility.yul\":17816:17818   */\n      0x40\n        /* \"#utility.yul\":17811:17814   */\n      dup3\n        /* \"#utility.yul\":17807:17819   */\n      add\n        /* \"#utility.yul\":17800:17819   */\n      swap1\n      pop\n        /* \"#utility.yul\":17459:17825   */\n      swap2\n      swap1\n      pop\n      jump\t// out\n        /* \"#utility.yul\":17831:18250   */\n    tag_96:\n        /* \"#utility.yul\":17997:18001   */\n      0x00\n        /* \"#utility.yul\":18035:18037   */\n      0x20\n        /* \"#utility.yul\":18024:18033   */\n      dup3\n        /* \"#utility.yul\":18020:18038   */\n      add\n        /* \"#utility.yul\":18012:18038   */\n      swap1\n      pop\n        /* \"#utility.yul\":18084:18093   */\n      dup2\n        /* \"#utility.yul\":18078:18082   */\n      dup2\n        /* \"#utility.yul\":18074:18094   */\n      sub\n        /* \"#utility.yul\":18070:18071   */\n      0x00\n        /* \"#utility.yul\":18059:18068   */\n      dup4\n        /* \"#utility.yul\":18055:18072   */\n      add\n        /* \"#utility.yul\":18048:18095   */\n      mstore\n        /* \"#utility.yul\":18112:18243   */\n      tag_473\n        /* \"#utility.yul\":18238:18242   */\n      dup2\n        /* \"#utility.yul\":18112:18243   */\n      tag_273\n      jump\t// in\n    tag_473:\n        /* \"#utility.yul\":18104:18243   */\n      swap1\n      pop\n        /* \"#utility.yul\":17831:18250   */\n      swap2\n      swap1\n      pop\n      jump\t// out\n        /* \"#utility.yul\":18256:18436   */\n    tag_99:\n        /* \"#utility.yul\":18304:18381   */\n      0x4e487b7100000000000000000000000000000000000000000000000000000000\n        /* \"#utility.yul\":18301:18302   */\n      0x00\n        /* \"#utility.yul\":18294:18382   */\n      mstore\n        /* \"#utility.yul\":18401:18405   */\n      0x41\n        /* \"#utility.yul\":18398:18399   */\n      0x04\n        /* \"#utility.yul\":18391:18406   */\n      mstore\n        /* \"#utility.yul\":18425:18429   */\n      0x24\n        /* \"#utility.yul\":18422:18423   */\n      0x00\n        /* \"#utility.yul\":18415:18430   */\n      revert\n        /* \"#utility.yul\":18442:18622   */\n    tag_107:\n        /* \"#utility.yul\":18490:18567   */\n      0x4e487b7100000000000000000000000000000000000000000000000000000000\n        /* \"#utility.yul\":18487:18488   */\n      0x00\n        /* \"#utility.yul\":18480:18568   */\n      mstore\n        /* \"#utility.yul\":18587:18591   */\n      0x32\n        /* \"#utility.yul\":18584:18585   */\n      0x04\n        /* \"#utility.yul\":18577:18592   */\n      mstore\n        /* \"#utility.yul\":18611:18615   */\n      0x24\n        /* \"#utility.yul\":18608:18609   */\n      0x00\n        /* \"#utility.yul\":18601:18616   */\n      revert\n        /* \"#utility.yul\":18628:18957   */\n    tag_109:\n        /* \"#utility.yul\":18687:18693   */\n      0x00\n        /* \"#utility.yul\":18736:18738   */\n      0x20\n        /* \"#utility.yul\":18724:18733   */\n      dup3\n        /* \"#utility.yul\":18715:18722   */\n      dup5\n        /* \"#utility.yul\":18711:18734   */\n      sub\n        /* \"#utility.yul\":18707:18739   */\n      slt\n        /* \"#utility.yul\":18704:18823   */\n      iszero\n      tag_477\n      jumpi\n        /* \"#utility.yul\":18742:18821   */\n      tag_478\n      tag_230\n      jump\t// in\n    tag_478:\n        /* \"#utility.yul\":18704:18823   */\n    tag_477:\n        /* \"#utility.yul\":18862:18863   */\n      0x00\n        /* \"#utility.yul\":18887:18940   */\n      tag_479\n        /* \"#utility.yul\":18932:18939   */\n      dup5\n        /* \"#utility.yul\":18923:18929   */\n      dup3\n        /* \"#utility.yul\":18912:18921   */\n      dup6\n        /* \"#utility.yul\":18908:18930   */\n      add\n        /* \"#utility.yul\":18887:18940   */\n      tag_235\n      jump\t// in\n    tag_479:\n        /* \"#utility.yul\":18877:18940   */\n      swap2\n      pop\n        /* \"#utility.yul\":18833:18950   */\n      pop\n        /* \"#utility.yul\":18628:18957   */\n      swap3\n      swap2\n      pop\n      pop\n      jump\t// out\n        /* \"#utility.yul\":18963:19140   */\n    tag_274:\n        /* \"#utility.yul\":19103:19132   */\n      0x446f6e277420617070726f76616c20746f20796f757273656c662e0000000000\n        /* \"#utility.yul\":19099:19100   */\n      0x00\n        /* \"#utility.yul\":19091:19097   */\n      dup3\n        /* \"#utility.yul\":19087:19101   */\n      add\n        /* \"#utility.yul\":19080:19133   */\n      mstore\n        /* \"#utility.yul\":18963:19140   */\n      pop\n      jump\t// out\n        /* \"#utility.yul\":19146:19512   */\n    tag_275:\n        /* \"#utility.yul\":19288:19291   */\n      0x00\n        /* \"#utility.yul\":19309:19376   */\n      tag_482\n        /* \"#utility.yul\":19373:19375   */\n      0x1b\n        /* \"#utility.yul\":19368:19371   */\n      dup4\n        /* \"#utility.yul\":19309:19376   */\n      tag_246\n      jump\t// in\n    tag_482:\n        /* \"#utility.yul\":19302:19376   */\n      swap2\n      pop\n        /* \"#utility.yul\":19385:19478   */\n      tag_483\n        /* \"#utility.yul\":19474:19477   */\n      dup3\n        /* \"#utility.yul\":19385:19478   */\n      tag_274\n      jump\t// in\n    tag_483:\n        /* \"#utility.yul\":19503:19505   */\n      0x20\n        /* \"#utility.yul\":19498:19501   */\n      dup3\n        /* \"#utility.yul\":19494:19506   */\n      add\n        /* \"#utility.yul\":19487:19506   */\n      swap1\n      pop\n        /* \"#utility.yul\":19146:19512   */\n      swap2\n      swap1\n      pop\n      jump\t// out\n        /* \"#utility.yul\":19518:19937   */\n    tag_122:\n        /* \"#utility.yul\":19684:19688   */\n      0x00\n        /* \"#utility.yul\":19722:19724   */\n      0x20\n        /* \"#utility.yul\":19711:19720   */\n      dup3\n        /* \"#utility.yul\":19707:19725   */\n      add\n        /* \"#utility.yul\":19699:19725   */\n      swap1\n      pop\n        /* \"#utility.yul\":19771:19780   */\n      dup2\n        /* \"#utility.yul\":19765:19769   */\n      dup2\n        /* \"#utility.yul\":19761:19781   */\n      sub\n        /* \"#utility.yul\":19757:19758   */\n      0x00\n        /* \"#utility.yul\":19746:19755   */\n      dup4\n        /* \"#utility.yul\":19742:19759   */\n      add\n        /* \"#utility.yul\":19735:19782   */\n      mstore\n        /* \"#utility.yul\":19799:19930   */\n      tag_485\n        /* \"#utility.yul\":19925:19929   */\n      dup2\n        /* \"#utility.yul\":19799:19930   */\n      tag_275\n      jump\t// in\n    tag_485:\n        /* \"#utility.yul\":19791:19930   */\n      swap1\n      pop\n        /* \"#utility.yul\":19518:19937   */\n      swap2\n      swap1\n      pop\n      jump\t// out\n        /* \"#utility.yul\":19943:20123   */\n    tag_276:\n        /* \"#utility.yul\":19991:20068   */\n      0x4e487b7100000000000000000000000000000000000000000000000000000000\n        /* \"#utility.yul\":19988:19989   */\n      0x00\n        /* \"#utility.yul\":19981:20069   */\n      mstore\n        /* \"#utility.yul\":20088:20092   */\n      0x11\n        /* \"#utility.yul\":20085:20086   */\n      0x04\n        /* \"#utility.yul\":20078:20093   */\n      mstore\n        /* \"#utility.yul\":20112:20116   */\n      0x24\n        /* \"#utility.yul\":20109:20110   */\n      0x00\n        /* \"#utility.yul\":20102:20117   */\n      revert\n        /* \"#utility.yul\":20129:20362   */\n    tag_143:\n        /* \"#utility.yul\":20168:20171   */\n      0x00\n        /* \"#utility.yul\":20191:20215   */\n      tag_488\n        /* \"#utility.yul\":20209:20214   */\n      dup3\n        /* \"#utility.yul\":20191:20215   */\n      tag_236\n      jump\t// in\n    tag_488:\n        /* \"#utility.yul\":20182:20215   */\n      swap2\n      pop\n        /* \"#utility.yul\":20237:20303   */\n      0xffffffffffffffffffffffffffffffffffffffffffffffffffffffffffffffff\n        /* \"#utility.yul\":20230:20235   */\n      dup3\n        /* \"#utility.yul\":20227:20304   */\n      sub\n        /* \"#utility.yul\":20224:20327   */\n      tag_489\n      jumpi\n        /* \"#utility.yul\":20307:20325   */\n      tag_490\n      tag_276\n      jump\t// in\n    tag_490:\n        /* \"#utility.yul\":20224:20327   */\n    tag_489:\n        /* \"#utility.yul\":20354:20355   */\n      0x01\n        /* \"#utility.yul\":20347:20352   */\n      dup3\n        /* \"#utility.yul\":20343:20356   */\n      add\n        /* \"#utility.yul\":20336:20356   */\n      swap1\n      pop\n        /* \"#utility.yul\":20129:20362   */\n      swap2\n      swap1\n      pop\n      jump\t// out\n        /* \"#utility.yul\":20368:20548   */\n    tag_277:\n        /* \"#utility.yul\":20416:20493   */\n      0x4e487b7100000000000000000000000000000000000000000000000000000000\n        /* \"#utility.yul\":20413:20414   */\n      0x00\n        /* \"#utility.yul\":20406:20494   */\n      mstore\n        /* \"#utility.yul\":20513:20517   */\n      0x12\n        /* \"#utility.yul\":20510:20511   */\n      0x04\n        /* \"#utility.yul\":20503:20518   */\n      mstore\n        /* \"#utility.yul\":20537:20541   */\n      0x24\n        /* \"#utility.yul\":20534:20535   */\n      0x00\n        /* \"#utility.yul\":20527:20542   */\n      revert\n        /* \"#utility.yul\":20554:20739   */\n    tag_145:\n        /* \"#utility.yul\":20594:20595   */\n      0x00\n        /* \"#utility.yul\":20611:20631   */\n      tag_493\n        /* \"#utility.yul\":20629:20630   */\n      dup3\n        /* \"#utility.yul\":20611:20631   */\n      tag_236\n      jump\t// in\n    tag_493:\n        /* \"#utility.yul\":20606:20631   */\n      swap2\n      pop\n        /* \"#utility.yul\":20645:20665   */\n      tag_494\n        /* \"#utility.yul\":20663:20664   */\n      dup4\n        /* \"#utility.yul\":20645:20665   */\n      tag_236\n      jump\t// in\n    tag_494:\n        /* \"#utility.yul\":20640:20665   */\n      swap3\n      pop\n        /* \"#utility.yul\":20684:20685   */\n      dup3\n        /* \"#utility.yul\":20674:20709   */\n      tag_495\n      jumpi\n        /* \"#utility.yul\":20689:20707   */\n      tag_496\n      tag_277\n      jump\t// in\n    tag_496:\n        /* \"#utility.yul\":20674:20709   */\n    tag_495:\n        /* \"#utility.yul\":20731:20732   */\n      dup3\n        /* \"#utility.yul\":20728:20729   */\n      dup3\n        /* \"#utility.yul\":20724:20733   */\n      div\n        /* \"#utility.yul\":20719:20733   */\n      swap1\n      pop\n        /* \"#utility.yul\":20554:20739   */\n      swap3\n      swap2\n      pop\n      pop\n      jump\t// out\n        /* \"#utility.yul\":20745:20939   */\n    tag_152:\n        /* \"#utility.yul\":20785:20789   */\n      0x00\n        /* \"#utility.yul\":20805:20825   */\n      tag_498\n        /* \"#utility.yul\":20823:20824   */\n      dup3\n        /* \"#utility.yul\":20805:20825   */\n      tag_236\n      jump\t// in\n    tag_498:\n        /* \"#utility.yul\":20800:20825   */\n      swap2\n      pop\n        /* \"#utility.yul\":20839:20859   */\n      tag_499\n        /* \"#utility.yul\":20857:20858   */\n      dup4\n        /* \"#utility.yul\":20839:20859   */\n      tag_236\n      jump\t// in\n    tag_499:\n        /* \"#utility.yul\":20834:20859   */\n      swap3\n      pop\n        /* \"#utility.yul\":20883:20884   */\n      dup3\n        /* \"#utility.yul\":20880:20881   */\n      dup3\n        /* \"#utility.yul\":20876:20885   */\n      sub\n        /* \"#utility.yul\":20868:20885   */\n      swap1\n      pop\n        /* \"#utility.yul\":20907:20908   */\n      dup2\n        /* \"#utility.yul\":20901:20905   */\n      dup2\n        /* \"#utility.yul\":20898:20909   */\n      gt\n        /* \"#utility.yul\":20895:20932   */\n      iszero\n      tag_500\n      jumpi\n        /* \"#utility.yul\":20912:20930   */\n      tag_501\n      tag_276\n      jump\t// in\n    tag_501:\n        /* \"#utility.yul\":20895:20932   */\n    tag_500:\n        /* \"#utility.yul\":20745:20939   */\n      swap3\n      swap2\n      pop\n      pop\n      jump\t// out\n        /* \"#utility.yul\":20945:21121   */\n    tag_154:\n        /* \"#utility.yul\":20977:20978   */\n      0x00\n        /* \"#utility.yul\":20994:21014   */\n      tag_503\n        /* \"#utility.yul\":21012:21013   */\n      dup3\n        /* \"#utility.yul\":20994:21014   */\n      tag_236\n      jump\t// in\n    tag_503:\n        /* \"#utility.yul\":20989:21014   */\n      swap2\n      pop\n        /* \"#utility.yul\":21028:21048   */\n      tag_504\n        /* \"#utility.yul\":21046:21047   */\n      dup4\n        /* \"#utility.yul\":21028:21048   */\n      tag_236\n      jump\t// in\n    tag_504:\n        /* \"#utility.yul\":21023:21048   */\n      swap3\n      pop\n        /* \"#utility.yul\":21067:21068   */\n      dup3\n        /* \"#utility.yul\":21057:21092   */\n      tag_505\n      jumpi\n        /* \"#utility.yul\":21072:21090   */\n      tag_506\n      tag_277\n      jump\t// in\n    tag_506:\n        /* \"#utility.yul\":21057:21092   */\n    tag_505:\n        /* \"#utility.yul\":21113:21114   */\n      dup3\n        /* \"#utility.yul\":21110:21111   */\n      dup3\n        /* \"#utility.yul\":21106:21115   */\n      mod\n        /* \"#utility.yul\":21101:21115   */\n      swap1\n      pop\n        /* \"#utility.yul\":20945:21121   */\n      swap3\n      swap2\n      pop\n      pop\n      jump\t// out\n        /* \"#utility.yul\":21127:21318   */\n    tag_156:\n        /* \"#utility.yul\":21167:21170   */\n      0x00\n        /* \"#utility.yul\":21186:21206   */\n      tag_508\n        /* \"#utility.yul\":21204:21205   */\n      dup3\n        /* \"#utility.yul\":21186:21206   */\n      tag_236\n      jump\t// in\n    tag_508:\n        /* \"#utility.yul\":21181:21206   */\n      swap2\n      pop\n        /* \"#utility.yul\":21220:21240   */\n      tag_509\n        /* \"#utility.yul\":21238:21239   */\n      dup4\n        /* \"#utility.yul\":21220:21240   */\n      tag_236\n      jump\t// in\n    tag_509:\n        /* \"#utility.yul\":21215:21240   */\n      swap3\n      pop\n        /* \"#utility.yul\":21263:21264   */\n      dup3\n        /* \"#utility.yul\":21260:21261   */\n      dup3\n        /* \"#utility.yul\":21256:21265   */\n      add\n        /* \"#utility.yul\":21249:21265   */\n      swap1\n      pop\n        /* \"#utility.yul\":21284:21287   */\n      dup1\n        /* \"#utility.yul\":21281:21282   */\n      dup3\n        /* \"#utility.yul\":21278:21288   */\n      gt\n        /* \"#utility.yul\":21275:21311   */\n      iszero\n      tag_510\n      jumpi\n        /* \"#utility.yul\":21291:21309   */\n      tag_511\n      tag_276\n      jump\t// in\n    tag_511:\n        /* \"#utility.yul\":21275:21311   */\n    tag_510:\n        /* \"#utility.yul\":21127:21318   */\n      swap3\n      swap2\n      pop\n      pop\n      jump\t// out\n        /* \"#utility.yul\":21324:21554   */\n    tag_278:\n        /* \"#utility.yul\":21464:21498   */\n      0x546865206c656e677468206f662069647320616e6420616d6f756e7473206973\n        /* \"#utility.yul\":21460:21461   */\n      0x00\n        /* \"#utility.yul\":21452:21458   */\n      dup3\n        /* \"#utility.yul\":21448:21462   */\n      add\n        /* \"#utility.yul\":21441:21499   */\n      mstore\n        /* \"#utility.yul\":21533:21546   */\n      0x206e6f7420657175616c2e000000000000000000000000000000000000000000\n        /* \"#utility.yul\":21528:21530   */\n      0x20\n        /* \"#utility.yul\":21520:21526   */\n      dup3\n        /* \"#utility.yul\":21516:21531   */\n      add\n        /* \"#utility.yul\":21509:21547   */\n      mstore\n        /* \"#utility.yul\":21324:21554   */\n      pop\n      jump\t// out\n        /* \"#utility.yul\":21560:21926   */\n    tag_279:\n        /* \"#utility.yul\":21702:21705   */\n      0x00\n        /* \"#utility.yul\":21723:21790   */\n      tag_514\n        /* \"#utility.yul\":21787:21789   */\n      0x2b\n        /* \"#utility.yul\":21782:21785   */\n      dup4\n        /* \"#utility.yul\":21723:21790   */\n      tag_246\n      jump\t// in\n    tag_514:\n        /* \"#utility.yul\":21716:21790   */\n      swap2\n      pop\n        /* \"#utility.yul\":21799:21892   */\n      tag_515\n        /* \"#utility.yul\":21888:21891   */\n      dup3\n        /* \"#utility.yul\":21799:21892   */\n      tag_278\n      jump\t// in\n    tag_515:\n        /* \"#utility.yul\":21917:21919   */\n      0x40\n        /* \"#utility.yul\":21912:21915   */\n      dup3\n        /* \"#utility.yul\":21908:21920   */\n      add\n        /* \"#utility.yul\":21901:21920   */\n      swap1\n      pop\n        /* \"#utility.yul\":21560:21926   */\n      swap2\n      swap1\n      pop\n      jump\t// out\n        /* \"#utility.yul\":21932:22351   */\n    tag_163:\n        /* \"#utility.yul\":22098:22102   */\n      0x00\n        /* \"#utility.yul\":22136:22138   */\n      0x20\n        /* \"#utility.yul\":22125:22134   */\n      dup3\n        /* \"#utility.yul\":22121:22139   */\n      add\n        /* \"#utility.yul\":22113:22139   */\n      swap1\n      pop\n        /* \"#utility.yul\":22185:22194   */\n      dup2\n        /* \"#utility.yul\":22179:22183   */\n      dup2\n        /* \"#utility.yul\":22175:22195   */\n      sub\n        /* \"#utility.yul\":22171:22172   */\n      0x00\n        /* \"#utility.yul\":22160:22169   */\n      dup4\n        /* \"#utility.yul\":22156:22173   */\n      add\n        /* \"#utility.yul\":22149:22196   */\n      mstore\n        /* \"#utility.yul\":22213:22344   */\n      tag_517\n        /* \"#utility.yul\":22339:22343   */\n      dup2\n        /* \"#utility.yul\":22213:22344   */\n      tag_279\n      jump\t// in\n    tag_517:\n        /* \"#utility.yul\":22205:22344   */\n      swap1\n      pop\n        /* \"#utility.yul\":21932:22351   */\n      swap2\n      swap1\n      pop\n      jump\t// out\n        /* \"#utility.yul\":22357:22533   */\n    tag_280:\n        /* \"#utility.yul\":22497:22525   */\n      0x496e73756666696369656e7420746f6b656e2062616c616e6365000000000000\n        /* \"#utility.yul\":22493:22494   */\n      0x00\n        /* \"#utility.yul\":22485:22491   */\n      dup3\n        /* \"#utility.yul\":22481:22495   */\n      add\n        /* \"#utility.yul\":22474:22526   */\n      mstore\n        /* \"#utility.yul\":22357:22533   */\n      pop\n      jump\t// out\n        /* \"#utility.yul\":22539:22905   */\n    tag_281:\n        /* \"#utility.yul\":22681:22684   */\n      0x00\n        /* \"#utility.yul\":22702:22769   */\n      tag_520\n        /* \"#utility.yul\":22766:22768   */\n      0x1a\n        /* \"#utility.yul\":22761:22764   */\n      dup4\n        /* \"#utility.yul\":22702:22769   */\n      tag_246\n      jump\t// in\n    tag_520:\n        /* \"#utility.yul\":22695:22769   */\n      swap2\n      pop\n        /* \"#utility.yul\":22778:22871   */\n      tag_521\n        /* \"#utility.yul\":22867:22870   */\n      dup3\n        /* \"#utility.yul\":22778:22871   */\n      tag_280\n      jump\t// in\n    tag_521:\n        /* \"#utility.yul\":22896:22898   */\n      0x20\n        /* \"#utility.yul\":22891:22894   */\n      dup3\n        /* \"#utility.yul\":22887:22899   */\n      add\n        /* \"#utility.yul\":22880:22899   */\n      swap1\n      pop\n        /* \"#utility.yul\":22539:22905   */\n      swap2\n      swap1\n      pop\n      jump\t// out\n        /* \"#utility.yul\":22911:23330   */\n    tag_174:\n        /* \"#utility.yul\":23077:23081   */\n      0x00\n        /* \"#utility.yul\":23115:23117   */\n      0x20\n        /* \"#utility.yul\":23104:23113   */\n      dup3\n        /* \"#utility.yul\":23100:23118   */\n      add\n        /* \"#utility.yul\":23092:23118   */\n      swap1\n      pop\n        /* \"#utility.yul\":23164:23173   */\n      dup2\n        /* \"#utility.yul\":23158:23162   */\n      dup2\n        /* \"#utility.yul\":23154:23174   */\n      sub\n        /* \"#utility.yul\":23150:23151   */\n      0x00\n        /* \"#utility.yul\":23139:23148   */\n      dup4\n        /* \"#utility.yul\":23135:23152   */\n      add\n        /* \"#utility.yul\":23128:23175   */\n      mstore\n        /* \"#utility.yul\":23192:23323   */\n      tag_523\n        /* \"#utility.yul\":23318:23322   */\n      dup2\n        /* \"#utility.yul\":23192:23323   */\n      tag_281\n      jump\t// in\n    tag_523:\n        /* \"#utility.yul\":23184:23323   */\n      swap1\n      pop\n        /* \"#utility.yul\":22911:23330   */\n      swap2\n      swap1\n      pop\n      jump\t// out\n        /* \"#utility.yul\":23336:23668   */\n    tag_178:\n        /* \"#utility.yul\":23457:23461   */\n      0x00\n        /* \"#utility.yul\":23495:23497   */\n      0x40\n        /* \"#utility.yul\":23484:23493   */\n      dup3\n        /* \"#utility.yul\":23480:23498   */\n      add\n        /* \"#utility.yul\":23472:23498   */\n      swap1\n      pop\n        /* \"#utility.yul\":23508:23579   */\n      tag_525\n        /* \"#utility.yul\":23576:23577   */\n      0x00\n        /* \"#utility.yul\":23565:23574   */\n      dup4\n        /* \"#utility.yul\":23561:23578   */\n      add\n        /* \"#utility.yul\":23552:23558   */\n      dup6\n        /* \"#utility.yul\":23508:23579   */\n      tag_239\n      jump\t// in\n    tag_525:\n        /* \"#utility.yul\":23589:23661   */\n      tag_526\n        /* \"#utility.yul\":23657:23659   */\n      0x20\n        /* \"#utility.yul\":23646:23655   */\n      dup4\n        /* \"#utility.yul\":23642:23660   */\n      add\n        /* \"#utility.yul\":23633:23639   */\n      dup5\n        /* \"#utility.yul\":23589:23661   */\n      tag_239\n      jump\t// in\n    tag_526:\n        /* \"#utility.yul\":23336:23668   */\n      swap4\n      swap3\n      pop\n      pop\n      pop\n      jump\t// out\n        /* \"#utility.yul\":23674:24308   */\n    tag_181:\n        /* \"#utility.yul\":23895:23899   */\n      0x00\n        /* \"#utility.yul\":23933:23935   */\n      0x40\n        /* \"#utility.yul\":23922:23931   */\n      dup3\n        /* \"#utility.yul\":23918:23936   */\n      add\n        /* \"#utility.yul\":23910:23936   */\n      swap1\n      pop\n        /* \"#utility.yul\":23982:23991   */\n      dup2\n        /* \"#utility.yul\":23976:23980   */\n      dup2\n        /* \"#utility.yul\":23972:23992   */\n      sub\n        /* \"#utility.yul\":23968:23969   */\n      0x00\n        /* \"#utility.yul\":23957:23966   */\n      dup4\n        /* \"#utility.yul\":23953:23970   */\n      add\n        /* \"#utility.yul\":23946:23993   */\n      mstore\n        /* \"#utility.yul\":24010:24118   */\n      tag_528\n        /* \"#utility.yul\":24113:24117   */\n      dup2\n        /* \"#utility.yul\":24104:24110   */\n      dup6\n        /* \"#utility.yul\":24010:24118   */\n      tag_262\n      jump\t// in\n    tag_528:\n        /* \"#utility.yul\":24002:24118   */\n      swap1\n      pop\n        /* \"#utility.yul\":24165:24174   */\n      dup2\n        /* \"#utility.yul\":24159:24163   */\n      dup2\n        /* \"#utility.yul\":24155:24175   */\n      sub\n        /* \"#utility.yul\":24150:24152   */\n      0x20\n        /* \"#utility.yul\":24139:24148   */\n      dup4\n        /* \"#utility.yul\":24135:24153   */\n      add\n        /* \"#utility.yul\":24128:24176   */\n      mstore\n        /* \"#utility.yul\":24193:24301   */\n      tag_529\n        /* \"#utility.yul\":24296:24300   */\n      dup2\n        /* \"#utility.yul\":24287:24293   */\n      dup5\n        /* \"#utility.yul\":24193:24301   */\n      tag_262\n      jump\t// in\n    tag_529:\n        /* \"#utility.yul\":24185:24301   */\n      swap1\n      pop\n        /* \"#utility.yul\":23674:24308   */\n      swap4\n      swap3\n      pop\n      pop\n      pop\n      jump\t// out\n        /* \"#utility.yul\":24314:24432   */\n    tag_282:\n        /* \"#utility.yul\":24401:24425   */\n      tag_531\n        /* \"#utility.yul\":24419:24424   */\n      dup2\n        /* \"#utility.yul\":24401:24425   */\n      tag_233\n      jump\t// in\n    tag_531:\n        /* \"#utility.yul\":24396:24399   */\n      dup3\n        /* \"#utility.yul\":24389:24426   */\n      mstore\n        /* \"#utility.yul\":24314:24432   */\n      pop\n      pop\n      jump\t// out\n        /* \"#utility.yul\":24438:24536   */\n    tag_283:\n        /* \"#utility.yul\":24489:24495   */\n      0x00\n        /* \"#utility.yul\":24523:24528   */\n      dup2\n        /* \"#utility.yul\":24517:24529   */\n      mload\n        /* \"#utility.yul\":24507:24529   */\n      swap1\n      pop\n        /* \"#utility.yul\":24438:24536   */\n      swap2\n      swap1\n      pop\n      jump\t// out\n        /* \"#utility.yul\":24542:24710   */\n    tag_284:\n        /* \"#utility.yul\":24625:24636   */\n      0x00\n        /* \"#utility.yul\":24659:24665   */\n      dup3\n        /* \"#utility.yul\":24654:24657   */\n      dup3\n        /* \"#utility.yul\":24647:24666   */\n      mstore\n        /* \"#utility.yul\":24699:24703   */\n      0x20\n        /* \"#utility.yul\":24694:24697   */\n      dup3\n        /* \"#utility.yul\":24690:24704   */\n      add\n        /* \"#utility.yul\":24675:24704   */\n      swap1\n      pop\n        /* \"#utility.yul\":24542:24710   */\n      swap3\n      swap2\n      pop\n      pop\n      jump\t// out\n        /* \"#utility.yul\":24716:25089   */\n    tag_285:\n        /* \"#utility.yul\":24802:24805   */\n      0x00\n        /* \"#utility.yul\":24830:24868   */\n      tag_535\n        /* \"#utility.yul\":24862:24867   */\n      dup3\n        /* \"#utility.yul\":24830:24868   */\n      tag_283\n      jump\t// in\n    tag_535:\n        /* \"#utility.yul\":24884:24954   */\n      tag_536\n        /* \"#utility.yul\":24947:24953   */\n      dup2\n        /* \"#utility.yul\":24942:24945   */\n      dup6\n        /* \"#utility.yul\":24884:24954   */\n      tag_284\n      jump\t// in\n    tag_536:\n        /* \"#utility.yul\":24877:24954   */\n      swap4\n      pop\n        /* \"#utility.yul\":24963:25028   */\n      tag_537\n        /* \"#utility.yul\":25021:25027   */\n      dup2\n        /* \"#utility.yul\":25016:25019   */\n      dup6\n        /* \"#utility.yul\":25009:25013   */\n      0x20\n        /* \"#utility.yul\":25002:25007   */\n      dup7\n        /* \"#utility.yul\":24998:25014   */\n      add\n        /* \"#utility.yul\":24963:25028   */\n      tag_247\n      jump\t// in\n    tag_537:\n        /* \"#utility.yul\":25053:25082   */\n      tag_538\n        /* \"#utility.yul\":25075:25081   */\n      dup2\n        /* \"#utility.yul\":25053:25082   */\n      tag_248\n      jump\t// in\n    tag_538:\n        /* \"#utility.yul\":25048:25051   */\n      dup5\n        /* \"#utility.yul\":25044:25083   */\n      add\n        /* \"#utility.yul\":25037:25083   */\n      swap2\n      pop\n        /* \"#utility.yul\":24806:25089   */\n      pop\n        /* \"#utility.yul\":24716:25089   */\n      swap3\n      swap2\n      pop\n      pop\n      jump\t// out\n        /* \"#utility.yul\":25095:26148   */\n    tag_187:\n        /* \"#utility.yul\":25418:25422   */\n      0x00\n        /* \"#utility.yul\":25456:25459   */\n      0xa0\n        /* \"#utility.yul\":25445:25454   */\n      dup3\n        /* \"#utility.yul\":25441:25460   */\n      add\n        /* \"#utility.yul\":25433:25460   */\n      swap1\n      pop\n        /* \"#utility.yul\":25470:25541   */\n      tag_540\n        /* \"#utility.yul\":25538:25539   */\n      0x00\n        /* \"#utility.yul\":25527:25536   */\n      dup4\n        /* \"#utility.yul\":25523:25540   */\n      add\n        /* \"#utility.yul\":25514:25520   */\n      dup9\n        /* \"#utility.yul\":25470:25541   */\n      tag_282\n      jump\t// in\n    tag_540:\n        /* \"#utility.yul\":25551:25623   */\n      tag_541\n        /* \"#utility.yul\":25619:25621   */\n      0x20\n        /* \"#utility.yul\":25608:25617   */\n      dup4\n        /* \"#utility.yul\":25604:25622   */\n      add\n        /* \"#utility.yul\":25595:25601   */\n      dup8\n        /* \"#utility.yul\":25551:25623   */\n      tag_282\n      jump\t// in\n    tag_541:\n        /* \"#utility.yul\":25670:25679   */\n      dup2\n        /* \"#utility.yul\":25664:25668   */\n      dup2\n        /* \"#utility.yul\":25660:25680   */\n      sub\n        /* \"#utility.yul\":25655:25657   */\n      0x40\n        /* \"#utility.yul\":25644:25653   */\n      dup4\n        /* \"#utility.yul\":25640:25658   */\n      add\n        /* \"#utility.yul\":25633:25681   */\n      mstore\n        /* \"#utility.yul\":25698:25806   */\n      tag_542\n        /* \"#utility.yul\":25801:25805   */\n      dup2\n        /* \"#utility.yul\":25792:25798   */\n      dup7\n        /* \"#utility.yul\":25698:25806   */\n      tag_262\n      jump\t// in\n    tag_542:\n        /* \"#utility.yul\":25690:25806   */\n      swap1\n      pop\n        /* \"#utility.yul\":25853:25862   */\n      dup2\n        /* \"#utility.yul\":25847:25851   */\n      dup2\n        /* \"#utility.yul\":25843:25863   */\n      sub\n        /* \"#utility.yul\":25838:25840   */\n      0x60\n        /* \"#utility.yul\":25827:25836   */\n      dup4\n        /* \"#utility.yul\":25823:25841   */\n      add\n        /* \"#utility.yul\":25816:25864   */\n      mstore\n        /* \"#utility.yul\":25881:25989   */\n      tag_543\n        /* \"#utility.yul\":25984:25988   */\n      dup2\n        /* \"#utility.yul\":25975:25981   */\n      dup6\n        /* \"#utility.yul\":25881:25989   */\n      tag_262\n      jump\t// in\n    tag_543:\n        /* \"#utility.yul\":25873:25989   */\n      swap1\n      pop\n        /* \"#utility.yul\":26037:26046   */\n      dup2\n        /* \"#utility.yul\":26031:26035   */\n      dup2\n        /* \"#utility.yul\":26027:26047   */\n      sub\n        /* \"#utility.yul\":26021:26024   */\n      0x80\n        /* \"#utility.yul\":26010:26019   */\n      dup4\n        /* \"#utility.yul\":26006:26025   */\n      add\n        /* \"#utility.yul\":25999:26048   */\n      mstore\n        /* \"#utility.yul\":26065:26141   */\n      tag_544\n        /* \"#utility.yul\":26136:26140   */\n      dup2\n        /* \"#utility.yul\":26127:26133   */\n      dup5\n        /* \"#utility.yul\":26065:26141   */\n      tag_285\n      jump\t// in\n    tag_544:\n        /* \"#utility.yul\":26057:26141   */\n      swap1\n      pop\n        /* \"#utility.yul\":25095:26148   */\n      swap7\n      swap6\n      pop\n      pop\n      pop\n      pop\n      pop\n      pop\n      jump\t// out\n        /* \"#utility.yul\":26154:26295   */\n    tag_286:\n        /* \"#utility.yul\":26210:26215   */\n      0x00\n        /* \"#utility.yul\":26241:26247   */\n      dup2\n        /* \"#utility.yul\":26235:26248   */\n      mload\n        /* \"#utility.yul\":26226:26248   */\n      swap1\n      pop\n        /* \"#utility.yul\":26257:26289   */\n      tag_546\n        /* \"#utility.yul\":26283:26288   */\n      dup2\n        /* \"#utility.yul\":26257:26289   */\n      tag_241\n      jump\t// in\n    tag_546:\n        /* \"#utility.yul\":26154:26295   */\n      swap3\n      swap2\n      pop\n      pop\n      jump\t// out\n        /* \"#utility.yul\":26301:26650   */\n    tag_190:\n        /* \"#utility.yul\":26370:26376   */\n      0x00\n        /* \"#utility.yul\":26419:26421   */\n      0x20\n        /* \"#utility.yul\":26407:26416   */\n      dup3\n        /* \"#utility.yul\":26398:26405   */\n      dup5\n        /* \"#utility.yul\":26394:26417   */\n      sub\n        /* \"#utility.yul\":26390:26422   */\n      slt\n        /* \"#utility.yul\":26387:26506   */\n      iszero\n      tag_548\n      jumpi\n        /* \"#utility.yul\":26425:26504   */\n      tag_549\n      tag_230\n      jump\t// in\n    tag_549:\n        /* \"#utility.yul\":26387:26506   */\n    tag_548:\n        /* \"#utility.yul\":26545:26546   */\n      0x00\n        /* \"#utility.yul\":26570:26633   */\n      tag_550\n        /* \"#utility.yul\":26625:26632   */\n      dup5\n        /* \"#utility.yul\":26616:26622   */\n      dup3\n        /* \"#utility.yul\":26605:26614   */\n      dup6\n        /* \"#utility.yul\":26601:26623   */\n      add\n        /* \"#utility.yul\":26570:26633   */\n      tag_286\n      jump\t// in\n    tag_550:\n        /* \"#utility.yul\":26560:26633   */\n      swap2\n      pop\n        /* \"#utility.yul\":26516:26643   */\n      pop\n        /* \"#utility.yul\":26301:26650   */\n      swap3\n      swap2\n      pop\n      pop\n      jump\t// out\n        /* \"#utility.yul\":26656:26762   */\n    tag_287:\n        /* \"#utility.yul\":26700:26708   */\n      0x00\n        /* \"#utility.yul\":26749:26754   */\n      dup2\n        /* \"#utility.yul\":26744:26747   */\n      0xe0\n        /* \"#utility.yul\":26740:26755   */\n      shr\n        /* \"#utility.yul\":26719:26755   */\n      swap1\n      pop\n        /* \"#utility.yul\":26656:26762   */\n      swap2\n      swap1\n      pop\n      jump\t// out\n        /* \"#utility.yul\":26768:26951   */\n    tag_196:\n        /* \"#utility.yul\":26803:26806   */\n      0x00\n        /* \"#utility.yul\":26841:26842   */\n      0x03\n        /* \"#utility.yul\":26823:26839   */\n      returndatasize\n        /* \"#utility.yul\":26820:26843   */\n      gt\n        /* \"#utility.yul\":26817:26945   */\n      iszero\n      tag_553\n      jumpi\n        /* \"#utility.yul\":26879:26880   */\n      0x04\n        /* \"#utility.yul\":26876:26877   */\n      0x00\n        /* \"#utility.yul\":26873:26874   */\n      dup1\n        /* \"#utility.yul\":26858:26881   */\n      returndatacopy\n        /* \"#utility.yul\":26901:26935   */\n      tag_554\n        /* \"#utility.yul\":26932:26933   */\n      0x00\n        /* \"#utility.yul\":26926:26934   */\n      mload\n        /* \"#utility.yul\":26901:26935   */\n      tag_287\n      jump\t// in\n    tag_554:\n        /* \"#utility.yul\":26894:26935   */\n      swap1\n      pop\n        /* \"#utility.yul\":26817:26945   */\n    tag_553:\n        /* \"#utility.yul\":26768:26951   */\n      swap1\n      jump\t// out\n        /* \"#utility.yul\":26957:27238   */\n    tag_288:\n        /* \"#utility.yul\":27040:27067   */\n      tag_556\n        /* \"#utility.yul\":27062:27066   */\n      dup3\n        /* \"#utility.yul\":27040:27067   */\n      tag_248\n      jump\t// in\n    tag_556:\n        /* \"#utility.yul\":27032:27038   */\n      dup2\n        /* \"#utility.yul\":27028:27068   */\n      add\n        /* \"#utility.yul\":27170:27176   */\n      dup2\n        /* \"#utility.yul\":27158:27168   */\n      dup2\n        /* \"#utility.yul\":27155:27177   */\n      lt\n        /* \"#utility.yul\":27134:27152   */\n      0xffffffffffffffff\n        /* \"#utility.yul\":27122:27132   */\n      dup3\n        /* \"#utility.yul\":27119:27153   */\n      gt\n        /* \"#utility.yul\":27116:27178   */\n      or\n        /* \"#utility.yul\":27113:27201   */\n      iszero\n      tag_557\n      jumpi\n        /* \"#utility.yul\":27181:27199   */\n      tag_558\n      tag_99\n      jump\t// in\n    tag_558:\n        /* \"#utility.yul\":27113:27201   */\n    tag_557:\n        /* \"#utility.yul\":27221:27231   */\n      dup1\n        /* \"#utility.yul\":27217:27219   */\n      0x40\n        /* \"#utility.yul\":27210:27232   */\n      mstore\n        /* \"#utility.yul\":27000:27238   */\n      pop\n        /* \"#utility.yul\":26957:27238   */\n      pop\n      pop\n      jump\t// out\n        /* \"#utility.yul\":27244:27955   */\n    tag_198:\n        /* \"#utility.yul\":27283:27286   */\n      0x00\n        /* \"#utility.yul\":27321:27325   */\n      0x44\n        /* \"#utility.yul\":27303:27319   */\n      returndatasize\n        /* \"#utility.yul\":27300:27326   */\n      lt\n        /* \"#utility.yul\":27329:27334   */\n      tag_559\n        /* \"#utility.yul\":27297:27336   */\n      jumpi\n        /* \"#utility.yul\":27358:27378   */\n      tag_561\n      tag_229\n      jump\t// in\n    tag_561:\n        /* \"#utility.yul\":27433:27434   */\n      0x04\n        /* \"#utility.yul\":27415:27431   */\n      returndatasize\n        /* \"#utility.yul\":27411:27435   */\n      sub\n        /* \"#utility.yul\":27408:27409   */\n      0x04\n        /* \"#utility.yul\":27402:27406   */\n      dup3\n        /* \"#utility.yul\":27387:27436   */\n      returndatacopy\n        /* \"#utility.yul\":27466:27470   */\n      dup1\n        /* \"#utility.yul\":27460:27471   */\n      mload\n        /* \"#utility.yul\":27565:27581   */\n      returndatasize\n        /* \"#utility.yul\":27558:27562   */\n      0x24\n        /* \"#utility.yul\":27550:27556   */\n      dup3\n        /* \"#utility.yul\":27546:27563   */\n      add\n        /* \"#utility.yul\":27543:27582   */\n      gt\n        /* \"#utility.yul\":27510:27528   */\n      0xffffffffffffffff\n        /* \"#utility.yul\":27502:27508   */\n      dup3\n        /* \"#utility.yul\":27499:27529   */\n      gt\n        /* \"#utility.yul\":27483:27596   */\n      or\n        /* \"#utility.yul\":27480:27626   */\n      iszero\n      tag_562\n      jumpi\n        /* \"#utility.yul\":27611:27616   */\n      pop\n      pop\n      jump(tag_559)\n        /* \"#utility.yul\":27480:27626   */\n    tag_562:\n        /* \"#utility.yul\":27657:27663   */\n      dup1\n        /* \"#utility.yul\":27651:27655   */\n      dup3\n        /* \"#utility.yul\":27647:27664   */\n      add\n        /* \"#utility.yul\":27693:27696   */\n      dup1\n        /* \"#utility.yul\":27687:27697   */\n      mload\n        /* \"#utility.yul\":27720:27738   */\n      0xffffffffffffffff\n        /* \"#utility.yul\":27712:27718   */\n      dup2\n        /* \"#utility.yul\":27709:27739   */\n      gt\n        /* \"#utility.yul\":27706:27749   */\n      iszero\n      tag_563\n      jumpi\n        /* \"#utility.yul\":27742:27747   */\n      pop\n      pop\n      pop\n      pop\n      jump(tag_559)\n        /* \"#utility.yul\":27706:27749   */\n    tag_563:\n        /* \"#utility.yul\":27790:27796   */\n      dup1\n        /* \"#utility.yul\":27783:27787   */\n      0x20\n        /* \"#utility.yul\":27778:27781   */\n      dup4\n        /* \"#utility.yul\":27774:27788   */\n      add\n        /* \"#utility.yul\":27770:27797   */\n      add\n        /* \"#utility.yul\":27849:27850   */\n      0x04\n        /* \"#utility.yul\":27831:27847   */\n      returndatasize\n        /* \"#utility.yul\":27827:27851   */\n      sub\n        /* \"#utility.yul\":27821:27825   */\n      dup6\n        /* \"#utility.yul\":27817:27852   */\n      add\n        /* \"#utility.yul\":27812:27815   */\n      dup2\n        /* \"#utility.yul\":27809:27853   */\n      gt\n        /* \"#utility.yul\":27806:27863   */\n      iszero\n      tag_564\n      jumpi\n        /* \"#utility.yul\":27856:27861   */\n      pop\n      pop\n      pop\n      pop\n      pop\n      jump(tag_559)\n        /* \"#utility.yul\":27806:27863   */\n    tag_564:\n        /* \"#utility.yul\":27873:27930   */\n      tag_565\n        /* \"#utility.yul\":27921:27927   */\n      dup3\n        /* \"#utility.yul\":27915:27919   */\n      0x20\n        /* \"#utility.yul\":27911:27928   */\n      add\n        /* \"#utility.yul\":27903:27909   */\n      dup6\n        /* \"#utility.yul\":27899:27929   */\n      add\n        /* \"#utility.yul\":27893:27897   */\n      dup7\n        /* \"#utility.yul\":27873:27930   */\n      tag_288\n      jump\t// in\n    tag_565:\n        /* \"#utility.yul\":27946:27949   */\n      dup3\n        /* \"#utility.yul\":27939:27949   */\n      swap6\n      pop\n        /* \"#utility.yul\":27287:27955   */\n      pop\n      pop\n      pop\n      pop\n      pop\n        /* \"#utility.yul\":27244:27955   */\n    tag_559:\n      swap1\n      jump\t// out\n        /* \"#utility.yul\":27961:28329   */\n    tag_289:\n        /* \"#utility.yul\":28101:28135   */\n      0x455243313135353a20546865207472616e73616374696f6e2072656365697665\n        /* \"#utility.yul\":28097:28098   */\n      0x00\n        /* \"#utility.yul\":28089:28095   */\n      dup3\n        /* \"#utility.yul\":28085:28099   */\n      add\n        /* \"#utility.yul\":28078:28136   */\n      mstore\n        /* \"#utility.yul\":28170:28204   */\n      0x7220686173206e6f7420696d706c656d656e7465642074686520494552433131\n        /* \"#utility.yul\":28165:28167   */\n      0x20\n        /* \"#utility.yul\":28157:28163   */\n      dup3\n        /* \"#utility.yul\":28153:28168   */\n      add\n        /* \"#utility.yul\":28146:28205   */\n      mstore\n        /* \"#utility.yul\":28239:28273   */\n      0x353552656365697665722e6f6e45726331313535426174636852656365697665\n        /* \"#utility.yul\":28234:28236   */\n      0x40\n        /* \"#utility.yul\":28226:28232   */\n      dup3\n        /* \"#utility.yul\":28222:28237   */\n      add\n        /* \"#utility.yul\":28215:28274   */\n      mstore\n        /* \"#utility.yul\":28308:28321   */\n      0x642066756e6374696f6e2e000000000000000000000000000000000000000000\n        /* \"#utility.yul\":28303:28305   */\n      0x60\n        /* \"#utility.yul\":28295:28301   */\n      dup3\n        /* \"#utility.yul\":28291:28306   */\n      add\n        /* \"#utility.yul\":28284:28322   */\n      mstore\n        /* \"#utility.yul\":27961:28329   */\n      pop\n      jump\t// out\n        /* \"#utility.yul\":28335:28703   */\n    tag_290:\n        /* \"#utility.yul\":28477:28480   */\n      0x00\n        /* \"#utility.yul\":28498:28566   */\n      tag_568\n        /* \"#utility.yul\":28562:28565   */\n      0x6b\n        /* \"#utility.yul\":28557:28560   */\n      dup4\n        /* \"#utility.yul\":28498:28566   */\n      tag_246\n      jump\t// in\n    tag_568:\n        /* \"#utility.yul\":28491:28566   */\n      swap2\n      pop\n        /* \"#utility.yul\":28575:28668   */\n      tag_569\n        /* \"#utility.yul\":28664:28667   */\n      dup3\n        /* \"#utility.yul\":28575:28668   */\n      tag_289\n      jump\t// in\n    tag_569:\n        /* \"#utility.yul\":28693:28696   */\n      0x80\n        /* \"#utility.yul\":28688:28691   */\n      dup3\n        /* \"#utility.yul\":28684:28697   */\n      add\n        /* \"#utility.yul\":28677:28697   */\n      swap1\n      pop\n        /* \"#utility.yul\":28335:28703   */\n      swap2\n      swap1\n      pop\n      jump\t// out\n        /* \"#utility.yul\":28709:29128   */\n    tag_202:\n        /* \"#utility.yul\":28875:28879   */\n      0x00\n        /* \"#utility.yul\":28913:28915   */\n      0x20\n        /* \"#utility.yul\":28902:28911   */\n      dup3\n        /* \"#utility.yul\":28898:28916   */\n      add\n        /* \"#utility.yul\":28890:28916   */\n      swap1\n      pop\n        /* \"#utility.yul\":28962:28971   */\n      dup2\n        /* \"#utility.yul\":28956:28960   */\n      dup2\n        /* \"#utility.yul\":28952:28972   */\n      sub\n        /* \"#utility.yul\":28948:28949   */\n      0x00\n        /* \"#utility.yul\":28937:28946   */\n      dup4\n        /* \"#utility.yul\":28933:28950   */\n      add\n        /* \"#utility.yul\":28926:28973   */\n      mstore\n        /* \"#utility.yul\":28990:29121   */\n      tag_571\n        /* \"#utility.yul\":29116:29120   */\n      dup2\n        /* \"#utility.yul\":28990:29121   */\n      tag_290\n      jump\t// in\n    tag_571:\n        /* \"#utility.yul\":28982:29121   */\n      swap1\n      pop\n        /* \"#utility.yul\":28709:29128   */\n      swap2\n      swap1\n      pop\n      jump\t// out\n        /* \"#utility.yul\":29134:29361   */\n    tag_291:\n        /* \"#utility.yul\":29274:29308   */\n      0x455243313135353a204552433131353552656365697665722072656a65637465\n        /* \"#utility.yul\":29270:29271   */\n      0x00\n        /* \"#utility.yul\":29262:29268   */\n      dup3\n        /* \"#utility.yul\":29258:29272   */\n      add\n        /* \"#utility.yul\":29251:29309   */\n      mstore\n        /* \"#utility.yul\":29343:29353   */\n      0x6420746f6b656e73000000000000000000000000000000000000000000000000\n        /* \"#utility.yul\":29338:29340   */\n      0x20\n        /* \"#utility.yul\":29330:29336   */\n      dup3\n        /* \"#utility.yul\":29326:29341   */\n      add\n        /* \"#utility.yul\":29319:29354   */\n      mstore\n        /* \"#utility.yul\":29134:29361   */\n      pop\n      jump\t// out\n        /* \"#utility.yul\":29367:29733   */\n    tag_292:\n        /* \"#utility.yul\":29509:29512   */\n      0x00\n        /* \"#utility.yul\":29530:29597   */\n      tag_574\n        /* \"#utility.yul\":29594:29596   */\n      0x28\n        /* \"#utility.yul\":29589:29592   */\n      dup4\n        /* \"#utility.yul\":29530:29597   */\n      tag_246\n      jump\t// in\n    tag_574:\n        /* \"#utility.yul\":29523:29597   */\n      swap2\n      pop\n        /* \"#utility.yul\":29606:29699   */\n      tag_575\n        /* \"#utility.yul\":29695:29698   */\n      dup3\n        /* \"#utility.yul\":29606:29699   */\n      tag_291\n      jump\t// in\n    tag_575:\n        /* \"#utility.yul\":29724:29726   */\n      0x40\n        /* \"#utility.yul\":29719:29722   */\n      dup3\n        /* \"#utility.yul\":29715:29727   */\n      add\n        /* \"#utility.yul\":29708:29727   */\n      swap1\n      pop\n        /* \"#utility.yul\":29367:29733   */\n      swap2\n      swap1\n      pop\n      jump\t// out\n        /* \"#utility.yul\":29739:30158   */\n    tag_206:\n        /* \"#utility.yul\":29905:29909   */\n      0x00\n        /* \"#utility.yul\":29943:29945   */\n      0x20\n        /* \"#utility.yul\":29932:29941   */\n      dup3\n        /* \"#utility.yul\":29928:29946   */\n      add\n        /* \"#utility.yul\":29920:29946   */\n      swap1\n      pop\n        /* \"#utility.yul\":29992:30001   */\n      dup2\n        /* \"#utility.yul\":29986:29990   */\n      dup2\n        /* \"#utility.yul\":29982:30002   */\n      sub\n        /* \"#utility.yul\":29978:29979   */\n      0x00\n        /* \"#utility.yul\":29967:29976   */\n      dup4\n        /* \"#utility.yul\":29963:29980   */\n      add\n        /* \"#utility.yul\":29956:30003   */\n      mstore\n        /* \"#utility.yul\":30020:30151   */\n      tag_577\n        /* \"#utility.yul\":30146:30150   */\n      dup2\n        /* \"#utility.yul\":30020:30151   */\n      tag_292\n      jump\t// in\n    tag_577:\n        /* \"#utility.yul\":30012:30151   */\n      swap1\n      pop\n        /* \"#utility.yul\":29739:30158   */\n      swap2\n      swap1\n      pop\n      jump\t// out\n        /* \"#utility.yul\":30164:30915   */\n    tag_212:\n        /* \"#utility.yul\":30387:30391   */\n      0x00\n        /* \"#utility.yul\":30425:30428   */\n      0xa0\n        /* \"#utility.yul\":30414:30423   */\n      dup3\n        /* \"#utility.yul\":30410:30429   */\n      add\n        /* \"#utility.yul\":30402:30429   */\n      swap1\n      pop\n        /* \"#utility.yul\":30439:30510   */\n      tag_579\n        /* \"#utility.yul\":30507:30508   */\n      0x00\n        /* \"#utility.yul\":30496:30505   */\n      dup4\n        /* \"#utility.yul\":30492:30509   */\n      add\n        /* \"#utility.yul\":30483:30489   */\n      dup9\n        /* \"#utility.yul\":30439:30510   */\n      tag_282\n      jump\t// in\n    tag_579:\n        /* \"#utility.yul\":30520:30592   */\n      tag_580\n        /* \"#utility.yul\":30588:30590   */\n      0x20\n        /* \"#utility.yul\":30577:30586   */\n      dup4\n        /* \"#utility.yul\":30573:30591   */\n      add\n        /* \"#utility.yul\":30564:30570   */\n      dup8\n        /* \"#utility.yul\":30520:30592   */\n      tag_282\n      jump\t// in\n    tag_580:\n        /* \"#utility.yul\":30602:30674   */\n      tag_581\n        /* \"#utility.yul\":30670:30672   */\n      0x40\n        /* \"#utility.yul\":30659:30668   */\n      dup4\n        /* \"#utility.yul\":30655:30673   */\n      add\n        /* \"#utility.yul\":30646:30652   */\n      dup7\n        /* \"#utility.yul\":30602:30674   */\n      tag_239\n      jump\t// in\n    tag_581:\n        /* \"#utility.yul\":30684:30756   */\n      tag_582\n        /* \"#utility.yul\":30752:30754   */\n      0x60\n        /* \"#utility.yul\":30741:30750   */\n      dup4\n        /* \"#utility.yul\":30737:30755   */\n      add\n        /* \"#utility.yul\":30728:30734   */\n      dup6\n        /* \"#utility.yul\":30684:30756   */\n      tag_239\n      jump\t// in\n    tag_582:\n        /* \"#utility.yul\":30804:30813   */\n      dup2\n        /* \"#utility.yul\":30798:30802   */\n      dup2\n        /* \"#utility.yul\":30794:30814   */\n      sub\n        /* \"#utility.yul\":30788:30791   */\n      0x80\n        /* \"#utility.yul\":30777:30786   */\n      dup4\n        /* \"#utility.yul\":30773:30792   */\n      add\n        /* \"#utility.yul\":30766:30815   */\n      mstore\n        /* \"#utility.yul\":30832:30908   */\n      tag_583\n        /* \"#utility.yul\":30903:30907   */\n      dup2\n        /* \"#utility.yul\":30894:30900   */\n      dup5\n        /* \"#utility.yul\":30832:30908   */\n      tag_285\n      jump\t// in\n    tag_583:\n        /* \"#utility.yul\":30824:30908   */\n      swap1\n      pop\n        /* \"#utility.yul\":30164:30915   */\n      swap7\n      swap6\n      pop\n      pop\n      pop\n      pop\n      pop\n      pop\n      jump\t// out\n        /* \"#utility.yul\":30921:31284   */\n    tag_293:\n        /* \"#utility.yul\":31061:31095   */\n      0x455243313135353a20546865207472616e73616374696f6e2072656365697665\n        /* \"#utility.yul\":31057:31058   */\n      0x00\n        /* \"#utility.yul\":31049:31055   */\n      dup3\n        /* \"#utility.yul\":31045:31059   */\n      add\n        /* \"#utility.yul\":31038:31096   */\n      mstore\n        /* \"#utility.yul\":31130:31164   */\n      0x7220686173206e6f7420696d706c656d656e7465642074686520494552433131\n        /* \"#utility.yul\":31125:31127   */\n      0x20\n        /* \"#utility.yul\":31117:31123   */\n      dup3\n        /* \"#utility.yul\":31113:31128   */\n      add\n        /* \"#utility.yul\":31106:31165   */\n      mstore\n        /* \"#utility.yul\":31199:31233   */\n      0x353552656365697665722e6f6e4572633131353552656365697665642066756e\n        /* \"#utility.yul\":31194:31196   */\n      0x40\n        /* \"#utility.yul\":31186:31192   */\n      dup3\n        /* \"#utility.yul\":31182:31197   */\n      add\n        /* \"#utility.yul\":31175:31234   */\n      mstore\n        /* \"#utility.yul\":31268:31276   */\n      0x6374696f6e2e0000000000000000000000000000000000000000000000000000\n        /* \"#utility.yul\":31263:31265   */\n      0x60\n        /* \"#utility.yul\":31255:31261   */\n      dup3\n        /* \"#utility.yul\":31251:31266   */\n      add\n        /* \"#utility.yul\":31244:31277   */\n      mstore\n        /* \"#utility.yul\":30921:31284   */\n      pop\n      jump\t// out\n        /* \"#utility.yul\":31290:31658   */\n    tag_294:\n        /* \"#utility.yul\":31432:31435   */\n      0x00\n        /* \"#utility.yul\":31453:31521   */\n      tag_586\n        /* \"#utility.yul\":31517:31520   */\n      0x66\n        /* \"#utility.yul\":31512:31515   */\n      dup4\n        /* \"#utility.yul\":31453:31521   */\n      tag_246\n      jump\t// in\n    tag_586:\n        /* \"#utility.yul\":31446:31521   */\n      swap2\n      pop\n        /* \"#utility.yul\":31530:31623   */\n      tag_587\n        /* \"#utility.yul\":31619:31622   */\n      dup3\n        /* \"#utility.yul\":31530:31623   */\n      tag_293\n      jump\t// in\n    tag_587:\n        /* \"#utility.yul\":31648:31651   */\n      0x80\n        /* \"#utility.yul\":31643:31646   */\n      dup3\n        /* \"#utility.yul\":31639:31652   */\n      add\n        /* \"#utility.yul\":31632:31652   */\n      swap1\n      pop\n        /* \"#utility.yul\":31290:31658   */\n      swap2\n      swap1\n      pop\n      jump\t// out\n        /* \"#utility.yul\":31664:32083   */\n    tag_224:\n        /* \"#utility.yul\":31830:31834   */\n      0x00\n        /* \"#utility.yul\":31868:31870   */\n      0x20\n        /* \"#utility.yul\":31857:31866   */\n      dup3\n        /* \"#utility.yul\":31853:31871   */\n      add\n        /* \"#utility.yul\":31845:31871   */\n      swap1\n      pop\n        /* \"#utility.yul\":31917:31926   */\n      dup2\n        /* \"#utility.yul\":31911:31915   */\n      dup2\n        /* \"#utility.yul\":31907:31927   */\n      sub\n        /* \"#utility.yul\":31903:31904   */\n      0x00\n        /* \"#utility.yul\":31892:31901   */\n      dup4\n        /* \"#utility.yul\":31888:31905   */\n      add\n        /* \"#utility.yul\":31881:31928   */\n      mstore\n        /* \"#utility.yul\":31945:32076   */\n      tag_589\n        /* \"#utility.yul\":32071:32075   */\n      dup2\n        /* \"#utility.yul\":31945:32076   */\n      tag_294\n      jump\t// in\n    tag_589:\n        /* \"#utility.yul\":31937:32076   */\n      swap1\n      pop\n        /* \"#utility.yul\":31664:32083   */\n      swap2\n      swap1\n      pop\n      jump\t// out\n\n    auxdata: 0xa2646970667358221220ae86146642781ef21433ee7d26ec019cb1d9e579b8ca415c886a2be56ac7adf864736f6c634300081a0033\n}\n",
				"bytecode": {
					"linkReferences": {},
					"object": "608060405234801561000f575f80fd5b50604051612a7a380380612a7a833981810160405281019061003191906101a4565b815f908161003f9190610427565b50806001908161004f9190610427565b5050506104f6565b5f604051905090565b5f80fd5b5f80fd5b5f80fd5b5f80fd5b5f601f19601f8301169050919050565b7f4e487b71000000000000000000000000000000000000000000000000000000005f52604160045260245ffd5b6100b682610070565b810181811067ffffffffffffffff821117156100d5576100d4610080565b5b80604052505050565b5f6100e7610057565b90506100f382826100ad565b919050565b5f67ffffffffffffffff82111561011257610111610080565b5b61011b82610070565b9050602081019050919050565b8281835e5f83830152505050565b5f610148610143846100f8565b6100de565b9050828152602081018484840111156101645761016361006c565b5b61016f848285610128565b509392505050565b5f82601f83011261018b5761018a610068565b5b815161019b848260208601610136565b91505092915050565b5f80604083850312156101ba576101b9610060565b5b5f83015167ffffffffffffffff8111156101d7576101d6610064565b5b6101e385828601610177565b925050602083015167ffffffffffffffff81111561020457610203610064565b5b61021085828601610177565b9150509250929050565b5f81519050919050565b7f4e487b71000000000000000000000000000000000000000000000000000000005f52602260045260245ffd5b5f600282049050600182168061026857607f821691505b60208210810361027b5761027a610224565b5b50919050565b5f819050815f5260205f209050919050565b5f6020601f8301049050919050565b5f82821b905092915050565b5f600883026102dd7fffffffffffffffffffffffffffffffffffffffffffffffffffffffffffffffff826102a2565b6102e786836102a2565b95508019841693508086168417925050509392505050565b5f819050919050565b5f819050919050565b5f61032b610326610321846102ff565b610308565b6102ff565b9050919050565b5f819050919050565b61034483610311565b61035861035082610332565b8484546102ae565b825550505050565b5f90565b61036c610360565b61037781848461033b565b505050565b5b8181101561039a5761038f5f82610364565b60018101905061037d565b5050565b601f8211156103df576103b081610281565b6103b984610293565b810160208510156103c8578190505b6103dc6103d485610293565b83018261037c565b50505b505050565b5f82821c905092915050565b5f6103ff5f19846008026103e4565b1980831691505092915050565b5f61041783836103f0565b9150826002028217905092915050565b6104308261021a565b67ffffffffffffffff81111561044957610448610080565b5b6104538254610251565b61045e82828561039e565b5f60209050601f83116001811461048f575f841561047d578287015190505b610487858261040c565b8655506104ee565b601f19841661049d86610281565b5f5b828110156104c45784890151825560018201915060208501945060208101905061049f565b868310156104e157848901516104dd601f8916826103f0565b8355505b6001600288020188555050505b505050505050565b612577806105035f395ff3fe608060405234801561000f575f80fd5b506004361061009b575f3560e01c80634e1273f4116100645780634e1273f41461016957806395d89b4114610199578063a22cb465146101b7578063e985e9c5146101d3578063f242432a146102035761009b565b8062fdd58e1461009f57806301ffc9a7146100cf57806306fdde03146100ff5780630e89341c1461011d5780632eb2c2d61461014d575b5f80fd5b6100b960048036038101906100b491906114b1565b61021f565b6040516100c691906114fe565b60405180910390f35b6100e960048036038101906100e4919061156c565b610275565b6040516100f691906115b1565b60405180910390f35b6101076103ae565b604051610114919061163a565b60405180910390f35b6101376004803603810190610132919061165a565b610439565b604051610144919061163a565b60405180910390f35b6101676004803603810190610162919061173b565b610495565b005b610183600480360381019061017e9190611867565b6106ee565b604051610190919061199c565b60405180910390f35b6101a1610817565b6040516101ae919061163a565b60405180910390f35b6101d160048036038101906101cc91906119e6565b6108a3565b005b6101ed60048036038101906101e89190611a24565b610a09565b6040516101fa91906115b1565b60405180910390f35b61021d60048036038101906102189190611a62565b610a97565b005b5f60025f8381526020019081526020015f205f8473ffffffffffffffffffffffffffffffffffffffff1673ffffffffffffffffffffffffffffffffffffffff1681526020019081526020015f2054905092915050565b5f7fd9b67a26000000000000000000000000000000000000000000000000000000007bffffffffffffffffffffffffffffffffffffffffffffffffffffffff1916827bffffffffffffffffffffffffffffffffffffffffffffffffffffffff1916148061033f57507f0e89341c000000000000000000000000000000000000000000000000000000007bffffffffffffffffffffffffffffffffffffffffffffffffffffffff1916827bffffffffffffffffffffffffffffffffffffffffffffffffffffffff1916145b806103a757507f01ffc9a7000000000000000000000000000000000000000000000000000000007bffffffffffffffffffffffffffffffffffffffffffffffffffffffff1916827bffffffffffffffffffffffffffffffffffffffffffffffffffffffff1916145b9050919050565b5f80546103ba90611b25565b80601f01602080910402602001604051908101604052809291908181526020018280546103e690611b25565b80156104315780601f1061040857610100808354040283529160200191610431565b820191905f5260205f20905b81548152906001019060200180831161041457829003601f168201915b505050505081565b60605f610444610c00565b90505f8151116104625760405180602001604052805f81525061048d565b8061046c84610c16565b60405160200161047d929190611b8f565b6040516020818303038152906040525b915050919050565b5f3390508873ffffffffffffffffffffffffffffffffffffffff168173ffffffffffffffffffffffffffffffffffffffff1614806104d957506104d8818a610a09565b5b610518576040517f08c379a000000000000000000000000000000000000000000000000000000000815260040161050f90611bfc565b60405180910390fd5b5f73ffffffffffffffffffffffffffffffffffffffff168873ffffffffffffffffffffffffffffffffffffffff1603610586576040517f08c379a000000000000000000000000000000000000000000000000000000000815260040161057d90611c64565b60405180910390fd5b61061289898989808060200260200160405190810160405280939291908181526020018383602002808284375f81840152601f19601f820116905080830192505050505050508888808060200260200160405190810160405280939291908181526020018383602002808284375f81840152601f19601f82011690508083019250505050505050610d6f565b6106e3818a8a8a8a808060200260200160405190810160405280939291908181526020018383602002808284375f81840152601f19601f820116905080830192505050505050508989808060200260200160405190810160405280939291908181526020018383602002808284375f81840152601f19601f8201169050808301925050505050505088888080601f0160208091040260200160405190810160405280939291908181526020018383808284375f81840152601f19601f82011690508083019250505050505050611026565b505050505050505050565b6060828290508585905014610738576040517f08c379a000000000000000000000000000000000000000000000000000000000815260040161072f90611cf2565b60405180910390fd5b5f8585905067ffffffffffffffff81111561075657610755611d10565b5b6040519080825280602002602001820160405280156107845781602001602082028036833780820191505090505b5090505f5b8686905081101561080a576107de8787838181106107aa576107a9611d3d565b5b90506020020160208101906107bf9190611d6a565b8686848181106107d2576107d1611d3d565b5b9050602002013561021f565b8282815181106107f1576107f0611d3d565b5b6020026020010181815250508080600101915050610789565b5080915050949350505050565b6001805461082490611b25565b80601f016020809104026020016040519081016040528092919081815260200182805461085090611b25565b801561089b5780601f106108725761010080835404028352916020019161089b565b820191905f5260205f20905b81548152906001019060200180831161087e57829003601f168201915b505050505081565b8173ffffffffffffffffffffffffffffffffffffffff163373ffffffffffffffffffffffffffffffffffffffff1603610911576040517f08c379a000000000000000000000000000000000000000000000000000000000815260040161090890611ddf565b60405180910390fd5b8060035f3373ffffffffffffffffffffffffffffffffffffffff1673ffffffffffffffffffffffffffffffffffffffff1681526020019081526020015f205f8473ffffffffffffffffffffffffffffffffffffffff1673ffffffffffffffffffffffffffffffffffffffff1681526020019081526020015f205f6101000a81548160ff0219169083151502179055508173ffffffffffffffffffffffffffffffffffffffff163373ffffffffffffffffffffffffffffffffffffffff167f17307eab39ab6107e8899845ad3d59bd9653f200f220920489ca2b5937696c31836040516109fd91906115b1565b60405180910390a35050565b5f60035f8473ffffffffffffffffffffffffffffffffffffffff1673ffffffffffffffffffffffffffffffffffffffff1681526020019081526020015f205f8373ffffffffffffffffffffffffffffffffffffffff1673ffffffffffffffffffffffffffffffffffffffff1681526020019081526020015f205f9054906101000a900460ff16905092915050565b5f3390508673ffffffffffffffffffffffffffffffffffffffff168173ffffffffffffffffffffffffffffffffffffffff161480610adb5750610ada8188610a09565b5b610b1a576040517f08c379a0000000000000000000000000000000000000000000000000000000008152600401610b1190611bfc565b60405180910390fd5b5f73ffffffffffffffffffffffffffffffffffffffff168673ffffffffffffffffffffffffffffffffffffffff1603610b88576040517f08c379a0000000000000000000000000000000000000000000000000000000008152600401610b7f90611c64565b60405180910390fd5b5f80610b9487876111fc565b91509150610ba489898484610d6f565b610bf5838a8a8a8a8a8a8080601f0160208091040260200160405190810160405280939291908181526020018383808284375f81840152601f19601f8201169050808301925050505050505061122c565b505050505050505050565b606060405180602001604052805f815250905090565b60605f8203610c5c576040518060400160405280600181526020017f30000000000000000000000000000000000000000000000000000000000000008152509050610d6a565b5f8290505f5b5f8214610c8b578080610c7490611e2a565b915050600a82610c849190611e9e565b9150610c62565b5f8167ffffffffffffffff811115610ca657610ca5611d10565b5b6040519080825280601f01601f191660200182016040528015610cd85781602001600182028036833780820191505090505b5090505b5f8514610d6357600182610cf09190611ece565b9150600a85610cff9190611f01565b6030610d0b9190611f31565b60f81b818381518110610d2157610d20611d3d565b5b60200101907effffffffffffffffffffffffffffffffffffffffffffffffffffffffffffff191690815f1a905350600a85610d5c9190611e9e565b9450610cdc565b8093505050505b919050565b8051825114610db3576040517f08c379a0000000000000000000000000000000000000000000000000000000008152600401610daa90611fd4565b60405180910390fd5b5f5b825181101561101f575f838281518110610dd257610dd1611d3d565b5b602002602001015190505f838381518110610df057610def611d3d565b5b6020026020010151905080610e05888461021f565b11610e45576040517f08c379a0000000000000000000000000000000000000000000000000000000008152600401610e3c9061203c565b60405180910390fd5b8060025f8481526020019081526020015f205f8973ffffffffffffffffffffffffffffffffffffffff1673ffffffffffffffffffffffffffffffffffffffff1681526020019081526020015f205f82825403925050819055508060025f8481526020019081526020015f205f8873ffffffffffffffffffffffffffffffffffffffff1673ffffffffffffffffffffffffffffffffffffffff1681526020019081526020015f205f828254610ef99190611f31565b925050819055505f3390506001865103610f90578673ffffffffffffffffffffffffffffffffffffffff168873ffffffffffffffffffffffffffffffffffffffff168273ffffffffffffffffffffffffffffffffffffffff167fc3d58168c5ae7397731d063d5bbf3d657854427343f4c083240f7aacaa2d0f628686604051610f8392919061205a565b60405180910390a461100f565b8673ffffffffffffffffffffffffffffffffffffffff168873ffffffffffffffffffffffffffffffffffffffff168273ffffffffffffffffffffffffffffffffffffffff167f4a39dc06d4c0dbc64b70af90fd698a233a518aa5d07e595d983b8c0526c8f7fb8989604051611006929190612081565b60405180910390a45b5050508080600101915050610db5565b5050505050565b6110458473ffffffffffffffffffffffffffffffffffffffff16611402565b156111f4578373ffffffffffffffffffffffffffffffffffffffff1663bc197c8187878686866040518663ffffffff1660e01b815260040161108b959493929190612117565b6020604051808303815f875af19250505080156110c657506040513d601f19601f820116820180604052508101906110c39190612191565b60015b61116b576110d26121c8565b806308c379a00361112e57506110e6612218565b806110f15750611130565b806040517f08c379a0000000000000000000000000000000000000000000000000000000008152600401611125919061163a565b60405180910390fd5b505b6040517f08c379a000000000000000000000000000000000000000000000000000000000815260040161116290612363565b60405180910390fd5b807bffffffffffffffffffffffffffffffffffffffffffffffffffffffff191663bc197c8160e01b7bffffffffffffffffffffffffffffffffffffffffffffffffffffffff1916146111f2576040517f08c379a00000000000000000000000000000000000000000000000000000000081526004016111e9906123f1565b60405180910390fd5b505b505050505050565b60608060405191506001825283602083015260408201905060018152826020820152604081016040529250929050565b61124b8473ffffffffffffffffffffffffffffffffffffffff16611402565b156113fa578373ffffffffffffffffffffffffffffffffffffffff1663f23a6e6187878686866040518663ffffffff1660e01b815260040161129195949392919061240f565b6020604051808303815f875af19250505080156112cc57506040513d601f19601f820116820180604052508101906112c99190612191565b60015b611371576112d86121c8565b806308c379a00361133457506112ec612218565b806112f75750611336565b806040517f08c379a000000000000000000000000000000000000000000000000000000000815260040161132b919061163a565b60405180910390fd5b505b6040517f08c379a000000000000000000000000000000000000000000000000000000000815260040161136890612523565b60405180910390fd5b63f23a6e6160e01b7bffffffffffffffffffffffffffffffffffffffffffffffffffffffff1916817bffffffffffffffffffffffffffffffffffffffffffffffffffffffff1916146113f8576040517f08c379a00000000000000000000000000000000000000000000000000000000081526004016113ef906123f1565b60405180910390fd5b505b505050505050565b5f80823b90505f8111915050919050565b5f604051905090565b5f80fd5b5f80fd5b5f73ffffffffffffffffffffffffffffffffffffffff82169050919050565b5f61144d82611424565b9050919050565b61145d81611443565b8114611467575f80fd5b50565b5f8135905061147881611454565b92915050565b5f819050919050565b6114908161147e565b811461149a575f80fd5b50565b5f813590506114ab81611487565b92915050565b5f80604083850312156114c7576114c661141c565b5b5f6114d48582860161146a565b92505060206114e58582860161149d565b9150509250929050565b6114f88161147e565b82525050565b5f6020820190506115115f8301846114ef565b92915050565b5f7fffffffff0000000000000000000000000000000000000000000000000000000082169050919050565b61154b81611517565b8114611555575f80fd5b50565b5f8135905061156681611542565b92915050565b5f602082840312156115815761158061141c565b5b5f61158e84828501611558565b91505092915050565b5f8115159050919050565b6115ab81611597565b82525050565b5f6020820190506115c45f8301846115a2565b92915050565b5f81519050919050565b5f82825260208201905092915050565b8281835e5f83830152505050565b5f601f19601f8301169050919050565b5f61160c826115ca565b61161681856115d4565b93506116268185602086016115e4565b61162f816115f2565b840191505092915050565b5f6020820190508181035f8301526116528184611602565b905092915050565b5f6020828403121561166f5761166e61141c565b5b5f61167c8482850161149d565b91505092915050565b5f80fd5b5f80fd5b5f80fd5b5f8083601f8401126116a6576116a5611685565b5b8235905067ffffffffffffffff8111156116c3576116c2611689565b5b6020830191508360208202830111156116df576116de61168d565b5b9250929050565b5f8083601f8401126116fb576116fa611685565b5b8235905067ffffffffffffffff81111561171857611717611689565b5b6020830191508360018202830111156117345761173361168d565b5b9250929050565b5f805f805f805f8060a0898b0312156117575761175661141c565b5b5f6117648b828c0161146a565b98505060206117758b828c0161146a565b975050604089013567ffffffffffffffff81111561179657611795611420565b5b6117a28b828c01611691565b9650965050606089013567ffffffffffffffff8111156117c5576117c4611420565b5b6117d18b828c01611691565b9450945050608089013567ffffffffffffffff8111156117f4576117f3611420565b5b6118008b828c016116e6565b92509250509295985092959890939650565b5f8083601f84011261182757611826611685565b5b8235905067ffffffffffffffff81111561184457611843611689565b5b6020830191508360208202830111156118605761185f61168d565b5b9250929050565b5f805f806040858703121561187f5761187e61141c565b5b5f85013567ffffffffffffffff81111561189c5761189b611420565b5b6118a887828801611812565b9450945050602085013567ffffffffffffffff8111156118cb576118ca611420565b5b6118d787828801611691565b925092505092959194509250565b5f81519050919050565b5f82825260208201905092915050565b5f819050602082019050919050565b6119178161147e565b82525050565b5f611928838361190e565b60208301905092915050565b5f602082019050919050565b5f61194a826118e5565b61195481856118ef565b935061195f836118ff565b805f5b8381101561198f578151611976888261191d565b975061198183611934565b925050600181019050611962565b5085935050505092915050565b5f6020820190508181035f8301526119b48184611940565b905092915050565b6119c581611597565b81146119cf575f80fd5b50565b5f813590506119e0816119bc565b92915050565b5f80604083850312156119fc576119fb61141c565b5b5f611a098582860161146a565b9250506020611a1a858286016119d2565b9150509250929050565b5f8060408385031215611a3a57611a3961141c565b5b5f611a478582860161146a565b9250506020611a588582860161146a565b9150509250929050565b5f805f805f8060a08789031215611a7c57611a7b61141c565b5b5f611a8989828a0161146a565b9650506020611a9a89828a0161146a565b9550506040611aab89828a0161149d565b9450506060611abc89828a0161149d565b935050608087013567ffffffffffffffff811115611add57611adc611420565b5b611ae989828a016116e6565b92509250509295509295509295565b7f4e487b71000000000000000000000000000000000000000000000000000000005f52602260045260245ffd5b5f6002820490506001821680611b3c57607f821691505b602082108103611b4f57611b4e611af8565b5b50919050565b5f81905092915050565b5f611b69826115ca565b611b738185611b55565b9350611b838185602086016115e4565b80840191505092915050565b5f611b9a8285611b5f565b9150611ba68284611b5f565b91508190509392505050565b7f4163636573732064656e6965642e0000000000000000000000000000000000005f82015250565b5f611be6600e836115d4565b9150611bf182611bb2565b602082019050919050565b5f6020820190508181035f830152611c1381611bda565b9050919050565b7f60746f602063616e2774206265207a65726f20616464726573730000000000005f82015250565b5f611c4e601a836115d4565b9150611c5982611c1a565b602082019050919050565b5f6020820190508181035f830152611c7b81611c42565b9050919050565b7f455243313135352c20746865206c656e677468206f66206163636f756e7473205f8201527f616e6420696473206973206e6f7420657175616c732e00000000000000000000602082015250565b5f611cdc6036836115d4565b9150611ce782611c82565b604082019050919050565b5f6020820190508181035f830152611d0981611cd0565b9050919050565b7f4e487b71000000000000000000000000000000000000000000000000000000005f52604160045260245ffd5b7f4e487b71000000000000000000000000000000000000000000000000000000005f52603260045260245ffd5b5f60208284031215611d7f57611d7e61141c565b5b5f611d8c8482850161146a565b91505092915050565b7f446f6e277420617070726f76616c20746f20796f757273656c662e00000000005f82015250565b5f611dc9601b836115d4565b9150611dd482611d95565b602082019050919050565b5f6020820190508181035f830152611df681611dbd565b9050919050565b7f4e487b71000000000000000000000000000000000000000000000000000000005f52601160045260245ffd5b5f611e348261147e565b91507fffffffffffffffffffffffffffffffffffffffffffffffffffffffffffffffff8203611e6657611e65611dfd565b5b600182019050919050565b7f4e487b71000000000000000000000000000000000000000000000000000000005f52601260045260245ffd5b5f611ea88261147e565b9150611eb38361147e565b925082611ec357611ec2611e71565b5b828204905092915050565b5f611ed88261147e565b9150611ee38361147e565b9250828203905081811115611efb57611efa611dfd565b5b92915050565b5f611f0b8261147e565b9150611f168361147e565b925082611f2657611f25611e71565b5b828206905092915050565b5f611f3b8261147e565b9150611f468361147e565b9250828201905080821115611f5e57611f5d611dfd565b5b92915050565b7f546865206c656e677468206f662069647320616e6420616d6f756e74732069735f8201527f206e6f7420657175616c2e000000000000000000000000000000000000000000602082015250565b5f611fbe602b836115d4565b9150611fc982611f64565b604082019050919050565b5f6020820190508181035f830152611feb81611fb2565b9050919050565b7f496e73756666696369656e7420746f6b656e2062616c616e63650000000000005f82015250565b5f612026601a836115d4565b915061203182611ff2565b602082019050919050565b5f6020820190508181035f8301526120538161201a565b9050919050565b5f60408201905061206d5f8301856114ef565b61207a60208301846114ef565b9392505050565b5f6040820190508181035f8301526120998185611940565b905081810360208301526120ad8184611940565b90509392505050565b6120bf81611443565b82525050565b5f81519050919050565b5f82825260208201905092915050565b5f6120e9826120c5565b6120f381856120cf565b93506121038185602086016115e4565b61210c816115f2565b840191505092915050565b5f60a08201905061212a5f8301886120b6565b61213760208301876120b6565b81810360408301526121498186611940565b9050818103606083015261215d8185611940565b9050818103608083015261217181846120df565b90509695505050505050565b5f8151905061218b81611542565b92915050565b5f602082840312156121a6576121a561141c565b5b5f6121b38482850161217d565b91505092915050565b5f8160e01c9050919050565b5f60033d11156121e45760045f803e6121e15f516121bc565b90505b90565b6121f0826115f2565b810181811067ffffffffffffffff8211171561220f5761220e611d10565b5b80604052505050565b5f60443d106122a457612229611413565b60043d036004823e80513d602482011167ffffffffffffffff821117156122515750506122a4565b808201805167ffffffffffffffff81111561226f57505050506122a4565b80602083010160043d03850181111561228c5750505050506122a4565b61229b826020018501866121e7565b82955050505050505b90565b7f455243313135353a20546865207472616e73616374696f6e20726563656976655f8201527f7220686173206e6f7420696d706c656d656e746564207468652049455243313160208201527f353552656365697665722e6f6e4572633131353542617463685265636569766560408201527f642066756e6374696f6e2e000000000000000000000000000000000000000000606082015250565b5f61234d606b836115d4565b9150612358826122a7565b608082019050919050565b5f6020820190508181035f83015261237a81612341565b9050919050565b7f455243313135353a204552433131353552656365697665722072656a656374655f8201527f6420746f6b656e73000000000000000000000000000000000000000000000000602082015250565b5f6123db6028836115d4565b91506123e682612381565b604082019050919050565b5f6020820190508181035f830152612408816123cf565b9050919050565b5f60a0820190506124225f8301886120b6565b61242f60208301876120b6565b61243c60408301866114ef565b61244960608301856114ef565b818103608083015261245b81846120df565b90509695505050505050565b7f455243313135353a20546865207472616e73616374696f6e20726563656976655f8201527f7220686173206e6f7420696d706c656d656e746564207468652049455243313160208201527f353552656365697665722e6f6e4572633131353552656365697665642066756e60408201527f6374696f6e2e0000000000000000000000000000000000000000000000000000606082015250565b5f61250d6066836115d4565b915061251882612467565b608082019050919050565b5f6020820190508181035f83015261253a81612501565b905091905056fea2646970667358221220ae86146642781ef21433ee7d26ec019cb1d9e579b8ca415c886a2be56ac7adf864736f6c634300081a0033",
					"opcodes": "PUSH1 0x80 PUSH1 0x40 MSTORE CALLVALUE DUP1 ISZERO PUSH2 0xF JUMPI PUSH0 DUP1 REVERT JUMPDEST POP PUSH1 0x40 MLOAD PUSH2 0x2A7A CODESIZE SUB DUP1 PUSH2 0x2A7A DUP4 CODECOPY DUP2 DUP2 ADD PUSH1 0x40 MSTORE DUP2 ADD SWAP1 PUSH2 0x31 SWAP2 SWAP1 PUSH2 0x1A4 JUMP JUMPDEST DUP2 PUSH0 SWAP1 DUP2 PUSH2 0x3F SWAP2 SWAP1 PUSH2 0x427 JUMP JUMPDEST POP DUP1 PUSH1 0x1 SWAP1 DUP2 PUSH2 0x4F SWAP2 SWAP1 PUSH2 0x427 JUMP JUMPDEST POP POP POP PUSH2 0x4F6 JUMP JUMPDEST PUSH0 PUSH1 0x40 MLOAD SWAP1 POP SWAP1 JUMP JUMPDEST PUSH0 DUP1 REVERT JUMPDEST PUSH0 DUP1 REVERT JUMPDEST PUSH0 DUP1 REVERT JUMPDEST PUSH0 DUP1 REVERT JUMPDEST PUSH0 PUSH1 0x1F NOT PUSH1 0x1F DUP4 ADD AND SWAP1 POP SWAP2 SWAP1 POP JUMP JUMPDEST PUSH32 0x4E487B7100000000000000000000000000000000000000000000000000000000 PUSH0 MSTORE PUSH1 0x41 PUSH1 0x4 MSTORE PUSH1 0x24 PUSH0 REVERT JUMPDEST PUSH2 0xB6 DUP3 PUSH2 0x70 JUMP JUMPDEST DUP2 ADD DUP2 DUP2 LT PUSH8 0xFFFFFFFFFFFFFFFF DUP3 GT OR ISZERO PUSH2 0xD5 JUMPI PUSH2 0xD4 PUSH2 0x80 JUMP JUMPDEST JUMPDEST DUP1 PUSH1 0x40 MSTORE POP POP POP JUMP JUMPDEST PUSH0 PUSH2 0xE7 PUSH2 0x57 JUMP JUMPDEST SWAP1 POP PUSH2 0xF3 DUP3 DUP3 PUSH2 0xAD JUMP JUMPDEST SWAP2 SWAP1 POP JUMP JUMPDEST PUSH0 PUSH8 0xFFFFFFFFFFFFFFFF DUP3 GT ISZERO PUSH2 0x112 JUMPI PUSH2 0x111 PUSH2 0x80 JUMP JUMPDEST JUMPDEST PUSH2 0x11B DUP3 PUSH2 0x70 JUMP JUMPDEST SWAP1 POP PUSH1 0x20 DUP2 ADD SWAP1 POP SWAP2 SWAP1 POP JUMP JUMPDEST DUP3 DUP2 DUP4 MCOPY PUSH0 DUP4 DUP4 ADD MSTORE POP POP POP JUMP JUMPDEST PUSH0 PUSH2 0x148 PUSH2 0x143 DUP5 PUSH2 0xF8 JUMP JUMPDEST PUSH2 0xDE JUMP JUMPDEST SWAP1 POP DUP3 DUP2 MSTORE PUSH1 0x20 DUP2 ADD DUP5 DUP5 DUP5 ADD GT ISZERO PUSH2 0x164 JUMPI PUSH2 0x163 PUSH2 0x6C JUMP JUMPDEST JUMPDEST PUSH2 0x16F DUP5 DUP3 DUP6 PUSH2 0x128 JUMP JUMPDEST POP SWAP4 SWAP3 POP POP POP JUMP JUMPDEST PUSH0 DUP3 PUSH1 0x1F DUP4 ADD SLT PUSH2 0x18B JUMPI PUSH2 0x18A PUSH2 0x68 JUMP JUMPDEST JUMPDEST DUP2 MLOAD PUSH2 0x19B DUP5 DUP3 PUSH1 0x20 DUP7 ADD PUSH2 0x136 JUMP JUMPDEST SWAP2 POP POP SWAP3 SWAP2 POP POP JUMP JUMPDEST PUSH0 DUP1 PUSH1 0x40 DUP4 DUP6 SUB SLT ISZERO PUSH2 0x1BA JUMPI PUSH2 0x1B9 PUSH2 0x60 JUMP JUMPDEST JUMPDEST PUSH0 DUP4 ADD MLOAD PUSH8 0xFFFFFFFFFFFFFFFF DUP2 GT ISZERO PUSH2 0x1D7 JUMPI PUSH2 0x1D6 PUSH2 0x64 JUMP JUMPDEST JUMPDEST PUSH2 0x1E3 DUP6 DUP3 DUP7 ADD PUSH2 0x177 JUMP JUMPDEST SWAP3 POP POP PUSH1 0x20 DUP4 ADD MLOAD PUSH8 0xFFFFFFFFFFFFFFFF DUP2 GT ISZERO PUSH2 0x204 JUMPI PUSH2 0x203 PUSH2 0x64 JUMP JUMPDEST JUMPDEST PUSH2 0x210 DUP6 DUP3 DUP7 ADD PUSH2 0x177 JUMP JUMPDEST SWAP2 POP POP SWAP3 POP SWAP3 SWAP1 POP JUMP JUMPDEST PUSH0 DUP2 MLOAD SWAP1 POP SWAP2 SWAP1 POP JUMP JUMPDEST PUSH32 0x4E487B7100000000000000000000000000000000000000000000000000000000 PUSH0 MSTORE PUSH1 0x22 PUSH1 0x4 MSTORE PUSH1 0x24 PUSH0 REVERT JUMPDEST PUSH0 PUSH1 0x2 DUP3 DIV SWAP1 POP PUSH1 0x1 DUP3 AND DUP1 PUSH2 0x268 JUMPI PUSH1 0x7F DUP3 AND SWAP2 POP JUMPDEST PUSH1 0x20 DUP3 LT DUP2 SUB PUSH2 0x27B JUMPI PUSH2 0x27A PUSH2 0x224 JUMP JUMPDEST JUMPDEST POP SWAP2 SWAP1 POP JUMP JUMPDEST PUSH0 DUP2 SWAP1 POP DUP2 PUSH0 MSTORE PUSH1 0x20 PUSH0 KECCAK256 SWAP1 POP SWAP2 SWAP1 POP JUMP JUMPDEST PUSH0 PUSH1 0x20 PUSH1 0x1F DUP4 ADD DIV SWAP1 POP SWAP2 SWAP1 POP JUMP JUMPDEST PUSH0 DUP3 DUP3 SHL SWAP1 POP SWAP3 SWAP2 POP POP JUMP JUMPDEST PUSH0 PUSH1 0x8 DUP4 MUL PUSH2 0x2DD PUSH32 0xFFFFFFFFFFFFFFFFFFFFFFFFFFFFFFFFFFFFFFFFFFFFFFFFFFFFFFFFFFFFFFFF DUP3 PUSH2 0x2A2 JUMP JUMPDEST PUSH2 0x2E7 DUP7 DUP4 PUSH2 0x2A2 JUMP JUMPDEST SWAP6 POP DUP1 NOT DUP5 AND SWAP4 POP DUP1 DUP7 AND DUP5 OR SWAP3 POP POP POP SWAP4 SWAP3 POP POP POP JUMP JUMPDEST PUSH0 DUP2 SWAP1 POP SWAP2 SWAP1 POP JUMP JUMPDEST PUSH0 DUP2 SWAP1 POP SWAP2 SWAP1 POP JUMP JUMPDEST PUSH0 PUSH2 0x32B PUSH2 0x326 PUSH2 0x321 DUP5 PUSH2 0x2FF JUMP JUMPDEST PUSH2 0x308 JUMP JUMPDEST PUSH2 0x2FF JUMP JUMPDEST SWAP1 POP SWAP2 SWAP1 POP JUMP JUMPDEST PUSH0 DUP2 SWAP1 POP SWAP2 SWAP1 POP JUMP JUMPDEST PUSH2 0x344 DUP4 PUSH2 0x311 JUMP JUMPDEST PUSH2 0x358 PUSH2 0x350 DUP3 PUSH2 0x332 JUMP JUMPDEST DUP5 DUP5 SLOAD PUSH2 0x2AE JUMP JUMPDEST DUP3 SSTORE POP POP POP POP JUMP JUMPDEST PUSH0 SWAP1 JUMP JUMPDEST PUSH2 0x36C PUSH2 0x360 JUMP JUMPDEST PUSH2 0x377 DUP2 DUP5 DUP5 PUSH2 0x33B JUMP JUMPDEST POP POP POP JUMP JUMPDEST JUMPDEST DUP2 DUP2 LT ISZERO PUSH2 0x39A JUMPI PUSH2 0x38F PUSH0 DUP3 PUSH2 0x364 JUMP JUMPDEST PUSH1 0x1 DUP2 ADD SWAP1 POP PUSH2 0x37D JUMP JUMPDEST POP POP JUMP JUMPDEST PUSH1 0x1F DUP3 GT ISZERO PUSH2 0x3DF JUMPI PUSH2 0x3B0 DUP2 PUSH2 0x281 JUMP JUMPDEST PUSH2 0x3B9 DUP5 PUSH2 0x293 JUMP JUMPDEST DUP2 ADD PUSH1 0x20 DUP6 LT ISZERO PUSH2 0x3C8 JUMPI DUP2 SWAP1 POP JUMPDEST PUSH2 0x3DC PUSH2 0x3D4 DUP6 PUSH2 0x293 JUMP JUMPDEST DUP4 ADD DUP3 PUSH2 0x37C JUMP JUMPDEST POP POP JUMPDEST POP POP POP JUMP JUMPDEST PUSH0 DUP3 DUP3 SHR SWAP1 POP SWAP3 SWAP2 POP POP JUMP JUMPDEST PUSH0 PUSH2 0x3FF PUSH0 NOT DUP5 PUSH1 0x8 MUL PUSH2 0x3E4 JUMP JUMPDEST NOT DUP1 DUP4 AND SWAP2 POP POP SWAP3 SWAP2 POP POP JUMP JUMPDEST PUSH0 PUSH2 0x417 DUP4 DUP4 PUSH2 0x3F0 JUMP JUMPDEST SWAP2 POP DUP3 PUSH1 0x2 MUL DUP3 OR SWAP1 POP SWAP3 SWAP2 POP POP JUMP JUMPDEST PUSH2 0x430 DUP3 PUSH2 0x21A JUMP JUMPDEST PUSH8 0xFFFFFFFFFFFFFFFF DUP2 GT ISZERO PUSH2 0x449 JUMPI PUSH2 0x448 PUSH2 0x80 JUMP JUMPDEST JUMPDEST PUSH2 0x453 DUP3 SLOAD PUSH2 0x251 JUMP JUMPDEST PUSH2 0x45E DUP3 DUP3 DUP6 PUSH2 0x39E JUMP JUMPDEST PUSH0 PUSH1 0x20 SWAP1 POP PUSH1 0x1F DUP4 GT PUSH1 0x1 DUP2 EQ PUSH2 0x48F JUMPI PUSH0 DUP5 ISZERO PUSH2 0x47D JUMPI DUP3 DUP8 ADD MLOAD SWAP1 POP JUMPDEST PUSH2 0x487 DUP6 DUP3 PUSH2 0x40C JUMP JUMPDEST DUP7 SSTORE POP PUSH2 0x4EE JUMP JUMPDEST PUSH1 0x1F NOT DUP5 AND PUSH2 0x49D DUP7 PUSH2 0x281 JUMP JUMPDEST PUSH0 JUMPDEST DUP3 DUP2 LT ISZERO PUSH2 0x4C4 JUMPI DUP5 DUP10 ADD MLOAD DUP3 SSTORE PUSH1 0x1 DUP3 ADD SWAP2 POP PUSH1 0x20 DUP6 ADD SWAP5 POP PUSH1 0x20 DUP2 ADD SWAP1 POP PUSH2 0x49F JUMP JUMPDEST DUP7 DUP4 LT ISZERO PUSH2 0x4E1 JUMPI DUP5 DUP10 ADD MLOAD PUSH2 0x4DD PUSH1 0x1F DUP10 AND DUP3 PUSH2 0x3F0 JUMP JUMPDEST DUP4 SSTORE POP JUMPDEST PUSH1 0x1 PUSH1 0x2 DUP9 MUL ADD DUP9 SSTORE POP POP POP JUMPDEST POP POP POP POP POP POP JUMP JUMPDEST PUSH2 0x2577 DUP1 PUSH2 0x503 PUSH0 CODECOPY PUSH0 RETURN INVALID PUSH1 0x80 PUSH1 0x40 MSTORE CALLVALUE DUP1 ISZERO PUSH2 0xF JUMPI PUSH0 DUP1 REVERT JUMPDEST POP PUSH1 0x4 CALLDATASIZE LT PUSH2 0x9B JUMPI PUSH0 CALLDATALOAD PUSH1 0xE0 SHR DUP1 PUSH4 0x4E1273F4 GT PUSH2 0x64 JUMPI DUP1 PUSH4 0x4E1273F4 EQ PUSH2 0x169 JUMPI DUP1 PUSH4 0x95D89B41 EQ PUSH2 0x199 JUMPI DUP1 PUSH4 0xA22CB465 EQ PUSH2 0x1B7 JUMPI DUP1 PUSH4 0xE985E9C5 EQ PUSH2 0x1D3 JUMPI DUP1 PUSH4 0xF242432A EQ PUSH2 0x203 JUMPI PUSH2 0x9B JUMP JUMPDEST DUP1 PUSH3 0xFDD58E EQ PUSH2 0x9F JUMPI DUP1 PUSH4 0x1FFC9A7 EQ PUSH2 0xCF JUMPI DUP1 PUSH4 0x6FDDE03 EQ PUSH2 0xFF JUMPI DUP1 PUSH4 0xE89341C EQ PUSH2 0x11D JUMPI DUP1 PUSH4 0x2EB2C2D6 EQ PUSH2 0x14D JUMPI JUMPDEST PUSH0 DUP1 REVERT JUMPDEST PUSH2 0xB9 PUSH1 0x4 DUP1 CALLDATASIZE SUB DUP2 ADD SWAP1 PUSH2 0xB4 SWAP2 SWAP1 PUSH2 0x14B1 JUMP JUMPDEST PUSH2 0x21F JUMP JUMPDEST PUSH1 0x40 MLOAD PUSH2 0xC6 SWAP2 SWAP1 PUSH2 0x14FE JUMP JUMPDEST PUSH1 0x40 MLOAD DUP1 SWAP2 SUB SWAP1 RETURN JUMPDEST PUSH2 0xE9 PUSH1 0x4 DUP1 CALLDATASIZE SUB DUP2 ADD SWAP1 PUSH2 0xE4 SWAP2 SWAP1 PUSH2 0x156C JUMP JUMPDEST PUSH2 0x275 JUMP JUMPDEST PUSH1 0x40 MLOAD PUSH2 0xF6 SWAP2 SWAP1 PUSH2 0x15B1 JUMP JUMPDEST PUSH1 0x40 MLOAD DUP1 SWAP2 SUB SWAP1 RETURN JUMPDEST PUSH2 0x107 PUSH2 0x3AE JUMP JUMPDEST PUSH1 0x40 MLOAD PUSH2 0x114 SWAP2 SWAP1 PUSH2 0x163A JUMP JUMPDEST PUSH1 0x40 MLOAD DUP1 SWAP2 SUB SWAP1 RETURN JUMPDEST PUSH2 0x137 PUSH1 0x4 DUP1 CALLDATASIZE SUB DUP2 ADD SWAP1 PUSH2 0x132 SWAP2 SWAP1 PUSH2 0x165A JUMP JUMPDEST PUSH2 0x439 JUMP JUMPDEST PUSH1 0x40 MLOAD PUSH2 0x144 SWAP2 SWAP1 PUSH2 0x163A JUMP JUMPDEST PUSH1 0x40 MLOAD DUP1 SWAP2 SUB SWAP1 RETURN JUMPDEST PUSH2 0x167 PUSH1 0x4 DUP1 CALLDATASIZE SUB DUP2 ADD SWAP1 PUSH2 0x162 SWAP2 SWAP1 PUSH2 0x173B JUMP JUMPDEST PUSH2 0x495 JUMP JUMPDEST STOP JUMPDEST PUSH2 0x183 PUSH1 0x4 DUP1 CALLDATASIZE SUB DUP2 ADD SWAP1 PUSH2 0x17E SWAP2 SWAP1 PUSH2 0x1867 JUMP JUMPDEST PUSH2 0x6EE JUMP JUMPDEST PUSH1 0x40 MLOAD PUSH2 0x190 SWAP2 SWAP1 PUSH2 0x199C JUMP JUMPDEST PUSH1 0x40 MLOAD DUP1 SWAP2 SUB SWAP1 RETURN JUMPDEST PUSH2 0x1A1 PUSH2 0x817 JUMP JUMPDEST PUSH1 0x40 MLOAD PUSH2 0x1AE SWAP2 SWAP1 PUSH2 0x163A JUMP JUMPDEST PUSH1 0x40 MLOAD DUP1 SWAP2 SUB SWAP1 RETURN JUMPDEST PUSH2 0x1D1 PUSH1 0x4 DUP1 CALLDATASIZE SUB DUP2 ADD SWAP1 PUSH2 0x1CC SWAP2 SWAP1 PUSH2 0x19E6 JUMP JUMPDEST PUSH2 0x8A3 JUMP JUMPDEST STOP JUMPDEST PUSH2 0x1ED PUSH1 0x4 DUP1 CALLDATASIZE SUB DUP2 ADD SWAP1 PUSH2 0x1E8 SWAP2 SWAP1 PUSH2 0x1A24 JUMP JUMPDEST PUSH2 0xA09 JUMP JUMPDEST PUSH1 0x40 MLOAD PUSH2 0x1FA SWAP2 SWAP1 PUSH2 0x15B1 JUMP JUMPDEST PUSH1 0x40 MLOAD DUP1 SWAP2 SUB SWAP1 RETURN JUMPDEST PUSH2 0x21D PUSH1 0x4 DUP1 CALLDATASIZE SUB DUP2 ADD SWAP1 PUSH2 0x218 SWAP2 SWAP1 PUSH2 0x1A62 JUMP JUMPDEST PUSH2 0xA97 JUMP JUMPDEST STOP JUMPDEST PUSH0 PUSH1 0x2 PUSH0 DUP4 DUP2 MSTORE PUSH1 0x20 ADD SWAP1 DUP2 MSTORE PUSH1 0x20 ADD PUSH0 KECCAK256 PUSH0 DUP5 PUSH20 0xFFFFFFFFFFFFFFFFFFFFFFFFFFFFFFFFFFFFFFFF AND PUSH20 0xFFFFFFFFFFFFFFFFFFFFFFFFFFFFFFFFFFFFFFFF AND DUP2 MSTORE PUSH1 0x20 ADD SWAP1 DUP2 MSTORE PUSH1 0x20 ADD PUSH0 KECCAK256 SLOAD SWAP1 POP SWAP3 SWAP2 POP POP JUMP JUMPDEST PUSH0 PUSH32 0xD9B67A2600000000000000000000000000000000000000000000000000000000 PUSH28 0xFFFFFFFFFFFFFFFFFFFFFFFFFFFFFFFFFFFFFFFFFFFFFFFFFFFFFFFF NOT AND DUP3 PUSH28 0xFFFFFFFFFFFFFFFFFFFFFFFFFFFFFFFFFFFFFFFFFFFFFFFFFFFFFFFF NOT AND EQ DUP1 PUSH2 0x33F JUMPI POP PUSH32 0xE89341C00000000000000000000000000000000000000000000000000000000 PUSH28 0xFFFFFFFFFFFFFFFFFFFFFFFFFFFFFFFFFFFFFFFFFFFFFFFFFFFFFFFF NOT AND DUP3 PUSH28 0xFFFFFFFFFFFFFFFFFFFFFFFFFFFFFFFFFFFFFFFFFFFFFFFFFFFFFFFF NOT AND EQ JUMPDEST DUP1 PUSH2 0x3A7 JUMPI POP PUSH32 0x1FFC9A700000000000000000000000000000000000000000000000000000000 PUSH28 0xFFFFFFFFFFFFFFFFFFFFFFFFFFFFFFFFFFFFFFFFFFFFFFFFFFFFFFFF NOT AND DUP3 PUSH28 0xFFFFFFFFFFFFFFFFFFFFFFFFFFFFFFFFFFFFFFFFFFFFFFFFFFFFFFFF NOT AND EQ JUMPDEST SWAP1 POP SWAP2 SWAP1 POP JUMP JUMPDEST PUSH0 DUP1 SLOAD PUSH2 0x3BA SWAP1 PUSH2 0x1B25 JUMP JUMPDEST DUP1 PUSH1 0x1F ADD PUSH1 0x20 DUP1 SWAP2 DIV MUL PUSH1 0x20 ADD PUSH1 0x40 MLOAD SWAP1 DUP2 ADD PUSH1 0x40 MSTORE DUP1 SWAP3 SWAP2 SWAP1 DUP2 DUP2 MSTORE PUSH1 0x20 ADD DUP3 DUP1 SLOAD PUSH2 0x3E6 SWAP1 PUSH2 0x1B25 JUMP JUMPDEST DUP1 ISZERO PUSH2 0x431 JUMPI DUP1 PUSH1 0x1F LT PUSH2 0x408 JUMPI PUSH2 0x100 DUP1 DUP4 SLOAD DIV MUL DUP4 MSTORE SWAP2 PUSH1 0x20 ADD SWAP2 PUSH2 0x431 JUMP JUMPDEST DUP3 ADD SWAP2 SWAP1 PUSH0 MSTORE PUSH1 0x20 PUSH0 KECCAK256 SWAP1 JUMPDEST DUP2 SLOAD DUP2 MSTORE SWAP1 PUSH1 0x1 ADD SWAP1 PUSH1 0x20 ADD DUP1 DUP4 GT PUSH2 0x414 JUMPI DUP3 SWAP1 SUB PUSH1 0x1F AND DUP3 ADD SWAP2 JUMPDEST POP POP POP POP POP DUP2 JUMP JUMPDEST PUSH1 0x60 PUSH0 PUSH2 0x444 PUSH2 0xC00 JUMP JUMPDEST SWAP1 POP PUSH0 DUP2 MLOAD GT PUSH2 0x462 JUMPI PUSH1 0x40 MLOAD DUP1 PUSH1 0x20 ADD PUSH1 0x40 MSTORE DUP1 PUSH0 DUP2 MSTORE POP PUSH2 0x48D JUMP JUMPDEST DUP1 PUSH2 0x46C DUP5 PUSH2 0xC16 JUMP JUMPDEST PUSH1 0x40 MLOAD PUSH1 0x20 ADD PUSH2 0x47D SWAP3 SWAP2 SWAP1 PUSH2 0x1B8F JUMP JUMPDEST PUSH1 0x40 MLOAD PUSH1 0x20 DUP2 DUP4 SUB SUB DUP2 MSTORE SWAP1 PUSH1 0x40 MSTORE JUMPDEST SWAP2 POP POP SWAP2 SWAP1 POP JUMP JUMPDEST PUSH0 CALLER SWAP1 POP DUP9 PUSH20 0xFFFFFFFFFFFFFFFFFFFFFFFFFFFFFFFFFFFFFFFF AND DUP2 PUSH20 0xFFFFFFFFFFFFFFFFFFFFFFFFFFFFFFFFFFFFFFFF AND EQ DUP1 PUSH2 0x4D9 JUMPI POP PUSH2 0x4D8 DUP2 DUP11 PUSH2 0xA09 JUMP JUMPDEST JUMPDEST PUSH2 0x518 JUMPI PUSH1 0x40 MLOAD PUSH32 0x8C379A000000000000000000000000000000000000000000000000000000000 DUP2 MSTORE PUSH1 0x4 ADD PUSH2 0x50F SWAP1 PUSH2 0x1BFC JUMP JUMPDEST PUSH1 0x40 MLOAD DUP1 SWAP2 SUB SWAP1 REVERT JUMPDEST PUSH0 PUSH20 0xFFFFFFFFFFFFFFFFFFFFFFFFFFFFFFFFFFFFFFFF AND DUP9 PUSH20 0xFFFFFFFFFFFFFFFFFFFFFFFFFFFFFFFFFFFFFFFF AND SUB PUSH2 0x586 JUMPI PUSH1 0x40 MLOAD PUSH32 0x8C379A000000000000000000000000000000000000000000000000000000000 DUP2 MSTORE PUSH1 0x4 ADD PUSH2 0x57D SWAP1 PUSH2 0x1C64 JUMP JUMPDEST PUSH1 0x40 MLOAD DUP1 SWAP2 SUB SWAP1 REVERT JUMPDEST PUSH2 0x612 DUP10 DUP10 DUP10 DUP10 DUP1 DUP1 PUSH1 0x20 MUL PUSH1 0x20 ADD PUSH1 0x40 MLOAD SWAP1 DUP2 ADD PUSH1 0x40 MSTORE DUP1 SWAP4 SWAP3 SWAP2 SWAP1 DUP2 DUP2 MSTORE PUSH1 0x20 ADD DUP4 DUP4 PUSH1 0x20 MUL DUP1 DUP3 DUP5 CALLDATACOPY PUSH0 DUP2 DUP5 ADD MSTORE PUSH1 0x1F NOT PUSH1 0x1F DUP3 ADD AND SWAP1 POP DUP1 DUP4 ADD SWAP3 POP POP POP POP POP POP POP DUP9 DUP9 DUP1 DUP1 PUSH1 0x20 MUL PUSH1 0x20 ADD PUSH1 0x40 MLOAD SWAP1 DUP2 ADD PUSH1 0x40 MSTORE DUP1 SWAP4 SWAP3 SWAP2 SWAP1 DUP2 DUP2 MSTORE PUSH1 0x20 ADD DUP4 DUP4 PUSH1 0x20 MUL DUP1 DUP3 DUP5 CALLDATACOPY PUSH0 DUP2 DUP5 ADD MSTORE PUSH1 0x1F NOT PUSH1 0x1F DUP3 ADD AND SWAP1 POP DUP1 DUP4 ADD SWAP3 POP POP POP POP POP POP POP PUSH2 0xD6F JUMP JUMPDEST PUSH2 0x6E3 DUP2 DUP11 DUP11 DUP11 DUP11 DUP1 DUP1 PUSH1 0x20 MUL PUSH1 0x20 ADD PUSH1 0x40 MLOAD SWAP1 DUP2 ADD PUSH1 0x40 MSTORE DUP1 SWAP4 SWAP3 SWAP2 SWAP1 DUP2 DUP2 MSTORE PUSH1 0x20 ADD DUP4 DUP4 PUSH1 0x20 MUL DUP1 DUP3 DUP5 CALLDATACOPY PUSH0 DUP2 DUP5 ADD MSTORE PUSH1 0x1F NOT PUSH1 0x1F DUP3 ADD AND SWAP1 POP DUP1 DUP4 ADD SWAP3 POP POP POP POP POP POP POP DUP10 DUP10 DUP1 DUP1 PUSH1 0x20 MUL PUSH1 0x20 ADD PUSH1 0x40 MLOAD SWAP1 DUP2 ADD PUSH1 0x40 MSTORE DUP1 SWAP4 SWAP3 SWAP2 SWAP1 DUP2 DUP2 MSTORE PUSH1 0x20 ADD DUP4 DUP4 PUSH1 0x20 MUL DUP1 DUP3 DUP5 CALLDATACOPY PUSH0 DUP2 DUP5 ADD MSTORE PUSH1 0x1F NOT PUSH1 0x1F DUP3 ADD AND SWAP1 POP DUP1 DUP4 ADD SWAP3 POP POP POP POP POP POP POP DUP9 DUP9 DUP1 DUP1 PUSH1 0x1F ADD PUSH1 0x20 DUP1 SWAP2 DIV MUL PUSH1 0x20 ADD PUSH1 0x40 MLOAD SWAP1 DUP2 ADD PUSH1 0x40 MSTORE DUP1 SWAP4 SWAP3 SWAP2 SWAP1 DUP2 DUP2 MSTORE PUSH1 0x20 ADD DUP4 DUP4 DUP1 DUP3 DUP5 CALLDATACOPY PUSH0 DUP2 DUP5 ADD MSTORE PUSH1 0x1F NOT PUSH1 0x1F DUP3 ADD AND SWAP1 POP DUP1 DUP4 ADD SWAP3 POP POP POP POP POP POP POP PUSH2 0x1026 JUMP JUMPDEST POP POP POP POP POP POP POP POP POP JUMP JUMPDEST PUSH1 0x60 DUP3 DUP3 SWAP1 POP DUP6 DUP6 SWAP1 POP EQ PUSH2 0x738 JUMPI PUSH1 0x40 MLOAD PUSH32 0x8C379A000000000000000000000000000000000000000000000000000000000 DUP2 MSTORE PUSH1 0x4 ADD PUSH2 0x72F SWAP1 PUSH2 0x1CF2 JUMP JUMPDEST PUSH1 0x40 MLOAD DUP1 SWAP2 SUB SWAP1 REVERT JUMPDEST PUSH0 DUP6 DUP6 SWAP1 POP PUSH8 0xFFFFFFFFFFFFFFFF DUP2 GT ISZERO PUSH2 0x756 JUMPI PUSH2 0x755 PUSH2 0x1D10 JUMP JUMPDEST JUMPDEST PUSH1 0x40 MLOAD SWAP1 DUP1 DUP3 MSTORE DUP1 PUSH1 0x20 MUL PUSH1 0x20 ADD DUP3 ADD PUSH1 0x40 MSTORE DUP1 ISZERO PUSH2 0x784 JUMPI DUP2 PUSH1 0x20 ADD PUSH1 0x20 DUP3 MUL DUP1 CALLDATASIZE DUP4 CALLDATACOPY DUP1 DUP3 ADD SWAP2 POP POP SWAP1 POP JUMPDEST POP SWAP1 POP PUSH0 JUMPDEST DUP7 DUP7 SWAP1 POP DUP2 LT ISZERO PUSH2 0x80A JUMPI PUSH2 0x7DE DUP8 DUP8 DUP4 DUP2 DUP2 LT PUSH2 0x7AA JUMPI PUSH2 0x7A9 PUSH2 0x1D3D JUMP JUMPDEST JUMPDEST SWAP1 POP PUSH1 0x20 MUL ADD PUSH1 0x20 DUP2 ADD SWAP1 PUSH2 0x7BF SWAP2 SWAP1 PUSH2 0x1D6A JUMP JUMPDEST DUP7 DUP7 DUP5 DUP2 DUP2 LT PUSH2 0x7D2 JUMPI PUSH2 0x7D1 PUSH2 0x1D3D JUMP JUMPDEST JUMPDEST SWAP1 POP PUSH1 0x20 MUL ADD CALLDATALOAD PUSH2 0x21F JUMP JUMPDEST DUP3 DUP3 DUP2 MLOAD DUP2 LT PUSH2 0x7F1 JUMPI PUSH2 0x7F0 PUSH2 0x1D3D JUMP JUMPDEST JUMPDEST PUSH1 0x20 MUL PUSH1 0x20 ADD ADD DUP2 DUP2 MSTORE POP POP DUP1 DUP1 PUSH1 0x1 ADD SWAP2 POP POP PUSH2 0x789 JUMP JUMPDEST POP DUP1 SWAP2 POP POP SWAP5 SWAP4 POP POP POP POP JUMP JUMPDEST PUSH1 0x1 DUP1 SLOAD PUSH2 0x824 SWAP1 PUSH2 0x1B25 JUMP JUMPDEST DUP1 PUSH1 0x1F ADD PUSH1 0x20 DUP1 SWAP2 DIV MUL PUSH1 0x20 ADD PUSH1 0x40 MLOAD SWAP1 DUP2 ADD PUSH1 0x40 MSTORE DUP1 SWAP3 SWAP2 SWAP1 DUP2 DUP2 MSTORE PUSH1 0x20 ADD DUP3 DUP1 SLOAD PUSH2 0x850 SWAP1 PUSH2 0x1B25 JUMP JUMPDEST DUP1 ISZERO PUSH2 0x89B JUMPI DUP1 PUSH1 0x1F LT PUSH2 0x872 JUMPI PUSH2 0x100 DUP1 DUP4 SLOAD DIV MUL DUP4 MSTORE SWAP2 PUSH1 0x20 ADD SWAP2 PUSH2 0x89B JUMP JUMPDEST DUP3 ADD SWAP2 SWAP1 PUSH0 MSTORE PUSH1 0x20 PUSH0 KECCAK256 SWAP1 JUMPDEST DUP2 SLOAD DUP2 MSTORE SWAP1 PUSH1 0x1 ADD SWAP1 PUSH1 0x20 ADD DUP1 DUP4 GT PUSH2 0x87E JUMPI DUP3 SWAP1 SUB PUSH1 0x1F AND DUP3 ADD SWAP2 JUMPDEST POP POP POP POP POP DUP2 JUMP JUMPDEST DUP2 PUSH20 0xFFFFFFFFFFFFFFFFFFFFFFFFFFFFFFFFFFFFFFFF AND CALLER PUSH20 0xFFFFFFFFFFFFFFFFFFFFFFFFFFFFFFFFFFFFFFFF AND SUB PUSH2 0x911 JUMPI PUSH1 0x40 MLOAD PUSH32 0x8C379A000000000000000000000000000000000000000000000000000000000 DUP2 MSTORE PUSH1 0x4 ADD PUSH2 0x908 SWAP1 PUSH2 0x1DDF JUMP JUMPDEST PUSH1 0x40 MLOAD DUP1 SWAP2 SUB SWAP1 REVERT JUMPDEST DUP1 PUSH1 0x3 PUSH0 CALLER PUSH20 0xFFFFFFFFFFFFFFFFFFFFFFFFFFFFFFFFFFFFFFFF AND PUSH20 0xFFFFFFFFFFFFFFFFFFFFFFFFFFFFFFFFFFFFFFFF AND DUP2 MSTORE PUSH1 0x20 ADD SWAP1 DUP2 MSTORE PUSH1 0x20 ADD PUSH0 KECCAK256 PUSH0 DUP5 PUSH20 0xFFFFFFFFFFFFFFFFFFFFFFFFFFFFFFFFFFFFFFFF AND PUSH20 0xFFFFFFFFFFFFFFFFFFFFFFFFFFFFFFFFFFFFFFFF AND DUP2 MSTORE PUSH1 0x20 ADD SWAP1 DUP2 MSTORE PUSH1 0x20 ADD PUSH0 KECCAK256 PUSH0 PUSH2 0x100 EXP DUP2 SLOAD DUP2 PUSH1 0xFF MUL NOT AND SWAP1 DUP4 ISZERO ISZERO MUL OR SWAP1 SSTORE POP DUP2 PUSH20 0xFFFFFFFFFFFFFFFFFFFFFFFFFFFFFFFFFFFFFFFF AND CALLER PUSH20 0xFFFFFFFFFFFFFFFFFFFFFFFFFFFFFFFFFFFFFFFF AND PUSH32 0x17307EAB39AB6107E8899845AD3D59BD9653F200F220920489CA2B5937696C31 DUP4 PUSH1 0x40 MLOAD PUSH2 0x9FD SWAP2 SWAP1 PUSH2 0x15B1 JUMP JUMPDEST PUSH1 0x40 MLOAD DUP1 SWAP2 SUB SWAP1 LOG3 POP POP JUMP JUMPDEST PUSH0 PUSH1 0x3 PUSH0 DUP5 PUSH20 0xFFFFFFFFFFFFFFFFFFFFFFFFFFFFFFFFFFFFFFFF AND PUSH20 0xFFFFFFFFFFFFFFFFFFFFFFFFFFFFFFFFFFFFFFFF AND DUP2 MSTORE PUSH1 0x20 ADD SWAP1 DUP2 MSTORE PUSH1 0x20 ADD PUSH0 KECCAK256 PUSH0 DUP4 PUSH20 0xFFFFFFFFFFFFFFFFFFFFFFFFFFFFFFFFFFFFFFFF AND PUSH20 0xFFFFFFFFFFFFFFFFFFFFFFFFFFFFFFFFFFFFFFFF AND DUP2 MSTORE PUSH1 0x20 ADD SWAP1 DUP2 MSTORE PUSH1 0x20 ADD PUSH0 KECCAK256 PUSH0 SWAP1 SLOAD SWAP1 PUSH2 0x100 EXP SWAP1 DIV PUSH1 0xFF AND SWAP1 POP SWAP3 SWAP2 POP POP JUMP JUMPDEST PUSH0 CALLER SWAP1 POP DUP7 PUSH20 0xFFFFFFFFFFFFFFFFFFFFFFFFFFFFFFFFFFFFFFFF AND DUP2 PUSH20 0xFFFFFFFFFFFFFFFFFFFFFFFFFFFFFFFFFFFFFFFF AND EQ DUP1 PUSH2 0xADB JUMPI POP PUSH2 0xADA DUP2 DUP9 PUSH2 0xA09 JUMP JUMPDEST JUMPDEST PUSH2 0xB1A JUMPI PUSH1 0x40 MLOAD PUSH32 0x8C379A000000000000000000000000000000000000000000000000000000000 DUP2 MSTORE PUSH1 0x4 ADD PUSH2 0xB11 SWAP1 PUSH2 0x1BFC JUMP JUMPDEST PUSH1 0x40 MLOAD DUP1 SWAP2 SUB SWAP1 REVERT JUMPDEST PUSH0 PUSH20 0xFFFFFFFFFFFFFFFFFFFFFFFFFFFFFFFFFFFFFFFF AND DUP7 PUSH20 0xFFFFFFFFFFFFFFFFFFFFFFFFFFFFFFFFFFFFFFFF AND SUB PUSH2 0xB88 JUMPI PUSH1 0x40 MLOAD PUSH32 0x8C379A000000000000000000000000000000000000000000000000000000000 DUP2 MSTORE PUSH1 0x4 ADD PUSH2 0xB7F SWAP1 PUSH2 0x1C64 JUMP JUMPDEST PUSH1 0x40 MLOAD DUP1 SWAP2 SUB SWAP1 REVERT JUMPDEST PUSH0 DUP1 PUSH2 0xB94 DUP8 DUP8 PUSH2 0x11FC JUMP JUMPDEST SWAP2 POP SWAP2 POP PUSH2 0xBA4 DUP10 DUP10 DUP5 DUP5 PUSH2 0xD6F JUMP JUMPDEST PUSH2 0xBF5 DUP4 DUP11 DUP11 DUP11 DUP11 DUP11 DUP11 DUP1 DUP1 PUSH1 0x1F ADD PUSH1 0x20 DUP1 SWAP2 DIV MUL PUSH1 0x20 ADD PUSH1 0x40 MLOAD SWAP1 DUP2 ADD PUSH1 0x40 MSTORE DUP1 SWAP4 SWAP3 SWAP2 SWAP1 DUP2 DUP2 MSTORE PUSH1 0x20 ADD DUP4 DUP4 DUP1 DUP3 DUP5 CALLDATACOPY PUSH0 DUP2 DUP5 ADD MSTORE PUSH1 0x1F NOT PUSH1 0x1F DUP3 ADD AND SWAP1 POP DUP1 DUP4 ADD SWAP3 POP POP POP POP POP POP POP PUSH2 0x122C JUMP JUMPDEST POP POP POP POP POP POP POP POP POP JUMP JUMPDEST PUSH1 0x60 PUSH1 0x40 MLOAD DUP1 PUSH1 0x20 ADD PUSH1 0x40 MSTORE DUP1 PUSH0 DUP2 MSTORE POP SWAP1 POP SWAP1 JUMP JUMPDEST PUSH1 0x60 PUSH0 DUP3 SUB PUSH2 0xC5C JUMPI PUSH1 0x40 MLOAD DUP1 PUSH1 0x40 ADD PUSH1 0x40 MSTORE DUP1 PUSH1 0x1 DUP2 MSTORE PUSH1 0x20 ADD PUSH32 0x3000000000000000000000000000000000000000000000000000000000000000 DUP2 MSTORE POP SWAP1 POP PUSH2 0xD6A JUMP JUMPDEST PUSH0 DUP3 SWAP1 POP PUSH0 JUMPDEST PUSH0 DUP3 EQ PUSH2 0xC8B JUMPI DUP1 DUP1 PUSH2 0xC74 SWAP1 PUSH2 0x1E2A JUMP JUMPDEST SWAP2 POP POP PUSH1 0xA DUP3 PUSH2 0xC84 SWAP2 SWAP1 PUSH2 0x1E9E JUMP JUMPDEST SWAP2 POP PUSH2 0xC62 JUMP JUMPDEST PUSH0 DUP2 PUSH8 0xFFFFFFFFFFFFFFFF DUP2 GT ISZERO PUSH2 0xCA6 JUMPI PUSH2 0xCA5 PUSH2 0x1D10 JUMP JUMPDEST JUMPDEST PUSH1 0x40 MLOAD SWAP1 DUP1 DUP3 MSTORE DUP1 PUSH1 0x1F ADD PUSH1 0x1F NOT AND PUSH1 0x20 ADD DUP3 ADD PUSH1 0x40 MSTORE DUP1 ISZERO PUSH2 0xCD8 JUMPI DUP2 PUSH1 0x20 ADD PUSH1 0x1 DUP3 MUL DUP1 CALLDATASIZE DUP4 CALLDATACOPY DUP1 DUP3 ADD SWAP2 POP POP SWAP1 POP JUMPDEST POP SWAP1 POP JUMPDEST PUSH0 DUP6 EQ PUSH2 0xD63 JUMPI PUSH1 0x1 DUP3 PUSH2 0xCF0 SWAP2 SWAP1 PUSH2 0x1ECE JUMP JUMPDEST SWAP2 POP PUSH1 0xA DUP6 PUSH2 0xCFF SWAP2 SWAP1 PUSH2 0x1F01 JUMP JUMPDEST PUSH1 0x30 PUSH2 0xD0B SWAP2 SWAP1 PUSH2 0x1F31 JUMP JUMPDEST PUSH1 0xF8 SHL DUP2 DUP4 DUP2 MLOAD DUP2 LT PUSH2 0xD21 JUMPI PUSH2 0xD20 PUSH2 0x1D3D JUMP JUMPDEST JUMPDEST PUSH1 0x20 ADD ADD SWAP1 PUSH31 0xFFFFFFFFFFFFFFFFFFFFFFFFFFFFFFFFFFFFFFFFFFFFFFFFFFFFFFFFFFFFFF NOT AND SWAP1 DUP2 PUSH0 BYTE SWAP1 MSTORE8 POP PUSH1 0xA DUP6 PUSH2 0xD5C SWAP2 SWAP1 PUSH2 0x1E9E JUMP JUMPDEST SWAP5 POP PUSH2 0xCDC JUMP JUMPDEST DUP1 SWAP4 POP POP POP POP JUMPDEST SWAP2 SWAP1 POP JUMP JUMPDEST DUP1 MLOAD DUP3 MLOAD EQ PUSH2 0xDB3 JUMPI PUSH1 0x40 MLOAD PUSH32 0x8C379A000000000000000000000000000000000000000000000000000000000 DUP2 MSTORE PUSH1 0x4 ADD PUSH2 0xDAA SWAP1 PUSH2 0x1FD4 JUMP JUMPDEST PUSH1 0x40 MLOAD DUP1 SWAP2 SUB SWAP1 REVERT JUMPDEST PUSH0 JUMPDEST DUP3 MLOAD DUP2 LT ISZERO PUSH2 0x101F JUMPI PUSH0 DUP4 DUP3 DUP2 MLOAD DUP2 LT PUSH2 0xDD2 JUMPI PUSH2 0xDD1 PUSH2 0x1D3D JUMP JUMPDEST JUMPDEST PUSH1 0x20 MUL PUSH1 0x20 ADD ADD MLOAD SWAP1 POP PUSH0 DUP4 DUP4 DUP2 MLOAD DUP2 LT PUSH2 0xDF0 JUMPI PUSH2 0xDEF PUSH2 0x1D3D JUMP JUMPDEST JUMPDEST PUSH1 0x20 MUL PUSH1 0x20 ADD ADD MLOAD SWAP1 POP DUP1 PUSH2 0xE05 DUP9 DUP5 PUSH2 0x21F JUMP JUMPDEST GT PUSH2 0xE45 JUMPI PUSH1 0x40 MLOAD PUSH32 0x8C379A000000000000000000000000000000000000000000000000000000000 DUP2 MSTORE PUSH1 0x4 ADD PUSH2 0xE3C SWAP1 PUSH2 0x203C JUMP JUMPDEST PUSH1 0x40 MLOAD DUP1 SWAP2 SUB SWAP1 REVERT JUMPDEST DUP1 PUSH1 0x2 PUSH0 DUP5 DUP2 MSTORE PUSH1 0x20 ADD SWAP1 DUP2 MSTORE PUSH1 0x20 ADD PUSH0 KECCAK256 PUSH0 DUP10 PUSH20 0xFFFFFFFFFFFFFFFFFFFFFFFFFFFFFFFFFFFFFFFF AND PUSH20 0xFFFFFFFFFFFFFFFFFFFFFFFFFFFFFFFFFFFFFFFF AND DUP2 MSTORE PUSH1 0x20 ADD SWAP1 DUP2 MSTORE PUSH1 0x20 ADD PUSH0 KECCAK256 PUSH0 DUP3 DUP3 SLOAD SUB SWAP3 POP POP DUP2 SWAP1 SSTORE POP DUP1 PUSH1 0x2 PUSH0 DUP5 DUP2 MSTORE PUSH1 0x20 ADD SWAP1 DUP2 MSTORE PUSH1 0x20 ADD PUSH0 KECCAK256 PUSH0 DUP9 PUSH20 0xFFFFFFFFFFFFFFFFFFFFFFFFFFFFFFFFFFFFFFFF AND PUSH20 0xFFFFFFFFFFFFFFFFFFFFFFFFFFFFFFFFFFFFFFFF AND DUP2 MSTORE PUSH1 0x20 ADD SWAP1 DUP2 MSTORE PUSH1 0x20 ADD PUSH0 KECCAK256 PUSH0 DUP3 DUP3 SLOAD PUSH2 0xEF9 SWAP2 SWAP1 PUSH2 0x1F31 JUMP JUMPDEST SWAP3 POP POP DUP2 SWAP1 SSTORE POP PUSH0 CALLER SWAP1 POP PUSH1 0x1 DUP7 MLOAD SUB PUSH2 0xF90 JUMPI DUP7 PUSH20 0xFFFFFFFFFFFFFFFFFFFFFFFFFFFFFFFFFFFFFFFF AND DUP9 PUSH20 0xFFFFFFFFFFFFFFFFFFFFFFFFFFFFFFFFFFFFFFFF AND DUP3 PUSH20 0xFFFFFFFFFFFFFFFFFFFFFFFFFFFFFFFFFFFFFFFF AND PUSH32 0xC3D58168C5AE7397731D063D5BBF3D657854427343F4C083240F7AACAA2D0F62 DUP7 DUP7 PUSH1 0x40 MLOAD PUSH2 0xF83 SWAP3 SWAP2 SWAP1 PUSH2 0x205A JUMP JUMPDEST PUSH1 0x40 MLOAD DUP1 SWAP2 SUB SWAP1 LOG4 PUSH2 0x100F JUMP JUMPDEST DUP7 PUSH20 0xFFFFFFFFFFFFFFFFFFFFFFFFFFFFFFFFFFFFFFFF AND DUP9 PUSH20 0xFFFFFFFFFFFFFFFFFFFFFFFFFFFFFFFFFFFFFFFF AND DUP3 PUSH20 0xFFFFFFFFFFFFFFFFFFFFFFFFFFFFFFFFFFFFFFFF AND PUSH32 0x4A39DC06D4C0DBC64B70AF90FD698A233A518AA5D07E595D983B8C0526C8F7FB DUP10 DUP10 PUSH1 0x40 MLOAD PUSH2 0x1006 SWAP3 SWAP2 SWAP1 PUSH2 0x2081 JUMP JUMPDEST PUSH1 0x40 MLOAD DUP1 SWAP2 SUB SWAP1 LOG4 JUMPDEST POP POP POP DUP1 DUP1 PUSH1 0x1 ADD SWAP2 POP POP PUSH2 0xDB5 JUMP JUMPDEST POP POP POP POP POP JUMP JUMPDEST PUSH2 0x1045 DUP5 PUSH20 0xFFFFFFFFFFFFFFFFFFFFFFFFFFFFFFFFFFFFFFFF AND PUSH2 0x1402 JUMP JUMPDEST ISZERO PUSH2 0x11F4 JUMPI DUP4 PUSH20 0xFFFFFFFFFFFFFFFFFFFFFFFFFFFFFFFFFFFFFFFF AND PUSH4 0xBC197C81 DUP8 DUP8 DUP7 DUP7 DUP7 PUSH1 0x40 MLOAD DUP7 PUSH4 0xFFFFFFFF AND PUSH1 0xE0 SHL DUP2 MSTORE PUSH1 0x4 ADD PUSH2 0x108B SWAP6 SWAP5 SWAP4 SWAP3 SWAP2 SWAP1 PUSH2 0x2117 JUMP JUMPDEST PUSH1 0x20 PUSH1 0x40 MLOAD DUP1 DUP4 SUB DUP2 PUSH0 DUP8 GAS CALL SWAP3 POP POP POP DUP1 ISZERO PUSH2 0x10C6 JUMPI POP PUSH1 0x40 MLOAD RETURNDATASIZE PUSH1 0x1F NOT PUSH1 0x1F DUP3 ADD AND DUP3 ADD DUP1 PUSH1 0x40 MSTORE POP DUP2 ADD SWAP1 PUSH2 0x10C3 SWAP2 SWAP1 PUSH2 0x2191 JUMP JUMPDEST PUSH1 0x1 JUMPDEST PUSH2 0x116B JUMPI PUSH2 0x10D2 PUSH2 0x21C8 JUMP JUMPDEST DUP1 PUSH4 0x8C379A0 SUB PUSH2 0x112E JUMPI POP PUSH2 0x10E6 PUSH2 0x2218 JUMP JUMPDEST DUP1 PUSH2 0x10F1 JUMPI POP PUSH2 0x1130 JUMP JUMPDEST DUP1 PUSH1 0x40 MLOAD PUSH32 0x8C379A000000000000000000000000000000000000000000000000000000000 DUP2 MSTORE PUSH1 0x4 ADD PUSH2 0x1125 SWAP2 SWAP1 PUSH2 0x163A JUMP JUMPDEST PUSH1 0x40 MLOAD DUP1 SWAP2 SUB SWAP1 REVERT JUMPDEST POP JUMPDEST PUSH1 0x40 MLOAD PUSH32 0x8C379A000000000000000000000000000000000000000000000000000000000 DUP2 MSTORE PUSH1 0x4 ADD PUSH2 0x1162 SWAP1 PUSH2 0x2363 JUMP JUMPDEST PUSH1 0x40 MLOAD DUP1 SWAP2 SUB SWAP1 REVERT JUMPDEST DUP1 PUSH28 0xFFFFFFFFFFFFFFFFFFFFFFFFFFFFFFFFFFFFFFFFFFFFFFFFFFFFFFFF NOT AND PUSH4 0xBC197C81 PUSH1 0xE0 SHL PUSH28 0xFFFFFFFFFFFFFFFFFFFFFFFFFFFFFFFFFFFFFFFFFFFFFFFFFFFFFFFF NOT AND EQ PUSH2 0x11F2 JUMPI PUSH1 0x40 MLOAD PUSH32 0x8C379A000000000000000000000000000000000000000000000000000000000 DUP2 MSTORE PUSH1 0x4 ADD PUSH2 0x11E9 SWAP1 PUSH2 0x23F1 JUMP JUMPDEST PUSH1 0x40 MLOAD DUP1 SWAP2 SUB SWAP1 REVERT JUMPDEST POP JUMPDEST POP POP POP POP POP POP JUMP JUMPDEST PUSH1 0x60 DUP1 PUSH1 0x40 MLOAD SWAP2 POP PUSH1 0x1 DUP3 MSTORE DUP4 PUSH1 0x20 DUP4 ADD MSTORE PUSH1 0x40 DUP3 ADD SWAP1 POP PUSH1 0x1 DUP2 MSTORE DUP3 PUSH1 0x20 DUP3 ADD MSTORE PUSH1 0x40 DUP2 ADD PUSH1 0x40 MSTORE SWAP3 POP SWAP3 SWAP1 POP JUMP JUMPDEST PUSH2 0x124B DUP5 PUSH20 0xFFFFFFFFFFFFFFFFFFFFFFFFFFFFFFFFFFFFFFFF AND PUSH2 0x1402 JUMP JUMPDEST ISZERO PUSH2 0x13FA JUMPI DUP4 PUSH20 0xFFFFFFFFFFFFFFFFFFFFFFFFFFFFFFFFFFFFFFFF AND PUSH4 0xF23A6E61 DUP8 DUP8 DUP7 DUP7 DUP7 PUSH1 0x40 MLOAD DUP7 PUSH4 0xFFFFFFFF AND PUSH1 0xE0 SHL DUP2 MSTORE PUSH1 0x4 ADD PUSH2 0x1291 SWAP6 SWAP5 SWAP4 SWAP3 SWAP2 SWAP1 PUSH2 0x240F JUMP JUMPDEST PUSH1 0x20 PUSH1 0x40 MLOAD DUP1 DUP4 SUB DUP2 PUSH0 DUP8 GAS CALL SWAP3 POP POP POP DUP1 ISZERO PUSH2 0x12CC JUMPI POP PUSH1 0x40 MLOAD RETURNDATASIZE PUSH1 0x1F NOT PUSH1 0x1F DUP3 ADD AND DUP3 ADD DUP1 PUSH1 0x40 MSTORE POP DUP2 ADD SWAP1 PUSH2 0x12C9 SWAP2 SWAP1 PUSH2 0x2191 JUMP JUMPDEST PUSH1 0x1 JUMPDEST PUSH2 0x1371 JUMPI PUSH2 0x12D8 PUSH2 0x21C8 JUMP JUMPDEST DUP1 PUSH4 0x8C379A0 SUB PUSH2 0x1334 JUMPI POP PUSH2 0x12EC PUSH2 0x2218 JUMP JUMPDEST DUP1 PUSH2 0x12F7 JUMPI POP PUSH2 0x1336 JUMP JUMPDEST DUP1 PUSH1 0x40 MLOAD PUSH32 0x8C379A000000000000000000000000000000000000000000000000000000000 DUP2 MSTORE PUSH1 0x4 ADD PUSH2 0x132B SWAP2 SWAP1 PUSH2 0x163A JUMP JUMPDEST PUSH1 0x40 MLOAD DUP1 SWAP2 SUB SWAP1 REVERT JUMPDEST POP JUMPDEST PUSH1 0x40 MLOAD PUSH32 0x8C379A000000000000000000000000000000000000000000000000000000000 DUP2 MSTORE PUSH1 0x4 ADD PUSH2 0x1368 SWAP1 PUSH2 0x2523 JUMP JUMPDEST PUSH1 0x40 MLOAD DUP1 SWAP2 SUB SWAP1 REVERT JUMPDEST PUSH4 0xF23A6E61 PUSH1 0xE0 SHL PUSH28 0xFFFFFFFFFFFFFFFFFFFFFFFFFFFFFFFFFFFFFFFFFFFFFFFFFFFFFFFF NOT AND DUP2 PUSH28 0xFFFFFFFFFFFFFFFFFFFFFFFFFFFFFFFFFFFFFFFFFFFFFFFFFFFFFFFF NOT AND EQ PUSH2 0x13F8 JUMPI PUSH1 0x40 MLOAD PUSH32 0x8C379A000000000000000000000000000000000000000000000000000000000 DUP2 MSTORE PUSH1 0x4 ADD PUSH2 0x13EF SWAP1 PUSH2 0x23F1 JUMP JUMPDEST PUSH1 0x40 MLOAD DUP1 SWAP2 SUB SWAP1 REVERT JUMPDEST POP JUMPDEST POP POP POP POP POP POP JUMP JUMPDEST PUSH0 DUP1 DUP3 EXTCODESIZE SWAP1 POP PUSH0 DUP2 GT SWAP2 POP POP SWAP2 SWAP1 POP JUMP JUMPDEST PUSH0 PUSH1 0x40 MLOAD SWAP1 POP SWAP1 JUMP JUMPDEST PUSH0 DUP1 REVERT JUMPDEST PUSH0 DUP1 REVERT JUMPDEST PUSH0 PUSH20 0xFFFFFFFFFFFFFFFFFFFFFFFFFFFFFFFFFFFFFFFF DUP3 AND SWAP1 POP SWAP2 SWAP1 POP JUMP JUMPDEST PUSH0 PUSH2 0x144D DUP3 PUSH2 0x1424 JUMP JUMPDEST SWAP1 POP SWAP2 SWAP1 POP JUMP JUMPDEST PUSH2 0x145D DUP2 PUSH2 0x1443 JUMP JUMPDEST DUP2 EQ PUSH2 0x1467 JUMPI PUSH0 DUP1 REVERT JUMPDEST POP JUMP JUMPDEST PUSH0 DUP2 CALLDATALOAD SWAP1 POP PUSH2 0x1478 DUP2 PUSH2 0x1454 JUMP JUMPDEST SWAP3 SWAP2 POP POP JUMP JUMPDEST PUSH0 DUP2 SWAP1 POP SWAP2 SWAP1 POP JUMP JUMPDEST PUSH2 0x1490 DUP2 PUSH2 0x147E JUMP JUMPDEST DUP2 EQ PUSH2 0x149A JUMPI PUSH0 DUP1 REVERT JUMPDEST POP JUMP JUMPDEST PUSH0 DUP2 CALLDATALOAD SWAP1 POP PUSH2 0x14AB DUP2 PUSH2 0x1487 JUMP JUMPDEST SWAP3 SWAP2 POP POP JUMP JUMPDEST PUSH0 DUP1 PUSH1 0x40 DUP4 DUP6 SUB SLT ISZERO PUSH2 0x14C7 JUMPI PUSH2 0x14C6 PUSH2 0x141C JUMP JUMPDEST JUMPDEST PUSH0 PUSH2 0x14D4 DUP6 DUP3 DUP7 ADD PUSH2 0x146A JUMP JUMPDEST SWAP3 POP POP PUSH1 0x20 PUSH2 0x14E5 DUP6 DUP3 DUP7 ADD PUSH2 0x149D JUMP JUMPDEST SWAP2 POP POP SWAP3 POP SWAP3 SWAP1 POP JUMP JUMPDEST PUSH2 0x14F8 DUP2 PUSH2 0x147E JUMP JUMPDEST DUP3 MSTORE POP POP JUMP JUMPDEST PUSH0 PUSH1 0x20 DUP3 ADD SWAP1 POP PUSH2 0x1511 PUSH0 DUP4 ADD DUP5 PUSH2 0x14EF JUMP JUMPDEST SWAP3 SWAP2 POP POP JUMP JUMPDEST PUSH0 PUSH32 0xFFFFFFFF00000000000000000000000000000000000000000000000000000000 DUP3 AND SWAP1 POP SWAP2 SWAP1 POP JUMP JUMPDEST PUSH2 0x154B DUP2 PUSH2 0x1517 JUMP JUMPDEST DUP2 EQ PUSH2 0x1555 JUMPI PUSH0 DUP1 REVERT JUMPDEST POP JUMP JUMPDEST PUSH0 DUP2 CALLDATALOAD SWAP1 POP PUSH2 0x1566 DUP2 PUSH2 0x1542 JUMP JUMPDEST SWAP3 SWAP2 POP POP JUMP JUMPDEST PUSH0 PUSH1 0x20 DUP3 DUP5 SUB SLT ISZERO PUSH2 0x1581 JUMPI PUSH2 0x1580 PUSH2 0x141C JUMP JUMPDEST JUMPDEST PUSH0 PUSH2 0x158E DUP5 DUP3 DUP6 ADD PUSH2 0x1558 JUMP JUMPDEST SWAP2 POP POP SWAP3 SWAP2 POP POP JUMP JUMPDEST PUSH0 DUP2 ISZERO ISZERO SWAP1 POP SWAP2 SWAP1 POP JUMP JUMPDEST PUSH2 0x15AB DUP2 PUSH2 0x1597 JUMP JUMPDEST DUP3 MSTORE POP POP JUMP JUMPDEST PUSH0 PUSH1 0x20 DUP3 ADD SWAP1 POP PUSH2 0x15C4 PUSH0 DUP4 ADD DUP5 PUSH2 0x15A2 JUMP JUMPDEST SWAP3 SWAP2 POP POP JUMP JUMPDEST PUSH0 DUP2 MLOAD SWAP1 POP SWAP2 SWAP1 POP JUMP JUMPDEST PUSH0 DUP3 DUP3 MSTORE PUSH1 0x20 DUP3 ADD SWAP1 POP SWAP3 SWAP2 POP POP JUMP JUMPDEST DUP3 DUP2 DUP4 MCOPY PUSH0 DUP4 DUP4 ADD MSTORE POP POP POP JUMP JUMPDEST PUSH0 PUSH1 0x1F NOT PUSH1 0x1F DUP4 ADD AND SWAP1 POP SWAP2 SWAP1 POP JUMP JUMPDEST PUSH0 PUSH2 0x160C DUP3 PUSH2 0x15CA JUMP JUMPDEST PUSH2 0x1616 DUP2 DUP6 PUSH2 0x15D4 JUMP JUMPDEST SWAP4 POP PUSH2 0x1626 DUP2 DUP6 PUSH1 0x20 DUP7 ADD PUSH2 0x15E4 JUMP JUMPDEST PUSH2 0x162F DUP2 PUSH2 0x15F2 JUMP JUMPDEST DUP5 ADD SWAP2 POP POP SWAP3 SWAP2 POP POP JUMP JUMPDEST PUSH0 PUSH1 0x20 DUP3 ADD SWAP1 POP DUP2 DUP2 SUB PUSH0 DUP4 ADD MSTORE PUSH2 0x1652 DUP2 DUP5 PUSH2 0x1602 JUMP JUMPDEST SWAP1 POP SWAP3 SWAP2 POP POP JUMP JUMPDEST PUSH0 PUSH1 0x20 DUP3 DUP5 SUB SLT ISZERO PUSH2 0x166F JUMPI PUSH2 0x166E PUSH2 0x141C JUMP JUMPDEST JUMPDEST PUSH0 PUSH2 0x167C DUP5 DUP3 DUP6 ADD PUSH2 0x149D JUMP JUMPDEST SWAP2 POP POP SWAP3 SWAP2 POP POP JUMP JUMPDEST PUSH0 DUP1 REVERT JUMPDEST PUSH0 DUP1 REVERT JUMPDEST PUSH0 DUP1 REVERT JUMPDEST PUSH0 DUP1 DUP4 PUSH1 0x1F DUP5 ADD SLT PUSH2 0x16A6 JUMPI PUSH2 0x16A5 PUSH2 0x1685 JUMP JUMPDEST JUMPDEST DUP3 CALLDATALOAD SWAP1 POP PUSH8 0xFFFFFFFFFFFFFFFF DUP2 GT ISZERO PUSH2 0x16C3 JUMPI PUSH2 0x16C2 PUSH2 0x1689 JUMP JUMPDEST JUMPDEST PUSH1 0x20 DUP4 ADD SWAP2 POP DUP4 PUSH1 0x20 DUP3 MUL DUP4 ADD GT ISZERO PUSH2 0x16DF JUMPI PUSH2 0x16DE PUSH2 0x168D JUMP JUMPDEST JUMPDEST SWAP3 POP SWAP3 SWAP1 POP JUMP JUMPDEST PUSH0 DUP1 DUP4 PUSH1 0x1F DUP5 ADD SLT PUSH2 0x16FB JUMPI PUSH2 0x16FA PUSH2 0x1685 JUMP JUMPDEST JUMPDEST DUP3 CALLDATALOAD SWAP1 POP PUSH8 0xFFFFFFFFFFFFFFFF DUP2 GT ISZERO PUSH2 0x1718 JUMPI PUSH2 0x1717 PUSH2 0x1689 JUMP JUMPDEST JUMPDEST PUSH1 0x20 DUP4 ADD SWAP2 POP DUP4 PUSH1 0x1 DUP3 MUL DUP4 ADD GT ISZERO PUSH2 0x1734 JUMPI PUSH2 0x1733 PUSH2 0x168D JUMP JUMPDEST JUMPDEST SWAP3 POP SWAP3 SWAP1 POP JUMP JUMPDEST PUSH0 DUP1 PUSH0 DUP1 PUSH0 DUP1 PUSH0 DUP1 PUSH1 0xA0 DUP10 DUP12 SUB SLT ISZERO PUSH2 0x1757 JUMPI PUSH2 0x1756 PUSH2 0x141C JUMP JUMPDEST JUMPDEST PUSH0 PUSH2 0x1764 DUP12 DUP3 DUP13 ADD PUSH2 0x146A JUMP JUMPDEST SWAP9 POP POP PUSH1 0x20 PUSH2 0x1775 DUP12 DUP3 DUP13 ADD PUSH2 0x146A JUMP JUMPDEST SWAP8 POP POP PUSH1 0x40 DUP10 ADD CALLDATALOAD PUSH8 0xFFFFFFFFFFFFFFFF DUP2 GT ISZERO PUSH2 0x1796 JUMPI PUSH2 0x1795 PUSH2 0x1420 JUMP JUMPDEST JUMPDEST PUSH2 0x17A2 DUP12 DUP3 DUP13 ADD PUSH2 0x1691 JUMP JUMPDEST SWAP7 POP SWAP7 POP POP PUSH1 0x60 DUP10 ADD CALLDATALOAD PUSH8 0xFFFFFFFFFFFFFFFF DUP2 GT ISZERO PUSH2 0x17C5 JUMPI PUSH2 0x17C4 PUSH2 0x1420 JUMP JUMPDEST JUMPDEST PUSH2 0x17D1 DUP12 DUP3 DUP13 ADD PUSH2 0x1691 JUMP JUMPDEST SWAP5 POP SWAP5 POP POP PUSH1 0x80 DUP10 ADD CALLDATALOAD PUSH8 0xFFFFFFFFFFFFFFFF DUP2 GT ISZERO PUSH2 0x17F4 JUMPI PUSH2 0x17F3 PUSH2 0x1420 JUMP JUMPDEST JUMPDEST PUSH2 0x1800 DUP12 DUP3 DUP13 ADD PUSH2 0x16E6 JUMP JUMPDEST SWAP3 POP SWAP3 POP POP SWAP3 SWAP6 SWAP9 POP SWAP3 SWAP6 SWAP9 SWAP1 SWAP4 SWAP7 POP JUMP JUMPDEST PUSH0 DUP1 DUP4 PUSH1 0x1F DUP5 ADD SLT PUSH2 0x1827 JUMPI PUSH2 0x1826 PUSH2 0x1685 JUMP JUMPDEST JUMPDEST DUP3 CALLDATALOAD SWAP1 POP PUSH8 0xFFFFFFFFFFFFFFFF DUP2 GT ISZERO PUSH2 0x1844 JUMPI PUSH2 0x1843 PUSH2 0x1689 JUMP JUMPDEST JUMPDEST PUSH1 0x20 DUP4 ADD SWAP2 POP DUP4 PUSH1 0x20 DUP3 MUL DUP4 ADD GT ISZERO PUSH2 0x1860 JUMPI PUSH2 0x185F PUSH2 0x168D JUMP JUMPDEST JUMPDEST SWAP3 POP SWAP3 SWAP1 POP JUMP JUMPDEST PUSH0 DUP1 PUSH0 DUP1 PUSH1 0x40 DUP6 DUP8 SUB SLT ISZERO PUSH2 0x187F JUMPI PUSH2 0x187E PUSH2 0x141C JUMP JUMPDEST JUMPDEST PUSH0 DUP6 ADD CALLDATALOAD PUSH8 0xFFFFFFFFFFFFFFFF DUP2 GT ISZERO PUSH2 0x189C JUMPI PUSH2 0x189B PUSH2 0x1420 JUMP JUMPDEST JUMPDEST PUSH2 0x18A8 DUP8 DUP3 DUP9 ADD PUSH2 0x1812 JUMP JUMPDEST SWAP5 POP SWAP5 POP POP PUSH1 0x20 DUP6 ADD CALLDATALOAD PUSH8 0xFFFFFFFFFFFFFFFF DUP2 GT ISZERO PUSH2 0x18CB JUMPI PUSH2 0x18CA PUSH2 0x1420 JUMP JUMPDEST JUMPDEST PUSH2 0x18D7 DUP8 DUP3 DUP9 ADD PUSH2 0x1691 JUMP JUMPDEST SWAP3 POP SWAP3 POP POP SWAP3 SWAP6 SWAP2 SWAP5 POP SWAP3 POP JUMP JUMPDEST PUSH0 DUP2 MLOAD SWAP1 POP SWAP2 SWAP1 POP JUMP JUMPDEST PUSH0 DUP3 DUP3 MSTORE PUSH1 0x20 DUP3 ADD SWAP1 POP SWAP3 SWAP2 POP POP JUMP JUMPDEST PUSH0 DUP2 SWAP1 POP PUSH1 0x20 DUP3 ADD SWAP1 POP SWAP2 SWAP1 POP JUMP JUMPDEST PUSH2 0x1917 DUP2 PUSH2 0x147E JUMP JUMPDEST DUP3 MSTORE POP POP JUMP JUMPDEST PUSH0 PUSH2 0x1928 DUP4 DUP4 PUSH2 0x190E JUMP JUMPDEST PUSH1 0x20 DUP4 ADD SWAP1 POP SWAP3 SWAP2 POP POP JUMP JUMPDEST PUSH0 PUSH1 0x20 DUP3 ADD SWAP1 POP SWAP2 SWAP1 POP JUMP JUMPDEST PUSH0 PUSH2 0x194A DUP3 PUSH2 0x18E5 JUMP JUMPDEST PUSH2 0x1954 DUP2 DUP6 PUSH2 0x18EF JUMP JUMPDEST SWAP4 POP PUSH2 0x195F DUP4 PUSH2 0x18FF JUMP JUMPDEST DUP1 PUSH0 JUMPDEST DUP4 DUP2 LT ISZERO PUSH2 0x198F JUMPI DUP2 MLOAD PUSH2 0x1976 DUP9 DUP3 PUSH2 0x191D JUMP JUMPDEST SWAP8 POP PUSH2 0x1981 DUP4 PUSH2 0x1934 JUMP JUMPDEST SWAP3 POP POP PUSH1 0x1 DUP2 ADD SWAP1 POP PUSH2 0x1962 JUMP JUMPDEST POP DUP6 SWAP4 POP POP POP POP SWAP3 SWAP2 POP POP JUMP JUMPDEST PUSH0 PUSH1 0x20 DUP3 ADD SWAP1 POP DUP2 DUP2 SUB PUSH0 DUP4 ADD MSTORE PUSH2 0x19B4 DUP2 DUP5 PUSH2 0x1940 JUMP JUMPDEST SWAP1 POP SWAP3 SWAP2 POP POP JUMP JUMPDEST PUSH2 0x19C5 DUP2 PUSH2 0x1597 JUMP JUMPDEST DUP2 EQ PUSH2 0x19CF JUMPI PUSH0 DUP1 REVERT JUMPDEST POP JUMP JUMPDEST PUSH0 DUP2 CALLDATALOAD SWAP1 POP PUSH2 0x19E0 DUP2 PUSH2 0x19BC JUMP JUMPDEST SWAP3 SWAP2 POP POP JUMP JUMPDEST PUSH0 DUP1 PUSH1 0x40 DUP4 DUP6 SUB SLT ISZERO PUSH2 0x19FC JUMPI PUSH2 0x19FB PUSH2 0x141C JUMP JUMPDEST JUMPDEST PUSH0 PUSH2 0x1A09 DUP6 DUP3 DUP7 ADD PUSH2 0x146A JUMP JUMPDEST SWAP3 POP POP PUSH1 0x20 PUSH2 0x1A1A DUP6 DUP3 DUP7 ADD PUSH2 0x19D2 JUMP JUMPDEST SWAP2 POP POP SWAP3 POP SWAP3 SWAP1 POP JUMP JUMPDEST PUSH0 DUP1 PUSH1 0x40 DUP4 DUP6 SUB SLT ISZERO PUSH2 0x1A3A JUMPI PUSH2 0x1A39 PUSH2 0x141C JUMP JUMPDEST JUMPDEST PUSH0 PUSH2 0x1A47 DUP6 DUP3 DUP7 ADD PUSH2 0x146A JUMP JUMPDEST SWAP3 POP POP PUSH1 0x20 PUSH2 0x1A58 DUP6 DUP3 DUP7 ADD PUSH2 0x146A JUMP JUMPDEST SWAP2 POP POP SWAP3 POP SWAP3 SWAP1 POP JUMP JUMPDEST PUSH0 DUP1 PUSH0 DUP1 PUSH0 DUP1 PUSH1 0xA0 DUP8 DUP10 SUB SLT ISZERO PUSH2 0x1A7C JUMPI PUSH2 0x1A7B PUSH2 0x141C JUMP JUMPDEST JUMPDEST PUSH0 PUSH2 0x1A89 DUP10 DUP3 DUP11 ADD PUSH2 0x146A JUMP JUMPDEST SWAP7 POP POP PUSH1 0x20 PUSH2 0x1A9A DUP10 DUP3 DUP11 ADD PUSH2 0x146A JUMP JUMPDEST SWAP6 POP POP PUSH1 0x40 PUSH2 0x1AAB DUP10 DUP3 DUP11 ADD PUSH2 0x149D JUMP JUMPDEST SWAP5 POP POP PUSH1 0x60 PUSH2 0x1ABC DUP10 DUP3 DUP11 ADD PUSH2 0x149D JUMP JUMPDEST SWAP4 POP POP PUSH1 0x80 DUP8 ADD CALLDATALOAD PUSH8 0xFFFFFFFFFFFFFFFF DUP2 GT ISZERO PUSH2 0x1ADD JUMPI PUSH2 0x1ADC PUSH2 0x1420 JUMP JUMPDEST JUMPDEST PUSH2 0x1AE9 DUP10 DUP3 DUP11 ADD PUSH2 0x16E6 JUMP JUMPDEST SWAP3 POP SWAP3 POP POP SWAP3 SWAP6 POP SWAP3 SWAP6 POP SWAP3 SWAP6 JUMP JUMPDEST PUSH32 0x4E487B7100000000000000000000000000000000000000000000000000000000 PUSH0 MSTORE PUSH1 0x22 PUSH1 0x4 MSTORE PUSH1 0x24 PUSH0 REVERT JUMPDEST PUSH0 PUSH1 0x2 DUP3 DIV SWAP1 POP PUSH1 0x1 DUP3 AND DUP1 PUSH2 0x1B3C JUMPI PUSH1 0x7F DUP3 AND SWAP2 POP JUMPDEST PUSH1 0x20 DUP3 LT DUP2 SUB PUSH2 0x1B4F JUMPI PUSH2 0x1B4E PUSH2 0x1AF8 JUMP JUMPDEST JUMPDEST POP SWAP2 SWAP1 POP JUMP JUMPDEST PUSH0 DUP2 SWAP1 POP SWAP3 SWAP2 POP POP JUMP JUMPDEST PUSH0 PUSH2 0x1B69 DUP3 PUSH2 0x15CA JUMP JUMPDEST PUSH2 0x1B73 DUP2 DUP6 PUSH2 0x1B55 JUMP JUMPDEST SWAP4 POP PUSH2 0x1B83 DUP2 DUP6 PUSH1 0x20 DUP7 ADD PUSH2 0x15E4 JUMP JUMPDEST DUP1 DUP5 ADD SWAP2 POP POP SWAP3 SWAP2 POP POP JUMP JUMPDEST PUSH0 PUSH2 0x1B9A DUP3 DUP6 PUSH2 0x1B5F JUMP JUMPDEST SWAP2 POP PUSH2 0x1BA6 DUP3 DUP5 PUSH2 0x1B5F JUMP JUMPDEST SWAP2 POP DUP2 SWAP1 POP SWAP4 SWAP3 POP POP POP JUMP JUMPDEST PUSH32 0x4163636573732064656E6965642E000000000000000000000000000000000000 PUSH0 DUP3 ADD MSTORE POP JUMP JUMPDEST PUSH0 PUSH2 0x1BE6 PUSH1 0xE DUP4 PUSH2 0x15D4 JUMP JUMPDEST SWAP2 POP PUSH2 0x1BF1 DUP3 PUSH2 0x1BB2 JUMP JUMPDEST PUSH1 0x20 DUP3 ADD SWAP1 POP SWAP2 SWAP1 POP JUMP JUMPDEST PUSH0 PUSH1 0x20 DUP3 ADD SWAP1 POP DUP2 DUP2 SUB PUSH0 DUP4 ADD MSTORE PUSH2 0x1C13 DUP2 PUSH2 0x1BDA JUMP JUMPDEST SWAP1 POP SWAP2 SWAP1 POP JUMP JUMPDEST PUSH32 0x60746F602063616E2774206265207A65726F2061646472657373000000000000 PUSH0 DUP3 ADD MSTORE POP JUMP JUMPDEST PUSH0 PUSH2 0x1C4E PUSH1 0x1A DUP4 PUSH2 0x15D4 JUMP JUMPDEST SWAP2 POP PUSH2 0x1C59 DUP3 PUSH2 0x1C1A JUMP JUMPDEST PUSH1 0x20 DUP3 ADD SWAP1 POP SWAP2 SWAP1 POP JUMP JUMPDEST PUSH0 PUSH1 0x20 DUP3 ADD SWAP1 POP DUP2 DUP2 SUB PUSH0 DUP4 ADD MSTORE PUSH2 0x1C7B DUP2 PUSH2 0x1C42 JUMP JUMPDEST SWAP1 POP SWAP2 SWAP1 POP JUMP JUMPDEST PUSH32 0x455243313135352C20746865206C656E677468206F66206163636F756E747320 PUSH0 DUP3 ADD MSTORE PUSH32 0x616E6420696473206973206E6F7420657175616C732E00000000000000000000 PUSH1 0x20 DUP3 ADD MSTORE POP JUMP JUMPDEST PUSH0 PUSH2 0x1CDC PUSH1 0x36 DUP4 PUSH2 0x15D4 JUMP JUMPDEST SWAP2 POP PUSH2 0x1CE7 DUP3 PUSH2 0x1C82 JUMP JUMPDEST PUSH1 0x40 DUP3 ADD SWAP1 POP SWAP2 SWAP1 POP JUMP JUMPDEST PUSH0 PUSH1 0x20 DUP3 ADD SWAP1 POP DUP2 DUP2 SUB PUSH0 DUP4 ADD MSTORE PUSH2 0x1D09 DUP2 PUSH2 0x1CD0 JUMP JUMPDEST SWAP1 POP SWAP2 SWAP1 POP JUMP JUMPDEST PUSH32 0x4E487B7100000000000000000000000000000000000000000000000000000000 PUSH0 MSTORE PUSH1 0x41 PUSH1 0x4 MSTORE PUSH1 0x24 PUSH0 REVERT JUMPDEST PUSH32 0x4E487B7100000000000000000000000000000000000000000000000000000000 PUSH0 MSTORE PUSH1 0x32 PUSH1 0x4 MSTORE PUSH1 0x24 PUSH0 REVERT JUMPDEST PUSH0 PUSH1 0x20 DUP3 DUP5 SUB SLT ISZERO PUSH2 0x1D7F JUMPI PUSH2 0x1D7E PUSH2 0x141C JUMP JUMPDEST JUMPDEST PUSH0 PUSH2 0x1D8C DUP5 DUP3 DUP6 ADD PUSH2 0x146A JUMP JUMPDEST SWAP2 POP POP SWAP3 SWAP2 POP POP JUMP JUMPDEST PUSH32 0x446F6E277420617070726F76616C20746F20796F757273656C662E0000000000 PUSH0 DUP3 ADD MSTORE POP JUMP JUMPDEST PUSH0 PUSH2 0x1DC9 PUSH1 0x1B DUP4 PUSH2 0x15D4 JUMP JUMPDEST SWAP2 POP PUSH2 0x1DD4 DUP3 PUSH2 0x1D95 JUMP JUMPDEST PUSH1 0x20 DUP3 ADD SWAP1 POP SWAP2 SWAP1 POP JUMP JUMPDEST PUSH0 PUSH1 0x20 DUP3 ADD SWAP1 POP DUP2 DUP2 SUB PUSH0 DUP4 ADD MSTORE PUSH2 0x1DF6 DUP2 PUSH2 0x1DBD JUMP JUMPDEST SWAP1 POP SWAP2 SWAP1 POP JUMP JUMPDEST PUSH32 0x4E487B7100000000000000000000000000000000000000000000000000000000 PUSH0 MSTORE PUSH1 0x11 PUSH1 0x4 MSTORE PUSH1 0x24 PUSH0 REVERT JUMPDEST PUSH0 PUSH2 0x1E34 DUP3 PUSH2 0x147E JUMP JUMPDEST SWAP2 POP PUSH32 0xFFFFFFFFFFFFFFFFFFFFFFFFFFFFFFFFFFFFFFFFFFFFFFFFFFFFFFFFFFFFFFFF DUP3 SUB PUSH2 0x1E66 JUMPI PUSH2 0x1E65 PUSH2 0x1DFD JUMP JUMPDEST JUMPDEST PUSH1 0x1 DUP3 ADD SWAP1 POP SWAP2 SWAP1 POP JUMP JUMPDEST PUSH32 0x4E487B7100000000000000000000000000000000000000000000000000000000 PUSH0 MSTORE PUSH1 0x12 PUSH1 0x4 MSTORE PUSH1 0x24 PUSH0 REVERT JUMPDEST PUSH0 PUSH2 0x1EA8 DUP3 PUSH2 0x147E JUMP JUMPDEST SWAP2 POP PUSH2 0x1EB3 DUP4 PUSH2 0x147E JUMP JUMPDEST SWAP3 POP DUP3 PUSH2 0x1EC3 JUMPI PUSH2 0x1EC2 PUSH2 0x1E71 JUMP JUMPDEST JUMPDEST DUP3 DUP3 DIV SWAP1 POP SWAP3 SWAP2 POP POP JUMP JUMPDEST PUSH0 PUSH2 0x1ED8 DUP3 PUSH2 0x147E JUMP JUMPDEST SWAP2 POP PUSH2 0x1EE3 DUP4 PUSH2 0x147E JUMP JUMPDEST SWAP3 POP DUP3 DUP3 SUB SWAP1 POP DUP2 DUP2 GT ISZERO PUSH2 0x1EFB JUMPI PUSH2 0x1EFA PUSH2 0x1DFD JUMP JUMPDEST JUMPDEST SWAP3 SWAP2 POP POP JUMP JUMPDEST PUSH0 PUSH2 0x1F0B DUP3 PUSH2 0x147E JUMP JUMPDEST SWAP2 POP PUSH2 0x1F16 DUP4 PUSH2 0x147E JUMP JUMPDEST SWAP3 POP DUP3 PUSH2 0x1F26 JUMPI PUSH2 0x1F25 PUSH2 0x1E71 JUMP JUMPDEST JUMPDEST DUP3 DUP3 MOD SWAP1 POP SWAP3 SWAP2 POP POP JUMP JUMPDEST PUSH0 PUSH2 0x1F3B DUP3 PUSH2 0x147E JUMP JUMPDEST SWAP2 POP PUSH2 0x1F46 DUP4 PUSH2 0x147E JUMP JUMPDEST SWAP3 POP DUP3 DUP3 ADD SWAP1 POP DUP1 DUP3 GT ISZERO PUSH2 0x1F5E JUMPI PUSH2 0x1F5D PUSH2 0x1DFD JUMP JUMPDEST JUMPDEST SWAP3 SWAP2 POP POP JUMP JUMPDEST PUSH32 0x546865206C656E677468206F662069647320616E6420616D6F756E7473206973 PUSH0 DUP3 ADD MSTORE PUSH32 0x206E6F7420657175616C2E000000000000000000000000000000000000000000 PUSH1 0x20 DUP3 ADD MSTORE POP JUMP JUMPDEST PUSH0 PUSH2 0x1FBE PUSH1 0x2B DUP4 PUSH2 0x15D4 JUMP JUMPDEST SWAP2 POP PUSH2 0x1FC9 DUP3 PUSH2 0x1F64 JUMP JUMPDEST PUSH1 0x40 DUP3 ADD SWAP1 POP SWAP2 SWAP1 POP JUMP JUMPDEST PUSH0 PUSH1 0x20 DUP3 ADD SWAP1 POP DUP2 DUP2 SUB PUSH0 DUP4 ADD MSTORE PUSH2 0x1FEB DUP2 PUSH2 0x1FB2 JUMP JUMPDEST SWAP1 POP SWAP2 SWAP1 POP JUMP JUMPDEST PUSH32 0x496E73756666696369656E7420746F6B656E2062616C616E6365000000000000 PUSH0 DUP3 ADD MSTORE POP JUMP JUMPDEST PUSH0 PUSH2 0x2026 PUSH1 0x1A DUP4 PUSH2 0x15D4 JUMP JUMPDEST SWAP2 POP PUSH2 0x2031 DUP3 PUSH2 0x1FF2 JUMP JUMPDEST PUSH1 0x20 DUP3 ADD SWAP1 POP SWAP2 SWAP1 POP JUMP JUMPDEST PUSH0 PUSH1 0x20 DUP3 ADD SWAP1 POP DUP2 DUP2 SUB PUSH0 DUP4 ADD MSTORE PUSH2 0x2053 DUP2 PUSH2 0x201A JUMP JUMPDEST SWAP1 POP SWAP2 SWAP1 POP JUMP JUMPDEST PUSH0 PUSH1 0x40 DUP3 ADD SWAP1 POP PUSH2 0x206D PUSH0 DUP4 ADD DUP6 PUSH2 0x14EF JUMP JUMPDEST PUSH2 0x207A PUSH1 0x20 DUP4 ADD DUP5 PUSH2 0x14EF JUMP JUMPDEST SWAP4 SWAP3 POP POP POP JUMP JUMPDEST PUSH0 PUSH1 0x40 DUP3 ADD SWAP1 POP DUP2 DUP2 SUB PUSH0 DUP4 ADD MSTORE PUSH2 0x2099 DUP2 DUP6 PUSH2 0x1940 JUMP JUMPDEST SWAP1 POP DUP2 DUP2 SUB PUSH1 0x20 DUP4 ADD MSTORE PUSH2 0x20AD DUP2 DUP5 PUSH2 0x1940 JUMP JUMPDEST SWAP1 POP SWAP4 SWAP3 POP POP POP JUMP JUMPDEST PUSH2 0x20BF DUP2 PUSH2 0x1443 JUMP JUMPDEST DUP3 MSTORE POP POP JUMP JUMPDEST PUSH0 DUP2 MLOAD SWAP1 POP SWAP2 SWAP1 POP JUMP JUMPDEST PUSH0 DUP3 DUP3 MSTORE PUSH1 0x20 DUP3 ADD SWAP1 POP SWAP3 SWAP2 POP POP JUMP JUMPDEST PUSH0 PUSH2 0x20E9 DUP3 PUSH2 0x20C5 JUMP JUMPDEST PUSH2 0x20F3 DUP2 DUP6 PUSH2 0x20CF JUMP JUMPDEST SWAP4 POP PUSH2 0x2103 DUP2 DUP6 PUSH1 0x20 DUP7 ADD PUSH2 0x15E4 JUMP JUMPDEST PUSH2 0x210C DUP2 PUSH2 0x15F2 JUMP JUMPDEST DUP5 ADD SWAP2 POP POP SWAP3 SWAP2 POP POP JUMP JUMPDEST PUSH0 PUSH1 0xA0 DUP3 ADD SWAP1 POP PUSH2 0x212A PUSH0 DUP4 ADD DUP9 PUSH2 0x20B6 JUMP JUMPDEST PUSH2 0x2137 PUSH1 0x20 DUP4 ADD DUP8 PUSH2 0x20B6 JUMP JUMPDEST DUP2 DUP2 SUB PUSH1 0x40 DUP4 ADD MSTORE PUSH2 0x2149 DUP2 DUP7 PUSH2 0x1940 JUMP JUMPDEST SWAP1 POP DUP2 DUP2 SUB PUSH1 0x60 DUP4 ADD MSTORE PUSH2 0x215D DUP2 DUP6 PUSH2 0x1940 JUMP JUMPDEST SWAP1 POP DUP2 DUP2 SUB PUSH1 0x80 DUP4 ADD MSTORE PUSH2 0x2171 DUP2 DUP5 PUSH2 0x20DF JUMP JUMPDEST SWAP1 POP SWAP7 SWAP6 POP POP POP POP POP POP JUMP JUMPDEST PUSH0 DUP2 MLOAD SWAP1 POP PUSH2 0x218B DUP2 PUSH2 0x1542 JUMP JUMPDEST SWAP3 SWAP2 POP POP JUMP JUMPDEST PUSH0 PUSH1 0x20 DUP3 DUP5 SUB SLT ISZERO PUSH2 0x21A6 JUMPI PUSH2 0x21A5 PUSH2 0x141C JUMP JUMPDEST JUMPDEST PUSH0 PUSH2 0x21B3 DUP5 DUP3 DUP6 ADD PUSH2 0x217D JUMP JUMPDEST SWAP2 POP POP SWAP3 SWAP2 POP POP JUMP JUMPDEST PUSH0 DUP2 PUSH1 0xE0 SHR SWAP1 POP SWAP2 SWAP1 POP JUMP JUMPDEST PUSH0 PUSH1 0x3 RETURNDATASIZE GT ISZERO PUSH2 0x21E4 JUMPI PUSH1 0x4 PUSH0 DUP1 RETURNDATACOPY PUSH2 0x21E1 PUSH0 MLOAD PUSH2 0x21BC JUMP JUMPDEST SWAP1 POP JUMPDEST SWAP1 JUMP JUMPDEST PUSH2 0x21F0 DUP3 PUSH2 0x15F2 JUMP JUMPDEST DUP2 ADD DUP2 DUP2 LT PUSH8 0xFFFFFFFFFFFFFFFF DUP3 GT OR ISZERO PUSH2 0x220F JUMPI PUSH2 0x220E PUSH2 0x1D10 JUMP JUMPDEST JUMPDEST DUP1 PUSH1 0x40 MSTORE POP POP POP JUMP JUMPDEST PUSH0 PUSH1 0x44 RETURNDATASIZE LT PUSH2 0x22A4 JUMPI PUSH2 0x2229 PUSH2 0x1413 JUMP JUMPDEST PUSH1 0x4 RETURNDATASIZE SUB PUSH1 0x4 DUP3 RETURNDATACOPY DUP1 MLOAD RETURNDATASIZE PUSH1 0x24 DUP3 ADD GT PUSH8 0xFFFFFFFFFFFFFFFF DUP3 GT OR ISZERO PUSH2 0x2251 JUMPI POP POP PUSH2 0x22A4 JUMP JUMPDEST DUP1 DUP3 ADD DUP1 MLOAD PUSH8 0xFFFFFFFFFFFFFFFF DUP2 GT ISZERO PUSH2 0x226F JUMPI POP POP POP POP PUSH2 0x22A4 JUMP JUMPDEST DUP1 PUSH1 0x20 DUP4 ADD ADD PUSH1 0x4 RETURNDATASIZE SUB DUP6 ADD DUP2 GT ISZERO PUSH2 0x228C JUMPI POP POP POP POP POP PUSH2 0x22A4 JUMP JUMPDEST PUSH2 0x229B DUP3 PUSH1 0x20 ADD DUP6 ADD DUP7 PUSH2 0x21E7 JUMP JUMPDEST DUP3 SWAP6 POP POP POP POP POP POP JUMPDEST SWAP1 JUMP JUMPDEST PUSH32 0x455243313135353A20546865207472616E73616374696F6E2072656365697665 PUSH0 DUP3 ADD MSTORE PUSH32 0x7220686173206E6F7420696D706C656D656E7465642074686520494552433131 PUSH1 0x20 DUP3 ADD MSTORE PUSH32 0x353552656365697665722E6F6E45726331313535426174636852656365697665 PUSH1 0x40 DUP3 ADD MSTORE PUSH32 0x642066756E6374696F6E2E000000000000000000000000000000000000000000 PUSH1 0x60 DUP3 ADD MSTORE POP JUMP JUMPDEST PUSH0 PUSH2 0x234D PUSH1 0x6B DUP4 PUSH2 0x15D4 JUMP JUMPDEST SWAP2 POP PUSH2 0x2358 DUP3 PUSH2 0x22A7 JUMP JUMPDEST PUSH1 0x80 DUP3 ADD SWAP1 POP SWAP2 SWAP1 POP JUMP JUMPDEST PUSH0 PUSH1 0x20 DUP3 ADD SWAP1 POP DUP2 DUP2 SUB PUSH0 DUP4 ADD MSTORE PUSH2 0x237A DUP2 PUSH2 0x2341 JUMP JUMPDEST SWAP1 POP SWAP2 SWAP1 POP JUMP JUMPDEST PUSH32 0x455243313135353A204552433131353552656365697665722072656A65637465 PUSH0 DUP3 ADD MSTORE PUSH32 0x6420746F6B656E73000000000000000000000000000000000000000000000000 PUSH1 0x20 DUP3 ADD MSTORE POP JUMP JUMPDEST PUSH0 PUSH2 0x23DB PUSH1 0x28 DUP4 PUSH2 0x15D4 JUMP JUMPDEST SWAP2 POP PUSH2 0x23E6 DUP3 PUSH2 0x2381 JUMP JUMPDEST PUSH1 0x40 DUP3 ADD SWAP1 POP SWAP2 SWAP1 POP JUMP JUMPDEST PUSH0 PUSH1 0x20 DUP3 ADD SWAP1 POP DUP2 DUP2 SUB PUSH0 DUP4 ADD MSTORE PUSH2 0x2408 DUP2 PUSH2 0x23CF JUMP JUMPDEST SWAP1 POP SWAP2 SWAP1 POP JUMP JUMPDEST PUSH0 PUSH1 0xA0 DUP3 ADD SWAP1 POP PUSH2 0x2422 PUSH0 DUP4 ADD DUP9 PUSH2 0x20B6 JUMP JUMPDEST PUSH2 0x242F PUSH1 0x20 DUP4 ADD DUP8 PUSH2 0x20B6 JUMP JUMPDEST PUSH2 0x243C PUSH1 0x40 DUP4 ADD DUP7 PUSH2 0x14EF JUMP JUMPDEST PUSH2 0x2449 PUSH1 0x60 DUP4 ADD DUP6 PUSH2 0x14EF JUMP JUMPDEST DUP2 DUP2 SUB PUSH1 0x80 DUP4 ADD MSTORE PUSH2 0x245B DUP2 DUP5 PUSH2 0x20DF JUMP JUMPDEST SWAP1 POP SWAP7 SWAP6 POP POP POP POP POP POP JUMP JUMPDEST PUSH32 0x455243313135353A20546865207472616E73616374696F6E2072656365697665 PUSH0 DUP3 ADD MSTORE PUSH32 0x7220686173206E6F7420696D706C656D656E7465642074686520494552433131 PUSH1 0x20 DUP3 ADD MSTORE PUSH32 0x353552656365697665722E6F6E4572633131353552656365697665642066756E PUSH1 0x40 DUP3 ADD MSTORE PUSH32 0x6374696F6E2E0000000000000000000000000000000000000000000000000000 PUSH1 0x60 DUP3 ADD MSTORE POP JUMP JUMPDEST PUSH0 PUSH2 0x250D PUSH1 0x66 DUP4 PUSH2 0x15D4 JUMP JUMPDEST SWAP2 POP PUSH2 0x2518 DUP3 PUSH2 0x2467 JUMP JUMPDEST PUSH1 0x80 DUP3 ADD SWAP1 POP SWAP2 SWAP1 POP JUMP JUMPDEST PUSH0 PUSH1 0x20 DUP3 ADD SWAP1 POP DUP2 DUP2 SUB PUSH0 DUP4 ADD MSTORE PUSH2 0x253A DUP2 PUSH2 0x2501 JUMP JUMPDEST SWAP1 POP SWAP2 SWAP1 POP JUMP INVALID LOG2 PUSH5 0x6970667358 0x22 SLT KECCAK256 0xAE DUP7 EQ PUSH7 0x42781EF21433EE PUSH30 0x26EC019CB1D9E579B8CA415C886A2BE56AC7ADF864736F6C634300081A00 CALLER "
				},
				"gasEstimates": {
					"creation": {
						"codeDepositCost": "1918200",
						"executionCost": "infinite",
						"totalCost": "infinite"
					},
					"external": {
						"balanceOf(address,uint256)": "infinite",
						"balanceOfBatch(address[],uint256[])": "infinite",
						"isApprovedForAll(address,address)": "infinite",
						"name()": "infinite",
						"safeBatchTransferFrom(address,address,uint256[],uint256[],bytes)": "infinite",
						"safeTransferFrom(address,address,uint256,uint256,bytes)": "infinite",
						"setApprovalForAll(address,bool)": "infinite",
						"supportsInterface(bytes4)": "744",
						"symbol()": "infinite",
						"uri(uint256)": "infinite"
					},
					"internal": {
						"_asSingletonArrays(uint256,uint256)": "infinite",
						"_baseURI()": "infinite",
						"_burn(address,uint256,uint256)": "infinite",
						"_burnBatch(address,uint256[] memory,uint256[] memory)": "infinite",
						"_doSafeBatchTransferAcceptanceCheck(address,address,address,uint256[] memory,uint256[] memory,bytes memory)": "infinite",
						"_doSafeTransferAcceptanceCheck(address,address,address,uint256,uint256,bytes memory)": "infinite",
						"_mintBatchSafe(address,uint256[] memory,uint256[] memory,bytes memory)": "infinite",
						"_mintSafe(address,uint256,uint256,bytes memory)": "infinite",
						"_update(address,address,uint256[] memory,uint256[] memory)": "infinite"
					}
				},
				"methodIdentifiers": {
					"balanceOf(address,uint256)": "00fdd58e",
					"balanceOfBatch(address[],uint256[])": "4e1273f4",
					"isApprovedForAll(address,address)": "e985e9c5",
					"name()": "06fdde03",
					"safeBatchTransferFrom(address,address,uint256[],uint256[],bytes)": "2eb2c2d6",
					"safeTransferFrom(address,address,uint256,uint256,bytes)": "f242432a",
					"setApprovalForAll(address,bool)": "a22cb465",
					"supportsInterface(bytes4)": "01ffc9a7",
					"symbol()": "95d89b41",
					"uri(uint256)": "0e89341c"
				}
			},
			"storageLayout": {
				"storage": [
					{
						"astId": 22,
						"contract": "contracts/ERC1155.sol:ERC1155",
						"label": "name",
						"offset": 0,
						"slot": "0",
						"type": "t_string_storage"
					},
					{
						"astId": 24,
						"contract": "contracts/ERC1155.sol:ERC1155",
						"label": "symbol",
						"offset": 0,
						"slot": "1",
						"type": "t_string_storage"
					},
					{
						"astId": 30,
						"contract": "contracts/ERC1155.sol:ERC1155",
						"label": "_balances",
						"offset": 0,
						"slot": "2",
						"type": "t_mapping(t_uint256,t_mapping(t_address,t_uint256))"
					},
					{
						"astId": 36,
						"contract": "contracts/ERC1155.sol:ERC1155",
						"label": "_operatorApprovals",
						"offset": 0,
						"slot": "3",
						"type": "t_mapping(t_address,t_mapping(t_address,t_bool))"
					}
				],
				"types": {
					"t_address": {
						"encoding": "inplace",
						"label": "address",
						"numberOfBytes": "20"
					},
					"t_bool": {
						"encoding": "inplace",
						"label": "bool",
						"numberOfBytes": "1"
					},
					"t_mapping(t_address,t_bool)": {
						"encoding": "mapping",
						"key": "t_address",
						"label": "mapping(address => bool)",
						"numberOfBytes": "32",
						"value": "t_bool"
					},
					"t_mapping(t_address,t_mapping(t_address,t_bool))": {
						"encoding": "mapping",
						"key": "t_address",
						"label": "mapping(address => mapping(address => bool))",
						"numberOfBytes": "32",
						"value": "t_mapping(t_address,t_bool)"
					},
					"t_mapping(t_address,t_uint256)": {
						"encoding": "mapping",
						"key": "t_address",
						"label": "mapping(address => uint256)",
						"numberOfBytes": "32",
						"value": "t_uint256"
					},
					"t_mapping(t_uint256,t_mapping(t_address,t_uint256))": {
						"encoding": "mapping",
						"key": "t_uint256",
						"label": "mapping(uint256 => mapping(address => uint256))",
						"numberOfBytes": "32",
						"value": "t_mapping(t_address,t_uint256)"
					},
					"t_string_storage": {
						"encoding": "bytes",
						"label": "string",
						"numberOfBytes": "32"
					},
					"t_uint256": {
						"encoding": "inplace",
						"label": "uint256",
						"numberOfBytes": "32"
					}
				}
			},
			"userdoc": {
				"kind": "user",
				"methods": {},
				"notice": "支持一个合约包含多种代币，包含了NFT和FT 区分NFT和FT，就看对应的代币总量是否是大于1，一般NFT的总量为1，FT的总量会大于1 在ERC1155中，会使用id来作为代币标识，id是唯一的，并且每一个代币都一个uri地址来存储以及管理元数据信息",
				"version": 1
			}
		}
	}
}