{
	"contracts/TokenLocker.sol": {
		"TokenLock": {
			"abi": [
				{
					"inputs": [
						{
							"internalType": "address",
							"name": "beneficary_",
							"type": "address"
						},
						{
							"internalType": "address",
							"name": "token_",
							"type": "address"
						},
						{
							"internalType": "uint256",
							"name": "lockTimestamp_",
							"type": "uint256"
						}
					],
					"stateMutability": "nonpayable",
					"type": "constructor"
				},
				{
					"anonymous": false,
					"inputs": [
						{
							"indexed": true,
							"internalType": "address",
							"name": "beneficary",
							"type": "address"
						},
						{
							"indexed": true,
							"internalType": "address",
							"name": "token",
							"type": "address"
						},
						{
							"indexed": false,
							"internalType": "uint256",
							"name": "releasedTimestamp",
							"type": "uint256"
						},
						{
							"indexed": false,
							"internalType": "uint256",
							"name": "releasedAmount",
							"type": "uint256"
						}
					],
					"name": "Release",
					"type": "event"
				},
				{
					"anonymous": false,
					"inputs": [
						{
							"indexed": true,
							"internalType": "address",
							"name": "beneficary",
							"type": "address"
						},
						{
							"indexed": true,
							"internalType": "address",
							"name": "token",
							"type": "address"
						},
						{
							"indexed": false,
							"internalType": "uint256",
							"name": "startTimestamp",
							"type": "uint256"
						},
						{
							"indexed": false,
							"internalType": "uint256",
							"name": "lockTimestamp",
							"type": "uint256"
						}
					],
					"name": "TokenLockStart",
					"type": "event"
				},
				{
					"inputs": [],
					"name": "beneficary",
					"outputs": [
						{
							"internalType": "address",
							"name": "",
							"type": "address"
						}
					],
					"stateMutability": "view",
					"type": "function"
				},
				{
					"inputs": [],
					"name": "lockTimestamp",
					"outputs": [
						{
							"internalType": "uint256",
							"name": "",
							"type": "uint256"
						}
					],
					"stateMutability": "view",
					"type": "function"
				},
				{
					"inputs": [],
					"name": "release",
					"outputs": [],
					"stateMutability": "nonpayable",
					"type": "function"
				},
				{
					"inputs": [],
					"name": "startTimestamp",
					"outputs": [
						{
							"internalType": "uint256",
							"name": "",
							"type": "uint256"
						}
					],
					"stateMutability": "view",
					"type": "function"
				},
				{
					"inputs": [],
					"name": "token",
					"outputs": [
						{
							"internalType": "address",
							"name": "",
							"type": "address"
						}
					],
					"stateMutability": "view",
					"type": "function"
				}
			],
			"devdoc": {
				"kind": "dev",
				"methods": {},
				"version": 1
			},
			"evm": {
				"assembly": "    /* \"contracts/TokenLocker.sol\":1506:2965  contract TokenLock {... */\n  mstore(0x40, 0x0100)\n    /* \"contracts/TokenLocker.sol\":1955:2430  constructor(address beneficary_, address token_, uint256 lockTimestamp_) {... */\n  callvalue\n  dup1\n  iszero\n  tag_1\n  jumpi\n  0x00\n  dup1\n  revert\ntag_1:\n  pop\n  mload(0x40)\n  sub(codesize, bytecodeSize)\n  dup1\n  bytecodeSize\n  dup4\n  codecopy\n  dup2\n  dup2\n  add\n  0x40\n  mstore\n  dup2\n  add\n  swap1\n  tag_2\n  swap2\n  swap1\n  tag_3\n  jump\t// in\ntag_2:\n    /* \"contracts/TokenLocker.sol\":2070:2071  0 */\n  0x00\n    /* \"contracts/TokenLocker.sol\":2047:2072  beneficary_ != address(0) */\n  0xffffffffffffffffffffffffffffffffffffffff\n  and\n    /* \"contracts/TokenLocker.sol\":2047:2058  beneficary_ */\n  dup4\n    /* \"contracts/TokenLocker.sol\":2047:2072  beneficary_ != address(0) */\n  0xffffffffffffffffffffffffffffffffffffffff\n  and\n  sub\n    /* \"contracts/TokenLocker.sol\":2039:2110  require(beneficary_ != address(0), \"beneficary can't be zero address.\") */\n  tag_6\n  jumpi\n  mload(0x40)\n  0x08c379a000000000000000000000000000000000000000000000000000000000\n  dup2\n  mstore\n  0x04\n  add\n  tag_7\n  swap1\n  tag_8\n  jump\t// in\ntag_7:\n  mload(0x40)\n  dup1\n  swap2\n  sub\n  swap1\n  revert\ntag_6:\n    /* \"contracts/TokenLocker.sol\":2146:2147  0 */\n  0x00\n    /* \"contracts/TokenLocker.sol\":2129:2143  lockTimestamp_ */\n  dup2\n    /* \"contracts/TokenLocker.sol\":2129:2147  lockTimestamp_ > 0 */\n  gt\n    /* \"contracts/TokenLocker.sol\":2121:2193  require(lockTimestamp_ > 0, \"lock timestamp must be greater then zero.\") */\n  tag_9\n  jumpi\n  mload(0x40)\n  0x08c379a000000000000000000000000000000000000000000000000000000000\n  dup2\n  mstore\n  0x04\n  add\n  tag_10\n  swap1\n  tag_11\n  jump\t// in\ntag_10:\n  mload(0x40)\n  dup1\n  swap2\n  sub\n  swap1\n  revert\ntag_9:\n    /* \"contracts/TokenLocker.sol\":2219:2230  beneficary_ */\n  dup3\n    /* \"contracts/TokenLocker.sol\":2206:2230  beneficary = beneficary_ */\n  0xffffffffffffffffffffffffffffffffffffffff\n  and\n  0x80\n  dup2\n  0xffffffffffffffffffffffffffffffffffffffff\n  and\n  dup2\n  mstore\n  pop\n  pop\n    /* \"contracts/TokenLocker.sol\":2249:2255  token_ */\n  dup2\n    /* \"contracts/TokenLocker.sol\":2241:2255  token = token_ */\n  0xffffffffffffffffffffffffffffffffffffffff\n  and\n  0xa0\n  dup2\n  0xffffffffffffffffffffffffffffffffffffffff\n  and\n  dup2\n  mstore\n  pop\n  pop\n    /* \"contracts/TokenLocker.sol\":2284:2299  block.timestamp */\n  timestamp\n    /* \"contracts/TokenLocker.sol\":2266:2299  startTimestamp =  block.timestamp */\n  0xc0\n  dup2\n  dup2\n  mstore\n  pop\n  pop\n    /* \"contracts/TokenLocker.sol\":2326:2340  lockTimestamp_ */\n  dup1\n    /* \"contracts/TokenLocker.sol\":2310:2340  lockTimestamp = lockTimestamp_ */\n  0xe0\n  dup2\n  dup2\n  mstore\n  pop\n  pop\n    /* \"contracts/TokenLocker.sol\":2385:2390  token */\n  mload(0xa0)\n    /* \"contracts/TokenLocker.sol\":2358:2422  TokenLockStart(beneficary, token, startTimestamp, lockTimestamp) */\n  0xffffffffffffffffffffffffffffffffffffffff\n  and\n    /* \"contracts/TokenLocker.sol\":2373:2383  beneficary */\n  mload(0x80)\n    /* \"contracts/TokenLocker.sol\":2358:2422  TokenLockStart(beneficary, token, startTimestamp, lockTimestamp) */\n  0xffffffffffffffffffffffffffffffffffffffff\n  and\n  0xe5d7d4b5cb0219916a8be73968f7baf3c806fd018b0cc5598f5129436cf5c316\n    /* \"contracts/TokenLocker.sol\":2392:2406  startTimestamp */\n  mload(0xc0)\n    /* \"contracts/TokenLocker.sol\":2408:2421  lockTimestamp */\n  mload(0xe0)\n    /* \"contracts/TokenLocker.sol\":2358:2422  TokenLockStart(beneficary, token, startTimestamp, lockTimestamp) */\n  mload(0x40)\n  tag_12\n  swap3\n  swap2\n  swap1\n  tag_13\n  jump\t// in\ntag_12:\n  mload(0x40)\n  dup1\n  swap2\n  sub\n  swap1\n  log3\n    /* \"contracts/TokenLocker.sol\":1955:2430  constructor(address beneficary_, address token_, uint256 lockTimestamp_) {... */\n  pop\n  pop\n  pop\n    /* \"contracts/TokenLocker.sol\":1506:2965  contract TokenLock {... */\n  jump(tag_14)\n    /* \"#utility.yul\":88:205   */\ntag_16:\n    /* \"#utility.yul\":197:198   */\n  0x00\n    /* \"#utility.yul\":194:195   */\n  dup1\n    /* \"#utility.yul\":187:199   */\n  revert\n    /* \"#utility.yul\":334:460   */\ntag_18:\n    /* \"#utility.yul\":371:378   */\n  0x00\n    /* \"#utility.yul\":411:453   */\n  0xffffffffffffffffffffffffffffffffffffffff\n    /* \"#utility.yul\":404:409   */\n  dup3\n    /* \"#utility.yul\":400:454   */\n  and\n    /* \"#utility.yul\":389:454   */\n  swap1\n  pop\n    /* \"#utility.yul\":334:460   */\n  swap2\n  swap1\n  pop\n  jump\t// out\n    /* \"#utility.yul\":466:562   */\ntag_19:\n    /* \"#utility.yul\":503:510   */\n  0x00\n    /* \"#utility.yul\":532:556   */\n  tag_37\n    /* \"#utility.yul\":550:555   */\n  dup3\n    /* \"#utility.yul\":532:556   */\n  tag_18\n  jump\t// in\ntag_37:\n    /* \"#utility.yul\":521:556   */\n  swap1\n  pop\n    /* \"#utility.yul\":466:562   */\n  swap2\n  swap1\n  pop\n  jump\t// out\n    /* \"#utility.yul\":568:690   */\ntag_20:\n    /* \"#utility.yul\":641:665   */\n  tag_39\n    /* \"#utility.yul\":659:664   */\n  dup2\n    /* \"#utility.yul\":641:665   */\n  tag_19\n  jump\t// in\ntag_39:\n    /* \"#utility.yul\":634:639   */\n  dup2\n    /* \"#utility.yul\":631:666   */\n  eq\n    /* \"#utility.yul\":621:684   */\n  tag_40\n  jumpi\n    /* \"#utility.yul\":680:681   */\n  0x00\n    /* \"#utility.yul\":677:678   */\n  dup1\n    /* \"#utility.yul\":670:682   */\n  revert\n    /* \"#utility.yul\":621:684   */\ntag_40:\n    /* \"#utility.yul\":568:690   */\n  pop\n  jump\t// out\n    /* \"#utility.yul\":696:839   */\ntag_21:\n    /* \"#utility.yul\":753:758   */\n  0x00\n    /* \"#utility.yul\":784:790   */\n  dup2\n    /* \"#utility.yul\":778:791   */\n  mload\n    /* \"#utility.yul\":769:791   */\n  swap1\n  pop\n    /* \"#utility.yul\":800:833   */\n  tag_42\n    /* \"#utility.yul\":827:832   */\n  dup2\n    /* \"#utility.yul\":800:833   */\n  tag_20\n  jump\t// in\ntag_42:\n    /* \"#utility.yul\":696:839   */\n  swap3\n  swap2\n  pop\n  pop\n  jump\t// out\n    /* \"#utility.yul\":845:922   */\ntag_22:\n    /* \"#utility.yul\":882:889   */\n  0x00\n    /* \"#utility.yul\":911:916   */\n  dup2\n    /* \"#utility.yul\":900:916   */\n  swap1\n  pop\n    /* \"#utility.yul\":845:922   */\n  swap2\n  swap1\n  pop\n  jump\t// out\n    /* \"#utility.yul\":928:1050   */\ntag_23:\n    /* \"#utility.yul\":1001:1025   */\n  tag_45\n    /* \"#utility.yul\":1019:1024   */\n  dup2\n    /* \"#utility.yul\":1001:1025   */\n  tag_22\n  jump\t// in\ntag_45:\n    /* \"#utility.yul\":994:999   */\n  dup2\n    /* \"#utility.yul\":991:1026   */\n  eq\n    /* \"#utility.yul\":981:1044   */\n  tag_46\n  jumpi\n    /* \"#utility.yul\":1040:1041   */\n  0x00\n    /* \"#utility.yul\":1037:1038   */\n  dup1\n    /* \"#utility.yul\":1030:1042   */\n  revert\n    /* \"#utility.yul\":981:1044   */\ntag_46:\n    /* \"#utility.yul\":928:1050   */\n  pop\n  jump\t// out\n    /* \"#utility.yul\":1056:1199   */\ntag_24:\n    /* \"#utility.yul\":1113:1118   */\n  0x00\n    /* \"#utility.yul\":1144:1150   */\n  dup2\n    /* \"#utility.yul\":1138:1151   */\n  mload\n    /* \"#utility.yul\":1129:1151   */\n  swap1\n  pop\n    /* \"#utility.yul\":1160:1193   */\n  tag_48\n    /* \"#utility.yul\":1187:1192   */\n  dup2\n    /* \"#utility.yul\":1160:1193   */\n  tag_23\n  jump\t// in\ntag_48:\n    /* \"#utility.yul\":1056:1199   */\n  swap3\n  swap2\n  pop\n  pop\n  jump\t// out\n    /* \"#utility.yul\":1205:1868   */\ntag_3:\n    /* \"#utility.yul\":1293:1299   */\n  0x00\n    /* \"#utility.yul\":1301:1307   */\n  dup1\n    /* \"#utility.yul\":1309:1315   */\n  0x00\n    /* \"#utility.yul\":1358:1360   */\n  0x60\n    /* \"#utility.yul\":1346:1355   */\n  dup5\n    /* \"#utility.yul\":1337:1344   */\n  dup7\n    /* \"#utility.yul\":1333:1356   */\n  sub\n    /* \"#utility.yul\":1329:1361   */\n  slt\n    /* \"#utility.yul\":1326:1445   */\n  iszero\n  tag_50\n  jumpi\n    /* \"#utility.yul\":1364:1443   */\n  tag_51\n  tag_16\n  jump\t// in\ntag_51:\n    /* \"#utility.yul\":1326:1445   */\ntag_50:\n    /* \"#utility.yul\":1484:1485   */\n  0x00\n    /* \"#utility.yul\":1509:1573   */\n  tag_52\n    /* \"#utility.yul\":1565:1572   */\n  dup7\n    /* \"#utility.yul\":1556:1562   */\n  dup3\n    /* \"#utility.yul\":1545:1554   */\n  dup8\n    /* \"#utility.yul\":1541:1563   */\n  add\n    /* \"#utility.yul\":1509:1573   */\n  tag_21\n  jump\t// in\ntag_52:\n    /* \"#utility.yul\":1499:1573   */\n  swap4\n  pop\n    /* \"#utility.yul\":1455:1583   */\n  pop\n    /* \"#utility.yul\":1622:1624   */\n  0x20\n    /* \"#utility.yul\":1648:1712   */\n  tag_53\n    /* \"#utility.yul\":1704:1711   */\n  dup7\n    /* \"#utility.yul\":1695:1701   */\n  dup3\n    /* \"#utility.yul\":1684:1693   */\n  dup8\n    /* \"#utility.yul\":1680:1702   */\n  add\n    /* \"#utility.yul\":1648:1712   */\n  tag_21\n  jump\t// in\ntag_53:\n    /* \"#utility.yul\":1638:1712   */\n  swap3\n  pop\n    /* \"#utility.yul\":1593:1722   */\n  pop\n    /* \"#utility.yul\":1761:1763   */\n  0x40\n    /* \"#utility.yul\":1787:1851   */\n  tag_54\n    /* \"#utility.yul\":1843:1850   */\n  dup7\n    /* \"#utility.yul\":1834:1840   */\n  dup3\n    /* \"#utility.yul\":1823:1832   */\n  dup8\n    /* \"#utility.yul\":1819:1841   */\n  add\n    /* \"#utility.yul\":1787:1851   */\n  tag_24\n  jump\t// in\ntag_54:\n    /* \"#utility.yul\":1777:1851   */\n  swap2\n  pop\n    /* \"#utility.yul\":1732:1861   */\n  pop\n    /* \"#utility.yul\":1205:1868   */\n  swap3\n  pop\n  swap3\n  pop\n  swap3\n  jump\t// out\n    /* \"#utility.yul\":1874:2043   */\ntag_25:\n    /* \"#utility.yul\":1958:1969   */\n  0x00\n    /* \"#utility.yul\":1992:1998   */\n  dup3\n    /* \"#utility.yul\":1987:1990   */\n  dup3\n    /* \"#utility.yul\":1980:1999   */\n  mstore\n    /* \"#utility.yul\":2032:2036   */\n  0x20\n    /* \"#utility.yul\":2027:2030   */\n  dup3\n    /* \"#utility.yul\":2023:2037   */\n  add\n    /* \"#utility.yul\":2008:2037   */\n  swap1\n  pop\n    /* \"#utility.yul\":1874:2043   */\n  swap3\n  swap2\n  pop\n  pop\n  jump\t// out\n    /* \"#utility.yul\":2049:2269   */\ntag_26:\n    /* \"#utility.yul\":2189:2223   */\n  0x62656e656669636172792063616e2774206265207a65726f2061646472657373\n    /* \"#utility.yul\":2185:2186   */\n  0x00\n    /* \"#utility.yul\":2177:2183   */\n  dup3\n    /* \"#utility.yul\":2173:2187   */\n  add\n    /* \"#utility.yul\":2166:2224   */\n  mstore\n    /* \"#utility.yul\":2258:2261   */\n  0x2e00000000000000000000000000000000000000000000000000000000000000\n    /* \"#utility.yul\":2253:2255   */\n  0x20\n    /* \"#utility.yul\":2245:2251   */\n  dup3\n    /* \"#utility.yul\":2241:2256   */\n  add\n    /* \"#utility.yul\":2234:2262   */\n  mstore\n    /* \"#utility.yul\":2049:2269   */\n  pop\n  jump\t// out\n    /* \"#utility.yul\":2275:2641   */\ntag_27:\n    /* \"#utility.yul\":2417:2420   */\n  0x00\n    /* \"#utility.yul\":2438:2505   */\n  tag_58\n    /* \"#utility.yul\":2502:2504   */\n  0x21\n    /* \"#utility.yul\":2497:2500   */\n  dup4\n    /* \"#utility.yul\":2438:2505   */\n  tag_25\n  jump\t// in\ntag_58:\n    /* \"#utility.yul\":2431:2505   */\n  swap2\n  pop\n    /* \"#utility.yul\":2514:2607   */\n  tag_59\n    /* \"#utility.yul\":2603:2606   */\n  dup3\n    /* \"#utility.yul\":2514:2607   */\n  tag_26\n  jump\t// in\ntag_59:\n    /* \"#utility.yul\":2632:2634   */\n  0x40\n    /* \"#utility.yul\":2627:2630   */\n  dup3\n    /* \"#utility.yul\":2623:2635   */\n  add\n    /* \"#utility.yul\":2616:2635   */\n  swap1\n  pop\n    /* \"#utility.yul\":2275:2641   */\n  swap2\n  swap1\n  pop\n  jump\t// out\n    /* \"#utility.yul\":2647:3066   */\ntag_8:\n    /* \"#utility.yul\":2813:2817   */\n  0x00\n    /* \"#utility.yul\":2851:2853   */\n  0x20\n    /* \"#utility.yul\":2840:2849   */\n  dup3\n    /* \"#utility.yul\":2836:2854   */\n  add\n    /* \"#utility.yul\":2828:2854   */\n  swap1\n  pop\n    /* \"#utility.yul\":2900:2909   */\n  dup2\n    /* \"#utility.yul\":2894:2898   */\n  dup2\n    /* \"#utility.yul\":2890:2910   */\n  sub\n    /* \"#utility.yul\":2886:2887   */\n  0x00\n    /* \"#utility.yul\":2875:2884   */\n  dup4\n    /* \"#utility.yul\":2871:2888   */\n  add\n    /* \"#utility.yul\":2864:2911   */\n  mstore\n    /* \"#utility.yul\":2928:3059   */\n  tag_61\n    /* \"#utility.yul\":3054:3058   */\n  dup2\n    /* \"#utility.yul\":2928:3059   */\n  tag_27\n  jump\t// in\ntag_61:\n    /* \"#utility.yul\":2920:3059   */\n  swap1\n  pop\n    /* \"#utility.yul\":2647:3066   */\n  swap2\n  swap1\n  pop\n  jump\t// out\n    /* \"#utility.yul\":3072:3300   */\ntag_28:\n    /* \"#utility.yul\":3212:3246   */\n  0x6c6f636b2074696d657374616d70206d75737420626520677265617465722074\n    /* \"#utility.yul\":3208:3209   */\n  0x00\n    /* \"#utility.yul\":3200:3206   */\n  dup3\n    /* \"#utility.yul\":3196:3210   */\n  add\n    /* \"#utility.yul\":3189:3247   */\n  mstore\n    /* \"#utility.yul\":3281:3292   */\n  0x68656e207a65726f2e0000000000000000000000000000000000000000000000\n    /* \"#utility.yul\":3276:3278   */\n  0x20\n    /* \"#utility.yul\":3268:3274   */\n  dup3\n    /* \"#utility.yul\":3264:3279   */\n  add\n    /* \"#utility.yul\":3257:3293   */\n  mstore\n    /* \"#utility.yul\":3072:3300   */\n  pop\n  jump\t// out\n    /* \"#utility.yul\":3306:3672   */\ntag_29:\n    /* \"#utility.yul\":3448:3451   */\n  0x00\n    /* \"#utility.yul\":3469:3536   */\n  tag_64\n    /* \"#utility.yul\":3533:3535   */\n  0x29\n    /* \"#utility.yul\":3528:3531   */\n  dup4\n    /* \"#utility.yul\":3469:3536   */\n  tag_25\n  jump\t// in\ntag_64:\n    /* \"#utility.yul\":3462:3536   */\n  swap2\n  pop\n    /* \"#utility.yul\":3545:3638   */\n  tag_65\n    /* \"#utility.yul\":3634:3637   */\n  dup3\n    /* \"#utility.yul\":3545:3638   */\n  tag_28\n  jump\t// in\ntag_65:\n    /* \"#utility.yul\":3663:3665   */\n  0x40\n    /* \"#utility.yul\":3658:3661   */\n  dup3\n    /* \"#utility.yul\":3654:3666   */\n  add\n    /* \"#utility.yul\":3647:3666   */\n  swap1\n  pop\n    /* \"#utility.yul\":3306:3672   */\n  swap2\n  swap1\n  pop\n  jump\t// out\n    /* \"#utility.yul\":3678:4097   */\ntag_11:\n    /* \"#utility.yul\":3844:3848   */\n  0x00\n    /* \"#utility.yul\":3882:3884   */\n  0x20\n    /* \"#utility.yul\":3871:3880   */\n  dup3\n    /* \"#utility.yul\":3867:3885   */\n  add\n    /* \"#utility.yul\":3859:3885   */\n  swap1\n  pop\n    /* \"#utility.yul\":3931:3940   */\n  dup2\n    /* \"#utility.yul\":3925:3929   */\n  dup2\n    /* \"#utility.yul\":3921:3941   */\n  sub\n    /* \"#utility.yul\":3917:3918   */\n  0x00\n    /* \"#utility.yul\":3906:3915   */\n  dup4\n    /* \"#utility.yul\":3902:3919   */\n  add\n    /* \"#utility.yul\":3895:3942   */\n  mstore\n    /* \"#utility.yul\":3959:4090   */\n  tag_67\n    /* \"#utility.yul\":4085:4089   */\n  dup2\n    /* \"#utility.yul\":3959:4090   */\n  tag_29\n  jump\t// in\ntag_67:\n    /* \"#utility.yul\":3951:4090   */\n  swap1\n  pop\n    /* \"#utility.yul\":3678:4097   */\n  swap2\n  swap1\n  pop\n  jump\t// out\n    /* \"#utility.yul\":4103:4221   */\ntag_30:\n    /* \"#utility.yul\":4190:4214   */\n  tag_69\n    /* \"#utility.yul\":4208:4213   */\n  dup2\n    /* \"#utility.yul\":4190:4214   */\n  tag_22\n  jump\t// in\ntag_69:\n    /* \"#utility.yul\":4185:4188   */\n  dup3\n    /* \"#utility.yul\":4178:4215   */\n  mstore\n    /* \"#utility.yul\":4103:4221   */\n  pop\n  pop\n  jump\t// out\n    /* \"#utility.yul\":4227:4559   */\ntag_13:\n    /* \"#utility.yul\":4348:4352   */\n  0x00\n    /* \"#utility.yul\":4386:4388   */\n  0x40\n    /* \"#utility.yul\":4375:4384   */\n  dup3\n    /* \"#utility.yul\":4371:4389   */\n  add\n    /* \"#utility.yul\":4363:4389   */\n  swap1\n  pop\n    /* \"#utility.yul\":4399:4470   */\n  tag_71\n    /* \"#utility.yul\":4467:4468   */\n  0x00\n    /* \"#utility.yul\":4456:4465   */\n  dup4\n    /* \"#utility.yul\":4452:4469   */\n  add\n    /* \"#utility.yul\":4443:4449   */\n  dup6\n    /* \"#utility.yul\":4399:4470   */\n  tag_30\n  jump\t// in\ntag_71:\n    /* \"#utility.yul\":4480:4552   */\n  tag_72\n    /* \"#utility.yul\":4548:4550   */\n  0x20\n    /* \"#utility.yul\":4537:4546   */\n  dup4\n    /* \"#utility.yul\":4533:4551   */\n  add\n    /* \"#utility.yul\":4524:4530   */\n  dup5\n    /* \"#utility.yul\":4480:4552   */\n  tag_30\n  jump\t// in\ntag_72:\n    /* \"#utility.yul\":4227:4559   */\n  swap4\n  swap3\n  pop\n  pop\n  pop\n  jump\t// out\n    /* \"contracts/TokenLocker.sol\":1506:2965  contract TokenLock {... */\ntag_14:\n  mload(0x80)\n  mload(0xa0)\n  mload(0xc0)\n  mload(0xe0)\n  codecopy(0x00, dataOffset(sub_0), dataSize(sub_0))\n  0x00\n  assignImmutable(\"0x75bcc28b7fac24eeec9856ca179c749c015847969c966f0a0315f3d435961b2d\")\n  0x00\n  assignImmutable(\"0x1de4bb6d0a46e7f18f0f0b3c4fdbb21eb3fa3fd7d0a7a091176ef4826e0c7e92\")\n  0x00\n  assignImmutable(\"0x813d03d119be674a7c57ea6a2f3300b2d977fd22150971e07cabe4941d258ce9\")\n  0x00\n  assignImmutable(\"0x8e75ac1b311136790090940fa0a753e09efdc1e1cbcfb0d7b4918e0892798bbb\")\n  return(0x00, dataSize(sub_0))\nstop\n\nsub_0: assembly {\n        /* \"contracts/TokenLocker.sol\":1506:2965  contract TokenLock {... */\n      mstore(0x40, 0x80)\n      callvalue\n      dup1\n      iszero\n      tag_1\n      jumpi\n      0x00\n      dup1\n      revert\n    tag_1:\n      pop\n      jumpi(tag_2, lt(calldatasize, 0x04))\n      shr(0xe0, calldataload(0x00))\n      dup1\n      0x86d1a69f\n      eq\n      tag_3\n      jumpi\n      dup1\n      0xb544bf83\n      eq\n      tag_4\n      jumpi\n      dup1\n      0xcbfda1c5\n      eq\n      tag_5\n      jumpi\n      dup1\n      0xe6fd48bc\n      eq\n      tag_6\n      jumpi\n      dup1\n      0xfc0c546a\n      eq\n      tag_7\n      jumpi\n    tag_2:\n      0x00\n      dup1\n      revert\n        /* \"contracts/TokenLocker.sol\":2459:2962  function release() public {... */\n    tag_3:\n      tag_8\n      tag_9\n      jump\t// in\n    tag_8:\n      stop\n        /* \"contracts/TokenLocker.sol\":1657:1695  uint256 public immutable lockTimestamp */\n    tag_4:\n      tag_10\n      tag_11\n      jump\t// in\n    tag_10:\n      mload(0x40)\n      tag_12\n      swap2\n      swap1\n      tag_13\n      jump\t// in\n    tag_12:\n      mload(0x40)\n      dup1\n      swap2\n      sub\n      swap1\n      return\n        /* \"contracts/TokenLocker.sol\":1532:1567  address public immutable beneficary */\n    tag_5:\n      tag_14\n      tag_15\n      jump\t// in\n    tag_14:\n      mload(0x40)\n      tag_16\n      swap2\n      swap1\n      tag_17\n      jump\t// in\n    tag_16:\n      mload(0x40)\n      dup1\n      swap2\n      sub\n      swap1\n      return\n        /* \"contracts/TokenLocker.sol\":1611:1650  uint256 public immutable startTimestamp */\n    tag_6:\n      tag_18\n      tag_19\n      jump\t// in\n    tag_18:\n      mload(0x40)\n      tag_20\n      swap2\n      swap1\n      tag_13\n      jump\t// in\n    tag_20:\n      mload(0x40)\n      dup1\n      swap2\n      sub\n      swap1\n      return\n        /* \"contracts/TokenLocker.sol\":1574:1604  address public immutable token */\n    tag_7:\n      tag_21\n      tag_22\n      jump\t// in\n    tag_21:\n      mload(0x40)\n      tag_23\n      swap2\n      swap1\n      tag_17\n      jump\t// in\n    tag_23:\n      mload(0x40)\n      dup1\n      swap2\n      sub\n      swap1\n      return\n        /* \"contracts/TokenLocker.sol\":2459:2962  function release() public {... */\n    tag_9:\n        /* \"contracts/TokenLocker.sol\":2539:2552  lockTimestamp */\n      immutable(\"0x75bcc28b7fac24eeec9856ca179c749c015847969c966f0a0315f3d435961b2d\")\n        /* \"contracts/TokenLocker.sol\":2522:2536  startTimestamp */\n      immutable(\"0x1de4bb6d0a46e7f18f0f0b3c4fdbb21eb3fa3fd7d0a7a091176ef4826e0c7e92\")\n        /* \"contracts/TokenLocker.sol\":2522:2552  startTimestamp + lockTimestamp */\n      tag_25\n      swap2\n      swap1\n      tag_26\n      jump\t// in\n    tag_25:\n        /* \"contracts/TokenLocker.sol\":2504:2519  block.timestamp */\n      timestamp\n        /* \"contracts/TokenLocker.sol\":2504:2552  block.timestamp > startTimestamp + lockTimestamp */\n      gt\n        /* \"contracts/TokenLocker.sol\":2496:2606  require(block.timestamp > startTimestamp + lockTimestamp, \"The time to unlock the token has not yet arrived.\") */\n      tag_27\n      jumpi\n      mload(0x40)\n      0x08c379a000000000000000000000000000000000000000000000000000000000\n      dup2\n      mstore\n      0x04\n      add\n      tag_28\n      swap1\n      tag_29\n      jump\t// in\n    tag_28:\n      mload(0x40)\n      dup1\n      swap2\n      sub\n      swap1\n      revert\n    tag_27:\n        /* \"contracts/TokenLocker.sol\":2700:2710  IERC20 e20 */\n      0x00\n        /* \"contracts/TokenLocker.sol\":2720:2725  token */\n      immutable(\"0x813d03d119be674a7c57ea6a2f3300b2d977fd22150971e07cabe4941d258ce9\")\n        /* \"contracts/TokenLocker.sol\":2700:2726  IERC20 e20 = IERC20(token) */\n      swap1\n      pop\n        /* \"contracts/TokenLocker.sol\":2737:2752  uint256 balance */\n      0x00\n        /* \"contracts/TokenLocker.sol\":2755:2758  e20 */\n      dup2\n        /* \"contracts/TokenLocker.sol\":2755:2768  e20.balanceOf */\n      0xffffffffffffffffffffffffffffffffffffffff\n      and\n      0x70a08231\n        /* \"contracts/TokenLocker.sol\":2777:2781  this */\n      address\n        /* \"contracts/TokenLocker.sol\":2755:2783  e20.balanceOf(address(this)) */\n      mload(0x40)\n      dup3\n      0xffffffff\n      and\n      0xe0\n      shl\n      dup2\n      mstore\n      0x04\n      add\n      tag_30\n      swap2\n      swap1\n      tag_17\n      jump\t// in\n    tag_30:\n      0x20\n      mload(0x40)\n      dup1\n      dup4\n      sub\n      dup2\n      dup7\n      gas\n      staticcall\n      iszero\n      dup1\n      iszero\n      tag_32\n      jumpi\n      returndatasize\n      0x00\n      dup1\n      returndatacopy\n      revert(0x00, returndatasize)\n    tag_32:\n      pop\n      pop\n      pop\n      pop\n      mload(0x40)\n      returndatasize\n      not(0x1f)\n      0x1f\n      dup3\n      add\n      and\n      dup3\n      add\n      dup1\n      0x40\n      mstore\n      pop\n      dup2\n      add\n      swap1\n      tag_33\n      swap2\n      swap1\n      tag_34\n      jump\t// in\n    tag_33:\n        /* \"contracts/TokenLocker.sol\":2737:2783  uint256 balance = e20.balanceOf(address(this)) */\n      swap1\n      pop\n        /* \"contracts/TokenLocker.sol\":2812:2813  0 */\n      0x00\n        /* \"contracts/TokenLocker.sol\":2802:2809  balance */\n      dup2\n        /* \"contracts/TokenLocker.sol\":2802:2813  balance > 0 */\n      gt\n        /* \"contracts/TokenLocker.sol\":2794:2838  require(balance > 0, \"insufficient balance\") */\n      tag_35\n      jumpi\n      mload(0x40)\n      0x08c379a000000000000000000000000000000000000000000000000000000000\n      dup2\n      mstore\n      0x04\n      add\n      tag_36\n      swap1\n      tag_37\n      jump\t// in\n    tag_36:\n      mload(0x40)\n      dup1\n      swap2\n      sub\n      swap1\n      revert\n    tag_35:\n        /* \"contracts/TokenLocker.sol\":2851:2854  e20 */\n      dup2\n        /* \"contracts/TokenLocker.sol\":2851:2863  e20.transfer */\n      0xffffffffffffffffffffffffffffffffffffffff\n      and\n      0xa9059cbb\n        /* \"contracts/TokenLocker.sol\":2864:2874  beneficary */\n      immutable(\"0x8e75ac1b311136790090940fa0a753e09efdc1e1cbcfb0d7b4918e0892798bbb\")\n        /* \"contracts/TokenLocker.sol\":2876:2883  balance */\n      dup4\n        /* \"contracts/TokenLocker.sol\":2851:2884  e20.transfer(beneficary, balance) */\n      mload(0x40)\n      dup4\n      0xffffffff\n      and\n      0xe0\n      shl\n      dup2\n      mstore\n      0x04\n      add\n      tag_38\n      swap3\n      swap2\n      swap1\n      tag_39\n      jump\t// in\n    tag_38:\n      0x20\n      mload(0x40)\n      dup1\n      dup4\n      sub\n      dup2\n      0x00\n      dup8\n      gas\n      call\n      iszero\n      dup1\n      iszero\n      tag_41\n      jumpi\n      returndatasize\n      0x00\n      dup1\n      returndatacopy\n      revert(0x00, returndatasize)\n    tag_41:\n      pop\n      pop\n      pop\n      pop\n      mload(0x40)\n      returndatasize\n      not(0x1f)\n      0x1f\n      dup3\n      add\n      and\n      dup3\n      add\n      dup1\n      0x40\n      mstore\n      pop\n      dup2\n      add\n      swap1\n      tag_42\n      swap2\n      swap1\n      tag_43\n      jump\t// in\n    tag_42:\n      pop\n        /* \"contracts/TokenLocker.sol\":2922:2927  token */\n      immutable(\"0x813d03d119be674a7c57ea6a2f3300b2d977fd22150971e07cabe4941d258ce9\")\n        /* \"contracts/TokenLocker.sol\":2902:2954  Release(beneficary, token, block.timestamp, balance) */\n      0xffffffffffffffffffffffffffffffffffffffff\n      and\n        /* \"contracts/TokenLocker.sol\":2910:2920  beneficary */\n      immutable(\"0x8e75ac1b311136790090940fa0a753e09efdc1e1cbcfb0d7b4918e0892798bbb\")\n        /* \"contracts/TokenLocker.sol\":2902:2954  Release(beneficary, token, block.timestamp, balance) */\n      0xffffffffffffffffffffffffffffffffffffffff\n      and\n      0x10b55f01b1cfe0feeb7d144f66162661602d8e73256499b6d8342aac37ff0679\n        /* \"contracts/TokenLocker.sol\":2929:2944  block.timestamp */\n      timestamp\n        /* \"contracts/TokenLocker.sol\":2946:2953  balance */\n      dup5\n        /* \"contracts/TokenLocker.sol\":2902:2954  Release(beneficary, token, block.timestamp, balance) */\n      mload(0x40)\n      tag_44\n      swap3\n      swap2\n      swap1\n      tag_45\n      jump\t// in\n    tag_44:\n      mload(0x40)\n      dup1\n      swap2\n      sub\n      swap1\n      log3\n        /* \"contracts/TokenLocker.sol\":2485:2962  {... */\n      pop\n      pop\n        /* \"contracts/TokenLocker.sol\":2459:2962  function release() public {... */\n      jump\t// out\n        /* \"contracts/TokenLocker.sol\":1657:1695  uint256 public immutable lockTimestamp */\n    tag_11:\n      immutable(\"0x75bcc28b7fac24eeec9856ca179c749c015847969c966f0a0315f3d435961b2d\")\n      dup2\n      jump\t// out\n        /* \"contracts/TokenLocker.sol\":1532:1567  address public immutable beneficary */\n    tag_15:\n      immutable(\"0x8e75ac1b311136790090940fa0a753e09efdc1e1cbcfb0d7b4918e0892798bbb\")\n      dup2\n      jump\t// out\n        /* \"contracts/TokenLocker.sol\":1611:1650  uint256 public immutable startTimestamp */\n    tag_19:\n      immutable(\"0x1de4bb6d0a46e7f18f0f0b3c4fdbb21eb3fa3fd7d0a7a091176ef4826e0c7e92\")\n      dup2\n      jump\t// out\n        /* \"contracts/TokenLocker.sol\":1574:1604  address public immutable token */\n    tag_22:\n      immutable(\"0x813d03d119be674a7c57ea6a2f3300b2d977fd22150971e07cabe4941d258ce9\")\n      dup2\n      jump\t// out\n        /* \"#utility.yul\":7:84   */\n    tag_46:\n        /* \"#utility.yul\":44:51   */\n      0x00\n        /* \"#utility.yul\":73:78   */\n      dup2\n        /* \"#utility.yul\":62:78   */\n      swap1\n      pop\n        /* \"#utility.yul\":7:84   */\n      swap2\n      swap1\n      pop\n      jump\t// out\n        /* \"#utility.yul\":90:208   */\n    tag_47:\n        /* \"#utility.yul\":177:201   */\n      tag_68\n        /* \"#utility.yul\":195:200   */\n      dup2\n        /* \"#utility.yul\":177:201   */\n      tag_46\n      jump\t// in\n    tag_68:\n        /* \"#utility.yul\":172:175   */\n      dup3\n        /* \"#utility.yul\":165:202   */\n      mstore\n        /* \"#utility.yul\":90:208   */\n      pop\n      pop\n      jump\t// out\n        /* \"#utility.yul\":214:436   */\n    tag_13:\n        /* \"#utility.yul\":307:311   */\n      0x00\n        /* \"#utility.yul\":345:347   */\n      0x20\n        /* \"#utility.yul\":334:343   */\n      dup3\n        /* \"#utility.yul\":330:348   */\n      add\n        /* \"#utility.yul\":322:348   */\n      swap1\n      pop\n        /* \"#utility.yul\":358:429   */\n      tag_70\n        /* \"#utility.yul\":426:427   */\n      0x00\n        /* \"#utility.yul\":415:424   */\n      dup4\n        /* \"#utility.yul\":411:428   */\n      add\n        /* \"#utility.yul\":402:408   */\n      dup5\n        /* \"#utility.yul\":358:429   */\n      tag_47\n      jump\t// in\n    tag_70:\n        /* \"#utility.yul\":214:436   */\n      swap3\n      swap2\n      pop\n      pop\n      jump\t// out\n        /* \"#utility.yul\":442:568   */\n    tag_48:\n        /* \"#utility.yul\":479:486   */\n      0x00\n        /* \"#utility.yul\":519:561   */\n      0xffffffffffffffffffffffffffffffffffffffff\n        /* \"#utility.yul\":512:517   */\n      dup3\n        /* \"#utility.yul\":508:562   */\n      and\n        /* \"#utility.yul\":497:562   */\n      swap1\n      pop\n        /* \"#utility.yul\":442:568   */\n      swap2\n      swap1\n      pop\n      jump\t// out\n        /* \"#utility.yul\":574:670   */\n    tag_49:\n        /* \"#utility.yul\":611:618   */\n      0x00\n        /* \"#utility.yul\":640:664   */\n      tag_73\n        /* \"#utility.yul\":658:663   */\n      dup3\n        /* \"#utility.yul\":640:664   */\n      tag_48\n      jump\t// in\n    tag_73:\n        /* \"#utility.yul\":629:664   */\n      swap1\n      pop\n        /* \"#utility.yul\":574:670   */\n      swap2\n      swap1\n      pop\n      jump\t// out\n        /* \"#utility.yul\":676:794   */\n    tag_50:\n        /* \"#utility.yul\":763:787   */\n      tag_75\n        /* \"#utility.yul\":781:786   */\n      dup2\n        /* \"#utility.yul\":763:787   */\n      tag_49\n      jump\t// in\n    tag_75:\n        /* \"#utility.yul\":758:761   */\n      dup3\n        /* \"#utility.yul\":751:788   */\n      mstore\n        /* \"#utility.yul\":676:794   */\n      pop\n      pop\n      jump\t// out\n        /* \"#utility.yul\":800:1022   */\n    tag_17:\n        /* \"#utility.yul\":893:897   */\n      0x00\n        /* \"#utility.yul\":931:933   */\n      0x20\n        /* \"#utility.yul\":920:929   */\n      dup3\n        /* \"#utility.yul\":916:934   */\n      add\n        /* \"#utility.yul\":908:934   */\n      swap1\n      pop\n        /* \"#utility.yul\":944:1015   */\n      tag_77\n        /* \"#utility.yul\":1012:1013   */\n      0x00\n        /* \"#utility.yul\":1001:1010   */\n      dup4\n        /* \"#utility.yul\":997:1014   */\n      add\n        /* \"#utility.yul\":988:994   */\n      dup5\n        /* \"#utility.yul\":944:1015   */\n      tag_50\n      jump\t// in\n    tag_77:\n        /* \"#utility.yul\":800:1022   */\n      swap3\n      swap2\n      pop\n      pop\n      jump\t// out\n        /* \"#utility.yul\":1028:1208   */\n    tag_51:\n        /* \"#utility.yul\":1076:1153   */\n      0x4e487b7100000000000000000000000000000000000000000000000000000000\n        /* \"#utility.yul\":1073:1074   */\n      0x00\n        /* \"#utility.yul\":1066:1154   */\n      mstore\n        /* \"#utility.yul\":1173:1177   */\n      0x11\n        /* \"#utility.yul\":1170:1171   */\n      0x04\n        /* \"#utility.yul\":1163:1178   */\n      mstore\n        /* \"#utility.yul\":1197:1201   */\n      0x24\n        /* \"#utility.yul\":1194:1195   */\n      0x00\n        /* \"#utility.yul\":1187:1202   */\n      revert\n        /* \"#utility.yul\":1214:1405   */\n    tag_26:\n        /* \"#utility.yul\":1254:1257   */\n      0x00\n        /* \"#utility.yul\":1273:1293   */\n      tag_80\n        /* \"#utility.yul\":1291:1292   */\n      dup3\n        /* \"#utility.yul\":1273:1293   */\n      tag_46\n      jump\t// in\n    tag_80:\n        /* \"#utility.yul\":1268:1293   */\n      swap2\n      pop\n        /* \"#utility.yul\":1307:1327   */\n      tag_81\n        /* \"#utility.yul\":1325:1326   */\n      dup4\n        /* \"#utility.yul\":1307:1327   */\n      tag_46\n      jump\t// in\n    tag_81:\n        /* \"#utility.yul\":1302:1327   */\n      swap3\n      pop\n        /* \"#utility.yul\":1350:1351   */\n      dup3\n        /* \"#utility.yul\":1347:1348   */\n      dup3\n        /* \"#utility.yul\":1343:1352   */\n      add\n        /* \"#utility.yul\":1336:1352   */\n      swap1\n      pop\n        /* \"#utility.yul\":1371:1374   */\n      dup1\n        /* \"#utility.yul\":1368:1369   */\n      dup3\n        /* \"#utility.yul\":1365:1375   */\n      gt\n        /* \"#utility.yul\":1362:1398   */\n      iszero\n      tag_82\n      jumpi\n        /* \"#utility.yul\":1378:1396   */\n      tag_83\n      tag_51\n      jump\t// in\n    tag_83:\n        /* \"#utility.yul\":1362:1398   */\n    tag_82:\n        /* \"#utility.yul\":1214:1405   */\n      swap3\n      swap2\n      pop\n      pop\n      jump\t// out\n        /* \"#utility.yul\":1411:1580   */\n    tag_52:\n        /* \"#utility.yul\":1495:1506   */\n      0x00\n        /* \"#utility.yul\":1529:1535   */\n      dup3\n        /* \"#utility.yul\":1524:1527   */\n      dup3\n        /* \"#utility.yul\":1517:1536   */\n      mstore\n        /* \"#utility.yul\":1569:1573   */\n      0x20\n        /* \"#utility.yul\":1564:1567   */\n      dup3\n        /* \"#utility.yul\":1560:1574   */\n      add\n        /* \"#utility.yul\":1545:1574   */\n      swap1\n      pop\n        /* \"#utility.yul\":1411:1580   */\n      swap3\n      swap2\n      pop\n      pop\n      jump\t// out\n        /* \"#utility.yul\":1586:1822   */\n    tag_53:\n        /* \"#utility.yul\":1726:1760   */\n      0x5468652074696d6520746f20756e6c6f636b2074686520746f6b656e20686173\n        /* \"#utility.yul\":1722:1723   */\n      0x00\n        /* \"#utility.yul\":1714:1720   */\n      dup3\n        /* \"#utility.yul\":1710:1724   */\n      add\n        /* \"#utility.yul\":1703:1761   */\n      mstore\n        /* \"#utility.yul\":1795:1814   */\n      0x206e6f742079657420617272697665642e000000000000000000000000000000\n        /* \"#utility.yul\":1790:1792   */\n      0x20\n        /* \"#utility.yul\":1782:1788   */\n      dup3\n        /* \"#utility.yul\":1778:1793   */\n      add\n        /* \"#utility.yul\":1771:1815   */\n      mstore\n        /* \"#utility.yul\":1586:1822   */\n      pop\n      jump\t// out\n        /* \"#utility.yul\":1828:2194   */\n    tag_54:\n        /* \"#utility.yul\":1970:1973   */\n      0x00\n        /* \"#utility.yul\":1991:2058   */\n      tag_87\n        /* \"#utility.yul\":2055:2057   */\n      0x31\n        /* \"#utility.yul\":2050:2053   */\n      dup4\n        /* \"#utility.yul\":1991:2058   */\n      tag_52\n      jump\t// in\n    tag_87:\n        /* \"#utility.yul\":1984:2058   */\n      swap2\n      pop\n        /* \"#utility.yul\":2067:2160   */\n      tag_88\n        /* \"#utility.yul\":2156:2159   */\n      dup3\n        /* \"#utility.yul\":2067:2160   */\n      tag_53\n      jump\t// in\n    tag_88:\n        /* \"#utility.yul\":2185:2187   */\n      0x40\n        /* \"#utility.yul\":2180:2183   */\n      dup3\n        /* \"#utility.yul\":2176:2188   */\n      add\n        /* \"#utility.yul\":2169:2188   */\n      swap1\n      pop\n        /* \"#utility.yul\":1828:2194   */\n      swap2\n      swap1\n      pop\n      jump\t// out\n        /* \"#utility.yul\":2200:2619   */\n    tag_29:\n        /* \"#utility.yul\":2366:2370   */\n      0x00\n        /* \"#utility.yul\":2404:2406   */\n      0x20\n        /* \"#utility.yul\":2393:2402   */\n      dup3\n        /* \"#utility.yul\":2389:2407   */\n      add\n        /* \"#utility.yul\":2381:2407   */\n      swap1\n      pop\n        /* \"#utility.yul\":2453:2462   */\n      dup2\n        /* \"#utility.yul\":2447:2451   */\n      dup2\n        /* \"#utility.yul\":2443:2463   */\n      sub\n        /* \"#utility.yul\":2439:2440   */\n      0x00\n        /* \"#utility.yul\":2428:2437   */\n      dup4\n        /* \"#utility.yul\":2424:2441   */\n      add\n        /* \"#utility.yul\":2417:2464   */\n      mstore\n        /* \"#utility.yul\":2481:2612   */\n      tag_90\n        /* \"#utility.yul\":2607:2611   */\n      dup2\n        /* \"#utility.yul\":2481:2612   */\n      tag_54\n      jump\t// in\n    tag_90:\n        /* \"#utility.yul\":2473:2612   */\n      swap1\n      pop\n        /* \"#utility.yul\":2200:2619   */\n      swap2\n      swap1\n      pop\n      jump\t// out\n        /* \"#utility.yul\":2706:2823   */\n    tag_56:\n        /* \"#utility.yul\":2815:2816   */\n      0x00\n        /* \"#utility.yul\":2812:2813   */\n      dup1\n        /* \"#utility.yul\":2805:2817   */\n      revert\n        /* \"#utility.yul\":2952:3074   */\n    tag_58:\n        /* \"#utility.yul\":3025:3049   */\n      tag_95\n        /* \"#utility.yul\":3043:3048   */\n      dup2\n        /* \"#utility.yul\":3025:3049   */\n      tag_46\n      jump\t// in\n    tag_95:\n        /* \"#utility.yul\":3018:3023   */\n      dup2\n        /* \"#utility.yul\":3015:3050   */\n      eq\n        /* \"#utility.yul\":3005:3068   */\n      tag_96\n      jumpi\n        /* \"#utility.yul\":3064:3065   */\n      0x00\n        /* \"#utility.yul\":3061:3062   */\n      dup1\n        /* \"#utility.yul\":3054:3066   */\n      revert\n        /* \"#utility.yul\":3005:3068   */\n    tag_96:\n        /* \"#utility.yul\":2952:3074   */\n      pop\n      jump\t// out\n        /* \"#utility.yul\":3080:3223   */\n    tag_59:\n        /* \"#utility.yul\":3137:3142   */\n      0x00\n        /* \"#utility.yul\":3168:3174   */\n      dup2\n        /* \"#utility.yul\":3162:3175   */\n      mload\n        /* \"#utility.yul\":3153:3175   */\n      swap1\n      pop\n        /* \"#utility.yul\":3184:3217   */\n      tag_98\n        /* \"#utility.yul\":3211:3216   */\n      dup2\n        /* \"#utility.yul\":3184:3217   */\n      tag_58\n      jump\t// in\n    tag_98:\n        /* \"#utility.yul\":3080:3223   */\n      swap3\n      swap2\n      pop\n      pop\n      jump\t// out\n        /* \"#utility.yul\":3229:3580   */\n    tag_34:\n        /* \"#utility.yul\":3299:3305   */\n      0x00\n        /* \"#utility.yul\":3348:3350   */\n      0x20\n        /* \"#utility.yul\":3336:3345   */\n      dup3\n        /* \"#utility.yul\":3327:3334   */\n      dup5\n        /* \"#utility.yul\":3323:3346   */\n      sub\n        /* \"#utility.yul\":3319:3351   */\n      slt\n        /* \"#utility.yul\":3316:3435   */\n      iszero\n      tag_100\n      jumpi\n        /* \"#utility.yul\":3354:3433   */\n      tag_101\n      tag_56\n      jump\t// in\n    tag_101:\n        /* \"#utility.yul\":3316:3435   */\n    tag_100:\n        /* \"#utility.yul\":3474:3475   */\n      0x00\n        /* \"#utility.yul\":3499:3563   */\n      tag_102\n        /* \"#utility.yul\":3555:3562   */\n      dup5\n        /* \"#utility.yul\":3546:3552   */\n      dup3\n        /* \"#utility.yul\":3535:3544   */\n      dup6\n        /* \"#utility.yul\":3531:3553   */\n      add\n        /* \"#utility.yul\":3499:3563   */\n      tag_59\n      jump\t// in\n    tag_102:\n        /* \"#utility.yul\":3489:3563   */\n      swap2\n      pop\n        /* \"#utility.yul\":3445:3573   */\n      pop\n        /* \"#utility.yul\":3229:3580   */\n      swap3\n      swap2\n      pop\n      pop\n      jump\t// out\n        /* \"#utility.yul\":3586:3756   */\n    tag_60:\n        /* \"#utility.yul\":3726:3748   */\n      0x696e73756666696369656e742062616c616e6365000000000000000000000000\n        /* \"#utility.yul\":3722:3723   */\n      0x00\n        /* \"#utility.yul\":3714:3720   */\n      dup3\n        /* \"#utility.yul\":3710:3724   */\n      add\n        /* \"#utility.yul\":3703:3749   */\n      mstore\n        /* \"#utility.yul\":3586:3756   */\n      pop\n      jump\t// out\n        /* \"#utility.yul\":3762:4128   */\n    tag_61:\n        /* \"#utility.yul\":3904:3907   */\n      0x00\n        /* \"#utility.yul\":3925:3992   */\n      tag_105\n        /* \"#utility.yul\":3989:3991   */\n      0x14\n        /* \"#utility.yul\":3984:3987   */\n      dup4\n        /* \"#utility.yul\":3925:3992   */\n      tag_52\n      jump\t// in\n    tag_105:\n        /* \"#utility.yul\":3918:3992   */\n      swap2\n      pop\n        /* \"#utility.yul\":4001:4094   */\n      tag_106\n        /* \"#utility.yul\":4090:4093   */\n      dup3\n        /* \"#utility.yul\":4001:4094   */\n      tag_60\n      jump\t// in\n    tag_106:\n        /* \"#utility.yul\":4119:4121   */\n      0x20\n        /* \"#utility.yul\":4114:4117   */\n      dup3\n        /* \"#utility.yul\":4110:4122   */\n      add\n        /* \"#utility.yul\":4103:4122   */\n      swap1\n      pop\n        /* \"#utility.yul\":3762:4128   */\n      swap2\n      swap1\n      pop\n      jump\t// out\n        /* \"#utility.yul\":4134:4553   */\n    tag_37:\n        /* \"#utility.yul\":4300:4304   */\n      0x00\n        /* \"#utility.yul\":4338:4340   */\n      0x20\n        /* \"#utility.yul\":4327:4336   */\n      dup3\n        /* \"#utility.yul\":4323:4341   */\n      add\n        /* \"#utility.yul\":4315:4341   */\n      swap1\n      pop\n        /* \"#utility.yul\":4387:4396   */\n      dup2\n        /* \"#utility.yul\":4381:4385   */\n      dup2\n        /* \"#utility.yul\":4377:4397   */\n      sub\n        /* \"#utility.yul\":4373:4374   */\n      0x00\n        /* \"#utility.yul\":4362:4371   */\n      dup4\n        /* \"#utility.yul\":4358:4375   */\n      add\n        /* \"#utility.yul\":4351:4398   */\n      mstore\n        /* \"#utility.yul\":4415:4546   */\n      tag_108\n        /* \"#utility.yul\":4541:4545   */\n      dup2\n        /* \"#utility.yul\":4415:4546   */\n      tag_61\n      jump\t// in\n    tag_108:\n        /* \"#utility.yul\":4407:4546   */\n      swap1\n      pop\n        /* \"#utility.yul\":4134:4553   */\n      swap2\n      swap1\n      pop\n      jump\t// out\n        /* \"#utility.yul\":4559:4891   */\n    tag_39:\n        /* \"#utility.yul\":4680:4684   */\n      0x00\n        /* \"#utility.yul\":4718:4720   */\n      0x40\n        /* \"#utility.yul\":4707:4716   */\n      dup3\n        /* \"#utility.yul\":4703:4721   */\n      add\n        /* \"#utility.yul\":4695:4721   */\n      swap1\n      pop\n        /* \"#utility.yul\":4731:4802   */\n      tag_110\n        /* \"#utility.yul\":4799:4800   */\n      0x00\n        /* \"#utility.yul\":4788:4797   */\n      dup4\n        /* \"#utility.yul\":4784:4801   */\n      add\n        /* \"#utility.yul\":4775:4781   */\n      dup6\n        /* \"#utility.yul\":4731:4802   */\n      tag_50\n      jump\t// in\n    tag_110:\n        /* \"#utility.yul\":4812:4884   */\n      tag_111\n        /* \"#utility.yul\":4880:4882   */\n      0x20\n        /* \"#utility.yul\":4869:4878   */\n      dup4\n        /* \"#utility.yul\":4865:4883   */\n      add\n        /* \"#utility.yul\":4856:4862   */\n      dup5\n        /* \"#utility.yul\":4812:4884   */\n      tag_47\n      jump\t// in\n    tag_111:\n        /* \"#utility.yul\":4559:4891   */\n      swap4\n      swap3\n      pop\n      pop\n      pop\n      jump\t// out\n        /* \"#utility.yul\":4897:4987   */\n    tag_62:\n        /* \"#utility.yul\":4931:4938   */\n      0x00\n        /* \"#utility.yul\":4974:4979   */\n      dup2\n        /* \"#utility.yul\":4967:4980   */\n      iszero\n        /* \"#utility.yul\":4960:4981   */\n      iszero\n        /* \"#utility.yul\":4949:4981   */\n      swap1\n      pop\n        /* \"#utility.yul\":4897:4987   */\n      swap2\n      swap1\n      pop\n      jump\t// out\n        /* \"#utility.yul\":4993:5109   */\n    tag_63:\n        /* \"#utility.yul\":5063:5084   */\n      tag_114\n        /* \"#utility.yul\":5078:5083   */\n      dup2\n        /* \"#utility.yul\":5063:5084   */\n      tag_62\n      jump\t// in\n    tag_114:\n        /* \"#utility.yul\":5056:5061   */\n      dup2\n        /* \"#utility.yul\":5053:5085   */\n      eq\n        /* \"#utility.yul\":5043:5103   */\n      tag_115\n      jumpi\n        /* \"#utility.yul\":5099:5100   */\n      0x00\n        /* \"#utility.yul\":5096:5097   */\n      dup1\n        /* \"#utility.yul\":5089:5101   */\n      revert\n        /* \"#utility.yul\":5043:5103   */\n    tag_115:\n        /* \"#utility.yul\":4993:5109   */\n      pop\n      jump\t// out\n        /* \"#utility.yul\":5115:5252   */\n    tag_64:\n        /* \"#utility.yul\":5169:5174   */\n      0x00\n        /* \"#utility.yul\":5200:5206   */\n      dup2\n        /* \"#utility.yul\":5194:5207   */\n      mload\n        /* \"#utility.yul\":5185:5207   */\n      swap1\n      pop\n        /* \"#utility.yul\":5216:5246   */\n      tag_117\n        /* \"#utility.yul\":5240:5245   */\n      dup2\n        /* \"#utility.yul\":5216:5246   */\n      tag_63\n      jump\t// in\n    tag_117:\n        /* \"#utility.yul\":5115:5252   */\n      swap3\n      swap2\n      pop\n      pop\n      jump\t// out\n        /* \"#utility.yul\":5258:5603   */\n    tag_43:\n        /* \"#utility.yul\":5325:5331   */\n      0x00\n        /* \"#utility.yul\":5374:5376   */\n      0x20\n        /* \"#utility.yul\":5362:5371   */\n      dup3\n        /* \"#utility.yul\":5353:5360   */\n      dup5\n        /* \"#utility.yul\":5349:5372   */\n      sub\n        /* \"#utility.yul\":5345:5377   */\n      slt\n        /* \"#utility.yul\":5342:5461   */\n      iszero\n      tag_119\n      jumpi\n        /* \"#utility.yul\":5380:5459   */\n      tag_120\n      tag_56\n      jump\t// in\n    tag_120:\n        /* \"#utility.yul\":5342:5461   */\n    tag_119:\n        /* \"#utility.yul\":5500:5501   */\n      0x00\n        /* \"#utility.yul\":5525:5586   */\n      tag_121\n        /* \"#utility.yul\":5578:5585   */\n      dup5\n        /* \"#utility.yul\":5569:5575   */\n      dup3\n        /* \"#utility.yul\":5558:5567   */\n      dup6\n        /* \"#utility.yul\":5554:5576   */\n      add\n        /* \"#utility.yul\":5525:5586   */\n      tag_64\n      jump\t// in\n    tag_121:\n        /* \"#utility.yul\":5515:5586   */\n      swap2\n      pop\n        /* \"#utility.yul\":5471:5596   */\n      pop\n        /* \"#utility.yul\":5258:5603   */\n      swap3\n      swap2\n      pop\n      pop\n      jump\t// out\n        /* \"#utility.yul\":5609:5941   */\n    tag_45:\n        /* \"#utility.yul\":5730:5734   */\n      0x00\n        /* \"#utility.yul\":5768:5770   */\n      0x40\n        /* \"#utility.yul\":5757:5766   */\n      dup3\n        /* \"#utility.yul\":5753:5771   */\n      add\n        /* \"#utility.yul\":5745:5771   */\n      swap1\n      pop\n        /* \"#utility.yul\":5781:5852   */\n      tag_123\n        /* \"#utility.yul\":5849:5850   */\n      0x00\n        /* \"#utility.yul\":5838:5847   */\n      dup4\n        /* \"#utility.yul\":5834:5851   */\n      add\n        /* \"#utility.yul\":5825:5831   */\n      dup6\n        /* \"#utility.yul\":5781:5852   */\n      tag_47\n      jump\t// in\n    tag_123:\n        /* \"#utility.yul\":5862:5934   */\n      tag_124\n        /* \"#utility.yul\":5930:5932   */\n      0x20\n        /* \"#utility.yul\":5919:5928   */\n      dup4\n        /* \"#utility.yul\":5915:5933   */\n      add\n        /* \"#utility.yul\":5906:5912   */\n      dup5\n        /* \"#utility.yul\":5862:5934   */\n      tag_47\n      jump\t// in\n    tag_124:\n        /* \"#utility.yul\":5609:5941   */\n      swap4\n      swap3\n      pop\n      pop\n      pop\n      jump\t// out\n\n    auxdata: 0xa2646970667358221220166c68ca08698bf4adefc309cedf280398ab78bd5cdaeaa8a8a807847e20f22664736f6c634300081a0033\n}\n",
				"bytecode": {
					"linkReferences": {},
					"object": "610100604052348015610010575f80fd5b50604051610bbb380380610bbb83398181016040528101906100329190610262565b5f73ffffffffffffffffffffffffffffffffffffffff168373ffffffffffffffffffffffffffffffffffffffff16036100a0576040517f08c379a000000000000000000000000000000000000000000000000000000000815260040161009790610332565b60405180910390fd5b5f81116100e2576040517f08c379a00000000000000000000000000000000000000000000000000000000081526004016100d9906103c0565b60405180910390fd5b8273ffffffffffffffffffffffffffffffffffffffff1660808173ffffffffffffffffffffffffffffffffffffffff16815250508173ffffffffffffffffffffffffffffffffffffffff1660a08173ffffffffffffffffffffffffffffffffffffffff16815250504260c081815250508060e0818152505060a05173ffffffffffffffffffffffffffffffffffffffff1660805173ffffffffffffffffffffffffffffffffffffffff167fe5d7d4b5cb0219916a8be73968f7baf3c806fd018b0cc5598f5129436cf5c31660c05160e0516040516101c19291906103ed565b60405180910390a3505050610414565b5f80fd5b5f73ffffffffffffffffffffffffffffffffffffffff82169050919050565b5f6101fe826101d5565b9050919050565b61020e816101f4565b8114610218575f80fd5b50565b5f8151905061022981610205565b92915050565b5f819050919050565b6102418161022f565b811461024b575f80fd5b50565b5f8151905061025c81610238565b92915050565b5f805f60608486031215610279576102786101d1565b5b5f6102868682870161021b565b93505060206102978682870161021b565b92505060406102a88682870161024e565b9150509250925092565b5f82825260208201905092915050565b7f62656e656669636172792063616e2774206265207a65726f20616464726573735f8201527f2e00000000000000000000000000000000000000000000000000000000000000602082015250565b5f61031c6021836102b2565b9150610327826102c2565b604082019050919050565b5f6020820190508181035f83015261034981610310565b9050919050565b7f6c6f636b2074696d657374616d70206d757374206265206772656174657220745f8201527f68656e207a65726f2e0000000000000000000000000000000000000000000000602082015250565b5f6103aa6029836102b2565b91506103b582610350565b604082019050919050565b5f6020820190508181035f8301526103d78161039e565b9050919050565b6103e78161022f565b82525050565b5f6040820190506104005f8301856103de565b61040d60208301846103de565b9392505050565b60805160a05160c05160e05161074c61046f5f395f818160dd015261039201525f818160fe01526103da01525f818161016b015281816102e701526103fe01525f81816102670152818161031e01526103b6015261074c5ff3fe608060405234801561000f575f80fd5b5060043610610055575f3560e01c806386d1a69f14610059578063b544bf8314610063578063cbfda1c514610081578063e6fd48bc1461009f578063fc0c546a146100bd575b5f80fd5b6100616100db565b005b61006b610390565b6040516100789190610438565b60405180910390f35b6100896103b4565b6040516100969190610490565b60405180910390f35b6100a76103d8565b6040516100b49190610438565b60405180910390f35b6100c56103fc565b6040516100d29190610490565b60405180910390f35b7f00000000000000000000000000000000000000000000000000000000000000007f000000000000000000000000000000000000000000000000000000000000000061012791906104d6565b4211610168576040517f08c379a000000000000000000000000000000000000000000000000000000000815260040161015f90610589565b60405180910390fd5b5f7f000000000000000000000000000000000000000000000000000000000000000090505f8173ffffffffffffffffffffffffffffffffffffffff166370a08231306040518263ffffffff1660e01b81526004016101c69190610490565b602060405180830381865afa1580156101e1573d5f803e3d5ffd5b505050506040513d601f19601f8201168201806040525081019061020591906105d5565b90505f8111610249576040517f08c379a00000000000000000000000000000000000000000000000000000000081526004016102409061064a565b60405180910390fd5b8173ffffffffffffffffffffffffffffffffffffffff1663a9059cbb7f0000000000000000000000000000000000000000000000000000000000000000836040518363ffffffff1660e01b81526004016102a4929190610668565b6020604051808303815f875af11580156102c0573d5f803e3d5ffd5b505050506040513d601f19601f820116820180604052508101906102e491906106c4565b507f000000000000000000000000000000000000000000000000000000000000000073ffffffffffffffffffffffffffffffffffffffff167f000000000000000000000000000000000000000000000000000000000000000073ffffffffffffffffffffffffffffffffffffffff167f10b55f01b1cfe0feeb7d144f66162661602d8e73256499b6d8342aac37ff067942846040516103849291906106ef565b60405180910390a35050565b7f000000000000000000000000000000000000000000000000000000000000000081565b7f000000000000000000000000000000000000000000000000000000000000000081565b7f000000000000000000000000000000000000000000000000000000000000000081565b7f000000000000000000000000000000000000000000000000000000000000000081565b5f819050919050565b61043281610420565b82525050565b5f60208201905061044b5f830184610429565b92915050565b5f73ffffffffffffffffffffffffffffffffffffffff82169050919050565b5f61047a82610451565b9050919050565b61048a81610470565b82525050565b5f6020820190506104a35f830184610481565b92915050565b7f4e487b71000000000000000000000000000000000000000000000000000000005f52601160045260245ffd5b5f6104e082610420565b91506104eb83610420565b9250828201905080821115610503576105026104a9565b5b92915050565b5f82825260208201905092915050565b7f5468652074696d6520746f20756e6c6f636b2074686520746f6b656e206861735f8201527f206e6f742079657420617272697665642e000000000000000000000000000000602082015250565b5f610573603183610509565b915061057e82610519565b604082019050919050565b5f6020820190508181035f8301526105a081610567565b9050919050565b5f80fd5b6105b481610420565b81146105be575f80fd5b50565b5f815190506105cf816105ab565b92915050565b5f602082840312156105ea576105e96105a7565b5b5f6105f7848285016105c1565b91505092915050565b7f696e73756666696369656e742062616c616e63650000000000000000000000005f82015250565b5f610634601483610509565b915061063f82610600565b602082019050919050565b5f6020820190508181035f83015261066181610628565b9050919050565b5f60408201905061067b5f830185610481565b6106886020830184610429565b9392505050565b5f8115159050919050565b6106a38161068f565b81146106ad575f80fd5b50565b5f815190506106be8161069a565b92915050565b5f602082840312156106d9576106d86105a7565b5b5f6106e6848285016106b0565b91505092915050565b5f6040820190506107025f830185610429565b61070f6020830184610429565b939250505056fea2646970667358221220166c68ca08698bf4adefc309cedf280398ab78bd5cdaeaa8a8a807847e20f22664736f6c634300081a0033",
					"opcodes": "PUSH2 0x100 PUSH1 0x40 MSTORE CALLVALUE DUP1 ISZERO PUSH2 0x10 JUMPI PUSH0 DUP1 REVERT JUMPDEST POP PUSH1 0x40 MLOAD PUSH2 0xBBB CODESIZE SUB DUP1 PUSH2 0xBBB DUP4 CODECOPY DUP2 DUP2 ADD PUSH1 0x40 MSTORE DUP2 ADD SWAP1 PUSH2 0x32 SWAP2 SWAP1 PUSH2 0x262 JUMP JUMPDEST PUSH0 PUSH20 0xFFFFFFFFFFFFFFFFFFFFFFFFFFFFFFFFFFFFFFFF AND DUP4 PUSH20 0xFFFFFFFFFFFFFFFFFFFFFFFFFFFFFFFFFFFFFFFF AND SUB PUSH2 0xA0 JUMPI PUSH1 0x40 MLOAD PUSH32 0x8C379A000000000000000000000000000000000000000000000000000000000 DUP2 MSTORE PUSH1 0x4 ADD PUSH2 0x97 SWAP1 PUSH2 0x332 JUMP JUMPDEST PUSH1 0x40 MLOAD DUP1 SWAP2 SUB SWAP1 REVERT JUMPDEST PUSH0 DUP2 GT PUSH2 0xE2 JUMPI PUSH1 0x40 MLOAD PUSH32 0x8C379A000000000000000000000000000000000000000000000000000000000 DUP2 MSTORE PUSH1 0x4 ADD PUSH2 0xD9 SWAP1 PUSH2 0x3C0 JUMP JUMPDEST PUSH1 0x40 MLOAD DUP1 SWAP2 SUB SWAP1 REVERT JUMPDEST DUP3 PUSH20 0xFFFFFFFFFFFFFFFFFFFFFFFFFFFFFFFFFFFFFFFF AND PUSH1 0x80 DUP2 PUSH20 0xFFFFFFFFFFFFFFFFFFFFFFFFFFFFFFFFFFFFFFFF AND DUP2 MSTORE POP POP DUP2 PUSH20 0xFFFFFFFFFFFFFFFFFFFFFFFFFFFFFFFFFFFFFFFF AND PUSH1 0xA0 DUP2 PUSH20 0xFFFFFFFFFFFFFFFFFFFFFFFFFFFFFFFFFFFFFFFF AND DUP2 MSTORE POP POP TIMESTAMP PUSH1 0xC0 DUP2 DUP2 MSTORE POP POP DUP1 PUSH1 0xE0 DUP2 DUP2 MSTORE POP POP PUSH1 0xA0 MLOAD PUSH20 0xFFFFFFFFFFFFFFFFFFFFFFFFFFFFFFFFFFFFFFFF AND PUSH1 0x80 MLOAD PUSH20 0xFFFFFFFFFFFFFFFFFFFFFFFFFFFFFFFFFFFFFFFF AND PUSH32 0xE5D7D4B5CB0219916A8BE73968F7BAF3C806FD018B0CC5598F5129436CF5C316 PUSH1 0xC0 MLOAD PUSH1 0xE0 MLOAD PUSH1 0x40 MLOAD PUSH2 0x1C1 SWAP3 SWAP2 SWAP1 PUSH2 0x3ED JUMP JUMPDEST PUSH1 0x40 MLOAD DUP1 SWAP2 SUB SWAP1 LOG3 POP POP POP PUSH2 0x414 JUMP JUMPDEST PUSH0 DUP1 REVERT JUMPDEST PUSH0 PUSH20 0xFFFFFFFFFFFFFFFFFFFFFFFFFFFFFFFFFFFFFFFF DUP3 AND SWAP1 POP SWAP2 SWAP1 POP JUMP JUMPDEST PUSH0 PUSH2 0x1FE DUP3 PUSH2 0x1D5 JUMP JUMPDEST SWAP1 POP SWAP2 SWAP1 POP JUMP JUMPDEST PUSH2 0x20E DUP2 PUSH2 0x1F4 JUMP JUMPDEST DUP2 EQ PUSH2 0x218 JUMPI PUSH0 DUP1 REVERT JUMPDEST POP JUMP JUMPDEST PUSH0 DUP2 MLOAD SWAP1 POP PUSH2 0x229 DUP2 PUSH2 0x205 JUMP JUMPDEST SWAP3 SWAP2 POP POP JUMP JUMPDEST PUSH0 DUP2 SWAP1 POP SWAP2 SWAP1 POP JUMP JUMPDEST PUSH2 0x241 DUP2 PUSH2 0x22F JUMP JUMPDEST DUP2 EQ PUSH2 0x24B JUMPI PUSH0 DUP1 REVERT JUMPDEST POP JUMP JUMPDEST PUSH0 DUP2 MLOAD SWAP1 POP PUSH2 0x25C DUP2 PUSH2 0x238 JUMP JUMPDEST SWAP3 SWAP2 POP POP JUMP JUMPDEST PUSH0 DUP1 PUSH0 PUSH1 0x60 DUP5 DUP7 SUB SLT ISZERO PUSH2 0x279 JUMPI PUSH2 0x278 PUSH2 0x1D1 JUMP JUMPDEST JUMPDEST PUSH0 PUSH2 0x286 DUP7 DUP3 DUP8 ADD PUSH2 0x21B JUMP JUMPDEST SWAP4 POP POP PUSH1 0x20 PUSH2 0x297 DUP7 DUP3 DUP8 ADD PUSH2 0x21B JUMP JUMPDEST SWAP3 POP POP PUSH1 0x40 PUSH2 0x2A8 DUP7 DUP3 DUP8 ADD PUSH2 0x24E JUMP JUMPDEST SWAP2 POP POP SWAP3 POP SWAP3 POP SWAP3 JUMP JUMPDEST PUSH0 DUP3 DUP3 MSTORE PUSH1 0x20 DUP3 ADD SWAP1 POP SWAP3 SWAP2 POP POP JUMP JUMPDEST PUSH32 0x62656E656669636172792063616E2774206265207A65726F2061646472657373 PUSH0 DUP3 ADD MSTORE PUSH32 0x2E00000000000000000000000000000000000000000000000000000000000000 PUSH1 0x20 DUP3 ADD MSTORE POP JUMP JUMPDEST PUSH0 PUSH2 0x31C PUSH1 0x21 DUP4 PUSH2 0x2B2 JUMP JUMPDEST SWAP2 POP PUSH2 0x327 DUP3 PUSH2 0x2C2 JUMP JUMPDEST PUSH1 0x40 DUP3 ADD SWAP1 POP SWAP2 SWAP1 POP JUMP JUMPDEST PUSH0 PUSH1 0x20 DUP3 ADD SWAP1 POP DUP2 DUP2 SUB PUSH0 DUP4 ADD MSTORE PUSH2 0x349 DUP2 PUSH2 0x310 JUMP JUMPDEST SWAP1 POP SWAP2 SWAP1 POP JUMP JUMPDEST PUSH32 0x6C6F636B2074696D657374616D70206D75737420626520677265617465722074 PUSH0 DUP3 ADD MSTORE PUSH32 0x68656E207A65726F2E0000000000000000000000000000000000000000000000 PUSH1 0x20 DUP3 ADD MSTORE POP JUMP JUMPDEST PUSH0 PUSH2 0x3AA PUSH1 0x29 DUP4 PUSH2 0x2B2 JUMP JUMPDEST SWAP2 POP PUSH2 0x3B5 DUP3 PUSH2 0x350 JUMP JUMPDEST PUSH1 0x40 DUP3 ADD SWAP1 POP SWAP2 SWAP1 POP JUMP JUMPDEST PUSH0 PUSH1 0x20 DUP3 ADD SWAP1 POP DUP2 DUP2 SUB PUSH0 DUP4 ADD MSTORE PUSH2 0x3D7 DUP2 PUSH2 0x39E JUMP JUMPDEST SWAP1 POP SWAP2 SWAP1 POP JUMP JUMPDEST PUSH2 0x3E7 DUP2 PUSH2 0x22F JUMP JUMPDEST DUP3 MSTORE POP POP JUMP JUMPDEST PUSH0 PUSH1 0x40 DUP3 ADD SWAP1 POP PUSH2 0x400 PUSH0 DUP4 ADD DUP6 PUSH2 0x3DE JUMP JUMPDEST PUSH2 0x40D PUSH1 0x20 DUP4 ADD DUP5 PUSH2 0x3DE JUMP JUMPDEST SWAP4 SWAP3 POP POP POP JUMP JUMPDEST PUSH1 0x80 MLOAD PUSH1 0xA0 MLOAD PUSH1 0xC0 MLOAD PUSH1 0xE0 MLOAD PUSH2 0x74C PUSH2 0x46F PUSH0 CODECOPY PUSH0 DUP2 DUP2 PUSH1 0xDD ADD MSTORE PUSH2 0x392 ADD MSTORE PUSH0 DUP2 DUP2 PUSH1 0xFE ADD MSTORE PUSH2 0x3DA ADD MSTORE PUSH0 DUP2 DUP2 PUSH2 0x16B ADD MSTORE DUP2 DUP2 PUSH2 0x2E7 ADD MSTORE PUSH2 0x3FE ADD MSTORE PUSH0 DUP2 DUP2 PUSH2 0x267 ADD MSTORE DUP2 DUP2 PUSH2 0x31E ADD MSTORE PUSH2 0x3B6 ADD MSTORE PUSH2 0x74C PUSH0 RETURN INVALID PUSH1 0x80 PUSH1 0x40 MSTORE CALLVALUE DUP1 ISZERO PUSH2 0xF JUMPI PUSH0 DUP1 REVERT JUMPDEST POP PUSH1 0x4 CALLDATASIZE LT PUSH2 0x55 JUMPI PUSH0 CALLDATALOAD PUSH1 0xE0 SHR DUP1 PUSH4 0x86D1A69F EQ PUSH2 0x59 JUMPI DUP1 PUSH4 0xB544BF83 EQ PUSH2 0x63 JUMPI DUP1 PUSH4 0xCBFDA1C5 EQ PUSH2 0x81 JUMPI DUP1 PUSH4 0xE6FD48BC EQ PUSH2 0x9F JUMPI DUP1 PUSH4 0xFC0C546A EQ PUSH2 0xBD JUMPI JUMPDEST PUSH0 DUP1 REVERT JUMPDEST PUSH2 0x61 PUSH2 0xDB JUMP JUMPDEST STOP JUMPDEST PUSH2 0x6B PUSH2 0x390 JUMP JUMPDEST PUSH1 0x40 MLOAD PUSH2 0x78 SWAP2 SWAP1 PUSH2 0x438 JUMP JUMPDEST PUSH1 0x40 MLOAD DUP1 SWAP2 SUB SWAP1 RETURN JUMPDEST PUSH2 0x89 PUSH2 0x3B4 JUMP JUMPDEST PUSH1 0x40 MLOAD PUSH2 0x96 SWAP2 SWAP1 PUSH2 0x490 JUMP JUMPDEST PUSH1 0x40 MLOAD DUP1 SWAP2 SUB SWAP1 RETURN JUMPDEST PUSH2 0xA7 PUSH2 0x3D8 JUMP JUMPDEST PUSH1 0x40 MLOAD PUSH2 0xB4 SWAP2 SWAP1 PUSH2 0x438 JUMP JUMPDEST PUSH1 0x40 MLOAD DUP1 SWAP2 SUB SWAP1 RETURN JUMPDEST PUSH2 0xC5 PUSH2 0x3FC JUMP JUMPDEST PUSH1 0x40 MLOAD PUSH2 0xD2 SWAP2 SWAP1 PUSH2 0x490 JUMP JUMPDEST PUSH1 0x40 MLOAD DUP1 SWAP2 SUB SWAP1 RETURN JUMPDEST PUSH32 0x0 PUSH32 0x0 PUSH2 0x127 SWAP2 SWAP1 PUSH2 0x4D6 JUMP JUMPDEST TIMESTAMP GT PUSH2 0x168 JUMPI PUSH1 0x40 MLOAD PUSH32 0x8C379A000000000000000000000000000000000000000000000000000000000 DUP2 MSTORE PUSH1 0x4 ADD PUSH2 0x15F SWAP1 PUSH2 0x589 JUMP JUMPDEST PUSH1 0x40 MLOAD DUP1 SWAP2 SUB SWAP1 REVERT JUMPDEST PUSH0 PUSH32 0x0 SWAP1 POP PUSH0 DUP2 PUSH20 0xFFFFFFFFFFFFFFFFFFFFFFFFFFFFFFFFFFFFFFFF AND PUSH4 0x70A08231 ADDRESS PUSH1 0x40 MLOAD DUP3 PUSH4 0xFFFFFFFF AND PUSH1 0xE0 SHL DUP2 MSTORE PUSH1 0x4 ADD PUSH2 0x1C6 SWAP2 SWAP1 PUSH2 0x490 JUMP JUMPDEST PUSH1 0x20 PUSH1 0x40 MLOAD DUP1 DUP4 SUB DUP2 DUP7 GAS STATICCALL ISZERO DUP1 ISZERO PUSH2 0x1E1 JUMPI RETURNDATASIZE PUSH0 DUP1 RETURNDATACOPY RETURNDATASIZE PUSH0 REVERT JUMPDEST POP POP POP POP PUSH1 0x40 MLOAD RETURNDATASIZE PUSH1 0x1F NOT PUSH1 0x1F DUP3 ADD AND DUP3 ADD DUP1 PUSH1 0x40 MSTORE POP DUP2 ADD SWAP1 PUSH2 0x205 SWAP2 SWAP1 PUSH2 0x5D5 JUMP JUMPDEST SWAP1 POP PUSH0 DUP2 GT PUSH2 0x249 JUMPI PUSH1 0x40 MLOAD PUSH32 0x8C379A000000000000000000000000000000000000000000000000000000000 DUP2 MSTORE PUSH1 0x4 ADD PUSH2 0x240 SWAP1 PUSH2 0x64A JUMP JUMPDEST PUSH1 0x40 MLOAD DUP1 SWAP2 SUB SWAP1 REVERT JUMPDEST DUP2 PUSH20 0xFFFFFFFFFFFFFFFFFFFFFFFFFFFFFFFFFFFFFFFF AND PUSH4 0xA9059CBB PUSH32 0x0 DUP4 PUSH1 0x40 MLOAD DUP4 PUSH4 0xFFFFFFFF AND PUSH1 0xE0 SHL DUP2 MSTORE PUSH1 0x4 ADD PUSH2 0x2A4 SWAP3 SWAP2 SWAP1 PUSH2 0x668 JUMP JUMPDEST PUSH1 0x20 PUSH1 0x40 MLOAD DUP1 DUP4 SUB DUP2 PUSH0 DUP8 GAS CALL ISZERO DUP1 ISZERO PUSH2 0x2C0 JUMPI RETURNDATASIZE PUSH0 DUP1 RETURNDATACOPY RETURNDATASIZE PUSH0 REVERT JUMPDEST POP POP POP POP PUSH1 0x40 MLOAD RETURNDATASIZE PUSH1 0x1F NOT PUSH1 0x1F DUP3 ADD AND DUP3 ADD DUP1 PUSH1 0x40 MSTORE POP DUP2 ADD SWAP1 PUSH2 0x2E4 SWAP2 SWAP1 PUSH2 0x6C4 JUMP JUMPDEST POP PUSH32 0x0 PUSH20 0xFFFFFFFFFFFFFFFFFFFFFFFFFFFFFFFFFFFFFFFF AND PUSH32 0x0 PUSH20 0xFFFFFFFFFFFFFFFFFFFFFFFFFFFFFFFFFFFFFFFF AND PUSH32 0x10B55F01B1CFE0FEEB7D144F66162661602D8E73256499B6D8342AAC37FF0679 TIMESTAMP DUP5 PUSH1 0x40 MLOAD PUSH2 0x384 SWAP3 SWAP2 SWAP1 PUSH2 0x6EF JUMP JUMPDEST PUSH1 0x40 MLOAD DUP1 SWAP2 SUB SWAP1 LOG3 POP POP JUMP JUMPDEST PUSH32 0x0 DUP2 JUMP JUMPDEST PUSH32 0x0 DUP2 JUMP JUMPDEST PUSH32 0x0 DUP2 JUMP JUMPDEST PUSH32 0x0 DUP2 JUMP JUMPDEST PUSH0 DUP2 SWAP1 POP SWAP2 SWAP1 POP JUMP JUMPDEST PUSH2 0x432 DUP2 PUSH2 0x420 JUMP JUMPDEST DUP3 MSTORE POP POP JUMP JUMPDEST PUSH0 PUSH1 0x20 DUP3 ADD SWAP1 POP PUSH2 0x44B PUSH0 DUP4 ADD DUP5 PUSH2 0x429 JUMP JUMPDEST SWAP3 SWAP2 POP POP JUMP JUMPDEST PUSH0 PUSH20 0xFFFFFFFFFFFFFFFFFFFFFFFFFFFFFFFFFFFFFFFF DUP3 AND SWAP1 POP SWAP2 SWAP1 POP JUMP JUMPDEST PUSH0 PUSH2 0x47A DUP3 PUSH2 0x451 JUMP JUMPDEST SWAP1 POP SWAP2 SWAP1 POP JUMP JUMPDEST PUSH2 0x48A DUP2 PUSH2 0x470 JUMP JUMPDEST DUP3 MSTORE POP POP JUMP JUMPDEST PUSH0 PUSH1 0x20 DUP3 ADD SWAP1 POP PUSH2 0x4A3 PUSH0 DUP4 ADD DUP5 PUSH2 0x481 JUMP JUMPDEST SWAP3 SWAP2 POP POP JUMP JUMPDEST PUSH32 0x4E487B7100000000000000000000000000000000000000000000000000000000 PUSH0 MSTORE PUSH1 0x11 PUSH1 0x4 MSTORE PUSH1 0x24 PUSH0 REVERT JUMPDEST PUSH0 PUSH2 0x4E0 DUP3 PUSH2 0x420 JUMP JUMPDEST SWAP2 POP PUSH2 0x4EB DUP4 PUSH2 0x420 JUMP JUMPDEST SWAP3 POP DUP3 DUP3 ADD SWAP1 POP DUP1 DUP3 GT ISZERO PUSH2 0x503 JUMPI PUSH2 0x502 PUSH2 0x4A9 JUMP JUMPDEST JUMPDEST SWAP3 SWAP2 POP POP JUMP JUMPDEST PUSH0 DUP3 DUP3 MSTORE PUSH1 0x20 DUP3 ADD SWAP1 POP SWAP3 SWAP2 POP POP JUMP JUMPDEST PUSH32 0x5468652074696D6520746F20756E6C6F636B2074686520746F6B656E20686173 PUSH0 DUP3 ADD MSTORE PUSH32 0x206E6F742079657420617272697665642E000000000000000000000000000000 PUSH1 0x20 DUP3 ADD MSTORE POP JUMP JUMPDEST PUSH0 PUSH2 0x573 PUSH1 0x31 DUP4 PUSH2 0x509 JUMP JUMPDEST SWAP2 POP PUSH2 0x57E DUP3 PUSH2 0x519 JUMP JUMPDEST PUSH1 0x40 DUP3 ADD SWAP1 POP SWAP2 SWAP1 POP JUMP JUMPDEST PUSH0 PUSH1 0x20 DUP3 ADD SWAP1 POP DUP2 DUP2 SUB PUSH0 DUP4 ADD MSTORE PUSH2 0x5A0 DUP2 PUSH2 0x567 JUMP JUMPDEST SWAP1 POP SWAP2 SWAP1 POP JUMP JUMPDEST PUSH0 DUP1 REVERT JUMPDEST PUSH2 0x5B4 DUP2 PUSH2 0x420 JUMP JUMPDEST DUP2 EQ PUSH2 0x5BE JUMPI PUSH0 DUP1 REVERT JUMPDEST POP JUMP JUMPDEST PUSH0 DUP2 MLOAD SWAP1 POP PUSH2 0x5CF DUP2 PUSH2 0x5AB JUMP JUMPDEST SWAP3 SWAP2 POP POP JUMP JUMPDEST PUSH0 PUSH1 0x20 DUP3 DUP5 SUB SLT ISZERO PUSH2 0x5EA JUMPI PUSH2 0x5E9 PUSH2 0x5A7 JUMP JUMPDEST JUMPDEST PUSH0 PUSH2 0x5F7 DUP5 DUP3 DUP6 ADD PUSH2 0x5C1 JUMP JUMPDEST SWAP2 POP POP SWAP3 SWAP2 POP POP JUMP JUMPDEST PUSH32 0x696E73756666696369656E742062616C616E6365000000000000000000000000 PUSH0 DUP3 ADD MSTORE POP JUMP JUMPDEST PUSH0 PUSH2 0x634 PUSH1 0x14 DUP4 PUSH2 0x509 JUMP JUMPDEST SWAP2 POP PUSH2 0x63F DUP3 PUSH2 0x600 JUMP JUMPDEST PUSH1 0x20 DUP3 ADD SWAP1 POP SWAP2 SWAP1 POP JUMP JUMPDEST PUSH0 PUSH1 0x20 DUP3 ADD SWAP1 POP DUP2 DUP2 SUB PUSH0 DUP4 ADD MSTORE PUSH2 0x661 DUP2 PUSH2 0x628 JUMP JUMPDEST SWAP1 POP SWAP2 SWAP1 POP JUMP JUMPDEST PUSH0 PUSH1 0x40 DUP3 ADD SWAP1 POP PUSH2 0x67B PUSH0 DUP4 ADD DUP6 PUSH2 0x481 JUMP JUMPDEST PUSH2 0x688 PUSH1 0x20 DUP4 ADD DUP5 PUSH2 0x429 JUMP JUMPDEST SWAP4 SWAP3 POP POP POP JUMP JUMPDEST PUSH0 DUP2 ISZERO ISZERO SWAP1 POP SWAP2 SWAP1 POP JUMP JUMPDEST PUSH2 0x6A3 DUP2 PUSH2 0x68F JUMP JUMPDEST DUP2 EQ PUSH2 0x6AD JUMPI PUSH0 DUP1 REVERT JUMPDEST POP JUMP JUMPDEST PUSH0 DUP2 MLOAD SWAP1 POP PUSH2 0x6BE DUP2 PUSH2 0x69A JUMP JUMPDEST SWAP3 SWAP2 POP POP JUMP JUMPDEST PUSH0 PUSH1 0x20 DUP3 DUP5 SUB SLT ISZERO PUSH2 0x6D9 JUMPI PUSH2 0x6D8 PUSH2 0x5A7 JUMP JUMPDEST JUMPDEST PUSH0 PUSH2 0x6E6 DUP5 DUP3 DUP6 ADD PUSH2 0x6B0 JUMP JUMPDEST SWAP2 POP POP SWAP3 SWAP2 POP POP JUMP JUMPDEST PUSH0 PUSH1 0x40 DUP3 ADD SWAP1 POP PUSH2 0x702 PUSH0 DUP4 ADD DUP6 PUSH2 0x429 JUMP JUMPDEST PUSH2 0x70F PUSH1 0x20 DUP4 ADD DUP5 PUSH2 0x429 JUMP JUMPDEST SWAP4 SWAP3 POP POP POP JUMP INVALID LOG2 PUSH5 0x6970667358 0x22 SLT KECCAK256 AND PUSH13 0x68CA08698BF4ADEFC309CEDF28 SUB SWAP9 0xAB PUSH25 0xBD5CDAEAA8A8A807847E20F22664736F6C634300081A003300 "
				},
				"gasEstimates": {
					"creation": {
						"codeDepositCost": "373600",
						"executionCost": "infinite",
						"totalCost": "infinite"
					},
					"external": {
						"beneficary()": "infinite",
						"lockTimestamp()": "infinite",
						"release()": "infinite",
						"startTimestamp()": "infinite",
						"token()": "infinite"
					}
				},
				"methodIdentifiers": {
					"beneficary()": "cbfda1c5",
					"lockTimestamp()": "b544bf83",
					"release()": "86d1a69f",
					"startTimestamp()": "e6fd48bc",
					"token()": "fc0c546a"
				}
			},
			"storageLayout": {
				"storage": [],
				"types": null
			},
			"userdoc": {
				"kind": "user",
				"methods": {},
				"notice": "代币锁：TokenLocker 定义：用户将一定量的代币转入合约中，换取等价值的lp代币，到一定时间后，可以通过lp代币换回之前代币 lp（liquid provider token）：是dex去中心化交易所或流动性池中表示流动性提供者的一种代币。 可以理解为一个集资，有很多钱，然后每个人付了钱的人都会有一个表示相应金额的证明牌子。 一个简单的代币锁合约结构： 事件： 锁仓开始事件：记录了代币受益人地址、代币地址、开始时间、结束时间 释放代币事件：记录了代币受益人地址、代币地址、释放时间、释放数量 event TokenLockStart(address indexed beneficary, address indexed token, uint256 startTimestamp, uint256 endtTimestamp); event Release(address indexed beneficary, address indexed token, uint256 releasedTimestamp, uint256 releasedAmount); 状态变量： 受益人地址：address public immutable beneficary; 代币地址：address public immutable token; 开始时间：uint256 public immutable startTimestamp;，一般设置为区块时间戳 锁仓时间：uint256 public immutable lockTimestamp; 函数： 构造函数，初始化状态变量 释放代币",
				"version": 1
			}
		}
	}
}