{
	"contracts/SignatureNFT.sol": {
		"ECDSA": {
			"abi": [
				{
					"inputs": [
						{
							"internalType": "bytes32",
							"name": "hash",
							"type": "bytes32"
						}
					],
					"name": "toEthSignedMessageHash",
					"outputs": [
						{
							"internalType": "bytes32",
							"name": "",
							"type": "bytes32"
						}
					],
					"stateMutability": "pure",
					"type": "function"
				}
			],
			"devdoc": {
				"kind": "dev",
				"methods": {},
				"version": 1
			},
			"evm": {
				"assembly": "    /* \"contracts/SignatureNFT.sol\":916:1371  library ECDSA {... */\n  dataSize(sub_0)\n  dataOffset(sub_0)\n  0x0b\n  dup3\n  dup3\n  dup3\n  codecopy\n  dup1\n  mload\n  0x00\n  byte\n  0x73\n  eq\n  tag_1\n  jumpi\n  mstore(0x00, 0x4e487b7100000000000000000000000000000000000000000000000000000000)\n  mstore(0x04, 0x00)\n  revert(0x00, 0x24)\ntag_1:\n  mstore(0x00, address)\n  0x73\n  dup2\n  mstore8\n  dup3\n  dup2\n  return\nstop\n\nsub_0: assembly {\n        /* \"contracts/SignatureNFT.sol\":916:1371  library ECDSA {... */\n      eq(address, deployTimeAddress())\n      mstore(0x40, 0x80)\n      jumpi(tag_1, lt(calldatasize, 0x04))\n      shr(0xe0, calldataload(0x00))\n      dup1\n      0x918a15cf\n      eq\n      tag_2\n      jumpi\n    tag_1:\n      0x00\n      dup1\n      revert\n        /* \"contracts/SignatureNFT.sol\":1197:1368  function toEthSignedMessageHash(bytes32 hash) public pure returns(bytes32) {... */\n    tag_2:\n      tag_3\n      0x04\n      dup1\n      calldatasize\n      sub\n      dup2\n      add\n      swap1\n      tag_4\n      swap2\n      swap1\n      tag_5\n      jump\t// in\n    tag_4:\n      tag_6\n      jump\t// in\n    tag_3:\n      mload(0x40)\n      tag_7\n      swap2\n      swap1\n      tag_8\n      jump\t// in\n    tag_7:\n      mload(0x40)\n      dup1\n      swap2\n      sub\n      swap1\n      return\n    tag_6:\n        /* \"contracts/SignatureNFT.sol\":1263:1270  bytes32 */\n      0x00\n        /* \"contracts/SignatureNFT.sol\":1353:1357  hash */\n      dup2\n        /* \"contracts/SignatureNFT.sol\":1300:1358  abi.encodePacked(\"\\x19Ethereum Signed Message:\\n32\", hash) */\n      add(0x20, mload(0x40))\n      tag_10\n      swap2\n      swap1\n      tag_11\n      jump\t// in\n    tag_10:\n      mload(0x40)\n      0x20\n      dup2\n      dup4\n      sub\n      sub\n      dup2\n      mstore\n      swap1\n      0x40\n      mstore\n        /* \"contracts/SignatureNFT.sol\":1290:1359  keccak256(abi.encodePacked(\"\\x19Ethereum Signed Message:\\n32\", hash)) */\n      dup1\n      mload\n      swap1\n      0x20\n      add\n      keccak256\n        /* \"contracts/SignatureNFT.sol\":1283:1359  return keccak256(abi.encodePacked(\"\\x19Ethereum Signed Message:\\n32\", hash)) */\n      swap1\n      pop\n        /* \"contracts/SignatureNFT.sol\":1197:1368  function toEthSignedMessageHash(bytes32 hash) public pure returns(bytes32) {... */\n      swap2\n      swap1\n      pop\n      jump\t// out\n        /* \"#utility.yul\":88:205   */\n    tag_13:\n        /* \"#utility.yul\":197:198   */\n      0x00\n        /* \"#utility.yul\":194:195   */\n      dup1\n        /* \"#utility.yul\":187:199   */\n      revert\n        /* \"#utility.yul\":334:411   */\n    tag_15:\n        /* \"#utility.yul\":371:378   */\n      0x00\n        /* \"#utility.yul\":400:405   */\n      dup2\n        /* \"#utility.yul\":389:405   */\n      swap1\n      pop\n        /* \"#utility.yul\":334:411   */\n      swap2\n      swap1\n      pop\n      jump\t// out\n        /* \"#utility.yul\":417:539   */\n    tag_16:\n        /* \"#utility.yul\":490:514   */\n      tag_30\n        /* \"#utility.yul\":508:513   */\n      dup2\n        /* \"#utility.yul\":490:514   */\n      tag_15\n      jump\t// in\n    tag_30:\n        /* \"#utility.yul\":483:488   */\n      dup2\n        /* \"#utility.yul\":480:515   */\n      eq\n        /* \"#utility.yul\":470:533   */\n      tag_31\n      jumpi\n        /* \"#utility.yul\":529:530   */\n      0x00\n        /* \"#utility.yul\":526:527   */\n      dup1\n        /* \"#utility.yul\":519:531   */\n      revert\n        /* \"#utility.yul\":470:533   */\n    tag_31:\n        /* \"#utility.yul\":417:539   */\n      pop\n      jump\t// out\n        /* \"#utility.yul\":545:684   */\n    tag_17:\n        /* \"#utility.yul\":591:596   */\n      0x00\n        /* \"#utility.yul\":629:635   */\n      dup2\n        /* \"#utility.yul\":616:636   */\n      calldataload\n        /* \"#utility.yul\":607:636   */\n      swap1\n      pop\n        /* \"#utility.yul\":645:678   */\n      tag_33\n        /* \"#utility.yul\":672:677   */\n      dup2\n        /* \"#utility.yul\":645:678   */\n      tag_16\n      jump\t// in\n    tag_33:\n        /* \"#utility.yul\":545:684   */\n      swap3\n      swap2\n      pop\n      pop\n      jump\t// out\n        /* \"#utility.yul\":690:1019   */\n    tag_5:\n        /* \"#utility.yul\":749:755   */\n      0x00\n        /* \"#utility.yul\":798:800   */\n      0x20\n        /* \"#utility.yul\":786:795   */\n      dup3\n        /* \"#utility.yul\":777:784   */\n      dup5\n        /* \"#utility.yul\":773:796   */\n      sub\n        /* \"#utility.yul\":769:801   */\n      slt\n        /* \"#utility.yul\":766:885   */\n      iszero\n      tag_35\n      jumpi\n        /* \"#utility.yul\":804:883   */\n      tag_36\n      tag_13\n      jump\t// in\n    tag_36:\n        /* \"#utility.yul\":766:885   */\n    tag_35:\n        /* \"#utility.yul\":924:925   */\n      0x00\n        /* \"#utility.yul\":949:1002   */\n      tag_37\n        /* \"#utility.yul\":994:1001   */\n      dup5\n        /* \"#utility.yul\":985:991   */\n      dup3\n        /* \"#utility.yul\":974:983   */\n      dup6\n        /* \"#utility.yul\":970:992   */\n      add\n        /* \"#utility.yul\":949:1002   */\n      tag_17\n      jump\t// in\n    tag_37:\n        /* \"#utility.yul\":939:1002   */\n      swap2\n      pop\n        /* \"#utility.yul\":895:1012   */\n      pop\n        /* \"#utility.yul\":690:1019   */\n      swap3\n      swap2\n      pop\n      pop\n      jump\t// out\n        /* \"#utility.yul\":1025:1151   */\n    tag_18:\n        /* \"#utility.yul\":1120:1144   */\n      tag_39\n        /* \"#utility.yul\":1138:1143   */\n      dup2\n        /* \"#utility.yul\":1120:1144   */\n      tag_15\n      jump\t// in\n    tag_39:\n        /* \"#utility.yul\":1115:1118   */\n      dup3\n        /* \"#utility.yul\":1108:1145   */\n      mstore\n        /* \"#utility.yul\":1025:1151   */\n      pop\n      pop\n      jump\t// out\n        /* \"#utility.yul\":1157:1395   */\n    tag_8:\n        /* \"#utility.yul\":1258:1262   */\n      0x00\n        /* \"#utility.yul\":1296:1298   */\n      0x20\n        /* \"#utility.yul\":1285:1294   */\n      dup3\n        /* \"#utility.yul\":1281:1299   */\n      add\n        /* \"#utility.yul\":1273:1299   */\n      swap1\n      pop\n        /* \"#utility.yul\":1309:1388   */\n      tag_41\n        /* \"#utility.yul\":1385:1386   */\n      0x00\n        /* \"#utility.yul\":1374:1383   */\n      dup4\n        /* \"#utility.yul\":1370:1387   */\n      add\n        /* \"#utility.yul\":1361:1367   */\n      dup5\n        /* \"#utility.yul\":1309:1388   */\n      tag_18\n      jump\t// in\n    tag_41:\n        /* \"#utility.yul\":1157:1395   */\n      swap3\n      swap2\n      pop\n      pop\n      jump\t// out\n        /* \"#utility.yul\":1401:1549   */\n    tag_19:\n        /* \"#utility.yul\":1503:1514   */\n      0x00\n        /* \"#utility.yul\":1540:1543   */\n      dup2\n        /* \"#utility.yul\":1525:1543   */\n      swap1\n      pop\n        /* \"#utility.yul\":1401:1549   */\n      swap3\n      swap2\n      pop\n      pop\n      jump\t// out\n        /* \"#utility.yul\":1555:1769   */\n    tag_20:\n        /* \"#utility.yul\":1695:1761   */\n      0x19457468657265756d205369676e6564204d6573736167653a0a333200000000\n        /* \"#utility.yul\":1691:1692   */\n      0x00\n        /* \"#utility.yul\":1683:1689   */\n      dup3\n        /* \"#utility.yul\":1679:1693   */\n      add\n        /* \"#utility.yul\":1672:1762   */\n      mstore\n        /* \"#utility.yul\":1555:1769   */\n      pop\n      jump\t// out\n        /* \"#utility.yul\":1775:2177   */\n    tag_21:\n        /* \"#utility.yul\":1935:1938   */\n      0x00\n        /* \"#utility.yul\":1956:2041   */\n      tag_45\n        /* \"#utility.yul\":2038:2040   */\n      0x1c\n        /* \"#utility.yul\":2033:2036   */\n      dup4\n        /* \"#utility.yul\":1956:2041   */\n      tag_19\n      jump\t// in\n    tag_45:\n        /* \"#utility.yul\":1949:2041   */\n      swap2\n      pop\n        /* \"#utility.yul\":2050:2143   */\n      tag_46\n        /* \"#utility.yul\":2139:2142   */\n      dup3\n        /* \"#utility.yul\":2050:2143   */\n      tag_20\n      jump\t// in\n    tag_46:\n        /* \"#utility.yul\":2168:2170   */\n      0x1c\n        /* \"#utility.yul\":2163:2166   */\n      dup3\n        /* \"#utility.yul\":2159:2171   */\n      add\n        /* \"#utility.yul\":2152:2171   */\n      swap1\n      pop\n        /* \"#utility.yul\":1775:2177   */\n      swap2\n      swap1\n      pop\n      jump\t// out\n        /* \"#utility.yul\":2183:2262   */\n    tag_22:\n        /* \"#utility.yul\":2222:2229   */\n      0x00\n        /* \"#utility.yul\":2251:2256   */\n      dup2\n        /* \"#utility.yul\":2240:2256   */\n      swap1\n      pop\n        /* \"#utility.yul\":2183:2262   */\n      swap2\n      swap1\n      pop\n      jump\t// out\n        /* \"#utility.yul\":2268:2425   */\n    tag_23:\n        /* \"#utility.yul\":2373:2418   */\n      tag_49\n        /* \"#utility.yul\":2393:2417   */\n      tag_50\n        /* \"#utility.yul\":2411:2416   */\n      dup3\n        /* \"#utility.yul\":2393:2417   */\n      tag_15\n      jump\t// in\n    tag_50:\n        /* \"#utility.yul\":2373:2418   */\n      tag_22\n      jump\t// in\n    tag_49:\n        /* \"#utility.yul\":2368:2371   */\n      dup3\n        /* \"#utility.yul\":2361:2419   */\n      mstore\n        /* \"#utility.yul\":2268:2425   */\n      pop\n      pop\n      jump\t// out\n        /* \"#utility.yul\":2431:2953   */\n    tag_11:\n        /* \"#utility.yul\":2644:2647   */\n      0x00\n        /* \"#utility.yul\":2666:2814   */\n      tag_52\n        /* \"#utility.yul\":2810:2813   */\n      dup3\n        /* \"#utility.yul\":2666:2814   */\n      tag_21\n      jump\t// in\n    tag_52:\n        /* \"#utility.yul\":2659:2814   */\n      swap2\n      pop\n        /* \"#utility.yul\":2824:2899   */\n      tag_53\n        /* \"#utility.yul\":2895:2898   */\n      dup3\n        /* \"#utility.yul\":2886:2892   */\n      dup5\n        /* \"#utility.yul\":2824:2899   */\n      tag_23\n      jump\t// in\n    tag_53:\n        /* \"#utility.yul\":2924:2926   */\n      0x20\n        /* \"#utility.yul\":2919:2922   */\n      dup3\n        /* \"#utility.yul\":2915:2927   */\n      add\n        /* \"#utility.yul\":2908:2927   */\n      swap2\n      pop\n        /* \"#utility.yul\":2944:2947   */\n      dup2\n        /* \"#utility.yul\":2937:2947   */\n      swap1\n      pop\n        /* \"#utility.yul\":2431:2953   */\n      swap3\n      swap2\n      pop\n      pop\n      jump\t// out\n\n    auxdata: 0xa2646970667358221220dbaf158c5cbb295b97deb71b59a49626e50f735eee8f77a13adc1b06fcc4514464736f6c634300081a0033\n}\n",
				"bytecode": {
					"linkReferences": {},
					"object": "6101f061004d600b8282823980515f1a6073146041577f4e487b71000000000000000000000000000000000000000000000000000000005f525f60045260245ffd5b305f52607381538281f3fe7300000000000000000000000000000000000000003014608060405260043610610034575f3560e01c8063918a15cf14610038575b5f80fd5b610052600480360381019061004d91906100ce565b610068565b60405161005f9190610108565b60405180910390f35b5f8160405160200161007a9190610195565b604051602081830303815290604052805190602001209050919050565b5f80fd5b5f819050919050565b6100ad8161009b565b81146100b7575f80fd5b50565b5f813590506100c8816100a4565b92915050565b5f602082840312156100e3576100e2610097565b5b5f6100f0848285016100ba565b91505092915050565b6101028161009b565b82525050565b5f60208201905061011b5f8301846100f9565b92915050565b5f81905092915050565b7f19457468657265756d205369676e6564204d6573736167653a0a3332000000005f82015250565b5f61015f601c83610121565b915061016a8261012b565b601c82019050919050565b5f819050919050565b61018f61018a8261009b565b610175565b82525050565b5f61019f82610153565b91506101ab828461017e565b6020820191508190509291505056fea2646970667358221220dbaf158c5cbb295b97deb71b59a49626e50f735eee8f77a13adc1b06fcc4514464736f6c634300081a0033",
					"opcodes": "PUSH2 0x1F0 PUSH2 0x4D PUSH1 0xB DUP3 DUP3 DUP3 CODECOPY DUP1 MLOAD PUSH0 BYTE PUSH1 0x73 EQ PUSH1 0x41 JUMPI PUSH32 0x4E487B7100000000000000000000000000000000000000000000000000000000 PUSH0 MSTORE PUSH0 PUSH1 0x4 MSTORE PUSH1 0x24 PUSH0 REVERT JUMPDEST ADDRESS PUSH0 MSTORE PUSH1 0x73 DUP2 MSTORE8 DUP3 DUP2 RETURN INVALID PUSH20 0x0 ADDRESS EQ PUSH1 0x80 PUSH1 0x40 MSTORE PUSH1 0x4 CALLDATASIZE LT PUSH2 0x34 JUMPI PUSH0 CALLDATALOAD PUSH1 0xE0 SHR DUP1 PUSH4 0x918A15CF EQ PUSH2 0x38 JUMPI JUMPDEST PUSH0 DUP1 REVERT JUMPDEST PUSH2 0x52 PUSH1 0x4 DUP1 CALLDATASIZE SUB DUP2 ADD SWAP1 PUSH2 0x4D SWAP2 SWAP1 PUSH2 0xCE JUMP JUMPDEST PUSH2 0x68 JUMP JUMPDEST PUSH1 0x40 MLOAD PUSH2 0x5F SWAP2 SWAP1 PUSH2 0x108 JUMP JUMPDEST PUSH1 0x40 MLOAD DUP1 SWAP2 SUB SWAP1 RETURN JUMPDEST PUSH0 DUP2 PUSH1 0x40 MLOAD PUSH1 0x20 ADD PUSH2 0x7A SWAP2 SWAP1 PUSH2 0x195 JUMP JUMPDEST PUSH1 0x40 MLOAD PUSH1 0x20 DUP2 DUP4 SUB SUB DUP2 MSTORE SWAP1 PUSH1 0x40 MSTORE DUP1 MLOAD SWAP1 PUSH1 0x20 ADD KECCAK256 SWAP1 POP SWAP2 SWAP1 POP JUMP JUMPDEST PUSH0 DUP1 REVERT JUMPDEST PUSH0 DUP2 SWAP1 POP SWAP2 SWAP1 POP JUMP JUMPDEST PUSH2 0xAD DUP2 PUSH2 0x9B JUMP JUMPDEST DUP2 EQ PUSH2 0xB7 JUMPI PUSH0 DUP1 REVERT JUMPDEST POP JUMP JUMPDEST PUSH0 DUP2 CALLDATALOAD SWAP1 POP PUSH2 0xC8 DUP2 PUSH2 0xA4 JUMP JUMPDEST SWAP3 SWAP2 POP POP JUMP JUMPDEST PUSH0 PUSH1 0x20 DUP3 DUP5 SUB SLT ISZERO PUSH2 0xE3 JUMPI PUSH2 0xE2 PUSH2 0x97 JUMP JUMPDEST JUMPDEST PUSH0 PUSH2 0xF0 DUP5 DUP3 DUP6 ADD PUSH2 0xBA JUMP JUMPDEST SWAP2 POP POP SWAP3 SWAP2 POP POP JUMP JUMPDEST PUSH2 0x102 DUP2 PUSH2 0x9B JUMP JUMPDEST DUP3 MSTORE POP POP JUMP JUMPDEST PUSH0 PUSH1 0x20 DUP3 ADD SWAP1 POP PUSH2 0x11B PUSH0 DUP4 ADD DUP5 PUSH2 0xF9 JUMP JUMPDEST SWAP3 SWAP2 POP POP JUMP JUMPDEST PUSH0 DUP2 SWAP1 POP SWAP3 SWAP2 POP POP JUMP JUMPDEST PUSH32 0x19457468657265756D205369676E6564204D6573736167653A0A333200000000 PUSH0 DUP3 ADD MSTORE POP JUMP JUMPDEST PUSH0 PUSH2 0x15F PUSH1 0x1C DUP4 PUSH2 0x121 JUMP JUMPDEST SWAP2 POP PUSH2 0x16A DUP3 PUSH2 0x12B JUMP JUMPDEST PUSH1 0x1C DUP3 ADD SWAP1 POP SWAP2 SWAP1 POP JUMP JUMPDEST PUSH0 DUP2 SWAP1 POP SWAP2 SWAP1 POP JUMP JUMPDEST PUSH2 0x18F PUSH2 0x18A DUP3 PUSH2 0x9B JUMP JUMPDEST PUSH2 0x175 JUMP JUMPDEST DUP3 MSTORE POP POP JUMP JUMPDEST PUSH0 PUSH2 0x19F DUP3 PUSH2 0x153 JUMP JUMPDEST SWAP2 POP PUSH2 0x1AB DUP3 DUP5 PUSH2 0x17E JUMP JUMPDEST PUSH1 0x20 DUP3 ADD SWAP2 POP DUP2 SWAP1 POP SWAP3 SWAP2 POP POP JUMP INVALID LOG2 PUSH5 0x6970667358 0x22 SLT KECCAK256 0xDB 0xAF ISZERO DUP13 TLOAD 0xBB 0x29 JUMPDEST SWAP8 0xDE 0xB7 SHL MSIZE LOG4 SWAP7 0x26 0xE5 0xF PUSH20 0x5EEE8F77A13ADC1B06FCC4514464736F6C634300 ADDMOD BYTE STOP CALLER "
				},
				"gasEstimates": {
					"creation": {
						"codeDepositCost": "99200",
						"executionCost": "170",
						"totalCost": "99370"
					},
					"external": {
						"toEthSignedMessageHash(bytes32)": "infinite"
					}
				},
				"methodIdentifiers": {
					"toEthSignedMessageHash(bytes32)": "918a15cf"
				}
			},
			"storageLayout": {
				"storage": [],
				"types": null
			},
			"userdoc": {
				"kind": "user",
				"methods": {},
				"notice": "数字签名步骤 1. 先对数据进行哈希，使用keccak256函数 2. 在进行以太坊签名，使用'\\x19Ethereum Signed Message:\\n32'和哈希后的数据再进行一次哈希 3. 签名 - 利用钱包签名，常用的是metamask，进行签名的时候只需要输入钱包的地址和消息，就可以进行签名 - 利用web3.py签名，利用python代码签名，请见py文件夹中signature_with_web3.py文件 4. 验证签名，利用消息hash和签名，解析出公钥，与实际的公钥做对比，验证签名是否正确，‘ 使用的是RSV签名算法去验证(Recovery ID(v), Signature(s, r)) r: 签名的前 32 字节。 s: 签名的后 32 字节。 v: 恢复标志，用于恢复签名者的公钥。通常为 27 或 28。",
				"version": 1
			}
		}
	}
}