{
	"contracts/Inheritance.sol": {
		"Baba": {
			"abi": [
				{
					"anonymous": false,
					"inputs": [
						{
							"indexed": false,
							"internalType": "string",
							"name": "msg",
							"type": "string"
						}
					],
					"name": "Log",
					"type": "event"
				},
				{
					"inputs": [],
					"name": "baba",
					"outputs": [],
					"stateMutability": "nonpayable",
					"type": "function"
				},
				{
					"inputs": [],
					"name": "hip",
					"outputs": [],
					"stateMutability": "nonpayable",
					"type": "function"
				},
				{
					"inputs": [],
					"name": "pop",
					"outputs": [],
					"stateMutability": "nonpayable",
					"type": "function"
				},
				{
					"inputs": [],
					"name": "yeye",
					"outputs": [],
					"stateMutability": "nonpayable",
					"type": "function"
				}
			],
			"devdoc": {
				"kind": "dev",
				"methods": {},
				"version": 1
			},
			"evm": {
				"assembly": "    /* \"contracts/Inheritance.sol\":446:817  contract Baba is Yeye{... */\n  mstore(0x40, 0x80)\n  callvalue\n  dup1\n  iszero\n  tag_1\n  jumpi\n  0x00\n  dup1\n  revert\ntag_1:\n  pop\n  dataSize(sub_0)\n  dup1\n  dataOffset(sub_0)\n  0x00\n  codecopy\n  0x00\n  return\nstop\n\nsub_0: assembly {\n        /* \"contracts/Inheritance.sol\":446:817  contract Baba is Yeye{... */\n      mstore(0x40, 0x80)\n      callvalue\n      dup1\n      iszero\n      tag_1\n      jumpi\n      0x00\n      dup1\n      revert\n    tag_1:\n      pop\n      jumpi(tag_2, lt(calldatasize, 0x04))\n      shr(0xe0, calldataload(0x00))\n      dup1\n      0x0ca21e9c\n      eq\n      tag_3\n      jumpi\n      dup1\n      0x370ea142\n      eq\n      tag_4\n      jumpi\n      dup1\n      0xa4ece52c\n      eq\n      tag_5\n      jumpi\n      dup1\n      0xfa030ef1\n      eq\n      tag_6\n      jumpi\n    tag_2:\n      0x00\n      dup1\n      revert\n        /* \"contracts/Inheritance.sol\":341:407  function yeye() public virtual {... */\n    tag_3:\n      tag_7\n      tag_8\n      jump\t// in\n    tag_7:\n      stop\n        /* \"contracts/Inheritance.sol\":554:628  function hip() public virtual override {... */\n    tag_4:\n      tag_9\n      tag_10\n      jump\t// in\n    tag_9:\n      stop\n        /* \"contracts/Inheritance.sol\":636:710  function pop() public virtual override {... */\n    tag_5:\n      tag_11\n      tag_12\n      jump\t// in\n    tag_11:\n      stop\n        /* \"contracts/Inheritance.sol\":748:814  function baba() public virtual {... */\n    tag_6:\n      tag_13\n      tag_14\n      jump\t// in\n    tag_13:\n      stop\n        /* \"contracts/Inheritance.sol\":341:407  function yeye() public virtual {... */\n    tag_8:\n        /* \"contracts/Inheritance.sol\":388:399  Log(\"Yeye\") */\n      0xcf34ef537ac33ee1ac626ca1587a0a7e8e51561e5514f8cb36afa1c5102b3bab\n      mload(0x40)\n      tag_16\n      swap1\n      tag_17\n      jump\t// in\n    tag_16:\n      mload(0x40)\n      dup1\n      swap2\n      sub\n      swap1\n      log1\n        /* \"contracts/Inheritance.sol\":341:407  function yeye() public virtual {... */\n      jump\t// out\n        /* \"contracts/Inheritance.sol\":554:628  function hip() public virtual override {... */\n    tag_10:\n        /* \"contracts/Inheritance.sol\":609:620  Log(\"Baba\") */\n      0xcf34ef537ac33ee1ac626ca1587a0a7e8e51561e5514f8cb36afa1c5102b3bab\n      mload(0x40)\n      tag_19\n      swap1\n      tag_20\n      jump\t// in\n    tag_19:\n      mload(0x40)\n      dup1\n      swap2\n      sub\n      swap1\n      log1\n        /* \"contracts/Inheritance.sol\":554:628  function hip() public virtual override {... */\n      jump\t// out\n        /* \"contracts/Inheritance.sol\":636:710  function pop() public virtual override {... */\n    tag_12:\n        /* \"contracts/Inheritance.sol\":691:702  Log(\"Baba\") */\n      0xcf34ef537ac33ee1ac626ca1587a0a7e8e51561e5514f8cb36afa1c5102b3bab\n      mload(0x40)\n      tag_22\n      swap1\n      tag_20\n      jump\t// in\n    tag_22:\n      mload(0x40)\n      dup1\n      swap2\n      sub\n      swap1\n      log1\n        /* \"contracts/Inheritance.sol\":636:710  function pop() public virtual override {... */\n      jump\t// out\n        /* \"contracts/Inheritance.sol\":748:814  function baba() public virtual {... */\n    tag_14:\n        /* \"contracts/Inheritance.sol\":795:806  Log(\"baba\") */\n      0xcf34ef537ac33ee1ac626ca1587a0a7e8e51561e5514f8cb36afa1c5102b3bab\n      mload(0x40)\n      tag_24\n      swap1\n      tag_25\n      jump\t// in\n    tag_24:\n      mload(0x40)\n      dup1\n      swap2\n      sub\n      swap1\n      log1\n        /* \"contracts/Inheritance.sol\":748:814  function baba() public virtual {... */\n      jump\t// out\n        /* \"#utility.yul\":7:176   */\n    tag_26:\n        /* \"#utility.yul\":91:102   */\n      0x00\n        /* \"#utility.yul\":125:131   */\n      dup3\n        /* \"#utility.yul\":120:123   */\n      dup3\n        /* \"#utility.yul\":113:132   */\n      mstore\n        /* \"#utility.yul\":165:169   */\n      0x20\n        /* \"#utility.yul\":160:163   */\n      dup3\n        /* \"#utility.yul\":156:170   */\n      add\n        /* \"#utility.yul\":141:170   */\n      swap1\n      pop\n        /* \"#utility.yul\":7:176   */\n      swap3\n      swap2\n      pop\n      pop\n      jump\t// out\n        /* \"#utility.yul\":182:336   */\n    tag_27:\n        /* \"#utility.yul\":322:328   */\n      0x5965796500000000000000000000000000000000000000000000000000000000\n        /* \"#utility.yul\":318:319   */\n      0x00\n        /* \"#utility.yul\":310:316   */\n      dup3\n        /* \"#utility.yul\":306:320   */\n      add\n        /* \"#utility.yul\":299:329   */\n      mstore\n        /* \"#utility.yul\":182:336   */\n      pop\n      jump\t// out\n        /* \"#utility.yul\":342:707   */\n    tag_28:\n        /* \"#utility.yul\":484:487   */\n      0x00\n        /* \"#utility.yul\":505:571   */\n      tag_37\n        /* \"#utility.yul\":569:570   */\n      0x04\n        /* \"#utility.yul\":564:567   */\n      dup4\n        /* \"#utility.yul\":505:571   */\n      tag_26\n      jump\t// in\n    tag_37:\n        /* \"#utility.yul\":498:571   */\n      swap2\n      pop\n        /* \"#utility.yul\":580:673   */\n      tag_38\n        /* \"#utility.yul\":669:672   */\n      dup3\n        /* \"#utility.yul\":580:673   */\n      tag_27\n      jump\t// in\n    tag_38:\n        /* \"#utility.yul\":698:700   */\n      0x20\n        /* \"#utility.yul\":693:696   */\n      dup3\n        /* \"#utility.yul\":689:701   */\n      add\n        /* \"#utility.yul\":682:701   */\n      swap1\n      pop\n        /* \"#utility.yul\":342:707   */\n      swap2\n      swap1\n      pop\n      jump\t// out\n        /* \"#utility.yul\":713:1132   */\n    tag_17:\n        /* \"#utility.yul\":879:883   */\n      0x00\n        /* \"#utility.yul\":917:919   */\n      0x20\n        /* \"#utility.yul\":906:915   */\n      dup3\n        /* \"#utility.yul\":902:920   */\n      add\n        /* \"#utility.yul\":894:920   */\n      swap1\n      pop\n        /* \"#utility.yul\":966:975   */\n      dup2\n        /* \"#utility.yul\":960:964   */\n      dup2\n        /* \"#utility.yul\":956:976   */\n      sub\n        /* \"#utility.yul\":952:953   */\n      0x00\n        /* \"#utility.yul\":941:950   */\n      dup4\n        /* \"#utility.yul\":937:954   */\n      add\n        /* \"#utility.yul\":930:977   */\n      mstore\n        /* \"#utility.yul\":994:1125   */\n      tag_40\n        /* \"#utility.yul\":1120:1124   */\n      dup2\n        /* \"#utility.yul\":994:1125   */\n      tag_28\n      jump\t// in\n    tag_40:\n        /* \"#utility.yul\":986:1125   */\n      swap1\n      pop\n        /* \"#utility.yul\":713:1132   */\n      swap2\n      swap1\n      pop\n      jump\t// out\n        /* \"#utility.yul\":1138:1292   */\n    tag_29:\n        /* \"#utility.yul\":1278:1284   */\n      0x4261626100000000000000000000000000000000000000000000000000000000\n        /* \"#utility.yul\":1274:1275   */\n      0x00\n        /* \"#utility.yul\":1266:1272   */\n      dup3\n        /* \"#utility.yul\":1262:1276   */\n      add\n        /* \"#utility.yul\":1255:1285   */\n      mstore\n        /* \"#utility.yul\":1138:1292   */\n      pop\n      jump\t// out\n        /* \"#utility.yul\":1298:1663   */\n    tag_30:\n        /* \"#utility.yul\":1440:1443   */\n      0x00\n        /* \"#utility.yul\":1461:1527   */\n      tag_43\n        /* \"#utility.yul\":1525:1526   */\n      0x04\n        /* \"#utility.yul\":1520:1523   */\n      dup4\n        /* \"#utility.yul\":1461:1527   */\n      tag_26\n      jump\t// in\n    tag_43:\n        /* \"#utility.yul\":1454:1527   */\n      swap2\n      pop\n        /* \"#utility.yul\":1536:1629   */\n      tag_44\n        /* \"#utility.yul\":1625:1628   */\n      dup3\n        /* \"#utility.yul\":1536:1629   */\n      tag_29\n      jump\t// in\n    tag_44:\n        /* \"#utility.yul\":1654:1656   */\n      0x20\n        /* \"#utility.yul\":1649:1652   */\n      dup3\n        /* \"#utility.yul\":1645:1657   */\n      add\n        /* \"#utility.yul\":1638:1657   */\n      swap1\n      pop\n        /* \"#utility.yul\":1298:1663   */\n      swap2\n      swap1\n      pop\n      jump\t// out\n        /* \"#utility.yul\":1669:2088   */\n    tag_20:\n        /* \"#utility.yul\":1835:1839   */\n      0x00\n        /* \"#utility.yul\":1873:1875   */\n      0x20\n        /* \"#utility.yul\":1862:1871   */\n      dup3\n        /* \"#utility.yul\":1858:1876   */\n      add\n        /* \"#utility.yul\":1850:1876   */\n      swap1\n      pop\n        /* \"#utility.yul\":1922:1931   */\n      dup2\n        /* \"#utility.yul\":1916:1920   */\n      dup2\n        /* \"#utility.yul\":1912:1932   */\n      sub\n        /* \"#utility.yul\":1908:1909   */\n      0x00\n        /* \"#utility.yul\":1897:1906   */\n      dup4\n        /* \"#utility.yul\":1893:1910   */\n      add\n        /* \"#utility.yul\":1886:1933   */\n      mstore\n        /* \"#utility.yul\":1950:2081   */\n      tag_46\n        /* \"#utility.yul\":2076:2080   */\n      dup2\n        /* \"#utility.yul\":1950:2081   */\n      tag_30\n      jump\t// in\n    tag_46:\n        /* \"#utility.yul\":1942:2081   */\n      swap1\n      pop\n        /* \"#utility.yul\":1669:2088   */\n      swap2\n      swap1\n      pop\n      jump\t// out\n        /* \"#utility.yul\":2094:2248   */\n    tag_31:\n        /* \"#utility.yul\":2234:2240   */\n      0x6261626100000000000000000000000000000000000000000000000000000000\n        /* \"#utility.yul\":2230:2231   */\n      0x00\n        /* \"#utility.yul\":2222:2228   */\n      dup3\n        /* \"#utility.yul\":2218:2232   */\n      add\n        /* \"#utility.yul\":2211:2241   */\n      mstore\n        /* \"#utility.yul\":2094:2248   */\n      pop\n      jump\t// out\n        /* \"#utility.yul\":2254:2619   */\n    tag_32:\n        /* \"#utility.yul\":2396:2399   */\n      0x00\n        /* \"#utility.yul\":2417:2483   */\n      tag_49\n        /* \"#utility.yul\":2481:2482   */\n      0x04\n        /* \"#utility.yul\":2476:2479   */\n      dup4\n        /* \"#utility.yul\":2417:2483   */\n      tag_26\n      jump\t// in\n    tag_49:\n        /* \"#utility.yul\":2410:2483   */\n      swap2\n      pop\n        /* \"#utility.yul\":2492:2585   */\n      tag_50\n        /* \"#utility.yul\":2581:2584   */\n      dup3\n        /* \"#utility.yul\":2492:2585   */\n      tag_31\n      jump\t// in\n    tag_50:\n        /* \"#utility.yul\":2610:2612   */\n      0x20\n        /* \"#utility.yul\":2605:2608   */\n      dup3\n        /* \"#utility.yul\":2601:2613   */\n      add\n        /* \"#utility.yul\":2594:2613   */\n      swap1\n      pop\n        /* \"#utility.yul\":2254:2619   */\n      swap2\n      swap1\n      pop\n      jump\t// out\n        /* \"#utility.yul\":2625:3044   */\n    tag_25:\n        /* \"#utility.yul\":2791:2795   */\n      0x00\n        /* \"#utility.yul\":2829:2831   */\n      0x20\n        /* \"#utility.yul\":2818:2827   */\n      dup3\n        /* \"#utility.yul\":2814:2832   */\n      add\n        /* \"#utility.yul\":2806:2832   */\n      swap1\n      pop\n        /* \"#utility.yul\":2878:2887   */\n      dup2\n        /* \"#utility.yul\":2872:2876   */\n      dup2\n        /* \"#utility.yul\":2868:2888   */\n      sub\n        /* \"#utility.yul\":2864:2865   */\n      0x00\n        /* \"#utility.yul\":2853:2862   */\n      dup4\n        /* \"#utility.yul\":2849:2866   */\n      add\n        /* \"#utility.yul\":2842:2889   */\n      mstore\n        /* \"#utility.yul\":2906:3037   */\n      tag_52\n        /* \"#utility.yul\":3032:3036   */\n      dup2\n        /* \"#utility.yul\":2906:3037   */\n      tag_32\n      jump\t// in\n    tag_52:\n        /* \"#utility.yul\":2898:3037   */\n      swap1\n      pop\n        /* \"#utility.yul\":2625:3044   */\n      swap2\n      swap1\n      pop\n      jump\t// out\n\n    auxdata: 0xa2646970667358221220adcfba090020e335c26bdc5b435e05fb22bafa1e8fab9519f268d9a71263378c64736f6c634300081a0033\n}\n",
				"bytecode": {
					"linkReferences": {},
					"object": "6080604052348015600e575f80fd5b506102d08061001c5f395ff3fe608060405234801561000f575f80fd5b506004361061004a575f3560e01c80630ca21e9c1461004e578063370ea14214610058578063a4ece52c14610062578063fa030ef11461006c575b5f80fd5b610056610076565b005b6100606100ad565b005b61006a6100e4565b005b61007461011b565b005b7fcf34ef537ac33ee1ac626ca1587a0a7e8e51561e5514f8cb36afa1c5102b3bab6040516100a3906101ac565b60405180910390a1565b7fcf34ef537ac33ee1ac626ca1587a0a7e8e51561e5514f8cb36afa1c5102b3bab6040516100da90610214565b60405180910390a1565b7fcf34ef537ac33ee1ac626ca1587a0a7e8e51561e5514f8cb36afa1c5102b3bab60405161011190610214565b60405180910390a1565b7fcf34ef537ac33ee1ac626ca1587a0a7e8e51561e5514f8cb36afa1c5102b3bab6040516101489061027c565b60405180910390a1565b5f82825260208201905092915050565b7f59657965000000000000000000000000000000000000000000000000000000005f82015250565b5f610196600483610152565b91506101a182610162565b602082019050919050565b5f6020820190508181035f8301526101c38161018a565b9050919050565b7f42616261000000000000000000000000000000000000000000000000000000005f82015250565b5f6101fe600483610152565b9150610209826101ca565b602082019050919050565b5f6020820190508181035f83015261022b816101f2565b9050919050565b7f62616261000000000000000000000000000000000000000000000000000000005f82015250565b5f610266600483610152565b915061027182610232565b602082019050919050565b5f6020820190508181035f8301526102938161025a565b905091905056fea2646970667358221220adcfba090020e335c26bdc5b435e05fb22bafa1e8fab9519f268d9a71263378c64736f6c634300081a0033",
					"opcodes": "PUSH1 0x80 PUSH1 0x40 MSTORE CALLVALUE DUP1 ISZERO PUSH1 0xE JUMPI PUSH0 DUP1 REVERT JUMPDEST POP PUSH2 0x2D0 DUP1 PUSH2 0x1C PUSH0 CODECOPY PUSH0 RETURN INVALID PUSH1 0x80 PUSH1 0x40 MSTORE CALLVALUE DUP1 ISZERO PUSH2 0xF JUMPI PUSH0 DUP1 REVERT JUMPDEST POP PUSH1 0x4 CALLDATASIZE LT PUSH2 0x4A JUMPI PUSH0 CALLDATALOAD PUSH1 0xE0 SHR DUP1 PUSH4 0xCA21E9C EQ PUSH2 0x4E JUMPI DUP1 PUSH4 0x370EA142 EQ PUSH2 0x58 JUMPI DUP1 PUSH4 0xA4ECE52C EQ PUSH2 0x62 JUMPI DUP1 PUSH4 0xFA030EF1 EQ PUSH2 0x6C JUMPI JUMPDEST PUSH0 DUP1 REVERT JUMPDEST PUSH2 0x56 PUSH2 0x76 JUMP JUMPDEST STOP JUMPDEST PUSH2 0x60 PUSH2 0xAD JUMP JUMPDEST STOP JUMPDEST PUSH2 0x6A PUSH2 0xE4 JUMP JUMPDEST STOP JUMPDEST PUSH2 0x74 PUSH2 0x11B JUMP JUMPDEST STOP JUMPDEST PUSH32 0xCF34EF537AC33EE1AC626CA1587A0A7E8E51561E5514F8CB36AFA1C5102B3BAB PUSH1 0x40 MLOAD PUSH2 0xA3 SWAP1 PUSH2 0x1AC JUMP JUMPDEST PUSH1 0x40 MLOAD DUP1 SWAP2 SUB SWAP1 LOG1 JUMP JUMPDEST PUSH32 0xCF34EF537AC33EE1AC626CA1587A0A7E8E51561E5514F8CB36AFA1C5102B3BAB PUSH1 0x40 MLOAD PUSH2 0xDA SWAP1 PUSH2 0x214 JUMP JUMPDEST PUSH1 0x40 MLOAD DUP1 SWAP2 SUB SWAP1 LOG1 JUMP JUMPDEST PUSH32 0xCF34EF537AC33EE1AC626CA1587A0A7E8E51561E5514F8CB36AFA1C5102B3BAB PUSH1 0x40 MLOAD PUSH2 0x111 SWAP1 PUSH2 0x214 JUMP JUMPDEST PUSH1 0x40 MLOAD DUP1 SWAP2 SUB SWAP1 LOG1 JUMP JUMPDEST PUSH32 0xCF34EF537AC33EE1AC626CA1587A0A7E8E51561E5514F8CB36AFA1C5102B3BAB PUSH1 0x40 MLOAD PUSH2 0x148 SWAP1 PUSH2 0x27C JUMP JUMPDEST PUSH1 0x40 MLOAD DUP1 SWAP2 SUB SWAP1 LOG1 JUMP JUMPDEST PUSH0 DUP3 DUP3 MSTORE PUSH1 0x20 DUP3 ADD SWAP1 POP SWAP3 SWAP2 POP POP JUMP JUMPDEST PUSH32 0x5965796500000000000000000000000000000000000000000000000000000000 PUSH0 DUP3 ADD MSTORE POP JUMP JUMPDEST PUSH0 PUSH2 0x196 PUSH1 0x4 DUP4 PUSH2 0x152 JUMP JUMPDEST SWAP2 POP PUSH2 0x1A1 DUP3 PUSH2 0x162 JUMP JUMPDEST PUSH1 0x20 DUP3 ADD SWAP1 POP SWAP2 SWAP1 POP JUMP JUMPDEST PUSH0 PUSH1 0x20 DUP3 ADD SWAP1 POP DUP2 DUP2 SUB PUSH0 DUP4 ADD MSTORE PUSH2 0x1C3 DUP2 PUSH2 0x18A JUMP JUMPDEST SWAP1 POP SWAP2 SWAP1 POP JUMP JUMPDEST PUSH32 0x4261626100000000000000000000000000000000000000000000000000000000 PUSH0 DUP3 ADD MSTORE POP JUMP JUMPDEST PUSH0 PUSH2 0x1FE PUSH1 0x4 DUP4 PUSH2 0x152 JUMP JUMPDEST SWAP2 POP PUSH2 0x209 DUP3 PUSH2 0x1CA JUMP JUMPDEST PUSH1 0x20 DUP3 ADD SWAP1 POP SWAP2 SWAP1 POP JUMP JUMPDEST PUSH0 PUSH1 0x20 DUP3 ADD SWAP1 POP DUP2 DUP2 SUB PUSH0 DUP4 ADD MSTORE PUSH2 0x22B DUP2 PUSH2 0x1F2 JUMP JUMPDEST SWAP1 POP SWAP2 SWAP1 POP JUMP JUMPDEST PUSH32 0x6261626100000000000000000000000000000000000000000000000000000000 PUSH0 DUP3 ADD MSTORE POP JUMP JUMPDEST PUSH0 PUSH2 0x266 PUSH1 0x4 DUP4 PUSH2 0x152 JUMP JUMPDEST SWAP2 POP PUSH2 0x271 DUP3 PUSH2 0x232 JUMP JUMPDEST PUSH1 0x20 DUP3 ADD SWAP1 POP SWAP2 SWAP1 POP JUMP JUMPDEST PUSH0 PUSH1 0x20 DUP3 ADD SWAP1 POP DUP2 DUP2 SUB PUSH0 DUP4 ADD MSTORE PUSH2 0x293 DUP2 PUSH2 0x25A JUMP JUMPDEST SWAP1 POP SWAP2 SWAP1 POP JUMP INVALID LOG2 PUSH5 0x6970667358 0x22 SLT KECCAK256 0xAD 0xCF 0xBA MULMOD STOP KECCAK256 0xE3 CALLDATALOAD 0xC2 PUSH12 0xDC5B435E05FB22BAFA1E8FAB SWAP6 NOT CALLCODE PUSH9 0xD9A71263378C64736F PUSH13 0x634300081A0033000000000000 "
				},
				"gasEstimates": {
					"creation": {
						"codeDepositCost": "144000",
						"executionCost": "188",
						"totalCost": "144188"
					},
					"external": {
						"baba()": "1984",
						"hip()": "1940",
						"pop()": "1962",
						"yeye()": "1918"
					}
				},
				"methodIdentifiers": {
					"baba()": "fa030ef1",
					"hip()": "370ea142",
					"pop()": "a4ece52c",
					"yeye()": "0ca21e9c"
				}
			},
			"storageLayout": {
				"storage": [],
				"types": null
			},
			"userdoc": {
				"kind": "user",
				"methods": {},
				"version": 1
			}
		}
	}
}