{
	"contracts/Create2.sol": {
		"Pair": {
			"abi": [
				{
					"inputs": [],
					"stateMutability": "payable",
					"type": "constructor"
				},
				{
					"inputs": [],
					"name": "factory",
					"outputs": [
						{
							"internalType": "address",
							"name": "",
							"type": "address"
						}
					],
					"stateMutability": "view",
					"type": "function"
				},
				{
					"inputs": [
						{
							"internalType": "address",
							"name": "_token01",
							"type": "address"
						},
						{
							"internalType": "address",
							"name": "_token02",
							"type": "address"
						}
					],
					"name": "initialize",
					"outputs": [],
					"stateMutability": "nonpayable",
					"type": "function"
				},
				{
					"inputs": [],
					"name": "token01",
					"outputs": [
						{
							"internalType": "address",
							"name": "",
							"type": "address"
						}
					],
					"stateMutability": "view",
					"type": "function"
				},
				{
					"inputs": [],
					"name": "token02",
					"outputs": [
						{
							"internalType": "address",
							"name": "",
							"type": "address"
						}
					],
					"stateMutability": "view",
					"type": "function"
				}
			],
			"devdoc": {
				"kind": "dev",
				"methods": {},
				"version": 1
			},
			"evm": {
				"assembly": "    /* \"contracts/Create2.sol\":63:430  contract Pair {... */\n  mstore(0x40, 0x80)\n    /* \"contracts/Create2.sol\":216:226  msg.sender */\n  caller\n    /* \"contracts/Create2.sol\":206:213  factory */\n  0x00\n  dup1\n    /* \"contracts/Create2.sol\":206:226  factory = msg.sender */\n  0x0100\n  exp\n  dup2\n  sload\n  dup2\n  0xffffffffffffffffffffffffffffffffffffffff\n  mul\n  not\n  and\n  swap1\n  dup4\n  0xffffffffffffffffffffffffffffffffffffffff\n  and\n  mul\n  or\n  swap1\n  sstore\n  pop\n    /* \"contracts/Create2.sol\":63:430  contract Pair {... */\n  dataSize(sub_0)\n  dup1\n  dataOffset(sub_0)\n  0x00\n  codecopy\n  0x00\n  return\nstop\n\nsub_0: assembly {\n        /* \"contracts/Create2.sol\":63:430  contract Pair {... */\n      mstore(0x40, 0x80)\n      callvalue\n      dup1\n      iszero\n      tag_1\n      jumpi\n      0x00\n      dup1\n      revert\n    tag_1:\n      pop\n      jumpi(tag_2, lt(calldatasize, 0x04))\n      shr(0xe0, calldataload(0x00))\n      dup1\n      0x485cc955\n      eq\n      tag_3\n      jumpi\n      dup1\n      0x4b6f9d2b\n      eq\n      tag_4\n      jumpi\n      dup1\n      0x6622fdfb\n      eq\n      tag_5\n      jumpi\n      dup1\n      0xc45a0155\n      eq\n      tag_6\n      jumpi\n    tag_2:\n      0x00\n      dup1\n      revert\n        /* \"contracts/Create2.sol\":242:427  function initialize(address _token01, address _token02) external {... */\n    tag_3:\n      tag_7\n      0x04\n      dup1\n      calldatasize\n      sub\n      dup2\n      add\n      swap1\n      tag_8\n      swap2\n      swap1\n      tag_9\n      jump\t// in\n    tag_8:\n      tag_10\n      jump\t// in\n    tag_7:\n      stop\n        /* \"contracts/Create2.sol\":113:135  address public token01 */\n    tag_4:\n      tag_11\n      tag_12\n      jump\t// in\n    tag_11:\n      mload(0x40)\n      tag_13\n      swap2\n      swap1\n      tag_14\n      jump\t// in\n    tag_13:\n      mload(0x40)\n      dup1\n      swap2\n      sub\n      swap1\n      return\n        /* \"contracts/Create2.sol\":142:164  address public token02 */\n    tag_5:\n      tag_15\n      tag_16\n      jump\t// in\n    tag_15:\n      mload(0x40)\n      tag_17\n      swap2\n      swap1\n      tag_14\n      jump\t// in\n    tag_17:\n      mload(0x40)\n      dup1\n      swap2\n      sub\n      swap1\n      return\n        /* \"contracts/Create2.sol\":84:106  address public factory */\n    tag_6:\n      tag_18\n      tag_19\n      jump\t// in\n    tag_18:\n      mload(0x40)\n      tag_20\n      swap2\n      swap1\n      tag_14\n      jump\t// in\n    tag_20:\n      mload(0x40)\n      dup1\n      swap2\n      sub\n      swap1\n      return\n        /* \"contracts/Create2.sol\":242:427  function initialize(address _token01, address _token02) external {... */\n    tag_10:\n        /* \"contracts/Create2.sol\":337:347  msg.sender */\n      caller\n        /* \"contracts/Create2.sol\":326:347  factory == msg.sender */\n      0xffffffffffffffffffffffffffffffffffffffff\n      and\n        /* \"contracts/Create2.sol\":326:333  factory */\n      0x00\n      dup1\n      sload\n      swap1\n      0x0100\n      exp\n      swap1\n      div\n      0xffffffffffffffffffffffffffffffffffffffff\n      and\n        /* \"contracts/Create2.sol\":326:347  factory == msg.sender */\n      0xffffffffffffffffffffffffffffffffffffffff\n      and\n      eq\n        /* \"contracts/Create2.sol\":318:361  require(factory == msg.sender, \"forbidden\") */\n      tag_22\n      jumpi\n      mload(0x40)\n      0x08c379a000000000000000000000000000000000000000000000000000000000\n      dup2\n      mstore\n      0x04\n      add\n      tag_23\n      swap1\n      tag_24\n      jump\t// in\n    tag_23:\n      mload(0x40)\n      dup1\n      swap2\n      sub\n      swap1\n      revert\n    tag_22:\n        /* \"contracts/Create2.sol\":382:390  _token01 */\n      dup2\n        /* \"contracts/Create2.sol\":372:379  token01 */\n      0x01\n      0x00\n        /* \"contracts/Create2.sol\":372:390  token01 = _token01 */\n      0x0100\n      exp\n      dup2\n      sload\n      dup2\n      0xffffffffffffffffffffffffffffffffffffffff\n      mul\n      not\n      and\n      swap1\n      dup4\n      0xffffffffffffffffffffffffffffffffffffffff\n      and\n      mul\n      or\n      swap1\n      sstore\n      pop\n        /* \"contracts/Create2.sol\":411:419  _token02 */\n      dup1\n        /* \"contracts/Create2.sol\":401:408  token02 */\n      0x02\n      0x00\n        /* \"contracts/Create2.sol\":401:419  token02 = _token02 */\n      0x0100\n      exp\n      dup2\n      sload\n      dup2\n      0xffffffffffffffffffffffffffffffffffffffff\n      mul\n      not\n      and\n      swap1\n      dup4\n      0xffffffffffffffffffffffffffffffffffffffff\n      and\n      mul\n      or\n      swap1\n      sstore\n      pop\n        /* \"contracts/Create2.sol\":242:427  function initialize(address _token01, address _token02) external {... */\n      pop\n      pop\n      jump\t// out\n        /* \"contracts/Create2.sol\":113:135  address public token01 */\n    tag_12:\n      0x01\n      0x00\n      swap1\n      sload\n      swap1\n      0x0100\n      exp\n      swap1\n      div\n      0xffffffffffffffffffffffffffffffffffffffff\n      and\n      dup2\n      jump\t// out\n        /* \"contracts/Create2.sol\":142:164  address public token02 */\n    tag_16:\n      0x02\n      0x00\n      swap1\n      sload\n      swap1\n      0x0100\n      exp\n      swap1\n      div\n      0xffffffffffffffffffffffffffffffffffffffff\n      and\n      dup2\n      jump\t// out\n        /* \"contracts/Create2.sol\":84:106  address public factory */\n    tag_19:\n      0x00\n      dup1\n      sload\n      swap1\n      0x0100\n      exp\n      swap1\n      div\n      0xffffffffffffffffffffffffffffffffffffffff\n      and\n      dup2\n      jump\t// out\n        /* \"#utility.yul\":88:205   */\n    tag_26:\n        /* \"#utility.yul\":197:198   */\n      0x00\n        /* \"#utility.yul\":194:195   */\n      dup1\n        /* \"#utility.yul\":187:199   */\n      revert\n        /* \"#utility.yul\":334:460   */\n    tag_28:\n        /* \"#utility.yul\":371:378   */\n      0x00\n        /* \"#utility.yul\":411:453   */\n      0xffffffffffffffffffffffffffffffffffffffff\n        /* \"#utility.yul\":404:409   */\n      dup3\n        /* \"#utility.yul\":400:454   */\n      and\n        /* \"#utility.yul\":389:454   */\n      swap1\n      pop\n        /* \"#utility.yul\":334:460   */\n      swap2\n      swap1\n      pop\n      jump\t// out\n        /* \"#utility.yul\":466:562   */\n    tag_29:\n        /* \"#utility.yul\":503:510   */\n      0x00\n        /* \"#utility.yul\":532:556   */\n      tag_42\n        /* \"#utility.yul\":550:555   */\n      dup3\n        /* \"#utility.yul\":532:556   */\n      tag_28\n      jump\t// in\n    tag_42:\n        /* \"#utility.yul\":521:556   */\n      swap1\n      pop\n        /* \"#utility.yul\":466:562   */\n      swap2\n      swap1\n      pop\n      jump\t// out\n        /* \"#utility.yul\":568:690   */\n    tag_30:\n        /* \"#utility.yul\":641:665   */\n      tag_44\n        /* \"#utility.yul\":659:664   */\n      dup2\n        /* \"#utility.yul\":641:665   */\n      tag_29\n      jump\t// in\n    tag_44:\n        /* \"#utility.yul\":634:639   */\n      dup2\n        /* \"#utility.yul\":631:666   */\n      eq\n        /* \"#utility.yul\":621:684   */\n      tag_45\n      jumpi\n        /* \"#utility.yul\":680:681   */\n      0x00\n        /* \"#utility.yul\":677:678   */\n      dup1\n        /* \"#utility.yul\":670:682   */\n      revert\n        /* \"#utility.yul\":621:684   */\n    tag_45:\n        /* \"#utility.yul\":568:690   */\n      pop\n      jump\t// out\n        /* \"#utility.yul\":696:835   */\n    tag_31:\n        /* \"#utility.yul\":742:747   */\n      0x00\n        /* \"#utility.yul\":780:786   */\n      dup2\n        /* \"#utility.yul\":767:787   */\n      calldataload\n        /* \"#utility.yul\":758:787   */\n      swap1\n      pop\n        /* \"#utility.yul\":796:829   */\n      tag_47\n        /* \"#utility.yul\":823:828   */\n      dup2\n        /* \"#utility.yul\":796:829   */\n      tag_30\n      jump\t// in\n    tag_47:\n        /* \"#utility.yul\":696:835   */\n      swap3\n      swap2\n      pop\n      pop\n      jump\t// out\n        /* \"#utility.yul\":841:1315   */\n    tag_9:\n        /* \"#utility.yul\":909:915   */\n      0x00\n        /* \"#utility.yul\":917:923   */\n      dup1\n        /* \"#utility.yul\":966:968   */\n      0x40\n        /* \"#utility.yul\":954:963   */\n      dup4\n        /* \"#utility.yul\":945:952   */\n      dup6\n        /* \"#utility.yul\":941:964   */\n      sub\n        /* \"#utility.yul\":937:969   */\n      slt\n        /* \"#utility.yul\":934:1053   */\n      iszero\n      tag_49\n      jumpi\n        /* \"#utility.yul\":972:1051   */\n      tag_50\n      tag_26\n      jump\t// in\n    tag_50:\n        /* \"#utility.yul\":934:1053   */\n    tag_49:\n        /* \"#utility.yul\":1092:1093   */\n      0x00\n        /* \"#utility.yul\":1117:1170   */\n      tag_51\n        /* \"#utility.yul\":1162:1169   */\n      dup6\n        /* \"#utility.yul\":1153:1159   */\n      dup3\n        /* \"#utility.yul\":1142:1151   */\n      dup7\n        /* \"#utility.yul\":1138:1160   */\n      add\n        /* \"#utility.yul\":1117:1170   */\n      tag_31\n      jump\t// in\n    tag_51:\n        /* \"#utility.yul\":1107:1170   */\n      swap3\n      pop\n        /* \"#utility.yul\":1063:1180   */\n      pop\n        /* \"#utility.yul\":1219:1221   */\n      0x20\n        /* \"#utility.yul\":1245:1298   */\n      tag_52\n        /* \"#utility.yul\":1290:1297   */\n      dup6\n        /* \"#utility.yul\":1281:1287   */\n      dup3\n        /* \"#utility.yul\":1270:1279   */\n      dup7\n        /* \"#utility.yul\":1266:1288   */\n      add\n        /* \"#utility.yul\":1245:1298   */\n      tag_31\n      jump\t// in\n    tag_52:\n        /* \"#utility.yul\":1235:1298   */\n      swap2\n      pop\n        /* \"#utility.yul\":1190:1308   */\n      pop\n        /* \"#utility.yul\":841:1315   */\n      swap3\n      pop\n      swap3\n      swap1\n      pop\n      jump\t// out\n        /* \"#utility.yul\":1321:1439   */\n    tag_32:\n        /* \"#utility.yul\":1408:1432   */\n      tag_54\n        /* \"#utility.yul\":1426:1431   */\n      dup2\n        /* \"#utility.yul\":1408:1432   */\n      tag_29\n      jump\t// in\n    tag_54:\n        /* \"#utility.yul\":1403:1406   */\n      dup3\n        /* \"#utility.yul\":1396:1433   */\n      mstore\n        /* \"#utility.yul\":1321:1439   */\n      pop\n      pop\n      jump\t// out\n        /* \"#utility.yul\":1445:1667   */\n    tag_14:\n        /* \"#utility.yul\":1538:1542   */\n      0x00\n        /* \"#utility.yul\":1576:1578   */\n      0x20\n        /* \"#utility.yul\":1565:1574   */\n      dup3\n        /* \"#utility.yul\":1561:1579   */\n      add\n        /* \"#utility.yul\":1553:1579   */\n      swap1\n      pop\n        /* \"#utility.yul\":1589:1660   */\n      tag_56\n        /* \"#utility.yul\":1657:1658   */\n      0x00\n        /* \"#utility.yul\":1646:1655   */\n      dup4\n        /* \"#utility.yul\":1642:1659   */\n      add\n        /* \"#utility.yul\":1633:1639   */\n      dup5\n        /* \"#utility.yul\":1589:1660   */\n      tag_32\n      jump\t// in\n    tag_56:\n        /* \"#utility.yul\":1445:1667   */\n      swap3\n      swap2\n      pop\n      pop\n      jump\t// out\n        /* \"#utility.yul\":1673:1842   */\n    tag_33:\n        /* \"#utility.yul\":1757:1768   */\n      0x00\n        /* \"#utility.yul\":1791:1797   */\n      dup3\n        /* \"#utility.yul\":1786:1789   */\n      dup3\n        /* \"#utility.yul\":1779:1798   */\n      mstore\n        /* \"#utility.yul\":1831:1835   */\n      0x20\n        /* \"#utility.yul\":1826:1829   */\n      dup3\n        /* \"#utility.yul\":1822:1836   */\n      add\n        /* \"#utility.yul\":1807:1836   */\n      swap1\n      pop\n        /* \"#utility.yul\":1673:1842   */\n      swap3\n      swap2\n      pop\n      pop\n      jump\t// out\n        /* \"#utility.yul\":1848:2007   */\n    tag_34:\n        /* \"#utility.yul\":1988:1999   */\n      0x666f7262696464656e0000000000000000000000000000000000000000000000\n        /* \"#utility.yul\":1984:1985   */\n      0x00\n        /* \"#utility.yul\":1976:1982   */\n      dup3\n        /* \"#utility.yul\":1972:1986   */\n      add\n        /* \"#utility.yul\":1965:2000   */\n      mstore\n        /* \"#utility.yul\":1848:2007   */\n      pop\n      jump\t// out\n        /* \"#utility.yul\":2013:2378   */\n    tag_35:\n        /* \"#utility.yul\":2155:2158   */\n      0x00\n        /* \"#utility.yul\":2176:2242   */\n      tag_60\n        /* \"#utility.yul\":2240:2241   */\n      0x09\n        /* \"#utility.yul\":2235:2238   */\n      dup4\n        /* \"#utility.yul\":2176:2242   */\n      tag_33\n      jump\t// in\n    tag_60:\n        /* \"#utility.yul\":2169:2242   */\n      swap2\n      pop\n        /* \"#utility.yul\":2251:2344   */\n      tag_61\n        /* \"#utility.yul\":2340:2343   */\n      dup3\n        /* \"#utility.yul\":2251:2344   */\n      tag_34\n      jump\t// in\n    tag_61:\n        /* \"#utility.yul\":2369:2371   */\n      0x20\n        /* \"#utility.yul\":2364:2367   */\n      dup3\n        /* \"#utility.yul\":2360:2372   */\n      add\n        /* \"#utility.yul\":2353:2372   */\n      swap1\n      pop\n        /* \"#utility.yul\":2013:2378   */\n      swap2\n      swap1\n      pop\n      jump\t// out\n        /* \"#utility.yul\":2384:2803   */\n    tag_24:\n        /* \"#utility.yul\":2550:2554   */\n      0x00\n        /* \"#utility.yul\":2588:2590   */\n      0x20\n        /* \"#utility.yul\":2577:2586   */\n      dup3\n        /* \"#utility.yul\":2573:2591   */\n      add\n        /* \"#utility.yul\":2565:2591   */\n      swap1\n      pop\n        /* \"#utility.yul\":2637:2646   */\n      dup2\n        /* \"#utility.yul\":2631:2635   */\n      dup2\n        /* \"#utility.yul\":2627:2647   */\n      sub\n        /* \"#utility.yul\":2623:2624   */\n      0x00\n        /* \"#utility.yul\":2612:2621   */\n      dup4\n        /* \"#utility.yul\":2608:2625   */\n      add\n        /* \"#utility.yul\":2601:2648   */\n      mstore\n        /* \"#utility.yul\":2665:2796   */\n      tag_63\n        /* \"#utility.yul\":2791:2795   */\n      dup2\n        /* \"#utility.yul\":2665:2796   */\n      tag_35\n      jump\t// in\n    tag_63:\n        /* \"#utility.yul\":2657:2796   */\n      swap1\n      pop\n        /* \"#utility.yul\":2384:2803   */\n      swap2\n      swap1\n      pop\n      jump\t// out\n\n    auxdata: 0xa2646970667358221220a7b0b681201d273bb8ce2205991af6324432445b0e21705cdb2a4da51f5200f464736f6c634300081a0033\n}\n",
				"bytecode": {
					"linkReferences": {},
					"object": "6080604052335f806101000a81548173ffffffffffffffffffffffffffffffffffffffff021916908373ffffffffffffffffffffffffffffffffffffffff1602179055506103b4806100505f395ff3fe608060405234801561000f575f80fd5b506004361061004a575f3560e01c8063485cc9551461004e5780634b6f9d2b1461006a5780636622fdfb14610088578063c45a0155146100a6575b5f80fd5b610068600480360381019061006391906102a0565b6100c4565b005b6100726101d5565b60405161007f91906102ed565b60405180910390f35b6100906101fa565b60405161009d91906102ed565b60405180910390f35b6100ae61021f565b6040516100bb91906102ed565b60405180910390f35b3373ffffffffffffffffffffffffffffffffffffffff165f8054906101000a900473ffffffffffffffffffffffffffffffffffffffff1673ffffffffffffffffffffffffffffffffffffffff1614610151576040517f08c379a000000000000000000000000000000000000000000000000000000000815260040161014890610360565b60405180910390fd5b8160015f6101000a81548173ffffffffffffffffffffffffffffffffffffffff021916908373ffffffffffffffffffffffffffffffffffffffff1602179055508060025f6101000a81548173ffffffffffffffffffffffffffffffffffffffff021916908373ffffffffffffffffffffffffffffffffffffffff1602179055505050565b60015f9054906101000a900473ffffffffffffffffffffffffffffffffffffffff1681565b60025f9054906101000a900473ffffffffffffffffffffffffffffffffffffffff1681565b5f8054906101000a900473ffffffffffffffffffffffffffffffffffffffff1681565b5f80fd5b5f73ffffffffffffffffffffffffffffffffffffffff82169050919050565b5f61026f82610246565b9050919050565b61027f81610265565b8114610289575f80fd5b50565b5f8135905061029a81610276565b92915050565b5f80604083850312156102b6576102b5610242565b5b5f6102c38582860161028c565b92505060206102d48582860161028c565b9150509250929050565b6102e781610265565b82525050565b5f6020820190506103005f8301846102de565b92915050565b5f82825260208201905092915050565b7f666f7262696464656e00000000000000000000000000000000000000000000005f82015250565b5f61034a600983610306565b915061035582610316565b602082019050919050565b5f6020820190508181035f8301526103778161033e565b905091905056fea2646970667358221220a7b0b681201d273bb8ce2205991af6324432445b0e21705cdb2a4da51f5200f464736f6c634300081a0033",
					"opcodes": "PUSH1 0x80 PUSH1 0x40 MSTORE CALLER PUSH0 DUP1 PUSH2 0x100 EXP DUP2 SLOAD DUP2 PUSH20 0xFFFFFFFFFFFFFFFFFFFFFFFFFFFFFFFFFFFFFFFF MUL NOT AND SWAP1 DUP4 PUSH20 0xFFFFFFFFFFFFFFFFFFFFFFFFFFFFFFFFFFFFFFFF AND MUL OR SWAP1 SSTORE POP PUSH2 0x3B4 DUP1 PUSH2 0x50 PUSH0 CODECOPY PUSH0 RETURN INVALID PUSH1 0x80 PUSH1 0x40 MSTORE CALLVALUE DUP1 ISZERO PUSH2 0xF JUMPI PUSH0 DUP1 REVERT JUMPDEST POP PUSH1 0x4 CALLDATASIZE LT PUSH2 0x4A JUMPI PUSH0 CALLDATALOAD PUSH1 0xE0 SHR DUP1 PUSH4 0x485CC955 EQ PUSH2 0x4E JUMPI DUP1 PUSH4 0x4B6F9D2B EQ PUSH2 0x6A JUMPI DUP1 PUSH4 0x6622FDFB EQ PUSH2 0x88 JUMPI DUP1 PUSH4 0xC45A0155 EQ PUSH2 0xA6 JUMPI JUMPDEST PUSH0 DUP1 REVERT JUMPDEST PUSH2 0x68 PUSH1 0x4 DUP1 CALLDATASIZE SUB DUP2 ADD SWAP1 PUSH2 0x63 SWAP2 SWAP1 PUSH2 0x2A0 JUMP JUMPDEST PUSH2 0xC4 JUMP JUMPDEST STOP JUMPDEST PUSH2 0x72 PUSH2 0x1D5 JUMP JUMPDEST PUSH1 0x40 MLOAD PUSH2 0x7F SWAP2 SWAP1 PUSH2 0x2ED JUMP JUMPDEST PUSH1 0x40 MLOAD DUP1 SWAP2 SUB SWAP1 RETURN JUMPDEST PUSH2 0x90 PUSH2 0x1FA JUMP JUMPDEST PUSH1 0x40 MLOAD PUSH2 0x9D SWAP2 SWAP1 PUSH2 0x2ED JUMP JUMPDEST PUSH1 0x40 MLOAD DUP1 SWAP2 SUB SWAP1 RETURN JUMPDEST PUSH2 0xAE PUSH2 0x21F JUMP JUMPDEST PUSH1 0x40 MLOAD PUSH2 0xBB SWAP2 SWAP1 PUSH2 0x2ED JUMP JUMPDEST PUSH1 0x40 MLOAD DUP1 SWAP2 SUB SWAP1 RETURN JUMPDEST CALLER PUSH20 0xFFFFFFFFFFFFFFFFFFFFFFFFFFFFFFFFFFFFFFFF AND PUSH0 DUP1 SLOAD SWAP1 PUSH2 0x100 EXP SWAP1 DIV PUSH20 0xFFFFFFFFFFFFFFFFFFFFFFFFFFFFFFFFFFFFFFFF AND PUSH20 0xFFFFFFFFFFFFFFFFFFFFFFFFFFFFFFFFFFFFFFFF AND EQ PUSH2 0x151 JUMPI PUSH1 0x40 MLOAD PUSH32 0x8C379A000000000000000000000000000000000000000000000000000000000 DUP2 MSTORE PUSH1 0x4 ADD PUSH2 0x148 SWAP1 PUSH2 0x360 JUMP JUMPDEST PUSH1 0x40 MLOAD DUP1 SWAP2 SUB SWAP1 REVERT JUMPDEST DUP2 PUSH1 0x1 PUSH0 PUSH2 0x100 EXP DUP2 SLOAD DUP2 PUSH20 0xFFFFFFFFFFFFFFFFFFFFFFFFFFFFFFFFFFFFFFFF MUL NOT AND SWAP1 DUP4 PUSH20 0xFFFFFFFFFFFFFFFFFFFFFFFFFFFFFFFFFFFFFFFF AND MUL OR SWAP1 SSTORE POP DUP1 PUSH1 0x2 PUSH0 PUSH2 0x100 EXP DUP2 SLOAD DUP2 PUSH20 0xFFFFFFFFFFFFFFFFFFFFFFFFFFFFFFFFFFFFFFFF MUL NOT AND SWAP1 DUP4 PUSH20 0xFFFFFFFFFFFFFFFFFFFFFFFFFFFFFFFFFFFFFFFF AND MUL OR SWAP1 SSTORE POP POP POP JUMP JUMPDEST PUSH1 0x1 PUSH0 SWAP1 SLOAD SWAP1 PUSH2 0x100 EXP SWAP1 DIV PUSH20 0xFFFFFFFFFFFFFFFFFFFFFFFFFFFFFFFFFFFFFFFF AND DUP2 JUMP JUMPDEST PUSH1 0x2 PUSH0 SWAP1 SLOAD SWAP1 PUSH2 0x100 EXP SWAP1 DIV PUSH20 0xFFFFFFFFFFFFFFFFFFFFFFFFFFFFFFFFFFFFFFFF AND DUP2 JUMP JUMPDEST PUSH0 DUP1 SLOAD SWAP1 PUSH2 0x100 EXP SWAP1 DIV PUSH20 0xFFFFFFFFFFFFFFFFFFFFFFFFFFFFFFFFFFFFFFFF AND DUP2 JUMP JUMPDEST PUSH0 DUP1 REVERT JUMPDEST PUSH0 PUSH20 0xFFFFFFFFFFFFFFFFFFFFFFFFFFFFFFFFFFFFFFFF DUP3 AND SWAP1 POP SWAP2 SWAP1 POP JUMP JUMPDEST PUSH0 PUSH2 0x26F DUP3 PUSH2 0x246 JUMP JUMPDEST SWAP1 POP SWAP2 SWAP1 POP JUMP JUMPDEST PUSH2 0x27F DUP2 PUSH2 0x265 JUMP JUMPDEST DUP2 EQ PUSH2 0x289 JUMPI PUSH0 DUP1 REVERT JUMPDEST POP JUMP JUMPDEST PUSH0 DUP2 CALLDATALOAD SWAP1 POP PUSH2 0x29A DUP2 PUSH2 0x276 JUMP JUMPDEST SWAP3 SWAP2 POP POP JUMP JUMPDEST PUSH0 DUP1 PUSH1 0x40 DUP4 DUP6 SUB SLT ISZERO PUSH2 0x2B6 JUMPI PUSH2 0x2B5 PUSH2 0x242 JUMP JUMPDEST JUMPDEST PUSH0 PUSH2 0x2C3 DUP6 DUP3 DUP7 ADD PUSH2 0x28C JUMP JUMPDEST SWAP3 POP POP PUSH1 0x20 PUSH2 0x2D4 DUP6 DUP3 DUP7 ADD PUSH2 0x28C JUMP JUMPDEST SWAP2 POP POP SWAP3 POP SWAP3 SWAP1 POP JUMP JUMPDEST PUSH2 0x2E7 DUP2 PUSH2 0x265 JUMP JUMPDEST DUP3 MSTORE POP POP JUMP JUMPDEST PUSH0 PUSH1 0x20 DUP3 ADD SWAP1 POP PUSH2 0x300 PUSH0 DUP4 ADD DUP5 PUSH2 0x2DE JUMP JUMPDEST SWAP3 SWAP2 POP POP JUMP JUMPDEST PUSH0 DUP3 DUP3 MSTORE PUSH1 0x20 DUP3 ADD SWAP1 POP SWAP3 SWAP2 POP POP JUMP JUMPDEST PUSH32 0x666F7262696464656E0000000000000000000000000000000000000000000000 PUSH0 DUP3 ADD MSTORE POP JUMP JUMPDEST PUSH0 PUSH2 0x34A PUSH1 0x9 DUP4 PUSH2 0x306 JUMP JUMPDEST SWAP2 POP PUSH2 0x355 DUP3 PUSH2 0x316 JUMP JUMPDEST PUSH1 0x20 DUP3 ADD SWAP1 POP SWAP2 SWAP1 POP JUMP JUMPDEST PUSH0 PUSH1 0x20 DUP3 ADD SWAP1 POP DUP2 DUP2 SUB PUSH0 DUP4 ADD MSTORE PUSH2 0x377 DUP2 PUSH2 0x33E JUMP JUMPDEST SWAP1 POP SWAP2 SWAP1 POP JUMP INVALID LOG2 PUSH5 0x6970667358 0x22 SLT KECCAK256 0xA7 0xB0 0xB6 DUP2 KECCAK256 SAR 0x27 EXTCODESIZE 0xB8 0xCE 0x22 SDIV SWAP10 BYTE 0xF6 ORIGIN PREVRANDAO ORIGIN PREVRANDAO JUMPDEST 0xE 0x21 PUSH17 0x5CDB2A4DA51F5200F464736F6C63430008 BYTE STOP CALLER "
				},
				"gasEstimates": {
					"creation": {
						"codeDepositCost": "189600",
						"executionCost": "24471",
						"totalCost": "214071"
					},
					"external": {
						"factory()": "2549",
						"initialize(address,address)": "infinite",
						"token01()": "2508",
						"token02()": "2530"
					}
				},
				"methodIdentifiers": {
					"factory()": "c45a0155",
					"initialize(address,address)": "485cc955",
					"token01()": "4b6f9d2b",
					"token02()": "6622fdfb"
				}
			},
			"storageLayout": {
				"storage": [
					{
						"astId": 3,
						"contract": "contracts/Create2.sol:Pair",
						"label": "factory",
						"offset": 0,
						"slot": "0",
						"type": "t_address"
					},
					{
						"astId": 5,
						"contract": "contracts/Create2.sol:Pair",
						"label": "token01",
						"offset": 0,
						"slot": "1",
						"type": "t_address"
					},
					{
						"astId": 7,
						"contract": "contracts/Create2.sol:Pair",
						"label": "token02",
						"offset": 0,
						"slot": "2",
						"type": "t_address"
					}
				],
				"types": {
					"t_address": {
						"encoding": "inplace",
						"label": "address",
						"numberOfBytes": "20"
					}
				}
			},
			"userdoc": {
				"kind": "user",
				"methods": {},
				"version": 1
			}
		}
	}
}