{
	"contracts/SelectContract.sol": {
		"SelectContract": {
			"abi": [
				{
					"anonymous": false,
					"inputs": [
						{
							"indexed": false,
							"internalType": "string",
							"name": "title",
							"type": "string"
						},
						{
							"indexed": false,
							"internalType": "bool",
							"name": "success",
							"type": "bool"
						},
						{
							"indexed": false,
							"internalType": "bytes",
							"name": "data",
							"type": "bytes"
						}
					],
					"name": "CallWithSignatureEvent",
					"type": "event"
				},
				{
					"anonymous": false,
					"inputs": [
						{
							"indexed": false,
							"internalType": "address",
							"name": "addr",
							"type": "address"
						},
						{
							"indexed": false,
							"internalType": "bytes",
							"name": "data",
							"type": "bytes"
						}
					],
					"name": "Log",
					"type": "event"
				},
				{
					"anonymous": false,
					"inputs": [
						{
							"indexed": false,
							"internalType": "bytes4",
							"name": "methodId",
							"type": "bytes4"
						}
					],
					"name": "SelectorEvent",
					"type": "event"
				},
				{
					"inputs": [
						{
							"internalType": "string",
							"name": "funSignature",
							"type": "string"
						}
					],
					"name": "calculateMintSignature",
					"outputs": [
						{
							"internalType": "bytes4",
							"name": "methodId",
							"type": "bytes4"
						}
					],
					"stateMutability": "pure",
					"type": "function"
				},
				{
					"inputs": [],
					"name": "callWithSignature",
					"outputs": [],
					"stateMutability": "nonpayable",
					"type": "function"
				},
				{
					"inputs": [
						{
							"internalType": "uint256",
							"name": "p",
							"type": "uint256"
						}
					],
					"name": "fixedSizeParamSelector",
					"outputs": [
						{
							"internalType": "bytes4",
							"name": "methodId",
							"type": "bytes4"
						}
					],
					"stateMutability": "nonpayable",
					"type": "function"
				},
				{
					"inputs": [
						{
							"internalType": "address",
							"name": "to",
							"type": "address"
						}
					],
					"name": "mint",
					"outputs": [],
					"stateMutability": "nonpayable",
					"type": "function"
				},
				{
					"inputs": [
						{
							"components": [
								{
									"internalType": "uint256",
									"name": "uid",
									"type": "uint256"
								},
								{
									"internalType": "bytes",
									"name": "name",
									"type": "bytes"
								}
							],
							"internalType": "struct SelectContract.User",
							"name": "user",
							"type": "tuple"
						},
						{
							"internalType": "enum SelectContract.School",
							"name": "school",
							"type": "uint8"
						}
					],
					"name": "mixedParamSelector",
					"outputs": [
						{
							"internalType": "bytes4",
							"name": "methodId",
							"type": "bytes4"
						}
					],
					"stateMutability": "nonpayable",
					"type": "function"
				},
				{
					"inputs": [
						{
							"internalType": "uint256[2]",
							"name": "p1",
							"type": "uint256[2]"
						},
						{
							"internalType": "string",
							"name": "p2",
							"type": "string"
						}
					],
					"name": "noFiexdSizeParamSelector",
					"outputs": [
						{
							"internalType": "bytes4",
							"name": "methodId",
							"type": "bytes4"
						}
					],
					"stateMutability": "nonpayable",
					"type": "function"
				}
			],
			"devdoc": {
				"kind": "dev",
				"methods": {},
				"version": 1
			},
			"evm": {
				"assembly": "    /* \"contracts/SelectContract.sol\":636:4075  contract SelectContract {... */\n  mstore(0x40, 0x80)\n  callvalue\n  dup1\n  iszero\n  tag_1\n  jumpi\n  0x00\n  dup1\n  revert\ntag_1:\n  pop\n  dataSize(sub_0)\n  dup1\n  dataOffset(sub_0)\n  0x00\n  codecopy\n  0x00\n  return\nstop\n\nsub_0: assembly {\n        /* \"contracts/SelectContract.sol\":636:4075  contract SelectContract {... */\n      mstore(0x40, 0x80)\n      callvalue\n      dup1\n      iszero\n      tag_1\n      jumpi\n      0x00\n      dup1\n      revert\n    tag_1:\n      pop\n      jumpi(tag_2, lt(calldatasize, 0x04))\n      shr(0xe0, calldataload(0x00))\n      dup1\n      0x3538bd35\n      eq\n      tag_3\n      jumpi\n      dup1\n      0x40f86e92\n      eq\n      tag_4\n      jumpi\n      dup1\n      0x59ebea23\n      eq\n      tag_5\n      jumpi\n      dup1\n      0x6a627842\n      eq\n      tag_6\n      jumpi\n      dup1\n      0x960c35ab\n      eq\n      tag_7\n      jumpi\n      dup1\n      0x974d8906\n      eq\n      tag_8\n      jumpi\n    tag_2:\n      0x00\n      dup1\n      revert\n        /* \"contracts/SelectContract.sol\":2192:2493  function mixedParamSelector(User memory user, School school) external returns(bytes4 methodId) {... */\n    tag_3:\n      tag_9\n      0x04\n      dup1\n      calldatasize\n      sub\n      dup2\n      add\n      swap1\n      tag_10\n      swap2\n      swap1\n      tag_11\n      jump\t// in\n    tag_10:\n      tag_12\n      jump\t// in\n    tag_9:\n      mload(0x40)\n      tag_13\n      swap2\n      swap1\n      tag_14\n      jump\t// in\n    tag_13:\n      mload(0x40)\n      dup1\n      swap2\n      sub\n      swap1\n      return\n        /* \"contracts/SelectContract.sol\":1465:1901  function noFiexdSizeParamSelector(uint256[2] memory p1, string memory p2) external returns(bytes4 methodId) {... */\n    tag_4:\n      tag_15\n      0x04\n      dup1\n      calldatasize\n      sub\n      dup2\n      add\n      swap1\n      tag_16\n      swap2\n      swap1\n      tag_17\n      jump\t// in\n    tag_16:\n      tag_18\n      jump\t// in\n    tag_15:\n      mload(0x40)\n      tag_19\n      swap2\n      swap1\n      tag_14\n      jump\t// in\n    tag_19:\n      mload(0x40)\n      dup1\n      swap2\n      sub\n      swap1\n      return\n        /* \"contracts/SelectContract.sol\":2781:4072  function callWithSignature() external {... */\n    tag_5:\n      tag_20\n      tag_21\n      jump\t// in\n    tag_20:\n      stop\n        /* \"contracts/SelectContract.sol\":1057:1134  function mint(address to) external {... */\n    tag_6:\n      tag_22\n      0x04\n      dup1\n      calldatasize\n      sub\n      dup2\n      add\n      swap1\n      tag_23\n      swap2\n      swap1\n      tag_24\n      jump\t// in\n    tag_23:\n      tag_25\n      jump\t// in\n    tag_22:\n      stop\n        /* \"contracts/SelectContract.sol\":1177:1424  function fixedSizeParamSelector(uint p) external returns(bytes4 methodId) {... */\n    tag_7:\n      tag_26\n      0x04\n      dup1\n      calldatasize\n      sub\n      dup2\n      add\n      swap1\n      tag_27\n      swap2\n      swap1\n      tag_28\n      jump\t// in\n    tag_27:\n      tag_29\n      jump\t// in\n    tag_26:\n      mload(0x40)\n      tag_30\n      swap2\n      swap1\n      tag_14\n      jump\t// in\n    tag_30:\n      mload(0x40)\n      dup1\n      swap2\n      sub\n      swap1\n      return\n        /* \"contracts/SelectContract.sol\":2537:2713  function calculateMintSignature(string memory funSignature) public pure returns(bytes4 methodId) {... */\n    tag_8:\n      tag_31\n      0x04\n      dup1\n      calldatasize\n      sub\n      dup2\n      add\n      swap1\n      tag_32\n      swap2\n      swap1\n      tag_33\n      jump\t// in\n    tag_32:\n      tag_34\n      jump\t// in\n    tag_31:\n      mload(0x40)\n      tag_35\n      swap2\n      swap1\n      tag_14\n      jump\t// in\n    tag_35:\n      mload(0x40)\n      dup1\n      swap2\n      sub\n      swap1\n      return\n        /* \"contracts/SelectContract.sol\":2192:2493  function mixedParamSelector(User memory user, School school) external returns(bytes4 methodId) {... */\n    tag_12:\n        /* \"contracts/SelectContract.sol\":2270:2285  bytes4 methodId */\n      0x00\n        /* \"contracts/SelectContract.sol\":2303:2350  SelectorEvent(this.mixedParamSelector.selector) */\n      0x87c76683e354abe8640b03c72d02c9175d9a00a6c0101d5bc4be081b9b8199eb\n        /* \"contracts/SelectContract.sol\":2317:2349  this.mixedParamSelector.selector */\n      shl(0xe0, 0x3538bd35)\n        /* \"contracts/SelectContract.sol\":2303:2350  SelectorEvent(this.mixedParamSelector.selector) */\n      mload(0x40)\n      tag_37\n      swap2\n      swap1\n      tag_14\n      jump\t// in\n    tag_37:\n      mload(0x40)\n      dup1\n      swap2\n      sub\n      swap1\n      log1\n        /* \"contracts/SelectContract.sol\":2372:2439  calculateMintSignature(\"mixedParamSelector((uint256,bytes),uint8)\") */\n      tag_38\n      mload(0x40)\n      dup1\n      0x60\n      add\n      0x40\n      mstore\n      dup1\n      0x29\n      dup2\n      mstore\n      0x20\n      add\n      data_3538bd356be23899798408a13ab2ebaaf5dcd22d257108351152f0b17e3ba408\n      0x29\n      swap2\n      codecopy\n        /* \"contracts/SelectContract.sol\":2372:2394  calculateMintSignature */\n      tag_34\n        /* \"contracts/SelectContract.sol\":2372:2439  calculateMintSignature(\"mixedParamSelector((uint256,bytes),uint8)\") */\n      jump\t// in\n    tag_38:\n        /* \"contracts/SelectContract.sol\":2361:2439  methodId = calculateMintSignature(\"mixedParamSelector((uint256,bytes),uint8)\") */\n      swap1\n      pop\n        /* \"contracts/SelectContract.sol\":2450:2461  delete user */\n      tag_39\n      tag_40\n      jump\t// in\n    tag_39:\n      swap3\n      pop\n        /* \"contracts/SelectContract.sol\":2472:2485  delete school */\n      0x00\n      swap2\n      pop\n        /* \"contracts/SelectContract.sol\":2192:2493  function mixedParamSelector(User memory user, School school) external returns(bytes4 methodId) {... */\n      swap3\n      swap2\n      pop\n      pop\n      jump\t// out\n        /* \"contracts/SelectContract.sol\":1465:1901  function noFiexdSizeParamSelector(uint256[2] memory p1, string memory p2) external returns(bytes4 methodId) {... */\n    tag_18:\n        /* \"contracts/SelectContract.sol\":1556:1571  bytes4 methodId */\n      0x00\n        /* \"contracts/SelectContract.sol\":1589:1642  SelectorEvent(this.noFiexdSizeParamSelector.selector) */\n      0x87c76683e354abe8640b03c72d02c9175d9a00a6c0101d5bc4be081b9b8199eb\n        /* \"contracts/SelectContract.sol\":1603:1641  this.noFiexdSizeParamSelector.selector */\n      shl(0xe0, 0x40f86e92)\n        /* \"contracts/SelectContract.sol\":1589:1642  SelectorEvent(this.noFiexdSizeParamSelector.selector) */\n      mload(0x40)\n      tag_42\n      swap2\n      swap1\n      tag_14\n      jump\t// in\n    tag_42:\n      mload(0x40)\n      dup1\n      swap2\n      sub\n      swap1\n      log1\n        /* \"contracts/SelectContract.sol\":1784:1853  calculateMintSignature(\"noFiexdSizeParamSelector(uint256[2],string)\") */\n      tag_43\n      mload(0x40)\n      dup1\n      0x60\n      add\n      0x40\n      mstore\n      dup1\n      0x2b\n      dup2\n      mstore\n      0x20\n      add\n      data_40f86e92d821aef54405ffbfcfc4dbc040864608db3d55e63597e29214a85837\n      0x2b\n      swap2\n      codecopy\n        /* \"contracts/SelectContract.sol\":1784:1806  calculateMintSignature */\n      tag_34\n        /* \"contracts/SelectContract.sol\":1784:1853  calculateMintSignature(\"noFiexdSizeParamSelector(uint256[2],string)\") */\n      jump\t// in\n    tag_43:\n        /* \"contracts/SelectContract.sol\":1773:1853  methodId = calculateMintSignature(\"noFiexdSizeParamSelector(uint256[2],string)\") */\n      swap1\n      pop\n        /* \"contracts/SelectContract.sol\":1864:1873  delete p1 */\n      tag_44\n      tag_45\n      jump\t// in\n    tag_44:\n      swap3\n      pop\n        /* \"contracts/SelectContract.sol\":1884:1893  delete p2 */\n      0x60\n      swap2\n      pop\n        /* \"contracts/SelectContract.sol\":1465:1901  function noFiexdSizeParamSelector(uint256[2] memory p1, string memory p2) external returns(bytes4 methodId) {... */\n      swap3\n      swap2\n      pop\n      pop\n      jump\t// out\n        /* \"contracts/SelectContract.sol\":2781:4072  function callWithSignature() external {... */\n    tag_21:\n        /* \"contracts/SelectContract.sol\":2865:2888  uint256[] memory param1 */\n      0x00\n        /* \"contracts/SelectContract.sol\":2905:2906  3 */\n      0x03\n        /* \"contracts/SelectContract.sol\":2891:2907  new uint256[](3) */\n      0xffffffffffffffff\n      dup2\n      gt\n      iszero\n      tag_47\n      jumpi\n      tag_48\n      tag_49\n      jump\t// in\n    tag_48:\n    tag_47:\n      mload(0x40)\n      swap1\n      dup1\n      dup3\n      mstore\n      dup1\n      0x20\n      mul\n      0x20\n      add\n      dup3\n      add\n      0x40\n      mstore\n      dup1\n      iszero\n      tag_50\n      jumpi\n      dup2\n      0x20\n      add\n      0x20\n      dup3\n      mul\n      dup1\n      calldatasize\n      dup4\n      calldatacopy\n      dup1\n      dup3\n      add\n      swap2\n      pop\n      pop\n      swap1\n      pop\n    tag_50:\n      pop\n        /* \"contracts/SelectContract.sol\":2865:2907  uint256[] memory param1 = new uint256[](3) */\n      swap1\n      pop\n        /* \"contracts/SelectContract.sol\":2930:2931  1 */\n      0x01\n        /* \"contracts/SelectContract.sol\":2918:2924  param1 */\n      dup2\n        /* \"contracts/SelectContract.sol\":2925:2926  0 */\n      0x00\n        /* \"contracts/SelectContract.sol\":2918:2927  param1[0] */\n      dup2\n      mload\n      dup2\n      lt\n      tag_51\n      jumpi\n      tag_52\n      tag_53\n      jump\t// in\n    tag_52:\n    tag_51:\n      0x20\n      mul\n      0x20\n      add\n      add\n        /* \"contracts/SelectContract.sol\":2918:2931  param1[0] = 1 */\n      dup2\n      dup2\n      mstore\n      pop\n      pop\n        /* \"contracts/SelectContract.sol\":2954:2955  2 */\n      0x02\n        /* \"contracts/SelectContract.sol\":2942:2948  param1 */\n      dup2\n        /* \"contracts/SelectContract.sol\":2949:2950  1 */\n      0x01\n        /* \"contracts/SelectContract.sol\":2942:2951  param1[1] */\n      dup2\n      mload\n      dup2\n      lt\n      tag_54\n      jumpi\n      tag_55\n      tag_53\n      jump\t// in\n    tag_55:\n    tag_54:\n      0x20\n      mul\n      0x20\n      add\n      add\n        /* \"contracts/SelectContract.sol\":2942:2955  param1[1] = 2 */\n      dup2\n      dup2\n      mstore\n      pop\n      pop\n        /* \"contracts/SelectContract.sol\":2978:2979  3 */\n      0x03\n        /* \"contracts/SelectContract.sol\":2966:2972  param1 */\n      dup2\n        /* \"contracts/SelectContract.sol\":2973:2974  2 */\n      0x02\n        /* \"contracts/SelectContract.sol\":2966:2975  param1[2] */\n      dup2\n      mload\n      dup2\n      lt\n      tag_56\n      jumpi\n      tag_57\n      tag_53\n      jump\t// in\n    tag_57:\n    tag_56:\n      0x20\n      mul\n      0x20\n      add\n      add\n        /* \"contracts/SelectContract.sol\":2966:2979  param1[2] = 3 */\n      dup2\n      dup2\n      mstore\n      pop\n      pop\n        /* \"contracts/SelectContract.sol\":3020:3036  User memory user */\n      tag_58\n      tag_40\n      jump\t// in\n    tag_58:\n        /* \"contracts/SelectContract.sol\":3058:3059  1 */\n      0x01\n        /* \"contracts/SelectContract.sol\":3047:3051  user */\n      dup2\n        /* \"contracts/SelectContract.sol\":3047:3055  user.uid */\n      0x00\n      add\n        /* \"contracts/SelectContract.sol\":3047:3059  user.uid = 1 */\n      dup2\n      dup2\n      mstore\n      pop\n      pop\n        /* \"contracts/SelectContract.sol\":3070:3090  user.name = \"0xa0b1\" */\n      mload(0x40)\n      dup1\n      0x40\n      add\n      0x40\n      mstore\n      dup1\n      0x06\n      dup2\n      mstore\n      0x20\n      add\n      0x3078613062310000000000000000000000000000000000000000000000000000\n      dup2\n      mstore\n      pop\n        /* \"contracts/SelectContract.sol\":3070:3074  user */\n      dup2\n        /* \"contracts/SelectContract.sol\":3070:3079  user.name */\n      0x20\n      add\n        /* \"contracts/SelectContract.sol\":3070:3090  user.name = \"0xa0b1\" */\n      dup2\n      swap1\n      mstore\n      pop\n        /* \"contracts/SelectContract.sol\":3103:3111  School s */\n      0x00\n        /* \"contracts/SelectContract.sol\":3179:3196  bool successFixed */\n      dup1\n        /* \"contracts/SelectContract.sol\":3198:3220  bytes memory dataFixed */\n      dup1\n        /* \"contracts/SelectContract.sol\":3232:3236  this */\n      address\n        /* \"contracts/SelectContract.sol\":3224:3242  address(this).call */\n      0xffffffffffffffffffffffffffffffffffffffff\n      and\n        /* \"contracts/SelectContract.sol\":3266:3323  calculateMintSignature(\"fixedSizeParamSelector(uint256)\") */\n      tag_59\n      mload(0x40)\n      dup1\n      0x40\n      add\n      0x40\n      mstore\n      dup1\n      0x1f\n      dup2\n      mstore\n      0x20\n      add\n      0x666978656453697a65506172616d53656c6563746f722875696e743235362900\n      dup2\n      mstore\n      pop\n        /* \"contracts/SelectContract.sol\":3266:3288  calculateMintSignature */\n      tag_34\n        /* \"contracts/SelectContract.sol\":3266:3323  calculateMintSignature(\"fixedSizeParamSelector(uint256)\") */\n      jump\t// in\n    tag_59:\n        /* \"contracts/SelectContract.sol\":3325:3326  1 */\n      0x01\n        /* \"contracts/SelectContract.sol\":3243:3327  abi.encodeWithSelector(calculateMintSignature(\"fixedSizeParamSelector(uint256)\"), 1) */\n      add(0x24, mload(0x40))\n      tag_60\n      swap2\n      swap1\n      tag_61\n      jump\t// in\n    tag_60:\n      mload(0x40)\n      0x20\n      dup2\n      dup4\n      sub\n      sub\n      dup2\n      mstore\n      swap1\n      0x40\n      mstore\n      swap1\n      not(0xffffffffffffffffffffffffffffffffffffffffffffffffffffffff)\n      and\n      0x20\n      dup3\n      add\n      dup1\n      mload\n      0xffffffffffffffffffffffffffffffffffffffffffffffffffffffff\n      dup4\n      dup2\n      dup4\n      and\n      or\n      dup4\n      mstore\n      pop\n      pop\n      pop\n      pop\n        /* \"contracts/SelectContract.sol\":3224:3328  address(this).call(abi.encodeWithSelector(calculateMintSignature(\"fixedSizeParamSelector(uint256)\"), 1)) */\n      mload(0x40)\n      tag_62\n      swap2\n      swap1\n      tag_63\n      jump\t// in\n    tag_62:\n      0x00\n      mload(0x40)\n      dup1\n      dup4\n      sub\n      dup2\n      0x00\n      dup7\n      gas\n      call\n      swap2\n      pop\n      pop\n      returndatasize\n      dup1\n      0x00\n      dup2\n      eq\n      tag_66\n      jumpi\n      mload(0x40)\n      swap2\n      pop\n      and(add(returndatasize, 0x3f), not(0x1f))\n      dup3\n      add\n      0x40\n      mstore\n      returndatasize\n      dup3\n      mstore\n      returndatasize\n      0x00\n      0x20\n      dup5\n      add\n      returndatacopy\n      jump(tag_65)\n    tag_66:\n      0x60\n      swap2\n      pop\n    tag_65:\n      pop\n        /* \"contracts/SelectContract.sol\":3178:3328  (bool successFixed, bytes memory dataFixed) = address(this).call(abi.encodeWithSelector(calculateMintSignature(\"fixedSizeParamSelector(uint256)\"), 1)) */\n      swap2\n      pop\n      swap2\n      pop\n        /* \"contracts/SelectContract.sol\":3344:3417  CallWithSignatureEvent(\"fixedSizeParamSelector\", successFixed, dataFixed) */\n      0xf8caab1e18e8fd70b158951fd973eeba01ca7fa9ff856060bb14472660a1c994\n        /* \"contracts/SelectContract.sol\":3393:3405  successFixed */\n      dup3\n        /* \"contracts/SelectContract.sol\":3407:3416  dataFixed */\n      dup3\n        /* \"contracts/SelectContract.sol\":3344:3417  CallWithSignatureEvent(\"fixedSizeParamSelector\", successFixed, dataFixed) */\n      mload(0x40)\n      tag_67\n      swap3\n      swap2\n      swap1\n      tag_68\n      jump\t// in\n    tag_67:\n      mload(0x40)\n      dup1\n      swap2\n      sub\n      swap1\n      log1\n        /* \"contracts/SelectContract.sol\":3468:3487  bool successNoFixed */\n      0x00\n        /* \"contracts/SelectContract.sol\":3489:3513  bytes memory dataNoFixed */\n      dup1\n        /* \"contracts/SelectContract.sol\":3525:3529  this */\n      address\n        /* \"contracts/SelectContract.sol\":3517:3535  address(this).call */\n      0xffffffffffffffffffffffffffffffffffffffff\n      and\n        /* \"contracts/SelectContract.sol\":3559:3628  calculateMintSignature(\"noFiexdSizeParamSelector(uint256[2],string)\") */\n      tag_69\n      mload(0x40)\n      dup1\n      0x60\n      add\n      0x40\n      mstore\n      dup1\n      0x2b\n      dup2\n      mstore\n      0x20\n      add\n      data_40f86e92d821aef54405ffbfcfc4dbc040864608db3d55e63597e29214a85837\n      0x2b\n      swap2\n      codecopy\n        /* \"contracts/SelectContract.sol\":3559:3581  calculateMintSignature */\n      tag_34\n        /* \"contracts/SelectContract.sol\":3559:3628  calculateMintSignature(\"noFiexdSizeParamSelector(uint256[2],string)\") */\n      jump\t// in\n    tag_69:\n        /* \"contracts/SelectContract.sol\":3536:3647  abi.encodeWithSelector(calculateMintSignature(\"noFiexdSizeParamSelector(uint256[2],string)\"), [1,2], \"noFixed\") */\n      mload(0x40)\n      dup1\n      0x40\n      add\n      0x40\n      mstore\n      dup1\n        /* \"contracts/SelectContract.sol\":3631:3632  1 */\n      0x01\n        /* \"contracts/SelectContract.sol\":3536:3647  abi.encodeWithSelector(calculateMintSignature(\"noFiexdSizeParamSelector(uint256[2],string)\"), [1,2], \"noFixed\") */\n      0xff\n      and\n      dup2\n      mstore\n      0x20\n      add\n        /* \"contracts/SelectContract.sol\":3633:3634  2 */\n      0x02\n        /* \"contracts/SelectContract.sol\":3536:3647  abi.encodeWithSelector(calculateMintSignature(\"noFiexdSizeParamSelector(uint256[2],string)\"), [1,2], \"noFixed\") */\n      0xff\n      and\n      dup2\n      mstore\n      pop\n      add(0x24, mload(0x40))\n      tag_70\n      swap2\n      swap1\n      tag_71\n      jump\t// in\n    tag_70:\n      mload(0x40)\n      0x20\n      dup2\n      dup4\n      sub\n      sub\n      dup2\n      mstore\n      swap1\n      0x40\n      mstore\n      swap1\n      not(0xffffffffffffffffffffffffffffffffffffffffffffffffffffffff)\n      and\n      0x20\n      dup3\n      add\n      dup1\n      mload\n      0xffffffffffffffffffffffffffffffffffffffffffffffffffffffff\n      dup4\n      dup2\n      dup4\n      and\n      or\n      dup4\n      mstore\n      pop\n      pop\n      pop\n      pop\n        /* \"contracts/SelectContract.sol\":3517:3648  address(this).call(abi.encodeWithSelector(calculateMintSignature(\"noFiexdSizeParamSelector(uint256[2],string)\"), [1,2], \"noFixed\")) */\n      mload(0x40)\n      tag_72\n      swap2\n      swap1\n      tag_63\n      jump\t// in\n    tag_72:\n      0x00\n      mload(0x40)\n      dup1\n      dup4\n      sub\n      dup2\n      0x00\n      dup7\n      gas\n      call\n      swap2\n      pop\n      pop\n      returndatasize\n      dup1\n      0x00\n      dup2\n      eq\n      tag_75\n      jumpi\n      mload(0x40)\n      swap2\n      pop\n      and(add(returndatasize, 0x3f), not(0x1f))\n      dup3\n      add\n      0x40\n      mstore\n      returndatasize\n      dup3\n      mstore\n      returndatasize\n      0x00\n      0x20\n      dup5\n      add\n      returndatacopy\n      jump(tag_74)\n    tag_75:\n      0x60\n      swap2\n      pop\n    tag_74:\n      pop\n        /* \"contracts/SelectContract.sol\":3467:3648  (bool successNoFixed, bytes memory dataNoFixed) = address(this).call(abi.encodeWithSelector(calculateMintSignature(\"noFiexdSizeParamSelector(uint256[2],string)\"), [1,2], \"noFixed\")) */\n      swap2\n      pop\n      swap2\n      pop\n        /* \"contracts/SelectContract.sol\":3664:3743  CallWithSignatureEvent(\"noFixedSizeParamSelector\", successNoFixed, dataNoFixed) */\n      0xf8caab1e18e8fd70b158951fd973eeba01ca7fa9ff856060bb14472660a1c994\n        /* \"contracts/SelectContract.sol\":3715:3729  successNoFixed */\n      dup3\n        /* \"contracts/SelectContract.sol\":3731:3742  dataNoFixed */\n      dup3\n        /* \"contracts/SelectContract.sol\":3664:3743  CallWithSignatureEvent(\"noFixedSizeParamSelector\", successNoFixed, dataNoFixed) */\n      mload(0x40)\n      tag_76\n      swap3\n      swap2\n      swap1\n      tag_77\n      jump\t// in\n    tag_76:\n      mload(0x40)\n      dup1\n      swap2\n      sub\n      swap1\n      log1\n        /* \"contracts/SelectContract.sol\":3806:3825  bool successMapping */\n      0x00\n        /* \"contracts/SelectContract.sol\":3827:3851  bytes memory dataMapping */\n      dup1\n        /* \"contracts/SelectContract.sol\":3863:3867  this */\n      address\n        /* \"contracts/SelectContract.sol\":3855:3873  address(this).call */\n      0xffffffffffffffffffffffffffffffffffffffff\n      and\n        /* \"contracts/SelectContract.sol\":3897:3964  calculateMintSignature(\"mixedParamSelector((uint256,bytes),uint8)\") */\n      tag_78\n      mload(0x40)\n      dup1\n      0x60\n      add\n      0x40\n      mstore\n      dup1\n      0x29\n      dup2\n      mstore\n      0x20\n      add\n      data_3538bd356be23899798408a13ab2ebaaf5dcd22d257108351152f0b17e3ba408\n      0x29\n      swap2\n      codecopy\n        /* \"contracts/SelectContract.sol\":3897:3919  calculateMintSignature */\n      tag_34\n        /* \"contracts/SelectContract.sol\":3897:3964  calculateMintSignature(\"mixedParamSelector((uint256,bytes),uint8)\") */\n      jump\t// in\n    tag_78:\n        /* \"contracts/SelectContract.sol\":3966:3970  user */\n      dup10\n        /* \"contracts/SelectContract.sol\":3972:3973  s */\n      dup10\n        /* \"contracts/SelectContract.sol\":3874:3974  abi.encodeWithSelector(calculateMintSignature(\"mixedParamSelector((uint256,bytes),uint8)\"), user, s) */\n      add(0x24, mload(0x40))\n      tag_79\n      swap3\n      swap2\n      swap1\n      tag_80\n      jump\t// in\n    tag_79:\n      mload(0x40)\n      0x20\n      dup2\n      dup4\n      sub\n      sub\n      dup2\n      mstore\n      swap1\n      0x40\n      mstore\n      swap1\n      not(0xffffffffffffffffffffffffffffffffffffffffffffffffffffffff)\n      and\n      0x20\n      dup3\n      add\n      dup1\n      mload\n      0xffffffffffffffffffffffffffffffffffffffffffffffffffffffff\n      dup4\n      dup2\n      dup4\n      and\n      or\n      dup4\n      mstore\n      pop\n      pop\n      pop\n      pop\n        /* \"contracts/SelectContract.sol\":3855:3975  address(this).call(abi.encodeWithSelector(calculateMintSignature(\"mixedParamSelector((uint256,bytes),uint8)\"), user, s)) */\n      mload(0x40)\n      tag_81\n      swap2\n      swap1\n      tag_63\n      jump\t// in\n    tag_81:\n      0x00\n      mload(0x40)\n      dup1\n      dup4\n      sub\n      dup2\n      0x00\n      dup7\n      gas\n      call\n      swap2\n      pop\n      pop\n      returndatasize\n      dup1\n      0x00\n      dup2\n      eq\n      tag_84\n      jumpi\n      mload(0x40)\n      swap2\n      pop\n      and(add(returndatasize, 0x3f), not(0x1f))\n      dup3\n      add\n      0x40\n      mstore\n      returndatasize\n      dup3\n      mstore\n      returndatasize\n      0x00\n      0x20\n      dup5\n      add\n      returndatacopy\n      jump(tag_83)\n    tag_84:\n      0x60\n      swap2\n      pop\n    tag_83:\n      pop\n        /* \"contracts/SelectContract.sol\":3805:3975  (bool successMapping, bytes memory dataMapping) = address(this).call(abi.encodeWithSelector(calculateMintSignature(\"mixedParamSelector((uint256,bytes),uint8)\"), user, s)) */\n      swap2\n      pop\n      swap2\n      pop\n        /* \"contracts/SelectContract.sol\":3991:4064  CallWithSignatureEvent(\"mixedParamSelector\", successMapping, dataMapping) */\n      0xf8caab1e18e8fd70b158951fd973eeba01ca7fa9ff856060bb14472660a1c994\n        /* \"contracts/SelectContract.sol\":4036:4050  successMapping */\n      dup3\n        /* \"contracts/SelectContract.sol\":4052:4063  dataMapping */\n      dup3\n        /* \"contracts/SelectContract.sol\":3991:4064  CallWithSignatureEvent(\"mixedParamSelector\", successMapping, dataMapping) */\n      mload(0x40)\n      tag_85\n      swap3\n      swap2\n      swap1\n      tag_86\n      jump\t// in\n    tag_85:\n      mload(0x40)\n      dup1\n      swap2\n      sub\n      swap1\n      log1\n        /* \"contracts/SelectContract.sol\":2819:4072  {... */\n      pop\n      pop\n      pop\n      pop\n      pop\n      pop\n      pop\n      pop\n      pop\n        /* \"contracts/SelectContract.sol\":2781:4072  function callWithSignature() external {... */\n      jump\t// out\n        /* \"contracts/SelectContract.sol\":1057:1134  function mint(address to) external {... */\n    tag_25:\n        /* \"contracts/SelectContract.sol\":1108:1125  Log(to, msg.data) */\n      0x3d4342015303e7c1e55fa1b6a8c1391f56e7290b109bb8b9aa858996910bae07\n        /* \"contracts/SelectContract.sol\":1112:1114  to */\n      dup2\n        /* \"contracts/SelectContract.sol\":1116:1124  msg.data */\n      0x00\n      calldatasize\n        /* \"contracts/SelectContract.sol\":1108:1125  Log(to, msg.data) */\n      mload(0x40)\n      tag_88\n      swap4\n      swap3\n      swap2\n      swap1\n      tag_89\n      jump\t// in\n    tag_88:\n      mload(0x40)\n      dup1\n      swap2\n      sub\n      swap1\n      log1\n        /* \"contracts/SelectContract.sol\":1057:1134  function mint(address to) external {... */\n      pop\n      jump\t// out\n        /* \"contracts/SelectContract.sol\":1177:1424  function fixedSizeParamSelector(uint p) external returns(bytes4 methodId) {... */\n    tag_29:\n        /* \"contracts/SelectContract.sol\":1234:1249  bytes4 methodId */\n      0x00\n        /* \"contracts/SelectContract.sol\":1267:1318  SelectorEvent(this.fixedSizeParamSelector.selector) */\n      0x87c76683e354abe8640b03c72d02c9175d9a00a6c0101d5bc4be081b9b8199eb\n        /* \"contracts/SelectContract.sol\":1281:1317  this.fixedSizeParamSelector.selector */\n      shl(0xe0, 0x960c35ab)\n        /* \"contracts/SelectContract.sol\":1267:1318  SelectorEvent(this.fixedSizeParamSelector.selector) */\n      mload(0x40)\n      tag_91\n      swap2\n      swap1\n      tag_14\n      jump\t// in\n    tag_91:\n      mload(0x40)\n      dup1\n      swap2\n      sub\n      swap1\n      log1\n        /* \"contracts/SelectContract.sol\":1340:1397  calculateMintSignature(\"fixedSizeParamSelector(uint256)\") */\n      tag_92\n      mload(0x40)\n      dup1\n      0x40\n      add\n      0x40\n      mstore\n      dup1\n      0x1f\n      dup2\n      mstore\n      0x20\n      add\n      0x666978656453697a65506172616d53656c6563746f722875696e743235362900\n      dup2\n      mstore\n      pop\n        /* \"contracts/SelectContract.sol\":1340:1362  calculateMintSignature */\n      tag_34\n        /* \"contracts/SelectContract.sol\":1340:1397  calculateMintSignature(\"fixedSizeParamSelector(uint256)\") */\n      jump\t// in\n    tag_92:\n        /* \"contracts/SelectContract.sol\":1329:1397  methodId = calculateMintSignature(\"fixedSizeParamSelector(uint256)\") */\n      swap1\n      pop\n        /* \"contracts/SelectContract.sol\":1408:1416  delete p */\n      0x00\n      swap2\n      pop\n        /* \"contracts/SelectContract.sol\":1177:1424  function fixedSizeParamSelector(uint p) external returns(bytes4 methodId) {... */\n      swap2\n      swap1\n      pop\n      jump\t// out\n        /* \"contracts/SelectContract.sol\":2537:2713  function calculateMintSignature(string memory funSignature) public pure returns(bytes4 methodId) {... */\n    tag_34:\n        /* \"contracts/SelectContract.sol\":2617:2632  bytes4 methodId */\n      0x00\n        /* \"contracts/SelectContract.sol\":2690:2702  funSignature */\n      dup2\n        /* \"contracts/SelectContract.sol\":2673:2703  abi.encodePacked(funSignature) */\n      add(0x20, mload(0x40))\n      tag_94\n      swap2\n      swap1\n      tag_95\n      jump\t// in\n    tag_94:\n      mload(0x40)\n      0x20\n      dup2\n      dup4\n      sub\n      sub\n      dup2\n      mstore\n      swap1\n      0x40\n      mstore\n        /* \"contracts/SelectContract.sol\":2663:2704  keccak256(abi.encodePacked(funSignature)) */\n      dup1\n      mload\n      swap1\n      0x20\n      add\n      keccak256\n        /* \"contracts/SelectContract.sol\":2645:2705  methodId = bytes4(keccak256(abi.encodePacked(funSignature))) */\n      swap1\n      pop\n        /* \"contracts/SelectContract.sol\":2537:2713  function calculateMintSignature(string memory funSignature) public pure returns(bytes4 methodId) {... */\n      swap2\n      swap1\n      pop\n      jump\t// out\n    tag_40:\n      mload(0x40)\n      dup1\n      0x40\n      add\n      0x40\n      mstore\n      dup1\n      0x00\n      dup2\n      mstore\n      0x20\n      add\n      0x60\n      dup2\n      mstore\n      pop\n      swap1\n      jump\t// out\n    tag_45:\n      mload(0x40)\n      dup1\n      0x40\n      add\n      0x40\n      mstore\n      dup1\n      0x02\n      swap1\n      0x20\n      dup3\n      mul\n      dup1\n      calldatasize\n      dup4\n      calldatacopy\n      dup1\n      dup3\n      add\n      swap2\n      pop\n      pop\n      swap1\n      pop\n      pop\n      swap1\n      jump\t// out\n        /* \"#utility.yul\":7:82   */\n    tag_96:\n        /* \"#utility.yul\":40:46   */\n      0x00\n        /* \"#utility.yul\":73:75   */\n      0x40\n        /* \"#utility.yul\":67:76   */\n      mload\n        /* \"#utility.yul\":57:76   */\n      swap1\n      pop\n        /* \"#utility.yul\":7:82   */\n      swap1\n      jump\t// out\n        /* \"#utility.yul\":88:205   */\n    tag_97:\n        /* \"#utility.yul\":197:198   */\n      0x00\n        /* \"#utility.yul\":194:195   */\n      dup1\n        /* \"#utility.yul\":187:199   */\n      revert\n        /* \"#utility.yul\":211:328   */\n    tag_98:\n        /* \"#utility.yul\":320:321   */\n      0x00\n        /* \"#utility.yul\":317:318   */\n      dup1\n        /* \"#utility.yul\":310:322   */\n      revert\n        /* \"#utility.yul\":334:451   */\n    tag_99:\n        /* \"#utility.yul\":443:444   */\n      0x00\n        /* \"#utility.yul\":440:441   */\n      dup1\n        /* \"#utility.yul\":433:445   */\n      revert\n        /* \"#utility.yul\":457:559   */\n    tag_100:\n        /* \"#utility.yul\":498:504   */\n      0x00\n        /* \"#utility.yul\":549:551   */\n      0x1f\n        /* \"#utility.yul\":545:552   */\n      not\n        /* \"#utility.yul\":540:542   */\n      0x1f\n        /* \"#utility.yul\":533:538   */\n      dup4\n        /* \"#utility.yul\":529:543   */\n      add\n        /* \"#utility.yul\":525:553   */\n      and\n        /* \"#utility.yul\":515:553   */\n      swap1\n      pop\n        /* \"#utility.yul\":457:559   */\n      swap2\n      swap1\n      pop\n      jump\t// out\n        /* \"#utility.yul\":565:745   */\n    tag_49:\n        /* \"#utility.yul\":613:690   */\n      0x4e487b7100000000000000000000000000000000000000000000000000000000\n        /* \"#utility.yul\":610:611   */\n      0x00\n        /* \"#utility.yul\":603:691   */\n      mstore\n        /* \"#utility.yul\":710:714   */\n      0x41\n        /* \"#utility.yul\":707:708   */\n      0x04\n        /* \"#utility.yul\":700:715   */\n      mstore\n        /* \"#utility.yul\":734:738   */\n      0x24\n        /* \"#utility.yul\":731:732   */\n      0x00\n        /* \"#utility.yul\":724:739   */\n      revert\n        /* \"#utility.yul\":751:1032   */\n    tag_101:\n        /* \"#utility.yul\":834:861   */\n      tag_180\n        /* \"#utility.yul\":856:860   */\n      dup3\n        /* \"#utility.yul\":834:861   */\n      tag_100\n      jump\t// in\n    tag_180:\n        /* \"#utility.yul\":826:832   */\n      dup2\n        /* \"#utility.yul\":822:862   */\n      add\n        /* \"#utility.yul\":964:970   */\n      dup2\n        /* \"#utility.yul\":952:962   */\n      dup2\n        /* \"#utility.yul\":949:971   */\n      lt\n        /* \"#utility.yul\":928:946   */\n      0xffffffffffffffff\n        /* \"#utility.yul\":916:926   */\n      dup3\n        /* \"#utility.yul\":913:947   */\n      gt\n        /* \"#utility.yul\":910:972   */\n      or\n        /* \"#utility.yul\":907:995   */\n      iszero\n      tag_181\n      jumpi\n        /* \"#utility.yul\":975:993   */\n      tag_182\n      tag_49\n      jump\t// in\n    tag_182:\n        /* \"#utility.yul\":907:995   */\n    tag_181:\n        /* \"#utility.yul\":1015:1025   */\n      dup1\n        /* \"#utility.yul\":1011:1013   */\n      0x40\n        /* \"#utility.yul\":1004:1026   */\n      mstore\n        /* \"#utility.yul\":794:1032   */\n      pop\n        /* \"#utility.yul\":751:1032   */\n      pop\n      pop\n      jump\t// out\n        /* \"#utility.yul\":1038:1167   */\n    tag_102:\n        /* \"#utility.yul\":1072:1078   */\n      0x00\n        /* \"#utility.yul\":1099:1119   */\n      tag_184\n      tag_96\n      jump\t// in\n    tag_184:\n        /* \"#utility.yul\":1089:1119   */\n      swap1\n      pop\n        /* \"#utility.yul\":1128:1161   */\n      tag_185\n        /* \"#utility.yul\":1156:1160   */\n      dup3\n        /* \"#utility.yul\":1148:1154   */\n      dup3\n        /* \"#utility.yul\":1128:1161   */\n      tag_101\n      jump\t// in\n    tag_185:\n        /* \"#utility.yul\":1038:1167   */\n      swap2\n      swap1\n      pop\n      jump\t// out\n        /* \"#utility.yul\":1173:1290   */\n    tag_103:\n        /* \"#utility.yul\":1282:1283   */\n      0x00\n        /* \"#utility.yul\":1279:1280   */\n      dup1\n        /* \"#utility.yul\":1272:1284   */\n      revert\n        /* \"#utility.yul\":1296:1373   */\n    tag_104:\n        /* \"#utility.yul\":1333:1340   */\n      0x00\n        /* \"#utility.yul\":1362:1367   */\n      dup2\n        /* \"#utility.yul\":1351:1367   */\n      swap1\n      pop\n        /* \"#utility.yul\":1296:1373   */\n      swap2\n      swap1\n      pop\n      jump\t// out\n        /* \"#utility.yul\":1379:1501   */\n    tag_105:\n        /* \"#utility.yul\":1452:1476   */\n      tag_189\n        /* \"#utility.yul\":1470:1475   */\n      dup2\n        /* \"#utility.yul\":1452:1476   */\n      tag_104\n      jump\t// in\n    tag_189:\n        /* \"#utility.yul\":1445:1450   */\n      dup2\n        /* \"#utility.yul\":1442:1477   */\n      eq\n        /* \"#utility.yul\":1432:1495   */\n      tag_190\n      jumpi\n        /* \"#utility.yul\":1491:1492   */\n      0x00\n        /* \"#utility.yul\":1488:1489   */\n      dup1\n        /* \"#utility.yul\":1481:1493   */\n      revert\n        /* \"#utility.yul\":1432:1495   */\n    tag_190:\n        /* \"#utility.yul\":1379:1501   */\n      pop\n      jump\t// out\n        /* \"#utility.yul\":1507:1646   */\n    tag_106:\n        /* \"#utility.yul\":1553:1558   */\n      0x00\n        /* \"#utility.yul\":1591:1597   */\n      dup2\n        /* \"#utility.yul\":1578:1598   */\n      calldataload\n        /* \"#utility.yul\":1569:1598   */\n      swap1\n      pop\n        /* \"#utility.yul\":1607:1640   */\n      tag_192\n        /* \"#utility.yul\":1634:1639   */\n      dup2\n        /* \"#utility.yul\":1607:1640   */\n      tag_105\n      jump\t// in\n    tag_192:\n        /* \"#utility.yul\":1507:1646   */\n      swap3\n      swap2\n      pop\n      pop\n      jump\t// out\n        /* \"#utility.yul\":1652:1769   */\n    tag_107:\n        /* \"#utility.yul\":1761:1762   */\n      0x00\n        /* \"#utility.yul\":1758:1759   */\n      dup1\n        /* \"#utility.yul\":1751:1763   */\n      revert\n        /* \"#utility.yul\":1775:1892   */\n    tag_108:\n        /* \"#utility.yul\":1884:1885   */\n      0x00\n        /* \"#utility.yul\":1881:1882   */\n      dup1\n        /* \"#utility.yul\":1874:1886   */\n      revert\n        /* \"#utility.yul\":1898:2205   */\n    tag_109:\n        /* \"#utility.yul\":1959:1963   */\n      0x00\n        /* \"#utility.yul\":2049:2067   */\n      0xffffffffffffffff\n        /* \"#utility.yul\":2041:2047   */\n      dup3\n        /* \"#utility.yul\":2038:2068   */\n      gt\n        /* \"#utility.yul\":2035:2091   */\n      iszero\n      tag_196\n      jumpi\n        /* \"#utility.yul\":2071:2089   */\n      tag_197\n      tag_49\n      jump\t// in\n    tag_197:\n        /* \"#utility.yul\":2035:2091   */\n    tag_196:\n        /* \"#utility.yul\":2109:2138   */\n      tag_198\n        /* \"#utility.yul\":2131:2137   */\n      dup3\n        /* \"#utility.yul\":2109:2138   */\n      tag_100\n      jump\t// in\n    tag_198:\n        /* \"#utility.yul\":2101:2138   */\n      swap1\n      pop\n        /* \"#utility.yul\":2193:2197   */\n      0x20\n        /* \"#utility.yul\":2187:2191   */\n      dup2\n        /* \"#utility.yul\":2183:2198   */\n      add\n        /* \"#utility.yul\":2175:2198   */\n      swap1\n      pop\n        /* \"#utility.yul\":1898:2205   */\n      swap2\n      swap1\n      pop\n      jump\t// out\n        /* \"#utility.yul\":2211:2359   */\n    tag_110:\n        /* \"#utility.yul\":2309:2315   */\n      dup3\n        /* \"#utility.yul\":2304:2307   */\n      dup2\n        /* \"#utility.yul\":2299:2302   */\n      dup4\n        /* \"#utility.yul\":2286:2316   */\n      calldatacopy\n        /* \"#utility.yul\":2350:2351   */\n      0x00\n        /* \"#utility.yul\":2341:2347   */\n      dup4\n        /* \"#utility.yul\":2336:2339   */\n      dup4\n        /* \"#utility.yul\":2332:2348   */\n      add\n        /* \"#utility.yul\":2325:2352   */\n      mstore\n        /* \"#utility.yul\":2211:2359   */\n      pop\n      pop\n      pop\n      jump\t// out\n        /* \"#utility.yul\":2365:2788   */\n    tag_111:\n        /* \"#utility.yul\":2442:2447   */\n      0x00\n        /* \"#utility.yul\":2467:2532   */\n      tag_201\n        /* \"#utility.yul\":2483:2531   */\n      tag_202\n        /* \"#utility.yul\":2524:2530   */\n      dup5\n        /* \"#utility.yul\":2483:2531   */\n      tag_109\n      jump\t// in\n    tag_202:\n        /* \"#utility.yul\":2467:2532   */\n      tag_102\n      jump\t// in\n    tag_201:\n        /* \"#utility.yul\":2458:2532   */\n      swap1\n      pop\n        /* \"#utility.yul\":2555:2561   */\n      dup3\n        /* \"#utility.yul\":2548:2553   */\n      dup2\n        /* \"#utility.yul\":2541:2562   */\n      mstore\n        /* \"#utility.yul\":2593:2597   */\n      0x20\n        /* \"#utility.yul\":2586:2591   */\n      dup2\n        /* \"#utility.yul\":2582:2598   */\n      add\n        /* \"#utility.yul\":2631:2634   */\n      dup5\n        /* \"#utility.yul\":2622:2628   */\n      dup5\n        /* \"#utility.yul\":2617:2620   */\n      dup5\n        /* \"#utility.yul\":2613:2629   */\n      add\n        /* \"#utility.yul\":2610:2635   */\n      gt\n        /* \"#utility.yul\":2607:2719   */\n      iszero\n      tag_203\n      jumpi\n        /* \"#utility.yul\":2638:2717   */\n      tag_204\n      tag_108\n      jump\t// in\n    tag_204:\n        /* \"#utility.yul\":2607:2719   */\n    tag_203:\n        /* \"#utility.yul\":2728:2782   */\n      tag_205\n        /* \"#utility.yul\":2775:2781   */\n      dup5\n        /* \"#utility.yul\":2770:2773   */\n      dup3\n        /* \"#utility.yul\":2765:2768   */\n      dup6\n        /* \"#utility.yul\":2728:2782   */\n      tag_110\n      jump\t// in\n    tag_205:\n        /* \"#utility.yul\":2448:2788   */\n      pop\n        /* \"#utility.yul\":2365:2788   */\n      swap4\n      swap3\n      pop\n      pop\n      pop\n      jump\t// out\n        /* \"#utility.yul\":2807:3145   */\n    tag_112:\n        /* \"#utility.yul\":2862:2867   */\n      0x00\n        /* \"#utility.yul\":2911:2914   */\n      dup3\n        /* \"#utility.yul\":2904:2908   */\n      0x1f\n        /* \"#utility.yul\":2896:2902   */\n      dup4\n        /* \"#utility.yul\":2892:2909   */\n      add\n        /* \"#utility.yul\":2888:2915   */\n      slt\n        /* \"#utility.yul\":2878:3000   */\n      tag_207\n      jumpi\n        /* \"#utility.yul\":2919:2998   */\n      tag_208\n      tag_107\n      jump\t// in\n    tag_208:\n        /* \"#utility.yul\":2878:3000   */\n    tag_207:\n        /* \"#utility.yul\":3036:3042   */\n      dup2\n        /* \"#utility.yul\":3023:3043   */\n      calldataload\n        /* \"#utility.yul\":3061:3139   */\n      tag_209\n        /* \"#utility.yul\":3135:3138   */\n      dup5\n        /* \"#utility.yul\":3127:3133   */\n      dup3\n        /* \"#utility.yul\":3120:3124   */\n      0x20\n        /* \"#utility.yul\":3112:3118   */\n      dup7\n        /* \"#utility.yul\":3108:3125   */\n      add\n        /* \"#utility.yul\":3061:3139   */\n      tag_111\n      jump\t// in\n    tag_209:\n        /* \"#utility.yul\":3052:3139   */\n      swap2\n      pop\n        /* \"#utility.yul\":2868:3145   */\n      pop\n        /* \"#utility.yul\":2807:3145   */\n      swap3\n      swap2\n      pop\n      pop\n      jump\t// out\n        /* \"#utility.yul\":3185:3922   */\n    tag_113:\n        /* \"#utility.yul\":3254:3259   */\n      0x00\n        /* \"#utility.yul\":3298:3302   */\n      0x40\n        /* \"#utility.yul\":3286:3295   */\n      dup3\n        /* \"#utility.yul\":3281:3284   */\n      dup5\n        /* \"#utility.yul\":3277:3296   */\n      sub\n        /* \"#utility.yul\":3273:3303   */\n      slt\n        /* \"#utility.yul\":3270:3387   */\n      iszero\n      tag_211\n      jumpi\n        /* \"#utility.yul\":3306:3385   */\n      tag_212\n      tag_99\n      jump\t// in\n    tag_212:\n        /* \"#utility.yul\":3270:3387   */\n    tag_211:\n        /* \"#utility.yul\":3405:3426   */\n      tag_213\n        /* \"#utility.yul\":3421:3425   */\n      0x40\n        /* \"#utility.yul\":3405:3426   */\n      tag_102\n      jump\t// in\n    tag_213:\n        /* \"#utility.yul\":3396:3426   */\n      swap1\n      pop\n        /* \"#utility.yul\":3484:3485   */\n      0x00\n        /* \"#utility.yul\":3524:3573   */\n      tag_214\n        /* \"#utility.yul\":3569:3572   */\n      dup5\n        /* \"#utility.yul\":3560:3566   */\n      dup3\n        /* \"#utility.yul\":3549:3558   */\n      dup6\n        /* \"#utility.yul\":3545:3567   */\n      add\n        /* \"#utility.yul\":3524:3573   */\n      tag_106\n      jump\t// in\n    tag_214:\n        /* \"#utility.yul\":3517:3521   */\n      0x00\n        /* \"#utility.yul\":3510:3515   */\n      dup4\n        /* \"#utility.yul\":3506:3522   */\n      add\n        /* \"#utility.yul\":3499:3574   */\n      mstore\n        /* \"#utility.yul\":3436:3585   */\n      pop\n        /* \"#utility.yul\":3672:3674   */\n      0x20\n        /* \"#utility.yul\":3661:3670   */\n      dup3\n        /* \"#utility.yul\":3657:3675   */\n      add\n        /* \"#utility.yul\":3644:3676   */\n      calldataload\n        /* \"#utility.yul\":3703:3721   */\n      0xffffffffffffffff\n        /* \"#utility.yul\":3695:3701   */\n      dup2\n        /* \"#utility.yul\":3692:3722   */\n      gt\n        /* \"#utility.yul\":3689:3806   */\n      iszero\n      tag_215\n      jumpi\n        /* \"#utility.yul\":3725:3804   */\n      tag_216\n      tag_103\n      jump\t// in\n    tag_216:\n        /* \"#utility.yul\":3689:3806   */\n    tag_215:\n        /* \"#utility.yul\":3845:3903   */\n      tag_217\n        /* \"#utility.yul\":3899:3902   */\n      dup5\n        /* \"#utility.yul\":3890:3896   */\n      dup3\n        /* \"#utility.yul\":3879:3888   */\n      dup6\n        /* \"#utility.yul\":3875:3897   */\n      add\n        /* \"#utility.yul\":3845:3903   */\n      tag_112\n      jump\t// in\n    tag_217:\n        /* \"#utility.yul\":3838:3842   */\n      0x20\n        /* \"#utility.yul\":3831:3836   */\n      dup4\n        /* \"#utility.yul\":3827:3843   */\n      add\n        /* \"#utility.yul\":3820:3904   */\n      mstore\n        /* \"#utility.yul\":3595:3915   */\n      pop\n        /* \"#utility.yul\":3185:3922   */\n      swap3\n      swap2\n      pop\n      pop\n      jump\t// out\n        /* \"#utility.yul\":3928:4036   */\n    tag_114:\n        /* \"#utility.yul\":4010:4011   */\n      0x03\n        /* \"#utility.yul\":4003:4008   */\n      dup2\n        /* \"#utility.yul\":4000:4012   */\n      lt\n        /* \"#utility.yul\":3990:4030   */\n      tag_219\n      jumpi\n        /* \"#utility.yul\":4026:4027   */\n      0x00\n        /* \"#utility.yul\":4023:4024   */\n      dup1\n        /* \"#utility.yul\":4016:4028   */\n      revert\n        /* \"#utility.yul\":3990:4030   */\n    tag_219:\n        /* \"#utility.yul\":3928:4036   */\n      pop\n      jump\t// out\n        /* \"#utility.yul\":4042:4199   */\n    tag_115:\n        /* \"#utility.yul\":4097:4102   */\n      0x00\n        /* \"#utility.yul\":4135:4141   */\n      dup2\n        /* \"#utility.yul\":4122:4142   */\n      calldataload\n        /* \"#utility.yul\":4113:4142   */\n      swap1\n      pop\n        /* \"#utility.yul\":4151:4193   */\n      tag_221\n        /* \"#utility.yul\":4187:4192   */\n      dup2\n        /* \"#utility.yul\":4151:4193   */\n      tag_114\n      jump\t// in\n    tag_221:\n        /* \"#utility.yul\":4042:4199   */\n      swap3\n      swap2\n      pop\n      pop\n      jump\t// out\n        /* \"#utility.yul\":4205:4897   */\n    tag_11:\n        /* \"#utility.yul\":4302:4308   */\n      0x00\n        /* \"#utility.yul\":4310:4316   */\n      dup1\n        /* \"#utility.yul\":4359:4361   */\n      0x40\n        /* \"#utility.yul\":4347:4356   */\n      dup4\n        /* \"#utility.yul\":4338:4345   */\n      dup6\n        /* \"#utility.yul\":4334:4357   */\n      sub\n        /* \"#utility.yul\":4330:4362   */\n      slt\n        /* \"#utility.yul\":4327:4446   */\n      iszero\n      tag_223\n      jumpi\n        /* \"#utility.yul\":4365:4444   */\n      tag_224\n      tag_97\n      jump\t// in\n    tag_224:\n        /* \"#utility.yul\":4327:4446   */\n    tag_223:\n        /* \"#utility.yul\":4513:4514   */\n      0x00\n        /* \"#utility.yul\":4502:4511   */\n      dup4\n        /* \"#utility.yul\":4498:4515   */\n      add\n        /* \"#utility.yul\":4485:4516   */\n      calldataload\n        /* \"#utility.yul\":4543:4561   */\n      0xffffffffffffffff\n        /* \"#utility.yul\":4535:4541   */\n      dup2\n        /* \"#utility.yul\":4532:4562   */\n      gt\n        /* \"#utility.yul\":4529:4646   */\n      iszero\n      tag_225\n      jumpi\n        /* \"#utility.yul\":4565:4644   */\n      tag_226\n      tag_98\n      jump\t// in\n    tag_226:\n        /* \"#utility.yul\":4529:4646   */\n    tag_225:\n        /* \"#utility.yul\":4670:4743   */\n      tag_227\n        /* \"#utility.yul\":4735:4742   */\n      dup6\n        /* \"#utility.yul\":4726:4732   */\n      dup3\n        /* \"#utility.yul\":4715:4724   */\n      dup7\n        /* \"#utility.yul\":4711:4733   */\n      add\n        /* \"#utility.yul\":4670:4743   */\n      tag_113\n      jump\t// in\n    tag_227:\n        /* \"#utility.yul\":4660:4743   */\n      swap3\n      pop\n        /* \"#utility.yul\":4456:4753   */\n      pop\n        /* \"#utility.yul\":4792:4794   */\n      0x20\n        /* \"#utility.yul\":4818:4880   */\n      tag_228\n        /* \"#utility.yul\":4872:4879   */\n      dup6\n        /* \"#utility.yul\":4863:4869   */\n      dup3\n        /* \"#utility.yul\":4852:4861   */\n      dup7\n        /* \"#utility.yul\":4848:4870   */\n      add\n        /* \"#utility.yul\":4818:4880   */\n      tag_115\n      jump\t// in\n    tag_228:\n        /* \"#utility.yul\":4808:4880   */\n      swap2\n      pop\n        /* \"#utility.yul\":4763:4890   */\n      pop\n        /* \"#utility.yul\":4205:4897   */\n      swap3\n      pop\n      swap3\n      swap1\n      pop\n      jump\t// out\n        /* \"#utility.yul\":4903:5052   */\n    tag_116:\n        /* \"#utility.yul\":4939:4946   */\n      0x00\n        /* \"#utility.yul\":4979:5045   */\n      0xffffffff00000000000000000000000000000000000000000000000000000000\n        /* \"#utility.yul\":4972:4977   */\n      dup3\n        /* \"#utility.yul\":4968:5046   */\n      and\n        /* \"#utility.yul\":4957:5046   */\n      swap1\n      pop\n        /* \"#utility.yul\":4903:5052   */\n      swap2\n      swap1\n      pop\n      jump\t// out\n        /* \"#utility.yul\":5058:5173   */\n    tag_117:\n        /* \"#utility.yul\":5143:5166   */\n      tag_231\n        /* \"#utility.yul\":5160:5165   */\n      dup2\n        /* \"#utility.yul\":5143:5166   */\n      tag_116\n      jump\t// in\n    tag_231:\n        /* \"#utility.yul\":5138:5141   */\n      dup3\n        /* \"#utility.yul\":5131:5167   */\n      mstore\n        /* \"#utility.yul\":5058:5173   */\n      pop\n      pop\n      jump\t// out\n        /* \"#utility.yul\":5179:5397   */\n    tag_14:\n        /* \"#utility.yul\":5270:5274   */\n      0x00\n        /* \"#utility.yul\":5308:5310   */\n      0x20\n        /* \"#utility.yul\":5297:5306   */\n      dup3\n        /* \"#utility.yul\":5293:5311   */\n      add\n        /* \"#utility.yul\":5285:5311   */\n      swap1\n      pop\n        /* \"#utility.yul\":5321:5390   */\n      tag_233\n        /* \"#utility.yul\":5387:5388   */\n      0x00\n        /* \"#utility.yul\":5376:5385   */\n      dup4\n        /* \"#utility.yul\":5372:5389   */\n      add\n        /* \"#utility.yul\":5363:5369   */\n      dup5\n        /* \"#utility.yul\":5321:5390   */\n      tag_117\n      jump\t// in\n    tag_233:\n        /* \"#utility.yul\":5179:5397   */\n      swap3\n      swap2\n      pop\n      pop\n      jump\t// out\n        /* \"#utility.yul\":5403:5652   */\n    tag_118:\n        /* \"#utility.yul\":5478:5482   */\n      0x00\n        /* \"#utility.yul\":5568:5586   */\n      0xffffffffffffffff\n        /* \"#utility.yul\":5560:5566   */\n      dup3\n        /* \"#utility.yul\":5557:5587   */\n      gt\n        /* \"#utility.yul\":5554:5610   */\n      iszero\n      tag_235\n      jumpi\n        /* \"#utility.yul\":5590:5608   */\n      tag_236\n      tag_49\n      jump\t// in\n    tag_236:\n        /* \"#utility.yul\":5554:5610   */\n    tag_235:\n        /* \"#utility.yul\":5640:5644   */\n      0x20\n        /* \"#utility.yul\":5632:5638   */\n      dup3\n        /* \"#utility.yul\":5628:5645   */\n      mul\n        /* \"#utility.yul\":5620:5645   */\n      swap1\n      pop\n        /* \"#utility.yul\":5403:5652   */\n      swap2\n      swap1\n      pop\n      jump\t// out\n        /* \"#utility.yul\":5658:5775   */\n    tag_119:\n        /* \"#utility.yul\":5767:5768   */\n      0x00\n        /* \"#utility.yul\":5764:5765   */\n      dup1\n        /* \"#utility.yul\":5757:5769   */\n      revert\n        /* \"#utility.yul\":5799:6442   */\n    tag_120:\n        /* \"#utility.yul\":5893:5898   */\n      0x00\n        /* \"#utility.yul\":5918:5997   */\n      tag_239\n        /* \"#utility.yul\":5934:5996   */\n      tag_240\n        /* \"#utility.yul\":5989:5995   */\n      dup5\n        /* \"#utility.yul\":5934:5996   */\n      tag_118\n      jump\t// in\n    tag_240:\n        /* \"#utility.yul\":5918:5997   */\n      tag_102\n      jump\t// in\n    tag_239:\n        /* \"#utility.yul\":5909:5997   */\n      swap1\n      pop\n        /* \"#utility.yul\":6017:6022   */\n      dup1\n        /* \"#utility.yul\":6070:6074   */\n      0x20\n        /* \"#utility.yul\":6062:6068   */\n      dup5\n        /* \"#utility.yul\":6058:6075   */\n      mul\n        /* \"#utility.yul\":6050:6056   */\n      dup4\n        /* \"#utility.yul\":6046:6076   */\n      add\n        /* \"#utility.yul\":6099:6102   */\n      dup6\n        /* \"#utility.yul\":6091:6097   */\n      dup2\n        /* \"#utility.yul\":6088:6103   */\n      gt\n        /* \"#utility.yul\":6085:6207   */\n      iszero\n      tag_241\n      jumpi\n        /* \"#utility.yul\":6118:6197   */\n      tag_242\n      tag_119\n      jump\t// in\n    tag_242:\n        /* \"#utility.yul\":6085:6207   */\n    tag_241:\n        /* \"#utility.yul\":6233:6239   */\n      dup4\n        /* \"#utility.yul\":6216:6436   */\n    tag_243:\n        /* \"#utility.yul\":6250:6256   */\n      dup2\n        /* \"#utility.yul\":6245:6248   */\n      dup2\n        /* \"#utility.yul\":6242:6257   */\n      lt\n        /* \"#utility.yul\":6216:6436   */\n      iszero\n      tag_245\n      jumpi\n        /* \"#utility.yul\":6325:6328   */\n      dup1\n        /* \"#utility.yul\":6354:6391   */\n      tag_246\n        /* \"#utility.yul\":6387:6390   */\n      dup9\n        /* \"#utility.yul\":6375:6385   */\n      dup3\n        /* \"#utility.yul\":6354:6391   */\n      tag_106\n      jump\t// in\n    tag_246:\n        /* \"#utility.yul\":6349:6352   */\n      dup5\n        /* \"#utility.yul\":6342:6392   */\n      mstore\n        /* \"#utility.yul\":6421:6425   */\n      0x20\n        /* \"#utility.yul\":6416:6419   */\n      dup5\n        /* \"#utility.yul\":6412:6426   */\n      add\n        /* \"#utility.yul\":6405:6426   */\n      swap4\n      pop\n        /* \"#utility.yul\":6292:6436   */\n      pop\n        /* \"#utility.yul\":6276:6280   */\n      0x20\n        /* \"#utility.yul\":6271:6274   */\n      dup2\n        /* \"#utility.yul\":6267:6281   */\n      add\n        /* \"#utility.yul\":6260:6281   */\n      swap1\n      pop\n        /* \"#utility.yul\":6216:6436   */\n      jump(tag_243)\n    tag_245:\n        /* \"#utility.yul\":6220:6241   */\n      pop\n        /* \"#utility.yul\":5899:6442   */\n      pop\n      pop\n        /* \"#utility.yul\":5799:6442   */\n      swap4\n      swap3\n      pop\n      pop\n      pop\n      jump\t// out\n        /* \"#utility.yul\":6466:6805   */\n    tag_121:\n        /* \"#utility.yul\":6535:6540   */\n      0x00\n        /* \"#utility.yul\":6584:6587   */\n      dup3\n        /* \"#utility.yul\":6577:6581   */\n      0x1f\n        /* \"#utility.yul\":6569:6575   */\n      dup4\n        /* \"#utility.yul\":6565:6582   */\n      add\n        /* \"#utility.yul\":6561:6588   */\n      slt\n        /* \"#utility.yul\":6551:6673   */\n      tag_248\n      jumpi\n        /* \"#utility.yul\":6592:6671   */\n      tag_249\n      tag_107\n      jump\t// in\n    tag_249:\n        /* \"#utility.yul\":6551:6673   */\n    tag_248:\n        /* \"#utility.yul\":6696:6700   */\n      0x02\n        /* \"#utility.yul\":6718:6799   */\n      tag_250\n        /* \"#utility.yul\":6795:6798   */\n      dup5\n        /* \"#utility.yul\":6787:6793   */\n      dup3\n        /* \"#utility.yul\":6779:6785   */\n      dup6\n        /* \"#utility.yul\":6718:6799   */\n      tag_120\n      jump\t// in\n    tag_250:\n        /* \"#utility.yul\":6709:6799   */\n      swap2\n      pop\n        /* \"#utility.yul\":6541:6805   */\n      pop\n        /* \"#utility.yul\":6466:6805   */\n      swap3\n      swap2\n      pop\n      pop\n      jump\t// out\n        /* \"#utility.yul\":6811:7119   */\n    tag_122:\n        /* \"#utility.yul\":6873:6877   */\n      0x00\n        /* \"#utility.yul\":6963:6981   */\n      0xffffffffffffffff\n        /* \"#utility.yul\":6955:6961   */\n      dup3\n        /* \"#utility.yul\":6952:6982   */\n      gt\n        /* \"#utility.yul\":6949:7005   */\n      iszero\n      tag_252\n      jumpi\n        /* \"#utility.yul\":6985:7003   */\n      tag_253\n      tag_49\n      jump\t// in\n    tag_253:\n        /* \"#utility.yul\":6949:7005   */\n    tag_252:\n        /* \"#utility.yul\":7023:7052   */\n      tag_254\n        /* \"#utility.yul\":7045:7051   */\n      dup3\n        /* \"#utility.yul\":7023:7052   */\n      tag_100\n      jump\t// in\n    tag_254:\n        /* \"#utility.yul\":7015:7052   */\n      swap1\n      pop\n        /* \"#utility.yul\":7107:7111   */\n      0x20\n        /* \"#utility.yul\":7101:7105   */\n      dup2\n        /* \"#utility.yul\":7097:7112   */\n      add\n        /* \"#utility.yul\":7089:7112   */\n      swap1\n      pop\n        /* \"#utility.yul\":6811:7119   */\n      swap2\n      swap1\n      pop\n      jump\t// out\n        /* \"#utility.yul\":7125:7550   */\n    tag_123:\n        /* \"#utility.yul\":7203:7208   */\n      0x00\n        /* \"#utility.yul\":7228:7294   */\n      tag_256\n        /* \"#utility.yul\":7244:7293   */\n      tag_257\n        /* \"#utility.yul\":7286:7292   */\n      dup5\n        /* \"#utility.yul\":7244:7293   */\n      tag_122\n      jump\t// in\n    tag_257:\n        /* \"#utility.yul\":7228:7294   */\n      tag_102\n      jump\t// in\n    tag_256:\n        /* \"#utility.yul\":7219:7294   */\n      swap1\n      pop\n        /* \"#utility.yul\":7317:7323   */\n      dup3\n        /* \"#utility.yul\":7310:7315   */\n      dup2\n        /* \"#utility.yul\":7303:7324   */\n      mstore\n        /* \"#utility.yul\":7355:7359   */\n      0x20\n        /* \"#utility.yul\":7348:7353   */\n      dup2\n        /* \"#utility.yul\":7344:7360   */\n      add\n        /* \"#utility.yul\":7393:7396   */\n      dup5\n        /* \"#utility.yul\":7384:7390   */\n      dup5\n        /* \"#utility.yul\":7379:7382   */\n      dup5\n        /* \"#utility.yul\":7375:7391   */\n      add\n        /* \"#utility.yul\":7372:7397   */\n      gt\n        /* \"#utility.yul\":7369:7481   */\n      iszero\n      tag_258\n      jumpi\n        /* \"#utility.yul\":7400:7479   */\n      tag_259\n      tag_108\n      jump\t// in\n    tag_259:\n        /* \"#utility.yul\":7369:7481   */\n    tag_258:\n        /* \"#utility.yul\":7490:7544   */\n      tag_260\n        /* \"#utility.yul\":7537:7543   */\n      dup5\n        /* \"#utility.yul\":7532:7535   */\n      dup3\n        /* \"#utility.yul\":7527:7530   */\n      dup6\n        /* \"#utility.yul\":7490:7544   */\n      tag_110\n      jump\t// in\n    tag_260:\n        /* \"#utility.yul\":7209:7550   */\n      pop\n        /* \"#utility.yul\":7125:7550   */\n      swap4\n      swap3\n      pop\n      pop\n      pop\n      jump\t// out\n        /* \"#utility.yul\":7570:7910   */\n    tag_124:\n        /* \"#utility.yul\":7626:7631   */\n      0x00\n        /* \"#utility.yul\":7675:7678   */\n      dup3\n        /* \"#utility.yul\":7668:7672   */\n      0x1f\n        /* \"#utility.yul\":7660:7666   */\n      dup4\n        /* \"#utility.yul\":7656:7673   */\n      add\n        /* \"#utility.yul\":7652:7679   */\n      slt\n        /* \"#utility.yul\":7642:7764   */\n      tag_262\n      jumpi\n        /* \"#utility.yul\":7683:7762   */\n      tag_263\n      tag_107\n      jump\t// in\n    tag_263:\n        /* \"#utility.yul\":7642:7764   */\n    tag_262:\n        /* \"#utility.yul\":7800:7806   */\n      dup2\n        /* \"#utility.yul\":7787:7807   */\n      calldataload\n        /* \"#utility.yul\":7825:7904   */\n      tag_264\n        /* \"#utility.yul\":7900:7903   */\n      dup5\n        /* \"#utility.yul\":7892:7898   */\n      dup3\n        /* \"#utility.yul\":7885:7889   */\n      0x20\n        /* \"#utility.yul\":7877:7883   */\n      dup7\n        /* \"#utility.yul\":7873:7890   */\n      add\n        /* \"#utility.yul\":7825:7904   */\n      tag_123\n      jump\t// in\n    tag_264:\n        /* \"#utility.yul\":7816:7904   */\n      swap2\n      pop\n        /* \"#utility.yul\":7632:7910   */\n      pop\n        /* \"#utility.yul\":7570:7910   */\n      swap3\n      swap2\n      pop\n      pop\n      jump\t// out\n        /* \"#utility.yul\":7916:8616   */\n    tag_17:\n        /* \"#utility.yul\":8017:8023   */\n      0x00\n        /* \"#utility.yul\":8025:8031   */\n      dup1\n        /* \"#utility.yul\":8074:8076   */\n      0x60\n        /* \"#utility.yul\":8062:8071   */\n      dup4\n        /* \"#utility.yul\":8053:8060   */\n      dup6\n        /* \"#utility.yul\":8049:8072   */\n      sub\n        /* \"#utility.yul\":8045:8077   */\n      slt\n        /* \"#utility.yul\":8042:8161   */\n      iszero\n      tag_266\n      jumpi\n        /* \"#utility.yul\":8080:8159   */\n      tag_267\n      tag_97\n      jump\t// in\n    tag_267:\n        /* \"#utility.yul\":8042:8161   */\n    tag_266:\n        /* \"#utility.yul\":8200:8201   */\n      0x00\n        /* \"#utility.yul\":8225:8301   */\n      tag_268\n        /* \"#utility.yul\":8293:8300   */\n      dup6\n        /* \"#utility.yul\":8284:8290   */\n      dup3\n        /* \"#utility.yul\":8273:8282   */\n      dup7\n        /* \"#utility.yul\":8269:8291   */\n      add\n        /* \"#utility.yul\":8225:8301   */\n      tag_121\n      jump\t// in\n    tag_268:\n        /* \"#utility.yul\":8215:8301   */\n      swap3\n      pop\n        /* \"#utility.yul\":8171:8311   */\n      pop\n        /* \"#utility.yul\":8378:8380   */\n      0x40\n        /* \"#utility.yul\":8367:8376   */\n      dup4\n        /* \"#utility.yul\":8363:8381   */\n      add\n        /* \"#utility.yul\":8350:8382   */\n      calldataload\n        /* \"#utility.yul\":8409:8427   */\n      0xffffffffffffffff\n        /* \"#utility.yul\":8401:8407   */\n      dup2\n        /* \"#utility.yul\":8398:8428   */\n      gt\n        /* \"#utility.yul\":8395:8512   */\n      iszero\n      tag_269\n      jumpi\n        /* \"#utility.yul\":8431:8510   */\n      tag_270\n      tag_98\n      jump\t// in\n    tag_270:\n        /* \"#utility.yul\":8395:8512   */\n    tag_269:\n        /* \"#utility.yul\":8536:8599   */\n      tag_271\n        /* \"#utility.yul\":8591:8598   */\n      dup6\n        /* \"#utility.yul\":8582:8588   */\n      dup3\n        /* \"#utility.yul\":8571:8580   */\n      dup7\n        /* \"#utility.yul\":8567:8589   */\n      add\n        /* \"#utility.yul\":8536:8599   */\n      tag_124\n      jump\t// in\n    tag_271:\n        /* \"#utility.yul\":8526:8599   */\n      swap2\n      pop\n        /* \"#utility.yul\":8321:8609   */\n      pop\n        /* \"#utility.yul\":7916:8616   */\n      swap3\n      pop\n      swap3\n      swap1\n      pop\n      jump\t// out\n        /* \"#utility.yul\":8622:8748   */\n    tag_125:\n        /* \"#utility.yul\":8659:8666   */\n      0x00\n        /* \"#utility.yul\":8699:8741   */\n      0xffffffffffffffffffffffffffffffffffffffff\n        /* \"#utility.yul\":8692:8697   */\n      dup3\n        /* \"#utility.yul\":8688:8742   */\n      and\n        /* \"#utility.yul\":8677:8742   */\n      swap1\n      pop\n        /* \"#utility.yul\":8622:8748   */\n      swap2\n      swap1\n      pop\n      jump\t// out\n        /* \"#utility.yul\":8754:8850   */\n    tag_126:\n        /* \"#utility.yul\":8791:8798   */\n      0x00\n        /* \"#utility.yul\":8820:8844   */\n      tag_274\n        /* \"#utility.yul\":8838:8843   */\n      dup3\n        /* \"#utility.yul\":8820:8844   */\n      tag_125\n      jump\t// in\n    tag_274:\n        /* \"#utility.yul\":8809:8844   */\n      swap1\n      pop\n        /* \"#utility.yul\":8754:8850   */\n      swap2\n      swap1\n      pop\n      jump\t// out\n        /* \"#utility.yul\":8856:8978   */\n    tag_127:\n        /* \"#utility.yul\":8929:8953   */\n      tag_276\n        /* \"#utility.yul\":8947:8952   */\n      dup2\n        /* \"#utility.yul\":8929:8953   */\n      tag_126\n      jump\t// in\n    tag_276:\n        /* \"#utility.yul\":8922:8927   */\n      dup2\n        /* \"#utility.yul\":8919:8954   */\n      eq\n        /* \"#utility.yul\":8909:8972   */\n      tag_277\n      jumpi\n        /* \"#utility.yul\":8968:8969   */\n      0x00\n        /* \"#utility.yul\":8965:8966   */\n      dup1\n        /* \"#utility.yul\":8958:8970   */\n      revert\n        /* \"#utility.yul\":8909:8972   */\n    tag_277:\n        /* \"#utility.yul\":8856:8978   */\n      pop\n      jump\t// out\n        /* \"#utility.yul\":8984:9123   */\n    tag_128:\n        /* \"#utility.yul\":9030:9035   */\n      0x00\n        /* \"#utility.yul\":9068:9074   */\n      dup2\n        /* \"#utility.yul\":9055:9075   */\n      calldataload\n        /* \"#utility.yul\":9046:9075   */\n      swap1\n      pop\n        /* \"#utility.yul\":9084:9117   */\n      tag_279\n        /* \"#utility.yul\":9111:9116   */\n      dup2\n        /* \"#utility.yul\":9084:9117   */\n      tag_127\n      jump\t// in\n    tag_279:\n        /* \"#utility.yul\":8984:9123   */\n      swap3\n      swap2\n      pop\n      pop\n      jump\t// out\n        /* \"#utility.yul\":9129:9458   */\n    tag_24:\n        /* \"#utility.yul\":9188:9194   */\n      0x00\n        /* \"#utility.yul\":9237:9239   */\n      0x20\n        /* \"#utility.yul\":9225:9234   */\n      dup3\n        /* \"#utility.yul\":9216:9223   */\n      dup5\n        /* \"#utility.yul\":9212:9235   */\n      sub\n        /* \"#utility.yul\":9208:9240   */\n      slt\n        /* \"#utility.yul\":9205:9324   */\n      iszero\n      tag_281\n      jumpi\n        /* \"#utility.yul\":9243:9322   */\n      tag_282\n      tag_97\n      jump\t// in\n    tag_282:\n        /* \"#utility.yul\":9205:9324   */\n    tag_281:\n        /* \"#utility.yul\":9363:9364   */\n      0x00\n        /* \"#utility.yul\":9388:9441   */\n      tag_283\n        /* \"#utility.yul\":9433:9440   */\n      dup5\n        /* \"#utility.yul\":9424:9430   */\n      dup3\n        /* \"#utility.yul\":9413:9422   */\n      dup6\n        /* \"#utility.yul\":9409:9431   */\n      add\n        /* \"#utility.yul\":9388:9441   */\n      tag_128\n      jump\t// in\n    tag_283:\n        /* \"#utility.yul\":9378:9441   */\n      swap2\n      pop\n        /* \"#utility.yul\":9334:9451   */\n      pop\n        /* \"#utility.yul\":9129:9458   */\n      swap3\n      swap2\n      pop\n      pop\n      jump\t// out\n        /* \"#utility.yul\":9464:9793   */\n    tag_28:\n        /* \"#utility.yul\":9523:9529   */\n      0x00\n        /* \"#utility.yul\":9572:9574   */\n      0x20\n        /* \"#utility.yul\":9560:9569   */\n      dup3\n        /* \"#utility.yul\":9551:9558   */\n      dup5\n        /* \"#utility.yul\":9547:9570   */\n      sub\n        /* \"#utility.yul\":9543:9575   */\n      slt\n        /* \"#utility.yul\":9540:9659   */\n      iszero\n      tag_285\n      jumpi\n        /* \"#utility.yul\":9578:9657   */\n      tag_286\n      tag_97\n      jump\t// in\n    tag_286:\n        /* \"#utility.yul\":9540:9659   */\n    tag_285:\n        /* \"#utility.yul\":9698:9699   */\n      0x00\n        /* \"#utility.yul\":9723:9776   */\n      tag_287\n        /* \"#utility.yul\":9768:9775   */\n      dup5\n        /* \"#utility.yul\":9759:9765   */\n      dup3\n        /* \"#utility.yul\":9748:9757   */\n      dup6\n        /* \"#utility.yul\":9744:9766   */\n      add\n        /* \"#utility.yul\":9723:9776   */\n      tag_106\n      jump\t// in\n    tag_287:\n        /* \"#utility.yul\":9713:9776   */\n      swap2\n      pop\n        /* \"#utility.yul\":9669:9786   */\n      pop\n        /* \"#utility.yul\":9464:9793   */\n      swap3\n      swap2\n      pop\n      pop\n      jump\t// out\n        /* \"#utility.yul\":9799:10308   */\n    tag_33:\n        /* \"#utility.yul\":9868:9874   */\n      0x00\n        /* \"#utility.yul\":9917:9919   */\n      0x20\n        /* \"#utility.yul\":9905:9914   */\n      dup3\n        /* \"#utility.yul\":9896:9903   */\n      dup5\n        /* \"#utility.yul\":9892:9915   */\n      sub\n        /* \"#utility.yul\":9888:9920   */\n      slt\n        /* \"#utility.yul\":9885:10004   */\n      iszero\n      tag_289\n      jumpi\n        /* \"#utility.yul\":9923:10002   */\n      tag_290\n      tag_97\n      jump\t// in\n    tag_290:\n        /* \"#utility.yul\":9885:10004   */\n    tag_289:\n        /* \"#utility.yul\":10071:10072   */\n      0x00\n        /* \"#utility.yul\":10060:10069   */\n      dup3\n        /* \"#utility.yul\":10056:10073   */\n      add\n        /* \"#utility.yul\":10043:10074   */\n      calldataload\n        /* \"#utility.yul\":10101:10119   */\n      0xffffffffffffffff\n        /* \"#utility.yul\":10093:10099   */\n      dup2\n        /* \"#utility.yul\":10090:10120   */\n      gt\n        /* \"#utility.yul\":10087:10204   */\n      iszero\n      tag_291\n      jumpi\n        /* \"#utility.yul\":10123:10202   */\n      tag_292\n      tag_98\n      jump\t// in\n    tag_292:\n        /* \"#utility.yul\":10087:10204   */\n    tag_291:\n        /* \"#utility.yul\":10228:10291   */\n      tag_293\n        /* \"#utility.yul\":10283:10290   */\n      dup5\n        /* \"#utility.yul\":10274:10280   */\n      dup3\n        /* \"#utility.yul\":10263:10272   */\n      dup6\n        /* \"#utility.yul\":10259:10281   */\n      add\n        /* \"#utility.yul\":10228:10291   */\n      tag_124\n      jump\t// in\n    tag_293:\n        /* \"#utility.yul\":10218:10291   */\n      swap2\n      pop\n        /* \"#utility.yul\":10014:10301   */\n      pop\n        /* \"#utility.yul\":9799:10308   */\n      swap3\n      swap2\n      pop\n      pop\n      jump\t// out\n        /* \"#utility.yul\":10314:10494   */\n    tag_53:\n        /* \"#utility.yul\":10362:10439   */\n      0x4e487b7100000000000000000000000000000000000000000000000000000000\n        /* \"#utility.yul\":10359:10360   */\n      0x00\n        /* \"#utility.yul\":10352:10440   */\n      mstore\n        /* \"#utility.yul\":10459:10463   */\n      0x32\n        /* \"#utility.yul\":10456:10457   */\n      0x04\n        /* \"#utility.yul\":10449:10464   */\n      mstore\n        /* \"#utility.yul\":10483:10487   */\n      0x24\n        /* \"#utility.yul\":10480:10481   */\n      0x00\n        /* \"#utility.yul\":10473:10488   */\n      revert\n        /* \"#utility.yul\":10500:10585   */\n    tag_129:\n        /* \"#utility.yul\":10545:10552   */\n      0x00\n        /* \"#utility.yul\":10574:10579   */\n      dup2\n        /* \"#utility.yul\":10563:10579   */\n      swap1\n      pop\n        /* \"#utility.yul\":10500:10585   */\n      swap2\n      swap1\n      pop\n      jump\t// out\n        /* \"#utility.yul\":10591:10677   */\n    tag_130:\n        /* \"#utility.yul\":10626:10633   */\n      0x00\n        /* \"#utility.yul\":10666:10670   */\n      0xff\n        /* \"#utility.yul\":10659:10664   */\n      dup3\n        /* \"#utility.yul\":10655:10671   */\n      and\n        /* \"#utility.yul\":10644:10671   */\n      swap1\n      pop\n        /* \"#utility.yul\":10591:10677   */\n      swap2\n      swap1\n      pop\n      jump\t// out\n        /* \"#utility.yul\":10683:10743   */\n    tag_131:\n        /* \"#utility.yul\":10711:10714   */\n      0x00\n        /* \"#utility.yul\":10732:10737   */\n      dup2\n        /* \"#utility.yul\":10725:10737   */\n      swap1\n      pop\n        /* \"#utility.yul\":10683:10743   */\n      swap2\n      swap1\n      pop\n      jump\t// out\n        /* \"#utility.yul\":10749:10903   */\n    tag_132:\n        /* \"#utility.yul\":10805:10814   */\n      0x00\n        /* \"#utility.yul\":10838:10897   */\n      tag_299\n        /* \"#utility.yul\":10854:10896   */\n      tag_300\n        /* \"#utility.yul\":10863:10895   */\n      tag_301\n        /* \"#utility.yul\":10889:10894   */\n      dup5\n        /* \"#utility.yul\":10863:10895   */\n      tag_129\n      jump\t// in\n    tag_301:\n        /* \"#utility.yul\":10854:10896   */\n      tag_131\n      jump\t// in\n    tag_300:\n        /* \"#utility.yul\":10838:10897   */\n      tag_130\n      jump\t// in\n    tag_299:\n        /* \"#utility.yul\":10825:10897   */\n      swap1\n      pop\n        /* \"#utility.yul\":10749:10903   */\n      swap2\n      swap1\n      pop\n      jump\t// out\n        /* \"#utility.yul\":10909:11052   */\n    tag_133:\n        /* \"#utility.yul\":11002:11045   */\n      tag_303\n        /* \"#utility.yul\":11039:11044   */\n      dup2\n        /* \"#utility.yul\":11002:11045   */\n      tag_132\n      jump\t// in\n    tag_303:\n        /* \"#utility.yul\":10997:11000   */\n      dup3\n        /* \"#utility.yul\":10990:11046   */\n      mstore\n        /* \"#utility.yul\":10909:11052   */\n      pop\n      pop\n      jump\t// out\n        /* \"#utility.yul\":11058:11292   */\n    tag_61:\n        /* \"#utility.yul\":11157:11161   */\n      0x00\n        /* \"#utility.yul\":11195:11197   */\n      0x20\n        /* \"#utility.yul\":11184:11193   */\n      dup3\n        /* \"#utility.yul\":11180:11198   */\n      add\n        /* \"#utility.yul\":11172:11198   */\n      swap1\n      pop\n        /* \"#utility.yul\":11208:11285   */\n      tag_305\n        /* \"#utility.yul\":11282:11283   */\n      0x00\n        /* \"#utility.yul\":11271:11280   */\n      dup4\n        /* \"#utility.yul\":11267:11284   */\n      add\n        /* \"#utility.yul\":11258:11264   */\n      dup5\n        /* \"#utility.yul\":11208:11285   */\n      tag_133\n      jump\t// in\n    tag_305:\n        /* \"#utility.yul\":11058:11292   */\n      swap3\n      swap2\n      pop\n      pop\n      jump\t// out\n        /* \"#utility.yul\":11298:11396   */\n    tag_134:\n        /* \"#utility.yul\":11349:11355   */\n      0x00\n        /* \"#utility.yul\":11383:11388   */\n      dup2\n        /* \"#utility.yul\":11377:11389   */\n      mload\n        /* \"#utility.yul\":11367:11389   */\n      swap1\n      pop\n        /* \"#utility.yul\":11298:11396   */\n      swap2\n      swap1\n      pop\n      jump\t// out\n        /* \"#utility.yul\":11402:11549   */\n    tag_135:\n        /* \"#utility.yul\":11503:11514   */\n      0x00\n        /* \"#utility.yul\":11540:11543   */\n      dup2\n        /* \"#utility.yul\":11525:11543   */\n      swap1\n      pop\n        /* \"#utility.yul\":11402:11549   */\n      swap3\n      swap2\n      pop\n      pop\n      jump\t// out\n        /* \"#utility.yul\":11555:11694   */\n    tag_136:\n        /* \"#utility.yul\":11644:11650   */\n      dup3\n        /* \"#utility.yul\":11639:11642   */\n      dup2\n        /* \"#utility.yul\":11634:11637   */\n      dup4\n        /* \"#utility.yul\":11628:11651   */\n      mcopy\n        /* \"#utility.yul\":11685:11686   */\n      0x00\n        /* \"#utility.yul\":11676:11682   */\n      dup4\n        /* \"#utility.yul\":11671:11674   */\n      dup4\n        /* \"#utility.yul\":11667:11683   */\n      add\n        /* \"#utility.yul\":11660:11687   */\n      mstore\n        /* \"#utility.yul\":11555:11694   */\n      pop\n      pop\n      pop\n      jump\t// out\n        /* \"#utility.yul\":11700:12086   */\n    tag_137:\n        /* \"#utility.yul\":11804:11807   */\n      0x00\n        /* \"#utility.yul\":11832:11870   */\n      tag_310\n        /* \"#utility.yul\":11864:11869   */\n      dup3\n        /* \"#utility.yul\":11832:11870   */\n      tag_134\n      jump\t// in\n    tag_310:\n        /* \"#utility.yul\":11886:11974   */\n      tag_311\n        /* \"#utility.yul\":11967:11973   */\n      dup2\n        /* \"#utility.yul\":11962:11965   */\n      dup6\n        /* \"#utility.yul\":11886:11974   */\n      tag_135\n      jump\t// in\n    tag_311:\n        /* \"#utility.yul\":11879:11974   */\n      swap4\n      pop\n        /* \"#utility.yul\":11983:12048   */\n      tag_312\n        /* \"#utility.yul\":12041:12047   */\n      dup2\n        /* \"#utility.yul\":12036:12039   */\n      dup6\n        /* \"#utility.yul\":12029:12033   */\n      0x20\n        /* \"#utility.yul\":12022:12027   */\n      dup7\n        /* \"#utility.yul\":12018:12034   */\n      add\n        /* \"#utility.yul\":11983:12048   */\n      tag_136\n      jump\t// in\n    tag_312:\n        /* \"#utility.yul\":12073:12079   */\n      dup1\n        /* \"#utility.yul\":12068:12071   */\n      dup5\n        /* \"#utility.yul\":12064:12080   */\n      add\n        /* \"#utility.yul\":12057:12080   */\n      swap2\n      pop\n        /* \"#utility.yul\":11808:12086   */\n      pop\n        /* \"#utility.yul\":11700:12086   */\n      swap3\n      swap2\n      pop\n      pop\n      jump\t// out\n        /* \"#utility.yul\":12092:12363   */\n    tag_63:\n        /* \"#utility.yul\":12222:12225   */\n      0x00\n        /* \"#utility.yul\":12244:12337   */\n      tag_314\n        /* \"#utility.yul\":12333:12336   */\n      dup3\n        /* \"#utility.yul\":12324:12330   */\n      dup5\n        /* \"#utility.yul\":12244:12337   */\n      tag_137\n      jump\t// in\n    tag_314:\n        /* \"#utility.yul\":12237:12337   */\n      swap2\n      pop\n        /* \"#utility.yul\":12354:12357   */\n      dup2\n        /* \"#utility.yul\":12347:12357   */\n      swap1\n      pop\n        /* \"#utility.yul\":12092:12363   */\n      swap3\n      swap2\n      pop\n      pop\n      jump\t// out\n        /* \"#utility.yul\":12369:12538   */\n    tag_138:\n        /* \"#utility.yul\":12453:12464   */\n      0x00\n        /* \"#utility.yul\":12487:12493   */\n      dup3\n        /* \"#utility.yul\":12482:12485   */\n      dup3\n        /* \"#utility.yul\":12475:12494   */\n      mstore\n        /* \"#utility.yul\":12527:12531   */\n      0x20\n        /* \"#utility.yul\":12522:12525   */\n      dup3\n        /* \"#utility.yul\":12518:12532   */\n      add\n        /* \"#utility.yul\":12503:12532   */\n      swap1\n      pop\n        /* \"#utility.yul\":12369:12538   */\n      swap3\n      swap2\n      pop\n      pop\n      jump\t// out\n        /* \"#utility.yul\":12544:12716   */\n    tag_139:\n        /* \"#utility.yul\":12684:12708   */\n      0x666978656453697a65506172616d53656c6563746f7200000000000000000000\n        /* \"#utility.yul\":12680:12681   */\n      0x00\n        /* \"#utility.yul\":12672:12678   */\n      dup3\n        /* \"#utility.yul\":12668:12682   */\n      add\n        /* \"#utility.yul\":12661:12709   */\n      mstore\n        /* \"#utility.yul\":12544:12716   */\n      pop\n      jump\t// out\n        /* \"#utility.yul\":12722:13088   */\n    tag_140:\n        /* \"#utility.yul\":12864:12867   */\n      0x00\n        /* \"#utility.yul\":12885:12952   */\n      tag_318\n        /* \"#utility.yul\":12949:12951   */\n      0x16\n        /* \"#utility.yul\":12944:12947   */\n      dup4\n        /* \"#utility.yul\":12885:12952   */\n      tag_138\n      jump\t// in\n    tag_318:\n        /* \"#utility.yul\":12878:12952   */\n      swap2\n      pop\n        /* \"#utility.yul\":12961:13054   */\n      tag_319\n        /* \"#utility.yul\":13050:13053   */\n      dup3\n        /* \"#utility.yul\":12961:13054   */\n      tag_139\n      jump\t// in\n    tag_319:\n        /* \"#utility.yul\":13079:13081   */\n      0x20\n        /* \"#utility.yul\":13074:13077   */\n      dup3\n        /* \"#utility.yul\":13070:13082   */\n      add\n        /* \"#utility.yul\":13063:13082   */\n      swap1\n      pop\n        /* \"#utility.yul\":12722:13088   */\n      swap2\n      swap1\n      pop\n      jump\t// out\n        /* \"#utility.yul\":13094:13184   */\n    tag_141:\n        /* \"#utility.yul\":13128:13135   */\n      0x00\n        /* \"#utility.yul\":13171:13176   */\n      dup2\n        /* \"#utility.yul\":13164:13177   */\n      iszero\n        /* \"#utility.yul\":13157:13178   */\n      iszero\n        /* \"#utility.yul\":13146:13178   */\n      swap1\n      pop\n        /* \"#utility.yul\":13094:13184   */\n      swap2\n      swap1\n      pop\n      jump\t// out\n        /* \"#utility.yul\":13190:13299   */\n    tag_142:\n        /* \"#utility.yul\":13271:13292   */\n      tag_322\n        /* \"#utility.yul\":13286:13291   */\n      dup2\n        /* \"#utility.yul\":13271:13292   */\n      tag_141\n      jump\t// in\n    tag_322:\n        /* \"#utility.yul\":13266:13269   */\n      dup3\n        /* \"#utility.yul\":13259:13293   */\n      mstore\n        /* \"#utility.yul\":13190:13299   */\n      pop\n      pop\n      jump\t// out\n        /* \"#utility.yul\":13305:13473   */\n    tag_143:\n        /* \"#utility.yul\":13388:13399   */\n      0x00\n        /* \"#utility.yul\":13422:13428   */\n      dup3\n        /* \"#utility.yul\":13417:13420   */\n      dup3\n        /* \"#utility.yul\":13410:13429   */\n      mstore\n        /* \"#utility.yul\":13462:13466   */\n      0x20\n        /* \"#utility.yul\":13457:13460   */\n      dup3\n        /* \"#utility.yul\":13453:13467   */\n      add\n        /* \"#utility.yul\":13438:13467   */\n      swap1\n      pop\n        /* \"#utility.yul\":13305:13473   */\n      swap3\n      swap2\n      pop\n      pop\n      jump\t// out\n        /* \"#utility.yul\":13479:13852   */\n    tag_144:\n        /* \"#utility.yul\":13565:13568   */\n      0x00\n        /* \"#utility.yul\":13593:13631   */\n      tag_325\n        /* \"#utility.yul\":13625:13630   */\n      dup3\n        /* \"#utility.yul\":13593:13631   */\n      tag_134\n      jump\t// in\n    tag_325:\n        /* \"#utility.yul\":13647:13717   */\n      tag_326\n        /* \"#utility.yul\":13710:13716   */\n      dup2\n        /* \"#utility.yul\":13705:13708   */\n      dup6\n        /* \"#utility.yul\":13647:13717   */\n      tag_143\n      jump\t// in\n    tag_326:\n        /* \"#utility.yul\":13640:13717   */\n      swap4\n      pop\n        /* \"#utility.yul\":13726:13791   */\n      tag_327\n        /* \"#utility.yul\":13784:13790   */\n      dup2\n        /* \"#utility.yul\":13779:13782   */\n      dup6\n        /* \"#utility.yul\":13772:13776   */\n      0x20\n        /* \"#utility.yul\":13765:13770   */\n      dup7\n        /* \"#utility.yul\":13761:13777   */\n      add\n        /* \"#utility.yul\":13726:13791   */\n      tag_136\n      jump\t// in\n    tag_327:\n        /* \"#utility.yul\":13816:13845   */\n      tag_328\n        /* \"#utility.yul\":13838:13844   */\n      dup2\n        /* \"#utility.yul\":13816:13845   */\n      tag_100\n      jump\t// in\n    tag_328:\n        /* \"#utility.yul\":13811:13814   */\n      dup5\n        /* \"#utility.yul\":13807:13846   */\n      add\n        /* \"#utility.yul\":13800:13846   */\n      swap2\n      pop\n        /* \"#utility.yul\":13569:13852   */\n      pop\n        /* \"#utility.yul\":13479:13852   */\n      swap3\n      swap2\n      pop\n      pop\n      jump\t// out\n        /* \"#utility.yul\":13858:14572   */\n    tag_68:\n        /* \"#utility.yul\":14092:14096   */\n      0x00\n        /* \"#utility.yul\":14130:14132   */\n      0x60\n        /* \"#utility.yul\":14119:14128   */\n      dup3\n        /* \"#utility.yul\":14115:14133   */\n      add\n        /* \"#utility.yul\":14107:14133   */\n      swap1\n      pop\n        /* \"#utility.yul\":14179:14188   */\n      dup2\n        /* \"#utility.yul\":14173:14177   */\n      dup2\n        /* \"#utility.yul\":14169:14189   */\n      sub\n        /* \"#utility.yul\":14165:14166   */\n      0x00\n        /* \"#utility.yul\":14154:14163   */\n      dup4\n        /* \"#utility.yul\":14150:14167   */\n      add\n        /* \"#utility.yul\":14143:14190   */\n      mstore\n        /* \"#utility.yul\":14207:14338   */\n      tag_330\n        /* \"#utility.yul\":14333:14337   */\n      dup2\n        /* \"#utility.yul\":14207:14338   */\n      tag_140\n      jump\t// in\n    tag_330:\n        /* \"#utility.yul\":14199:14338   */\n      swap1\n      pop\n        /* \"#utility.yul\":14348:14414   */\n      tag_331\n        /* \"#utility.yul\":14410:14412   */\n      0x20\n        /* \"#utility.yul\":14399:14408   */\n      dup4\n        /* \"#utility.yul\":14395:14413   */\n      add\n        /* \"#utility.yul\":14386:14392   */\n      dup6\n        /* \"#utility.yul\":14348:14414   */\n      tag_142\n      jump\t// in\n    tag_331:\n        /* \"#utility.yul\":14461:14470   */\n      dup2\n        /* \"#utility.yul\":14455:14459   */\n      dup2\n        /* \"#utility.yul\":14451:14471   */\n      sub\n        /* \"#utility.yul\":14446:14448   */\n      0x40\n        /* \"#utility.yul\":14435:14444   */\n      dup4\n        /* \"#utility.yul\":14431:14449   */\n      add\n        /* \"#utility.yul\":14424:14472   */\n      mstore\n        /* \"#utility.yul\":14489:14565   */\n      tag_332\n        /* \"#utility.yul\":14560:14564   */\n      dup2\n        /* \"#utility.yul\":14551:14557   */\n      dup5\n        /* \"#utility.yul\":14489:14565   */\n      tag_144\n      jump\t// in\n    tag_332:\n        /* \"#utility.yul\":14481:14565   */\n      swap1\n      pop\n        /* \"#utility.yul\":13858:14572   */\n      swap4\n      swap3\n      pop\n      pop\n      pop\n      jump\t// out\n        /* \"#utility.yul\":14578:14680   */\n    tag_145:\n        /* \"#utility.yul\":14641:14647   */\n      0x00\n        /* \"#utility.yul\":14669:14673   */\n      0x02\n        /* \"#utility.yul\":14659:14673   */\n      swap1\n      pop\n        /* \"#utility.yul\":14578:14680   */\n      swap2\n      swap1\n      pop\n      jump\t// out\n        /* \"#utility.yul\":14686:14827   */\n    tag_146:\n        /* \"#utility.yul\":14781:14792   */\n      0x00\n        /* \"#utility.yul\":14818:14821   */\n      dup2\n        /* \"#utility.yul\":14803:14821   */\n      swap1\n      pop\n        /* \"#utility.yul\":14686:14827   */\n      swap3\n      swap2\n      pop\n      pop\n      jump\t// out\n        /* \"#utility.yul\":14833:14929   */\n    tag_147:\n        /* \"#utility.yul\":14896:14900   */\n      0x00\n        /* \"#utility.yul\":14919:14922   */\n      dup2\n        /* \"#utility.yul\":14911:14922   */\n      swap1\n      pop\n        /* \"#utility.yul\":14833:14929   */\n      swap2\n      swap1\n      pop\n      jump\t// out\n        /* \"#utility.yul\":14935:15037   */\n    tag_148:\n        /* \"#utility.yul\":15008:15030   */\n      tag_337\n        /* \"#utility.yul\":15024:15029   */\n      dup2\n        /* \"#utility.yul\":15008:15030   */\n      tag_130\n      jump\t// in\n    tag_337:\n        /* \"#utility.yul\":15003:15006   */\n      dup3\n        /* \"#utility.yul\":14996:15031   */\n      mstore\n        /* \"#utility.yul\":14935:15037   */\n      pop\n      pop\n      jump\t// out\n        /* \"#utility.yul\":15043:15214   */\n    tag_149:\n        /* \"#utility.yul\":15108:15118   */\n      0x00\n        /* \"#utility.yul\":15129:15171   */\n      tag_339\n        /* \"#utility.yul\":15167:15170   */\n      dup4\n        /* \"#utility.yul\":15159:15165   */\n      dup4\n        /* \"#utility.yul\":15129:15171   */\n      tag_148\n      jump\t// in\n    tag_339:\n        /* \"#utility.yul\":15203:15207   */\n      0x20\n        /* \"#utility.yul\":15198:15201   */\n      dup4\n        /* \"#utility.yul\":15194:15208   */\n      add\n        /* \"#utility.yul\":15180:15208   */\n      swap1\n      pop\n        /* \"#utility.yul\":15043:15214   */\n      swap3\n      swap2\n      pop\n      pop\n      jump\t// out\n        /* \"#utility.yul\":15220:15329   */\n    tag_150:\n        /* \"#utility.yul\":15286:15290   */\n      0x00\n        /* \"#utility.yul\":15318:15322   */\n      0x20\n        /* \"#utility.yul\":15313:15316   */\n      dup3\n        /* \"#utility.yul\":15309:15323   */\n      add\n        /* \"#utility.yul\":15301:15323   */\n      swap1\n      pop\n        /* \"#utility.yul\":15220:15329   */\n      swap2\n      swap1\n      pop\n      jump\t// out\n        /* \"#utility.yul\":15363:16041   */\n    tag_151:\n        /* \"#utility.yul\":15495:15545   */\n      tag_342\n        /* \"#utility.yul\":15539:15544   */\n      dup2\n        /* \"#utility.yul\":15495:15545   */\n      tag_145\n      jump\t// in\n    tag_342:\n        /* \"#utility.yul\":15561:15643   */\n      tag_343\n        /* \"#utility.yul\":15636:15642   */\n      dup2\n        /* \"#utility.yul\":15631:15634   */\n      dup5\n        /* \"#utility.yul\":15561:15643   */\n      tag_146\n      jump\t// in\n    tag_343:\n        /* \"#utility.yul\":15554:15643   */\n      swap3\n      pop\n        /* \"#utility.yul\":15667:15719   */\n      tag_344\n        /* \"#utility.yul\":15713:15718   */\n      dup3\n        /* \"#utility.yul\":15667:15719   */\n      tag_147\n      jump\t// in\n    tag_344:\n        /* \"#utility.yul\":15742:15749   */\n      dup1\n        /* \"#utility.yul\":15773:15774   */\n      0x00\n        /* \"#utility.yul\":15758:16034   */\n    tag_345:\n        /* \"#utility.yul\":15783:15789   */\n      dup4\n        /* \"#utility.yul\":15780:15781   */\n      dup2\n        /* \"#utility.yul\":15777:15790   */\n      lt\n        /* \"#utility.yul\":15758:16034   */\n      iszero\n      tag_347\n      jumpi\n        /* \"#utility.yul\":15859:15865   */\n      dup2\n        /* \"#utility.yul\":15853:15866   */\n      mload\n        /* \"#utility.yul\":15886:15945   */\n      tag_348\n        /* \"#utility.yul\":15941:15944   */\n      dup8\n        /* \"#utility.yul\":15926:15939   */\n      dup3\n        /* \"#utility.yul\":15886:15945   */\n      tag_149\n      jump\t// in\n    tag_348:\n        /* \"#utility.yul\":15879:15945   */\n      swap7\n      pop\n        /* \"#utility.yul\":15968:16024   */\n      tag_349\n        /* \"#utility.yul\":16017:16023   */\n      dup4\n        /* \"#utility.yul\":15968:16024   */\n      tag_150\n      jump\t// in\n    tag_349:\n        /* \"#utility.yul\":15958:16024   */\n      swap3\n      pop\n        /* \"#utility.yul\":15818:16034   */\n      pop\n        /* \"#utility.yul\":15805:15806   */\n      0x01\n        /* \"#utility.yul\":15802:15803   */\n      dup2\n        /* \"#utility.yul\":15798:15807   */\n      add\n        /* \"#utility.yul\":15793:15807   */\n      swap1\n      pop\n        /* \"#utility.yul\":15758:16034   */\n      jump(tag_345)\n    tag_347:\n        /* \"#utility.yul\":15762:15776   */\n      pop\n        /* \"#utility.yul\":15471:16041   */\n      pop\n      pop\n      pop\n        /* \"#utility.yul\":15363:16041   */\n      pop\n      pop\n      jump\t// out\n        /* \"#utility.yul\":16047:16204   */\n    tag_152:\n        /* \"#utility.yul\":16187:16196   */\n      0x6e6f466978656400000000000000000000000000000000000000000000000000\n        /* \"#utility.yul\":16183:16184   */\n      0x00\n        /* \"#utility.yul\":16175:16181   */\n      dup3\n        /* \"#utility.yul\":16171:16185   */\n      add\n        /* \"#utility.yul\":16164:16197   */\n      mstore\n        /* \"#utility.yul\":16047:16204   */\n      pop\n      jump\t// out\n        /* \"#utility.yul\":16210:16575   */\n    tag_153:\n        /* \"#utility.yul\":16352:16355   */\n      0x00\n        /* \"#utility.yul\":16373:16439   */\n      tag_352\n        /* \"#utility.yul\":16437:16438   */\n      0x07\n        /* \"#utility.yul\":16432:16435   */\n      dup4\n        /* \"#utility.yul\":16373:16439   */\n      tag_138\n      jump\t// in\n    tag_352:\n        /* \"#utility.yul\":16366:16439   */\n      swap2\n      pop\n        /* \"#utility.yul\":16448:16541   */\n      tag_353\n        /* \"#utility.yul\":16537:16540   */\n      dup3\n        /* \"#utility.yul\":16448:16541   */\n      tag_152\n      jump\t// in\n    tag_353:\n        /* \"#utility.yul\":16566:16568   */\n      0x20\n        /* \"#utility.yul\":16561:16564   */\n      dup3\n        /* \"#utility.yul\":16557:16569   */\n      add\n        /* \"#utility.yul\":16550:16569   */\n      swap1\n      pop\n        /* \"#utility.yul\":16210:16575   */\n      swap2\n      swap1\n      pop\n      jump\t// out\n        /* \"#utility.yul\":16581:17194   */\n    tag_71:\n        /* \"#utility.yul\":16817:16821   */\n      0x00\n        /* \"#utility.yul\":16855:16857   */\n      0x60\n        /* \"#utility.yul\":16844:16853   */\n      dup3\n        /* \"#utility.yul\":16840:16858   */\n      add\n        /* \"#utility.yul\":16832:16858   */\n      swap1\n      pop\n        /* \"#utility.yul\":16868:16981   */\n      tag_355\n        /* \"#utility.yul\":16978:16979   */\n      0x00\n        /* \"#utility.yul\":16967:16976   */\n      dup4\n        /* \"#utility.yul\":16963:16980   */\n      add\n        /* \"#utility.yul\":16954:16960   */\n      dup5\n        /* \"#utility.yul\":16868:16981   */\n      tag_151\n      jump\t// in\n    tag_355:\n        /* \"#utility.yul\":17028:17037   */\n      dup2\n        /* \"#utility.yul\":17022:17026   */\n      dup2\n        /* \"#utility.yul\":17018:17038   */\n      sub\n        /* \"#utility.yul\":17013:17015   */\n      0x40\n        /* \"#utility.yul\":17002:17011   */\n      dup4\n        /* \"#utility.yul\":16998:17016   */\n      add\n        /* \"#utility.yul\":16991:17039   */\n      mstore\n        /* \"#utility.yul\":17056:17187   */\n      tag_356\n        /* \"#utility.yul\":17182:17186   */\n      dup2\n        /* \"#utility.yul\":17056:17187   */\n      tag_153\n      jump\t// in\n    tag_356:\n        /* \"#utility.yul\":17048:17187   */\n      swap1\n      pop\n        /* \"#utility.yul\":16581:17194   */\n      swap3\n      swap2\n      pop\n      pop\n      jump\t// out\n        /* \"#utility.yul\":17200:17374   */\n    tag_154:\n        /* \"#utility.yul\":17340:17366   */\n      0x6e6f466978656453697a65506172616d53656c6563746f720000000000000000\n        /* \"#utility.yul\":17336:17337   */\n      0x00\n        /* \"#utility.yul\":17328:17334   */\n      dup3\n        /* \"#utility.yul\":17324:17338   */\n      add\n        /* \"#utility.yul\":17317:17367   */\n      mstore\n        /* \"#utility.yul\":17200:17374   */\n      pop\n      jump\t// out\n        /* \"#utility.yul\":17380:17746   */\n    tag_155:\n        /* \"#utility.yul\":17522:17525   */\n      0x00\n        /* \"#utility.yul\":17543:17610   */\n      tag_359\n        /* \"#utility.yul\":17607:17609   */\n      0x18\n        /* \"#utility.yul\":17602:17605   */\n      dup4\n        /* \"#utility.yul\":17543:17610   */\n      tag_138\n      jump\t// in\n    tag_359:\n        /* \"#utility.yul\":17536:17610   */\n      swap2\n      pop\n        /* \"#utility.yul\":17619:17712   */\n      tag_360\n        /* \"#utility.yul\":17708:17711   */\n      dup3\n        /* \"#utility.yul\":17619:17712   */\n      tag_154\n      jump\t// in\n    tag_360:\n        /* \"#utility.yul\":17737:17739   */\n      0x20\n        /* \"#utility.yul\":17732:17735   */\n      dup3\n        /* \"#utility.yul\":17728:17740   */\n      add\n        /* \"#utility.yul\":17721:17740   */\n      swap1\n      pop\n        /* \"#utility.yul\":17380:17746   */\n      swap2\n      swap1\n      pop\n      jump\t// out\n        /* \"#utility.yul\":17752:18466   */\n    tag_77:\n        /* \"#utility.yul\":17986:17990   */\n      0x00\n        /* \"#utility.yul\":18024:18026   */\n      0x60\n        /* \"#utility.yul\":18013:18022   */\n      dup3\n        /* \"#utility.yul\":18009:18027   */\n      add\n        /* \"#utility.yul\":18001:18027   */\n      swap1\n      pop\n        /* \"#utility.yul\":18073:18082   */\n      dup2\n        /* \"#utility.yul\":18067:18071   */\n      dup2\n        /* \"#utility.yul\":18063:18083   */\n      sub\n        /* \"#utility.yul\":18059:18060   */\n      0x00\n        /* \"#utility.yul\":18048:18057   */\n      dup4\n        /* \"#utility.yul\":18044:18061   */\n      add\n        /* \"#utility.yul\":18037:18084   */\n      mstore\n        /* \"#utility.yul\":18101:18232   */\n      tag_362\n        /* \"#utility.yul\":18227:18231   */\n      dup2\n        /* \"#utility.yul\":18101:18232   */\n      tag_155\n      jump\t// in\n    tag_362:\n        /* \"#utility.yul\":18093:18232   */\n      swap1\n      pop\n        /* \"#utility.yul\":18242:18308   */\n      tag_363\n        /* \"#utility.yul\":18304:18306   */\n      0x20\n        /* \"#utility.yul\":18293:18302   */\n      dup4\n        /* \"#utility.yul\":18289:18307   */\n      add\n        /* \"#utility.yul\":18280:18286   */\n      dup6\n        /* \"#utility.yul\":18242:18308   */\n      tag_142\n      jump\t// in\n    tag_363:\n        /* \"#utility.yul\":18355:18364   */\n      dup2\n        /* \"#utility.yul\":18349:18353   */\n      dup2\n        /* \"#utility.yul\":18345:18365   */\n      sub\n        /* \"#utility.yul\":18340:18342   */\n      0x40\n        /* \"#utility.yul\":18329:18338   */\n      dup4\n        /* \"#utility.yul\":18325:18343   */\n      add\n        /* \"#utility.yul\":18318:18366   */\n      mstore\n        /* \"#utility.yul\":18383:18459   */\n      tag_364\n        /* \"#utility.yul\":18454:18458   */\n      dup2\n        /* \"#utility.yul\":18445:18451   */\n      dup5\n        /* \"#utility.yul\":18383:18459   */\n      tag_144\n      jump\t// in\n    tag_364:\n        /* \"#utility.yul\":18375:18459   */\n      swap1\n      pop\n        /* \"#utility.yul\":17752:18466   */\n      swap4\n      swap3\n      pop\n      pop\n      pop\n      jump\t// out\n        /* \"#utility.yul\":18472:18580   */\n    tag_156:\n        /* \"#utility.yul\":18549:18573   */\n      tag_366\n        /* \"#utility.yul\":18567:18572   */\n      dup2\n        /* \"#utility.yul\":18549:18573   */\n      tag_104\n      jump\t// in\n    tag_366:\n        /* \"#utility.yul\":18544:18547   */\n      dup3\n        /* \"#utility.yul\":18537:18574   */\n      mstore\n        /* \"#utility.yul\":18472:18580   */\n      pop\n      pop\n      jump\t// out\n        /* \"#utility.yul\":18586:18744   */\n    tag_157:\n        /* \"#utility.yul\":18659:18670   */\n      0x00\n        /* \"#utility.yul\":18693:18699   */\n      dup3\n        /* \"#utility.yul\":18688:18691   */\n      dup3\n        /* \"#utility.yul\":18681:18700   */\n      mstore\n        /* \"#utility.yul\":18733:18737   */\n      0x20\n        /* \"#utility.yul\":18728:18731   */\n      dup3\n        /* \"#utility.yul\":18724:18738   */\n      add\n        /* \"#utility.yul\":18709:18738   */\n      swap1\n      pop\n        /* \"#utility.yul\":18586:18744   */\n      swap3\n      swap2\n      pop\n      pop\n      jump\t// out\n        /* \"#utility.yul\":18750:19103   */\n    tag_158:\n        /* \"#utility.yul\":18826:18829   */\n      0x00\n        /* \"#utility.yul\":18854:18892   */\n      tag_369\n        /* \"#utility.yul\":18886:18891   */\n      dup3\n        /* \"#utility.yul\":18854:18892   */\n      tag_134\n      jump\t// in\n    tag_369:\n        /* \"#utility.yul\":18908:18968   */\n      tag_370\n        /* \"#utility.yul\":18961:18967   */\n      dup2\n        /* \"#utility.yul\":18956:18959   */\n      dup6\n        /* \"#utility.yul\":18908:18968   */\n      tag_157\n      jump\t// in\n    tag_370:\n        /* \"#utility.yul\":18901:18968   */\n      swap4\n      pop\n        /* \"#utility.yul\":18977:19042   */\n      tag_371\n        /* \"#utility.yul\":19035:19041   */\n      dup2\n        /* \"#utility.yul\":19030:19033   */\n      dup6\n        /* \"#utility.yul\":19023:19027   */\n      0x20\n        /* \"#utility.yul\":19016:19021   */\n      dup7\n        /* \"#utility.yul\":19012:19028   */\n      add\n        /* \"#utility.yul\":18977:19042   */\n      tag_136\n      jump\t// in\n    tag_371:\n        /* \"#utility.yul\":19067:19096   */\n      tag_372\n        /* \"#utility.yul\":19089:19095   */\n      dup2\n        /* \"#utility.yul\":19067:19096   */\n      tag_100\n      jump\t// in\n    tag_372:\n        /* \"#utility.yul\":19062:19065   */\n      dup5\n        /* \"#utility.yul\":19058:19097   */\n      add\n        /* \"#utility.yul\":19051:19097   */\n      swap2\n      pop\n        /* \"#utility.yul\":18830:19103   */\n      pop\n        /* \"#utility.yul\":18750:19103   */\n      swap3\n      swap2\n      pop\n      pop\n      jump\t// out\n        /* \"#utility.yul\":19173:19766   */\n    tag_159:\n        /* \"#utility.yul\":19282:19285   */\n      0x00\n        /* \"#utility.yul\":19318:19322   */\n      0x40\n        /* \"#utility.yul\":19313:19316   */\n      dup4\n        /* \"#utility.yul\":19309:19323   */\n      add\n        /* \"#utility.yul\":19404:19408   */\n      0x00\n        /* \"#utility.yul\":19397:19402   */\n      dup4\n        /* \"#utility.yul\":19393:19409   */\n      add\n        /* \"#utility.yul\":19387:19410   */\n      mload\n        /* \"#utility.yul\":19423:19486   */\n      tag_374\n        /* \"#utility.yul\":19480:19484   */\n      0x00\n        /* \"#utility.yul\":19475:19478   */\n      dup7\n        /* \"#utility.yul\":19471:19485   */\n      add\n        /* \"#utility.yul\":19457:19469   */\n      dup3\n        /* \"#utility.yul\":19423:19486   */\n      tag_156\n      jump\t// in\n    tag_374:\n        /* \"#utility.yul\":19333:19496   */\n      pop\n        /* \"#utility.yul\":19578:19582   */\n      0x20\n        /* \"#utility.yul\":19571:19576   */\n      dup4\n        /* \"#utility.yul\":19567:19583   */\n      add\n        /* \"#utility.yul\":19561:19584   */\n      mload\n        /* \"#utility.yul\":19631:19634   */\n      dup5\n        /* \"#utility.yul\":19625:19629   */\n      dup3\n        /* \"#utility.yul\":19621:19635   */\n      sub\n        /* \"#utility.yul\":19614:19618   */\n      0x20\n        /* \"#utility.yul\":19609:19612   */\n      dup7\n        /* \"#utility.yul\":19605:19619   */\n      add\n        /* \"#utility.yul\":19598:19636   */\n      mstore\n        /* \"#utility.yul\":19657:19728   */\n      tag_375\n        /* \"#utility.yul\":19723:19727   */\n      dup3\n        /* \"#utility.yul\":19709:19721   */\n      dup3\n        /* \"#utility.yul\":19657:19728   */\n      tag_158\n      jump\t// in\n    tag_375:\n        /* \"#utility.yul\":19649:19728   */\n      swap2\n      pop\n        /* \"#utility.yul\":19506:19739   */\n      pop\n        /* \"#utility.yul\":19756:19760   */\n      dup1\n        /* \"#utility.yul\":19749:19760   */\n      swap2\n      pop\n        /* \"#utility.yul\":19287:19766   */\n      pop\n        /* \"#utility.yul\":19173:19766   */\n      swap3\n      swap2\n      pop\n      pop\n      jump\t// out\n        /* \"#utility.yul\":19772:19952   */\n    tag_160:\n        /* \"#utility.yul\":19820:19897   */\n      0x4e487b7100000000000000000000000000000000000000000000000000000000\n        /* \"#utility.yul\":19817:19818   */\n      0x00\n        /* \"#utility.yul\":19810:19898   */\n      mstore\n        /* \"#utility.yul\":19917:19921   */\n      0x21\n        /* \"#utility.yul\":19914:19915   */\n      0x04\n        /* \"#utility.yul\":19907:19922   */\n      mstore\n        /* \"#utility.yul\":19941:19945   */\n      0x24\n        /* \"#utility.yul\":19938:19939   */\n      0x00\n        /* \"#utility.yul\":19931:19946   */\n      revert\n        /* \"#utility.yul\":19958:20072   */\n    tag_161:\n        /* \"#utility.yul\":20040:20041   */\n      0x03\n        /* \"#utility.yul\":20033:20038   */\n      dup2\n        /* \"#utility.yul\":20030:20042   */\n      lt\n        /* \"#utility.yul\":20020:20066   */\n      tag_378\n      jumpi\n        /* \"#utility.yul\":20046:20064   */\n      tag_379\n      tag_160\n      jump\t// in\n    tag_379:\n        /* \"#utility.yul\":20020:20066   */\n    tag_378:\n        /* \"#utility.yul\":19958:20072   */\n      pop\n      jump\t// out\n        /* \"#utility.yul\":20078:20207   */\n    tag_162:\n        /* \"#utility.yul\":20124:20131   */\n      0x00\n        /* \"#utility.yul\":20153:20158   */\n      dup2\n        /* \"#utility.yul\":20142:20158   */\n      swap1\n      pop\n        /* \"#utility.yul\":20159:20201   */\n      tag_381\n        /* \"#utility.yul\":20195:20200   */\n      dup3\n        /* \"#utility.yul\":20159:20201   */\n      tag_161\n      jump\t// in\n    tag_381:\n        /* \"#utility.yul\":20078:20207   */\n      swap2\n      swap1\n      pop\n      jump\t// out\n        /* \"#utility.yul\":20213:20342   */\n    tag_163:\n        /* \"#utility.yul\":20270:20279   */\n      0x00\n        /* \"#utility.yul\":20303:20336   */\n      tag_383\n        /* \"#utility.yul\":20330:20335   */\n      dup3\n        /* \"#utility.yul\":20303:20336   */\n      tag_162\n      jump\t// in\n    tag_383:\n        /* \"#utility.yul\":20290:20336   */\n      swap1\n      pop\n        /* \"#utility.yul\":20213:20342   */\n      swap2\n      swap1\n      pop\n      jump\t// out\n        /* \"#utility.yul\":20348:20493   */\n    tag_164:\n        /* \"#utility.yul\":20442:20486   */\n      tag_385\n        /* \"#utility.yul\":20480:20485   */\n      dup2\n        /* \"#utility.yul\":20442:20486   */\n      tag_163\n      jump\t// in\n    tag_385:\n        /* \"#utility.yul\":20437:20440   */\n      dup3\n        /* \"#utility.yul\":20430:20487   */\n      mstore\n        /* \"#utility.yul\":20348:20493   */\n      pop\n      pop\n      jump\t// out\n        /* \"#utility.yul\":20499:20976   */\n    tag_80:\n        /* \"#utility.yul\":20667:20671   */\n      0x00\n        /* \"#utility.yul\":20705:20707   */\n      0x40\n        /* \"#utility.yul\":20694:20703   */\n      dup3\n        /* \"#utility.yul\":20690:20708   */\n      add\n        /* \"#utility.yul\":20682:20708   */\n      swap1\n      pop\n        /* \"#utility.yul\":20754:20763   */\n      dup2\n        /* \"#utility.yul\":20748:20752   */\n      dup2\n        /* \"#utility.yul\":20744:20764   */\n      sub\n        /* \"#utility.yul\":20740:20741   */\n      0x00\n        /* \"#utility.yul\":20729:20738   */\n      dup4\n        /* \"#utility.yul\":20725:20742   */\n      add\n        /* \"#utility.yul\":20718:20765   */\n      mstore\n        /* \"#utility.yul\":20782:20880   */\n      tag_387\n        /* \"#utility.yul\":20875:20879   */\n      dup2\n        /* \"#utility.yul\":20866:20872   */\n      dup6\n        /* \"#utility.yul\":20782:20880   */\n      tag_159\n      jump\t// in\n    tag_387:\n        /* \"#utility.yul\":20774:20880   */\n      swap1\n      pop\n        /* \"#utility.yul\":20890:20969   */\n      tag_388\n        /* \"#utility.yul\":20965:20967   */\n      0x20\n        /* \"#utility.yul\":20954:20963   */\n      dup4\n        /* \"#utility.yul\":20950:20968   */\n      add\n        /* \"#utility.yul\":20941:20947   */\n      dup5\n        /* \"#utility.yul\":20890:20969   */\n      tag_164\n      jump\t// in\n    tag_388:\n        /* \"#utility.yul\":20499:20976   */\n      swap4\n      swap3\n      pop\n      pop\n      pop\n      jump\t// out\n        /* \"#utility.yul\":20982:21150   */\n    tag_165:\n        /* \"#utility.yul\":21122:21142   */\n      0x6d69786564506172616d53656c6563746f720000000000000000000000000000\n        /* \"#utility.yul\":21118:21119   */\n      0x00\n        /* \"#utility.yul\":21110:21116   */\n      dup3\n        /* \"#utility.yul\":21106:21120   */\n      add\n        /* \"#utility.yul\":21099:21143   */\n      mstore\n        /* \"#utility.yul\":20982:21150   */\n      pop\n      jump\t// out\n        /* \"#utility.yul\":21156:21522   */\n    tag_166:\n        /* \"#utility.yul\":21298:21301   */\n      0x00\n        /* \"#utility.yul\":21319:21386   */\n      tag_391\n        /* \"#utility.yul\":21383:21385   */\n      0x12\n        /* \"#utility.yul\":21378:21381   */\n      dup4\n        /* \"#utility.yul\":21319:21386   */\n      tag_138\n      jump\t// in\n    tag_391:\n        /* \"#utility.yul\":21312:21386   */\n      swap2\n      pop\n        /* \"#utility.yul\":21395:21488   */\n      tag_392\n        /* \"#utility.yul\":21484:21487   */\n      dup3\n        /* \"#utility.yul\":21395:21488   */\n      tag_165\n      jump\t// in\n    tag_392:\n        /* \"#utility.yul\":21513:21515   */\n      0x20\n        /* \"#utility.yul\":21508:21511   */\n      dup3\n        /* \"#utility.yul\":21504:21516   */\n      add\n        /* \"#utility.yul\":21497:21516   */\n      swap1\n      pop\n        /* \"#utility.yul\":21156:21522   */\n      swap2\n      swap1\n      pop\n      jump\t// out\n        /* \"#utility.yul\":21528:22242   */\n    tag_86:\n        /* \"#utility.yul\":21762:21766   */\n      0x00\n        /* \"#utility.yul\":21800:21802   */\n      0x60\n        /* \"#utility.yul\":21789:21798   */\n      dup3\n        /* \"#utility.yul\":21785:21803   */\n      add\n        /* \"#utility.yul\":21777:21803   */\n      swap1\n      pop\n        /* \"#utility.yul\":21849:21858   */\n      dup2\n        /* \"#utility.yul\":21843:21847   */\n      dup2\n        /* \"#utility.yul\":21839:21859   */\n      sub\n        /* \"#utility.yul\":21835:21836   */\n      0x00\n        /* \"#utility.yul\":21824:21833   */\n      dup4\n        /* \"#utility.yul\":21820:21837   */\n      add\n        /* \"#utility.yul\":21813:21860   */\n      mstore\n        /* \"#utility.yul\":21877:22008   */\n      tag_394\n        /* \"#utility.yul\":22003:22007   */\n      dup2\n        /* \"#utility.yul\":21877:22008   */\n      tag_166\n      jump\t// in\n    tag_394:\n        /* \"#utility.yul\":21869:22008   */\n      swap1\n      pop\n        /* \"#utility.yul\":22018:22084   */\n      tag_395\n        /* \"#utility.yul\":22080:22082   */\n      0x20\n        /* \"#utility.yul\":22069:22078   */\n      dup4\n        /* \"#utility.yul\":22065:22083   */\n      add\n        /* \"#utility.yul\":22056:22062   */\n      dup6\n        /* \"#utility.yul\":22018:22084   */\n      tag_142\n      jump\t// in\n    tag_395:\n        /* \"#utility.yul\":22131:22140   */\n      dup2\n        /* \"#utility.yul\":22125:22129   */\n      dup2\n        /* \"#utility.yul\":22121:22141   */\n      sub\n        /* \"#utility.yul\":22116:22118   */\n      0x40\n        /* \"#utility.yul\":22105:22114   */\n      dup4\n        /* \"#utility.yul\":22101:22119   */\n      add\n        /* \"#utility.yul\":22094:22142   */\n      mstore\n        /* \"#utility.yul\":22159:22235   */\n      tag_396\n        /* \"#utility.yul\":22230:22234   */\n      dup2\n        /* \"#utility.yul\":22221:22227   */\n      dup5\n        /* \"#utility.yul\":22159:22235   */\n      tag_144\n      jump\t// in\n    tag_396:\n        /* \"#utility.yul\":22151:22235   */\n      swap1\n      pop\n        /* \"#utility.yul\":21528:22242   */\n      swap4\n      swap3\n      pop\n      pop\n      pop\n      jump\t// out\n        /* \"#utility.yul\":22248:22366   */\n    tag_167:\n        /* \"#utility.yul\":22335:22359   */\n      tag_398\n        /* \"#utility.yul\":22353:22358   */\n      dup2\n        /* \"#utility.yul\":22335:22359   */\n      tag_126\n      jump\t// in\n    tag_398:\n        /* \"#utility.yul\":22330:22333   */\n      dup3\n        /* \"#utility.yul\":22323:22360   */\n      mstore\n        /* \"#utility.yul\":22248:22366   */\n      pop\n      pop\n      jump\t// out\n        /* \"#utility.yul\":22394:22708   */\n    tag_168:\n        /* \"#utility.yul\":22490:22493   */\n      0x00\n        /* \"#utility.yul\":22511:22581   */\n      tag_400\n        /* \"#utility.yul\":22574:22580   */\n      dup4\n        /* \"#utility.yul\":22569:22572   */\n      dup6\n        /* \"#utility.yul\":22511:22581   */\n      tag_143\n      jump\t// in\n    tag_400:\n        /* \"#utility.yul\":22504:22581   */\n      swap4\n      pop\n        /* \"#utility.yul\":22591:22647   */\n      tag_401\n        /* \"#utility.yul\":22640:22646   */\n      dup4\n        /* \"#utility.yul\":22635:22638   */\n      dup6\n        /* \"#utility.yul\":22628:22633   */\n      dup5\n        /* \"#utility.yul\":22591:22647   */\n      tag_110\n      jump\t// in\n    tag_401:\n        /* \"#utility.yul\":22672:22701   */\n      tag_402\n        /* \"#utility.yul\":22694:22700   */\n      dup4\n        /* \"#utility.yul\":22672:22701   */\n      tag_100\n      jump\t// in\n    tag_402:\n        /* \"#utility.yul\":22667:22670   */\n      dup5\n        /* \"#utility.yul\":22663:22702   */\n      add\n        /* \"#utility.yul\":22656:22702   */\n      swap1\n      pop\n        /* \"#utility.yul\":22394:22708   */\n      swap4\n      swap3\n      pop\n      pop\n      pop\n      jump\t// out\n        /* \"#utility.yul\":22714:23153   */\n    tag_89:\n        /* \"#utility.yul\":22863:22867   */\n      0x00\n        /* \"#utility.yul\":22901:22903   */\n      0x40\n        /* \"#utility.yul\":22890:22899   */\n      dup3\n        /* \"#utility.yul\":22886:22904   */\n      add\n        /* \"#utility.yul\":22878:22904   */\n      swap1\n      pop\n        /* \"#utility.yul\":22914:22985   */\n      tag_404\n        /* \"#utility.yul\":22982:22983   */\n      0x00\n        /* \"#utility.yul\":22971:22980   */\n      dup4\n        /* \"#utility.yul\":22967:22984   */\n      add\n        /* \"#utility.yul\":22958:22964   */\n      dup7\n        /* \"#utility.yul\":22914:22985   */\n      tag_167\n      jump\t// in\n    tag_404:\n        /* \"#utility.yul\":23032:23041   */\n      dup2\n        /* \"#utility.yul\":23026:23030   */\n      dup2\n        /* \"#utility.yul\":23022:23042   */\n      sub\n        /* \"#utility.yul\":23017:23019   */\n      0x20\n        /* \"#utility.yul\":23006:23015   */\n      dup4\n        /* \"#utility.yul\":23002:23020   */\n      add\n        /* \"#utility.yul\":22995:23043   */\n      mstore\n        /* \"#utility.yul\":23060:23146   */\n      tag_405\n        /* \"#utility.yul\":23141:23145   */\n      dup2\n        /* \"#utility.yul\":23132:23138   */\n      dup5\n        /* \"#utility.yul\":23124:23130   */\n      dup7\n        /* \"#utility.yul\":23060:23146   */\n      tag_168\n      jump\t// in\n    tag_405:\n        /* \"#utility.yul\":23052:23146   */\n      swap1\n      pop\n        /* \"#utility.yul\":22714:23153   */\n      swap5\n      swap4\n      pop\n      pop\n      pop\n      pop\n      jump\t// out\n        /* \"#utility.yul\":23159:23258   */\n    tag_169:\n        /* \"#utility.yul\":23211:23217   */\n      0x00\n        /* \"#utility.yul\":23245:23250   */\n      dup2\n        /* \"#utility.yul\":23239:23251   */\n      mload\n        /* \"#utility.yul\":23229:23251   */\n      swap1\n      pop\n        /* \"#utility.yul\":23159:23258   */\n      swap2\n      swap1\n      pop\n      jump\t// out\n        /* \"#utility.yul\":23264:23412   */\n    tag_170:\n        /* \"#utility.yul\":23366:23377   */\n      0x00\n        /* \"#utility.yul\":23403:23406   */\n      dup2\n        /* \"#utility.yul\":23388:23406   */\n      swap1\n      pop\n        /* \"#utility.yul\":23264:23412   */\n      swap3\n      swap2\n      pop\n      pop\n      jump\t// out\n        /* \"#utility.yul\":23418:23808   */\n    tag_171:\n        /* \"#utility.yul\":23524:23527   */\n      0x00\n        /* \"#utility.yul\":23552:23591   */\n      tag_409\n        /* \"#utility.yul\":23585:23590   */\n      dup3\n        /* \"#utility.yul\":23552:23591   */\n      tag_169\n      jump\t// in\n    tag_409:\n        /* \"#utility.yul\":23607:23696   */\n      tag_410\n        /* \"#utility.yul\":23689:23695   */\n      dup2\n        /* \"#utility.yul\":23684:23687   */\n      dup6\n        /* \"#utility.yul\":23607:23696   */\n      tag_170\n      jump\t// in\n    tag_410:\n        /* \"#utility.yul\":23600:23696   */\n      swap4\n      pop\n        /* \"#utility.yul\":23705:23770   */\n      tag_411\n        /* \"#utility.yul\":23763:23769   */\n      dup2\n        /* \"#utility.yul\":23758:23761   */\n      dup6\n        /* \"#utility.yul\":23751:23755   */\n      0x20\n        /* \"#utility.yul\":23744:23749   */\n      dup7\n        /* \"#utility.yul\":23740:23756   */\n      add\n        /* \"#utility.yul\":23705:23770   */\n      tag_136\n      jump\t// in\n    tag_411:\n        /* \"#utility.yul\":23795:23801   */\n      dup1\n        /* \"#utility.yul\":23790:23793   */\n      dup5\n        /* \"#utility.yul\":23786:23802   */\n      add\n        /* \"#utility.yul\":23779:23802   */\n      swap2\n      pop\n        /* \"#utility.yul\":23528:23808   */\n      pop\n        /* \"#utility.yul\":23418:23808   */\n      swap3\n      swap2\n      pop\n      pop\n      jump\t// out\n        /* \"#utility.yul\":23814:24089   */\n    tag_95:\n        /* \"#utility.yul\":23946:23949   */\n      0x00\n        /* \"#utility.yul\":23968:24063   */\n      tag_413\n        /* \"#utility.yul\":24059:24062   */\n      dup3\n        /* \"#utility.yul\":24050:24056   */\n      dup5\n        /* \"#utility.yul\":23968:24063   */\n      tag_171\n      jump\t// in\n    tag_413:\n        /* \"#utility.yul\":23961:24063   */\n      swap2\n      pop\n        /* \"#utility.yul\":24080:24083   */\n      dup2\n        /* \"#utility.yul\":24073:24083   */\n      swap1\n      pop\n        /* \"#utility.yul\":23814:24089   */\n      swap3\n      swap2\n      pop\n      pop\n      jump\t// out\n    stop\n    data_3538bd356be23899798408a13ab2ebaaf5dcd22d257108351152f0b17e3ba408 6d69786564506172616d53656c6563746f72282875696e743235362c6279746573292c75696e743829\n    data_40f86e92d821aef54405ffbfcfc4dbc040864608db3d55e63597e29214a85837 6e6f466965786453697a65506172616d53656c6563746f722875696e743235365b325d2c737472696e6729\n\n    auxdata: 0xa2646970667358221220258c12db875d862b9c05b79f7891d6d6098909679ee8fa90a0c909b6aafb7af664736f6c634300081a0033\n}\n",
				"bytecode": {
					"linkReferences": {},
					"object": "6080604052348015600e575f80fd5b5061144e8061001c5f395ff3fe608060405234801561000f575f80fd5b5060043610610060575f3560e01c80633538bd351461006457806340f86e921461009457806359ebea23146100c45780636a627842146100ce578063960c35ab146100ea578063974d89061461011a575b5f80fd5b61007e60048036038101906100799190610a55565b61014a565b60405161008b9190610ae9565b60405180910390f35b6100ae60048036038101906100a99190610c52565b6101bf565b6040516100bb9190610ae9565b60405180910390f35b6100cc610235565b005b6100e860048036038101906100e39190610d06565b610712565b005b61010460048036038101906100ff9190610d31565b610750565b6040516101119190610ae9565b60405180910390f35b610134600480360381019061012f9190610d5c565b6107d7565b6040516101419190610ae9565b60405180910390f35b5f7f87c76683e354abe8640b03c72d02c9175d9a00a6c0101d5bc4be081b9b8199eb633538bd3560e01b6040516101819190610ae9565b60405180910390a16101aa6040518060600160405280602981526020016113c5602991396107d7565b90506101b4610806565b92505f915092915050565b5f7f87c76683e354abe8640b03c72d02c9175d9a00a6c0101d5bc4be081b9b8199eb6340f86e9260e01b6040516101f69190610ae9565b60405180910390a161021f6040518060600160405280602b81526020016113ee602b91396107d7565b905061022961081f565b92506060915092915050565b5f600367ffffffffffffffff81111561025157610250610866565b5b60405190808252806020026020018201604052801561027f5781602001602082028036833780820191505090505b5090506001815f8151811061029757610296610da3565b5b6020026020010181815250506002816001815181106102b9576102b8610da3565b5b6020026020010181815250506003816002815181106102db576102da610da3565b5b6020026020010181815250506102ef610806565b6001815f0181815250506040518060400160405280600681526020017f307861306231000000000000000000000000000000000000000000000000000081525081602001819052505f80803073ffffffffffffffffffffffffffffffffffffffff1661038f6040518060400160405280601f81526020017f666978656453697a65506172616d53656c6563746f722875696e7432353629008152506107d7565b60016040516024016103a19190610e1e565b604051602081830303815290604052907bffffffffffffffffffffffffffffffffffffffffffffffffffffffff19166020820180517bffffffffffffffffffffffffffffffffffffffffffffffffffffffff838183161783525050505060405161040b9190610e89565b5f604051808303815f865af19150503d805f8114610444576040519150601f19603f3d011682016040523d82523d5f602084013e610449565b606091505b50915091507ff8caab1e18e8fd70b158951fd973eeba01ca7fa9ff856060bb14472660a1c994828260405161047f929190610f5b565b60405180910390a15f803073ffffffffffffffffffffffffffffffffffffffff166104c16040518060600160405280602b81526020016113ee602b91396107d7565b6040518060400160405280600160ff168152602001600260ff168152506040516024016104ee919061108b565b604051602081830303815290604052907bffffffffffffffffffffffffffffffffffffffffffffffffffffffff19166020820180517bffffffffffffffffffffffffffffffffffffffffffffffffffffffff83818316178352505050506040516105589190610e89565b5f604051808303815f865af19150503d805f8114610591576040519150601f19603f3d011682016040523d82523d5f602084013e610596565b606091505b50915091507ff8caab1e18e8fd70b158951fd973eeba01ca7fa9ff856060bb14472660a1c99482826040516105cc929190611101565b60405180910390a15f803073ffffffffffffffffffffffffffffffffffffffff1661060e6040518060600160405280602981526020016113c5602991396107d7565b8989604051602401610621929190611246565b604051602081830303815290604052907bffffffffffffffffffffffffffffffffffffffffffffffffffffffff19166020820180517bffffffffffffffffffffffffffffffffffffffffffffffffffffffff838183161783525050505060405161068b9190610e89565b5f604051808303815f865af19150503d805f81146106c4576040519150601f19603f3d011682016040523d82523d5f602084013e6106c9565b606091505b50915091507ff8caab1e18e8fd70b158951fd973eeba01ca7fa9ff856060bb14472660a1c99482826040516106ff9291906112be565b60405180910390a1505050505050505050565b7f3d4342015303e7c1e55fa1b6a8c1391f56e7290b109bb8b9aa858996910bae07815f366040516107459392919061133a565b60405180910390a150565b5f7f87c76683e354abe8640b03c72d02c9175d9a00a6c0101d5bc4be081b9b8199eb63960c35ab60e01b6040516107879190610ae9565b60405180910390a16107cd6040518060400160405280601f81526020017f666978656453697a65506172616d53656c6563746f722875696e7432353629008152506107d7565b90505f9150919050565b5f816040516020016107e991906113ae565b604051602081830303815290604052805190602001209050919050565b60405180604001604052805f8152602001606081525090565b6040518060400160405280600290602082028036833780820191505090505090565b5f604051905090565b5f80fd5b5f80fd5b5f80fd5b5f601f19601f8301169050919050565b7f4e487b71000000000000000000000000000000000000000000000000000000005f52604160045260245ffd5b61089c82610856565b810181811067ffffffffffffffff821117156108bb576108ba610866565b5b80604052505050565b5f6108cd610841565b90506108d98282610893565b919050565b5f80fd5b5f819050919050565b6108f4816108e2565b81146108fe575f80fd5b50565b5f8135905061090f816108eb565b92915050565b5f80fd5b5f80fd5b5f67ffffffffffffffff82111561093757610936610866565b5b61094082610856565b9050602081019050919050565b828183375f83830152505050565b5f61096d6109688461091d565b6108c4565b90508281526020810184848401111561098957610988610919565b5b61099484828561094d565b509392505050565b5f82601f8301126109b0576109af610915565b5b81356109c084826020860161095b565b91505092915050565b5f604082840312156109de576109dd610852565b5b6109e860406108c4565b90505f6109f784828501610901565b5f83015250602082013567ffffffffffffffff811115610a1a57610a196108de565b5b610a268482850161099c565b60208301525092915050565b60038110610a3e575f80fd5b50565b5f81359050610a4f81610a32565b92915050565b5f8060408385031215610a6b57610a6a61084a565b5b5f83013567ffffffffffffffff811115610a8857610a8761084e565b5b610a94858286016109c9565b9250506020610aa585828601610a41565b9150509250929050565b5f7fffffffff0000000000000000000000000000000000000000000000000000000082169050919050565b610ae381610aaf565b82525050565b5f602082019050610afc5f830184610ada565b92915050565b5f67ffffffffffffffff821115610b1c57610b1b610866565b5b602082029050919050565b5f80fd5b5f610b3d610b3884610b02565b6108c4565b90508060208402830185811115610b5757610b56610b27565b5b835b81811015610b805780610b6c8882610901565b845260208401935050602081019050610b59565b5050509392505050565b5f82601f830112610b9e57610b9d610915565b5b6002610bab848285610b2b565b91505092915050565b5f67ffffffffffffffff821115610bce57610bcd610866565b5b610bd782610856565b9050602081019050919050565b5f610bf6610bf184610bb4565b6108c4565b905082815260208101848484011115610c1257610c11610919565b5b610c1d84828561094d565b509392505050565b5f82601f830112610c3957610c38610915565b5b8135610c49848260208601610be4565b91505092915050565b5f8060608385031215610c6857610c6761084a565b5b5f610c7585828601610b8a565b925050604083013567ffffffffffffffff811115610c9657610c9561084e565b5b610ca285828601610c25565b9150509250929050565b5f73ffffffffffffffffffffffffffffffffffffffff82169050919050565b5f610cd582610cac565b9050919050565b610ce581610ccb565b8114610cef575f80fd5b50565b5f81359050610d0081610cdc565b92915050565b5f60208284031215610d1b57610d1a61084a565b5b5f610d2884828501610cf2565b91505092915050565b5f60208284031215610d4657610d4561084a565b5b5f610d5384828501610901565b91505092915050565b5f60208284031215610d7157610d7061084a565b5b5f82013567ffffffffffffffff811115610d8e57610d8d61084e565b5b610d9a84828501610c25565b91505092915050565b7f4e487b71000000000000000000000000000000000000000000000000000000005f52603260045260245ffd5b5f819050919050565b5f60ff82169050919050565b5f819050919050565b5f610e08610e03610dfe84610dd0565b610de5565b610dd9565b9050919050565b610e1881610dee565b82525050565b5f602082019050610e315f830184610e0f565b92915050565b5f81519050919050565b5f81905092915050565b8281835e5f83830152505050565b5f610e6382610e37565b610e6d8185610e41565b9350610e7d818560208601610e4b565b80840191505092915050565b5f610e948284610e59565b915081905092915050565b5f82825260208201905092915050565b7f666978656453697a65506172616d53656c6563746f72000000000000000000005f82015250565b5f610ee3601683610e9f565b9150610eee82610eaf565b602082019050919050565b5f8115159050919050565b610f0d81610ef9565b82525050565b5f82825260208201905092915050565b5f610f2d82610e37565b610f378185610f13565b9350610f47818560208601610e4b565b610f5081610856565b840191505092915050565b5f6060820190508181035f830152610f7281610ed7565b9050610f816020830185610f04565b8181036040830152610f938184610f23565b90509392505050565b5f60029050919050565b5f81905092915050565b5f819050919050565b610fc281610dd9565b82525050565b5f610fd38383610fb9565b60208301905092915050565b5f602082019050919050565b610ff481610f9c565b610ffe8184610fa6565b925061100982610fb0565b805f5b838110156110395781516110208782610fc8565b965061102b83610fdf565b92505060018101905061100c565b505050505050565b7f6e6f4669786564000000000000000000000000000000000000000000000000005f82015250565b5f611075600783610e9f565b915061108082611041565b602082019050919050565b5f60608201905061109e5f830184610feb565b81810360408301526110af81611069565b905092915050565b7f6e6f466978656453697a65506172616d53656c6563746f7200000000000000005f82015250565b5f6110eb601883610e9f565b91506110f6826110b7565b602082019050919050565b5f6060820190508181035f830152611118816110df565b90506111276020830185610f04565b81810360408301526111398184610f23565b90509392505050565b61114b816108e2565b82525050565b5f82825260208201905092915050565b5f61116b82610e37565b6111758185611151565b9350611185818560208601610e4b565b61118e81610856565b840191505092915050565b5f604083015f8301516111ae5f860182611142565b50602083015184820360208601526111c68282611161565b9150508091505092915050565b7f4e487b71000000000000000000000000000000000000000000000000000000005f52602160045260245ffd5b60038110611211576112106111d3565b5b50565b5f81905061122182611200565b919050565b5f61123082611214565b9050919050565b61124081611226565b82525050565b5f6040820190508181035f83015261125e8185611199565b905061126d6020830184611237565b9392505050565b7f6d69786564506172616d53656c6563746f7200000000000000000000000000005f82015250565b5f6112a8601283610e9f565b91506112b382611274565b602082019050919050565b5f6060820190508181035f8301526112d58161129c565b90506112e46020830185610f04565b81810360408301526112f68184610f23565b90509392505050565b61130881610ccb565b82525050565b5f6113198385610f13565b935061132683858461094d565b61132f83610856565b840190509392505050565b5f60408201905061134d5f8301866112ff565b818103602083015261136081848661130e565b9050949350505050565b5f81519050919050565b5f81905092915050565b5f6113888261136a565b6113928185611374565b93506113a2818560208601610e4b565b80840191505092915050565b5f6113b9828461137e565b91508190509291505056fe6d69786564506172616d53656c6563746f72282875696e743235362c6279746573292c75696e7438296e6f466965786453697a65506172616d53656c6563746f722875696e743235365b325d2c737472696e6729a2646970667358221220258c12db875d862b9c05b79f7891d6d6098909679ee8fa90a0c909b6aafb7af664736f6c634300081a0033",
					"opcodes": "PUSH1 0x80 PUSH1 0x40 MSTORE CALLVALUE DUP1 ISZERO PUSH1 0xE JUMPI PUSH0 DUP1 REVERT JUMPDEST POP PUSH2 0x144E DUP1 PUSH2 0x1C PUSH0 CODECOPY PUSH0 RETURN INVALID PUSH1 0x80 PUSH1 0x40 MSTORE CALLVALUE DUP1 ISZERO PUSH2 0xF JUMPI PUSH0 DUP1 REVERT JUMPDEST POP PUSH1 0x4 CALLDATASIZE LT PUSH2 0x60 JUMPI PUSH0 CALLDATALOAD PUSH1 0xE0 SHR DUP1 PUSH4 0x3538BD35 EQ PUSH2 0x64 JUMPI DUP1 PUSH4 0x40F86E92 EQ PUSH2 0x94 JUMPI DUP1 PUSH4 0x59EBEA23 EQ PUSH2 0xC4 JUMPI DUP1 PUSH4 0x6A627842 EQ PUSH2 0xCE JUMPI DUP1 PUSH4 0x960C35AB EQ PUSH2 0xEA JUMPI DUP1 PUSH4 0x974D8906 EQ PUSH2 0x11A JUMPI JUMPDEST PUSH0 DUP1 REVERT JUMPDEST PUSH2 0x7E PUSH1 0x4 DUP1 CALLDATASIZE SUB DUP2 ADD SWAP1 PUSH2 0x79 SWAP2 SWAP1 PUSH2 0xA55 JUMP JUMPDEST PUSH2 0x14A JUMP JUMPDEST PUSH1 0x40 MLOAD PUSH2 0x8B SWAP2 SWAP1 PUSH2 0xAE9 JUMP JUMPDEST PUSH1 0x40 MLOAD DUP1 SWAP2 SUB SWAP1 RETURN JUMPDEST PUSH2 0xAE PUSH1 0x4 DUP1 CALLDATASIZE SUB DUP2 ADD SWAP1 PUSH2 0xA9 SWAP2 SWAP1 PUSH2 0xC52 JUMP JUMPDEST PUSH2 0x1BF JUMP JUMPDEST PUSH1 0x40 MLOAD PUSH2 0xBB SWAP2 SWAP1 PUSH2 0xAE9 JUMP JUMPDEST PUSH1 0x40 MLOAD DUP1 SWAP2 SUB SWAP1 RETURN JUMPDEST PUSH2 0xCC PUSH2 0x235 JUMP JUMPDEST STOP JUMPDEST PUSH2 0xE8 PUSH1 0x4 DUP1 CALLDATASIZE SUB DUP2 ADD SWAP1 PUSH2 0xE3 SWAP2 SWAP1 PUSH2 0xD06 JUMP JUMPDEST PUSH2 0x712 JUMP JUMPDEST STOP JUMPDEST PUSH2 0x104 PUSH1 0x4 DUP1 CALLDATASIZE SUB DUP2 ADD SWAP1 PUSH2 0xFF SWAP2 SWAP1 PUSH2 0xD31 JUMP JUMPDEST PUSH2 0x750 JUMP JUMPDEST PUSH1 0x40 MLOAD PUSH2 0x111 SWAP2 SWAP1 PUSH2 0xAE9 JUMP JUMPDEST PUSH1 0x40 MLOAD DUP1 SWAP2 SUB SWAP1 RETURN JUMPDEST PUSH2 0x134 PUSH1 0x4 DUP1 CALLDATASIZE SUB DUP2 ADD SWAP1 PUSH2 0x12F SWAP2 SWAP1 PUSH2 0xD5C JUMP JUMPDEST PUSH2 0x7D7 JUMP JUMPDEST PUSH1 0x40 MLOAD PUSH2 0x141 SWAP2 SWAP1 PUSH2 0xAE9 JUMP JUMPDEST PUSH1 0x40 MLOAD DUP1 SWAP2 SUB SWAP1 RETURN JUMPDEST PUSH0 PUSH32 0x87C76683E354ABE8640B03C72D02C9175D9A00A6C0101D5BC4BE081B9B8199EB PUSH4 0x3538BD35 PUSH1 0xE0 SHL PUSH1 0x40 MLOAD PUSH2 0x181 SWAP2 SWAP1 PUSH2 0xAE9 JUMP JUMPDEST PUSH1 0x40 MLOAD DUP1 SWAP2 SUB SWAP1 LOG1 PUSH2 0x1AA PUSH1 0x40 MLOAD DUP1 PUSH1 0x60 ADD PUSH1 0x40 MSTORE DUP1 PUSH1 0x29 DUP2 MSTORE PUSH1 0x20 ADD PUSH2 0x13C5 PUSH1 0x29 SWAP2 CODECOPY PUSH2 0x7D7 JUMP JUMPDEST SWAP1 POP PUSH2 0x1B4 PUSH2 0x806 JUMP JUMPDEST SWAP3 POP PUSH0 SWAP2 POP SWAP3 SWAP2 POP POP JUMP JUMPDEST PUSH0 PUSH32 0x87C76683E354ABE8640B03C72D02C9175D9A00A6C0101D5BC4BE081B9B8199EB PUSH4 0x40F86E92 PUSH1 0xE0 SHL PUSH1 0x40 MLOAD PUSH2 0x1F6 SWAP2 SWAP1 PUSH2 0xAE9 JUMP JUMPDEST PUSH1 0x40 MLOAD DUP1 SWAP2 SUB SWAP1 LOG1 PUSH2 0x21F PUSH1 0x40 MLOAD DUP1 PUSH1 0x60 ADD PUSH1 0x40 MSTORE DUP1 PUSH1 0x2B DUP2 MSTORE PUSH1 0x20 ADD PUSH2 0x13EE PUSH1 0x2B SWAP2 CODECOPY PUSH2 0x7D7 JUMP JUMPDEST SWAP1 POP PUSH2 0x229 PUSH2 0x81F JUMP JUMPDEST SWAP3 POP PUSH1 0x60 SWAP2 POP SWAP3 SWAP2 POP POP JUMP JUMPDEST PUSH0 PUSH1 0x3 PUSH8 0xFFFFFFFFFFFFFFFF DUP2 GT ISZERO PUSH2 0x251 JUMPI PUSH2 0x250 PUSH2 0x866 JUMP JUMPDEST JUMPDEST PUSH1 0x40 MLOAD SWAP1 DUP1 DUP3 MSTORE DUP1 PUSH1 0x20 MUL PUSH1 0x20 ADD DUP3 ADD PUSH1 0x40 MSTORE DUP1 ISZERO PUSH2 0x27F JUMPI DUP2 PUSH1 0x20 ADD PUSH1 0x20 DUP3 MUL DUP1 CALLDATASIZE DUP4 CALLDATACOPY DUP1 DUP3 ADD SWAP2 POP POP SWAP1 POP JUMPDEST POP SWAP1 POP PUSH1 0x1 DUP2 PUSH0 DUP2 MLOAD DUP2 LT PUSH2 0x297 JUMPI PUSH2 0x296 PUSH2 0xDA3 JUMP JUMPDEST JUMPDEST PUSH1 0x20 MUL PUSH1 0x20 ADD ADD DUP2 DUP2 MSTORE POP POP PUSH1 0x2 DUP2 PUSH1 0x1 DUP2 MLOAD DUP2 LT PUSH2 0x2B9 JUMPI PUSH2 0x2B8 PUSH2 0xDA3 JUMP JUMPDEST JUMPDEST PUSH1 0x20 MUL PUSH1 0x20 ADD ADD DUP2 DUP2 MSTORE POP POP PUSH1 0x3 DUP2 PUSH1 0x2 DUP2 MLOAD DUP2 LT PUSH2 0x2DB JUMPI PUSH2 0x2DA PUSH2 0xDA3 JUMP JUMPDEST JUMPDEST PUSH1 0x20 MUL PUSH1 0x20 ADD ADD DUP2 DUP2 MSTORE POP POP PUSH2 0x2EF PUSH2 0x806 JUMP JUMPDEST PUSH1 0x1 DUP2 PUSH0 ADD DUP2 DUP2 MSTORE POP POP PUSH1 0x40 MLOAD DUP1 PUSH1 0x40 ADD PUSH1 0x40 MSTORE DUP1 PUSH1 0x6 DUP2 MSTORE PUSH1 0x20 ADD PUSH32 0x3078613062310000000000000000000000000000000000000000000000000000 DUP2 MSTORE POP DUP2 PUSH1 0x20 ADD DUP2 SWAP1 MSTORE POP PUSH0 DUP1 DUP1 ADDRESS PUSH20 0xFFFFFFFFFFFFFFFFFFFFFFFFFFFFFFFFFFFFFFFF AND PUSH2 0x38F PUSH1 0x40 MLOAD DUP1 PUSH1 0x40 ADD PUSH1 0x40 MSTORE DUP1 PUSH1 0x1F DUP2 MSTORE PUSH1 0x20 ADD PUSH32 0x666978656453697A65506172616D53656C6563746F722875696E743235362900 DUP2 MSTORE POP PUSH2 0x7D7 JUMP JUMPDEST PUSH1 0x1 PUSH1 0x40 MLOAD PUSH1 0x24 ADD PUSH2 0x3A1 SWAP2 SWAP1 PUSH2 0xE1E JUMP JUMPDEST PUSH1 0x40 MLOAD PUSH1 0x20 DUP2 DUP4 SUB SUB DUP2 MSTORE SWAP1 PUSH1 0x40 MSTORE SWAP1 PUSH28 0xFFFFFFFFFFFFFFFFFFFFFFFFFFFFFFFFFFFFFFFFFFFFFFFFFFFFFFFF NOT AND PUSH1 0x20 DUP3 ADD DUP1 MLOAD PUSH28 0xFFFFFFFFFFFFFFFFFFFFFFFFFFFFFFFFFFFFFFFFFFFFFFFFFFFFFFFF DUP4 DUP2 DUP4 AND OR DUP4 MSTORE POP POP POP POP PUSH1 0x40 MLOAD PUSH2 0x40B SWAP2 SWAP1 PUSH2 0xE89 JUMP JUMPDEST PUSH0 PUSH1 0x40 MLOAD DUP1 DUP4 SUB DUP2 PUSH0 DUP7 GAS CALL SWAP2 POP POP RETURNDATASIZE DUP1 PUSH0 DUP2 EQ PUSH2 0x444 JUMPI PUSH1 0x40 MLOAD SWAP2 POP PUSH1 0x1F NOT PUSH1 0x3F RETURNDATASIZE ADD AND DUP3 ADD PUSH1 0x40 MSTORE RETURNDATASIZE DUP3 MSTORE RETURNDATASIZE PUSH0 PUSH1 0x20 DUP5 ADD RETURNDATACOPY PUSH2 0x449 JUMP JUMPDEST PUSH1 0x60 SWAP2 POP JUMPDEST POP SWAP2 POP SWAP2 POP PUSH32 0xF8CAAB1E18E8FD70B158951FD973EEBA01CA7FA9FF856060BB14472660A1C994 DUP3 DUP3 PUSH1 0x40 MLOAD PUSH2 0x47F SWAP3 SWAP2 SWAP1 PUSH2 0xF5B JUMP JUMPDEST PUSH1 0x40 MLOAD DUP1 SWAP2 SUB SWAP1 LOG1 PUSH0 DUP1 ADDRESS PUSH20 0xFFFFFFFFFFFFFFFFFFFFFFFFFFFFFFFFFFFFFFFF AND PUSH2 0x4C1 PUSH1 0x40 MLOAD DUP1 PUSH1 0x60 ADD PUSH1 0x40 MSTORE DUP1 PUSH1 0x2B DUP2 MSTORE PUSH1 0x20 ADD PUSH2 0x13EE PUSH1 0x2B SWAP2 CODECOPY PUSH2 0x7D7 JUMP JUMPDEST PUSH1 0x40 MLOAD DUP1 PUSH1 0x40 ADD PUSH1 0x40 MSTORE DUP1 PUSH1 0x1 PUSH1 0xFF AND DUP2 MSTORE PUSH1 0x20 ADD PUSH1 0x2 PUSH1 0xFF AND DUP2 MSTORE POP PUSH1 0x40 MLOAD PUSH1 0x24 ADD PUSH2 0x4EE SWAP2 SWAP1 PUSH2 0x108B JUMP JUMPDEST PUSH1 0x40 MLOAD PUSH1 0x20 DUP2 DUP4 SUB SUB DUP2 MSTORE SWAP1 PUSH1 0x40 MSTORE SWAP1 PUSH28 0xFFFFFFFFFFFFFFFFFFFFFFFFFFFFFFFFFFFFFFFFFFFFFFFFFFFFFFFF NOT AND PUSH1 0x20 DUP3 ADD DUP1 MLOAD PUSH28 0xFFFFFFFFFFFFFFFFFFFFFFFFFFFFFFFFFFFFFFFFFFFFFFFFFFFFFFFF DUP4 DUP2 DUP4 AND OR DUP4 MSTORE POP POP POP POP PUSH1 0x40 MLOAD PUSH2 0x558 SWAP2 SWAP1 PUSH2 0xE89 JUMP JUMPDEST PUSH0 PUSH1 0x40 MLOAD DUP1 DUP4 SUB DUP2 PUSH0 DUP7 GAS CALL SWAP2 POP POP RETURNDATASIZE DUP1 PUSH0 DUP2 EQ PUSH2 0x591 JUMPI PUSH1 0x40 MLOAD SWAP2 POP PUSH1 0x1F NOT PUSH1 0x3F RETURNDATASIZE ADD AND DUP3 ADD PUSH1 0x40 MSTORE RETURNDATASIZE DUP3 MSTORE RETURNDATASIZE PUSH0 PUSH1 0x20 DUP5 ADD RETURNDATACOPY PUSH2 0x596 JUMP JUMPDEST PUSH1 0x60 SWAP2 POP JUMPDEST POP SWAP2 POP SWAP2 POP PUSH32 0xF8CAAB1E18E8FD70B158951FD973EEBA01CA7FA9FF856060BB14472660A1C994 DUP3 DUP3 PUSH1 0x40 MLOAD PUSH2 0x5CC SWAP3 SWAP2 SWAP1 PUSH2 0x1101 JUMP JUMPDEST PUSH1 0x40 MLOAD DUP1 SWAP2 SUB SWAP1 LOG1 PUSH0 DUP1 ADDRESS PUSH20 0xFFFFFFFFFFFFFFFFFFFFFFFFFFFFFFFFFFFFFFFF AND PUSH2 0x60E PUSH1 0x40 MLOAD DUP1 PUSH1 0x60 ADD PUSH1 0x40 MSTORE DUP1 PUSH1 0x29 DUP2 MSTORE PUSH1 0x20 ADD PUSH2 0x13C5 PUSH1 0x29 SWAP2 CODECOPY PUSH2 0x7D7 JUMP JUMPDEST DUP10 DUP10 PUSH1 0x40 MLOAD PUSH1 0x24 ADD PUSH2 0x621 SWAP3 SWAP2 SWAP1 PUSH2 0x1246 JUMP JUMPDEST PUSH1 0x40 MLOAD PUSH1 0x20 DUP2 DUP4 SUB SUB DUP2 MSTORE SWAP1 PUSH1 0x40 MSTORE SWAP1 PUSH28 0xFFFFFFFFFFFFFFFFFFFFFFFFFFFFFFFFFFFFFFFFFFFFFFFFFFFFFFFF NOT AND PUSH1 0x20 DUP3 ADD DUP1 MLOAD PUSH28 0xFFFFFFFFFFFFFFFFFFFFFFFFFFFFFFFFFFFFFFFFFFFFFFFFFFFFFFFF DUP4 DUP2 DUP4 AND OR DUP4 MSTORE POP POP POP POP PUSH1 0x40 MLOAD PUSH2 0x68B SWAP2 SWAP1 PUSH2 0xE89 JUMP JUMPDEST PUSH0 PUSH1 0x40 MLOAD DUP1 DUP4 SUB DUP2 PUSH0 DUP7 GAS CALL SWAP2 POP POP RETURNDATASIZE DUP1 PUSH0 DUP2 EQ PUSH2 0x6C4 JUMPI PUSH1 0x40 MLOAD SWAP2 POP PUSH1 0x1F NOT PUSH1 0x3F RETURNDATASIZE ADD AND DUP3 ADD PUSH1 0x40 MSTORE RETURNDATASIZE DUP3 MSTORE RETURNDATASIZE PUSH0 PUSH1 0x20 DUP5 ADD RETURNDATACOPY PUSH2 0x6C9 JUMP JUMPDEST PUSH1 0x60 SWAP2 POP JUMPDEST POP SWAP2 POP SWAP2 POP PUSH32 0xF8CAAB1E18E8FD70B158951FD973EEBA01CA7FA9FF856060BB14472660A1C994 DUP3 DUP3 PUSH1 0x40 MLOAD PUSH2 0x6FF SWAP3 SWAP2 SWAP1 PUSH2 0x12BE JUMP JUMPDEST PUSH1 0x40 MLOAD DUP1 SWAP2 SUB SWAP1 LOG1 POP POP POP POP POP POP POP POP POP JUMP JUMPDEST PUSH32 0x3D4342015303E7C1E55FA1B6A8C1391F56E7290B109BB8B9AA858996910BAE07 DUP2 PUSH0 CALLDATASIZE PUSH1 0x40 MLOAD PUSH2 0x745 SWAP4 SWAP3 SWAP2 SWAP1 PUSH2 0x133A JUMP JUMPDEST PUSH1 0x40 MLOAD DUP1 SWAP2 SUB SWAP1 LOG1 POP JUMP JUMPDEST PUSH0 PUSH32 0x87C76683E354ABE8640B03C72D02C9175D9A00A6C0101D5BC4BE081B9B8199EB PUSH4 0x960C35AB PUSH1 0xE0 SHL PUSH1 0x40 MLOAD PUSH2 0x787 SWAP2 SWAP1 PUSH2 0xAE9 JUMP JUMPDEST PUSH1 0x40 MLOAD DUP1 SWAP2 SUB SWAP1 LOG1 PUSH2 0x7CD PUSH1 0x40 MLOAD DUP1 PUSH1 0x40 ADD PUSH1 0x40 MSTORE DUP1 PUSH1 0x1F DUP2 MSTORE PUSH1 0x20 ADD PUSH32 0x666978656453697A65506172616D53656C6563746F722875696E743235362900 DUP2 MSTORE POP PUSH2 0x7D7 JUMP JUMPDEST SWAP1 POP PUSH0 SWAP2 POP SWAP2 SWAP1 POP JUMP JUMPDEST PUSH0 DUP2 PUSH1 0x40 MLOAD PUSH1 0x20 ADD PUSH2 0x7E9 SWAP2 SWAP1 PUSH2 0x13AE JUMP JUMPDEST PUSH1 0x40 MLOAD PUSH1 0x20 DUP2 DUP4 SUB SUB DUP2 MSTORE SWAP1 PUSH1 0x40 MSTORE DUP1 MLOAD SWAP1 PUSH1 0x20 ADD KECCAK256 SWAP1 POP SWAP2 SWAP1 POP JUMP JUMPDEST PUSH1 0x40 MLOAD DUP1 PUSH1 0x40 ADD PUSH1 0x40 MSTORE DUP1 PUSH0 DUP2 MSTORE PUSH1 0x20 ADD PUSH1 0x60 DUP2 MSTORE POP SWAP1 JUMP JUMPDEST PUSH1 0x40 MLOAD DUP1 PUSH1 0x40 ADD PUSH1 0x40 MSTORE DUP1 PUSH1 0x2 SWAP1 PUSH1 0x20 DUP3 MUL DUP1 CALLDATASIZE DUP4 CALLDATACOPY DUP1 DUP3 ADD SWAP2 POP POP SWAP1 POP POP SWAP1 JUMP JUMPDEST PUSH0 PUSH1 0x40 MLOAD SWAP1 POP SWAP1 JUMP JUMPDEST PUSH0 DUP1 REVERT JUMPDEST PUSH0 DUP1 REVERT JUMPDEST PUSH0 DUP1 REVERT JUMPDEST PUSH0 PUSH1 0x1F NOT PUSH1 0x1F DUP4 ADD AND SWAP1 POP SWAP2 SWAP1 POP JUMP JUMPDEST PUSH32 0x4E487B7100000000000000000000000000000000000000000000000000000000 PUSH0 MSTORE PUSH1 0x41 PUSH1 0x4 MSTORE PUSH1 0x24 PUSH0 REVERT JUMPDEST PUSH2 0x89C DUP3 PUSH2 0x856 JUMP JUMPDEST DUP2 ADD DUP2 DUP2 LT PUSH8 0xFFFFFFFFFFFFFFFF DUP3 GT OR ISZERO PUSH2 0x8BB JUMPI PUSH2 0x8BA PUSH2 0x866 JUMP JUMPDEST JUMPDEST DUP1 PUSH1 0x40 MSTORE POP POP POP JUMP JUMPDEST PUSH0 PUSH2 0x8CD PUSH2 0x841 JUMP JUMPDEST SWAP1 POP PUSH2 0x8D9 DUP3 DUP3 PUSH2 0x893 JUMP JUMPDEST SWAP2 SWAP1 POP JUMP JUMPDEST PUSH0 DUP1 REVERT JUMPDEST PUSH0 DUP2 SWAP1 POP SWAP2 SWAP1 POP JUMP JUMPDEST PUSH2 0x8F4 DUP2 PUSH2 0x8E2 JUMP JUMPDEST DUP2 EQ PUSH2 0x8FE JUMPI PUSH0 DUP1 REVERT JUMPDEST POP JUMP JUMPDEST PUSH0 DUP2 CALLDATALOAD SWAP1 POP PUSH2 0x90F DUP2 PUSH2 0x8EB JUMP JUMPDEST SWAP3 SWAP2 POP POP JUMP JUMPDEST PUSH0 DUP1 REVERT JUMPDEST PUSH0 DUP1 REVERT JUMPDEST PUSH0 PUSH8 0xFFFFFFFFFFFFFFFF DUP3 GT ISZERO PUSH2 0x937 JUMPI PUSH2 0x936 PUSH2 0x866 JUMP JUMPDEST JUMPDEST PUSH2 0x940 DUP3 PUSH2 0x856 JUMP JUMPDEST SWAP1 POP PUSH1 0x20 DUP2 ADD SWAP1 POP SWAP2 SWAP1 POP JUMP JUMPDEST DUP3 DUP2 DUP4 CALLDATACOPY PUSH0 DUP4 DUP4 ADD MSTORE POP POP POP JUMP JUMPDEST PUSH0 PUSH2 0x96D PUSH2 0x968 DUP5 PUSH2 0x91D JUMP JUMPDEST PUSH2 0x8C4 JUMP JUMPDEST SWAP1 POP DUP3 DUP2 MSTORE PUSH1 0x20 DUP2 ADD DUP5 DUP5 DUP5 ADD GT ISZERO PUSH2 0x989 JUMPI PUSH2 0x988 PUSH2 0x919 JUMP JUMPDEST JUMPDEST PUSH2 0x994 DUP5 DUP3 DUP6 PUSH2 0x94D JUMP JUMPDEST POP SWAP4 SWAP3 POP POP POP JUMP JUMPDEST PUSH0 DUP3 PUSH1 0x1F DUP4 ADD SLT PUSH2 0x9B0 JUMPI PUSH2 0x9AF PUSH2 0x915 JUMP JUMPDEST JUMPDEST DUP2 CALLDATALOAD PUSH2 0x9C0 DUP5 DUP3 PUSH1 0x20 DUP7 ADD PUSH2 0x95B JUMP JUMPDEST SWAP2 POP POP SWAP3 SWAP2 POP POP JUMP JUMPDEST PUSH0 PUSH1 0x40 DUP3 DUP5 SUB SLT ISZERO PUSH2 0x9DE JUMPI PUSH2 0x9DD PUSH2 0x852 JUMP JUMPDEST JUMPDEST PUSH2 0x9E8 PUSH1 0x40 PUSH2 0x8C4 JUMP JUMPDEST SWAP1 POP PUSH0 PUSH2 0x9F7 DUP5 DUP3 DUP6 ADD PUSH2 0x901 JUMP JUMPDEST PUSH0 DUP4 ADD MSTORE POP PUSH1 0x20 DUP3 ADD CALLDATALOAD PUSH8 0xFFFFFFFFFFFFFFFF DUP2 GT ISZERO PUSH2 0xA1A JUMPI PUSH2 0xA19 PUSH2 0x8DE JUMP JUMPDEST JUMPDEST PUSH2 0xA26 DUP5 DUP3 DUP6 ADD PUSH2 0x99C JUMP JUMPDEST PUSH1 0x20 DUP4 ADD MSTORE POP SWAP3 SWAP2 POP POP JUMP JUMPDEST PUSH1 0x3 DUP2 LT PUSH2 0xA3E JUMPI PUSH0 DUP1 REVERT JUMPDEST POP JUMP JUMPDEST PUSH0 DUP2 CALLDATALOAD SWAP1 POP PUSH2 0xA4F DUP2 PUSH2 0xA32 JUMP JUMPDEST SWAP3 SWAP2 POP POP JUMP JUMPDEST PUSH0 DUP1 PUSH1 0x40 DUP4 DUP6 SUB SLT ISZERO PUSH2 0xA6B JUMPI PUSH2 0xA6A PUSH2 0x84A JUMP JUMPDEST JUMPDEST PUSH0 DUP4 ADD CALLDATALOAD PUSH8 0xFFFFFFFFFFFFFFFF DUP2 GT ISZERO PUSH2 0xA88 JUMPI PUSH2 0xA87 PUSH2 0x84E JUMP JUMPDEST JUMPDEST PUSH2 0xA94 DUP6 DUP3 DUP7 ADD PUSH2 0x9C9 JUMP JUMPDEST SWAP3 POP POP PUSH1 0x20 PUSH2 0xAA5 DUP6 DUP3 DUP7 ADD PUSH2 0xA41 JUMP JUMPDEST SWAP2 POP POP SWAP3 POP SWAP3 SWAP1 POP JUMP JUMPDEST PUSH0 PUSH32 0xFFFFFFFF00000000000000000000000000000000000000000000000000000000 DUP3 AND SWAP1 POP SWAP2 SWAP1 POP JUMP JUMPDEST PUSH2 0xAE3 DUP2 PUSH2 0xAAF JUMP JUMPDEST DUP3 MSTORE POP POP JUMP JUMPDEST PUSH0 PUSH1 0x20 DUP3 ADD SWAP1 POP PUSH2 0xAFC PUSH0 DUP4 ADD DUP5 PUSH2 0xADA JUMP JUMPDEST SWAP3 SWAP2 POP POP JUMP JUMPDEST PUSH0 PUSH8 0xFFFFFFFFFFFFFFFF DUP3 GT ISZERO PUSH2 0xB1C JUMPI PUSH2 0xB1B PUSH2 0x866 JUMP JUMPDEST JUMPDEST PUSH1 0x20 DUP3 MUL SWAP1 POP SWAP2 SWAP1 POP JUMP JUMPDEST PUSH0 DUP1 REVERT JUMPDEST PUSH0 PUSH2 0xB3D PUSH2 0xB38 DUP5 PUSH2 0xB02 JUMP JUMPDEST PUSH2 0x8C4 JUMP JUMPDEST SWAP1 POP DUP1 PUSH1 0x20 DUP5 MUL DUP4 ADD DUP6 DUP2 GT ISZERO PUSH2 0xB57 JUMPI PUSH2 0xB56 PUSH2 0xB27 JUMP JUMPDEST JUMPDEST DUP4 JUMPDEST DUP2 DUP2 LT ISZERO PUSH2 0xB80 JUMPI DUP1 PUSH2 0xB6C DUP9 DUP3 PUSH2 0x901 JUMP JUMPDEST DUP5 MSTORE PUSH1 0x20 DUP5 ADD SWAP4 POP POP PUSH1 0x20 DUP2 ADD SWAP1 POP PUSH2 0xB59 JUMP JUMPDEST POP POP POP SWAP4 SWAP3 POP POP POP JUMP JUMPDEST PUSH0 DUP3 PUSH1 0x1F DUP4 ADD SLT PUSH2 0xB9E JUMPI PUSH2 0xB9D PUSH2 0x915 JUMP JUMPDEST JUMPDEST PUSH1 0x2 PUSH2 0xBAB DUP5 DUP3 DUP6 PUSH2 0xB2B JUMP JUMPDEST SWAP2 POP POP SWAP3 SWAP2 POP POP JUMP JUMPDEST PUSH0 PUSH8 0xFFFFFFFFFFFFFFFF DUP3 GT ISZERO PUSH2 0xBCE JUMPI PUSH2 0xBCD PUSH2 0x866 JUMP JUMPDEST JUMPDEST PUSH2 0xBD7 DUP3 PUSH2 0x856 JUMP JUMPDEST SWAP1 POP PUSH1 0x20 DUP2 ADD SWAP1 POP SWAP2 SWAP1 POP JUMP JUMPDEST PUSH0 PUSH2 0xBF6 PUSH2 0xBF1 DUP5 PUSH2 0xBB4 JUMP JUMPDEST PUSH2 0x8C4 JUMP JUMPDEST SWAP1 POP DUP3 DUP2 MSTORE PUSH1 0x20 DUP2 ADD DUP5 DUP5 DUP5 ADD GT ISZERO PUSH2 0xC12 JUMPI PUSH2 0xC11 PUSH2 0x919 JUMP JUMPDEST JUMPDEST PUSH2 0xC1D DUP5 DUP3 DUP6 PUSH2 0x94D JUMP JUMPDEST POP SWAP4 SWAP3 POP POP POP JUMP JUMPDEST PUSH0 DUP3 PUSH1 0x1F DUP4 ADD SLT PUSH2 0xC39 JUMPI PUSH2 0xC38 PUSH2 0x915 JUMP JUMPDEST JUMPDEST DUP2 CALLDATALOAD PUSH2 0xC49 DUP5 DUP3 PUSH1 0x20 DUP7 ADD PUSH2 0xBE4 JUMP JUMPDEST SWAP2 POP POP SWAP3 SWAP2 POP POP JUMP JUMPDEST PUSH0 DUP1 PUSH1 0x60 DUP4 DUP6 SUB SLT ISZERO PUSH2 0xC68 JUMPI PUSH2 0xC67 PUSH2 0x84A JUMP JUMPDEST JUMPDEST PUSH0 PUSH2 0xC75 DUP6 DUP3 DUP7 ADD PUSH2 0xB8A JUMP JUMPDEST SWAP3 POP POP PUSH1 0x40 DUP4 ADD CALLDATALOAD PUSH8 0xFFFFFFFFFFFFFFFF DUP2 GT ISZERO PUSH2 0xC96 JUMPI PUSH2 0xC95 PUSH2 0x84E JUMP JUMPDEST JUMPDEST PUSH2 0xCA2 DUP6 DUP3 DUP7 ADD PUSH2 0xC25 JUMP JUMPDEST SWAP2 POP POP SWAP3 POP SWAP3 SWAP1 POP JUMP JUMPDEST PUSH0 PUSH20 0xFFFFFFFFFFFFFFFFFFFFFFFFFFFFFFFFFFFFFFFF DUP3 AND SWAP1 POP SWAP2 SWAP1 POP JUMP JUMPDEST PUSH0 PUSH2 0xCD5 DUP3 PUSH2 0xCAC JUMP JUMPDEST SWAP1 POP SWAP2 SWAP1 POP JUMP JUMPDEST PUSH2 0xCE5 DUP2 PUSH2 0xCCB JUMP JUMPDEST DUP2 EQ PUSH2 0xCEF JUMPI PUSH0 DUP1 REVERT JUMPDEST POP JUMP JUMPDEST PUSH0 DUP2 CALLDATALOAD SWAP1 POP PUSH2 0xD00 DUP2 PUSH2 0xCDC JUMP JUMPDEST SWAP3 SWAP2 POP POP JUMP JUMPDEST PUSH0 PUSH1 0x20 DUP3 DUP5 SUB SLT ISZERO PUSH2 0xD1B JUMPI PUSH2 0xD1A PUSH2 0x84A JUMP JUMPDEST JUMPDEST PUSH0 PUSH2 0xD28 DUP5 DUP3 DUP6 ADD PUSH2 0xCF2 JUMP JUMPDEST SWAP2 POP POP SWAP3 SWAP2 POP POP JUMP JUMPDEST PUSH0 PUSH1 0x20 DUP3 DUP5 SUB SLT ISZERO PUSH2 0xD46 JUMPI PUSH2 0xD45 PUSH2 0x84A JUMP JUMPDEST JUMPDEST PUSH0 PUSH2 0xD53 DUP5 DUP3 DUP6 ADD PUSH2 0x901 JUMP JUMPDEST SWAP2 POP POP SWAP3 SWAP2 POP POP JUMP JUMPDEST PUSH0 PUSH1 0x20 DUP3 DUP5 SUB SLT ISZERO PUSH2 0xD71 JUMPI PUSH2 0xD70 PUSH2 0x84A JUMP JUMPDEST JUMPDEST PUSH0 DUP3 ADD CALLDATALOAD PUSH8 0xFFFFFFFFFFFFFFFF DUP2 GT ISZERO PUSH2 0xD8E JUMPI PUSH2 0xD8D PUSH2 0x84E JUMP JUMPDEST JUMPDEST PUSH2 0xD9A DUP5 DUP3 DUP6 ADD PUSH2 0xC25 JUMP JUMPDEST SWAP2 POP POP SWAP3 SWAP2 POP POP JUMP JUMPDEST PUSH32 0x4E487B7100000000000000000000000000000000000000000000000000000000 PUSH0 MSTORE PUSH1 0x32 PUSH1 0x4 MSTORE PUSH1 0x24 PUSH0 REVERT JUMPDEST PUSH0 DUP2 SWAP1 POP SWAP2 SWAP1 POP JUMP JUMPDEST PUSH0 PUSH1 0xFF DUP3 AND SWAP1 POP SWAP2 SWAP1 POP JUMP JUMPDEST PUSH0 DUP2 SWAP1 POP SWAP2 SWAP1 POP JUMP JUMPDEST PUSH0 PUSH2 0xE08 PUSH2 0xE03 PUSH2 0xDFE DUP5 PUSH2 0xDD0 JUMP JUMPDEST PUSH2 0xDE5 JUMP JUMPDEST PUSH2 0xDD9 JUMP JUMPDEST SWAP1 POP SWAP2 SWAP1 POP JUMP JUMPDEST PUSH2 0xE18 DUP2 PUSH2 0xDEE JUMP JUMPDEST DUP3 MSTORE POP POP JUMP JUMPDEST PUSH0 PUSH1 0x20 DUP3 ADD SWAP1 POP PUSH2 0xE31 PUSH0 DUP4 ADD DUP5 PUSH2 0xE0F JUMP JUMPDEST SWAP3 SWAP2 POP POP JUMP JUMPDEST PUSH0 DUP2 MLOAD SWAP1 POP SWAP2 SWAP1 POP JUMP JUMPDEST PUSH0 DUP2 SWAP1 POP SWAP3 SWAP2 POP POP JUMP JUMPDEST DUP3 DUP2 DUP4 MCOPY PUSH0 DUP4 DUP4 ADD MSTORE POP POP POP JUMP JUMPDEST PUSH0 PUSH2 0xE63 DUP3 PUSH2 0xE37 JUMP JUMPDEST PUSH2 0xE6D DUP2 DUP6 PUSH2 0xE41 JUMP JUMPDEST SWAP4 POP PUSH2 0xE7D DUP2 DUP6 PUSH1 0x20 DUP7 ADD PUSH2 0xE4B JUMP JUMPDEST DUP1 DUP5 ADD SWAP2 POP POP SWAP3 SWAP2 POP POP JUMP JUMPDEST PUSH0 PUSH2 0xE94 DUP3 DUP5 PUSH2 0xE59 JUMP JUMPDEST SWAP2 POP DUP2 SWAP1 POP SWAP3 SWAP2 POP POP JUMP JUMPDEST PUSH0 DUP3 DUP3 MSTORE PUSH1 0x20 DUP3 ADD SWAP1 POP SWAP3 SWAP2 POP POP JUMP JUMPDEST PUSH32 0x666978656453697A65506172616D53656C6563746F7200000000000000000000 PUSH0 DUP3 ADD MSTORE POP JUMP JUMPDEST PUSH0 PUSH2 0xEE3 PUSH1 0x16 DUP4 PUSH2 0xE9F JUMP JUMPDEST SWAP2 POP PUSH2 0xEEE DUP3 PUSH2 0xEAF JUMP JUMPDEST PUSH1 0x20 DUP3 ADD SWAP1 POP SWAP2 SWAP1 POP JUMP JUMPDEST PUSH0 DUP2 ISZERO ISZERO SWAP1 POP SWAP2 SWAP1 POP JUMP JUMPDEST PUSH2 0xF0D DUP2 PUSH2 0xEF9 JUMP JUMPDEST DUP3 MSTORE POP POP JUMP JUMPDEST PUSH0 DUP3 DUP3 MSTORE PUSH1 0x20 DUP3 ADD SWAP1 POP SWAP3 SWAP2 POP POP JUMP JUMPDEST PUSH0 PUSH2 0xF2D DUP3 PUSH2 0xE37 JUMP JUMPDEST PUSH2 0xF37 DUP2 DUP6 PUSH2 0xF13 JUMP JUMPDEST SWAP4 POP PUSH2 0xF47 DUP2 DUP6 PUSH1 0x20 DUP7 ADD PUSH2 0xE4B JUMP JUMPDEST PUSH2 0xF50 DUP2 PUSH2 0x856 JUMP JUMPDEST DUP5 ADD SWAP2 POP POP SWAP3 SWAP2 POP POP JUMP JUMPDEST PUSH0 PUSH1 0x60 DUP3 ADD SWAP1 POP DUP2 DUP2 SUB PUSH0 DUP4 ADD MSTORE PUSH2 0xF72 DUP2 PUSH2 0xED7 JUMP JUMPDEST SWAP1 POP PUSH2 0xF81 PUSH1 0x20 DUP4 ADD DUP6 PUSH2 0xF04 JUMP JUMPDEST DUP2 DUP2 SUB PUSH1 0x40 DUP4 ADD MSTORE PUSH2 0xF93 DUP2 DUP5 PUSH2 0xF23 JUMP JUMPDEST SWAP1 POP SWAP4 SWAP3 POP POP POP JUMP JUMPDEST PUSH0 PUSH1 0x2 SWAP1 POP SWAP2 SWAP1 POP JUMP JUMPDEST PUSH0 DUP2 SWAP1 POP SWAP3 SWAP2 POP POP JUMP JUMPDEST PUSH0 DUP2 SWAP1 POP SWAP2 SWAP1 POP JUMP JUMPDEST PUSH2 0xFC2 DUP2 PUSH2 0xDD9 JUMP JUMPDEST DUP3 MSTORE POP POP JUMP JUMPDEST PUSH0 PUSH2 0xFD3 DUP4 DUP4 PUSH2 0xFB9 JUMP JUMPDEST PUSH1 0x20 DUP4 ADD SWAP1 POP SWAP3 SWAP2 POP POP JUMP JUMPDEST PUSH0 PUSH1 0x20 DUP3 ADD SWAP1 POP SWAP2 SWAP1 POP JUMP JUMPDEST PUSH2 0xFF4 DUP2 PUSH2 0xF9C JUMP JUMPDEST PUSH2 0xFFE DUP2 DUP5 PUSH2 0xFA6 JUMP JUMPDEST SWAP3 POP PUSH2 0x1009 DUP3 PUSH2 0xFB0 JUMP JUMPDEST DUP1 PUSH0 JUMPDEST DUP4 DUP2 LT ISZERO PUSH2 0x1039 JUMPI DUP2 MLOAD PUSH2 0x1020 DUP8 DUP3 PUSH2 0xFC8 JUMP JUMPDEST SWAP7 POP PUSH2 0x102B DUP4 PUSH2 0xFDF JUMP JUMPDEST SWAP3 POP POP PUSH1 0x1 DUP2 ADD SWAP1 POP PUSH2 0x100C JUMP JUMPDEST POP POP POP POP POP POP JUMP JUMPDEST PUSH32 0x6E6F466978656400000000000000000000000000000000000000000000000000 PUSH0 DUP3 ADD MSTORE POP JUMP JUMPDEST PUSH0 PUSH2 0x1075 PUSH1 0x7 DUP4 PUSH2 0xE9F JUMP JUMPDEST SWAP2 POP PUSH2 0x1080 DUP3 PUSH2 0x1041 JUMP JUMPDEST PUSH1 0x20 DUP3 ADD SWAP1 POP SWAP2 SWAP1 POP JUMP JUMPDEST PUSH0 PUSH1 0x60 DUP3 ADD SWAP1 POP PUSH2 0x109E PUSH0 DUP4 ADD DUP5 PUSH2 0xFEB JUMP JUMPDEST DUP2 DUP2 SUB PUSH1 0x40 DUP4 ADD MSTORE PUSH2 0x10AF DUP2 PUSH2 0x1069 JUMP JUMPDEST SWAP1 POP SWAP3 SWAP2 POP POP JUMP JUMPDEST PUSH32 0x6E6F466978656453697A65506172616D53656C6563746F720000000000000000 PUSH0 DUP3 ADD MSTORE POP JUMP JUMPDEST PUSH0 PUSH2 0x10EB PUSH1 0x18 DUP4 PUSH2 0xE9F JUMP JUMPDEST SWAP2 POP PUSH2 0x10F6 DUP3 PUSH2 0x10B7 JUMP JUMPDEST PUSH1 0x20 DUP3 ADD SWAP1 POP SWAP2 SWAP1 POP JUMP JUMPDEST PUSH0 PUSH1 0x60 DUP3 ADD SWAP1 POP DUP2 DUP2 SUB PUSH0 DUP4 ADD MSTORE PUSH2 0x1118 DUP2 PUSH2 0x10DF JUMP JUMPDEST SWAP1 POP PUSH2 0x1127 PUSH1 0x20 DUP4 ADD DUP6 PUSH2 0xF04 JUMP JUMPDEST DUP2 DUP2 SUB PUSH1 0x40 DUP4 ADD MSTORE PUSH2 0x1139 DUP2 DUP5 PUSH2 0xF23 JUMP JUMPDEST SWAP1 POP SWAP4 SWAP3 POP POP POP JUMP JUMPDEST PUSH2 0x114B DUP2 PUSH2 0x8E2 JUMP JUMPDEST DUP3 MSTORE POP POP JUMP JUMPDEST PUSH0 DUP3 DUP3 MSTORE PUSH1 0x20 DUP3 ADD SWAP1 POP SWAP3 SWAP2 POP POP JUMP JUMPDEST PUSH0 PUSH2 0x116B DUP3 PUSH2 0xE37 JUMP JUMPDEST PUSH2 0x1175 DUP2 DUP6 PUSH2 0x1151 JUMP JUMPDEST SWAP4 POP PUSH2 0x1185 DUP2 DUP6 PUSH1 0x20 DUP7 ADD PUSH2 0xE4B JUMP JUMPDEST PUSH2 0x118E DUP2 PUSH2 0x856 JUMP JUMPDEST DUP5 ADD SWAP2 POP POP SWAP3 SWAP2 POP POP JUMP JUMPDEST PUSH0 PUSH1 0x40 DUP4 ADD PUSH0 DUP4 ADD MLOAD PUSH2 0x11AE PUSH0 DUP7 ADD DUP3 PUSH2 0x1142 JUMP JUMPDEST POP PUSH1 0x20 DUP4 ADD MLOAD DUP5 DUP3 SUB PUSH1 0x20 DUP7 ADD MSTORE PUSH2 0x11C6 DUP3 DUP3 PUSH2 0x1161 JUMP JUMPDEST SWAP2 POP POP DUP1 SWAP2 POP POP SWAP3 SWAP2 POP POP JUMP JUMPDEST PUSH32 0x4E487B7100000000000000000000000000000000000000000000000000000000 PUSH0 MSTORE PUSH1 0x21 PUSH1 0x4 MSTORE PUSH1 0x24 PUSH0 REVERT JUMPDEST PUSH1 0x3 DUP2 LT PUSH2 0x1211 JUMPI PUSH2 0x1210 PUSH2 0x11D3 JUMP JUMPDEST JUMPDEST POP JUMP JUMPDEST PUSH0 DUP2 SWAP1 POP PUSH2 0x1221 DUP3 PUSH2 0x1200 JUMP JUMPDEST SWAP2 SWAP1 POP JUMP JUMPDEST PUSH0 PUSH2 0x1230 DUP3 PUSH2 0x1214 JUMP JUMPDEST SWAP1 POP SWAP2 SWAP1 POP JUMP JUMPDEST PUSH2 0x1240 DUP2 PUSH2 0x1226 JUMP JUMPDEST DUP3 MSTORE POP POP JUMP JUMPDEST PUSH0 PUSH1 0x40 DUP3 ADD SWAP1 POP DUP2 DUP2 SUB PUSH0 DUP4 ADD MSTORE PUSH2 0x125E DUP2 DUP6 PUSH2 0x1199 JUMP JUMPDEST SWAP1 POP PUSH2 0x126D PUSH1 0x20 DUP4 ADD DUP5 PUSH2 0x1237 JUMP JUMPDEST SWAP4 SWAP3 POP POP POP JUMP JUMPDEST PUSH32 0x6D69786564506172616D53656C6563746F720000000000000000000000000000 PUSH0 DUP3 ADD MSTORE POP JUMP JUMPDEST PUSH0 PUSH2 0x12A8 PUSH1 0x12 DUP4 PUSH2 0xE9F JUMP JUMPDEST SWAP2 POP PUSH2 0x12B3 DUP3 PUSH2 0x1274 JUMP JUMPDEST PUSH1 0x20 DUP3 ADD SWAP1 POP SWAP2 SWAP1 POP JUMP JUMPDEST PUSH0 PUSH1 0x60 DUP3 ADD SWAP1 POP DUP2 DUP2 SUB PUSH0 DUP4 ADD MSTORE PUSH2 0x12D5 DUP2 PUSH2 0x129C JUMP JUMPDEST SWAP1 POP PUSH2 0x12E4 PUSH1 0x20 DUP4 ADD DUP6 PUSH2 0xF04 JUMP JUMPDEST DUP2 DUP2 SUB PUSH1 0x40 DUP4 ADD MSTORE PUSH2 0x12F6 DUP2 DUP5 PUSH2 0xF23 JUMP JUMPDEST SWAP1 POP SWAP4 SWAP3 POP POP POP JUMP JUMPDEST PUSH2 0x1308 DUP2 PUSH2 0xCCB JUMP JUMPDEST DUP3 MSTORE POP POP JUMP JUMPDEST PUSH0 PUSH2 0x1319 DUP4 DUP6 PUSH2 0xF13 JUMP JUMPDEST SWAP4 POP PUSH2 0x1326 DUP4 DUP6 DUP5 PUSH2 0x94D JUMP JUMPDEST PUSH2 0x132F DUP4 PUSH2 0x856 JUMP JUMPDEST DUP5 ADD SWAP1 POP SWAP4 SWAP3 POP POP POP JUMP JUMPDEST PUSH0 PUSH1 0x40 DUP3 ADD SWAP1 POP PUSH2 0x134D PUSH0 DUP4 ADD DUP7 PUSH2 0x12FF JUMP JUMPDEST DUP2 DUP2 SUB PUSH1 0x20 DUP4 ADD MSTORE PUSH2 0x1360 DUP2 DUP5 DUP7 PUSH2 0x130E JUMP JUMPDEST SWAP1 POP SWAP5 SWAP4 POP POP POP POP JUMP JUMPDEST PUSH0 DUP2 MLOAD SWAP1 POP SWAP2 SWAP1 POP JUMP JUMPDEST PUSH0 DUP2 SWAP1 POP SWAP3 SWAP2 POP POP JUMP JUMPDEST PUSH0 PUSH2 0x1388 DUP3 PUSH2 0x136A JUMP JUMPDEST PUSH2 0x1392 DUP2 DUP6 PUSH2 0x1374 JUMP JUMPDEST SWAP4 POP PUSH2 0x13A2 DUP2 DUP6 PUSH1 0x20 DUP7 ADD PUSH2 0xE4B JUMP JUMPDEST DUP1 DUP5 ADD SWAP2 POP POP SWAP3 SWAP2 POP POP JUMP JUMPDEST PUSH0 PUSH2 0x13B9 DUP3 DUP5 PUSH2 0x137E JUMP JUMPDEST SWAP2 POP DUP2 SWAP1 POP SWAP3 SWAP2 POP POP JUMP INVALID PUSH14 0x69786564506172616D53656C6563 PUSH21 0x6F72282875696E743235362C6279746573292C7569 PUSH15 0x7438296E6F466965786453697A6550 PUSH2 0x7261 PUSH14 0x53656C6563746F722875696E7432 CALLDATALOAD CALLDATASIZE JUMPDEST ORIGIN TSTORE 0x2C PUSH20 0x7472696E6729A2646970667358221220258C12DB DUP8 TSTORE DUP7 0x2B SWAP13 SDIV 0xB7 SWAP16 PUSH25 0x91D6D6098909679EE8FA90A0C909B6AAFB7AF664736F6C6343 STOP ADDMOD BYTE STOP CALLER "
				},
				"gasEstimates": {
					"creation": {
						"codeDepositCost": "1039600",
						"executionCost": "1078",
						"totalCost": "1040678"
					},
					"external": {
						"calculateMintSignature(string)": "infinite",
						"callWithSignature()": "infinite",
						"fixedSizeParamSelector(uint256)": "infinite",
						"mint(address)": "infinite",
						"mixedParamSelector((uint256,bytes),uint8)": "infinite",
						"noFiexdSizeParamSelector(uint256[2],string)": "infinite"
					}
				},
				"methodIdentifiers": {
					"calculateMintSignature(string)": "974d8906",
					"callWithSignature()": "59ebea23",
					"fixedSizeParamSelector(uint256)": "960c35ab",
					"mint(address)": "6a627842",
					"mixedParamSelector((uint256,bytes),uint8)": "3538bd35",
					"noFiexdSizeParamSelector(uint256[2],string)": "40f86e92"
				}
			},
			"storageLayout": {
				"storage": [],
				"types": null
			},
			"userdoc": {
				"kind": "user",
				"methods": {
					"mixedParamSelector((uint256,bytes),uint8)": {
						"notice": "映射类型参数，结构体类型参数，枚举类型参数（底层实现是基于uint8实现的），合约类型参数 合约类型参数转化为address 结构体类型参数转化为tuple 枚举类型参数转化为uint8"
					}
				},
				"notice": "函数签名就是函数名称带上参数类型的字符串：\"函数名称(参数类型1, 参数类型2, 参数类型3,...)\", 在同一个合约中，不同的函数的函数签名是不一样的，所以合约中是用函数签名来区分函数的 方法id method id：就是函数签名的keccak256之后的前四个byte：bytes4(keccak256(\"函数名(参数类型1, 参数类型2, ...)\"))， 当selector和method id能匹配上时，就会调用对应的函数 注意的点，int和uint在函数签名中要写为int256和uint256",
				"version": 1
			}
		}
	}
}