{
	"contracts/TestKx.sol": {
		"TestKx": {
			"abi": [
				{
					"inputs": [],
					"name": "calcSelector",
					"outputs": [
						{
							"internalType": "bytes4",
							"name": "",
							"type": "bytes4"
						}
					],
					"stateMutability": "pure",
					"type": "function"
				}
			],
			"devdoc": {
				"kind": "dev",
				"methods": {},
				"version": 1
			},
			"evm": {
				"assembly": "    /* \"contracts/TestKx.sol\":106:317  contract TestKx {... */\n  mstore(0x40, 0x80)\n  callvalue\n  dup1\n  iszero\n  tag_1\n  jumpi\n  0x00\n  dup1\n  revert\ntag_1:\n  pop\n  dataSize(sub_0)\n  dup1\n  dataOffset(sub_0)\n  0x00\n  codecopy\n  0x00\n  return\nstop\n\nsub_0: assembly {\n        /* \"contracts/TestKx.sol\":106:317  contract TestKx {... */\n      mstore(0x40, 0x80)\n      callvalue\n      dup1\n      iszero\n      tag_1\n      jumpi\n      0x00\n      dup1\n      revert\n    tag_1:\n      pop\n      jumpi(tag_2, lt(calldatasize, 0x04))\n      shr(0xe0, calldataload(0x00))\n      dup1\n      0x81754cf6\n      eq\n      tag_3\n      jumpi\n    tag_2:\n      0x00\n      dup1\n      revert\n        /* \"contracts/TestKx.sol\":129:314  function calcSelector() public pure returns(bytes4) {... */\n    tag_3:\n      tag_4\n      tag_5\n      jump\t// in\n    tag_4:\n      mload(0x40)\n      tag_6\n      swap2\n      swap1\n      tag_7\n      jump\t// in\n    tag_6:\n      mload(0x40)\n      dup1\n      swap2\n      sub\n      swap1\n      return\n    tag_5:\n        /* \"contracts/TestKx.sol\":173:179  bytes4 */\n      0x00\n        /* \"contracts/TestKx.sol\":272:305  IERC721Metadata.tokenURI.selector */\n      shl(0xe0, 0xc87b56dd)\n        /* \"contracts/TestKx.sol\":238:269  IERC721Metadata.symbol.selector */\n      shl(0xe0, 0x95d89b41)\n        /* \"contracts/TestKx.sol\":206:235  IERC721Metadata.name.selector */\n      shl(0xe0, 0x06fdde03)\n        /* \"contracts/TestKx.sol\":206:269  IERC721Metadata.name.selector ^ IERC721Metadata.symbol.selector */\n      xor\n        /* \"contracts/TestKx.sol\":206:305  IERC721Metadata.name.selector ^ IERC721Metadata.symbol.selector ^ IERC721Metadata.tokenURI.selector */\n      xor\n        /* \"contracts/TestKx.sol\":192:306  return bytes4(IERC721Metadata.name.selector ^ IERC721Metadata.symbol.selector ^ IERC721Metadata.tokenURI.selector) */\n      swap1\n      pop\n        /* \"contracts/TestKx.sol\":129:314  function calcSelector() public pure returns(bytes4) {... */\n      swap1\n      jump\t// out\n        /* \"#utility.yul\":7:156   */\n    tag_9:\n        /* \"#utility.yul\":43:50   */\n      0x00\n        /* \"#utility.yul\":83:149   */\n      0xffffffff00000000000000000000000000000000000000000000000000000000\n        /* \"#utility.yul\":76:81   */\n      dup3\n        /* \"#utility.yul\":72:150   */\n      and\n        /* \"#utility.yul\":61:150   */\n      swap1\n      pop\n        /* \"#utility.yul\":7:156   */\n      swap2\n      swap1\n      pop\n      jump\t// out\n        /* \"#utility.yul\":162:277   */\n    tag_10:\n        /* \"#utility.yul\":247:270   */\n      tag_14\n        /* \"#utility.yul\":264:269   */\n      dup2\n        /* \"#utility.yul\":247:270   */\n      tag_9\n      jump\t// in\n    tag_14:\n        /* \"#utility.yul\":242:245   */\n      dup3\n        /* \"#utility.yul\":235:271   */\n      mstore\n        /* \"#utility.yul\":162:277   */\n      pop\n      pop\n      jump\t// out\n        /* \"#utility.yul\":283:501   */\n    tag_7:\n        /* \"#utility.yul\":374:378   */\n      0x00\n        /* \"#utility.yul\":412:414   */\n      0x20\n        /* \"#utility.yul\":401:410   */\n      dup3\n        /* \"#utility.yul\":397:415   */\n      add\n        /* \"#utility.yul\":389:415   */\n      swap1\n      pop\n        /* \"#utility.yul\":425:494   */\n      tag_16\n        /* \"#utility.yul\":491:492   */\n      0x00\n        /* \"#utility.yul\":480:489   */\n      dup4\n        /* \"#utility.yul\":476:493   */\n      add\n        /* \"#utility.yul\":467:473   */\n      dup5\n        /* \"#utility.yul\":425:494   */\n      tag_10\n      jump\t// in\n    tag_16:\n        /* \"#utility.yul\":283:501   */\n      swap3\n      swap2\n      pop\n      pop\n      jump\t// out\n\n    auxdata: 0xa26469706673582212204caa13d41029b648dfa63e95cb441886777886b1be9d253aaca472f990d79cd464736f6c634300081a0033\n}\n",
				"bytecode": {
					"linkReferences": {},
					"object": "6080604052348015600e575f80fd5b5060e98061001b5f395ff3fe6080604052348015600e575f80fd5b50600436106026575f3560e01c806381754cf614602a575b5f80fd5b60306044565b604051603b9190609c565b60405180910390f35b5f63c87b56dd60e01b6395d89b4160e01b6306fdde0360e01b1818905090565b5f7fffffffff0000000000000000000000000000000000000000000000000000000082169050919050565b6096816064565b82525050565b5f60208201905060ad5f830184608f565b9291505056fea26469706673582212204caa13d41029b648dfa63e95cb441886777886b1be9d253aaca472f990d79cd464736f6c634300081a0033",
					"opcodes": "PUSH1 0x80 PUSH1 0x40 MSTORE CALLVALUE DUP1 ISZERO PUSH1 0xE JUMPI PUSH0 DUP1 REVERT JUMPDEST POP PUSH1 0xE9 DUP1 PUSH2 0x1B PUSH0 CODECOPY PUSH0 RETURN INVALID PUSH1 0x80 PUSH1 0x40 MSTORE CALLVALUE DUP1 ISZERO PUSH1 0xE JUMPI PUSH0 DUP1 REVERT JUMPDEST POP PUSH1 0x4 CALLDATASIZE LT PUSH1 0x26 JUMPI PUSH0 CALLDATALOAD PUSH1 0xE0 SHR DUP1 PUSH4 0x81754CF6 EQ PUSH1 0x2A JUMPI JUMPDEST PUSH0 DUP1 REVERT JUMPDEST PUSH1 0x30 PUSH1 0x44 JUMP JUMPDEST PUSH1 0x40 MLOAD PUSH1 0x3B SWAP2 SWAP1 PUSH1 0x9C JUMP JUMPDEST PUSH1 0x40 MLOAD DUP1 SWAP2 SUB SWAP1 RETURN JUMPDEST PUSH0 PUSH4 0xC87B56DD PUSH1 0xE0 SHL PUSH4 0x95D89B41 PUSH1 0xE0 SHL PUSH4 0x6FDDE03 PUSH1 0xE0 SHL XOR XOR SWAP1 POP SWAP1 JUMP JUMPDEST PUSH0 PUSH32 0xFFFFFFFF00000000000000000000000000000000000000000000000000000000 DUP3 AND SWAP1 POP SWAP2 SWAP1 POP JUMP JUMPDEST PUSH1 0x96 DUP2 PUSH1 0x64 JUMP JUMPDEST DUP3 MSTORE POP POP JUMP JUMPDEST PUSH0 PUSH1 0x20 DUP3 ADD SWAP1 POP PUSH1 0xAD PUSH0 DUP4 ADD DUP5 PUSH1 0x8F JUMP JUMPDEST SWAP3 SWAP2 POP POP JUMP INVALID LOG2 PUSH5 0x6970667358 0x22 SLT KECCAK256 0x4C 0xAA SGT 0xD4 LT 0x29 0xB6 BASEFEE 0xDF 0xA6 RETURNDATACOPY SWAP6 0xCB PREVRANDAO XOR DUP7 PUSH24 0x7886B1BE9D253AACA472F990D79CD464736F6C634300081A STOP CALLER "
				},
				"gasEstimates": {
					"creation": {
						"codeDepositCost": "46600",
						"executionCost": "97",
						"totalCost": "46697"
					},
					"external": {
						"calcSelector()": "346"
					}
				},
				"methodIdentifiers": {
					"calcSelector()": "81754cf6"
				}
			},
			"storageLayout": {
				"storage": [],
				"types": null
			},
			"userdoc": {
				"kind": "user",
				"methods": {},
				"version": 1
			}
		}
	}
}