{
	"data": {
		"bytecode": {
			"linkReferences": {},
			"object": "608060405234801561000f575f80fd5b506040518060400160405280601081526020017f4b582044757463682041756374696f6e000000000000000000000000000000008152506040518060400160405280601081526020017f4b582044757463682041756374696f6e00000000000000000000000000000000815250335f73ffffffffffffffffffffffffffffffffffffffff168173ffffffffffffffffffffffffffffffffffffffff16036100ed575f6040517f1e4fbdf70000000000000000000000000000000000000000000000000000000081526004016100e4919061022b565b60405180910390fd5b6100fc8161012b60201b60201c565b50816001908161010c919061047e565b50806002908161011c919061047e565b5050504260078190555061054d565b5f805f9054906101000a900473ffffffffffffffffffffffffffffffffffffffff169050815f806101000a81548173ffffffffffffffffffffffffffffffffffffffff021916908373ffffffffffffffffffffffffffffffffffffffff1602179055508173ffffffffffffffffffffffffffffffffffffffff168173ffffffffffffffffffffffffffffffffffffffff167f8be0079c531659141344cd1fd0a4f28419497f9722a3daafe3b4186f6b6457e060405160405180910390a35050565b5f73ffffffffffffffffffffffffffffffffffffffff82169050919050565b5f610215826101ec565b9050919050565b6102258161020b565b82525050565b5f60208201905061023e5f83018461021c565b92915050565b5f81519050919050565b7f4e487b71000000000000000000000000000000000000000000000000000000005f52604160045260245ffd5b7f4e487b71000000000000000000000000000000000000000000000000000000005f52602260045260245ffd5b5f60028204905060018216806102bf57607f821691505b6020821081036102d2576102d161027b565b5b50919050565b5f819050815f5260205f209050919050565b5f6020601f8301049050919050565b5f82821b905092915050565b5f600883026103347fffffffffffffffffffffffffffffffffffffffffffffffffffffffffffffffff826102f9565b61033e86836102f9565b95508019841693508086168417925050509392505050565b5f819050919050565b5f819050919050565b5f61038261037d61037884610356565b61035f565b610356565b9050919050565b5f819050919050565b61039b83610368565b6103af6103a782610389565b848454610305565b825550505050565b5f90565b6103c36103b7565b6103ce818484610392565b505050565b5b818110156103f1576103e65f826103bb565b6001810190506103d4565b5050565b601f82111561043657610407816102d8565b610410846102ea565b8101602085101561041f578190505b61043361042b856102ea565b8301826103d3565b50505b505050565b5f82821c905092915050565b5f6104565f198460080261043b565b1980831691505092915050565b5f61046e8383610447565b9150826002028217905092915050565b61048782610244565b67ffffffffffffffff8111156104a05761049f61024e565b5b6104aa82546102a8565b6104b58282856103f5565b5f60209050601f8311600181146104e6575f84156104d4578287015190505b6104de8582610463565b865550610545565b601f1984166104f4866102d8565b5f5b8281101561051b578489015182556001820191506020850194506020810190506104f6565b868310156105385784890151610534601f891682610447565b8355505b6001600288020188555050505b505050505050565b6125208061055a5f395ff3fe60806040526004361061019b575f3560e01c806370a08231116100eb578063c87b56dd11610089578063e592301a11610063578063e592301a14610591578063e985e9c5146105bb578063eb54f9ec146105f7578063f2fde38b146106215761019b565b8063c87b56dd14610501578063caf8a6d11461053d578063d8258d95146105675761019b565b80638da5cb5b116100c55780638da5cb5b1461045d57806395d89b4114610487578063a22cb465146104b1578063b88d4fde146104d95761019b565b806370a08231146103e1578063715018a61461041d5780637a1c4a56146104335761019b565b806323b872dd116101585780634bd25c6f116101325780634bd25c6f146103355780634d3554c31461035f57806359f369fe1461037b5780636352211e146103a55761019b565b806323b872dd146102bb5780634047f289146102e357806342842e0e1461030d5761019b565b806301ffc9a71461019f5780630697346f146101db57806306fdde0314610203578063081812fc1461022d578063095ea7b31461026957806318160ddd14610291575b5f80fd5b3480156101aa575f80fd5b506101c560048036038101906101c09190611984565b610649565b6040516101d291906119c9565b60405180910390f35b3480156101e6575f80fd5b5061020160048036038101906101fc9190611a1b565b610782565b005b34801561020e575f80fd5b5061021761079a565b6040516102249190611ab6565b60405180910390f35b348015610238575f80fd5b50610253600480360381019061024e9190611b09565b610826565b6040516102609190611b73565b60405180910390f35b348015610274575f80fd5b5061028f600480360381019061028a9190611bb6565b6108fd565b005b34801561029c575f80fd5b506102a5610a3b565b6040516102b29190611c03565b60405180910390f35b3480156102c6575f80fd5b506102e160048036038101906102dc9190611c1c565b610a47565b005b3480156102ee575f80fd5b506102f7610ad7565b6040516103049190611c03565b60405180910390f35b348015610318575f80fd5b50610333600480360381019061032e9190611c1c565b610adc565b005b348015610340575f80fd5b50610349610afb565b6040516103569190611c03565b60405180910390f35b61037960048036038101906103749190611b09565b610aff565b005b348015610386575f80fd5b5061038f610b09565b60405161039c9190611c03565b60405180910390f35b3480156103b0575f80fd5b506103cb60048036038101906103c69190611b09565b610b41565b6040516103d89190611b73565b60405180910390f35b3480156103ec575f80fd5b5061040760048036038101906104029190611c6c565b610be8565b6040516104149190611c03565b60405180910390f35b348015610428575f80fd5b50610431610c9c565b005b34801561043e575f80fd5b50610447610caf565b6040516104549190611c03565b60405180910390f35b348015610468575f80fd5b50610471610cbb565b60405161047e9190611b73565b60405180910390f35b348015610492575f80fd5b5061049b610ce2565b6040516104a89190611ab6565b60405180910390f35b3480156104bc575f80fd5b506104d760048036038101906104d29190611cc1565b610d6e565b005b3480156104e4575f80fd5b506104ff60048036038101906104fa9190611e2b565b610e67565b005b34801561050c575f80fd5b5061052760048036038101906105229190611b09565b610ef9565b6040516105349190611ab6565b60405180910390f35b348015610548575f80fd5b50610551610ff3565b60405161055e9190611c03565b60405180910390f35b348015610572575f80fd5b5061057b610fff565b6040516105889190611c03565b60405180910390f35b34801561059c575f80fd5b506105a5611005565b6040516105b29190611c03565b60405180910390f35b3480156105c6575f80fd5b506105e160048036038101906105dc9190611eab565b61100b565b6040516105ee91906119c9565b60405180910390f35b348015610602575f80fd5b5061060b611099565b6040516106189190611c03565b60405180910390f35b34801561062c575f80fd5b5061064760048036038101906106429190611c6c565b61109f565b005b5f7f80ac58cd000000000000000000000000000000000000000000000000000000007bffffffffffffffffffffffffffffffffffffffffffffffffffffffff1916827bffffffffffffffffffffffffffffffffffffffffffffffffffffffff1916148061071357507f01ffc9a7000000000000000000000000000000000000000000000000000000007bffffffffffffffffffffffffffffffffffffffffffffffffffffffff1916827bffffffffffffffffffffffffffffffffffffffffffffffffffffffff1916145b8061077b57507f5b5e139f000000000000000000000000000000000000000000000000000000007bffffffffffffffffffffffffffffffffffffffffffffffffffffffff1916827bffffffffffffffffffffffffffffffffffffffffffffffffffffffff1916145b9050919050565b61078a611123565b8063ffffffff1660078190555050565b600180546107a790611f16565b80601f01602080910402602001604051908101604052809291908181526020018280546107d390611f16565b801561081e5780601f106107f55761010080835404028352916020019161081e565b820191905f5260205f20905b81548152906001019060200180831161080157829003601f168201915b505050505081565b5f8073ffffffffffffffffffffffffffffffffffffffff1660035f8481526020019081526020015f205f9054906101000a900473ffffffffffffffffffffffffffffffffffffffff1673ffffffffffffffffffffffffffffffffffffffff16036108c5576040517f08c379a00000000000000000000000000000000000000000000000000000000081526004016108bc90611f90565b60405180910390fd5b60055f8381526020019081526020015f205f9054906101000a900473ffffffffffffffffffffffffffffffffffffffff169050919050565b5f60035f8381526020019081526020015f205f9054906101000a900473ffffffffffffffffffffffffffffffffffffffff1690503373ffffffffffffffffffffffffffffffffffffffff168173ffffffffffffffffffffffffffffffffffffffff1614806109ec575060065f8273ffffffffffffffffffffffffffffffffffffffff1673ffffffffffffffffffffffffffffffffffffffff1681526020019081526020015f205f3373ffffffffffffffffffffffffffffffffffffffff1673ffffffffffffffffffffffffffffffffffffffff1681526020019081526020015f205f9054906101000a900460ff165b610a2b576040517f08c379a0000000000000000000000000000000000000000000000000000000008152600401610a2290611ff8565b60405180910390fd5b610a3681848461119c565b505050565b5f600980549050905090565b5f60035f8381526020019081526020015f205f9054906101000a900473ffffffffffffffffffffffffffffffffffffffff169050610a8681338461124b565b610ac5576040517f08c379a0000000000000000000000000000000000000000000000000000000008152600401610abc90612060565b60405180910390fd5b610ad181858585611376565b50505050565b603c81565b610af683838360405180602001604052805f815250610e67565b505050565b5f90565b5f60075490505050565b603c610258610b1891906120d8565b67016345785d8a0000670de0b6b3a7640000610b349190612108565b610b3e91906120d8565b81565b5f60035f8381526020019081526020015f205f9054906101000a900473ffffffffffffffffffffffffffffffffffffffff1690505f73ffffffffffffffffffffffffffffffffffffffff168173ffffffffffffffffffffffffffffffffffffffff1603610be3576040517f08c379a0000000000000000000000000000000000000000000000000000000008152600401610bda90612185565b60405180910390fd5b919050565b5f8073ffffffffffffffffffffffffffffffffffffffff168273ffffffffffffffffffffffffffffffffffffffff1603610c57576040517f08c379a0000000000000000000000000000000000000000000000000000000008152600401610c4e906121ed565b60405180910390fd5b60045f8373ffffffffffffffffffffffffffffffffffffffff1673ffffffffffffffffffffffffffffffffffffffff1681526020019081526020015f20549050919050565b610ca4611123565b610cad5f611524565b565b670de0b6b3a764000081565b5f805f9054906101000a900473ffffffffffffffffffffffffffffffffffffffff16905090565b60028054610cef90611f16565b80601f0160208091040260200160405190810160405280929190818152602001828054610d1b90611f16565b8015610d665780601f10610d3d57610100808354040283529160200191610d66565b820191905f5260205f20905b815481529060010190602001808311610d4957829003601f168201915b505050505081565b600160065f3373ffffffffffffffffffffffffffffffffffffffff1673ffffffffffffffffffffffffffffffffffffffff1681526020019081526020015f205f8473ffffffffffffffffffffffffffffffffffffffff1673ffffffffffffffffffffffffffffffffffffffff1681526020019081526020015f205f6101000a81548160ff0219169083151502179055508173ffffffffffffffffffffffffffffffffffffffff163373ffffffffffffffffffffffffffffffffffffffff167f17307eab39ab6107e8899845ad3d59bd9653f200f220920489ca2b5937696c3183604051610e5b91906119c9565b60405180910390a35050565b5f60035f8481526020019081526020015f205f9054906101000a900473ffffffffffffffffffffffffffffffffffffffff169050610ea681338561124b565b610ee5576040517f08c379a0000000000000000000000000000000000000000000000000000000008152600401610edc90612060565b60405180910390fd5b610ef281868686866115e5565b5050505050565b60605f73ffffffffffffffffffffffffffffffffffffffff1660035f8481526020019081526020015f205f9054906101000a900473ffffffffffffffffffffffffffffffffffffffff1673ffffffffffffffffffffffffffffffffffffffff1603610f99576040517f08c379a0000000000000000000000000000000000000000000000000000000008152600401610f9090612255565b60405180910390fd5b5f610fa2611604565b90505f815111610fc05760405180602001604052805f815250610feb565b80610fca8461161a565b604051602001610fdb9291906122ad565b6040516020818303038152906040525b915050919050565b67016345785d8a000081565b61271081565b61025881565b5f60065f8473ffffffffffffffffffffffffffffffffffffffff1673ffffffffffffffffffffffffffffffffffffffff1681526020019081526020015f205f8373ffffffffffffffffffffffffffffffffffffffff1673ffffffffffffffffffffffffffffffffffffffff1681526020019081526020015f205f9054906101000a900460ff16905092915050565b60075481565b6110a7611123565b5f73ffffffffffffffffffffffffffffffffffffffff168173ffffffffffffffffffffffffffffffffffffffff1603611117575f6040517f1e4fbdf700000000000000000000000000000000000000000000000000000000815260040161110e9190611b73565b60405180910390fd5b61112081611524565b50565b3373ffffffffffffffffffffffffffffffffffffffff16611142610cbb565b73ffffffffffffffffffffffffffffffffffffffff161461119a57336040517f118cdaa70000000000000000000000000000000000000000000000000000000081526004016111919190611b73565b60405180910390fd5b565b8160055f8381526020019081526020015f205f6101000a81548173ffffffffffffffffffffffffffffffffffffffff021916908373ffffffffffffffffffffffffffffffffffffffff160217905550808273ffffffffffffffffffffffffffffffffffffffff168473ffffffffffffffffffffffffffffffffffffffff167f8c5be1e5ebec7d5bd14f71427d1e84f3dd0314c0f7b2291e5b200ac8c7c3b92560405160405180910390a4505050565b5f8273ffffffffffffffffffffffffffffffffffffffff168473ffffffffffffffffffffffffffffffffffffffff161480611307575060065f8573ffffffffffffffffffffffffffffffffffffffff1673ffffffffffffffffffffffffffffffffffffffff1681526020019081526020015f205f8473ffffffffffffffffffffffffffffffffffffffff1673ffffffffffffffffffffffffffffffffffffffff1681526020019081526020015f205f9054906101000a900460ff165b8061136d57508273ffffffffffffffffffffffffffffffffffffffff1660055f8481526020019081526020015f205f9054906101000a900473ffffffffffffffffffffffffffffffffffffffff1673ffffffffffffffffffffffffffffffffffffffff16145b90509392505050565b8373ffffffffffffffffffffffffffffffffffffffff168373ffffffffffffffffffffffffffffffffffffffff161480156113dd57505f73ffffffffffffffffffffffffffffffffffffffff168273ffffffffffffffffffffffffffffffffffffffff1614155b61141c576040517f08c379a00000000000000000000000000000000000000000000000000000000081526004016114139061231a565b60405180910390fd5b600160045f8573ffffffffffffffffffffffffffffffffffffffff1673ffffffffffffffffffffffffffffffffffffffff1681526020019081526020015f205f8282546114699190612108565b92505081905550600160045f8473ffffffffffffffffffffffffffffffffffffffff1673ffffffffffffffffffffffffffffffffffffffff1681526020019081526020015f205f8282546114bd9190612338565b925050819055508160035f8381526020019081526020015f205f6101000a81548173ffffffffffffffffffffffffffffffffffffffff021916908373ffffffffffffffffffffffffffffffffffffffff16021790555061151e825f8361119c565b50505050565b5f805f9054906101000a900473ffffffffffffffffffffffffffffffffffffffff169050815f806101000a81548173ffffffffffffffffffffffffffffffffffffffff021916908373ffffffffffffffffffffffffffffffffffffffff1602179055508173ffffffffffffffffffffffffffffffffffffffff168173ffffffffffffffffffffffffffffffffffffffff167f8be0079c531659141344cd1fd0a4f28419497f9722a3daafe3b4186f6b6457e060405160405180910390a35050565b6115f185858585611376565b6115fd84848484611773565b5050505050565b606060405180602001604052805f815250905090565b60605f8203611660576040518060400160405280600181526020017f3000000000000000000000000000000000000000000000000000000000000000815250905061176e565b5f8290505f5b5f821461168f5780806116789061236b565b915050600a8261168891906120d8565b9150611666565b5f8167ffffffffffffffff8111156116aa576116a9611d07565b5b6040519080825280601f01601f1916602001820160405280156116dc5781602001600182028036833780820191505090505b5090505b5f8514611767576001826116f49190612108565b9150600a8561170391906123b2565b603061170f9190612338565b60f81b818381518110611725576117246123e2565b5b60200101907effffffffffffffffffffffffffffffffffffffffffffffffffffffffffffff191690815f1a905350600a8561176091906120d8565b94506116e0565b8093505050505b919050565b5f8373ffffffffffffffffffffffffffffffffffffffff163b1115611918578273ffffffffffffffffffffffffffffffffffffffff1663150b7a02338685856040518563ffffffff1660e01b81526004016117d19493929190612461565b6020604051808303815f875af192505050801561180c57506040513d601f19601f8201168201806040525081019061180991906124bf565b60015b61188d573d805f811461183a576040519150601f19603f3d011682016040523d82523d5f602084013e61183f565b606091505b505f81510361188557836040517f64a0ae9200000000000000000000000000000000000000000000000000000000815260040161187c9190611b73565b60405180910390fd5b805181602001fd5b63150b7a0260e01b7bffffffffffffffffffffffffffffffffffffffffffffffffffffffff1916817bffffffffffffffffffffffffffffffffffffffffffffffffffffffff19161461191657836040517f64a0ae9200000000000000000000000000000000000000000000000000000000815260040161190d9190611b73565b60405180910390fd5b505b50505050565b5f604051905090565b5f80fd5b5f80fd5b5f7fffffffff0000000000000000000000000000000000000000000000000000000082169050919050565b6119638161192f565b811461196d575f80fd5b50565b5f8135905061197e8161195a565b92915050565b5f6020828403121561199957611998611927565b5b5f6119a684828501611970565b91505092915050565b5f8115159050919050565b6119c3816119af565b82525050565b5f6020820190506119dc5f8301846119ba565b92915050565b5f63ffffffff82169050919050565b6119fa816119e2565b8114611a04575f80fd5b50565b5f81359050611a15816119f1565b92915050565b5f60208284031215611a3057611a2f611927565b5b5f611a3d84828501611a07565b91505092915050565b5f81519050919050565b5f82825260208201905092915050565b8281835e5f83830152505050565b5f601f19601f8301169050919050565b5f611a8882611a46565b611a928185611a50565b9350611aa2818560208601611a60565b611aab81611a6e565b840191505092915050565b5f6020820190508181035f830152611ace8184611a7e565b905092915050565b5f819050919050565b611ae881611ad6565b8114611af2575f80fd5b50565b5f81359050611b0381611adf565b92915050565b5f60208284031215611b1e57611b1d611927565b5b5f611b2b84828501611af5565b91505092915050565b5f73ffffffffffffffffffffffffffffffffffffffff82169050919050565b5f611b5d82611b34565b9050919050565b611b6d81611b53565b82525050565b5f602082019050611b865f830184611b64565b92915050565b611b9581611b53565b8114611b9f575f80fd5b50565b5f81359050611bb081611b8c565b92915050565b5f8060408385031215611bcc57611bcb611927565b5b5f611bd985828601611ba2565b9250506020611bea85828601611af5565b9150509250929050565b611bfd81611ad6565b82525050565b5f602082019050611c165f830184611bf4565b92915050565b5f805f60608486031215611c3357611c32611927565b5b5f611c4086828701611ba2565b9350506020611c5186828701611ba2565b9250506040611c6286828701611af5565b9150509250925092565b5f60208284031215611c8157611c80611927565b5b5f611c8e84828501611ba2565b91505092915050565b611ca0816119af565b8114611caa575f80fd5b50565b5f81359050611cbb81611c97565b92915050565b5f8060408385031215611cd757611cd6611927565b5b5f611ce485828601611ba2565b9250506020611cf585828601611cad565b9150509250929050565b5f80fd5b5f80fd5b7f4e487b71000000000000000000000000000000000000000000000000000000005f52604160045260245ffd5b611d3d82611a6e565b810181811067ffffffffffffffff82111715611d5c57611d5b611d07565b5b80604052505050565b5f611d6e61191e565b9050611d7a8282611d34565b919050565b5f67ffffffffffffffff821115611d9957611d98611d07565b5b611da282611a6e565b9050602081019050919050565b828183375f83830152505050565b5f611dcf611dca84611d7f565b611d65565b905082815260208101848484011115611deb57611dea611d03565b5b611df6848285611daf565b509392505050565b5f82601f830112611e1257611e11611cff565b5b8135611e22848260208601611dbd565b91505092915050565b5f805f8060808587031215611e4357611e42611927565b5b5f611e5087828801611ba2565b9450506020611e6187828801611ba2565b9350506040611e7287828801611af5565b925050606085013567ffffffffffffffff811115611e9357611e9261192b565b5b611e9f87828801611dfe565b91505092959194509250565b5f8060408385031215611ec157611ec0611927565b5b5f611ece85828601611ba2565b9250506020611edf85828601611ba2565b9150509250929050565b7f4e487b71000000000000000000000000000000000000000000000000000000005f52602260045260245ffd5b5f6002820490506001821680611f2d57607f821691505b602082108103611f4057611f3f611ee9565b5b50919050565b7f746f6b656e20646f6573206e6f742065786973742121210000000000000000005f82015250565b5f611f7a601783611a50565b9150611f8582611f46565b602082019050919050565b5f6020820190508181035f830152611fa781611f6e565b9050919050565b7f696e76616c69642063616c6c2066756e6374696f6e2027617070726f766527005f82015250565b5f611fe2601f83611a50565b9150611fed82611fae565b602082019050919050565b5f6020820190508181035f83015261200f81611fd6565b9050919050565b7f6e6f74206f776e6572206f7220617070726f76656400000000000000000000005f82015250565b5f61204a601583611a50565b915061205582612016565b602082019050919050565b5f6020820190508181035f8301526120778161203e565b9050919050565b7f4e487b71000000000000000000000000000000000000000000000000000000005f52601260045260245ffd5b7f4e487b71000000000000000000000000000000000000000000000000000000005f52601160045260245ffd5b5f6120e282611ad6565b91506120ed83611ad6565b9250826120fd576120fc61207e565b5b828204905092915050565b5f61211282611ad6565b915061211d83611ad6565b9250828203905081811115612135576121346120ab565b5b92915050565b7f746f6b656e206973206e6f7420657869737400000000000000000000000000005f82015250565b5f61216f601283611a50565b915061217a8261213b565b602082019050919050565b5f6020820190508181035f83015261219c81612163565b9050919050565b7f6f776e6572203d3d205a65726f416464726573732c20697320696e76616c69645f82015250565b5f6121d7602083611a50565b91506121e2826121a3565b602082019050919050565b5f6020820190508181035f830152612204816121cb565b9050919050565b7f546f6b656e204e6f7420457869737400000000000000000000000000000000005f82015250565b5f61223f600f83611a50565b915061224a8261220b565b602082019050919050565b5f6020820190508181035f83015261226c81612233565b9050919050565b5f81905092915050565b5f61228782611a46565b6122918185612273565b93506122a1818560208601611a60565b80840191505092915050565b5f6122b8828561227d565b91506122c4828461227d565b91508190509392505050565b7f6e6f74206f776e657200000000000000000000000000000000000000000000005f82015250565b5f612304600983611a50565b915061230f826122d0565b602082019050919050565b5f6020820190508181035f830152612331816122f8565b9050919050565b5f61234282611ad6565b915061234d83611ad6565b9250828201905080821115612365576123646120ab565b5b92915050565b5f61237582611ad6565b91507fffffffffffffffffffffffffffffffffffffffffffffffffffffffffffffffff82036123a7576123a66120ab565b5b600182019050919050565b5f6123bc82611ad6565b91506123c783611ad6565b9250826123d7576123d661207e565b5b828206905092915050565b7f4e487b71000000000000000000000000000000000000000000000000000000005f52603260045260245ffd5b5f81519050919050565b5f82825260208201905092915050565b5f6124338261240f565b61243d8185612419565b935061244d818560208601611a60565b61245681611a6e565b840191505092915050565b5f6080820190506124745f830187611b64565b6124816020830186611b64565b61248e6040830185611bf4565b81810360608301526124a08184612429565b905095945050505050565b5f815190506124b98161195a565b92915050565b5f602082840312156124d4576124d3611927565b5b5f6124e1848285016124ab565b9150509291505056fea2646970667358221220e0c0bce1ca2990841855167e7f0c18685bd62e548dad2e34a3d00150fc07734b64736f6c634300081a0033",
			"opcodes": "PUSH1 0x80 PUSH1 0x40 MSTORE CALLVALUE DUP1 ISZERO PUSH2 0xF JUMPI PUSH0 DUP1 REVERT JUMPDEST POP PUSH1 0x40 MLOAD DUP1 PUSH1 0x40 ADD PUSH1 0x40 MSTORE DUP1 PUSH1 0x10 DUP2 MSTORE PUSH1 0x20 ADD PUSH32 0x4B582044757463682041756374696F6E00000000000000000000000000000000 DUP2 MSTORE POP PUSH1 0x40 MLOAD DUP1 PUSH1 0x40 ADD PUSH1 0x40 MSTORE DUP1 PUSH1 0x10 DUP2 MSTORE PUSH1 0x20 ADD PUSH32 0x4B582044757463682041756374696F6E00000000000000000000000000000000 DUP2 MSTORE POP CALLER PUSH0 PUSH20 0xFFFFFFFFFFFFFFFFFFFFFFFFFFFFFFFFFFFFFFFF AND DUP2 PUSH20 0xFFFFFFFFFFFFFFFFFFFFFFFFFFFFFFFFFFFFFFFF AND SUB PUSH2 0xED JUMPI PUSH0 PUSH1 0x40 MLOAD PUSH32 0x1E4FBDF700000000000000000000000000000000000000000000000000000000 DUP2 MSTORE PUSH1 0x4 ADD PUSH2 0xE4 SWAP2 SWAP1 PUSH2 0x22B JUMP JUMPDEST PUSH1 0x40 MLOAD DUP1 SWAP2 SUB SWAP1 REVERT JUMPDEST PUSH2 0xFC DUP2 PUSH2 0x12B PUSH1 0x20 SHL PUSH1 0x20 SHR JUMP JUMPDEST POP DUP2 PUSH1 0x1 SWAP1 DUP2 PUSH2 0x10C SWAP2 SWAP1 PUSH2 0x47E JUMP JUMPDEST POP DUP1 PUSH1 0x2 SWAP1 DUP2 PUSH2 0x11C SWAP2 SWAP1 PUSH2 0x47E JUMP JUMPDEST POP POP POP TIMESTAMP PUSH1 0x7 DUP2 SWAP1 SSTORE POP PUSH2 0x54D JUMP JUMPDEST PUSH0 DUP1 PUSH0 SWAP1 SLOAD SWAP1 PUSH2 0x100 EXP SWAP1 DIV PUSH20 0xFFFFFFFFFFFFFFFFFFFFFFFFFFFFFFFFFFFFFFFF AND SWAP1 POP DUP2 PUSH0 DUP1 PUSH2 0x100 EXP DUP2 SLOAD DUP2 PUSH20 0xFFFFFFFFFFFFFFFFFFFFFFFFFFFFFFFFFFFFFFFF MUL NOT AND SWAP1 DUP4 PUSH20 0xFFFFFFFFFFFFFFFFFFFFFFFFFFFFFFFFFFFFFFFF AND MUL OR SWAP1 SSTORE POP DUP2 PUSH20 0xFFFFFFFFFFFFFFFFFFFFFFFFFFFFFFFFFFFFFFFF AND DUP2 PUSH20 0xFFFFFFFFFFFFFFFFFFFFFFFFFFFFFFFFFFFFFFFF AND PUSH32 0x8BE0079C531659141344CD1FD0A4F28419497F9722A3DAAFE3B4186F6B6457E0 PUSH1 0x40 MLOAD PUSH1 0x40 MLOAD DUP1 SWAP2 SUB SWAP1 LOG3 POP POP JUMP JUMPDEST PUSH0 PUSH20 0xFFFFFFFFFFFFFFFFFFFFFFFFFFFFFFFFFFFFFFFF DUP3 AND SWAP1 POP SWAP2 SWAP1 POP JUMP JUMPDEST PUSH0 PUSH2 0x215 DUP3 PUSH2 0x1EC JUMP JUMPDEST SWAP1 POP SWAP2 SWAP1 POP JUMP JUMPDEST PUSH2 0x225 DUP2 PUSH2 0x20B JUMP JUMPDEST DUP3 MSTORE POP POP JUMP JUMPDEST PUSH0 PUSH1 0x20 DUP3 ADD SWAP1 POP PUSH2 0x23E PUSH0 DUP4 ADD DUP5 PUSH2 0x21C JUMP JUMPDEST SWAP3 SWAP2 POP POP JUMP JUMPDEST PUSH0 DUP2 MLOAD SWAP1 POP SWAP2 SWAP1 POP JUMP JUMPDEST PUSH32 0x4E487B7100000000000000000000000000000000000000000000000000000000 PUSH0 MSTORE PUSH1 0x41 PUSH1 0x4 MSTORE PUSH1 0x24 PUSH0 REVERT JUMPDEST PUSH32 0x4E487B7100000000000000000000000000000000000000000000000000000000 PUSH0 MSTORE PUSH1 0x22 PUSH1 0x4 MSTORE PUSH1 0x24 PUSH0 REVERT JUMPDEST PUSH0 PUSH1 0x2 DUP3 DIV SWAP1 POP PUSH1 0x1 DUP3 AND DUP1 PUSH2 0x2BF JUMPI PUSH1 0x7F DUP3 AND SWAP2 POP JUMPDEST PUSH1 0x20 DUP3 LT DUP2 SUB PUSH2 0x2D2 JUMPI PUSH2 0x2D1 PUSH2 0x27B JUMP JUMPDEST JUMPDEST POP SWAP2 SWAP1 POP JUMP JUMPDEST PUSH0 DUP2 SWAP1 POP DUP2 PUSH0 MSTORE PUSH1 0x20 PUSH0 KECCAK256 SWAP1 POP SWAP2 SWAP1 POP JUMP JUMPDEST PUSH0 PUSH1 0x20 PUSH1 0x1F DUP4 ADD DIV SWAP1 POP SWAP2 SWAP1 POP JUMP JUMPDEST PUSH0 DUP3 DUP3 SHL SWAP1 POP SWAP3 SWAP2 POP POP JUMP JUMPDEST PUSH0 PUSH1 0x8 DUP4 MUL PUSH2 0x334 PUSH32 0xFFFFFFFFFFFFFFFFFFFFFFFFFFFFFFFFFFFFFFFFFFFFFFFFFFFFFFFFFFFFFFFF DUP3 PUSH2 0x2F9 JUMP JUMPDEST PUSH2 0x33E DUP7 DUP4 PUSH2 0x2F9 JUMP JUMPDEST SWAP6 POP DUP1 NOT DUP5 AND SWAP4 POP DUP1 DUP7 AND DUP5 OR SWAP3 POP POP POP SWAP4 SWAP3 POP POP POP JUMP JUMPDEST PUSH0 DUP2 SWAP1 POP SWAP2 SWAP1 POP JUMP JUMPDEST PUSH0 DUP2 SWAP1 POP SWAP2 SWAP1 POP JUMP JUMPDEST PUSH0 PUSH2 0x382 PUSH2 0x37D PUSH2 0x378 DUP5 PUSH2 0x356 JUMP JUMPDEST PUSH2 0x35F JUMP JUMPDEST PUSH2 0x356 JUMP JUMPDEST SWAP1 POP SWAP2 SWAP1 POP JUMP JUMPDEST PUSH0 DUP2 SWAP1 POP SWAP2 SWAP1 POP JUMP JUMPDEST PUSH2 0x39B DUP4 PUSH2 0x368 JUMP JUMPDEST PUSH2 0x3AF PUSH2 0x3A7 DUP3 PUSH2 0x389 JUMP JUMPDEST DUP5 DUP5 SLOAD PUSH2 0x305 JUMP JUMPDEST DUP3 SSTORE POP POP POP POP JUMP JUMPDEST PUSH0 SWAP1 JUMP JUMPDEST PUSH2 0x3C3 PUSH2 0x3B7 JUMP JUMPDEST PUSH2 0x3CE DUP2 DUP5 DUP5 PUSH2 0x392 JUMP JUMPDEST POP POP POP JUMP JUMPDEST JUMPDEST DUP2 DUP2 LT ISZERO PUSH2 0x3F1 JUMPI PUSH2 0x3E6 PUSH0 DUP3 PUSH2 0x3BB JUMP JUMPDEST PUSH1 0x1 DUP2 ADD SWAP1 POP PUSH2 0x3D4 JUMP JUMPDEST POP POP JUMP JUMPDEST PUSH1 0x1F DUP3 GT ISZERO PUSH2 0x436 JUMPI PUSH2 0x407 DUP2 PUSH2 0x2D8 JUMP JUMPDEST PUSH2 0x410 DUP5 PUSH2 0x2EA JUMP JUMPDEST DUP2 ADD PUSH1 0x20 DUP6 LT ISZERO PUSH2 0x41F JUMPI DUP2 SWAP1 POP JUMPDEST PUSH2 0x433 PUSH2 0x42B DUP6 PUSH2 0x2EA JUMP JUMPDEST DUP4 ADD DUP3 PUSH2 0x3D3 JUMP JUMPDEST POP POP JUMPDEST POP POP POP JUMP JUMPDEST PUSH0 DUP3 DUP3 SHR SWAP1 POP SWAP3 SWAP2 POP POP JUMP JUMPDEST PUSH0 PUSH2 0x456 PUSH0 NOT DUP5 PUSH1 0x8 MUL PUSH2 0x43B JUMP JUMPDEST NOT DUP1 DUP4 AND SWAP2 POP POP SWAP3 SWAP2 POP POP JUMP JUMPDEST PUSH0 PUSH2 0x46E DUP4 DUP4 PUSH2 0x447 JUMP JUMPDEST SWAP2 POP DUP3 PUSH1 0x2 MUL DUP3 OR SWAP1 POP SWAP3 SWAP2 POP POP JUMP JUMPDEST PUSH2 0x487 DUP3 PUSH2 0x244 JUMP JUMPDEST PUSH8 0xFFFFFFFFFFFFFFFF DUP2 GT ISZERO PUSH2 0x4A0 JUMPI PUSH2 0x49F PUSH2 0x24E JUMP JUMPDEST JUMPDEST PUSH2 0x4AA DUP3 SLOAD PUSH2 0x2A8 JUMP JUMPDEST PUSH2 0x4B5 DUP3 DUP3 DUP6 PUSH2 0x3F5 JUMP JUMPDEST PUSH0 PUSH1 0x20 SWAP1 POP PUSH1 0x1F DUP4 GT PUSH1 0x1 DUP2 EQ PUSH2 0x4E6 JUMPI PUSH0 DUP5 ISZERO PUSH2 0x4D4 JUMPI DUP3 DUP8 ADD MLOAD SWAP1 POP JUMPDEST PUSH2 0x4DE DUP6 DUP3 PUSH2 0x463 JUMP JUMPDEST DUP7 SSTORE POP PUSH2 0x545 JUMP JUMPDEST PUSH1 0x1F NOT DUP5 AND PUSH2 0x4F4 DUP7 PUSH2 0x2D8 JUMP JUMPDEST PUSH0 JUMPDEST DUP3 DUP2 LT ISZERO PUSH2 0x51B JUMPI DUP5 DUP10 ADD MLOAD DUP3 SSTORE PUSH1 0x1 DUP3 ADD SWAP2 POP PUSH1 0x20 DUP6 ADD SWAP5 POP PUSH1 0x20 DUP2 ADD SWAP1 POP PUSH2 0x4F6 JUMP JUMPDEST DUP7 DUP4 LT ISZERO PUSH2 0x538 JUMPI DUP5 DUP10 ADD MLOAD PUSH2 0x534 PUSH1 0x1F DUP10 AND DUP3 PUSH2 0x447 JUMP JUMPDEST DUP4 SSTORE POP JUMPDEST PUSH1 0x1 PUSH1 0x2 DUP9 MUL ADD DUP9 SSTORE POP POP POP JUMPDEST POP POP POP POP POP POP JUMP JUMPDEST PUSH2 0x2520 DUP1 PUSH2 0x55A PUSH0 CODECOPY PUSH0 RETURN INVALID PUSH1 0x80 PUSH1 0x40 MSTORE PUSH1 0x4 CALLDATASIZE LT PUSH2 0x19B JUMPI PUSH0 CALLDATALOAD PUSH1 0xE0 SHR DUP1 PUSH4 0x70A08231 GT PUSH2 0xEB JUMPI DUP1 PUSH4 0xC87B56DD GT PUSH2 0x89 JUMPI DUP1 PUSH4 0xE592301A GT PUSH2 0x63 JUMPI DUP1 PUSH4 0xE592301A EQ PUSH2 0x591 JUMPI DUP1 PUSH4 0xE985E9C5 EQ PUSH2 0x5BB JUMPI DUP1 PUSH4 0xEB54F9EC EQ PUSH2 0x5F7 JUMPI DUP1 PUSH4 0xF2FDE38B EQ PUSH2 0x621 JUMPI PUSH2 0x19B JUMP JUMPDEST DUP1 PUSH4 0xC87B56DD EQ PUSH2 0x501 JUMPI DUP1 PUSH4 0xCAF8A6D1 EQ PUSH2 0x53D JUMPI DUP1 PUSH4 0xD8258D95 EQ PUSH2 0x567 JUMPI PUSH2 0x19B JUMP JUMPDEST DUP1 PUSH4 0x8DA5CB5B GT PUSH2 0xC5 JUMPI DUP1 PUSH4 0x8DA5CB5B EQ PUSH2 0x45D JUMPI DUP1 PUSH4 0x95D89B41 EQ PUSH2 0x487 JUMPI DUP1 PUSH4 0xA22CB465 EQ PUSH2 0x4B1 JUMPI DUP1 PUSH4 0xB88D4FDE EQ PUSH2 0x4D9 JUMPI PUSH2 0x19B JUMP JUMPDEST DUP1 PUSH4 0x70A08231 EQ PUSH2 0x3E1 JUMPI DUP1 PUSH4 0x715018A6 EQ PUSH2 0x41D JUMPI DUP1 PUSH4 0x7A1C4A56 EQ PUSH2 0x433 JUMPI PUSH2 0x19B JUMP JUMPDEST DUP1 PUSH4 0x23B872DD GT PUSH2 0x158 JUMPI DUP1 PUSH4 0x4BD25C6F GT PUSH2 0x132 JUMPI DUP1 PUSH4 0x4BD25C6F EQ PUSH2 0x335 JUMPI DUP1 PUSH4 0x4D3554C3 EQ PUSH2 0x35F JUMPI DUP1 PUSH4 0x59F369FE EQ PUSH2 0x37B JUMPI DUP1 PUSH4 0x6352211E EQ PUSH2 0x3A5 JUMPI PUSH2 0x19B JUMP JUMPDEST DUP1 PUSH4 0x23B872DD EQ PUSH2 0x2BB JUMPI DUP1 PUSH4 0x4047F289 EQ PUSH2 0x2E3 JUMPI DUP1 PUSH4 0x42842E0E EQ PUSH2 0x30D JUMPI PUSH2 0x19B JUMP JUMPDEST DUP1 PUSH4 0x1FFC9A7 EQ PUSH2 0x19F JUMPI DUP1 PUSH4 0x697346F EQ PUSH2 0x1DB JUMPI DUP1 PUSH4 0x6FDDE03 EQ PUSH2 0x203 JUMPI DUP1 PUSH4 0x81812FC EQ PUSH2 0x22D JUMPI DUP1 PUSH4 0x95EA7B3 EQ PUSH2 0x269 JUMPI DUP1 PUSH4 0x18160DDD EQ PUSH2 0x291 JUMPI JUMPDEST PUSH0 DUP1 REVERT JUMPDEST CALLVALUE DUP1 ISZERO PUSH2 0x1AA JUMPI PUSH0 DUP1 REVERT JUMPDEST POP PUSH2 0x1C5 PUSH1 0x4 DUP1 CALLDATASIZE SUB DUP2 ADD SWAP1 PUSH2 0x1C0 SWAP2 SWAP1 PUSH2 0x1984 JUMP JUMPDEST PUSH2 0x649 JUMP JUMPDEST PUSH1 0x40 MLOAD PUSH2 0x1D2 SWAP2 SWAP1 PUSH2 0x19C9 JUMP JUMPDEST PUSH1 0x40 MLOAD DUP1 SWAP2 SUB SWAP1 RETURN JUMPDEST CALLVALUE DUP1 ISZERO PUSH2 0x1E6 JUMPI PUSH0 DUP1 REVERT JUMPDEST POP PUSH2 0x201 PUSH1 0x4 DUP1 CALLDATASIZE SUB DUP2 ADD SWAP1 PUSH2 0x1FC SWAP2 SWAP1 PUSH2 0x1A1B JUMP JUMPDEST PUSH2 0x782 JUMP JUMPDEST STOP JUMPDEST CALLVALUE DUP1 ISZERO PUSH2 0x20E JUMPI PUSH0 DUP1 REVERT JUMPDEST POP PUSH2 0x217 PUSH2 0x79A JUMP JUMPDEST PUSH1 0x40 MLOAD PUSH2 0x224 SWAP2 SWAP1 PUSH2 0x1AB6 JUMP JUMPDEST PUSH1 0x40 MLOAD DUP1 SWAP2 SUB SWAP1 RETURN JUMPDEST CALLVALUE DUP1 ISZERO PUSH2 0x238 JUMPI PUSH0 DUP1 REVERT JUMPDEST POP PUSH2 0x253 PUSH1 0x4 DUP1 CALLDATASIZE SUB DUP2 ADD SWAP1 PUSH2 0x24E SWAP2 SWAP1 PUSH2 0x1B09 JUMP JUMPDEST PUSH2 0x826 JUMP JUMPDEST PUSH1 0x40 MLOAD PUSH2 0x260 SWAP2 SWAP1 PUSH2 0x1B73 JUMP JUMPDEST PUSH1 0x40 MLOAD DUP1 SWAP2 SUB SWAP1 RETURN JUMPDEST CALLVALUE DUP1 ISZERO PUSH2 0x274 JUMPI PUSH0 DUP1 REVERT JUMPDEST POP PUSH2 0x28F PUSH1 0x4 DUP1 CALLDATASIZE SUB DUP2 ADD SWAP1 PUSH2 0x28A SWAP2 SWAP1 PUSH2 0x1BB6 JUMP JUMPDEST PUSH2 0x8FD JUMP JUMPDEST STOP JUMPDEST CALLVALUE DUP1 ISZERO PUSH2 0x29C JUMPI PUSH0 DUP1 REVERT JUMPDEST POP PUSH2 0x2A5 PUSH2 0xA3B JUMP JUMPDEST PUSH1 0x40 MLOAD PUSH2 0x2B2 SWAP2 SWAP1 PUSH2 0x1C03 JUMP JUMPDEST PUSH1 0x40 MLOAD DUP1 SWAP2 SUB SWAP1 RETURN JUMPDEST CALLVALUE DUP1 ISZERO PUSH2 0x2C6 JUMPI PUSH0 DUP1 REVERT JUMPDEST POP PUSH2 0x2E1 PUSH1 0x4 DUP1 CALLDATASIZE SUB DUP2 ADD SWAP1 PUSH2 0x2DC SWAP2 SWAP1 PUSH2 0x1C1C JUMP JUMPDEST PUSH2 0xA47 JUMP JUMPDEST STOP JUMPDEST CALLVALUE DUP1 ISZERO PUSH2 0x2EE JUMPI PUSH0 DUP1 REVERT JUMPDEST POP PUSH2 0x2F7 PUSH2 0xAD7 JUMP JUMPDEST PUSH1 0x40 MLOAD PUSH2 0x304 SWAP2 SWAP1 PUSH2 0x1C03 JUMP JUMPDEST PUSH1 0x40 MLOAD DUP1 SWAP2 SUB SWAP1 RETURN JUMPDEST CALLVALUE DUP1 ISZERO PUSH2 0x318 JUMPI PUSH0 DUP1 REVERT JUMPDEST POP PUSH2 0x333 PUSH1 0x4 DUP1 CALLDATASIZE SUB DUP2 ADD SWAP1 PUSH2 0x32E SWAP2 SWAP1 PUSH2 0x1C1C JUMP JUMPDEST PUSH2 0xADC JUMP JUMPDEST STOP JUMPDEST CALLVALUE DUP1 ISZERO PUSH2 0x340 JUMPI PUSH0 DUP1 REVERT JUMPDEST POP PUSH2 0x349 PUSH2 0xAFB JUMP JUMPDEST PUSH1 0x40 MLOAD PUSH2 0x356 SWAP2 SWAP1 PUSH2 0x1C03 JUMP JUMPDEST PUSH1 0x40 MLOAD DUP1 SWAP2 SUB SWAP1 RETURN JUMPDEST PUSH2 0x379 PUSH1 0x4 DUP1 CALLDATASIZE SUB DUP2 ADD SWAP1 PUSH2 0x374 SWAP2 SWAP1 PUSH2 0x1B09 JUMP JUMPDEST PUSH2 0xAFF JUMP JUMPDEST STOP JUMPDEST CALLVALUE DUP1 ISZERO PUSH2 0x386 JUMPI PUSH0 DUP1 REVERT JUMPDEST POP PUSH2 0x38F PUSH2 0xB09 JUMP JUMPDEST PUSH1 0x40 MLOAD PUSH2 0x39C SWAP2 SWAP1 PUSH2 0x1C03 JUMP JUMPDEST PUSH1 0x40 MLOAD DUP1 SWAP2 SUB SWAP1 RETURN JUMPDEST CALLVALUE DUP1 ISZERO PUSH2 0x3B0 JUMPI PUSH0 DUP1 REVERT JUMPDEST POP PUSH2 0x3CB PUSH1 0x4 DUP1 CALLDATASIZE SUB DUP2 ADD SWAP1 PUSH2 0x3C6 SWAP2 SWAP1 PUSH2 0x1B09 JUMP JUMPDEST PUSH2 0xB41 JUMP JUMPDEST PUSH1 0x40 MLOAD PUSH2 0x3D8 SWAP2 SWAP1 PUSH2 0x1B73 JUMP JUMPDEST PUSH1 0x40 MLOAD DUP1 SWAP2 SUB SWAP1 RETURN JUMPDEST CALLVALUE DUP1 ISZERO PUSH2 0x3EC JUMPI PUSH0 DUP1 REVERT JUMPDEST POP PUSH2 0x407 PUSH1 0x4 DUP1 CALLDATASIZE SUB DUP2 ADD SWAP1 PUSH2 0x402 SWAP2 SWAP1 PUSH2 0x1C6C JUMP JUMPDEST PUSH2 0xBE8 JUMP JUMPDEST PUSH1 0x40 MLOAD PUSH2 0x414 SWAP2 SWAP1 PUSH2 0x1C03 JUMP JUMPDEST PUSH1 0x40 MLOAD DUP1 SWAP2 SUB SWAP1 RETURN JUMPDEST CALLVALUE DUP1 ISZERO PUSH2 0x428 JUMPI PUSH0 DUP1 REVERT JUMPDEST POP PUSH2 0x431 PUSH2 0xC9C JUMP JUMPDEST STOP JUMPDEST CALLVALUE DUP1 ISZERO PUSH2 0x43E JUMPI PUSH0 DUP1 REVERT JUMPDEST POP PUSH2 0x447 PUSH2 0xCAF JUMP JUMPDEST PUSH1 0x40 MLOAD PUSH2 0x454 SWAP2 SWAP1 PUSH2 0x1C03 JUMP JUMPDEST PUSH1 0x40 MLOAD DUP1 SWAP2 SUB SWAP1 RETURN JUMPDEST CALLVALUE DUP1 ISZERO PUSH2 0x468 JUMPI PUSH0 DUP1 REVERT JUMPDEST POP PUSH2 0x471 PUSH2 0xCBB JUMP JUMPDEST PUSH1 0x40 MLOAD PUSH2 0x47E SWAP2 SWAP1 PUSH2 0x1B73 JUMP JUMPDEST PUSH1 0x40 MLOAD DUP1 SWAP2 SUB SWAP1 RETURN JUMPDEST CALLVALUE DUP1 ISZERO PUSH2 0x492 JUMPI PUSH0 DUP1 REVERT JUMPDEST POP PUSH2 0x49B PUSH2 0xCE2 JUMP JUMPDEST PUSH1 0x40 MLOAD PUSH2 0x4A8 SWAP2 SWAP1 PUSH2 0x1AB6 JUMP JUMPDEST PUSH1 0x40 MLOAD DUP1 SWAP2 SUB SWAP1 RETURN JUMPDEST CALLVALUE DUP1 ISZERO PUSH2 0x4BC JUMPI PUSH0 DUP1 REVERT JUMPDEST POP PUSH2 0x4D7 PUSH1 0x4 DUP1 CALLDATASIZE SUB DUP2 ADD SWAP1 PUSH2 0x4D2 SWAP2 SWAP1 PUSH2 0x1CC1 JUMP JUMPDEST PUSH2 0xD6E JUMP JUMPDEST STOP JUMPDEST CALLVALUE DUP1 ISZERO PUSH2 0x4E4 JUMPI PUSH0 DUP1 REVERT JUMPDEST POP PUSH2 0x4FF PUSH1 0x4 DUP1 CALLDATASIZE SUB DUP2 ADD SWAP1 PUSH2 0x4FA SWAP2 SWAP1 PUSH2 0x1E2B JUMP JUMPDEST PUSH2 0xE67 JUMP JUMPDEST STOP JUMPDEST CALLVALUE DUP1 ISZERO PUSH2 0x50C JUMPI PUSH0 DUP1 REVERT JUMPDEST POP PUSH2 0x527 PUSH1 0x4 DUP1 CALLDATASIZE SUB DUP2 ADD SWAP1 PUSH2 0x522 SWAP2 SWAP1 PUSH2 0x1B09 JUMP JUMPDEST PUSH2 0xEF9 JUMP JUMPDEST PUSH1 0x40 MLOAD PUSH2 0x534 SWAP2 SWAP1 PUSH2 0x1AB6 JUMP JUMPDEST PUSH1 0x40 MLOAD DUP1 SWAP2 SUB SWAP1 RETURN JUMPDEST CALLVALUE DUP1 ISZERO PUSH2 0x548 JUMPI PUSH0 DUP1 REVERT JUMPDEST POP PUSH2 0x551 PUSH2 0xFF3 JUMP JUMPDEST PUSH1 0x40 MLOAD PUSH2 0x55E SWAP2 SWAP1 PUSH2 0x1C03 JUMP JUMPDEST PUSH1 0x40 MLOAD DUP1 SWAP2 SUB SWAP1 RETURN JUMPDEST CALLVALUE DUP1 ISZERO PUSH2 0x572 JUMPI PUSH0 DUP1 REVERT JUMPDEST POP PUSH2 0x57B PUSH2 0xFFF JUMP JUMPDEST PUSH1 0x40 MLOAD PUSH2 0x588 SWAP2 SWAP1 PUSH2 0x1C03 JUMP JUMPDEST PUSH1 0x40 MLOAD DUP1 SWAP2 SUB SWAP1 RETURN JUMPDEST CALLVALUE DUP1 ISZERO PUSH2 0x59C JUMPI PUSH0 DUP1 REVERT JUMPDEST POP PUSH2 0x5A5 PUSH2 0x1005 JUMP JUMPDEST PUSH1 0x40 MLOAD PUSH2 0x5B2 SWAP2 SWAP1 PUSH2 0x1C03 JUMP JUMPDEST PUSH1 0x40 MLOAD DUP1 SWAP2 SUB SWAP1 RETURN JUMPDEST CALLVALUE DUP1 ISZERO PUSH2 0x5C6 JUMPI PUSH0 DUP1 REVERT JUMPDEST POP PUSH2 0x5E1 PUSH1 0x4 DUP1 CALLDATASIZE SUB DUP2 ADD SWAP1 PUSH2 0x5DC SWAP2 SWAP1 PUSH2 0x1EAB JUMP JUMPDEST PUSH2 0x100B JUMP JUMPDEST PUSH1 0x40 MLOAD PUSH2 0x5EE SWAP2 SWAP1 PUSH2 0x19C9 JUMP JUMPDEST PUSH1 0x40 MLOAD DUP1 SWAP2 SUB SWAP1 RETURN JUMPDEST CALLVALUE DUP1 ISZERO PUSH2 0x602 JUMPI PUSH0 DUP1 REVERT JUMPDEST POP PUSH2 0x60B PUSH2 0x1099 JUMP JUMPDEST PUSH1 0x40 MLOAD PUSH2 0x618 SWAP2 SWAP1 PUSH2 0x1C03 JUMP JUMPDEST PUSH1 0x40 MLOAD DUP1 SWAP2 SUB SWAP1 RETURN JUMPDEST CALLVALUE DUP1 ISZERO PUSH2 0x62C JUMPI PUSH0 DUP1 REVERT JUMPDEST POP PUSH2 0x647 PUSH1 0x4 DUP1 CALLDATASIZE SUB DUP2 ADD SWAP1 PUSH2 0x642 SWAP2 SWAP1 PUSH2 0x1C6C JUMP JUMPDEST PUSH2 0x109F JUMP JUMPDEST STOP JUMPDEST PUSH0 PUSH32 0x80AC58CD00000000000000000000000000000000000000000000000000000000 PUSH28 0xFFFFFFFFFFFFFFFFFFFFFFFFFFFFFFFFFFFFFFFFFFFFFFFFFFFFFFFF NOT AND DUP3 PUSH28 0xFFFFFFFFFFFFFFFFFFFFFFFFFFFFFFFFFFFFFFFFFFFFFFFFFFFFFFFF NOT AND EQ DUP1 PUSH2 0x713 JUMPI POP PUSH32 0x1FFC9A700000000000000000000000000000000000000000000000000000000 PUSH28 0xFFFFFFFFFFFFFFFFFFFFFFFFFFFFFFFFFFFFFFFFFFFFFFFFFFFFFFFF NOT AND DUP3 PUSH28 0xFFFFFFFFFFFFFFFFFFFFFFFFFFFFFFFFFFFFFFFFFFFFFFFFFFFFFFFF NOT AND EQ JUMPDEST DUP1 PUSH2 0x77B JUMPI POP PUSH32 0x5B5E139F00000000000000000000000000000000000000000000000000000000 PUSH28 0xFFFFFFFFFFFFFFFFFFFFFFFFFFFFFFFFFFFFFFFFFFFFFFFFFFFFFFFF NOT AND DUP3 PUSH28 0xFFFFFFFFFFFFFFFFFFFFFFFFFFFFFFFFFFFFFFFFFFFFFFFFFFFFFFFF NOT AND EQ JUMPDEST SWAP1 POP SWAP2 SWAP1 POP JUMP JUMPDEST PUSH2 0x78A PUSH2 0x1123 JUMP JUMPDEST DUP1 PUSH4 0xFFFFFFFF AND PUSH1 0x7 DUP2 SWAP1 SSTORE POP POP JUMP JUMPDEST PUSH1 0x1 DUP1 SLOAD PUSH2 0x7A7 SWAP1 PUSH2 0x1F16 JUMP JUMPDEST DUP1 PUSH1 0x1F ADD PUSH1 0x20 DUP1 SWAP2 DIV MUL PUSH1 0x20 ADD PUSH1 0x40 MLOAD SWAP1 DUP2 ADD PUSH1 0x40 MSTORE DUP1 SWAP3 SWAP2 SWAP1 DUP2 DUP2 MSTORE PUSH1 0x20 ADD DUP3 DUP1 SLOAD PUSH2 0x7D3 SWAP1 PUSH2 0x1F16 JUMP JUMPDEST DUP1 ISZERO PUSH2 0x81E JUMPI DUP1 PUSH1 0x1F LT PUSH2 0x7F5 JUMPI PUSH2 0x100 DUP1 DUP4 SLOAD DIV MUL DUP4 MSTORE SWAP2 PUSH1 0x20 ADD SWAP2 PUSH2 0x81E JUMP JUMPDEST DUP3 ADD SWAP2 SWAP1 PUSH0 MSTORE PUSH1 0x20 PUSH0 KECCAK256 SWAP1 JUMPDEST DUP2 SLOAD DUP2 MSTORE SWAP1 PUSH1 0x1 ADD SWAP1 PUSH1 0x20 ADD DUP1 DUP4 GT PUSH2 0x801 JUMPI DUP3 SWAP1 SUB PUSH1 0x1F AND DUP3 ADD SWAP2 JUMPDEST POP POP POP POP POP DUP2 JUMP JUMPDEST PUSH0 DUP1 PUSH20 0xFFFFFFFFFFFFFFFFFFFFFFFFFFFFFFFFFFFFFFFF AND PUSH1 0x3 PUSH0 DUP5 DUP2 MSTORE PUSH1 0x20 ADD SWAP1 DUP2 MSTORE PUSH1 0x20 ADD PUSH0 KECCAK256 PUSH0 SWAP1 SLOAD SWAP1 PUSH2 0x100 EXP SWAP1 DIV PUSH20 0xFFFFFFFFFFFFFFFFFFFFFFFFFFFFFFFFFFFFFFFF AND PUSH20 0xFFFFFFFFFFFFFFFFFFFFFFFFFFFFFFFFFFFFFFFF AND SUB PUSH2 0x8C5 JUMPI PUSH1 0x40 MLOAD PUSH32 0x8C379A000000000000000000000000000000000000000000000000000000000 DUP2 MSTORE PUSH1 0x4 ADD PUSH2 0x8BC SWAP1 PUSH2 0x1F90 JUMP JUMPDEST PUSH1 0x40 MLOAD DUP1 SWAP2 SUB SWAP1 REVERT JUMPDEST PUSH1 0x5 PUSH0 DUP4 DUP2 MSTORE PUSH1 0x20 ADD SWAP1 DUP2 MSTORE PUSH1 0x20 ADD PUSH0 KECCAK256 PUSH0 SWAP1 SLOAD SWAP1 PUSH2 0x100 EXP SWAP1 DIV PUSH20 0xFFFFFFFFFFFFFFFFFFFFFFFFFFFFFFFFFFFFFFFF AND SWAP1 POP SWAP2 SWAP1 POP JUMP JUMPDEST PUSH0 PUSH1 0x3 PUSH0 DUP4 DUP2 MSTORE PUSH1 0x20 ADD SWAP1 DUP2 MSTORE PUSH1 0x20 ADD PUSH0 KECCAK256 PUSH0 SWAP1 SLOAD SWAP1 PUSH2 0x100 EXP SWAP1 DIV PUSH20 0xFFFFFFFFFFFFFFFFFFFFFFFFFFFFFFFFFFFFFFFF AND SWAP1 POP CALLER PUSH20 0xFFFFFFFFFFFFFFFFFFFFFFFFFFFFFFFFFFFFFFFF AND DUP2 PUSH20 0xFFFFFFFFFFFFFFFFFFFFFFFFFFFFFFFFFFFFFFFF AND EQ DUP1 PUSH2 0x9EC JUMPI POP PUSH1 0x6 PUSH0 DUP3 PUSH20 0xFFFFFFFFFFFFFFFFFFFFFFFFFFFFFFFFFFFFFFFF AND PUSH20 0xFFFFFFFFFFFFFFFFFFFFFFFFFFFFFFFFFFFFFFFF AND DUP2 MSTORE PUSH1 0x20 ADD SWAP1 DUP2 MSTORE PUSH1 0x20 ADD PUSH0 KECCAK256 PUSH0 CALLER PUSH20 0xFFFFFFFFFFFFFFFFFFFFFFFFFFFFFFFFFFFFFFFF AND PUSH20 0xFFFFFFFFFFFFFFFFFFFFFFFFFFFFFFFFFFFFFFFF AND DUP2 MSTORE PUSH1 0x20 ADD SWAP1 DUP2 MSTORE PUSH1 0x20 ADD PUSH0 KECCAK256 PUSH0 SWAP1 SLOAD SWAP1 PUSH2 0x100 EXP SWAP1 DIV PUSH1 0xFF AND JUMPDEST PUSH2 0xA2B JUMPI PUSH1 0x40 MLOAD PUSH32 0x8C379A000000000000000000000000000000000000000000000000000000000 DUP2 MSTORE PUSH1 0x4 ADD PUSH2 0xA22 SWAP1 PUSH2 0x1FF8 JUMP JUMPDEST PUSH1 0x40 MLOAD DUP1 SWAP2 SUB SWAP1 REVERT JUMPDEST PUSH2 0xA36 DUP2 DUP5 DUP5 PUSH2 0x119C JUMP JUMPDEST POP POP POP JUMP JUMPDEST PUSH0 PUSH1 0x9 DUP1 SLOAD SWAP1 POP SWAP1 POP SWAP1 JUMP JUMPDEST PUSH0 PUSH1 0x3 PUSH0 DUP4 DUP2 MSTORE PUSH1 0x20 ADD SWAP1 DUP2 MSTORE PUSH1 0x20 ADD PUSH0 KECCAK256 PUSH0 SWAP1 SLOAD SWAP1 PUSH2 0x100 EXP SWAP1 DIV PUSH20 0xFFFFFFFFFFFFFFFFFFFFFFFFFFFFFFFFFFFFFFFF AND SWAP1 POP PUSH2 0xA86 DUP2 CALLER DUP5 PUSH2 0x124B JUMP JUMPDEST PUSH2 0xAC5 JUMPI PUSH1 0x40 MLOAD PUSH32 0x8C379A000000000000000000000000000000000000000000000000000000000 DUP2 MSTORE PUSH1 0x4 ADD PUSH2 0xABC SWAP1 PUSH2 0x2060 JUMP JUMPDEST PUSH1 0x40 MLOAD DUP1 SWAP2 SUB SWAP1 REVERT JUMPDEST PUSH2 0xAD1 DUP2 DUP6 DUP6 DUP6 PUSH2 0x1376 JUMP JUMPDEST POP POP POP POP JUMP JUMPDEST PUSH1 0x3C DUP2 JUMP JUMPDEST PUSH2 0xAF6 DUP4 DUP4 DUP4 PUSH1 0x40 MLOAD DUP1 PUSH1 0x20 ADD PUSH1 0x40 MSTORE DUP1 PUSH0 DUP2 MSTORE POP PUSH2 0xE67 JUMP JUMPDEST POP POP POP JUMP JUMPDEST PUSH0 SWAP1 JUMP JUMPDEST PUSH0 PUSH1 0x7 SLOAD SWAP1 POP POP POP JUMP JUMPDEST PUSH1 0x3C PUSH2 0x258 PUSH2 0xB18 SWAP2 SWAP1 PUSH2 0x20D8 JUMP JUMPDEST PUSH8 0x16345785D8A0000 PUSH8 0xDE0B6B3A7640000 PUSH2 0xB34 SWAP2 SWAP1 PUSH2 0x2108 JUMP JUMPDEST PUSH2 0xB3E SWAP2 SWAP1 PUSH2 0x20D8 JUMP JUMPDEST DUP2 JUMP JUMPDEST PUSH0 PUSH1 0x3 PUSH0 DUP4 DUP2 MSTORE PUSH1 0x20 ADD SWAP1 DUP2 MSTORE PUSH1 0x20 ADD PUSH0 KECCAK256 PUSH0 SWAP1 SLOAD SWAP1 PUSH2 0x100 EXP SWAP1 DIV PUSH20 0xFFFFFFFFFFFFFFFFFFFFFFFFFFFFFFFFFFFFFFFF AND SWAP1 POP PUSH0 PUSH20 0xFFFFFFFFFFFFFFFFFFFFFFFFFFFFFFFFFFFFFFFF AND DUP2 PUSH20 0xFFFFFFFFFFFFFFFFFFFFFFFFFFFFFFFFFFFFFFFF AND SUB PUSH2 0xBE3 JUMPI PUSH1 0x40 MLOAD PUSH32 0x8C379A000000000000000000000000000000000000000000000000000000000 DUP2 MSTORE PUSH1 0x4 ADD PUSH2 0xBDA SWAP1 PUSH2 0x2185 JUMP JUMPDEST PUSH1 0x40 MLOAD DUP1 SWAP2 SUB SWAP1 REVERT JUMPDEST SWAP2 SWAP1 POP JUMP JUMPDEST PUSH0 DUP1 PUSH20 0xFFFFFFFFFFFFFFFFFFFFFFFFFFFFFFFFFFFFFFFF AND DUP3 PUSH20 0xFFFFFFFFFFFFFFFFFFFFFFFFFFFFFFFFFFFFFFFF AND SUB PUSH2 0xC57 JUMPI PUSH1 0x40 MLOAD PUSH32 0x8C379A000000000000000000000000000000000000000000000000000000000 DUP2 MSTORE PUSH1 0x4 ADD PUSH2 0xC4E SWAP1 PUSH2 0x21ED JUMP JUMPDEST PUSH1 0x40 MLOAD DUP1 SWAP2 SUB SWAP1 REVERT JUMPDEST PUSH1 0x4 PUSH0 DUP4 PUSH20 0xFFFFFFFFFFFFFFFFFFFFFFFFFFFFFFFFFFFFFFFF AND PUSH20 0xFFFFFFFFFFFFFFFFFFFFFFFFFFFFFFFFFFFFFFFF AND DUP2 MSTORE PUSH1 0x20 ADD SWAP1 DUP2 MSTORE PUSH1 0x20 ADD PUSH0 KECCAK256 SLOAD SWAP1 POP SWAP2 SWAP1 POP JUMP JUMPDEST PUSH2 0xCA4 PUSH2 0x1123 JUMP JUMPDEST PUSH2 0xCAD PUSH0 PUSH2 0x1524 JUMP JUMPDEST JUMP JUMPDEST PUSH8 0xDE0B6B3A7640000 DUP2 JUMP JUMPDEST PUSH0 DUP1 PUSH0 SWAP1 SLOAD SWAP1 PUSH2 0x100 EXP SWAP1 DIV PUSH20 0xFFFFFFFFFFFFFFFFFFFFFFFFFFFFFFFFFFFFFFFF AND SWAP1 POP SWAP1 JUMP JUMPDEST PUSH1 0x2 DUP1 SLOAD PUSH2 0xCEF SWAP1 PUSH2 0x1F16 JUMP JUMPDEST DUP1 PUSH1 0x1F ADD PUSH1 0x20 DUP1 SWAP2 DIV MUL PUSH1 0x20 ADD PUSH1 0x40 MLOAD SWAP1 DUP2 ADD PUSH1 0x40 MSTORE DUP1 SWAP3 SWAP2 SWAP1 DUP2 DUP2 MSTORE PUSH1 0x20 ADD DUP3 DUP1 SLOAD PUSH2 0xD1B SWAP1 PUSH2 0x1F16 JUMP JUMPDEST DUP1 ISZERO PUSH2 0xD66 JUMPI DUP1 PUSH1 0x1F LT PUSH2 0xD3D JUMPI PUSH2 0x100 DUP1 DUP4 SLOAD DIV MUL DUP4 MSTORE SWAP2 PUSH1 0x20 ADD SWAP2 PUSH2 0xD66 JUMP JUMPDEST DUP3 ADD SWAP2 SWAP1 PUSH0 MSTORE PUSH1 0x20 PUSH0 KECCAK256 SWAP1 JUMPDEST DUP2 SLOAD DUP2 MSTORE SWAP1 PUSH1 0x1 ADD SWAP1 PUSH1 0x20 ADD DUP1 DUP4 GT PUSH2 0xD49 JUMPI DUP3 SWAP1 SUB PUSH1 0x1F AND DUP3 ADD SWAP2 JUMPDEST POP POP POP POP POP DUP2 JUMP JUMPDEST PUSH1 0x1 PUSH1 0x6 PUSH0 CALLER PUSH20 0xFFFFFFFFFFFFFFFFFFFFFFFFFFFFFFFFFFFFFFFF AND PUSH20 0xFFFFFFFFFFFFFFFFFFFFFFFFFFFFFFFFFFFFFFFF AND DUP2 MSTORE PUSH1 0x20 ADD SWAP1 DUP2 MSTORE PUSH1 0x20 ADD PUSH0 KECCAK256 PUSH0 DUP5 PUSH20 0xFFFFFFFFFFFFFFFFFFFFFFFFFFFFFFFFFFFFFFFF AND PUSH20 0xFFFFFFFFFFFFFFFFFFFFFFFFFFFFFFFFFFFFFFFF AND DUP2 MSTORE PUSH1 0x20 ADD SWAP1 DUP2 MSTORE PUSH1 0x20 ADD PUSH0 KECCAK256 PUSH0 PUSH2 0x100 EXP DUP2 SLOAD DUP2 PUSH1 0xFF MUL NOT AND SWAP1 DUP4 ISZERO ISZERO MUL OR SWAP1 SSTORE POP DUP2 PUSH20 0xFFFFFFFFFFFFFFFFFFFFFFFFFFFFFFFFFFFFFFFF AND CALLER PUSH20 0xFFFFFFFFFFFFFFFFFFFFFFFFFFFFFFFFFFFFFFFF AND PUSH32 0x17307EAB39AB6107E8899845AD3D59BD9653F200F220920489CA2B5937696C31 DUP4 PUSH1 0x40 MLOAD PUSH2 0xE5B SWAP2 SWAP1 PUSH2 0x19C9 JUMP JUMPDEST PUSH1 0x40 MLOAD DUP1 SWAP2 SUB SWAP1 LOG3 POP POP JUMP JUMPDEST PUSH0 PUSH1 0x3 PUSH0 DUP5 DUP2 MSTORE PUSH1 0x20 ADD SWAP1 DUP2 MSTORE PUSH1 0x20 ADD PUSH0 KECCAK256 PUSH0 SWAP1 SLOAD SWAP1 PUSH2 0x100 EXP SWAP1 DIV PUSH20 0xFFFFFFFFFFFFFFFFFFFFFFFFFFFFFFFFFFFFFFFF AND SWAP1 POP PUSH2 0xEA6 DUP2 CALLER DUP6 PUSH2 0x124B JUMP JUMPDEST PUSH2 0xEE5 JUMPI PUSH1 0x40 MLOAD PUSH32 0x8C379A000000000000000000000000000000000000000000000000000000000 DUP2 MSTORE PUSH1 0x4 ADD PUSH2 0xEDC SWAP1 PUSH2 0x2060 JUMP JUMPDEST PUSH1 0x40 MLOAD DUP1 SWAP2 SUB SWAP1 REVERT JUMPDEST PUSH2 0xEF2 DUP2 DUP7 DUP7 DUP7 DUP7 PUSH2 0x15E5 JUMP JUMPDEST POP POP POP POP POP JUMP JUMPDEST PUSH1 0x60 PUSH0 PUSH20 0xFFFFFFFFFFFFFFFFFFFFFFFFFFFFFFFFFFFFFFFF AND PUSH1 0x3 PUSH0 DUP5 DUP2 MSTORE PUSH1 0x20 ADD SWAP1 DUP2 MSTORE PUSH1 0x20 ADD PUSH0 KECCAK256 PUSH0 SWAP1 SLOAD SWAP1 PUSH2 0x100 EXP SWAP1 DIV PUSH20 0xFFFFFFFFFFFFFFFFFFFFFFFFFFFFFFFFFFFFFFFF AND PUSH20 0xFFFFFFFFFFFFFFFFFFFFFFFFFFFFFFFFFFFFFFFF AND SUB PUSH2 0xF99 JUMPI PUSH1 0x40 MLOAD PUSH32 0x8C379A000000000000000000000000000000000000000000000000000000000 DUP2 MSTORE PUSH1 0x4 ADD PUSH2 0xF90 SWAP1 PUSH2 0x2255 JUMP JUMPDEST PUSH1 0x40 MLOAD DUP1 SWAP2 SUB SWAP1 REVERT JUMPDEST PUSH0 PUSH2 0xFA2 PUSH2 0x1604 JUMP JUMPDEST SWAP1 POP PUSH0 DUP2 MLOAD GT PUSH2 0xFC0 JUMPI PUSH1 0x40 MLOAD DUP1 PUSH1 0x20 ADD PUSH1 0x40 MSTORE DUP1 PUSH0 DUP2 MSTORE POP PUSH2 0xFEB JUMP JUMPDEST DUP1 PUSH2 0xFCA DUP5 PUSH2 0x161A JUMP JUMPDEST PUSH1 0x40 MLOAD PUSH1 0x20 ADD PUSH2 0xFDB SWAP3 SWAP2 SWAP1 PUSH2 0x22AD JUMP JUMPDEST PUSH1 0x40 MLOAD PUSH1 0x20 DUP2 DUP4 SUB SUB DUP2 MSTORE SWAP1 PUSH1 0x40 MSTORE JUMPDEST SWAP2 POP POP SWAP2 SWAP1 POP JUMP JUMPDEST PUSH8 0x16345785D8A0000 DUP2 JUMP JUMPDEST PUSH2 0x2710 DUP2 JUMP JUMPDEST PUSH2 0x258 DUP2 JUMP JUMPDEST PUSH0 PUSH1 0x6 PUSH0 DUP5 PUSH20 0xFFFFFFFFFFFFFFFFFFFFFFFFFFFFFFFFFFFFFFFF AND PUSH20 0xFFFFFFFFFFFFFFFFFFFFFFFFFFFFFFFFFFFFFFFF AND DUP2 MSTORE PUSH1 0x20 ADD SWAP1 DUP2 MSTORE PUSH1 0x20 ADD PUSH0 KECCAK256 PUSH0 DUP4 PUSH20 0xFFFFFFFFFFFFFFFFFFFFFFFFFFFFFFFFFFFFFFFF AND PUSH20 0xFFFFFFFFFFFFFFFFFFFFFFFFFFFFFFFFFFFFFFFF AND DUP2 MSTORE PUSH1 0x20 ADD SWAP1 DUP2 MSTORE PUSH1 0x20 ADD PUSH0 KECCAK256 PUSH0 SWAP1 SLOAD SWAP1 PUSH2 0x100 EXP SWAP1 DIV PUSH1 0xFF AND SWAP1 POP SWAP3 SWAP2 POP POP JUMP JUMPDEST PUSH1 0x7 SLOAD DUP2 JUMP JUMPDEST PUSH2 0x10A7 PUSH2 0x1123 JUMP JUMPDEST PUSH0 PUSH20 0xFFFFFFFFFFFFFFFFFFFFFFFFFFFFFFFFFFFFFFFF AND DUP2 PUSH20 0xFFFFFFFFFFFFFFFFFFFFFFFFFFFFFFFFFFFFFFFF AND SUB PUSH2 0x1117 JUMPI PUSH0 PUSH1 0x40 MLOAD PUSH32 0x1E4FBDF700000000000000000000000000000000000000000000000000000000 DUP2 MSTORE PUSH1 0x4 ADD PUSH2 0x110E SWAP2 SWAP1 PUSH2 0x1B73 JUMP JUMPDEST PUSH1 0x40 MLOAD DUP1 SWAP2 SUB SWAP1 REVERT JUMPDEST PUSH2 0x1120 DUP2 PUSH2 0x1524 JUMP JUMPDEST POP JUMP JUMPDEST CALLER PUSH20 0xFFFFFFFFFFFFFFFFFFFFFFFFFFFFFFFFFFFFFFFF AND PUSH2 0x1142 PUSH2 0xCBB JUMP JUMPDEST PUSH20 0xFFFFFFFFFFFFFFFFFFFFFFFFFFFFFFFFFFFFFFFF AND EQ PUSH2 0x119A JUMPI CALLER PUSH1 0x40 MLOAD PUSH32 0x118CDAA700000000000000000000000000000000000000000000000000000000 DUP2 MSTORE PUSH1 0x4 ADD PUSH2 0x1191 SWAP2 SWAP1 PUSH2 0x1B73 JUMP JUMPDEST PUSH1 0x40 MLOAD DUP1 SWAP2 SUB SWAP1 REVERT JUMPDEST JUMP JUMPDEST DUP2 PUSH1 0x5 PUSH0 DUP4 DUP2 MSTORE PUSH1 0x20 ADD SWAP1 DUP2 MSTORE PUSH1 0x20 ADD PUSH0 KECCAK256 PUSH0 PUSH2 0x100 EXP DUP2 SLOAD DUP2 PUSH20 0xFFFFFFFFFFFFFFFFFFFFFFFFFFFFFFFFFFFFFFFF MUL NOT AND SWAP1 DUP4 PUSH20 0xFFFFFFFFFFFFFFFFFFFFFFFFFFFFFFFFFFFFFFFF AND MUL OR SWAP1 SSTORE POP DUP1 DUP3 PUSH20 0xFFFFFFFFFFFFFFFFFFFFFFFFFFFFFFFFFFFFFFFF AND DUP5 PUSH20 0xFFFFFFFFFFFFFFFFFFFFFFFFFFFFFFFFFFFFFFFF AND PUSH32 0x8C5BE1E5EBEC7D5BD14F71427D1E84F3DD0314C0F7B2291E5B200AC8C7C3B925 PUSH1 0x40 MLOAD PUSH1 0x40 MLOAD DUP1 SWAP2 SUB SWAP1 LOG4 POP POP POP JUMP JUMPDEST PUSH0 DUP3 PUSH20 0xFFFFFFFFFFFFFFFFFFFFFFFFFFFFFFFFFFFFFFFF AND DUP5 PUSH20 0xFFFFFFFFFFFFFFFFFFFFFFFFFFFFFFFFFFFFFFFF AND EQ DUP1 PUSH2 0x1307 JUMPI POP PUSH1 0x6 PUSH0 DUP6 PUSH20 0xFFFFFFFFFFFFFFFFFFFFFFFFFFFFFFFFFFFFFFFF AND PUSH20 0xFFFFFFFFFFFFFFFFFFFFFFFFFFFFFFFFFFFFFFFF AND DUP2 MSTORE PUSH1 0x20 ADD SWAP1 DUP2 MSTORE PUSH1 0x20 ADD PUSH0 KECCAK256 PUSH0 DUP5 PUSH20 0xFFFFFFFFFFFFFFFFFFFFFFFFFFFFFFFFFFFFFFFF AND PUSH20 0xFFFFFFFFFFFFFFFFFFFFFFFFFFFFFFFFFFFFFFFF AND DUP2 MSTORE PUSH1 0x20 ADD SWAP1 DUP2 MSTORE PUSH1 0x20 ADD PUSH0 KECCAK256 PUSH0 SWAP1 SLOAD SWAP1 PUSH2 0x100 EXP SWAP1 DIV PUSH1 0xFF AND JUMPDEST DUP1 PUSH2 0x136D JUMPI POP DUP3 PUSH20 0xFFFFFFFFFFFFFFFFFFFFFFFFFFFFFFFFFFFFFFFF AND PUSH1 0x5 PUSH0 DUP5 DUP2 MSTORE PUSH1 0x20 ADD SWAP1 DUP2 MSTORE PUSH1 0x20 ADD PUSH0 KECCAK256 PUSH0 SWAP1 SLOAD SWAP1 PUSH2 0x100 EXP SWAP1 DIV PUSH20 0xFFFFFFFFFFFFFFFFFFFFFFFFFFFFFFFFFFFFFFFF AND PUSH20 0xFFFFFFFFFFFFFFFFFFFFFFFFFFFFFFFFFFFFFFFF AND EQ JUMPDEST SWAP1 POP SWAP4 SWAP3 POP POP POP JUMP JUMPDEST DUP4 PUSH20 0xFFFFFFFFFFFFFFFFFFFFFFFFFFFFFFFFFFFFFFFF AND DUP4 PUSH20 0xFFFFFFFFFFFFFFFFFFFFFFFFFFFFFFFFFFFFFFFF AND EQ DUP1 ISZERO PUSH2 0x13DD JUMPI POP PUSH0 PUSH20 0xFFFFFFFFFFFFFFFFFFFFFFFFFFFFFFFFFFFFFFFF AND DUP3 PUSH20 0xFFFFFFFFFFFFFFFFFFFFFFFFFFFFFFFFFFFFFFFF AND EQ ISZERO JUMPDEST PUSH2 0x141C JUMPI PUSH1 0x40 MLOAD PUSH32 0x8C379A000000000000000000000000000000000000000000000000000000000 DUP2 MSTORE PUSH1 0x4 ADD PUSH2 0x1413 SWAP1 PUSH2 0x231A JUMP JUMPDEST PUSH1 0x40 MLOAD DUP1 SWAP2 SUB SWAP1 REVERT JUMPDEST PUSH1 0x1 PUSH1 0x4 PUSH0 DUP6 PUSH20 0xFFFFFFFFFFFFFFFFFFFFFFFFFFFFFFFFFFFFFFFF AND PUSH20 0xFFFFFFFFFFFFFFFFFFFFFFFFFFFFFFFFFFFFFFFF AND DUP2 MSTORE PUSH1 0x20 ADD SWAP1 DUP2 MSTORE PUSH1 0x20 ADD PUSH0 KECCAK256 PUSH0 DUP3 DUP3 SLOAD PUSH2 0x1469 SWAP2 SWAP1 PUSH2 0x2108 JUMP JUMPDEST SWAP3 POP POP DUP2 SWAP1 SSTORE POP PUSH1 0x1 PUSH1 0x4 PUSH0 DUP5 PUSH20 0xFFFFFFFFFFFFFFFFFFFFFFFFFFFFFFFFFFFFFFFF AND PUSH20 0xFFFFFFFFFFFFFFFFFFFFFFFFFFFFFFFFFFFFFFFF AND DUP2 MSTORE PUSH1 0x20 ADD SWAP1 DUP2 MSTORE PUSH1 0x20 ADD PUSH0 KECCAK256 PUSH0 DUP3 DUP3 SLOAD PUSH2 0x14BD SWAP2 SWAP1 PUSH2 0x2338 JUMP JUMPDEST SWAP3 POP POP DUP2 SWAP1 SSTORE POP DUP2 PUSH1 0x3 PUSH0 DUP4 DUP2 MSTORE PUSH1 0x20 ADD SWAP1 DUP2 MSTORE PUSH1 0x20 ADD PUSH0 KECCAK256 PUSH0 PUSH2 0x100 EXP DUP2 SLOAD DUP2 PUSH20 0xFFFFFFFFFFFFFFFFFFFFFFFFFFFFFFFFFFFFFFFF MUL NOT AND SWAP1 DUP4 PUSH20 0xFFFFFFFFFFFFFFFFFFFFFFFFFFFFFFFFFFFFFFFF AND MUL OR SWAP1 SSTORE POP PUSH2 0x151E DUP3 PUSH0 DUP4 PUSH2 0x119C JUMP JUMPDEST POP POP POP POP JUMP JUMPDEST PUSH0 DUP1 PUSH0 SWAP1 SLOAD SWAP1 PUSH2 0x100 EXP SWAP1 DIV PUSH20 0xFFFFFFFFFFFFFFFFFFFFFFFFFFFFFFFFFFFFFFFF AND SWAP1 POP DUP2 PUSH0 DUP1 PUSH2 0x100 EXP DUP2 SLOAD DUP2 PUSH20 0xFFFFFFFFFFFFFFFFFFFFFFFFFFFFFFFFFFFFFFFF MUL NOT AND SWAP1 DUP4 PUSH20 0xFFFFFFFFFFFFFFFFFFFFFFFFFFFFFFFFFFFFFFFF AND MUL OR SWAP1 SSTORE POP DUP2 PUSH20 0xFFFFFFFFFFFFFFFFFFFFFFFFFFFFFFFFFFFFFFFF AND DUP2 PUSH20 0xFFFFFFFFFFFFFFFFFFFFFFFFFFFFFFFFFFFFFFFF AND PUSH32 0x8BE0079C531659141344CD1FD0A4F28419497F9722A3DAAFE3B4186F6B6457E0 PUSH1 0x40 MLOAD PUSH1 0x40 MLOAD DUP1 SWAP2 SUB SWAP1 LOG3 POP POP JUMP JUMPDEST PUSH2 0x15F1 DUP6 DUP6 DUP6 DUP6 PUSH2 0x1376 JUMP JUMPDEST PUSH2 0x15FD DUP5 DUP5 DUP5 DUP5 PUSH2 0x1773 JUMP JUMPDEST POP POP POP POP POP JUMP JUMPDEST PUSH1 0x60 PUSH1 0x40 MLOAD DUP1 PUSH1 0x20 ADD PUSH1 0x40 MSTORE DUP1 PUSH0 DUP2 MSTORE POP SWAP1 POP SWAP1 JUMP JUMPDEST PUSH1 0x60 PUSH0 DUP3 SUB PUSH2 0x1660 JUMPI PUSH1 0x40 MLOAD DUP1 PUSH1 0x40 ADD PUSH1 0x40 MSTORE DUP1 PUSH1 0x1 DUP2 MSTORE PUSH1 0x20 ADD PUSH32 0x3000000000000000000000000000000000000000000000000000000000000000 DUP2 MSTORE POP SWAP1 POP PUSH2 0x176E JUMP JUMPDEST PUSH0 DUP3 SWAP1 POP PUSH0 JUMPDEST PUSH0 DUP3 EQ PUSH2 0x168F JUMPI DUP1 DUP1 PUSH2 0x1678 SWAP1 PUSH2 0x236B JUMP JUMPDEST SWAP2 POP POP PUSH1 0xA DUP3 PUSH2 0x1688 SWAP2 SWAP1 PUSH2 0x20D8 JUMP JUMPDEST SWAP2 POP PUSH2 0x1666 JUMP JUMPDEST PUSH0 DUP2 PUSH8 0xFFFFFFFFFFFFFFFF DUP2 GT ISZERO PUSH2 0x16AA JUMPI PUSH2 0x16A9 PUSH2 0x1D07 JUMP JUMPDEST JUMPDEST PUSH1 0x40 MLOAD SWAP1 DUP1 DUP3 MSTORE DUP1 PUSH1 0x1F ADD PUSH1 0x1F NOT AND PUSH1 0x20 ADD DUP3 ADD PUSH1 0x40 MSTORE DUP1 ISZERO PUSH2 0x16DC JUMPI DUP2 PUSH1 0x20 ADD PUSH1 0x1 DUP3 MUL DUP1 CALLDATASIZE DUP4 CALLDATACOPY DUP1 DUP3 ADD SWAP2 POP POP SWAP1 POP JUMPDEST POP SWAP1 POP JUMPDEST PUSH0 DUP6 EQ PUSH2 0x1767 JUMPI PUSH1 0x1 DUP3 PUSH2 0x16F4 SWAP2 SWAP1 PUSH2 0x2108 JUMP JUMPDEST SWAP2 POP PUSH1 0xA DUP6 PUSH2 0x1703 SWAP2 SWAP1 PUSH2 0x23B2 JUMP JUMPDEST PUSH1 0x30 PUSH2 0x170F SWAP2 SWAP1 PUSH2 0x2338 JUMP JUMPDEST PUSH1 0xF8 SHL DUP2 DUP4 DUP2 MLOAD DUP2 LT PUSH2 0x1725 JUMPI PUSH2 0x1724 PUSH2 0x23E2 JUMP JUMPDEST JUMPDEST PUSH1 0x20 ADD ADD SWAP1 PUSH31 0xFFFFFFFFFFFFFFFFFFFFFFFFFFFFFFFFFFFFFFFFFFFFFFFFFFFFFFFFFFFFFF NOT AND SWAP1 DUP2 PUSH0 BYTE SWAP1 MSTORE8 POP PUSH1 0xA DUP6 PUSH2 0x1760 SWAP2 SWAP1 PUSH2 0x20D8 JUMP JUMPDEST SWAP5 POP PUSH2 0x16E0 JUMP JUMPDEST DUP1 SWAP4 POP POP POP POP JUMPDEST SWAP2 SWAP1 POP JUMP JUMPDEST PUSH0 DUP4 PUSH20 0xFFFFFFFFFFFFFFFFFFFFFFFFFFFFFFFFFFFFFFFF AND EXTCODESIZE GT ISZERO PUSH2 0x1918 JUMPI DUP3 PUSH20 0xFFFFFFFFFFFFFFFFFFFFFFFFFFFFFFFFFFFFFFFF AND PUSH4 0x150B7A02 CALLER DUP7 DUP6 DUP6 PUSH1 0x40 MLOAD DUP6 PUSH4 0xFFFFFFFF AND PUSH1 0xE0 SHL DUP2 MSTORE PUSH1 0x4 ADD PUSH2 0x17D1 SWAP5 SWAP4 SWAP3 SWAP2 SWAP1 PUSH2 0x2461 JUMP JUMPDEST PUSH1 0x20 PUSH1 0x40 MLOAD DUP1 DUP4 SUB DUP2 PUSH0 DUP8 GAS CALL SWAP3 POP POP POP DUP1 ISZERO PUSH2 0x180C JUMPI POP PUSH1 0x40 MLOAD RETURNDATASIZE PUSH1 0x1F NOT PUSH1 0x1F DUP3 ADD AND DUP3 ADD DUP1 PUSH1 0x40 MSTORE POP DUP2 ADD SWAP1 PUSH2 0x1809 SWAP2 SWAP1 PUSH2 0x24BF JUMP JUMPDEST PUSH1 0x1 JUMPDEST PUSH2 0x188D JUMPI RETURNDATASIZE DUP1 PUSH0 DUP2 EQ PUSH2 0x183A JUMPI PUSH1 0x40 MLOAD SWAP2 POP PUSH1 0x1F NOT PUSH1 0x3F RETURNDATASIZE ADD AND DUP3 ADD PUSH1 0x40 MSTORE RETURNDATASIZE DUP3 MSTORE RETURNDATASIZE PUSH0 PUSH1 0x20 DUP5 ADD RETURNDATACOPY PUSH2 0x183F JUMP JUMPDEST PUSH1 0x60 SWAP2 POP JUMPDEST POP PUSH0 DUP2 MLOAD SUB PUSH2 0x1885 JUMPI DUP4 PUSH1 0x40 MLOAD PUSH32 0x64A0AE9200000000000000000000000000000000000000000000000000000000 DUP2 MSTORE PUSH1 0x4 ADD PUSH2 0x187C SWAP2 SWAP1 PUSH2 0x1B73 JUMP JUMPDEST PUSH1 0x40 MLOAD DUP1 SWAP2 SUB SWAP1 REVERT JUMPDEST DUP1 MLOAD DUP2 PUSH1 0x20 ADD REVERT JUMPDEST PUSH4 0x150B7A02 PUSH1 0xE0 SHL PUSH28 0xFFFFFFFFFFFFFFFFFFFFFFFFFFFFFFFFFFFFFFFFFFFFFFFFFFFFFFFF NOT AND DUP2 PUSH28 0xFFFFFFFFFFFFFFFFFFFFFFFFFFFFFFFFFFFFFFFFFFFFFFFFFFFFFFFF NOT AND EQ PUSH2 0x1916 JUMPI DUP4 PUSH1 0x40 MLOAD PUSH32 0x64A0AE9200000000000000000000000000000000000000000000000000000000 DUP2 MSTORE PUSH1 0x4 ADD PUSH2 0x190D SWAP2 SWAP1 PUSH2 0x1B73 JUMP JUMPDEST PUSH1 0x40 MLOAD DUP1 SWAP2 SUB SWAP1 REVERT JUMPDEST POP JUMPDEST POP POP POP POP JUMP JUMPDEST PUSH0 PUSH1 0x40 MLOAD SWAP1 POP SWAP1 JUMP JUMPDEST PUSH0 DUP1 REVERT JUMPDEST PUSH0 DUP1 REVERT JUMPDEST PUSH0 PUSH32 0xFFFFFFFF00000000000000000000000000000000000000000000000000000000 DUP3 AND SWAP1 POP SWAP2 SWAP1 POP JUMP JUMPDEST PUSH2 0x1963 DUP2 PUSH2 0x192F JUMP JUMPDEST DUP2 EQ PUSH2 0x196D JUMPI PUSH0 DUP1 REVERT JUMPDEST POP JUMP JUMPDEST PUSH0 DUP2 CALLDATALOAD SWAP1 POP PUSH2 0x197E DUP2 PUSH2 0x195A JUMP JUMPDEST SWAP3 SWAP2 POP POP JUMP JUMPDEST PUSH0 PUSH1 0x20 DUP3 DUP5 SUB SLT ISZERO PUSH2 0x1999 JUMPI PUSH2 0x1998 PUSH2 0x1927 JUMP JUMPDEST JUMPDEST PUSH0 PUSH2 0x19A6 DUP5 DUP3 DUP6 ADD PUSH2 0x1970 JUMP JUMPDEST SWAP2 POP POP SWAP3 SWAP2 POP POP JUMP JUMPDEST PUSH0 DUP2 ISZERO ISZERO SWAP1 POP SWAP2 SWAP1 POP JUMP JUMPDEST PUSH2 0x19C3 DUP2 PUSH2 0x19AF JUMP JUMPDEST DUP3 MSTORE POP POP JUMP JUMPDEST PUSH0 PUSH1 0x20 DUP3 ADD SWAP1 POP PUSH2 0x19DC PUSH0 DUP4 ADD DUP5 PUSH2 0x19BA JUMP JUMPDEST SWAP3 SWAP2 POP POP JUMP JUMPDEST PUSH0 PUSH4 0xFFFFFFFF DUP3 AND SWAP1 POP SWAP2 SWAP1 POP JUMP JUMPDEST PUSH2 0x19FA DUP2 PUSH2 0x19E2 JUMP JUMPDEST DUP2 EQ PUSH2 0x1A04 JUMPI PUSH0 DUP1 REVERT JUMPDEST POP JUMP JUMPDEST PUSH0 DUP2 CALLDATALOAD SWAP1 POP PUSH2 0x1A15 DUP2 PUSH2 0x19F1 JUMP JUMPDEST SWAP3 SWAP2 POP POP JUMP JUMPDEST PUSH0 PUSH1 0x20 DUP3 DUP5 SUB SLT ISZERO PUSH2 0x1A30 JUMPI PUSH2 0x1A2F PUSH2 0x1927 JUMP JUMPDEST JUMPDEST PUSH0 PUSH2 0x1A3D DUP5 DUP3 DUP6 ADD PUSH2 0x1A07 JUMP JUMPDEST SWAP2 POP POP SWAP3 SWAP2 POP POP JUMP JUMPDEST PUSH0 DUP2 MLOAD SWAP1 POP SWAP2 SWAP1 POP JUMP JUMPDEST PUSH0 DUP3 DUP3 MSTORE PUSH1 0x20 DUP3 ADD SWAP1 POP SWAP3 SWAP2 POP POP JUMP JUMPDEST DUP3 DUP2 DUP4 MCOPY PUSH0 DUP4 DUP4 ADD MSTORE POP POP POP JUMP JUMPDEST PUSH0 PUSH1 0x1F NOT PUSH1 0x1F DUP4 ADD AND SWAP1 POP SWAP2 SWAP1 POP JUMP JUMPDEST PUSH0 PUSH2 0x1A88 DUP3 PUSH2 0x1A46 JUMP JUMPDEST PUSH2 0x1A92 DUP2 DUP6 PUSH2 0x1A50 JUMP JUMPDEST SWAP4 POP PUSH2 0x1AA2 DUP2 DUP6 PUSH1 0x20 DUP7 ADD PUSH2 0x1A60 JUMP JUMPDEST PUSH2 0x1AAB DUP2 PUSH2 0x1A6E JUMP JUMPDEST DUP5 ADD SWAP2 POP POP SWAP3 SWAP2 POP POP JUMP JUMPDEST PUSH0 PUSH1 0x20 DUP3 ADD SWAP1 POP DUP2 DUP2 SUB PUSH0 DUP4 ADD MSTORE PUSH2 0x1ACE DUP2 DUP5 PUSH2 0x1A7E JUMP JUMPDEST SWAP1 POP SWAP3 SWAP2 POP POP JUMP JUMPDEST PUSH0 DUP2 SWAP1 POP SWAP2 SWAP1 POP JUMP JUMPDEST PUSH2 0x1AE8 DUP2 PUSH2 0x1AD6 JUMP JUMPDEST DUP2 EQ PUSH2 0x1AF2 JUMPI PUSH0 DUP1 REVERT JUMPDEST POP JUMP JUMPDEST PUSH0 DUP2 CALLDATALOAD SWAP1 POP PUSH2 0x1B03 DUP2 PUSH2 0x1ADF JUMP JUMPDEST SWAP3 SWAP2 POP POP JUMP JUMPDEST PUSH0 PUSH1 0x20 DUP3 DUP5 SUB SLT ISZERO PUSH2 0x1B1E JUMPI PUSH2 0x1B1D PUSH2 0x1927 JUMP JUMPDEST JUMPDEST PUSH0 PUSH2 0x1B2B DUP5 DUP3 DUP6 ADD PUSH2 0x1AF5 JUMP JUMPDEST SWAP2 POP POP SWAP3 SWAP2 POP POP JUMP JUMPDEST PUSH0 PUSH20 0xFFFFFFFFFFFFFFFFFFFFFFFFFFFFFFFFFFFFFFFF DUP3 AND SWAP1 POP SWAP2 SWAP1 POP JUMP JUMPDEST PUSH0 PUSH2 0x1B5D DUP3 PUSH2 0x1B34 JUMP JUMPDEST SWAP1 POP SWAP2 SWAP1 POP JUMP JUMPDEST PUSH2 0x1B6D DUP2 PUSH2 0x1B53 JUMP JUMPDEST DUP3 MSTORE POP POP JUMP JUMPDEST PUSH0 PUSH1 0x20 DUP3 ADD SWAP1 POP PUSH2 0x1B86 PUSH0 DUP4 ADD DUP5 PUSH2 0x1B64 JUMP JUMPDEST SWAP3 SWAP2 POP POP JUMP JUMPDEST PUSH2 0x1B95 DUP2 PUSH2 0x1B53 JUMP JUMPDEST DUP2 EQ PUSH2 0x1B9F JUMPI PUSH0 DUP1 REVERT JUMPDEST POP JUMP JUMPDEST PUSH0 DUP2 CALLDATALOAD SWAP1 POP PUSH2 0x1BB0 DUP2 PUSH2 0x1B8C JUMP JUMPDEST SWAP3 SWAP2 POP POP JUMP JUMPDEST PUSH0 DUP1 PUSH1 0x40 DUP4 DUP6 SUB SLT ISZERO PUSH2 0x1BCC JUMPI PUSH2 0x1BCB PUSH2 0x1927 JUMP JUMPDEST JUMPDEST PUSH0 PUSH2 0x1BD9 DUP6 DUP3 DUP7 ADD PUSH2 0x1BA2 JUMP JUMPDEST SWAP3 POP POP PUSH1 0x20 PUSH2 0x1BEA DUP6 DUP3 DUP7 ADD PUSH2 0x1AF5 JUMP JUMPDEST SWAP2 POP POP SWAP3 POP SWAP3 SWAP1 POP JUMP JUMPDEST PUSH2 0x1BFD DUP2 PUSH2 0x1AD6 JUMP JUMPDEST DUP3 MSTORE POP POP JUMP JUMPDEST PUSH0 PUSH1 0x20 DUP3 ADD SWAP1 POP PUSH2 0x1C16 PUSH0 DUP4 ADD DUP5 PUSH2 0x1BF4 JUMP JUMPDEST SWAP3 SWAP2 POP POP JUMP JUMPDEST PUSH0 DUP1 PUSH0 PUSH1 0x60 DUP5 DUP7 SUB SLT ISZERO PUSH2 0x1C33 JUMPI PUSH2 0x1C32 PUSH2 0x1927 JUMP JUMPDEST JUMPDEST PUSH0 PUSH2 0x1C40 DUP7 DUP3 DUP8 ADD PUSH2 0x1BA2 JUMP JUMPDEST SWAP4 POP POP PUSH1 0x20 PUSH2 0x1C51 DUP7 DUP3 DUP8 ADD PUSH2 0x1BA2 JUMP JUMPDEST SWAP3 POP POP PUSH1 0x40 PUSH2 0x1C62 DUP7 DUP3 DUP8 ADD PUSH2 0x1AF5 JUMP JUMPDEST SWAP2 POP POP SWAP3 POP SWAP3 POP SWAP3 JUMP JUMPDEST PUSH0 PUSH1 0x20 DUP3 DUP5 SUB SLT ISZERO PUSH2 0x1C81 JUMPI PUSH2 0x1C80 PUSH2 0x1927 JUMP JUMPDEST JUMPDEST PUSH0 PUSH2 0x1C8E DUP5 DUP3 DUP6 ADD PUSH2 0x1BA2 JUMP JUMPDEST SWAP2 POP POP SWAP3 SWAP2 POP POP JUMP JUMPDEST PUSH2 0x1CA0 DUP2 PUSH2 0x19AF JUMP JUMPDEST DUP2 EQ PUSH2 0x1CAA JUMPI PUSH0 DUP1 REVERT JUMPDEST POP JUMP JUMPDEST PUSH0 DUP2 CALLDATALOAD SWAP1 POP PUSH2 0x1CBB DUP2 PUSH2 0x1C97 JUMP JUMPDEST SWAP3 SWAP2 POP POP JUMP JUMPDEST PUSH0 DUP1 PUSH1 0x40 DUP4 DUP6 SUB SLT ISZERO PUSH2 0x1CD7 JUMPI PUSH2 0x1CD6 PUSH2 0x1927 JUMP JUMPDEST JUMPDEST PUSH0 PUSH2 0x1CE4 DUP6 DUP3 DUP7 ADD PUSH2 0x1BA2 JUMP JUMPDEST SWAP3 POP POP PUSH1 0x20 PUSH2 0x1CF5 DUP6 DUP3 DUP7 ADD PUSH2 0x1CAD JUMP JUMPDEST SWAP2 POP POP SWAP3 POP SWAP3 SWAP1 POP JUMP JUMPDEST PUSH0 DUP1 REVERT JUMPDEST PUSH0 DUP1 REVERT JUMPDEST PUSH32 0x4E487B7100000000000000000000000000000000000000000000000000000000 PUSH0 MSTORE PUSH1 0x41 PUSH1 0x4 MSTORE PUSH1 0x24 PUSH0 REVERT JUMPDEST PUSH2 0x1D3D DUP3 PUSH2 0x1A6E JUMP JUMPDEST DUP2 ADD DUP2 DUP2 LT PUSH8 0xFFFFFFFFFFFFFFFF DUP3 GT OR ISZERO PUSH2 0x1D5C JUMPI PUSH2 0x1D5B PUSH2 0x1D07 JUMP JUMPDEST JUMPDEST DUP1 PUSH1 0x40 MSTORE POP POP POP JUMP JUMPDEST PUSH0 PUSH2 0x1D6E PUSH2 0x191E JUMP JUMPDEST SWAP1 POP PUSH2 0x1D7A DUP3 DUP3 PUSH2 0x1D34 JUMP JUMPDEST SWAP2 SWAP1 POP JUMP JUMPDEST PUSH0 PUSH8 0xFFFFFFFFFFFFFFFF DUP3 GT ISZERO PUSH2 0x1D99 JUMPI PUSH2 0x1D98 PUSH2 0x1D07 JUMP JUMPDEST JUMPDEST PUSH2 0x1DA2 DUP3 PUSH2 0x1A6E JUMP JUMPDEST SWAP1 POP PUSH1 0x20 DUP2 ADD SWAP1 POP SWAP2 SWAP1 POP JUMP JUMPDEST DUP3 DUP2 DUP4 CALLDATACOPY PUSH0 DUP4 DUP4 ADD MSTORE POP POP POP JUMP JUMPDEST PUSH0 PUSH2 0x1DCF PUSH2 0x1DCA DUP5 PUSH2 0x1D7F JUMP JUMPDEST PUSH2 0x1D65 JUMP JUMPDEST SWAP1 POP DUP3 DUP2 MSTORE PUSH1 0x20 DUP2 ADD DUP5 DUP5 DUP5 ADD GT ISZERO PUSH2 0x1DEB JUMPI PUSH2 0x1DEA PUSH2 0x1D03 JUMP JUMPDEST JUMPDEST PUSH2 0x1DF6 DUP5 DUP3 DUP6 PUSH2 0x1DAF JUMP JUMPDEST POP SWAP4 SWAP3 POP POP POP JUMP JUMPDEST PUSH0 DUP3 PUSH1 0x1F DUP4 ADD SLT PUSH2 0x1E12 JUMPI PUSH2 0x1E11 PUSH2 0x1CFF JUMP JUMPDEST JUMPDEST DUP2 CALLDATALOAD PUSH2 0x1E22 DUP5 DUP3 PUSH1 0x20 DUP7 ADD PUSH2 0x1DBD JUMP JUMPDEST SWAP2 POP POP SWAP3 SWAP2 POP POP JUMP JUMPDEST PUSH0 DUP1 PUSH0 DUP1 PUSH1 0x80 DUP6 DUP8 SUB SLT ISZERO PUSH2 0x1E43 JUMPI PUSH2 0x1E42 PUSH2 0x1927 JUMP JUMPDEST JUMPDEST PUSH0 PUSH2 0x1E50 DUP8 DUP3 DUP9 ADD PUSH2 0x1BA2 JUMP JUMPDEST SWAP5 POP POP PUSH1 0x20 PUSH2 0x1E61 DUP8 DUP3 DUP9 ADD PUSH2 0x1BA2 JUMP JUMPDEST SWAP4 POP POP PUSH1 0x40 PUSH2 0x1E72 DUP8 DUP3 DUP9 ADD PUSH2 0x1AF5 JUMP JUMPDEST SWAP3 POP POP PUSH1 0x60 DUP6 ADD CALLDATALOAD PUSH8 0xFFFFFFFFFFFFFFFF DUP2 GT ISZERO PUSH2 0x1E93 JUMPI PUSH2 0x1E92 PUSH2 0x192B JUMP JUMPDEST JUMPDEST PUSH2 0x1E9F DUP8 DUP3 DUP9 ADD PUSH2 0x1DFE JUMP JUMPDEST SWAP2 POP POP SWAP3 SWAP6 SWAP2 SWAP5 POP SWAP3 POP JUMP JUMPDEST PUSH0 DUP1 PUSH1 0x40 DUP4 DUP6 SUB SLT ISZERO PUSH2 0x1EC1 JUMPI PUSH2 0x1EC0 PUSH2 0x1927 JUMP JUMPDEST JUMPDEST PUSH0 PUSH2 0x1ECE DUP6 DUP3 DUP7 ADD PUSH2 0x1BA2 JUMP JUMPDEST SWAP3 POP POP PUSH1 0x20 PUSH2 0x1EDF DUP6 DUP3 DUP7 ADD PUSH2 0x1BA2 JUMP JUMPDEST SWAP2 POP POP SWAP3 POP SWAP3 SWAP1 POP JUMP JUMPDEST PUSH32 0x4E487B7100000000000000000000000000000000000000000000000000000000 PUSH0 MSTORE PUSH1 0x22 PUSH1 0x4 MSTORE PUSH1 0x24 PUSH0 REVERT JUMPDEST PUSH0 PUSH1 0x2 DUP3 DIV SWAP1 POP PUSH1 0x1 DUP3 AND DUP1 PUSH2 0x1F2D JUMPI PUSH1 0x7F DUP3 AND SWAP2 POP JUMPDEST PUSH1 0x20 DUP3 LT DUP2 SUB PUSH2 0x1F40 JUMPI PUSH2 0x1F3F PUSH2 0x1EE9 JUMP JUMPDEST JUMPDEST POP SWAP2 SWAP1 POP JUMP JUMPDEST PUSH32 0x746F6B656E20646F6573206E6F74206578697374212121000000000000000000 PUSH0 DUP3 ADD MSTORE POP JUMP JUMPDEST PUSH0 PUSH2 0x1F7A PUSH1 0x17 DUP4 PUSH2 0x1A50 JUMP JUMPDEST SWAP2 POP PUSH2 0x1F85 DUP3 PUSH2 0x1F46 JUMP JUMPDEST PUSH1 0x20 DUP3 ADD SWAP1 POP SWAP2 SWAP1 POP JUMP JUMPDEST PUSH0 PUSH1 0x20 DUP3 ADD SWAP1 POP DUP2 DUP2 SUB PUSH0 DUP4 ADD MSTORE PUSH2 0x1FA7 DUP2 PUSH2 0x1F6E JUMP JUMPDEST SWAP1 POP SWAP2 SWAP1 POP JUMP JUMPDEST PUSH32 0x696E76616C69642063616C6C2066756E6374696F6E2027617070726F76652700 PUSH0 DUP3 ADD MSTORE POP JUMP JUMPDEST PUSH0 PUSH2 0x1FE2 PUSH1 0x1F DUP4 PUSH2 0x1A50 JUMP JUMPDEST SWAP2 POP PUSH2 0x1FED DUP3 PUSH2 0x1FAE JUMP JUMPDEST PUSH1 0x20 DUP3 ADD SWAP1 POP SWAP2 SWAP1 POP JUMP JUMPDEST PUSH0 PUSH1 0x20 DUP3 ADD SWAP1 POP DUP2 DUP2 SUB PUSH0 DUP4 ADD MSTORE PUSH2 0x200F DUP2 PUSH2 0x1FD6 JUMP JUMPDEST SWAP1 POP SWAP2 SWAP1 POP JUMP JUMPDEST PUSH32 0x6E6F74206F776E6572206F7220617070726F7665640000000000000000000000 PUSH0 DUP3 ADD MSTORE POP JUMP JUMPDEST PUSH0 PUSH2 0x204A PUSH1 0x15 DUP4 PUSH2 0x1A50 JUMP JUMPDEST SWAP2 POP PUSH2 0x2055 DUP3 PUSH2 0x2016 JUMP JUMPDEST PUSH1 0x20 DUP3 ADD SWAP1 POP SWAP2 SWAP1 POP JUMP JUMPDEST PUSH0 PUSH1 0x20 DUP3 ADD SWAP1 POP DUP2 DUP2 SUB PUSH0 DUP4 ADD MSTORE PUSH2 0x2077 DUP2 PUSH2 0x203E JUMP JUMPDEST SWAP1 POP SWAP2 SWAP1 POP JUMP JUMPDEST PUSH32 0x4E487B7100000000000000000000000000000000000000000000000000000000 PUSH0 MSTORE PUSH1 0x12 PUSH1 0x4 MSTORE PUSH1 0x24 PUSH0 REVERT JUMPDEST PUSH32 0x4E487B7100000000000000000000000000000000000000000000000000000000 PUSH0 MSTORE PUSH1 0x11 PUSH1 0x4 MSTORE PUSH1 0x24 PUSH0 REVERT JUMPDEST PUSH0 PUSH2 0x20E2 DUP3 PUSH2 0x1AD6 JUMP JUMPDEST SWAP2 POP PUSH2 0x20ED DUP4 PUSH2 0x1AD6 JUMP JUMPDEST SWAP3 POP DUP3 PUSH2 0x20FD JUMPI PUSH2 0x20FC PUSH2 0x207E JUMP JUMPDEST JUMPDEST DUP3 DUP3 DIV SWAP1 POP SWAP3 SWAP2 POP POP JUMP JUMPDEST PUSH0 PUSH2 0x2112 DUP3 PUSH2 0x1AD6 JUMP JUMPDEST SWAP2 POP PUSH2 0x211D DUP4 PUSH2 0x1AD6 JUMP JUMPDEST SWAP3 POP DUP3 DUP3 SUB SWAP1 POP DUP2 DUP2 GT ISZERO PUSH2 0x2135 JUMPI PUSH2 0x2134 PUSH2 0x20AB JUMP JUMPDEST JUMPDEST SWAP3 SWAP2 POP POP JUMP JUMPDEST PUSH32 0x746F6B656E206973206E6F742065786973740000000000000000000000000000 PUSH0 DUP3 ADD MSTORE POP JUMP JUMPDEST PUSH0 PUSH2 0x216F PUSH1 0x12 DUP4 PUSH2 0x1A50 JUMP JUMPDEST SWAP2 POP PUSH2 0x217A DUP3 PUSH2 0x213B JUMP JUMPDEST PUSH1 0x20 DUP3 ADD SWAP1 POP SWAP2 SWAP1 POP JUMP JUMPDEST PUSH0 PUSH1 0x20 DUP3 ADD SWAP1 POP DUP2 DUP2 SUB PUSH0 DUP4 ADD MSTORE PUSH2 0x219C DUP2 PUSH2 0x2163 JUMP JUMPDEST SWAP1 POP SWAP2 SWAP1 POP JUMP JUMPDEST PUSH32 0x6F776E6572203D3D205A65726F416464726573732C20697320696E76616C6964 PUSH0 DUP3 ADD MSTORE POP JUMP JUMPDEST PUSH0 PUSH2 0x21D7 PUSH1 0x20 DUP4 PUSH2 0x1A50 JUMP JUMPDEST SWAP2 POP PUSH2 0x21E2 DUP3 PUSH2 0x21A3 JUMP JUMPDEST PUSH1 0x20 DUP3 ADD SWAP1 POP SWAP2 SWAP1 POP JUMP JUMPDEST PUSH0 PUSH1 0x20 DUP3 ADD SWAP1 POP DUP2 DUP2 SUB PUSH0 DUP4 ADD MSTORE PUSH2 0x2204 DUP2 PUSH2 0x21CB JUMP JUMPDEST SWAP1 POP SWAP2 SWAP1 POP JUMP JUMPDEST PUSH32 0x546F6B656E204E6F742045786973740000000000000000000000000000000000 PUSH0 DUP3 ADD MSTORE POP JUMP JUMPDEST PUSH0 PUSH2 0x223F PUSH1 0xF DUP4 PUSH2 0x1A50 JUMP JUMPDEST SWAP2 POP PUSH2 0x224A DUP3 PUSH2 0x220B JUMP JUMPDEST PUSH1 0x20 DUP3 ADD SWAP1 POP SWAP2 SWAP1 POP JUMP JUMPDEST PUSH0 PUSH1 0x20 DUP3 ADD SWAP1 POP DUP2 DUP2 SUB PUSH0 DUP4 ADD MSTORE PUSH2 0x226C DUP2 PUSH2 0x2233 JUMP JUMPDEST SWAP1 POP SWAP2 SWAP1 POP JUMP JUMPDEST PUSH0 DUP2 SWAP1 POP SWAP3 SWAP2 POP POP JUMP JUMPDEST PUSH0 PUSH2 0x2287 DUP3 PUSH2 0x1A46 JUMP JUMPDEST PUSH2 0x2291 DUP2 DUP6 PUSH2 0x2273 JUMP JUMPDEST SWAP4 POP PUSH2 0x22A1 DUP2 DUP6 PUSH1 0x20 DUP7 ADD PUSH2 0x1A60 JUMP JUMPDEST DUP1 DUP5 ADD SWAP2 POP POP SWAP3 SWAP2 POP POP JUMP JUMPDEST PUSH0 PUSH2 0x22B8 DUP3 DUP6 PUSH2 0x227D JUMP JUMPDEST SWAP2 POP PUSH2 0x22C4 DUP3 DUP5 PUSH2 0x227D JUMP JUMPDEST SWAP2 POP DUP2 SWAP1 POP SWAP4 SWAP3 POP POP POP JUMP JUMPDEST PUSH32 0x6E6F74206F776E65720000000000000000000000000000000000000000000000 PUSH0 DUP3 ADD MSTORE POP JUMP JUMPDEST PUSH0 PUSH2 0x2304 PUSH1 0x9 DUP4 PUSH2 0x1A50 JUMP JUMPDEST SWAP2 POP PUSH2 0x230F DUP3 PUSH2 0x22D0 JUMP JUMPDEST PUSH1 0x20 DUP3 ADD SWAP1 POP SWAP2 SWAP1 POP JUMP JUMPDEST PUSH0 PUSH1 0x20 DUP3 ADD SWAP1 POP DUP2 DUP2 SUB PUSH0 DUP4 ADD MSTORE PUSH2 0x2331 DUP2 PUSH2 0x22F8 JUMP JUMPDEST SWAP1 POP SWAP2 SWAP1 POP JUMP JUMPDEST PUSH0 PUSH2 0x2342 DUP3 PUSH2 0x1AD6 JUMP JUMPDEST SWAP2 POP PUSH2 0x234D DUP4 PUSH2 0x1AD6 JUMP JUMPDEST SWAP3 POP DUP3 DUP3 ADD SWAP1 POP DUP1 DUP3 GT ISZERO PUSH2 0x2365 JUMPI PUSH2 0x2364 PUSH2 0x20AB JUMP JUMPDEST JUMPDEST SWAP3 SWAP2 POP POP JUMP JUMPDEST PUSH0 PUSH2 0x2375 DUP3 PUSH2 0x1AD6 JUMP JUMPDEST SWAP2 POP PUSH32 0xFFFFFFFFFFFFFFFFFFFFFFFFFFFFFFFFFFFFFFFFFFFFFFFFFFFFFFFFFFFFFFFF DUP3 SUB PUSH2 0x23A7 JUMPI PUSH2 0x23A6 PUSH2 0x20AB JUMP JUMPDEST JUMPDEST PUSH1 0x1 DUP3 ADD SWAP1 POP SWAP2 SWAP1 POP JUMP JUMPDEST PUSH0 PUSH2 0x23BC DUP3 PUSH2 0x1AD6 JUMP JUMPDEST SWAP2 POP PUSH2 0x23C7 DUP4 PUSH2 0x1AD6 JUMP JUMPDEST SWAP3 POP DUP3 PUSH2 0x23D7 JUMPI PUSH2 0x23D6 PUSH2 0x207E JUMP JUMPDEST JUMPDEST DUP3 DUP3 MOD SWAP1 POP SWAP3 SWAP2 POP POP JUMP JUMPDEST PUSH32 0x4E487B7100000000000000000000000000000000000000000000000000000000 PUSH0 MSTORE PUSH1 0x32 PUSH1 0x4 MSTORE PUSH1 0x24 PUSH0 REVERT JUMPDEST PUSH0 DUP2 MLOAD SWAP1 POP SWAP2 SWAP1 POP JUMP JUMPDEST PUSH0 DUP3 DUP3 MSTORE PUSH1 0x20 DUP3 ADD SWAP1 POP SWAP3 SWAP2 POP POP JUMP JUMPDEST PUSH0 PUSH2 0x2433 DUP3 PUSH2 0x240F JUMP JUMPDEST PUSH2 0x243D DUP2 DUP6 PUSH2 0x2419 JUMP JUMPDEST SWAP4 POP PUSH2 0x244D DUP2 DUP6 PUSH1 0x20 DUP7 ADD PUSH2 0x1A60 JUMP JUMPDEST PUSH2 0x2456 DUP2 PUSH2 0x1A6E JUMP JUMPDEST DUP5 ADD SWAP2 POP POP SWAP3 SWAP2 POP POP JUMP JUMPDEST PUSH0 PUSH1 0x80 DUP3 ADD SWAP1 POP PUSH2 0x2474 PUSH0 DUP4 ADD DUP8 PUSH2 0x1B64 JUMP JUMPDEST PUSH2 0x2481 PUSH1 0x20 DUP4 ADD DUP7 PUSH2 0x1B64 JUMP JUMPDEST PUSH2 0x248E PUSH1 0x40 DUP4 ADD DUP6 PUSH2 0x1BF4 JUMP JUMPDEST DUP2 DUP2 SUB PUSH1 0x60 DUP4 ADD MSTORE PUSH2 0x24A0 DUP2 DUP5 PUSH2 0x2429 JUMP JUMPDEST SWAP1 POP SWAP6 SWAP5 POP POP POP POP POP JUMP JUMPDEST PUSH0 DUP2 MLOAD SWAP1 POP PUSH2 0x24B9 DUP2 PUSH2 0x195A JUMP JUMPDEST SWAP3 SWAP2 POP POP JUMP JUMPDEST PUSH0 PUSH1 0x20 DUP3 DUP5 SUB SLT ISZERO PUSH2 0x24D4 JUMPI PUSH2 0x24D3 PUSH2 0x1927 JUMP JUMPDEST JUMPDEST PUSH0 PUSH2 0x24E1 DUP5 DUP3 DUP6 ADD PUSH2 0x24AB JUMP JUMPDEST SWAP2 POP POP SWAP3 SWAP2 POP POP JUMP INVALID LOG2 PUSH5 0x6970667358 0x22 SLT KECCAK256 0xE0 0xC0 0xBC 0xE1 0xCA 0x29 SWAP1 DUP5 XOR SSTORE AND PUSH31 0x7F0C18685BD62E548DAD2E34A3D00150FC07734B64736F6C634300081A0033 "
		},
		"gasEstimates": {
			"creation": {
				"codeDepositCost": "1900800",
				"executionCost": "infinite",
				"totalCost": "infinite"
			},
			"external": {
				"AUCTION_DROP_PER_STEP()": "infinite",
				"AUCTION_DROP_TIME_INTERVAL()": "393",
				"AUCTION_END_PRICE()": "392",
				"AUCTION_START_PRICE()": "415",
				"AUCTION_TIME()": "369",
				"COLLECTION_SIZE()": "414",
				"approve(address,uint256)": "31625",
				"auctionMint(uint256)": "2556",
				"auctionStartTime()": "2513",
				"balanceOf(address)": "2910",
				"getApproved(uint256)": "5188",
				"getAuctionPrice()": "369",
				"isApprovedForAll(address,address)": "infinite",
				"name()": "infinite",
				"owner()": "2560",
				"ownerOf(uint256)": "3049",
				"renounceOwnership()": "30424",
				"safeTransferFrom(address,address,uint256)": "infinite",
				"safeTransferFrom(address,address,uint256,bytes)": "infinite",
				"setApprovalForAll(address,bool)": "infinite",
				"setAuctionStartTime(uint32)": "24800",
				"supportsInterface(bytes4)": "745",
				"symbol()": "infinite",
				"tokenURI(uint256)": "infinite",
				"totalSupply()": "2574",
				"transferFrom(address,address,uint256)": "infinite",
				"transferOwnership(address)": "infinite"
			},
			"internal": {
				"_addTokenToAllTokensEnumeration(uint256)": "infinite"
			}
		},
		"methodIdentifiers": {
			"AUCTION_DROP_PER_STEP()": "59f369fe",
			"AUCTION_DROP_TIME_INTERVAL()": "4047f289",
			"AUCTION_END_PRICE()": "caf8a6d1",
			"AUCTION_START_PRICE()": "7a1c4a56",
			"AUCTION_TIME()": "e592301a",
			"COLLECTION_SIZE()": "d8258d95",
			"approve(address,uint256)": "095ea7b3",
			"auctionMint(uint256)": "4d3554c3",
			"auctionStartTime()": "eb54f9ec",
			"balanceOf(address)": "70a08231",
			"getApproved(uint256)": "081812fc",
			"getAuctionPrice()": "4bd25c6f",
			"isApprovedForAll(address,address)": "e985e9c5",
			"name()": "06fdde03",
			"owner()": "8da5cb5b",
			"ownerOf(uint256)": "6352211e",
			"renounceOwnership()": "715018a6",
			"safeTransferFrom(address,address,uint256)": "42842e0e",
			"safeTransferFrom(address,address,uint256,bytes)": "b88d4fde",
			"setApprovalForAll(address,bool)": "a22cb465",
			"setAuctionStartTime(uint32)": "0697346f",
			"supportsInterface(bytes4)": "01ffc9a7",
			"symbol()": "95d89b41",
			"tokenURI(uint256)": "c87b56dd",
			"totalSupply()": "18160ddd",
			"transferFrom(address,address,uint256)": "23b872dd",
			"transferOwnership(address)": "f2fde38b"
		}
	},
	"abi": [
		{
			"inputs": [],
			"stateMutability": "nonpayable",
			"type": "constructor"
		},
		{
			"inputs": [
				{
					"internalType": "address",
					"name": "receiver",
					"type": "address"
				}
			],
			"name": "ERC721InvalidReceiver",
			"type": "error"
		},
		{
			"inputs": [
				{
					"internalType": "address",
					"name": "owner",
					"type": "address"
				}
			],
			"name": "OwnableInvalidOwner",
			"type": "error"
		},
		{
			"inputs": [
				{
					"internalType": "address",
					"name": "account",
					"type": "address"
				}
			],
			"name": "OwnableUnauthorizedAccount",
			"type": "error"
		},
		{
			"anonymous": false,
			"inputs": [
				{
					"indexed": true,
					"internalType": "address",
					"name": "owner",
					"type": "address"
				},
				{
					"indexed": true,
					"internalType": "address",
					"name": "approved",
					"type": "address"
				},
				{
					"indexed": true,
					"internalType": "uint256",
					"name": "tokenId",
					"type": "uint256"
				}
			],
			"name": "Approval",
			"type": "event"
		},
		{
			"anonymous": false,
			"inputs": [
				{
					"indexed": true,
					"internalType": "address",
					"name": "owner",
					"type": "address"
				},
				{
					"indexed": true,
					"internalType": "address",
					"name": "operator",
					"type": "address"
				},
				{
					"indexed": false,
					"internalType": "bool",
					"name": "approved",
					"type": "bool"
				}
			],
			"name": "ApprovalForAll",
			"type": "event"
		},
		{
			"anonymous": false,
			"inputs": [
				{
					"indexed": true,
					"internalType": "address",
					"name": "previousOwner",
					"type": "address"
				},
				{
					"indexed": true,
					"internalType": "address",
					"name": "newOwner",
					"type": "address"
				}
			],
			"name": "OwnershipTransferred",
			"type": "event"
		},
		{
			"anonymous": false,
			"inputs": [
				{
					"indexed": true,
					"internalType": "address",
					"name": "from",
					"type": "address"
				},
				{
					"indexed": true,
					"internalType": "address",
					"name": "to",
					"type": "address"
				},
				{
					"indexed": true,
					"internalType": "uint256",
					"name": "tokenId",
					"type": "uint256"
				}
			],
			"name": "Transfer",
			"type": "event"
		},
		{
			"inputs": [],
			"name": "AUCTION_DROP_PER_STEP",
			"outputs": [
				{
					"internalType": "uint256",
					"name": "",
					"type": "uint256"
				}
			],
			"stateMutability": "view",
			"type": "function"
		},
		{
			"inputs": [],
			"name": "AUCTION_DROP_TIME_INTERVAL",
			"outputs": [
				{
					"internalType": "uint256",
					"name": "",
					"type": "uint256"
				}
			],
			"stateMutability": "view",
			"type": "function"
		},
		{
			"inputs": [],
			"name": "AUCTION_END_PRICE",
			"outputs": [
				{
					"internalType": "uint256",
					"name": "",
					"type": "uint256"
				}
			],
			"stateMutability": "view",
			"type": "function"
		},
		{
			"inputs": [],
			"name": "AUCTION_START_PRICE",
			"outputs": [
				{
					"internalType": "uint256",
					"name": "",
					"type": "uint256"
				}
			],
			"stateMutability": "view",
			"type": "function"
		},
		{
			"inputs": [],
			"name": "AUCTION_TIME",
			"outputs": [
				{
					"internalType": "uint256",
					"name": "",
					"type": "uint256"
				}
			],
			"stateMutability": "view",
			"type": "function"
		},
		{
			"inputs": [],
			"name": "COLLECTION_SIZE",
			"outputs": [
				{
					"internalType": "uint256",
					"name": "",
					"type": "uint256"
				}
			],
			"stateMutability": "view",
			"type": "function"
		},
		{
			"inputs": [
				{
					"internalType": "address",
					"name": "to",
					"type": "address"
				},
				{
					"internalType": "uint256",
					"name": "tokenId",
					"type": "uint256"
				}
			],
			"name": "approve",
			"outputs": [],
			"stateMutability": "nonpayable",
			"type": "function"
		},
		{
			"inputs": [
				{
					"internalType": "uint256",
					"name": "quantity",
					"type": "uint256"
				}
			],
			"name": "auctionMint",
			"outputs": [],
			"stateMutability": "payable",
			"type": "function"
		},
		{
			"inputs": [],
			"name": "auctionStartTime",
			"outputs": [
				{
					"internalType": "uint256",
					"name": "",
					"type": "uint256"
				}
			],
			"stateMutability": "view",
			"type": "function"
		},
		{
			"inputs": [
				{
					"internalType": "address",
					"name": "owner",
					"type": "address"
				}
			],
			"name": "balanceOf",
			"outputs": [
				{
					"internalType": "uint256",
					"name": "",
					"type": "uint256"
				}
			],
			"stateMutability": "view",
			"type": "function"
		},
		{
			"inputs": [
				{
					"internalType": "uint256",
					"name": "tokenId",
					"type": "uint256"
				}
			],
			"name": "getApproved",
			"outputs": [
				{
					"internalType": "address",
					"name": "",
					"type": "address"
				}
			],
			"stateMutability": "view",
			"type": "function"
		},
		{
			"inputs": [],
			"name": "getAuctionPrice",
			"outputs": [
				{
					"internalType": "uint256",
					"name": "",
					"type": "uint256"
				}
			],
			"stateMutability": "view",
			"type": "function"
		},
		{
			"inputs": [
				{
					"internalType": "address",
					"name": "owner",
					"type": "address"
				},
				{
					"internalType": "address",
					"name": "operator",
					"type": "address"
				}
			],
			"name": "isApprovedForAll",
			"outputs": [
				{
					"internalType": "bool",
					"name": "",
					"type": "bool"
				}
			],
			"stateMutability": "view",
			"type": "function"
		},
		{
			"inputs": [],
			"name": "name",
			"outputs": [
				{
					"internalType": "string",
					"name": "",
					"type": "string"
				}
			],
			"stateMutability": "view",
			"type": "function"
		},
		{
			"inputs": [],
			"name": "owner",
			"outputs": [
				{
					"internalType": "address",
					"name": "",
					"type": "address"
				}
			],
			"stateMutability": "view",
			"type": "function"
		},
		{
			"inputs": [
				{
					"internalType": "uint256",
					"name": "tokenId",
					"type": "uint256"
				}
			],
			"name": "ownerOf",
			"outputs": [
				{
					"internalType": "address",
					"name": "owner",
					"type": "address"
				}
			],
			"stateMutability": "view",
			"type": "function"
		},
		{
			"inputs": [],
			"name": "renounceOwnership",
			"outputs": [],
			"stateMutability": "nonpayable",
			"type": "function"
		},
		{
			"inputs": [
				{
					"internalType": "address",
					"name": "from",
					"type": "address"
				},
				{
					"internalType": "address",
					"name": "to",
					"type": "address"
				},
				{
					"internalType": "uint256",
					"name": "tokenId",
					"type": "uint256"
				}
			],
			"name": "safeTransferFrom",
			"outputs": [],
			"stateMutability": "nonpayable",
			"type": "function"
		},
		{
			"inputs": [
				{
					"internalType": "address",
					"name": "from",
					"type": "address"
				},
				{
					"internalType": "address",
					"name": "to",
					"type": "address"
				},
				{
					"internalType": "uint256",
					"name": "tokenId",
					"type": "uint256"
				},
				{
					"internalType": "bytes",
					"name": "data",
					"type": "bytes"
				}
			],
			"name": "safeTransferFrom",
			"outputs": [],
			"stateMutability": "nonpayable",
			"type": "function"
		},
		{
			"inputs": [
				{
					"internalType": "address",
					"name": "operator",
					"type": "address"
				},
				{
					"internalType": "bool",
					"name": "approved",
					"type": "bool"
				}
			],
			"name": "setApprovalForAll",
			"outputs": [],
			"stateMutability": "nonpayable",
			"type": "function"
		},
		{
			"inputs": [
				{
					"internalType": "uint32",
					"name": "timestamp",
					"type": "uint32"
				}
			],
			"name": "setAuctionStartTime",
			"outputs": [],
			"stateMutability": "nonpayable",
			"type": "function"
		},
		{
			"inputs": [
				{
					"internalType": "bytes4",
					"name": "interfaceId",
					"type": "bytes4"
				}
			],
			"name": "supportsInterface",
			"outputs": [
				{
					"internalType": "bool",
					"name": "",
					"type": "bool"
				}
			],
			"stateMutability": "pure",
			"type": "function"
		},
		{
			"inputs": [],
			"name": "symbol",
			"outputs": [
				{
					"internalType": "string",
					"name": "",
					"type": "string"
				}
			],
			"stateMutability": "view",
			"type": "function"
		},
		{
			"inputs": [
				{
					"internalType": "uint256",
					"name": "tokenId",
					"type": "uint256"
				}
			],
			"name": "tokenURI",
			"outputs": [
				{
					"internalType": "string",
					"name": "",
					"type": "string"
				}
			],
			"stateMutability": "view",
			"type": "function"
		},
		{
			"inputs": [],
			"name": "totalSupply",
			"outputs": [
				{
					"internalType": "uint256",
					"name": "",
					"type": "uint256"
				}
			],
			"stateMutability": "view",
			"type": "function"
		},
		{
			"inputs": [
				{
					"internalType": "address",
					"name": "from",
					"type": "address"
				},
				{
					"internalType": "address",
					"name": "to",
					"type": "address"
				},
				{
					"internalType": "uint256",
					"name": "tokenId",
					"type": "uint256"
				}
			],
			"name": "transferFrom",
			"outputs": [],
			"stateMutability": "nonpayable",
			"type": "function"
		},
		{
			"inputs": [
				{
					"internalType": "address",
					"name": "newOwner",
					"type": "address"
				}
			],
			"name": "transferOwnership",
			"outputs": [],
			"stateMutability": "nonpayable",
			"type": "function"
		}
	]
}