{
	"data": {
		"bytecode": {
			"linkReferences": {},
			"object": "60806040526040516114a13803806114a1833981810160405281019061002591906105e7565b8051825114610069576040517f08c379a0000000000000000000000000000000000000000000000000000000008152600401610060906106dd565b60405180910390fd5b5f8251116100ac576040517f08c379a00000000000000000000000000000000000000000000000000000000081526004016100a390610745565b60405180910390fd5b5f5b60048054905081101561010c576100ff8382815181106100d1576100d0610763565b5b60200260200101518383815181106100ec576100eb610763565b5b602002602001015161011460201b60201c565b80806001019150506100ae565b5050506109b9565b5f73ffffffffffffffffffffffffffffffffffffffff168273ffffffffffffffffffffffffffffffffffffffff1603610182576040517f08c379a000000000000000000000000000000000000000000000000000000000815260040161017990610800565b60405180910390fd5b5f81116101c4576040517f08c379a00000000000000000000000000000000000000000000000000000000081526004016101bb9061088e565b60405180910390fd5b5f60025f8473ffffffffffffffffffffffffffffffffffffffff1673ffffffffffffffffffffffffffffffffffffffff1681526020019081526020015f205414610243576040517f08c379a000000000000000000000000000000000000000000000000000000000815260040161023a906108f6565b60405180910390fd5b600482908060018154018082558091505060019003905f5260205f20015f9091909190916101000a81548173ffffffffffffffffffffffffffffffffffffffff021916908373ffffffffffffffffffffffffffffffffffffffff1602179055508060025f8473ffffffffffffffffffffffffffffffffffffffff1673ffffffffffffffffffffffffffffffffffffffff1681526020019081526020015f2081905550805f808282546102f59190610941565b925050819055507f40c340f65e17194d14ddddb073d3c9f888e3cb52b5aae0c6c7706b4fbc905fac828260405161032d929190610992565b60405180910390a15050565b5f604051905090565b5f80fd5b5f80fd5b5f80fd5b5f601f19601f8301169050919050565b7f4e487b71000000000000000000000000000000000000000000000000000000005f52604160045260245ffd5b6103948261034e565b810181811067ffffffffffffffff821117156103b3576103b261035e565b5b80604052505050565b5f6103c5610339565b90506103d1828261038b565b919050565b5f67ffffffffffffffff8211156103f0576103ef61035e565b5b602082029050602081019050919050565b5f80fd5b5f73ffffffffffffffffffffffffffffffffffffffff82169050919050565b5f61042e82610405565b9050919050565b61043e81610424565b8114610448575f80fd5b50565b5f8151905061045981610435565b92915050565b5f61047161046c846103d6565b6103bc565b9050808382526020820190506020840283018581111561049457610493610401565b5b835b818110156104bd57806104a9888261044b565b845260208401935050602081019050610496565b5050509392505050565b5f82601f8301126104db576104da61034a565b5b81516104eb84826020860161045f565b91505092915050565b5f67ffffffffffffffff82111561050e5761050d61035e565b5b602082029050602081019050919050565b5f819050919050565b6105318161051f565b811461053b575f80fd5b50565b5f8151905061054c81610528565b92915050565b5f61056461055f846104f4565b6103bc565b9050808382526020820190506020840283018581111561058757610586610401565b5b835b818110156105b0578061059c888261053e565b845260208401935050602081019050610589565b5050509392505050565b5f82601f8301126105ce576105cd61034a565b5b81516105de848260208601610552565b91505092915050565b5f80604083850312156105fd576105fc610342565b5b5f83015167ffffffffffffffff81111561061a57610619610346565b5b610626858286016104c7565b925050602083015167ffffffffffffffff81111561064757610646610346565b5b610653858286016105ba565b9150509250929050565b5f82825260208201905092915050565b7f546865206c656e677468206f66207061796565735f20616e64207368617265735f8201527f5f206973206e6f7420657175616c2e0000000000000000000000000000000000602082015250565b5f6106c7602f8361065d565b91506106d28261066d565b604082019050919050565b5f6020820190508181035f8301526106f4816106bb565b9050919050565b7f6e6f2070617965657300000000000000000000000000000000000000000000005f82015250565b5f61072f60098361065d565b915061073a826106fb565b602082019050919050565b5f6020820190508181035f83015261075c81610723565b9050919050565b7f4e487b71000000000000000000000000000000000000000000000000000000005f52603260045260245ffd5b7f546865206163636f756e742063616e2774206265207a65726f206164647265735f8201527f732e000000000000000000000000000000000000000000000000000000000000602082015250565b5f6107ea60228361065d565b91506107f582610790565b604082019050919050565b5f6020820190508181035f830152610817816107de565b9050919050565b7f546865206163636f756e745368617265206d75737420626520677265617465725f8201527f207468616e207a65726f00000000000000000000000000000000000000000000602082015250565b5f610878602a8361065d565b91506108838261081e565b604082019050919050565b5f6020820190508181035f8301526108a58161086c565b9050919050565b7f546865206163636f756e742063616e2774206265206475706c696361746500005f82015250565b5f6108e0601e8361065d565b91506108eb826108ac565b602082019050919050565b5f6020820190508181035f83015261090d816108d4565b9050919050565b7f4e487b71000000000000000000000000000000000000000000000000000000005f52601160045260245ffd5b5f61094b8261051f565b91506109568361051f565b925082820190508082111561096e5761096d610914565b5b92915050565b61097d81610424565b82525050565b61098c8161051f565b82525050565b5f6040820190506109a55f830185610974565b6109b26020830184610983565b9392505050565b610adb806109c65f395ff3fe608060405260043610610073575f3560e01c80639852595c1161004d5780639852595c1461017c578063a3f8eace146101b8578063ce7c2ac2146101f4578063e33b7de314610230576100b3565b806319165587146100ee5780633a98ef391461011657806363037b0c14610140576100b3565b366100b3577f6ef95f06320e7a25a04a175ca677b7052bdd97131872c2192525a629f51be77033346040516100a99291906105fc565b60405180910390a1005b7f6ef95f06320e7a25a04a175ca677b7052bdd97131872c2192525a629f51be77033346040516100e49291906105fc565b60405180910390a1005b3480156100f9575f80fd5b50610114600480360381019061010f9190610662565b61025a565b005b348015610121575f80fd5b5061012a61047e565b604051610137919061068d565b60405180910390f35b34801561014b575f80fd5b50610166600480360381019061016191906106d0565b610483565b60405161017391906106fb565b60405180910390f35b348015610187575f80fd5b506101a2600480360381019061019d919061073e565b6104be565b6040516101af919061068d565b60405180910390f35b3480156101c3575f80fd5b506101de60048036038101906101d9919061073e565b6104d3565b6040516101eb919061068d565b60405180910390f35b3480156101ff575f80fd5b5061021a6004803603810190610215919061073e565b61058a565b604051610227919061068d565b60405180910390f35b34801561023b575f80fd5b5061024461059f565b604051610251919061068d565b60405180910390f35b5f60025f8373ffffffffffffffffffffffffffffffffffffffff1673ffffffffffffffffffffffffffffffffffffffff1681526020019081526020015f2054116102d9576040517f08c379a00000000000000000000000000000000000000000000000000000000081526004016102d0906107c3565b60405180910390fd5b5f6102e3826104d3565b90505f8111610327576040517f08c379a000000000000000000000000000000000000000000000000000000000815260040161031e9061082b565b60405180910390fd5b8060035f8473ffffffffffffffffffffffffffffffffffffffff1673ffffffffffffffffffffffffffffffffffffffff1681526020019081526020015f205f8282546103739190610876565b925050819055508060015f82825461038b9190610876565b925050819055505f8273ffffffffffffffffffffffffffffffffffffffff16826040516103b7906108d6565b5f6040518083038185875af1925050503d805f81146103f1576040519150601f19603f3d011682016040523d82523d5f602084013e6103f6565b606091505b50509050801561043e577fdf20fd1e76bc69d672e4814fafb2c449bba3a5369d8359adf9e05e6fde87b0568383604051610431929190610945565b60405180910390a1610479565b6040517f08c379a0000000000000000000000000000000000000000000000000000000008152600401610470906109b6565b60405180910390fd5b505050565b5f5481565b60048181548110610492575f80fd5b905f5260205f20015f915054906101000a900473ffffffffffffffffffffffffffffffffffffffff1681565b6003602052805f5260405f205f915090505481565b5f80600154476104e39190610876565b905060035f8473ffffffffffffffffffffffffffffffffffffffff1673ffffffffffffffffffffffffffffffffffffffff1681526020019081526020015f20545f5460025f8673ffffffffffffffffffffffffffffffffffffffff1673ffffffffffffffffffffffffffffffffffffffff1681526020019081526020015f20548361056e91906109d4565b6105789190610a42565b6105829190610a72565b915050919050565b6002602052805f5260405f205f915090505481565b60015481565b5f73ffffffffffffffffffffffffffffffffffffffff82169050919050565b5f6105ce826105a5565b9050919050565b6105de816105c4565b82525050565b5f819050919050565b6105f6816105e4565b82525050565b5f60408201905061060f5f8301856105d5565b61061c60208301846105ed565b9392505050565b5f80fd5b5f610631826105a5565b9050919050565b61064181610627565b811461064b575f80fd5b50565b5f8135905061065c81610638565b92915050565b5f6020828403121561067757610676610623565b5b5f6106848482850161064e565b91505092915050565b5f6020820190506106a05f8301846105ed565b92915050565b6106af816105e4565b81146106b9575f80fd5b50565b5f813590506106ca816106a6565b92915050565b5f602082840312156106e5576106e4610623565b5b5f6106f2848285016106bc565b91505092915050565b5f60208201905061070e5f8301846105d5565b92915050565b61071d816105c4565b8114610727575f80fd5b50565b5f8135905061073881610714565b92915050565b5f6020828403121561075357610752610623565b5b5f6107608482850161072a565b91505092915050565b5f82825260208201905092915050565b7f546865206163636f756e7420686173206e6f74207061792073686172657300005f82015250565b5f6107ad601e83610769565b91506107b882610779565b602082019050919050565b5f6020820190508181035f8301526107da816107a1565b9050919050565b7f496e73756666696369656e74206163636f756e74206c696d69740000000000005f82015250565b5f610815601a83610769565b9150610820826107e1565b602082019050919050565b5f6020820190508181035f83015261084281610809565b9050919050565b7f4e487b71000000000000000000000000000000000000000000000000000000005f52601160045260245ffd5b5f610880826105e4565b915061088b836105e4565b92508282019050808211156108a3576108a2610849565b5b92915050565b5f81905092915050565b50565b5f6108c15f836108a9565b91506108cc826108b3565b5f82019050919050565b5f6108e0826108b6565b9150819050919050565b5f819050919050565b5f61090d610908610903846105a5565b6108ea565b6105a5565b9050919050565b5f61091e826108f3565b9050919050565b5f61092f82610914565b9050919050565b61093f81610925565b82525050565b5f6040820190506109585f830185610936565b61096560208301846105ed565b9392505050565b7f5472616e73666572206661696c656400000000000000000000000000000000005f82015250565b5f6109a0600f83610769565b91506109ab8261096c565b602082019050919050565b5f6020820190508181035f8301526109cd81610994565b9050919050565b5f6109de826105e4565b91506109e9836105e4565b92508282026109f7816105e4565b91508282048414831517610a0e57610a0d610849565b5b5092915050565b7f4e487b71000000000000000000000000000000000000000000000000000000005f52601260045260245ffd5b5f610a4c826105e4565b9150610a57836105e4565b925082610a6757610a66610a15565b5b828204905092915050565b5f610a7c826105e4565b9150610a87836105e4565b9250828203905081811115610a9f57610a9e610849565b5b9291505056fea2646970667358221220cd8994eb783133c80c9e6c580bdf6896e559bcce1531e2cabe41f064b533b36164736f6c634300081a0033",
			"opcodes": "PUSH1 0x80 PUSH1 0x40 MSTORE PUSH1 0x40 MLOAD PUSH2 0x14A1 CODESIZE SUB DUP1 PUSH2 0x14A1 DUP4 CODECOPY DUP2 DUP2 ADD PUSH1 0x40 MSTORE DUP2 ADD SWAP1 PUSH2 0x25 SWAP2 SWAP1 PUSH2 0x5E7 JUMP JUMPDEST DUP1 MLOAD DUP3 MLOAD EQ PUSH2 0x69 JUMPI PUSH1 0x40 MLOAD PUSH32 0x8C379A000000000000000000000000000000000000000000000000000000000 DUP2 MSTORE PUSH1 0x4 ADD PUSH2 0x60 SWAP1 PUSH2 0x6DD JUMP JUMPDEST PUSH1 0x40 MLOAD DUP1 SWAP2 SUB SWAP1 REVERT JUMPDEST PUSH0 DUP3 MLOAD GT PUSH2 0xAC JUMPI PUSH1 0x40 MLOAD PUSH32 0x8C379A000000000000000000000000000000000000000000000000000000000 DUP2 MSTORE PUSH1 0x4 ADD PUSH2 0xA3 SWAP1 PUSH2 0x745 JUMP JUMPDEST PUSH1 0x40 MLOAD DUP1 SWAP2 SUB SWAP1 REVERT JUMPDEST PUSH0 JUMPDEST PUSH1 0x4 DUP1 SLOAD SWAP1 POP DUP2 LT ISZERO PUSH2 0x10C JUMPI PUSH2 0xFF DUP4 DUP3 DUP2 MLOAD DUP2 LT PUSH2 0xD1 JUMPI PUSH2 0xD0 PUSH2 0x763 JUMP JUMPDEST JUMPDEST PUSH1 0x20 MUL PUSH1 0x20 ADD ADD MLOAD DUP4 DUP4 DUP2 MLOAD DUP2 LT PUSH2 0xEC JUMPI PUSH2 0xEB PUSH2 0x763 JUMP JUMPDEST JUMPDEST PUSH1 0x20 MUL PUSH1 0x20 ADD ADD MLOAD PUSH2 0x114 PUSH1 0x20 SHL PUSH1 0x20 SHR JUMP JUMPDEST DUP1 DUP1 PUSH1 0x1 ADD SWAP2 POP POP PUSH2 0xAE JUMP JUMPDEST POP POP POP PUSH2 0x9B9 JUMP JUMPDEST PUSH0 PUSH20 0xFFFFFFFFFFFFFFFFFFFFFFFFFFFFFFFFFFFFFFFF AND DUP3 PUSH20 0xFFFFFFFFFFFFFFFFFFFFFFFFFFFFFFFFFFFFFFFF AND SUB PUSH2 0x182 JUMPI PUSH1 0x40 MLOAD PUSH32 0x8C379A000000000000000000000000000000000000000000000000000000000 DUP2 MSTORE PUSH1 0x4 ADD PUSH2 0x179 SWAP1 PUSH2 0x800 JUMP JUMPDEST PUSH1 0x40 MLOAD DUP1 SWAP2 SUB SWAP1 REVERT JUMPDEST PUSH0 DUP2 GT PUSH2 0x1C4 JUMPI PUSH1 0x40 MLOAD PUSH32 0x8C379A000000000000000000000000000000000000000000000000000000000 DUP2 MSTORE PUSH1 0x4 ADD PUSH2 0x1BB SWAP1 PUSH2 0x88E JUMP JUMPDEST PUSH1 0x40 MLOAD DUP1 SWAP2 SUB SWAP1 REVERT JUMPDEST PUSH0 PUSH1 0x2 PUSH0 DUP5 PUSH20 0xFFFFFFFFFFFFFFFFFFFFFFFFFFFFFFFFFFFFFFFF AND PUSH20 0xFFFFFFFFFFFFFFFFFFFFFFFFFFFFFFFFFFFFFFFF AND DUP2 MSTORE PUSH1 0x20 ADD SWAP1 DUP2 MSTORE PUSH1 0x20 ADD PUSH0 KECCAK256 SLOAD EQ PUSH2 0x243 JUMPI PUSH1 0x40 MLOAD PUSH32 0x8C379A000000000000000000000000000000000000000000000000000000000 DUP2 MSTORE PUSH1 0x4 ADD PUSH2 0x23A SWAP1 PUSH2 0x8F6 JUMP JUMPDEST PUSH1 0x40 MLOAD DUP1 SWAP2 SUB SWAP1 REVERT JUMPDEST PUSH1 0x4 DUP3 SWAP1 DUP1 PUSH1 0x1 DUP2 SLOAD ADD DUP1 DUP3 SSTORE DUP1 SWAP2 POP POP PUSH1 0x1 SWAP1 SUB SWAP1 PUSH0 MSTORE PUSH1 0x20 PUSH0 KECCAK256 ADD PUSH0 SWAP1 SWAP2 SWAP1 SWAP2 SWAP1 SWAP2 PUSH2 0x100 EXP DUP2 SLOAD DUP2 PUSH20 0xFFFFFFFFFFFFFFFFFFFFFFFFFFFFFFFFFFFFFFFF MUL NOT AND SWAP1 DUP4 PUSH20 0xFFFFFFFFFFFFFFFFFFFFFFFFFFFFFFFFFFFFFFFF AND MUL OR SWAP1 SSTORE POP DUP1 PUSH1 0x2 PUSH0 DUP5 PUSH20 0xFFFFFFFFFFFFFFFFFFFFFFFFFFFFFFFFFFFFFFFF AND PUSH20 0xFFFFFFFFFFFFFFFFFFFFFFFFFFFFFFFFFFFFFFFF AND DUP2 MSTORE PUSH1 0x20 ADD SWAP1 DUP2 MSTORE PUSH1 0x20 ADD PUSH0 KECCAK256 DUP2 SWAP1 SSTORE POP DUP1 PUSH0 DUP1 DUP3 DUP3 SLOAD PUSH2 0x2F5 SWAP2 SWAP1 PUSH2 0x941 JUMP JUMPDEST SWAP3 POP POP DUP2 SWAP1 SSTORE POP PUSH32 0x40C340F65E17194D14DDDDB073D3C9F888E3CB52B5AAE0C6C7706B4FBC905FAC DUP3 DUP3 PUSH1 0x40 MLOAD PUSH2 0x32D SWAP3 SWAP2 SWAP1 PUSH2 0x992 JUMP JUMPDEST PUSH1 0x40 MLOAD DUP1 SWAP2 SUB SWAP1 LOG1 POP POP JUMP JUMPDEST PUSH0 PUSH1 0x40 MLOAD SWAP1 POP SWAP1 JUMP JUMPDEST PUSH0 DUP1 REVERT JUMPDEST PUSH0 DUP1 REVERT JUMPDEST PUSH0 DUP1 REVERT JUMPDEST PUSH0 PUSH1 0x1F NOT PUSH1 0x1F DUP4 ADD AND SWAP1 POP SWAP2 SWAP1 POP JUMP JUMPDEST PUSH32 0x4E487B7100000000000000000000000000000000000000000000000000000000 PUSH0 MSTORE PUSH1 0x41 PUSH1 0x4 MSTORE PUSH1 0x24 PUSH0 REVERT JUMPDEST PUSH2 0x394 DUP3 PUSH2 0x34E JUMP JUMPDEST DUP2 ADD DUP2 DUP2 LT PUSH8 0xFFFFFFFFFFFFFFFF DUP3 GT OR ISZERO PUSH2 0x3B3 JUMPI PUSH2 0x3B2 PUSH2 0x35E JUMP JUMPDEST JUMPDEST DUP1 PUSH1 0x40 MSTORE POP POP POP JUMP JUMPDEST PUSH0 PUSH2 0x3C5 PUSH2 0x339 JUMP JUMPDEST SWAP1 POP PUSH2 0x3D1 DUP3 DUP3 PUSH2 0x38B JUMP JUMPDEST SWAP2 SWAP1 POP JUMP JUMPDEST PUSH0 PUSH8 0xFFFFFFFFFFFFFFFF DUP3 GT ISZERO PUSH2 0x3F0 JUMPI PUSH2 0x3EF PUSH2 0x35E JUMP JUMPDEST JUMPDEST PUSH1 0x20 DUP3 MUL SWAP1 POP PUSH1 0x20 DUP2 ADD SWAP1 POP SWAP2 SWAP1 POP JUMP JUMPDEST PUSH0 DUP1 REVERT JUMPDEST PUSH0 PUSH20 0xFFFFFFFFFFFFFFFFFFFFFFFFFFFFFFFFFFFFFFFF DUP3 AND SWAP1 POP SWAP2 SWAP1 POP JUMP JUMPDEST PUSH0 PUSH2 0x42E DUP3 PUSH2 0x405 JUMP JUMPDEST SWAP1 POP SWAP2 SWAP1 POP JUMP JUMPDEST PUSH2 0x43E DUP2 PUSH2 0x424 JUMP JUMPDEST DUP2 EQ PUSH2 0x448 JUMPI PUSH0 DUP1 REVERT JUMPDEST POP JUMP JUMPDEST PUSH0 DUP2 MLOAD SWAP1 POP PUSH2 0x459 DUP2 PUSH2 0x435 JUMP JUMPDEST SWAP3 SWAP2 POP POP JUMP JUMPDEST PUSH0 PUSH2 0x471 PUSH2 0x46C DUP5 PUSH2 0x3D6 JUMP JUMPDEST PUSH2 0x3BC JUMP JUMPDEST SWAP1 POP DUP1 DUP4 DUP3 MSTORE PUSH1 0x20 DUP3 ADD SWAP1 POP PUSH1 0x20 DUP5 MUL DUP4 ADD DUP6 DUP2 GT ISZERO PUSH2 0x494 JUMPI PUSH2 0x493 PUSH2 0x401 JUMP JUMPDEST JUMPDEST DUP4 JUMPDEST DUP2 DUP2 LT ISZERO PUSH2 0x4BD JUMPI DUP1 PUSH2 0x4A9 DUP9 DUP3 PUSH2 0x44B JUMP JUMPDEST DUP5 MSTORE PUSH1 0x20 DUP5 ADD SWAP4 POP POP PUSH1 0x20 DUP2 ADD SWAP1 POP PUSH2 0x496 JUMP JUMPDEST POP POP POP SWAP4 SWAP3 POP POP POP JUMP JUMPDEST PUSH0 DUP3 PUSH1 0x1F DUP4 ADD SLT PUSH2 0x4DB JUMPI PUSH2 0x4DA PUSH2 0x34A JUMP JUMPDEST JUMPDEST DUP2 MLOAD PUSH2 0x4EB DUP5 DUP3 PUSH1 0x20 DUP7 ADD PUSH2 0x45F JUMP JUMPDEST SWAP2 POP POP SWAP3 SWAP2 POP POP JUMP JUMPDEST PUSH0 PUSH8 0xFFFFFFFFFFFFFFFF DUP3 GT ISZERO PUSH2 0x50E JUMPI PUSH2 0x50D PUSH2 0x35E JUMP JUMPDEST JUMPDEST PUSH1 0x20 DUP3 MUL SWAP1 POP PUSH1 0x20 DUP2 ADD SWAP1 POP SWAP2 SWAP1 POP JUMP JUMPDEST PUSH0 DUP2 SWAP1 POP SWAP2 SWAP1 POP JUMP JUMPDEST PUSH2 0x531 DUP2 PUSH2 0x51F JUMP JUMPDEST DUP2 EQ PUSH2 0x53B JUMPI PUSH0 DUP1 REVERT JUMPDEST POP JUMP JUMPDEST PUSH0 DUP2 MLOAD SWAP1 POP PUSH2 0x54C DUP2 PUSH2 0x528 JUMP JUMPDEST SWAP3 SWAP2 POP POP JUMP JUMPDEST PUSH0 PUSH2 0x564 PUSH2 0x55F DUP5 PUSH2 0x4F4 JUMP JUMPDEST PUSH2 0x3BC JUMP JUMPDEST SWAP1 POP DUP1 DUP4 DUP3 MSTORE PUSH1 0x20 DUP3 ADD SWAP1 POP PUSH1 0x20 DUP5 MUL DUP4 ADD DUP6 DUP2 GT ISZERO PUSH2 0x587 JUMPI PUSH2 0x586 PUSH2 0x401 JUMP JUMPDEST JUMPDEST DUP4 JUMPDEST DUP2 DUP2 LT ISZERO PUSH2 0x5B0 JUMPI DUP1 PUSH2 0x59C DUP9 DUP3 PUSH2 0x53E JUMP JUMPDEST DUP5 MSTORE PUSH1 0x20 DUP5 ADD SWAP4 POP POP PUSH1 0x20 DUP2 ADD SWAP1 POP PUSH2 0x589 JUMP JUMPDEST POP POP POP SWAP4 SWAP3 POP POP POP JUMP JUMPDEST PUSH0 DUP3 PUSH1 0x1F DUP4 ADD SLT PUSH2 0x5CE JUMPI PUSH2 0x5CD PUSH2 0x34A JUMP JUMPDEST JUMPDEST DUP2 MLOAD PUSH2 0x5DE DUP5 DUP3 PUSH1 0x20 DUP7 ADD PUSH2 0x552 JUMP JUMPDEST SWAP2 POP POP SWAP3 SWAP2 POP POP JUMP JUMPDEST PUSH0 DUP1 PUSH1 0x40 DUP4 DUP6 SUB SLT ISZERO PUSH2 0x5FD JUMPI PUSH2 0x5FC PUSH2 0x342 JUMP JUMPDEST JUMPDEST PUSH0 DUP4 ADD MLOAD PUSH8 0xFFFFFFFFFFFFFFFF DUP2 GT ISZERO PUSH2 0x61A JUMPI PUSH2 0x619 PUSH2 0x346 JUMP JUMPDEST JUMPDEST PUSH2 0x626 DUP6 DUP3 DUP7 ADD PUSH2 0x4C7 JUMP JUMPDEST SWAP3 POP POP PUSH1 0x20 DUP4 ADD MLOAD PUSH8 0xFFFFFFFFFFFFFFFF DUP2 GT ISZERO PUSH2 0x647 JUMPI PUSH2 0x646 PUSH2 0x346 JUMP JUMPDEST JUMPDEST PUSH2 0x653 DUP6 DUP3 DUP7 ADD PUSH2 0x5BA JUMP JUMPDEST SWAP2 POP POP SWAP3 POP SWAP3 SWAP1 POP JUMP JUMPDEST PUSH0 DUP3 DUP3 MSTORE PUSH1 0x20 DUP3 ADD SWAP1 POP SWAP3 SWAP2 POP POP JUMP JUMPDEST PUSH32 0x546865206C656E677468206F66207061796565735F20616E6420736861726573 PUSH0 DUP3 ADD MSTORE PUSH32 0x5F206973206E6F7420657175616C2E0000000000000000000000000000000000 PUSH1 0x20 DUP3 ADD MSTORE POP JUMP JUMPDEST PUSH0 PUSH2 0x6C7 PUSH1 0x2F DUP4 PUSH2 0x65D JUMP JUMPDEST SWAP2 POP PUSH2 0x6D2 DUP3 PUSH2 0x66D JUMP JUMPDEST PUSH1 0x40 DUP3 ADD SWAP1 POP SWAP2 SWAP1 POP JUMP JUMPDEST PUSH0 PUSH1 0x20 DUP3 ADD SWAP1 POP DUP2 DUP2 SUB PUSH0 DUP4 ADD MSTORE PUSH2 0x6F4 DUP2 PUSH2 0x6BB JUMP JUMPDEST SWAP1 POP SWAP2 SWAP1 POP JUMP JUMPDEST PUSH32 0x6E6F207061796565730000000000000000000000000000000000000000000000 PUSH0 DUP3 ADD MSTORE POP JUMP JUMPDEST PUSH0 PUSH2 0x72F PUSH1 0x9 DUP4 PUSH2 0x65D JUMP JUMPDEST SWAP2 POP PUSH2 0x73A DUP3 PUSH2 0x6FB JUMP JUMPDEST PUSH1 0x20 DUP3 ADD SWAP1 POP SWAP2 SWAP1 POP JUMP JUMPDEST PUSH0 PUSH1 0x20 DUP3 ADD SWAP1 POP DUP2 DUP2 SUB PUSH0 DUP4 ADD MSTORE PUSH2 0x75C DUP2 PUSH2 0x723 JUMP JUMPDEST SWAP1 POP SWAP2 SWAP1 POP JUMP JUMPDEST PUSH32 0x4E487B7100000000000000000000000000000000000000000000000000000000 PUSH0 MSTORE PUSH1 0x32 PUSH1 0x4 MSTORE PUSH1 0x24 PUSH0 REVERT JUMPDEST PUSH32 0x546865206163636F756E742063616E2774206265207A65726F20616464726573 PUSH0 DUP3 ADD MSTORE PUSH32 0x732E000000000000000000000000000000000000000000000000000000000000 PUSH1 0x20 DUP3 ADD MSTORE POP JUMP JUMPDEST PUSH0 PUSH2 0x7EA PUSH1 0x22 DUP4 PUSH2 0x65D JUMP JUMPDEST SWAP2 POP PUSH2 0x7F5 DUP3 PUSH2 0x790 JUMP JUMPDEST PUSH1 0x40 DUP3 ADD SWAP1 POP SWAP2 SWAP1 POP JUMP JUMPDEST PUSH0 PUSH1 0x20 DUP3 ADD SWAP1 POP DUP2 DUP2 SUB PUSH0 DUP4 ADD MSTORE PUSH2 0x817 DUP2 PUSH2 0x7DE JUMP JUMPDEST SWAP1 POP SWAP2 SWAP1 POP JUMP JUMPDEST PUSH32 0x546865206163636F756E745368617265206D7573742062652067726561746572 PUSH0 DUP3 ADD MSTORE PUSH32 0x207468616E207A65726F00000000000000000000000000000000000000000000 PUSH1 0x20 DUP3 ADD MSTORE POP JUMP JUMPDEST PUSH0 PUSH2 0x878 PUSH1 0x2A DUP4 PUSH2 0x65D JUMP JUMPDEST SWAP2 POP PUSH2 0x883 DUP3 PUSH2 0x81E JUMP JUMPDEST PUSH1 0x40 DUP3 ADD SWAP1 POP SWAP2 SWAP1 POP JUMP JUMPDEST PUSH0 PUSH1 0x20 DUP3 ADD SWAP1 POP DUP2 DUP2 SUB PUSH0 DUP4 ADD MSTORE PUSH2 0x8A5 DUP2 PUSH2 0x86C JUMP JUMPDEST SWAP1 POP SWAP2 SWAP1 POP JUMP JUMPDEST PUSH32 0x546865206163636F756E742063616E2774206265206475706C69636174650000 PUSH0 DUP3 ADD MSTORE POP JUMP JUMPDEST PUSH0 PUSH2 0x8E0 PUSH1 0x1E DUP4 PUSH2 0x65D JUMP JUMPDEST SWAP2 POP PUSH2 0x8EB DUP3 PUSH2 0x8AC JUMP JUMPDEST PUSH1 0x20 DUP3 ADD SWAP1 POP SWAP2 SWAP1 POP JUMP JUMPDEST PUSH0 PUSH1 0x20 DUP3 ADD SWAP1 POP DUP2 DUP2 SUB PUSH0 DUP4 ADD MSTORE PUSH2 0x90D DUP2 PUSH2 0x8D4 JUMP JUMPDEST SWAP1 POP SWAP2 SWAP1 POP JUMP JUMPDEST PUSH32 0x4E487B7100000000000000000000000000000000000000000000000000000000 PUSH0 MSTORE PUSH1 0x11 PUSH1 0x4 MSTORE PUSH1 0x24 PUSH0 REVERT JUMPDEST PUSH0 PUSH2 0x94B DUP3 PUSH2 0x51F JUMP JUMPDEST SWAP2 POP PUSH2 0x956 DUP4 PUSH2 0x51F JUMP JUMPDEST SWAP3 POP DUP3 DUP3 ADD SWAP1 POP DUP1 DUP3 GT ISZERO PUSH2 0x96E JUMPI PUSH2 0x96D PUSH2 0x914 JUMP JUMPDEST JUMPDEST SWAP3 SWAP2 POP POP JUMP JUMPDEST PUSH2 0x97D DUP2 PUSH2 0x424 JUMP JUMPDEST DUP3 MSTORE POP POP JUMP JUMPDEST PUSH2 0x98C DUP2 PUSH2 0x51F JUMP JUMPDEST DUP3 MSTORE POP POP JUMP JUMPDEST PUSH0 PUSH1 0x40 DUP3 ADD SWAP1 POP PUSH2 0x9A5 PUSH0 DUP4 ADD DUP6 PUSH2 0x974 JUMP JUMPDEST PUSH2 0x9B2 PUSH1 0x20 DUP4 ADD DUP5 PUSH2 0x983 JUMP JUMPDEST SWAP4 SWAP3 POP POP POP JUMP JUMPDEST PUSH2 0xADB DUP1 PUSH2 0x9C6 PUSH0 CODECOPY PUSH0 RETURN INVALID PUSH1 0x80 PUSH1 0x40 MSTORE PUSH1 0x4 CALLDATASIZE LT PUSH2 0x73 JUMPI PUSH0 CALLDATALOAD PUSH1 0xE0 SHR DUP1 PUSH4 0x9852595C GT PUSH2 0x4D JUMPI DUP1 PUSH4 0x9852595C EQ PUSH2 0x17C JUMPI DUP1 PUSH4 0xA3F8EACE EQ PUSH2 0x1B8 JUMPI DUP1 PUSH4 0xCE7C2AC2 EQ PUSH2 0x1F4 JUMPI DUP1 PUSH4 0xE33B7DE3 EQ PUSH2 0x230 JUMPI PUSH2 0xB3 JUMP JUMPDEST DUP1 PUSH4 0x19165587 EQ PUSH2 0xEE JUMPI DUP1 PUSH4 0x3A98EF39 EQ PUSH2 0x116 JUMPI DUP1 PUSH4 0x63037B0C EQ PUSH2 0x140 JUMPI PUSH2 0xB3 JUMP JUMPDEST CALLDATASIZE PUSH2 0xB3 JUMPI PUSH32 0x6EF95F06320E7A25A04A175CA677B7052BDD97131872C2192525A629F51BE770 CALLER CALLVALUE PUSH1 0x40 MLOAD PUSH2 0xA9 SWAP3 SWAP2 SWAP1 PUSH2 0x5FC JUMP JUMPDEST PUSH1 0x40 MLOAD DUP1 SWAP2 SUB SWAP1 LOG1 STOP JUMPDEST PUSH32 0x6EF95F06320E7A25A04A175CA677B7052BDD97131872C2192525A629F51BE770 CALLER CALLVALUE PUSH1 0x40 MLOAD PUSH2 0xE4 SWAP3 SWAP2 SWAP1 PUSH2 0x5FC JUMP JUMPDEST PUSH1 0x40 MLOAD DUP1 SWAP2 SUB SWAP1 LOG1 STOP JUMPDEST CALLVALUE DUP1 ISZERO PUSH2 0xF9 JUMPI PUSH0 DUP1 REVERT JUMPDEST POP PUSH2 0x114 PUSH1 0x4 DUP1 CALLDATASIZE SUB DUP2 ADD SWAP1 PUSH2 0x10F SWAP2 SWAP1 PUSH2 0x662 JUMP JUMPDEST PUSH2 0x25A JUMP JUMPDEST STOP JUMPDEST CALLVALUE DUP1 ISZERO PUSH2 0x121 JUMPI PUSH0 DUP1 REVERT JUMPDEST POP PUSH2 0x12A PUSH2 0x47E JUMP JUMPDEST PUSH1 0x40 MLOAD PUSH2 0x137 SWAP2 SWAP1 PUSH2 0x68D JUMP JUMPDEST PUSH1 0x40 MLOAD DUP1 SWAP2 SUB SWAP1 RETURN JUMPDEST CALLVALUE DUP1 ISZERO PUSH2 0x14B JUMPI PUSH0 DUP1 REVERT JUMPDEST POP PUSH2 0x166 PUSH1 0x4 DUP1 CALLDATASIZE SUB DUP2 ADD SWAP1 PUSH2 0x161 SWAP2 SWAP1 PUSH2 0x6D0 JUMP JUMPDEST PUSH2 0x483 JUMP JUMPDEST PUSH1 0x40 MLOAD PUSH2 0x173 SWAP2 SWAP1 PUSH2 0x6FB JUMP JUMPDEST PUSH1 0x40 MLOAD DUP1 SWAP2 SUB SWAP1 RETURN JUMPDEST CALLVALUE DUP1 ISZERO PUSH2 0x187 JUMPI PUSH0 DUP1 REVERT JUMPDEST POP PUSH2 0x1A2 PUSH1 0x4 DUP1 CALLDATASIZE SUB DUP2 ADD SWAP1 PUSH2 0x19D SWAP2 SWAP1 PUSH2 0x73E JUMP JUMPDEST PUSH2 0x4BE JUMP JUMPDEST PUSH1 0x40 MLOAD PUSH2 0x1AF SWAP2 SWAP1 PUSH2 0x68D JUMP JUMPDEST PUSH1 0x40 MLOAD DUP1 SWAP2 SUB SWAP1 RETURN JUMPDEST CALLVALUE DUP1 ISZERO PUSH2 0x1C3 JUMPI PUSH0 DUP1 REVERT JUMPDEST POP PUSH2 0x1DE PUSH1 0x4 DUP1 CALLDATASIZE SUB DUP2 ADD SWAP1 PUSH2 0x1D9 SWAP2 SWAP1 PUSH2 0x73E JUMP JUMPDEST PUSH2 0x4D3 JUMP JUMPDEST PUSH1 0x40 MLOAD PUSH2 0x1EB SWAP2 SWAP1 PUSH2 0x68D JUMP JUMPDEST PUSH1 0x40 MLOAD DUP1 SWAP2 SUB SWAP1 RETURN JUMPDEST CALLVALUE DUP1 ISZERO PUSH2 0x1FF JUMPI PUSH0 DUP1 REVERT JUMPDEST POP PUSH2 0x21A PUSH1 0x4 DUP1 CALLDATASIZE SUB DUP2 ADD SWAP1 PUSH2 0x215 SWAP2 SWAP1 PUSH2 0x73E JUMP JUMPDEST PUSH2 0x58A JUMP JUMPDEST PUSH1 0x40 MLOAD PUSH2 0x227 SWAP2 SWAP1 PUSH2 0x68D JUMP JUMPDEST PUSH1 0x40 MLOAD DUP1 SWAP2 SUB SWAP1 RETURN JUMPDEST CALLVALUE DUP1 ISZERO PUSH2 0x23B JUMPI PUSH0 DUP1 REVERT JUMPDEST POP PUSH2 0x244 PUSH2 0x59F JUMP JUMPDEST PUSH1 0x40 MLOAD PUSH2 0x251 SWAP2 SWAP1 PUSH2 0x68D JUMP JUMPDEST PUSH1 0x40 MLOAD DUP1 SWAP2 SUB SWAP1 RETURN JUMPDEST PUSH0 PUSH1 0x2 PUSH0 DUP4 PUSH20 0xFFFFFFFFFFFFFFFFFFFFFFFFFFFFFFFFFFFFFFFF AND PUSH20 0xFFFFFFFFFFFFFFFFFFFFFFFFFFFFFFFFFFFFFFFF AND DUP2 MSTORE PUSH1 0x20 ADD SWAP1 DUP2 MSTORE PUSH1 0x20 ADD PUSH0 KECCAK256 SLOAD GT PUSH2 0x2D9 JUMPI PUSH1 0x40 MLOAD PUSH32 0x8C379A000000000000000000000000000000000000000000000000000000000 DUP2 MSTORE PUSH1 0x4 ADD PUSH2 0x2D0 SWAP1 PUSH2 0x7C3 JUMP JUMPDEST PUSH1 0x40 MLOAD DUP1 SWAP2 SUB SWAP1 REVERT JUMPDEST PUSH0 PUSH2 0x2E3 DUP3 PUSH2 0x4D3 JUMP JUMPDEST SWAP1 POP PUSH0 DUP2 GT PUSH2 0x327 JUMPI PUSH1 0x40 MLOAD PUSH32 0x8C379A000000000000000000000000000000000000000000000000000000000 DUP2 MSTORE PUSH1 0x4 ADD PUSH2 0x31E SWAP1 PUSH2 0x82B JUMP JUMPDEST PUSH1 0x40 MLOAD DUP1 SWAP2 SUB SWAP1 REVERT JUMPDEST DUP1 PUSH1 0x3 PUSH0 DUP5 PUSH20 0xFFFFFFFFFFFFFFFFFFFFFFFFFFFFFFFFFFFFFFFF AND PUSH20 0xFFFFFFFFFFFFFFFFFFFFFFFFFFFFFFFFFFFFFFFF AND DUP2 MSTORE PUSH1 0x20 ADD SWAP1 DUP2 MSTORE PUSH1 0x20 ADD PUSH0 KECCAK256 PUSH0 DUP3 DUP3 SLOAD PUSH2 0x373 SWAP2 SWAP1 PUSH2 0x876 JUMP JUMPDEST SWAP3 POP POP DUP2 SWAP1 SSTORE POP DUP1 PUSH1 0x1 PUSH0 DUP3 DUP3 SLOAD PUSH2 0x38B SWAP2 SWAP1 PUSH2 0x876 JUMP JUMPDEST SWAP3 POP POP DUP2 SWAP1 SSTORE POP PUSH0 DUP3 PUSH20 0xFFFFFFFFFFFFFFFFFFFFFFFFFFFFFFFFFFFFFFFF AND DUP3 PUSH1 0x40 MLOAD PUSH2 0x3B7 SWAP1 PUSH2 0x8D6 JUMP JUMPDEST PUSH0 PUSH1 0x40 MLOAD DUP1 DUP4 SUB DUP2 DUP6 DUP8 GAS CALL SWAP3 POP POP POP RETURNDATASIZE DUP1 PUSH0 DUP2 EQ PUSH2 0x3F1 JUMPI PUSH1 0x40 MLOAD SWAP2 POP PUSH1 0x1F NOT PUSH1 0x3F RETURNDATASIZE ADD AND DUP3 ADD PUSH1 0x40 MSTORE RETURNDATASIZE DUP3 MSTORE RETURNDATASIZE PUSH0 PUSH1 0x20 DUP5 ADD RETURNDATACOPY PUSH2 0x3F6 JUMP JUMPDEST PUSH1 0x60 SWAP2 POP JUMPDEST POP POP SWAP1 POP DUP1 ISZERO PUSH2 0x43E JUMPI PUSH32 0xDF20FD1E76BC69D672E4814FAFB2C449BBA3A5369D8359ADF9E05E6FDE87B056 DUP4 DUP4 PUSH1 0x40 MLOAD PUSH2 0x431 SWAP3 SWAP2 SWAP1 PUSH2 0x945 JUMP JUMPDEST PUSH1 0x40 MLOAD DUP1 SWAP2 SUB SWAP1 LOG1 PUSH2 0x479 JUMP JUMPDEST PUSH1 0x40 MLOAD PUSH32 0x8C379A000000000000000000000000000000000000000000000000000000000 DUP2 MSTORE PUSH1 0x4 ADD PUSH2 0x470 SWAP1 PUSH2 0x9B6 JUMP JUMPDEST PUSH1 0x40 MLOAD DUP1 SWAP2 SUB SWAP1 REVERT JUMPDEST POP POP POP JUMP JUMPDEST PUSH0 SLOAD DUP2 JUMP JUMPDEST PUSH1 0x4 DUP2 DUP2 SLOAD DUP2 LT PUSH2 0x492 JUMPI PUSH0 DUP1 REVERT JUMPDEST SWAP1 PUSH0 MSTORE PUSH1 0x20 PUSH0 KECCAK256 ADD PUSH0 SWAP2 POP SLOAD SWAP1 PUSH2 0x100 EXP SWAP1 DIV PUSH20 0xFFFFFFFFFFFFFFFFFFFFFFFFFFFFFFFFFFFFFFFF AND DUP2 JUMP JUMPDEST PUSH1 0x3 PUSH1 0x20 MSTORE DUP1 PUSH0 MSTORE PUSH1 0x40 PUSH0 KECCAK256 PUSH0 SWAP2 POP SWAP1 POP SLOAD DUP2 JUMP JUMPDEST PUSH0 DUP1 PUSH1 0x1 SLOAD SELFBALANCE PUSH2 0x4E3 SWAP2 SWAP1 PUSH2 0x876 JUMP JUMPDEST SWAP1 POP PUSH1 0x3 PUSH0 DUP5 PUSH20 0xFFFFFFFFFFFFFFFFFFFFFFFFFFFFFFFFFFFFFFFF AND PUSH20 0xFFFFFFFFFFFFFFFFFFFFFFFFFFFFFFFFFFFFFFFF AND DUP2 MSTORE PUSH1 0x20 ADD SWAP1 DUP2 MSTORE PUSH1 0x20 ADD PUSH0 KECCAK256 SLOAD PUSH0 SLOAD PUSH1 0x2 PUSH0 DUP7 PUSH20 0xFFFFFFFFFFFFFFFFFFFFFFFFFFFFFFFFFFFFFFFF AND PUSH20 0xFFFFFFFFFFFFFFFFFFFFFFFFFFFFFFFFFFFFFFFF AND DUP2 MSTORE PUSH1 0x20 ADD SWAP1 DUP2 MSTORE PUSH1 0x20 ADD PUSH0 KECCAK256 SLOAD DUP4 PUSH2 0x56E SWAP2 SWAP1 PUSH2 0x9D4 JUMP JUMPDEST PUSH2 0x578 SWAP2 SWAP1 PUSH2 0xA42 JUMP JUMPDEST PUSH2 0x582 SWAP2 SWAP1 PUSH2 0xA72 JUMP JUMPDEST SWAP2 POP POP SWAP2 SWAP1 POP JUMP JUMPDEST PUSH1 0x2 PUSH1 0x20 MSTORE DUP1 PUSH0 MSTORE PUSH1 0x40 PUSH0 KECCAK256 PUSH0 SWAP2 POP SWAP1 POP SLOAD DUP2 JUMP JUMPDEST PUSH1 0x1 SLOAD DUP2 JUMP JUMPDEST PUSH0 PUSH20 0xFFFFFFFFFFFFFFFFFFFFFFFFFFFFFFFFFFFFFFFF DUP3 AND SWAP1 POP SWAP2 SWAP1 POP JUMP JUMPDEST PUSH0 PUSH2 0x5CE DUP3 PUSH2 0x5A5 JUMP JUMPDEST SWAP1 POP SWAP2 SWAP1 POP JUMP JUMPDEST PUSH2 0x5DE DUP2 PUSH2 0x5C4 JUMP JUMPDEST DUP3 MSTORE POP POP JUMP JUMPDEST PUSH0 DUP2 SWAP1 POP SWAP2 SWAP1 POP JUMP JUMPDEST PUSH2 0x5F6 DUP2 PUSH2 0x5E4 JUMP JUMPDEST DUP3 MSTORE POP POP JUMP JUMPDEST PUSH0 PUSH1 0x40 DUP3 ADD SWAP1 POP PUSH2 0x60F PUSH0 DUP4 ADD DUP6 PUSH2 0x5D5 JUMP JUMPDEST PUSH2 0x61C PUSH1 0x20 DUP4 ADD DUP5 PUSH2 0x5ED JUMP JUMPDEST SWAP4 SWAP3 POP POP POP JUMP JUMPDEST PUSH0 DUP1 REVERT JUMPDEST PUSH0 PUSH2 0x631 DUP3 PUSH2 0x5A5 JUMP JUMPDEST SWAP1 POP SWAP2 SWAP1 POP JUMP JUMPDEST PUSH2 0x641 DUP2 PUSH2 0x627 JUMP JUMPDEST DUP2 EQ PUSH2 0x64B JUMPI PUSH0 DUP1 REVERT JUMPDEST POP JUMP JUMPDEST PUSH0 DUP2 CALLDATALOAD SWAP1 POP PUSH2 0x65C DUP2 PUSH2 0x638 JUMP JUMPDEST SWAP3 SWAP2 POP POP JUMP JUMPDEST PUSH0 PUSH1 0x20 DUP3 DUP5 SUB SLT ISZERO PUSH2 0x677 JUMPI PUSH2 0x676 PUSH2 0x623 JUMP JUMPDEST JUMPDEST PUSH0 PUSH2 0x684 DUP5 DUP3 DUP6 ADD PUSH2 0x64E JUMP JUMPDEST SWAP2 POP POP SWAP3 SWAP2 POP POP JUMP JUMPDEST PUSH0 PUSH1 0x20 DUP3 ADD SWAP1 POP PUSH2 0x6A0 PUSH0 DUP4 ADD DUP5 PUSH2 0x5ED JUMP JUMPDEST SWAP3 SWAP2 POP POP JUMP JUMPDEST PUSH2 0x6AF DUP2 PUSH2 0x5E4 JUMP JUMPDEST DUP2 EQ PUSH2 0x6B9 JUMPI PUSH0 DUP1 REVERT JUMPDEST POP JUMP JUMPDEST PUSH0 DUP2 CALLDATALOAD SWAP1 POP PUSH2 0x6CA DUP2 PUSH2 0x6A6 JUMP JUMPDEST SWAP3 SWAP2 POP POP JUMP JUMPDEST PUSH0 PUSH1 0x20 DUP3 DUP5 SUB SLT ISZERO PUSH2 0x6E5 JUMPI PUSH2 0x6E4 PUSH2 0x623 JUMP JUMPDEST JUMPDEST PUSH0 PUSH2 0x6F2 DUP5 DUP3 DUP6 ADD PUSH2 0x6BC JUMP JUMPDEST SWAP2 POP POP SWAP3 SWAP2 POP POP JUMP JUMPDEST PUSH0 PUSH1 0x20 DUP3 ADD SWAP1 POP PUSH2 0x70E PUSH0 DUP4 ADD DUP5 PUSH2 0x5D5 JUMP JUMPDEST SWAP3 SWAP2 POP POP JUMP JUMPDEST PUSH2 0x71D DUP2 PUSH2 0x5C4 JUMP JUMPDEST DUP2 EQ PUSH2 0x727 JUMPI PUSH0 DUP1 REVERT JUMPDEST POP JUMP JUMPDEST PUSH0 DUP2 CALLDATALOAD SWAP1 POP PUSH2 0x738 DUP2 PUSH2 0x714 JUMP JUMPDEST SWAP3 SWAP2 POP POP JUMP JUMPDEST PUSH0 PUSH1 0x20 DUP3 DUP5 SUB SLT ISZERO PUSH2 0x753 JUMPI PUSH2 0x752 PUSH2 0x623 JUMP JUMPDEST JUMPDEST PUSH0 PUSH2 0x760 DUP5 DUP3 DUP6 ADD PUSH2 0x72A JUMP JUMPDEST SWAP2 POP POP SWAP3 SWAP2 POP POP JUMP JUMPDEST PUSH0 DUP3 DUP3 MSTORE PUSH1 0x20 DUP3 ADD SWAP1 POP SWAP3 SWAP2 POP POP JUMP JUMPDEST PUSH32 0x546865206163636F756E7420686173206E6F7420706179207368617265730000 PUSH0 DUP3 ADD MSTORE POP JUMP JUMPDEST PUSH0 PUSH2 0x7AD PUSH1 0x1E DUP4 PUSH2 0x769 JUMP JUMPDEST SWAP2 POP PUSH2 0x7B8 DUP3 PUSH2 0x779 JUMP JUMPDEST PUSH1 0x20 DUP3 ADD SWAP1 POP SWAP2 SWAP1 POP JUMP JUMPDEST PUSH0 PUSH1 0x20 DUP3 ADD SWAP1 POP DUP2 DUP2 SUB PUSH0 DUP4 ADD MSTORE PUSH2 0x7DA DUP2 PUSH2 0x7A1 JUMP JUMPDEST SWAP1 POP SWAP2 SWAP1 POP JUMP JUMPDEST PUSH32 0x496E73756666696369656E74206163636F756E74206C696D6974000000000000 PUSH0 DUP3 ADD MSTORE POP JUMP JUMPDEST PUSH0 PUSH2 0x815 PUSH1 0x1A DUP4 PUSH2 0x769 JUMP JUMPDEST SWAP2 POP PUSH2 0x820 DUP3 PUSH2 0x7E1 JUMP JUMPDEST PUSH1 0x20 DUP3 ADD SWAP1 POP SWAP2 SWAP1 POP JUMP JUMPDEST PUSH0 PUSH1 0x20 DUP3 ADD SWAP1 POP DUP2 DUP2 SUB PUSH0 DUP4 ADD MSTORE PUSH2 0x842 DUP2 PUSH2 0x809 JUMP JUMPDEST SWAP1 POP SWAP2 SWAP1 POP JUMP JUMPDEST PUSH32 0x4E487B7100000000000000000000000000000000000000000000000000000000 PUSH0 MSTORE PUSH1 0x11 PUSH1 0x4 MSTORE PUSH1 0x24 PUSH0 REVERT JUMPDEST PUSH0 PUSH2 0x880 DUP3 PUSH2 0x5E4 JUMP JUMPDEST SWAP2 POP PUSH2 0x88B DUP4 PUSH2 0x5E4 JUMP JUMPDEST SWAP3 POP DUP3 DUP3 ADD SWAP1 POP DUP1 DUP3 GT ISZERO PUSH2 0x8A3 JUMPI PUSH2 0x8A2 PUSH2 0x849 JUMP JUMPDEST JUMPDEST SWAP3 SWAP2 POP POP JUMP JUMPDEST PUSH0 DUP2 SWAP1 POP SWAP3 SWAP2 POP POP JUMP JUMPDEST POP JUMP JUMPDEST PUSH0 PUSH2 0x8C1 PUSH0 DUP4 PUSH2 0x8A9 JUMP JUMPDEST SWAP2 POP PUSH2 0x8CC DUP3 PUSH2 0x8B3 JUMP JUMPDEST PUSH0 DUP3 ADD SWAP1 POP SWAP2 SWAP1 POP JUMP JUMPDEST PUSH0 PUSH2 0x8E0 DUP3 PUSH2 0x8B6 JUMP JUMPDEST SWAP2 POP DUP2 SWAP1 POP SWAP2 SWAP1 POP JUMP JUMPDEST PUSH0 DUP2 SWAP1 POP SWAP2 SWAP1 POP JUMP JUMPDEST PUSH0 PUSH2 0x90D PUSH2 0x908 PUSH2 0x903 DUP5 PUSH2 0x5A5 JUMP JUMPDEST PUSH2 0x8EA JUMP JUMPDEST PUSH2 0x5A5 JUMP JUMPDEST SWAP1 POP SWAP2 SWAP1 POP JUMP JUMPDEST PUSH0 PUSH2 0x91E DUP3 PUSH2 0x8F3 JUMP JUMPDEST SWAP1 POP SWAP2 SWAP1 POP JUMP JUMPDEST PUSH0 PUSH2 0x92F DUP3 PUSH2 0x914 JUMP JUMPDEST SWAP1 POP SWAP2 SWAP1 POP JUMP JUMPDEST PUSH2 0x93F DUP2 PUSH2 0x925 JUMP JUMPDEST DUP3 MSTORE POP POP JUMP JUMPDEST PUSH0 PUSH1 0x40 DUP3 ADD SWAP1 POP PUSH2 0x958 PUSH0 DUP4 ADD DUP6 PUSH2 0x936 JUMP JUMPDEST PUSH2 0x965 PUSH1 0x20 DUP4 ADD DUP5 PUSH2 0x5ED JUMP JUMPDEST SWAP4 SWAP3 POP POP POP JUMP JUMPDEST PUSH32 0x5472616E73666572206661696C65640000000000000000000000000000000000 PUSH0 DUP3 ADD MSTORE POP JUMP JUMPDEST PUSH0 PUSH2 0x9A0 PUSH1 0xF DUP4 PUSH2 0x769 JUMP JUMPDEST SWAP2 POP PUSH2 0x9AB DUP3 PUSH2 0x96C JUMP JUMPDEST PUSH1 0x20 DUP3 ADD SWAP1 POP SWAP2 SWAP1 POP JUMP JUMPDEST PUSH0 PUSH1 0x20 DUP3 ADD SWAP1 POP DUP2 DUP2 SUB PUSH0 DUP4 ADD MSTORE PUSH2 0x9CD DUP2 PUSH2 0x994 JUMP JUMPDEST SWAP1 POP SWAP2 SWAP1 POP JUMP JUMPDEST PUSH0 PUSH2 0x9DE DUP3 PUSH2 0x5E4 JUMP JUMPDEST SWAP2 POP PUSH2 0x9E9 DUP4 PUSH2 0x5E4 JUMP JUMPDEST SWAP3 POP DUP3 DUP3 MUL PUSH2 0x9F7 DUP2 PUSH2 0x5E4 JUMP JUMPDEST SWAP2 POP DUP3 DUP3 DIV DUP5 EQ DUP4 ISZERO OR PUSH2 0xA0E JUMPI PUSH2 0xA0D PUSH2 0x849 JUMP JUMPDEST JUMPDEST POP SWAP3 SWAP2 POP POP JUMP JUMPDEST PUSH32 0x4E487B7100000000000000000000000000000000000000000000000000000000 PUSH0 MSTORE PUSH1 0x12 PUSH1 0x4 MSTORE PUSH1 0x24 PUSH0 REVERT JUMPDEST PUSH0 PUSH2 0xA4C DUP3 PUSH2 0x5E4 JUMP JUMPDEST SWAP2 POP PUSH2 0xA57 DUP4 PUSH2 0x5E4 JUMP JUMPDEST SWAP3 POP DUP3 PUSH2 0xA67 JUMPI PUSH2 0xA66 PUSH2 0xA15 JUMP JUMPDEST JUMPDEST DUP3 DUP3 DIV SWAP1 POP SWAP3 SWAP2 POP POP JUMP JUMPDEST PUSH0 PUSH2 0xA7C DUP3 PUSH2 0x5E4 JUMP JUMPDEST SWAP2 POP PUSH2 0xA87 DUP4 PUSH2 0x5E4 JUMP JUMPDEST SWAP3 POP DUP3 DUP3 SUB SWAP1 POP DUP2 DUP2 GT ISZERO PUSH2 0xA9F JUMPI PUSH2 0xA9E PUSH2 0x849 JUMP JUMPDEST JUMPDEST SWAP3 SWAP2 POP POP JUMP INVALID LOG2 PUSH5 0x6970667358 0x22 SLT KECCAK256 0xCD DUP10 SWAP5 0xEB PUSH25 0x3133C80C9E6C580BDF6896E559BCCE1531E2CABE41F064B533 0xB3 PUSH2 0x6473 PUSH16 0x6C634300081A00330000000000000000 "
		},
		"gasEstimates": {
			"creation": {
				"codeDepositCost": "555800",
				"executionCost": "infinite",
				"totalCost": "infinite"
			},
			"external": {
				"": "1743",
				"payees(uint256)": "4989",
				"releasable(address)": "infinite",
				"release(address)": "infinite",
				"released(address)": "2802",
				"shares(address)": "2846",
				"totalReleased()": "2491",
				"totalShares()": "2447"
			},
			"internal": {
				"_addPayee(address,uint256)": "infinite"
			}
		},
		"methodIdentifiers": {
			"payees(uint256)": "63037b0c",
			"releasable(address)": "a3f8eace",
			"release(address)": "19165587",
			"released(address)": "9852595c",
			"shares(address)": "ce7c2ac2",
			"totalReleased()": "e33b7de3",
			"totalShares()": "3a98ef39"
		}
	},
	"abi": [
		{
			"inputs": [
				{
					"internalType": "address[]",
					"name": "_payees",
					"type": "address[]"
				},
				{
					"internalType": "uint256[]",
					"name": "_shares",
					"type": "uint256[]"
				}
			],
			"stateMutability": "payable",
			"type": "constructor"
		},
		{
			"anonymous": false,
			"inputs": [
				{
					"indexed": false,
					"internalType": "address",
					"name": "account",
					"type": "address"
				},
				{
					"indexed": false,
					"internalType": "uint256",
					"name": "shares",
					"type": "uint256"
				}
			],
			"name": "PayeeAdded",
			"type": "event"
		},
		{
			"anonymous": false,
			"inputs": [
				{
					"indexed": false,
					"internalType": "address",
					"name": "from",
					"type": "address"
				},
				{
					"indexed": false,
					"internalType": "uint256",
					"name": "amount",
					"type": "uint256"
				}
			],
			"name": "PaymentReceived",
			"type": "event"
		},
		{
			"anonymous": false,
			"inputs": [
				{
					"indexed": false,
					"internalType": "address",
					"name": "to",
					"type": "address"
				},
				{
					"indexed": false,
					"internalType": "uint256",
					"name": "amount",
					"type": "uint256"
				}
			],
			"name": "PaymentReleased",
			"type": "event"
		},
		{
			"stateMutability": "payable",
			"type": "fallback"
		},
		{
			"inputs": [
				{
					"internalType": "uint256",
					"name": "",
					"type": "uint256"
				}
			],
			"name": "payees",
			"outputs": [
				{
					"internalType": "address",
					"name": "",
					"type": "address"
				}
			],
			"stateMutability": "view",
			"type": "function"
		},
		{
			"inputs": [
				{
					"internalType": "address",
					"name": "account",
					"type": "address"
				}
			],
			"name": "releasable",
			"outputs": [
				{
					"internalType": "uint256",
					"name": "",
					"type": "uint256"
				}
			],
			"stateMutability": "view",
			"type": "function"
		},
		{
			"inputs": [
				{
					"internalType": "address payable",
					"name": "account",
					"type": "address"
				}
			],
			"name": "release",
			"outputs": [],
			"stateMutability": "nonpayable",
			"type": "function"
		},
		{
			"inputs": [
				{
					"internalType": "address",
					"name": "",
					"type": "address"
				}
			],
			"name": "released",
			"outputs": [
				{
					"internalType": "uint256",
					"name": "",
					"type": "uint256"
				}
			],
			"stateMutability": "view",
			"type": "function"
		},
		{
			"inputs": [
				{
					"internalType": "address",
					"name": "",
					"type": "address"
				}
			],
			"name": "shares",
			"outputs": [
				{
					"internalType": "uint256",
					"name": "",
					"type": "uint256"
				}
			],
			"stateMutability": "view",
			"type": "function"
		},
		{
			"inputs": [],
			"name": "totalReleased",
			"outputs": [
				{
					"internalType": "uint256",
					"name": "",
					"type": "uint256"
				}
			],
			"stateMutability": "view",
			"type": "function"
		},
		{
			"inputs": [],
			"name": "totalShares",
			"outputs": [
				{
					"internalType": "uint256",
					"name": "",
					"type": "uint256"
				}
			],
			"stateMutability": "view",
			"type": "function"
		},
		{
			"stateMutability": "payable",
			"type": "receive"
		}
	]
}