{
	"data": {
		"bytecode": {
			"linkReferences": {},
			"object": "6080604052348015600e575f80fd5b506101f78061001c5f395ff3fe608060405234801561000f575f80fd5b5060043610610034575f3560e01c806381754cf614610038578063ae40f72f14610056575b5f80fd5b610040610074565b60405161004d9190610118565b60405180910390f35b61005e610094565b60405161006b91906101a1565b60405180910390f35b5f63c87b56dd60e01b6395d89b4160e01b6306fdde0360e01b1818905090565b60607f30783230000000000000000000000000000000000000000000000000000000007f610000000000000000000000000000000000000000000000000000000000000001905090565b5f7fffffffff0000000000000000000000000000000000000000000000000000000082169050919050565b610112816100de565b82525050565b5f60208201905061012b5f830184610109565b92915050565b5f81519050919050565b5f82825260208201905092915050565b8281835e5f83830152505050565b5f601f19601f8301169050919050565b5f61017382610131565b61017d818561013b565b935061018d81856020860161014b565b61019681610159565b840191505092915050565b5f6020820190508181035f8301526101b98184610169565b90509291505056fea2646970667358221220b212d878a746218496138818e007cac39df7268d378576f9bfff7e20b3535d7264736f6c634300081a0033",
			"opcodes": "PUSH1 0x80 PUSH1 0x40 MSTORE CALLVALUE DUP1 ISZERO PUSH1 0xE JUMPI PUSH0 DUP1 REVERT JUMPDEST POP PUSH2 0x1F7 DUP1 PUSH2 0x1C PUSH0 CODECOPY PUSH0 RETURN INVALID PUSH1 0x80 PUSH1 0x40 MSTORE CALLVALUE DUP1 ISZERO PUSH2 0xF JUMPI PUSH0 DUP1 REVERT JUMPDEST POP PUSH1 0x4 CALLDATASIZE LT PUSH2 0x34 JUMPI PUSH0 CALLDATALOAD PUSH1 0xE0 SHR DUP1 PUSH4 0x81754CF6 EQ PUSH2 0x38 JUMPI DUP1 PUSH4 0xAE40F72F EQ PUSH2 0x56 JUMPI JUMPDEST PUSH0 DUP1 REVERT JUMPDEST PUSH2 0x40 PUSH2 0x74 JUMP JUMPDEST PUSH1 0x40 MLOAD PUSH2 0x4D SWAP2 SWAP1 PUSH2 0x118 JUMP JUMPDEST PUSH1 0x40 MLOAD DUP1 SWAP2 SUB SWAP1 RETURN JUMPDEST PUSH2 0x5E PUSH2 0x94 JUMP JUMPDEST PUSH1 0x40 MLOAD PUSH2 0x6B SWAP2 SWAP1 PUSH2 0x1A1 JUMP JUMPDEST PUSH1 0x40 MLOAD DUP1 SWAP2 SUB SWAP1 RETURN JUMPDEST PUSH0 PUSH4 0xC87B56DD PUSH1 0xE0 SHL PUSH4 0x95D89B41 PUSH1 0xE0 SHL PUSH4 0x6FDDE03 PUSH1 0xE0 SHL XOR XOR SWAP1 POP SWAP1 JUMP JUMPDEST PUSH1 0x60 PUSH32 0x3078323000000000000000000000000000000000000000000000000000000000 PUSH32 0x6100000000000000000000000000000000000000000000000000000000000000 ADD SWAP1 POP SWAP1 JUMP JUMPDEST PUSH0 PUSH32 0xFFFFFFFF00000000000000000000000000000000000000000000000000000000 DUP3 AND SWAP1 POP SWAP2 SWAP1 POP JUMP JUMPDEST PUSH2 0x112 DUP2 PUSH2 0xDE JUMP JUMPDEST DUP3 MSTORE POP POP JUMP JUMPDEST PUSH0 PUSH1 0x20 DUP3 ADD SWAP1 POP PUSH2 0x12B PUSH0 DUP4 ADD DUP5 PUSH2 0x109 JUMP JUMPDEST SWAP3 SWAP2 POP POP JUMP JUMPDEST PUSH0 DUP2 MLOAD SWAP1 POP SWAP2 SWAP1 POP JUMP JUMPDEST PUSH0 DUP3 DUP3 MSTORE PUSH1 0x20 DUP3 ADD SWAP1 POP SWAP3 SWAP2 POP POP JUMP JUMPDEST DUP3 DUP2 DUP4 MCOPY PUSH0 DUP4 DUP4 ADD MSTORE POP POP POP JUMP JUMPDEST PUSH0 PUSH1 0x1F NOT PUSH1 0x1F DUP4 ADD AND SWAP1 POP SWAP2 SWAP1 POP JUMP JUMPDEST PUSH0 PUSH2 0x173 DUP3 PUSH2 0x131 JUMP JUMPDEST PUSH2 0x17D DUP2 DUP6 PUSH2 0x13B JUMP JUMPDEST SWAP4 POP PUSH2 0x18D DUP2 DUP6 PUSH1 0x20 DUP7 ADD PUSH2 0x14B JUMP JUMPDEST PUSH2 0x196 DUP2 PUSH2 0x159 JUMP JUMPDEST DUP5 ADD SWAP2 POP POP SWAP3 SWAP2 POP POP JUMP JUMPDEST PUSH0 PUSH1 0x20 DUP3 ADD SWAP1 POP DUP2 DUP2 SUB PUSH0 DUP4 ADD MSTORE PUSH2 0x1B9 DUP2 DUP5 PUSH2 0x169 JUMP JUMPDEST SWAP1 POP SWAP3 SWAP2 POP POP JUMP INVALID LOG2 PUSH5 0x6970667358 0x22 SLT KECCAK256 0xB2 SLT 0xD8 PUSH25 0xA746218496138818E007CAC39DF7268D378576F9BFFF7E20B3 MSTORE8 TSTORE PUSH19 0x64736F6C634300081A00330000000000000000 "
		},
		"gasEstimates": {
			"creation": {
				"codeDepositCost": "100600",
				"executionCost": "145",
				"totalCost": "100745"
			},
			"external": {
				"calcSelector()": "346",
				"testAdd()": "infinite"
			}
		},
		"methodIdentifiers": {
			"calcSelector()": "81754cf6",
			"testAdd()": "ae40f72f"
		}
	},
	"abi": [
		{
			"inputs": [],
			"name": "calcSelector",
			"outputs": [
				{
					"internalType": "bytes4",
					"name": "",
					"type": "bytes4"
				}
			],
			"stateMutability": "pure",
			"type": "function"
		},
		{
			"inputs": [],
			"name": "testAdd",
			"outputs": [
				{
					"internalType": "string",
					"name": "c",
					"type": "string"
				}
			],
			"stateMutability": "pure",
			"type": "function"
		}
	]
}