{
	"data": {
		"bytecode": {
			"linkReferences": {},
			"object": "610100604052348015610010575f80fd5b506040516109fa3803806109fa833981810160405281019061003291906101f4565b5f8111610074576040517f08c379a000000000000000000000000000000000000000000000000000000000815260040161006b906102c4565b60405180910390fd5b8273ffffffffffffffffffffffffffffffffffffffff1660808173ffffffffffffffffffffffffffffffffffffffff16815250508173ffffffffffffffffffffffffffffffffffffffff1660a08173ffffffffffffffffffffffffffffffffffffffff16815250508060e081815250504260c0818152505060a05173ffffffffffffffffffffffffffffffffffffffff1660805173ffffffffffffffffffffffffffffffffffffffff167fe5d7d4b5cb0219916a8be73968f7baf3c806fd018b0cc5598f5129436cf5c31660c05160e0516040516101539291906102f1565b60405180910390a3505050610318565b5f80fd5b5f73ffffffffffffffffffffffffffffffffffffffff82169050919050565b5f61019082610167565b9050919050565b6101a081610186565b81146101aa575f80fd5b50565b5f815190506101bb81610197565b92915050565b5f819050919050565b6101d3816101c1565b81146101dd575f80fd5b50565b5f815190506101ee816101ca565b92915050565b5f805f6060848603121561020b5761020a610163565b5b5f610218868287016101ad565b9350506020610229868287016101ad565b925050604061023a868287016101e0565b9150509250925092565b5f82825260208201905092915050565b7f5468652074696d6520746f206c6f636b2074686520746f6b656e206d757374205f8201527f62652067726561746572207468616e207a65726f2e0000000000000000000000602082015250565b5f6102ae603583610244565b91506102b982610254565b604082019050919050565b5f6020820190508181035f8301526102db816102a2565b9050919050565b6102eb816101c1565b82525050565b5f6040820190506103045f8301856102e2565b61031160208301846102e2565b9392505050565b60805160a05160c05160e0516106876103735f395f818160dd015261037f01525f818160fe01526103c701525f8181610134015281816102b0015261035b01525f8181610230015281816102e701526103a301526106875ff3fe608060405234801561000f575f80fd5b5060043610610055575f3560e01c806396132521146100595780639d76ea5814610063578063b544bf8314610081578063cbfda1c51461009f578063e6fd48bc146100bd575b5f80fd5b6100616100db565b005b61006b610359565b6040516100789190610428565b60405180910390f35b61008961037d565b6040516100969190610459565b60405180910390f35b6100a76103a1565b6040516100b49190610428565b60405180910390f35b6100c56103c5565b6040516100d29190610459565b60405180910390f35b7f00000000000000000000000000000000000000000000000000000000000000007f0000000000000000000000000000000000000000000000000000000000000000610127919061049f565b4211610131575f80fd5b5f7f000000000000000000000000000000000000000000000000000000000000000090505f8173ffffffffffffffffffffffffffffffffffffffff166370a08231306040518263ffffffff1660e01b815260040161018f9190610428565b602060405180830381865afa1580156101aa573d5f803e3d5ffd5b505050506040513d601f19601f820116820180604052508101906101ce9190610500565b90505f8111610212576040517f08c379a000000000000000000000000000000000000000000000000000000000815260040161020990610585565b60405180910390fd5b8173ffffffffffffffffffffffffffffffffffffffff1663a9059cbb7f0000000000000000000000000000000000000000000000000000000000000000836040518363ffffffff1660e01b815260040161026d9291906105a3565b6020604051808303815f875af1158015610289573d5f803e3d5ffd5b505050506040513d601f19601f820116820180604052508101906102ad91906105ff565b507f000000000000000000000000000000000000000000000000000000000000000073ffffffffffffffffffffffffffffffffffffffff167f000000000000000000000000000000000000000000000000000000000000000073ffffffffffffffffffffffffffffffffffffffff167f29e9bc035f01bfa0da19263257dbbaeb34bf6c9c780d975b99cb802aecfcf1a2428460405161034d92919061062a565b60405180910390a35050565b7f000000000000000000000000000000000000000000000000000000000000000081565b7f000000000000000000000000000000000000000000000000000000000000000081565b7f000000000000000000000000000000000000000000000000000000000000000081565b7f000000000000000000000000000000000000000000000000000000000000000081565b5f73ffffffffffffffffffffffffffffffffffffffff82169050919050565b5f610412826103e9565b9050919050565b61042281610408565b82525050565b5f60208201905061043b5f830184610419565b92915050565b5f819050919050565b61045381610441565b82525050565b5f60208201905061046c5f83018461044a565b92915050565b7f4e487b71000000000000000000000000000000000000000000000000000000005f52601160045260245ffd5b5f6104a982610441565b91506104b483610441565b92508282019050808211156104cc576104cb610472565b5b92915050565b5f80fd5b6104df81610441565b81146104e9575f80fd5b50565b5f815190506104fa816104d6565b92915050565b5f60208284031215610515576105146104d2565b5b5f610522848285016104ec565b91505092915050565b5f82825260208201905092915050565b7f696e73756666696369656e742062616c616e63650000000000000000000000005f82015250565b5f61056f60148361052b565b915061057a8261053b565b602082019050919050565b5f6020820190508181035f83015261059c81610563565b9050919050565b5f6040820190506105b65f830185610419565b6105c3602083018461044a565b9392505050565b5f8115159050919050565b6105de816105ca565b81146105e8575f80fd5b50565b5f815190506105f9816105d5565b92915050565b5f60208284031215610614576106136104d2565b5b5f610621848285016105eb565b91505092915050565b5f60408201905061063d5f83018561044a565b61064a602083018461044a565b939250505056fea264697066735822122053f2509d28b428639faef853de0e53b52285874fc24ee2779b27637b9e6ed09564736f6c634300081a0033",
			"opcodes": "PUSH2 0x100 PUSH1 0x40 MSTORE CALLVALUE DUP1 ISZERO PUSH2 0x10 JUMPI PUSH0 DUP1 REVERT JUMPDEST POP PUSH1 0x40 MLOAD PUSH2 0x9FA CODESIZE SUB DUP1 PUSH2 0x9FA DUP4 CODECOPY DUP2 DUP2 ADD PUSH1 0x40 MSTORE DUP2 ADD SWAP1 PUSH2 0x32 SWAP2 SWAP1 PUSH2 0x1F4 JUMP JUMPDEST PUSH0 DUP2 GT PUSH2 0x74 JUMPI PUSH1 0x40 MLOAD PUSH32 0x8C379A000000000000000000000000000000000000000000000000000000000 DUP2 MSTORE PUSH1 0x4 ADD PUSH2 0x6B SWAP1 PUSH2 0x2C4 JUMP JUMPDEST PUSH1 0x40 MLOAD DUP1 SWAP2 SUB SWAP1 REVERT JUMPDEST DUP3 PUSH20 0xFFFFFFFFFFFFFFFFFFFFFFFFFFFFFFFFFFFFFFFF AND PUSH1 0x80 DUP2 PUSH20 0xFFFFFFFFFFFFFFFFFFFFFFFFFFFFFFFFFFFFFFFF AND DUP2 MSTORE POP POP DUP2 PUSH20 0xFFFFFFFFFFFFFFFFFFFFFFFFFFFFFFFFFFFFFFFF AND PUSH1 0xA0 DUP2 PUSH20 0xFFFFFFFFFFFFFFFFFFFFFFFFFFFFFFFFFFFFFFFF AND DUP2 MSTORE POP POP DUP1 PUSH1 0xE0 DUP2 DUP2 MSTORE POP POP TIMESTAMP PUSH1 0xC0 DUP2 DUP2 MSTORE POP POP PUSH1 0xA0 MLOAD PUSH20 0xFFFFFFFFFFFFFFFFFFFFFFFFFFFFFFFFFFFFFFFF AND PUSH1 0x80 MLOAD PUSH20 0xFFFFFFFFFFFFFFFFFFFFFFFFFFFFFFFFFFFFFFFF AND PUSH32 0xE5D7D4B5CB0219916A8BE73968F7BAF3C806FD018B0CC5598F5129436CF5C316 PUSH1 0xC0 MLOAD PUSH1 0xE0 MLOAD PUSH1 0x40 MLOAD PUSH2 0x153 SWAP3 SWAP2 SWAP1 PUSH2 0x2F1 JUMP JUMPDEST PUSH1 0x40 MLOAD DUP1 SWAP2 SUB SWAP1 LOG3 POP POP POP PUSH2 0x318 JUMP JUMPDEST PUSH0 DUP1 REVERT JUMPDEST PUSH0 PUSH20 0xFFFFFFFFFFFFFFFFFFFFFFFFFFFFFFFFFFFFFFFF DUP3 AND SWAP1 POP SWAP2 SWAP1 POP JUMP JUMPDEST PUSH0 PUSH2 0x190 DUP3 PUSH2 0x167 JUMP JUMPDEST SWAP1 POP SWAP2 SWAP1 POP JUMP JUMPDEST PUSH2 0x1A0 DUP2 PUSH2 0x186 JUMP JUMPDEST DUP2 EQ PUSH2 0x1AA JUMPI PUSH0 DUP1 REVERT JUMPDEST POP JUMP JUMPDEST PUSH0 DUP2 MLOAD SWAP1 POP PUSH2 0x1BB DUP2 PUSH2 0x197 JUMP JUMPDEST SWAP3 SWAP2 POP POP JUMP JUMPDEST PUSH0 DUP2 SWAP1 POP SWAP2 SWAP1 POP JUMP JUMPDEST PUSH2 0x1D3 DUP2 PUSH2 0x1C1 JUMP JUMPDEST DUP2 EQ PUSH2 0x1DD JUMPI PUSH0 DUP1 REVERT JUMPDEST POP JUMP JUMPDEST PUSH0 DUP2 MLOAD SWAP1 POP PUSH2 0x1EE DUP2 PUSH2 0x1CA JUMP JUMPDEST SWAP3 SWAP2 POP POP JUMP JUMPDEST PUSH0 DUP1 PUSH0 PUSH1 0x60 DUP5 DUP7 SUB SLT ISZERO PUSH2 0x20B JUMPI PUSH2 0x20A PUSH2 0x163 JUMP JUMPDEST JUMPDEST PUSH0 PUSH2 0x218 DUP7 DUP3 DUP8 ADD PUSH2 0x1AD JUMP JUMPDEST SWAP4 POP POP PUSH1 0x20 PUSH2 0x229 DUP7 DUP3 DUP8 ADD PUSH2 0x1AD JUMP JUMPDEST SWAP3 POP POP PUSH1 0x40 PUSH2 0x23A DUP7 DUP3 DUP8 ADD PUSH2 0x1E0 JUMP JUMPDEST SWAP2 POP POP SWAP3 POP SWAP3 POP SWAP3 JUMP JUMPDEST PUSH0 DUP3 DUP3 MSTORE PUSH1 0x20 DUP3 ADD SWAP1 POP SWAP3 SWAP2 POP POP JUMP JUMPDEST PUSH32 0x5468652074696D6520746F206C6F636B2074686520746F6B656E206D75737420 PUSH0 DUP3 ADD MSTORE PUSH32 0x62652067726561746572207468616E207A65726F2E0000000000000000000000 PUSH1 0x20 DUP3 ADD MSTORE POP JUMP JUMPDEST PUSH0 PUSH2 0x2AE PUSH1 0x35 DUP4 PUSH2 0x244 JUMP JUMPDEST SWAP2 POP PUSH2 0x2B9 DUP3 PUSH2 0x254 JUMP JUMPDEST PUSH1 0x40 DUP3 ADD SWAP1 POP SWAP2 SWAP1 POP JUMP JUMPDEST PUSH0 PUSH1 0x20 DUP3 ADD SWAP1 POP DUP2 DUP2 SUB PUSH0 DUP4 ADD MSTORE PUSH2 0x2DB DUP2 PUSH2 0x2A2 JUMP JUMPDEST SWAP1 POP SWAP2 SWAP1 POP JUMP JUMPDEST PUSH2 0x2EB DUP2 PUSH2 0x1C1 JUMP JUMPDEST DUP3 MSTORE POP POP JUMP JUMPDEST PUSH0 PUSH1 0x40 DUP3 ADD SWAP1 POP PUSH2 0x304 PUSH0 DUP4 ADD DUP6 PUSH2 0x2E2 JUMP JUMPDEST PUSH2 0x311 PUSH1 0x20 DUP4 ADD DUP5 PUSH2 0x2E2 JUMP JUMPDEST SWAP4 SWAP3 POP POP POP JUMP JUMPDEST PUSH1 0x80 MLOAD PUSH1 0xA0 MLOAD PUSH1 0xC0 MLOAD PUSH1 0xE0 MLOAD PUSH2 0x687 PUSH2 0x373 PUSH0 CODECOPY PUSH0 DUP2 DUP2 PUSH1 0xDD ADD MSTORE PUSH2 0x37F ADD MSTORE PUSH0 DUP2 DUP2 PUSH1 0xFE ADD MSTORE PUSH2 0x3C7 ADD MSTORE PUSH0 DUP2 DUP2 PUSH2 0x134 ADD MSTORE DUP2 DUP2 PUSH2 0x2B0 ADD MSTORE PUSH2 0x35B ADD MSTORE PUSH0 DUP2 DUP2 PUSH2 0x230 ADD MSTORE DUP2 DUP2 PUSH2 0x2E7 ADD MSTORE PUSH2 0x3A3 ADD MSTORE PUSH2 0x687 PUSH0 RETURN INVALID PUSH1 0x80 PUSH1 0x40 MSTORE CALLVALUE DUP1 ISZERO PUSH2 0xF JUMPI PUSH0 DUP1 REVERT JUMPDEST POP PUSH1 0x4 CALLDATASIZE LT PUSH2 0x55 JUMPI PUSH0 CALLDATALOAD PUSH1 0xE0 SHR DUP1 PUSH4 0x96132521 EQ PUSH2 0x59 JUMPI DUP1 PUSH4 0x9D76EA58 EQ PUSH2 0x63 JUMPI DUP1 PUSH4 0xB544BF83 EQ PUSH2 0x81 JUMPI DUP1 PUSH4 0xCBFDA1C5 EQ PUSH2 0x9F JUMPI DUP1 PUSH4 0xE6FD48BC EQ PUSH2 0xBD JUMPI JUMPDEST PUSH0 DUP1 REVERT JUMPDEST PUSH2 0x61 PUSH2 0xDB JUMP JUMPDEST STOP JUMPDEST PUSH2 0x6B PUSH2 0x359 JUMP JUMPDEST PUSH1 0x40 MLOAD PUSH2 0x78 SWAP2 SWAP1 PUSH2 0x428 JUMP JUMPDEST PUSH1 0x40 MLOAD DUP1 SWAP2 SUB SWAP1 RETURN JUMPDEST PUSH2 0x89 PUSH2 0x37D JUMP JUMPDEST PUSH1 0x40 MLOAD PUSH2 0x96 SWAP2 SWAP1 PUSH2 0x459 JUMP JUMPDEST PUSH1 0x40 MLOAD DUP1 SWAP2 SUB SWAP1 RETURN JUMPDEST PUSH2 0xA7 PUSH2 0x3A1 JUMP JUMPDEST PUSH1 0x40 MLOAD PUSH2 0xB4 SWAP2 SWAP1 PUSH2 0x428 JUMP JUMPDEST PUSH1 0x40 MLOAD DUP1 SWAP2 SUB SWAP1 RETURN JUMPDEST PUSH2 0xC5 PUSH2 0x3C5 JUMP JUMPDEST PUSH1 0x40 MLOAD PUSH2 0xD2 SWAP2 SWAP1 PUSH2 0x459 JUMP JUMPDEST PUSH1 0x40 MLOAD DUP1 SWAP2 SUB SWAP1 RETURN JUMPDEST PUSH32 0x0 PUSH32 0x0 PUSH2 0x127 SWAP2 SWAP1 PUSH2 0x49F JUMP JUMPDEST TIMESTAMP GT PUSH2 0x131 JUMPI PUSH0 DUP1 REVERT JUMPDEST PUSH0 PUSH32 0x0 SWAP1 POP PUSH0 DUP2 PUSH20 0xFFFFFFFFFFFFFFFFFFFFFFFFFFFFFFFFFFFFFFFF AND PUSH4 0x70A08231 ADDRESS PUSH1 0x40 MLOAD DUP3 PUSH4 0xFFFFFFFF AND PUSH1 0xE0 SHL DUP2 MSTORE PUSH1 0x4 ADD PUSH2 0x18F SWAP2 SWAP1 PUSH2 0x428 JUMP JUMPDEST PUSH1 0x20 PUSH1 0x40 MLOAD DUP1 DUP4 SUB DUP2 DUP7 GAS STATICCALL ISZERO DUP1 ISZERO PUSH2 0x1AA JUMPI RETURNDATASIZE PUSH0 DUP1 RETURNDATACOPY RETURNDATASIZE PUSH0 REVERT JUMPDEST POP POP POP POP PUSH1 0x40 MLOAD RETURNDATASIZE PUSH1 0x1F NOT PUSH1 0x1F DUP3 ADD AND DUP3 ADD DUP1 PUSH1 0x40 MSTORE POP DUP2 ADD SWAP1 PUSH2 0x1CE SWAP2 SWAP1 PUSH2 0x500 JUMP JUMPDEST SWAP1 POP PUSH0 DUP2 GT PUSH2 0x212 JUMPI PUSH1 0x40 MLOAD PUSH32 0x8C379A000000000000000000000000000000000000000000000000000000000 DUP2 MSTORE PUSH1 0x4 ADD PUSH2 0x209 SWAP1 PUSH2 0x585 JUMP JUMPDEST PUSH1 0x40 MLOAD DUP1 SWAP2 SUB SWAP1 REVERT JUMPDEST DUP2 PUSH20 0xFFFFFFFFFFFFFFFFFFFFFFFFFFFFFFFFFFFFFFFF AND PUSH4 0xA9059CBB PUSH32 0x0 DUP4 PUSH1 0x40 MLOAD DUP4 PUSH4 0xFFFFFFFF AND PUSH1 0xE0 SHL DUP2 MSTORE PUSH1 0x4 ADD PUSH2 0x26D SWAP3 SWAP2 SWAP1 PUSH2 0x5A3 JUMP JUMPDEST PUSH1 0x20 PUSH1 0x40 MLOAD DUP1 DUP4 SUB DUP2 PUSH0 DUP8 GAS CALL ISZERO DUP1 ISZERO PUSH2 0x289 JUMPI RETURNDATASIZE PUSH0 DUP1 RETURNDATACOPY RETURNDATASIZE PUSH0 REVERT JUMPDEST POP POP POP POP PUSH1 0x40 MLOAD RETURNDATASIZE PUSH1 0x1F NOT PUSH1 0x1F DUP3 ADD AND DUP3 ADD DUP1 PUSH1 0x40 MSTORE POP DUP2 ADD SWAP1 PUSH2 0x2AD SWAP2 SWAP1 PUSH2 0x5FF JUMP JUMPDEST POP PUSH32 0x0 PUSH20 0xFFFFFFFFFFFFFFFFFFFFFFFFFFFFFFFFFFFFFFFF AND PUSH32 0x0 PUSH20 0xFFFFFFFFFFFFFFFFFFFFFFFFFFFFFFFFFFFFFFFF AND PUSH32 0x29E9BC035F01BFA0DA19263257DBBAEB34BF6C9C780D975B99CB802AECFCF1A2 TIMESTAMP DUP5 PUSH1 0x40 MLOAD PUSH2 0x34D SWAP3 SWAP2 SWAP1 PUSH2 0x62A JUMP JUMPDEST PUSH1 0x40 MLOAD DUP1 SWAP2 SUB SWAP1 LOG3 POP POP JUMP JUMPDEST PUSH32 0x0 DUP2 JUMP JUMPDEST PUSH32 0x0 DUP2 JUMP JUMPDEST PUSH32 0x0 DUP2 JUMP JUMPDEST PUSH32 0x0 DUP2 JUMP JUMPDEST PUSH0 PUSH20 0xFFFFFFFFFFFFFFFFFFFFFFFFFFFFFFFFFFFFFFFF DUP3 AND SWAP1 POP SWAP2 SWAP1 POP JUMP JUMPDEST PUSH0 PUSH2 0x412 DUP3 PUSH2 0x3E9 JUMP JUMPDEST SWAP1 POP SWAP2 SWAP1 POP JUMP JUMPDEST PUSH2 0x422 DUP2 PUSH2 0x408 JUMP JUMPDEST DUP3 MSTORE POP POP JUMP JUMPDEST PUSH0 PUSH1 0x20 DUP3 ADD SWAP1 POP PUSH2 0x43B PUSH0 DUP4 ADD DUP5 PUSH2 0x419 JUMP JUMPDEST SWAP3 SWAP2 POP POP JUMP JUMPDEST PUSH0 DUP2 SWAP1 POP SWAP2 SWAP1 POP JUMP JUMPDEST PUSH2 0x453 DUP2 PUSH2 0x441 JUMP JUMPDEST DUP3 MSTORE POP POP JUMP JUMPDEST PUSH0 PUSH1 0x20 DUP3 ADD SWAP1 POP PUSH2 0x46C PUSH0 DUP4 ADD DUP5 PUSH2 0x44A JUMP JUMPDEST SWAP3 SWAP2 POP POP JUMP JUMPDEST PUSH32 0x4E487B7100000000000000000000000000000000000000000000000000000000 PUSH0 MSTORE PUSH1 0x11 PUSH1 0x4 MSTORE PUSH1 0x24 PUSH0 REVERT JUMPDEST PUSH0 PUSH2 0x4A9 DUP3 PUSH2 0x441 JUMP JUMPDEST SWAP2 POP PUSH2 0x4B4 DUP4 PUSH2 0x441 JUMP JUMPDEST SWAP3 POP DUP3 DUP3 ADD SWAP1 POP DUP1 DUP3 GT ISZERO PUSH2 0x4CC JUMPI PUSH2 0x4CB PUSH2 0x472 JUMP JUMPDEST JUMPDEST SWAP3 SWAP2 POP POP JUMP JUMPDEST PUSH0 DUP1 REVERT JUMPDEST PUSH2 0x4DF DUP2 PUSH2 0x441 JUMP JUMPDEST DUP2 EQ PUSH2 0x4E9 JUMPI PUSH0 DUP1 REVERT JUMPDEST POP JUMP JUMPDEST PUSH0 DUP2 MLOAD SWAP1 POP PUSH2 0x4FA DUP2 PUSH2 0x4D6 JUMP JUMPDEST SWAP3 SWAP2 POP POP JUMP JUMPDEST PUSH0 PUSH1 0x20 DUP3 DUP5 SUB SLT ISZERO PUSH2 0x515 JUMPI PUSH2 0x514 PUSH2 0x4D2 JUMP JUMPDEST JUMPDEST PUSH0 PUSH2 0x522 DUP5 DUP3 DUP6 ADD PUSH2 0x4EC JUMP JUMPDEST SWAP2 POP POP SWAP3 SWAP2 POP POP JUMP JUMPDEST PUSH0 DUP3 DUP3 MSTORE PUSH1 0x20 DUP3 ADD SWAP1 POP SWAP3 SWAP2 POP POP JUMP JUMPDEST PUSH32 0x696E73756666696369656E742062616C616E6365000000000000000000000000 PUSH0 DUP3 ADD MSTORE POP JUMP JUMPDEST PUSH0 PUSH2 0x56F PUSH1 0x14 DUP4 PUSH2 0x52B JUMP JUMPDEST SWAP2 POP PUSH2 0x57A DUP3 PUSH2 0x53B JUMP JUMPDEST PUSH1 0x20 DUP3 ADD SWAP1 POP SWAP2 SWAP1 POP JUMP JUMPDEST PUSH0 PUSH1 0x20 DUP3 ADD SWAP1 POP DUP2 DUP2 SUB PUSH0 DUP4 ADD MSTORE PUSH2 0x59C DUP2 PUSH2 0x563 JUMP JUMPDEST SWAP1 POP SWAP2 SWAP1 POP JUMP JUMPDEST PUSH0 PUSH1 0x40 DUP3 ADD SWAP1 POP PUSH2 0x5B6 PUSH0 DUP4 ADD DUP6 PUSH2 0x419 JUMP JUMPDEST PUSH2 0x5C3 PUSH1 0x20 DUP4 ADD DUP5 PUSH2 0x44A JUMP JUMPDEST SWAP4 SWAP3 POP POP POP JUMP JUMPDEST PUSH0 DUP2 ISZERO ISZERO SWAP1 POP SWAP2 SWAP1 POP JUMP JUMPDEST PUSH2 0x5DE DUP2 PUSH2 0x5CA JUMP JUMPDEST DUP2 EQ PUSH2 0x5E8 JUMPI PUSH0 DUP1 REVERT JUMPDEST POP JUMP JUMPDEST PUSH0 DUP2 MLOAD SWAP1 POP PUSH2 0x5F9 DUP2 PUSH2 0x5D5 JUMP JUMPDEST SWAP3 SWAP2 POP POP JUMP JUMPDEST PUSH0 PUSH1 0x20 DUP3 DUP5 SUB SLT ISZERO PUSH2 0x614 JUMPI PUSH2 0x613 PUSH2 0x4D2 JUMP JUMPDEST JUMPDEST PUSH0 PUSH2 0x621 DUP5 DUP3 DUP6 ADD PUSH2 0x5EB JUMP JUMPDEST SWAP2 POP POP SWAP3 SWAP2 POP POP JUMP JUMPDEST PUSH0 PUSH1 0x40 DUP3 ADD SWAP1 POP PUSH2 0x63D PUSH0 DUP4 ADD DUP6 PUSH2 0x44A JUMP JUMPDEST PUSH2 0x64A PUSH1 0x20 DUP4 ADD DUP5 PUSH2 0x44A JUMP JUMPDEST SWAP4 SWAP3 POP POP POP JUMP INVALID LOG2 PUSH5 0x6970667358 0x22 SLT KECCAK256 MSTORE8 CALLCODE POP SWAP14 0x28 0xB4 0x28 PUSH4 0x9FAEF853 0xDE 0xE MSTORE8 0xB5 0x22 DUP6 DUP8 0x4F 0xC2 0x4E 0xE2 PUSH24 0x9B27637B9E6ED09564736F6C634300081A00330000000000 "
		},
		"gasEstimates": {
			"creation": {
				"codeDepositCost": "334200",
				"executionCost": "infinite",
				"totalCost": "infinite"
			},
			"external": {
				"beneficary()": "infinite",
				"lockTimestamp()": "infinite",
				"released()": "infinite",
				"startTimestamp()": "infinite",
				"tokenAddress()": "infinite"
			}
		},
		"methodIdentifiers": {
			"beneficary()": "cbfda1c5",
			"lockTimestamp()": "b544bf83",
			"released()": "96132521",
			"startTimestamp()": "e6fd48bc",
			"tokenAddress()": "9d76ea58"
		}
	},
	"abi": [
		{
			"inputs": [
				{
					"internalType": "address",
					"name": "beneficary_",
					"type": "address"
				},
				{
					"internalType": "address",
					"name": "tokenAddress_",
					"type": "address"
				},
				{
					"internalType": "uint256",
					"name": "lockTimestamp_",
					"type": "uint256"
				}
			],
			"stateMutability": "nonpayable",
			"type": "constructor"
		},
		{
			"anonymous": false,
			"inputs": [
				{
					"indexed": true,
					"internalType": "address",
					"name": "beneficary",
					"type": "address"
				},
				{
					"indexed": true,
					"internalType": "address",
					"name": "tokenAddress",
					"type": "address"
				},
				{
					"indexed": false,
					"internalType": "uint256",
					"name": "releasedTimestamp",
					"type": "uint256"
				},
				{
					"indexed": false,
					"internalType": "uint256",
					"name": "releasedAmount",
					"type": "uint256"
				}
			],
			"name": "Released",
			"type": "event"
		},
		{
			"anonymous": false,
			"inputs": [
				{
					"indexed": true,
					"internalType": "address",
					"name": "beneficary",
					"type": "address"
				},
				{
					"indexed": true,
					"internalType": "address",
					"name": "tokenAddress",
					"type": "address"
				},
				{
					"indexed": false,
					"internalType": "uint256",
					"name": "startTimestamp",
					"type": "uint256"
				},
				{
					"indexed": false,
					"internalType": "uint256",
					"name": "lockTimestamp",
					"type": "uint256"
				}
			],
			"name": "TokenLockStart",
			"type": "event"
		},
		{
			"inputs": [],
			"name": "beneficary",
			"outputs": [
				{
					"internalType": "address",
					"name": "",
					"type": "address"
				}
			],
			"stateMutability": "view",
			"type": "function"
		},
		{
			"inputs": [],
			"name": "lockTimestamp",
			"outputs": [
				{
					"internalType": "uint256",
					"name": "",
					"type": "uint256"
				}
			],
			"stateMutability": "view",
			"type": "function"
		},
		{
			"inputs": [],
			"name": "released",
			"outputs": [],
			"stateMutability": "nonpayable",
			"type": "function"
		},
		{
			"inputs": [],
			"name": "startTimestamp",
			"outputs": [
				{
					"internalType": "uint256",
					"name": "",
					"type": "uint256"
				}
			],
			"stateMutability": "view",
			"type": "function"
		},
		{
			"inputs": [],
			"name": "tokenAddress",
			"outputs": [
				{
					"internalType": "address",
					"name": "",
					"type": "address"
				}
			],
			"stateMutability": "view",
			"type": "function"
		}
	]
}