{
	"contracts/cyfrin updraft/section3/FundMe.sol": {
		"FundMe": {
			"abi": [
				{
					"inputs": [
						{
							"internalType": "address",
							"name": "funder",
							"type": "address"
						}
					],
					"name": "addressToAmountFunded",
					"outputs": [
						{
							"internalType": "uint256",
							"name": "amountFunded",
							"type": "uint256"
						}
					],
					"stateMutability": "view",
					"type": "function"
				},
				{
					"inputs": [],
					"name": "fund",
					"outputs": [],
					"stateMutability": "payable",
					"type": "function"
				},
				{
					"inputs": [
						{
							"internalType": "uint256",
							"name": "",
							"type": "uint256"
						}
					],
					"name": "funders",
					"outputs": [
						{
							"internalType": "address",
							"name": "",
							"type": "address"
						}
					],
					"stateMutability": "view",
					"type": "function"
				},
				{
					"inputs": [],
					"name": "minimumUsd",
					"outputs": [
						{
							"internalType": "uint256",
							"name": "",
							"type": "uint256"
						}
					],
					"stateMutability": "view",
					"type": "function"
				},
				{
					"inputs": [],
					"name": "pr",
					"outputs": [
						{
							"internalType": "uint256",
							"name": "",
							"type": "uint256"
						}
					],
					"stateMutability": "view",
					"type": "function"
				},
				{
					"inputs": [],
					"name": "withdrawal",
					"outputs": [],
					"stateMutability": "nonpayable",
					"type": "function"
				}
			],
			"devdoc": {
				"kind": "dev",
				"methods": {},
				"version": 1
			},
			"evm": {
				"assembly": "    /* \"contracts/cyfrin updraft/section3/FundMe.sol\":218:3242  contract FundMe {... */\n  mstore(0x40, 0x80)\n    /* \"contracts/cyfrin updraft/section3/FundMe.sol\":371:375  5e18 */\n  0x4563918244f40000\n    /* \"contracts/cyfrin updraft/section3/FundMe.sol\":343:375  uint256 public minimumUsd = 5e18 */\n  0x00\n  sstore\n    /* \"contracts/cyfrin updraft/section3/FundMe.sol\":443:444  0 */\n  0x00\n    /* \"contracts/cyfrin updraft/section3/FundMe.sol\":423:444  uint256 public pr = 0 */\n  0x01\n  sstore\n    /* \"contracts/cyfrin updraft/section3/FundMe.sol\":218:3242  contract FundMe {... */\n  callvalue\n  dup1\n  iszero\n  tag_1\n  jumpi\n  0x00\n  dup1\n  revert\ntag_1:\n  pop\n  dataSize(sub_0)\n  dup1\n  dataOffset(sub_0)\n  0x00\n  codecopy\n  0x00\n  return\nstop\n\nsub_0: assembly {\n        /* \"contracts/cyfrin updraft/section3/FundMe.sol\":218:3242  contract FundMe {... */\n      mstore(0x40, 0x80)\n      jumpi(tag_1, lt(calldatasize, 0x04))\n      shr(0xe0, calldataload(0x00))\n      dup1\n      0x098de820\n      eq\n      tag_2\n      jumpi\n      dup1\n      0x1509c42a\n      eq\n      tag_3\n      jumpi\n      dup1\n      0x3e47d6f3\n      eq\n      tag_4\n      jumpi\n      dup1\n      0xb60d4288\n      eq\n      tag_5\n      jumpi\n      dup1\n      0xd4e93292\n      eq\n      tag_6\n      jumpi\n      dup1\n      0xdc0d3dff\n      eq\n      tag_7\n      jumpi\n    tag_1:\n      0x00\n      dup1\n      revert\n        /* \"contracts/cyfrin updraft/section3/FundMe.sol\":343:375  uint256 public minimumUsd = 5e18 */\n    tag_2:\n      callvalue\n      dup1\n      iszero\n      tag_8\n      jumpi\n      0x00\n      dup1\n      revert\n    tag_8:\n      pop\n      tag_9\n      tag_10\n      jump\t// in\n    tag_9:\n      mload(0x40)\n      tag_11\n      swap2\n      swap1\n      tag_12\n      jump\t// in\n    tag_11:\n      mload(0x40)\n      dup1\n      swap2\n      sub\n      swap1\n      return\n        /* \"contracts/cyfrin updraft/section3/FundMe.sol\":423:444  uint256 public pr = 0 */\n    tag_3:\n      callvalue\n      dup1\n      iszero\n      tag_13\n      jumpi\n      0x00\n      dup1\n      revert\n    tag_13:\n      pop\n      tag_14\n      tag_15\n      jump\t// in\n    tag_14:\n      mload(0x40)\n      tag_16\n      swap2\n      swap1\n      tag_12\n      jump\t// in\n    tag_16:\n      mload(0x40)\n      dup1\n      swap2\n      sub\n      swap1\n      return\n        /* \"contracts/cyfrin updraft/section3/FundMe.sol\":655:732  mapping (address funder => uint256 amountFunded) public addressToAmountFunded */\n    tag_4:\n      callvalue\n      dup1\n      iszero\n      tag_17\n      jumpi\n      0x00\n      dup1\n      revert\n    tag_17:\n      pop\n      tag_18\n      0x04\n      dup1\n      calldatasize\n      sub\n      dup2\n      add\n      swap1\n      tag_19\n      swap2\n      swap1\n      tag_20\n      jump\t// in\n    tag_19:\n      tag_21\n      jump\t// in\n    tag_18:\n      mload(0x40)\n      tag_22\n      swap2\n      swap1\n      tag_12\n      jump\t// in\n    tag_22:\n      mload(0x40)\n      dup1\n      swap2\n      sub\n      swap1\n      return\n        /* \"contracts/cyfrin updraft/section3/FundMe.sol\":741:1766  function fund() public payable {... */\n    tag_5:\n      tag_23\n      tag_24\n      jump\t// in\n    tag_23:\n      stop\n        /* \"contracts/cyfrin updraft/section3/FundMe.sol\":1774:3239  function withdrawal() public {... */\n    tag_6:\n      callvalue\n      dup1\n      iszero\n      tag_25\n      jumpi\n      0x00\n      dup1\n      revert\n    tag_25:\n      pop\n      tag_26\n      tag_27\n      jump\t// in\n    tag_26:\n      stop\n        /* \"contracts/cyfrin updraft/section3/FundMe.sol\":480:504  address[] public funders */\n    tag_7:\n      callvalue\n      dup1\n      iszero\n      tag_28\n      jumpi\n      0x00\n      dup1\n      revert\n    tag_28:\n      pop\n      tag_29\n      0x04\n      dup1\n      calldatasize\n      sub\n      dup2\n      add\n      swap1\n      tag_30\n      swap2\n      swap1\n      tag_31\n      jump\t// in\n    tag_30:\n      tag_32\n      jump\t// in\n    tag_29:\n      mload(0x40)\n      tag_33\n      swap2\n      swap1\n      tag_34\n      jump\t// in\n    tag_33:\n      mload(0x40)\n      dup1\n      swap2\n      sub\n      swap1\n      return\n        /* \"contracts/cyfrin updraft/section3/FundMe.sol\":343:375  uint256 public minimumUsd = 5e18 */\n    tag_10:\n      sload(0x00)\n      dup2\n      jump\t// out\n        /* \"contracts/cyfrin updraft/section3/FundMe.sol\":423:444  uint256 public pr = 0 */\n    tag_15:\n      sload(0x01)\n      dup2\n      jump\t// out\n        /* \"contracts/cyfrin updraft/section3/FundMe.sol\":655:732  mapping (address funder => uint256 amountFunded) public addressToAmountFunded */\n    tag_21:\n      mstore(0x20, 0x03)\n      dup1\n      0x00\n      mstore\n      keccak256(0x00, 0x40)\n      0x00\n      swap2\n      pop\n      swap1\n      pop\n      sload\n      dup2\n      jump\t// out\n        /* \"contracts/cyfrin updraft/section3/FundMe.sol\":741:1766  function fund() public payable {... */\n    tag_24:\n        /* \"contracts/cyfrin updraft/section3/FundMe.sol\":788:817  msg.value.getConversionRate() */\n      tag_36\n        /* \"contracts/cyfrin updraft/section3/FundMe.sol\":788:797  msg.value */\n      callvalue\n        /* \"contracts/cyfrin updraft/section3/FundMe.sol\":788:815  msg.value.getConversionRate */\n      tag_37\n        /* \"contracts/cyfrin updraft/section3/FundMe.sol\":788:817  msg.value.getConversionRate() */\n      jump\t// in\n    tag_36:\n        /* \"contracts/cyfrin updraft/section3/FundMe.sol\":783:785  pr */\n      0x01\n        /* \"contracts/cyfrin updraft/section3/FundMe.sol\":783:817  pr = msg.value.getConversionRate() */\n      dup2\n      swap1\n      sstore\n      pop\n        /* \"contracts/cyfrin updraft/section3/FundMe.sol\":1249:1259  minimumUsd */\n      sload(0x00)\n        /* \"contracts/cyfrin updraft/section3/FundMe.sol\":1216:1245  msg.value.getConversionRate() */\n      tag_38\n        /* \"contracts/cyfrin updraft/section3/FundMe.sol\":1216:1225  msg.value */\n      callvalue\n        /* \"contracts/cyfrin updraft/section3/FundMe.sol\":1216:1243  msg.value.getConversionRate */\n      tag_37\n        /* \"contracts/cyfrin updraft/section3/FundMe.sol\":1216:1245  msg.value.getConversionRate() */\n      jump\t// in\n    tag_38:\n        /* \"contracts/cyfrin updraft/section3/FundMe.sol\":1216:1259  msg.value.getConversionRate() >= minimumUsd */\n      lt\n      iszero\n        /* \"contracts/cyfrin updraft/section3/FundMe.sol\":1208:1286  require(msg.value.getConversionRate() >= minimumUsd, \"didn't send enough eth\") */\n      tag_39\n      jumpi\n      mload(0x40)\n      0x08c379a000000000000000000000000000000000000000000000000000000000\n      dup2\n      mstore\n      0x04\n      add\n      tag_40\n      swap1\n      tag_41\n      jump\t// in\n    tag_40:\n      mload(0x40)\n      dup1\n      swap2\n      sub\n      swap1\n      revert\n    tag_39:\n        /* \"contracts/cyfrin updraft/section3/FundMe.sol\":1429:1436  funders */\n      0x02\n        /* \"contracts/cyfrin updraft/section3/FundMe.sol\":1442:1452  msg.sender */\n      caller\n        /* \"contracts/cyfrin updraft/section3/FundMe.sol\":1429:1453  funders.push(msg.sender) */\n      swap1\n      dup1\n      0x01\n      dup2\n      sload\n      add\n      dup1\n      dup3\n      sstore\n      dup1\n      swap2\n      pop\n      pop\n      0x01\n      swap1\n      sub\n      swap1\n      0x00\n      mstore\n      keccak256(0x00, 0x20)\n      add\n      0x00\n      swap1\n      swap2\n      swap1\n      swap2\n      swap1\n      swap2\n      0x0100\n      exp\n      dup2\n      sload\n      dup2\n      0xffffffffffffffffffffffffffffffffffffffff\n      mul\n      not\n      and\n      swap1\n      dup4\n      0xffffffffffffffffffffffffffffffffffffffff\n      and\n      mul\n      or\n      swap1\n      sstore\n      pop\n        /* \"contracts/cyfrin updraft/section3/FundMe.sol\":1549:1558  msg.value */\n      callvalue\n        /* \"contracts/cyfrin updraft/section3/FundMe.sol\":1512:1533  addressToAmountFunded */\n      0x03\n        /* \"contracts/cyfrin updraft/section3/FundMe.sol\":1512:1545  addressToAmountFunded[msg.sender] */\n      0x00\n        /* \"contracts/cyfrin updraft/section3/FundMe.sol\":1534:1544  msg.sender */\n      caller\n        /* \"contracts/cyfrin updraft/section3/FundMe.sol\":1512:1545  addressToAmountFunded[msg.sender] */\n      0xffffffffffffffffffffffffffffffffffffffff\n      and\n      0xffffffffffffffffffffffffffffffffffffffff\n      and\n      dup2\n      mstore\n      0x20\n      add\n      swap1\n      dup2\n      mstore\n      0x20\n      add\n      0x00\n      keccak256\n      0x00\n        /* \"contracts/cyfrin updraft/section3/FundMe.sol\":1512:1558  addressToAmountFunded[msg.sender] += msg.value */\n      dup3\n      dup3\n      sload\n      tag_43\n      swap2\n      swap1\n      tag_44\n      jump\t// in\n    tag_43:\n      swap3\n      pop\n      pop\n      dup2\n      swap1\n      sstore\n      pop\n        /* \"contracts/cyfrin updraft/section3/FundMe.sol\":741:1766  function fund() public payable {... */\n      jump\t// out\n        /* \"contracts/cyfrin updraft/section3/FundMe.sol\":1774:3239  function withdrawal() public {... */\n    tag_27:\n        /* \"contracts/cyfrin updraft/section3/FundMe.sol\":1842:1861  uint256 funderIndex */\n      0x00\n        /* \"contracts/cyfrin updraft/section3/FundMe.sol\":1837:2024  for (uint256 funderIndex = 0; funderIndex < funders.length; funderIndex++) {... */\n    tag_46:\n        /* \"contracts/cyfrin updraft/section3/FundMe.sol\":1881:1888  funders */\n      0x02\n        /* \"contracts/cyfrin updraft/section3/FundMe.sol\":1881:1895  funders.length */\n      dup1\n      sload\n      swap1\n      pop\n        /* \"contracts/cyfrin updraft/section3/FundMe.sol\":1867:1878  funderIndex */\n      dup2\n        /* \"contracts/cyfrin updraft/section3/FundMe.sol\":1867:1895  funderIndex < funders.length */\n      lt\n        /* \"contracts/cyfrin updraft/section3/FundMe.sol\":1837:2024  for (uint256 funderIndex = 0; funderIndex < funders.length; funderIndex++) {... */\n      iszero\n      tag_47\n      jumpi\n        /* \"contracts/cyfrin updraft/section3/FundMe.sol\":1927:1941  address funder */\n      0x00\n        /* \"contracts/cyfrin updraft/section3/FundMe.sol\":1944:1951  funders */\n      0x02\n        /* \"contracts/cyfrin updraft/section3/FundMe.sol\":1952:1963  funderIndex */\n      dup3\n        /* \"contracts/cyfrin updraft/section3/FundMe.sol\":1944:1964  funders[funderIndex] */\n      dup2\n      sload\n      dup2\n      lt\n      tag_49\n      jumpi\n      tag_50\n      tag_51\n      jump\t// in\n    tag_50:\n    tag_49:\n      swap1\n      0x00\n      mstore\n      keccak256(0x00, 0x20)\n      add\n      0x00\n      swap1\n      sload\n      swap1\n      0x0100\n      exp\n      swap1\n      div\n      0xffffffffffffffffffffffffffffffffffffffff\n      and\n        /* \"contracts/cyfrin updraft/section3/FundMe.sol\":1927:1964  address funder = funders[funderIndex] */\n      swap1\n      pop\n        /* \"contracts/cyfrin updraft/section3/FundMe.sol\":2011:2012  0 */\n      0x00\n        /* \"contracts/cyfrin updraft/section3/FundMe.sol\":1979:2000  addressToAmountFunded */\n      0x03\n        /* \"contracts/cyfrin updraft/section3/FundMe.sol\":1979:2008  addressToAmountFunded[funder] */\n      0x00\n        /* \"contracts/cyfrin updraft/section3/FundMe.sol\":2001:2007  funder */\n      dup4\n        /* \"contracts/cyfrin updraft/section3/FundMe.sol\":1979:2008  addressToAmountFunded[funder] */\n      0xffffffffffffffffffffffffffffffffffffffff\n      and\n      0xffffffffffffffffffffffffffffffffffffffff\n      and\n      dup2\n      mstore\n      0x20\n      add\n      swap1\n      dup2\n      mstore\n      0x20\n      add\n      0x00\n      keccak256\n        /* \"contracts/cyfrin updraft/section3/FundMe.sol\":1979:2012  addressToAmountFunded[funder] = 0 */\n      dup2\n      swap1\n      sstore\n      pop\n        /* \"contracts/cyfrin updraft/section3/FundMe.sol\":1912:2024  {... */\n      pop\n        /* \"contracts/cyfrin updraft/section3/FundMe.sol\":1897:1910  funderIndex++ */\n      dup1\n      dup1\n      tag_53\n      swap1\n      tag_54\n      jump\t// in\n    tag_53:\n      swap2\n      pop\n      pop\n        /* \"contracts/cyfrin updraft/section3/FundMe.sol\":1837:2024  for (uint256 funderIndex = 0; funderIndex < funders.length; funderIndex++) {... */\n      jump(tag_46)\n    tag_47:\n      pop\n        /* \"contracts/cyfrin updraft/section3/FundMe.sol\":2134:2135  0 */\n      0x00\n        /* \"contracts/cyfrin updraft/section3/FundMe.sol\":2120:2136  new address[](0) */\n      0xffffffffffffffff\n      dup2\n      gt\n      iszero\n      tag_55\n      jumpi\n      tag_56\n      tag_57\n      jump\t// in\n    tag_56:\n    tag_55:\n      mload(0x40)\n      swap1\n      dup1\n      dup3\n      mstore\n      dup1\n      0x20\n      mul\n      0x20\n      add\n      dup3\n      add\n      0x40\n      mstore\n      dup1\n      iszero\n      tag_58\n      jumpi\n      dup2\n      0x20\n      add\n      0x20\n      dup3\n      mul\n      dup1\n      calldatasize\n      dup4\n      calldatacopy\n      dup1\n      dup3\n      add\n      swap2\n      pop\n      pop\n      swap1\n      pop\n    tag_58:\n      pop\n        /* \"contracts/cyfrin updraft/section3/FundMe.sol\":2110:2117  funders */\n      0x02\n        /* \"contracts/cyfrin updraft/section3/FundMe.sol\":2110:2136  funders = new address[](0) */\n      swap1\n      dup1\n      mload\n      swap1\n      0x20\n      add\n      swap1\n      tag_59\n      swap3\n      swap2\n      swap1\n      tag_60\n      jump\t// in\n    tag_59:\n      pop\n        /* \"contracts/cyfrin updraft/section3/FundMe.sol\":2388:2398  msg.sender */\n      caller\n        /* \"contracts/cyfrin updraft/section3/FundMe.sol\":2380:2408  payable(msg.sender).transfer */\n      0xffffffffffffffffffffffffffffffffffffffff\n      and\n        /* \"contracts/cyfrin updraft/section3/FundMe.sol\":2380:2431  payable(msg.sender).transfer(address(this).balance) */\n      0x08fc\n        /* \"contracts/cyfrin updraft/section3/FundMe.sol\":2409:2430  address(this).balance */\n      selfbalance\n        /* \"contracts/cyfrin updraft/section3/FundMe.sol\":2380:2431  payable(msg.sender).transfer(address(this).balance) */\n      swap1\n      dup2\n      iszero\n      mul\n      swap1\n      mload(0x40)\n      0x00\n      mload(0x40)\n      dup1\n      dup4\n      sub\n      dup2\n      dup6\n      dup9\n      dup9\n      call\n      swap4\n      pop\n      pop\n      pop\n      pop\n      iszero\n      dup1\n      iszero\n      tag_62\n      jumpi\n      returndatasize\n      0x00\n      dup1\n      returndatacopy\n      revert(0x00, returndatasize)\n    tag_62:\n      pop\n        /* \"contracts/cyfrin updraft/section3/FundMe.sol\":2514:2530  bool sendSuccess */\n      0x00\n        /* \"contracts/cyfrin updraft/section3/FundMe.sol\":2541:2551  msg.sender */\n      caller\n        /* \"contracts/cyfrin updraft/section3/FundMe.sol\":2533:2557  payable(msg.sender).send */\n      0xffffffffffffffffffffffffffffffffffffffff\n      and\n        /* \"contracts/cyfrin updraft/section3/FundMe.sol\":2533:2580  payable(msg.sender).send(address(this).balance) */\n      0x08fc\n        /* \"contracts/cyfrin updraft/section3/FundMe.sol\":2558:2579  address(this).balance */\n      selfbalance\n        /* \"contracts/cyfrin updraft/section3/FundMe.sol\":2533:2580  payable(msg.sender).send(address(this).balance) */\n      swap1\n      dup2\n      iszero\n      mul\n      swap1\n      mload(0x40)\n      0x00\n      mload(0x40)\n      dup1\n      dup4\n      sub\n      dup2\n      dup6\n      dup9\n      dup9\n      call\n      swap4\n      pop\n      pop\n      pop\n      pop\n        /* \"contracts/cyfrin updraft/section3/FundMe.sol\":2514:2580  bool sendSuccess = payable(msg.sender).send(address(this).balance) */\n      swap1\n      pop\n        /* \"contracts/cyfrin updraft/section3/FundMe.sol\":2662:2673  sendSuccess */\n      dup1\n        /* \"contracts/cyfrin updraft/section3/FundMe.sol\":2654:2689  require(sendSuccess, \"Send failed\") */\n      tag_64\n      jumpi\n      mload(0x40)\n      0x08c379a000000000000000000000000000000000000000000000000000000000\n      dup2\n      mstore\n      0x04\n      add\n      tag_65\n      swap1\n      tag_66\n      jump\t// in\n    tag_65:\n      mload(0x40)\n      dup1\n      swap2\n      sub\n      swap1\n      revert\n    tag_64:\n        /* \"contracts/cyfrin updraft/section3/FundMe.sol\":3103:3119  bool callSuccess */\n      0x00\n        /* \"contracts/cyfrin updraft/section3/FundMe.sol\":3133:3143  msg.sender */\n      caller\n        /* \"contracts/cyfrin updraft/section3/FundMe.sol\":3125:3149  payable(msg.sender).call */\n      0xffffffffffffffffffffffffffffffffffffffff\n      and\n        /* \"contracts/cyfrin updraft/section3/FundMe.sol\":3157:3178  address(this).balance */\n      selfbalance\n        /* \"contracts/cyfrin updraft/section3/FundMe.sol\":3125:3183  payable(msg.sender).call{value: address(this).balance}(\"\") */\n      mload(0x40)\n      tag_67\n      swap1\n      tag_68\n      jump\t// in\n    tag_67:\n      0x00\n      mload(0x40)\n      dup1\n      dup4\n      sub\n      dup2\n      dup6\n      dup8\n      gas\n      call\n      swap3\n      pop\n      pop\n      pop\n      returndatasize\n      dup1\n      0x00\n      dup2\n      eq\n      tag_71\n      jumpi\n      mload(0x40)\n      swap2\n      pop\n      and(add(returndatasize, 0x3f), not(0x1f))\n      dup3\n      add\n      0x40\n      mstore\n      returndatasize\n      dup3\n      mstore\n      returndatasize\n      0x00\n      0x20\n      dup5\n      add\n      returndatacopy\n      jump(tag_70)\n    tag_71:\n      0x60\n      swap2\n      pop\n    tag_70:\n      pop\n        /* \"contracts/cyfrin updraft/section3/FundMe.sol\":3102:3183  (bool callSuccess, ) = payable(msg.sender).call{value: address(this).balance}(\"\") */\n      pop\n      swap1\n      pop\n        /* \"contracts/cyfrin updraft/section3/FundMe.sol\":3202:3213  callSuccess */\n      dup1\n        /* \"contracts/cyfrin updraft/section3/FundMe.sol\":3194:3229  require(callSuccess, \"Call failed\") */\n      tag_72\n      jumpi\n      mload(0x40)\n      0x08c379a000000000000000000000000000000000000000000000000000000000\n      dup2\n      mstore\n      0x04\n      add\n      tag_73\n      swap1\n      tag_74\n      jump\t// in\n    tag_73:\n      mload(0x40)\n      dup1\n      swap2\n      sub\n      swap1\n      revert\n    tag_72:\n        /* \"contracts/cyfrin updraft/section3/FundMe.sol\":1803:3239  {... */\n      pop\n      pop\n        /* \"contracts/cyfrin updraft/section3/FundMe.sol\":1774:3239  function withdrawal() public {... */\n      jump\t// out\n        /* \"contracts/cyfrin updraft/section3/FundMe.sol\":480:504  address[] public funders */\n    tag_32:\n      0x02\n      dup2\n      dup2\n      sload\n      dup2\n      lt\n      tag_75\n      jumpi\n      0x00\n      dup1\n      revert\n    tag_75:\n      swap1\n      0x00\n      mstore\n      keccak256(0x00, 0x20)\n      add\n      0x00\n      swap2\n      pop\n      sload\n      swap1\n      0x0100\n      exp\n      swap1\n      div\n      0xffffffffffffffffffffffffffffffffffffffff\n      and\n      dup2\n      jump\t// out\n        /* \"contracts/cyfrin updraft/section3/librarys/PriceConverter.sol\":805:1108  function getConversionRate(uint256 ethAmount) internal view returns(uint256) {... */\n    tag_37:\n        /* \"contracts/cyfrin updraft/section3/librarys/PriceConverter.sol\":873:880  uint256 */\n      0x00\n        /* \"contracts/cyfrin updraft/section3/librarys/PriceConverter.sol\":946:962  uint256 ethPrice */\n      dup1\n        /* \"contracts/cyfrin updraft/section3/librarys/PriceConverter.sol\":965:975  getPrice() */\n      tag_78\n        /* \"contracts/cyfrin updraft/section3/librarys/PriceConverter.sol\":965:973  getPrice */\n      tag_79\n        /* \"contracts/cyfrin updraft/section3/librarys/PriceConverter.sol\":965:975  getPrice() */\n      jump\t// in\n    tag_78:\n        /* \"contracts/cyfrin updraft/section3/librarys/PriceConverter.sol\":946:975  uint256 ethPrice = getPrice() */\n      swap1\n      pop\n        /* \"contracts/cyfrin updraft/section3/librarys/PriceConverter.sol\":1014:1036  uint256 ethAmountInUsd */\n      0x00\n        /* \"contracts/cyfrin updraft/section3/librarys/PriceConverter.sol\":1064:1068  1e10 */\n      0x02540be400\n        /* \"contracts/cyfrin updraft/section3/librarys/PriceConverter.sol\":1051:1060  ethAmount */\n      dup5\n        /* \"contracts/cyfrin updraft/section3/librarys/PriceConverter.sol\":1040:1048  ethPrice */\n      dup4\n        /* \"contracts/cyfrin updraft/section3/librarys/PriceConverter.sol\":1040:1060  ethPrice * ethAmount */\n      tag_80\n      swap2\n      swap1\n      tag_81\n      jump\t// in\n    tag_80:\n        /* \"contracts/cyfrin updraft/section3/librarys/PriceConverter.sol\":1039:1068  (ethPrice * ethAmount) / 1e10 */\n      tag_82\n      swap2\n      swap1\n      tag_83\n      jump\t// in\n    tag_82:\n        /* \"contracts/cyfrin updraft/section3/librarys/PriceConverter.sol\":1014:1068  uint256 ethAmountInUsd = (ethPrice * ethAmount) / 1e10 */\n      swap1\n      pop\n        /* \"contracts/cyfrin updraft/section3/librarys/PriceConverter.sol\":1086:1100  ethAmountInUsd */\n      dup1\n        /* \"contracts/cyfrin updraft/section3/librarys/PriceConverter.sol\":1079:1100  return ethAmountInUsd */\n      swap3\n      pop\n      pop\n      pop\n        /* \"contracts/cyfrin updraft/section3/librarys/PriceConverter.sol\":805:1108  function getConversionRate(uint256 ethAmount) internal view returns(uint256) {... */\n      swap2\n      swap1\n      pop\n      jump\t// out\n        /* \"contracts/cyfrin updraft/section3/librarys/PriceConverter.sol\":240:773  function getPrice() internal view returns(uint256) {... */\n    tag_79:\n        /* \"contracts/cyfrin updraft/section3/librarys/PriceConverter.sol\":282:289  uint256 */\n      0x00\n        /* \"contracts/cyfrin updraft/section3/librarys/PriceConverter.sol\":381:412  AggregatorV3Interface priceFeed */\n      dup1\n        /* \"contracts/cyfrin updraft/section3/librarys/PriceConverter.sol\":437:479  0x694AA1769357215DE4FAC081bf1f309aDC325306 */\n      0x694aa1769357215de4fac081bf1f309adc325306\n        /* \"contracts/cyfrin updraft/section3/librarys/PriceConverter.sol\":381:480  AggregatorV3Interface priceFeed = AggregatorV3Interface(0x694AA1769357215DE4FAC081bf1f309aDC325306) */\n      swap1\n      pop\n        /* \"contracts/cyfrin updraft/section3/librarys/PriceConverter.sol\":569:578  int price */\n      0x00\n        /* \"contracts/cyfrin updraft/section3/librarys/PriceConverter.sol\":699:708  priceFeed */\n      dup2\n        /* \"contracts/cyfrin updraft/section3/librarys/PriceConverter.sol\":699:724  priceFeed.latestRoundData */\n      0xffffffffffffffffffffffffffffffffffffffff\n      and\n      0xfeaf968c\n        /* \"contracts/cyfrin updraft/section3/librarys/PriceConverter.sol\":699:726  priceFeed.latestRoundData() */\n      mload(0x40)\n      dup2\n      0xffffffff\n      and\n      0xe0\n      shl\n      dup2\n      mstore\n      0x04\n      add\n      0xa0\n      mload(0x40)\n      dup1\n      dup4\n      sub\n      dup2\n      dup7\n      gas\n      staticcall\n      iszero\n      dup1\n      iszero\n      tag_86\n      jumpi\n      returndatasize\n      0x00\n      dup1\n      returndatacopy\n      revert(0x00, returndatasize)\n    tag_86:\n      pop\n      pop\n      pop\n      pop\n      mload(0x40)\n      returndatasize\n      not(0x1f)\n      0x1f\n      dup3\n      add\n      and\n      dup3\n      add\n      dup1\n      0x40\n      mstore\n      pop\n      dup2\n      add\n      swap1\n      tag_87\n      swap2\n      swap1\n      tag_88\n      jump\t// in\n    tag_87:\n        /* \"contracts/cyfrin updraft/section3/librarys/PriceConverter.sol\":519:726  (... */\n      pop\n      pop\n      pop\n      swap2\n      pop\n      pop\n        /* \"contracts/cyfrin updraft/section3/librarys/PriceConverter.sol\":760:764  1e10 */\n      0x02540be400\n        /* \"contracts/cyfrin updraft/section3/librarys/PriceConverter.sol\":752:757  price */\n      dup2\n        /* \"contracts/cyfrin updraft/section3/librarys/PriceConverter.sol\":752:764  price * 1e10 */\n      tag_89\n      swap2\n      swap1\n      tag_90\n      jump\t// in\n    tag_89:\n        /* \"contracts/cyfrin updraft/section3/librarys/PriceConverter.sol\":737:765  return uint256(price * 1e10) */\n      swap3\n      pop\n      pop\n      pop\n        /* \"contracts/cyfrin updraft/section3/librarys/PriceConverter.sol\":240:773  function getPrice() internal view returns(uint256) {... */\n      swap1\n      jump\t// out\n    tag_60:\n      dup3\n      dup1\n      sload\n      dup3\n      dup3\n      sstore\n      swap1\n      0x00\n      mstore\n      keccak256(0x00, 0x20)\n      swap1\n      dup2\n      add\n      swap3\n      dup3\n      iszero\n      tag_91\n      jumpi\n      swap2\n      0x20\n      mul\n      dup3\n      add\n    tag_92:\n      dup3\n      dup2\n      gt\n      iszero\n      tag_93\n      jumpi\n      dup3\n      mload\n      dup3\n      exp(0x0100, 0x00)\n      dup2\n      sload\n      dup2\n      0xffffffffffffffffffffffffffffffffffffffff\n      mul\n      not\n      and\n      swap1\n      dup4\n      0xffffffffffffffffffffffffffffffffffffffff\n      and\n      mul\n      or\n      swap1\n      sstore\n      pop\n      swap2\n      0x20\n      add\n      swap2\n      swap1\n      0x01\n      add\n      swap1\n      jump(tag_92)\n    tag_93:\n    tag_91:\n      pop\n      swap1\n      pop\n      tag_94\n      swap2\n      swap1\n      tag_95\n      jump\t// in\n    tag_94:\n      pop\n      swap1\n      jump\t// out\n    tag_95:\n    tag_96:\n      dup1\n      dup3\n      gt\n      iszero\n      tag_97\n      jumpi\n      0x00\n      dup2\n      0x00\n      swap1\n      sstore\n      pop\n      0x01\n      add\n      jump(tag_96)\n    tag_97:\n      pop\n      swap1\n      jump\t// out\n        /* \"#utility.yul\":7:84   */\n    tag_98:\n        /* \"#utility.yul\":44:51   */\n      0x00\n        /* \"#utility.yul\":73:78   */\n      dup2\n        /* \"#utility.yul\":62:78   */\n      swap1\n      pop\n        /* \"#utility.yul\":7:84   */\n      swap2\n      swap1\n      pop\n      jump\t// out\n        /* \"#utility.yul\":90:208   */\n    tag_99:\n        /* \"#utility.yul\":177:201   */\n      tag_132\n        /* \"#utility.yul\":195:200   */\n      dup2\n        /* \"#utility.yul\":177:201   */\n      tag_98\n      jump\t// in\n    tag_132:\n        /* \"#utility.yul\":172:175   */\n      dup3\n        /* \"#utility.yul\":165:202   */\n      mstore\n        /* \"#utility.yul\":90:208   */\n      pop\n      pop\n      jump\t// out\n        /* \"#utility.yul\":214:436   */\n    tag_12:\n        /* \"#utility.yul\":307:311   */\n      0x00\n        /* \"#utility.yul\":345:347   */\n      0x20\n        /* \"#utility.yul\":334:343   */\n      dup3\n        /* \"#utility.yul\":330:348   */\n      add\n        /* \"#utility.yul\":322:348   */\n      swap1\n      pop\n        /* \"#utility.yul\":358:429   */\n      tag_134\n        /* \"#utility.yul\":426:427   */\n      0x00\n        /* \"#utility.yul\":415:424   */\n      dup4\n        /* \"#utility.yul\":411:428   */\n      add\n        /* \"#utility.yul\":402:408   */\n      dup5\n        /* \"#utility.yul\":358:429   */\n      tag_99\n      jump\t// in\n    tag_134:\n        /* \"#utility.yul\":214:436   */\n      swap3\n      swap2\n      pop\n      pop\n      jump\t// out\n        /* \"#utility.yul\":523:640   */\n    tag_101:\n        /* \"#utility.yul\":632:633   */\n      0x00\n        /* \"#utility.yul\":629:630   */\n      dup1\n        /* \"#utility.yul\":622:634   */\n      revert\n        /* \"#utility.yul\":769:895   */\n    tag_103:\n        /* \"#utility.yul\":806:813   */\n      0x00\n        /* \"#utility.yul\":846:888   */\n      0xffffffffffffffffffffffffffffffffffffffff\n        /* \"#utility.yul\":839:844   */\n      dup3\n        /* \"#utility.yul\":835:889   */\n      and\n        /* \"#utility.yul\":824:889   */\n      swap1\n      pop\n        /* \"#utility.yul\":769:895   */\n      swap2\n      swap1\n      pop\n      jump\t// out\n        /* \"#utility.yul\":901:997   */\n    tag_104:\n        /* \"#utility.yul\":938:945   */\n      0x00\n        /* \"#utility.yul\":967:991   */\n      tag_140\n        /* \"#utility.yul\":985:990   */\n      dup3\n        /* \"#utility.yul\":967:991   */\n      tag_103\n      jump\t// in\n    tag_140:\n        /* \"#utility.yul\":956:991   */\n      swap1\n      pop\n        /* \"#utility.yul\":901:997   */\n      swap2\n      swap1\n      pop\n      jump\t// out\n        /* \"#utility.yul\":1003:1125   */\n    tag_105:\n        /* \"#utility.yul\":1076:1100   */\n      tag_142\n        /* \"#utility.yul\":1094:1099   */\n      dup2\n        /* \"#utility.yul\":1076:1100   */\n      tag_104\n      jump\t// in\n    tag_142:\n        /* \"#utility.yul\":1069:1074   */\n      dup2\n        /* \"#utility.yul\":1066:1101   */\n      eq\n        /* \"#utility.yul\":1056:1119   */\n      tag_143\n      jumpi\n        /* \"#utility.yul\":1115:1116   */\n      0x00\n        /* \"#utility.yul\":1112:1113   */\n      dup1\n        /* \"#utility.yul\":1105:1117   */\n      revert\n        /* \"#utility.yul\":1056:1119   */\n    tag_143:\n        /* \"#utility.yul\":1003:1125   */\n      pop\n      jump\t// out\n        /* \"#utility.yul\":1131:1270   */\n    tag_106:\n        /* \"#utility.yul\":1177:1182   */\n      0x00\n        /* \"#utility.yul\":1215:1221   */\n      dup2\n        /* \"#utility.yul\":1202:1222   */\n      calldataload\n        /* \"#utility.yul\":1193:1222   */\n      swap1\n      pop\n        /* \"#utility.yul\":1231:1264   */\n      tag_145\n        /* \"#utility.yul\":1258:1263   */\n      dup2\n        /* \"#utility.yul\":1231:1264   */\n      tag_105\n      jump\t// in\n    tag_145:\n        /* \"#utility.yul\":1131:1270   */\n      swap3\n      swap2\n      pop\n      pop\n      jump\t// out\n        /* \"#utility.yul\":1276:1605   */\n    tag_20:\n        /* \"#utility.yul\":1335:1341   */\n      0x00\n        /* \"#utility.yul\":1384:1386   */\n      0x20\n        /* \"#utility.yul\":1372:1381   */\n      dup3\n        /* \"#utility.yul\":1363:1370   */\n      dup5\n        /* \"#utility.yul\":1359:1382   */\n      sub\n        /* \"#utility.yul\":1355:1387   */\n      slt\n        /* \"#utility.yul\":1352:1471   */\n      iszero\n      tag_147\n      jumpi\n        /* \"#utility.yul\":1390:1469   */\n      tag_148\n      tag_101\n      jump\t// in\n    tag_148:\n        /* \"#utility.yul\":1352:1471   */\n    tag_147:\n        /* \"#utility.yul\":1510:1511   */\n      0x00\n        /* \"#utility.yul\":1535:1588   */\n      tag_149\n        /* \"#utility.yul\":1580:1587   */\n      dup5\n        /* \"#utility.yul\":1571:1577   */\n      dup3\n        /* \"#utility.yul\":1560:1569   */\n      dup6\n        /* \"#utility.yul\":1556:1578   */\n      add\n        /* \"#utility.yul\":1535:1588   */\n      tag_106\n      jump\t// in\n    tag_149:\n        /* \"#utility.yul\":1525:1588   */\n      swap2\n      pop\n        /* \"#utility.yul\":1481:1598   */\n      pop\n        /* \"#utility.yul\":1276:1605   */\n      swap3\n      swap2\n      pop\n      pop\n      jump\t// out\n        /* \"#utility.yul\":1611:1733   */\n    tag_107:\n        /* \"#utility.yul\":1684:1708   */\n      tag_151\n        /* \"#utility.yul\":1702:1707   */\n      dup2\n        /* \"#utility.yul\":1684:1708   */\n      tag_98\n      jump\t// in\n    tag_151:\n        /* \"#utility.yul\":1677:1682   */\n      dup2\n        /* \"#utility.yul\":1674:1709   */\n      eq\n        /* \"#utility.yul\":1664:1727   */\n      tag_152\n      jumpi\n        /* \"#utility.yul\":1723:1724   */\n      0x00\n        /* \"#utility.yul\":1720:1721   */\n      dup1\n        /* \"#utility.yul\":1713:1725   */\n      revert\n        /* \"#utility.yul\":1664:1727   */\n    tag_152:\n        /* \"#utility.yul\":1611:1733   */\n      pop\n      jump\t// out\n        /* \"#utility.yul\":1739:1878   */\n    tag_108:\n        /* \"#utility.yul\":1785:1790   */\n      0x00\n        /* \"#utility.yul\":1823:1829   */\n      dup2\n        /* \"#utility.yul\":1810:1830   */\n      calldataload\n        /* \"#utility.yul\":1801:1830   */\n      swap1\n      pop\n        /* \"#utility.yul\":1839:1872   */\n      tag_154\n        /* \"#utility.yul\":1866:1871   */\n      dup2\n        /* \"#utility.yul\":1839:1872   */\n      tag_107\n      jump\t// in\n    tag_154:\n        /* \"#utility.yul\":1739:1878   */\n      swap3\n      swap2\n      pop\n      pop\n      jump\t// out\n        /* \"#utility.yul\":1884:2213   */\n    tag_31:\n        /* \"#utility.yul\":1943:1949   */\n      0x00\n        /* \"#utility.yul\":1992:1994   */\n      0x20\n        /* \"#utility.yul\":1980:1989   */\n      dup3\n        /* \"#utility.yul\":1971:1978   */\n      dup5\n        /* \"#utility.yul\":1967:1990   */\n      sub\n        /* \"#utility.yul\":1963:1995   */\n      slt\n        /* \"#utility.yul\":1960:2079   */\n      iszero\n      tag_156\n      jumpi\n        /* \"#utility.yul\":1998:2077   */\n      tag_157\n      tag_101\n      jump\t// in\n    tag_157:\n        /* \"#utility.yul\":1960:2079   */\n    tag_156:\n        /* \"#utility.yul\":2118:2119   */\n      0x00\n        /* \"#utility.yul\":2143:2196   */\n      tag_158\n        /* \"#utility.yul\":2188:2195   */\n      dup5\n        /* \"#utility.yul\":2179:2185   */\n      dup3\n        /* \"#utility.yul\":2168:2177   */\n      dup6\n        /* \"#utility.yul\":2164:2186   */\n      add\n        /* \"#utility.yul\":2143:2196   */\n      tag_108\n      jump\t// in\n    tag_158:\n        /* \"#utility.yul\":2133:2196   */\n      swap2\n      pop\n        /* \"#utility.yul\":2089:2206   */\n      pop\n        /* \"#utility.yul\":1884:2213   */\n      swap3\n      swap2\n      pop\n      pop\n      jump\t// out\n        /* \"#utility.yul\":2219:2337   */\n    tag_109:\n        /* \"#utility.yul\":2306:2330   */\n      tag_160\n        /* \"#utility.yul\":2324:2329   */\n      dup2\n        /* \"#utility.yul\":2306:2330   */\n      tag_104\n      jump\t// in\n    tag_160:\n        /* \"#utility.yul\":2301:2304   */\n      dup3\n        /* \"#utility.yul\":2294:2331   */\n      mstore\n        /* \"#utility.yul\":2219:2337   */\n      pop\n      pop\n      jump\t// out\n        /* \"#utility.yul\":2343:2565   */\n    tag_34:\n        /* \"#utility.yul\":2436:2440   */\n      0x00\n        /* \"#utility.yul\":2474:2476   */\n      0x20\n        /* \"#utility.yul\":2463:2472   */\n      dup3\n        /* \"#utility.yul\":2459:2477   */\n      add\n        /* \"#utility.yul\":2451:2477   */\n      swap1\n      pop\n        /* \"#utility.yul\":2487:2558   */\n      tag_162\n        /* \"#utility.yul\":2555:2556   */\n      0x00\n        /* \"#utility.yul\":2544:2553   */\n      dup4\n        /* \"#utility.yul\":2540:2557   */\n      add\n        /* \"#utility.yul\":2531:2537   */\n      dup5\n        /* \"#utility.yul\":2487:2558   */\n      tag_109\n      jump\t// in\n    tag_162:\n        /* \"#utility.yul\":2343:2565   */\n      swap3\n      swap2\n      pop\n      pop\n      jump\t// out\n        /* \"#utility.yul\":2571:2740   */\n    tag_110:\n        /* \"#utility.yul\":2655:2666   */\n      0x00\n        /* \"#utility.yul\":2689:2695   */\n      dup3\n        /* \"#utility.yul\":2684:2687   */\n      dup3\n        /* \"#utility.yul\":2677:2696   */\n      mstore\n        /* \"#utility.yul\":2729:2733   */\n      0x20\n        /* \"#utility.yul\":2724:2727   */\n      dup3\n        /* \"#utility.yul\":2720:2734   */\n      add\n        /* \"#utility.yul\":2705:2734   */\n      swap1\n      pop\n        /* \"#utility.yul\":2571:2740   */\n      swap3\n      swap2\n      pop\n      pop\n      jump\t// out\n        /* \"#utility.yul\":2746:2918   */\n    tag_111:\n        /* \"#utility.yul\":2886:2910   */\n      0x6469646e27742073656e6420656e6f7567682065746800000000000000000000\n        /* \"#utility.yul\":2882:2883   */\n      0x00\n        /* \"#utility.yul\":2874:2880   */\n      dup3\n        /* \"#utility.yul\":2870:2884   */\n      add\n        /* \"#utility.yul\":2863:2911   */\n      mstore\n        /* \"#utility.yul\":2746:2918   */\n      pop\n      jump\t// out\n        /* \"#utility.yul\":2924:3290   */\n    tag_112:\n        /* \"#utility.yul\":3066:3069   */\n      0x00\n        /* \"#utility.yul\":3087:3154   */\n      tag_166\n        /* \"#utility.yul\":3151:3153   */\n      0x16\n        /* \"#utility.yul\":3146:3149   */\n      dup4\n        /* \"#utility.yul\":3087:3154   */\n      tag_110\n      jump\t// in\n    tag_166:\n        /* \"#utility.yul\":3080:3154   */\n      swap2\n      pop\n        /* \"#utility.yul\":3163:3256   */\n      tag_167\n        /* \"#utility.yul\":3252:3255   */\n      dup3\n        /* \"#utility.yul\":3163:3256   */\n      tag_111\n      jump\t// in\n    tag_167:\n        /* \"#utility.yul\":3281:3283   */\n      0x20\n        /* \"#utility.yul\":3276:3279   */\n      dup3\n        /* \"#utility.yul\":3272:3284   */\n      add\n        /* \"#utility.yul\":3265:3284   */\n      swap1\n      pop\n        /* \"#utility.yul\":2924:3290   */\n      swap2\n      swap1\n      pop\n      jump\t// out\n        /* \"#utility.yul\":3296:3715   */\n    tag_41:\n        /* \"#utility.yul\":3462:3466   */\n      0x00\n        /* \"#utility.yul\":3500:3502   */\n      0x20\n        /* \"#utility.yul\":3489:3498   */\n      dup3\n        /* \"#utility.yul\":3485:3503   */\n      add\n        /* \"#utility.yul\":3477:3503   */\n      swap1\n      pop\n        /* \"#utility.yul\":3549:3558   */\n      dup2\n        /* \"#utility.yul\":3543:3547   */\n      dup2\n        /* \"#utility.yul\":3539:3559   */\n      sub\n        /* \"#utility.yul\":3535:3536   */\n      0x00\n        /* \"#utility.yul\":3524:3533   */\n      dup4\n        /* \"#utility.yul\":3520:3537   */\n      add\n        /* \"#utility.yul\":3513:3560   */\n      mstore\n        /* \"#utility.yul\":3577:3708   */\n      tag_169\n        /* \"#utility.yul\":3703:3707   */\n      dup2\n        /* \"#utility.yul\":3577:3708   */\n      tag_112\n      jump\t// in\n    tag_169:\n        /* \"#utility.yul\":3569:3708   */\n      swap1\n      pop\n        /* \"#utility.yul\":3296:3715   */\n      swap2\n      swap1\n      pop\n      jump\t// out\n        /* \"#utility.yul\":3721:3901   */\n    tag_113:\n        /* \"#utility.yul\":3769:3846   */\n      0x4e487b7100000000000000000000000000000000000000000000000000000000\n        /* \"#utility.yul\":3766:3767   */\n      0x00\n        /* \"#utility.yul\":3759:3847   */\n      mstore\n        /* \"#utility.yul\":3866:3870   */\n      0x11\n        /* \"#utility.yul\":3863:3864   */\n      0x04\n        /* \"#utility.yul\":3856:3871   */\n      mstore\n        /* \"#utility.yul\":3890:3894   */\n      0x24\n        /* \"#utility.yul\":3887:3888   */\n      0x00\n        /* \"#utility.yul\":3880:3895   */\n      revert\n        /* \"#utility.yul\":3907:4098   */\n    tag_44:\n        /* \"#utility.yul\":3947:3950   */\n      0x00\n        /* \"#utility.yul\":3966:3986   */\n      tag_172\n        /* \"#utility.yul\":3984:3985   */\n      dup3\n        /* \"#utility.yul\":3966:3986   */\n      tag_98\n      jump\t// in\n    tag_172:\n        /* \"#utility.yul\":3961:3986   */\n      swap2\n      pop\n        /* \"#utility.yul\":4000:4020   */\n      tag_173\n        /* \"#utility.yul\":4018:4019   */\n      dup4\n        /* \"#utility.yul\":4000:4020   */\n      tag_98\n      jump\t// in\n    tag_173:\n        /* \"#utility.yul\":3995:4020   */\n      swap3\n      pop\n        /* \"#utility.yul\":4043:4044   */\n      dup3\n        /* \"#utility.yul\":4040:4041   */\n      dup3\n        /* \"#utility.yul\":4036:4045   */\n      add\n        /* \"#utility.yul\":4029:4045   */\n      swap1\n      pop\n        /* \"#utility.yul\":4064:4067   */\n      dup1\n        /* \"#utility.yul\":4061:4062   */\n      dup3\n        /* \"#utility.yul\":4058:4068   */\n      gt\n        /* \"#utility.yul\":4055:4091   */\n      iszero\n      tag_174\n      jumpi\n        /* \"#utility.yul\":4071:4089   */\n      tag_175\n      tag_113\n      jump\t// in\n    tag_175:\n        /* \"#utility.yul\":4055:4091   */\n    tag_174:\n        /* \"#utility.yul\":3907:4098   */\n      swap3\n      swap2\n      pop\n      pop\n      jump\t// out\n        /* \"#utility.yul\":4104:4284   */\n    tag_51:\n        /* \"#utility.yul\":4152:4229   */\n      0x4e487b7100000000000000000000000000000000000000000000000000000000\n        /* \"#utility.yul\":4149:4150   */\n      0x00\n        /* \"#utility.yul\":4142:4230   */\n      mstore\n        /* \"#utility.yul\":4249:4253   */\n      0x32\n        /* \"#utility.yul\":4246:4247   */\n      0x04\n        /* \"#utility.yul\":4239:4254   */\n      mstore\n        /* \"#utility.yul\":4273:4277   */\n      0x24\n        /* \"#utility.yul\":4270:4271   */\n      0x00\n        /* \"#utility.yul\":4263:4278   */\n      revert\n        /* \"#utility.yul\":4290:4523   */\n    tag_54:\n        /* \"#utility.yul\":4329:4332   */\n      0x00\n        /* \"#utility.yul\":4352:4376   */\n      tag_178\n        /* \"#utility.yul\":4370:4375   */\n      dup3\n        /* \"#utility.yul\":4352:4376   */\n      tag_98\n      jump\t// in\n    tag_178:\n        /* \"#utility.yul\":4343:4376   */\n      swap2\n      pop\n        /* \"#utility.yul\":4398:4464   */\n      0xffffffffffffffffffffffffffffffffffffffffffffffffffffffffffffffff\n        /* \"#utility.yul\":4391:4396   */\n      dup3\n        /* \"#utility.yul\":4388:4465   */\n      sub\n        /* \"#utility.yul\":4385:4488   */\n      tag_179\n      jumpi\n        /* \"#utility.yul\":4468:4486   */\n      tag_180\n      tag_113\n      jump\t// in\n    tag_180:\n        /* \"#utility.yul\":4385:4488   */\n    tag_179:\n        /* \"#utility.yul\":4515:4516   */\n      0x01\n        /* \"#utility.yul\":4508:4513   */\n      dup3\n        /* \"#utility.yul\":4504:4517   */\n      add\n        /* \"#utility.yul\":4497:4517   */\n      swap1\n      pop\n        /* \"#utility.yul\":4290:4523   */\n      swap2\n      swap1\n      pop\n      jump\t// out\n        /* \"#utility.yul\":4529:4709   */\n    tag_57:\n        /* \"#utility.yul\":4577:4654   */\n      0x4e487b7100000000000000000000000000000000000000000000000000000000\n        /* \"#utility.yul\":4574:4575   */\n      0x00\n        /* \"#utility.yul\":4567:4655   */\n      mstore\n        /* \"#utility.yul\":4674:4678   */\n      0x41\n        /* \"#utility.yul\":4671:4672   */\n      0x04\n        /* \"#utility.yul\":4664:4679   */\n      mstore\n        /* \"#utility.yul\":4698:4702   */\n      0x24\n        /* \"#utility.yul\":4695:4696   */\n      0x00\n        /* \"#utility.yul\":4688:4703   */\n      revert\n        /* \"#utility.yul\":4715:4876   */\n    tag_114:\n        /* \"#utility.yul\":4855:4868   */\n      0x53656e64206661696c6564000000000000000000000000000000000000000000\n        /* \"#utility.yul\":4851:4852   */\n      0x00\n        /* \"#utility.yul\":4843:4849   */\n      dup3\n        /* \"#utility.yul\":4839:4853   */\n      add\n        /* \"#utility.yul\":4832:4869   */\n      mstore\n        /* \"#utility.yul\":4715:4876   */\n      pop\n      jump\t// out\n        /* \"#utility.yul\":4882:5248   */\n    tag_115:\n        /* \"#utility.yul\":5024:5027   */\n      0x00\n        /* \"#utility.yul\":5045:5112   */\n      tag_184\n        /* \"#utility.yul\":5109:5111   */\n      0x0b\n        /* \"#utility.yul\":5104:5107   */\n      dup4\n        /* \"#utility.yul\":5045:5112   */\n      tag_110\n      jump\t// in\n    tag_184:\n        /* \"#utility.yul\":5038:5112   */\n      swap2\n      pop\n        /* \"#utility.yul\":5121:5214   */\n      tag_185\n        /* \"#utility.yul\":5210:5213   */\n      dup3\n        /* \"#utility.yul\":5121:5214   */\n      tag_114\n      jump\t// in\n    tag_185:\n        /* \"#utility.yul\":5239:5241   */\n      0x20\n        /* \"#utility.yul\":5234:5237   */\n      dup3\n        /* \"#utility.yul\":5230:5242   */\n      add\n        /* \"#utility.yul\":5223:5242   */\n      swap1\n      pop\n        /* \"#utility.yul\":4882:5248   */\n      swap2\n      swap1\n      pop\n      jump\t// out\n        /* \"#utility.yul\":5254:5673   */\n    tag_66:\n        /* \"#utility.yul\":5420:5424   */\n      0x00\n        /* \"#utility.yul\":5458:5460   */\n      0x20\n        /* \"#utility.yul\":5447:5456   */\n      dup3\n        /* \"#utility.yul\":5443:5461   */\n      add\n        /* \"#utility.yul\":5435:5461   */\n      swap1\n      pop\n        /* \"#utility.yul\":5507:5516   */\n      dup2\n        /* \"#utility.yul\":5501:5505   */\n      dup2\n        /* \"#utility.yul\":5497:5517   */\n      sub\n        /* \"#utility.yul\":5493:5494   */\n      0x00\n        /* \"#utility.yul\":5482:5491   */\n      dup4\n        /* \"#utility.yul\":5478:5495   */\n      add\n        /* \"#utility.yul\":5471:5518   */\n      mstore\n        /* \"#utility.yul\":5535:5666   */\n      tag_187\n        /* \"#utility.yul\":5661:5665   */\n      dup2\n        /* \"#utility.yul\":5535:5666   */\n      tag_115\n      jump\t// in\n    tag_187:\n        /* \"#utility.yul\":5527:5666   */\n      swap1\n      pop\n        /* \"#utility.yul\":5254:5673   */\n      swap2\n      swap1\n      pop\n      jump\t// out\n        /* \"#utility.yul\":5679:5826   */\n    tag_116:\n        /* \"#utility.yul\":5780:5791   */\n      0x00\n        /* \"#utility.yul\":5817:5820   */\n      dup2\n        /* \"#utility.yul\":5802:5820   */\n      swap1\n      pop\n        /* \"#utility.yul\":5679:5826   */\n      swap3\n      swap2\n      pop\n      pop\n      jump\t// out\n        /* \"#utility.yul\":5832:5946   */\n    tag_117:\n      pop\n      jump\t// out\n        /* \"#utility.yul\":5952:6350   */\n    tag_118:\n        /* \"#utility.yul\":6111:6114   */\n      0x00\n        /* \"#utility.yul\":6132:6215   */\n      tag_191\n        /* \"#utility.yul\":6213:6214   */\n      0x00\n        /* \"#utility.yul\":6208:6211   */\n      dup4\n        /* \"#utility.yul\":6132:6215   */\n      tag_116\n      jump\t// in\n    tag_191:\n        /* \"#utility.yul\":6125:6215   */\n      swap2\n      pop\n        /* \"#utility.yul\":6224:6317   */\n      tag_192\n        /* \"#utility.yul\":6313:6316   */\n      dup3\n        /* \"#utility.yul\":6224:6317   */\n      tag_117\n      jump\t// in\n    tag_192:\n        /* \"#utility.yul\":6342:6343   */\n      0x00\n        /* \"#utility.yul\":6337:6340   */\n      dup3\n        /* \"#utility.yul\":6333:6344   */\n      add\n        /* \"#utility.yul\":6326:6344   */\n      swap1\n      pop\n        /* \"#utility.yul\":5952:6350   */\n      swap2\n      swap1\n      pop\n      jump\t// out\n        /* \"#utility.yul\":6356:6735   */\n    tag_68:\n        /* \"#utility.yul\":6540:6543   */\n      0x00\n        /* \"#utility.yul\":6562:6709   */\n      tag_194\n        /* \"#utility.yul\":6705:6708   */\n      dup3\n        /* \"#utility.yul\":6562:6709   */\n      tag_118\n      jump\t// in\n    tag_194:\n        /* \"#utility.yul\":6555:6709   */\n      swap2\n      pop\n        /* \"#utility.yul\":6726:6729   */\n      dup2\n        /* \"#utility.yul\":6719:6729   */\n      swap1\n      pop\n        /* \"#utility.yul\":6356:6735   */\n      swap2\n      swap1\n      pop\n      jump\t// out\n        /* \"#utility.yul\":6741:6902   */\n    tag_119:\n        /* \"#utility.yul\":6881:6894   */\n      0x43616c6c206661696c6564000000000000000000000000000000000000000000\n        /* \"#utility.yul\":6877:6878   */\n      0x00\n        /* \"#utility.yul\":6869:6875   */\n      dup3\n        /* \"#utility.yul\":6865:6879   */\n      add\n        /* \"#utility.yul\":6858:6895   */\n      mstore\n        /* \"#utility.yul\":6741:6902   */\n      pop\n      jump\t// out\n        /* \"#utility.yul\":6908:7274   */\n    tag_120:\n        /* \"#utility.yul\":7050:7053   */\n      0x00\n        /* \"#utility.yul\":7071:7138   */\n      tag_197\n        /* \"#utility.yul\":7135:7137   */\n      0x0b\n        /* \"#utility.yul\":7130:7133   */\n      dup4\n        /* \"#utility.yul\":7071:7138   */\n      tag_110\n      jump\t// in\n    tag_197:\n        /* \"#utility.yul\":7064:7138   */\n      swap2\n      pop\n        /* \"#utility.yul\":7147:7240   */\n      tag_198\n        /* \"#utility.yul\":7236:7239   */\n      dup3\n        /* \"#utility.yul\":7147:7240   */\n      tag_119\n      jump\t// in\n    tag_198:\n        /* \"#utility.yul\":7265:7267   */\n      0x20\n        /* \"#utility.yul\":7260:7263   */\n      dup3\n        /* \"#utility.yul\":7256:7268   */\n      add\n        /* \"#utility.yul\":7249:7268   */\n      swap1\n      pop\n        /* \"#utility.yul\":6908:7274   */\n      swap2\n      swap1\n      pop\n      jump\t// out\n        /* \"#utility.yul\":7280:7699   */\n    tag_74:\n        /* \"#utility.yul\":7446:7450   */\n      0x00\n        /* \"#utility.yul\":7484:7486   */\n      0x20\n        /* \"#utility.yul\":7473:7482   */\n      dup3\n        /* \"#utility.yul\":7469:7487   */\n      add\n        /* \"#utility.yul\":7461:7487   */\n      swap1\n      pop\n        /* \"#utility.yul\":7533:7542   */\n      dup2\n        /* \"#utility.yul\":7527:7531   */\n      dup2\n        /* \"#utility.yul\":7523:7543   */\n      sub\n        /* \"#utility.yul\":7519:7520   */\n      0x00\n        /* \"#utility.yul\":7508:7517   */\n      dup4\n        /* \"#utility.yul\":7504:7521   */\n      add\n        /* \"#utility.yul\":7497:7544   */\n      mstore\n        /* \"#utility.yul\":7561:7692   */\n      tag_200\n        /* \"#utility.yul\":7687:7691   */\n      dup2\n        /* \"#utility.yul\":7561:7692   */\n      tag_120\n      jump\t// in\n    tag_200:\n        /* \"#utility.yul\":7553:7692   */\n      swap1\n      pop\n        /* \"#utility.yul\":7280:7699   */\n      swap2\n      swap1\n      pop\n      jump\t// out\n        /* \"#utility.yul\":7705:8115   */\n    tag_81:\n        /* \"#utility.yul\":7745:7752   */\n      0x00\n        /* \"#utility.yul\":7768:7788   */\n      tag_202\n        /* \"#utility.yul\":7786:7787   */\n      dup3\n        /* \"#utility.yul\":7768:7788   */\n      tag_98\n      jump\t// in\n    tag_202:\n        /* \"#utility.yul\":7763:7788   */\n      swap2\n      pop\n        /* \"#utility.yul\":7802:7822   */\n      tag_203\n        /* \"#utility.yul\":7820:7821   */\n      dup4\n        /* \"#utility.yul\":7802:7822   */\n      tag_98\n      jump\t// in\n    tag_203:\n        /* \"#utility.yul\":7797:7822   */\n      swap3\n      pop\n        /* \"#utility.yul\":7857:7858   */\n      dup3\n        /* \"#utility.yul\":7854:7855   */\n      dup3\n        /* \"#utility.yul\":7850:7859   */\n      mul\n        /* \"#utility.yul\":7879:7909   */\n      tag_204\n        /* \"#utility.yul\":7897:7908   */\n      dup2\n        /* \"#utility.yul\":7879:7909   */\n      tag_98\n      jump\t// in\n    tag_204:\n        /* \"#utility.yul\":7868:7909   */\n      swap2\n      pop\n        /* \"#utility.yul\":8058:8059   */\n      dup3\n        /* \"#utility.yul\":8049:8056   */\n      dup3\n        /* \"#utility.yul\":8045:8060   */\n      div\n        /* \"#utility.yul\":8042:8043   */\n      dup5\n        /* \"#utility.yul\":8039:8061   */\n      eq\n        /* \"#utility.yul\":8019:8020   */\n      dup4\n        /* \"#utility.yul\":8012:8021   */\n      iszero\n        /* \"#utility.yul\":7992:8075   */\n      or\n        /* \"#utility.yul\":7969:8108   */\n      tag_205\n      jumpi\n        /* \"#utility.yul\":8088:8106   */\n      tag_206\n      tag_113\n      jump\t// in\n    tag_206:\n        /* \"#utility.yul\":7969:8108   */\n    tag_205:\n        /* \"#utility.yul\":7753:8115   */\n      pop\n        /* \"#utility.yul\":7705:8115   */\n      swap3\n      swap2\n      pop\n      pop\n      jump\t// out\n        /* \"#utility.yul\":8121:8301   */\n    tag_121:\n        /* \"#utility.yul\":8169:8246   */\n      0x4e487b7100000000000000000000000000000000000000000000000000000000\n        /* \"#utility.yul\":8166:8167   */\n      0x00\n        /* \"#utility.yul\":8159:8247   */\n      mstore\n        /* \"#utility.yul\":8266:8270   */\n      0x12\n        /* \"#utility.yul\":8263:8264   */\n      0x04\n        /* \"#utility.yul\":8256:8271   */\n      mstore\n        /* \"#utility.yul\":8290:8294   */\n      0x24\n        /* \"#utility.yul\":8287:8288   */\n      0x00\n        /* \"#utility.yul\":8280:8295   */\n      revert\n        /* \"#utility.yul\":8307:8492   */\n    tag_83:\n        /* \"#utility.yul\":8347:8348   */\n      0x00\n        /* \"#utility.yul\":8364:8384   */\n      tag_209\n        /* \"#utility.yul\":8382:8383   */\n      dup3\n        /* \"#utility.yul\":8364:8384   */\n      tag_98\n      jump\t// in\n    tag_209:\n        /* \"#utility.yul\":8359:8384   */\n      swap2\n      pop\n        /* \"#utility.yul\":8398:8418   */\n      tag_210\n        /* \"#utility.yul\":8416:8417   */\n      dup4\n        /* \"#utility.yul\":8398:8418   */\n      tag_98\n      jump\t// in\n    tag_210:\n        /* \"#utility.yul\":8393:8418   */\n      swap3\n      pop\n        /* \"#utility.yul\":8437:8438   */\n      dup3\n        /* \"#utility.yul\":8427:8462   */\n      tag_211\n      jumpi\n        /* \"#utility.yul\":8442:8460   */\n      tag_212\n      tag_121\n      jump\t// in\n    tag_212:\n        /* \"#utility.yul\":8427:8462   */\n    tag_211:\n        /* \"#utility.yul\":8484:8485   */\n      dup3\n        /* \"#utility.yul\":8481:8482   */\n      dup3\n        /* \"#utility.yul\":8477:8486   */\n      div\n        /* \"#utility.yul\":8472:8486   */\n      swap1\n      pop\n        /* \"#utility.yul\":8307:8492   */\n      swap3\n      swap2\n      pop\n      pop\n      jump\t// out\n        /* \"#utility.yul\":8498:8603   */\n    tag_122:\n        /* \"#utility.yul\":8534:8541   */\n      0x00\n        /* \"#utility.yul\":8574:8596   */\n      0xffffffffffffffffffff\n        /* \"#utility.yul\":8567:8572   */\n      dup3\n        /* \"#utility.yul\":8563:8597   */\n      and\n        /* \"#utility.yul\":8552:8597   */\n      swap1\n      pop\n        /* \"#utility.yul\":8498:8603   */\n      swap2\n      swap1\n      pop\n      jump\t// out\n        /* \"#utility.yul\":8609:8729   */\n    tag_123:\n        /* \"#utility.yul\":8681:8704   */\n      tag_215\n        /* \"#utility.yul\":8698:8703   */\n      dup2\n        /* \"#utility.yul\":8681:8704   */\n      tag_122\n      jump\t// in\n    tag_215:\n        /* \"#utility.yul\":8674:8679   */\n      dup2\n        /* \"#utility.yul\":8671:8705   */\n      eq\n        /* \"#utility.yul\":8661:8723   */\n      tag_216\n      jumpi\n        /* \"#utility.yul\":8719:8720   */\n      0x00\n        /* \"#utility.yul\":8716:8717   */\n      dup1\n        /* \"#utility.yul\":8709:8721   */\n      revert\n        /* \"#utility.yul\":8661:8723   */\n    tag_216:\n        /* \"#utility.yul\":8609:8729   */\n      pop\n      jump\t// out\n        /* \"#utility.yul\":8735:8876   */\n    tag_124:\n        /* \"#utility.yul\":8791:8796   */\n      0x00\n        /* \"#utility.yul\":8822:8828   */\n      dup2\n        /* \"#utility.yul\":8816:8829   */\n      mload\n        /* \"#utility.yul\":8807:8829   */\n      swap1\n      pop\n        /* \"#utility.yul\":8838:8870   */\n      tag_218\n        /* \"#utility.yul\":8864:8869   */\n      dup2\n        /* \"#utility.yul\":8838:8870   */\n      tag_123\n      jump\t// in\n    tag_218:\n        /* \"#utility.yul\":8735:8876   */\n      swap3\n      swap2\n      pop\n      pop\n      jump\t// out\n        /* \"#utility.yul\":8882:8958   */\n    tag_125:\n        /* \"#utility.yul\":8918:8925   */\n      0x00\n        /* \"#utility.yul\":8947:8952   */\n      dup2\n        /* \"#utility.yul\":8936:8952   */\n      swap1\n      pop\n        /* \"#utility.yul\":8882:8958   */\n      swap2\n      swap1\n      pop\n      jump\t// out\n        /* \"#utility.yul\":8964:9084   */\n    tag_126:\n        /* \"#utility.yul\":9036:9059   */\n      tag_221\n        /* \"#utility.yul\":9053:9058   */\n      dup2\n        /* \"#utility.yul\":9036:9059   */\n      tag_125\n      jump\t// in\n    tag_221:\n        /* \"#utility.yul\":9029:9034   */\n      dup2\n        /* \"#utility.yul\":9026:9060   */\n      eq\n        /* \"#utility.yul\":9016:9078   */\n      tag_222\n      jumpi\n        /* \"#utility.yul\":9074:9075   */\n      0x00\n        /* \"#utility.yul\":9071:9072   */\n      dup1\n        /* \"#utility.yul\":9064:9076   */\n      revert\n        /* \"#utility.yul\":9016:9078   */\n    tag_222:\n        /* \"#utility.yul\":8964:9084   */\n      pop\n      jump\t// out\n        /* \"#utility.yul\":9090:9231   */\n    tag_127:\n        /* \"#utility.yul\":9146:9151   */\n      0x00\n        /* \"#utility.yul\":9177:9183   */\n      dup2\n        /* \"#utility.yul\":9171:9184   */\n      mload\n        /* \"#utility.yul\":9162:9184   */\n      swap1\n      pop\n        /* \"#utility.yul\":9193:9225   */\n      tag_224\n        /* \"#utility.yul\":9219:9224   */\n      dup2\n        /* \"#utility.yul\":9193:9225   */\n      tag_126\n      jump\t// in\n    tag_224:\n        /* \"#utility.yul\":9090:9231   */\n      swap3\n      swap2\n      pop\n      pop\n      jump\t// out\n        /* \"#utility.yul\":9237:9380   */\n    tag_128:\n        /* \"#utility.yul\":9294:9299   */\n      0x00\n        /* \"#utility.yul\":9325:9331   */\n      dup2\n        /* \"#utility.yul\":9319:9332   */\n      mload\n        /* \"#utility.yul\":9310:9332   */\n      swap1\n      pop\n        /* \"#utility.yul\":9341:9374   */\n      tag_226\n        /* \"#utility.yul\":9368:9373   */\n      dup2\n        /* \"#utility.yul\":9341:9374   */\n      tag_107\n      jump\t// in\n    tag_226:\n        /* \"#utility.yul\":9237:9380   */\n      swap3\n      swap2\n      pop\n      pop\n      jump\t// out\n        /* \"#utility.yul\":9386:10357   */\n    tag_88:\n        /* \"#utility.yul\":9489:9495   */\n      0x00\n        /* \"#utility.yul\":9497:9503   */\n      dup1\n        /* \"#utility.yul\":9505:9511   */\n      0x00\n        /* \"#utility.yul\":9513:9519   */\n      dup1\n        /* \"#utility.yul\":9521:9527   */\n      0x00\n        /* \"#utility.yul\":9570:9573   */\n      0xa0\n        /* \"#utility.yul\":9558:9567   */\n      dup7\n        /* \"#utility.yul\":9549:9556   */\n      dup9\n        /* \"#utility.yul\":9545:9568   */\n      sub\n        /* \"#utility.yul\":9541:9574   */\n      slt\n        /* \"#utility.yul\":9538:9658   */\n      iszero\n      tag_228\n      jumpi\n        /* \"#utility.yul\":9577:9656   */\n      tag_229\n      tag_101\n      jump\t// in\n    tag_229:\n        /* \"#utility.yul\":9538:9658   */\n    tag_228:\n        /* \"#utility.yul\":9697:9698   */\n      0x00\n        /* \"#utility.yul\":9722:9785   */\n      tag_230\n        /* \"#utility.yul\":9777:9784   */\n      dup9\n        /* \"#utility.yul\":9768:9774   */\n      dup3\n        /* \"#utility.yul\":9757:9766   */\n      dup10\n        /* \"#utility.yul\":9753:9775   */\n      add\n        /* \"#utility.yul\":9722:9785   */\n      tag_124\n      jump\t// in\n    tag_230:\n        /* \"#utility.yul\":9712:9785   */\n      swap6\n      pop\n        /* \"#utility.yul\":9668:9795   */\n      pop\n        /* \"#utility.yul\":9834:9836   */\n      0x20\n        /* \"#utility.yul\":9860:9923   */\n      tag_231\n        /* \"#utility.yul\":9915:9922   */\n      dup9\n        /* \"#utility.yul\":9906:9912   */\n      dup3\n        /* \"#utility.yul\":9895:9904   */\n      dup10\n        /* \"#utility.yul\":9891:9913   */\n      add\n        /* \"#utility.yul\":9860:9923   */\n      tag_127\n      jump\t// in\n    tag_231:\n        /* \"#utility.yul\":9850:9923   */\n      swap5\n      pop\n        /* \"#utility.yul\":9805:9933   */\n      pop\n        /* \"#utility.yul\":9972:9974   */\n      0x40\n        /* \"#utility.yul\":9998:10062   */\n      tag_232\n        /* \"#utility.yul\":10054:10061   */\n      dup9\n        /* \"#utility.yul\":10045:10051   */\n      dup3\n        /* \"#utility.yul\":10034:10043   */\n      dup10\n        /* \"#utility.yul\":10030:10052   */\n      add\n        /* \"#utility.yul\":9998:10062   */\n      tag_128\n      jump\t// in\n    tag_232:\n        /* \"#utility.yul\":9988:10062   */\n      swap4\n      pop\n        /* \"#utility.yul\":9943:10072   */\n      pop\n        /* \"#utility.yul\":10111:10113   */\n      0x60\n        /* \"#utility.yul\":10137:10201   */\n      tag_233\n        /* \"#utility.yul\":10193:10200   */\n      dup9\n        /* \"#utility.yul\":10184:10190   */\n      dup3\n        /* \"#utility.yul\":10173:10182   */\n      dup10\n        /* \"#utility.yul\":10169:10191   */\n      add\n        /* \"#utility.yul\":10137:10201   */\n      tag_128\n      jump\t// in\n    tag_233:\n        /* \"#utility.yul\":10127:10201   */\n      swap3\n      pop\n        /* \"#utility.yul\":10082:10211   */\n      pop\n        /* \"#utility.yul\":10250:10253   */\n      0x80\n        /* \"#utility.yul\":10277:10340   */\n      tag_234\n        /* \"#utility.yul\":10332:10339   */\n      dup9\n        /* \"#utility.yul\":10323:10329   */\n      dup3\n        /* \"#utility.yul\":10312:10321   */\n      dup10\n        /* \"#utility.yul\":10308:10330   */\n      add\n        /* \"#utility.yul\":10277:10340   */\n      tag_124\n      jump\t// in\n    tag_234:\n        /* \"#utility.yul\":10267:10340   */\n      swap2\n      pop\n        /* \"#utility.yul\":10221:10350   */\n      pop\n        /* \"#utility.yul\":9386:10357   */\n      swap3\n      swap6\n      pop\n      swap3\n      swap6\n      swap1\n      swap4\n      pop\n      jump\t// out\n        /* \"#utility.yul\":10363:10919   */\n    tag_90:\n        /* \"#utility.yul\":10402:10409   */\n      0x00\n        /* \"#utility.yul\":10425:10444   */\n      tag_236\n        /* \"#utility.yul\":10442:10443   */\n      dup3\n        /* \"#utility.yul\":10425:10444   */\n      tag_125\n      jump\t// in\n    tag_236:\n        /* \"#utility.yul\":10420:10444   */\n      swap2\n      pop\n        /* \"#utility.yul\":10458:10477   */\n      tag_237\n        /* \"#utility.yul\":10475:10476   */\n      dup4\n        /* \"#utility.yul\":10458:10477   */\n      tag_125\n      jump\t// in\n    tag_237:\n        /* \"#utility.yul\":10453:10477   */\n      swap3\n      pop\n        /* \"#utility.yul\":10512:10513   */\n      dup3\n        /* \"#utility.yul\":10509:10510   */\n      dup3\n        /* \"#utility.yul\":10505:10514   */\n      mul\n        /* \"#utility.yul\":10534:10563   */\n      tag_238\n        /* \"#utility.yul\":10551:10562   */\n      dup2\n        /* \"#utility.yul\":10534:10563   */\n      tag_125\n      jump\t// in\n    tag_238:\n        /* \"#utility.yul\":10523:10563   */\n      swap2\n      pop\n        /* \"#utility.yul\":10621:10687   */\n      0x8000000000000000000000000000000000000000000000000000000000000000\n        /* \"#utility.yul\":10618:10619   */\n      dup5\n        /* \"#utility.yul\":10615:10688   */\n      eq\n        /* \"#utility.yul\":10611:10612   */\n      0x00\n        /* \"#utility.yul\":10608:10609   */\n      dup5\n        /* \"#utility.yul\":10604:10613   */\n      slt\n        /* \"#utility.yul\":10600:10689   */\n      and\n        /* \"#utility.yul\":10597:10712   */\n      iszero\n      tag_239\n      jumpi\n        /* \"#utility.yul\":10692:10710   */\n      tag_240\n      tag_113\n      jump\t// in\n    tag_240:\n        /* \"#utility.yul\":10597:10712   */\n    tag_239:\n        /* \"#utility.yul\":10862:10863   */\n      dup3\n        /* \"#utility.yul\":10853:10860   */\n      dup3\n        /* \"#utility.yul\":10848:10864   */\n      sdiv\n        /* \"#utility.yul\":10845:10846   */\n      dup5\n        /* \"#utility.yul\":10842:10865   */\n      eq\n        /* \"#utility.yul\":10822:10823   */\n      dup4\n        /* \"#utility.yul\":10815:10824   */\n      iszero\n        /* \"#utility.yul\":10795:10879   */\n      or\n        /* \"#utility.yul\":10772:10912   */\n      tag_241\n      jumpi\n        /* \"#utility.yul\":10892:10910   */\n      tag_242\n      tag_113\n      jump\t// in\n    tag_242:\n        /* \"#utility.yul\":10772:10912   */\n    tag_241:\n        /* \"#utility.yul\":10410:10919   */\n      pop\n        /* \"#utility.yul\":10363:10919   */\n      swap3\n      swap2\n      pop\n      pop\n      jump\t// out\n\n    auxdata: 0xa26469706673582212204e76881b6f66550a1e338628e284e8896bdf0763fcf7adc1430a6369812d647d64736f6c63430008120033\n}\n",
				"bytecode": {
					"linkReferences": {},
					"object": "6080604052674563918244f40000600055600060015534801561002157600080fd5b50610d0c806100316000396000f3fe6080604052600436106100555760003560e01c8063098de8201461005a5780631509c42a146100855780633e47d6f3146100b0578063b60d4288146100ed578063d4e93292146100f7578063dc0d3dff1461010e575b600080fd5b34801561006657600080fd5b5061006f61014b565b60405161007c91906106e2565b60405180910390f35b34801561009157600080fd5b5061009a610151565b6040516100a791906106e2565b60405180910390f35b3480156100bc57600080fd5b506100d760048036038101906100d29190610760565b610157565b6040516100e491906106e2565b60405180910390f35b6100f561016f565b005b34801561010357600080fd5b5061010c610286565b005b34801561011a57600080fd5b50610135600480360381019061013091906107b9565b610503565b60405161014291906107f5565b60405180910390f35b60005481565b60015481565b60036020528060005260406000206000915090505481565b61017834610542565b60018190555060005461018a34610542565b10156101cb576040517f08c379a00000000000000000000000000000000000000000000000000000000081526004016101c29061086d565b60405180910390fd5b6002339080600181540180825580915050600190039060005260206000200160009091909190916101000a81548173ffffffffffffffffffffffffffffffffffffffff021916908373ffffffffffffffffffffffffffffffffffffffff16021790555034600360003373ffffffffffffffffffffffffffffffffffffffff1673ffffffffffffffffffffffffffffffffffffffff168152602001908152602001600020600082825461027d91906108bc565b92505081905550565b60005b600280549050811015610332576000600282815481106102ac576102ab6108f0565b5b9060005260206000200160009054906101000a900473ffffffffffffffffffffffffffffffffffffffff1690506000600360008373ffffffffffffffffffffffffffffffffffffffff1673ffffffffffffffffffffffffffffffffffffffff1681526020019081526020016000208190555050808061032a9061091f565b915050610289565b50600067ffffffffffffffff81111561034e5761034d610967565b5b60405190808252806020026020018201604052801561037c5781602001602082028036833780820191505090505b5060029080519060200190610392929190610622565b503373ffffffffffffffffffffffffffffffffffffffff166108fc479081150290604051600060405180830381858888f193505050501580156103d9573d6000803e3d6000fd5b5060003373ffffffffffffffffffffffffffffffffffffffff166108fc479081150290604051600060405180830381858888f19350505050905080610453576040517f08c379a000000000000000000000000000000000000000000000000000000000815260040161044a906109e2565b60405180910390fd5b60003373ffffffffffffffffffffffffffffffffffffffff164760405161047990610a33565b60006040518083038185875af1925050503d80600081146104b6576040519150601f19603f3d011682016040523d82523d6000602084013e6104bb565b606091505b50509050806104ff576040517f08c379a00000000000000000000000000000000000000000000000000000000081526004016104f690610a94565b60405180910390fd5b5050565b6002818154811061051357600080fd5b906000526020600020016000915054906101000a900473ffffffffffffffffffffffffffffffffffffffff1681565b60008061054d610579565b905060006402540be40084836105639190610ab4565b61056d9190610b25565b90508092505050919050565b60008073694aa1769357215de4fac081bf1f309adc325306905060008173ffffffffffffffffffffffffffffffffffffffff1663feaf968c6040518163ffffffff1660e01b815260040160a060405180830381865afa1580156105e0573d6000803e3d6000fd5b505050506040513d601f19601f820116820180604052508101906106049190610be3565b5050509150506402540be4008161061b9190610c5e565b9250505090565b82805482825590600052602060002090810192821561069b579160200282015b8281111561069a5782518260006101000a81548173ffffffffffffffffffffffffffffffffffffffff021916908373ffffffffffffffffffffffffffffffffffffffff16021790555091602001919060010190610642565b5b5090506106a891906106ac565b5090565b5b808211156106c55760008160009055506001016106ad565b5090565b6000819050919050565b6106dc816106c9565b82525050565b60006020820190506106f760008301846106d3565b92915050565b600080fd5b600073ffffffffffffffffffffffffffffffffffffffff82169050919050565b600061072d82610702565b9050919050565b61073d81610722565b811461074857600080fd5b50565b60008135905061075a81610734565b92915050565b600060208284031215610776576107756106fd565b5b60006107848482850161074b565b91505092915050565b610796816106c9565b81146107a157600080fd5b50565b6000813590506107b38161078d565b92915050565b6000602082840312156107cf576107ce6106fd565b5b60006107dd848285016107a4565b91505092915050565b6107ef81610722565b82525050565b600060208201905061080a60008301846107e6565b92915050565b600082825260208201905092915050565b7f6469646e27742073656e6420656e6f7567682065746800000000000000000000600082015250565b6000610857601683610810565b915061086282610821565b602082019050919050565b600060208201905081810360008301526108868161084a565b9050919050565b7f4e487b7100000000000000000000000000000000000000000000000000000000600052601160045260246000fd5b60006108c7826106c9565b91506108d2836106c9565b92508282019050808211156108ea576108e961088d565b5b92915050565b7f4e487b7100000000000000000000000000000000000000000000000000000000600052603260045260246000fd5b600061092a826106c9565b91507fffffffffffffffffffffffffffffffffffffffffffffffffffffffffffffffff820361095c5761095b61088d565b5b600182019050919050565b7f4e487b7100000000000000000000000000000000000000000000000000000000600052604160045260246000fd5b7f53656e64206661696c6564000000000000000000000000000000000000000000600082015250565b60006109cc600b83610810565b91506109d782610996565b602082019050919050565b600060208201905081810360008301526109fb816109bf565b9050919050565b600081905092915050565b50565b6000610a1d600083610a02565b9150610a2882610a0d565b600082019050919050565b6000610a3e82610a10565b9150819050919050565b7f43616c6c206661696c6564000000000000000000000000000000000000000000600082015250565b6000610a7e600b83610810565b9150610a8982610a48565b602082019050919050565b60006020820190508181036000830152610aad81610a71565b9050919050565b6000610abf826106c9565b9150610aca836106c9565b9250828202610ad8816106c9565b91508282048414831517610aef57610aee61088d565b5b5092915050565b7f4e487b7100000000000000000000000000000000000000000000000000000000600052601260045260246000fd5b6000610b30826106c9565b9150610b3b836106c9565b925082610b4b57610b4a610af6565b5b828204905092915050565b600069ffffffffffffffffffff82169050919050565b610b7581610b56565b8114610b8057600080fd5b50565b600081519050610b9281610b6c565b92915050565b6000819050919050565b610bab81610b98565b8114610bb657600080fd5b50565b600081519050610bc881610ba2565b92915050565b600081519050610bdd8161078d565b92915050565b600080600080600060a08688031215610bff57610bfe6106fd565b5b6000610c0d88828901610b83565b9550506020610c1e88828901610bb9565b9450506040610c2f88828901610bce565b9350506060610c4088828901610bce565b9250506080610c5188828901610b83565b9150509295509295909350565b6000610c6982610b98565b9150610c7483610b98565b9250828202610c8281610b98565b91507f80000000000000000000000000000000000000000000000000000000000000008414600084121615610cba57610cb961088d565b5b8282058414831517610ccf57610cce61088d565b5b509291505056fea26469706673582212204e76881b6f66550a1e338628e284e8896bdf0763fcf7adc1430a6369812d647d64736f6c63430008120033",
					"opcodes": "PUSH1 0x80 PUSH1 0x40 MSTORE PUSH8 0x4563918244F40000 PUSH1 0x0 SSTORE PUSH1 0x0 PUSH1 0x1 SSTORE CALLVALUE DUP1 ISZERO PUSH2 0x21 JUMPI PUSH1 0x0 DUP1 REVERT JUMPDEST POP PUSH2 0xD0C DUP1 PUSH2 0x31 PUSH1 0x0 CODECOPY PUSH1 0x0 RETURN INVALID PUSH1 0x80 PUSH1 0x40 MSTORE PUSH1 0x4 CALLDATASIZE LT PUSH2 0x55 JUMPI PUSH1 0x0 CALLDATALOAD PUSH1 0xE0 SHR DUP1 PUSH4 0x98DE820 EQ PUSH2 0x5A JUMPI DUP1 PUSH4 0x1509C42A EQ PUSH2 0x85 JUMPI DUP1 PUSH4 0x3E47D6F3 EQ PUSH2 0xB0 JUMPI DUP1 PUSH4 0xB60D4288 EQ PUSH2 0xED JUMPI DUP1 PUSH4 0xD4E93292 EQ PUSH2 0xF7 JUMPI DUP1 PUSH4 0xDC0D3DFF EQ PUSH2 0x10E JUMPI JUMPDEST PUSH1 0x0 DUP1 REVERT JUMPDEST CALLVALUE DUP1 ISZERO PUSH2 0x66 JUMPI PUSH1 0x0 DUP1 REVERT JUMPDEST POP PUSH2 0x6F PUSH2 0x14B JUMP JUMPDEST PUSH1 0x40 MLOAD PUSH2 0x7C SWAP2 SWAP1 PUSH2 0x6E2 JUMP JUMPDEST PUSH1 0x40 MLOAD DUP1 SWAP2 SUB SWAP1 RETURN JUMPDEST CALLVALUE DUP1 ISZERO PUSH2 0x91 JUMPI PUSH1 0x0 DUP1 REVERT JUMPDEST POP PUSH2 0x9A PUSH2 0x151 JUMP JUMPDEST PUSH1 0x40 MLOAD PUSH2 0xA7 SWAP2 SWAP1 PUSH2 0x6E2 JUMP JUMPDEST PUSH1 0x40 MLOAD DUP1 SWAP2 SUB SWAP1 RETURN JUMPDEST CALLVALUE DUP1 ISZERO PUSH2 0xBC JUMPI PUSH1 0x0 DUP1 REVERT JUMPDEST POP PUSH2 0xD7 PUSH1 0x4 DUP1 CALLDATASIZE SUB DUP2 ADD SWAP1 PUSH2 0xD2 SWAP2 SWAP1 PUSH2 0x760 JUMP JUMPDEST PUSH2 0x157 JUMP JUMPDEST PUSH1 0x40 MLOAD PUSH2 0xE4 SWAP2 SWAP1 PUSH2 0x6E2 JUMP JUMPDEST PUSH1 0x40 MLOAD DUP1 SWAP2 SUB SWAP1 RETURN JUMPDEST PUSH2 0xF5 PUSH2 0x16F JUMP JUMPDEST STOP JUMPDEST CALLVALUE DUP1 ISZERO PUSH2 0x103 JUMPI PUSH1 0x0 DUP1 REVERT JUMPDEST POP PUSH2 0x10C PUSH2 0x286 JUMP JUMPDEST STOP JUMPDEST CALLVALUE DUP1 ISZERO PUSH2 0x11A JUMPI PUSH1 0x0 DUP1 REVERT JUMPDEST POP PUSH2 0x135 PUSH1 0x4 DUP1 CALLDATASIZE SUB DUP2 ADD SWAP1 PUSH2 0x130 SWAP2 SWAP1 PUSH2 0x7B9 JUMP JUMPDEST PUSH2 0x503 JUMP JUMPDEST PUSH1 0x40 MLOAD PUSH2 0x142 SWAP2 SWAP1 PUSH2 0x7F5 JUMP JUMPDEST PUSH1 0x40 MLOAD DUP1 SWAP2 SUB SWAP1 RETURN JUMPDEST PUSH1 0x0 SLOAD DUP2 JUMP JUMPDEST PUSH1 0x1 SLOAD DUP2 JUMP JUMPDEST PUSH1 0x3 PUSH1 0x20 MSTORE DUP1 PUSH1 0x0 MSTORE PUSH1 0x40 PUSH1 0x0 KECCAK256 PUSH1 0x0 SWAP2 POP SWAP1 POP SLOAD DUP2 JUMP JUMPDEST PUSH2 0x178 CALLVALUE PUSH2 0x542 JUMP JUMPDEST PUSH1 0x1 DUP2 SWAP1 SSTORE POP PUSH1 0x0 SLOAD PUSH2 0x18A CALLVALUE PUSH2 0x542 JUMP JUMPDEST LT ISZERO PUSH2 0x1CB JUMPI PUSH1 0x40 MLOAD PUSH32 0x8C379A000000000000000000000000000000000000000000000000000000000 DUP2 MSTORE PUSH1 0x4 ADD PUSH2 0x1C2 SWAP1 PUSH2 0x86D JUMP JUMPDEST PUSH1 0x40 MLOAD DUP1 SWAP2 SUB SWAP1 REVERT JUMPDEST PUSH1 0x2 CALLER SWAP1 DUP1 PUSH1 0x1 DUP2 SLOAD ADD DUP1 DUP3 SSTORE DUP1 SWAP2 POP POP PUSH1 0x1 SWAP1 SUB SWAP1 PUSH1 0x0 MSTORE PUSH1 0x20 PUSH1 0x0 KECCAK256 ADD PUSH1 0x0 SWAP1 SWAP2 SWAP1 SWAP2 SWAP1 SWAP2 PUSH2 0x100 EXP DUP2 SLOAD DUP2 PUSH20 0xFFFFFFFFFFFFFFFFFFFFFFFFFFFFFFFFFFFFFFFF MUL NOT AND SWAP1 DUP4 PUSH20 0xFFFFFFFFFFFFFFFFFFFFFFFFFFFFFFFFFFFFFFFF AND MUL OR SWAP1 SSTORE POP CALLVALUE PUSH1 0x3 PUSH1 0x0 CALLER PUSH20 0xFFFFFFFFFFFFFFFFFFFFFFFFFFFFFFFFFFFFFFFF AND PUSH20 0xFFFFFFFFFFFFFFFFFFFFFFFFFFFFFFFFFFFFFFFF AND DUP2 MSTORE PUSH1 0x20 ADD SWAP1 DUP2 MSTORE PUSH1 0x20 ADD PUSH1 0x0 KECCAK256 PUSH1 0x0 DUP3 DUP3 SLOAD PUSH2 0x27D SWAP2 SWAP1 PUSH2 0x8BC JUMP JUMPDEST SWAP3 POP POP DUP2 SWAP1 SSTORE POP JUMP JUMPDEST PUSH1 0x0 JUMPDEST PUSH1 0x2 DUP1 SLOAD SWAP1 POP DUP2 LT ISZERO PUSH2 0x332 JUMPI PUSH1 0x0 PUSH1 0x2 DUP3 DUP2 SLOAD DUP2 LT PUSH2 0x2AC JUMPI PUSH2 0x2AB PUSH2 0x8F0 JUMP JUMPDEST JUMPDEST SWAP1 PUSH1 0x0 MSTORE PUSH1 0x20 PUSH1 0x0 KECCAK256 ADD PUSH1 0x0 SWAP1 SLOAD SWAP1 PUSH2 0x100 EXP SWAP1 DIV PUSH20 0xFFFFFFFFFFFFFFFFFFFFFFFFFFFFFFFFFFFFFFFF AND SWAP1 POP PUSH1 0x0 PUSH1 0x3 PUSH1 0x0 DUP4 PUSH20 0xFFFFFFFFFFFFFFFFFFFFFFFFFFFFFFFFFFFFFFFF AND PUSH20 0xFFFFFFFFFFFFFFFFFFFFFFFFFFFFFFFFFFFFFFFF AND DUP2 MSTORE PUSH1 0x20 ADD SWAP1 DUP2 MSTORE PUSH1 0x20 ADD PUSH1 0x0 KECCAK256 DUP2 SWAP1 SSTORE POP POP DUP1 DUP1 PUSH2 0x32A SWAP1 PUSH2 0x91F JUMP JUMPDEST SWAP2 POP POP PUSH2 0x289 JUMP JUMPDEST POP PUSH1 0x0 PUSH8 0xFFFFFFFFFFFFFFFF DUP2 GT ISZERO PUSH2 0x34E JUMPI PUSH2 0x34D PUSH2 0x967 JUMP JUMPDEST JUMPDEST PUSH1 0x40 MLOAD SWAP1 DUP1 DUP3 MSTORE DUP1 PUSH1 0x20 MUL PUSH1 0x20 ADD DUP3 ADD PUSH1 0x40 MSTORE DUP1 ISZERO PUSH2 0x37C JUMPI DUP2 PUSH1 0x20 ADD PUSH1 0x20 DUP3 MUL DUP1 CALLDATASIZE DUP4 CALLDATACOPY DUP1 DUP3 ADD SWAP2 POP POP SWAP1 POP JUMPDEST POP PUSH1 0x2 SWAP1 DUP1 MLOAD SWAP1 PUSH1 0x20 ADD SWAP1 PUSH2 0x392 SWAP3 SWAP2 SWAP1 PUSH2 0x622 JUMP JUMPDEST POP CALLER PUSH20 0xFFFFFFFFFFFFFFFFFFFFFFFFFFFFFFFFFFFFFFFF AND PUSH2 0x8FC SELFBALANCE SWAP1 DUP2 ISZERO MUL SWAP1 PUSH1 0x40 MLOAD PUSH1 0x0 PUSH1 0x40 MLOAD DUP1 DUP4 SUB DUP2 DUP6 DUP9 DUP9 CALL SWAP4 POP POP POP POP ISZERO DUP1 ISZERO PUSH2 0x3D9 JUMPI RETURNDATASIZE PUSH1 0x0 DUP1 RETURNDATACOPY RETURNDATASIZE PUSH1 0x0 REVERT JUMPDEST POP PUSH1 0x0 CALLER PUSH20 0xFFFFFFFFFFFFFFFFFFFFFFFFFFFFFFFFFFFFFFFF AND PUSH2 0x8FC SELFBALANCE SWAP1 DUP2 ISZERO MUL SWAP1 PUSH1 0x40 MLOAD PUSH1 0x0 PUSH1 0x40 MLOAD DUP1 DUP4 SUB DUP2 DUP6 DUP9 DUP9 CALL SWAP4 POP POP POP POP SWAP1 POP DUP1 PUSH2 0x453 JUMPI PUSH1 0x40 MLOAD PUSH32 0x8C379A000000000000000000000000000000000000000000000000000000000 DUP2 MSTORE PUSH1 0x4 ADD PUSH2 0x44A SWAP1 PUSH2 0x9E2 JUMP JUMPDEST PUSH1 0x40 MLOAD DUP1 SWAP2 SUB SWAP1 REVERT JUMPDEST PUSH1 0x0 CALLER PUSH20 0xFFFFFFFFFFFFFFFFFFFFFFFFFFFFFFFFFFFFFFFF AND SELFBALANCE PUSH1 0x40 MLOAD PUSH2 0x479 SWAP1 PUSH2 0xA33 JUMP JUMPDEST PUSH1 0x0 PUSH1 0x40 MLOAD DUP1 DUP4 SUB DUP2 DUP6 DUP8 GAS CALL SWAP3 POP POP POP RETURNDATASIZE DUP1 PUSH1 0x0 DUP2 EQ PUSH2 0x4B6 JUMPI PUSH1 0x40 MLOAD SWAP2 POP PUSH1 0x1F NOT PUSH1 0x3F RETURNDATASIZE ADD AND DUP3 ADD PUSH1 0x40 MSTORE RETURNDATASIZE DUP3 MSTORE RETURNDATASIZE PUSH1 0x0 PUSH1 0x20 DUP5 ADD RETURNDATACOPY PUSH2 0x4BB JUMP JUMPDEST PUSH1 0x60 SWAP2 POP JUMPDEST POP POP SWAP1 POP DUP1 PUSH2 0x4FF JUMPI PUSH1 0x40 MLOAD PUSH32 0x8C379A000000000000000000000000000000000000000000000000000000000 DUP2 MSTORE PUSH1 0x4 ADD PUSH2 0x4F6 SWAP1 PUSH2 0xA94 JUMP JUMPDEST PUSH1 0x40 MLOAD DUP1 SWAP2 SUB SWAP1 REVERT JUMPDEST POP POP JUMP JUMPDEST PUSH1 0x2 DUP2 DUP2 SLOAD DUP2 LT PUSH2 0x513 JUMPI PUSH1 0x0 DUP1 REVERT JUMPDEST SWAP1 PUSH1 0x0 MSTORE PUSH1 0x20 PUSH1 0x0 KECCAK256 ADD PUSH1 0x0 SWAP2 POP SLOAD SWAP1 PUSH2 0x100 EXP SWAP1 DIV PUSH20 0xFFFFFFFFFFFFFFFFFFFFFFFFFFFFFFFFFFFFFFFF AND DUP2 JUMP JUMPDEST PUSH1 0x0 DUP1 PUSH2 0x54D PUSH2 0x579 JUMP JUMPDEST SWAP1 POP PUSH1 0x0 PUSH5 0x2540BE400 DUP5 DUP4 PUSH2 0x563 SWAP2 SWAP1 PUSH2 0xAB4 JUMP JUMPDEST PUSH2 0x56D SWAP2 SWAP1 PUSH2 0xB25 JUMP JUMPDEST SWAP1 POP DUP1 SWAP3 POP POP POP SWAP2 SWAP1 POP JUMP JUMPDEST PUSH1 0x0 DUP1 PUSH20 0x694AA1769357215DE4FAC081BF1F309ADC325306 SWAP1 POP PUSH1 0x0 DUP2 PUSH20 0xFFFFFFFFFFFFFFFFFFFFFFFFFFFFFFFFFFFFFFFF AND PUSH4 0xFEAF968C PUSH1 0x40 MLOAD DUP2 PUSH4 0xFFFFFFFF AND PUSH1 0xE0 SHL DUP2 MSTORE PUSH1 0x4 ADD PUSH1 0xA0 PUSH1 0x40 MLOAD DUP1 DUP4 SUB DUP2 DUP7 GAS STATICCALL ISZERO DUP1 ISZERO PUSH2 0x5E0 JUMPI RETURNDATASIZE PUSH1 0x0 DUP1 RETURNDATACOPY RETURNDATASIZE PUSH1 0x0 REVERT JUMPDEST POP POP POP POP PUSH1 0x40 MLOAD RETURNDATASIZE PUSH1 0x1F NOT PUSH1 0x1F DUP3 ADD AND DUP3 ADD DUP1 PUSH1 0x40 MSTORE POP DUP2 ADD SWAP1 PUSH2 0x604 SWAP2 SWAP1 PUSH2 0xBE3 JUMP JUMPDEST POP POP POP SWAP2 POP POP PUSH5 0x2540BE400 DUP2 PUSH2 0x61B SWAP2 SWAP1 PUSH2 0xC5E JUMP JUMPDEST SWAP3 POP POP POP SWAP1 JUMP JUMPDEST DUP3 DUP1 SLOAD DUP3 DUP3 SSTORE SWAP1 PUSH1 0x0 MSTORE PUSH1 0x20 PUSH1 0x0 KECCAK256 SWAP1 DUP2 ADD SWAP3 DUP3 ISZERO PUSH2 0x69B JUMPI SWAP2 PUSH1 0x20 MUL DUP3 ADD JUMPDEST DUP3 DUP2 GT ISZERO PUSH2 0x69A JUMPI DUP3 MLOAD DUP3 PUSH1 0x0 PUSH2 0x100 EXP DUP2 SLOAD DUP2 PUSH20 0xFFFFFFFFFFFFFFFFFFFFFFFFFFFFFFFFFFFFFFFF MUL NOT AND SWAP1 DUP4 PUSH20 0xFFFFFFFFFFFFFFFFFFFFFFFFFFFFFFFFFFFFFFFF AND MUL OR SWAP1 SSTORE POP SWAP2 PUSH1 0x20 ADD SWAP2 SWAP1 PUSH1 0x1 ADD SWAP1 PUSH2 0x642 JUMP JUMPDEST JUMPDEST POP SWAP1 POP PUSH2 0x6A8 SWAP2 SWAP1 PUSH2 0x6AC JUMP JUMPDEST POP SWAP1 JUMP JUMPDEST JUMPDEST DUP1 DUP3 GT ISZERO PUSH2 0x6C5 JUMPI PUSH1 0x0 DUP2 PUSH1 0x0 SWAP1 SSTORE POP PUSH1 0x1 ADD PUSH2 0x6AD JUMP JUMPDEST POP SWAP1 JUMP JUMPDEST PUSH1 0x0 DUP2 SWAP1 POP SWAP2 SWAP1 POP JUMP JUMPDEST PUSH2 0x6DC DUP2 PUSH2 0x6C9 JUMP JUMPDEST DUP3 MSTORE POP POP JUMP JUMPDEST PUSH1 0x0 PUSH1 0x20 DUP3 ADD SWAP1 POP PUSH2 0x6F7 PUSH1 0x0 DUP4 ADD DUP5 PUSH2 0x6D3 JUMP JUMPDEST SWAP3 SWAP2 POP POP JUMP JUMPDEST PUSH1 0x0 DUP1 REVERT JUMPDEST PUSH1 0x0 PUSH20 0xFFFFFFFFFFFFFFFFFFFFFFFFFFFFFFFFFFFFFFFF DUP3 AND SWAP1 POP SWAP2 SWAP1 POP JUMP JUMPDEST PUSH1 0x0 PUSH2 0x72D DUP3 PUSH2 0x702 JUMP JUMPDEST SWAP1 POP SWAP2 SWAP1 POP JUMP JUMPDEST PUSH2 0x73D DUP2 PUSH2 0x722 JUMP JUMPDEST DUP2 EQ PUSH2 0x748 JUMPI PUSH1 0x0 DUP1 REVERT JUMPDEST POP JUMP JUMPDEST PUSH1 0x0 DUP2 CALLDATALOAD SWAP1 POP PUSH2 0x75A DUP2 PUSH2 0x734 JUMP JUMPDEST SWAP3 SWAP2 POP POP JUMP JUMPDEST PUSH1 0x0 PUSH1 0x20 DUP3 DUP5 SUB SLT ISZERO PUSH2 0x776 JUMPI PUSH2 0x775 PUSH2 0x6FD JUMP JUMPDEST JUMPDEST PUSH1 0x0 PUSH2 0x784 DUP5 DUP3 DUP6 ADD PUSH2 0x74B JUMP JUMPDEST SWAP2 POP POP SWAP3 SWAP2 POP POP JUMP JUMPDEST PUSH2 0x796 DUP2 PUSH2 0x6C9 JUMP JUMPDEST DUP2 EQ PUSH2 0x7A1 JUMPI PUSH1 0x0 DUP1 REVERT JUMPDEST POP JUMP JUMPDEST PUSH1 0x0 DUP2 CALLDATALOAD SWAP1 POP PUSH2 0x7B3 DUP2 PUSH2 0x78D JUMP JUMPDEST SWAP3 SWAP2 POP POP JUMP JUMPDEST PUSH1 0x0 PUSH1 0x20 DUP3 DUP5 SUB SLT ISZERO PUSH2 0x7CF JUMPI PUSH2 0x7CE PUSH2 0x6FD JUMP JUMPDEST JUMPDEST PUSH1 0x0 PUSH2 0x7DD DUP5 DUP3 DUP6 ADD PUSH2 0x7A4 JUMP JUMPDEST SWAP2 POP POP SWAP3 SWAP2 POP POP JUMP JUMPDEST PUSH2 0x7EF DUP2 PUSH2 0x722 JUMP JUMPDEST DUP3 MSTORE POP POP JUMP JUMPDEST PUSH1 0x0 PUSH1 0x20 DUP3 ADD SWAP1 POP PUSH2 0x80A PUSH1 0x0 DUP4 ADD DUP5 PUSH2 0x7E6 JUMP JUMPDEST SWAP3 SWAP2 POP POP JUMP JUMPDEST PUSH1 0x0 DUP3 DUP3 MSTORE PUSH1 0x20 DUP3 ADD SWAP1 POP SWAP3 SWAP2 POP POP JUMP JUMPDEST PUSH32 0x6469646E27742073656E6420656E6F7567682065746800000000000000000000 PUSH1 0x0 DUP3 ADD MSTORE POP JUMP JUMPDEST PUSH1 0x0 PUSH2 0x857 PUSH1 0x16 DUP4 PUSH2 0x810 JUMP JUMPDEST SWAP2 POP PUSH2 0x862 DUP3 PUSH2 0x821 JUMP JUMPDEST PUSH1 0x20 DUP3 ADD SWAP1 POP SWAP2 SWAP1 POP JUMP JUMPDEST PUSH1 0x0 PUSH1 0x20 DUP3 ADD SWAP1 POP DUP2 DUP2 SUB PUSH1 0x0 DUP4 ADD MSTORE PUSH2 0x886 DUP2 PUSH2 0x84A JUMP JUMPDEST SWAP1 POP SWAP2 SWAP1 POP JUMP JUMPDEST PUSH32 0x4E487B7100000000000000000000000000000000000000000000000000000000 PUSH1 0x0 MSTORE PUSH1 0x11 PUSH1 0x4 MSTORE PUSH1 0x24 PUSH1 0x0 REVERT JUMPDEST PUSH1 0x0 PUSH2 0x8C7 DUP3 PUSH2 0x6C9 JUMP JUMPDEST SWAP2 POP PUSH2 0x8D2 DUP4 PUSH2 0x6C9 JUMP JUMPDEST SWAP3 POP DUP3 DUP3 ADD SWAP1 POP DUP1 DUP3 GT ISZERO PUSH2 0x8EA JUMPI PUSH2 0x8E9 PUSH2 0x88D JUMP JUMPDEST JUMPDEST SWAP3 SWAP2 POP POP JUMP JUMPDEST PUSH32 0x4E487B7100000000000000000000000000000000000000000000000000000000 PUSH1 0x0 MSTORE PUSH1 0x32 PUSH1 0x4 MSTORE PUSH1 0x24 PUSH1 0x0 REVERT JUMPDEST PUSH1 0x0 PUSH2 0x92A DUP3 PUSH2 0x6C9 JUMP JUMPDEST SWAP2 POP PUSH32 0xFFFFFFFFFFFFFFFFFFFFFFFFFFFFFFFFFFFFFFFFFFFFFFFFFFFFFFFFFFFFFFFF DUP3 SUB PUSH2 0x95C JUMPI PUSH2 0x95B PUSH2 0x88D JUMP JUMPDEST JUMPDEST PUSH1 0x1 DUP3 ADD SWAP1 POP SWAP2 SWAP1 POP JUMP JUMPDEST PUSH32 0x4E487B7100000000000000000000000000000000000000000000000000000000 PUSH1 0x0 MSTORE PUSH1 0x41 PUSH1 0x4 MSTORE PUSH1 0x24 PUSH1 0x0 REVERT JUMPDEST PUSH32 0x53656E64206661696C6564000000000000000000000000000000000000000000 PUSH1 0x0 DUP3 ADD MSTORE POP JUMP JUMPDEST PUSH1 0x0 PUSH2 0x9CC PUSH1 0xB DUP4 PUSH2 0x810 JUMP JUMPDEST SWAP2 POP PUSH2 0x9D7 DUP3 PUSH2 0x996 JUMP JUMPDEST PUSH1 0x20 DUP3 ADD SWAP1 POP SWAP2 SWAP1 POP JUMP JUMPDEST PUSH1 0x0 PUSH1 0x20 DUP3 ADD SWAP1 POP DUP2 DUP2 SUB PUSH1 0x0 DUP4 ADD MSTORE PUSH2 0x9FB DUP2 PUSH2 0x9BF JUMP JUMPDEST SWAP1 POP SWAP2 SWAP1 POP JUMP JUMPDEST PUSH1 0x0 DUP2 SWAP1 POP SWAP3 SWAP2 POP POP JUMP JUMPDEST POP JUMP JUMPDEST PUSH1 0x0 PUSH2 0xA1D PUSH1 0x0 DUP4 PUSH2 0xA02 JUMP JUMPDEST SWAP2 POP PUSH2 0xA28 DUP3 PUSH2 0xA0D JUMP JUMPDEST PUSH1 0x0 DUP3 ADD SWAP1 POP SWAP2 SWAP1 POP JUMP JUMPDEST PUSH1 0x0 PUSH2 0xA3E DUP3 PUSH2 0xA10 JUMP JUMPDEST SWAP2 POP DUP2 SWAP1 POP SWAP2 SWAP1 POP JUMP JUMPDEST PUSH32 0x43616C6C206661696C6564000000000000000000000000000000000000000000 PUSH1 0x0 DUP3 ADD MSTORE POP JUMP JUMPDEST PUSH1 0x0 PUSH2 0xA7E PUSH1 0xB DUP4 PUSH2 0x810 JUMP JUMPDEST SWAP2 POP PUSH2 0xA89 DUP3 PUSH2 0xA48 JUMP JUMPDEST PUSH1 0x20 DUP3 ADD SWAP1 POP SWAP2 SWAP1 POP JUMP JUMPDEST PUSH1 0x0 PUSH1 0x20 DUP3 ADD SWAP1 POP DUP2 DUP2 SUB PUSH1 0x0 DUP4 ADD MSTORE PUSH2 0xAAD DUP2 PUSH2 0xA71 JUMP JUMPDEST SWAP1 POP SWAP2 SWAP1 POP JUMP JUMPDEST PUSH1 0x0 PUSH2 0xABF DUP3 PUSH2 0x6C9 JUMP JUMPDEST SWAP2 POP PUSH2 0xACA DUP4 PUSH2 0x6C9 JUMP JUMPDEST SWAP3 POP DUP3 DUP3 MUL PUSH2 0xAD8 DUP2 PUSH2 0x6C9 JUMP JUMPDEST SWAP2 POP DUP3 DUP3 DIV DUP5 EQ DUP4 ISZERO OR PUSH2 0xAEF JUMPI PUSH2 0xAEE PUSH2 0x88D JUMP JUMPDEST JUMPDEST POP SWAP3 SWAP2 POP POP JUMP JUMPDEST PUSH32 0x4E487B7100000000000000000000000000000000000000000000000000000000 PUSH1 0x0 MSTORE PUSH1 0x12 PUSH1 0x4 MSTORE PUSH1 0x24 PUSH1 0x0 REVERT JUMPDEST PUSH1 0x0 PUSH2 0xB30 DUP3 PUSH2 0x6C9 JUMP JUMPDEST SWAP2 POP PUSH2 0xB3B DUP4 PUSH2 0x6C9 JUMP JUMPDEST SWAP3 POP DUP3 PUSH2 0xB4B JUMPI PUSH2 0xB4A PUSH2 0xAF6 JUMP JUMPDEST JUMPDEST DUP3 DUP3 DIV SWAP1 POP SWAP3 SWAP2 POP POP JUMP JUMPDEST PUSH1 0x0 PUSH10 0xFFFFFFFFFFFFFFFFFFFF DUP3 AND SWAP1 POP SWAP2 SWAP1 POP JUMP JUMPDEST PUSH2 0xB75 DUP2 PUSH2 0xB56 JUMP JUMPDEST DUP2 EQ PUSH2 0xB80 JUMPI PUSH1 0x0 DUP1 REVERT JUMPDEST POP JUMP JUMPDEST PUSH1 0x0 DUP2 MLOAD SWAP1 POP PUSH2 0xB92 DUP2 PUSH2 0xB6C JUMP JUMPDEST SWAP3 SWAP2 POP POP JUMP JUMPDEST PUSH1 0x0 DUP2 SWAP1 POP SWAP2 SWAP1 POP JUMP JUMPDEST PUSH2 0xBAB DUP2 PUSH2 0xB98 JUMP JUMPDEST DUP2 EQ PUSH2 0xBB6 JUMPI PUSH1 0x0 DUP1 REVERT JUMPDEST POP JUMP JUMPDEST PUSH1 0x0 DUP2 MLOAD SWAP1 POP PUSH2 0xBC8 DUP2 PUSH2 0xBA2 JUMP JUMPDEST SWAP3 SWAP2 POP POP JUMP JUMPDEST PUSH1 0x0 DUP2 MLOAD SWAP1 POP PUSH2 0xBDD DUP2 PUSH2 0x78D JUMP JUMPDEST SWAP3 SWAP2 POP POP JUMP JUMPDEST PUSH1 0x0 DUP1 PUSH1 0x0 DUP1 PUSH1 0x0 PUSH1 0xA0 DUP7 DUP9 SUB SLT ISZERO PUSH2 0xBFF JUMPI PUSH2 0xBFE PUSH2 0x6FD JUMP JUMPDEST JUMPDEST PUSH1 0x0 PUSH2 0xC0D DUP9 DUP3 DUP10 ADD PUSH2 0xB83 JUMP JUMPDEST SWAP6 POP POP PUSH1 0x20 PUSH2 0xC1E DUP9 DUP3 DUP10 ADD PUSH2 0xBB9 JUMP JUMPDEST SWAP5 POP POP PUSH1 0x40 PUSH2 0xC2F DUP9 DUP3 DUP10 ADD PUSH2 0xBCE JUMP JUMPDEST SWAP4 POP POP PUSH1 0x60 PUSH2 0xC40 DUP9 DUP3 DUP10 ADD PUSH2 0xBCE JUMP JUMPDEST SWAP3 POP POP PUSH1 0x80 PUSH2 0xC51 DUP9 DUP3 DUP10 ADD PUSH2 0xB83 JUMP JUMPDEST SWAP2 POP POP SWAP3 SWAP6 POP SWAP3 SWAP6 SWAP1 SWAP4 POP JUMP JUMPDEST PUSH1 0x0 PUSH2 0xC69 DUP3 PUSH2 0xB98 JUMP JUMPDEST SWAP2 POP PUSH2 0xC74 DUP4 PUSH2 0xB98 JUMP JUMPDEST SWAP3 POP DUP3 DUP3 MUL PUSH2 0xC82 DUP2 PUSH2 0xB98 JUMP JUMPDEST SWAP2 POP PUSH32 0x8000000000000000000000000000000000000000000000000000000000000000 DUP5 EQ PUSH1 0x0 DUP5 SLT AND ISZERO PUSH2 0xCBA JUMPI PUSH2 0xCB9 PUSH2 0x88D JUMP JUMPDEST JUMPDEST DUP3 DUP3 SDIV DUP5 EQ DUP4 ISZERO OR PUSH2 0xCCF JUMPI PUSH2 0xCCE PUSH2 0x88D JUMP JUMPDEST JUMPDEST POP SWAP3 SWAP2 POP POP JUMP INVALID LOG2 PUSH5 0x6970667358 0x22 SLT KECCAK256 0x4E PUSH23 0x881B6F66550A1E338628E284E8896BDF0763FCF7ADC143 EXP PUSH4 0x69812D64 PUSH30 0x64736F6C6343000812003300000000000000000000000000000000000000 "
				},
				"gasEstimates": {
					"creation": {
						"codeDepositCost": "668000",
						"executionCost": "27814",
						"totalCost": "695814"
					},
					"external": {
						"addressToAmountFunded(address)": "2836",
						"fund()": "infinite",
						"funders(uint256)": "5044",
						"minimumUsd()": "2407",
						"pr()": "2429",
						"withdrawal()": "infinite"
					}
				},
				"methodIdentifiers": {
					"addressToAmountFunded(address)": "3e47d6f3",
					"fund()": "b60d4288",
					"funders(uint256)": "dc0d3dff",
					"minimumUsd()": "098de820",
					"pr()": "1509c42a",
					"withdrawal()": "d4e93292"
				}
			},
			"storageLayout": {
				"storage": [
					{
						"astId": 55,
						"contract": "contracts/cyfrin updraft/section3/FundMe.sol:FundMe",
						"label": "minimumUsd",
						"offset": 0,
						"slot": "0",
						"type": "t_uint256"
					},
					{
						"astId": 58,
						"contract": "contracts/cyfrin updraft/section3/FundMe.sol:FundMe",
						"label": "pr",
						"offset": 0,
						"slot": "1",
						"type": "t_uint256"
					},
					{
						"astId": 61,
						"contract": "contracts/cyfrin updraft/section3/FundMe.sol:FundMe",
						"label": "funders",
						"offset": 0,
						"slot": "2",
						"type": "t_array(t_address)dyn_storage"
					},
					{
						"astId": 65,
						"contract": "contracts/cyfrin updraft/section3/FundMe.sol:FundMe",
						"label": "addressToAmountFunded",
						"offset": 0,
						"slot": "3",
						"type": "t_mapping(t_address,t_uint256)"
					}
				],
				"types": {
					"t_address": {
						"encoding": "inplace",
						"label": "address",
						"numberOfBytes": "20"
					},
					"t_array(t_address)dyn_storage": {
						"base": "t_address",
						"encoding": "dynamic_array",
						"label": "address[]",
						"numberOfBytes": "32"
					},
					"t_mapping(t_address,t_uint256)": {
						"encoding": "mapping",
						"key": "t_address",
						"label": "mapping(address => uint256)",
						"numberOfBytes": "32",
						"value": "t_uint256"
					},
					"t_uint256": {
						"encoding": "inplace",
						"label": "uint256",
						"numberOfBytes": "32"
					}
				}
			},
			"userdoc": {
				"kind": "user",
				"methods": {},
				"version": 1
			}
		}
	}
}