{
	"contracts/cyfrin updraft/SimpleStorage.sol": {
		"SimpleStorage": {
			"abi": [
				{
					"inputs": [
						{
							"internalType": "string",
							"name": "_name",
							"type": "string"
						},
						{
							"internalType": "uint256",
							"name": "_age",
							"type": "uint256"
						}
					],
					"name": "createPerson",
					"outputs": [],
					"stateMutability": "nonpayable",
					"type": "function"
				},
				{
					"inputs": [],
					"name": "defaultNumber",
					"outputs": [
						{
							"internalType": "uint256",
							"name": "",
							"type": "uint256"
						}
					],
					"stateMutability": "view",
					"type": "function"
				},
				{
					"inputs": [
						{
							"internalType": "uint256",
							"name": "",
							"type": "uint256"
						}
					],
					"name": "listOfFavoriteNumbers",
					"outputs": [
						{
							"internalType": "uint256",
							"name": "",
							"type": "uint256"
						}
					],
					"stateMutability": "view",
					"type": "function"
				},
				{
					"inputs": [
						{
							"internalType": "uint256",
							"name": "",
							"type": "uint256"
						}
					],
					"name": "persons",
					"outputs": [
						{
							"internalType": "string",
							"name": "name",
							"type": "string"
						},
						{
							"internalType": "uint256",
							"name": "age",
							"type": "uint256"
						}
					],
					"stateMutability": "view",
					"type": "function"
				},
				{
					"inputs": [
						{
							"internalType": "uint256",
							"name": "_defaultNumber",
							"type": "uint256"
						}
					],
					"name": "store",
					"outputs": [],
					"stateMutability": "nonpayable",
					"type": "function"
				}
			],
			"devdoc": {
				"kind": "dev",
				"methods": {},
				"version": 1
			},
			"evm": {
				"assembly": "    /* \"contracts/cyfrin updraft/SimpleStorage.sol\":111:1073  contract SimpleStorage {... */\n  mstore(0x40, 0x80)\n    /* \"contracts/cyfrin updraft/SimpleStorage.sol\":241:246  false */\n  0x00\n    /* \"contracts/cyfrin updraft/SimpleStorage.sol\":216:246  bool hasFavoriteNumber = false */\n  dup1\n  exp(0x0100, 0x00)\n  dup2\n  sload\n  dup2\n  0xff\n  mul\n  not\n  and\n  swap1\n  dup4\n  iszero\n  iszero\n  mul\n  or\n  swap1\n  sstore\n  pop\n    /* \"contracts/cyfrin updraft/SimpleStorage.sol\":300:302  88 */\n  0x58\n    /* \"contracts/cyfrin updraft/SimpleStorage.sol\":279:302  uint favoriteNumer = 88 */\n  0x01\n  sstore\n    /* \"contracts/cyfrin updraft/SimpleStorage.sol\":364:367  -88 */\n  0xffffffffffffffffffffffffffffffffffffffffffffffffffffffffffffffa8\n    /* \"contracts/cyfrin updraft/SimpleStorage.sol\":335:367  int favoritePositiveNumber = -88 */\n  0x02\n  sstore\n    /* \"contracts/cyfrin updraft/SimpleStorage.sol\":111:1073  contract SimpleStorage {... */\n  callvalue\n  dup1\n  iszero\n  tag_1\n  jumpi\n  0x00\n  dup1\n  revert\ntag_1:\n  pop\n  dataSize(sub_0)\n  dup1\n  dataOffset(sub_0)\n  0x00\n  codecopy\n  0x00\n  return\nstop\n\nsub_0: assembly {\n        /* \"contracts/cyfrin updraft/SimpleStorage.sol\":111:1073  contract SimpleStorage {... */\n      mstore(0x40, 0x80)\n      callvalue\n      dup1\n      iszero\n      tag_1\n      jumpi\n      0x00\n      dup1\n      revert\n    tag_1:\n      pop\n      jumpi(tag_2, lt(calldatasize, 0x04))\n      shr(0xe0, calldataload(0x00))\n      dup1\n      0x1ef455c7\n      eq\n      tag_3\n      jumpi\n      dup1\n      0x6057361d\n      eq\n      tag_4\n      jumpi\n      dup1\n      0x7cbe8207\n      eq\n      tag_5\n      jumpi\n      dup1\n      0xa2f9eac6\n      eq\n      tag_6\n      jumpi\n      dup1\n      0xf4de77d3\n      eq\n      tag_7\n      jumpi\n    tag_2:\n      0x00\n      dup1\n      revert\n        /* \"contracts/cyfrin updraft/SimpleStorage.sol\":844:992  function createPerson(string calldata _name, uint256 _age) public {... */\n    tag_3:\n      tag_8\n      0x04\n      dup1\n      calldatasize\n      sub\n      dup2\n      add\n      swap1\n      tag_9\n      swap2\n      swap1\n      tag_10\n      jump\t// in\n    tag_9:\n      tag_11\n      jump\t// in\n    tag_8:\n      stop\n        /* \"contracts/cyfrin updraft/SimpleStorage.sol\":694:789  function store(uint256 _defaultNumber) public {... */\n    tag_4:\n      tag_12\n      0x04\n      dup1\n      calldatasize\n      sub\n      dup2\n      add\n      swap1\n      tag_13\n      swap2\n      swap1\n      tag_14\n      jump\t// in\n    tag_13:\n      tag_15\n      jump\t// in\n    tag_12:\n      stop\n        /* \"contracts/cyfrin updraft/SimpleStorage.sol\":426:454  uint256 public defaultNumber */\n    tag_5:\n      tag_16\n      tag_17\n      jump\t// in\n    tag_16:\n      mload(0x40)\n      tag_18\n      swap2\n      swap1\n      tag_19\n      jump\t// in\n    tag_18:\n      mload(0x40)\n      dup1\n      swap2\n      sub\n      swap1\n      return\n        /* \"contracts/cyfrin updraft/SimpleStorage.sol\":543:566  Person[] public persons */\n    tag_6:\n      tag_20\n      0x04\n      dup1\n      calldatasize\n      sub\n      dup2\n      add\n      swap1\n      tag_21\n      swap2\n      swap1\n      tag_14\n      jump\t// in\n    tag_21:\n      tag_22\n      jump\t// in\n    tag_20:\n      mload(0x40)\n      tag_23\n      swap3\n      swap2\n      swap1\n      tag_24\n      jump\t// in\n    tag_23:\n      mload(0x40)\n      dup1\n      swap2\n      sub\n      swap1\n      return\n        /* \"contracts/cyfrin updraft/SimpleStorage.sol\":478:516  uint256[] public listOfFavoriteNumbers */\n    tag_7:\n      tag_25\n      0x04\n      dup1\n      calldatasize\n      sub\n      dup2\n      add\n      swap1\n      tag_26\n      swap2\n      swap1\n      tag_14\n      jump\t// in\n    tag_26:\n      tag_27\n      jump\t// in\n    tag_25:\n      mload(0x40)\n      tag_28\n      swap2\n      swap1\n      tag_19\n      jump\t// in\n    tag_28:\n      mload(0x40)\n      dup1\n      swap2\n      sub\n      swap1\n      return\n        /* \"contracts/cyfrin updraft/SimpleStorage.sol\":844:992  function createPerson(string calldata _name, uint256 _age) public {... */\n    tag_11:\n        /* \"contracts/cyfrin updraft/SimpleStorage.sol\":921:936  Person memory p */\n      0x00\n        /* \"contracts/cyfrin updraft/SimpleStorage.sol\":939:958  Person(_name, _age) */\n      mload(0x40)\n      dup1\n      0x40\n      add\n      0x40\n      mstore\n      dup1\n        /* \"contracts/cyfrin updraft/SimpleStorage.sol\":946:951  _name */\n      dup6\n      dup6\n        /* \"contracts/cyfrin updraft/SimpleStorage.sol\":939:958  Person(_name, _age) */\n      dup1\n      dup1\n      0x1f\n      add\n      0x20\n      dup1\n      swap2\n      div\n      mul\n      0x20\n      add\n      mload(0x40)\n      swap1\n      dup2\n      add\n      0x40\n      mstore\n      dup1\n      swap4\n      swap3\n      swap2\n      swap1\n      dup2\n      dup2\n      mstore\n      0x20\n      add\n      dup4\n      dup4\n      dup1\n      dup3\n      dup5\n      calldatacopy\n      0x00\n      dup2\n      dup5\n      add\n      mstore\n      not(0x1f)\n      0x1f\n      dup3\n      add\n      and\n      swap1\n      pop\n      dup1\n      dup4\n      add\n      swap3\n      pop\n      pop\n      pop\n      pop\n      pop\n      pop\n      pop\n      dup2\n      mstore\n      0x20\n      add\n        /* \"contracts/cyfrin updraft/SimpleStorage.sol\":953:957  _age */\n      dup4\n        /* \"contracts/cyfrin updraft/SimpleStorage.sol\":939:958  Person(_name, _age) */\n      dup2\n      mstore\n      pop\n        /* \"contracts/cyfrin updraft/SimpleStorage.sol\":921:958  Person memory p = Person(_name, _age) */\n      swap1\n      pop\n        /* \"contracts/cyfrin updraft/SimpleStorage.sol\":969:976  persons */\n      0x05\n        /* \"contracts/cyfrin updraft/SimpleStorage.sol\":982:983  p */\n      dup2\n        /* \"contracts/cyfrin updraft/SimpleStorage.sol\":969:984  persons.push(p) */\n      swap1\n      dup1\n      0x01\n      dup2\n      sload\n      add\n      dup1\n      dup3\n      sstore\n      dup1\n      swap2\n      pop\n      pop\n      0x01\n      swap1\n      sub\n      swap1\n      0x00\n      mstore\n      keccak256(0x00, 0x20)\n      swap1\n      0x02\n      mul\n      add\n      0x00\n      swap1\n      swap2\n      swap1\n      swap2\n      swap1\n      swap2\n      pop\n      0x00\n      dup3\n      add\n      mload\n      dup2\n      0x00\n      add\n      swap1\n      dup2\n      tag_31\n      swap2\n      swap1\n      tag_32\n      jump\t// in\n    tag_31:\n      pop\n      0x20\n      dup3\n      add\n      mload\n      dup2\n      0x01\n      add\n      sstore\n      pop\n      pop\n        /* \"contracts/cyfrin updraft/SimpleStorage.sol\":910:992  {... */\n      pop\n        /* \"contracts/cyfrin updraft/SimpleStorage.sol\":844:992  function createPerson(string calldata _name, uint256 _age) public {... */\n      pop\n      pop\n      pop\n      jump\t// out\n        /* \"contracts/cyfrin updraft/SimpleStorage.sol\":694:789  function store(uint256 _defaultNumber) public {... */\n    tag_15:\n        /* \"contracts/cyfrin updraft/SimpleStorage.sol\":767:781  _defaultNumber */\n      dup1\n        /* \"contracts/cyfrin updraft/SimpleStorage.sol\":751:764  defaultNumber */\n      0x03\n        /* \"contracts/cyfrin updraft/SimpleStorage.sol\":751:781  defaultNumber = _defaultNumber */\n      dup2\n      swap1\n      sstore\n      pop\n        /* \"contracts/cyfrin updraft/SimpleStorage.sol\":694:789  function store(uint256 _defaultNumber) public {... */\n      pop\n      jump\t// out\n        /* \"contracts/cyfrin updraft/SimpleStorage.sol\":426:454  uint256 public defaultNumber */\n    tag_17:\n      sload(0x03)\n      dup2\n      jump\t// out\n        /* \"contracts/cyfrin updraft/SimpleStorage.sol\":543:566  Person[] public persons */\n    tag_22:\n      0x05\n      dup2\n      dup2\n      sload\n      dup2\n      lt\n      tag_34\n      jumpi\n      0x00\n      dup1\n      revert\n    tag_34:\n      swap1\n      0x00\n      mstore\n      keccak256(0x00, 0x20)\n      swap1\n      0x02\n      mul\n      add\n      0x00\n      swap2\n      pop\n      swap1\n      pop\n      dup1\n      0x00\n      add\n      dup1\n      sload\n      tag_36\n      swap1\n      tag_37\n      jump\t// in\n    tag_36:\n      dup1\n      0x1f\n      add\n      0x20\n      dup1\n      swap2\n      div\n      mul\n      0x20\n      add\n      mload(0x40)\n      swap1\n      dup2\n      add\n      0x40\n      mstore\n      dup1\n      swap3\n      swap2\n      swap1\n      dup2\n      dup2\n      mstore\n      0x20\n      add\n      dup3\n      dup1\n      sload\n      tag_38\n      swap1\n      tag_37\n      jump\t// in\n    tag_38:\n      dup1\n      iszero\n      tag_39\n      jumpi\n      dup1\n      0x1f\n      lt\n      tag_40\n      jumpi\n      0x0100\n      dup1\n      dup4\n      sload\n      div\n      mul\n      dup4\n      mstore\n      swap2\n      0x20\n      add\n      swap2\n      jump(tag_39)\n    tag_40:\n      dup3\n      add\n      swap2\n      swap1\n      0x00\n      mstore\n      keccak256(0x00, 0x20)\n      swap1\n    tag_41:\n      dup2\n      sload\n      dup2\n      mstore\n      swap1\n      0x01\n      add\n      swap1\n      0x20\n      add\n      dup1\n      dup4\n      gt\n      tag_41\n      jumpi\n      dup3\n      swap1\n      sub\n      0x1f\n      and\n      dup3\n      add\n      swap2\n    tag_39:\n      pop\n      pop\n      pop\n      pop\n      pop\n      swap1\n      dup1\n      0x01\n      add\n      sload\n      swap1\n      pop\n      dup3\n      jump\t// out\n        /* \"contracts/cyfrin updraft/SimpleStorage.sol\":478:516  uint256[] public listOfFavoriteNumbers */\n    tag_27:\n      0x04\n      dup2\n      dup2\n      sload\n      dup2\n      lt\n      tag_42\n      jumpi\n      0x00\n      dup1\n      revert\n    tag_42:\n      swap1\n      0x00\n      mstore\n      keccak256(0x00, 0x20)\n      add\n      0x00\n      swap2\n      pop\n      swap1\n      pop\n      sload\n      dup2\n      jump\t// out\n        /* \"#utility.yul\":88:205   */\n    tag_45:\n        /* \"#utility.yul\":197:198   */\n      0x00\n        /* \"#utility.yul\":194:195   */\n      dup1\n        /* \"#utility.yul\":187:199   */\n      revert\n        /* \"#utility.yul\":211:328   */\n    tag_46:\n        /* \"#utility.yul\":320:321   */\n      0x00\n        /* \"#utility.yul\":317:318   */\n      dup1\n        /* \"#utility.yul\":310:322   */\n      revert\n        /* \"#utility.yul\":334:451   */\n    tag_47:\n        /* \"#utility.yul\":443:444   */\n      0x00\n        /* \"#utility.yul\":440:441   */\n      dup1\n        /* \"#utility.yul\":433:445   */\n      revert\n        /* \"#utility.yul\":457:574   */\n    tag_48:\n        /* \"#utility.yul\":566:567   */\n      0x00\n        /* \"#utility.yul\":563:564   */\n      dup1\n        /* \"#utility.yul\":556:568   */\n      revert\n        /* \"#utility.yul\":580:697   */\n    tag_49:\n        /* \"#utility.yul\":689:690   */\n      0x00\n        /* \"#utility.yul\":686:687   */\n      dup1\n        /* \"#utility.yul\":679:691   */\n      revert\n        /* \"#utility.yul\":717:1270   */\n    tag_50:\n        /* \"#utility.yul\":775:783   */\n      0x00\n        /* \"#utility.yul\":785:791   */\n      dup1\n        /* \"#utility.yul\":835:838   */\n      dup4\n        /* \"#utility.yul\":828:832   */\n      0x1f\n        /* \"#utility.yul\":820:826   */\n      dup5\n        /* \"#utility.yul\":816:833   */\n      add\n        /* \"#utility.yul\":812:839   */\n      slt\n        /* \"#utility.yul\":802:924   */\n      tag_85\n      jumpi\n        /* \"#utility.yul\":843:922   */\n      tag_86\n      tag_47\n      jump\t// in\n    tag_86:\n        /* \"#utility.yul\":802:924   */\n    tag_85:\n        /* \"#utility.yul\":956:962   */\n      dup3\n        /* \"#utility.yul\":943:963   */\n      calldataload\n        /* \"#utility.yul\":933:963   */\n      swap1\n      pop\n        /* \"#utility.yul\":986:1004   */\n      0xffffffffffffffff\n        /* \"#utility.yul\":978:984   */\n      dup2\n        /* \"#utility.yul\":975:1005   */\n      gt\n        /* \"#utility.yul\":972:1089   */\n      iszero\n      tag_87\n      jumpi\n        /* \"#utility.yul\":1008:1087   */\n      tag_88\n      tag_48\n      jump\t// in\n    tag_88:\n        /* \"#utility.yul\":972:1089   */\n    tag_87:\n        /* \"#utility.yul\":1122:1126   */\n      0x20\n        /* \"#utility.yul\":1114:1120   */\n      dup4\n        /* \"#utility.yul\":1110:1127   */\n      add\n        /* \"#utility.yul\":1098:1127   */\n      swap2\n      pop\n        /* \"#utility.yul\":1176:1179   */\n      dup4\n        /* \"#utility.yul\":1168:1172   */\n      0x01\n        /* \"#utility.yul\":1160:1166   */\n      dup3\n        /* \"#utility.yul\":1156:1173   */\n      mul\n        /* \"#utility.yul\":1146:1154   */\n      dup4\n        /* \"#utility.yul\":1142:1174   */\n      add\n        /* \"#utility.yul\":1139:1180   */\n      gt\n        /* \"#utility.yul\":1136:1264   */\n      iszero\n      tag_89\n      jumpi\n        /* \"#utility.yul\":1183:1262   */\n      tag_90\n      tag_49\n      jump\t// in\n    tag_90:\n        /* \"#utility.yul\":1136:1264   */\n    tag_89:\n        /* \"#utility.yul\":717:1270   */\n      swap3\n      pop\n      swap3\n      swap1\n      pop\n      jump\t// out\n        /* \"#utility.yul\":1276:1353   */\n    tag_51:\n        /* \"#utility.yul\":1313:1320   */\n      0x00\n        /* \"#utility.yul\":1342:1347   */\n      dup2\n        /* \"#utility.yul\":1331:1347   */\n      swap1\n      pop\n        /* \"#utility.yul\":1276:1353   */\n      swap2\n      swap1\n      pop\n      jump\t// out\n        /* \"#utility.yul\":1359:1481   */\n    tag_52:\n        /* \"#utility.yul\":1432:1456   */\n      tag_93\n        /* \"#utility.yul\":1450:1455   */\n      dup2\n        /* \"#utility.yul\":1432:1456   */\n      tag_51\n      jump\t// in\n    tag_93:\n        /* \"#utility.yul\":1425:1430   */\n      dup2\n        /* \"#utility.yul\":1422:1457   */\n      eq\n        /* \"#utility.yul\":1412:1475   */\n      tag_94\n      jumpi\n        /* \"#utility.yul\":1471:1472   */\n      0x00\n        /* \"#utility.yul\":1468:1469   */\n      dup1\n        /* \"#utility.yul\":1461:1473   */\n      revert\n        /* \"#utility.yul\":1412:1475   */\n    tag_94:\n        /* \"#utility.yul\":1359:1481   */\n      pop\n      jump\t// out\n        /* \"#utility.yul\":1487:1626   */\n    tag_53:\n        /* \"#utility.yul\":1533:1538   */\n      0x00\n        /* \"#utility.yul\":1571:1577   */\n      dup2\n        /* \"#utility.yul\":1558:1578   */\n      calldataload\n        /* \"#utility.yul\":1549:1578   */\n      swap1\n      pop\n        /* \"#utility.yul\":1587:1620   */\n      tag_96\n        /* \"#utility.yul\":1614:1619   */\n      dup2\n        /* \"#utility.yul\":1587:1620   */\n      tag_52\n      jump\t// in\n    tag_96:\n        /* \"#utility.yul\":1487:1626   */\n      swap3\n      swap2\n      pop\n      pop\n      jump\t// out\n        /* \"#utility.yul\":1632:2306   */\n    tag_10:\n        /* \"#utility.yul\":1712:1718   */\n      0x00\n        /* \"#utility.yul\":1720:1726   */\n      dup1\n        /* \"#utility.yul\":1728:1734   */\n      0x00\n        /* \"#utility.yul\":1777:1779   */\n      0x40\n        /* \"#utility.yul\":1765:1774   */\n      dup5\n        /* \"#utility.yul\":1756:1763   */\n      dup7\n        /* \"#utility.yul\":1752:1775   */\n      sub\n        /* \"#utility.yul\":1748:1780   */\n      slt\n        /* \"#utility.yul\":1745:1864   */\n      iszero\n      tag_98\n      jumpi\n        /* \"#utility.yul\":1783:1862   */\n      tag_99\n      tag_45\n      jump\t// in\n    tag_99:\n        /* \"#utility.yul\":1745:1864   */\n    tag_98:\n        /* \"#utility.yul\":1931:1932   */\n      0x00\n        /* \"#utility.yul\":1920:1929   */\n      dup5\n        /* \"#utility.yul\":1916:1933   */\n      add\n        /* \"#utility.yul\":1903:1934   */\n      calldataload\n        /* \"#utility.yul\":1961:1979   */\n      0xffffffffffffffff\n        /* \"#utility.yul\":1953:1959   */\n      dup2\n        /* \"#utility.yul\":1950:1980   */\n      gt\n        /* \"#utility.yul\":1947:2064   */\n      iszero\n      tag_100\n      jumpi\n        /* \"#utility.yul\":1983:2062   */\n      tag_101\n      tag_46\n      jump\t// in\n    tag_101:\n        /* \"#utility.yul\":1947:2064   */\n    tag_100:\n        /* \"#utility.yul\":2096:2161   */\n      tag_102\n        /* \"#utility.yul\":2153:2160   */\n      dup7\n        /* \"#utility.yul\":2144:2150   */\n      dup3\n        /* \"#utility.yul\":2133:2142   */\n      dup8\n        /* \"#utility.yul\":2129:2151   */\n      add\n        /* \"#utility.yul\":2096:2161   */\n      tag_50\n      jump\t// in\n    tag_102:\n        /* \"#utility.yul\":2078:2161   */\n      swap4\n      pop\n      swap4\n      pop\n        /* \"#utility.yul\":1874:2171   */\n      pop\n        /* \"#utility.yul\":2210:2212   */\n      0x20\n        /* \"#utility.yul\":2236:2289   */\n      tag_103\n        /* \"#utility.yul\":2281:2288   */\n      dup7\n        /* \"#utility.yul\":2272:2278   */\n      dup3\n        /* \"#utility.yul\":2261:2270   */\n      dup8\n        /* \"#utility.yul\":2257:2279   */\n      add\n        /* \"#utility.yul\":2236:2289   */\n      tag_53\n      jump\t// in\n    tag_103:\n        /* \"#utility.yul\":2226:2289   */\n      swap2\n      pop\n        /* \"#utility.yul\":2181:2299   */\n      pop\n        /* \"#utility.yul\":1632:2306   */\n      swap3\n      pop\n      swap3\n      pop\n      swap3\n      jump\t// out\n        /* \"#utility.yul\":2312:2641   */\n    tag_14:\n        /* \"#utility.yul\":2371:2377   */\n      0x00\n        /* \"#utility.yul\":2420:2422   */\n      0x20\n        /* \"#utility.yul\":2408:2417   */\n      dup3\n        /* \"#utility.yul\":2399:2406   */\n      dup5\n        /* \"#utility.yul\":2395:2418   */\n      sub\n        /* \"#utility.yul\":2391:2423   */\n      slt\n        /* \"#utility.yul\":2388:2507   */\n      iszero\n      tag_105\n      jumpi\n        /* \"#utility.yul\":2426:2505   */\n      tag_106\n      tag_45\n      jump\t// in\n    tag_106:\n        /* \"#utility.yul\":2388:2507   */\n    tag_105:\n        /* \"#utility.yul\":2546:2547   */\n      0x00\n        /* \"#utility.yul\":2571:2624   */\n      tag_107\n        /* \"#utility.yul\":2616:2623   */\n      dup5\n        /* \"#utility.yul\":2607:2613   */\n      dup3\n        /* \"#utility.yul\":2596:2605   */\n      dup6\n        /* \"#utility.yul\":2592:2614   */\n      add\n        /* \"#utility.yul\":2571:2624   */\n      tag_53\n      jump\t// in\n    tag_107:\n        /* \"#utility.yul\":2561:2624   */\n      swap2\n      pop\n        /* \"#utility.yul\":2517:2634   */\n      pop\n        /* \"#utility.yul\":2312:2641   */\n      swap3\n      swap2\n      pop\n      pop\n      jump\t// out\n        /* \"#utility.yul\":2647:2765   */\n    tag_54:\n        /* \"#utility.yul\":2734:2758   */\n      tag_109\n        /* \"#utility.yul\":2752:2757   */\n      dup2\n        /* \"#utility.yul\":2734:2758   */\n      tag_51\n      jump\t// in\n    tag_109:\n        /* \"#utility.yul\":2729:2732   */\n      dup3\n        /* \"#utility.yul\":2722:2759   */\n      mstore\n        /* \"#utility.yul\":2647:2765   */\n      pop\n      pop\n      jump\t// out\n        /* \"#utility.yul\":2771:2993   */\n    tag_19:\n        /* \"#utility.yul\":2864:2868   */\n      0x00\n        /* \"#utility.yul\":2902:2904   */\n      0x20\n        /* \"#utility.yul\":2891:2900   */\n      dup3\n        /* \"#utility.yul\":2887:2905   */\n      add\n        /* \"#utility.yul\":2879:2905   */\n      swap1\n      pop\n        /* \"#utility.yul\":2915:2986   */\n      tag_111\n        /* \"#utility.yul\":2983:2984   */\n      0x00\n        /* \"#utility.yul\":2972:2981   */\n      dup4\n        /* \"#utility.yul\":2968:2985   */\n      add\n        /* \"#utility.yul\":2959:2965   */\n      dup5\n        /* \"#utility.yul\":2915:2986   */\n      tag_54\n      jump\t// in\n    tag_111:\n        /* \"#utility.yul\":2771:2993   */\n      swap3\n      swap2\n      pop\n      pop\n      jump\t// out\n        /* \"#utility.yul\":2999:3098   */\n    tag_55:\n        /* \"#utility.yul\":3051:3057   */\n      0x00\n        /* \"#utility.yul\":3085:3090   */\n      dup2\n        /* \"#utility.yul\":3079:3091   */\n      mload\n        /* \"#utility.yul\":3069:3091   */\n      swap1\n      pop\n        /* \"#utility.yul\":2999:3098   */\n      swap2\n      swap1\n      pop\n      jump\t// out\n        /* \"#utility.yul\":3104:3273   */\n    tag_56:\n        /* \"#utility.yul\":3188:3199   */\n      0x00\n        /* \"#utility.yul\":3222:3228   */\n      dup3\n        /* \"#utility.yul\":3217:3220   */\n      dup3\n        /* \"#utility.yul\":3210:3229   */\n      mstore\n        /* \"#utility.yul\":3262:3266   */\n      0x20\n        /* \"#utility.yul\":3257:3260   */\n      dup3\n        /* \"#utility.yul\":3253:3267   */\n      add\n        /* \"#utility.yul\":3238:3267   */\n      swap1\n      pop\n        /* \"#utility.yul\":3104:3273   */\n      swap3\n      swap2\n      pop\n      pop\n      jump\t// out\n        /* \"#utility.yul\":3279:3418   */\n    tag_57:\n        /* \"#utility.yul\":3368:3374   */\n      dup3\n        /* \"#utility.yul\":3363:3366   */\n      dup2\n        /* \"#utility.yul\":3358:3361   */\n      dup4\n        /* \"#utility.yul\":3352:3375   */\n      mcopy\n        /* \"#utility.yul\":3409:3410   */\n      0x00\n        /* \"#utility.yul\":3400:3406   */\n      dup4\n        /* \"#utility.yul\":3395:3398   */\n      dup4\n        /* \"#utility.yul\":3391:3407   */\n      add\n        /* \"#utility.yul\":3384:3411   */\n      mstore\n        /* \"#utility.yul\":3279:3418   */\n      pop\n      pop\n      pop\n      jump\t// out\n        /* \"#utility.yul\":3424:3526   */\n    tag_58:\n        /* \"#utility.yul\":3465:3471   */\n      0x00\n        /* \"#utility.yul\":3516:3518   */\n      0x1f\n        /* \"#utility.yul\":3512:3519   */\n      not\n        /* \"#utility.yul\":3507:3509   */\n      0x1f\n        /* \"#utility.yul\":3500:3505   */\n      dup4\n        /* \"#utility.yul\":3496:3510   */\n      add\n        /* \"#utility.yul\":3492:3520   */\n      and\n        /* \"#utility.yul\":3482:3520   */\n      swap1\n      pop\n        /* \"#utility.yul\":3424:3526   */\n      swap2\n      swap1\n      pop\n      jump\t// out\n        /* \"#utility.yul\":3532:3909   */\n    tag_59:\n        /* \"#utility.yul\":3620:3623   */\n      0x00\n        /* \"#utility.yul\":3648:3687   */\n      tag_117\n        /* \"#utility.yul\":3681:3686   */\n      dup3\n        /* \"#utility.yul\":3648:3687   */\n      tag_55\n      jump\t// in\n    tag_117:\n        /* \"#utility.yul\":3703:3774   */\n      tag_118\n        /* \"#utility.yul\":3767:3773   */\n      dup2\n        /* \"#utility.yul\":3762:3765   */\n      dup6\n        /* \"#utility.yul\":3703:3774   */\n      tag_56\n      jump\t// in\n    tag_118:\n        /* \"#utility.yul\":3696:3774   */\n      swap4\n      pop\n        /* \"#utility.yul\":3783:3848   */\n      tag_119\n        /* \"#utility.yul\":3841:3847   */\n      dup2\n        /* \"#utility.yul\":3836:3839   */\n      dup6\n        /* \"#utility.yul\":3829:3833   */\n      0x20\n        /* \"#utility.yul\":3822:3827   */\n      dup7\n        /* \"#utility.yul\":3818:3834   */\n      add\n        /* \"#utility.yul\":3783:3848   */\n      tag_57\n      jump\t// in\n    tag_119:\n        /* \"#utility.yul\":3873:3902   */\n      tag_120\n        /* \"#utility.yul\":3895:3901   */\n      dup2\n        /* \"#utility.yul\":3873:3902   */\n      tag_58\n      jump\t// in\n    tag_120:\n        /* \"#utility.yul\":3868:3871   */\n      dup5\n        /* \"#utility.yul\":3864:3903   */\n      add\n        /* \"#utility.yul\":3857:3903   */\n      swap2\n      pop\n        /* \"#utility.yul\":3624:3909   */\n      pop\n        /* \"#utility.yul\":3532:3909   */\n      swap3\n      swap2\n      pop\n      pop\n      jump\t// out\n        /* \"#utility.yul\":3915:4338   */\n    tag_24:\n        /* \"#utility.yul\":4056:4060   */\n      0x00\n        /* \"#utility.yul\":4094:4096   */\n      0x40\n        /* \"#utility.yul\":4083:4092   */\n      dup3\n        /* \"#utility.yul\":4079:4097   */\n      add\n        /* \"#utility.yul\":4071:4097   */\n      swap1\n      pop\n        /* \"#utility.yul\":4143:4152   */\n      dup2\n        /* \"#utility.yul\":4137:4141   */\n      dup2\n        /* \"#utility.yul\":4133:4153   */\n      sub\n        /* \"#utility.yul\":4129:4130   */\n      0x00\n        /* \"#utility.yul\":4118:4127   */\n      dup4\n        /* \"#utility.yul\":4114:4131   */\n      add\n        /* \"#utility.yul\":4107:4154   */\n      mstore\n        /* \"#utility.yul\":4171:4249   */\n      tag_122\n        /* \"#utility.yul\":4244:4248   */\n      dup2\n        /* \"#utility.yul\":4235:4241   */\n      dup6\n        /* \"#utility.yul\":4171:4249   */\n      tag_59\n      jump\t// in\n    tag_122:\n        /* \"#utility.yul\":4163:4249   */\n      swap1\n      pop\n        /* \"#utility.yul\":4259:4331   */\n      tag_123\n        /* \"#utility.yul\":4327:4329   */\n      0x20\n        /* \"#utility.yul\":4316:4325   */\n      dup4\n        /* \"#utility.yul\":4312:4330   */\n      add\n        /* \"#utility.yul\":4303:4309   */\n      dup5\n        /* \"#utility.yul\":4259:4331   */\n      tag_54\n      jump\t// in\n    tag_123:\n        /* \"#utility.yul\":3915:4338   */\n      swap4\n      swap3\n      pop\n      pop\n      pop\n      jump\t// out\n        /* \"#utility.yul\":4344:4524   */\n    tag_60:\n        /* \"#utility.yul\":4392:4469   */\n      0x4e487b7100000000000000000000000000000000000000000000000000000000\n        /* \"#utility.yul\":4389:4390   */\n      0x00\n        /* \"#utility.yul\":4382:4470   */\n      mstore\n        /* \"#utility.yul\":4489:4493   */\n      0x41\n        /* \"#utility.yul\":4486:4487   */\n      0x04\n        /* \"#utility.yul\":4479:4494   */\n      mstore\n        /* \"#utility.yul\":4513:4517   */\n      0x24\n        /* \"#utility.yul\":4510:4511   */\n      0x00\n        /* \"#utility.yul\":4503:4518   */\n      revert\n        /* \"#utility.yul\":4530:4710   */\n    tag_61:\n        /* \"#utility.yul\":4578:4655   */\n      0x4e487b7100000000000000000000000000000000000000000000000000000000\n        /* \"#utility.yul\":4575:4576   */\n      0x00\n        /* \"#utility.yul\":4568:4656   */\n      mstore\n        /* \"#utility.yul\":4675:4679   */\n      0x22\n        /* \"#utility.yul\":4672:4673   */\n      0x04\n        /* \"#utility.yul\":4665:4680   */\n      mstore\n        /* \"#utility.yul\":4699:4703   */\n      0x24\n        /* \"#utility.yul\":4696:4697   */\n      0x00\n        /* \"#utility.yul\":4689:4704   */\n      revert\n        /* \"#utility.yul\":4716:5036   */\n    tag_37:\n        /* \"#utility.yul\":4760:4766   */\n      0x00\n        /* \"#utility.yul\":4797:4798   */\n      0x02\n        /* \"#utility.yul\":4791:4795   */\n      dup3\n        /* \"#utility.yul\":4787:4799   */\n      div\n        /* \"#utility.yul\":4777:4799   */\n      swap1\n      pop\n        /* \"#utility.yul\":4844:4845   */\n      0x01\n        /* \"#utility.yul\":4838:4842   */\n      dup3\n        /* \"#utility.yul\":4834:4846   */\n      and\n        /* \"#utility.yul\":4865:4883   */\n      dup1\n        /* \"#utility.yul\":4855:4936   */\n      tag_127\n      jumpi\n        /* \"#utility.yul\":4921:4925   */\n      0x7f\n        /* \"#utility.yul\":4913:4919   */\n      dup3\n        /* \"#utility.yul\":4909:4926   */\n      and\n        /* \"#utility.yul\":4899:4926   */\n      swap2\n      pop\n        /* \"#utility.yul\":4855:4936   */\n    tag_127:\n        /* \"#utility.yul\":4983:4985   */\n      0x20\n        /* \"#utility.yul\":4975:4981   */\n      dup3\n        /* \"#utility.yul\":4972:4986   */\n      lt\n        /* \"#utility.yul\":4952:4970   */\n      dup2\n        /* \"#utility.yul\":4949:4987   */\n      sub\n        /* \"#utility.yul\":4946:5030   */\n      tag_128\n      jumpi\n        /* \"#utility.yul\":5002:5020   */\n      tag_129\n      tag_61\n      jump\t// in\n    tag_129:\n        /* \"#utility.yul\":4946:5030   */\n    tag_128:\n        /* \"#utility.yul\":4767:5036   */\n      pop\n        /* \"#utility.yul\":4716:5036   */\n      swap2\n      swap1\n      pop\n      jump\t// out\n        /* \"#utility.yul\":5042:5183   */\n    tag_62:\n        /* \"#utility.yul\":5091:5095   */\n      0x00\n        /* \"#utility.yul\":5114:5117   */\n      dup2\n        /* \"#utility.yul\":5106:5117   */\n      swap1\n      pop\n        /* \"#utility.yul\":5137:5140   */\n      dup2\n        /* \"#utility.yul\":5134:5135   */\n      0x00\n        /* \"#utility.yul\":5127:5141   */\n      mstore\n        /* \"#utility.yul\":5171:5175   */\n      0x20\n        /* \"#utility.yul\":5168:5169   */\n      0x00\n        /* \"#utility.yul\":5158:5176   */\n      keccak256\n        /* \"#utility.yul\":5150:5176   */\n      swap1\n      pop\n        /* \"#utility.yul\":5042:5183   */\n      swap2\n      swap1\n      pop\n      jump\t// out\n        /* \"#utility.yul\":5189:5282   */\n    tag_63:\n        /* \"#utility.yul\":5226:5232   */\n      0x00\n        /* \"#utility.yul\":5273:5275   */\n      0x20\n        /* \"#utility.yul\":5268:5270   */\n      0x1f\n        /* \"#utility.yul\":5261:5266   */\n      dup4\n        /* \"#utility.yul\":5257:5271   */\n      add\n        /* \"#utility.yul\":5253:5276   */\n      div\n        /* \"#utility.yul\":5243:5276   */\n      swap1\n      pop\n        /* \"#utility.yul\":5189:5282   */\n      swap2\n      swap1\n      pop\n      jump\t// out\n        /* \"#utility.yul\":5288:5395   */\n    tag_64:\n        /* \"#utility.yul\":5332:5340   */\n      0x00\n        /* \"#utility.yul\":5382:5387   */\n      dup3\n        /* \"#utility.yul\":5376:5380   */\n      dup3\n        /* \"#utility.yul\":5372:5388   */\n      shl\n        /* \"#utility.yul\":5351:5388   */\n      swap1\n      pop\n        /* \"#utility.yul\":5288:5395   */\n      swap3\n      swap2\n      pop\n      pop\n      jump\t// out\n        /* \"#utility.yul\":5401:5794   */\n    tag_65:\n        /* \"#utility.yul\":5470:5476   */\n      0x00\n        /* \"#utility.yul\":5520:5521   */\n      0x08\n        /* \"#utility.yul\":5508:5518   */\n      dup4\n        /* \"#utility.yul\":5504:5522   */\n      mul\n        /* \"#utility.yul\":5543:5640   */\n      tag_134\n        /* \"#utility.yul\":5573:5639   */\n      0xffffffffffffffffffffffffffffffffffffffffffffffffffffffffffffffff\n        /* \"#utility.yul\":5562:5571   */\n      dup3\n        /* \"#utility.yul\":5543:5640   */\n      tag_64\n      jump\t// in\n    tag_134:\n        /* \"#utility.yul\":5661:5700   */\n      tag_135\n        /* \"#utility.yul\":5691:5699   */\n      dup7\n        /* \"#utility.yul\":5680:5689   */\n      dup4\n        /* \"#utility.yul\":5661:5700   */\n      tag_64\n      jump\t// in\n    tag_135:\n        /* \"#utility.yul\":5649:5700   */\n      swap6\n      pop\n        /* \"#utility.yul\":5733:5737   */\n      dup1\n        /* \"#utility.yul\":5729:5738   */\n      not\n        /* \"#utility.yul\":5722:5727   */\n      dup5\n        /* \"#utility.yul\":5718:5739   */\n      and\n        /* \"#utility.yul\":5709:5739   */\n      swap4\n      pop\n        /* \"#utility.yul\":5782:5786   */\n      dup1\n        /* \"#utility.yul\":5772:5780   */\n      dup7\n        /* \"#utility.yul\":5768:5787   */\n      and\n        /* \"#utility.yul\":5761:5766   */\n      dup5\n        /* \"#utility.yul\":5758:5788   */\n      or\n        /* \"#utility.yul\":5748:5788   */\n      swap3\n      pop\n        /* \"#utility.yul\":5477:5794   */\n      pop\n      pop\n        /* \"#utility.yul\":5401:5794   */\n      swap4\n      swap3\n      pop\n      pop\n      pop\n      jump\t// out\n        /* \"#utility.yul\":5800:5860   */\n    tag_66:\n        /* \"#utility.yul\":5828:5831   */\n      0x00\n        /* \"#utility.yul\":5849:5854   */\n      dup2\n        /* \"#utility.yul\":5842:5854   */\n      swap1\n      pop\n        /* \"#utility.yul\":5800:5860   */\n      swap2\n      swap1\n      pop\n      jump\t// out\n        /* \"#utility.yul\":5866:6008   */\n    tag_67:\n        /* \"#utility.yul\":5916:5925   */\n      0x00\n        /* \"#utility.yul\":5949:6002   */\n      tag_138\n        /* \"#utility.yul\":5967:6001   */\n      tag_139\n        /* \"#utility.yul\":5976:6000   */\n      tag_140\n        /* \"#utility.yul\":5994:5999   */\n      dup5\n        /* \"#utility.yul\":5976:6000   */\n      tag_51\n      jump\t// in\n    tag_140:\n        /* \"#utility.yul\":5967:6001   */\n      tag_66\n      jump\t// in\n    tag_139:\n        /* \"#utility.yul\":5949:6002   */\n      tag_51\n      jump\t// in\n    tag_138:\n        /* \"#utility.yul\":5936:6002   */\n      swap1\n      pop\n        /* \"#utility.yul\":5866:6008   */\n      swap2\n      swap1\n      pop\n      jump\t// out\n        /* \"#utility.yul\":6014:6089   */\n    tag_68:\n        /* \"#utility.yul\":6057:6060   */\n      0x00\n        /* \"#utility.yul\":6078:6083   */\n      dup2\n        /* \"#utility.yul\":6071:6083   */\n      swap1\n      pop\n        /* \"#utility.yul\":6014:6089   */\n      swap2\n      swap1\n      pop\n      jump\t// out\n        /* \"#utility.yul\":6095:6364   */\n    tag_69:\n        /* \"#utility.yul\":6205:6244   */\n      tag_143\n        /* \"#utility.yul\":6236:6243   */\n      dup4\n        /* \"#utility.yul\":6205:6244   */\n      tag_67\n      jump\t// in\n    tag_143:\n        /* \"#utility.yul\":6266:6357   */\n      tag_144\n        /* \"#utility.yul\":6315:6356   */\n      tag_145\n        /* \"#utility.yul\":6339:6355   */\n      dup3\n        /* \"#utility.yul\":6315:6356   */\n      tag_68\n      jump\t// in\n    tag_145:\n        /* \"#utility.yul\":6307:6313   */\n      dup5\n        /* \"#utility.yul\":6300:6304   */\n      dup5\n        /* \"#utility.yul\":6294:6305   */\n      sload\n        /* \"#utility.yul\":6266:6357   */\n      tag_65\n      jump\t// in\n    tag_144:\n        /* \"#utility.yul\":6260:6264   */\n      dup3\n        /* \"#utility.yul\":6253:6358   */\n      sstore\n        /* \"#utility.yul\":6171:6364   */\n      pop\n        /* \"#utility.yul\":6095:6364   */\n      pop\n      pop\n      pop\n      jump\t// out\n        /* \"#utility.yul\":6370:6443   */\n    tag_70:\n        /* \"#utility.yul\":6415:6418   */\n      0x00\n        /* \"#utility.yul\":6370:6443   */\n      swap1\n      jump\t// out\n        /* \"#utility.yul\":6449:6638   */\n    tag_71:\n        /* \"#utility.yul\":6526:6558   */\n      tag_148\n      tag_70\n      jump\t// in\n    tag_148:\n        /* \"#utility.yul\":6567:6632   */\n      tag_149\n        /* \"#utility.yul\":6625:6631   */\n      dup2\n        /* \"#utility.yul\":6617:6623   */\n      dup5\n        /* \"#utility.yul\":6611:6615   */\n      dup5\n        /* \"#utility.yul\":6567:6632   */\n      tag_69\n      jump\t// in\n    tag_149:\n        /* \"#utility.yul\":6502:6638   */\n      pop\n        /* \"#utility.yul\":6449:6638   */\n      pop\n      pop\n      jump\t// out\n        /* \"#utility.yul\":6644:6830   */\n    tag_72:\n        /* \"#utility.yul\":6704:6824   */\n    tag_151:\n        /* \"#utility.yul\":6721:6724   */\n      dup2\n        /* \"#utility.yul\":6714:6719   */\n      dup2\n        /* \"#utility.yul\":6711:6725   */\n      lt\n        /* \"#utility.yul\":6704:6824   */\n      iszero\n      tag_153\n      jumpi\n        /* \"#utility.yul\":6775:6814   */\n      tag_154\n        /* \"#utility.yul\":6812:6813   */\n      0x00\n        /* \"#utility.yul\":6805:6810   */\n      dup3\n        /* \"#utility.yul\":6775:6814   */\n      tag_71\n      jump\t// in\n    tag_154:\n        /* \"#utility.yul\":6748:6749   */\n      0x01\n        /* \"#utility.yul\":6741:6746   */\n      dup2\n        /* \"#utility.yul\":6737:6750   */\n      add\n        /* \"#utility.yul\":6728:6750   */\n      swap1\n      pop\n        /* \"#utility.yul\":6704:6824   */\n      jump(tag_151)\n    tag_153:\n        /* \"#utility.yul\":6644:6830   */\n      pop\n      pop\n      jump\t// out\n        /* \"#utility.yul\":6836:7379   */\n    tag_73:\n        /* \"#utility.yul\":6937:6939   */\n      0x1f\n        /* \"#utility.yul\":6932:6935   */\n      dup3\n        /* \"#utility.yul\":6929:6940   */\n      gt\n        /* \"#utility.yul\":6926:7372   */\n      iszero\n      tag_156\n      jumpi\n        /* \"#utility.yul\":6971:7009   */\n      tag_157\n        /* \"#utility.yul\":7003:7008   */\n      dup2\n        /* \"#utility.yul\":6971:7009   */\n      tag_62\n      jump\t// in\n    tag_157:\n        /* \"#utility.yul\":7055:7084   */\n      tag_158\n        /* \"#utility.yul\":7073:7083   */\n      dup5\n        /* \"#utility.yul\":7055:7084   */\n      tag_63\n      jump\t// in\n    tag_158:\n        /* \"#utility.yul\":7045:7053   */\n      dup2\n        /* \"#utility.yul\":7041:7085   */\n      add\n        /* \"#utility.yul\":7238:7240   */\n      0x20\n        /* \"#utility.yul\":7226:7236   */\n      dup6\n        /* \"#utility.yul\":7223:7241   */\n      lt\n        /* \"#utility.yul\":7220:7269   */\n      iszero\n      tag_159\n      jumpi\n        /* \"#utility.yul\":7259:7267   */\n      dup2\n        /* \"#utility.yul\":7244:7267   */\n      swap1\n      pop\n        /* \"#utility.yul\":7220:7269   */\n    tag_159:\n        /* \"#utility.yul\":7282:7362   */\n      tag_160\n        /* \"#utility.yul\":7338:7360   */\n      tag_161\n        /* \"#utility.yul\":7356:7359   */\n      dup6\n        /* \"#utility.yul\":7338:7360   */\n      tag_63\n      jump\t// in\n    tag_161:\n        /* \"#utility.yul\":7328:7336   */\n      dup4\n        /* \"#utility.yul\":7324:7361   */\n      add\n        /* \"#utility.yul\":7311:7322   */\n      dup3\n        /* \"#utility.yul\":7282:7362   */\n      tag_72\n      jump\t// in\n    tag_160:\n        /* \"#utility.yul\":6941:7372   */\n      pop\n      pop\n        /* \"#utility.yul\":6926:7372   */\n    tag_156:\n        /* \"#utility.yul\":6836:7379   */\n      pop\n      pop\n      pop\n      jump\t// out\n        /* \"#utility.yul\":7385:7502   */\n    tag_74:\n        /* \"#utility.yul\":7439:7447   */\n      0x00\n        /* \"#utility.yul\":7489:7494   */\n      dup3\n        /* \"#utility.yul\":7483:7487   */\n      dup3\n        /* \"#utility.yul\":7479:7495   */\n      shr\n        /* \"#utility.yul\":7458:7495   */\n      swap1\n      pop\n        /* \"#utility.yul\":7385:7502   */\n      swap3\n      swap2\n      pop\n      pop\n      jump\t// out\n        /* \"#utility.yul\":7508:7677   */\n    tag_75:\n        /* \"#utility.yul\":7552:7558   */\n      0x00\n        /* \"#utility.yul\":7585:7636   */\n      tag_164\n        /* \"#utility.yul\":7633:7634   */\n      0x00\n        /* \"#utility.yul\":7629:7635   */\n      not\n        /* \"#utility.yul\":7621:7626   */\n      dup5\n        /* \"#utility.yul\":7618:7619   */\n      0x08\n        /* \"#utility.yul\":7614:7627   */\n      mul\n        /* \"#utility.yul\":7585:7636   */\n      tag_74\n      jump\t// in\n    tag_164:\n        /* \"#utility.yul\":7581:7637   */\n      not\n        /* \"#utility.yul\":7666:7670   */\n      dup1\n        /* \"#utility.yul\":7660:7664   */\n      dup4\n        /* \"#utility.yul\":7656:7671   */\n      and\n        /* \"#utility.yul\":7646:7671   */\n      swap2\n      pop\n        /* \"#utility.yul\":7559:7677   */\n      pop\n        /* \"#utility.yul\":7508:7677   */\n      swap3\n      swap2\n      pop\n      pop\n      jump\t// out\n        /* \"#utility.yul\":7682:7977   */\n    tag_76:\n        /* \"#utility.yul\":7758:7762   */\n      0x00\n        /* \"#utility.yul\":7904:7933   */\n      tag_166\n        /* \"#utility.yul\":7929:7932   */\n      dup4\n        /* \"#utility.yul\":7923:7927   */\n      dup4\n        /* \"#utility.yul\":7904:7933   */\n      tag_75\n      jump\t// in\n    tag_166:\n        /* \"#utility.yul\":7896:7933   */\n      swap2\n      pop\n        /* \"#utility.yul\":7966:7969   */\n      dup3\n        /* \"#utility.yul\":7963:7964   */\n      0x02\n        /* \"#utility.yul\":7959:7970   */\n      mul\n        /* \"#utility.yul\":7953:7957   */\n      dup3\n        /* \"#utility.yul\":7950:7971   */\n      or\n        /* \"#utility.yul\":7942:7971   */\n      swap1\n      pop\n        /* \"#utility.yul\":7682:7977   */\n      swap3\n      swap2\n      pop\n      pop\n      jump\t// out\n        /* \"#utility.yul\":7982:9377   */\n    tag_32:\n        /* \"#utility.yul\":8099:8136   */\n      tag_168\n        /* \"#utility.yul\":8132:8135   */\n      dup3\n        /* \"#utility.yul\":8099:8136   */\n      tag_55\n      jump\t// in\n    tag_168:\n        /* \"#utility.yul\":8201:8219   */\n      0xffffffffffffffff\n        /* \"#utility.yul\":8193:8199   */\n      dup2\n        /* \"#utility.yul\":8190:8220   */\n      gt\n        /* \"#utility.yul\":8187:8243   */\n      iszero\n      tag_169\n      jumpi\n        /* \"#utility.yul\":8223:8241   */\n      tag_170\n      tag_60\n      jump\t// in\n    tag_170:\n        /* \"#utility.yul\":8187:8243   */\n    tag_169:\n        /* \"#utility.yul\":8267:8305   */\n      tag_171\n        /* \"#utility.yul\":8299:8303   */\n      dup3\n        /* \"#utility.yul\":8293:8304   */\n      sload\n        /* \"#utility.yul\":8267:8305   */\n      tag_37\n      jump\t// in\n    tag_171:\n        /* \"#utility.yul\":8352:8419   */\n      tag_172\n        /* \"#utility.yul\":8412:8418   */\n      dup3\n        /* \"#utility.yul\":8404:8410   */\n      dup3\n        /* \"#utility.yul\":8398:8402   */\n      dup6\n        /* \"#utility.yul\":8352:8419   */\n      tag_73\n      jump\t// in\n    tag_172:\n        /* \"#utility.yul\":8446:8447   */\n      0x00\n        /* \"#utility.yul\":8470:8474   */\n      0x20\n        /* \"#utility.yul\":8457:8474   */\n      swap1\n      pop\n        /* \"#utility.yul\":8502:8504   */\n      0x1f\n        /* \"#utility.yul\":8494:8500   */\n      dup4\n        /* \"#utility.yul\":8491:8505   */\n      gt\n        /* \"#utility.yul\":8519:8520   */\n      0x01\n        /* \"#utility.yul\":8514:9132   */\n      dup2\n      eq\n      tag_174\n      jumpi\n        /* \"#utility.yul\":9176:9177   */\n      0x00\n        /* \"#utility.yul\":9193:9199   */\n      dup5\n        /* \"#utility.yul\":9190:9267   */\n      iszero\n      tag_175\n      jumpi\n        /* \"#utility.yul\":9242:9251   */\n      dup3\n        /* \"#utility.yul\":9237:9240   */\n      dup8\n        /* \"#utility.yul\":9233:9252   */\n      add\n        /* \"#utility.yul\":9227:9253   */\n      mload\n        /* \"#utility.yul\":9218:9253   */\n      swap1\n      pop\n        /* \"#utility.yul\":9190:9267   */\n    tag_175:\n        /* \"#utility.yul\":9293:9360   */\n      tag_176\n        /* \"#utility.yul\":9353:9359   */\n      dup6\n        /* \"#utility.yul\":9346:9351   */\n      dup3\n        /* \"#utility.yul\":9293:9360   */\n      tag_76\n      jump\t// in\n    tag_176:\n        /* \"#utility.yul\":9287:9291   */\n      dup7\n        /* \"#utility.yul\":9280:9361   */\n      sstore\n        /* \"#utility.yul\":9149:9371   */\n      pop\n        /* \"#utility.yul\":8484:9371   */\n      jump(tag_173)\n        /* \"#utility.yul\":8514:9132   */\n    tag_174:\n        /* \"#utility.yul\":8566:8570   */\n      0x1f\n        /* \"#utility.yul\":8562:8571   */\n      not\n        /* \"#utility.yul\":8554:8560   */\n      dup5\n        /* \"#utility.yul\":8550:8572   */\n      and\n        /* \"#utility.yul\":8600:8637   */\n      tag_177\n        /* \"#utility.yul\":8632:8636   */\n      dup7\n        /* \"#utility.yul\":8600:8637   */\n      tag_62\n      jump\t// in\n    tag_177:\n        /* \"#utility.yul\":8659:8660   */\n      0x00\n        /* \"#utility.yul\":8673:8881   */\n    tag_178:\n        /* \"#utility.yul\":8687:8694   */\n      dup3\n        /* \"#utility.yul\":8684:8685   */\n      dup2\n        /* \"#utility.yul\":8681:8695   */\n      lt\n        /* \"#utility.yul\":8673:8881   */\n      iszero\n      tag_180\n      jumpi\n        /* \"#utility.yul\":8766:8775   */\n      dup5\n        /* \"#utility.yul\":8761:8764   */\n      dup10\n        /* \"#utility.yul\":8757:8776   */\n      add\n        /* \"#utility.yul\":8751:8777   */\n      mload\n        /* \"#utility.yul\":8743:8749   */\n      dup3\n        /* \"#utility.yul\":8736:8778   */\n      sstore\n        /* \"#utility.yul\":8817:8818   */\n      0x01\n        /* \"#utility.yul\":8809:8815   */\n      dup3\n        /* \"#utility.yul\":8805:8819   */\n      add\n        /* \"#utility.yul\":8795:8819   */\n      swap2\n      pop\n        /* \"#utility.yul\":8864:8866   */\n      0x20\n        /* \"#utility.yul\":8853:8862   */\n      dup6\n        /* \"#utility.yul\":8849:8867   */\n      add\n        /* \"#utility.yul\":8836:8867   */\n      swap5\n      pop\n        /* \"#utility.yul\":8710:8714   */\n      0x20\n        /* \"#utility.yul\":8707:8708   */\n      dup2\n        /* \"#utility.yul\":8703:8715   */\n      add\n        /* \"#utility.yul\":8698:8715   */\n      swap1\n      pop\n        /* \"#utility.yul\":8673:8881   */\n      jump(tag_178)\n    tag_180:\n        /* \"#utility.yul\":8909:8915   */\n      dup7\n        /* \"#utility.yul\":8900:8907   */\n      dup4\n        /* \"#utility.yul\":8897:8916   */\n      lt\n        /* \"#utility.yul\":8894:9073   */\n      iszero\n      tag_181\n      jumpi\n        /* \"#utility.yul\":8967:8976   */\n      dup5\n        /* \"#utility.yul\":8962:8965   */\n      dup10\n        /* \"#utility.yul\":8958:8977   */\n      add\n        /* \"#utility.yul\":8952:8978   */\n      mload\n        /* \"#utility.yul\":9010:9058   */\n      tag_182\n        /* \"#utility.yul\":9052:9056   */\n      0x1f\n        /* \"#utility.yul\":9044:9050   */\n      dup10\n        /* \"#utility.yul\":9040:9057   */\n      and\n        /* \"#utility.yul\":9029:9038   */\n      dup3\n        /* \"#utility.yul\":9010:9058   */\n      tag_75\n      jump\t// in\n    tag_182:\n        /* \"#utility.yul\":9002:9008   */\n      dup4\n        /* \"#utility.yul\":8995:9059   */\n      sstore\n        /* \"#utility.yul\":8917:9073   */\n      pop\n        /* \"#utility.yul\":8894:9073   */\n    tag_181:\n        /* \"#utility.yul\":9119:9120   */\n      0x01\n        /* \"#utility.yul\":9115:9116   */\n      0x02\n        /* \"#utility.yul\":9107:9113   */\n      dup9\n        /* \"#utility.yul\":9103:9117   */\n      mul\n        /* \"#utility.yul\":9099:9121   */\n      add\n        /* \"#utility.yul\":9093:9097   */\n      dup9\n        /* \"#utility.yul\":9086:9122   */\n      sstore\n        /* \"#utility.yul\":8521:9132   */\n      pop\n      pop\n      pop\n        /* \"#utility.yul\":8484:9371   */\n    tag_173:\n      pop\n        /* \"#utility.yul\":8074:9377   */\n      pop\n      pop\n      pop\n        /* \"#utility.yul\":7982:9377   */\n      pop\n      pop\n      jump\t// out\n\n    auxdata: 0xa264697066735822122018ea8d614b732d316788626e60b4423236f2a4d218a15c69d0d8f8c9266a286964736f6c634300081a0033\n}\n",
				"bytecode": {
					"linkReferences": {},
					"object": "60806040525f805f6101000a81548160ff02191690831515021790555060586001557fffffffffffffffffffffffffffffffffffffffffffffffffffffffffffffffa8600255348015604f575f80fd5b506107b58061005d5f395ff3fe608060405234801561000f575f80fd5b5060043610610055575f3560e01c80631ef455c7146100595780636057361d146100755780637cbe820714610091578063a2f9eac6146100af578063f4de77d3146100e0575b5f80fd5b610073600480360381019061006e919061033b565b610110565b005b61008f600480360381019061008a9190610398565b6101ba565b005b6100996101c4565b6040516100a691906103d2565b60405180910390f35b6100c960048036038101906100c49190610398565b6101ca565b6040516100d792919061045b565b60405180910390f35b6100fa60048036038101906100f59190610398565b61027f565b60405161010791906103d2565b60405180910390f35b5f604051806040016040528085858080601f0160208091040260200160405190810160405280939291908181526020018383808284375f81840152601f19601f820116905080830192505050505050508152602001838152509050600581908060018154018082558091505060019003905f5260205f2090600202015f909190919091505f820151815f0190816101a791906106b0565b5060208201518160010155505050505050565b8060038190555050565b60035481565b600581815481106101d9575f80fd5b905f5260205f2090600202015f91509050805f0180546101f8906104e3565b80601f0160208091040260200160405190810160405280929190818152602001828054610224906104e3565b801561026f5780601f106102465761010080835404028352916020019161026f565b820191905f5260205f20905b81548152906001019060200180831161025257829003601f168201915b5050505050908060010154905082565b6004818154811061028e575f80fd5b905f5260205f20015f915090505481565b5f80fd5b5f80fd5b5f80fd5b5f80fd5b5f80fd5b5f8083601f8401126102c8576102c76102a7565b5b8235905067ffffffffffffffff8111156102e5576102e46102ab565b5b602083019150836001820283011115610301576103006102af565b5b9250929050565b5f819050919050565b61031a81610308565b8114610324575f80fd5b50565b5f8135905061033581610311565b92915050565b5f805f604084860312156103525761035161029f565b5b5f84013567ffffffffffffffff81111561036f5761036e6102a3565b5b61037b868287016102b3565b9350935050602061038e86828701610327565b9150509250925092565b5f602082840312156103ad576103ac61029f565b5b5f6103ba84828501610327565b91505092915050565b6103cc81610308565b82525050565b5f6020820190506103e55f8301846103c3565b92915050565b5f81519050919050565b5f82825260208201905092915050565b8281835e5f83830152505050565b5f601f19601f8301169050919050565b5f61042d826103eb565b61043781856103f5565b9350610447818560208601610405565b61045081610413565b840191505092915050565b5f6040820190508181035f8301526104738185610423565b905061048260208301846103c3565b9392505050565b7f4e487b71000000000000000000000000000000000000000000000000000000005f52604160045260245ffd5b7f4e487b71000000000000000000000000000000000000000000000000000000005f52602260045260245ffd5b5f60028204905060018216806104fa57607f821691505b60208210810361050d5761050c6104b6565b5b50919050565b5f819050815f5260205f209050919050565b5f6020601f8301049050919050565b5f82821b905092915050565b5f6008830261056f7fffffffffffffffffffffffffffffffffffffffffffffffffffffffffffffffff82610534565b6105798683610534565b95508019841693508086168417925050509392505050565b5f819050919050565b5f6105b46105af6105aa84610308565b610591565b610308565b9050919050565b5f819050919050565b6105cd8361059a565b6105e16105d9826105bb565b848454610540565b825550505050565b5f90565b6105f56105e9565b6106008184846105c4565b505050565b5b81811015610623576106185f826105ed565b600181019050610606565b5050565b601f8211156106685761063981610513565b61064284610525565b81016020851015610651578190505b61066561065d85610525565b830182610605565b50505b505050565b5f82821c905092915050565b5f6106885f198460080261066d565b1980831691505092915050565b5f6106a08383610679565b9150826002028217905092915050565b6106b9826103eb565b67ffffffffffffffff8111156106d2576106d1610489565b5b6106dc82546104e3565b6106e7828285610627565b5f60209050601f831160018114610718575f8415610706578287015190505b6107108582610695565b865550610777565b601f19841661072686610513565b5f5b8281101561074d57848901518255600182019150602085019450602081019050610728565b8683101561076a5784890151610766601f891682610679565b8355505b6001600288020188555050505b50505050505056fea264697066735822122018ea8d614b732d316788626e60b4423236f2a4d218a15c69d0d8f8c9266a286964736f6c634300081a0033",
					"opcodes": "PUSH1 0x80 PUSH1 0x40 MSTORE PUSH0 DUP1 PUSH0 PUSH2 0x100 EXP DUP2 SLOAD DUP2 PUSH1 0xFF MUL NOT AND SWAP1 DUP4 ISZERO ISZERO MUL OR SWAP1 SSTORE POP PUSH1 0x58 PUSH1 0x1 SSTORE PUSH32 0xFFFFFFFFFFFFFFFFFFFFFFFFFFFFFFFFFFFFFFFFFFFFFFFFFFFFFFFFFFFFFFA8 PUSH1 0x2 SSTORE CALLVALUE DUP1 ISZERO PUSH1 0x4F JUMPI PUSH0 DUP1 REVERT JUMPDEST POP PUSH2 0x7B5 DUP1 PUSH2 0x5D PUSH0 CODECOPY PUSH0 RETURN INVALID PUSH1 0x80 PUSH1 0x40 MSTORE CALLVALUE DUP1 ISZERO PUSH2 0xF JUMPI PUSH0 DUP1 REVERT JUMPDEST POP PUSH1 0x4 CALLDATASIZE LT PUSH2 0x55 JUMPI PUSH0 CALLDATALOAD PUSH1 0xE0 SHR DUP1 PUSH4 0x1EF455C7 EQ PUSH2 0x59 JUMPI DUP1 PUSH4 0x6057361D EQ PUSH2 0x75 JUMPI DUP1 PUSH4 0x7CBE8207 EQ PUSH2 0x91 JUMPI DUP1 PUSH4 0xA2F9EAC6 EQ PUSH2 0xAF JUMPI DUP1 PUSH4 0xF4DE77D3 EQ PUSH2 0xE0 JUMPI JUMPDEST PUSH0 DUP1 REVERT JUMPDEST PUSH2 0x73 PUSH1 0x4 DUP1 CALLDATASIZE SUB DUP2 ADD SWAP1 PUSH2 0x6E SWAP2 SWAP1 PUSH2 0x33B JUMP JUMPDEST PUSH2 0x110 JUMP JUMPDEST STOP JUMPDEST PUSH2 0x8F PUSH1 0x4 DUP1 CALLDATASIZE SUB DUP2 ADD SWAP1 PUSH2 0x8A SWAP2 SWAP1 PUSH2 0x398 JUMP JUMPDEST PUSH2 0x1BA JUMP JUMPDEST STOP JUMPDEST PUSH2 0x99 PUSH2 0x1C4 JUMP JUMPDEST PUSH1 0x40 MLOAD PUSH2 0xA6 SWAP2 SWAP1 PUSH2 0x3D2 JUMP JUMPDEST PUSH1 0x40 MLOAD DUP1 SWAP2 SUB SWAP1 RETURN JUMPDEST PUSH2 0xC9 PUSH1 0x4 DUP1 CALLDATASIZE SUB DUP2 ADD SWAP1 PUSH2 0xC4 SWAP2 SWAP1 PUSH2 0x398 JUMP JUMPDEST PUSH2 0x1CA JUMP JUMPDEST PUSH1 0x40 MLOAD PUSH2 0xD7 SWAP3 SWAP2 SWAP1 PUSH2 0x45B JUMP JUMPDEST PUSH1 0x40 MLOAD DUP1 SWAP2 SUB SWAP1 RETURN JUMPDEST PUSH2 0xFA PUSH1 0x4 DUP1 CALLDATASIZE SUB DUP2 ADD SWAP1 PUSH2 0xF5 SWAP2 SWAP1 PUSH2 0x398 JUMP JUMPDEST PUSH2 0x27F JUMP JUMPDEST PUSH1 0x40 MLOAD PUSH2 0x107 SWAP2 SWAP1 PUSH2 0x3D2 JUMP JUMPDEST PUSH1 0x40 MLOAD DUP1 SWAP2 SUB SWAP1 RETURN JUMPDEST PUSH0 PUSH1 0x40 MLOAD DUP1 PUSH1 0x40 ADD PUSH1 0x40 MSTORE DUP1 DUP6 DUP6 DUP1 DUP1 PUSH1 0x1F ADD PUSH1 0x20 DUP1 SWAP2 DIV MUL PUSH1 0x20 ADD PUSH1 0x40 MLOAD SWAP1 DUP2 ADD PUSH1 0x40 MSTORE DUP1 SWAP4 SWAP3 SWAP2 SWAP1 DUP2 DUP2 MSTORE PUSH1 0x20 ADD DUP4 DUP4 DUP1 DUP3 DUP5 CALLDATACOPY PUSH0 DUP2 DUP5 ADD MSTORE PUSH1 0x1F NOT PUSH1 0x1F DUP3 ADD AND SWAP1 POP DUP1 DUP4 ADD SWAP3 POP POP POP POP POP POP POP DUP2 MSTORE PUSH1 0x20 ADD DUP4 DUP2 MSTORE POP SWAP1 POP PUSH1 0x5 DUP2 SWAP1 DUP1 PUSH1 0x1 DUP2 SLOAD ADD DUP1 DUP3 SSTORE DUP1 SWAP2 POP POP PUSH1 0x1 SWAP1 SUB SWAP1 PUSH0 MSTORE PUSH1 0x20 PUSH0 KECCAK256 SWAP1 PUSH1 0x2 MUL ADD PUSH0 SWAP1 SWAP2 SWAP1 SWAP2 SWAP1 SWAP2 POP PUSH0 DUP3 ADD MLOAD DUP2 PUSH0 ADD SWAP1 DUP2 PUSH2 0x1A7 SWAP2 SWAP1 PUSH2 0x6B0 JUMP JUMPDEST POP PUSH1 0x20 DUP3 ADD MLOAD DUP2 PUSH1 0x1 ADD SSTORE POP POP POP POP POP POP JUMP JUMPDEST DUP1 PUSH1 0x3 DUP2 SWAP1 SSTORE POP POP JUMP JUMPDEST PUSH1 0x3 SLOAD DUP2 JUMP JUMPDEST PUSH1 0x5 DUP2 DUP2 SLOAD DUP2 LT PUSH2 0x1D9 JUMPI PUSH0 DUP1 REVERT JUMPDEST SWAP1 PUSH0 MSTORE PUSH1 0x20 PUSH0 KECCAK256 SWAP1 PUSH1 0x2 MUL ADD PUSH0 SWAP2 POP SWAP1 POP DUP1 PUSH0 ADD DUP1 SLOAD PUSH2 0x1F8 SWAP1 PUSH2 0x4E3 JUMP JUMPDEST DUP1 PUSH1 0x1F ADD PUSH1 0x20 DUP1 SWAP2 DIV MUL PUSH1 0x20 ADD PUSH1 0x40 MLOAD SWAP1 DUP2 ADD PUSH1 0x40 MSTORE DUP1 SWAP3 SWAP2 SWAP1 DUP2 DUP2 MSTORE PUSH1 0x20 ADD DUP3 DUP1 SLOAD PUSH2 0x224 SWAP1 PUSH2 0x4E3 JUMP JUMPDEST DUP1 ISZERO PUSH2 0x26F JUMPI DUP1 PUSH1 0x1F LT PUSH2 0x246 JUMPI PUSH2 0x100 DUP1 DUP4 SLOAD DIV MUL DUP4 MSTORE SWAP2 PUSH1 0x20 ADD SWAP2 PUSH2 0x26F JUMP JUMPDEST DUP3 ADD SWAP2 SWAP1 PUSH0 MSTORE PUSH1 0x20 PUSH0 KECCAK256 SWAP1 JUMPDEST DUP2 SLOAD DUP2 MSTORE SWAP1 PUSH1 0x1 ADD SWAP1 PUSH1 0x20 ADD DUP1 DUP4 GT PUSH2 0x252 JUMPI DUP3 SWAP1 SUB PUSH1 0x1F AND DUP3 ADD SWAP2 JUMPDEST POP POP POP POP POP SWAP1 DUP1 PUSH1 0x1 ADD SLOAD SWAP1 POP DUP3 JUMP JUMPDEST PUSH1 0x4 DUP2 DUP2 SLOAD DUP2 LT PUSH2 0x28E JUMPI PUSH0 DUP1 REVERT JUMPDEST SWAP1 PUSH0 MSTORE PUSH1 0x20 PUSH0 KECCAK256 ADD PUSH0 SWAP2 POP SWAP1 POP SLOAD DUP2 JUMP JUMPDEST PUSH0 DUP1 REVERT JUMPDEST PUSH0 DUP1 REVERT JUMPDEST PUSH0 DUP1 REVERT JUMPDEST PUSH0 DUP1 REVERT JUMPDEST PUSH0 DUP1 REVERT JUMPDEST PUSH0 DUP1 DUP4 PUSH1 0x1F DUP5 ADD SLT PUSH2 0x2C8 JUMPI PUSH2 0x2C7 PUSH2 0x2A7 JUMP JUMPDEST JUMPDEST DUP3 CALLDATALOAD SWAP1 POP PUSH8 0xFFFFFFFFFFFFFFFF DUP2 GT ISZERO PUSH2 0x2E5 JUMPI PUSH2 0x2E4 PUSH2 0x2AB JUMP JUMPDEST JUMPDEST PUSH1 0x20 DUP4 ADD SWAP2 POP DUP4 PUSH1 0x1 DUP3 MUL DUP4 ADD GT ISZERO PUSH2 0x301 JUMPI PUSH2 0x300 PUSH2 0x2AF JUMP JUMPDEST JUMPDEST SWAP3 POP SWAP3 SWAP1 POP JUMP JUMPDEST PUSH0 DUP2 SWAP1 POP SWAP2 SWAP1 POP JUMP JUMPDEST PUSH2 0x31A DUP2 PUSH2 0x308 JUMP JUMPDEST DUP2 EQ PUSH2 0x324 JUMPI PUSH0 DUP1 REVERT JUMPDEST POP JUMP JUMPDEST PUSH0 DUP2 CALLDATALOAD SWAP1 POP PUSH2 0x335 DUP2 PUSH2 0x311 JUMP JUMPDEST SWAP3 SWAP2 POP POP JUMP JUMPDEST PUSH0 DUP1 PUSH0 PUSH1 0x40 DUP5 DUP7 SUB SLT ISZERO PUSH2 0x352 JUMPI PUSH2 0x351 PUSH2 0x29F JUMP JUMPDEST JUMPDEST PUSH0 DUP5 ADD CALLDATALOAD PUSH8 0xFFFFFFFFFFFFFFFF DUP2 GT ISZERO PUSH2 0x36F JUMPI PUSH2 0x36E PUSH2 0x2A3 JUMP JUMPDEST JUMPDEST PUSH2 0x37B DUP7 DUP3 DUP8 ADD PUSH2 0x2B3 JUMP JUMPDEST SWAP4 POP SWAP4 POP POP PUSH1 0x20 PUSH2 0x38E DUP7 DUP3 DUP8 ADD PUSH2 0x327 JUMP JUMPDEST SWAP2 POP POP SWAP3 POP SWAP3 POP SWAP3 JUMP JUMPDEST PUSH0 PUSH1 0x20 DUP3 DUP5 SUB SLT ISZERO PUSH2 0x3AD JUMPI PUSH2 0x3AC PUSH2 0x29F JUMP JUMPDEST JUMPDEST PUSH0 PUSH2 0x3BA DUP5 DUP3 DUP6 ADD PUSH2 0x327 JUMP JUMPDEST SWAP2 POP POP SWAP3 SWAP2 POP POP JUMP JUMPDEST PUSH2 0x3CC DUP2 PUSH2 0x308 JUMP JUMPDEST DUP3 MSTORE POP POP JUMP JUMPDEST PUSH0 PUSH1 0x20 DUP3 ADD SWAP1 POP PUSH2 0x3E5 PUSH0 DUP4 ADD DUP5 PUSH2 0x3C3 JUMP JUMPDEST SWAP3 SWAP2 POP POP JUMP JUMPDEST PUSH0 DUP2 MLOAD SWAP1 POP SWAP2 SWAP1 POP JUMP JUMPDEST PUSH0 DUP3 DUP3 MSTORE PUSH1 0x20 DUP3 ADD SWAP1 POP SWAP3 SWAP2 POP POP JUMP JUMPDEST DUP3 DUP2 DUP4 MCOPY PUSH0 DUP4 DUP4 ADD MSTORE POP POP POP JUMP JUMPDEST PUSH0 PUSH1 0x1F NOT PUSH1 0x1F DUP4 ADD AND SWAP1 POP SWAP2 SWAP1 POP JUMP JUMPDEST PUSH0 PUSH2 0x42D DUP3 PUSH2 0x3EB JUMP JUMPDEST PUSH2 0x437 DUP2 DUP6 PUSH2 0x3F5 JUMP JUMPDEST SWAP4 POP PUSH2 0x447 DUP2 DUP6 PUSH1 0x20 DUP7 ADD PUSH2 0x405 JUMP JUMPDEST PUSH2 0x450 DUP2 PUSH2 0x413 JUMP JUMPDEST DUP5 ADD SWAP2 POP POP SWAP3 SWAP2 POP POP JUMP JUMPDEST PUSH0 PUSH1 0x40 DUP3 ADD SWAP1 POP DUP2 DUP2 SUB PUSH0 DUP4 ADD MSTORE PUSH2 0x473 DUP2 DUP6 PUSH2 0x423 JUMP JUMPDEST SWAP1 POP PUSH2 0x482 PUSH1 0x20 DUP4 ADD DUP5 PUSH2 0x3C3 JUMP JUMPDEST SWAP4 SWAP3 POP POP POP JUMP JUMPDEST PUSH32 0x4E487B7100000000000000000000000000000000000000000000000000000000 PUSH0 MSTORE PUSH1 0x41 PUSH1 0x4 MSTORE PUSH1 0x24 PUSH0 REVERT JUMPDEST PUSH32 0x4E487B7100000000000000000000000000000000000000000000000000000000 PUSH0 MSTORE PUSH1 0x22 PUSH1 0x4 MSTORE PUSH1 0x24 PUSH0 REVERT JUMPDEST PUSH0 PUSH1 0x2 DUP3 DIV SWAP1 POP PUSH1 0x1 DUP3 AND DUP1 PUSH2 0x4FA JUMPI PUSH1 0x7F DUP3 AND SWAP2 POP JUMPDEST PUSH1 0x20 DUP3 LT DUP2 SUB PUSH2 0x50D JUMPI PUSH2 0x50C PUSH2 0x4B6 JUMP JUMPDEST JUMPDEST POP SWAP2 SWAP1 POP JUMP JUMPDEST PUSH0 DUP2 SWAP1 POP DUP2 PUSH0 MSTORE PUSH1 0x20 PUSH0 KECCAK256 SWAP1 POP SWAP2 SWAP1 POP JUMP JUMPDEST PUSH0 PUSH1 0x20 PUSH1 0x1F DUP4 ADD DIV SWAP1 POP SWAP2 SWAP1 POP JUMP JUMPDEST PUSH0 DUP3 DUP3 SHL SWAP1 POP SWAP3 SWAP2 POP POP JUMP JUMPDEST PUSH0 PUSH1 0x8 DUP4 MUL PUSH2 0x56F PUSH32 0xFFFFFFFFFFFFFFFFFFFFFFFFFFFFFFFFFFFFFFFFFFFFFFFFFFFFFFFFFFFFFFFF DUP3 PUSH2 0x534 JUMP JUMPDEST PUSH2 0x579 DUP7 DUP4 PUSH2 0x534 JUMP JUMPDEST SWAP6 POP DUP1 NOT DUP5 AND SWAP4 POP DUP1 DUP7 AND DUP5 OR SWAP3 POP POP POP SWAP4 SWAP3 POP POP POP JUMP JUMPDEST PUSH0 DUP2 SWAP1 POP SWAP2 SWAP1 POP JUMP JUMPDEST PUSH0 PUSH2 0x5B4 PUSH2 0x5AF PUSH2 0x5AA DUP5 PUSH2 0x308 JUMP JUMPDEST PUSH2 0x591 JUMP JUMPDEST PUSH2 0x308 JUMP JUMPDEST SWAP1 POP SWAP2 SWAP1 POP JUMP JUMPDEST PUSH0 DUP2 SWAP1 POP SWAP2 SWAP1 POP JUMP JUMPDEST PUSH2 0x5CD DUP4 PUSH2 0x59A JUMP JUMPDEST PUSH2 0x5E1 PUSH2 0x5D9 DUP3 PUSH2 0x5BB JUMP JUMPDEST DUP5 DUP5 SLOAD PUSH2 0x540 JUMP JUMPDEST DUP3 SSTORE POP POP POP POP JUMP JUMPDEST PUSH0 SWAP1 JUMP JUMPDEST PUSH2 0x5F5 PUSH2 0x5E9 JUMP JUMPDEST PUSH2 0x600 DUP2 DUP5 DUP5 PUSH2 0x5C4 JUMP JUMPDEST POP POP POP JUMP JUMPDEST JUMPDEST DUP2 DUP2 LT ISZERO PUSH2 0x623 JUMPI PUSH2 0x618 PUSH0 DUP3 PUSH2 0x5ED JUMP JUMPDEST PUSH1 0x1 DUP2 ADD SWAP1 POP PUSH2 0x606 JUMP JUMPDEST POP POP JUMP JUMPDEST PUSH1 0x1F DUP3 GT ISZERO PUSH2 0x668 JUMPI PUSH2 0x639 DUP2 PUSH2 0x513 JUMP JUMPDEST PUSH2 0x642 DUP5 PUSH2 0x525 JUMP JUMPDEST DUP2 ADD PUSH1 0x20 DUP6 LT ISZERO PUSH2 0x651 JUMPI DUP2 SWAP1 POP JUMPDEST PUSH2 0x665 PUSH2 0x65D DUP6 PUSH2 0x525 JUMP JUMPDEST DUP4 ADD DUP3 PUSH2 0x605 JUMP JUMPDEST POP POP JUMPDEST POP POP POP JUMP JUMPDEST PUSH0 DUP3 DUP3 SHR SWAP1 POP SWAP3 SWAP2 POP POP JUMP JUMPDEST PUSH0 PUSH2 0x688 PUSH0 NOT DUP5 PUSH1 0x8 MUL PUSH2 0x66D JUMP JUMPDEST NOT DUP1 DUP4 AND SWAP2 POP POP SWAP3 SWAP2 POP POP JUMP JUMPDEST PUSH0 PUSH2 0x6A0 DUP4 DUP4 PUSH2 0x679 JUMP JUMPDEST SWAP2 POP DUP3 PUSH1 0x2 MUL DUP3 OR SWAP1 POP SWAP3 SWAP2 POP POP JUMP JUMPDEST PUSH2 0x6B9 DUP3 PUSH2 0x3EB JUMP JUMPDEST PUSH8 0xFFFFFFFFFFFFFFFF DUP2 GT ISZERO PUSH2 0x6D2 JUMPI PUSH2 0x6D1 PUSH2 0x489 JUMP JUMPDEST JUMPDEST PUSH2 0x6DC DUP3 SLOAD PUSH2 0x4E3 JUMP JUMPDEST PUSH2 0x6E7 DUP3 DUP3 DUP6 PUSH2 0x627 JUMP JUMPDEST PUSH0 PUSH1 0x20 SWAP1 POP PUSH1 0x1F DUP4 GT PUSH1 0x1 DUP2 EQ PUSH2 0x718 JUMPI PUSH0 DUP5 ISZERO PUSH2 0x706 JUMPI DUP3 DUP8 ADD MLOAD SWAP1 POP JUMPDEST PUSH2 0x710 DUP6 DUP3 PUSH2 0x695 JUMP JUMPDEST DUP7 SSTORE POP PUSH2 0x777 JUMP JUMPDEST PUSH1 0x1F NOT DUP5 AND PUSH2 0x726 DUP7 PUSH2 0x513 JUMP JUMPDEST PUSH0 JUMPDEST DUP3 DUP2 LT ISZERO PUSH2 0x74D JUMPI DUP5 DUP10 ADD MLOAD DUP3 SSTORE PUSH1 0x1 DUP3 ADD SWAP2 POP PUSH1 0x20 DUP6 ADD SWAP5 POP PUSH1 0x20 DUP2 ADD SWAP1 POP PUSH2 0x728 JUMP JUMPDEST DUP7 DUP4 LT ISZERO PUSH2 0x76A JUMPI DUP5 DUP10 ADD MLOAD PUSH2 0x766 PUSH1 0x1F DUP10 AND DUP3 PUSH2 0x679 JUMP JUMPDEST DUP4 SSTORE POP JUMPDEST PUSH1 0x1 PUSH1 0x2 DUP9 MUL ADD DUP9 SSTORE POP POP POP JUMPDEST POP POP POP POP POP POP JUMP INVALID LOG2 PUSH5 0x6970667358 0x22 SLT KECCAK256 XOR 0xEA DUP14 PUSH2 0x4B73 0x2D BALANCE PUSH8 0x88626E60B4423236 CALLCODE LOG4 0xD2 XOR LOG1 TLOAD PUSH10 0xD0D8F8C9266A28696473 PUSH16 0x6C634300081A00330000000000000000 "
				},
				"gasEstimates": {
					"creation": {
						"codeDepositCost": "394600",
						"executionCost": "68905",
						"totalCost": "463505"
					},
					"external": {
						"createPerson(string,uint256)": "infinite",
						"defaultNumber()": "2447",
						"listOfFavoriteNumbers(uint256)": "infinite",
						"persons(uint256)": "infinite",
						"store(uint256)": "22515"
					}
				},
				"methodIdentifiers": {
					"createPerson(string,uint256)": "1ef455c7",
					"defaultNumber()": "7cbe8207",
					"listOfFavoriteNumbers(uint256)": "f4de77d3",
					"persons(uint256)": "a2f9eac6",
					"store(uint256)": "6057361d"
				}
			},
			"storageLayout": {
				"storage": [
					{
						"astId": 4,
						"contract": "contracts/cyfrin updraft/SimpleStorage.sol:SimpleStorage",
						"label": "hasFavoriteNumber",
						"offset": 0,
						"slot": "0",
						"type": "t_bool"
					},
					{
						"astId": 7,
						"contract": "contracts/cyfrin updraft/SimpleStorage.sol:SimpleStorage",
						"label": "favoriteNumer",
						"offset": 0,
						"slot": "1",
						"type": "t_uint256"
					},
					{
						"astId": 11,
						"contract": "contracts/cyfrin updraft/SimpleStorage.sol:SimpleStorage",
						"label": "favoritePositiveNumber",
						"offset": 0,
						"slot": "2",
						"type": "t_int256"
					},
					{
						"astId": 13,
						"contract": "contracts/cyfrin updraft/SimpleStorage.sol:SimpleStorage",
						"label": "defaultNumber",
						"offset": 0,
						"slot": "3",
						"type": "t_uint256"
					},
					{
						"astId": 16,
						"contract": "contracts/cyfrin updraft/SimpleStorage.sol:SimpleStorage",
						"label": "listOfFavoriteNumbers",
						"offset": 0,
						"slot": "4",
						"type": "t_array(t_uint256)dyn_storage"
					},
					{
						"astId": 20,
						"contract": "contracts/cyfrin updraft/SimpleStorage.sol:SimpleStorage",
						"label": "persons",
						"offset": 0,
						"slot": "5",
						"type": "t_array(t_struct(Person)25_storage)dyn_storage"
					}
				],
				"types": {
					"t_array(t_struct(Person)25_storage)dyn_storage": {
						"base": "t_struct(Person)25_storage",
						"encoding": "dynamic_array",
						"label": "struct SimpleStorage.Person[]",
						"numberOfBytes": "32"
					},
					"t_array(t_uint256)dyn_storage": {
						"base": "t_uint256",
						"encoding": "dynamic_array",
						"label": "uint256[]",
						"numberOfBytes": "32"
					},
					"t_bool": {
						"encoding": "inplace",
						"label": "bool",
						"numberOfBytes": "1"
					},
					"t_int256": {
						"encoding": "inplace",
						"label": "int256",
						"numberOfBytes": "32"
					},
					"t_string_storage": {
						"encoding": "bytes",
						"label": "string",
						"numberOfBytes": "32"
					},
					"t_struct(Person)25_storage": {
						"encoding": "inplace",
						"label": "struct SimpleStorage.Person",
						"members": [
							{
								"astId": 22,
								"contract": "contracts/cyfrin updraft/SimpleStorage.sol:SimpleStorage",
								"label": "name",
								"offset": 0,
								"slot": "0",
								"type": "t_string_storage"
							},
							{
								"astId": 24,
								"contract": "contracts/cyfrin updraft/SimpleStorage.sol:SimpleStorage",
								"label": "age",
								"offset": 0,
								"slot": "1",
								"type": "t_uint256"
							}
						],
						"numberOfBytes": "64"
					},
					"t_uint256": {
						"encoding": "inplace",
						"label": "uint256",
						"numberOfBytes": "32"
					}
				}
			},
			"userdoc": {
				"kind": "user",
				"methods": {},
				"version": 1
			}
		}
	}
}